{
  "transactions": [
    {
      "hash": "0xef074a31e82afe63987e8ada7bd6139d54fc71590720283cc4d8b76f2c1d0f68",
      "transactionType": "CALL",
      "contractName": null,
      "contractAddress": "0x7262bfada9f61530119693d532e716d5cd3191ec",
      "function": "mint(address,uint256)",
      "arguments": [
        "0x3A4dB9e7306aF09012ceb0f222d581FD1F0C6D71",
        "10000000000"
      ],
      "transaction": {
        "from": "0x3a4db9e7306af09012ceb0f222d581fd1f0c6d71",
        "to": "0x7262bfada9f61530119693d532e716d5cd3191ec",
        "gas": "0xc63a",
        "value": "0x0",
        "input": "0x40c10f190000000000000000000000003a4db9e7306af09012ceb0f222d581fd1f0c6d7100000000000000000000000000000000000000000000000000000002540be400",
        "nonce": "0x6d",
        "chainId": "0xaef3"
      },
      "additionalContracts": [],
      "isFixedGasLimit": false
    },
    {
      "hash": "0x45753ba92e502494c74f2b25f634067fe749314dbec3d9af784ddeb68ff0c2a0",
      "transactionType": "CALL",
      "contractName": null,
      "contractAddress": "0xac166a1b90308ca742db5b388ffcbdc3e17a186c",
      "function": "mint(address,uint256)",
      "arguments": [
        "0x3A4dB9e7306aF09012ceb0f222d581FD1F0C6D71",
        "10000000000000000000"
      ],
      "transaction": {
        "from": "0x3a4db9e7306af09012ceb0f222d581fd1f0c6d71",
        "to": "0xac166a1b90308ca742db5b388ffcbdc3e17a186c",
        "gas": "0xc65d",
        "value": "0x0",
        "input": "0x40c10f190000000000000000000000003a4db9e7306af09012ceb0f222d581fd1f0c6d710000000000000000000000000000000000000000000000008ac7230489e80000",
        "nonce": "0x6e",
        "chainId": "0xaef3"
      },
      "additionalContracts": [],
      "isFixedGasLimit": false
    },
    {
      "hash": "0x07a625d503371c3b02fbb58247dc571b5464456a68b765cd838b829a41ef5b95",
      "transactionType": "CALL",
      "contractName": null,
      "contractAddress": "0x3b346548fbfa74623047b1e199a96576dd156f2e",
      "function": "mint(address,uint256)",
      "arguments": [
        "0x3A4dB9e7306aF09012ceb0f222d581FD1F0C6D71",
        "10000000000000000000000"
      ],
      "transaction": {
        "from": "0x3a4db9e7306af09012ceb0f222d581fd1f0c6d71",
        "to": "0x3b346548fbfa74623047b1e199a96576dd156f2e",
        "gas": "0xbbf4",
        "value": "0x0",
        "input": "0x40c10f190000000000000000000000003a4db9e7306af09012ceb0f222d581fd1f0c6d7100000000000000000000000000000000000000000000021e19e0c9bab2400000",
        "nonce": "0x6f",
        "chainId": "0xaef3"
      },
      "additionalContracts": [],
      "isFixedGasLimit": false
    },
    {
      "hash": "0xde953a05a0645a20c511cb9b5e5c049620988dbfcab418e6ad52c2060ac97101",
      "transactionType": "CALL",
      "contractName": null,
      "contractAddress": "0x3b346548fbfa74623047b1e199a96576dd156f2e",
      "function": "mint(address,uint256)",
      "arguments": [
        "0x283E260f03f80982d9D3A83A30A574DFF335D563",
        "10000000000000000000000"
      ],
      "transaction": {
        "from": "0x3a4db9e7306af09012ceb0f222d581fd1f0c6d71",
        "to": "0x3b346548fbfa74623047b1e199a96576dd156f2e",
        "gas": "0x11838",
        "value": "0x0",
        "input": "0x40c10f19000000000000000000000000283e260f03f80982d9d3a83a30a574dff335d56300000000000000000000000000000000000000000000021e19e0c9bab2400000",
        "nonce": "0x70",
        "chainId": "0xaef3"
      },
      "additionalContracts": [],
      "isFixedGasLimit": false
    },
    {
      "hash": "0xa8ce64a77fce89bf59bba48897c9eac57d8735a21ec586b2a8c5e84750a3babd",
      "transactionType": "CALL",
      "contractName": null,
      "contractAddress": "0xac166a1b90308ca742db5b388ffcbdc3e17a186c",
      "function": "approve(address,uint256)",
      "arguments": [
        "0x9113f4531aa608D96dEa970f7D9fE42dC9917A4c",
        "1000000000000000000"
      ],
      "transaction": {
        "from": "0x3a4db9e7306af09012ceb0f222d581fd1f0c6d71",
        "to": "0xac166a1b90308ca742db5b388ffcbdc3e17a186c",
        "gas": "0xfd33",
        "value": "0x0",
        "input": "0x095ea7b30000000000000000000000009113f4531aa608d96dea970f7d9fe42dc9917a4c0000000000000000000000000000000000000000000000000de0b6b3a7640000",
        "nonce": "0x71",
        "chainId": "0xaef3"
      },
      "additionalContracts": [],
      "isFixedGasLimit": false
    },
    {
      "hash": "0x37c662f2bb59c26e15cf1ed4ee301d79a1515703a6b077dcb836cde80ac67396",
      "transactionType": "CALL",
      "contractName": "LendyProtocol",
      "contractAddress": "0x9113f4531aa608d96dea970f7d9fe42dc9917a4c",
      "function": "supply(address,uint256,address,uint16)",
      "arguments": [
        "0xAC166A1B90308cA742Db5b388FFCBdc3E17a186c",
        "1000000000000000000",
        "0x3A4dB9e7306aF09012ceb0f222d581FD1F0C6D71",
        "0"
      ],
      "transaction": {
        "from": "0x3a4db9e7306af09012ceb0f222d581fd1f0c6d71",
        "to": "0x9113f4531aa608d96dea970f7d9fe42dc9917a4c",
        "gas": "0x351c4",
        "value": "0x0",
        "input": "0x617ba037000000000000000000000000ac166a1b90308ca742db5b388ffcbdc3e17a186c0000000000000000000000000000000000000000000000000de0b6b3a76400000000000000000000000000003a4db9e7306af09012ceb0f222d581fd1f0c6d710000000000000000000000000000000000000000000000000000000000000000",
        "nonce": "0x72",
        "chainId": "0xaef3"
      },
      "additionalContracts": [],
      "isFixedGasLimit": false
    },
    {
      "hash": "0x0271823589d1199002ac82c745729cd3fcca54301b04e40c28a048c447b8449c",
      "transactionType": "CALL",
      "contractName": "LendyProtocol",
      "contractAddress": "0x9113f4531aa608d96dea970f7d9fe42dc9917a4c",
      "function": "borrow(address,uint256,uint256,uint16,address)",
      "arguments": [
        "0x7262Bfada9f61530119693d532E716D5CD3191eC",
        "100000000",
        "2",
        "0",
        "0x3A4dB9e7306aF09012ceb0f222d581FD1F0C6D71"
      ],
      "transaction": {
        "from": "0x3a4db9e7306af09012ceb0f222d581fd1f0c6d71",
        "to": "0x9113f4531aa608d96dea970f7d9fe42dc9917a4c",
        "gas": "0x33826",
        "value": "0x0",
        "input": "0xa415bcad0000000000000000000000007262bfada9f61530119693d532e716d5cd3191ec0000000000000000000000000000000000000000000000000000000005f5e100000000000000000000000000000000000000000000000000000000000000000200000000000000000000000000000000000000000000000000000000000000000000000000000000000000003a4db9e7306af09012ceb0f222d581fd1f0c6d71",
        "nonce": "0x73",
        "chainId": "0xaef3"
      },
      "additionalContracts": [],
      "isFixedGasLimit": false
    },
    {
      "hash": "0x0f3c6de355511318f002996ce17b93f72fb050505fc367f63cfa7b4b8574206b",
      "transactionType": "CALL",
      "contractName": "LendyProtocol",
      "contractAddress": "0x9113f4531aa608d96dea970f7d9fe42dc9917a4c",
      "function": "supplyWithPermit(address,uint256,address,uint16,uint256,uint8,bytes32,bytes32)",
      "arguments": [
        "0x3B346548fbfa74623047B1E199a96576dd156f2e",
        "1000000000000000000000",
        "0x3A4dB9e7306aF09012ceb0f222d581FD1F0C6D71",
        "0",
        "1745588013",
        "27",
        "0x0000000000000000000000000000000000000000000000000000000000000001",
        "0x0000000000000000000000000000000000000000000000000000000000000002"
      ],
      "transaction": {
        "from": "0x3a4db9e7306af09012ceb0f222d581fd1f0c6d71",
        "to": "0x9113f4531aa608d96dea970f7d9fe42dc9917a4c",
        "gas": "0xf107",
        "value": "0x0",
        "input": "0x02c205f00000000000000000000000003b346548fbfa74623047b1e199a96576dd156f2e00000000000000000000000000000000000000000000003635c9adc5dea000000000000000000000000000003a4db9e7306af09012ceb0f222d581fd1f0c6d71000000000000000000000000000000000000000000000000000000000000000000000000000000000000000000000000000000000000000000000000680b8f2d000000000000000000000000000000000000000000000000000000000000001b00000000000000000000000000000000000000000000000000000000000000010000000000000000000000000000000000000000000000000000000000000002",
        "nonce": "0x74",
        "chainId": "0xaef3"
      },
      "additionalContracts": [],
      "isFixedGasLimit": false
    },
    {
      "hash": "0x464eb5f3cec6cb7a127532f2f6aac8af8193d1241c1c597c9d9a8aec8fea9eda",
      "transactionType": "CALL",
      "contractName": "LendyProtocol",
      "contractAddress": "0x9113f4531aa608d96dea970f7d9fe42dc9917a4c",
      "function": "repayWithPermit(address,uint256,uint256,address,uint256,uint8,bytes32,bytes32)",
      "arguments": [
        "0x3B346548fbfa74623047B1E199a96576dd156f2e",
        "500000000000000000000",
        "2",
        "0x3A4dB9e7306aF09012ceb0f222d581FD1F0C6D71",
        "1745588013",
        "27",
        "0x0000000000000000000000000000000000000000000000000000000000000001",
        "0x0000000000000000000000000000000000000000000000000000000000000002"
      ],
      "transaction": {
        "from": "0x3a4db9e7306af09012ceb0f222d581fd1f0c6d71",
        "to": "0x9113f4531aa608d96dea970f7d9fe42dc9917a4c",
        "gas": "0x28daa",
        "value": "0x0",
        "input": "0xee3e210b0000000000000000000000003b346548fbfa74623047b1e199a96576dd156f2e00000000000000000000000000000000000000000000001b1ae4d6e2ef50000000000000000000000000000000000000000000000000000000000000000000020000000000000000000000003a4db9e7306af09012ceb0f222d581fd1f0c6d7100000000000000000000000000000000000000000000000000000000680b8f2d000000000000000000000000000000000000000000000000000000000000001b00000000000000000000000000000000000000000000000000000000000000010000000000000000000000000000000000000000000000000000000000000002",
        "nonce": "0x75",
        "chainId": "0xaef3"
      },
      "additionalContracts": [],
      "isFixedGasLimit": false
    },
    {
      "hash": "0x800f39154f86944470dd6a8481804e23f4bb555c189c840a3bc68b3da64ff691",
      "transactionType": "CALL",
      "contractName": null,
      "contractAddress": "0xac166a1b90308ca742db5b388ffcbdc3e17a186c",
      "function": "approve(address,uint256)",
      "arguments": [
        "0x283E260f03f80982d9D3A83A30A574DFF335D563",
        "1000000000000000000"
      ],
      "transaction": {
        "from": "0x3a4db9e7306af09012ceb0f222d581fd1f0c6d71",
        "to": "0xac166a1b90308ca742db5b388ffcbdc3e17a186c",
        "gas": "0xfd33",
        "value": "0x0",
        "input": "0x095ea7b3000000000000000000000000283e260f03f80982d9d3a83a30a574dff335d5630000000000000000000000000000000000000000000000000de0b6b3a7640000",
        "nonce": "0x76",
        "chainId": "0xaef3"
      },
      "additionalContracts": [],
      "isFixedGasLimit": false
    },
    {
      "hash": "0x8a69287e65937670b640f8ffb49e6c1ab39d6a378fa84a858034f07d72521463",
      "transactionType": "CALL",
      "contractName": "LendyPositionManager",
      "contractAddress": "0x283e260f03f80982d9d3a83a30a574dff335d563",
      "function": "createPosition(address,uint256,address,uint256,uint256)",
      "arguments": [
        "0xAC166A1B90308cA742Db5b388FFCBdc3E17a186c",
        "1000000000000000000",
        "0x3B346548fbfa74623047B1E199a96576dd156f2e",
        "250000000000000000000",
        "2"
      ],
      "transaction": {
        "from": "0x3a4db9e7306af09012ceb0f222d581fd1f0c6d71",
        "to": "0x283e260f03f80982d9d3a83a30a574dff335d563",
        "gas": "0x85b30",
        "value": "0x0",
        "input": "0xb0c3d5df000000000000000000000000ac166a1b90308ca742db5b388ffcbdc3e17a186c0000000000000000000000000000000000000000000000000de0b6b3a76400000000000000000000000000003b346548fbfa74623047b1e199a96576dd156f2e00000000000000000000000000000000000000000000000d8d726b7177a800000000000000000000000000000000000000000000000000000000000000000002",
        "nonce": "0x77",
        "chainId": "0xaef3"
      },
      "additionalContracts": [],
      "isFixedGasLimit": false
    },
    {
      "hash": "0xeb3bcc2ae49257032991f1fd404190be8cdd380ae032a947eb5edea34d0c6aeb",
      "transactionType": "CALL",
      "contractName": null,
      "contractAddress": "0x3b346548fbfa74623047b1e199a96576dd156f2e",
      "function": "approve(address,uint256)",
      "arguments": [
        "0x283E260f03f80982d9D3A83A30A574DFF335D563",
        "62500000000000000000"
      ],
      "transaction": {
        "from": "0x3a4db9e7306af09012ceb0f222d581fd1f0c6d71",
        "to": "0x3b346548fbfa74623047b1e199a96576dd156f2e",
        "gas": "0x10c4a",
        "value": "0x0",
        "input": "0x095ea7b3000000000000000000000000283e260f03f80982d9d3a83a30a574dff335d563000000000000000000000000000000000000000000000003635c9adc5dea0000",
        "nonce": "0x78",
        "chainId": "0xaef3"
      },
      "additionalContracts": [],
      "isFixedGasLimit": false
    },
    {
      "hash": "0x2bcd78770b90a8b5ce70f2f147d73a8678f9ddba4684f522687bd461af90f50c",
      "transactionType": "CALL",
      "contractName": "LendyPositionManager",
      "contractAddress": "0x283e260f03f80982d9d3a83a30a574dff335d563",
      "function": "repayDebt(uint256,uint256)",
      "arguments": [
        "1",
        "62500000000000000000"
      ],
      "transaction": {
        "from": "0x3a4db9e7306af09012ceb0f222d581fd1f0c6d71",
        "to": "0x283e260f03f80982d9d3a83a30a574dff335d563",
        "gas": "0x2c5b1",
        "value": "0x0",
        "input": "0x015cb0a50000000000000000000000000000000000000000000000000000000000000001000000000000000000000000000000000000000000000003635c9adc5dea0000",
        "nonce": "0x79",
        "chainId": "0xaef3"
      },
      "additionalContracts": [],
      "isFixedGasLimit": false
    },
    {
      "hash": "0xecccb52a87f90611e0470293ac6d9fc89ac2c4f0a041b3a831ad97b95f15aae3",
      "transactionType": "CALL",
      "contractName": "LendyProtocol",
      "contractAddress": "0x9113f4531aa608d96dea970f7d9fe42dc9917a4c",
      "function": "repayWithPermit(address,uint256,uint256,address,uint256,uint8,bytes32,bytes32)",
      "arguments": [
        "0x3B346548fbfa74623047B1E199a96576dd156f2e",
        "62500000000000000000",
        "2",
        "0x283E260f03f80982d9D3A83A30A574DFF335D563",
        "1745588013",
        "27",
        "0x0000000000000000000000000000000000000000000000000000000000000001",
        "0x0000000000000000000000000000000000000000000000000000000000000002"
      ],
      "transaction": {
        "from": "0x3a4db9e7306af09012ceb0f222d581fd1f0c6d71",
        "to": "0x9113f4531aa608d96dea970f7d9fe42dc9917a4c",
        "gas": "0xe02f",
        "value": "0x0",
        "input": "0xee3e210b0000000000000000000000003b346548fbfa74623047b1e199a96576dd156f2e000000000000000000000000000000000000000000000003635c9adc5dea00000000000000000000000000000000000000000000000000000000000000000002000000000000000000000000283e260f03f80982d9d3a83a30a574dff335d56300000000000000000000000000000000000000000000000000000000680b8f2d000000000000000000000000000000000000000000000000000000000000001b00000000000000000000000000000000000000000000000000000000000000010000000000000000000000000000000000000000000000000000000000000002",
        "nonce": "0x7a",
        "chainId": "0xaef3"
      },
      "additionalContracts": [],
      "isFixedGasLimit": false
    },
    {
      "hash": "0xf9e5b46f26824c9943f91f40ae2fe3b8730d4876ec6043a664f7e7bec26b6cce",
      "transactionType": "CALL",
      "contractName": null,
      "contractAddress": "0x3b346548fbfa74623047b1e199a96576dd156f2e",
      "function": "approve(address,uint256)",
      "arguments": [
        "0x283E260f03f80982d9D3A83A30A574DFF335D563",
        "187500000000000000000"
      ],
      "transaction": {
        "from": "0x3a4db9e7306af09012ceb0f222d581fd1f0c6d71",
        "to": "0x3b346548fbfa74623047b1e199a96576dd156f2e",
        "gas": "0x10c4a",
        "value": "0x0",
        "input": "0x095ea7b3000000000000000000000000283e260f03f80982d9d3a83a30a574dff335d56300000000000000000000000000000000000000000000000a2a15d09519be0000",
        "nonce": "0x7b",
        "chainId": "0xaef3"
      },
      "additionalContracts": [],
      "isFixedGasLimit": false
    },
    {
      "hash": "0xfce13f988374277a2385e77fd15d8183cccb14d6b076123696e6e837ce2d7da1",
      "transactionType": "CALL",
      "contractName": "LendyPositionManager",
      "contractAddress": "0x283e260f03f80982d9d3a83a30a574dff335d563",
      "function": "closePosition(uint256)",
      "arguments": [
        "1"
      ],
      "transaction": {
        "from": "0x3a4db9e7306af09012ceb0f222d581fd1f0c6d71",
        "to": "0x283e260f03f80982d9d3a83a30a574dff335d563",
        "gas": "0x42508",
        "value": "0x0",
        "input": "0xa126d6010000000000000000000000000000000000000000000000000000000000000001",
        "nonce": "0x7c",
        "chainId": "0xaef3"
      },
      "additionalContracts": [],
      "isFixedGasLimit": false
    }
  ],
  "receipts": [
    {
      "status": "0x1",
      "cumulativeGasUsed": "0x13279",
      "logs": [
        {
          "address": "0x7262bfada9f61530119693d532e716d5cd3191ec",
          "topics": [
            "0xddf252ad1be2c89b69c2b068fc378daa952ba7f163c4a11628f55a4df523b3ef",
            "0x0000000000000000000000000000000000000000000000000000000000000000",
            "0x0000000000000000000000003a4db9e7306af09012ceb0f222d581fd1f0c6d71"
          ],
          "data": "0x00000000000000000000000000000000000000000000000000000002540be400",
          "blockHash": "0xb4189b90ca148f362c3180a2b8343e33798479975356f9306257b9284116ef94",
          "blockNumber": "0x2a8fc84",
          "transactionHash": "0xef074a31e82afe63987e8ada7bd6139d54fc71590720283cc4d8b76f2c1d0f68",
          "transactionIndex": "0x1",
          "logIndex": "0x0",
          "removed": false
        }
      ],
      "logsBloom": "0x00000000000000000000000000000000000000000000000000000000000000000000000000000000000000000000000000000000000000000000000000000000100000000000000000000008000000000000000000000000000000100000000000000000020000000000000000000800000000000000000000000050000000000000000000000000000000000000400000000000000000000000000000000000000000000000000000000000000000000000000000000000000000000000000000000002000080000000000000000000000000000000001000000000000020000000000000000000000000000000000000000000000000000000000000000000",
      "type": "0x0",
      "transactionHash": "0xef074a31e82afe63987e8ada7bd6139d54fc71590720283cc4d8b76f2c1d0f68",
      "transactionIndex": "0x1",
      "blockHash": "0xb4189b90ca148f362c3180a2b8343e33798479975356f9306257b9284116ef94",
      "blockNumber": "0x2a8fc84",
      "gasUsed": "0x878b",
      "effectiveGasPrice": "0x5d22cfc40",
      "from": "0x3a4db9e7306af09012ceb0f222d581fd1f0c6d71",
      "to": "0x7262bfada9f61530119693d532e716d5cd3191ec",
      "contractAddress": null,
      "l1BaseFeeScalar": "0x0",
      "l1BlobBaseFee": "0x1",
      "l1BlobBaseFeeScalar": "0x0",
      "l1Fee": "0x0",
      "l1GasPrice": "0x8",
      "l1GasUsed": "0x640"
    },
    {
      "status": "0x1",
      "cumulativeGasUsed": "0x4a031",
      "logs": [
        {
          "address": "0xac166a1b90308ca742db5b388ffcbdc3e17a186c",
          "topics": [
            "0xddf252ad1be2c89b69c2b068fc378daa952ba7f163c4a11628f55a4df523b3ef",
            "0x0000000000000000000000000000000000000000000000000000000000000000",
            "0x0000000000000000000000003a4db9e7306af09012ceb0f222d581fd1f0c6d71"
          ],
          "data": "0x0000000000000000000000000000000000000000000000008ac7230489e80000",
          "blockHash": "0xbf30acc1c9975a67f72f05bc04719318aa79b4ffbc87901b67e268ade51b0bb0",
          "blockNumber": "0x2a8fc85",
          "transactionHash": "0x45753ba92e502494c74f2b25f634067fe749314dbec3d9af784ddeb68ff0c2a0",
          "transactionIndex": "0x3",
          "logIndex": "0x3",
          "removed": false
        }
      ],
      "logsBloom": "0x00000000000000000000000000000000000000000000000000000000000000000000000000000000000000000000000000000000000000000000000000000000000000000000000000000008000000000000000000000000000000080000000002000000020000000000000000000800000000000000000000000010000000000000000000000000000000000000400000000000000000000000000000000000000000000000000000000000000000000000000000000000000000000000000000000002000080000000000000004000000000000000001000000000000020000000000000000000000000000000000000000000000000000000000000000000",
      "type": "0x0",
      "transactionHash": "0x45753ba92e502494c74f2b25f634067fe749314dbec3d9af784ddeb68ff0c2a0",
      "transactionIndex": "0x3",
      "blockHash": "0xbf30acc1c9975a67f72f05bc04719318aa79b4ffbc87901b67e268ade51b0bb0",
      "blockNumber": "0x2a8fc85",
      "gasUsed": "0x87a3",
      "effectiveGasPrice": "0x5d22cfc40",
      "from": "0x3a4db9e7306af09012ceb0f222d581fd1f0c6d71",
      "to": "0xac166a1b90308ca742db5b388ffcbdc3e17a186c",
      "contractAddress": null,
      "l1BaseFeeScalar": "0x0",
      "l1BlobBaseFee": "0x1",
      "l1BlobBaseFeeScalar": "0x0",
      "l1Fee": "0x0",
      "l1GasPrice": "0x8",
      "l1GasUsed": "0x640"
    },
    {
      "status": "0x1",
      "cumulativeGasUsed": "0xb3ee6",
      "logs": [
        {
          "address": "0x3b346548fbfa74623047b1e199a96576dd156f2e",
          "topics": [
            "0xddf252ad1be2c89b69c2b068fc378daa952ba7f163c4a11628f55a4df523b3ef",
            "0x0000000000000000000000000000000000000000000000000000000000000000",
            "0x0000000000000000000000003a4db9e7306af09012ceb0f222d581fd1f0c6d71"
          ],
          "data": "0x00000000000000000000000000000000000000000000021e19e0c9bab2400000",
          "blockHash": "0xbf30acc1c9975a67f72f05bc04719318aa79b4ffbc87901b67e268ade51b0bb0",
          "blockNumber": "0x2a8fc85",
          "transactionHash": "0x07a625d503371c3b02fbb58247dc571b5464456a68b765cd838b829a41ef5b95",
          "transactionIndex": "0x6",
          "logIndex": "0x6",
          "removed": false
        }
      ],
      "logsBloom": "0x00000000000000000000000000000000000001000000000000000000000000000000000000000000000000000000000000000000000000000000000000000000000000000000000000000008000000004000000000000000000000000000000000000000020000000000000000000800000000000000000000000010000000000000000000000000000000000000400000000000000000000000000000000000000000000000000000000000000020000000000000000000000000000000000000000002000080000000000000000000000000000000001000000000000020000000000000000000000000000000000000000000000000000000000000000000",
      "type": "0x0",
      "transactionHash": "0x07a625d503371c3b02fbb58247dc571b5464456a68b765cd838b829a41ef5b95",
      "transactionIndex": "0x6",
      "blockHash": "0xbf30acc1c9975a67f72f05bc04719318aa79b4ffbc87901b67e268ade51b0bb0",
      "blockNumber": "0x2a8fc85",
      "gasUsed": "0x8814",
      "effectiveGasPrice": "0x5d22cfc40",
      "from": "0x3a4db9e7306af09012ceb0f222d581fd1f0c6d71",
      "to": "0x3b346548fbfa74623047b1e199a96576dd156f2e",
      "contractAddress": null,
      "l1BaseFeeScalar": "0x0",
      "l1BlobBaseFee": "0x1",
      "l1BlobBaseFeeScalar": "0x0",
      "l1Fee": "0x0",
      "l1GasPrice": "0x8",
      "l1GasUsed": "0x640"
    },
    {
      "status": "0x1",
      "cumulativeGasUsed": "0xc09c6",
      "logs": [
        {
          "address": "0x3b346548fbfa74623047b1e199a96576dd156f2e",
          "topics": [
            "0xddf252ad1be2c89b69c2b068fc378daa952ba7f163c4a11628f55a4df523b3ef",
            "0x0000000000000000000000000000000000000000000000000000000000000000",
            "0x000000000000000000000000283e260f03f80982d9d3a83a30a574dff335d563"
          ],
          "data": "0x00000000000000000000000000000000000000000000021e19e0c9bab2400000",
          "blockHash": "0xbf30acc1c9975a67f72f05bc04719318aa79b4ffbc87901b67e268ade51b0bb0",
          "blockNumber": "0x2a8fc85",
          "transactionHash": "0xde953a05a0645a20c511cb9b5e5c049620988dbfcab418e6ad52c2060ac97101",
          "transactionIndex": "0x7",
          "logIndex": "0x7",
          "removed": false
        }
      ],
      "logsBloom": "0x00000000000000002000000000000000000001000000000000000000000000000000000000000000000000000000000000000000000000000000000000000000000000000000000000000008000000004000000000000000000000000000000000000000020000000000000000000800000000000800000000000010000000000000000000000000000000000000000000000000000000000000000000000000008000000000000000000000000020000000000000000000000000000000000000000002000000000000000000000000000000000000000000000000000020000000000000000000000000000000000000000000000000000000000000000000",
      "type": "0x0",
      "transactionHash": "0xde953a05a0645a20c511cb9b5e5c049620988dbfcab418e6ad52c2060ac97101",
      "transactionIndex": "0x7",
      "blockHash": "0xbf30acc1c9975a67f72f05bc04719318aa79b4ffbc87901b67e268ade51b0bb0",
      "blockNumber": "0x2a8fc85",
      "gasUsed": "0xcae0",
      "effectiveGasPrice": "0x5d22cfc40",
      "from": "0x3a4db9e7306af09012ceb0f222d581fd1f0c6d71",
      "to": "0x3b346548fbfa74623047b1e199a96576dd156f2e",
      "contractAddress": null,
      "l1BaseFeeScalar": "0x0",
      "l1BlobBaseFee": "0x1",
      "l1BlobBaseFeeScalar": "0x0",
      "l1Fee": "0x0",
      "l1GasPrice": "0x8",
      "l1GasUsed": "0x640"
    },
    {
      "status": "0x1",
      "cumulativeGasUsed": "0xcc116",
      "logs": [
        {
          "address": "0xac166a1b90308ca742db5b388ffcbdc3e17a186c",
          "topics": [
            "0x8c5be1e5ebec7d5bd14f71427d1e84f3dd0314c0f7b2291e5b200ac8c7c3b925",
            "0x0000000000000000000000003a4db9e7306af09012ceb0f222d581fd1f0c6d71",
            "0x0000000000000000000000009113f4531aa608d96dea970f7d9fe42dc9917a4c"
          ],
          "data": "0x0000000000000000000000000000000000000000000000000de0b6b3a7640000",
          "blockHash": "0xbf30acc1c9975a67f72f05bc04719318aa79b4ffbc87901b67e268ade51b0bb0",
          "blockNumber": "0x2a8fc85",
          "transactionHash": "0xa8ce64a77fce89bf59bba48897c9eac57d8735a21ec586b2a8c5e84750a3babd",
          "transactionIndex": "0x8",
          "logIndex": "0x8",
          "removed": false
        }
      ],
      "logsBloom": "0x00000000000000000000000000000000000000000000000000000000000000000000000000000000000000000000000000000000000000000100000000200000000000000000000000000000000010000000000000000000000000080000000002000000000000000000000000000000000000000000000000000000000000000000000000000000000000000000400000000400000000000000000000000000020000000000000000000000000000000000000000000000000000000000000000000000000080000000000000004000000000000000001000000000000000000010000000000000000000000000000000000000000000000000000000000000",
      "type": "0x0",
      "transactionHash": "0xa8ce64a77fce89bf59bba48897c9eac57d8735a21ec586b2a8c5e84750a3babd",
      "transactionIndex": "0x8",
      "blockHash": "0xbf30acc1c9975a67f72f05bc04719318aa79b4ffbc87901b67e268ade51b0bb0",
      "blockNumber": "0x2a8fc85",
      "gasUsed": "0xb750",
      "effectiveGasPrice": "0x5d22cfc40",
      "from": "0x3a4db9e7306af09012ceb0f222d581fd1f0c6d71",
      "to": "0xac166a1b90308ca742db5b388ffcbdc3e17a186c",
      "contractAddress": null,
      "l1BaseFeeScalar": "0x0",
      "l1BlobBaseFee": "0x1",
      "l1BlobBaseFeeScalar": "0x0",
      "l1Fee": "0x0",
      "l1GasPrice": "0x8",
      "l1GasUsed": "0x640"
    },
    {
      "status": "0x1",
      "cumulativeGasUsed": "0xf284e",
      "logs": [
        {
          "address": "0xac166a1b90308ca742db5b388ffcbdc3e17a186c",
          "topics": [
            "0xddf252ad1be2c89b69c2b068fc378daa952ba7f163c4a11628f55a4df523b3ef",
            "0x0000000000000000000000003a4db9e7306af09012ceb0f222d581fd1f0c6d71",
            "0x0000000000000000000000009113f4531aa608d96dea970f7d9fe42dc9917a4c"
          ],
          "data": "0x0000000000000000000000000000000000000000000000000de0b6b3a7640000",
          "blockHash": "0xbf30acc1c9975a67f72f05bc04719318aa79b4ffbc87901b67e268ade51b0bb0",
          "blockNumber": "0x2a8fc85",
          "transactionHash": "0x37c662f2bb59c26e15cf1ed4ee301d79a1515703a6b077dcb836cde80ac67396",
          "transactionIndex": "0x9",
          "logIndex": "0x9",
          "removed": false
        },
        {
          "address": "0xac166a1b90308ca742db5b388ffcbdc3e17a186c",
          "topics": [
            "0x8c5be1e5ebec7d5bd14f71427d1e84f3dd0314c0f7b2291e5b200ac8c7c3b925",
            "0x0000000000000000000000009113f4531aa608d96dea970f7d9fe42dc9917a4c",
            "0x0000000000000000000000009e650b3b18ab92bbd4e80fd6467aa10b904a045e"
          ],
          "data": "0x0000000000000000000000000000000000000000000000000de0b6b3a7640000",
          "blockHash": "0xbf30acc1c9975a67f72f05bc04719318aa79b4ffbc87901b67e268ade51b0bb0",
          "blockNumber": "0x2a8fc85",
          "transactionHash": "0x37c662f2bb59c26e15cf1ed4ee301d79a1515703a6b077dcb836cde80ac67396",
          "transactionIndex": "0x9",
          "logIndex": "0xa",
          "removed": false
        },
        {
          "address": "0x9113f4531aa608d96dea970f7d9fe42dc9917a4c",
          "topics": [
            "0x523322d7afb07cee28d04498651096af062004e1f14315eff2e4a60290dfadda",
            "0x0000000000000000000000003a4db9e7306af09012ceb0f222d581fd1f0c6d71",
            "0x000000000000000000000000ac166a1b90308ca742db5b388ffcbdc3e17a186c"
          ],
          "data": "0x0000000000000000000000000000000000000000000000000de0b6b3a7640000",
          "blockHash": "0xbf30acc1c9975a67f72f05bc04719318aa79b4ffbc87901b67e268ade51b0bb0",
          "blockNumber": "0x2a8fc85",
          "transactionHash": "0x37c662f2bb59c26e15cf1ed4ee301d79a1515703a6b077dcb836cde80ac67396",
          "transactionIndex": "0x9",
          "logIndex": "0xb",
          "removed": false
        }
      ],
      "logsBloom": "0x40000000000000000000040000000000000000000000000000000000000000000000000080000002000000000000000000080000000000000100000000200000000000020000000000000008000010000000000000000000000000080000000002000000000000000000000000001000000000000000000000000010000000000000000000000000000000000000400000000400000000000000000000000000020000000000000004000000000000000000000000000000000000000000000000040002000080000000000000004000000000000000001000000000000000000010080000000000000000000000000000000000000000002000000000000800",
      "type": "0x0",
      "transactionHash": "0x37c662f2bb59c26e15cf1ed4ee301d79a1515703a6b077dcb836cde80ac67396",
      "transactionIndex": "0x9",
      "blockHash": "0xbf30acc1c9975a67f72f05bc04719318aa79b4ffbc87901b67e268ade51b0bb0",
      "blockNumber": "0x2a8fc85",
      "gasUsed": "0x26738",
      "effectiveGasPrice": "0x5d22cfc40",
      "from": "0x3a4db9e7306af09012ceb0f222d581fd1f0c6d71",
      "to": "0x9113f4531aa608d96dea970f7d9fe42dc9917a4c",
      "contractAddress": null,
      "l1BaseFeeScalar": "0x0",
      "l1BlobBaseFee": "0x1",
      "l1BlobBaseFeeScalar": "0x0",
      "l1Fee": "0x0",
      "l1GasPrice": "0x8",
      "l1GasUsed": "0x6f5"
    },
    {
      "status": "0x1",
      "cumulativeGasUsed": "0x117cfa",
      "logs": [
        {
          "address": "0x7262bfada9f61530119693d532e716d5cd3191ec",
          "topics": [
            "0xddf252ad1be2c89b69c2b068fc378daa952ba7f163c4a11628f55a4df523b3ef",
            "0x0000000000000000000000000000000000000000000000000000000000000000",
            "0x0000000000000000000000009113f4531aa608d96dea970f7d9fe42dc9917a4c"
          ],
          "data": "0x0000000000000000000000000000000000000000000000000000000005f5e100",
          "blockHash": "0xbf30acc1c9975a67f72f05bc04719318aa79b4ffbc87901b67e268ade51b0bb0",
          "blockNumber": "0x2a8fc85",
          "transactionHash": "0x0271823589d1199002ac82c745729cd3fcca54301b04e40c28a048c447b8449c",
          "transactionIndex": "0xa",
          "logIndex": "0xc",
          "removed": false
        },
        {
          "address": "0x9113f4531aa608d96dea970f7d9fe42dc9917a4c",
          "topics": [
            "0xc14e9e6b4d98a542b05a0f6b64acd5f4cbdb914be88432d87486b664e97071a7",
            "0x0000000000000000000000003a4db9e7306af09012ceb0f222d581fd1f0c6d71",
            "0x0000000000000000000000007262bfada9f61530119693d532e716d5cd3191ec"
          ],
          "data": "0x0000000000000000000000000000000000000000000000000000000005f5e1000000000000000000000000000000000000000000000000000000000000000002",
          "blockHash": "0xbf30acc1c9975a67f72f05bc04719318aa79b4ffbc87901b67e268ade51b0bb0",
          "blockNumber": "0x2a8fc85",
          "transactionHash": "0x0271823589d1199002ac82c745729cd3fcca54301b04e40c28a048c447b8449c",
          "transactionIndex": "0xa",
          "logIndex": "0xd",
          "removed": false
        }
      ],
      "logsBloom": "0x00000000000000000000000000000100000000000000000000000000000000000000000080000002000000000000000000000000000000000100000000000000100000000000000000000008000010000000000000000000000000100020000000000000020000000000000000000800000000000000000000000050000000000000000000000000000000000000400000000400000000000000000000000000000000000000000000000000000000000000020000000000000000000000000000000002000080002000000000008000000000000000001000000000000020000000080000000000000000000000000000000000004000000000000000000000",
      "type": "0x0",
      "transactionHash": "0x0271823589d1199002ac82c745729cd3fcca54301b04e40c28a048c447b8449c",
      "transactionIndex": "0xa",
      "blockHash": "0xbf30acc1c9975a67f72f05bc04719318aa79b4ffbc87901b67e268ade51b0bb0",
      "blockNumber": "0x2a8fc85",
      "gasUsed": "0x254ac",
      "effectiveGasPrice": "0x5d22cfc40",
      "from": "0x3a4db9e7306af09012ceb0f222d581fd1f0c6d71",
      "to": "0x9113f4531aa608d96dea970f7d9fe42dc9917a4c",
      "contractAddress": null,
      "l1BaseFeeScalar": "0x0",
      "l1BlobBaseFee": "0x1",
      "l1BlobBaseFeeScalar": "0x0",
      "l1Fee": "0x0",
      "l1GasPrice": "0x8",
      "l1GasUsed": "0x710"
    },
    {
      "status": "0x1",
      "cumulativeGasUsed": "0x122b7a",
      "logs": [
        {
          "address": "0x9113f4531aa608d96dea970f7d9fe42dc9917a4c",
          "topics": [
            "0x523322d7afb07cee28d04498651096af062004e1f14315eff2e4a60290dfadda",
            "0x0000000000000000000000003a4db9e7306af09012ceb0f222d581fd1f0c6d71",
            "0x0000000000000000000000003b346548fbfa74623047b1e199a96576dd156f2e"
          ],
          "data": "0x00000000000000000000000000000000000000000000003635c9adc5dea00000",
          "blockHash": "0xbf30acc1c9975a67f72f05bc04719318aa79b4ffbc87901b67e268ade51b0bb0",
          "blockNumber": "0x2a8fc85",
          "transactionHash": "0x0f3c6de355511318f002996ce17b93f72fb050505fc367f63cfa7b4b8574206b",
          "transactionIndex": "0xb",
          "logIndex": "0xe",
          "removed": false
        }
      ],
      "logsBloom": "0x00000000000000000000000000000000000000000000000000000000000000000000000080000002000000000000000000080000000000000000000000000000000000020000000000000000000000000000000000000101000000000000000000000000000000000000000000000000000000000000000000000000000000000000000000000000000000000000400000000000000000000000000000000000000000000000000000000000000000000000000000000000000000000000000000040000000080000000000000000000000000000200001000000000000000000000080000000000000000000000000000000000000000000000000000000000",
      "type": "0x0",
      "transactionHash": "0x0f3c6de355511318f002996ce17b93f72fb050505fc367f63cfa7b4b8574206b",
      "transactionIndex": "0xb",
      "blockHash": "0xbf30acc1c9975a67f72f05bc04719318aa79b4ffbc87901b67e268ade51b0bb0",
      "blockNumber": "0x2a8fc85",
      "gasUsed": "0xae80",
      "effectiveGasPrice": "0x5d22cfc40",
      "from": "0x3a4db9e7306af09012ceb0f222d581fd1f0c6d71",
      "to": "0x9113f4531aa608d96dea970f7d9fe42dc9917a4c",
      "contractAddress": null,
      "l1BaseFeeScalar": "0x0",
      "l1BlobBaseFee": "0x1",
      "l1BlobBaseFeeScalar": "0x0",
      "l1Fee": "0x0",
      "l1GasPrice": "0x8",
      "l1GasUsed": "0x81b"
    },
    {
      "status": "0x1",
      "cumulativeGasUsed": "0x1404b9",
      "logs": [
        {
          "address": "0x9113f4531aa608d96dea970f7d9fe42dc9917a4c",
          "topics": [
            "0x0a3fbbea70e93f2daafa3102f5c9a1b8315e6d7a1e43e4bc020bc1162327470a",
            "0x0000000000000000000000003a4db9e7306af09012ceb0f222d581fd1f0c6d71",
            "0x0000000000000000000000003b346548fbfa74623047b1e199a96576dd156f2e"
          ],
          "data": "0x00000000000000000000000000000000000000000000001b1ae4d6e2ef500000",
          "blockHash": "0xbf30acc1c9975a67f72f05bc04719318aa79b4ffbc87901b67e268ade51b0bb0",
          "blockNumber": "0x2a8fc85",
          "transactionHash": "0x464eb5f3cec6cb7a127532f2f6aac8af8193d1241c1c597c9d9a8aec8fea9eda",
          "transactionIndex": "0xc",
          "logIndex": "0xf",
          "removed": false
        }
      ],
      "logsBloom": "0x00000000000000000000000000000000000000000000000000000000000000000000000090000002000000000000080000000000000000000000000000000000000000000000000000000000000000000000000000000101000000000000000000000000000000000000000000800000000000000000000000000000000000000000000000000000000000000000400000000000000000000000000000000000000000000000000000000000000000000000000000000000000000000000000000000000000080000000000000000000000000000200001000000000000000000000080000000000000000000000000000000000000000000000000000000000",
      "type": "0x0",
      "transactionHash": "0x464eb5f3cec6cb7a127532f2f6aac8af8193d1241c1c597c9d9a8aec8fea9eda",
      "transactionIndex": "0xc",
      "blockHash": "0xbf30acc1c9975a67f72f05bc04719318aa79b4ffbc87901b67e268ade51b0bb0",
      "blockNumber": "0x2a8fc85",
      "gasUsed": "0x1d93f",
      "effectiveGasPrice": "0x5d22cfc40",
      "from": "0x3a4db9e7306af09012ceb0f222d581fd1f0c6d71",
      "to": "0x9113f4531aa608d96dea970f7d9fe42dc9917a4c",
      "contractAddress": null,
      "l1BaseFeeScalar": "0x0",
      "l1BlobBaseFee": "0x1",
      "l1BlobBaseFeeScalar": "0x0",
      "l1Fee": "0x0",
      "l1GasPrice": "0x8",
      "l1GasUsed": "0x8ff"
    },
    {
      "status": "0x1",
      "cumulativeGasUsed": "0x14bc09",
      "logs": [
        {
          "address": "0xac166a1b90308ca742db5b388ffcbdc3e17a186c",
          "topics": [
            "0x8c5be1e5ebec7d5bd14f71427d1e84f3dd0314c0f7b2291e5b200ac8c7c3b925",
            "0x0000000000000000000000003a4db9e7306af09012ceb0f222d581fd1f0c6d71",
            "0x000000000000000000000000283e260f03f80982d9d3a83a30a574dff335d563"
          ],
          "data": "0x0000000000000000000000000000000000000000000000000de0b6b3a7640000",
          "blockHash": "0xbf30acc1c9975a67f72f05bc04719318aa79b4ffbc87901b67e268ade51b0bb0",
          "blockNumber": "0x2a8fc85",
          "transactionHash": "0x800f39154f86944470dd6a8481804e23f4bb555c189c840a3bc68b3da64ff691",
          "transactionIndex": "0xd",
          "logIndex": "0x10",
          "removed": false
        }
      ],
      "logsBloom": "0x00000000000000002000000000000000000000000000000000000000000000000000000000000000000000000000000000000000000000000000000000200000000000000000000000000000000000000000000000000000000000080000000002000000000000000000000000000000000000000800000000000000000000000000000000000000000000000000400000000000000000000000000000000000028000000000000000000000000000000000000000000000000000000000000000000000000080000000000000004000000000000000001000000000000000000010000000000000000000000000000000000000000000000000000000000000",
      "type": "0x0",
      "transactionHash": "0x800f39154f86944470dd6a8481804e23f4bb555c189c840a3bc68b3da64ff691",
      "transactionIndex": "0xd",
      "blockHash": "0xbf30acc1c9975a67f72f05bc04719318aa79b4ffbc87901b67e268ade51b0bb0",
      "blockNumber": "0x2a8fc85",
      "gasUsed": "0xb750",
      "effectiveGasPrice": "0x5d22cfc40",
      "from": "0x3a4db9e7306af09012ceb0f222d581fd1f0c6d71",
      "to": "0xac166a1b90308ca742db5b388ffcbdc3e17a186c",
      "contractAddress": null,
      "l1BaseFeeScalar": "0x0",
      "l1BlobBaseFee": "0x1",
      "l1BlobBaseFeeScalar": "0x0",
      "l1Fee": "0x0",
      "l1GasPrice": "0x8",
      "l1GasUsed": "0x640"
    },
    {
      "status": "0x1",
      "cumulativeGasUsed": "0x1ac8c6",
      "logs": [
        {
          "address": "0xac166a1b90308ca742db5b388ffcbdc3e17a186c",
          "topics": [
            "0xddf252ad1be2c89b69c2b068fc378daa952ba7f163c4a11628f55a4df523b3ef",
            "0x0000000000000000000000003a4db9e7306af09012ceb0f222d581fd1f0c6d71",
            "0x000000000000000000000000283e260f03f80982d9d3a83a30a574dff335d563"
          ],
          "data": "0x0000000000000000000000000000000000000000000000000de0b6b3a7640000",
          "blockHash": "0xbf30acc1c9975a67f72f05bc04719318aa79b4ffbc87901b67e268ade51b0bb0",
          "blockNumber": "0x2a8fc85",
          "transactionHash": "0x8a69287e65937670b640f8ffb49e6c1ab39d6a378fa84a858034f07d72521463",
          "transactionIndex": "0xe",
          "logIndex": "0x11",
          "removed": false
        },
        {
          "address": "0xac166a1b90308ca742db5b388ffcbdc3e17a186c",
          "topics": [
            "0x8c5be1e5ebec7d5bd14f71427d1e84f3dd0314c0f7b2291e5b200ac8c7c3b925",
            "0x000000000000000000000000283e260f03f80982d9d3a83a30a574dff335d563",
            "0x0000000000000000000000009113f4531aa608d96dea970f7d9fe42dc9917a4c"
          ],
          "data": "0x0000000000000000000000000000000000000000000000000de0b6b3a7640000",
          "blockHash": "0xbf30acc1c9975a67f72f05bc04719318aa79b4ffbc87901b67e268ade51b0bb0",
          "blockNumber": "0x2a8fc85",
          "transactionHash": "0x8a69287e65937670b640f8ffb49e6c1ab39d6a378fa84a858034f07d72521463",
          "transactionIndex": "0xe",
          "logIndex": "0x12",
          "removed": false
        },
        {
          "address": "0xac166a1b90308ca742db5b388ffcbdc3e17a186c",
          "topics": [
            "0xddf252ad1be2c89b69c2b068fc378daa952ba7f163c4a11628f55a4df523b3ef",
            "0x000000000000000000000000283e260f03f80982d9d3a83a30a574dff335d563",
            "0x0000000000000000000000009113f4531aa608d96dea970f7d9fe42dc9917a4c"
          ],
          "data": "0x0000000000000000000000000000000000000000000000000de0b6b3a7640000",
          "blockHash": "0xbf30acc1c9975a67f72f05bc04719318aa79b4ffbc87901b67e268ade51b0bb0",
          "blockNumber": "0x2a8fc85",
          "transactionHash": "0x8a69287e65937670b640f8ffb49e6c1ab39d6a378fa84a858034f07d72521463",
          "transactionIndex": "0xe",
          "logIndex": "0x13",
          "removed": false
        },
        {
          "address": "0xac166a1b90308ca742db5b388ffcbdc3e17a186c",
          "topics": [
            "0x8c5be1e5ebec7d5bd14f71427d1e84f3dd0314c0f7b2291e5b200ac8c7c3b925",
            "0x0000000000000000000000009113f4531aa608d96dea970f7d9fe42dc9917a4c",
            "0x0000000000000000000000009e650b3b18ab92bbd4e80fd6467aa10b904a045e"
          ],
          "data": "0x0000000000000000000000000000000000000000000000000de0b6b3a7640000",
          "blockHash": "0xbf30acc1c9975a67f72f05bc04719318aa79b4ffbc87901b67e268ade51b0bb0",
          "blockNumber": "0x2a8fc85",
          "transactionHash": "0x8a69287e65937670b640f8ffb49e6c1ab39d6a378fa84a858034f07d72521463",
          "transactionIndex": "0xe",
          "logIndex": "0x14",
          "removed": false
        },
        {
          "address": "0x9113f4531aa608d96dea970f7d9fe42dc9917a4c",
          "topics": [
            "0x523322d7afb07cee28d04498651096af062004e1f14315eff2e4a60290dfadda",
            "0x000000000000000000000000283e260f03f80982d9d3a83a30a574dff335d563",
            "0x000000000000000000000000ac166a1b90308ca742db5b388ffcbdc3e17a186c"
          ],
          "data": "0x0000000000000000000000000000000000000000000000000de0b6b3a7640000",
          "blockHash": "0xbf30acc1c9975a67f72f05bc04719318aa79b4ffbc87901b67e268ade51b0bb0",
          "blockNumber": "0x2a8fc85",
          "transactionHash": "0x8a69287e65937670b640f8ffb49e6c1ab39d6a378fa84a858034f07d72521463",
          "transactionIndex": "0xe",
          "logIndex": "0x15",
          "removed": false
        },
        {
          "address": "0x3b346548fbfa74623047b1e199a96576dd156f2e",
          "topics": [
            "0xddf252ad1be2c89b69c2b068fc378daa952ba7f163c4a11628f55a4df523b3ef",
            "0x0000000000000000000000000000000000000000000000000000000000000000",
            "0x0000000000000000000000009113f4531aa608d96dea970f7d9fe42dc9917a4c"
          ],
          "data": "0x00000000000000000000000000000000000000000000000d8d726b7177a80000",
          "blockHash": "0xbf30acc1c9975a67f72f05bc04719318aa79b4ffbc87901b67e268ade51b0bb0",
          "blockNumber": "0x2a8fc85",
          "transactionHash": "0x8a69287e65937670b640f8ffb49e6c1ab39d6a378fa84a858034f07d72521463",
          "transactionIndex": "0xe",
          "logIndex": "0x16",
          "removed": false
        },
        {
          "address": "0x9113f4531aa608d96dea970f7d9fe42dc9917a4c",
          "topics": [
            "0xc14e9e6b4d98a542b05a0f6b64acd5f4cbdb914be88432d87486b664e97071a7",
            "0x000000000000000000000000283e260f03f80982d9d3a83a30a574dff335d563",
            "0x0000000000000000000000003b346548fbfa74623047b1e199a96576dd156f2e"
          ],
          "data": "0x00000000000000000000000000000000000000000000000d8d726b7177a800000000000000000000000000000000000000000000000000000000000000000002",
          "blockHash": "0xbf30acc1c9975a67f72f05bc04719318aa79b4ffbc87901b67e268ade51b0bb0",
          "blockNumber": "0x2a8fc85",
          "transactionHash": "0x8a69287e65937670b640f8ffb49e6c1ab39d6a378fa84a858034f07d72521463",
          "transactionIndex": "0xe",
          "logIndex": "0x17",
          "removed": false
        },
        {
          "address": "0x3b346548fbfa74623047b1e199a96576dd156f2e",
          "topics": [
            "0xddf252ad1be2c89b69c2b068fc378daa952ba7f163c4a11628f55a4df523b3ef",
            "0x000000000000000000000000283e260f03f80982d9d3a83a30a574dff335d563",
            "0x0000000000000000000000003a4db9e7306af09012ceb0f222d581fd1f0c6d71"
          ],
          "data": "0x00000000000000000000000000000000000000000000000d8d726b7177a80000",
          "blockHash": "0xbf30acc1c9975a67f72f05bc04719318aa79b4ffbc87901b67e268ade51b0bb0",
          "blockNumber": "0x2a8fc85",
          "transactionHash": "0x8a69287e65937670b640f8ffb49e6c1ab39d6a378fa84a858034f07d72521463",
          "transactionIndex": "0xe",
          "logIndex": "0x18",
          "removed": false
        },
        {
          "address": "0x283e260f03f80982d9d3a83a30a574dff335d563",
          "topics": [
            "0x9f9b498443531d2db9df8a00ec466efc74ba50ec1d82f7badd3424b87930e19a",
            "0x0000000000000000000000000000000000000000000000000000000000000001",
            "0x0000000000000000000000003a4db9e7306af09012ceb0f222d581fd1f0c6d71"
          ],
          "data": "0x000000000000000000000000ac166a1b90308ca742db5b388ffcbdc3e17a186c0000000000000000000000000000000000000000000000000de0b6b3a76400000000000000000000000000003b346548fbfa74623047b1e199a96576dd156f2e00000000000000000000000000000000000000000000000d8d726b7177a800000000000000000000000000000000000000000000000000000000000000000002",
          "blockHash": "0xbf30acc1c9975a67f72f05bc04719318aa79b4ffbc87901b67e268ade51b0bb0",
          "blockNumber": "0x2a8fc85",
          "transactionHash": "0x8a69287e65937670b640f8ffb49e6c1ab39d6a378fa84a858034f07d72521463",
          "transactionIndex": "0xe",
          "logIndex": "0x19",
          "removed": false
        }
      ],
      "logsBloom": "0x4000000000000000200004000000000000000100000000000000000000000000000000008000000200002000000000000008000000000000010000000024000000000002000200000000000800001000400000000004010100000008002000000200000002000000000000000000180000000002080000000000001000000000000000000000000000000000000040000000040000000000000000020000000002800000000000000400000000002000000000000000000000000000000000000004000200008000000000000000c000000000000200001000020000000060000010080000000001000000000000000000000000004000002000000000000800",
      "type": "0x0",
      "transactionHash": "0x8a69287e65937670b640f8ffb49e6c1ab39d6a378fa84a858034f07d72521463",
      "transactionIndex": "0xe",
      "blockHash": "0xbf30acc1c9975a67f72f05bc04719318aa79b4ffbc87901b67e268ade51b0bb0",
      "blockNumber": "0x2a8fc85",
      "gasUsed": "0x60cbd",
      "effectiveGasPrice": "0x5d22cfc40",
      "from": "0x3a4db9e7306af09012ceb0f222d581fd1f0c6d71",
      "to": "0x283e260f03f80982d9d3a83a30a574dff335d563",
      "contractAddress": null,
      "l1BaseFeeScalar": "0x0",
      "l1BlobBaseFee": "0x1",
      "l1BlobBaseFeeScalar": "0x0",
      "l1Fee": "0x0",
      "l1GasPrice": "0x8",
      "l1GasUsed": "0x7cb"
    },
    {
      "status": "0x1",
      "cumulativeGasUsed": "0x1b8039",
      "logs": [
        {
          "address": "0x3b346548fbfa74623047b1e199a96576dd156f2e",
          "topics": [
            "0x8c5be1e5ebec7d5bd14f71427d1e84f3dd0314c0f7b2291e5b200ac8c7c3b925",
            "0x0000000000000000000000003a4db9e7306af09012ceb0f222d581fd1f0c6d71",
            "0x000000000000000000000000283e260f03f80982d9d3a83a30a574dff335d563"
          ],
          "data": "0x000000000000000000000000000000000000000000000003635c9adc5dea0000",
          "blockHash": "0xbf30acc1c9975a67f72f05bc04719318aa79b4ffbc87901b67e268ade51b0bb0",
          "blockNumber": "0x2a8fc85",
          "transactionHash": "0xeb3bcc2ae49257032991f1fd404190be8cdd380ae032a947eb5edea34d0c6aeb",
          "transactionIndex": "0xf",
          "logIndex": "0x1a",
          "removed": false
        }
      ],
      "logsBloom": "0x00000000000000002000000000000000000001000000000000000000000000000000000000000000000000000000000000000000000000000000000000200000000000000000000000000000000000004000000000000000000000000000000000000000000000000000000000000000000000000800000000000000000000000000000000000000000000000000400000000000000000000000000000000000028000000000000000000000000020000000000000000000000000000000000000000000000080000000000000000000000000000000001000000000000000000010000000000000000000000000000000000000000000000000000000000000",
      "type": "0x0",
      "transactionHash": "0xeb3bcc2ae49257032991f1fd404190be8cdd380ae032a947eb5edea34d0c6aeb",
      "transactionIndex": "0xf",
      "blockHash": "0xbf30acc1c9975a67f72f05bc04719318aa79b4ffbc87901b67e268ade51b0bb0",
      "blockNumber": "0x2a8fc85",
      "gasUsed": "0xb773",
      "effectiveGasPrice": "0x5d22cfc40",
      "from": "0x3a4db9e7306af09012ceb0f222d581fd1f0c6d71",
      "to": "0x3b346548fbfa74623047b1e199a96576dd156f2e",
      "contractAddress": null,
      "l1BaseFeeScalar": "0x0",
      "l1BlobBaseFee": "0x1",
      "l1BlobBaseFeeScalar": "0x0",
      "l1Fee": "0x0",
      "l1GasPrice": "0x8",
      "l1GasUsed": "0x640"
    },
    {
      "status": "0x1",
      "cumulativeGasUsed": "0x1d657c",
      "logs": [
        {
          "address": "0x3b346548fbfa74623047b1e199a96576dd156f2e",
          "topics": [
            "0xddf252ad1be2c89b69c2b068fc378daa952ba7f163c4a11628f55a4df523b3ef",
            "0x0000000000000000000000003a4db9e7306af09012ceb0f222d581fd1f0c6d71",
            "0x000000000000000000000000283e260f03f80982d9d3a83a30a574dff335d563"
          ],
          "data": "0x000000000000000000000000000000000000000000000003635c9adc5dea0000",
          "blockHash": "0xbf30acc1c9975a67f72f05bc04719318aa79b4ffbc87901b67e268ade51b0bb0",
          "blockNumber": "0x2a8fc85",
          "transactionHash": "0x2bcd78770b90a8b5ce70f2f147d73a8678f9ddba4684f522687bd461af90f50c",
          "transactionIndex": "0x10",
          "logIndex": "0x1b",
          "removed": false
        },
        {
          "address": "0x3b346548fbfa74623047b1e199a96576dd156f2e",
          "topics": [
            "0x8c5be1e5ebec7d5bd14f71427d1e84f3dd0314c0f7b2291e5b200ac8c7c3b925",
            "0x000000000000000000000000283e260f03f80982d9d3a83a30a574dff335d563",
            "0x0000000000000000000000009113f4531aa608d96dea970f7d9fe42dc9917a4c"
          ],
          "data": "0x000000000000000000000000000000000000000000000003635c9adc5dea0000",
          "blockHash": "0xbf30acc1c9975a67f72f05bc04719318aa79b4ffbc87901b67e268ade51b0bb0",
          "blockNumber": "0x2a8fc85",
          "transactionHash": "0x2bcd78770b90a8b5ce70f2f147d73a8678f9ddba4684f522687bd461af90f50c",
          "transactionIndex": "0x10",
          "logIndex": "0x1c",
          "removed": false
        },
        {
          "address": "0x3b346548fbfa74623047b1e199a96576dd156f2e",
          "topics": [
            "0xddf252ad1be2c89b69c2b068fc378daa952ba7f163c4a11628f55a4df523b3ef",
            "0x000000000000000000000000283e260f03f80982d9d3a83a30a574dff335d563",
            "0x0000000000000000000000009113f4531aa608d96dea970f7d9fe42dc9917a4c"
          ],
          "data": "0x000000000000000000000000000000000000000000000003635c9adc5dea0000",
          "blockHash": "0xbf30acc1c9975a67f72f05bc04719318aa79b4ffbc87901b67e268ade51b0bb0",
          "blockNumber": "0x2a8fc85",
          "transactionHash": "0x2bcd78770b90a8b5ce70f2f147d73a8678f9ddba4684f522687bd461af90f50c",
          "transactionIndex": "0x10",
          "logIndex": "0x1d",
          "removed": false
        },
        {
          "address": "0x3b346548fbfa74623047b1e199a96576dd156f2e",
          "topics": [
            "0x8c5be1e5ebec7d5bd14f71427d1e84f3dd0314c0f7b2291e5b200ac8c7c3b925",
            "0x0000000000000000000000009113f4531aa608d96dea970f7d9fe42dc9917a4c",
            "0x0000000000000000000000009e650b3b18ab92bbd4e80fd6467aa10b904a045e"
          ],
          "data": "0x000000000000000000000000000000000000000000000003635c9adc5dea0000",
          "blockHash": "0xbf30acc1c9975a67f72f05bc04719318aa79b4ffbc87901b67e268ade51b0bb0",
          "blockNumber": "0x2a8fc85",
          "transactionHash": "0x2bcd78770b90a8b5ce70f2f147d73a8678f9ddba4684f522687bd461af90f50c",
          "transactionIndex": "0x10",
          "logIndex": "0x1e",
          "removed": false
        },
        {
          "address": "0x9113f4531aa608d96dea970f7d9fe42dc9917a4c",
          "topics": [
            "0x0a3fbbea70e93f2daafa3102f5c9a1b8315e6d7a1e43e4bc020bc1162327470a",
            "0x000000000000000000000000283e260f03f80982d9d3a83a30a574dff335d563",
            "0x0000000000000000000000003b346548fbfa74623047b1e199a96576dd156f2e"
          ],
          "data": "0x000000000000000000000000000000000000000000000003635c9adc5dea0000",
          "blockHash": "0xbf30acc1c9975a67f72f05bc04719318aa79b4ffbc87901b67e268ade51b0bb0",
          "blockNumber": "0x2a8fc85",
          "transactionHash": "0x2bcd78770b90a8b5ce70f2f147d73a8678f9ddba4684f522687bd461af90f50c",
          "transactionIndex": "0x10",
          "logIndex": "0x1f",
          "removed": false
        },
        {
          "address": "0x283e260f03f80982d9d3a83a30a574dff335d563",
          "topics": [
            "0x0d4979b0859a1951f8ed7cbe3b1994e740552588f27ba02ca0f8f1ddcad16e0c",
            "0x0000000000000000000000000000000000000000000000000000000000000001"
          ],
          "data": "0x000000000000000000000000000000000000000000000003635c9adc5dea0000",
          "blockHash": "0xbf30acc1c9975a67f72f05bc04719318aa79b4ffbc87901b67e268ade51b0bb0",
          "blockNumber": "0x2a8fc85",
          "transactionHash": "0x2bcd78770b90a8b5ce70f2f147d73a8678f9ddba4684f522687bd461af90f50c",
          "transactionIndex": "0x10",
          "logIndex": "0x20",
          "removed": false
        }
      ],
      "logsBloom": "0x40000000000000002000040010000000000001000000000000000000000000000000000090000002000000000000080000000000000000000100000000240000000000000002000000000008000010004000002000040101000000000000000080000000000000000000000000800000000000000800000000000010000000000000000000000000000000000000400000000400000000000000000200000000028000000000000000000000000020000000000000000000000000000000000000000002000080000000000000000000000000000200001000000000000040000010080000000001000000000000000000000000000000000000000000000800",
      "type": "0x0",
      "transactionHash": "0x2bcd78770b90a8b5ce70f2f147d73a8678f9ddba4684f522687bd461af90f50c",
      "transactionIndex": "0x10",
      "blockHash": "0xbf30acc1c9975a67f72f05bc04719318aa79b4ffbc87901b67e268ade51b0bb0",
      "blockNumber": "0x2a8fc85",
      "gasUsed": "0x1e543",
      "effectiveGasPrice": "0x5d22cfc40",
      "from": "0x3a4db9e7306af09012ceb0f222d581fd1f0c6d71",
      "to": "0x283e260f03f80982d9d3a83a30a574dff335d563",
      "contractAddress": null,
      "l1BaseFeeScalar": "0x0",
      "l1BlobBaseFee": "0x1",
      "l1BlobBaseFeeScalar": "0x0",
      "l1Fee": "0x0",
      "l1GasPrice": "0x8",
      "l1GasUsed": "0x640"
    },
    {
      "status": "0x1",
      "cumulativeGasUsed": "0x1e07cb",
      "logs": [
        {
          "address": "0x9113f4531aa608d96dea970f7d9fe42dc9917a4c",
          "topics": [
            "0x0a3fbbea70e93f2daafa3102f5c9a1b8315e6d7a1e43e4bc020bc1162327470a",
            "0x000000000000000000000000283e260f03f80982d9d3a83a30a574dff335d563",
            "0x0000000000000000000000003b346548fbfa74623047b1e199a96576dd156f2e"
          ],
          "data": "0x000000000000000000000000000000000000000000000003635c9adc5dea0000",
          "blockHash": "0xbf30acc1c9975a67f72f05bc04719318aa79b4ffbc87901b67e268ade51b0bb0",
          "blockNumber": "0x2a8fc85",
          "transactionHash": "0xecccb52a87f90611e0470293ac6d9fc89ac2c4f0a041b3a831ad97b95f15aae3",
          "transactionIndex": "0x11",
          "logIndex": "0x21",
          "removed": false
        }
      ],
      "logsBloom": "0x00000000000000002000000000000000000000000000000000000000000000000000000090000002000000000000080000000000000000000000000000000000000000000000000000000000000000000000000000000101000000000000000000000000000000000000000000800000000000000800000000000000000000000000000000000000000000000000000000000000000000000000000000000000008000000000000000000000000000000000000000000000000000000000000000000000000000000000000000000000000000000200000000000000000000000000080000000000000000000000000000000000000000000000000000000000",
      "type": "0x0",
      "transactionHash": "0xecccb52a87f90611e0470293ac6d9fc89ac2c4f0a041b3a831ad97b95f15aae3",
      "transactionIndex": "0x11",
      "blockHash": "0xbf30acc1c9975a67f72f05bc04719318aa79b4ffbc87901b67e268ade51b0bb0",
      "blockNumber": "0x2a8fc85",
      "gasUsed": "0xa24f",
      "effectiveGasPrice": "0x5d22cfc40",
      "from": "0x3a4db9e7306af09012ceb0f222d581fd1f0c6d71",
      "to": "0x9113f4531aa608d96dea970f7d9fe42dc9917a4c",
      "contractAddress": null,
      "l1BaseFeeScalar": "0x0",
      "l1BlobBaseFee": "0x1",
      "l1BlobBaseFeeScalar": "0x0",
      "l1Fee": "0x0",
      "l1GasPrice": "0x8",
      "l1GasUsed": "0x8f1"
    },
    {
      "status": "0x1",
      "cumulativeGasUsed": "0x1ebf3e",
      "logs": [
        {
          "address": "0x3b346548fbfa74623047b1e199a96576dd156f2e",
          "topics": [
            "0x8c5be1e5ebec7d5bd14f71427d1e84f3dd0314c0f7b2291e5b200ac8c7c3b925",
            "0x0000000000000000000000003a4db9e7306af09012ceb0f222d581fd1f0c6d71",
            "0x000000000000000000000000283e260f03f80982d9d3a83a30a574dff335d563"
          ],
          "data": "0x00000000000000000000000000000000000000000000000a2a15d09519be0000",
          "blockHash": "0xbf30acc1c9975a67f72f05bc04719318aa79b4ffbc87901b67e268ade51b0bb0",
          "blockNumber": "0x2a8fc85",
          "transactionHash": "0xf9e5b46f26824c9943f91f40ae2fe3b8730d4876ec6043a664f7e7bec26b6cce",
          "transactionIndex": "0x12",
          "logIndex": "0x22",
          "removed": false
        }
      ],
      "logsBloom": "0x00000000000000002000000000000000000001000000000000000000000000000000000000000000000000000000000000000000000000000000000000200000000000000000000000000000000000004000000000000000000000000000000000000000000000000000000000000000000000000800000000000000000000000000000000000000000000000000400000000000000000000000000000000000028000000000000000000000000020000000000000000000000000000000000000000000000080000000000000000000000000000000001000000000000000000010000000000000000000000000000000000000000000000000000000000000",
      "type": "0x0",
      "transactionHash": "0xf9e5b46f26824c9943f91f40ae2fe3b8730d4876ec6043a664f7e7bec26b6cce",
      "transactionIndex": "0x12",
      "blockHash": "0xbf30acc1c9975a67f72f05bc04719318aa79b4ffbc87901b67e268ade51b0bb0",
      "blockNumber": "0x2a8fc85",
      "gasUsed": "0xb773",
      "effectiveGasPrice": "0x5d22cfc40",
      "from": "0x3a4db9e7306af09012ceb0f222d581fd1f0c6d71",
      "to": "0x3b346548fbfa74623047b1e199a96576dd156f2e",
      "contractAddress": null,
      "l1BaseFeeScalar": "0x0",
      "l1BlobBaseFee": "0x1",
      "l1BlobBaseFeeScalar": "0x0",
      "l1Fee": "0x0",
      "l1GasPrice": "0x8",
      "l1GasUsed": "0x640"
    },
    {
      "status": "0x1",
      "cumulativeGasUsed": "0x21bf6a",
      "logs": [
        {
          "address": "0x3b346548fbfa74623047b1e199a96576dd156f2e",
          "topics": [
            "0xddf252ad1be2c89b69c2b068fc378daa952ba7f163c4a11628f55a4df523b3ef",
            "0x0000000000000000000000003a4db9e7306af09012ceb0f222d581fd1f0c6d71",
            "0x000000000000000000000000283e260f03f80982d9d3a83a30a574dff335d563"
          ],
          "data": "0x00000000000000000000000000000000000000000000000a2a15d09519be0000",
          "blockHash": "0xbf30acc1c9975a67f72f05bc04719318aa79b4ffbc87901b67e268ade51b0bb0",
          "blockNumber": "0x2a8fc85",
          "transactionHash": "0xfce13f988374277a2385e77fd15d8183cccb14d6b076123696e6e837ce2d7da1",
          "transactionIndex": "0x13",
          "logIndex": "0x23",
          "removed": false
        },
        {
          "address": "0x3b346548fbfa74623047b1e199a96576dd156f2e",
          "topics": [
            "0x8c5be1e5ebec7d5bd14f71427d1e84f3dd0314c0f7b2291e5b200ac8c7c3b925",
            "0x000000000000000000000000283e260f03f80982d9d3a83a30a574dff335d563",
            "0x0000000000000000000000009113f4531aa608d96dea970f7d9fe42dc9917a4c"
          ],
          "data": "0x00000000000000000000000000000000000000000000000a2a15d09519be0000",
          "blockHash": "0xbf30acc1c9975a67f72f05bc04719318aa79b4ffbc87901b67e268ade51b0bb0",
          "blockNumber": "0x2a8fc85",
          "transactionHash": "0xfce13f988374277a2385e77fd15d8183cccb14d6b076123696e6e837ce2d7da1",
          "transactionIndex": "0x13",
          "logIndex": "0x24",
          "removed": false
        },
        {
          "address": "0x3b346548fbfa74623047b1e199a96576dd156f2e",
          "topics": [
            "0xddf252ad1be2c89b69c2b068fc378daa952ba7f163c4a11628f55a4df523b3ef",
            "0x000000000000000000000000283e260f03f80982d9d3a83a30a574dff335d563",
            "0x0000000000000000000000009113f4531aa608d96dea970f7d9fe42dc9917a4c"
          ],
          "data": "0x00000000000000000000000000000000000000000000000a2a15d09519be0000",
          "blockHash": "0xbf30acc1c9975a67f72f05bc04719318aa79b4ffbc87901b67e268ade51b0bb0",
          "blockNumber": "0x2a8fc85",
          "transactionHash": "0xfce13f988374277a2385e77fd15d8183cccb14d6b076123696e6e837ce2d7da1",
          "transactionIndex": "0x13",
          "logIndex": "0x25",
          "removed": false
        },
        {
          "address": "0x3b346548fbfa74623047b1e199a96576dd156f2e",
          "topics": [
            "0x8c5be1e5ebec7d5bd14f71427d1e84f3dd0314c0f7b2291e5b200ac8c7c3b925",
            "0x0000000000000000000000009113f4531aa608d96dea970f7d9fe42dc9917a4c",
            "0x0000000000000000000000009e650b3b18ab92bbd4e80fd6467aa10b904a045e"
          ],
          "data": "0x00000000000000000000000000000000000000000000000a2a15d09519be0000",
          "blockHash": "0xbf30acc1c9975a67f72f05bc04719318aa79b4ffbc87901b67e268ade51b0bb0",
          "blockNumber": "0x2a8fc85",
          "transactionHash": "0xfce13f988374277a2385e77fd15d8183cccb14d6b076123696e6e837ce2d7da1",
          "transactionIndex": "0x13",
          "logIndex": "0x26",
          "removed": false
        },
        {
          "address": "0x9113f4531aa608d96dea970f7d9fe42dc9917a4c",
          "topics": [
            "0x0a3fbbea70e93f2daafa3102f5c9a1b8315e6d7a1e43e4bc020bc1162327470a",
            "0x000000000000000000000000283e260f03f80982d9d3a83a30a574dff335d563",
            "0x0000000000000000000000003b346548fbfa74623047b1e199a96576dd156f2e"
          ],
          "data": "0x00000000000000000000000000000000000000000000000a2a15d09519be0000",
          "blockHash": "0xbf30acc1c9975a67f72f05bc04719318aa79b4ffbc87901b67e268ade51b0bb0",
          "blockNumber": "0x2a8fc85",
          "transactionHash": "0xfce13f988374277a2385e77fd15d8183cccb14d6b076123696e6e837ce2d7da1",
          "transactionIndex": "0x13",
          "logIndex": "0x27",
          "removed": false
        },
        {
          "address": "0xac166a1b90308ca742db5b388ffcbdc3e17a186c",
          "topics": [
            "0xddf252ad1be2c89b69c2b068fc378daa952ba7f163c4a11628f55a4df523b3ef",
            "0x0000000000000000000000000000000000000000000000000000000000000000",
            "0x0000000000000000000000003a4db9e7306af09012ceb0f222d581fd1f0c6d71"
          ],
          "data": "0x00000000000000000000000000000000000000000000003635c9adc5dea00000",
          "blockHash": "0xbf30acc1c9975a67f72f05bc04719318aa79b4ffbc87901b67e268ade51b0bb0",
          "blockNumber": "0x2a8fc85",
          "transactionHash": "0xfce13f988374277a2385e77fd15d8183cccb14d6b076123696e6e837ce2d7da1",
          "transactionIndex": "0x13",
          "logIndex": "0x28",
          "removed": false
        },
        {
          "address": "0x9113f4531aa608d96dea970f7d9fe42dc9917a4c",
          "topics": [
            "0xd1c19fbcd4551a5edfb66d43d2e337c04837afda3482b42bdf569a8fccdae5fb",
            "0x000000000000000000000000283e260f03f80982d9d3a83a30a574dff335d563",
            "0x000000000000000000000000ac166a1b90308ca742db5b388ffcbdc3e17a186c"
          ],
          "data": "0xffffffffffffffffffffffffffffffffffffffffffffffffffffffffffffffff",
          "blockHash": "0xbf30acc1c9975a67f72f05bc04719318aa79b4ffbc87901b67e268ade51b0bb0",
          "blockNumber": "0x2a8fc85",
          "transactionHash": "0xfce13f988374277a2385e77fd15d8183cccb14d6b076123696e6e837ce2d7da1",
          "transactionIndex": "0x13",
          "logIndex": "0x29",
          "removed": false
        },
        {
          "address": "0x283e260f03f80982d9d3a83a30a574dff335d563",
          "topics": [
            "0xcefaf961c5013063cf501ffd9f9382e9b9c4b15741ad032fe93d7e9c7c733b22",
            "0x0000000000000000000000000000000000000000000000000000000000000001",
            "0x0000000000000000000000003a4db9e7306af09012ceb0f222d581fd1f0c6d71"
          ],
          "data": "0x",
          "blockHash": "0xbf30acc1c9975a67f72f05bc04719318aa79b4ffbc87901b67e268ade51b0bb0",
          "blockNumber": "0x2a8fc85",
          "transactionHash": "0xfce13f988374277a2385e77fd15d8183cccb14d6b076123696e6e837ce2d7da1",
          "transactionIndex": "0x13",
          "logIndex": "0x2a",
          "removed": false
        }
      ],
      "logsBloom": "0x40000000000000002000040000000000000021000000000000000000000000000000000090000002000000000000080000000000000000000100000000240000000000000002000000000008000210004000000000040101000000081000000002000000020000000000000000841800000000000800000000000010000000000000000000000000000000000000400000000400000000000000000200000000028000000000000006000000000020000000000000000000000000000000000000000002000080000000000000004000000000000200001000000000000060000010080000000001000000080000000000000000000000002000000000000800",
      "type": "0x0",
      "transactionHash": "0xfce13f988374277a2385e77fd15d8183cccb14d6b076123696e6e837ce2d7da1",
      "transactionIndex": "0x13",
      "blockHash": "0xbf30acc1c9975a67f72f05bc04719318aa79b4ffbc87901b67e268ade51b0bb0",
      "blockNumber": "0x2a8fc85",
      "gasUsed": "0x3002c",
      "effectiveGasPrice": "0x5d22cfc40",
      "from": "0x3a4db9e7306af09012ceb0f222d581fd1f0c6d71",
      "to": "0x283e260f03f80982d9d3a83a30a574dff335d563",
      "contractAddress": null,
      "l1BaseFeeScalar": "0x0",
      "l1BlobBaseFee": "0x1",
      "l1BlobBaseFeeScalar": "0x0",
      "l1Fee": "0x0",
      "l1GasPrice": "0x8",
      "l1GasUsed": "0x640"
    }
  ],
  "libraries": [],
  "pending": [],
  "returns": {},
  "timestamp": 1745584446,
  "chain": 44787,
  "commit": "144c6c6"
}