{
  "transactions": [
    {
      "hash": "0xae652e4adce555bb0886996a36c3350483b292a424ef32e52c9a08be13ef9807",
      "transactionType": "CALL",
      "contractName": null,
      "contractAddress": "0x7262bfada9f61530119693d532e716d5cd3191ec",
      "function": "mint(address,uint256)",
      "arguments": [
        "0x3A4dB9e7306aF09012ceb0f222d581FD1F0C6D71",
        "10000000000"
      ],
      "transaction": {
        "from": "0x3a4db9e7306af09012ceb0f222d581fd1f0c6d71",
        "to": "0x7262bfada9f61530119693d532e716d5cd3191ec",
        "gas": "0xc63a",
        "value": "0x0",
        "input": "0x40c10f190000000000000000000000003a4db9e7306af09012ceb0f222d581fd1f0c6d7100000000000000000000000000000000000000000000000000000002540be400",
        "nonce": "0xc9",
        "chainId": "0xaef3"
      },
      "additionalContracts": [],
      "isFixedGasLimit": false
    },
    {
      "hash": "0x6125d9d9746ebb0440090bdaa395f451f17a42a0ef7a0b3f8af1fd6eb46be8e9",
      "transactionType": "CALL",
      "contractName": null,
      "contractAddress": "0xac166a1b90308ca742db5b388ffcbdc3e17a186c",
      "function": "mint(address,uint256)",
      "arguments": [
        "0x3A4dB9e7306aF09012ceb0f222d581FD1F0C6D71",
        "10000000000000000000"
      ],
      "transaction": {
        "from": "0x3a4db9e7306af09012ceb0f222d581fd1f0c6d71",
        "to": "0xac166a1b90308ca742db5b388ffcbdc3e17a186c",
        "gas": "0xc65d",
        "value": "0x0",
        "input": "0x40c10f190000000000000000000000003a4db9e7306af09012ceb0f222d581fd1f0c6d710000000000000000000000000000000000000000000000008ac7230489e80000",
        "nonce": "0xca",
        "chainId": "0xaef3"
      },
      "additionalContracts": [],
      "isFixedGasLimit": false
    },
    {
      "hash": "0xfce7532c10dee157e69a431190739884b8bda186f8428af03791fb568e23eeb3",
      "transactionType": "CALL",
      "contractName": null,
      "contractAddress": "0x3b346548fbfa74623047b1e199a96576dd156f2e",
      "function": "mint(address,uint256)",
      "arguments": [
        "0x3A4dB9e7306aF09012ceb0f222d581FD1F0C6D71",
        "10000000000000000000000"
      ],
      "transaction": {
        "from": "0x3a4db9e7306af09012ceb0f222d581fd1f0c6d71",
        "to": "0x3b346548fbfa74623047b1e199a96576dd156f2e",
        "gas": "0xbbf4",
        "value": "0x0",
        "input": "0x40c10f190000000000000000000000003a4db9e7306af09012ceb0f222d581fd1f0c6d7100000000000000000000000000000000000000000000021e19e0c9bab2400000",
        "nonce": "0xcb",
        "chainId": "0xaef3"
      },
      "additionalContracts": [],
      "isFixedGasLimit": false
    },
    {
      "hash": "0x70ff77d6e620b31e10af53dd7d1bbcb8572ec753a85b10d6f7ae2cb1e5a8b005",
      "transactionType": "CALL",
      "contractName": null,
      "contractAddress": "0x3b346548fbfa74623047b1e199a96576dd156f2e",
      "function": "mint(address,uint256)",
      "arguments": [
        "0xA41cC78C1F302A35184dDBE225d5530376cAd254",
        "10000000000000000000000"
      ],
      "transaction": {
        "from": "0x3a4db9e7306af09012ceb0f222d581fd1f0c6d71",
        "to": "0x3b346548fbfa74623047b1e199a96576dd156f2e",
        "gas": "0x11838",
        "value": "0x0",
        "input": "0x40c10f19000000000000000000000000a41cc78c1f302a35184ddbe225d5530376cad25400000000000000000000000000000000000000000000021e19e0c9bab2400000",
        "nonce": "0xcc",
        "chainId": "0xaef3"
      },
      "additionalContracts": [],
      "isFixedGasLimit": false
    },
    {
      "hash": "0xbeb23c020d43349f3d4ac5dcc6a6b9884675e8604d37ed3c0f623a301c356159",
      "transactionType": "CALL",
      "contractName": null,
      "contractAddress": "0xac166a1b90308ca742db5b388ffcbdc3e17a186c",
      "function": "approve(address,uint256)",
      "arguments": [
        "0xAe84B9e6dBa48D14f4ec7741666c976C0556A295",
        "1000000000000000000"
      ],
      "transaction": {
        "from": "0x3a4db9e7306af09012ceb0f222d581fd1f0c6d71",
        "to": "0xac166a1b90308ca742db5b388ffcbdc3e17a186c",
        "gas": "0xfd33",
        "value": "0x0",
        "input": "0x095ea7b3000000000000000000000000ae84b9e6dba48d14f4ec7741666c976c0556a2950000000000000000000000000000000000000000000000000de0b6b3a7640000",
        "nonce": "0xcd",
        "chainId": "0xaef3"
      },
      "additionalContracts": [],
      "isFixedGasLimit": false
    },
    {
      "hash": "0x5481b0ef832fdba0b7ca9593989a7a452961b130b1ad7a33eceb077722078601",
      "transactionType": "CALL",
      "contractName": "LendyProtocol",
      "contractAddress": "0xae84b9e6dba48d14f4ec7741666c976c0556a295",
      "function": "supply(address,uint256,address,uint16)",
      "arguments": [
        "0xAC166A1B90308cA742Db5b388FFCBdc3E17a186c",
        "1000000000000000000",
        "0x3A4dB9e7306aF09012ceb0f222d581FD1F0C6D71",
        "0"
      ],
      "transaction": {
        "from": "0x3a4db9e7306af09012ceb0f222d581fd1f0c6d71",
        "to": "0xae84b9e6dba48d14f4ec7741666c976c0556a295",
        "gas": "0x16b6d",
        "value": "0x0",
        "input": "0x617ba037000000000000000000000000ac166a1b90308ca742db5b388ffcbdc3e17a186c0000000000000000000000000000000000000000000000000de0b6b3a76400000000000000000000000000003a4db9e7306af09012ceb0f222d581fd1f0c6d710000000000000000000000000000000000000000000000000000000000000000",
        "nonce": "0xce",
        "chainId": "0xaef3"
      },
      "additionalContracts": [],
      "isFixedGasLimit": false
    },
    {
      "hash": "0x9b92168e1801cbbead327a6aff3bb59db1a4eee5a143d93691af0f63b058865a",
      "transactionType": "CALL",
      "contractName": "LendyProtocol",
      "contractAddress": "0xae84b9e6dba48d14f4ec7741666c976c0556a295",
      "function": "borrow(address,uint256,uint256,uint16,address)",
      "arguments": [
        "0x7262Bfada9f61530119693d532E716D5CD3191eC",
        "100000000",
        "2",
        "0",
        "0x3A4dB9e7306aF09012ceb0f222d581FD1F0C6D71"
      ],
      "transaction": {
        "from": "0x3a4db9e7306af09012ceb0f222d581fd1f0c6d71",
        "to": "0xae84b9e6dba48d14f4ec7741666c976c0556a295",
        "gas": "0x1808f",
        "value": "0x0",
        "input": "0xa415bcad0000000000000000000000007262bfada9f61530119693d532e716d5cd3191ec0000000000000000000000000000000000000000000000000000000005f5e100000000000000000000000000000000000000000000000000000000000000000200000000000000000000000000000000000000000000000000000000000000000000000000000000000000003a4db9e7306af09012ceb0f222d581fd1f0c6d71",
        "nonce": "0xcf",
        "chainId": "0xaef3"
      },
      "additionalContracts": [],
      "isFixedGasLimit": false
    },
    {
      "hash": "0xe1f9a6d91cf73ab8538f7806d200277cc0269dea2472c898f56f2eac8b87080d",
      "transactionType": "CALL",
      "contractName": "LendyProtocol",
      "contractAddress": "0xae84b9e6dba48d14f4ec7741666c976c0556a295",
      "function": "supplyWithPermit(address,uint256,address,uint16,uint256,uint8,bytes32,bytes32)",
      "arguments": [
        "0x3B346548fbfa74623047B1E199a96576dd156f2e",
        "1000000000000000000000",
        "0x3A4dB9e7306aF09012ceb0f222d581FD1F0C6D71",
        "0",
        "1745590228",
        "27",
        "0x0000000000000000000000000000000000000000000000000000000000000001",
        "0x0000000000000000000000000000000000000000000000000000000000000002"
      ],
      "transaction": {
        "from": "0x3a4db9e7306af09012ceb0f222d581fd1f0c6d71",
        "to": "0xae84b9e6dba48d14f4ec7741666c976c0556a295",
        "gas": "0xf746",
        "value": "0x0",
        "input": "0x02c205f00000000000000000000000003b346548fbfa74623047b1e199a96576dd156f2e00000000000000000000000000000000000000000000003635c9adc5dea000000000000000000000000000003a4db9e7306af09012ceb0f222d581fd1f0c6d71000000000000000000000000000000000000000000000000000000000000000000000000000000000000000000000000000000000000000000000000680b97d4000000000000000000000000000000000000000000000000000000000000001b00000000000000000000000000000000000000000000000000000000000000010000000000000000000000000000000000000000000000000000000000000002",
        "nonce": "0xd0",
        "chainId": "0xaef3"
      },
      "additionalContracts": [],
      "isFixedGasLimit": false
    },
    {
      "hash": "0x8b108170ed35638a810365d07549a1a82606462e819385484d8a49b6c8031fca",
      "transactionType": "CALL",
      "contractName": "LendyProtocol",
      "contractAddress": "0xae84b9e6dba48d14f4ec7741666c976c0556a295",
      "function": "repayWithPermit(address,uint256,uint256,address,uint256,uint8,bytes32,bytes32)",
      "arguments": [
        "0x3B346548fbfa74623047B1E199a96576dd156f2e",
        "500000000000000000000",
        "2",
        "0x3A4dB9e7306aF09012ceb0f222d581FD1F0C6D71",
        "1745590228",
        "27",
        "0x0000000000000000000000000000000000000000000000000000000000000001",
        "0x0000000000000000000000000000000000000000000000000000000000000002"
      ],
      "transaction": {
        "from": "0x3a4db9e7306af09012ceb0f222d581fd1f0c6d71",
        "to": "0xae84b9e6dba48d14f4ec7741666c976c0556a295",
        "gas": "0x11814",
        "value": "0x0",
        "input": "0xee3e210b0000000000000000000000003b346548fbfa74623047b1e199a96576dd156f2e00000000000000000000000000000000000000000000001b1ae4d6e2ef50000000000000000000000000000000000000000000000000000000000000000000020000000000000000000000003a4db9e7306af09012ceb0f222d581fd1f0c6d7100000000000000000000000000000000000000000000000000000000680b97d4000000000000000000000000000000000000000000000000000000000000001b00000000000000000000000000000000000000000000000000000000000000010000000000000000000000000000000000000000000000000000000000000002",
        "nonce": "0xd1",
        "chainId": "0xaef3"
      },
      "additionalContracts": [],
      "isFixedGasLimit": false
    },
    {
      "hash": "0xdbddc89d0b4242cd002109fbbc131dad2a418bcaff6175dcc442f4eee48a32d1",
      "transactionType": "CALL",
      "contractName": null,
      "contractAddress": "0xac166a1b90308ca742db5b388ffcbdc3e17a186c",
      "function": "approve(address,uint256)",
      "arguments": [
        "0xA41cC78C1F302A35184dDBE225d5530376cAd254",
        "1000000000000000000"
      ],
      "transaction": {
        "from": "0x3a4db9e7306af09012ceb0f222d581fd1f0c6d71",
        "to": "0xac166a1b90308ca742db5b388ffcbdc3e17a186c",
        "gas": "0xfd33",
        "value": "0x0",
        "input": "0x095ea7b3000000000000000000000000a41cc78c1f302a35184ddbe225d5530376cad2540000000000000000000000000000000000000000000000000de0b6b3a7640000",
        "nonce": "0xd2",
        "chainId": "0xaef3"
      },
      "additionalContracts": [],
      "isFixedGasLimit": false
    },
    {
      "hash": "0xaec46e0c263e0db7533ca05d2755cda6e9eb05684997d45d882c1761660b28f3",
      "transactionType": "CALL",
      "contractName": "LendyPositionManager",
      "contractAddress": "0xa41cc78c1f302a35184ddbe225d5530376cad254",
      "function": "createPosition(address,uint256,address,uint256,uint256)",
      "arguments": [
        "0xAC166A1B90308cA742Db5b388FFCBdc3E17a186c",
        "1000000000000000000",
        "0x3B346548fbfa74623047B1E199a96576dd156f2e",
        "250000000000000000000",
        "2"
      ],
      "transaction": {
        "from": "0x3a4db9e7306af09012ceb0f222d581fd1f0c6d71",
        "to": "0xa41cc78c1f302a35184ddbe225d5530376cad254",
        "gas": "0xc0f8f",
        "value": "0x0",
        "input": "0xb0c3d5df000000000000000000000000ac166a1b90308ca742db5b388ffcbdc3e17a186c0000000000000000000000000000000000000000000000000de0b6b3a76400000000000000000000000000003b346548fbfa74623047b1e199a96576dd156f2e00000000000000000000000000000000000000000000000d8d726b7177a800000000000000000000000000000000000000000000000000000000000000000002",
        "nonce": "0xd3",
        "chainId": "0xaef3"
      },
      "additionalContracts": [],
      "isFixedGasLimit": false
    },
    {
      "hash": "0x8379279e496dcf72a989c29c2c3812178736561a68830dcd4aaa9900cbc58db2",
      "transactionType": "CALL",
      "contractName": null,
      "contractAddress": "0x3b346548fbfa74623047b1e199a96576dd156f2e",
      "function": "approve(address,uint256)",
      "arguments": [
        "0xA41cC78C1F302A35184dDBE225d5530376cAd254",
        "62500000000000000000"
      ],
      "transaction": {
        "from": "0x3a4db9e7306af09012ceb0f222d581fd1f0c6d71",
        "to": "0x3b346548fbfa74623047b1e199a96576dd156f2e",
        "gas": "0x10c4a",
        "value": "0x0",
        "input": "0x095ea7b3000000000000000000000000a41cc78c1f302a35184ddbe225d5530376cad254000000000000000000000000000000000000000000000003635c9adc5dea0000",
        "nonce": "0xd4",
        "chainId": "0xaef3"
      },
      "additionalContracts": [],
      "isFixedGasLimit": false
    },
    {
      "hash": "0x679af4150fe7c62def7f0d10f5ec486662640bec442f0a20fb9a17a48c35fa88",
      "transactionType": "CALL",
      "contractName": "LendyPositionManager",
      "contractAddress": "0xa41cc78c1f302a35184ddbe225d5530376cad254",
      "function": "repayDebt(uint256,uint256)",
      "arguments": [
        "1",
        "62500000000000000000"
      ],
      "transaction": {
        "from": "0x3a4db9e7306af09012ceb0f222d581fd1f0c6d71",
        "to": "0xa41cc78c1f302a35184ddbe225d5530376cad254",
        "gas": "0x49974",
        "value": "0x0",
        "input": "0x015cb0a50000000000000000000000000000000000000000000000000000000000000001000000000000000000000000000000000000000000000003635c9adc5dea0000",
        "nonce": "0xd5",
        "chainId": "0xaef3"
      },
      "additionalContracts": [],
      "isFixedGasLimit": false
    },
    {
      "hash": "0x1bd828db9fbd54eab5d05eda6bb43ac019869bb71737fb086fa30b9984c4ecbe",
      "transactionType": "CALL",
      "contractName": "LendyProtocol",
      "contractAddress": "0xae84b9e6dba48d14f4ec7741666c976c0556a295",
      "function": "repayWithPermit(address,uint256,uint256,address,uint256,uint8,bytes32,bytes32)",
      "arguments": [
        "0x3B346548fbfa74623047B1E199a96576dd156f2e",
        "62500000000000000000",
        "2",
        "0xA41cC78C1F302A35184dDBE225d5530376cAd254",
        "1745590228",
        "27",
        "0x0000000000000000000000000000000000000000000000000000000000000001",
        "0x0000000000000000000000000000000000000000000000000000000000000002"
      ],
      "transaction": {
        "from": "0x3a4db9e7306af09012ceb0f222d581fd1f0c6d71",
        "to": "0xae84b9e6dba48d14f4ec7741666c976c0556a295",
        "gas": "0x11814",
        "value": "0x0",
        "input": "0xee3e210b0000000000000000000000003b346548fbfa74623047b1e199a96576dd156f2e000000000000000000000000000000000000000000000003635c9adc5dea00000000000000000000000000000000000000000000000000000000000000000002000000000000000000000000a41cc78c1f302a35184ddbe225d5530376cad25400000000000000000000000000000000000000000000000000000000680b97d4000000000000000000000000000000000000000000000000000000000000001b00000000000000000000000000000000000000000000000000000000000000010000000000000000000000000000000000000000000000000000000000000002",
        "nonce": "0xd6",
        "chainId": "0xaef3"
      },
      "additionalContracts": [],
      "isFixedGasLimit": false
    },
    {
      "hash": "0x056865650e87d3c2dd810ae5aed3de8f21a93eb3f819ae07d1984abd8834c19a",
      "transactionType": "CALL",
      "contractName": null,
      "contractAddress": "0x3b346548fbfa74623047b1e199a96576dd156f2e",
      "function": "approve(address,uint256)",
      "arguments": [
        "0xA41cC78C1F302A35184dDBE225d5530376cAd254",
        "187500000000000000000"
      ],
      "transaction": {
        "from": "0x3a4db9e7306af09012ceb0f222d581fd1f0c6d71",
        "to": "0x3b346548fbfa74623047b1e199a96576dd156f2e",
        "gas": "0x10c4a",
        "value": "0x0",
        "input": "0x095ea7b3000000000000000000000000a41cc78c1f302a35184ddbe225d5530376cad25400000000000000000000000000000000000000000000000a2a15d09519be0000",
        "nonce": "0xd7",
        "chainId": "0xaef3"
      },
      "additionalContracts": [],
      "isFixedGasLimit": false
    },
    {
      "hash": "0x4c4f1007f1efa966a32166daaae23c34cd1caec1bce7cace1b2558d1ecf2275f",
      "transactionType": "CALL",
      "contractName": "LendyPositionManager",
      "contractAddress": "0xa41cc78c1f302a35184ddbe225d5530376cad254",
      "function": "closePosition(uint256)",
      "arguments": [
        "1"
      ],
      "transaction": {
        "from": "0x3a4db9e7306af09012ceb0f222d581fd1f0c6d71",
        "to": "0xa41cc78c1f302a35184ddbe225d5530376cad254",
        "gas": "0x4b2d3",
        "value": "0x0",
        "input": "0xa126d6010000000000000000000000000000000000000000000000000000000000000001",
        "nonce": "0xd8",
        "chainId": "0xaef3"
      },
      "additionalContracts": [],
      "isFixedGasLimit": false
    },
    {
      "hash": "0xac09cfb9a9e41a698a67a515c0cc046bcad0824310078e51b486175c9bc75c14",
      "transactionType": "CALL",
      "contractName": null,
      "contractAddress": "0xac166a1b90308ca742db5b388ffcbdc3e17a186c",
      "function": "approve(address,uint256)",
      "arguments": [
        "0xA41cC78C1F302A35184dDBE225d5530376cAd254",
        "1000000000000000000"
      ],
      "transaction": {
        "from": "0x3a4db9e7306af09012ceb0f222d581fd1f0c6d71",
        "to": "0xac166a1b90308ca742db5b388ffcbdc3e17a186c",
        "gas": "0xfd33",
        "value": "0x0",
        "input": "0x095ea7b3000000000000000000000000a41cc78c1f302a35184ddbe225d5530376cad2540000000000000000000000000000000000000000000000000de0b6b3a7640000",
        "nonce": "0xd9",
        "chainId": "0xaef3"
      },
      "additionalContracts": [],
      "isFixedGasLimit": false
    },
    {
      "hash": "0x41b2b807688f3a8eb9253d1c2e7c5007e05397df47576e1e3cfc60a698319b59",
      "transactionType": "CALL",
      "contractName": "LendyPositionManager",
      "contractAddress": "0xa41cc78c1f302a35184ddbe225d5530376cad254",
      "function": "createPosition(address,uint256,address,uint256,uint256)",
      "arguments": [
        "0xAC166A1B90308cA742Db5b388FFCBdc3E17a186c",
        "1000000000000000000",
        "0x3B346548fbfa74623047B1E199a96576dd156f2e",
        "250000000000000000000",
        "2"
      ],
      "transaction": {
        "from": "0x3a4db9e7306af09012ceb0f222d581fd1f0c6d71",
        "to": "0xa41cc78c1f302a35184ddbe225d5530376cad254",
        "gas": "0x7346f",
        "value": "0x0",
        "input": "0xb0c3d5df000000000000000000000000ac166a1b90308ca742db5b388ffcbdc3e17a186c0000000000000000000000000000000000000000000000000de0b6b3a76400000000000000000000000000003b346548fbfa74623047b1e199a96576dd156f2e00000000000000000000000000000000000000000000000d8d726b7177a800000000000000000000000000000000000000000000000000000000000000000002",
        "nonce": "0xda",
        "chainId": "0xaef3"
      },
      "additionalContracts": [],
      "isFixedGasLimit": false
    },
    {
      "hash": "0x5f14e2e3e7b4e74a288725d5d900d8782f6a8611a8b396fc0814e587409ede13",
      "transactionType": "CALL",
      "contractName": "LendyPositionManager",
      "contractAddress": "0xa41cc78c1f302a35184ddbe225d5530376cad254",
      "function": "addCollateralWithPermit(uint256,uint256,uint256,uint8,bytes32,bytes32)",
      "arguments": [
        "2",
        "500000000000000000",
        "1745590228",
        "27",
        "0x0000000000000000000000000000000000000000000000000000000000000001",
        "0x0000000000000000000000000000000000000000000000000000000000000002"
      ],
      "transaction": {
        "from": "0x3a4db9e7306af09012ceb0f222d581fd1f0c6d71",
        "to": "0xa41cc78c1f302a35184ddbe225d5530376cad254",
        "gas": "0x15d7a",
        "value": "0x0",
        "input": "0x558e45ba000000000000000000000000000000000000000000000000000000000000000200000000000000000000000000000000000000000000000006f05b59d3b2000000000000000000000000000000000000000000000000000000000000680b97d4000000000000000000000000000000000000000000000000000000000000001b00000000000000000000000000000000000000000000000000000000000000010000000000000000000000000000000000000000000000000000000000000002",
        "nonce": "0xdb",
        "chainId": "0xaef3"
      },
      "additionalContracts": [],
      "isFixedGasLimit": false
    },
    {
      "hash": "0xb202cd3b1b594eb408a7205db854a9b47016dd6882594bb19b7f2f8e2cb42616",
      "transactionType": "CALL",
      "contractName": "LendyPositionManager",
      "contractAddress": "0xa41cc78c1f302a35184ddbe225d5530376cad254",
      "function": "repayDebtWithPermit(uint256,uint256,uint256,uint8,bytes32,bytes32)",
      "arguments": [
        "2",
        "100000000000000000000",
        "1745590228",
        "27",
        "0x0000000000000000000000000000000000000000000000000000000000000001",
        "0x0000000000000000000000000000000000000000000000000000000000000002"
      ],
      "transaction": {
        "from": "0x3a4db9e7306af09012ceb0f222d581fd1f0c6d71",
        "to": "0xa41cc78c1f302a35184ddbe225d5530376cad254",
        "gas": "0x17dfa",
        "value": "0x0",
        "input": "0xc9a7906a00000000000000000000000000000000000000000000000000000000000000020000000000000000000000000000000000000000000000056bc75e2d6310000000000000000000000000000000000000000000000000000000000000680b97d4000000000000000000000000000000000000000000000000000000000000001b00000000000000000000000000000000000000000000000000000000000000010000000000000000000000000000000000000000000000000000000000000002",
        "nonce": "0xdc",
        "chainId": "0xaef3"
      },
      "additionalContracts": [],
      "isFixedGasLimit": false
    },
    {
      "hash": "0xdab3e2ac622bd279b4efb3216c25c60b80be5518183a711106f9c538a6fdfcb5",
      "transactionType": "CALL",
      "contractName": null,
      "contractAddress": "0xac166a1b90308ca742db5b388ffcbdc3e17a186c",
      "function": "approve(address,uint256)",
      "arguments": [
        "0xA41cC78C1F302A35184dDBE225d5530376cAd254",
        "1000000000000000000"
      ],
      "transaction": {
        "from": "0x3a4db9e7306af09012ceb0f222d581fd1f0c6d71",
        "to": "0xac166a1b90308ca742db5b388ffcbdc3e17a186c",
        "gas": "0xfd33",
        "value": "0x0",
        "input": "0x095ea7b3000000000000000000000000a41cc78c1f302a35184ddbe225d5530376cad2540000000000000000000000000000000000000000000000000de0b6b3a7640000",
        "nonce": "0xdd",
        "chainId": "0xaef3"
      },
      "additionalContracts": [],
      "isFixedGasLimit": false
    },
    {
      "hash": "0x79d768177d0633692c6bf5bb53405ddeb051f0f2a341d825e75f4b197b9cb10d",
      "transactionType": "CALL",
      "contractName": "LendyPositionManager",
      "contractAddress": "0xa41cc78c1f302a35184ddbe225d5530376cad254",
      "function": "createPosition(address,uint256,address,uint256,uint256)",
      "arguments": [
        "0xAC166A1B90308cA742Db5b388FFCBdc3E17a186c",
        "1000000000000000000",
        "0x3B346548fbfa74623047B1E199a96576dd156f2e",
        "125000000000000000000",
        "2"
      ],
      "transaction": {
        "from": "0x3a4db9e7306af09012ceb0f222d581fd1f0c6d71",
        "to": "0xa41cc78c1f302a35184ddbe225d5530376cad254",
        "gas": "0x752a6",
        "value": "0x0",
        "input": "0xb0c3d5df000000000000000000000000ac166a1b90308ca742db5b388ffcbdc3e17a186c0000000000000000000000000000000000000000000000000de0b6b3a76400000000000000000000000000003b346548fbfa74623047b1e199a96576dd156f2e000000000000000000000000000000000000000000000006c6b935b8bbd400000000000000000000000000000000000000000000000000000000000000000002",
        "nonce": "0xde",
        "chainId": "0xaef3"
      },
      "additionalContracts": [],
      "isFixedGasLimit": false
    },
    {
      "hash": "0x70a18c948903123ca72be63631879fb92e64cb724ec92bee74be55f4e3039893",
      "transactionType": "CALL",
      "contractName": "LendyPositionManager",
      "contractAddress": "0xa41cc78c1f302a35184ddbe225d5530376cad254",
      "function": "closePositionWithPermit(uint256,uint256,uint8,bytes32,bytes32)",
      "arguments": [
        "3",
        "1745590228",
        "27",
        "0x0000000000000000000000000000000000000000000000000000000000000001",
        "0x0000000000000000000000000000000000000000000000000000000000000002"
      ],
      "transaction": {
        "from": "0x3a4db9e7306af09012ceb0f222d581fd1f0c6d71",
        "to": "0xa41cc78c1f302a35184ddbe225d5530376cad254",
        "gas": "0x24a3d",
        "value": "0x0",
        "input": "0xc3fabc34000000000000000000000000000000000000000000000000000000000000000300000000000000000000000000000000000000000000000000000000680b97d4000000000000000000000000000000000000000000000000000000000000001b00000000000000000000000000000000000000000000000000000000000000010000000000000000000000000000000000000000000000000000000000000002",
        "nonce": "0xdf",
        "chainId": "0xaef3"
      },
      "additionalContracts": [],
      "isFixedGasLimit": false
    }
  ],
  "receipts": [
    {
      "status": "0x1",
      "cumulativeGasUsed": "0x76741",
      "logs": [
        {
          "address": "0x7262bfada9f61530119693d532e716d5cd3191ec",
          "topics": [
            "0xddf252ad1be2c89b69c2b068fc378daa952ba7f163c4a11628f55a4df523b3ef",
            "0x0000000000000000000000000000000000000000000000000000000000000000",
            "0x0000000000000000000000003a4db9e7306af09012ceb0f222d581fd1f0c6d71"
          ],
          "data": "0x00000000000000000000000000000000000000000000000000000002540be400",
          "blockHash": "0x1d3052971adb30c12bb4d0b3c865f8c98a3a74aae2bf4c091663ea0a3eb7907e",
          "blockNumber": "0x2a90535",
          "transactionHash": "0xae652e4adce555bb0886996a36c3350483b292a424ef32e52c9a08be13ef9807",
          "transactionIndex": "0x3",
          "logIndex": "0x3",
          "removed": false
        }
      ],
      "logsBloom": "0x00000000000000000000000000000000000000000000000000000000000000000000000000000000000000000000000000000000000000000000000000000000100000000000000000000008000000000000000000000000000000100000000000000000020000000000000000000800000000000000000000000050000000000000000000000000000000000000400000000000000000000000000000000000000000000000000000000000000000000000000000000000000000000000000000000002000080000000000000000000000000000000001000000000000020000000000000000000000000000000000000000000000000000000000000000000",
      "type": "0x0",
      "transactionHash": "0xae652e4adce555bb0886996a36c3350483b292a424ef32e52c9a08be13ef9807",
      "transactionIndex": "0x3",
      "blockHash": "0x1d3052971adb30c12bb4d0b3c865f8c98a3a74aae2bf4c091663ea0a3eb7907e",
      "blockNumber": "0x2a90535",
      "gasUsed": "0x878b",
      "effectiveGasPrice": "0x5d22cfc40",
      "from": "0x3a4db9e7306af09012ceb0f222d581fd1f0c6d71",
      "to": "0x7262bfada9f61530119693d532e716d5cd3191ec",
      "contractAddress": null,
      "l1BaseFeeScalar": "0x0",
      "l1BlobBaseFee": "0x1",
      "l1BlobBaseFeeScalar": "0x0",
      "l1Fee": "0x0",
      "l1GasPrice": "0xa",
      "l1GasUsed": "0x640"
    },
    {
      "status": "0x1",
      "cumulativeGasUsed": "0x7eee4",
      "logs": [
        {
          "address": "0xac166a1b90308ca742db5b388ffcbdc3e17a186c",
          "topics": [
            "0xddf252ad1be2c89b69c2b068fc378daa952ba7f163c4a11628f55a4df523b3ef",
            "0x0000000000000000000000000000000000000000000000000000000000000000",
            "0x0000000000000000000000003a4db9e7306af09012ceb0f222d581fd1f0c6d71"
          ],
          "data": "0x0000000000000000000000000000000000000000000000008ac7230489e80000",
          "blockHash": "0x1d3052971adb30c12bb4d0b3c865f8c98a3a74aae2bf4c091663ea0a3eb7907e",
          "blockNumber": "0x2a90535",
          "transactionHash": "0x6125d9d9746ebb0440090bdaa395f451f17a42a0ef7a0b3f8af1fd6eb46be8e9",
          "transactionIndex": "0x4",
          "logIndex": "0x4",
          "removed": false
        }
      ],
      "logsBloom": "0x00000000000000000000000000000000000000000000000000000000000000000000000000000000000000000000000000000000000000000000000000000000000000000000000000000008000000000000000000000000000000080000000002000000020000000000000000000800000000000000000000000010000000000000000000000000000000000000400000000000000000000000000000000000000000000000000000000000000000000000000000000000000000000000000000000002000080000000000000004000000000000000001000000000000020000000000000000000000000000000000000000000000000000000000000000000",
      "type": "0x0",
      "transactionHash": "0x6125d9d9746ebb0440090bdaa395f451f17a42a0ef7a0b3f8af1fd6eb46be8e9",
      "transactionIndex": "0x4",
      "blockHash": "0x1d3052971adb30c12bb4d0b3c865f8c98a3a74aae2bf4c091663ea0a3eb7907e",
      "blockNumber": "0x2a90535",
      "gasUsed": "0x87a3",
      "effectiveGasPrice": "0x5d22cfc40",
      "from": "0x3a4db9e7306af09012ceb0f222d581fd1f0c6d71",
      "to": "0xac166a1b90308ca742db5b388ffcbdc3e17a186c",
      "contractAddress": null,
      "l1BaseFeeScalar": "0x0",
      "l1BlobBaseFee": "0x1",
      "l1BlobBaseFeeScalar": "0x0",
      "l1Fee": "0x0",
      "l1GasPrice": "0xa",
      "l1GasUsed": "0x640"
    },
    {
      "status": "0x1",
      "cumulativeGasUsed": "0x41a62",
      "logs": [
        {
          "address": "0x3b346548fbfa74623047b1e199a96576dd156f2e",
          "topics": [
            "0xddf252ad1be2c89b69c2b068fc378daa952ba7f163c4a11628f55a4df523b3ef",
            "0x0000000000000000000000000000000000000000000000000000000000000000",
            "0x0000000000000000000000003a4db9e7306af09012ceb0f222d581fd1f0c6d71"
          ],
          "data": "0x00000000000000000000000000000000000000000000021e19e0c9bab2400000",
          "blockHash": "0x9ffc0f92589acc015b16896f16b2cd88413fb6e48547ff392c9bae132a50ddde",
          "blockNumber": "0x2a90536",
          "transactionHash": "0xfce7532c10dee157e69a431190739884b8bda186f8428af03791fb568e23eeb3",
          "transactionIndex": "0x2",
          "logIndex": "0x1",
          "removed": false
        }
      ],
      "logsBloom": "0x00000000000000000000000000000000000001000000000000000000000000000000000000000000000000000000000000000000000000000000000000000000000000000000000000000008000000004000000000000000000000000000000000000000020000000000000000000800000000000000000000000010000000000000000000000000000000000000400000000000000000000000000000000000000000000000000000000000000020000000000000000000000000000000000000000002000080000000000000000000000000000000001000000000000020000000000000000000000000000000000000000000000000000000000000000000",
      "type": "0x0",
      "transactionHash": "0xfce7532c10dee157e69a431190739884b8bda186f8428af03791fb568e23eeb3",
      "transactionIndex": "0x2",
      "blockHash": "0x9ffc0f92589acc015b16896f16b2cd88413fb6e48547ff392c9bae132a50ddde",
      "blockNumber": "0x2a90536",
      "gasUsed": "0x8814",
      "effectiveGasPrice": "0x5d22cfc40",
      "from": "0x3a4db9e7306af09012ceb0f222d581fd1f0c6d71",
      "to": "0x3b346548fbfa74623047b1e199a96576dd156f2e",
      "contractAddress": null,
      "l1BaseFeeScalar": "0x0",
      "l1BlobBaseFee": "0x1",
      "l1BlobBaseFeeScalar": "0x0",
      "l1Fee": "0x0",
      "l1GasPrice": "0xa",
      "l1GasUsed": "0x640"
    },
    {
      "status": "0x1",
      "cumulativeGasUsed": "0x4e542",
      "logs": [
        {
          "address": "0x3b346548fbfa74623047b1e199a96576dd156f2e",
          "topics": [
            "0xddf252ad1be2c89b69c2b068fc378daa952ba7f163c4a11628f55a4df523b3ef",
            "0x0000000000000000000000000000000000000000000000000000000000000000",
            "0x000000000000000000000000a41cc78c1f302a35184ddbe225d5530376cad254"
          ],
          "data": "0x00000000000000000000000000000000000000000000021e19e0c9bab2400000",
          "blockHash": "0x9ffc0f92589acc015b16896f16b2cd88413fb6e48547ff392c9bae132a50ddde",
          "blockNumber": "0x2a90536",
          "transactionHash": "0x70ff77d6e620b31e10af53dd7d1bbcb8572ec753a85b10d6f7ae2cb1e5a8b005",
          "transactionIndex": "0x3",
          "logIndex": "0x2",
          "removed": false
        }
      ],
      "logsBloom": "0x00000000000000000000000000000000000001000000000000000000000000000000000000000000000000000000000000000000000000000000000000000000000000000000000000000008000000004000000000000000000000000000000000000000021000000000000000000800000000000000000000000010000000000000000000000000000000000000000000000000000000000000004000000000000000000000000000000000000020000000000000000000000000000000000000000002000000000000000000000000000000000000000000000000000020000000000000000000000000000000000000000000000000000000000000000001",
      "type": "0x0",
      "transactionHash": "0x70ff77d6e620b31e10af53dd7d1bbcb8572ec753a85b10d6f7ae2cb1e5a8b005",
      "transactionIndex": "0x3",
      "blockHash": "0x9ffc0f92589acc015b16896f16b2cd88413fb6e48547ff392c9bae132a50ddde",
      "blockNumber": "0x2a90536",
      "gasUsed": "0xcae0",
      "effectiveGasPrice": "0x5d22cfc40",
      "from": "0x3a4db9e7306af09012ceb0f222d581fd1f0c6d71",
      "to": "0x3b346548fbfa74623047b1e199a96576dd156f2e",
      "contractAddress": null,
      "l1BaseFeeScalar": "0x0",
      "l1BlobBaseFee": "0x1",
      "l1BlobBaseFeeScalar": "0x0",
      "l1Fee": "0x0",
      "l1GasPrice": "0xa",
      "l1GasUsed": "0x640"
    },
    {
      "status": "0x1",
      "cumulativeGasUsed": "0x59c92",
      "logs": [
        {
          "address": "0xac166a1b90308ca742db5b388ffcbdc3e17a186c",
          "topics": [
            "0x8c5be1e5ebec7d5bd14f71427d1e84f3dd0314c0f7b2291e5b200ac8c7c3b925",
            "0x0000000000000000000000003a4db9e7306af09012ceb0f222d581fd1f0c6d71",
            "0x000000000000000000000000ae84b9e6dba48d14f4ec7741666c976c0556a295"
          ],
          "data": "0x0000000000000000000000000000000000000000000000000de0b6b3a7640000",
          "blockHash": "0x9ffc0f92589acc015b16896f16b2cd88413fb6e48547ff392c9bae132a50ddde",
          "blockNumber": "0x2a90536",
          "transactionHash": "0xbeb23c020d43349f3d4ac5dcc6a6b9884675e8604d37ed3c0f623a301c356159",
          "transactionIndex": "0x4",
          "logIndex": "0x3",
          "removed": false
        }
      ],
      "logsBloom": "0x00000000000000000000000000000000000000000000000000000000000000000000000000000000000000000000000000000000000000000008000000200000000000000001000000000000000000000000000000000000000000080000000002000000000000000000000000000000000000000000000000000000000000000000000000000000000000000000400000000000000000000000000000000000020000000000000000000000000000000000000000000000000000000000000000000000000080000000000000004000000000000000001000000000000000000010000000000000000000000000000000000000000000000000000000080000",
      "type": "0x0",
      "transactionHash": "0xbeb23c020d43349f3d4ac5dcc6a6b9884675e8604d37ed3c0f623a301c356159",
      "transactionIndex": "0x4",
      "blockHash": "0x9ffc0f92589acc015b16896f16b2cd88413fb6e48547ff392c9bae132a50ddde",
      "blockNumber": "0x2a90536",
      "gasUsed": "0xb750",
      "effectiveGasPrice": "0x5d22cfc40",
      "from": "0x3a4db9e7306af09012ceb0f222d581fd1f0c6d71",
      "to": "0xac166a1b90308ca742db5b388ffcbdc3e17a186c",
      "contractAddress": null,
      "l1BaseFeeScalar": "0x0",
      "l1BlobBaseFee": "0x1",
      "l1BlobBaseFeeScalar": "0x0",
      "l1Fee": "0x0",
      "l1GasPrice": "0xa",
      "l1GasUsed": "0x640"
    },
    {
      "status": "0x1",
      "cumulativeGasUsed": "0x6a3b0",
      "logs": [
        {
          "address": "0xac166a1b90308ca742db5b388ffcbdc3e17a186c",
          "topics": [
            "0xddf252ad1be2c89b69c2b068fc378daa952ba7f163c4a11628f55a4df523b3ef",
            "0x0000000000000000000000003a4db9e7306af09012ceb0f222d581fd1f0c6d71",
            "0x000000000000000000000000ae84b9e6dba48d14f4ec7741666c976c0556a295"
          ],
          "data": "0x0000000000000000000000000000000000000000000000000de0b6b3a7640000",
          "blockHash": "0x9ffc0f92589acc015b16896f16b2cd88413fb6e48547ff392c9bae132a50ddde",
          "blockNumber": "0x2a90536",
          "transactionHash": "0x5481b0ef832fdba0b7ca9593989a7a452961b130b1ad7a33eceb077722078601",
          "transactionIndex": "0x5",
          "logIndex": "0x4",
          "removed": false
        },
        {
          "address": "0xac166a1b90308ca742db5b388ffcbdc3e17a186c",
          "topics": [
            "0x8c5be1e5ebec7d5bd14f71427d1e84f3dd0314c0f7b2291e5b200ac8c7c3b925",
            "0x000000000000000000000000ae84b9e6dba48d14f4ec7741666c976c0556a295",
            "0x0000000000000000000000000466be5953f6e0695a846c44926ad4789a68d3f2"
          ],
          "data": "0x0000000000000000000000000000000000000000000000000de0b6b3a7640000",
          "blockHash": "0x9ffc0f92589acc015b16896f16b2cd88413fb6e48547ff392c9bae132a50ddde",
          "blockNumber": "0x2a90536",
          "transactionHash": "0x5481b0ef832fdba0b7ca9593989a7a452961b130b1ad7a33eceb077722078601",
          "transactionIndex": "0x5",
          "logIndex": "0x5",
          "removed": false
        },
        {
          "address": "0xae84b9e6dba48d14f4ec7741666c976c0556a295",
          "topics": [
            "0x523322d7afb07cee28d04498651096af062004e1f14315eff2e4a60290dfadda",
            "0x0000000000000000000000003a4db9e7306af09012ceb0f222d581fd1f0c6d71",
            "0x000000000000000000000000ac166a1b90308ca742db5b388ffcbdc3e17a186c"
          ],
          "data": "0x0000000000000000000000000000000000000000000000000de0b6b3a7640000",
          "blockHash": "0x9ffc0f92589acc015b16896f16b2cd88413fb6e48547ff392c9bae132a50ddde",
          "blockNumber": "0x2a90536",
          "transactionHash": "0x5481b0ef832fdba0b7ca9593989a7a452961b130b1ad7a33eceb077722078601",
          "transactionIndex": "0x5",
          "logIndex": "0x6",
          "removed": false
        }
      ],
      "logsBloom": "0x00000000000000000000000000000008000000004000000000000000000000000000000000000000000000000000000000080000000000000008000000200000000000020001000000000008000020000000000000000000400000080000000002000000000400000000000000001000000000000000000000000010000000000000000000000000000000000000400000000000000000000000000000000000020000000000000004000000000000000000000000000000000000000010000000040002000080000000000000004000000000000000001000000000000000000010000000000000000000000000000000000000000000002000000000080000",
      "type": "0x0",
      "transactionHash": "0x5481b0ef832fdba0b7ca9593989a7a452961b130b1ad7a33eceb077722078601",
      "transactionIndex": "0x5",
      "blockHash": "0x9ffc0f92589acc015b16896f16b2cd88413fb6e48547ff392c9bae132a50ddde",
      "blockNumber": "0x2a90536",
      "gasUsed": "0x1071e",
      "effectiveGasPrice": "0x5d22cfc40",
      "from": "0x3a4db9e7306af09012ceb0f222d581fd1f0c6d71",
      "to": "0xae84b9e6dba48d14f4ec7741666c976c0556a295",
      "contractAddress": null,
      "l1BaseFeeScalar": "0x0",
      "l1BlobBaseFee": "0x1",
      "l1BlobBaseFeeScalar": "0x0",
      "l1Fee": "0x0",
      "l1GasPrice": "0xa",
      "l1GasUsed": "0x702"
    },
    {
      "status": "0x1",
      "cumulativeGasUsed": "0x7aaa3",
      "logs": [
        {
          "address": "0x7262bfada9f61530119693d532e716d5cd3191ec",
          "topics": [
            "0xddf252ad1be2c89b69c2b068fc378daa952ba7f163c4a11628f55a4df523b3ef",
            "0x0000000000000000000000000000000000000000000000000000000000000000",
            "0x000000000000000000000000ae84b9e6dba48d14f4ec7741666c976c0556a295"
          ],
          "data": "0x0000000000000000000000000000000000000000000000000000000005f5e100",
          "blockHash": "0x9ffc0f92589acc015b16896f16b2cd88413fb6e48547ff392c9bae132a50ddde",
          "blockNumber": "0x2a90536",
          "transactionHash": "0x9b92168e1801cbbead327a6aff3bb59db1a4eee5a143d93691af0f63b058865a",
          "transactionIndex": "0x6",
          "logIndex": "0x7",
          "removed": false
        },
        {
          "address": "0xae84b9e6dba48d14f4ec7741666c976c0556a295",
          "topics": [
            "0xc14e9e6b4d98a542b05a0f6b64acd5f4cbdb914be88432d87486b664e97071a7",
            "0x0000000000000000000000003a4db9e7306af09012ceb0f222d581fd1f0c6d71",
            "0x0000000000000000000000007262bfada9f61530119693d532e716d5cd3191ec"
          ],
          "data": "0x0000000000000000000000000000000000000000000000000000000005f5e1000000000000000000000000000000000000000000000000000000000000000002",
          "blockHash": "0x9ffc0f92589acc015b16896f16b2cd88413fb6e48547ff392c9bae132a50ddde",
          "blockNumber": "0x2a90536",
          "transactionHash": "0x9b92168e1801cbbead327a6aff3bb59db1a4eee5a143d93691af0f63b058865a",
          "transactionIndex": "0x6",
          "logIndex": "0x8",
          "removed": false
        }
      ],
      "logsBloom": "0x00000000000000000000000000000108000000004000000000000000000000000000000000000000000000000000000000000000000000000008000000000000100000000001000000000008000000000000000000000000000000100020000000000000020000000000000000000800000000000000000000000050000000000000000000000000000000000000400000000000000000000000000000000000000000000000000000000000000000000000020000000000000000000010000000000002000080002000000000008000000000000000001000000000000020000000000000000000000000000000000000000000004000000000000000080000",
      "type": "0x0",
      "transactionHash": "0x9b92168e1801cbbead327a6aff3bb59db1a4eee5a143d93691af0f63b058865a",
      "transactionIndex": "0x6",
      "blockHash": "0x9ffc0f92589acc015b16896f16b2cd88413fb6e48547ff392c9bae132a50ddde",
      "blockNumber": "0x2a90536",
      "gasUsed": "0x106f3",
      "effectiveGasPrice": "0x5d22cfc40",
      "from": "0x3a4db9e7306af09012ceb0f222d581fd1f0c6d71",
      "to": "0xae84b9e6dba48d14f4ec7741666c976c0556a295",
      "contractAddress": null,
      "l1BaseFeeScalar": "0x0",
      "l1BlobBaseFee": "0x1",
      "l1BlobBaseFeeScalar": "0x0",
      "l1Fee": "0x0",
      "l1GasPrice": "0xa",
      "l1GasUsed": "0x71d"
    },
    {
      "status": "0x1",
      "cumulativeGasUsed": "0x85da9",
      "logs": [
        {
          "address": "0xae84b9e6dba48d14f4ec7741666c976c0556a295",
          "topics": [
            "0x523322d7afb07cee28d04498651096af062004e1f14315eff2e4a60290dfadda",
            "0x0000000000000000000000003a4db9e7306af09012ceb0f222d581fd1f0c6d71",
            "0x0000000000000000000000003b346548fbfa74623047b1e199a96576dd156f2e"
          ],
          "data": "0x00000000000000000000000000000000000000000000003635c9adc5dea00000",
          "blockHash": "0x9ffc0f92589acc015b16896f16b2cd88413fb6e48547ff392c9bae132a50ddde",
          "blockNumber": "0x2a90536",
          "transactionHash": "0xe1f9a6d91cf73ab8538f7806d200277cc0269dea2472c898f56f2eac8b87080d",
          "transactionIndex": "0x7",
          "logIndex": "0x9",
          "removed": false
        }
      ],
      "logsBloom": "0x00000000000000000000000000000008000000004000000000000000000000000000000000000000000000000000000000080000000000000000000000000000000000020000000000000000000000000000000000000101000000000000000000000000000000000000000000000000000000000000000000000000000000000000000000000000000000000000400000000000000000000000000000000000000000000000000000000000000000000000000000000000000000000010000000040000000080000000000000000000000000000200001000000000000000000000000000000000000000000000000000000000000000000000000000000000",
      "type": "0x0",
      "transactionHash": "0xe1f9a6d91cf73ab8538f7806d200277cc0269dea2472c898f56f2eac8b87080d",
      "transactionIndex": "0x7",
      "blockHash": "0x9ffc0f92589acc015b16896f16b2cd88413fb6e48547ff392c9bae132a50ddde",
      "blockNumber": "0x2a90536",
      "gasUsed": "0xb306",
      "effectiveGasPrice": "0x5d22cfc40",
      "from": "0x3a4db9e7306af09012ceb0f222d581fd1f0c6d71",
      "to": "0xae84b9e6dba48d14f4ec7741666c976c0556a295",
      "contractAddress": null,
      "l1BaseFeeScalar": "0x0",
      "l1BlobBaseFee": "0x1",
      "l1BlobBaseFeeScalar": "0x0",
      "l1Fee": "0x0",
      "l1GasPrice": "0xa",
      "l1GasUsed": "0x829"
    },
    {
      "status": "0x1",
      "cumulativeGasUsed": "0x91d2b",
      "logs": [
        {
          "address": "0xae84b9e6dba48d14f4ec7741666c976c0556a295",
          "topics": [
            "0x0a3fbbea70e93f2daafa3102f5c9a1b8315e6d7a1e43e4bc020bc1162327470a",
            "0x0000000000000000000000003a4db9e7306af09012ceb0f222d581fd1f0c6d71",
            "0x0000000000000000000000003b346548fbfa74623047b1e199a96576dd156f2e"
          ],
          "data": "0x00000000000000000000000000000000000000000000001b1ae4d6e2ef500000",
          "blockHash": "0x9ffc0f92589acc015b16896f16b2cd88413fb6e48547ff392c9bae132a50ddde",
          "blockNumber": "0x2a90536",
          "transactionHash": "0x8b108170ed35638a810365d07549a1a82606462e819385484d8a49b6c8031fca",
          "transactionIndex": "0x8",
          "logIndex": "0xa",
          "removed": false
        }
      ],
      "logsBloom": "0x00000000000000000000000000000008000000004000000000000000000000000000000010000000000000000000080000000000000000000000000000000000000000000000000000000000000000000000000000000101000000000000000000000000000000000000000000800000000000000000000000000000000000000000000000000000000000000000400000000000000000000000000000000000000000000000000000000000000000000000000000000000000000000010000000000000000080000000000000000000000000000200001000000000000000000000000000000000000000000000000000000000000000000000000000000000",
      "type": "0x0",
      "transactionHash": "0x8b108170ed35638a810365d07549a1a82606462e819385484d8a49b6c8031fca",
      "transactionIndex": "0x8",
      "blockHash": "0x9ffc0f92589acc015b16896f16b2cd88413fb6e48547ff392c9bae132a50ddde",
      "blockNumber": "0x2a90536",
      "gasUsed": "0xbf82",
      "effectiveGasPrice": "0x5d22cfc40",
      "from": "0x3a4db9e7306af09012ceb0f222d581fd1f0c6d71",
      "to": "0xae84b9e6dba48d14f4ec7741666c976c0556a295",
      "contractAddress": null,
      "l1BaseFeeScalar": "0x0",
      "l1BlobBaseFee": "0x1",
      "l1BlobBaseFeeScalar": "0x0",
      "l1Fee": "0x0",
      "l1GasPrice": "0xa",
      "l1GasUsed": "0x90c"
    },
    {
      "status": "0x1",
      "cumulativeGasUsed": "0x9d47b",
      "logs": [
        {
          "address": "0xac166a1b90308ca742db5b388ffcbdc3e17a186c",
          "topics": [
            "0x8c5be1e5ebec7d5bd14f71427d1e84f3dd0314c0f7b2291e5b200ac8c7c3b925",
            "0x0000000000000000000000003a4db9e7306af09012ceb0f222d581fd1f0c6d71",
            "0x000000000000000000000000a41cc78c1f302a35184ddbe225d5530376cad254"
          ],
          "data": "0x0000000000000000000000000000000000000000000000000de0b6b3a7640000",
          "blockHash": "0x9ffc0f92589acc015b16896f16b2cd88413fb6e48547ff392c9bae132a50ddde",
          "blockNumber": "0x2a90536",
          "transactionHash": "0xdbddc89d0b4242cd002109fbbc131dad2a418bcaff6175dcc442f4eee48a32d1",
          "transactionIndex": "0x9",
          "logIndex": "0xb",
          "removed": false
        }
      ],
      "logsBloom": "0x00000000000000000000000000000000000000000000000000000000000000000000000000000000000000000000000000000000000000000000000000200000000000000000000000000000000000000000000000000000000000080000000002000000001000000000000000000000000000000000000000000000000000000000000000000000000000000000400000000000000000000000004000000000020000000000000000000000000000000000000000000000000000000000000000000000000080000000000000004000000000000000001000000000000000000010000000000000000000000000000000000000000000000000000000000001",
      "type": "0x0",
      "transactionHash": "0xdbddc89d0b4242cd002109fbbc131dad2a418bcaff6175dcc442f4eee48a32d1",
      "transactionIndex": "0x9",
      "blockHash": "0x9ffc0f92589acc015b16896f16b2cd88413fb6e48547ff392c9bae132a50ddde",
      "blockNumber": "0x2a90536",
      "gasUsed": "0xb750",
      "effectiveGasPrice": "0x5d22cfc40",
      "from": "0x3a4db9e7306af09012ceb0f222d581fd1f0c6d71",
      "to": "0xac166a1b90308ca742db5b388ffcbdc3e17a186c",
      "contractAddress": null,
      "l1BaseFeeScalar": "0x0",
      "l1BlobBaseFee": "0x1",
      "l1BlobBaseFeeScalar": "0x0",
      "l1Fee": "0x0",
      "l1GasPrice": "0xa",
      "l1GasUsed": "0x640"
    },
    {
      "status": "0x1",
      "cumulativeGasUsed": "0x128fd2",
      "logs": [
        {
          "address": "0xac166a1b90308ca742db5b388ffcbdc3e17a186c",
          "topics": [
            "0xddf252ad1be2c89b69c2b068fc378daa952ba7f163c4a11628f55a4df523b3ef",
            "0x0000000000000000000000003a4db9e7306af09012ceb0f222d581fd1f0c6d71",
            "0x000000000000000000000000a41cc78c1f302a35184ddbe225d5530376cad254"
          ],
          "data": "0x0000000000000000000000000000000000000000000000000de0b6b3a7640000",
          "blockHash": "0x9ffc0f92589acc015b16896f16b2cd88413fb6e48547ff392c9bae132a50ddde",
          "blockNumber": "0x2a90536",
          "transactionHash": "0xaec46e0c263e0db7533ca05d2755cda6e9eb05684997d45d882c1761660b28f3",
          "transactionIndex": "0xa",
          "logIndex": "0xc",
          "removed": false
        },
        {
          "address": "0xac166a1b90308ca742db5b388ffcbdc3e17a186c",
          "topics": [
            "0x8c5be1e5ebec7d5bd14f71427d1e84f3dd0314c0f7b2291e5b200ac8c7c3b925",
            "0x000000000000000000000000a41cc78c1f302a35184ddbe225d5530376cad254",
            "0x000000000000000000000000eb0225a90ee70a2076a51981c0a9b0b25f2174c7"
          ],
          "data": "0x0000000000000000000000000000000000000000000000000de0b6b3a7640000",
          "blockHash": "0x9ffc0f92589acc015b16896f16b2cd88413fb6e48547ff392c9bae132a50ddde",
          "blockNumber": "0x2a90536",
          "transactionHash": "0xaec46e0c263e0db7533ca05d2755cda6e9eb05684997d45d882c1761660b28f3",
          "transactionIndex": "0xa",
          "logIndex": "0xd",
          "removed": false
        },
        {
          "address": "0xac166a1b90308ca742db5b388ffcbdc3e17a186c",
          "topics": [
            "0xddf252ad1be2c89b69c2b068fc378daa952ba7f163c4a11628f55a4df523b3ef",
            "0x000000000000000000000000a41cc78c1f302a35184ddbe225d5530376cad254",
            "0x000000000000000000000000eb0225a90ee70a2076a51981c0a9b0b25f2174c7"
          ],
          "data": "0x0000000000000000000000000000000000000000000000000de0b6b3a7640000",
          "blockHash": "0x9ffc0f92589acc015b16896f16b2cd88413fb6e48547ff392c9bae132a50ddde",
          "blockNumber": "0x2a90536",
          "transactionHash": "0xaec46e0c263e0db7533ca05d2755cda6e9eb05684997d45d882c1761660b28f3",
          "transactionIndex": "0xa",
          "logIndex": "0xe",
          "removed": false
        },
        {
          "address": "0xac166a1b90308ca742db5b388ffcbdc3e17a186c",
          "topics": [
            "0x8c5be1e5ebec7d5bd14f71427d1e84f3dd0314c0f7b2291e5b200ac8c7c3b925",
            "0x000000000000000000000000eb0225a90ee70a2076a51981c0a9b0b25f2174c7",
            "0x000000000000000000000000fcc6d9a2477a31b4c8f77549fa455a72b3283e67"
          ],
          "data": "0x0000000000000000000000000000000000000000000000000de0b6b3a7640000",
          "blockHash": "0x9ffc0f92589acc015b16896f16b2cd88413fb6e48547ff392c9bae132a50ddde",
          "blockNumber": "0x2a90536",
          "transactionHash": "0xaec46e0c263e0db7533ca05d2755cda6e9eb05684997d45d882c1761660b28f3",
          "transactionIndex": "0xa",
          "logIndex": "0xf",
          "removed": false
        },
        {
          "address": "0xeb0225a90ee70a2076a51981c0a9b0b25f2174c7",
          "topics": [
            "0x523322d7afb07cee28d04498651096af062004e1f14315eff2e4a60290dfadda",
            "0x000000000000000000000000a41cc78c1f302a35184ddbe225d5530376cad254",
            "0x000000000000000000000000ac166a1b90308ca742db5b388ffcbdc3e17a186c"
          ],
          "data": "0x0000000000000000000000000000000000000000000000000de0b6b3a7640000",
          "blockHash": "0x9ffc0f92589acc015b16896f16b2cd88413fb6e48547ff392c9bae132a50ddde",
          "blockNumber": "0x2a90536",
          "transactionHash": "0xaec46e0c263e0db7533ca05d2755cda6e9eb05684997d45d882c1761660b28f3",
          "transactionIndex": "0xa",
          "logIndex": "0x10",
          "removed": false
        },
        {
          "address": "0x3b346548fbfa74623047b1e199a96576dd156f2e",
          "topics": [
            "0xddf252ad1be2c89b69c2b068fc378daa952ba7f163c4a11628f55a4df523b3ef",
            "0x0000000000000000000000000000000000000000000000000000000000000000",
            "0x000000000000000000000000eb0225a90ee70a2076a51981c0a9b0b25f2174c7"
          ],
          "data": "0x00000000000000000000000000000000000000000000000d8d726b7177a80000",
          "blockHash": "0x9ffc0f92589acc015b16896f16b2cd88413fb6e48547ff392c9bae132a50ddde",
          "blockNumber": "0x2a90536",
          "transactionHash": "0xaec46e0c263e0db7533ca05d2755cda6e9eb05684997d45d882c1761660b28f3",
          "transactionIndex": "0xa",
          "logIndex": "0x11",
          "removed": false
        },
        {
          "address": "0xeb0225a90ee70a2076a51981c0a9b0b25f2174c7",
          "topics": [
            "0xc14e9e6b4d98a542b05a0f6b64acd5f4cbdb914be88432d87486b664e97071a7",
            "0x000000000000000000000000a41cc78c1f302a35184ddbe225d5530376cad254",
            "0x0000000000000000000000003b346548fbfa74623047b1e199a96576dd156f2e"
          ],
          "data": "0x00000000000000000000000000000000000000000000000d8d726b7177a800000000000000000000000000000000000000000000000000000000000000000002",
          "blockHash": "0x9ffc0f92589acc015b16896f16b2cd88413fb6e48547ff392c9bae132a50ddde",
          "blockNumber": "0x2a90536",
          "transactionHash": "0xaec46e0c263e0db7533ca05d2755cda6e9eb05684997d45d882c1761660b28f3",
          "transactionIndex": "0xa",
          "logIndex": "0x12",
          "removed": false
        },
        {
          "address": "0x3b346548fbfa74623047b1e199a96576dd156f2e",
          "topics": [
            "0xddf252ad1be2c89b69c2b068fc378daa952ba7f163c4a11628f55a4df523b3ef",
            "0x000000000000000000000000a41cc78c1f302a35184ddbe225d5530376cad254",
            "0x0000000000000000000000003a4db9e7306af09012ceb0f222d581fd1f0c6d71"
          ],
          "data": "0x00000000000000000000000000000000000000000000000d8d726b7177a80000",
          "blockHash": "0x9ffc0f92589acc015b16896f16b2cd88413fb6e48547ff392c9bae132a50ddde",
          "blockNumber": "0x2a90536",
          "transactionHash": "0xaec46e0c263e0db7533ca05d2755cda6e9eb05684997d45d882c1761660b28f3",
          "transactionIndex": "0xa",
          "logIndex": "0x13",
          "removed": false
        },
        {
          "address": "0xa41cc78c1f302a35184ddbe225d5530376cad254",
          "topics": [
            "0x9f9b498443531d2db9df8a00ec466efc74ba50ec1d82f7badd3424b87930e19a",
            "0x0000000000000000000000000000000000000000000000000000000000000001",
            "0x0000000000000000000000003a4db9e7306af09012ceb0f222d581fd1f0c6d71"
          ],
          "data": "0x000000000000000000000000ac166a1b90308ca742db5b388ffcbdc3e17a186c0000000000000000000000000000000000000000000000000de0b6b3a76400000000000000000000000000003b346548fbfa74623047b1e199a96576dd156f2e00000000000000000000000000000000000000000000000d8d726b7177a800000000000000000000000000000000000000000000000000000000000000000002",
          "blockHash": "0x9ffc0f92589acc015b16896f16b2cd88413fb6e48547ff392c9bae132a50ddde",
          "blockNumber": "0x2a90536",
          "transactionHash": "0xaec46e0c263e0db7533ca05d2755cda6e9eb05684997d45d882c1761660b28f3",
          "transactionIndex": "0xa",
          "logIndex": "0x14",
          "removed": false
        }
      ],
      "logsBloom": "0x0000000000000000000000000000000000000100010000000000014000000100000000000000000000002000000000002008040000000000000000000024200000000002000000000000000800000000400000000004010100000008002000000200000002100000000000000000180000000002000000000000001000000000000000000000000000000000000040002000000000000000000000400000000002000000000000000400000000002000000000000000000000000000000000000004000200008000000000000000c000000000000280001000020000000060000010000000000000002000001000000100000000004000002000000000000001",
      "type": "0x0",
      "transactionHash": "0xaec46e0c263e0db7533ca05d2755cda6e9eb05684997d45d882c1761660b28f3",
      "transactionIndex": "0xa",
      "blockHash": "0x9ffc0f92589acc015b16896f16b2cd88413fb6e48547ff392c9bae132a50ddde",
      "blockNumber": "0x2a90536",
      "gasUsed": "0x8bb57",
      "effectiveGasPrice": "0x5d22cfc40",
      "from": "0x3a4db9e7306af09012ceb0f222d581fd1f0c6d71",
      "to": "0xa41cc78c1f302a35184ddbe225d5530376cad254",
      "contractAddress": null,
      "l1BaseFeeScalar": "0x0",
      "l1BlobBaseFee": "0x1",
      "l1BlobBaseFeeScalar": "0x0",
      "l1Fee": "0x0",
      "l1GasPrice": "0xa",
      "l1GasUsed": "0x7d8"
    },
    {
      "status": "0x1",
      "cumulativeGasUsed": "0x134745",
      "logs": [
        {
          "address": "0x3b346548fbfa74623047b1e199a96576dd156f2e",
          "topics": [
            "0x8c5be1e5ebec7d5bd14f71427d1e84f3dd0314c0f7b2291e5b200ac8c7c3b925",
            "0x0000000000000000000000003a4db9e7306af09012ceb0f222d581fd1f0c6d71",
            "0x000000000000000000000000a41cc78c1f302a35184ddbe225d5530376cad254"
          ],
          "data": "0x000000000000000000000000000000000000000000000003635c9adc5dea0000",
          "blockHash": "0x9ffc0f92589acc015b16896f16b2cd88413fb6e48547ff392c9bae132a50ddde",
          "blockNumber": "0x2a90536",
          "transactionHash": "0x8379279e496dcf72a989c29c2c3812178736561a68830dcd4aaa9900cbc58db2",
          "transactionIndex": "0xb",
          "logIndex": "0x15",
          "removed": false
        }
      ],
      "logsBloom": "0x00000000000000000000000000000000000001000000000000000000000000000000000000000000000000000000000000000000000000000000000000200000000000000000000000000000000000004000000000000000000000000000000000000000001000000000000000000000000000000000000000000000000000000000000000000000000000000000400000000000000000000000004000000000020000000000000000000000000020000000000000000000000000000000000000000000000080000000000000000000000000000000001000000000000000000010000000000000000000000000000000000000000000000000000000000001",
      "type": "0x0",
      "transactionHash": "0x8379279e496dcf72a989c29c2c3812178736561a68830dcd4aaa9900cbc58db2",
      "transactionIndex": "0xb",
      "blockHash": "0x9ffc0f92589acc015b16896f16b2cd88413fb6e48547ff392c9bae132a50ddde",
      "blockNumber": "0x2a90536",
      "gasUsed": "0xb773",
      "effectiveGasPrice": "0x5d22cfc40",
      "from": "0x3a4db9e7306af09012ceb0f222d581fd1f0c6d71",
      "to": "0x3b346548fbfa74623047b1e199a96576dd156f2e",
      "contractAddress": null,
      "l1BaseFeeScalar": "0x0",
      "l1BlobBaseFee": "0x1",
      "l1BlobBaseFeeScalar": "0x0",
      "l1Fee": "0x0",
      "l1GasPrice": "0xa",
      "l1GasUsed": "0x640"
    },
    {
      "status": "0x1",
      "cumulativeGasUsed": "0x166c5e",
      "logs": [
        {
          "address": "0x3b346548fbfa74623047b1e199a96576dd156f2e",
          "topics": [
            "0xddf252ad1be2c89b69c2b068fc378daa952ba7f163c4a11628f55a4df523b3ef",
            "0x0000000000000000000000003a4db9e7306af09012ceb0f222d581fd1f0c6d71",
            "0x000000000000000000000000a41cc78c1f302a35184ddbe225d5530376cad254"
          ],
          "data": "0x000000000000000000000000000000000000000000000003635c9adc5dea0000",
          "blockHash": "0x9ffc0f92589acc015b16896f16b2cd88413fb6e48547ff392c9bae132a50ddde",
          "blockNumber": "0x2a90536",
          "transactionHash": "0x679af4150fe7c62def7f0d10f5ec486662640bec442f0a20fb9a17a48c35fa88",
          "transactionIndex": "0xc",
          "logIndex": "0x16",
          "removed": false
        },
        {
          "address": "0x3b346548fbfa74623047b1e199a96576dd156f2e",
          "topics": [
            "0x8c5be1e5ebec7d5bd14f71427d1e84f3dd0314c0f7b2291e5b200ac8c7c3b925",
            "0x000000000000000000000000a41cc78c1f302a35184ddbe225d5530376cad254",
            "0x000000000000000000000000eb0225a90ee70a2076a51981c0a9b0b25f2174c7"
          ],
          "data": "0x000000000000000000000000000000000000000000000003635c9adc5dea0000",
          "blockHash": "0x9ffc0f92589acc015b16896f16b2cd88413fb6e48547ff392c9bae132a50ddde",
          "blockNumber": "0x2a90536",
          "transactionHash": "0x679af4150fe7c62def7f0d10f5ec486662640bec442f0a20fb9a17a48c35fa88",
          "transactionIndex": "0xc",
          "logIndex": "0x17",
          "removed": false
        },
        {
          "address": "0x3b346548fbfa74623047b1e199a96576dd156f2e",
          "topics": [
            "0xddf252ad1be2c89b69c2b068fc378daa952ba7f163c4a11628f55a4df523b3ef",
            "0x000000000000000000000000a41cc78c1f302a35184ddbe225d5530376cad254",
            "0x000000000000000000000000eb0225a90ee70a2076a51981c0a9b0b25f2174c7"
          ],
          "data": "0x000000000000000000000000000000000000000000000003635c9adc5dea0000",
          "blockHash": "0x9ffc0f92589acc015b16896f16b2cd88413fb6e48547ff392c9bae132a50ddde",
          "blockNumber": "0x2a90536",
          "transactionHash": "0x679af4150fe7c62def7f0d10f5ec486662640bec442f0a20fb9a17a48c35fa88",
          "transactionIndex": "0xc",
          "logIndex": "0x18",
          "removed": false
        },
        {
          "address": "0x3b346548fbfa74623047b1e199a96576dd156f2e",
          "topics": [
            "0x8c5be1e5ebec7d5bd14f71427d1e84f3dd0314c0f7b2291e5b200ac8c7c3b925",
            "0x000000000000000000000000eb0225a90ee70a2076a51981c0a9b0b25f2174c7",
            "0x000000000000000000000000fcc6d9a2477a31b4c8f77549fa455a72b3283e67"
          ],
          "data": "0x000000000000000000000000000000000000000000000003635c9adc5dea0000",
          "blockHash": "0x9ffc0f92589acc015b16896f16b2cd88413fb6e48547ff392c9bae132a50ddde",
          "blockNumber": "0x2a90536",
          "transactionHash": "0x679af4150fe7c62def7f0d10f5ec486662640bec442f0a20fb9a17a48c35fa88",
          "transactionIndex": "0xc",
          "logIndex": "0x19",
          "removed": false
        },
        {
          "address": "0xeb0225a90ee70a2076a51981c0a9b0b25f2174c7",
          "topics": [
            "0x0a3fbbea70e93f2daafa3102f5c9a1b8315e6d7a1e43e4bc020bc1162327470a",
            "0x000000000000000000000000a41cc78c1f302a35184ddbe225d5530376cad254",
            "0x0000000000000000000000003b346548fbfa74623047b1e199a96576dd156f2e"
          ],
          "data": "0x000000000000000000000000000000000000000000000003635c9adc5dea0000",
          "blockHash": "0x9ffc0f92589acc015b16896f16b2cd88413fb6e48547ff392c9bae132a50ddde",
          "blockNumber": "0x2a90536",
          "transactionHash": "0x679af4150fe7c62def7f0d10f5ec486662640bec442f0a20fb9a17a48c35fa88",
          "transactionIndex": "0xc",
          "logIndex": "0x1a",
          "removed": false
        },
        {
          "address": "0xa41cc78c1f302a35184ddbe225d5530376cad254",
          "topics": [
            "0x0d4979b0859a1951f8ed7cbe3b1994e740552588f27ba02ca0f8f1ddcad16e0c",
            "0x0000000000000000000000000000000000000000000000000000000000000001"
          ],
          "data": "0x000000000000000000000000000000000000000000000003635c9adc5dea0000",
          "blockHash": "0x9ffc0f92589acc015b16896f16b2cd88413fb6e48547ff392c9bae132a50ddde",
          "blockNumber": "0x2a90536",
          "transactionHash": "0x679af4150fe7c62def7f0d10f5ec486662640bec442f0a20fb9a17a48c35fa88",
          "transactionIndex": "0xc",
          "logIndex": "0x1b",
          "removed": false
        }
      ],
      "logsBloom": "0x00000000000000000000000010000000000001000100000000000140000001000000000010000000000000000000080020000400000000000000000000242000000000000000000000000008000000004000002000040101000000000000000080000000001000000000000000800000000000000000000000000010000000000000000000000000000000000000400020000000000000000000004000000000020000000000000000000000000020000000000000000000000000000000000000000002000080000000000000000000000000000280001000000000000040000010000000000000002000001000000100000000000000000000000000000001",
      "type": "0x0",
      "transactionHash": "0x679af4150fe7c62def7f0d10f5ec486662640bec442f0a20fb9a17a48c35fa88",
      "transactionIndex": "0xc",
      "blockHash": "0x9ffc0f92589acc015b16896f16b2cd88413fb6e48547ff392c9bae132a50ddde",
      "blockNumber": "0x2a90536",
      "gasUsed": "0x32519",
      "effectiveGasPrice": "0x5d22cfc40",
      "from": "0x3a4db9e7306af09012ceb0f222d581fd1f0c6d71",
      "to": "0xa41cc78c1f302a35184ddbe225d5530376cad254",
      "contractAddress": null,
      "l1BaseFeeScalar": "0x0",
      "l1BlobBaseFee": "0x1",
      "l1BlobBaseFeeScalar": "0x0",
      "l1Fee": "0x0",
      "l1GasPrice": "0xa",
      "l1GasUsed": "0x640"
    },
    {
      "status": "0x1",
      "cumulativeGasUsed": "0x172be0",
      "logs": [
        {
          "address": "0xae84b9e6dba48d14f4ec7741666c976c0556a295",
          "topics": [
            "0x0a3fbbea70e93f2daafa3102f5c9a1b8315e6d7a1e43e4bc020bc1162327470a",
            "0x000000000000000000000000a41cc78c1f302a35184ddbe225d5530376cad254",
            "0x0000000000000000000000003b346548fbfa74623047b1e199a96576dd156f2e"
          ],
          "data": "0x000000000000000000000000000000000000000000000003635c9adc5dea0000",
          "blockHash": "0x9ffc0f92589acc015b16896f16b2cd88413fb6e48547ff392c9bae132a50ddde",
          "blockNumber": "0x2a90536",
          "transactionHash": "0x1bd828db9fbd54eab5d05eda6bb43ac019869bb71737fb086fa30b9984c4ecbe",
          "transactionIndex": "0xd",
          "logIndex": "0x1c",
          "removed": false
        }
      ],
      "logsBloom": "0x00000000000000000000000000000008000000004000000000000000000000000000000010000000000000000000080000000000000000000000000000000000000000000000000000000000000000000000000000000101000000000000000000000000001000000000000000800000000000000000000000000000000000000000000000000000000000000000000000000000000000000000004000000000000000000000000000000000000000000000000000000000000000000010000000000000000000000000000000000000000000000200000000000000000000000000000000000000000000000000000000000000000000000000000000000001",
      "type": "0x0",
      "transactionHash": "0x1bd828db9fbd54eab5d05eda6bb43ac019869bb71737fb086fa30b9984c4ecbe",
      "transactionIndex": "0xd",
      "blockHash": "0x9ffc0f92589acc015b16896f16b2cd88413fb6e48547ff392c9bae132a50ddde",
      "blockNumber": "0x2a90536",
      "gasUsed": "0xbf82",
      "effectiveGasPrice": "0x5d22cfc40",
      "from": "0x3a4db9e7306af09012ceb0f222d581fd1f0c6d71",
      "to": "0xae84b9e6dba48d14f4ec7741666c976c0556a295",
      "contractAddress": null,
      "l1BaseFeeScalar": "0x0",
      "l1BlobBaseFee": "0x1",
      "l1BlobBaseFeeScalar": "0x0",
      "l1Fee": "0x0",
      "l1GasPrice": "0xa",
      "l1GasUsed": "0x90c"
    },
    {
      "status": "0x1",
      "cumulativeGasUsed": "0x17e353",
      "logs": [
        {
          "address": "0x3b346548fbfa74623047b1e199a96576dd156f2e",
          "topics": [
            "0x8c5be1e5ebec7d5bd14f71427d1e84f3dd0314c0f7b2291e5b200ac8c7c3b925",
            "0x0000000000000000000000003a4db9e7306af09012ceb0f222d581fd1f0c6d71",
            "0x000000000000000000000000a41cc78c1f302a35184ddbe225d5530376cad254"
          ],
          "data": "0x00000000000000000000000000000000000000000000000a2a15d09519be0000",
          "blockHash": "0x9ffc0f92589acc015b16896f16b2cd88413fb6e48547ff392c9bae132a50ddde",
          "blockNumber": "0x2a90536",
          "transactionHash": "0x056865650e87d3c2dd810ae5aed3de8f21a93eb3f819ae07d1984abd8834c19a",
          "transactionIndex": "0xe",
          "logIndex": "0x1d",
          "removed": false
        }
      ],
      "logsBloom": "0x00000000000000000000000000000000000001000000000000000000000000000000000000000000000000000000000000000000000000000000000000200000000000000000000000000000000000004000000000000000000000000000000000000000001000000000000000000000000000000000000000000000000000000000000000000000000000000000400000000000000000000000004000000000020000000000000000000000000020000000000000000000000000000000000000000000000080000000000000000000000000000000001000000000000000000010000000000000000000000000000000000000000000000000000000000001",
      "type": "0x0",
      "transactionHash": "0x056865650e87d3c2dd810ae5aed3de8f21a93eb3f819ae07d1984abd8834c19a",
      "transactionIndex": "0xe",
      "blockHash": "0x9ffc0f92589acc015b16896f16b2cd88413fb6e48547ff392c9bae132a50ddde",
      "blockNumber": "0x2a90536",
      "gasUsed": "0xb773",
      "effectiveGasPrice": "0x5d22cfc40",
      "from": "0x3a4db9e7306af09012ceb0f222d581fd1f0c6d71",
      "to": "0x3b346548fbfa74623047b1e199a96576dd156f2e",
      "contractAddress": null,
      "l1BaseFeeScalar": "0x0",
      "l1BlobBaseFee": "0x1",
      "l1BlobBaseFeeScalar": "0x0",
      "l1Fee": "0x0",
      "l1GasPrice": "0xa",
      "l1GasUsed": "0x640"
    },
    {
      "status": "0x1",
      "cumulativeGasUsed": "0x1b19c5",
      "logs": [
        {
          "address": "0x3b346548fbfa74623047b1e199a96576dd156f2e",
          "topics": [
            "0xddf252ad1be2c89b69c2b068fc378daa952ba7f163c4a11628f55a4df523b3ef",
            "0x0000000000000000000000003a4db9e7306af09012ceb0f222d581fd1f0c6d71",
            "0x000000000000000000000000a41cc78c1f302a35184ddbe225d5530376cad254"
          ],
          "data": "0x00000000000000000000000000000000000000000000000a2a15d09519be0000",
          "blockHash": "0x9ffc0f92589acc015b16896f16b2cd88413fb6e48547ff392c9bae132a50ddde",
          "blockNumber": "0x2a90536",
          "transactionHash": "0x4c4f1007f1efa966a32166daaae23c34cd1caec1bce7cace1b2558d1ecf2275f",
          "transactionIndex": "0xf",
          "logIndex": "0x1e",
          "removed": false
        },
        {
          "address": "0x3b346548fbfa74623047b1e199a96576dd156f2e",
          "topics": [
            "0x8c5be1e5ebec7d5bd14f71427d1e84f3dd0314c0f7b2291e5b200ac8c7c3b925",
            "0x000000000000000000000000a41cc78c1f302a35184ddbe225d5530376cad254",
            "0x000000000000000000000000eb0225a90ee70a2076a51981c0a9b0b25f2174c7"
          ],
          "data": "0x00000000000000000000000000000000000000000000000a2a15d09519be0000",
          "blockHash": "0x9ffc0f92589acc015b16896f16b2cd88413fb6e48547ff392c9bae132a50ddde",
          "blockNumber": "0x2a90536",
          "transactionHash": "0x4c4f1007f1efa966a32166daaae23c34cd1caec1bce7cace1b2558d1ecf2275f",
          "transactionIndex": "0xf",
          "logIndex": "0x1f",
          "removed": false
        },
        {
          "address": "0x3b346548fbfa74623047b1e199a96576dd156f2e",
          "topics": [
            "0xddf252ad1be2c89b69c2b068fc378daa952ba7f163c4a11628f55a4df523b3ef",
            "0x000000000000000000000000a41cc78c1f302a35184ddbe225d5530376cad254",
            "0x000000000000000000000000eb0225a90ee70a2076a51981c0a9b0b25f2174c7"
          ],
          "data": "0x00000000000000000000000000000000000000000000000a2a15d09519be0000",
          "blockHash": "0x9ffc0f92589acc015b16896f16b2cd88413fb6e48547ff392c9bae132a50ddde",
          "blockNumber": "0x2a90536",
          "transactionHash": "0x4c4f1007f1efa966a32166daaae23c34cd1caec1bce7cace1b2558d1ecf2275f",
          "transactionIndex": "0xf",
          "logIndex": "0x20",
          "removed": false
        },
        {
          "address": "0x3b346548fbfa74623047b1e199a96576dd156f2e",
          "topics": [
            "0x8c5be1e5ebec7d5bd14f71427d1e84f3dd0314c0f7b2291e5b200ac8c7c3b925",
            "0x000000000000000000000000eb0225a90ee70a2076a51981c0a9b0b25f2174c7",
            "0x000000000000000000000000fcc6d9a2477a31b4c8f77549fa455a72b3283e67"
          ],
          "data": "0x00000000000000000000000000000000000000000000000a2a15d09519be0000",
          "blockHash": "0x9ffc0f92589acc015b16896f16b2cd88413fb6e48547ff392c9bae132a50ddde",
          "blockNumber": "0x2a90536",
          "transactionHash": "0x4c4f1007f1efa966a32166daaae23c34cd1caec1bce7cace1b2558d1ecf2275f",
          "transactionIndex": "0xf",
          "logIndex": "0x21",
          "removed": false
        },
        {
          "address": "0xeb0225a90ee70a2076a51981c0a9b0b25f2174c7",
          "topics": [
            "0x0a3fbbea70e93f2daafa3102f5c9a1b8315e6d7a1e43e4bc020bc1162327470a",
            "0x000000000000000000000000a41cc78c1f302a35184ddbe225d5530376cad254",
            "0x0000000000000000000000003b346548fbfa74623047b1e199a96576dd156f2e"
          ],
          "data": "0x00000000000000000000000000000000000000000000000a2a15d09519be0000",
          "blockHash": "0x9ffc0f92589acc015b16896f16b2cd88413fb6e48547ff392c9bae132a50ddde",
          "blockNumber": "0x2a90536",
          "transactionHash": "0x4c4f1007f1efa966a32166daaae23c34cd1caec1bce7cace1b2558d1ecf2275f",
          "transactionIndex": "0xf",
          "logIndex": "0x22",
          "removed": false
        },
        {
          "address": "0xac166a1b90308ca742db5b388ffcbdc3e17a186c",
          "topics": [
            "0xddf252ad1be2c89b69c2b068fc378daa952ba7f163c4a11628f55a4df523b3ef",
            "0x0000000000000000000000000000000000000000000000000000000000000000",
            "0x0000000000000000000000003a4db9e7306af09012ceb0f222d581fd1f0c6d71"
          ],
          "data": "0x00000000000000000000000000000000000000000000003635c9adc5dea00000",
          "blockHash": "0x9ffc0f92589acc015b16896f16b2cd88413fb6e48547ff392c9bae132a50ddde",
          "blockNumber": "0x2a90536",
          "transactionHash": "0x4c4f1007f1efa966a32166daaae23c34cd1caec1bce7cace1b2558d1ecf2275f",
          "transactionIndex": "0xf",
          "logIndex": "0x23",
          "removed": false
        },
        {
          "address": "0xeb0225a90ee70a2076a51981c0a9b0b25f2174c7",
          "topics": [
            "0xd1c19fbcd4551a5edfb66d43d2e337c04837afda3482b42bdf569a8fccdae5fb",
            "0x000000000000000000000000a41cc78c1f302a35184ddbe225d5530376cad254",
            "0x000000000000000000000000ac166a1b90308ca742db5b388ffcbdc3e17a186c"
          ],
          "data": "0xffffffffffffffffffffffffffffffffffffffffffffffffffffffffffffffff",
          "blockHash": "0x9ffc0f92589acc015b16896f16b2cd88413fb6e48547ff392c9bae132a50ddde",
          "blockNumber": "0x2a90536",
          "transactionHash": "0x4c4f1007f1efa966a32166daaae23c34cd1caec1bce7cace1b2558d1ecf2275f",
          "transactionIndex": "0xf",
          "logIndex": "0x24",
          "removed": false
        },
        {
          "address": "0xa41cc78c1f302a35184ddbe225d5530376cad254",
          "topics": [
            "0xcefaf961c5013063cf501ffd9f9382e9b9c4b15741ad032fe93d7e9c7c733b22",
            "0x0000000000000000000000000000000000000000000000000000000000000001",
            "0x0000000000000000000000003a4db9e7306af09012ceb0f222d581fd1f0c6d71"
          ],
          "data": "0x",
          "blockHash": "0x9ffc0f92589acc015b16896f16b2cd88413fb6e48547ff392c9bae132a50ddde",
          "blockNumber": "0x2a90536",
          "transactionHash": "0x4c4f1007f1efa966a32166daaae23c34cd1caec1bce7cace1b2558d1ecf2275f",
          "transactionIndex": "0xf",
          "logIndex": "0x25",
          "removed": false
        }
      ],
      "logsBloom": "0x00000000000000000000000000000000000021000100000000000140000001000000000010000000000000000000080020000400000000000000000000242000000000000000000000000008000200004000000000040101000000081000000002000000021000000000000000841800000000000000000000000010000000000000000000000000000000000000400020000000000000000000004000000000020000000000000006000000000020000000000000000000000000000000000000000002000080000000000000004000000000000280001000000000000060000010000000000000002000081000000100000000000000002000000000000001",
      "type": "0x0",
      "transactionHash": "0x4c4f1007f1efa966a32166daaae23c34cd1caec1bce7cace1b2558d1ecf2275f",
      "transactionIndex": "0xf",
      "blockHash": "0x9ffc0f92589acc015b16896f16b2cd88413fb6e48547ff392c9bae132a50ddde",
      "blockNumber": "0x2a90536",
      "gasUsed": "0x33672",
      "effectiveGasPrice": "0x5d22cfc40",
      "from": "0x3a4db9e7306af09012ceb0f222d581fd1f0c6d71",
      "to": "0xa41cc78c1f302a35184ddbe225d5530376cad254",
      "contractAddress": null,
      "l1BaseFeeScalar": "0x0",
      "l1BlobBaseFee": "0x1",
      "l1BlobBaseFeeScalar": "0x0",
      "l1Fee": "0x0",
      "l1GasPrice": "0xa",
      "l1GasUsed": "0x640"
    },
    {
      "status": "0x1",
      "cumulativeGasUsed": "0x218c13",
      "logs": [
        {
          "address": "0xac166a1b90308ca742db5b388ffcbdc3e17a186c",
          "topics": [
            "0x8c5be1e5ebec7d5bd14f71427d1e84f3dd0314c0f7b2291e5b200ac8c7c3b925",
            "0x0000000000000000000000003a4db9e7306af09012ceb0f222d581fd1f0c6d71",
            "0x000000000000000000000000a41cc78c1f302a35184ddbe225d5530376cad254"
          ],
          "data": "0x0000000000000000000000000000000000000000000000000de0b6b3a7640000",
          "blockHash": "0x9ffc0f92589acc015b16896f16b2cd88413fb6e48547ff392c9bae132a50ddde",
          "blockNumber": "0x2a90536",
          "transactionHash": "0xac09cfb9a9e41a698a67a515c0cc046bcad0824310078e51b486175c9bc75c14",
          "transactionIndex": "0x12",
          "logIndex": "0x28",
          "removed": false
        }
      ],
      "logsBloom": "0x00000000000000000000000000000000000000000000000000000000000000000000000000000000000000000000000000000000000000000000000000200000000000000000000000000000000000000000000000000000000000080000000002000000001000000000000000000000000000000000000000000000000000000000000000000000000000000000400000000000000000000000004000000000020000000000000000000000000000000000000000000000000000000000000000000000000080000000000000004000000000000000001000000000000000000010000000000000000000000000000000000000000000000000000000000001",
      "type": "0x0",
      "transactionHash": "0xac09cfb9a9e41a698a67a515c0cc046bcad0824310078e51b486175c9bc75c14",
      "transactionIndex": "0x12",
      "blockHash": "0x9ffc0f92589acc015b16896f16b2cd88413fb6e48547ff392c9bae132a50ddde",
      "blockNumber": "0x2a90536",
      "gasUsed": "0xb750",
      "effectiveGasPrice": "0x5d22cfc40",
      "from": "0x3a4db9e7306af09012ceb0f222d581fd1f0c6d71",
      "to": "0xac166a1b90308ca742db5b388ffcbdc3e17a186c",
      "contractAddress": null,
      "l1BaseFeeScalar": "0x0",
      "l1BlobBaseFee": "0x1",
      "l1BlobBaseFeeScalar": "0x0",
      "l1Fee": "0x0",
      "l1GasPrice": "0xa",
      "l1GasUsed": "0x640"
    },
    {
      "status": "0x1",
      "cumulativeGasUsed": "0x26c36a",
      "logs": [
        {
          "address": "0xac166a1b90308ca742db5b388ffcbdc3e17a186c",
          "topics": [
            "0xddf252ad1be2c89b69c2b068fc378daa952ba7f163c4a11628f55a4df523b3ef",
            "0x0000000000000000000000003a4db9e7306af09012ceb0f222d581fd1f0c6d71",
            "0x000000000000000000000000a41cc78c1f302a35184ddbe225d5530376cad254"
          ],
          "data": "0x0000000000000000000000000000000000000000000000000de0b6b3a7640000",
          "blockHash": "0x9ffc0f92589acc015b16896f16b2cd88413fb6e48547ff392c9bae132a50ddde",
          "blockNumber": "0x2a90536",
          "transactionHash": "0x41b2b807688f3a8eb9253d1c2e7c5007e05397df47576e1e3cfc60a698319b59",
          "transactionIndex": "0x13",
          "logIndex": "0x29",
          "removed": false
        },
        {
          "address": "0xac166a1b90308ca742db5b388ffcbdc3e17a186c",
          "topics": [
            "0x8c5be1e5ebec7d5bd14f71427d1e84f3dd0314c0f7b2291e5b200ac8c7c3b925",
            "0x000000000000000000000000a41cc78c1f302a35184ddbe225d5530376cad254",
            "0x000000000000000000000000eb0225a90ee70a2076a51981c0a9b0b25f2174c7"
          ],
          "data": "0x0000000000000000000000000000000000000000000000000de0b6b3a7640000",
          "blockHash": "0x9ffc0f92589acc015b16896f16b2cd88413fb6e48547ff392c9bae132a50ddde",
          "blockNumber": "0x2a90536",
          "transactionHash": "0x41b2b807688f3a8eb9253d1c2e7c5007e05397df47576e1e3cfc60a698319b59",
          "transactionIndex": "0x13",
          "logIndex": "0x2a",
          "removed": false
        },
        {
          "address": "0xac166a1b90308ca742db5b388ffcbdc3e17a186c",
          "topics": [
            "0xddf252ad1be2c89b69c2b068fc378daa952ba7f163c4a11628f55a4df523b3ef",
            "0x000000000000000000000000a41cc78c1f302a35184ddbe225d5530376cad254",
            "0x000000000000000000000000eb0225a90ee70a2076a51981c0a9b0b25f2174c7"
          ],
          "data": "0x0000000000000000000000000000000000000000000000000de0b6b3a7640000",
          "blockHash": "0x9ffc0f92589acc015b16896f16b2cd88413fb6e48547ff392c9bae132a50ddde",
          "blockNumber": "0x2a90536",
          "transactionHash": "0x41b2b807688f3a8eb9253d1c2e7c5007e05397df47576e1e3cfc60a698319b59",
          "transactionIndex": "0x13",
          "logIndex": "0x2b",
          "removed": false
        },
        {
          "address": "0xac166a1b90308ca742db5b388ffcbdc3e17a186c",
          "topics": [
            "0x8c5be1e5ebec7d5bd14f71427d1e84f3dd0314c0f7b2291e5b200ac8c7c3b925",
            "0x000000000000000000000000eb0225a90ee70a2076a51981c0a9b0b25f2174c7",
            "0x000000000000000000000000fcc6d9a2477a31b4c8f77549fa455a72b3283e67"
          ],
          "data": "0x0000000000000000000000000000000000000000000000000de0b6b3a7640000",
          "blockHash": "0x9ffc0f92589acc015b16896f16b2cd88413fb6e48547ff392c9bae132a50ddde",
          "blockNumber": "0x2a90536",
          "transactionHash": "0x41b2b807688f3a8eb9253d1c2e7c5007e05397df47576e1e3cfc60a698319b59",
          "transactionIndex": "0x13",
          "logIndex": "0x2c",
          "removed": false
        },
        {
          "address": "0xeb0225a90ee70a2076a51981c0a9b0b25f2174c7",
          "topics": [
            "0x523322d7afb07cee28d04498651096af062004e1f14315eff2e4a60290dfadda",
            "0x000000000000000000000000a41cc78c1f302a35184ddbe225d5530376cad254",
            "0x000000000000000000000000ac166a1b90308ca742db5b388ffcbdc3e17a186c"
          ],
          "data": "0x0000000000000000000000000000000000000000000000000de0b6b3a7640000",
          "blockHash": "0x9ffc0f92589acc015b16896f16b2cd88413fb6e48547ff392c9bae132a50ddde",
          "blockNumber": "0x2a90536",
          "transactionHash": "0x41b2b807688f3a8eb9253d1c2e7c5007e05397df47576e1e3cfc60a698319b59",
          "transactionIndex": "0x13",
          "logIndex": "0x2d",
          "removed": false
        },
        {
          "address": "0x3b346548fbfa74623047b1e199a96576dd156f2e",
          "topics": [
            "0xddf252ad1be2c89b69c2b068fc378daa952ba7f163c4a11628f55a4df523b3ef",
            "0x0000000000000000000000000000000000000000000000000000000000000000",
            "0x000000000000000000000000eb0225a90ee70a2076a51981c0a9b0b25f2174c7"
          ],
          "data": "0x00000000000000000000000000000000000000000000000d8d726b7177a80000",
          "blockHash": "0x9ffc0f92589acc015b16896f16b2cd88413fb6e48547ff392c9bae132a50ddde",
          "blockNumber": "0x2a90536",
          "transactionHash": "0x41b2b807688f3a8eb9253d1c2e7c5007e05397df47576e1e3cfc60a698319b59",
          "transactionIndex": "0x13",
          "logIndex": "0x2e",
          "removed": false
        },
        {
          "address": "0xeb0225a90ee70a2076a51981c0a9b0b25f2174c7",
          "topics": [
            "0xc14e9e6b4d98a542b05a0f6b64acd5f4cbdb914be88432d87486b664e97071a7",
            "0x000000000000000000000000a41cc78c1f302a35184ddbe225d5530376cad254",
            "0x0000000000000000000000003b346548fbfa74623047b1e199a96576dd156f2e"
          ],
          "data": "0x00000000000000000000000000000000000000000000000d8d726b7177a800000000000000000000000000000000000000000000000000000000000000000002",
          "blockHash": "0x9ffc0f92589acc015b16896f16b2cd88413fb6e48547ff392c9bae132a50ddde",
          "blockNumber": "0x2a90536",
          "transactionHash": "0x41b2b807688f3a8eb9253d1c2e7c5007e05397df47576e1e3cfc60a698319b59",
          "transactionIndex": "0x13",
          "logIndex": "0x2f",
          "removed": false
        },
        {
          "address": "0x3b346548fbfa74623047b1e199a96576dd156f2e",
          "topics": [
            "0xddf252ad1be2c89b69c2b068fc378daa952ba7f163c4a11628f55a4df523b3ef",
            "0x000000000000000000000000a41cc78c1f302a35184ddbe225d5530376cad254",
            "0x0000000000000000000000003a4db9e7306af09012ceb0f222d581fd1f0c6d71"
          ],
          "data": "0x00000000000000000000000000000000000000000000000d8d726b7177a80000",
          "blockHash": "0x9ffc0f92589acc015b16896f16b2cd88413fb6e48547ff392c9bae132a50ddde",
          "blockNumber": "0x2a90536",
          "transactionHash": "0x41b2b807688f3a8eb9253d1c2e7c5007e05397df47576e1e3cfc60a698319b59",
          "transactionIndex": "0x13",
          "logIndex": "0x30",
          "removed": false
        },
        {
          "address": "0xa41cc78c1f302a35184ddbe225d5530376cad254",
          "topics": [
            "0x9f9b498443531d2db9df8a00ec466efc74ba50ec1d82f7badd3424b87930e19a",
            "0x0000000000000000000000000000000000000000000000000000000000000002",
            "0x0000000000000000000000003a4db9e7306af09012ceb0f222d581fd1f0c6d71"
          ],
          "data": "0x000000000000000000000000ac166a1b90308ca742db5b388ffcbdc3e17a186c0000000000000000000000000000000000000000000000000de0b6b3a76400000000000000000000000000003b346548fbfa74623047b1e199a96576dd156f2e00000000000000000000000000000000000000000000000d8d726b7177a800000000000000000000000000000000000000000000000000000000000000000002",
          "blockHash": "0x9ffc0f92589acc015b16896f16b2cd88413fb6e48547ff392c9bae132a50ddde",
          "blockNumber": "0x2a90536",
          "transactionHash": "0x41b2b807688f3a8eb9253d1c2e7c5007e05397df47576e1e3cfc60a698319b59",
          "transactionIndex": "0x13",
          "logIndex": "0x31",
          "removed": false
        }
      ],
      "logsBloom": "0x0400000000000000000000000000000000000100010000000000014000000100000000000000000000002000000000002008040000000000000000000020200000000002000000000000000800000000400000000000010100000008002000000200000002100000000000000000180000000002000000000000001000000000000000000000000000000000000040002000000000000000000000400000000002000000000000000400010000002000000000000000000000000000000000000004000200008000000000000000c00000000000028000100002000000002000001000000000000000200000100000010000000000c000002000000000000001",
      "type": "0x0",
      "transactionHash": "0x41b2b807688f3a8eb9253d1c2e7c5007e05397df47576e1e3cfc60a698319b59",
      "transactionIndex": "0x13",
      "blockHash": "0x9ffc0f92589acc015b16896f16b2cd88413fb6e48547ff392c9bae132a50ddde",
      "blockNumber": "0x2a90536",
      "gasUsed": "0x53757",
      "effectiveGasPrice": "0x5d22cfc40",
      "from": "0x3a4db9e7306af09012ceb0f222d581fd1f0c6d71",
      "to": "0xa41cc78c1f302a35184ddbe225d5530376cad254",
      "contractAddress": null,
      "l1BaseFeeScalar": "0x0",
      "l1BlobBaseFee": "0x1",
      "l1BlobBaseFeeScalar": "0x0",
      "l1Fee": "0x0",
      "l1GasPrice": "0xa",
      "l1GasUsed": "0x7d8"
    },
    {
      "status": "0x1",
      "cumulativeGasUsed": "0x27c06e",
      "logs": [
        {
          "address": "0xeb0225a90ee70a2076a51981c0a9b0b25f2174c7",
          "topics": [
            "0x523322d7afb07cee28d04498651096af062004e1f14315eff2e4a60290dfadda",
            "0x000000000000000000000000a41cc78c1f302a35184ddbe225d5530376cad254",
            "0x000000000000000000000000ac166a1b90308ca742db5b388ffcbdc3e17a186c"
          ],
          "data": "0x00000000000000000000000000000000000000000000000006f05b59d3b20000",
          "blockHash": "0x9ffc0f92589acc015b16896f16b2cd88413fb6e48547ff392c9bae132a50ddde",
          "blockNumber": "0x2a90536",
          "transactionHash": "0x5f14e2e3e7b4e74a288725d5d900d8782f6a8611a8b396fc0814e587409ede13",
          "transactionIndex": "0x14",
          "logIndex": "0x32",
          "removed": false
        },
        {
          "address": "0xa41cc78c1f302a35184ddbe225d5530376cad254",
          "topics": [
            "0x244160b15e69cc411f041d94ae7fab6f6bba85dade8403216c05ff4b920d5449",
            "0x0000000000000000000000000000000000000000000000000000000000000002"
          ],
          "data": "0x00000000000000000000000000000000000000000000000006f05b59d3b20000",
          "blockHash": "0x9ffc0f92589acc015b16896f16b2cd88413fb6e48547ff392c9bae132a50ddde",
          "blockNumber": "0x2a90536",
          "transactionHash": "0x5f14e2e3e7b4e74a288725d5d900d8782f6a8611a8b396fc0814e587409ede13",
          "transactionIndex": "0x14",
          "logIndex": "0x33",
          "removed": false
        }
      ],
      "logsBloom": "0x04000000000000000000000000000000000000000000000000000140000000000000000000000000000000000000000000080400000200000000000000000000000000020000000000000000000000000000000000000000000000000000000000000000001000000000000000001000000000000000000000000000000000000000000000000000000000000000000000000000000000000000004000000000000000000000000004000100000000000000000000000000000000000000000000040000000000000000000000000010000000000080000000000000000000000000000000000080002000001000000000000000008000002000000000000001",
      "type": "0x0",
      "transactionHash": "0x5f14e2e3e7b4e74a288725d5d900d8782f6a8611a8b396fc0814e587409ede13",
      "transactionIndex": "0x14",
      "blockHash": "0x9ffc0f92589acc015b16896f16b2cd88413fb6e48547ff392c9bae132a50ddde",
      "blockNumber": "0x2a90536",
      "gasUsed": "0xfd04",
      "effectiveGasPrice": "0x5d22cfc40",
      "from": "0x3a4db9e7306af09012ceb0f222d581fd1f0c6d71",
      "to": "0xa41cc78c1f302a35184ddbe225d5530376cad254",
      "contractAddress": null,
      "l1BaseFeeScalar": "0x0",
      "l1BlobBaseFee": "0x1",
      "l1BlobBaseFeeScalar": "0x0",
      "l1Fee": "0x0",
      "l1GasPrice": "0xa",
      "l1GasUsed": "0x640"
    },
    {
      "status": "0x1",
      "cumulativeGasUsed": "0x28d4fa",
      "logs": [
        {
          "address": "0xeb0225a90ee70a2076a51981c0a9b0b25f2174c7",
          "topics": [
            "0x0a3fbbea70e93f2daafa3102f5c9a1b8315e6d7a1e43e4bc020bc1162327470a",
            "0x000000000000000000000000a41cc78c1f302a35184ddbe225d5530376cad254",
            "0x0000000000000000000000003b346548fbfa74623047b1e199a96576dd156f2e"
          ],
          "data": "0x0000000000000000000000000000000000000000000000056bc75e2d63100000",
          "blockHash": "0x9ffc0f92589acc015b16896f16b2cd88413fb6e48547ff392c9bae132a50ddde",
          "blockNumber": "0x2a90536",
          "transactionHash": "0xb202cd3b1b594eb408a7205db854a9b47016dd6882594bb19b7f2f8e2cb42616",
          "transactionIndex": "0x15",
          "logIndex": "0x34",
          "removed": false
        },
        {
          "address": "0xa41cc78c1f302a35184ddbe225d5530376cad254",
          "topics": [
            "0x0d4979b0859a1951f8ed7cbe3b1994e740552588f27ba02ca0f8f1ddcad16e0c",
            "0x0000000000000000000000000000000000000000000000000000000000000002"
          ],
          "data": "0x0000000000000000000000000000000000000000000000056bc75e2d63100000",
          "blockHash": "0x9ffc0f92589acc015b16896f16b2cd88413fb6e48547ff392c9bae132a50ddde",
          "blockNumber": "0x2a90536",
          "transactionHash": "0xb202cd3b1b594eb408a7205db854a9b47016dd6882594bb19b7f2f8e2cb42616",
          "transactionIndex": "0x15",
          "logIndex": "0x35",
          "removed": false
        }
      ],
      "logsBloom": "0x04000000000000000000000010000000000000000000000000000140000000000000000010000000000000000000080000000400000000000000000000000000000000000000000000000000000000000000002000000101000000000000000080000000001000000000000000800000000000000000000000000000000000000000000000000000000000000000000000000000000000000000004000000000000000000000000000000100000000000000000000000000000000000000000000000000000000000000000000000000000000000280000000000000000000000000000000000000002000001000000000000000008000000000000000000001",
      "type": "0x0",
      "transactionHash": "0xb202cd3b1b594eb408a7205db854a9b47016dd6882594bb19b7f2f8e2cb42616",
      "transactionIndex": "0x15",
      "blockHash": "0x9ffc0f92589acc015b16896f16b2cd88413fb6e48547ff392c9bae132a50ddde",
      "blockNumber": "0x2a90536",
      "gasUsed": "0x1148c",
      "effectiveGasPrice": "0x5d22cfc40",
      "from": "0x3a4db9e7306af09012ceb0f222d581fd1f0c6d71",
      "to": "0xa41cc78c1f302a35184ddbe225d5530376cad254",
      "contractAddress": null,
      "l1BaseFeeScalar": "0x0",
      "l1BlobBaseFee": "0x1",
      "l1BlobBaseFeeScalar": "0x0",
      "l1Fee": "0x0",
      "l1GasPrice": "0xa",
      "l1GasUsed": "0x640"
    },
    {
      "status": "0x1",
      "cumulativeGasUsed": "0x298c4a",
      "logs": [
        {
          "address": "0xac166a1b90308ca742db5b388ffcbdc3e17a186c",
          "topics": [
            "0x8c5be1e5ebec7d5bd14f71427d1e84f3dd0314c0f7b2291e5b200ac8c7c3b925",
            "0x0000000000000000000000003a4db9e7306af09012ceb0f222d581fd1f0c6d71",
            "0x000000000000000000000000a41cc78c1f302a35184ddbe225d5530376cad254"
          ],
          "data": "0x0000000000000000000000000000000000000000000000000de0b6b3a7640000",
          "blockHash": "0x9ffc0f92589acc015b16896f16b2cd88413fb6e48547ff392c9bae132a50ddde",
          "blockNumber": "0x2a90536",
          "transactionHash": "0xdab3e2ac622bd279b4efb3216c25c60b80be5518183a711106f9c538a6fdfcb5",
          "transactionIndex": "0x16",
          "logIndex": "0x36",
          "removed": false
        }
      ],
      "logsBloom": "0x00000000000000000000000000000000000000000000000000000000000000000000000000000000000000000000000000000000000000000000000000200000000000000000000000000000000000000000000000000000000000080000000002000000001000000000000000000000000000000000000000000000000000000000000000000000000000000000400000000000000000000000004000000000020000000000000000000000000000000000000000000000000000000000000000000000000080000000000000004000000000000000001000000000000000000010000000000000000000000000000000000000000000000000000000000001",
      "type": "0x0",
      "transactionHash": "0xdab3e2ac622bd279b4efb3216c25c60b80be5518183a711106f9c538a6fdfcb5",
      "transactionIndex": "0x16",
      "blockHash": "0x9ffc0f92589acc015b16896f16b2cd88413fb6e48547ff392c9bae132a50ddde",
      "blockNumber": "0x2a90536",
      "gasUsed": "0xb750",
      "effectiveGasPrice": "0x5d22cfc40",
      "from": "0x3a4db9e7306af09012ceb0f222d581fd1f0c6d71",
      "to": "0xac166a1b90308ca742db5b388ffcbdc3e17a186c",
      "contractAddress": null,
      "l1BaseFeeScalar": "0x0",
      "l1BlobBaseFee": "0x1",
      "l1BlobBaseFeeScalar": "0x0",
      "l1Fee": "0x0",
      "l1GasPrice": "0xa",
      "l1GasUsed": "0x640"
    },
    {
      "status": "0x1",
      "cumulativeGasUsed": "0x2ed981",
      "logs": [
        {
          "address": "0xac166a1b90308ca742db5b388ffcbdc3e17a186c",
          "topics": [
            "0xddf252ad1be2c89b69c2b068fc378daa952ba7f163c4a11628f55a4df523b3ef",
            "0x0000000000000000000000003a4db9e7306af09012ceb0f222d581fd1f0c6d71",
            "0x000000000000000000000000a41cc78c1f302a35184ddbe225d5530376cad254"
          ],
          "data": "0x0000000000000000000000000000000000000000000000000de0b6b3a7640000",
          "blockHash": "0x9ffc0f92589acc015b16896f16b2cd88413fb6e48547ff392c9bae132a50ddde",
          "blockNumber": "0x2a90536",
          "transactionHash": "0x79d768177d0633692c6bf5bb53405ddeb051f0f2a341d825e75f4b197b9cb10d",
          "transactionIndex": "0x17",
          "logIndex": "0x37",
          "removed": false
        },
        {
          "address": "0xac166a1b90308ca742db5b388ffcbdc3e17a186c",
          "topics": [
            "0x8c5be1e5ebec7d5bd14f71427d1e84f3dd0314c0f7b2291e5b200ac8c7c3b925",
            "0x000000000000000000000000a41cc78c1f302a35184ddbe225d5530376cad254",
            "0x000000000000000000000000eb0225a90ee70a2076a51981c0a9b0b25f2174c7"
          ],
          "data": "0x0000000000000000000000000000000000000000000000000de0b6b3a7640000",
          "blockHash": "0x9ffc0f92589acc015b16896f16b2cd88413fb6e48547ff392c9bae132a50ddde",
          "blockNumber": "0x2a90536",
          "transactionHash": "0x79d768177d0633692c6bf5bb53405ddeb051f0f2a341d825e75f4b197b9cb10d",
          "transactionIndex": "0x17",
          "logIndex": "0x38",
          "removed": false
        },
        {
          "address": "0xac166a1b90308ca742db5b388ffcbdc3e17a186c",
          "topics": [
            "0xddf252ad1be2c89b69c2b068fc378daa952ba7f163c4a11628f55a4df523b3ef",
            "0x000000000000000000000000a41cc78c1f302a35184ddbe225d5530376cad254",
            "0x000000000000000000000000eb0225a90ee70a2076a51981c0a9b0b25f2174c7"
          ],
          "data": "0x0000000000000000000000000000000000000000000000000de0b6b3a7640000",
          "blockHash": "0x9ffc0f92589acc015b16896f16b2cd88413fb6e48547ff392c9bae132a50ddde",
          "blockNumber": "0x2a90536",
          "transactionHash": "0x79d768177d0633692c6bf5bb53405ddeb051f0f2a341d825e75f4b197b9cb10d",
          "transactionIndex": "0x17",
          "logIndex": "0x39",
          "removed": false
        },
        {
          "address": "0xac166a1b90308ca742db5b388ffcbdc3e17a186c",
          "topics": [
            "0x8c5be1e5ebec7d5bd14f71427d1e84f3dd0314c0f7b2291e5b200ac8c7c3b925",
            "0x000000000000000000000000eb0225a90ee70a2076a51981c0a9b0b25f2174c7",
            "0x000000000000000000000000fcc6d9a2477a31b4c8f77549fa455a72b3283e67"
          ],
          "data": "0x0000000000000000000000000000000000000000000000000de0b6b3a7640000",
          "blockHash": "0x9ffc0f92589acc015b16896f16b2cd88413fb6e48547ff392c9bae132a50ddde",
          "blockNumber": "0x2a90536",
          "transactionHash": "0x79d768177d0633692c6bf5bb53405ddeb051f0f2a341d825e75f4b197b9cb10d",
          "transactionIndex": "0x17",
          "logIndex": "0x3a",
          "removed": false
        },
        {
          "address": "0xeb0225a90ee70a2076a51981c0a9b0b25f2174c7",
          "topics": [
            "0x523322d7afb07cee28d04498651096af062004e1f14315eff2e4a60290dfadda",
            "0x000000000000000000000000a41cc78c1f302a35184ddbe225d5530376cad254",
            "0x000000000000000000000000ac166a1b90308ca742db5b388ffcbdc3e17a186c"
          ],
          "data": "0x0000000000000000000000000000000000000000000000000de0b6b3a7640000",
          "blockHash": "0x9ffc0f92589acc015b16896f16b2cd88413fb6e48547ff392c9bae132a50ddde",
          "blockNumber": "0x2a90536",
          "transactionHash": "0x79d768177d0633692c6bf5bb53405ddeb051f0f2a341d825e75f4b197b9cb10d",
          "transactionIndex": "0x17",
          "logIndex": "0x3b",
          "removed": false
        },
        {
          "address": "0x3b346548fbfa74623047b1e199a96576dd156f2e",
          "topics": [
            "0xddf252ad1be2c89b69c2b068fc378daa952ba7f163c4a11628f55a4df523b3ef",
            "0x0000000000000000000000000000000000000000000000000000000000000000",
            "0x000000000000000000000000eb0225a90ee70a2076a51981c0a9b0b25f2174c7"
          ],
          "data": "0x000000000000000000000000000000000000000000000006c6b935b8bbd40000",
          "blockHash": "0x9ffc0f92589acc015b16896f16b2cd88413fb6e48547ff392c9bae132a50ddde",
          "blockNumber": "0x2a90536",
          "transactionHash": "0x79d768177d0633692c6bf5bb53405ddeb051f0f2a341d825e75f4b197b9cb10d",
          "transactionIndex": "0x17",
          "logIndex": "0x3c",
          "removed": false
        },
        {
          "address": "0xeb0225a90ee70a2076a51981c0a9b0b25f2174c7",
          "topics": [
            "0xc14e9e6b4d98a542b05a0f6b64acd5f4cbdb914be88432d87486b664e97071a7",
            "0x000000000000000000000000a41cc78c1f302a35184ddbe225d5530376cad254",
            "0x0000000000000000000000003b346548fbfa74623047b1e199a96576dd156f2e"
          ],
          "data": "0x000000000000000000000000000000000000000000000006c6b935b8bbd400000000000000000000000000000000000000000000000000000000000000000002",
          "blockHash": "0x9ffc0f92589acc015b16896f16b2cd88413fb6e48547ff392c9bae132a50ddde",
          "blockNumber": "0x2a90536",
          "transactionHash": "0x79d768177d0633692c6bf5bb53405ddeb051f0f2a341d825e75f4b197b9cb10d",
          "transactionIndex": "0x17",
          "logIndex": "0x3d",
          "removed": false
        },
        {
          "address": "0x3b346548fbfa74623047b1e199a96576dd156f2e",
          "topics": [
            "0xddf252ad1be2c89b69c2b068fc378daa952ba7f163c4a11628f55a4df523b3ef",
            "0x000000000000000000000000a41cc78c1f302a35184ddbe225d5530376cad254",
            "0x0000000000000000000000003a4db9e7306af09012ceb0f222d581fd1f0c6d71"
          ],
          "data": "0x000000000000000000000000000000000000000000000006c6b935b8bbd40000",
          "blockHash": "0x9ffc0f92589acc015b16896f16b2cd88413fb6e48547ff392c9bae132a50ddde",
          "blockNumber": "0x2a90536",
          "transactionHash": "0x79d768177d0633692c6bf5bb53405ddeb051f0f2a341d825e75f4b197b9cb10d",
          "transactionIndex": "0x17",
          "logIndex": "0x3e",
          "removed": false
        },
        {
          "address": "0xa41cc78c1f302a35184ddbe225d5530376cad254",
          "topics": [
            "0x9f9b498443531d2db9df8a00ec466efc74ba50ec1d82f7badd3424b87930e19a",
            "0x0000000000000000000000000000000000000000000000000000000000000003",
            "0x0000000000000000000000003a4db9e7306af09012ceb0f222d581fd1f0c6d71"
          ],
          "data": "0x000000000000000000000000ac166a1b90308ca742db5b388ffcbdc3e17a186c0000000000000000000000000000000000000000000000000de0b6b3a76400000000000000000000000000003b346548fbfa74623047b1e199a96576dd156f2e000000000000000000000000000000000000000000000006c6b935b8bbd400000000000000000000000000000000000000000000000000000000000000000002",
          "blockHash": "0x9ffc0f92589acc015b16896f16b2cd88413fb6e48547ff392c9bae132a50ddde",
          "blockNumber": "0x2a90536",
          "transactionHash": "0x79d768177d0633692c6bf5bb53405ddeb051f0f2a341d825e75f4b197b9cb10d",
          "transactionIndex": "0x17",
          "logIndex": "0x3f",
          "removed": false
        }
      ],
      "logsBloom": "0x0000000000000000000000000000000000000100010000000000014000000100000000000000000000002000000000002008040002000000000000000020200000000002000000000000000800000000400000000000010100000008002000000200000002100000000000000000180000000002000000000000001000000000000000000000000000000000000040002000000000000000000000400000000002000000000000000400000000002000000000000080000000000000000040000004000200008000000000000000c000000000000280001000020000000020000010000000000000002000001000000100000000004000002000000000000001",
      "type": "0x0",
      "transactionHash": "0x79d768177d0633692c6bf5bb53405ddeb051f0f2a341d825e75f4b197b9cb10d",
      "transactionIndex": "0x17",
      "blockHash": "0x9ffc0f92589acc015b16896f16b2cd88413fb6e48547ff392c9bae132a50ddde",
      "blockNumber": "0x2a90536",
      "gasUsed": "0x54d37",
      "effectiveGasPrice": "0x5d22cfc40",
      "from": "0x3a4db9e7306af09012ceb0f222d581fd1f0c6d71",
      "to": "0xa41cc78c1f302a35184ddbe225d5530376cad254",
      "contractAddress": null,
      "l1BaseFeeScalar": "0x0",
      "l1BlobBaseFee": "0x1",
      "l1BlobBaseFeeScalar": "0x0",
      "l1Fee": "0x0",
      "l1GasPrice": "0xa",
      "l1GasUsed": "0x7d8"
    },
    {
      "status": "0x1",
      "cumulativeGasUsed": "0x3081ef",
      "logs": [
        {
          "address": "0xeb0225a90ee70a2076a51981c0a9b0b25f2174c7",
          "topics": [
            "0x0a3fbbea70e93f2daafa3102f5c9a1b8315e6d7a1e43e4bc020bc1162327470a",
            "0x000000000000000000000000a41cc78c1f302a35184ddbe225d5530376cad254",
            "0x0000000000000000000000003b346548fbfa74623047b1e199a96576dd156f2e"
          ],
          "data": "0x000000000000000000000000000000000000000000000006c6b935b8bbd40000",
          "blockHash": "0x9ffc0f92589acc015b16896f16b2cd88413fb6e48547ff392c9bae132a50ddde",
          "blockNumber": "0x2a90536",
          "transactionHash": "0x70a18c948903123ca72be63631879fb92e64cb724ec92bee74be55f4e3039893",
          "transactionIndex": "0x18",
          "logIndex": "0x40",
          "removed": false
        },
        {
          "address": "0xac166a1b90308ca742db5b388ffcbdc3e17a186c",
          "topics": [
            "0xddf252ad1be2c89b69c2b068fc378daa952ba7f163c4a11628f55a4df523b3ef",
            "0x0000000000000000000000000000000000000000000000000000000000000000",
            "0x0000000000000000000000003a4db9e7306af09012ceb0f222d581fd1f0c6d71"
          ],
          "data": "0x00000000000000000000000000000000000000000000003635c9adc5dea00000",
          "blockHash": "0x9ffc0f92589acc015b16896f16b2cd88413fb6e48547ff392c9bae132a50ddde",
          "blockNumber": "0x2a90536",
          "transactionHash": "0x70a18c948903123ca72be63631879fb92e64cb724ec92bee74be55f4e3039893",
          "transactionIndex": "0x18",
          "logIndex": "0x41",
          "removed": false
        },
        {
          "address": "0xeb0225a90ee70a2076a51981c0a9b0b25f2174c7",
          "topics": [
            "0xd1c19fbcd4551a5edfb66d43d2e337c04837afda3482b42bdf569a8fccdae5fb",
            "0x000000000000000000000000a41cc78c1f302a35184ddbe225d5530376cad254",
            "0x000000000000000000000000ac166a1b90308ca742db5b388ffcbdc3e17a186c"
          ],
          "data": "0xffffffffffffffffffffffffffffffffffffffffffffffffffffffffffffffff",
          "blockHash": "0x9ffc0f92589acc015b16896f16b2cd88413fb6e48547ff392c9bae132a50ddde",
          "blockNumber": "0x2a90536",
          "transactionHash": "0x70a18c948903123ca72be63631879fb92e64cb724ec92bee74be55f4e3039893",
          "transactionIndex": "0x18",
          "logIndex": "0x42",
          "removed": false
        },
        {
          "address": "0xa41cc78c1f302a35184ddbe225d5530376cad254",
          "topics": [
            "0xcefaf961c5013063cf501ffd9f9382e9b9c4b15741ad032fe93d7e9c7c733b22",
            "0x0000000000000000000000000000000000000000000000000000000000000003",
            "0x0000000000000000000000003a4db9e7306af09012ceb0f222d581fd1f0c6d71"
          ],
          "data": "0x",
          "blockHash": "0x9ffc0f92589acc015b16896f16b2cd88413fb6e48547ff392c9bae132a50ddde",
          "blockNumber": "0x2a90536",
          "transactionHash": "0x70a18c948903123ca72be63631879fb92e64cb724ec92bee74be55f4e3039893",
          "transactionIndex": "0x18",
          "logIndex": "0x43",
          "removed": false
        }
      ],
      "logsBloom": "0x00000000000000000000000000000000000020000000000000000140000000000000000010000000000000000000080000000400020000000000000000000000000000000000000000000008000200000000000000000101000000081000000002000000021000000000000000841800000000000000000000000010000000000000000000000000000000000000400000000000000000000000004000000000000000000000000006000000000000000000000000800000000000000000400000000002000080000000000000004000000000000280001000000000000020000000000000000000002000081000000000000000000000002000000000000001",
      "type": "0x0",
      "transactionHash": "0x70a18c948903123ca72be63631879fb92e64cb724ec92bee74be55f4e3039893",
      "transactionIndex": "0x18",
      "blockHash": "0x9ffc0f92589acc015b16896f16b2cd88413fb6e48547ff392c9bae132a50ddde",
      "blockNumber": "0x2a90536",
      "gasUsed": "0x1a86e",
      "effectiveGasPrice": "0x5d22cfc40",
      "from": "0x3a4db9e7306af09012ceb0f222d581fd1f0c6d71",
      "to": "0xa41cc78c1f302a35184ddbe225d5530376cad254",
      "contractAddress": null,
      "l1BaseFeeScalar": "0x0",
      "l1BlobBaseFee": "0x1",
      "l1BlobBaseFeeScalar": "0x0",
      "l1Fee": "0x0",
      "l1GasPrice": "0xa",
      "l1GasUsed": "0x640"
    }
  ],
  "libraries": [],
  "pending": [],
  "returns": {},
  "timestamp": 1745586672,
  "chain": 44787,
  "commit": "144c6c6"
}