{
  "transactions": [
    {
      "hash": "0xfe27598ec89de85862d119d550851dfe74f4a2d90f1978b6a5729776299eb4cf",
      "transactionType": "CALL",
      "contractName": null,
      "contractAddress": "0x7262bfada9f61530119693d532e716d5cd3191ec",
      "function": "mint(address,uint256)",
      "arguments": [
        "0x3A4dB9e7306aF09012ceb0f222d581FD1F0C6D71",
        "10000000000"
      ],
      "transaction": {
        "from": "0x3a4db9e7306af09012ceb0f222d581fd1f0c6d71",
        "to": "0x7262bfada9f61530119693d532e716d5cd3191ec",
        "gas": "0xc63a",
        "value": "0x0",
        "input": "0x40c10f190000000000000000000000003a4db9e7306af09012ceb0f222d581fd1f0c6d7100000000000000000000000000000000000000000000000000000002540be400",
        "nonce": "0xab",
        "chainId": "0xaef3"
      },
      "additionalContracts": [],
      "isFixedGasLimit": false
    },
    {
      "hash": "0x25602915e5549fb8a709871661621a9e0007ccdc2db5cdb2c8101ccc61987888",
      "transactionType": "CALL",
      "contractName": null,
      "contractAddress": "0xac166a1b90308ca742db5b388ffcbdc3e17a186c",
      "function": "mint(address,uint256)",
      "arguments": [
        "0x3A4dB9e7306aF09012ceb0f222d581FD1F0C6D71",
        "10000000000000000000"
      ],
      "transaction": {
        "from": "0x3a4db9e7306af09012ceb0f222d581fd1f0c6d71",
        "to": "0xac166a1b90308ca742db5b388ffcbdc3e17a186c",
        "gas": "0xc65d",
        "value": "0x0",
        "input": "0x40c10f190000000000000000000000003a4db9e7306af09012ceb0f222d581fd1f0c6d710000000000000000000000000000000000000000000000008ac7230489e80000",
        "nonce": "0xac",
        "chainId": "0xaef3"
      },
      "additionalContracts": [],
      "isFixedGasLimit": false
    },
    {
      "hash": "0xd5dffee04269a2bbde60ceae9f1c3f32c2d435ac3b37636b45095bd277144300",
      "transactionType": "CALL",
      "contractName": null,
      "contractAddress": "0x3b346548fbfa74623047b1e199a96576dd156f2e",
      "function": "mint(address,uint256)",
      "arguments": [
        "0x3A4dB9e7306aF09012ceb0f222d581FD1F0C6D71",
        "10000000000000000000000"
      ],
      "transaction": {
        "from": "0x3a4db9e7306af09012ceb0f222d581fd1f0c6d71",
        "to": "0x3b346548fbfa74623047b1e199a96576dd156f2e",
        "gas": "0xbbf4",
        "value": "0x0",
        "input": "0x40c10f190000000000000000000000003a4db9e7306af09012ceb0f222d581fd1f0c6d7100000000000000000000000000000000000000000000021e19e0c9bab2400000",
        "nonce": "0xad",
        "chainId": "0xaef3"
      },
      "additionalContracts": [],
      "isFixedGasLimit": false
    },
    {
      "hash": "0xd9ec56f8658d95aced3d4aefc157867d2374be70b8f7fbdd8fdb72fd280ec022",
      "transactionType": "CALL",
      "contractName": null,
      "contractAddress": "0x3b346548fbfa74623047b1e199a96576dd156f2e",
      "function": "mint(address,uint256)",
      "arguments": [
        "0xb2e25650a3DA02fE0E3d51128d7887535819B689",
        "10000000000000000000000"
      ],
      "transaction": {
        "from": "0x3a4db9e7306af09012ceb0f222d581fd1f0c6d71",
        "to": "0x3b346548fbfa74623047b1e199a96576dd156f2e",
        "gas": "0x11838",
        "value": "0x0",
        "input": "0x40c10f19000000000000000000000000b2e25650a3da02fe0e3d51128d7887535819b68900000000000000000000000000000000000000000000021e19e0c9bab2400000",
        "nonce": "0xae",
        "chainId": "0xaef3"
      },
      "additionalContracts": [],
      "isFixedGasLimit": false
    },
    {
      "hash": "0xe6ce8da40c27521ffe944888f19213663f1416dc1129eb35d5e8ad0747afd4a7",
      "transactionType": "CALL",
      "contractName": null,
      "contractAddress": "0xac166a1b90308ca742db5b388ffcbdc3e17a186c",
      "function": "approve(address,uint256)",
      "arguments": [
        "0xAe84B9e6dBa48D14f4ec7741666c976C0556A295",
        "1000000000000000000"
      ],
      "transaction": {
        "from": "0x3a4db9e7306af09012ceb0f222d581fd1f0c6d71",
        "to": "0xac166a1b90308ca742db5b388ffcbdc3e17a186c",
        "gas": "0xfd33",
        "value": "0x0",
        "input": "0x095ea7b3000000000000000000000000ae84b9e6dba48d14f4ec7741666c976c0556a2950000000000000000000000000000000000000000000000000de0b6b3a7640000",
        "nonce": "0xaf",
        "chainId": "0xaef3"
      },
      "additionalContracts": [],
      "isFixedGasLimit": false
    },
    {
      "hash": "0xddedf54cb4d9e01f5b8faffa42ebd85e570cde79d34f940158ec05b94a66896e",
      "transactionType": "CALL",
      "contractName": "LendyProtocol",
      "contractAddress": "0xae84b9e6dba48d14f4ec7741666c976c0556a295",
      "function": "supply(address,uint256,address,uint16)",
      "arguments": [
        "0xAC166A1B90308cA742Db5b388FFCBdc3E17a186c",
        "1000000000000000000",
        "0x3A4dB9e7306aF09012ceb0f222d581FD1F0C6D71",
        "0"
      ],
      "transaction": {
        "from": "0x3a4db9e7306af09012ceb0f222d581fd1f0c6d71",
        "to": "0xae84b9e6dba48d14f4ec7741666c976c0556a295",
        "gas": "0x3993f",
        "value": "0x0",
        "input": "0x617ba037000000000000000000000000ac166a1b90308ca742db5b388ffcbdc3e17a186c0000000000000000000000000000000000000000000000000de0b6b3a76400000000000000000000000000003a4db9e7306af09012ceb0f222d581fd1f0c6d710000000000000000000000000000000000000000000000000000000000000000",
        "nonce": "0xb0",
        "chainId": "0xaef3"
      },
      "additionalContracts": [],
      "isFixedGasLimit": false
    },
    {
      "hash": "0x3fdc4a073870252142c0d9676e50730011551179c61e88f3e5782e16504eebb6",
      "transactionType": "CALL",
      "contractName": "LendyProtocol",
      "contractAddress": "0xae84b9e6dba48d14f4ec7741666c976c0556a295",
      "function": "borrow(address,uint256,uint256,uint16,address)",
      "arguments": [
        "0x7262Bfada9f61530119693d532E716D5CD3191eC",
        "100000000",
        "2",
        "0",
        "0x3A4dB9e7306aF09012ceb0f222d581FD1F0C6D71"
      ],
      "transaction": {
        "from": "0x3a4db9e7306af09012ceb0f222d581fd1f0c6d71",
        "to": "0xae84b9e6dba48d14f4ec7741666c976c0556a295",
        "gas": "0x3479e",
        "value": "0x0",
        "input": "0xa415bcad0000000000000000000000007262bfada9f61530119693d532e716d5cd3191ec0000000000000000000000000000000000000000000000000000000005f5e100000000000000000000000000000000000000000000000000000000000000000200000000000000000000000000000000000000000000000000000000000000000000000000000000000000003a4db9e7306af09012ceb0f222d581fd1f0c6d71",
        "nonce": "0xb1",
        "chainId": "0xaef3"
      },
      "additionalContracts": [],
      "isFixedGasLimit": false
    },
    {
      "hash": "0xd0ab722e3c93f147d6af985d7ea55832e9ea0dab37a91ca0e55bdc07bd934409",
      "transactionType": "CALL",
      "contractName": "LendyProtocol",
      "contractAddress": "0xae84b9e6dba48d14f4ec7741666c976c0556a295",
      "function": "supplyWithPermit(address,uint256,address,uint16,uint256,uint8,bytes32,bytes32)",
      "arguments": [
        "0x3B346548fbfa74623047B1E199a96576dd156f2e",
        "1000000000000000000000",
        "0x3A4dB9e7306aF09012ceb0f222d581FD1F0C6D71",
        "0",
        "1745589174",
        "27",
        "0x0000000000000000000000000000000000000000000000000000000000000001",
        "0x0000000000000000000000000000000000000000000000000000000000000002"
      ],
      "transaction": {
        "from": "0x3a4db9e7306af09012ceb0f222d581fd1f0c6d71",
        "to": "0xae84b9e6dba48d14f4ec7741666c976c0556a295",
        "gas": "0xf746",
        "value": "0x0",
        "input": "0x02c205f00000000000000000000000003b346548fbfa74623047b1e199a96576dd156f2e00000000000000000000000000000000000000000000003635c9adc5dea000000000000000000000000000003a4db9e7306af09012ceb0f222d581fd1f0c6d71000000000000000000000000000000000000000000000000000000000000000000000000000000000000000000000000000000000000000000000000680b93b6000000000000000000000000000000000000000000000000000000000000001b00000000000000000000000000000000000000000000000000000000000000010000000000000000000000000000000000000000000000000000000000000002",
        "nonce": "0xb2",
        "chainId": "0xaef3"
      },
      "additionalContracts": [],
      "isFixedGasLimit": false
    },
    {
      "hash": "0x5370dd64d4d31733b1184412f17f5336255c0d28ff44a8e97b6a7a269b1c1b16",
      "transactionType": "CALL",
      "contractName": "LendyProtocol",
      "contractAddress": "0xae84b9e6dba48d14f4ec7741666c976c0556a295",
      "function": "repayWithPermit(address,uint256,uint256,address,uint256,uint8,bytes32,bytes32)",
      "arguments": [
        "0x3B346548fbfa74623047B1E199a96576dd156f2e",
        "500000000000000000000",
        "2",
        "0x3A4dB9e7306aF09012ceb0f222d581FD1F0C6D71",
        "1745589174",
        "27",
        "0x0000000000000000000000000000000000000000000000000000000000000001",
        "0x0000000000000000000000000000000000000000000000000000000000000002"
      ],
      "transaction": {
        "from": "0x3a4db9e7306af09012ceb0f222d581fd1f0c6d71",
        "to": "0xae84b9e6dba48d14f4ec7741666c976c0556a295",
        "gas": "0x2bed5",
        "value": "0x0",
        "input": "0xee3e210b0000000000000000000000003b346548fbfa74623047b1e199a96576dd156f2e00000000000000000000000000000000000000000000001b1ae4d6e2ef50000000000000000000000000000000000000000000000000000000000000000000020000000000000000000000003a4db9e7306af09012ceb0f222d581fd1f0c6d7100000000000000000000000000000000000000000000000000000000680b93b6000000000000000000000000000000000000000000000000000000000000001b00000000000000000000000000000000000000000000000000000000000000010000000000000000000000000000000000000000000000000000000000000002",
        "nonce": "0xb3",
        "chainId": "0xaef3"
      },
      "additionalContracts": [],
      "isFixedGasLimit": false
    },
    {
      "hash": "0xe5b205c307d10d19d55c94e25107e6ec2004a7e35f4fd453ad3ef367eb8f0c42",
      "transactionType": "CALL",
      "contractName": null,
      "contractAddress": "0xac166a1b90308ca742db5b388ffcbdc3e17a186c",
      "function": "approve(address,uint256)",
      "arguments": [
        "0xb2e25650a3DA02fE0E3d51128d7887535819B689",
        "1000000000000000000"
      ],
      "transaction": {
        "from": "0x3a4db9e7306af09012ceb0f222d581fd1f0c6d71",
        "to": "0xac166a1b90308ca742db5b388ffcbdc3e17a186c",
        "gas": "0xfd33",
        "value": "0x0",
        "input": "0x095ea7b3000000000000000000000000b2e25650a3da02fe0e3d51128d7887535819b6890000000000000000000000000000000000000000000000000de0b6b3a7640000",
        "nonce": "0xb4",
        "chainId": "0xaef3"
      },
      "additionalContracts": [],
      "isFixedGasLimit": false
    },
    {
      "hash": "0x193c40890d72453ffc519696e8be3d7bd929ea473f8e39e793ce0b097fd0aa32",
      "transactionType": "CALL",
      "contractName": "LendyPositionManager",
      "contractAddress": "0xb2e25650a3da02fe0e3d51128d7887535819b689",
      "function": "createPosition(address,uint256,address,uint256,uint256)",
      "arguments": [
        "0xAC166A1B90308cA742Db5b388FFCBdc3E17a186c",
        "1000000000000000000",
        "0x3B346548fbfa74623047B1E199a96576dd156f2e",
        "250000000000000000000",
        "2"
      ],
      "transaction": {
        "from": "0x3a4db9e7306af09012ceb0f222d581fd1f0c6d71",
        "to": "0xb2e25650a3da02fe0e3d51128d7887535819b689",
        "gas": "0x8b2dc",
        "value": "0x0",
        "input": "0xb0c3d5df000000000000000000000000ac166a1b90308ca742db5b388ffcbdc3e17a186c0000000000000000000000000000000000000000000000000de0b6b3a76400000000000000000000000000003b346548fbfa74623047b1e199a96576dd156f2e00000000000000000000000000000000000000000000000d8d726b7177a800000000000000000000000000000000000000000000000000000000000000000002",
        "nonce": "0xb5",
        "chainId": "0xaef3"
      },
      "additionalContracts": [],
      "isFixedGasLimit": false
    },
    {
      "hash": "0xe385e8e61859d715cd08b7eaa476d2c4cdfd4b5eb77cbec284fb8367a0bd5d3d",
      "transactionType": "CALL",
      "contractName": null,
      "contractAddress": "0x3b346548fbfa74623047b1e199a96576dd156f2e",
      "function": "approve(address,uint256)",
      "arguments": [
        "0xb2e25650a3DA02fE0E3d51128d7887535819B689",
        "62500000000000000000"
      ],
      "transaction": {
        "from": "0x3a4db9e7306af09012ceb0f222d581fd1f0c6d71",
        "to": "0x3b346548fbfa74623047b1e199a96576dd156f2e",
        "gas": "0x10c4a",
        "value": "0x0",
        "input": "0x095ea7b3000000000000000000000000b2e25650a3da02fe0e3d51128d7887535819b689000000000000000000000000000000000000000000000003635c9adc5dea0000",
        "nonce": "0xb6",
        "chainId": "0xaef3"
      },
      "additionalContracts": [],
      "isFixedGasLimit": false
    },
    {
      "hash": "0x8d3f684227d947c4d4b0fee1bf0d7974350b57db3bac04531a45af07433a3234",
      "transactionType": "CALL",
      "contractName": "LendyPositionManager",
      "contractAddress": "0xb2e25650a3da02fe0e3d51128d7887535819b689",
      "function": "repayDebt(uint256,uint256)",
      "arguments": [
        "1",
        "62500000000000000000"
      ],
      "transaction": {
        "from": "0x3a4db9e7306af09012ceb0f222d581fd1f0c6d71",
        "to": "0xb2e25650a3da02fe0e3d51128d7887535819b689",
        "gas": "0x2f2b3",
        "value": "0x0",
        "input": "0x015cb0a50000000000000000000000000000000000000000000000000000000000000001000000000000000000000000000000000000000000000003635c9adc5dea0000",
        "nonce": "0xb7",
        "chainId": "0xaef3"
      },
      "additionalContracts": [],
      "isFixedGasLimit": false
    },
    {
      "hash": "0x9f82ad7058649d017baedd38f55672d942cd540f7886f44e9708ee34786560d3",
      "transactionType": "CALL",
      "contractName": "LendyProtocol",
      "contractAddress": "0xae84b9e6dba48d14f4ec7741666c976c0556a295",
      "function": "repayWithPermit(address,uint256,uint256,address,uint256,uint8,bytes32,bytes32)",
      "arguments": [
        "0x3B346548fbfa74623047B1E199a96576dd156f2e",
        "62500000000000000000",
        "2",
        "0xb2e25650a3DA02fE0E3d51128d7887535819B689",
        "1745589174",
        "27",
        "0x0000000000000000000000000000000000000000000000000000000000000001",
        "0x0000000000000000000000000000000000000000000000000000000000000002"
      ],
      "transaction": {
        "from": "0x3a4db9e7306af09012ceb0f222d581fd1f0c6d71",
        "to": "0xae84b9e6dba48d14f4ec7741666c976c0556a295",
        "gas": "0xf816",
        "value": "0x0",
        "input": "0xee3e210b0000000000000000000000003b346548fbfa74623047b1e199a96576dd156f2e000000000000000000000000000000000000000000000003635c9adc5dea00000000000000000000000000000000000000000000000000000000000000000002000000000000000000000000b2e25650a3da02fe0e3d51128d7887535819b68900000000000000000000000000000000000000000000000000000000680b93b6000000000000000000000000000000000000000000000000000000000000001b00000000000000000000000000000000000000000000000000000000000000010000000000000000000000000000000000000000000000000000000000000002",
        "nonce": "0xb8",
        "chainId": "0xaef3"
      },
      "additionalContracts": [],
      "isFixedGasLimit": false
    },
    {
      "hash": "0x9823502319708df37917676611f65ea482ae31b8bcb086f28cbfcbd0e3048f1e",
      "transactionType": "CALL",
      "contractName": null,
      "contractAddress": "0x3b346548fbfa74623047b1e199a96576dd156f2e",
      "function": "approve(address,uint256)",
      "arguments": [
        "0xb2e25650a3DA02fE0E3d51128d7887535819B689",
        "187500000000000000000"
      ],
      "transaction": {
        "from": "0x3a4db9e7306af09012ceb0f222d581fd1f0c6d71",
        "to": "0x3b346548fbfa74623047b1e199a96576dd156f2e",
        "gas": "0x10c4a",
        "value": "0x0",
        "input": "0x095ea7b3000000000000000000000000b2e25650a3da02fe0e3d51128d7887535819b68900000000000000000000000000000000000000000000000a2a15d09519be0000",
        "nonce": "0xb9",
        "chainId": "0xaef3"
      },
      "additionalContracts": [],
      "isFixedGasLimit": false
    },
    {
      "hash": "0x93dad2a4ea3c9f68ae887ecdc2eaf7b015ed49ca71276dd5d6419dd6994f70d8",
      "transactionType": "CALL",
      "contractName": "LendyPositionManager",
      "contractAddress": "0xb2e25650a3da02fe0e3d51128d7887535819b689",
      "function": "closePosition(uint256)",
      "arguments": [
        "1"
      ],
      "transaction": {
        "from": "0x3a4db9e7306af09012ceb0f222d581fd1f0c6d71",
        "to": "0xb2e25650a3da02fe0e3d51128d7887535819b689",
        "gas": "0x46fe1",
        "value": "0x0",
        "input": "0xa126d6010000000000000000000000000000000000000000000000000000000000000001",
        "nonce": "0xba",
        "chainId": "0xaef3"
      },
      "additionalContracts": [],
      "isFixedGasLimit": false
    }
  ],
  "receipts": [
    {
      "status": "0x1",
      "cumulativeGasUsed": "0x32c49",
      "logs": [
        {
          "address": "0x7262bfada9f61530119693d532e716d5cd3191ec",
          "topics": [
            "0xddf252ad1be2c89b69c2b068fc378daa952ba7f163c4a11628f55a4df523b3ef",
            "0x0000000000000000000000000000000000000000000000000000000000000000",
            "0x0000000000000000000000003a4db9e7306af09012ceb0f222d581fd1f0c6d71"
          ],
          "data": "0x00000000000000000000000000000000000000000000000000000002540be400",
          "blockHash": "0x2b0f395e4e29e32e94543e5087473dbcf6ba99bd026d74071eed929f7c631e36",
          "blockNumber": "0x2a9010f",
          "transactionHash": "0xfe27598ec89de85862d119d550851dfe74f4a2d90f1978b6a5729776299eb4cf",
          "transactionIndex": "0x2",
          "logIndex": "0x3",
          "removed": false
        }
      ],
      "logsBloom": "0x00000000000000000000000000000000000000000000000000000000000000000000000000000000000000000000000000000000000000000000000000000000100000000000000000000008000000000000000000000000000000100000000000000000020000000000000000000800000000000000000000000050000000000000000000000000000000000000400000000000000000000000000000000000000000000000000000000000000000000000000000000000000000000000000000000002000080000000000000000000000000000000001000000000000020000000000000000000000000000000000000000000000000000000000000000000",
      "type": "0x0",
      "transactionHash": "0xfe27598ec89de85862d119d550851dfe74f4a2d90f1978b6a5729776299eb4cf",
      "transactionIndex": "0x2",
      "blockHash": "0x2b0f395e4e29e32e94543e5087473dbcf6ba99bd026d74071eed929f7c631e36",
      "blockNumber": "0x2a9010f",
      "gasUsed": "0x878b",
      "effectiveGasPrice": "0x5d22cfc40",
      "from": "0x3a4db9e7306af09012ceb0f222d581fd1f0c6d71",
      "to": "0x7262bfada9f61530119693d532e716d5cd3191ec",
      "contractAddress": null,
      "l1BaseFeeScalar": "0x0",
      "l1BlobBaseFee": "0x1",
      "l1BlobBaseFeeScalar": "0x0",
      "l1Fee": "0x0",
      "l1GasPrice": "0x8",
      "l1GasUsed": "0x640"
    },
    {
      "status": "0x1",
      "cumulativeGasUsed": "0x3b3ec",
      "logs": [
        {
          "address": "0xac166a1b90308ca742db5b388ffcbdc3e17a186c",
          "topics": [
            "0xddf252ad1be2c89b69c2b068fc378daa952ba7f163c4a11628f55a4df523b3ef",
            "0x0000000000000000000000000000000000000000000000000000000000000000",
            "0x0000000000000000000000003a4db9e7306af09012ceb0f222d581fd1f0c6d71"
          ],
          "data": "0x0000000000000000000000000000000000000000000000008ac7230489e80000",
          "blockHash": "0x2b0f395e4e29e32e94543e5087473dbcf6ba99bd026d74071eed929f7c631e36",
          "blockNumber": "0x2a9010f",
          "transactionHash": "0x25602915e5549fb8a709871661621a9e0007ccdc2db5cdb2c8101ccc61987888",
          "transactionIndex": "0x3",
          "logIndex": "0x4",
          "removed": false
        }
      ],
      "logsBloom": "0x00000000000000000000000000000000000000000000000000000000000000000000000000000000000000000000000000000000000000000000000000000000000000000000000000000008000000000000000000000000000000080000000002000000020000000000000000000800000000000000000000000010000000000000000000000000000000000000400000000000000000000000000000000000000000000000000000000000000000000000000000000000000000000000000000000002000080000000000000004000000000000000001000000000000020000000000000000000000000000000000000000000000000000000000000000000",
      "type": "0x0",
      "transactionHash": "0x25602915e5549fb8a709871661621a9e0007ccdc2db5cdb2c8101ccc61987888",
      "transactionIndex": "0x3",
      "blockHash": "0x2b0f395e4e29e32e94543e5087473dbcf6ba99bd026d74071eed929f7c631e36",
      "blockNumber": "0x2a9010f",
      "gasUsed": "0x87a3",
      "effectiveGasPrice": "0x5d22cfc40",
      "from": "0x3a4db9e7306af09012ceb0f222d581fd1f0c6d71",
      "to": "0xac166a1b90308ca742db5b388ffcbdc3e17a186c",
      "contractAddress": null,
      "l1BaseFeeScalar": "0x0",
      "l1BlobBaseFee": "0x1",
      "l1BlobBaseFeeScalar": "0x0",
      "l1Fee": "0x0",
      "l1GasPrice": "0x8",
      "l1GasUsed": "0x640"
    },
    {
      "status": "0x1",
      "cumulativeGasUsed": "0x13302",
      "logs": [
        {
          "address": "0x3b346548fbfa74623047b1e199a96576dd156f2e",
          "topics": [
            "0xddf252ad1be2c89b69c2b068fc378daa952ba7f163c4a11628f55a4df523b3ef",
            "0x0000000000000000000000000000000000000000000000000000000000000000",
            "0x0000000000000000000000003a4db9e7306af09012ceb0f222d581fd1f0c6d71"
          ],
          "data": "0x00000000000000000000000000000000000000000000021e19e0c9bab2400000",
          "blockHash": "0xac777f8f783b1d67769d4672fa309d82653deb6817fb6ed10027a564f91336c4",
          "blockNumber": "0x2a90110",
          "transactionHash": "0xd5dffee04269a2bbde60ceae9f1c3f32c2d435ac3b37636b45095bd277144300",
          "transactionIndex": "0x1",
          "logIndex": "0x0",
          "removed": false
        }
      ],
      "logsBloom": "0x00000000000000000000000000000000000001000000000000000000000000000000000000000000000000000000000000000000000000000000000000000000000000000000000000000008000000004000000000000000000000000000000000000000020000000000000000000800000000000000000000000010000000000000000000000000000000000000400000000000000000000000000000000000000000000000000000000000000020000000000000000000000000000000000000000002000080000000000000000000000000000000001000000000000020000000000000000000000000000000000000000000000000000000000000000000",
      "type": "0x0",
      "transactionHash": "0xd5dffee04269a2bbde60ceae9f1c3f32c2d435ac3b37636b45095bd277144300",
      "transactionIndex": "0x1",
      "blockHash": "0xac777f8f783b1d67769d4672fa309d82653deb6817fb6ed10027a564f91336c4",
      "blockNumber": "0x2a90110",
      "gasUsed": "0x8814",
      "effectiveGasPrice": "0x5d22cfc40",
      "from": "0x3a4db9e7306af09012ceb0f222d581fd1f0c6d71",
      "to": "0x3b346548fbfa74623047b1e199a96576dd156f2e",
      "contractAddress": null,
      "l1BaseFeeScalar": "0x0",
      "l1BlobBaseFee": "0x1",
      "l1BlobBaseFeeScalar": "0x0",
      "l1Fee": "0x0",
      "l1GasPrice": "0x8",
      "l1GasUsed": "0x640"
    },
    {
      "status": "0x1",
      "cumulativeGasUsed": "0x1fde2",
      "logs": [
        {
          "address": "0x3b346548fbfa74623047b1e199a96576dd156f2e",
          "topics": [
            "0xddf252ad1be2c89b69c2b068fc378daa952ba7f163c4a11628f55a4df523b3ef",
            "0x0000000000000000000000000000000000000000000000000000000000000000",
            "0x000000000000000000000000b2e25650a3da02fe0e3d51128d7887535819b689"
          ],
          "data": "0x00000000000000000000000000000000000000000000021e19e0c9bab2400000",
          "blockHash": "0xac777f8f783b1d67769d4672fa309d82653deb6817fb6ed10027a564f91336c4",
          "blockNumber": "0x2a90110",
          "transactionHash": "0xd9ec56f8658d95aced3d4aefc157867d2374be70b8f7fbdd8fdb72fd280ec022",
          "transactionIndex": "0x2",
          "logIndex": "0x1",
          "removed": false
        }
      ],
      "logsBloom": "0x00000000000000000000000000000000000001000000000000000000000000000000000000000000000000000000000000000000000000000000000000000000000000000000000000000008000000004000000000000000000000000000000000000000020000000000000000000800000000000000000000000010000000008000000000000000000000002000000000000000000000000000000000000000000000000000000000000000000020000000000000000000000000000000000000000002000000000000000000000000000000000000002000000000000020000000000000000000000000000000000000000000000000000000000000000000",
      "type": "0x0",
      "transactionHash": "0xd9ec56f8658d95aced3d4aefc157867d2374be70b8f7fbdd8fdb72fd280ec022",
      "transactionIndex": "0x2",
      "blockHash": "0xac777f8f783b1d67769d4672fa309d82653deb6817fb6ed10027a564f91336c4",
      "blockNumber": "0x2a90110",
      "gasUsed": "0xcae0",
      "effectiveGasPrice": "0x5d22cfc40",
      "from": "0x3a4db9e7306af09012ceb0f222d581fd1f0c6d71",
      "to": "0x3b346548fbfa74623047b1e199a96576dd156f2e",
      "contractAddress": null,
      "l1BaseFeeScalar": "0x0",
      "l1BlobBaseFee": "0x1",
      "l1BlobBaseFeeScalar": "0x0",
      "l1Fee": "0x0",
      "l1GasPrice": "0x8",
      "l1GasUsed": "0x640"
    },
    {
      "status": "0x1",
      "cumulativeGasUsed": "0x2b532",
      "logs": [
        {
          "address": "0xac166a1b90308ca742db5b388ffcbdc3e17a186c",
          "topics": [
            "0x8c5be1e5ebec7d5bd14f71427d1e84f3dd0314c0f7b2291e5b200ac8c7c3b925",
            "0x0000000000000000000000003a4db9e7306af09012ceb0f222d581fd1f0c6d71",
            "0x000000000000000000000000ae84b9e6dba48d14f4ec7741666c976c0556a295"
          ],
          "data": "0x0000000000000000000000000000000000000000000000000de0b6b3a7640000",
          "blockHash": "0xac777f8f783b1d67769d4672fa309d82653deb6817fb6ed10027a564f91336c4",
          "blockNumber": "0x2a90110",
          "transactionHash": "0xe6ce8da40c27521ffe944888f19213663f1416dc1129eb35d5e8ad0747afd4a7",
          "transactionIndex": "0x3",
          "logIndex": "0x2",
          "removed": false
        }
      ],
      "logsBloom": "0x00000000000000000000000000000000000000000000000000000000000000000000000000000000000000000000000000000000000000000008000000200000000000000001000000000000000000000000000000000000000000080000000002000000000000000000000000000000000000000000000000000000000000000000000000000000000000000000400000000000000000000000000000000000020000000000000000000000000000000000000000000000000000000000000000000000000080000000000000004000000000000000001000000000000000000010000000000000000000000000000000000000000000000000000000080000",
      "type": "0x0",
      "transactionHash": "0xe6ce8da40c27521ffe944888f19213663f1416dc1129eb35d5e8ad0747afd4a7",
      "transactionIndex": "0x3",
      "blockHash": "0xac777f8f783b1d67769d4672fa309d82653deb6817fb6ed10027a564f91336c4",
      "blockNumber": "0x2a90110",
      "gasUsed": "0xb750",
      "effectiveGasPrice": "0x5d22cfc40",
      "from": "0x3a4db9e7306af09012ceb0f222d581fd1f0c6d71",
      "to": "0xac166a1b90308ca742db5b388ffcbdc3e17a186c",
      "contractAddress": null,
      "l1BaseFeeScalar": "0x0",
      "l1BlobBaseFee": "0x1",
      "l1BlobBaseFeeScalar": "0x0",
      "l1Fee": "0x0",
      "l1GasPrice": "0x8",
      "l1GasUsed": "0x640"
    },
    {
      "status": "0x1",
      "cumulativeGasUsed": "0x52b1c",
      "logs": [
        {
          "address": "0xac166a1b90308ca742db5b388ffcbdc3e17a186c",
          "topics": [
            "0xddf252ad1be2c89b69c2b068fc378daa952ba7f163c4a11628f55a4df523b3ef",
            "0x0000000000000000000000003a4db9e7306af09012ceb0f222d581fd1f0c6d71",
            "0x000000000000000000000000ae84b9e6dba48d14f4ec7741666c976c0556a295"
          ],
          "data": "0x0000000000000000000000000000000000000000000000000de0b6b3a7640000",
          "blockHash": "0xac777f8f783b1d67769d4672fa309d82653deb6817fb6ed10027a564f91336c4",
          "blockNumber": "0x2a90110",
          "transactionHash": "0xddedf54cb4d9e01f5b8faffa42ebd85e570cde79d34f940158ec05b94a66896e",
          "transactionIndex": "0x4",
          "logIndex": "0x3",
          "removed": false
        },
        {
          "address": "0xac166a1b90308ca742db5b388ffcbdc3e17a186c",
          "topics": [
            "0x8c5be1e5ebec7d5bd14f71427d1e84f3dd0314c0f7b2291e5b200ac8c7c3b925",
            "0x000000000000000000000000ae84b9e6dba48d14f4ec7741666c976c0556a295",
            "0x0000000000000000000000000466be5953f6e0695a846c44926ad4789a68d3f2"
          ],
          "data": "0x0000000000000000000000000000000000000000000000000de0b6b3a7640000",
          "blockHash": "0xac777f8f783b1d67769d4672fa309d82653deb6817fb6ed10027a564f91336c4",
          "blockNumber": "0x2a90110",
          "transactionHash": "0xddedf54cb4d9e01f5b8faffa42ebd85e570cde79d34f940158ec05b94a66896e",
          "transactionIndex": "0x4",
          "logIndex": "0x4",
          "removed": false
        },
        {
          "address": "0xae84b9e6dba48d14f4ec7741666c976c0556a295",
          "topics": [
            "0x523322d7afb07cee28d04498651096af062004e1f14315eff2e4a60290dfadda",
            "0x0000000000000000000000003a4db9e7306af09012ceb0f222d581fd1f0c6d71",
            "0x000000000000000000000000ac166a1b90308ca742db5b388ffcbdc3e17a186c"
          ],
          "data": "0x0000000000000000000000000000000000000000000000000de0b6b3a7640000",
          "blockHash": "0xac777f8f783b1d67769d4672fa309d82653deb6817fb6ed10027a564f91336c4",
          "blockNumber": "0x2a90110",
          "transactionHash": "0xddedf54cb4d9e01f5b8faffa42ebd85e570cde79d34f940158ec05b94a66896e",
          "transactionIndex": "0x4",
          "logIndex": "0x5",
          "removed": false
        }
      ],
      "logsBloom": "0x00000000000000000000000000000008000000004000000000000000000000000000000000000000000000000000000000080000000000000008000000200000000000020001000000000008000020000000000000000000400000080000000002000000000400000000000000001000000000000000000000000010000000000000000000000000000000000000400000000000000000000000000000000000020000000000000004000000000000000000000000000000000000000010000000040002000080000000000000004000000000000000001000000000000000000010000000000000000000000000000000000000000000002000000000080000",
      "type": "0x0",
      "transactionHash": "0xddedf54cb4d9e01f5b8faffa42ebd85e570cde79d34f940158ec05b94a66896e",
      "transactionIndex": "0x4",
      "blockHash": "0xac777f8f783b1d67769d4672fa309d82653deb6817fb6ed10027a564f91336c4",
      "blockNumber": "0x2a90110",
      "gasUsed": "0x275ea",
      "effectiveGasPrice": "0x5d22cfc40",
      "from": "0x3a4db9e7306af09012ceb0f222d581fd1f0c6d71",
      "to": "0xae84b9e6dba48d14f4ec7741666c976c0556a295",
      "contractAddress": null,
      "l1BaseFeeScalar": "0x0",
      "l1BlobBaseFee": "0x1",
      "l1BlobBaseFeeScalar": "0x0",
      "l1Fee": "0x0",
      "l1GasPrice": "0x8",
      "l1GasUsed": "0x702"
    },
    {
      "status": "0x1",
      "cumulativeGasUsed": "0x78afb",
      "logs": [
        {
          "address": "0x7262bfada9f61530119693d532e716d5cd3191ec",
          "topics": [
            "0xddf252ad1be2c89b69c2b068fc378daa952ba7f163c4a11628f55a4df523b3ef",
            "0x0000000000000000000000000000000000000000000000000000000000000000",
            "0x000000000000000000000000ae84b9e6dba48d14f4ec7741666c976c0556a295"
          ],
          "data": "0x0000000000000000000000000000000000000000000000000000000005f5e100",
          "blockHash": "0xac777f8f783b1d67769d4672fa309d82653deb6817fb6ed10027a564f91336c4",
          "blockNumber": "0x2a90110",
          "transactionHash": "0x3fdc4a073870252142c0d9676e50730011551179c61e88f3e5782e16504eebb6",
          "transactionIndex": "0x5",
          "logIndex": "0x6",
          "removed": false
        },
        {
          "address": "0xae84b9e6dba48d14f4ec7741666c976c0556a295",
          "topics": [
            "0xc14e9e6b4d98a542b05a0f6b64acd5f4cbdb914be88432d87486b664e97071a7",
            "0x0000000000000000000000003a4db9e7306af09012ceb0f222d581fd1f0c6d71",
            "0x0000000000000000000000007262bfada9f61530119693d532e716d5cd3191ec"
          ],
          "data": "0x0000000000000000000000000000000000000000000000000000000005f5e1000000000000000000000000000000000000000000000000000000000000000002",
          "blockHash": "0xac777f8f783b1d67769d4672fa309d82653deb6817fb6ed10027a564f91336c4",
          "blockNumber": "0x2a90110",
          "transactionHash": "0x3fdc4a073870252142c0d9676e50730011551179c61e88f3e5782e16504eebb6",
          "transactionIndex": "0x5",
          "logIndex": "0x7",
          "removed": false
        }
      ],
      "logsBloom": "0x00000000000000000000000000000108000000004000000000000000000000000000000000000000000000000000000000000000000000000008000000000000100000000001000000000008000000000000000000000000000000100020000000000000020000000000000000000800000000000000000000000050000000000000000000000000000000000000400000000000000000000000000000000000000000000000000000000000000000000000020000000000000000000010000000000002000080002000000000008000000000000000001000000000000020000000000000000000000000000000000000000000004000000000000000080000",
      "type": "0x0",
      "transactionHash": "0x3fdc4a073870252142c0d9676e50730011551179c61e88f3e5782e16504eebb6",
      "transactionIndex": "0x5",
      "blockHash": "0xac777f8f783b1d67769d4672fa309d82653deb6817fb6ed10027a564f91336c4",
      "blockNumber": "0x2a90110",
      "gasUsed": "0x25fdf",
      "effectiveGasPrice": "0x5d22cfc40",
      "from": "0x3a4db9e7306af09012ceb0f222d581fd1f0c6d71",
      "to": "0xae84b9e6dba48d14f4ec7741666c976c0556a295",
      "contractAddress": null,
      "l1BaseFeeScalar": "0x0",
      "l1BlobBaseFee": "0x1",
      "l1BlobBaseFeeScalar": "0x0",
      "l1Fee": "0x0",
      "l1GasPrice": "0x8",
      "l1GasUsed": "0x71d"
    },
    {
      "status": "0x1",
      "cumulativeGasUsed": "0x83e01",
      "logs": [
        {
          "address": "0xae84b9e6dba48d14f4ec7741666c976c0556a295",
          "topics": [
            "0x523322d7afb07cee28d04498651096af062004e1f14315eff2e4a60290dfadda",
            "0x0000000000000000000000003a4db9e7306af09012ceb0f222d581fd1f0c6d71",
            "0x0000000000000000000000003b346548fbfa74623047b1e199a96576dd156f2e"
          ],
          "data": "0x00000000000000000000000000000000000000000000003635c9adc5dea00000",
          "blockHash": "0xac777f8f783b1d67769d4672fa309d82653deb6817fb6ed10027a564f91336c4",
          "blockNumber": "0x2a90110",
          "transactionHash": "0xd0ab722e3c93f147d6af985d7ea55832e9ea0dab37a91ca0e55bdc07bd934409",
          "transactionIndex": "0x6",
          "logIndex": "0x8",
          "removed": false
        }
      ],
      "logsBloom": "0x00000000000000000000000000000008000000004000000000000000000000000000000000000000000000000000000000080000000000000000000000000000000000020000000000000000000000000000000000000101000000000000000000000000000000000000000000000000000000000000000000000000000000000000000000000000000000000000400000000000000000000000000000000000000000000000000000000000000000000000000000000000000000000010000000040000000080000000000000000000000000000200001000000000000000000000000000000000000000000000000000000000000000000000000000000000",
      "type": "0x0",
      "transactionHash": "0xd0ab722e3c93f147d6af985d7ea55832e9ea0dab37a91ca0e55bdc07bd934409",
      "transactionIndex": "0x6",
      "blockHash": "0xac777f8f783b1d67769d4672fa309d82653deb6817fb6ed10027a564f91336c4",
      "blockNumber": "0x2a90110",
      "gasUsed": "0xb306",
      "effectiveGasPrice": "0x5d22cfc40",
      "from": "0x3a4db9e7306af09012ceb0f222d581fd1f0c6d71",
      "to": "0xae84b9e6dba48d14f4ec7741666c976c0556a295",
      "contractAddress": null,
      "l1BaseFeeScalar": "0x0",
      "l1BlobBaseFee": "0x1",
      "l1BlobBaseFeeScalar": "0x0",
      "l1Fee": "0x0",
      "l1GasPrice": "0x8",
      "l1GasUsed": "0x829"
    },
    {
      "status": "0x1",
      "cumulativeGasUsed": "0xa1e93",
      "logs": [
        {
          "address": "0xae84b9e6dba48d14f4ec7741666c976c0556a295",
          "topics": [
            "0x0a3fbbea70e93f2daafa3102f5c9a1b8315e6d7a1e43e4bc020bc1162327470a",
            "0x0000000000000000000000003a4db9e7306af09012ceb0f222d581fd1f0c6d71",
            "0x0000000000000000000000003b346548fbfa74623047b1e199a96576dd156f2e"
          ],
          "data": "0x00000000000000000000000000000000000000000000001b1ae4d6e2ef500000",
          "blockHash": "0xac777f8f783b1d67769d4672fa309d82653deb6817fb6ed10027a564f91336c4",
          "blockNumber": "0x2a90110",
          "transactionHash": "0x5370dd64d4d31733b1184412f17f5336255c0d28ff44a8e97b6a7a269b1c1b16",
          "transactionIndex": "0x7",
          "logIndex": "0x9",
          "removed": false
        }
      ],
      "logsBloom": "0x00000000000000000000000000000008000000004000000000000000000000000000000010000000000000000000080000000000000000000000000000000000000000000000000000000000000000000000000000000101000000000000000000000000000000000000000000800000000000000000000000000000000000000000000000000000000000000000400000000000000000000000000000000000000000000000000000000000000000000000000000000000000000000010000000000000000080000000000000000000000000000200001000000000000000000000000000000000000000000000000000000000000000000000000000000000",
      "type": "0x0",
      "transactionHash": "0x5370dd64d4d31733b1184412f17f5336255c0d28ff44a8e97b6a7a269b1c1b16",
      "transactionIndex": "0x7",
      "blockHash": "0xac777f8f783b1d67769d4672fa309d82653deb6817fb6ed10027a564f91336c4",
      "blockNumber": "0x2a90110",
      "gasUsed": "0x1e092",
      "effectiveGasPrice": "0x5d22cfc40",
      "from": "0x3a4db9e7306af09012ceb0f222d581fd1f0c6d71",
      "to": "0xae84b9e6dba48d14f4ec7741666c976c0556a295",
      "contractAddress": null,
      "l1BaseFeeScalar": "0x0",
      "l1BlobBaseFee": "0x1",
      "l1BlobBaseFeeScalar": "0x0",
      "l1Fee": "0x0",
      "l1GasPrice": "0x8",
      "l1GasUsed": "0x90c"
    },
    {
      "status": "0x1",
      "cumulativeGasUsed": "0xad5e3",
      "logs": [
        {
          "address": "0xac166a1b90308ca742db5b388ffcbdc3e17a186c",
          "topics": [
            "0x8c5be1e5ebec7d5bd14f71427d1e84f3dd0314c0f7b2291e5b200ac8c7c3b925",
            "0x0000000000000000000000003a4db9e7306af09012ceb0f222d581fd1f0c6d71",
            "0x000000000000000000000000b2e25650a3da02fe0e3d51128d7887535819b689"
          ],
          "data": "0x0000000000000000000000000000000000000000000000000de0b6b3a7640000",
          "blockHash": "0xac777f8f783b1d67769d4672fa309d82653deb6817fb6ed10027a564f91336c4",
          "blockNumber": "0x2a90110",
          "transactionHash": "0xe5b205c307d10d19d55c94e25107e6ec2004a7e35f4fd453ad3ef367eb8f0c42",
          "transactionIndex": "0x8",
          "logIndex": "0xa",
          "removed": false
        }
      ],
      "logsBloom": "0x00000000000000000000000000000000000000000000000000000000000000000000000000000000000000000000000000000000000000000000000000200000000000000000000000000000000000000000000000000000000000080000000002000000000000000000000000000000000000000000000000000000000000008000000000000000000000002000400000000000000000000000000000000000020000000000000000000000000000000000000000000000000000000000000000000000000080000000000000004000000000000000003000000000000000000010000000000000000000000000000000000000000000000000000000000000",
      "type": "0x0",
      "transactionHash": "0xe5b205c307d10d19d55c94e25107e6ec2004a7e35f4fd453ad3ef367eb8f0c42",
      "transactionIndex": "0x8",
      "blockHash": "0xac777f8f783b1d67769d4672fa309d82653deb6817fb6ed10027a564f91336c4",
      "blockNumber": "0x2a90110",
      "gasUsed": "0xb750",
      "effectiveGasPrice": "0x5d22cfc40",
      "from": "0x3a4db9e7306af09012ceb0f222d581fd1f0c6d71",
      "to": "0xac166a1b90308ca742db5b388ffcbdc3e17a186c",
      "contractAddress": null,
      "l1BaseFeeScalar": "0x0",
      "l1BlobBaseFee": "0x1",
      "l1BlobBaseFeeScalar": "0x0",
      "l1Fee": "0x0",
      "l1GasPrice": "0x8",
      "l1GasUsed": "0x640"
    },
    {
      "status": "0x1",
      "cumulativeGasUsed": "0x112218",
      "logs": [
        {
          "address": "0xac166a1b90308ca742db5b388ffcbdc3e17a186c",
          "topics": [
            "0xddf252ad1be2c89b69c2b068fc378daa952ba7f163c4a11628f55a4df523b3ef",
            "0x0000000000000000000000003a4db9e7306af09012ceb0f222d581fd1f0c6d71",
            "0x000000000000000000000000b2e25650a3da02fe0e3d51128d7887535819b689"
          ],
          "data": "0x0000000000000000000000000000000000000000000000000de0b6b3a7640000",
          "blockHash": "0xac777f8f783b1d67769d4672fa309d82653deb6817fb6ed10027a564f91336c4",
          "blockNumber": "0x2a90110",
          "transactionHash": "0x193c40890d72453ffc519696e8be3d7bd929ea473f8e39e793ce0b097fd0aa32",
          "transactionIndex": "0x9",
          "logIndex": "0xb",
          "removed": false
        },
        {
          "address": "0xac166a1b90308ca742db5b388ffcbdc3e17a186c",
          "topics": [
            "0x8c5be1e5ebec7d5bd14f71427d1e84f3dd0314c0f7b2291e5b200ac8c7c3b925",
            "0x000000000000000000000000b2e25650a3da02fe0e3d51128d7887535819b689",
            "0x000000000000000000000000ae84b9e6dba48d14f4ec7741666c976c0556a295"
          ],
          "data": "0x0000000000000000000000000000000000000000000000000de0b6b3a7640000",
          "blockHash": "0xac777f8f783b1d67769d4672fa309d82653deb6817fb6ed10027a564f91336c4",
          "blockNumber": "0x2a90110",
          "transactionHash": "0x193c40890d72453ffc519696e8be3d7bd929ea473f8e39e793ce0b097fd0aa32",
          "transactionIndex": "0x9",
          "logIndex": "0xc",
          "removed": false
        },
        {
          "address": "0xac166a1b90308ca742db5b388ffcbdc3e17a186c",
          "topics": [
            "0xddf252ad1be2c89b69c2b068fc378daa952ba7f163c4a11628f55a4df523b3ef",
            "0x000000000000000000000000b2e25650a3da02fe0e3d51128d7887535819b689",
            "0x000000000000000000000000ae84b9e6dba48d14f4ec7741666c976c0556a295"
          ],
          "data": "0x0000000000000000000000000000000000000000000000000de0b6b3a7640000",
          "blockHash": "0xac777f8f783b1d67769d4672fa309d82653deb6817fb6ed10027a564f91336c4",
          "blockNumber": "0x2a90110",
          "transactionHash": "0x193c40890d72453ffc519696e8be3d7bd929ea473f8e39e793ce0b097fd0aa32",
          "transactionIndex": "0x9",
          "logIndex": "0xd",
          "removed": false
        },
        {
          "address": "0xac166a1b90308ca742db5b388ffcbdc3e17a186c",
          "topics": [
            "0x8c5be1e5ebec7d5bd14f71427d1e84f3dd0314c0f7b2291e5b200ac8c7c3b925",
            "0x000000000000000000000000ae84b9e6dba48d14f4ec7741666c976c0556a295",
            "0x0000000000000000000000000466be5953f6e0695a846c44926ad4789a68d3f2"
          ],
          "data": "0x0000000000000000000000000000000000000000000000000de0b6b3a7640000",
          "blockHash": "0xac777f8f783b1d67769d4672fa309d82653deb6817fb6ed10027a564f91336c4",
          "blockNumber": "0x2a90110",
          "transactionHash": "0x193c40890d72453ffc519696e8be3d7bd929ea473f8e39e793ce0b097fd0aa32",
          "transactionIndex": "0x9",
          "logIndex": "0xe",
          "removed": false
        },
        {
          "address": "0xae84b9e6dba48d14f4ec7741666c976c0556a295",
          "topics": [
            "0x523322d7afb07cee28d04498651096af062004e1f14315eff2e4a60290dfadda",
            "0x000000000000000000000000b2e25650a3da02fe0e3d51128d7887535819b689",
            "0x000000000000000000000000ac166a1b90308ca742db5b388ffcbdc3e17a186c"
          ],
          "data": "0x0000000000000000000000000000000000000000000000000de0b6b3a7640000",
          "blockHash": "0xac777f8f783b1d67769d4672fa309d82653deb6817fb6ed10027a564f91336c4",
          "blockNumber": "0x2a90110",
          "transactionHash": "0x193c40890d72453ffc519696e8be3d7bd929ea473f8e39e793ce0b097fd0aa32",
          "transactionIndex": "0x9",
          "logIndex": "0xf",
          "removed": false
        },
        {
          "address": "0x3b346548fbfa74623047b1e199a96576dd156f2e",
          "topics": [
            "0xddf252ad1be2c89b69c2b068fc378daa952ba7f163c4a11628f55a4df523b3ef",
            "0x0000000000000000000000000000000000000000000000000000000000000000",
            "0x000000000000000000000000ae84b9e6dba48d14f4ec7741666c976c0556a295"
          ],
          "data": "0x00000000000000000000000000000000000000000000000d8d726b7177a80000",
          "blockHash": "0xac777f8f783b1d67769d4672fa309d82653deb6817fb6ed10027a564f91336c4",
          "blockNumber": "0x2a90110",
          "transactionHash": "0x193c40890d72453ffc519696e8be3d7bd929ea473f8e39e793ce0b097fd0aa32",
          "transactionIndex": "0x9",
          "logIndex": "0x10",
          "removed": false
        },
        {
          "address": "0xae84b9e6dba48d14f4ec7741666c976c0556a295",
          "topics": [
            "0xc14e9e6b4d98a542b05a0f6b64acd5f4cbdb914be88432d87486b664e97071a7",
            "0x000000000000000000000000b2e25650a3da02fe0e3d51128d7887535819b689",
            "0x0000000000000000000000003b346548fbfa74623047b1e199a96576dd156f2e"
          ],
          "data": "0x00000000000000000000000000000000000000000000000d8d726b7177a800000000000000000000000000000000000000000000000000000000000000000002",
          "blockHash": "0xac777f8f783b1d67769d4672fa309d82653deb6817fb6ed10027a564f91336c4",
          "blockNumber": "0x2a90110",
          "transactionHash": "0x193c40890d72453ffc519696e8be3d7bd929ea473f8e39e793ce0b097fd0aa32",
          "transactionIndex": "0x9",
          "logIndex": "0x11",
          "removed": false
        },
        {
          "address": "0x3b346548fbfa74623047b1e199a96576dd156f2e",
          "topics": [
            "0xddf252ad1be2c89b69c2b068fc378daa952ba7f163c4a11628f55a4df523b3ef",
            "0x000000000000000000000000b2e25650a3da02fe0e3d51128d7887535819b689",
            "0x0000000000000000000000003a4db9e7306af09012ceb0f222d581fd1f0c6d71"
          ],
          "data": "0x00000000000000000000000000000000000000000000000d8d726b7177a80000",
          "blockHash": "0xac777f8f783b1d67769d4672fa309d82653deb6817fb6ed10027a564f91336c4",
          "blockNumber": "0x2a90110",
          "transactionHash": "0x193c40890d72453ffc519696e8be3d7bd929ea473f8e39e793ce0b097fd0aa32",
          "transactionIndex": "0x9",
          "logIndex": "0x12",
          "removed": false
        },
        {
          "address": "0xb2e25650a3da02fe0e3d51128d7887535819b689",
          "topics": [
            "0x9f9b498443531d2db9df8a00ec466efc74ba50ec1d82f7badd3424b87930e19a",
            "0x0000000000000000000000000000000000000000000000000000000000000001",
            "0x0000000000000000000000003a4db9e7306af09012ceb0f222d581fd1f0c6d71"
          ],
          "data": "0x000000000000000000000000ac166a1b90308ca742db5b388ffcbdc3e17a186c0000000000000000000000000000000000000000000000000de0b6b3a76400000000000000000000000000003b346548fbfa74623047b1e199a96576dd156f2e00000000000000000000000000000000000000000000000d8d726b7177a800000000000000000000000000000000000000000000000000000000000000000002",
          "blockHash": "0xac777f8f783b1d67769d4672fa309d82653deb6817fb6ed10027a564f91336c4",
          "blockNumber": "0x2a90110",
          "transactionHash": "0x193c40890d72453ffc519696e8be3d7bd929ea473f8e39e793ce0b097fd0aa32",
          "transactionIndex": "0x9",
          "logIndex": "0x13",
          "removed": false
        }
      ],
      "logsBloom": "0x0000000000000000000000000000000800000100400000000000000000000000000000000000000000002000000000000008000000000000000800000024000000000002000100000000000800002000400000000004010140000008002000000200000002040000000000000000180000000012000000000000001000000000800000000000000000000000200040000000000000000000000000000004000002000000000000000400000000002000000000000100000000000000001000000004000200008000000000000000c000000000000200003000020000000060000010000000000000000000000000000000000000004000002000000000080000",
      "type": "0x0",
      "transactionHash": "0x193c40890d72453ffc519696e8be3d7bd929ea473f8e39e793ce0b097fd0aa32",
      "transactionIndex": "0x9",
      "blockHash": "0xac777f8f783b1d67769d4672fa309d82653deb6817fb6ed10027a564f91336c4",
      "blockNumber": "0x2a90110",
      "gasUsed": "0x64c35",
      "effectiveGasPrice": "0x5d22cfc40",
      "from": "0x3a4db9e7306af09012ceb0f222d581fd1f0c6d71",
      "to": "0xb2e25650a3da02fe0e3d51128d7887535819b689",
      "contractAddress": null,
      "l1BaseFeeScalar": "0x0",
      "l1BlobBaseFee": "0x1",
      "l1BlobBaseFeeScalar": "0x0",
      "l1Fee": "0x0",
      "l1GasPrice": "0x8",
      "l1GasUsed": "0x7d8"
    },
    {
      "status": "0x1",
      "cumulativeGasUsed": "0x11d98b",
      "logs": [
        {
          "address": "0x3b346548fbfa74623047b1e199a96576dd156f2e",
          "topics": [
            "0x8c5be1e5ebec7d5bd14f71427d1e84f3dd0314c0f7b2291e5b200ac8c7c3b925",
            "0x0000000000000000000000003a4db9e7306af09012ceb0f222d581fd1f0c6d71",
            "0x000000000000000000000000b2e25650a3da02fe0e3d51128d7887535819b689"
          ],
          "data": "0x000000000000000000000000000000000000000000000003635c9adc5dea0000",
          "blockHash": "0xac777f8f783b1d67769d4672fa309d82653deb6817fb6ed10027a564f91336c4",
          "blockNumber": "0x2a90110",
          "transactionHash": "0xe385e8e61859d715cd08b7eaa476d2c4cdfd4b5eb77cbec284fb8367a0bd5d3d",
          "transactionIndex": "0xa",
          "logIndex": "0x14",
          "removed": false
        }
      ],
      "logsBloom": "0x00000000000000000000000000000000000001000000000000000000000000000000000000000000000000000000000000000000000000000000000000200000000000000000000000000000000000004000000000000000000000000000000000000000000000000000000000000000000000000000000000000000000000008000000000000000000000002000400000000000000000000000000000000000020000000000000000000000000020000000000000000000000000000000000000000000000080000000000000000000000000000000003000000000000000000010000000000000000000000000000000000000000000000000000000000000",
      "type": "0x0",
      "transactionHash": "0xe385e8e61859d715cd08b7eaa476d2c4cdfd4b5eb77cbec284fb8367a0bd5d3d",
      "transactionIndex": "0xa",
      "blockHash": "0xac777f8f783b1d67769d4672fa309d82653deb6817fb6ed10027a564f91336c4",
      "blockNumber": "0x2a90110",
      "gasUsed": "0xb773",
      "effectiveGasPrice": "0x5d22cfc40",
      "from": "0x3a4db9e7306af09012ceb0f222d581fd1f0c6d71",
      "to": "0x3b346548fbfa74623047b1e199a96576dd156f2e",
      "contractAddress": null,
      "l1BaseFeeScalar": "0x0",
      "l1BlobBaseFee": "0x1",
      "l1BlobBaseFeeScalar": "0x0",
      "l1Fee": "0x0",
      "l1GasPrice": "0x8",
      "l1GasUsed": "0x640"
    },
    {
      "status": "0x1",
      "cumulativeGasUsed": "0x13dd94",
      "logs": [
        {
          "address": "0x3b346548fbfa74623047b1e199a96576dd156f2e",
          "topics": [
            "0xddf252ad1be2c89b69c2b068fc378daa952ba7f163c4a11628f55a4df523b3ef",
            "0x0000000000000000000000003a4db9e7306af09012ceb0f222d581fd1f0c6d71",
            "0x000000000000000000000000b2e25650a3da02fe0e3d51128d7887535819b689"
          ],
          "data": "0x000000000000000000000000000000000000000000000003635c9adc5dea0000",
          "blockHash": "0xac777f8f783b1d67769d4672fa309d82653deb6817fb6ed10027a564f91336c4",
          "blockNumber": "0x2a90110",
          "transactionHash": "0x8d3f684227d947c4d4b0fee1bf0d7974350b57db3bac04531a45af07433a3234",
          "transactionIndex": "0xb",
          "logIndex": "0x15",
          "removed": false
        },
        {
          "address": "0x3b346548fbfa74623047b1e199a96576dd156f2e",
          "topics": [
            "0x8c5be1e5ebec7d5bd14f71427d1e84f3dd0314c0f7b2291e5b200ac8c7c3b925",
            "0x000000000000000000000000b2e25650a3da02fe0e3d51128d7887535819b689",
            "0x000000000000000000000000ae84b9e6dba48d14f4ec7741666c976c0556a295"
          ],
          "data": "0x000000000000000000000000000000000000000000000003635c9adc5dea0000",
          "blockHash": "0xac777f8f783b1d67769d4672fa309d82653deb6817fb6ed10027a564f91336c4",
          "blockNumber": "0x2a90110",
          "transactionHash": "0x8d3f684227d947c4d4b0fee1bf0d7974350b57db3bac04531a45af07433a3234",
          "transactionIndex": "0xb",
          "logIndex": "0x16",
          "removed": false
        },
        {
          "address": "0x3b346548fbfa74623047b1e199a96576dd156f2e",
          "topics": [
            "0xddf252ad1be2c89b69c2b068fc378daa952ba7f163c4a11628f55a4df523b3ef",
            "0x000000000000000000000000b2e25650a3da02fe0e3d51128d7887535819b689",
            "0x000000000000000000000000ae84b9e6dba48d14f4ec7741666c976c0556a295"
          ],
          "data": "0x000000000000000000000000000000000000000000000003635c9adc5dea0000",
          "blockHash": "0xac777f8f783b1d67769d4672fa309d82653deb6817fb6ed10027a564f91336c4",
          "blockNumber": "0x2a90110",
          "transactionHash": "0x8d3f684227d947c4d4b0fee1bf0d7974350b57db3bac04531a45af07433a3234",
          "transactionIndex": "0xb",
          "logIndex": "0x17",
          "removed": false
        },
        {
          "address": "0x3b346548fbfa74623047b1e199a96576dd156f2e",
          "topics": [
            "0x8c5be1e5ebec7d5bd14f71427d1e84f3dd0314c0f7b2291e5b200ac8c7c3b925",
            "0x000000000000000000000000ae84b9e6dba48d14f4ec7741666c976c0556a295",
            "0x0000000000000000000000000466be5953f6e0695a846c44926ad4789a68d3f2"
          ],
          "data": "0x000000000000000000000000000000000000000000000003635c9adc5dea0000",
          "blockHash": "0xac777f8f783b1d67769d4672fa309d82653deb6817fb6ed10027a564f91336c4",
          "blockNumber": "0x2a90110",
          "transactionHash": "0x8d3f684227d947c4d4b0fee1bf0d7974350b57db3bac04531a45af07433a3234",
          "transactionIndex": "0xb",
          "logIndex": "0x18",
          "removed": false
        },
        {
          "address": "0xae84b9e6dba48d14f4ec7741666c976c0556a295",
          "topics": [
            "0x0a3fbbea70e93f2daafa3102f5c9a1b8315e6d7a1e43e4bc020bc1162327470a",
            "0x000000000000000000000000b2e25650a3da02fe0e3d51128d7887535819b689",
            "0x0000000000000000000000003b346548fbfa74623047b1e199a96576dd156f2e"
          ],
          "data": "0x000000000000000000000000000000000000000000000003635c9adc5dea0000",
          "blockHash": "0xac777f8f783b1d67769d4672fa309d82653deb6817fb6ed10027a564f91336c4",
          "blockNumber": "0x2a90110",
          "transactionHash": "0x8d3f684227d947c4d4b0fee1bf0d7974350b57db3bac04531a45af07433a3234",
          "transactionIndex": "0xb",
          "logIndex": "0x19",
          "removed": false
        },
        {
          "address": "0xb2e25650a3da02fe0e3d51128d7887535819b689",
          "topics": [
            "0x0d4979b0859a1951f8ed7cbe3b1994e740552588f27ba02ca0f8f1ddcad16e0c",
            "0x0000000000000000000000000000000000000000000000000000000000000001"
          ],
          "data": "0x000000000000000000000000000000000000000000000003635c9adc5dea0000",
          "blockHash": "0xac777f8f783b1d67769d4672fa309d82653deb6817fb6ed10027a564f91336c4",
          "blockNumber": "0x2a90110",
          "transactionHash": "0x8d3f684227d947c4d4b0fee1bf0d7974350b57db3bac04531a45af07433a3234",
          "transactionIndex": "0xb",
          "logIndex": "0x1a",
          "removed": false
        }
      ],
      "logsBloom": "0x00000000000000000000000010000008000001004000000000000000000000000000000010000000000000000000080000000000000000000008000000240000000000000001000000000008000020004000002000040101400000000000000080000000000400000000000000800000000000100000000000000010000000008000000000000000000000002000400000000000000000000000000000040000020000000000000000000000000020000000000001000000000000000010000000000002000080000000000000000000000000000200003000000000000040000010000000000000000000000000000000000000000000000000000000080000",
      "type": "0x0",
      "transactionHash": "0x8d3f684227d947c4d4b0fee1bf0d7974350b57db3bac04531a45af07433a3234",
      "transactionIndex": "0xb",
      "blockHash": "0xac777f8f783b1d67769d4672fa309d82653deb6817fb6ed10027a564f91336c4",
      "blockNumber": "0x2a90110",
      "gasUsed": "0x20409",
      "effectiveGasPrice": "0x5d22cfc40",
      "from": "0x3a4db9e7306af09012ceb0f222d581fd1f0c6d71",
      "to": "0xb2e25650a3da02fe0e3d51128d7887535819b689",
      "contractAddress": null,
      "l1BaseFeeScalar": "0x0",
      "l1BlobBaseFee": "0x1",
      "l1BlobBaseFeeScalar": "0x0",
      "l1Fee": "0x0",
      "l1GasPrice": "0x8",
      "l1GasUsed": "0x640"
    },
    {
      "status": "0x1",
      "cumulativeGasUsed": "0x148736",
      "logs": [
        {
          "address": "0xae84b9e6dba48d14f4ec7741666c976c0556a295",
          "topics": [
            "0x0a3fbbea70e93f2daafa3102f5c9a1b8315e6d7a1e43e4bc020bc1162327470a",
            "0x000000000000000000000000b2e25650a3da02fe0e3d51128d7887535819b689",
            "0x0000000000000000000000003b346548fbfa74623047b1e199a96576dd156f2e"
          ],
          "data": "0x000000000000000000000000000000000000000000000003635c9adc5dea0000",
          "blockHash": "0xac777f8f783b1d67769d4672fa309d82653deb6817fb6ed10027a564f91336c4",
          "blockNumber": "0x2a90110",
          "transactionHash": "0x9f82ad7058649d017baedd38f55672d942cd540f7886f44e9708ee34786560d3",
          "transactionIndex": "0xc",
          "logIndex": "0x1b",
          "removed": false
        }
      ],
      "logsBloom": "0x00000000000000000000000000000008000000004000000000000000000000000000000010000000000000000000080000000000000000000000000000000000000000000000000000000000000000000000000000000101000000000000000000000000000000000000000000800000000000000000000000000000000000008000000000000000000000002000000000000000000000000000000000000000000000000000000000000000000000000000000000000000000000000010000000000000000000000000000000000000000000000200002000000000000000000000000000000000000000000000000000000000000000000000000000000000",
      "type": "0x0",
      "transactionHash": "0x9f82ad7058649d017baedd38f55672d942cd540f7886f44e9708ee34786560d3",
      "transactionIndex": "0xc",
      "blockHash": "0xac777f8f783b1d67769d4672fa309d82653deb6817fb6ed10027a564f91336c4",
      "blockNumber": "0x2a90110",
      "gasUsed": "0xa9a2",
      "effectiveGasPrice": "0x5d22cfc40",
      "from": "0x3a4db9e7306af09012ceb0f222d581fd1f0c6d71",
      "to": "0xae84b9e6dba48d14f4ec7741666c976c0556a295",
      "contractAddress": null,
      "l1BaseFeeScalar": "0x0",
      "l1BlobBaseFee": "0x1",
      "l1BlobBaseFeeScalar": "0x0",
      "l1Fee": "0x0",
      "l1GasPrice": "0x8",
      "l1GasUsed": "0x8ff"
    },
    {
      "status": "0x1",
      "cumulativeGasUsed": "0x153ea9",
      "logs": [
        {
          "address": "0x3b346548fbfa74623047b1e199a96576dd156f2e",
          "topics": [
            "0x8c5be1e5ebec7d5bd14f71427d1e84f3dd0314c0f7b2291e5b200ac8c7c3b925",
            "0x0000000000000000000000003a4db9e7306af09012ceb0f222d581fd1f0c6d71",
            "0x000000000000000000000000b2e25650a3da02fe0e3d51128d7887535819b689"
          ],
          "data": "0x00000000000000000000000000000000000000000000000a2a15d09519be0000",
          "blockHash": "0xac777f8f783b1d67769d4672fa309d82653deb6817fb6ed10027a564f91336c4",
          "blockNumber": "0x2a90110",
          "transactionHash": "0x9823502319708df37917676611f65ea482ae31b8bcb086f28cbfcbd0e3048f1e",
          "transactionIndex": "0xd",
          "logIndex": "0x1c",
          "removed": false
        }
      ],
      "logsBloom": "0x00000000000000000000000000000000000001000000000000000000000000000000000000000000000000000000000000000000000000000000000000200000000000000000000000000000000000004000000000000000000000000000000000000000000000000000000000000000000000000000000000000000000000008000000000000000000000002000400000000000000000000000000000000000020000000000000000000000000020000000000000000000000000000000000000000000000080000000000000000000000000000000003000000000000000000010000000000000000000000000000000000000000000000000000000000000",
      "type": "0x0",
      "transactionHash": "0x9823502319708df37917676611f65ea482ae31b8bcb086f28cbfcbd0e3048f1e",
      "transactionIndex": "0xd",
      "blockHash": "0xac777f8f783b1d67769d4672fa309d82653deb6817fb6ed10027a564f91336c4",
      "blockNumber": "0x2a90110",
      "gasUsed": "0xb773",
      "effectiveGasPrice": "0x5d22cfc40",
      "from": "0x3a4db9e7306af09012ceb0f222d581fd1f0c6d71",
      "to": "0x3b346548fbfa74623047b1e199a96576dd156f2e",
      "contractAddress": null,
      "l1BaseFeeScalar": "0x0",
      "l1BlobBaseFee": "0x1",
      "l1BlobBaseFeeScalar": "0x0",
      "l1Fee": "0x0",
      "l1GasPrice": "0x8",
      "l1GasUsed": "0x640"
    },
    {
      "status": "0x1",
      "cumulativeGasUsed": "0x187505",
      "logs": [
        {
          "address": "0x3b346548fbfa74623047b1e199a96576dd156f2e",
          "topics": [
            "0xddf252ad1be2c89b69c2b068fc378daa952ba7f163c4a11628f55a4df523b3ef",
            "0x0000000000000000000000003a4db9e7306af09012ceb0f222d581fd1f0c6d71",
            "0x000000000000000000000000b2e25650a3da02fe0e3d51128d7887535819b689"
          ],
          "data": "0x00000000000000000000000000000000000000000000000a2a15d09519be0000",
          "blockHash": "0xac777f8f783b1d67769d4672fa309d82653deb6817fb6ed10027a564f91336c4",
          "blockNumber": "0x2a90110",
          "transactionHash": "0x93dad2a4ea3c9f68ae887ecdc2eaf7b015ed49ca71276dd5d6419dd6994f70d8",
          "transactionIndex": "0xe",
          "logIndex": "0x1d",
          "removed": false
        },
        {
          "address": "0x3b346548fbfa74623047b1e199a96576dd156f2e",
          "topics": [
            "0x8c5be1e5ebec7d5bd14f71427d1e84f3dd0314c0f7b2291e5b200ac8c7c3b925",
            "0x000000000000000000000000b2e25650a3da02fe0e3d51128d7887535819b689",
            "0x000000000000000000000000ae84b9e6dba48d14f4ec7741666c976c0556a295"
          ],
          "data": "0x00000000000000000000000000000000000000000000000a2a15d09519be0000",
          "blockHash": "0xac777f8f783b1d67769d4672fa309d82653deb6817fb6ed10027a564f91336c4",
          "blockNumber": "0x2a90110",
          "transactionHash": "0x93dad2a4ea3c9f68ae887ecdc2eaf7b015ed49ca71276dd5d6419dd6994f70d8",
          "transactionIndex": "0xe",
          "logIndex": "0x1e",
          "removed": false
        },
        {
          "address": "0x3b346548fbfa74623047b1e199a96576dd156f2e",
          "topics": [
            "0xddf252ad1be2c89b69c2b068fc378daa952ba7f163c4a11628f55a4df523b3ef",
            "0x000000000000000000000000b2e25650a3da02fe0e3d51128d7887535819b689",
            "0x000000000000000000000000ae84b9e6dba48d14f4ec7741666c976c0556a295"
          ],
          "data": "0x00000000000000000000000000000000000000000000000a2a15d09519be0000",
          "blockHash": "0xac777f8f783b1d67769d4672fa309d82653deb6817fb6ed10027a564f91336c4",
          "blockNumber": "0x2a90110",
          "transactionHash": "0x93dad2a4ea3c9f68ae887ecdc2eaf7b015ed49ca71276dd5d6419dd6994f70d8",
          "transactionIndex": "0xe",
          "logIndex": "0x1f",
          "removed": false
        },
        {
          "address": "0x3b346548fbfa74623047b1e199a96576dd156f2e",
          "topics": [
            "0x8c5be1e5ebec7d5bd14f71427d1e84f3dd0314c0f7b2291e5b200ac8c7c3b925",
            "0x000000000000000000000000ae84b9e6dba48d14f4ec7741666c976c0556a295",
            "0x0000000000000000000000000466be5953f6e0695a846c44926ad4789a68d3f2"
          ],
          "data": "0x00000000000000000000000000000000000000000000000a2a15d09519be0000",
          "blockHash": "0xac777f8f783b1d67769d4672fa309d82653deb6817fb6ed10027a564f91336c4",
          "blockNumber": "0x2a90110",
          "transactionHash": "0x93dad2a4ea3c9f68ae887ecdc2eaf7b015ed49ca71276dd5d6419dd6994f70d8",
          "transactionIndex": "0xe",
          "logIndex": "0x20",
          "removed": false
        },
        {
          "address": "0xae84b9e6dba48d14f4ec7741666c976c0556a295",
          "topics": [
            "0x0a3fbbea70e93f2daafa3102f5c9a1b8315e6d7a1e43e4bc020bc1162327470a",
            "0x000000000000000000000000b2e25650a3da02fe0e3d51128d7887535819b689",
            "0x0000000000000000000000003b346548fbfa74623047b1e199a96576dd156f2e"
          ],
          "data": "0x00000000000000000000000000000000000000000000000a2a15d09519be0000",
          "blockHash": "0xac777f8f783b1d67769d4672fa309d82653deb6817fb6ed10027a564f91336c4",
          "blockNumber": "0x2a90110",
          "transactionHash": "0x93dad2a4ea3c9f68ae887ecdc2eaf7b015ed49ca71276dd5d6419dd6994f70d8",
          "transactionIndex": "0xe",
          "logIndex": "0x21",
          "removed": false
        },
        {
          "address": "0xac166a1b90308ca742db5b388ffcbdc3e17a186c",
          "topics": [
            "0xddf252ad1be2c89b69c2b068fc378daa952ba7f163c4a11628f55a4df523b3ef",
            "0x0000000000000000000000000000000000000000000000000000000000000000",
            "0x0000000000000000000000003a4db9e7306af09012ceb0f222d581fd1f0c6d71"
          ],
          "data": "0x00000000000000000000000000000000000000000000003635c9adc5dea00000",
          "blockHash": "0xac777f8f783b1d67769d4672fa309d82653deb6817fb6ed10027a564f91336c4",
          "blockNumber": "0x2a90110",
          "transactionHash": "0x93dad2a4ea3c9f68ae887ecdc2eaf7b015ed49ca71276dd5d6419dd6994f70d8",
          "transactionIndex": "0xe",
          "logIndex": "0x22",
          "removed": false
        },
        {
          "address": "0xae84b9e6dba48d14f4ec7741666c976c0556a295",
          "topics": [
            "0xd1c19fbcd4551a5edfb66d43d2e337c04837afda3482b42bdf569a8fccdae5fb",
            "0x000000000000000000000000b2e25650a3da02fe0e3d51128d7887535819b689",
            "0x000000000000000000000000ac166a1b90308ca742db5b388ffcbdc3e17a186c"
          ],
          "data": "0xffffffffffffffffffffffffffffffffffffffffffffffffffffffffffffffff",
          "blockHash": "0xac777f8f783b1d67769d4672fa309d82653deb6817fb6ed10027a564f91336c4",
          "blockNumber": "0x2a90110",
          "transactionHash": "0x93dad2a4ea3c9f68ae887ecdc2eaf7b015ed49ca71276dd5d6419dd6994f70d8",
          "transactionIndex": "0xe",
          "logIndex": "0x23",
          "removed": false
        },
        {
          "address": "0xb2e25650a3da02fe0e3d51128d7887535819b689",
          "topics": [
            "0xcefaf961c5013063cf501ffd9f9382e9b9c4b15741ad032fe93d7e9c7c733b22",
            "0x0000000000000000000000000000000000000000000000000000000000000001",
            "0x0000000000000000000000003a4db9e7306af09012ceb0f222d581fd1f0c6d71"
          ],
          "data": "0x",
          "blockHash": "0xac777f8f783b1d67769d4672fa309d82653deb6817fb6ed10027a564f91336c4",
          "blockNumber": "0x2a90110",
          "transactionHash": "0x93dad2a4ea3c9f68ae887ecdc2eaf7b015ed49ca71276dd5d6419dd6994f70d8",
          "transactionIndex": "0xe",
          "logIndex": "0x24",
          "removed": false
        }
      ],
      "logsBloom": "0x00000000000000000000000000000008000021004000000000000000000000000000000010000000000000000000080000000000000000000008000000240000000000000001000000000008000220004000000000040101400000081000000002000000020400000000000000841800000000100000000000000010000000008000000000000000000000002000400000000000000000000000000000040000020000000000000006000000000020000000000001000000000000000010000000000002000080000000000000004000000000000200003000000000000060000010000000000000000000080000000000000000000000002000000000080000",
      "type": "0x0",
      "transactionHash": "0x93dad2a4ea3c9f68ae887ecdc2eaf7b015ed49ca71276dd5d6419dd6994f70d8",
      "transactionIndex": "0xe",
      "blockHash": "0xac777f8f783b1d67769d4672fa309d82653deb6817fb6ed10027a564f91336c4",
      "blockNumber": "0x2a90110",
      "gasUsed": "0x3365c",
      "effectiveGasPrice": "0x5d22cfc40",
      "from": "0x3a4db9e7306af09012ceb0f222d581fd1f0c6d71",
      "to": "0xb2e25650a3da02fe0e3d51128d7887535819b689",
      "contractAddress": null,
      "l1BaseFeeScalar": "0x0",
      "l1BlobBaseFee": "0x1",
      "l1BlobBaseFeeScalar": "0x0",
      "l1Fee": "0x0",
      "l1GasPrice": "0x8",
      "l1GasUsed": "0x640"
    }
  ],
  "libraries": [],
  "pending": [],
  "returns": {},
  "timestamp": 1745585609,
  "chain": 44787,
  "commit": "144c6c6"
}