{
  "transactions": [
    {
      "hash": "0xf6a72d947a5287f5c0cdc912a5a9da0bebf0d9420b826f06632149cf20c887be",
      "transactionType": "CALL",
      "contractName": null,
      "contractAddress": "0x7262bfada9f61530119693d532e716d5cd3191ec",
      "function": "mint(address,uint256)",
      "arguments": [
        "0x3A4dB9e7306aF09012ceb0f222d581FD1F0C6D71",
        "10000000000"
      ],
      "transaction": {
        "from": "0x3a4db9e7306af09012ceb0f222d581fd1f0c6d71",
        "to": "0x7262bfada9f61530119693d532e716d5cd3191ec",
        "gas": "0xc63a",
        "value": "0x0",
        "input": "0x40c10f190000000000000000000000003a4db9e7306af09012ceb0f222d581fd1f0c6d7100000000000000000000000000000000000000000000000000000002540be400",
        "nonce": "0x7d",
        "chainId": "0xaef3"
      },
      "additionalContracts": [],
      "isFixedGasLimit": false
    },
    {
      "hash": "0x3892137ed8ab071350384553a35acb356a3eb32b7e35bb808d0a6fd62d69e57a",
      "transactionType": "CALL",
      "contractName": null,
      "contractAddress": "0xac166a1b90308ca742db5b388ffcbdc3e17a186c",
      "function": "mint(address,uint256)",
      "arguments": [
        "0x3A4dB9e7306aF09012ceb0f222d581FD1F0C6D71",
        "10000000000000000000"
      ],
      "transaction": {
        "from": "0x3a4db9e7306af09012ceb0f222d581fd1f0c6d71",
        "to": "0xac166a1b90308ca742db5b388ffcbdc3e17a186c",
        "gas": "0xc65d",
        "value": "0x0",
        "input": "0x40c10f190000000000000000000000003a4db9e7306af09012ceb0f222d581fd1f0c6d710000000000000000000000000000000000000000000000008ac7230489e80000",
        "nonce": "0x7e",
        "chainId": "0xaef3"
      },
      "additionalContracts": [],
      "isFixedGasLimit": false
    },
    {
      "hash": "0xd39cb5f951f5dd231f02f57166363ef8daa90c4d75b73089db8f986a0a7cf2bf",
      "transactionType": "CALL",
      "contractName": null,
      "contractAddress": "0x3b346548fbfa74623047b1e199a96576dd156f2e",
      "function": "mint(address,uint256)",
      "arguments": [
        "0x3A4dB9e7306aF09012ceb0f222d581FD1F0C6D71",
        "10000000000000000000000"
      ],
      "transaction": {
        "from": "0x3a4db9e7306af09012ceb0f222d581fd1f0c6d71",
        "to": "0x3b346548fbfa74623047b1e199a96576dd156f2e",
        "gas": "0xbbf4",
        "value": "0x0",
        "input": "0x40c10f190000000000000000000000003a4db9e7306af09012ceb0f222d581fd1f0c6d7100000000000000000000000000000000000000000000021e19e0c9bab2400000",
        "nonce": "0x7f",
        "chainId": "0xaef3"
      },
      "additionalContracts": [],
      "isFixedGasLimit": false
    },
    {
      "hash": "0x16d6fa9628583e17f4591fb8fe8cb24c96b2bd0ae0309c399269135fa40098c2",
      "transactionType": "CALL",
      "contractName": null,
      "contractAddress": "0x3b346548fbfa74623047b1e199a96576dd156f2e",
      "function": "mint(address,uint256)",
      "arguments": [
        "0x283E260f03f80982d9D3A83A30A574DFF335D563",
        "10000000000000000000000"
      ],
      "transaction": {
        "from": "0x3a4db9e7306af09012ceb0f222d581fd1f0c6d71",
        "to": "0x3b346548fbfa74623047b1e199a96576dd156f2e",
        "gas": "0xbbf4",
        "value": "0x0",
        "input": "0x40c10f19000000000000000000000000283e260f03f80982d9d3a83a30a574dff335d56300000000000000000000000000000000000000000000021e19e0c9bab2400000",
        "nonce": "0x80",
        "chainId": "0xaef3"
      },
      "additionalContracts": [],
      "isFixedGasLimit": false
    },
    {
      "hash": "0x94606aff5c2fd2ac269a0b06900bbde8789d584f543b352a567a286530a8af0d",
      "transactionType": "CALL",
      "contractName": null,
      "contractAddress": "0xac166a1b90308ca742db5b388ffcbdc3e17a186c",
      "function": "approve(address,uint256)",
      "arguments": [
        "0x9113f4531aa608D96dEa970f7D9fE42dC9917A4c",
        "1000000000000000000"
      ],
      "transaction": {
        "from": "0x3a4db9e7306af09012ceb0f222d581fd1f0c6d71",
        "to": "0xac166a1b90308ca742db5b388ffcbdc3e17a186c",
        "gas": "0xfd33",
        "value": "0x0",
        "input": "0x095ea7b30000000000000000000000009113f4531aa608d96dea970f7d9fe42dc9917a4c0000000000000000000000000000000000000000000000000de0b6b3a7640000",
        "nonce": "0x81",
        "chainId": "0xaef3"
      },
      "additionalContracts": [],
      "isFixedGasLimit": false
    },
    {
      "hash": "0x0482454faf3ace10a9d78a7458de94ff7cffa75989c1163cbb2318fc1e94c435",
      "transactionType": "CALL",
      "contractName": "LendyProtocol",
      "contractAddress": "0x9113f4531aa608d96dea970f7d9fe42dc9917a4c",
      "function": "supply(address,uint256,address,uint16)",
      "arguments": [
        "0xAC166A1B90308cA742Db5b388FFCBdc3E17a186c",
        "1000000000000000000",
        "0x3A4dB9e7306aF09012ceb0f222d581FD1F0C6D71",
        "0"
      ],
      "transaction": {
        "from": "0x3a4db9e7306af09012ceb0f222d581fd1f0c6d71",
        "to": "0x9113f4531aa608d96dea970f7d9fe42dc9917a4c",
        "gas": "0x15721",
        "value": "0x0",
        "input": "0x617ba037000000000000000000000000ac166a1b90308ca742db5b388ffcbdc3e17a186c0000000000000000000000000000000000000000000000000de0b6b3a76400000000000000000000000000003a4db9e7306af09012ceb0f222d581fd1f0c6d710000000000000000000000000000000000000000000000000000000000000000",
        "nonce": "0x82",
        "chainId": "0xaef3"
      },
      "additionalContracts": [],
      "isFixedGasLimit": false
    },
    {
      "hash": "0x120e44b00e455a62339116d17f67b6f5d64802bab071b617a7d52ba79d713526",
      "transactionType": "CALL",
      "contractName": "LendyProtocol",
      "contractAddress": "0x9113f4531aa608d96dea970f7d9fe42dc9917a4c",
      "function": "borrow(address,uint256,uint256,uint16,address)",
      "arguments": [
        "0x7262Bfada9f61530119693d532E716D5CD3191eC",
        "100000000",
        "2",
        "0",
        "0x3A4dB9e7306aF09012ceb0f222d581FD1F0C6D71"
      ],
      "transaction": {
        "from": "0x3a4db9e7306af09012ceb0f222d581fd1f0c6d71",
        "to": "0x9113f4531aa608d96dea970f7d9fe42dc9917a4c",
        "gas": "0x15bba",
        "value": "0x0",
        "input": "0xa415bcad0000000000000000000000007262bfada9f61530119693d532e716d5cd3191ec0000000000000000000000000000000000000000000000000000000005f5e100000000000000000000000000000000000000000000000000000000000000000200000000000000000000000000000000000000000000000000000000000000000000000000000000000000003a4db9e7306af09012ceb0f222d581fd1f0c6d71",
        "nonce": "0x83",
        "chainId": "0xaef3"
      },
      "additionalContracts": [],
      "isFixedGasLimit": false
    },
    {
      "hash": "0x7c6a5244dc4b3d0eb6ec34683f6c889c9fbeb44975d1394b3def06c4ed22a594",
      "transactionType": "CALL",
      "contractName": "LendyProtocol",
      "contractAddress": "0x9113f4531aa608d96dea970f7d9fe42dc9917a4c",
      "function": "supplyWithPermit(address,uint256,address,uint16,uint256,uint8,bytes32,bytes32)",
      "arguments": [
        "0x3B346548fbfa74623047B1E199a96576dd156f2e",
        "1000000000000000000000",
        "0x3A4dB9e7306aF09012ceb0f222d581FD1F0C6D71",
        "0",
        "1745588116",
        "27",
        "0x0000000000000000000000000000000000000000000000000000000000000001",
        "0x0000000000000000000000000000000000000000000000000000000000000002"
      ],
      "transaction": {
        "from": "0x3a4db9e7306af09012ceb0f222d581fd1f0c6d71",
        "to": "0x9113f4531aa608d96dea970f7d9fe42dc9917a4c",
        "gas": "0xf107",
        "value": "0x0",
        "input": "0x02c205f00000000000000000000000003b346548fbfa74623047b1e199a96576dd156f2e00000000000000000000000000000000000000000000003635c9adc5dea000000000000000000000000000003a4db9e7306af09012ceb0f222d581fd1f0c6d71000000000000000000000000000000000000000000000000000000000000000000000000000000000000000000000000000000000000000000000000680b8f94000000000000000000000000000000000000000000000000000000000000001b00000000000000000000000000000000000000000000000000000000000000010000000000000000000000000000000000000000000000000000000000000002",
        "nonce": "0x84",
        "chainId": "0xaef3"
      },
      "additionalContracts": [],
      "isFixedGasLimit": false
    },
    {
      "hash": "0xac3d59e6fde7db2ed90e23261f4c7f7c546418a0c514b9b869dba91a117799b2",
      "transactionType": "CALL",
      "contractName": "LendyProtocol",
      "contractAddress": "0x9113f4531aa608d96dea970f7d9fe42dc9917a4c",
      "function": "repayWithPermit(address,uint256,uint256,address,uint256,uint8,bytes32,bytes32)",
      "arguments": [
        "0x3B346548fbfa74623047B1E199a96576dd156f2e",
        "500000000000000000000",
        "2",
        "0x3A4dB9e7306aF09012ceb0f222d581FD1F0C6D71",
        "1745588116",
        "27",
        "0x0000000000000000000000000000000000000000000000000000000000000001",
        "0x0000000000000000000000000000000000000000000000000000000000000002"
      ],
      "transaction": {
        "from": "0x3a4db9e7306af09012ceb0f222d581fd1f0c6d71",
        "to": "0x9113f4531aa608d96dea970f7d9fe42dc9917a4c",
        "gas": "0xfe66",
        "value": "0x0",
        "input": "0xee3e210b0000000000000000000000003b346548fbfa74623047b1e199a96576dd156f2e00000000000000000000000000000000000000000000001b1ae4d6e2ef50000000000000000000000000000000000000000000000000000000000000000000020000000000000000000000003a4db9e7306af09012ceb0f222d581fd1f0c6d7100000000000000000000000000000000000000000000000000000000680b8f94000000000000000000000000000000000000000000000000000000000000001b00000000000000000000000000000000000000000000000000000000000000010000000000000000000000000000000000000000000000000000000000000002",
        "nonce": "0x85",
        "chainId": "0xaef3"
      },
      "additionalContracts": [],
      "isFixedGasLimit": false
    },
    {
      "hash": "0xb76d33737c69b4f1c4251e5d22bc76df767659687164238d0ee938b5c086b4c2",
      "transactionType": "CALL",
      "contractName": null,
      "contractAddress": "0xac166a1b90308ca742db5b388ffcbdc3e17a186c",
      "function": "approve(address,uint256)",
      "arguments": [
        "0x283E260f03f80982d9D3A83A30A574DFF335D563",
        "1000000000000000000"
      ],
      "transaction": {
        "from": "0x3a4db9e7306af09012ceb0f222d581fd1f0c6d71",
        "to": "0xac166a1b90308ca742db5b388ffcbdc3e17a186c",
        "gas": "0xfd33",
        "value": "0x0",
        "input": "0x095ea7b3000000000000000000000000283e260f03f80982d9d3a83a30a574dff335d5630000000000000000000000000000000000000000000000000de0b6b3a7640000",
        "nonce": "0x86",
        "chainId": "0xaef3"
      },
      "additionalContracts": [],
      "isFixedGasLimit": false
    },
    {
      "hash": "0xf1027bf4c5854909fa7305831b9673c7ef74757e02789d52e1719d163373b421",
      "transactionType": "CALL",
      "contractName": "LendyPositionManager",
      "contractAddress": "0x283e260f03f80982d9d3a83a30a574dff335d563",
      "function": "createPosition(address,uint256,address,uint256,uint256)",
      "arguments": [
        "0xAC166A1B90308cA742Db5b388FFCBdc3E17a186c",
        "1000000000000000000",
        "0x3B346548fbfa74623047B1E199a96576dd156f2e",
        "250000000000000000000",
        "2"
      ],
      "transaction": {
        "from": "0x3a4db9e7306af09012ceb0f222d581fd1f0c6d71",
        "to": "0x283e260f03f80982d9d3a83a30a574dff335d563",
        "gas": "0x7a3f6",
        "value": "0x0",
        "input": "0xb0c3d5df000000000000000000000000ac166a1b90308ca742db5b388ffcbdc3e17a186c0000000000000000000000000000000000000000000000000de0b6b3a76400000000000000000000000000003b346548fbfa74623047b1e199a96576dd156f2e00000000000000000000000000000000000000000000000d8d726b7177a800000000000000000000000000000000000000000000000000000000000000000002",
        "nonce": "0x87",
        "chainId": "0xaef3"
      },
      "additionalContracts": [],
      "isFixedGasLimit": false
    },
    {
      "hash": "0xdfb33feeaff585d2e4e1278f83a63012f9829207b1bd6abfea8db124e13e11e0",
      "transactionType": "CALL",
      "contractName": null,
      "contractAddress": "0x3b346548fbfa74623047b1e199a96576dd156f2e",
      "function": "approve(address,uint256)",
      "arguments": [
        "0x283E260f03f80982d9D3A83A30A574DFF335D563",
        "62500000000000000000"
      ],
      "transaction": {
        "from": "0x3a4db9e7306af09012ceb0f222d581fd1f0c6d71",
        "to": "0x3b346548fbfa74623047b1e199a96576dd156f2e",
        "gas": "0x10c4a",
        "value": "0x0",
        "input": "0x095ea7b3000000000000000000000000283e260f03f80982d9d3a83a30a574dff335d563000000000000000000000000000000000000000000000003635c9adc5dea0000",
        "nonce": "0x88",
        "chainId": "0xaef3"
      },
      "additionalContracts": [],
      "isFixedGasLimit": false
    },
    {
      "hash": "0x734c00342e937bcee0eb9944c5f9440b237c0c01cc236bdd7a5356191b0166df",
      "transactionType": "CALL",
      "contractName": "LendyPositionManager",
      "contractAddress": "0x283e260f03f80982d9d3a83a30a574dff335d563",
      "function": "repayDebt(uint256,uint256)",
      "arguments": [
        "2",
        "62500000000000000000"
      ],
      "transaction": {
        "from": "0x3a4db9e7306af09012ceb0f222d581fd1f0c6d71",
        "to": "0x283e260f03f80982d9d3a83a30a574dff335d563",
        "gas": "0x2451a",
        "value": "0x0",
        "input": "0x015cb0a50000000000000000000000000000000000000000000000000000000000000002000000000000000000000000000000000000000000000003635c9adc5dea0000",
        "nonce": "0x89",
        "chainId": "0xaef3"
      },
      "additionalContracts": [],
      "isFixedGasLimit": false
    },
    {
      "hash": "0xee5aaeb804794075e7024334d8f19664118815c9395868737124b9b856a1005d",
      "transactionType": "CALL",
      "contractName": "LendyProtocol",
      "contractAddress": "0x9113f4531aa608d96dea970f7d9fe42dc9917a4c",
      "function": "repayWithPermit(address,uint256,uint256,address,uint256,uint8,bytes32,bytes32)",
      "arguments": [
        "0x3B346548fbfa74623047B1E199a96576dd156f2e",
        "62500000000000000000",
        "2",
        "0x283E260f03f80982d9D3A83A30A574DFF335D563",
        "1745588116",
        "27",
        "0x0000000000000000000000000000000000000000000000000000000000000001",
        "0x0000000000000000000000000000000000000000000000000000000000000002"
      ],
      "transaction": {
        "from": "0x3a4db9e7306af09012ceb0f222d581fd1f0c6d71",
        "to": "0x9113f4531aa608d96dea970f7d9fe42dc9917a4c",
        "gas": "0xe02f",
        "value": "0x0",
        "input": "0xee3e210b0000000000000000000000003b346548fbfa74623047b1e199a96576dd156f2e000000000000000000000000000000000000000000000003635c9adc5dea00000000000000000000000000000000000000000000000000000000000000000002000000000000000000000000283e260f03f80982d9d3a83a30a574dff335d56300000000000000000000000000000000000000000000000000000000680b8f94000000000000000000000000000000000000000000000000000000000000001b00000000000000000000000000000000000000000000000000000000000000010000000000000000000000000000000000000000000000000000000000000002",
        "nonce": "0x8a",
        "chainId": "0xaef3"
      },
      "additionalContracts": [],
      "isFixedGasLimit": false
    },
    {
      "hash": "0x0472232b9de076369922bbf113c85a2ad922bcffb671081bb764018fe88c2cc7",
      "transactionType": "CALL",
      "contractName": null,
      "contractAddress": "0x3b346548fbfa74623047b1e199a96576dd156f2e",
      "function": "approve(address,uint256)",
      "arguments": [
        "0x283E260f03f80982d9D3A83A30A574DFF335D563",
        "187500000000000000000"
      ],
      "transaction": {
        "from": "0x3a4db9e7306af09012ceb0f222d581fd1f0c6d71",
        "to": "0x3b346548fbfa74623047b1e199a96576dd156f2e",
        "gas": "0x10c4a",
        "value": "0x0",
        "input": "0x095ea7b3000000000000000000000000283e260f03f80982d9d3a83a30a574dff335d56300000000000000000000000000000000000000000000000a2a15d09519be0000",
        "nonce": "0x8b",
        "chainId": "0xaef3"
      },
      "additionalContracts": [],
      "isFixedGasLimit": false
    },
    {
      "hash": "0x6b52c9c071453264a0c6f6aef2980c9f56e000c9f0c93265775bc6a00340de46",
      "transactionType": "CALL",
      "contractName": "LendyPositionManager",
      "contractAddress": "0x283e260f03f80982d9d3a83a30a574dff335d563",
      "function": "closePosition(uint256)",
      "arguments": [
        "2"
      ],
      "transaction": {
        "from": "0x3a4db9e7306af09012ceb0f222d581fd1f0c6d71",
        "to": "0x283e260f03f80982d9d3a83a30a574dff335d563",
        "gas": "0x33169",
        "value": "0x0",
        "input": "0xa126d6010000000000000000000000000000000000000000000000000000000000000002",
        "nonce": "0x8c",
        "chainId": "0xaef3"
      },
      "additionalContracts": [],
      "isFixedGasLimit": false
    }
  ],
  "receipts": [
    {
      "status": "0x1",
      "cumulativeGasUsed": "0x1358d",
      "logs": [
        {
          "address": "0x7262bfada9f61530119693d532e716d5cd3191ec",
          "topics": [
            "0xddf252ad1be2c89b69c2b068fc378daa952ba7f163c4a11628f55a4df523b3ef",
            "0x0000000000000000000000000000000000000000000000000000000000000000",
            "0x0000000000000000000000003a4db9e7306af09012ceb0f222d581fd1f0c6d71"
          ],
          "data": "0x00000000000000000000000000000000000000000000000000000002540be400",
          "blockHash": "0x1f62276ff4fd73569b21b0b90d0cd4c1c38a08c0fe91adac293f1bd95d7971b9",
          "blockNumber": "0x2a8fcec",
          "transactionHash": "0xf6a72d947a5287f5c0cdc912a5a9da0bebf0d9420b826f06632149cf20c887be",
          "transactionIndex": "0x1",
          "logIndex": "0x0",
          "removed": false
        }
      ],
      "logsBloom": "0x00000000000000000000000000000000000000000000000000000000000000000000000000000000000000000000000000000000000000000000000000000000100000000000000000000008000000000000000000000000000000100000000000000000020000000000000000000800000000000000000000000050000000000000000000000000000000000000400000000000000000000000000000000000000000000000000000000000000000000000000000000000000000000000000000000002000080000000000000000000000000000000001000000000000020000000000000000000000000000000000000000000000000000000000000000000",
      "type": "0x0",
      "transactionHash": "0xf6a72d947a5287f5c0cdc912a5a9da0bebf0d9420b826f06632149cf20c887be",
      "transactionIndex": "0x1",
      "blockHash": "0x1f62276ff4fd73569b21b0b90d0cd4c1c38a08c0fe91adac293f1bd95d7971b9",
      "blockNumber": "0x2a8fcec",
      "gasUsed": "0x878b",
      "effectiveGasPrice": "0x5d22cfc40",
      "from": "0x3a4db9e7306af09012ceb0f222d581fd1f0c6d71",
      "to": "0x7262bfada9f61530119693d532e716d5cd3191ec",
      "contractAddress": null,
      "l1BaseFeeScalar": "0x0",
      "l1BlobBaseFee": "0x1",
      "l1BlobBaseFeeScalar": "0x0",
      "l1Fee": "0x0",
      "l1GasPrice": "0x8",
      "l1GasUsed": "0x640"
    },
    {
      "status": "0x1",
      "cumulativeGasUsed": "0x1bd30",
      "logs": [
        {
          "address": "0xac166a1b90308ca742db5b388ffcbdc3e17a186c",
          "topics": [
            "0xddf252ad1be2c89b69c2b068fc378daa952ba7f163c4a11628f55a4df523b3ef",
            "0x0000000000000000000000000000000000000000000000000000000000000000",
            "0x0000000000000000000000003a4db9e7306af09012ceb0f222d581fd1f0c6d71"
          ],
          "data": "0x0000000000000000000000000000000000000000000000008ac7230489e80000",
          "blockHash": "0x1f62276ff4fd73569b21b0b90d0cd4c1c38a08c0fe91adac293f1bd95d7971b9",
          "blockNumber": "0x2a8fcec",
          "transactionHash": "0x3892137ed8ab071350384553a35acb356a3eb32b7e35bb808d0a6fd62d69e57a",
          "transactionIndex": "0x2",
          "logIndex": "0x1",
          "removed": false
        }
      ],
      "logsBloom": "0x00000000000000000000000000000000000000000000000000000000000000000000000000000000000000000000000000000000000000000000000000000000000000000000000000000008000000000000000000000000000000080000000002000000020000000000000000000800000000000000000000000010000000000000000000000000000000000000400000000000000000000000000000000000000000000000000000000000000000000000000000000000000000000000000000000002000080000000000000004000000000000000001000000000000020000000000000000000000000000000000000000000000000000000000000000000",
      "type": "0x0",
      "transactionHash": "0x3892137ed8ab071350384553a35acb356a3eb32b7e35bb808d0a6fd62d69e57a",
      "transactionIndex": "0x2",
      "blockHash": "0x1f62276ff4fd73569b21b0b90d0cd4c1c38a08c0fe91adac293f1bd95d7971b9",
      "blockNumber": "0x2a8fcec",
      "gasUsed": "0x87a3",
      "effectiveGasPrice": "0x5d22cfc40",
      "from": "0x3a4db9e7306af09012ceb0f222d581fd1f0c6d71",
      "to": "0xac166a1b90308ca742db5b388ffcbdc3e17a186c",
      "contractAddress": null,
      "l1BaseFeeScalar": "0x0",
      "l1BlobBaseFee": "0x1",
      "l1BlobBaseFeeScalar": "0x0",
      "l1Fee": "0x0",
      "l1GasPrice": "0x8",
      "l1GasUsed": "0x640"
    },
    {
      "status": "0x1",
      "cumulativeGasUsed": "0x24544",
      "logs": [
        {
          "address": "0x3b346548fbfa74623047b1e199a96576dd156f2e",
          "topics": [
            "0xddf252ad1be2c89b69c2b068fc378daa952ba7f163c4a11628f55a4df523b3ef",
            "0x0000000000000000000000000000000000000000000000000000000000000000",
            "0x0000000000000000000000003a4db9e7306af09012ceb0f222d581fd1f0c6d71"
          ],
          "data": "0x00000000000000000000000000000000000000000000021e19e0c9bab2400000",
          "blockHash": "0x1f62276ff4fd73569b21b0b90d0cd4c1c38a08c0fe91adac293f1bd95d7971b9",
          "blockNumber": "0x2a8fcec",
          "transactionHash": "0xd39cb5f951f5dd231f02f57166363ef8daa90c4d75b73089db8f986a0a7cf2bf",
          "transactionIndex": "0x3",
          "logIndex": "0x2",
          "removed": false
        }
      ],
      "logsBloom": "0x00000000000000000000000000000000000001000000000000000000000000000000000000000000000000000000000000000000000000000000000000000000000000000000000000000008000000004000000000000000000000000000000000000000020000000000000000000800000000000000000000000010000000000000000000000000000000000000400000000000000000000000000000000000000000000000000000000000000020000000000000000000000000000000000000000002000080000000000000000000000000000000001000000000000020000000000000000000000000000000000000000000000000000000000000000000",
      "type": "0x0",
      "transactionHash": "0xd39cb5f951f5dd231f02f57166363ef8daa90c4d75b73089db8f986a0a7cf2bf",
      "transactionIndex": "0x3",
      "blockHash": "0x1f62276ff4fd73569b21b0b90d0cd4c1c38a08c0fe91adac293f1bd95d7971b9",
      "blockNumber": "0x2a8fcec",
      "gasUsed": "0x8814",
      "effectiveGasPrice": "0x5d22cfc40",
      "from": "0x3a4db9e7306af09012ceb0f222d581fd1f0c6d71",
      "to": "0x3b346548fbfa74623047b1e199a96576dd156f2e",
      "contractAddress": null,
      "l1BaseFeeScalar": "0x0",
      "l1BlobBaseFee": "0x1",
      "l1BlobBaseFeeScalar": "0x0",
      "l1Fee": "0x0",
      "l1GasPrice": "0x8",
      "l1GasUsed": "0x640"
    },
    {
      "status": "0x1",
      "cumulativeGasUsed": "0x2cd58",
      "logs": [
        {
          "address": "0x3b346548fbfa74623047b1e199a96576dd156f2e",
          "topics": [
            "0xddf252ad1be2c89b69c2b068fc378daa952ba7f163c4a11628f55a4df523b3ef",
            "0x0000000000000000000000000000000000000000000000000000000000000000",
            "0x000000000000000000000000283e260f03f80982d9d3a83a30a574dff335d563"
          ],
          "data": "0x00000000000000000000000000000000000000000000021e19e0c9bab2400000",
          "blockHash": "0x1f62276ff4fd73569b21b0b90d0cd4c1c38a08c0fe91adac293f1bd95d7971b9",
          "blockNumber": "0x2a8fcec",
          "transactionHash": "0x16d6fa9628583e17f4591fb8fe8cb24c96b2bd0ae0309c399269135fa40098c2",
          "transactionIndex": "0x4",
          "logIndex": "0x3",
          "removed": false
        }
      ],
      "logsBloom": "0x00000000000000002000000000000000000001000000000000000000000000000000000000000000000000000000000000000000000000000000000000000000000000000000000000000008000000004000000000000000000000000000000000000000020000000000000000000800000000000800000000000010000000000000000000000000000000000000000000000000000000000000000000000000008000000000000000000000000020000000000000000000000000000000000000000002000000000000000000000000000000000000000000000000000020000000000000000000000000000000000000000000000000000000000000000000",
      "type": "0x0",
      "transactionHash": "0x16d6fa9628583e17f4591fb8fe8cb24c96b2bd0ae0309c399269135fa40098c2",
      "transactionIndex": "0x4",
      "blockHash": "0x1f62276ff4fd73569b21b0b90d0cd4c1c38a08c0fe91adac293f1bd95d7971b9",
      "blockNumber": "0x2a8fcec",
      "gasUsed": "0x8814",
      "effectiveGasPrice": "0x5d22cfc40",
      "from": "0x3a4db9e7306af09012ceb0f222d581fd1f0c6d71",
      "to": "0x3b346548fbfa74623047b1e199a96576dd156f2e",
      "contractAddress": null,
      "l1BaseFeeScalar": "0x0",
      "l1BlobBaseFee": "0x1",
      "l1BlobBaseFeeScalar": "0x0",
      "l1Fee": "0x0",
      "l1GasPrice": "0x8",
      "l1GasUsed": "0x640"
    },
    {
      "status": "0x1",
      "cumulativeGasUsed": "0x384a8",
      "logs": [
        {
          "address": "0xac166a1b90308ca742db5b388ffcbdc3e17a186c",
          "topics": [
            "0x8c5be1e5ebec7d5bd14f71427d1e84f3dd0314c0f7b2291e5b200ac8c7c3b925",
            "0x0000000000000000000000003a4db9e7306af09012ceb0f222d581fd1f0c6d71",
            "0x0000000000000000000000009113f4531aa608d96dea970f7d9fe42dc9917a4c"
          ],
          "data": "0x0000000000000000000000000000000000000000000000000de0b6b3a7640000",
          "blockHash": "0x1f62276ff4fd73569b21b0b90d0cd4c1c38a08c0fe91adac293f1bd95d7971b9",
          "blockNumber": "0x2a8fcec",
          "transactionHash": "0x94606aff5c2fd2ac269a0b06900bbde8789d584f543b352a567a286530a8af0d",
          "transactionIndex": "0x5",
          "logIndex": "0x4",
          "removed": false
        }
      ],
      "logsBloom": "0x00000000000000000000000000000000000000000000000000000000000000000000000000000000000000000000000000000000000000000100000000200000000000000000000000000000000010000000000000000000000000080000000002000000000000000000000000000000000000000000000000000000000000000000000000000000000000000000400000000400000000000000000000000000020000000000000000000000000000000000000000000000000000000000000000000000000080000000000000004000000000000000001000000000000000000010000000000000000000000000000000000000000000000000000000000000",
      "type": "0x0",
      "transactionHash": "0x94606aff5c2fd2ac269a0b06900bbde8789d584f543b352a567a286530a8af0d",
      "transactionIndex": "0x5",
      "blockHash": "0x1f62276ff4fd73569b21b0b90d0cd4c1c38a08c0fe91adac293f1bd95d7971b9",
      "blockNumber": "0x2a8fcec",
      "gasUsed": "0xb750",
      "effectiveGasPrice": "0x5d22cfc40",
      "from": "0x3a4db9e7306af09012ceb0f222d581fd1f0c6d71",
      "to": "0xac166a1b90308ca742db5b388ffcbdc3e17a186c",
      "contractAddress": null,
      "l1BaseFeeScalar": "0x0",
      "l1BlobBaseFee": "0x1",
      "l1BlobBaseFeeScalar": "0x0",
      "l1Fee": "0x0",
      "l1GasPrice": "0x8",
      "l1GasUsed": "0x640"
    },
    {
      "status": "0x1",
      "cumulativeGasUsed": "0x47d14",
      "logs": [
        {
          "address": "0xac166a1b90308ca742db5b388ffcbdc3e17a186c",
          "topics": [
            "0xddf252ad1be2c89b69c2b068fc378daa952ba7f163c4a11628f55a4df523b3ef",
            "0x0000000000000000000000003a4db9e7306af09012ceb0f222d581fd1f0c6d71",
            "0x0000000000000000000000009113f4531aa608d96dea970f7d9fe42dc9917a4c"
          ],
          "data": "0x0000000000000000000000000000000000000000000000000de0b6b3a7640000",
          "blockHash": "0x1f62276ff4fd73569b21b0b90d0cd4c1c38a08c0fe91adac293f1bd95d7971b9",
          "blockNumber": "0x2a8fcec",
          "transactionHash": "0x0482454faf3ace10a9d78a7458de94ff7cffa75989c1163cbb2318fc1e94c435",
          "transactionIndex": "0x6",
          "logIndex": "0x5",
          "removed": false
        },
        {
          "address": "0xac166a1b90308ca742db5b388ffcbdc3e17a186c",
          "topics": [
            "0x8c5be1e5ebec7d5bd14f71427d1e84f3dd0314c0f7b2291e5b200ac8c7c3b925",
            "0x0000000000000000000000009113f4531aa608d96dea970f7d9fe42dc9917a4c",
            "0x0000000000000000000000009e650b3b18ab92bbd4e80fd6467aa10b904a045e"
          ],
          "data": "0x0000000000000000000000000000000000000000000000000de0b6b3a7640000",
          "blockHash": "0x1f62276ff4fd73569b21b0b90d0cd4c1c38a08c0fe91adac293f1bd95d7971b9",
          "blockNumber": "0x2a8fcec",
          "transactionHash": "0x0482454faf3ace10a9d78a7458de94ff7cffa75989c1163cbb2318fc1e94c435",
          "transactionIndex": "0x6",
          "logIndex": "0x6",
          "removed": false
        },
        {
          "address": "0x9113f4531aa608d96dea970f7d9fe42dc9917a4c",
          "topics": [
            "0x523322d7afb07cee28d04498651096af062004e1f14315eff2e4a60290dfadda",
            "0x0000000000000000000000003a4db9e7306af09012ceb0f222d581fd1f0c6d71",
            "0x000000000000000000000000ac166a1b90308ca742db5b388ffcbdc3e17a186c"
          ],
          "data": "0x0000000000000000000000000000000000000000000000000de0b6b3a7640000",
          "blockHash": "0x1f62276ff4fd73569b21b0b90d0cd4c1c38a08c0fe91adac293f1bd95d7971b9",
          "blockNumber": "0x2a8fcec",
          "transactionHash": "0x0482454faf3ace10a9d78a7458de94ff7cffa75989c1163cbb2318fc1e94c435",
          "transactionIndex": "0x6",
          "logIndex": "0x7",
          "removed": false
        }
      ],
      "logsBloom": "0x40000000000000000000040000000000000000000000000000000000000000000000000080000002000000000000000000080000000000000100000000200000000000020000000000000008000010000000000000000000000000080000000002000000000000000000000000001000000000000000000000000010000000000000000000000000000000000000400000000400000000000000000000000000020000000000000004000000000000000000000000000000000000000000000000040002000080000000000000004000000000000000001000000000000000000010080000000000000000000000000000000000000000002000000000000800",
      "type": "0x0",
      "transactionHash": "0x0482454faf3ace10a9d78a7458de94ff7cffa75989c1163cbb2318fc1e94c435",
      "transactionIndex": "0x6",
      "blockHash": "0x1f62276ff4fd73569b21b0b90d0cd4c1c38a08c0fe91adac293f1bd95d7971b9",
      "blockNumber": "0x2a8fcec",
      "gasUsed": "0xf86c",
      "effectiveGasPrice": "0x5d22cfc40",
      "from": "0x3a4db9e7306af09012ceb0f222d581fd1f0c6d71",
      "to": "0x9113f4531aa608d96dea970f7d9fe42dc9917a4c",
      "contractAddress": null,
      "l1BaseFeeScalar": "0x0",
      "l1BlobBaseFee": "0x1",
      "l1BlobBaseFeeScalar": "0x0",
      "l1Fee": "0x0",
      "l1GasPrice": "0x8",
      "l1GasUsed": "0x702"
    },
    {
      "status": "0x1",
      "cumulativeGasUsed": "0x578d4",
      "logs": [
        {
          "address": "0x7262bfada9f61530119693d532e716d5cd3191ec",
          "topics": [
            "0xddf252ad1be2c89b69c2b068fc378daa952ba7f163c4a11628f55a4df523b3ef",
            "0x0000000000000000000000000000000000000000000000000000000000000000",
            "0x0000000000000000000000009113f4531aa608d96dea970f7d9fe42dc9917a4c"
          ],
          "data": "0x0000000000000000000000000000000000000000000000000000000005f5e100",
          "blockHash": "0x1f62276ff4fd73569b21b0b90d0cd4c1c38a08c0fe91adac293f1bd95d7971b9",
          "blockNumber": "0x2a8fcec",
          "transactionHash": "0x120e44b00e455a62339116d17f67b6f5d64802bab071b617a7d52ba79d713526",
          "transactionIndex": "0x7",
          "logIndex": "0x8",
          "removed": false
        },
        {
          "address": "0x9113f4531aa608d96dea970f7d9fe42dc9917a4c",
          "topics": [
            "0xc14e9e6b4d98a542b05a0f6b64acd5f4cbdb914be88432d87486b664e97071a7",
            "0x0000000000000000000000003a4db9e7306af09012ceb0f222d581fd1f0c6d71",
            "0x0000000000000000000000007262bfada9f61530119693d532e716d5cd3191ec"
          ],
          "data": "0x0000000000000000000000000000000000000000000000000000000005f5e1000000000000000000000000000000000000000000000000000000000000000002",
          "blockHash": "0x1f62276ff4fd73569b21b0b90d0cd4c1c38a08c0fe91adac293f1bd95d7971b9",
          "blockNumber": "0x2a8fcec",
          "transactionHash": "0x120e44b00e455a62339116d17f67b6f5d64802bab071b617a7d52ba79d713526",
          "transactionIndex": "0x7",
          "logIndex": "0x9",
          "removed": false
        }
      ],
      "logsBloom": "0x00000000000000000000000000000100000000000000000000000000000000000000000080000002000000000000000000000000000000000100000000000000100000000000000000000008000010000000000000000000000000100020000000000000020000000000000000000800000000000000000000000050000000000000000000000000000000000000400000000400000000000000000000000000000000000000000000000000000000000000020000000000000000000000000000000002000080002000000000008000000000000000001000000000000020000000080000000000000000000000000000000000004000000000000000000000",
      "type": "0x0",
      "transactionHash": "0x120e44b00e455a62339116d17f67b6f5d64802bab071b617a7d52ba79d713526",
      "transactionIndex": "0x7",
      "blockHash": "0x1f62276ff4fd73569b21b0b90d0cd4c1c38a08c0fe91adac293f1bd95d7971b9",
      "blockNumber": "0x2a8fcec",
      "gasUsed": "0xfbc0",
      "effectiveGasPrice": "0x5d22cfc40",
      "from": "0x3a4db9e7306af09012ceb0f222d581fd1f0c6d71",
      "to": "0x9113f4531aa608d96dea970f7d9fe42dc9917a4c",
      "contractAddress": null,
      "l1BaseFeeScalar": "0x0",
      "l1BlobBaseFee": "0x1",
      "l1BlobBaseFeeScalar": "0x0",
      "l1Fee": "0x0",
      "l1GasPrice": "0x8",
      "l1GasUsed": "0x71d"
    },
    {
      "status": "0x1",
      "cumulativeGasUsed": "0x62754",
      "logs": [
        {
          "address": "0x9113f4531aa608d96dea970f7d9fe42dc9917a4c",
          "topics": [
            "0x523322d7afb07cee28d04498651096af062004e1f14315eff2e4a60290dfadda",
            "0x0000000000000000000000003a4db9e7306af09012ceb0f222d581fd1f0c6d71",
            "0x0000000000000000000000003b346548fbfa74623047b1e199a96576dd156f2e"
          ],
          "data": "0x00000000000000000000000000000000000000000000003635c9adc5dea00000",
          "blockHash": "0x1f62276ff4fd73569b21b0b90d0cd4c1c38a08c0fe91adac293f1bd95d7971b9",
          "blockNumber": "0x2a8fcec",
          "transactionHash": "0x7c6a5244dc4b3d0eb6ec34683f6c889c9fbeb44975d1394b3def06c4ed22a594",
          "transactionIndex": "0x8",
          "logIndex": "0xa",
          "removed": false
        }
      ],
      "logsBloom": "0x00000000000000000000000000000000000000000000000000000000000000000000000080000002000000000000000000080000000000000000000000000000000000020000000000000000000000000000000000000101000000000000000000000000000000000000000000000000000000000000000000000000000000000000000000000000000000000000400000000000000000000000000000000000000000000000000000000000000000000000000000000000000000000000000000040000000080000000000000000000000000000200001000000000000000000000080000000000000000000000000000000000000000000000000000000000",
      "type": "0x0",
      "transactionHash": "0x7c6a5244dc4b3d0eb6ec34683f6c889c9fbeb44975d1394b3def06c4ed22a594",
      "transactionIndex": "0x8",
      "blockHash": "0x1f62276ff4fd73569b21b0b90d0cd4c1c38a08c0fe91adac293f1bd95d7971b9",
      "blockNumber": "0x2a8fcec",
      "gasUsed": "0xae80",
      "effectiveGasPrice": "0x5d22cfc40",
      "from": "0x3a4db9e7306af09012ceb0f222d581fd1f0c6d71",
      "to": "0x9113f4531aa608d96dea970f7d9fe42dc9917a4c",
      "contractAddress": null,
      "l1BaseFeeScalar": "0x0",
      "l1BlobBaseFee": "0x1",
      "l1BlobBaseFeeScalar": "0x0",
      "l1Fee": "0x0",
      "l1GasPrice": "0x8",
      "l1GasUsed": "0x829"
    },
    {
      "status": "0x1",
      "cumulativeGasUsed": "0x6df83",
      "logs": [
        {
          "address": "0x9113f4531aa608d96dea970f7d9fe42dc9917a4c",
          "topics": [
            "0x0a3fbbea70e93f2daafa3102f5c9a1b8315e6d7a1e43e4bc020bc1162327470a",
            "0x0000000000000000000000003a4db9e7306af09012ceb0f222d581fd1f0c6d71",
            "0x0000000000000000000000003b346548fbfa74623047b1e199a96576dd156f2e"
          ],
          "data": "0x00000000000000000000000000000000000000000000001b1ae4d6e2ef500000",
          "blockHash": "0x1f62276ff4fd73569b21b0b90d0cd4c1c38a08c0fe91adac293f1bd95d7971b9",
          "blockNumber": "0x2a8fcec",
          "transactionHash": "0xac3d59e6fde7db2ed90e23261f4c7f7c546418a0c514b9b869dba91a117799b2",
          "transactionIndex": "0x9",
          "logIndex": "0xb",
          "removed": false
        }
      ],
      "logsBloom": "0x00000000000000000000000000000000000000000000000000000000000000000000000090000002000000000000080000000000000000000000000000000000000000000000000000000000000000000000000000000101000000000000000000000000000000000000000000800000000000000000000000000000000000000000000000000000000000000000400000000000000000000000000000000000000000000000000000000000000000000000000000000000000000000000000000000000000080000000000000000000000000000200001000000000000000000000080000000000000000000000000000000000000000000000000000000000",
      "type": "0x0",
      "transactionHash": "0xac3d59e6fde7db2ed90e23261f4c7f7c546418a0c514b9b869dba91a117799b2",
      "transactionIndex": "0x9",
      "blockHash": "0x1f62276ff4fd73569b21b0b90d0cd4c1c38a08c0fe91adac293f1bd95d7971b9",
      "blockNumber": "0x2a8fcec",
      "gasUsed": "0xb82f",
      "effectiveGasPrice": "0x5d22cfc40",
      "from": "0x3a4db9e7306af09012ceb0f222d581fd1f0c6d71",
      "to": "0x9113f4531aa608d96dea970f7d9fe42dc9917a4c",
      "contractAddress": null,
      "l1BaseFeeScalar": "0x0",
      "l1BlobBaseFee": "0x1",
      "l1BlobBaseFeeScalar": "0x0",
      "l1Fee": "0x0",
      "l1GasPrice": "0x8",
      "l1GasUsed": "0x8ff"
    },
    {
      "status": "0x1",
      "cumulativeGasUsed": "0x1a50a",
      "logs": [
        {
          "address": "0xac166a1b90308ca742db5b388ffcbdc3e17a186c",
          "topics": [
            "0x8c5be1e5ebec7d5bd14f71427d1e84f3dd0314c0f7b2291e5b200ac8c7c3b925",
            "0x0000000000000000000000003a4db9e7306af09012ceb0f222d581fd1f0c6d71",
            "0x000000000000000000000000283e260f03f80982d9d3a83a30a574dff335d563"
          ],
          "data": "0x0000000000000000000000000000000000000000000000000de0b6b3a7640000",
          "blockHash": "0xa940bc82abb5fd6a8479b0ee96b3f8e190b3569504d93b6bc0014e79f2cdb663",
          "blockNumber": "0x2a8fced",
          "transactionHash": "0xb76d33737c69b4f1c4251e5d22bc76df767659687164238d0ee938b5c086b4c2",
          "transactionIndex": "0x1",
          "logIndex": "0x0",
          "removed": false
        }
      ],
      "logsBloom": "0x00000000000000002000000000000000000000000000000000000000000000000000000000000000000000000000000000000000000000000000000000200000000000000000000000000000000000000000000000000000000000080000000002000000000000000000000000000000000000000800000000000000000000000000000000000000000000000000400000000000000000000000000000000000028000000000000000000000000000000000000000000000000000000000000000000000000080000000000000004000000000000000001000000000000000000010000000000000000000000000000000000000000000000000000000000000",
      "type": "0x0",
      "transactionHash": "0xb76d33737c69b4f1c4251e5d22bc76df767659687164238d0ee938b5c086b4c2",
      "transactionIndex": "0x1",
      "blockHash": "0xa940bc82abb5fd6a8479b0ee96b3f8e190b3569504d93b6bc0014e79f2cdb663",
      "blockNumber": "0x2a8fced",
      "gasUsed": "0xb750",
      "effectiveGasPrice": "0x5d22cfc40",
      "from": "0x3a4db9e7306af09012ceb0f222d581fd1f0c6d71",
      "to": "0xac166a1b90308ca742db5b388ffcbdc3e17a186c",
      "contractAddress": null,
      "l1BaseFeeScalar": "0x0",
      "l1BlobBaseFee": "0x1",
      "l1BlobBaseFeeScalar": "0x0",
      "l1Fee": "0x0",
      "l1GasPrice": "0x8",
      "l1GasUsed": "0x640"
    },
    {
      "status": "0x1",
      "cumulativeGasUsed": "0x6de73",
      "logs": [
        {
          "address": "0xac166a1b90308ca742db5b388ffcbdc3e17a186c",
          "topics": [
            "0xddf252ad1be2c89b69c2b068fc378daa952ba7f163c4a11628f55a4df523b3ef",
            "0x0000000000000000000000003a4db9e7306af09012ceb0f222d581fd1f0c6d71",
            "0x000000000000000000000000283e260f03f80982d9d3a83a30a574dff335d563"
          ],
          "data": "0x0000000000000000000000000000000000000000000000000de0b6b3a7640000",
          "blockHash": "0xa940bc82abb5fd6a8479b0ee96b3f8e190b3569504d93b6bc0014e79f2cdb663",
          "blockNumber": "0x2a8fced",
          "transactionHash": "0xf1027bf4c5854909fa7305831b9673c7ef74757e02789d52e1719d163373b421",
          "transactionIndex": "0x2",
          "logIndex": "0x1",
          "removed": false
        },
        {
          "address": "0xac166a1b90308ca742db5b388ffcbdc3e17a186c",
          "topics": [
            "0x8c5be1e5ebec7d5bd14f71427d1e84f3dd0314c0f7b2291e5b200ac8c7c3b925",
            "0x000000000000000000000000283e260f03f80982d9d3a83a30a574dff335d563",
            "0x0000000000000000000000009113f4531aa608d96dea970f7d9fe42dc9917a4c"
          ],
          "data": "0x0000000000000000000000000000000000000000000000000de0b6b3a7640000",
          "blockHash": "0xa940bc82abb5fd6a8479b0ee96b3f8e190b3569504d93b6bc0014e79f2cdb663",
          "blockNumber": "0x2a8fced",
          "transactionHash": "0xf1027bf4c5854909fa7305831b9673c7ef74757e02789d52e1719d163373b421",
          "transactionIndex": "0x2",
          "logIndex": "0x2",
          "removed": false
        },
        {
          "address": "0xac166a1b90308ca742db5b388ffcbdc3e17a186c",
          "topics": [
            "0xddf252ad1be2c89b69c2b068fc378daa952ba7f163c4a11628f55a4df523b3ef",
            "0x000000000000000000000000283e260f03f80982d9d3a83a30a574dff335d563",
            "0x0000000000000000000000009113f4531aa608d96dea970f7d9fe42dc9917a4c"
          ],
          "data": "0x0000000000000000000000000000000000000000000000000de0b6b3a7640000",
          "blockHash": "0xa940bc82abb5fd6a8479b0ee96b3f8e190b3569504d93b6bc0014e79f2cdb663",
          "blockNumber": "0x2a8fced",
          "transactionHash": "0xf1027bf4c5854909fa7305831b9673c7ef74757e02789d52e1719d163373b421",
          "transactionIndex": "0x2",
          "logIndex": "0x3",
          "removed": false
        },
        {
          "address": "0xac166a1b90308ca742db5b388ffcbdc3e17a186c",
          "topics": [
            "0x8c5be1e5ebec7d5bd14f71427d1e84f3dd0314c0f7b2291e5b200ac8c7c3b925",
            "0x0000000000000000000000009113f4531aa608d96dea970f7d9fe42dc9917a4c",
            "0x0000000000000000000000009e650b3b18ab92bbd4e80fd6467aa10b904a045e"
          ],
          "data": "0x0000000000000000000000000000000000000000000000000de0b6b3a7640000",
          "blockHash": "0xa940bc82abb5fd6a8479b0ee96b3f8e190b3569504d93b6bc0014e79f2cdb663",
          "blockNumber": "0x2a8fced",
          "transactionHash": "0xf1027bf4c5854909fa7305831b9673c7ef74757e02789d52e1719d163373b421",
          "transactionIndex": "0x2",
          "logIndex": "0x4",
          "removed": false
        },
        {
          "address": "0x9113f4531aa608d96dea970f7d9fe42dc9917a4c",
          "topics": [
            "0x523322d7afb07cee28d04498651096af062004e1f14315eff2e4a60290dfadda",
            "0x000000000000000000000000283e260f03f80982d9d3a83a30a574dff335d563",
            "0x000000000000000000000000ac166a1b90308ca742db5b388ffcbdc3e17a186c"
          ],
          "data": "0x0000000000000000000000000000000000000000000000000de0b6b3a7640000",
          "blockHash": "0xa940bc82abb5fd6a8479b0ee96b3f8e190b3569504d93b6bc0014e79f2cdb663",
          "blockNumber": "0x2a8fced",
          "transactionHash": "0xf1027bf4c5854909fa7305831b9673c7ef74757e02789d52e1719d163373b421",
          "transactionIndex": "0x2",
          "logIndex": "0x5",
          "removed": false
        },
        {
          "address": "0x3b346548fbfa74623047b1e199a96576dd156f2e",
          "topics": [
            "0xddf252ad1be2c89b69c2b068fc378daa952ba7f163c4a11628f55a4df523b3ef",
            "0x0000000000000000000000000000000000000000000000000000000000000000",
            "0x0000000000000000000000009113f4531aa608d96dea970f7d9fe42dc9917a4c"
          ],
          "data": "0x00000000000000000000000000000000000000000000000d8d726b7177a80000",
          "blockHash": "0xa940bc82abb5fd6a8479b0ee96b3f8e190b3569504d93b6bc0014e79f2cdb663",
          "blockNumber": "0x2a8fced",
          "transactionHash": "0xf1027bf4c5854909fa7305831b9673c7ef74757e02789d52e1719d163373b421",
          "transactionIndex": "0x2",
          "logIndex": "0x6",
          "removed": false
        },
        {
          "address": "0x9113f4531aa608d96dea970f7d9fe42dc9917a4c",
          "topics": [
            "0xc14e9e6b4d98a542b05a0f6b64acd5f4cbdb914be88432d87486b664e97071a7",
            "0x000000000000000000000000283e260f03f80982d9d3a83a30a574dff335d563",
            "0x0000000000000000000000003b346548fbfa74623047b1e199a96576dd156f2e"
          ],
          "data": "0x00000000000000000000000000000000000000000000000d8d726b7177a800000000000000000000000000000000000000000000000000000000000000000002",
          "blockHash": "0xa940bc82abb5fd6a8479b0ee96b3f8e190b3569504d93b6bc0014e79f2cdb663",
          "blockNumber": "0x2a8fced",
          "transactionHash": "0xf1027bf4c5854909fa7305831b9673c7ef74757e02789d52e1719d163373b421",
          "transactionIndex": "0x2",
          "logIndex": "0x7",
          "removed": false
        },
        {
          "address": "0x3b346548fbfa74623047b1e199a96576dd156f2e",
          "topics": [
            "0xddf252ad1be2c89b69c2b068fc378daa952ba7f163c4a11628f55a4df523b3ef",
            "0x000000000000000000000000283e260f03f80982d9d3a83a30a574dff335d563",
            "0x0000000000000000000000003a4db9e7306af09012ceb0f222d581fd1f0c6d71"
          ],
          "data": "0x00000000000000000000000000000000000000000000000d8d726b7177a80000",
          "blockHash": "0xa940bc82abb5fd6a8479b0ee96b3f8e190b3569504d93b6bc0014e79f2cdb663",
          "blockNumber": "0x2a8fced",
          "transactionHash": "0xf1027bf4c5854909fa7305831b9673c7ef74757e02789d52e1719d163373b421",
          "transactionIndex": "0x2",
          "logIndex": "0x8",
          "removed": false
        },
        {
          "address": "0x283e260f03f80982d9d3a83a30a574dff335d563",
          "topics": [
            "0x9f9b498443531d2db9df8a00ec466efc74ba50ec1d82f7badd3424b87930e19a",
            "0x0000000000000000000000000000000000000000000000000000000000000002",
            "0x0000000000000000000000003a4db9e7306af09012ceb0f222d581fd1f0c6d71"
          ],
          "data": "0x000000000000000000000000ac166a1b90308ca742db5b388ffcbdc3e17a186c0000000000000000000000000000000000000000000000000de0b6b3a76400000000000000000000000000003b346548fbfa74623047b1e199a96576dd156f2e00000000000000000000000000000000000000000000000d8d726b7177a800000000000000000000000000000000000000000000000000000000000000000002",
          "blockHash": "0xa940bc82abb5fd6a8479b0ee96b3f8e190b3569504d93b6bc0014e79f2cdb663",
          "blockNumber": "0x2a8fced",
          "transactionHash": "0xf1027bf4c5854909fa7305831b9673c7ef74757e02789d52e1719d163373b421",
          "transactionIndex": "0x2",
          "logIndex": "0x9",
          "removed": false
        }
      ],
      "logsBloom": "0x4400000000000000200004000000000000000100000000000000000000000000000000008000000200002000000000000008000000000000010000000020000000000002000200000000000800001000400000000000010100000008002000000200000002000000000000000000180000000002080000000000001000000000000000000000000000000000000040000000040000000000000000020000000002800000000000000400010000002000000000000000000000000000000000000004000200008000000000000000c00000000000020000100002000000002000001008000000000100000000000000000000000000c000002000000000000800",
      "type": "0x0",
      "transactionHash": "0xf1027bf4c5854909fa7305831b9673c7ef74757e02789d52e1719d163373b421",
      "transactionIndex": "0x2",
      "blockHash": "0xa940bc82abb5fd6a8479b0ee96b3f8e190b3569504d93b6bc0014e79f2cdb663",
      "blockNumber": "0x2a8fced",
      "gasUsed": "0x53969",
      "effectiveGasPrice": "0x5d22cfc40",
      "from": "0x3a4db9e7306af09012ceb0f222d581fd1f0c6d71",
      "to": "0x283e260f03f80982d9d3a83a30a574dff335d563",
      "contractAddress": null,
      "l1BaseFeeScalar": "0x0",
      "l1BlobBaseFee": "0x1",
      "l1BlobBaseFeeScalar": "0x0",
      "l1Fee": "0x0",
      "l1GasPrice": "0x8",
      "l1GasUsed": "0x7d8"
    },
    {
      "status": "0x1",
      "cumulativeGasUsed": "0x795e6",
      "logs": [
        {
          "address": "0x3b346548fbfa74623047b1e199a96576dd156f2e",
          "topics": [
            "0x8c5be1e5ebec7d5bd14f71427d1e84f3dd0314c0f7b2291e5b200ac8c7c3b925",
            "0x0000000000000000000000003a4db9e7306af09012ceb0f222d581fd1f0c6d71",
            "0x000000000000000000000000283e260f03f80982d9d3a83a30a574dff335d563"
          ],
          "data": "0x000000000000000000000000000000000000000000000003635c9adc5dea0000",
          "blockHash": "0xa940bc82abb5fd6a8479b0ee96b3f8e190b3569504d93b6bc0014e79f2cdb663",
          "blockNumber": "0x2a8fced",
          "transactionHash": "0xdfb33feeaff585d2e4e1278f83a63012f9829207b1bd6abfea8db124e13e11e0",
          "transactionIndex": "0x3",
          "logIndex": "0xa",
          "removed": false
        }
      ],
      "logsBloom": "0x00000000000000002000000000000000000001000000000000000000000000000000000000000000000000000000000000000000000000000000000000200000000000000000000000000000000000004000000000000000000000000000000000000000000000000000000000000000000000000800000000000000000000000000000000000000000000000000400000000000000000000000000000000000028000000000000000000000000020000000000000000000000000000000000000000000000080000000000000000000000000000000001000000000000000000010000000000000000000000000000000000000000000000000000000000000",
      "type": "0x0",
      "transactionHash": "0xdfb33feeaff585d2e4e1278f83a63012f9829207b1bd6abfea8db124e13e11e0",
      "transactionIndex": "0x3",
      "blockHash": "0xa940bc82abb5fd6a8479b0ee96b3f8e190b3569504d93b6bc0014e79f2cdb663",
      "blockNumber": "0x2a8fced",
      "gasUsed": "0xb773",
      "effectiveGasPrice": "0x5d22cfc40",
      "from": "0x3a4db9e7306af09012ceb0f222d581fd1f0c6d71",
      "to": "0x3b346548fbfa74623047b1e199a96576dd156f2e",
      "contractAddress": null,
      "l1BaseFeeScalar": "0x0",
      "l1BlobBaseFee": "0x1",
      "l1BlobBaseFeeScalar": "0x0",
      "l1Fee": "0x0",
      "l1GasPrice": "0x8",
      "l1GasUsed": "0x640"
    },
    {
      "status": "0x1",
      "cumulativeGasUsed": "0x93a9c",
      "logs": [
        {
          "address": "0x3b346548fbfa74623047b1e199a96576dd156f2e",
          "topics": [
            "0xddf252ad1be2c89b69c2b068fc378daa952ba7f163c4a11628f55a4df523b3ef",
            "0x0000000000000000000000003a4db9e7306af09012ceb0f222d581fd1f0c6d71",
            "0x000000000000000000000000283e260f03f80982d9d3a83a30a574dff335d563"
          ],
          "data": "0x000000000000000000000000000000000000000000000003635c9adc5dea0000",
          "blockHash": "0xa940bc82abb5fd6a8479b0ee96b3f8e190b3569504d93b6bc0014e79f2cdb663",
          "blockNumber": "0x2a8fced",
          "transactionHash": "0x734c00342e937bcee0eb9944c5f9440b237c0c01cc236bdd7a5356191b0166df",
          "transactionIndex": "0x4",
          "logIndex": "0xb",
          "removed": false
        },
        {
          "address": "0x3b346548fbfa74623047b1e199a96576dd156f2e",
          "topics": [
            "0x8c5be1e5ebec7d5bd14f71427d1e84f3dd0314c0f7b2291e5b200ac8c7c3b925",
            "0x000000000000000000000000283e260f03f80982d9d3a83a30a574dff335d563",
            "0x0000000000000000000000009113f4531aa608d96dea970f7d9fe42dc9917a4c"
          ],
          "data": "0x000000000000000000000000000000000000000000000003635c9adc5dea0000",
          "blockHash": "0xa940bc82abb5fd6a8479b0ee96b3f8e190b3569504d93b6bc0014e79f2cdb663",
          "blockNumber": "0x2a8fced",
          "transactionHash": "0x734c00342e937bcee0eb9944c5f9440b237c0c01cc236bdd7a5356191b0166df",
          "transactionIndex": "0x4",
          "logIndex": "0xc",
          "removed": false
        },
        {
          "address": "0x3b346548fbfa74623047b1e199a96576dd156f2e",
          "topics": [
            "0xddf252ad1be2c89b69c2b068fc378daa952ba7f163c4a11628f55a4df523b3ef",
            "0x000000000000000000000000283e260f03f80982d9d3a83a30a574dff335d563",
            "0x0000000000000000000000009113f4531aa608d96dea970f7d9fe42dc9917a4c"
          ],
          "data": "0x000000000000000000000000000000000000000000000003635c9adc5dea0000",
          "blockHash": "0xa940bc82abb5fd6a8479b0ee96b3f8e190b3569504d93b6bc0014e79f2cdb663",
          "blockNumber": "0x2a8fced",
          "transactionHash": "0x734c00342e937bcee0eb9944c5f9440b237c0c01cc236bdd7a5356191b0166df",
          "transactionIndex": "0x4",
          "logIndex": "0xd",
          "removed": false
        },
        {
          "address": "0x3b346548fbfa74623047b1e199a96576dd156f2e",
          "topics": [
            "0x8c5be1e5ebec7d5bd14f71427d1e84f3dd0314c0f7b2291e5b200ac8c7c3b925",
            "0x0000000000000000000000009113f4531aa608d96dea970f7d9fe42dc9917a4c",
            "0x0000000000000000000000009e650b3b18ab92bbd4e80fd6467aa10b904a045e"
          ],
          "data": "0x000000000000000000000000000000000000000000000003635c9adc5dea0000",
          "blockHash": "0xa940bc82abb5fd6a8479b0ee96b3f8e190b3569504d93b6bc0014e79f2cdb663",
          "blockNumber": "0x2a8fced",
          "transactionHash": "0x734c00342e937bcee0eb9944c5f9440b237c0c01cc236bdd7a5356191b0166df",
          "transactionIndex": "0x4",
          "logIndex": "0xe",
          "removed": false
        },
        {
          "address": "0x9113f4531aa608d96dea970f7d9fe42dc9917a4c",
          "topics": [
            "0x0a3fbbea70e93f2daafa3102f5c9a1b8315e6d7a1e43e4bc020bc1162327470a",
            "0x000000000000000000000000283e260f03f80982d9d3a83a30a574dff335d563",
            "0x0000000000000000000000003b346548fbfa74623047b1e199a96576dd156f2e"
          ],
          "data": "0x000000000000000000000000000000000000000000000003635c9adc5dea0000",
          "blockHash": "0xa940bc82abb5fd6a8479b0ee96b3f8e190b3569504d93b6bc0014e79f2cdb663",
          "blockNumber": "0x2a8fced",
          "transactionHash": "0x734c00342e937bcee0eb9944c5f9440b237c0c01cc236bdd7a5356191b0166df",
          "transactionIndex": "0x4",
          "logIndex": "0xf",
          "removed": false
        },
        {
          "address": "0x283e260f03f80982d9d3a83a30a574dff335d563",
          "topics": [
            "0x0d4979b0859a1951f8ed7cbe3b1994e740552588f27ba02ca0f8f1ddcad16e0c",
            "0x0000000000000000000000000000000000000000000000000000000000000002"
          ],
          "data": "0x000000000000000000000000000000000000000000000003635c9adc5dea0000",
          "blockHash": "0xa940bc82abb5fd6a8479b0ee96b3f8e190b3569504d93b6bc0014e79f2cdb663",
          "blockNumber": "0x2a8fced",
          "transactionHash": "0x734c00342e937bcee0eb9944c5f9440b237c0c01cc236bdd7a5356191b0166df",
          "transactionIndex": "0x4",
          "logIndex": "0x10",
          "removed": false
        }
      ],
      "logsBloom": "0x44000000000000002000040010000000000001000000000000000000000000000000000090000002000000000000080000000000000000000100000000200000000000000002000000000008000010004000002000000101000000000000000080000000000000000000000000800000000000000800000000000010000000000000000000000000000000000000400000000400000000000000000200000000028000000000000000000100000020000000000000000000000000000000000000000002000080000000000000000000000000000200001000000000000000000010080000000001000000000000000000000000008000000000000000000800",
      "type": "0x0",
      "transactionHash": "0x734c00342e937bcee0eb9944c5f9440b237c0c01cc236bdd7a5356191b0166df",
      "transactionIndex": "0x4",
      "blockHash": "0xa940bc82abb5fd6a8479b0ee96b3f8e190b3569504d93b6bc0014e79f2cdb663",
      "blockNumber": "0x2a8fced",
      "gasUsed": "0x1a4b6",
      "effectiveGasPrice": "0x5d22cfc40",
      "from": "0x3a4db9e7306af09012ceb0f222d581fd1f0c6d71",
      "to": "0x283e260f03f80982d9d3a83a30a574dff335d563",
      "contractAddress": null,
      "l1BaseFeeScalar": "0x0",
      "l1BlobBaseFee": "0x1",
      "l1BlobBaseFeeScalar": "0x0",
      "l1Fee": "0x0",
      "l1GasPrice": "0x8",
      "l1GasUsed": "0x640"
    },
    {
      "status": "0x1",
      "cumulativeGasUsed": "0x9dceb",
      "logs": [
        {
          "address": "0x9113f4531aa608d96dea970f7d9fe42dc9917a4c",
          "topics": [
            "0x0a3fbbea70e93f2daafa3102f5c9a1b8315e6d7a1e43e4bc020bc1162327470a",
            "0x000000000000000000000000283e260f03f80982d9d3a83a30a574dff335d563",
            "0x0000000000000000000000003b346548fbfa74623047b1e199a96576dd156f2e"
          ],
          "data": "0x000000000000000000000000000000000000000000000003635c9adc5dea0000",
          "blockHash": "0xa940bc82abb5fd6a8479b0ee96b3f8e190b3569504d93b6bc0014e79f2cdb663",
          "blockNumber": "0x2a8fced",
          "transactionHash": "0xee5aaeb804794075e7024334d8f19664118815c9395868737124b9b856a1005d",
          "transactionIndex": "0x5",
          "logIndex": "0x11",
          "removed": false
        }
      ],
      "logsBloom": "0x00000000000000002000000000000000000000000000000000000000000000000000000090000002000000000000080000000000000000000000000000000000000000000000000000000000000000000000000000000101000000000000000000000000000000000000000000800000000000000800000000000000000000000000000000000000000000000000000000000000000000000000000000000000008000000000000000000000000000000000000000000000000000000000000000000000000000000000000000000000000000000200000000000000000000000000080000000000000000000000000000000000000000000000000000000000",
      "type": "0x0",
      "transactionHash": "0xee5aaeb804794075e7024334d8f19664118815c9395868737124b9b856a1005d",
      "transactionIndex": "0x5",
      "blockHash": "0xa940bc82abb5fd6a8479b0ee96b3f8e190b3569504d93b6bc0014e79f2cdb663",
      "blockNumber": "0x2a8fced",
      "gasUsed": "0xa24f",
      "effectiveGasPrice": "0x5d22cfc40",
      "from": "0x3a4db9e7306af09012ceb0f222d581fd1f0c6d71",
      "to": "0x9113f4531aa608d96dea970f7d9fe42dc9917a4c",
      "contractAddress": null,
      "l1BaseFeeScalar": "0x0",
      "l1BlobBaseFee": "0x1",
      "l1BlobBaseFeeScalar": "0x0",
      "l1Fee": "0x0",
      "l1GasPrice": "0x8",
      "l1GasUsed": "0x8ff"
    },
    {
      "status": "0x1",
      "cumulativeGasUsed": "0xa945e",
      "logs": [
        {
          "address": "0x3b346548fbfa74623047b1e199a96576dd156f2e",
          "topics": [
            "0x8c5be1e5ebec7d5bd14f71427d1e84f3dd0314c0f7b2291e5b200ac8c7c3b925",
            "0x0000000000000000000000003a4db9e7306af09012ceb0f222d581fd1f0c6d71",
            "0x000000000000000000000000283e260f03f80982d9d3a83a30a574dff335d563"
          ],
          "data": "0x00000000000000000000000000000000000000000000000a2a15d09519be0000",
          "blockHash": "0xa940bc82abb5fd6a8479b0ee96b3f8e190b3569504d93b6bc0014e79f2cdb663",
          "blockNumber": "0x2a8fced",
          "transactionHash": "0x0472232b9de076369922bbf113c85a2ad922bcffb671081bb764018fe88c2cc7",
          "transactionIndex": "0x6",
          "logIndex": "0x12",
          "removed": false
        }
      ],
      "logsBloom": "0x00000000000000002000000000000000000001000000000000000000000000000000000000000000000000000000000000000000000000000000000000200000000000000000000000000000000000004000000000000000000000000000000000000000000000000000000000000000000000000800000000000000000000000000000000000000000000000000400000000000000000000000000000000000028000000000000000000000000020000000000000000000000000000000000000000000000080000000000000000000000000000000001000000000000000000010000000000000000000000000000000000000000000000000000000000000",
      "type": "0x0",
      "transactionHash": "0x0472232b9de076369922bbf113c85a2ad922bcffb671081bb764018fe88c2cc7",
      "transactionIndex": "0x6",
      "blockHash": "0xa940bc82abb5fd6a8479b0ee96b3f8e190b3569504d93b6bc0014e79f2cdb663",
      "blockNumber": "0x2a8fced",
      "gasUsed": "0xb773",
      "effectiveGasPrice": "0x5d22cfc40",
      "from": "0x3a4db9e7306af09012ceb0f222d581fd1f0c6d71",
      "to": "0x3b346548fbfa74623047b1e199a96576dd156f2e",
      "contractAddress": null,
      "l1BaseFeeScalar": "0x0",
      "l1BlobBaseFee": "0x1",
      "l1BlobBaseFeeScalar": "0x0",
      "l1Fee": "0x0",
      "l1GasPrice": "0x8",
      "l1GasUsed": "0x640"
    },
    {
      "status": "0x1",
      "cumulativeGasUsed": "0xcc348",
      "logs": [
        {
          "address": "0x3b346548fbfa74623047b1e199a96576dd156f2e",
          "topics": [
            "0xddf252ad1be2c89b69c2b068fc378daa952ba7f163c4a11628f55a4df523b3ef",
            "0x0000000000000000000000003a4db9e7306af09012ceb0f222d581fd1f0c6d71",
            "0x000000000000000000000000283e260f03f80982d9d3a83a30a574dff335d563"
          ],
          "data": "0x00000000000000000000000000000000000000000000000a2a15d09519be0000",
          "blockHash": "0xa940bc82abb5fd6a8479b0ee96b3f8e190b3569504d93b6bc0014e79f2cdb663",
          "blockNumber": "0x2a8fced",
          "transactionHash": "0x6b52c9c071453264a0c6f6aef2980c9f56e000c9f0c93265775bc6a00340de46",
          "transactionIndex": "0x7",
          "logIndex": "0x13",
          "removed": false
        },
        {
          "address": "0x3b346548fbfa74623047b1e199a96576dd156f2e",
          "topics": [
            "0x8c5be1e5ebec7d5bd14f71427d1e84f3dd0314c0f7b2291e5b200ac8c7c3b925",
            "0x000000000000000000000000283e260f03f80982d9d3a83a30a574dff335d563",
            "0x0000000000000000000000009113f4531aa608d96dea970f7d9fe42dc9917a4c"
          ],
          "data": "0x00000000000000000000000000000000000000000000000a2a15d09519be0000",
          "blockHash": "0xa940bc82abb5fd6a8479b0ee96b3f8e190b3569504d93b6bc0014e79f2cdb663",
          "blockNumber": "0x2a8fced",
          "transactionHash": "0x6b52c9c071453264a0c6f6aef2980c9f56e000c9f0c93265775bc6a00340de46",
          "transactionIndex": "0x7",
          "logIndex": "0x14",
          "removed": false
        },
        {
          "address": "0x3b346548fbfa74623047b1e199a96576dd156f2e",
          "topics": [
            "0xddf252ad1be2c89b69c2b068fc378daa952ba7f163c4a11628f55a4df523b3ef",
            "0x000000000000000000000000283e260f03f80982d9d3a83a30a574dff335d563",
            "0x0000000000000000000000009113f4531aa608d96dea970f7d9fe42dc9917a4c"
          ],
          "data": "0x00000000000000000000000000000000000000000000000a2a15d09519be0000",
          "blockHash": "0xa940bc82abb5fd6a8479b0ee96b3f8e190b3569504d93b6bc0014e79f2cdb663",
          "blockNumber": "0x2a8fced",
          "transactionHash": "0x6b52c9c071453264a0c6f6aef2980c9f56e000c9f0c93265775bc6a00340de46",
          "transactionIndex": "0x7",
          "logIndex": "0x15",
          "removed": false
        },
        {
          "address": "0x3b346548fbfa74623047b1e199a96576dd156f2e",
          "topics": [
            "0x8c5be1e5ebec7d5bd14f71427d1e84f3dd0314c0f7b2291e5b200ac8c7c3b925",
            "0x0000000000000000000000009113f4531aa608d96dea970f7d9fe42dc9917a4c",
            "0x0000000000000000000000009e650b3b18ab92bbd4e80fd6467aa10b904a045e"
          ],
          "data": "0x00000000000000000000000000000000000000000000000a2a15d09519be0000",
          "blockHash": "0xa940bc82abb5fd6a8479b0ee96b3f8e190b3569504d93b6bc0014e79f2cdb663",
          "blockNumber": "0x2a8fced",
          "transactionHash": "0x6b52c9c071453264a0c6f6aef2980c9f56e000c9f0c93265775bc6a00340de46",
          "transactionIndex": "0x7",
          "logIndex": "0x16",
          "removed": false
        },
        {
          "address": "0x9113f4531aa608d96dea970f7d9fe42dc9917a4c",
          "topics": [
            "0x0a3fbbea70e93f2daafa3102f5c9a1b8315e6d7a1e43e4bc020bc1162327470a",
            "0x000000000000000000000000283e260f03f80982d9d3a83a30a574dff335d563",
            "0x0000000000000000000000003b346548fbfa74623047b1e199a96576dd156f2e"
          ],
          "data": "0x00000000000000000000000000000000000000000000000a2a15d09519be0000",
          "blockHash": "0xa940bc82abb5fd6a8479b0ee96b3f8e190b3569504d93b6bc0014e79f2cdb663",
          "blockNumber": "0x2a8fced",
          "transactionHash": "0x6b52c9c071453264a0c6f6aef2980c9f56e000c9f0c93265775bc6a00340de46",
          "transactionIndex": "0x7",
          "logIndex": "0x17",
          "removed": false
        },
        {
          "address": "0xac166a1b90308ca742db5b388ffcbdc3e17a186c",
          "topics": [
            "0xddf252ad1be2c89b69c2b068fc378daa952ba7f163c4a11628f55a4df523b3ef",
            "0x0000000000000000000000000000000000000000000000000000000000000000",
            "0x0000000000000000000000003a4db9e7306af09012ceb0f222d581fd1f0c6d71"
          ],
          "data": "0x00000000000000000000000000000000000000000000003635c9adc5dea00000",
          "blockHash": "0xa940bc82abb5fd6a8479b0ee96b3f8e190b3569504d93b6bc0014e79f2cdb663",
          "blockNumber": "0x2a8fced",
          "transactionHash": "0x6b52c9c071453264a0c6f6aef2980c9f56e000c9f0c93265775bc6a00340de46",
          "transactionIndex": "0x7",
          "logIndex": "0x18",
          "removed": false
        },
        {
          "address": "0x9113f4531aa608d96dea970f7d9fe42dc9917a4c",
          "topics": [
            "0xd1c19fbcd4551a5edfb66d43d2e337c04837afda3482b42bdf569a8fccdae5fb",
            "0x000000000000000000000000283e260f03f80982d9d3a83a30a574dff335d563",
            "0x000000000000000000000000ac166a1b90308ca742db5b388ffcbdc3e17a186c"
          ],
          "data": "0xffffffffffffffffffffffffffffffffffffffffffffffffffffffffffffffff",
          "blockHash": "0xa940bc82abb5fd6a8479b0ee96b3f8e190b3569504d93b6bc0014e79f2cdb663",
          "blockNumber": "0x2a8fced",
          "transactionHash": "0x6b52c9c071453264a0c6f6aef2980c9f56e000c9f0c93265775bc6a00340de46",
          "transactionIndex": "0x7",
          "logIndex": "0x19",
          "removed": false
        },
        {
          "address": "0x283e260f03f80982d9d3a83a30a574dff335d563",
          "topics": [
            "0xcefaf961c5013063cf501ffd9f9382e9b9c4b15741ad032fe93d7e9c7c733b22",
            "0x0000000000000000000000000000000000000000000000000000000000000002",
            "0x0000000000000000000000003a4db9e7306af09012ceb0f222d581fd1f0c6d71"
          ],
          "data": "0x",
          "blockHash": "0xa940bc82abb5fd6a8479b0ee96b3f8e190b3569504d93b6bc0014e79f2cdb663",
          "blockNumber": "0x2a8fced",
          "transactionHash": "0x6b52c9c071453264a0c6f6aef2980c9f56e000c9f0c93265775bc6a00340de46",
          "transactionIndex": "0x7",
          "logIndex": "0x1a",
          "removed": false
        }
      ],
      "logsBloom": "0x44000000000000002000040000000000000021000000000000000000000000000000000090000002000000000000080000000000000000000100000000200000000000000002000000000008000210004000000000000101000000081000000002000000020000000000000000841800000000000800000000000010000000000000000000000000000000000000400000000400000000000000000200000000028000000000000006000100000020000000000000000000000000000000000000000002000080000000000000004000000000000200001000000000000020000010080000000001000000080000000000000000008000002000000000000800",
      "type": "0x0",
      "transactionHash": "0x6b52c9c071453264a0c6f6aef2980c9f56e000c9f0c93265775bc6a00340de46",
      "transactionIndex": "0x7",
      "blockHash": "0xa940bc82abb5fd6a8479b0ee96b3f8e190b3569504d93b6bc0014e79f2cdb663",
      "blockNumber": "0x2a8fced",
      "gasUsed": "0x22eea",
      "effectiveGasPrice": "0x5d22cfc40",
      "from": "0x3a4db9e7306af09012ceb0f222d581fd1f0c6d71",
      "to": "0x283e260f03f80982d9d3a83a30a574dff335d563",
      "contractAddress": null,
      "l1BaseFeeScalar": "0x0",
      "l1BlobBaseFee": "0x1",
      "l1BlobBaseFeeScalar": "0x0",
      "l1Fee": "0x0",
      "l1GasPrice": "0x8",
      "l1GasUsed": "0x640"
    }
  ],
  "libraries": [],
  "pending": [],
  "returns": {},
  "timestamp": 1745584549,
  "chain": 44787,
  "commit": "144c6c6"
}