{
  "transactions": [
    {
      "hash": "0x8c1cc97beb526f5be2f825fdaa8fc3c3891072494eab4e5e21f4cfb6b2344cac",
      "transactionType": "CALL",
      "contractName": null,
      "contractAddress": "0x7262bfada9f61530119693d532e716d5cd3191ec",
      "function": "mint(address,uint256)",
      "arguments": [
        "0x3A4dB9e7306aF09012ceb0f222d581FD1F0C6D71",
        "10000000000"
      ],
      "transaction": {
        "from": "0x3a4db9e7306af09012ceb0f222d581fd1f0c6d71",
        "to": "0x7262bfada9f61530119693d532e716d5cd3191ec",
        "gas": "0xc63a",
        "value": "0x0",
        "input": "0x40c10f190000000000000000000000003a4db9e7306af09012ceb0f222d581fd1f0c6d7100000000000000000000000000000000000000000000000000000002540be400",
        "nonce": "0x9b",
        "chainId": "0xaef3"
      },
      "additionalContracts": [],
      "isFixedGasLimit": false
    },
    {
      "hash": "0x7c3c4a0b98ae3866622e3e2697d33c662807fcad9b2d11baa6e483a054db4955",
      "transactionType": "CALL",
      "contractName": null,
      "contractAddress": "0xac166a1b90308ca742db5b388ffcbdc3e17a186c",
      "function": "mint(address,uint256)",
      "arguments": [
        "0x3A4dB9e7306aF09012ceb0f222d581FD1F0C6D71",
        "10000000000000000000"
      ],
      "transaction": {
        "from": "0x3a4db9e7306af09012ceb0f222d581fd1f0c6d71",
        "to": "0xac166a1b90308ca742db5b388ffcbdc3e17a186c",
        "gas": "0xc65d",
        "value": "0x0",
        "input": "0x40c10f190000000000000000000000003a4db9e7306af09012ceb0f222d581fd1f0c6d710000000000000000000000000000000000000000000000008ac7230489e80000",
        "nonce": "0x9c",
        "chainId": "0xaef3"
      },
      "additionalContracts": [],
      "isFixedGasLimit": false
    },
    {
      "hash": "0x03043145e656a8ed68f81f387a8d4d9db309cccd6fc398ef9f5992b201a9ef87",
      "transactionType": "CALL",
      "contractName": null,
      "contractAddress": "0x3b346548fbfa74623047b1e199a96576dd156f2e",
      "function": "mint(address,uint256)",
      "arguments": [
        "0x3A4dB9e7306aF09012ceb0f222d581FD1F0C6D71",
        "10000000000000000000000"
      ],
      "transaction": {
        "from": "0x3a4db9e7306af09012ceb0f222d581fd1f0c6d71",
        "to": "0x3b346548fbfa74623047b1e199a96576dd156f2e",
        "gas": "0xbbf4",
        "value": "0x0",
        "input": "0x40c10f190000000000000000000000003a4db9e7306af09012ceb0f222d581fd1f0c6d7100000000000000000000000000000000000000000000021e19e0c9bab2400000",
        "nonce": "0x9d",
        "chainId": "0xaef3"
      },
      "additionalContracts": [],
      "isFixedGasLimit": false
    },
    {
      "hash": "0x39935f3bb1ca83bebdeb9fc29385feeaf52dd53c16dce19d1aa9eb40334c7ee1",
      "transactionType": "CALL",
      "contractName": null,
      "contractAddress": "0x3b346548fbfa74623047b1e199a96576dd156f2e",
      "function": "mint(address,uint256)",
      "arguments": [
        "0x283E260f03f80982d9D3A83A30A574DFF335D563",
        "10000000000000000000000"
      ],
      "transaction": {
        "from": "0x3a4db9e7306af09012ceb0f222d581fd1f0c6d71",
        "to": "0x3b346548fbfa74623047b1e199a96576dd156f2e",
        "gas": "0xbbf4",
        "value": "0x0",
        "input": "0x40c10f19000000000000000000000000283e260f03f80982d9d3a83a30a574dff335d56300000000000000000000000000000000000000000000021e19e0c9bab2400000",
        "nonce": "0x9e",
        "chainId": "0xaef3"
      },
      "additionalContracts": [],
      "isFixedGasLimit": false
    },
    {
      "hash": "0x2955c0e58d3ed8ed869b5a08039b84a513df1cfc32ac183bda09bf2fdc9d506d",
      "transactionType": "CALL",
      "contractName": null,
      "contractAddress": "0xac166a1b90308ca742db5b388ffcbdc3e17a186c",
      "function": "approve(address,uint256)",
      "arguments": [
        "0x9113f4531aa608D96dEa970f7D9fE42dC9917A4c",
        "1000000000000000000"
      ],
      "transaction": {
        "from": "0x3a4db9e7306af09012ceb0f222d581fd1f0c6d71",
        "to": "0xac166a1b90308ca742db5b388ffcbdc3e17a186c",
        "gas": "0xfd33",
        "value": "0x0",
        "input": "0x095ea7b30000000000000000000000009113f4531aa608d96dea970f7d9fe42dc9917a4c0000000000000000000000000000000000000000000000000de0b6b3a7640000",
        "nonce": "0x9f",
        "chainId": "0xaef3"
      },
      "additionalContracts": [],
      "isFixedGasLimit": false
    },
    {
      "hash": "0x88e44cd7dea09102de584aee0cd2ede8f9f825dd5d0c1e3291a8457cf93d7e91",
      "transactionType": "CALL",
      "contractName": "LendyProtocol",
      "contractAddress": "0x9113f4531aa608d96dea970f7d9fe42dc9917a4c",
      "function": "supply(address,uint256,address,uint16)",
      "arguments": [
        "0xAC166A1B90308cA742Db5b388FFCBdc3E17a186c",
        "1000000000000000000",
        "0x3A4dB9e7306aF09012ceb0f222d581FD1F0C6D71",
        "0"
      ],
      "transaction": {
        "from": "0x3a4db9e7306af09012ceb0f222d581fd1f0c6d71",
        "to": "0x9113f4531aa608d96dea970f7d9fe42dc9917a4c",
        "gas": "0x15721",
        "value": "0x0",
        "input": "0x617ba037000000000000000000000000ac166a1b90308ca742db5b388ffcbdc3e17a186c0000000000000000000000000000000000000000000000000de0b6b3a76400000000000000000000000000003a4db9e7306af09012ceb0f222d581fd1f0c6d710000000000000000000000000000000000000000000000000000000000000000",
        "nonce": "0xa0",
        "chainId": "0xaef3"
      },
      "additionalContracts": [],
      "isFixedGasLimit": false
    },
    {
      "hash": "0x206d90a6535b97a7605adbb71c9ad77c45e2c4d8225578839b4e5e5df7209e1f",
      "transactionType": "CALL",
      "contractName": "LendyProtocol",
      "contractAddress": "0x9113f4531aa608d96dea970f7d9fe42dc9917a4c",
      "function": "borrow(address,uint256,uint256,uint16,address)",
      "arguments": [
        "0x7262Bfada9f61530119693d532E716D5CD3191eC",
        "100000000",
        "2",
        "0",
        "0x3A4dB9e7306aF09012ceb0f222d581FD1F0C6D71"
      ],
      "transaction": {
        "from": "0x3a4db9e7306af09012ceb0f222d581fd1f0c6d71",
        "to": "0x9113f4531aa608d96dea970f7d9fe42dc9917a4c",
        "gas": "0x15bba",
        "value": "0x0",
        "input": "0xa415bcad0000000000000000000000007262bfada9f61530119693d532e716d5cd3191ec0000000000000000000000000000000000000000000000000000000005f5e100000000000000000000000000000000000000000000000000000000000000000200000000000000000000000000000000000000000000000000000000000000000000000000000000000000003a4db9e7306af09012ceb0f222d581fd1f0c6d71",
        "nonce": "0xa1",
        "chainId": "0xaef3"
      },
      "additionalContracts": [],
      "isFixedGasLimit": false
    },
    {
      "hash": "0x8e82a804f61bce69e5fa73eaf69262cc2e9dc2746be6a4e9a11bac1c2efaeafb",
      "transactionType": "CALL",
      "contractName": "LendyProtocol",
      "contractAddress": "0x9113f4531aa608d96dea970f7d9fe42dc9917a4c",
      "function": "supplyWithPermit(address,uint256,address,uint16,uint256,uint8,bytes32,bytes32)",
      "arguments": [
        "0x3B346548fbfa74623047B1E199a96576dd156f2e",
        "1000000000000000000000",
        "0x3A4dB9e7306aF09012ceb0f222d581FD1F0C6D71",
        "0",
        "1745588863",
        "27",
        "0x0000000000000000000000000000000000000000000000000000000000000001",
        "0x0000000000000000000000000000000000000000000000000000000000000002"
      ],
      "transaction": {
        "from": "0x3a4db9e7306af09012ceb0f222d581fd1f0c6d71",
        "to": "0x9113f4531aa608d96dea970f7d9fe42dc9917a4c",
        "gas": "0xf107",
        "value": "0x0",
        "input": "0x02c205f00000000000000000000000003b346548fbfa74623047b1e199a96576dd156f2e00000000000000000000000000000000000000000000003635c9adc5dea000000000000000000000000000003a4db9e7306af09012ceb0f222d581fd1f0c6d71000000000000000000000000000000000000000000000000000000000000000000000000000000000000000000000000000000000000000000000000680b927f000000000000000000000000000000000000000000000000000000000000001b00000000000000000000000000000000000000000000000000000000000000010000000000000000000000000000000000000000000000000000000000000002",
        "nonce": "0xa2",
        "chainId": "0xaef3"
      },
      "additionalContracts": [],
      "isFixedGasLimit": false
    },
    {
      "hash": "0xc3aebbacbf1701f8d4750ccc4de8b8ca29a94565cbb812489ccfb37528759f54",
      "transactionType": "CALL",
      "contractName": "LendyProtocol",
      "contractAddress": "0x9113f4531aa608d96dea970f7d9fe42dc9917a4c",
      "function": "repayWithPermit(address,uint256,uint256,address,uint256,uint8,bytes32,bytes32)",
      "arguments": [
        "0x3B346548fbfa74623047B1E199a96576dd156f2e",
        "500000000000000000000",
        "2",
        "0x3A4dB9e7306aF09012ceb0f222d581FD1F0C6D71",
        "1745588863",
        "27",
        "0x0000000000000000000000000000000000000000000000000000000000000001",
        "0x0000000000000000000000000000000000000000000000000000000000000002"
      ],
      "transaction": {
        "from": "0x3a4db9e7306af09012ceb0f222d581fd1f0c6d71",
        "to": "0x9113f4531aa608d96dea970f7d9fe42dc9917a4c",
        "gas": "0xfe66",
        "value": "0x0",
        "input": "0xee3e210b0000000000000000000000003b346548fbfa74623047b1e199a96576dd156f2e00000000000000000000000000000000000000000000001b1ae4d6e2ef50000000000000000000000000000000000000000000000000000000000000000000020000000000000000000000003a4db9e7306af09012ceb0f222d581fd1f0c6d7100000000000000000000000000000000000000000000000000000000680b927f000000000000000000000000000000000000000000000000000000000000001b00000000000000000000000000000000000000000000000000000000000000010000000000000000000000000000000000000000000000000000000000000002",
        "nonce": "0xa3",
        "chainId": "0xaef3"
      },
      "additionalContracts": [],
      "isFixedGasLimit": false
    },
    {
      "hash": "0x90dbba6079fabe7bc1d9ba6e386ab156ff6d8c12efa58d6f34a879e93e940482",
      "transactionType": "CALL",
      "contractName": null,
      "contractAddress": "0xac166a1b90308ca742db5b388ffcbdc3e17a186c",
      "function": "approve(address,uint256)",
      "arguments": [
        "0x283E260f03f80982d9D3A83A30A574DFF335D563",
        "1000000000000000000"
      ],
      "transaction": {
        "from": "0x3a4db9e7306af09012ceb0f222d581fd1f0c6d71",
        "to": "0xac166a1b90308ca742db5b388ffcbdc3e17a186c",
        "gas": "0xfd33",
        "value": "0x0",
        "input": "0x095ea7b3000000000000000000000000283e260f03f80982d9d3a83a30a574dff335d5630000000000000000000000000000000000000000000000000de0b6b3a7640000",
        "nonce": "0xa4",
        "chainId": "0xaef3"
      },
      "additionalContracts": [],
      "isFixedGasLimit": false
    },
    {
      "hash": "0xe56a3d7f4354a9ce0c6dc563707f9f3c2925acd815c1ba39dcec17bdbc1dc66d",
      "transactionType": "CALL",
      "contractName": "LendyPositionManager",
      "contractAddress": "0x283e260f03f80982d9d3a83a30a574dff335d563",
      "function": "createPosition(address,uint256,address,uint256,uint256)",
      "arguments": [
        "0xAC166A1B90308cA742Db5b388FFCBdc3E17a186c",
        "1000000000000000000",
        "0x3B346548fbfa74623047B1E199a96576dd156f2e",
        "250000000000000000000",
        "2"
      ],
      "transaction": {
        "from": "0x3a4db9e7306af09012ceb0f222d581fd1f0c6d71",
        "to": "0x283e260f03f80982d9d3a83a30a574dff335d563",
        "gas": "0x7a3f6",
        "value": "0x0",
        "input": "0xb0c3d5df000000000000000000000000ac166a1b90308ca742db5b388ffcbdc3e17a186c0000000000000000000000000000000000000000000000000de0b6b3a76400000000000000000000000000003b346548fbfa74623047b1e199a96576dd156f2e00000000000000000000000000000000000000000000000d8d726b7177a800000000000000000000000000000000000000000000000000000000000000000002",
        "nonce": "0xa5",
        "chainId": "0xaef3"
      },
      "additionalContracts": [],
      "isFixedGasLimit": false
    },
    {
      "hash": "0x6a439b076c4066ff271429095d2ef2b4f0ad403ffae2349bc300ecc548156d72",
      "transactionType": "CALL",
      "contractName": null,
      "contractAddress": "0x3b346548fbfa74623047b1e199a96576dd156f2e",
      "function": "approve(address,uint256)",
      "arguments": [
        "0x283E260f03f80982d9D3A83A30A574DFF335D563",
        "62500000000000000000"
      ],
      "transaction": {
        "from": "0x3a4db9e7306af09012ceb0f222d581fd1f0c6d71",
        "to": "0x3b346548fbfa74623047b1e199a96576dd156f2e",
        "gas": "0x10c4a",
        "value": "0x0",
        "input": "0x095ea7b3000000000000000000000000283e260f03f80982d9d3a83a30a574dff335d563000000000000000000000000000000000000000000000003635c9adc5dea0000",
        "nonce": "0xa6",
        "chainId": "0xaef3"
      },
      "additionalContracts": [],
      "isFixedGasLimit": false
    },
    {
      "hash": "0xe535742ef4aaab5e17ac4846324a567a0aec4fdf0cfb9220f6f5e4271d6d750b",
      "transactionType": "CALL",
      "contractName": "LendyPositionManager",
      "contractAddress": "0x283e260f03f80982d9d3a83a30a574dff335d563",
      "function": "repayDebt(uint256,uint256)",
      "arguments": [
        "3",
        "62500000000000000000"
      ],
      "transaction": {
        "from": "0x3a4db9e7306af09012ceb0f222d581fd1f0c6d71",
        "to": "0x283e260f03f80982d9d3a83a30a574dff335d563",
        "gas": "0x2451a",
        "value": "0x0",
        "input": "0x015cb0a50000000000000000000000000000000000000000000000000000000000000003000000000000000000000000000000000000000000000003635c9adc5dea0000",
        "nonce": "0xa7",
        "chainId": "0xaef3"
      },
      "additionalContracts": [],
      "isFixedGasLimit": false
    },
    {
      "hash": "0x0f1309b3f79d9cf5e02d436a1b3a586cdcb69880de0e9453783e3146698638f5",
      "transactionType": "CALL",
      "contractName": "LendyProtocol",
      "contractAddress": "0x9113f4531aa608d96dea970f7d9fe42dc9917a4c",
      "function": "repayWithPermit(address,uint256,uint256,address,uint256,uint8,bytes32,bytes32)",
      "arguments": [
        "0x3B346548fbfa74623047B1E199a96576dd156f2e",
        "62500000000000000000",
        "2",
        "0x283E260f03f80982d9D3A83A30A574DFF335D563",
        "1745588863",
        "27",
        "0x0000000000000000000000000000000000000000000000000000000000000001",
        "0x0000000000000000000000000000000000000000000000000000000000000002"
      ],
      "transaction": {
        "from": "0x3a4db9e7306af09012ceb0f222d581fd1f0c6d71",
        "to": "0x9113f4531aa608d96dea970f7d9fe42dc9917a4c",
        "gas": "0xe02f",
        "value": "0x0",
        "input": "0xee3e210b0000000000000000000000003b346548fbfa74623047b1e199a96576dd156f2e000000000000000000000000000000000000000000000003635c9adc5dea00000000000000000000000000000000000000000000000000000000000000000002000000000000000000000000283e260f03f80982d9d3a83a30a574dff335d56300000000000000000000000000000000000000000000000000000000680b927f000000000000000000000000000000000000000000000000000000000000001b00000000000000000000000000000000000000000000000000000000000000010000000000000000000000000000000000000000000000000000000000000002",
        "nonce": "0xa8",
        "chainId": "0xaef3"
      },
      "additionalContracts": [],
      "isFixedGasLimit": false
    },
    {
      "hash": "0x30c4af97ba9731ed42467926659c5605d9bf72c1e89506554d6b7da34c9228fe",
      "transactionType": "CALL",
      "contractName": null,
      "contractAddress": "0x3b346548fbfa74623047b1e199a96576dd156f2e",
      "function": "approve(address,uint256)",
      "arguments": [
        "0x283E260f03f80982d9D3A83A30A574DFF335D563",
        "187500000000000000000"
      ],
      "transaction": {
        "from": "0x3a4db9e7306af09012ceb0f222d581fd1f0c6d71",
        "to": "0x3b346548fbfa74623047b1e199a96576dd156f2e",
        "gas": "0x10c4a",
        "value": "0x0",
        "input": "0x095ea7b3000000000000000000000000283e260f03f80982d9d3a83a30a574dff335d56300000000000000000000000000000000000000000000000a2a15d09519be0000",
        "nonce": "0xa9",
        "chainId": "0xaef3"
      },
      "additionalContracts": [],
      "isFixedGasLimit": false
    },
    {
      "hash": "0x7bf2ea5bb33fa33adf70a7e408081da9f7c435ff41a6a9c2521a4a76db28002b",
      "transactionType": "CALL",
      "contractName": "LendyPositionManager",
      "contractAddress": "0x283e260f03f80982d9d3a83a30a574dff335d563",
      "function": "closePosition(uint256)",
      "arguments": [
        "3"
      ],
      "transaction": {
        "from": "0x3a4db9e7306af09012ceb0f222d581fd1f0c6d71",
        "to": "0x283e260f03f80982d9d3a83a30a574dff335d563",
        "gas": "0x33169",
        "value": "0x0",
        "input": "0xa126d6010000000000000000000000000000000000000000000000000000000000000003",
        "nonce": "0xaa",
        "chainId": "0xaef3"
      },
      "additionalContracts": [],
      "isFixedGasLimit": false
    }
  ],
  "receipts": [
    {
      "status": "0x1",
      "cumulativeGasUsed": "0x465b7",
      "logs": [
        {
          "address": "0x7262bfada9f61530119693d532e716d5cd3191ec",
          "topics": [
            "0xddf252ad1be2c89b69c2b068fc378daa952ba7f163c4a11628f55a4df523b3ef",
            "0x0000000000000000000000000000000000000000000000000000000000000000",
            "0x0000000000000000000000003a4db9e7306af09012ceb0f222d581fd1f0c6d71"
          ],
          "data": "0x00000000000000000000000000000000000000000000000000000002540be400",
          "blockHash": "0x2fae81e1bcb6ea1aaa3f993007bd0273011e12fac195e3a62b76a4bd9b22167d",
          "blockNumber": "0x2a8ffd8",
          "transactionHash": "0x8c1cc97beb526f5be2f825fdaa8fc3c3891072494eab4e5e21f4cfb6b2344cac",
          "transactionIndex": "0x2",
          "logIndex": "0x1",
          "removed": false
        }
      ],
      "logsBloom": "0x00000000000000000000000000000000000000000000000000000000000000000000000000000000000000000000000000000000000000000000000000000000100000000000000000000008000000000000000000000000000000100000000000000000020000000000000000000800000000000000000000000050000000000000000000000000000000000000400000000000000000000000000000000000000000000000000000000000000000000000000000000000000000000000000000000002000080000000000000000000000000000000001000000000000020000000000000000000000000000000000000000000000000000000000000000000",
      "type": "0x0",
      "transactionHash": "0x8c1cc97beb526f5be2f825fdaa8fc3c3891072494eab4e5e21f4cfb6b2344cac",
      "transactionIndex": "0x2",
      "blockHash": "0x2fae81e1bcb6ea1aaa3f993007bd0273011e12fac195e3a62b76a4bd9b22167d",
      "blockNumber": "0x2a8ffd8",
      "gasUsed": "0x878b",
      "effectiveGasPrice": "0x5d22cfc40",
      "from": "0x3a4db9e7306af09012ceb0f222d581fd1f0c6d71",
      "to": "0x7262bfada9f61530119693d532e716d5cd3191ec",
      "contractAddress": null,
      "l1BaseFeeScalar": "0x0",
      "l1BlobBaseFee": "0x1",
      "l1BlobBaseFeeScalar": "0x0",
      "l1Fee": "0x0",
      "l1GasPrice": "0x9",
      "l1GasUsed": "0x640"
    },
    {
      "status": "0x1",
      "cumulativeGasUsed": "0x4ed5a",
      "logs": [
        {
          "address": "0xac166a1b90308ca742db5b388ffcbdc3e17a186c",
          "topics": [
            "0xddf252ad1be2c89b69c2b068fc378daa952ba7f163c4a11628f55a4df523b3ef",
            "0x0000000000000000000000000000000000000000000000000000000000000000",
            "0x0000000000000000000000003a4db9e7306af09012ceb0f222d581fd1f0c6d71"
          ],
          "data": "0x0000000000000000000000000000000000000000000000008ac7230489e80000",
          "blockHash": "0x2fae81e1bcb6ea1aaa3f993007bd0273011e12fac195e3a62b76a4bd9b22167d",
          "blockNumber": "0x2a8ffd8",
          "transactionHash": "0x7c3c4a0b98ae3866622e3e2697d33c662807fcad9b2d11baa6e483a054db4955",
          "transactionIndex": "0x3",
          "logIndex": "0x2",
          "removed": false
        }
      ],
      "logsBloom": "0x00000000000000000000000000000000000000000000000000000000000000000000000000000000000000000000000000000000000000000000000000000000000000000000000000000008000000000000000000000000000000080000000002000000020000000000000000000800000000000000000000000010000000000000000000000000000000000000400000000000000000000000000000000000000000000000000000000000000000000000000000000000000000000000000000000002000080000000000000004000000000000000001000000000000020000000000000000000000000000000000000000000000000000000000000000000",
      "type": "0x0",
      "transactionHash": "0x7c3c4a0b98ae3866622e3e2697d33c662807fcad9b2d11baa6e483a054db4955",
      "transactionIndex": "0x3",
      "blockHash": "0x2fae81e1bcb6ea1aaa3f993007bd0273011e12fac195e3a62b76a4bd9b22167d",
      "blockNumber": "0x2a8ffd8",
      "gasUsed": "0x87a3",
      "effectiveGasPrice": "0x5d22cfc40",
      "from": "0x3a4db9e7306af09012ceb0f222d581fd1f0c6d71",
      "to": "0xac166a1b90308ca742db5b388ffcbdc3e17a186c",
      "contractAddress": null,
      "l1BaseFeeScalar": "0x0",
      "l1BlobBaseFee": "0x1",
      "l1BlobBaseFeeScalar": "0x0",
      "l1Fee": "0x0",
      "l1GasPrice": "0x9",
      "l1GasUsed": "0x640"
    },
    {
      "status": "0x1",
      "cumulativeGasUsed": "0x13302",
      "logs": [
        {
          "address": "0x3b346548fbfa74623047b1e199a96576dd156f2e",
          "topics": [
            "0xddf252ad1be2c89b69c2b068fc378daa952ba7f163c4a11628f55a4df523b3ef",
            "0x0000000000000000000000000000000000000000000000000000000000000000",
            "0x0000000000000000000000003a4db9e7306af09012ceb0f222d581fd1f0c6d71"
          ],
          "data": "0x00000000000000000000000000000000000000000000021e19e0c9bab2400000",
          "blockHash": "0x5c263be2d1208b2eed6570d54cb17abb6535bcdb181e86e8d5b8c1969fffa3ad",
          "blockNumber": "0x2a8ffd9",
          "transactionHash": "0x03043145e656a8ed68f81f387a8d4d9db309cccd6fc398ef9f5992b201a9ef87",
          "transactionIndex": "0x1",
          "logIndex": "0x0",
          "removed": false
        }
      ],
      "logsBloom": "0x00000000000000000000000000000000000001000000000000000000000000000000000000000000000000000000000000000000000000000000000000000000000000000000000000000008000000004000000000000000000000000000000000000000020000000000000000000800000000000000000000000010000000000000000000000000000000000000400000000000000000000000000000000000000000000000000000000000000020000000000000000000000000000000000000000002000080000000000000000000000000000000001000000000000020000000000000000000000000000000000000000000000000000000000000000000",
      "type": "0x0",
      "transactionHash": "0x03043145e656a8ed68f81f387a8d4d9db309cccd6fc398ef9f5992b201a9ef87",
      "transactionIndex": "0x1",
      "blockHash": "0x5c263be2d1208b2eed6570d54cb17abb6535bcdb181e86e8d5b8c1969fffa3ad",
      "blockNumber": "0x2a8ffd9",
      "gasUsed": "0x8814",
      "effectiveGasPrice": "0x5d22cfc40",
      "from": "0x3a4db9e7306af09012ceb0f222d581fd1f0c6d71",
      "to": "0x3b346548fbfa74623047b1e199a96576dd156f2e",
      "contractAddress": null,
      "l1BaseFeeScalar": "0x0",
      "l1BlobBaseFee": "0x1",
      "l1BlobBaseFeeScalar": "0x0",
      "l1Fee": "0x0",
      "l1GasPrice": "0x9",
      "l1GasUsed": "0x640"
    },
    {
      "status": "0x1",
      "cumulativeGasUsed": "0x1bb16",
      "logs": [
        {
          "address": "0x3b346548fbfa74623047b1e199a96576dd156f2e",
          "topics": [
            "0xddf252ad1be2c89b69c2b068fc378daa952ba7f163c4a11628f55a4df523b3ef",
            "0x0000000000000000000000000000000000000000000000000000000000000000",
            "0x000000000000000000000000283e260f03f80982d9d3a83a30a574dff335d563"
          ],
          "data": "0x00000000000000000000000000000000000000000000021e19e0c9bab2400000",
          "blockHash": "0x5c263be2d1208b2eed6570d54cb17abb6535bcdb181e86e8d5b8c1969fffa3ad",
          "blockNumber": "0x2a8ffd9",
          "transactionHash": "0x39935f3bb1ca83bebdeb9fc29385feeaf52dd53c16dce19d1aa9eb40334c7ee1",
          "transactionIndex": "0x2",
          "logIndex": "0x1",
          "removed": false
        }
      ],
      "logsBloom": "0x00000000000000002000000000000000000001000000000000000000000000000000000000000000000000000000000000000000000000000000000000000000000000000000000000000008000000004000000000000000000000000000000000000000020000000000000000000800000000000800000000000010000000000000000000000000000000000000000000000000000000000000000000000000008000000000000000000000000020000000000000000000000000000000000000000002000000000000000000000000000000000000000000000000000020000000000000000000000000000000000000000000000000000000000000000000",
      "type": "0x0",
      "transactionHash": "0x39935f3bb1ca83bebdeb9fc29385feeaf52dd53c16dce19d1aa9eb40334c7ee1",
      "transactionIndex": "0x2",
      "blockHash": "0x5c263be2d1208b2eed6570d54cb17abb6535bcdb181e86e8d5b8c1969fffa3ad",
      "blockNumber": "0x2a8ffd9",
      "gasUsed": "0x8814",
      "effectiveGasPrice": "0x5d22cfc40",
      "from": "0x3a4db9e7306af09012ceb0f222d581fd1f0c6d71",
      "to": "0x3b346548fbfa74623047b1e199a96576dd156f2e",
      "contractAddress": null,
      "l1BaseFeeScalar": "0x0",
      "l1BlobBaseFee": "0x1",
      "l1BlobBaseFeeScalar": "0x0",
      "l1Fee": "0x0",
      "l1GasPrice": "0x9",
      "l1GasUsed": "0x640"
    },
    {
      "status": "0x1",
      "cumulativeGasUsed": "0x27266",
      "logs": [
        {
          "address": "0xac166a1b90308ca742db5b388ffcbdc3e17a186c",
          "topics": [
            "0x8c5be1e5ebec7d5bd14f71427d1e84f3dd0314c0f7b2291e5b200ac8c7c3b925",
            "0x0000000000000000000000003a4db9e7306af09012ceb0f222d581fd1f0c6d71",
            "0x0000000000000000000000009113f4531aa608d96dea970f7d9fe42dc9917a4c"
          ],
          "data": "0x0000000000000000000000000000000000000000000000000de0b6b3a7640000",
          "blockHash": "0x5c263be2d1208b2eed6570d54cb17abb6535bcdb181e86e8d5b8c1969fffa3ad",
          "blockNumber": "0x2a8ffd9",
          "transactionHash": "0x2955c0e58d3ed8ed869b5a08039b84a513df1cfc32ac183bda09bf2fdc9d506d",
          "transactionIndex": "0x3",
          "logIndex": "0x2",
          "removed": false
        }
      ],
      "logsBloom": "0x00000000000000000000000000000000000000000000000000000000000000000000000000000000000000000000000000000000000000000100000000200000000000000000000000000000000010000000000000000000000000080000000002000000000000000000000000000000000000000000000000000000000000000000000000000000000000000000400000000400000000000000000000000000020000000000000000000000000000000000000000000000000000000000000000000000000080000000000000004000000000000000001000000000000000000010000000000000000000000000000000000000000000000000000000000000",
      "type": "0x0",
      "transactionHash": "0x2955c0e58d3ed8ed869b5a08039b84a513df1cfc32ac183bda09bf2fdc9d506d",
      "transactionIndex": "0x3",
      "blockHash": "0x5c263be2d1208b2eed6570d54cb17abb6535bcdb181e86e8d5b8c1969fffa3ad",
      "blockNumber": "0x2a8ffd9",
      "gasUsed": "0xb750",
      "effectiveGasPrice": "0x5d22cfc40",
      "from": "0x3a4db9e7306af09012ceb0f222d581fd1f0c6d71",
      "to": "0xac166a1b90308ca742db5b388ffcbdc3e17a186c",
      "contractAddress": null,
      "l1BaseFeeScalar": "0x0",
      "l1BlobBaseFee": "0x1",
      "l1BlobBaseFeeScalar": "0x0",
      "l1Fee": "0x0",
      "l1GasPrice": "0x9",
      "l1GasUsed": "0x640"
    },
    {
      "status": "0x1",
      "cumulativeGasUsed": "0x36ad2",
      "logs": [
        {
          "address": "0xac166a1b90308ca742db5b388ffcbdc3e17a186c",
          "topics": [
            "0xddf252ad1be2c89b69c2b068fc378daa952ba7f163c4a11628f55a4df523b3ef",
            "0x0000000000000000000000003a4db9e7306af09012ceb0f222d581fd1f0c6d71",
            "0x0000000000000000000000009113f4531aa608d96dea970f7d9fe42dc9917a4c"
          ],
          "data": "0x0000000000000000000000000000000000000000000000000de0b6b3a7640000",
          "blockHash": "0x5c263be2d1208b2eed6570d54cb17abb6535bcdb181e86e8d5b8c1969fffa3ad",
          "blockNumber": "0x2a8ffd9",
          "transactionHash": "0x88e44cd7dea09102de584aee0cd2ede8f9f825dd5d0c1e3291a8457cf93d7e91",
          "transactionIndex": "0x4",
          "logIndex": "0x3",
          "removed": false
        },
        {
          "address": "0xac166a1b90308ca742db5b388ffcbdc3e17a186c",
          "topics": [
            "0x8c5be1e5ebec7d5bd14f71427d1e84f3dd0314c0f7b2291e5b200ac8c7c3b925",
            "0x0000000000000000000000009113f4531aa608d96dea970f7d9fe42dc9917a4c",
            "0x0000000000000000000000009e650b3b18ab92bbd4e80fd6467aa10b904a045e"
          ],
          "data": "0x0000000000000000000000000000000000000000000000000de0b6b3a7640000",
          "blockHash": "0x5c263be2d1208b2eed6570d54cb17abb6535bcdb181e86e8d5b8c1969fffa3ad",
          "blockNumber": "0x2a8ffd9",
          "transactionHash": "0x88e44cd7dea09102de584aee0cd2ede8f9f825dd5d0c1e3291a8457cf93d7e91",
          "transactionIndex": "0x4",
          "logIndex": "0x4",
          "removed": false
        },
        {
          "address": "0x9113f4531aa608d96dea970f7d9fe42dc9917a4c",
          "topics": [
            "0x523322d7afb07cee28d04498651096af062004e1f14315eff2e4a60290dfadda",
            "0x0000000000000000000000003a4db9e7306af09012ceb0f222d581fd1f0c6d71",
            "0x000000000000000000000000ac166a1b90308ca742db5b388ffcbdc3e17a186c"
          ],
          "data": "0x0000000000000000000000000000000000000000000000000de0b6b3a7640000",
          "blockHash": "0x5c263be2d1208b2eed6570d54cb17abb6535bcdb181e86e8d5b8c1969fffa3ad",
          "blockNumber": "0x2a8ffd9",
          "transactionHash": "0x88e44cd7dea09102de584aee0cd2ede8f9f825dd5d0c1e3291a8457cf93d7e91",
          "transactionIndex": "0x4",
          "logIndex": "0x5",
          "removed": false
        }
      ],
      "logsBloom": "0x40000000000000000000040000000000000000000000000000000000000000000000000080000002000000000000000000080000000000000100000000200000000000020000000000000008000010000000000000000000000000080000000002000000000000000000000000001000000000000000000000000010000000000000000000000000000000000000400000000400000000000000000000000000020000000000000004000000000000000000000000000000000000000000000000040002000080000000000000004000000000000000001000000000000000000010080000000000000000000000000000000000000000002000000000000800",
      "type": "0x0",
      "transactionHash": "0x88e44cd7dea09102de584aee0cd2ede8f9f825dd5d0c1e3291a8457cf93d7e91",
      "transactionIndex": "0x4",
      "blockHash": "0x5c263be2d1208b2eed6570d54cb17abb6535bcdb181e86e8d5b8c1969fffa3ad",
      "blockNumber": "0x2a8ffd9",
      "gasUsed": "0xf86c",
      "effectiveGasPrice": "0x5d22cfc40",
      "from": "0x3a4db9e7306af09012ceb0f222d581fd1f0c6d71",
      "to": "0x9113f4531aa608d96dea970f7d9fe42dc9917a4c",
      "contractAddress": null,
      "l1BaseFeeScalar": "0x0",
      "l1BlobBaseFee": "0x1",
      "l1BlobBaseFeeScalar": "0x0",
      "l1Fee": "0x0",
      "l1GasPrice": "0x9",
      "l1GasUsed": "0x702"
    },
    {
      "status": "0x1",
      "cumulativeGasUsed": "0x46692",
      "logs": [
        {
          "address": "0x7262bfada9f61530119693d532e716d5cd3191ec",
          "topics": [
            "0xddf252ad1be2c89b69c2b068fc378daa952ba7f163c4a11628f55a4df523b3ef",
            "0x0000000000000000000000000000000000000000000000000000000000000000",
            "0x0000000000000000000000009113f4531aa608d96dea970f7d9fe42dc9917a4c"
          ],
          "data": "0x0000000000000000000000000000000000000000000000000000000005f5e100",
          "blockHash": "0x5c263be2d1208b2eed6570d54cb17abb6535bcdb181e86e8d5b8c1969fffa3ad",
          "blockNumber": "0x2a8ffd9",
          "transactionHash": "0x206d90a6535b97a7605adbb71c9ad77c45e2c4d8225578839b4e5e5df7209e1f",
          "transactionIndex": "0x5",
          "logIndex": "0x6",
          "removed": false
        },
        {
          "address": "0x9113f4531aa608d96dea970f7d9fe42dc9917a4c",
          "topics": [
            "0xc14e9e6b4d98a542b05a0f6b64acd5f4cbdb914be88432d87486b664e97071a7",
            "0x0000000000000000000000003a4db9e7306af09012ceb0f222d581fd1f0c6d71",
            "0x0000000000000000000000007262bfada9f61530119693d532e716d5cd3191ec"
          ],
          "data": "0x0000000000000000000000000000000000000000000000000000000005f5e1000000000000000000000000000000000000000000000000000000000000000002",
          "blockHash": "0x5c263be2d1208b2eed6570d54cb17abb6535bcdb181e86e8d5b8c1969fffa3ad",
          "blockNumber": "0x2a8ffd9",
          "transactionHash": "0x206d90a6535b97a7605adbb71c9ad77c45e2c4d8225578839b4e5e5df7209e1f",
          "transactionIndex": "0x5",
          "logIndex": "0x7",
          "removed": false
        }
      ],
      "logsBloom": "0x00000000000000000000000000000100000000000000000000000000000000000000000080000002000000000000000000000000000000000100000000000000100000000000000000000008000010000000000000000000000000100020000000000000020000000000000000000800000000000000000000000050000000000000000000000000000000000000400000000400000000000000000000000000000000000000000000000000000000000000020000000000000000000000000000000002000080002000000000008000000000000000001000000000000020000000080000000000000000000000000000000000004000000000000000000000",
      "type": "0x0",
      "transactionHash": "0x206d90a6535b97a7605adbb71c9ad77c45e2c4d8225578839b4e5e5df7209e1f",
      "transactionIndex": "0x5",
      "blockHash": "0x5c263be2d1208b2eed6570d54cb17abb6535bcdb181e86e8d5b8c1969fffa3ad",
      "blockNumber": "0x2a8ffd9",
      "gasUsed": "0xfbc0",
      "effectiveGasPrice": "0x5d22cfc40",
      "from": "0x3a4db9e7306af09012ceb0f222d581fd1f0c6d71",
      "to": "0x9113f4531aa608d96dea970f7d9fe42dc9917a4c",
      "contractAddress": null,
      "l1BaseFeeScalar": "0x0",
      "l1BlobBaseFee": "0x1",
      "l1BlobBaseFeeScalar": "0x0",
      "l1Fee": "0x0",
      "l1GasPrice": "0x9",
      "l1GasUsed": "0x71d"
    },
    {
      "status": "0x1",
      "cumulativeGasUsed": "0x51512",
      "logs": [
        {
          "address": "0x9113f4531aa608d96dea970f7d9fe42dc9917a4c",
          "topics": [
            "0x523322d7afb07cee28d04498651096af062004e1f14315eff2e4a60290dfadda",
            "0x0000000000000000000000003a4db9e7306af09012ceb0f222d581fd1f0c6d71",
            "0x0000000000000000000000003b346548fbfa74623047b1e199a96576dd156f2e"
          ],
          "data": "0x00000000000000000000000000000000000000000000003635c9adc5dea00000",
          "blockHash": "0x5c263be2d1208b2eed6570d54cb17abb6535bcdb181e86e8d5b8c1969fffa3ad",
          "blockNumber": "0x2a8ffd9",
          "transactionHash": "0x8e82a804f61bce69e5fa73eaf69262cc2e9dc2746be6a4e9a11bac1c2efaeafb",
          "transactionIndex": "0x6",
          "logIndex": "0x8",
          "removed": false
        }
      ],
      "logsBloom": "0x00000000000000000000000000000000000000000000000000000000000000000000000080000002000000000000000000080000000000000000000000000000000000020000000000000000000000000000000000000101000000000000000000000000000000000000000000000000000000000000000000000000000000000000000000000000000000000000400000000000000000000000000000000000000000000000000000000000000000000000000000000000000000000000000000040000000080000000000000000000000000000200001000000000000000000000080000000000000000000000000000000000000000000000000000000000",
      "type": "0x0",
      "transactionHash": "0x8e82a804f61bce69e5fa73eaf69262cc2e9dc2746be6a4e9a11bac1c2efaeafb",
      "transactionIndex": "0x6",
      "blockHash": "0x5c263be2d1208b2eed6570d54cb17abb6535bcdb181e86e8d5b8c1969fffa3ad",
      "blockNumber": "0x2a8ffd9",
      "gasUsed": "0xae80",
      "effectiveGasPrice": "0x5d22cfc40",
      "from": "0x3a4db9e7306af09012ceb0f222d581fd1f0c6d71",
      "to": "0x9113f4531aa608d96dea970f7d9fe42dc9917a4c",
      "contractAddress": null,
      "l1BaseFeeScalar": "0x0",
      "l1BlobBaseFee": "0x1",
      "l1BlobBaseFeeScalar": "0x0",
      "l1Fee": "0x0",
      "l1GasPrice": "0x9",
      "l1GasUsed": "0x829"
    },
    {
      "status": "0x1",
      "cumulativeGasUsed": "0x5cd41",
      "logs": [
        {
          "address": "0x9113f4531aa608d96dea970f7d9fe42dc9917a4c",
          "topics": [
            "0x0a3fbbea70e93f2daafa3102f5c9a1b8315e6d7a1e43e4bc020bc1162327470a",
            "0x0000000000000000000000003a4db9e7306af09012ceb0f222d581fd1f0c6d71",
            "0x0000000000000000000000003b346548fbfa74623047b1e199a96576dd156f2e"
          ],
          "data": "0x00000000000000000000000000000000000000000000001b1ae4d6e2ef500000",
          "blockHash": "0x5c263be2d1208b2eed6570d54cb17abb6535bcdb181e86e8d5b8c1969fffa3ad",
          "blockNumber": "0x2a8ffd9",
          "transactionHash": "0xc3aebbacbf1701f8d4750ccc4de8b8ca29a94565cbb812489ccfb37528759f54",
          "transactionIndex": "0x7",
          "logIndex": "0x9",
          "removed": false
        }
      ],
      "logsBloom": "0x00000000000000000000000000000000000000000000000000000000000000000000000090000002000000000000080000000000000000000000000000000000000000000000000000000000000000000000000000000101000000000000000000000000000000000000000000800000000000000000000000000000000000000000000000000000000000000000400000000000000000000000000000000000000000000000000000000000000000000000000000000000000000000000000000000000000080000000000000000000000000000200001000000000000000000000080000000000000000000000000000000000000000000000000000000000",
      "type": "0x0",
      "transactionHash": "0xc3aebbacbf1701f8d4750ccc4de8b8ca29a94565cbb812489ccfb37528759f54",
      "transactionIndex": "0x7",
      "blockHash": "0x5c263be2d1208b2eed6570d54cb17abb6535bcdb181e86e8d5b8c1969fffa3ad",
      "blockNumber": "0x2a8ffd9",
      "gasUsed": "0xb82f",
      "effectiveGasPrice": "0x5d22cfc40",
      "from": "0x3a4db9e7306af09012ceb0f222d581fd1f0c6d71",
      "to": "0x9113f4531aa608d96dea970f7d9fe42dc9917a4c",
      "contractAddress": null,
      "l1BaseFeeScalar": "0x0",
      "l1BlobBaseFee": "0x1",
      "l1BlobBaseFeeScalar": "0x0",
      "l1Fee": "0x0",
      "l1GasPrice": "0x9",
      "l1GasUsed": "0x8ff"
    },
    {
      "status": "0x1",
      "cumulativeGasUsed": "0x68491",
      "logs": [
        {
          "address": "0xac166a1b90308ca742db5b388ffcbdc3e17a186c",
          "topics": [
            "0x8c5be1e5ebec7d5bd14f71427d1e84f3dd0314c0f7b2291e5b200ac8c7c3b925",
            "0x0000000000000000000000003a4db9e7306af09012ceb0f222d581fd1f0c6d71",
            "0x000000000000000000000000283e260f03f80982d9d3a83a30a574dff335d563"
          ],
          "data": "0x0000000000000000000000000000000000000000000000000de0b6b3a7640000",
          "blockHash": "0x5c263be2d1208b2eed6570d54cb17abb6535bcdb181e86e8d5b8c1969fffa3ad",
          "blockNumber": "0x2a8ffd9",
          "transactionHash": "0x90dbba6079fabe7bc1d9ba6e386ab156ff6d8c12efa58d6f34a879e93e940482",
          "transactionIndex": "0x8",
          "logIndex": "0xa",
          "removed": false
        }
      ],
      "logsBloom": "0x00000000000000002000000000000000000000000000000000000000000000000000000000000000000000000000000000000000000000000000000000200000000000000000000000000000000000000000000000000000000000080000000002000000000000000000000000000000000000000800000000000000000000000000000000000000000000000000400000000000000000000000000000000000028000000000000000000000000000000000000000000000000000000000000000000000000080000000000000004000000000000000001000000000000000000010000000000000000000000000000000000000000000000000000000000000",
      "type": "0x0",
      "transactionHash": "0x90dbba6079fabe7bc1d9ba6e386ab156ff6d8c12efa58d6f34a879e93e940482",
      "transactionIndex": "0x8",
      "blockHash": "0x5c263be2d1208b2eed6570d54cb17abb6535bcdb181e86e8d5b8c1969fffa3ad",
      "blockNumber": "0x2a8ffd9",
      "gasUsed": "0xb750",
      "effectiveGasPrice": "0x5d22cfc40",
      "from": "0x3a4db9e7306af09012ceb0f222d581fd1f0c6d71",
      "to": "0xac166a1b90308ca742db5b388ffcbdc3e17a186c",
      "contractAddress": null,
      "l1BaseFeeScalar": "0x0",
      "l1BlobBaseFee": "0x1",
      "l1BlobBaseFeeScalar": "0x0",
      "l1Fee": "0x0",
      "l1GasPrice": "0x9",
      "l1GasUsed": "0x640"
    },
    {
      "status": "0x1",
      "cumulativeGasUsed": "0xbbdfa",
      "logs": [
        {
          "address": "0xac166a1b90308ca742db5b388ffcbdc3e17a186c",
          "topics": [
            "0xddf252ad1be2c89b69c2b068fc378daa952ba7f163c4a11628f55a4df523b3ef",
            "0x0000000000000000000000003a4db9e7306af09012ceb0f222d581fd1f0c6d71",
            "0x000000000000000000000000283e260f03f80982d9d3a83a30a574dff335d563"
          ],
          "data": "0x0000000000000000000000000000000000000000000000000de0b6b3a7640000",
          "blockHash": "0x5c263be2d1208b2eed6570d54cb17abb6535bcdb181e86e8d5b8c1969fffa3ad",
          "blockNumber": "0x2a8ffd9",
          "transactionHash": "0xe56a3d7f4354a9ce0c6dc563707f9f3c2925acd815c1ba39dcec17bdbc1dc66d",
          "transactionIndex": "0x9",
          "logIndex": "0xb",
          "removed": false
        },
        {
          "address": "0xac166a1b90308ca742db5b388ffcbdc3e17a186c",
          "topics": [
            "0x8c5be1e5ebec7d5bd14f71427d1e84f3dd0314c0f7b2291e5b200ac8c7c3b925",
            "0x000000000000000000000000283e260f03f80982d9d3a83a30a574dff335d563",
            "0x0000000000000000000000009113f4531aa608d96dea970f7d9fe42dc9917a4c"
          ],
          "data": "0x0000000000000000000000000000000000000000000000000de0b6b3a7640000",
          "blockHash": "0x5c263be2d1208b2eed6570d54cb17abb6535bcdb181e86e8d5b8c1969fffa3ad",
          "blockNumber": "0x2a8ffd9",
          "transactionHash": "0xe56a3d7f4354a9ce0c6dc563707f9f3c2925acd815c1ba39dcec17bdbc1dc66d",
          "transactionIndex": "0x9",
          "logIndex": "0xc",
          "removed": false
        },
        {
          "address": "0xac166a1b90308ca742db5b388ffcbdc3e17a186c",
          "topics": [
            "0xddf252ad1be2c89b69c2b068fc378daa952ba7f163c4a11628f55a4df523b3ef",
            "0x000000000000000000000000283e260f03f80982d9d3a83a30a574dff335d563",
            "0x0000000000000000000000009113f4531aa608d96dea970f7d9fe42dc9917a4c"
          ],
          "data": "0x0000000000000000000000000000000000000000000000000de0b6b3a7640000",
          "blockHash": "0x5c263be2d1208b2eed6570d54cb17abb6535bcdb181e86e8d5b8c1969fffa3ad",
          "blockNumber": "0x2a8ffd9",
          "transactionHash": "0xe56a3d7f4354a9ce0c6dc563707f9f3c2925acd815c1ba39dcec17bdbc1dc66d",
          "transactionIndex": "0x9",
          "logIndex": "0xd",
          "removed": false
        },
        {
          "address": "0xac166a1b90308ca742db5b388ffcbdc3e17a186c",
          "topics": [
            "0x8c5be1e5ebec7d5bd14f71427d1e84f3dd0314c0f7b2291e5b200ac8c7c3b925",
            "0x0000000000000000000000009113f4531aa608d96dea970f7d9fe42dc9917a4c",
            "0x0000000000000000000000009e650b3b18ab92bbd4e80fd6467aa10b904a045e"
          ],
          "data": "0x0000000000000000000000000000000000000000000000000de0b6b3a7640000",
          "blockHash": "0x5c263be2d1208b2eed6570d54cb17abb6535bcdb181e86e8d5b8c1969fffa3ad",
          "blockNumber": "0x2a8ffd9",
          "transactionHash": "0xe56a3d7f4354a9ce0c6dc563707f9f3c2925acd815c1ba39dcec17bdbc1dc66d",
          "transactionIndex": "0x9",
          "logIndex": "0xe",
          "removed": false
        },
        {
          "address": "0x9113f4531aa608d96dea970f7d9fe42dc9917a4c",
          "topics": [
            "0x523322d7afb07cee28d04498651096af062004e1f14315eff2e4a60290dfadda",
            "0x000000000000000000000000283e260f03f80982d9d3a83a30a574dff335d563",
            "0x000000000000000000000000ac166a1b90308ca742db5b388ffcbdc3e17a186c"
          ],
          "data": "0x0000000000000000000000000000000000000000000000000de0b6b3a7640000",
          "blockHash": "0x5c263be2d1208b2eed6570d54cb17abb6535bcdb181e86e8d5b8c1969fffa3ad",
          "blockNumber": "0x2a8ffd9",
          "transactionHash": "0xe56a3d7f4354a9ce0c6dc563707f9f3c2925acd815c1ba39dcec17bdbc1dc66d",
          "transactionIndex": "0x9",
          "logIndex": "0xf",
          "removed": false
        },
        {
          "address": "0x3b346548fbfa74623047b1e199a96576dd156f2e",
          "topics": [
            "0xddf252ad1be2c89b69c2b068fc378daa952ba7f163c4a11628f55a4df523b3ef",
            "0x0000000000000000000000000000000000000000000000000000000000000000",
            "0x0000000000000000000000009113f4531aa608d96dea970f7d9fe42dc9917a4c"
          ],
          "data": "0x00000000000000000000000000000000000000000000000d8d726b7177a80000",
          "blockHash": "0x5c263be2d1208b2eed6570d54cb17abb6535bcdb181e86e8d5b8c1969fffa3ad",
          "blockNumber": "0x2a8ffd9",
          "transactionHash": "0xe56a3d7f4354a9ce0c6dc563707f9f3c2925acd815c1ba39dcec17bdbc1dc66d",
          "transactionIndex": "0x9",
          "logIndex": "0x10",
          "removed": false
        },
        {
          "address": "0x9113f4531aa608d96dea970f7d9fe42dc9917a4c",
          "topics": [
            "0xc14e9e6b4d98a542b05a0f6b64acd5f4cbdb914be88432d87486b664e97071a7",
            "0x000000000000000000000000283e260f03f80982d9d3a83a30a574dff335d563",
            "0x0000000000000000000000003b346548fbfa74623047b1e199a96576dd156f2e"
          ],
          "data": "0x00000000000000000000000000000000000000000000000d8d726b7177a800000000000000000000000000000000000000000000000000000000000000000002",
          "blockHash": "0x5c263be2d1208b2eed6570d54cb17abb6535bcdb181e86e8d5b8c1969fffa3ad",
          "blockNumber": "0x2a8ffd9",
          "transactionHash": "0xe56a3d7f4354a9ce0c6dc563707f9f3c2925acd815c1ba39dcec17bdbc1dc66d",
          "transactionIndex": "0x9",
          "logIndex": "0x11",
          "removed": false
        },
        {
          "address": "0x3b346548fbfa74623047b1e199a96576dd156f2e",
          "topics": [
            "0xddf252ad1be2c89b69c2b068fc378daa952ba7f163c4a11628f55a4df523b3ef",
            "0x000000000000000000000000283e260f03f80982d9d3a83a30a574dff335d563",
            "0x0000000000000000000000003a4db9e7306af09012ceb0f222d581fd1f0c6d71"
          ],
          "data": "0x00000000000000000000000000000000000000000000000d8d726b7177a80000",
          "blockHash": "0x5c263be2d1208b2eed6570d54cb17abb6535bcdb181e86e8d5b8c1969fffa3ad",
          "blockNumber": "0x2a8ffd9",
          "transactionHash": "0xe56a3d7f4354a9ce0c6dc563707f9f3c2925acd815c1ba39dcec17bdbc1dc66d",
          "transactionIndex": "0x9",
          "logIndex": "0x12",
          "removed": false
        },
        {
          "address": "0x283e260f03f80982d9d3a83a30a574dff335d563",
          "topics": [
            "0x9f9b498443531d2db9df8a00ec466efc74ba50ec1d82f7badd3424b87930e19a",
            "0x0000000000000000000000000000000000000000000000000000000000000003",
            "0x0000000000000000000000003a4db9e7306af09012ceb0f222d581fd1f0c6d71"
          ],
          "data": "0x000000000000000000000000ac166a1b90308ca742db5b388ffcbdc3e17a186c0000000000000000000000000000000000000000000000000de0b6b3a76400000000000000000000000000003b346548fbfa74623047b1e199a96576dd156f2e00000000000000000000000000000000000000000000000d8d726b7177a800000000000000000000000000000000000000000000000000000000000000000002",
          "blockHash": "0x5c263be2d1208b2eed6570d54cb17abb6535bcdb181e86e8d5b8c1969fffa3ad",
          "blockNumber": "0x2a8ffd9",
          "transactionHash": "0xe56a3d7f4354a9ce0c6dc563707f9f3c2925acd815c1ba39dcec17bdbc1dc66d",
          "transactionIndex": "0x9",
          "logIndex": "0x13",
          "removed": false
        }
      ],
      "logsBloom": "0x4000000000000000200004000000000000000100000000000000000000000000000000008000000200002000000000000008000002000000010000000020000000000002000200000000000800001000400000000000010100000008002000000200000002000000000000000000180000000002080000000000001000000000000000000000000000000000000040000000040000000000000000020000000002800000000000000400000000002000000000000080000000000000000040000004000200008000000000000000c000000000000200001000020000000020000010080000000001000000000000000000000000004000002000000000000800",
      "type": "0x0",
      "transactionHash": "0xe56a3d7f4354a9ce0c6dc563707f9f3c2925acd815c1ba39dcec17bdbc1dc66d",
      "transactionIndex": "0x9",
      "blockHash": "0x5c263be2d1208b2eed6570d54cb17abb6535bcdb181e86e8d5b8c1969fffa3ad",
      "blockNumber": "0x2a8ffd9",
      "gasUsed": "0x53969",
      "effectiveGasPrice": "0x5d22cfc40",
      "from": "0x3a4db9e7306af09012ceb0f222d581fd1f0c6d71",
      "to": "0x283e260f03f80982d9d3a83a30a574dff335d563",
      "contractAddress": null,
      "l1BaseFeeScalar": "0x0",
      "l1BlobBaseFee": "0x1",
      "l1BlobBaseFeeScalar": "0x0",
      "l1Fee": "0x0",
      "l1GasPrice": "0x9",
      "l1GasUsed": "0x7d8"
    },
    {
      "status": "0x1",
      "cumulativeGasUsed": "0xc756d",
      "logs": [
        {
          "address": "0x3b346548fbfa74623047b1e199a96576dd156f2e",
          "topics": [
            "0x8c5be1e5ebec7d5bd14f71427d1e84f3dd0314c0f7b2291e5b200ac8c7c3b925",
            "0x0000000000000000000000003a4db9e7306af09012ceb0f222d581fd1f0c6d71",
            "0x000000000000000000000000283e260f03f80982d9d3a83a30a574dff335d563"
          ],
          "data": "0x000000000000000000000000000000000000000000000003635c9adc5dea0000",
          "blockHash": "0x5c263be2d1208b2eed6570d54cb17abb6535bcdb181e86e8d5b8c1969fffa3ad",
          "blockNumber": "0x2a8ffd9",
          "transactionHash": "0x6a439b076c4066ff271429095d2ef2b4f0ad403ffae2349bc300ecc548156d72",
          "transactionIndex": "0xa",
          "logIndex": "0x14",
          "removed": false
        }
      ],
      "logsBloom": "0x00000000000000002000000000000000000001000000000000000000000000000000000000000000000000000000000000000000000000000000000000200000000000000000000000000000000000004000000000000000000000000000000000000000000000000000000000000000000000000800000000000000000000000000000000000000000000000000400000000000000000000000000000000000028000000000000000000000000020000000000000000000000000000000000000000000000080000000000000000000000000000000001000000000000000000010000000000000000000000000000000000000000000000000000000000000",
      "type": "0x0",
      "transactionHash": "0x6a439b076c4066ff271429095d2ef2b4f0ad403ffae2349bc300ecc548156d72",
      "transactionIndex": "0xa",
      "blockHash": "0x5c263be2d1208b2eed6570d54cb17abb6535bcdb181e86e8d5b8c1969fffa3ad",
      "blockNumber": "0x2a8ffd9",
      "gasUsed": "0xb773",
      "effectiveGasPrice": "0x5d22cfc40",
      "from": "0x3a4db9e7306af09012ceb0f222d581fd1f0c6d71",
      "to": "0x3b346548fbfa74623047b1e199a96576dd156f2e",
      "contractAddress": null,
      "l1BaseFeeScalar": "0x0",
      "l1BlobBaseFee": "0x1",
      "l1BlobBaseFeeScalar": "0x0",
      "l1Fee": "0x0",
      "l1GasPrice": "0x9",
      "l1GasUsed": "0x640"
    },
    {
      "status": "0x1",
      "cumulativeGasUsed": "0xe1a23",
      "logs": [
        {
          "address": "0x3b346548fbfa74623047b1e199a96576dd156f2e",
          "topics": [
            "0xddf252ad1be2c89b69c2b068fc378daa952ba7f163c4a11628f55a4df523b3ef",
            "0x0000000000000000000000003a4db9e7306af09012ceb0f222d581fd1f0c6d71",
            "0x000000000000000000000000283e260f03f80982d9d3a83a30a574dff335d563"
          ],
          "data": "0x000000000000000000000000000000000000000000000003635c9adc5dea0000",
          "blockHash": "0x5c263be2d1208b2eed6570d54cb17abb6535bcdb181e86e8d5b8c1969fffa3ad",
          "blockNumber": "0x2a8ffd9",
          "transactionHash": "0xe535742ef4aaab5e17ac4846324a567a0aec4fdf0cfb9220f6f5e4271d6d750b",
          "transactionIndex": "0xb",
          "logIndex": "0x15",
          "removed": false
        },
        {
          "address": "0x3b346548fbfa74623047b1e199a96576dd156f2e",
          "topics": [
            "0x8c5be1e5ebec7d5bd14f71427d1e84f3dd0314c0f7b2291e5b200ac8c7c3b925",
            "0x000000000000000000000000283e260f03f80982d9d3a83a30a574dff335d563",
            "0x0000000000000000000000009113f4531aa608d96dea970f7d9fe42dc9917a4c"
          ],
          "data": "0x000000000000000000000000000000000000000000000003635c9adc5dea0000",
          "blockHash": "0x5c263be2d1208b2eed6570d54cb17abb6535bcdb181e86e8d5b8c1969fffa3ad",
          "blockNumber": "0x2a8ffd9",
          "transactionHash": "0xe535742ef4aaab5e17ac4846324a567a0aec4fdf0cfb9220f6f5e4271d6d750b",
          "transactionIndex": "0xb",
          "logIndex": "0x16",
          "removed": false
        },
        {
          "address": "0x3b346548fbfa74623047b1e199a96576dd156f2e",
          "topics": [
            "0xddf252ad1be2c89b69c2b068fc378daa952ba7f163c4a11628f55a4df523b3ef",
            "0x000000000000000000000000283e260f03f80982d9d3a83a30a574dff335d563",
            "0x0000000000000000000000009113f4531aa608d96dea970f7d9fe42dc9917a4c"
          ],
          "data": "0x000000000000000000000000000000000000000000000003635c9adc5dea0000",
          "blockHash": "0x5c263be2d1208b2eed6570d54cb17abb6535bcdb181e86e8d5b8c1969fffa3ad",
          "blockNumber": "0x2a8ffd9",
          "transactionHash": "0xe535742ef4aaab5e17ac4846324a567a0aec4fdf0cfb9220f6f5e4271d6d750b",
          "transactionIndex": "0xb",
          "logIndex": "0x17",
          "removed": false
        },
        {
          "address": "0x3b346548fbfa74623047b1e199a96576dd156f2e",
          "topics": [
            "0x8c5be1e5ebec7d5bd14f71427d1e84f3dd0314c0f7b2291e5b200ac8c7c3b925",
            "0x0000000000000000000000009113f4531aa608d96dea970f7d9fe42dc9917a4c",
            "0x0000000000000000000000009e650b3b18ab92bbd4e80fd6467aa10b904a045e"
          ],
          "data": "0x000000000000000000000000000000000000000000000003635c9adc5dea0000",
          "blockHash": "0x5c263be2d1208b2eed6570d54cb17abb6535bcdb181e86e8d5b8c1969fffa3ad",
          "blockNumber": "0x2a8ffd9",
          "transactionHash": "0xe535742ef4aaab5e17ac4846324a567a0aec4fdf0cfb9220f6f5e4271d6d750b",
          "transactionIndex": "0xb",
          "logIndex": "0x18",
          "removed": false
        },
        {
          "address": "0x9113f4531aa608d96dea970f7d9fe42dc9917a4c",
          "topics": [
            "0x0a3fbbea70e93f2daafa3102f5c9a1b8315e6d7a1e43e4bc020bc1162327470a",
            "0x000000000000000000000000283e260f03f80982d9d3a83a30a574dff335d563",
            "0x0000000000000000000000003b346548fbfa74623047b1e199a96576dd156f2e"
          ],
          "data": "0x000000000000000000000000000000000000000000000003635c9adc5dea0000",
          "blockHash": "0x5c263be2d1208b2eed6570d54cb17abb6535bcdb181e86e8d5b8c1969fffa3ad",
          "blockNumber": "0x2a8ffd9",
          "transactionHash": "0xe535742ef4aaab5e17ac4846324a567a0aec4fdf0cfb9220f6f5e4271d6d750b",
          "transactionIndex": "0xb",
          "logIndex": "0x19",
          "removed": false
        },
        {
          "address": "0x283e260f03f80982d9d3a83a30a574dff335d563",
          "topics": [
            "0x0d4979b0859a1951f8ed7cbe3b1994e740552588f27ba02ca0f8f1ddcad16e0c",
            "0x0000000000000000000000000000000000000000000000000000000000000003"
          ],
          "data": "0x000000000000000000000000000000000000000000000003635c9adc5dea0000",
          "blockHash": "0x5c263be2d1208b2eed6570d54cb17abb6535bcdb181e86e8d5b8c1969fffa3ad",
          "blockNumber": "0x2a8ffd9",
          "transactionHash": "0xe535742ef4aaab5e17ac4846324a567a0aec4fdf0cfb9220f6f5e4271d6d750b",
          "transactionIndex": "0xb",
          "logIndex": "0x1a",
          "removed": false
        }
      ],
      "logsBloom": "0x40000000000000002000040010000000000001000000000000000000000000000000000090000002000000000000080000000000020000000100000000200000000000000002000000000008000010004000002000000101000000000000000080000000000000000000000000800000000000000800000000000010000000000000000000000000000000000000400000000400000000000000000200000000028000000000000000000000000020000000000000800000000000000000400000000002000080000000000000000000000000000200001000000000000000000010080000000001000000000000000000000000000000000000000000000800",
      "type": "0x0",
      "transactionHash": "0xe535742ef4aaab5e17ac4846324a567a0aec4fdf0cfb9220f6f5e4271d6d750b",
      "transactionIndex": "0xb",
      "blockHash": "0x5c263be2d1208b2eed6570d54cb17abb6535bcdb181e86e8d5b8c1969fffa3ad",
      "blockNumber": "0x2a8ffd9",
      "gasUsed": "0x1a4b6",
      "effectiveGasPrice": "0x5d22cfc40",
      "from": "0x3a4db9e7306af09012ceb0f222d581fd1f0c6d71",
      "to": "0x283e260f03f80982d9d3a83a30a574dff335d563",
      "contractAddress": null,
      "l1BaseFeeScalar": "0x0",
      "l1BlobBaseFee": "0x1",
      "l1BlobBaseFeeScalar": "0x0",
      "l1Fee": "0x0",
      "l1GasPrice": "0x9",
      "l1GasUsed": "0x640"
    },
    {
      "status": "0x1",
      "cumulativeGasUsed": "0xebc72",
      "logs": [
        {
          "address": "0x9113f4531aa608d96dea970f7d9fe42dc9917a4c",
          "topics": [
            "0x0a3fbbea70e93f2daafa3102f5c9a1b8315e6d7a1e43e4bc020bc1162327470a",
            "0x000000000000000000000000283e260f03f80982d9d3a83a30a574dff335d563",
            "0x0000000000000000000000003b346548fbfa74623047b1e199a96576dd156f2e"
          ],
          "data": "0x000000000000000000000000000000000000000000000003635c9adc5dea0000",
          "blockHash": "0x5c263be2d1208b2eed6570d54cb17abb6535bcdb181e86e8d5b8c1969fffa3ad",
          "blockNumber": "0x2a8ffd9",
          "transactionHash": "0x0f1309b3f79d9cf5e02d436a1b3a586cdcb69880de0e9453783e3146698638f5",
          "transactionIndex": "0xc",
          "logIndex": "0x1b",
          "removed": false
        }
      ],
      "logsBloom": "0x00000000000000002000000000000000000000000000000000000000000000000000000090000002000000000000080000000000000000000000000000000000000000000000000000000000000000000000000000000101000000000000000000000000000000000000000000800000000000000800000000000000000000000000000000000000000000000000000000000000000000000000000000000000008000000000000000000000000000000000000000000000000000000000000000000000000000000000000000000000000000000200000000000000000000000000080000000000000000000000000000000000000000000000000000000000",
      "type": "0x0",
      "transactionHash": "0x0f1309b3f79d9cf5e02d436a1b3a586cdcb69880de0e9453783e3146698638f5",
      "transactionIndex": "0xc",
      "blockHash": "0x5c263be2d1208b2eed6570d54cb17abb6535bcdb181e86e8d5b8c1969fffa3ad",
      "blockNumber": "0x2a8ffd9",
      "gasUsed": "0xa24f",
      "effectiveGasPrice": "0x5d22cfc40",
      "from": "0x3a4db9e7306af09012ceb0f222d581fd1f0c6d71",
      "to": "0x9113f4531aa608d96dea970f7d9fe42dc9917a4c",
      "contractAddress": null,
      "l1BaseFeeScalar": "0x0",
      "l1BlobBaseFee": "0x1",
      "l1BlobBaseFeeScalar": "0x0",
      "l1Fee": "0x0",
      "l1GasPrice": "0x9",
      "l1GasUsed": "0x8ff"
    },
    {
      "status": "0x1",
      "cumulativeGasUsed": "0xf73e5",
      "logs": [
        {
          "address": "0x3b346548fbfa74623047b1e199a96576dd156f2e",
          "topics": [
            "0x8c5be1e5ebec7d5bd14f71427d1e84f3dd0314c0f7b2291e5b200ac8c7c3b925",
            "0x0000000000000000000000003a4db9e7306af09012ceb0f222d581fd1f0c6d71",
            "0x000000000000000000000000283e260f03f80982d9d3a83a30a574dff335d563"
          ],
          "data": "0x00000000000000000000000000000000000000000000000a2a15d09519be0000",
          "blockHash": "0x5c263be2d1208b2eed6570d54cb17abb6535bcdb181e86e8d5b8c1969fffa3ad",
          "blockNumber": "0x2a8ffd9",
          "transactionHash": "0x30c4af97ba9731ed42467926659c5605d9bf72c1e89506554d6b7da34c9228fe",
          "transactionIndex": "0xd",
          "logIndex": "0x1c",
          "removed": false
        }
      ],
      "logsBloom": "0x00000000000000002000000000000000000001000000000000000000000000000000000000000000000000000000000000000000000000000000000000200000000000000000000000000000000000004000000000000000000000000000000000000000000000000000000000000000000000000800000000000000000000000000000000000000000000000000400000000000000000000000000000000000028000000000000000000000000020000000000000000000000000000000000000000000000080000000000000000000000000000000001000000000000000000010000000000000000000000000000000000000000000000000000000000000",
      "type": "0x0",
      "transactionHash": "0x30c4af97ba9731ed42467926659c5605d9bf72c1e89506554d6b7da34c9228fe",
      "transactionIndex": "0xd",
      "blockHash": "0x5c263be2d1208b2eed6570d54cb17abb6535bcdb181e86e8d5b8c1969fffa3ad",
      "blockNumber": "0x2a8ffd9",
      "gasUsed": "0xb773",
      "effectiveGasPrice": "0x5d22cfc40",
      "from": "0x3a4db9e7306af09012ceb0f222d581fd1f0c6d71",
      "to": "0x3b346548fbfa74623047b1e199a96576dd156f2e",
      "contractAddress": null,
      "l1BaseFeeScalar": "0x0",
      "l1BlobBaseFee": "0x1",
      "l1BlobBaseFeeScalar": "0x0",
      "l1Fee": "0x0",
      "l1GasPrice": "0x9",
      "l1GasUsed": "0x640"
    },
    {
      "status": "0x1",
      "cumulativeGasUsed": "0x11a2cf",
      "logs": [
        {
          "address": "0x3b346548fbfa74623047b1e199a96576dd156f2e",
          "topics": [
            "0xddf252ad1be2c89b69c2b068fc378daa952ba7f163c4a11628f55a4df523b3ef",
            "0x0000000000000000000000003a4db9e7306af09012ceb0f222d581fd1f0c6d71",
            "0x000000000000000000000000283e260f03f80982d9d3a83a30a574dff335d563"
          ],
          "data": "0x00000000000000000000000000000000000000000000000a2a15d09519be0000",
          "blockHash": "0x5c263be2d1208b2eed6570d54cb17abb6535bcdb181e86e8d5b8c1969fffa3ad",
          "blockNumber": "0x2a8ffd9",
          "transactionHash": "0x7bf2ea5bb33fa33adf70a7e408081da9f7c435ff41a6a9c2521a4a76db28002b",
          "transactionIndex": "0xe",
          "logIndex": "0x1d",
          "removed": false
        },
        {
          "address": "0x3b346548fbfa74623047b1e199a96576dd156f2e",
          "topics": [
            "0x8c5be1e5ebec7d5bd14f71427d1e84f3dd0314c0f7b2291e5b200ac8c7c3b925",
            "0x000000000000000000000000283e260f03f80982d9d3a83a30a574dff335d563",
            "0x0000000000000000000000009113f4531aa608d96dea970f7d9fe42dc9917a4c"
          ],
          "data": "0x00000000000000000000000000000000000000000000000a2a15d09519be0000",
          "blockHash": "0x5c263be2d1208b2eed6570d54cb17abb6535bcdb181e86e8d5b8c1969fffa3ad",
          "blockNumber": "0x2a8ffd9",
          "transactionHash": "0x7bf2ea5bb33fa33adf70a7e408081da9f7c435ff41a6a9c2521a4a76db28002b",
          "transactionIndex": "0xe",
          "logIndex": "0x1e",
          "removed": false
        },
        {
          "address": "0x3b346548fbfa74623047b1e199a96576dd156f2e",
          "topics": [
            "0xddf252ad1be2c89b69c2b068fc378daa952ba7f163c4a11628f55a4df523b3ef",
            "0x000000000000000000000000283e260f03f80982d9d3a83a30a574dff335d563",
            "0x0000000000000000000000009113f4531aa608d96dea970f7d9fe42dc9917a4c"
          ],
          "data": "0x00000000000000000000000000000000000000000000000a2a15d09519be0000",
          "blockHash": "0x5c263be2d1208b2eed6570d54cb17abb6535bcdb181e86e8d5b8c1969fffa3ad",
          "blockNumber": "0x2a8ffd9",
          "transactionHash": "0x7bf2ea5bb33fa33adf70a7e408081da9f7c435ff41a6a9c2521a4a76db28002b",
          "transactionIndex": "0xe",
          "logIndex": "0x1f",
          "removed": false
        },
        {
          "address": "0x3b346548fbfa74623047b1e199a96576dd156f2e",
          "topics": [
            "0x8c5be1e5ebec7d5bd14f71427d1e84f3dd0314c0f7b2291e5b200ac8c7c3b925",
            "0x0000000000000000000000009113f4531aa608d96dea970f7d9fe42dc9917a4c",
            "0x0000000000000000000000009e650b3b18ab92bbd4e80fd6467aa10b904a045e"
          ],
          "data": "0x00000000000000000000000000000000000000000000000a2a15d09519be0000",
          "blockHash": "0x5c263be2d1208b2eed6570d54cb17abb6535bcdb181e86e8d5b8c1969fffa3ad",
          "blockNumber": "0x2a8ffd9",
          "transactionHash": "0x7bf2ea5bb33fa33adf70a7e408081da9f7c435ff41a6a9c2521a4a76db28002b",
          "transactionIndex": "0xe",
          "logIndex": "0x20",
          "removed": false
        },
        {
          "address": "0x9113f4531aa608d96dea970f7d9fe42dc9917a4c",
          "topics": [
            "0x0a3fbbea70e93f2daafa3102f5c9a1b8315e6d7a1e43e4bc020bc1162327470a",
            "0x000000000000000000000000283e260f03f80982d9d3a83a30a574dff335d563",
            "0x0000000000000000000000003b346548fbfa74623047b1e199a96576dd156f2e"
          ],
          "data": "0x00000000000000000000000000000000000000000000000a2a15d09519be0000",
          "blockHash": "0x5c263be2d1208b2eed6570d54cb17abb6535bcdb181e86e8d5b8c1969fffa3ad",
          "blockNumber": "0x2a8ffd9",
          "transactionHash": "0x7bf2ea5bb33fa33adf70a7e408081da9f7c435ff41a6a9c2521a4a76db28002b",
          "transactionIndex": "0xe",
          "logIndex": "0x21",
          "removed": false
        },
        {
          "address": "0xac166a1b90308ca742db5b388ffcbdc3e17a186c",
          "topics": [
            "0xddf252ad1be2c89b69c2b068fc378daa952ba7f163c4a11628f55a4df523b3ef",
            "0x0000000000000000000000000000000000000000000000000000000000000000",
            "0x0000000000000000000000003a4db9e7306af09012ceb0f222d581fd1f0c6d71"
          ],
          "data": "0x00000000000000000000000000000000000000000000003635c9adc5dea00000",
          "blockHash": "0x5c263be2d1208b2eed6570d54cb17abb6535bcdb181e86e8d5b8c1969fffa3ad",
          "blockNumber": "0x2a8ffd9",
          "transactionHash": "0x7bf2ea5bb33fa33adf70a7e408081da9f7c435ff41a6a9c2521a4a76db28002b",
          "transactionIndex": "0xe",
          "logIndex": "0x22",
          "removed": false
        },
        {
          "address": "0x9113f4531aa608d96dea970f7d9fe42dc9917a4c",
          "topics": [
            "0xd1c19fbcd4551a5edfb66d43d2e337c04837afda3482b42bdf569a8fccdae5fb",
            "0x000000000000000000000000283e260f03f80982d9d3a83a30a574dff335d563",
            "0x000000000000000000000000ac166a1b90308ca742db5b388ffcbdc3e17a186c"
          ],
          "data": "0xffffffffffffffffffffffffffffffffffffffffffffffffffffffffffffffff",
          "blockHash": "0x5c263be2d1208b2eed6570d54cb17abb6535bcdb181e86e8d5b8c1969fffa3ad",
          "blockNumber": "0x2a8ffd9",
          "transactionHash": "0x7bf2ea5bb33fa33adf70a7e408081da9f7c435ff41a6a9c2521a4a76db28002b",
          "transactionIndex": "0xe",
          "logIndex": "0x23",
          "removed": false
        },
        {
          "address": "0x283e260f03f80982d9d3a83a30a574dff335d563",
          "topics": [
            "0xcefaf961c5013063cf501ffd9f9382e9b9c4b15741ad032fe93d7e9c7c733b22",
            "0x0000000000000000000000000000000000000000000000000000000000000003",
            "0x0000000000000000000000003a4db9e7306af09012ceb0f222d581fd1f0c6d71"
          ],
          "data": "0x",
          "blockHash": "0x5c263be2d1208b2eed6570d54cb17abb6535bcdb181e86e8d5b8c1969fffa3ad",
          "blockNumber": "0x2a8ffd9",
          "transactionHash": "0x7bf2ea5bb33fa33adf70a7e408081da9f7c435ff41a6a9c2521a4a76db28002b",
          "transactionIndex": "0xe",
          "logIndex": "0x24",
          "removed": false
        }
      ],
      "logsBloom": "0x40000000000000002000040000000000000021000000000000000000000000000000000090000002000000000000080000000000020000000100000000200000000000000002000000000008000210004000000000000101000000081000000002000000020000000000000000841800000000000800000000000010000000000000000000000000000000000000400000000400000000000000000200000000028000000000000006000000000020000000000000800000000000000000400000000002000080000000000000004000000000000200001000000000000020000010080000000001000000080000000000000000000000002000000000000800",
      "type": "0x0",
      "transactionHash": "0x7bf2ea5bb33fa33adf70a7e408081da9f7c435ff41a6a9c2521a4a76db28002b",
      "transactionIndex": "0xe",
      "blockHash": "0x5c263be2d1208b2eed6570d54cb17abb6535bcdb181e86e8d5b8c1969fffa3ad",
      "blockNumber": "0x2a8ffd9",
      "gasUsed": "0x22eea",
      "effectiveGasPrice": "0x5d22cfc40",
      "from": "0x3a4db9e7306af09012ceb0f222d581fd1f0c6d71",
      "to": "0x283e260f03f80982d9d3a83a30a574dff335d563",
      "contractAddress": null,
      "l1BaseFeeScalar": "0x0",
      "l1BlobBaseFee": "0x1",
      "l1BlobBaseFeeScalar": "0x0",
      "l1Fee": "0x0",
      "l1GasPrice": "0x9",
      "l1GasUsed": "0x640"
    }
  ],
  "libraries": [],
  "pending": [],
  "returns": {},
  "timestamp": 1745585298,
  "chain": 44787,
  "commit": "144c6c6"
}