{
  "transactions": [
    {
      "hash": "0x376d9606219c0de54d63762bdb4bde5a412c7a5580754eb16abf5b43a3719491",
      "transactionType": "CALL",
      "contractName": null,
      "contractAddress": "0x7262bfada9f61530119693d532e716d5cd3191ec",
      "function": "mint(address,uint256)",
      "arguments": [
        "0x3A4dB9e7306aF09012ceb0f222d581FD1F0C6D71",
        "10000000000"
      ],
      "transaction": {
        "from": "0x3a4db9e7306af09012ceb0f222d581fd1f0c6d71",
        "to": "0x7262bfada9f61530119693d532e716d5cd3191ec",
        "gas": "0xc63a",
        "value": "0x0",
        "input": "0x40c10f190000000000000000000000003a4db9e7306af09012ceb0f222d581fd1f0c6d7100000000000000000000000000000000000000000000000000000002540be400",
        "nonce": "0xe0",
        "chainId": "0xaef3"
      },
      "additionalContracts": [],
      "isFixedGasLimit": false
    },
    {
      "hash": "0xbf96631e047ba8f6ee556568898b1f3c3c9ba430f2e5a94dd15f459dd053623c",
      "transactionType": "CALL",
      "contractName": null,
      "contractAddress": "0xac166a1b90308ca742db5b388ffcbdc3e17a186c",
      "function": "mint(address,uint256)",
      "arguments": [
        "0x3A4dB9e7306aF09012ceb0f222d581FD1F0C6D71",
        "10000000000000000000"
      ],
      "transaction": {
        "from": "0x3a4db9e7306af09012ceb0f222d581fd1f0c6d71",
        "to": "0xac166a1b90308ca742db5b388ffcbdc3e17a186c",
        "gas": "0xc65d",
        "value": "0x0",
        "input": "0x40c10f190000000000000000000000003a4db9e7306af09012ceb0f222d581fd1f0c6d710000000000000000000000000000000000000000000000008ac7230489e80000",
        "nonce": "0xe1",
        "chainId": "0xaef3"
      },
      "additionalContracts": [],
      "isFixedGasLimit": false
    },
    {
      "hash": "0x31f8b2fc4f70afd1bd6da2eb12b7d312e6af6f029181a1c54948905a2aeb8488",
      "transactionType": "CALL",
      "contractName": null,
      "contractAddress": "0x3b346548fbfa74623047b1e199a96576dd156f2e",
      "function": "mint(address,uint256)",
      "arguments": [
        "0x3A4dB9e7306aF09012ceb0f222d581FD1F0C6D71",
        "10000000000000000000000"
      ],
      "transaction": {
        "from": "0x3a4db9e7306af09012ceb0f222d581fd1f0c6d71",
        "to": "0x3b346548fbfa74623047b1e199a96576dd156f2e",
        "gas": "0xbbf4",
        "value": "0x0",
        "input": "0x40c10f190000000000000000000000003a4db9e7306af09012ceb0f222d581fd1f0c6d7100000000000000000000000000000000000000000000021e19e0c9bab2400000",
        "nonce": "0xe2",
        "chainId": "0xaef3"
      },
      "additionalContracts": [],
      "isFixedGasLimit": false
    },
    {
      "hash": "0xef2b7bb0b2b89dc804df9eb59e60c886d353d61ed9c44014b1b80f2bda2ef0df",
      "transactionType": "CALL",
      "contractName": null,
      "contractAddress": "0x3b346548fbfa74623047b1e199a96576dd156f2e",
      "function": "mint(address,uint256)",
      "arguments": [
        "0xA41cC78C1F302A35184dDBE225d5530376cAd254",
        "10000000000000000000000"
      ],
      "transaction": {
        "from": "0x3a4db9e7306af09012ceb0f222d581fd1f0c6d71",
        "to": "0x3b346548fbfa74623047b1e199a96576dd156f2e",
        "gas": "0xbbf4",
        "value": "0x0",
        "input": "0x40c10f19000000000000000000000000a41cc78c1f302a35184ddbe225d5530376cad25400000000000000000000000000000000000000000000021e19e0c9bab2400000",
        "nonce": "0xe3",
        "chainId": "0xaef3"
      },
      "additionalContracts": [],
      "isFixedGasLimit": false
    },
    {
      "hash": "0x4b07b9d9473f9c1f87f7d0e2cff1647990a5b4eb6552b2c5895b6b5a676f228b",
      "transactionType": "CALL",
      "contractName": null,
      "contractAddress": "0xac166a1b90308ca742db5b388ffcbdc3e17a186c",
      "function": "approve(address,uint256)",
      "arguments": [
        "0xAe84B9e6dBa48D14f4ec7741666c976C0556A295",
        "1000000000000000000"
      ],
      "transaction": {
        "from": "0x3a4db9e7306af09012ceb0f222d581fd1f0c6d71",
        "to": "0xac166a1b90308ca742db5b388ffcbdc3e17a186c",
        "gas": "0xfd33",
        "value": "0x0",
        "input": "0x095ea7b3000000000000000000000000ae84b9e6dba48d14f4ec7741666c976c0556a2950000000000000000000000000000000000000000000000000de0b6b3a7640000",
        "nonce": "0xe4",
        "chainId": "0xaef3"
      },
      "additionalContracts": [],
      "isFixedGasLimit": false
    },
    {
      "hash": "0x956a9e5257d306dd48d237645d9f428aa510450a0200183ce96d0ac4d083fb7f",
      "transactionType": "CALL",
      "contractName": "LendyProtocol",
      "contractAddress": "0xae84b9e6dba48d14f4ec7741666c976c0556a295",
      "function": "supply(address,uint256,address,uint16)",
      "arguments": [
        "0xAC166A1B90308cA742Db5b388FFCBdc3E17a186c",
        "1000000000000000000",
        "0x3A4dB9e7306aF09012ceb0f222d581FD1F0C6D71",
        "0"
      ],
      "transaction": {
        "from": "0x3a4db9e7306af09012ceb0f222d581fd1f0c6d71",
        "to": "0xae84b9e6dba48d14f4ec7741666c976c0556a295",
        "gas": "0x17a88",
        "value": "0x0",
        "input": "0x617ba037000000000000000000000000ac166a1b90308ca742db5b388ffcbdc3e17a186c0000000000000000000000000000000000000000000000000de0b6b3a76400000000000000000000000000003a4db9e7306af09012ceb0f222d581fd1f0c6d710000000000000000000000000000000000000000000000000000000000000000",
        "nonce": "0xe5",
        "chainId": "0xaef3"
      },
      "additionalContracts": [],
      "isFixedGasLimit": false
    },
    {
      "hash": "0x05c4577a67671438864a3533b4012a5c4efc520f95e325af83d622646468aff2",
      "transactionType": "CALL",
      "contractName": "LendyProtocol",
      "contractAddress": "0xae84b9e6dba48d14f4ec7741666c976c0556a295",
      "function": "borrow(address,uint256,uint256,uint16,address)",
      "arguments": [
        "0x7262Bfada9f61530119693d532E716D5CD3191eC",
        "100000000",
        "2",
        "0",
        "0x3A4dB9e7306aF09012ceb0f222d581FD1F0C6D71"
      ],
      "transaction": {
        "from": "0x3a4db9e7306af09012ceb0f222d581fd1f0c6d71",
        "to": "0xae84b9e6dba48d14f4ec7741666c976c0556a295",
        "gas": "0x15092",
        "value": "0x0",
        "input": "0xa415bcad0000000000000000000000007262bfada9f61530119693d532e716d5cd3191ec0000000000000000000000000000000000000000000000000000000005f5e100000000000000000000000000000000000000000000000000000000000000000200000000000000000000000000000000000000000000000000000000000000000000000000000000000000003a4db9e7306af09012ceb0f222d581fd1f0c6d71",
        "nonce": "0xe6",
        "chainId": "0xaef3"
      },
      "additionalContracts": [],
      "isFixedGasLimit": false
    },
    {
      "hash": "0x9051d9dca1ef127a489b368d583bbf07f214e1b4401dca1065fbdd09e71d0681",
      "transactionType": "CALL",
      "contractName": "LendyProtocol",
      "contractAddress": "0xae84b9e6dba48d14f4ec7741666c976c0556a295",
      "function": "supplyWithPermit(address,uint256,address,uint16,uint256,uint8,bytes32,bytes32)",
      "arguments": [
        "0x3B346548fbfa74623047B1E199a96576dd156f2e",
        "1000000000000000000000",
        "0x3A4dB9e7306aF09012ceb0f222d581FD1F0C6D71",
        "0",
        "1745604654",
        "27",
        "0x0000000000000000000000000000000000000000000000000000000000000001",
        "0x0000000000000000000000000000000000000000000000000000000000000002"
      ],
      "transaction": {
        "from": "0x3a4db9e7306af09012ceb0f222d581fd1f0c6d71",
        "to": "0xae84b9e6dba48d14f4ec7741666c976c0556a295",
        "gas": "0xf746",
        "value": "0x0",
        "input": "0x02c205f00000000000000000000000003b346548fbfa74623047b1e199a96576dd156f2e00000000000000000000000000000000000000000000003635c9adc5dea000000000000000000000000000003a4db9e7306af09012ceb0f222d581fd1f0c6d71000000000000000000000000000000000000000000000000000000000000000000000000000000000000000000000000000000000000000000000000680bd02e000000000000000000000000000000000000000000000000000000000000001b00000000000000000000000000000000000000000000000000000000000000010000000000000000000000000000000000000000000000000000000000000002",
        "nonce": "0xe7",
        "chainId": "0xaef3"
      },
      "additionalContracts": [],
      "isFixedGasLimit": false
    },
    {
      "hash": "0xde03d9e545d7fab4ef0ef637f8addf1ea137a3273456a2dca330b6d7c2f0083b",
      "transactionType": "CALL",
      "contractName": "LendyProtocol",
      "contractAddress": "0xae84b9e6dba48d14f4ec7741666c976c0556a295",
      "function": "repayWithPermit(address,uint256,uint256,address,uint256,uint8,bytes32,bytes32)",
      "arguments": [
        "0x3B346548fbfa74623047B1E199a96576dd156f2e",
        "500000000000000000000",
        "2",
        "0x3A4dB9e7306aF09012ceb0f222d581FD1F0C6D71",
        "1745604654",
        "27",
        "0x0000000000000000000000000000000000000000000000000000000000000001",
        "0x0000000000000000000000000000000000000000000000000000000000000002"
      ],
      "transaction": {
        "from": "0x3a4db9e7306af09012ceb0f222d581fd1f0c6d71",
        "to": "0xae84b9e6dba48d14f4ec7741666c976c0556a295",
        "gas": "0x11814",
        "value": "0x0",
        "input": "0xee3e210b0000000000000000000000003b346548fbfa74623047b1e199a96576dd156f2e00000000000000000000000000000000000000000000001b1ae4d6e2ef50000000000000000000000000000000000000000000000000000000000000000000020000000000000000000000003a4db9e7306af09012ceb0f222d581fd1f0c6d7100000000000000000000000000000000000000000000000000000000680bd02e000000000000000000000000000000000000000000000000000000000000001b00000000000000000000000000000000000000000000000000000000000000010000000000000000000000000000000000000000000000000000000000000002",
        "nonce": "0xe8",
        "chainId": "0xaef3"
      },
      "additionalContracts": [],
      "isFixedGasLimit": false
    },
    {
      "hash": "0x64eb4879bee4113ee3ac4b36564427b04408233601dcf10e02c69594c7111f23",
      "transactionType": "CALL",
      "contractName": null,
      "contractAddress": "0xac166a1b90308ca742db5b388ffcbdc3e17a186c",
      "function": "approve(address,uint256)",
      "arguments": [
        "0xA41cC78C1F302A35184dDBE225d5530376cAd254",
        "1000000000000000000"
      ],
      "transaction": {
        "from": "0x3a4db9e7306af09012ceb0f222d581fd1f0c6d71",
        "to": "0xac166a1b90308ca742db5b388ffcbdc3e17a186c",
        "gas": "0xfd33",
        "value": "0x0",
        "input": "0x095ea7b3000000000000000000000000a41cc78c1f302a35184ddbe225d5530376cad2540000000000000000000000000000000000000000000000000de0b6b3a7640000",
        "nonce": "0xe9",
        "chainId": "0xaef3"
      },
      "additionalContracts": [],
      "isFixedGasLimit": false
    },
    {
      "hash": "0x9c28b1c5103be47ee377c2488294d34da7951077169f6c5786cfc82b8ef847ef",
      "transactionType": "CALL",
      "contractName": "LendyPositionManager",
      "contractAddress": "0xa41cc78c1f302a35184ddbe225d5530376cad254",
      "function": "createPosition(address,uint256,address,uint256,uint256)",
      "arguments": [
        "0xAC166A1B90308cA742Db5b388FFCBdc3E17a186c",
        "1000000000000000000",
        "0x3B346548fbfa74623047B1E199a96576dd156f2e",
        "250000000000000000000",
        "2"
      ],
      "transaction": {
        "from": "0x3a4db9e7306af09012ceb0f222d581fd1f0c6d71",
        "to": "0xa41cc78c1f302a35184ddbe225d5530376cad254",
        "gas": "0x7438b",
        "value": "0x0",
        "input": "0xb0c3d5df000000000000000000000000ac166a1b90308ca742db5b388ffcbdc3e17a186c0000000000000000000000000000000000000000000000000de0b6b3a76400000000000000000000000000003b346548fbfa74623047b1e199a96576dd156f2e00000000000000000000000000000000000000000000000d8d726b7177a800000000000000000000000000000000000000000000000000000000000000000002",
        "nonce": "0xea",
        "chainId": "0xaef3"
      },
      "additionalContracts": [],
      "isFixedGasLimit": false
    },
    {
      "hash": "0x244c530030256c926e827cb62fe9c8df767377fcad850f18ba71f38192e29377",
      "transactionType": "CALL",
      "contractName": null,
      "contractAddress": "0x3b346548fbfa74623047b1e199a96576dd156f2e",
      "function": "approve(address,uint256)",
      "arguments": [
        "0xA41cC78C1F302A35184dDBE225d5530376cAd254",
        "62500000000000000000"
      ],
      "transaction": {
        "from": "0x3a4db9e7306af09012ceb0f222d581fd1f0c6d71",
        "to": "0x3b346548fbfa74623047b1e199a96576dd156f2e",
        "gas": "0x10c4a",
        "value": "0x0",
        "input": "0x095ea7b3000000000000000000000000a41cc78c1f302a35184ddbe225d5530376cad254000000000000000000000000000000000000000000000003635c9adc5dea0000",
        "nonce": "0xeb",
        "chainId": "0xaef3"
      },
      "additionalContracts": [],
      "isFixedGasLimit": false
    },
    {
      "hash": "0xce84b3afe7ab4eb3432f129aa2083052456d1928de7fac80415d4681e4c017cf",
      "transactionType": "CALL",
      "contractName": "LendyPositionManager",
      "contractAddress": "0xa41cc78c1f302a35184ddbe225d5530376cad254",
      "function": "repayDebt(uint256,uint256)",
      "arguments": [
        "4",
        "62500000000000000000"
      ],
      "transaction": {
        "from": "0x3a4db9e7306af09012ceb0f222d581fd1f0c6d71",
        "to": "0xa41cc78c1f302a35184ddbe225d5530376cad254",
        "gas": "0x25d66",
        "value": "0x0",
        "input": "0x015cb0a50000000000000000000000000000000000000000000000000000000000000004000000000000000000000000000000000000000000000003635c9adc5dea0000",
        "nonce": "0xec",
        "chainId": "0xaef3"
      },
      "additionalContracts": [],
      "isFixedGasLimit": false
    },
    {
      "hash": "0x4d2ddc93ae0397134f82169b344fa26cf55d34f0f6566b2a3f34dc415d5a48fb",
      "transactionType": "CALL",
      "contractName": "LendyProtocol",
      "contractAddress": "0xae84b9e6dba48d14f4ec7741666c976c0556a295",
      "function": "repayWithPermit(address,uint256,uint256,address,uint256,uint8,bytes32,bytes32)",
      "arguments": [
        "0x3B346548fbfa74623047B1E199a96576dd156f2e",
        "62500000000000000000",
        "2",
        "0xA41cC78C1F302A35184dDBE225d5530376cAd254",
        "1745604654",
        "27",
        "0x0000000000000000000000000000000000000000000000000000000000000001",
        "0x0000000000000000000000000000000000000000000000000000000000000002"
      ],
      "transaction": {
        "from": "0x3a4db9e7306af09012ceb0f222d581fd1f0c6d71",
        "to": "0xae84b9e6dba48d14f4ec7741666c976c0556a295",
        "gas": "0x11814",
        "value": "0x0",
        "input": "0xee3e210b0000000000000000000000003b346548fbfa74623047b1e199a96576dd156f2e000000000000000000000000000000000000000000000003635c9adc5dea00000000000000000000000000000000000000000000000000000000000000000002000000000000000000000000a41cc78c1f302a35184ddbe225d5530376cad25400000000000000000000000000000000000000000000000000000000680bd02e000000000000000000000000000000000000000000000000000000000000001b00000000000000000000000000000000000000000000000000000000000000010000000000000000000000000000000000000000000000000000000000000002",
        "nonce": "0xed",
        "chainId": "0xaef3"
      },
      "additionalContracts": [],
      "isFixedGasLimit": false
    },
    {
      "hash": "0x2df3d782631a91c1117468ff18b0d32ed004e46c4eaf29fbacfafe3e65c53ba2",
      "transactionType": "CALL",
      "contractName": null,
      "contractAddress": "0x3b346548fbfa74623047b1e199a96576dd156f2e",
      "function": "approve(address,uint256)",
      "arguments": [
        "0xA41cC78C1F302A35184dDBE225d5530376cAd254",
        "187500000000000000000"
      ],
      "transaction": {
        "from": "0x3a4db9e7306af09012ceb0f222d581fd1f0c6d71",
        "to": "0x3b346548fbfa74623047b1e199a96576dd156f2e",
        "gas": "0x10c4a",
        "value": "0x0",
        "input": "0x095ea7b3000000000000000000000000a41cc78c1f302a35184ddbe225d5530376cad25400000000000000000000000000000000000000000000000a2a15d09519be0000",
        "nonce": "0xee",
        "chainId": "0xaef3"
      },
      "additionalContracts": [],
      "isFixedGasLimit": false
    },
    {
      "hash": "0xe53098d8cd4f7706c367ab62c96f062991a5709c9c8732796137e3566c65c9c2",
      "transactionType": "CALL",
      "contractName": "LendyPositionManager",
      "contractAddress": "0xa41cc78c1f302a35184ddbe225d5530376cad254",
      "function": "closePosition(uint256)",
      "arguments": [
        "4"
      ],
      "transaction": {
        "from": "0x3a4db9e7306af09012ceb0f222d581fd1f0c6d71",
        "to": "0xa41cc78c1f302a35184ddbe225d5530376cad254",
        "gas": "0x33ff8",
        "value": "0x0",
        "input": "0xa126d6010000000000000000000000000000000000000000000000000000000000000004",
        "nonce": "0xef",
        "chainId": "0xaef3"
      },
      "additionalContracts": [],
      "isFixedGasLimit": false
    },
    {
      "hash": "0x0578c4f043276cec9e56b20cd0eec0bcdae80abca82e29079c134ac0ee4f42ff",
      "transactionType": "CALL",
      "contractName": null,
      "contractAddress": "0xac166a1b90308ca742db5b388ffcbdc3e17a186c",
      "function": "approve(address,uint256)",
      "arguments": [
        "0xA41cC78C1F302A35184dDBE225d5530376cAd254",
        "1000000000000000000"
      ],
      "transaction": {
        "from": "0x3a4db9e7306af09012ceb0f222d581fd1f0c6d71",
        "to": "0xac166a1b90308ca742db5b388ffcbdc3e17a186c",
        "gas": "0xfd33",
        "value": "0x0",
        "input": "0x095ea7b3000000000000000000000000a41cc78c1f302a35184ddbe225d5530376cad2540000000000000000000000000000000000000000000000000de0b6b3a7640000",
        "nonce": "0xf0",
        "chainId": "0xaef3"
      },
      "additionalContracts": [],
      "isFixedGasLimit": false
    },
    {
      "hash": "0x9814ae3604c232df1b48e3590c7c2aea9f623b6d21761bcdd8c4b22c5051b2e5",
      "transactionType": "CALL",
      "contractName": "LendyPositionManager",
      "contractAddress": "0xa41cc78c1f302a35184ddbe225d5530376cad254",
      "function": "createPosition(address,uint256,address,uint256,uint256)",
      "arguments": [
        "0xAC166A1B90308cA742Db5b388FFCBdc3E17a186c",
        "1000000000000000000",
        "0x3B346548fbfa74623047B1E199a96576dd156f2e",
        "250000000000000000000",
        "2"
      ],
      "transaction": {
        "from": "0x3a4db9e7306af09012ceb0f222d581fd1f0c6d71",
        "to": "0xa41cc78c1f302a35184ddbe225d5530376cad254",
        "gas": "0x7346f",
        "value": "0x0",
        "input": "0xb0c3d5df000000000000000000000000ac166a1b90308ca742db5b388ffcbdc3e17a186c0000000000000000000000000000000000000000000000000de0b6b3a76400000000000000000000000000003b346548fbfa74623047b1e199a96576dd156f2e00000000000000000000000000000000000000000000000d8d726b7177a800000000000000000000000000000000000000000000000000000000000000000002",
        "nonce": "0xf1",
        "chainId": "0xaef3"
      },
      "additionalContracts": [],
      "isFixedGasLimit": false
    },
    {
      "hash": "0xa6a5225dfa9f5faa28e3d733a2a1e4124b6dceb4afe05bfcd8b38629bcbe7976",
      "transactionType": "CALL",
      "contractName": "LendyPositionManager",
      "contractAddress": "0xa41cc78c1f302a35184ddbe225d5530376cad254",
      "function": "addCollateralWithPermit(uint256,uint256,uint256,uint8,bytes32,bytes32)",
      "arguments": [
        "5",
        "500000000000000000",
        "1745604654",
        "27",
        "0x0000000000000000000000000000000000000000000000000000000000000001",
        "0x0000000000000000000000000000000000000000000000000000000000000002"
      ],
      "transaction": {
        "from": "0x3a4db9e7306af09012ceb0f222d581fd1f0c6d71",
        "to": "0xa41cc78c1f302a35184ddbe225d5530376cad254",
        "gas": "0x15d7a",
        "value": "0x0",
        "input": "0x558e45ba000000000000000000000000000000000000000000000000000000000000000500000000000000000000000000000000000000000000000006f05b59d3b2000000000000000000000000000000000000000000000000000000000000680bd02e000000000000000000000000000000000000000000000000000000000000001b00000000000000000000000000000000000000000000000000000000000000010000000000000000000000000000000000000000000000000000000000000002",
        "nonce": "0xf2",
        "chainId": "0xaef3"
      },
      "additionalContracts": [],
      "isFixedGasLimit": false
    },
    {
      "hash": "0x91bbaf38b05a4cdc67478b21e4edfeddfefce03cacd8418b85bfb2361b79aaf6",
      "transactionType": "CALL",
      "contractName": "LendyPositionManager",
      "contractAddress": "0xa41cc78c1f302a35184ddbe225d5530376cad254",
      "function": "repayDebtWithPermit(uint256,uint256,uint256,uint8,bytes32,bytes32)",
      "arguments": [
        "5",
        "100000000000000000000",
        "1745604654",
        "27",
        "0x0000000000000000000000000000000000000000000000000000000000000001",
        "0x0000000000000000000000000000000000000000000000000000000000000002"
      ],
      "transaction": {
        "from": "0x3a4db9e7306af09012ceb0f222d581fd1f0c6d71",
        "to": "0xa41cc78c1f302a35184ddbe225d5530376cad254",
        "gas": "0x17dfa",
        "value": "0x0",
        "input": "0xc9a7906a00000000000000000000000000000000000000000000000000000000000000050000000000000000000000000000000000000000000000056bc75e2d6310000000000000000000000000000000000000000000000000000000000000680bd02e000000000000000000000000000000000000000000000000000000000000001b00000000000000000000000000000000000000000000000000000000000000010000000000000000000000000000000000000000000000000000000000000002",
        "nonce": "0xf3",
        "chainId": "0xaef3"
      },
      "additionalContracts": [],
      "isFixedGasLimit": false
    },
    {
      "hash": "0xf55270dcae9216566030e879fdae2fe1ea4827cac97cb4e3131bad73f864a84e",
      "transactionType": "CALL",
      "contractName": null,
      "contractAddress": "0xac166a1b90308ca742db5b388ffcbdc3e17a186c",
      "function": "approve(address,uint256)",
      "arguments": [
        "0xA41cC78C1F302A35184dDBE225d5530376cAd254",
        "1000000000000000000"
      ],
      "transaction": {
        "from": "0x3a4db9e7306af09012ceb0f222d581fd1f0c6d71",
        "to": "0xac166a1b90308ca742db5b388ffcbdc3e17a186c",
        "gas": "0xfd33",
        "value": "0x0",
        "input": "0x095ea7b3000000000000000000000000a41cc78c1f302a35184ddbe225d5530376cad2540000000000000000000000000000000000000000000000000de0b6b3a7640000",
        "nonce": "0xf4",
        "chainId": "0xaef3"
      },
      "additionalContracts": [],
      "isFixedGasLimit": false
    },
    {
      "hash": "0x68731457d97f455dc88fa17a1d8f78deded4058614d1aa5c364730067fd14bf7",
      "transactionType": "CALL",
      "contractName": "LendyPositionManager",
      "contractAddress": "0xa41cc78c1f302a35184ddbe225d5530376cad254",
      "function": "createPosition(address,uint256,address,uint256,uint256)",
      "arguments": [
        "0xAC166A1B90308cA742Db5b388FFCBdc3E17a186c",
        "1000000000000000000",
        "0x3B346548fbfa74623047B1E199a96576dd156f2e",
        "125000000000000000000",
        "2"
      ],
      "transaction": {
        "from": "0x3a4db9e7306af09012ceb0f222d581fd1f0c6d71",
        "to": "0xa41cc78c1f302a35184ddbe225d5530376cad254",
        "gas": "0x752a6",
        "value": "0x0",
        "input": "0xb0c3d5df000000000000000000000000ac166a1b90308ca742db5b388ffcbdc3e17a186c0000000000000000000000000000000000000000000000000de0b6b3a76400000000000000000000000000003b346548fbfa74623047b1e199a96576dd156f2e000000000000000000000000000000000000000000000006c6b935b8bbd400000000000000000000000000000000000000000000000000000000000000000002",
        "nonce": "0xf5",
        "chainId": "0xaef3"
      },
      "additionalContracts": [],
      "isFixedGasLimit": false
    },
    {
      "hash": "0x77c98445b56bcf3ae483d3d3102013d149a3b9b991f73c0a71c9f5bc97f7040f",
      "transactionType": "CALL",
      "contractName": "LendyPositionManager",
      "contractAddress": "0xa41cc78c1f302a35184ddbe225d5530376cad254",
      "function": "closePositionWithPermit(uint256,uint256,uint8,bytes32,bytes32)",
      "arguments": [
        "6",
        "1745604654",
        "27",
        "0x0000000000000000000000000000000000000000000000000000000000000001",
        "0x0000000000000000000000000000000000000000000000000000000000000002"
      ],
      "transaction": {
        "from": "0x3a4db9e7306af09012ceb0f222d581fd1f0c6d71",
        "to": "0xa41cc78c1f302a35184ddbe225d5530376cad254",
        "gas": "0x24a3d",
        "value": "0x0",
        "input": "0xc3fabc34000000000000000000000000000000000000000000000000000000000000000600000000000000000000000000000000000000000000000000000000680bd02e000000000000000000000000000000000000000000000000000000000000001b00000000000000000000000000000000000000000000000000000000000000010000000000000000000000000000000000000000000000000000000000000002",
        "nonce": "0xf6",
        "chainId": "0xaef3"
      },
      "additionalContracts": [],
      "isFixedGasLimit": false
    }
  ],
  "receipts": [
    {
      "status": "0x1",
      "cumulativeGasUsed": "0x1326d",
      "logs": [
        {
          "address": "0x7262bfada9f61530119693d532e716d5cd3191ec",
          "topics": [
            "0xddf252ad1be2c89b69c2b068fc378daa952ba7f163c4a11628f55a4df523b3ef",
            "0x0000000000000000000000000000000000000000000000000000000000000000",
            "0x0000000000000000000000003a4db9e7306af09012ceb0f222d581fd1f0c6d71"
          ],
          "data": "0x00000000000000000000000000000000000000000000000000000002540be400",
          "blockHash": "0x534f1464f46ac288fa1ecb53158dda7567dad3901e709a098b3e20e3a04153ba",
          "blockNumber": "0x2a93d8f",
          "transactionHash": "0x376d9606219c0de54d63762bdb4bde5a412c7a5580754eb16abf5b43a3719491",
          "transactionIndex": "0x1",
          "logIndex": "0x0",
          "removed": false
        }
      ],
      "logsBloom": "0x00000000000000000000000000000000000000000000000000000000000000000000000000000000000000000000000000000000000000000000000000000000100000000000000000000008000000000000000000000000000000100000000000000000020000000000000000000800000000000000000000000050000000000000000000000000000000000000400000000000000000000000000000000000000000000000000000000000000000000000000000000000000000000000000000000002000080000000000000000000000000000000001000000000000020000000000000000000000000000000000000000000000000000000000000000000",
      "type": "0x0",
      "transactionHash": "0x376d9606219c0de54d63762bdb4bde5a412c7a5580754eb16abf5b43a3719491",
      "transactionIndex": "0x1",
      "blockHash": "0x534f1464f46ac288fa1ecb53158dda7567dad3901e709a098b3e20e3a04153ba",
      "blockNumber": "0x2a93d8f",
      "gasUsed": "0x878b",
      "effectiveGasPrice": "0x5d22cfc40",
      "from": "0x3a4db9e7306af09012ceb0f222d581fd1f0c6d71",
      "to": "0x7262bfada9f61530119693d532e716d5cd3191ec",
      "contractAddress": null,
      "l1BaseFeeScalar": "0x0",
      "l1BlobBaseFee": "0x1",
      "l1BlobBaseFeeScalar": "0x0",
      "l1Fee": "0x0",
      "l1GasPrice": "0x18",
      "l1GasUsed": "0x640"
    },
    {
      "status": "0x1",
      "cumulativeGasUsed": "0x1ba10",
      "logs": [
        {
          "address": "0xac166a1b90308ca742db5b388ffcbdc3e17a186c",
          "topics": [
            "0xddf252ad1be2c89b69c2b068fc378daa952ba7f163c4a11628f55a4df523b3ef",
            "0x0000000000000000000000000000000000000000000000000000000000000000",
            "0x0000000000000000000000003a4db9e7306af09012ceb0f222d581fd1f0c6d71"
          ],
          "data": "0x0000000000000000000000000000000000000000000000008ac7230489e80000",
          "blockHash": "0x534f1464f46ac288fa1ecb53158dda7567dad3901e709a098b3e20e3a04153ba",
          "blockNumber": "0x2a93d8f",
          "transactionHash": "0xbf96631e047ba8f6ee556568898b1f3c3c9ba430f2e5a94dd15f459dd053623c",
          "transactionIndex": "0x2",
          "logIndex": "0x1",
          "removed": false
        }
      ],
      "logsBloom": "0x00000000000000000000000000000000000000000000000000000000000000000000000000000000000000000000000000000000000000000000000000000000000000000000000000000008000000000000000000000000000000080000000002000000020000000000000000000800000000000000000000000010000000000000000000000000000000000000400000000000000000000000000000000000000000000000000000000000000000000000000000000000000000000000000000000002000080000000000000004000000000000000001000000000000020000000000000000000000000000000000000000000000000000000000000000000",
      "type": "0x0",
      "transactionHash": "0xbf96631e047ba8f6ee556568898b1f3c3c9ba430f2e5a94dd15f459dd053623c",
      "transactionIndex": "0x2",
      "blockHash": "0x534f1464f46ac288fa1ecb53158dda7567dad3901e709a098b3e20e3a04153ba",
      "blockNumber": "0x2a93d8f",
      "gasUsed": "0x87a3",
      "effectiveGasPrice": "0x5d22cfc40",
      "from": "0x3a4db9e7306af09012ceb0f222d581fd1f0c6d71",
      "to": "0xac166a1b90308ca742db5b388ffcbdc3e17a186c",
      "contractAddress": null,
      "l1BaseFeeScalar": "0x0",
      "l1BlobBaseFee": "0x1",
      "l1BlobBaseFeeScalar": "0x0",
      "l1Fee": "0x0",
      "l1GasPrice": "0x18",
      "l1GasUsed": "0x640"
    },
    {
      "status": "0x1",
      "cumulativeGasUsed": "0x1fe96",
      "logs": [
        {
          "address": "0x3b346548fbfa74623047b1e199a96576dd156f2e",
          "topics": [
            "0xddf252ad1be2c89b69c2b068fc378daa952ba7f163c4a11628f55a4df523b3ef",
            "0x0000000000000000000000000000000000000000000000000000000000000000",
            "0x0000000000000000000000003a4db9e7306af09012ceb0f222d581fd1f0c6d71"
          ],
          "data": "0x00000000000000000000000000000000000000000000021e19e0c9bab2400000",
          "blockHash": "0xa92b9a18758433b1e14c7f0fdcad55502287aaf52172dfacb1d72d5fd027bfc3",
          "blockNumber": "0x2a93d90",
          "transactionHash": "0x31f8b2fc4f70afd1bd6da2eb12b7d312e6af6f029181a1c54948905a2aeb8488",
          "transactionIndex": "0x2",
          "logIndex": "0x1",
          "removed": false
        }
      ],
      "logsBloom": "0x00000000000000000000000000000000000001000000000000000000000000000000000000000000000000000000000000000000000000000000000000000000000000000000000000000008000000004000000000000000000000000000000000000000020000000000000000000800000000000000000000000010000000000000000000000000000000000000400000000000000000000000000000000000000000000000000000000000000020000000000000000000000000000000000000000002000080000000000000000000000000000000001000000000000020000000000000000000000000000000000000000000000000000000000000000000",
      "type": "0x0",
      "transactionHash": "0x31f8b2fc4f70afd1bd6da2eb12b7d312e6af6f029181a1c54948905a2aeb8488",
      "transactionIndex": "0x2",
      "blockHash": "0xa92b9a18758433b1e14c7f0fdcad55502287aaf52172dfacb1d72d5fd027bfc3",
      "blockNumber": "0x2a93d90",
      "gasUsed": "0x8814",
      "effectiveGasPrice": "0x5d22cfc40",
      "from": "0x3a4db9e7306af09012ceb0f222d581fd1f0c6d71",
      "to": "0x3b346548fbfa74623047b1e199a96576dd156f2e",
      "contractAddress": null,
      "l1BaseFeeScalar": "0x0",
      "l1BlobBaseFee": "0x1",
      "l1BlobBaseFeeScalar": "0x0",
      "l1Fee": "0x0",
      "l1GasPrice": "0x18",
      "l1GasUsed": "0x640"
    },
    {
      "status": "0x1",
      "cumulativeGasUsed": "0x286aa",
      "logs": [
        {
          "address": "0x3b346548fbfa74623047b1e199a96576dd156f2e",
          "topics": [
            "0xddf252ad1be2c89b69c2b068fc378daa952ba7f163c4a11628f55a4df523b3ef",
            "0x0000000000000000000000000000000000000000000000000000000000000000",
            "0x000000000000000000000000a41cc78c1f302a35184ddbe225d5530376cad254"
          ],
          "data": "0x00000000000000000000000000000000000000000000021e19e0c9bab2400000",
          "blockHash": "0xa92b9a18758433b1e14c7f0fdcad55502287aaf52172dfacb1d72d5fd027bfc3",
          "blockNumber": "0x2a93d90",
          "transactionHash": "0xef2b7bb0b2b89dc804df9eb59e60c886d353d61ed9c44014b1b80f2bda2ef0df",
          "transactionIndex": "0x3",
          "logIndex": "0x2",
          "removed": false
        }
      ],
      "logsBloom": "0x00000000000000000000000000000000000001000000000000000000000000000000000000000000000000000000000000000000000000000000000000000000000000000000000000000008000000004000000000000000000000000000000000000000021000000000000000000800000000000000000000000010000000000000000000000000000000000000000000000000000000000000004000000000000000000000000000000000000020000000000000000000000000000000000000000002000000000000000000000000000000000000000000000000000020000000000000000000000000000000000000000000000000000000000000000001",
      "type": "0x0",
      "transactionHash": "0xef2b7bb0b2b89dc804df9eb59e60c886d353d61ed9c44014b1b80f2bda2ef0df",
      "transactionIndex": "0x3",
      "blockHash": "0xa92b9a18758433b1e14c7f0fdcad55502287aaf52172dfacb1d72d5fd027bfc3",
      "blockNumber": "0x2a93d90",
      "gasUsed": "0x8814",
      "effectiveGasPrice": "0x5d22cfc40",
      "from": "0x3a4db9e7306af09012ceb0f222d581fd1f0c6d71",
      "to": "0x3b346548fbfa74623047b1e199a96576dd156f2e",
      "contractAddress": null,
      "l1BaseFeeScalar": "0x0",
      "l1BlobBaseFee": "0x1",
      "l1BlobBaseFeeScalar": "0x0",
      "l1Fee": "0x0",
      "l1GasPrice": "0x18",
      "l1GasUsed": "0x640"
    },
    {
      "status": "0x1",
      "cumulativeGasUsed": "0x33dfa",
      "logs": [
        {
          "address": "0xac166a1b90308ca742db5b388ffcbdc3e17a186c",
          "topics": [
            "0x8c5be1e5ebec7d5bd14f71427d1e84f3dd0314c0f7b2291e5b200ac8c7c3b925",
            "0x0000000000000000000000003a4db9e7306af09012ceb0f222d581fd1f0c6d71",
            "0x000000000000000000000000ae84b9e6dba48d14f4ec7741666c976c0556a295"
          ],
          "data": "0x0000000000000000000000000000000000000000000000000de0b6b3a7640000",
          "blockHash": "0xa92b9a18758433b1e14c7f0fdcad55502287aaf52172dfacb1d72d5fd027bfc3",
          "blockNumber": "0x2a93d90",
          "transactionHash": "0x4b07b9d9473f9c1f87f7d0e2cff1647990a5b4eb6552b2c5895b6b5a676f228b",
          "transactionIndex": "0x4",
          "logIndex": "0x3",
          "removed": false
        }
      ],
      "logsBloom": "0x00000000000000000000000000000000000000000000000000000000000000000000000000000000000000000000000000000000000000000008000000200000000000000001000000000000000000000000000000000000000000080000000002000000000000000000000000000000000000000000000000000000000000000000000000000000000000000000400000000000000000000000000000000000020000000000000000000000000000000000000000000000000000000000000000000000000080000000000000004000000000000000001000000000000000000010000000000000000000000000000000000000000000000000000000080000",
      "type": "0x0",
      "transactionHash": "0x4b07b9d9473f9c1f87f7d0e2cff1647990a5b4eb6552b2c5895b6b5a676f228b",
      "transactionIndex": "0x4",
      "blockHash": "0xa92b9a18758433b1e14c7f0fdcad55502287aaf52172dfacb1d72d5fd027bfc3",
      "blockNumber": "0x2a93d90",
      "gasUsed": "0xb750",
      "effectiveGasPrice": "0x5d22cfc40",
      "from": "0x3a4db9e7306af09012ceb0f222d581fd1f0c6d71",
      "to": "0xac166a1b90308ca742db5b388ffcbdc3e17a186c",
      "contractAddress": null,
      "l1BaseFeeScalar": "0x0",
      "l1BlobBaseFee": "0x1",
      "l1BlobBaseFeeScalar": "0x0",
      "l1Fee": "0x0",
      "l1GasPrice": "0x18",
      "l1GasUsed": "0x640"
    },
    {
      "status": "0x1",
      "cumulativeGasUsed": "0x45008",
      "logs": [
        {
          "address": "0xac166a1b90308ca742db5b388ffcbdc3e17a186c",
          "topics": [
            "0xddf252ad1be2c89b69c2b068fc378daa952ba7f163c4a11628f55a4df523b3ef",
            "0x0000000000000000000000003a4db9e7306af09012ceb0f222d581fd1f0c6d71",
            "0x000000000000000000000000ae84b9e6dba48d14f4ec7741666c976c0556a295"
          ],
          "data": "0x0000000000000000000000000000000000000000000000000de0b6b3a7640000",
          "blockHash": "0xa92b9a18758433b1e14c7f0fdcad55502287aaf52172dfacb1d72d5fd027bfc3",
          "blockNumber": "0x2a93d90",
          "transactionHash": "0x956a9e5257d306dd48d237645d9f428aa510450a0200183ce96d0ac4d083fb7f",
          "transactionIndex": "0x5",
          "logIndex": "0x4",
          "removed": false
        },
        {
          "address": "0xac166a1b90308ca742db5b388ffcbdc3e17a186c",
          "topics": [
            "0x8c5be1e5ebec7d5bd14f71427d1e84f3dd0314c0f7b2291e5b200ac8c7c3b925",
            "0x000000000000000000000000ae84b9e6dba48d14f4ec7741666c976c0556a295",
            "0x0000000000000000000000000466be5953f6e0695a846c44926ad4789a68d3f2"
          ],
          "data": "0x0000000000000000000000000000000000000000000000000de0b6b3a7640000",
          "blockHash": "0xa92b9a18758433b1e14c7f0fdcad55502287aaf52172dfacb1d72d5fd027bfc3",
          "blockNumber": "0x2a93d90",
          "transactionHash": "0x956a9e5257d306dd48d237645d9f428aa510450a0200183ce96d0ac4d083fb7f",
          "transactionIndex": "0x5",
          "logIndex": "0x5",
          "removed": false
        },
        {
          "address": "0xae84b9e6dba48d14f4ec7741666c976c0556a295",
          "topics": [
            "0x523322d7afb07cee28d04498651096af062004e1f14315eff2e4a60290dfadda",
            "0x0000000000000000000000003a4db9e7306af09012ceb0f222d581fd1f0c6d71",
            "0x000000000000000000000000ac166a1b90308ca742db5b388ffcbdc3e17a186c"
          ],
          "data": "0x0000000000000000000000000000000000000000000000000de0b6b3a7640000",
          "blockHash": "0xa92b9a18758433b1e14c7f0fdcad55502287aaf52172dfacb1d72d5fd027bfc3",
          "blockNumber": "0x2a93d90",
          "transactionHash": "0x956a9e5257d306dd48d237645d9f428aa510450a0200183ce96d0ac4d083fb7f",
          "transactionIndex": "0x5",
          "logIndex": "0x6",
          "removed": false
        }
      ],
      "logsBloom": "0x00000000000000000000000000000008000000004000000000000000000000000000000000000000000000000000000000080000000000000008000000200000000000020001000000000008000020000000000000000000400000080000000002000000000400000000000000001000000000000000000000000010000000000000000000000000000000000000400000000000000000000000000000000000020000000000000004000000000000000000000000000000000000000010000000040002000080000000000000004000000000000000001000000000000000000010000000000000000000000000000000000000000000002000000000080000",
      "type": "0x0",
      "transactionHash": "0x956a9e5257d306dd48d237645d9f428aa510450a0200183ce96d0ac4d083fb7f",
      "transactionIndex": "0x5",
      "blockHash": "0xa92b9a18758433b1e14c7f0fdcad55502287aaf52172dfacb1d72d5fd027bfc3",
      "blockNumber": "0x2a93d90",
      "gasUsed": "0x1120e",
      "effectiveGasPrice": "0x5d22cfc40",
      "from": "0x3a4db9e7306af09012ceb0f222d581fd1f0c6d71",
      "to": "0xae84b9e6dba48d14f4ec7741666c976c0556a295",
      "contractAddress": null,
      "l1BaseFeeScalar": "0x0",
      "l1BlobBaseFee": "0x1",
      "l1BlobBaseFeeScalar": "0x0",
      "l1Fee": "0x0",
      "l1GasPrice": "0x18",
      "l1GasUsed": "0x702"
    },
    {
      "status": "0x1",
      "cumulativeGasUsed": "0x5362b",
      "logs": [
        {
          "address": "0x7262bfada9f61530119693d532e716d5cd3191ec",
          "topics": [
            "0xddf252ad1be2c89b69c2b068fc378daa952ba7f163c4a11628f55a4df523b3ef",
            "0x0000000000000000000000000000000000000000000000000000000000000000",
            "0x000000000000000000000000ae84b9e6dba48d14f4ec7741666c976c0556a295"
          ],
          "data": "0x0000000000000000000000000000000000000000000000000000000005f5e100",
          "blockHash": "0xa92b9a18758433b1e14c7f0fdcad55502287aaf52172dfacb1d72d5fd027bfc3",
          "blockNumber": "0x2a93d90",
          "transactionHash": "0x05c4577a67671438864a3533b4012a5c4efc520f95e325af83d622646468aff2",
          "transactionIndex": "0x6",
          "logIndex": "0x7",
          "removed": false
        },
        {
          "address": "0xae84b9e6dba48d14f4ec7741666c976c0556a295",
          "topics": [
            "0xc14e9e6b4d98a542b05a0f6b64acd5f4cbdb914be88432d87486b664e97071a7",
            "0x0000000000000000000000003a4db9e7306af09012ceb0f222d581fd1f0c6d71",
            "0x0000000000000000000000007262bfada9f61530119693d532e716d5cd3191ec"
          ],
          "data": "0x0000000000000000000000000000000000000000000000000000000005f5e1000000000000000000000000000000000000000000000000000000000000000002",
          "blockHash": "0xa92b9a18758433b1e14c7f0fdcad55502287aaf52172dfacb1d72d5fd027bfc3",
          "blockNumber": "0x2a93d90",
          "transactionHash": "0x05c4577a67671438864a3533b4012a5c4efc520f95e325af83d622646468aff2",
          "transactionIndex": "0x6",
          "logIndex": "0x8",
          "removed": false
        }
      ],
      "logsBloom": "0x00000000000000000000000000000108000000004000000000000000000000000000000000000000000000000000000000000000000000000008000000000000100000000001000000000008000000000000000000000000000000100020000000000000020000000000000000000800000000000000000000000050000000000000000000000000000000000000400000000000000000000000000000000000000000000000000000000000000000000000020000000000000000000010000000000002000080002000000000008000000000000000001000000000000020000000000000000000000000000000000000000000004000000000000000080000",
      "type": "0x0",
      "transactionHash": "0x05c4577a67671438864a3533b4012a5c4efc520f95e325af83d622646468aff2",
      "transactionIndex": "0x6",
      "blockHash": "0xa92b9a18758433b1e14c7f0fdcad55502287aaf52172dfacb1d72d5fd027bfc3",
      "blockNumber": "0x2a93d90",
      "gasUsed": "0xe623",
      "effectiveGasPrice": "0x5d22cfc40",
      "from": "0x3a4db9e7306af09012ceb0f222d581fd1f0c6d71",
      "to": "0xae84b9e6dba48d14f4ec7741666c976c0556a295",
      "contractAddress": null,
      "l1BaseFeeScalar": "0x0",
      "l1BlobBaseFee": "0x1",
      "l1BlobBaseFeeScalar": "0x0",
      "l1Fee": "0x0",
      "l1GasPrice": "0x18",
      "l1GasUsed": "0x71d"
    },
    {
      "status": "0x1",
      "cumulativeGasUsed": "0x5e931",
      "logs": [
        {
          "address": "0xae84b9e6dba48d14f4ec7741666c976c0556a295",
          "topics": [
            "0x523322d7afb07cee28d04498651096af062004e1f14315eff2e4a60290dfadda",
            "0x0000000000000000000000003a4db9e7306af09012ceb0f222d581fd1f0c6d71",
            "0x0000000000000000000000003b346548fbfa74623047b1e199a96576dd156f2e"
          ],
          "data": "0x00000000000000000000000000000000000000000000003635c9adc5dea00000",
          "blockHash": "0xa92b9a18758433b1e14c7f0fdcad55502287aaf52172dfacb1d72d5fd027bfc3",
          "blockNumber": "0x2a93d90",
          "transactionHash": "0x9051d9dca1ef127a489b368d583bbf07f214e1b4401dca1065fbdd09e71d0681",
          "transactionIndex": "0x7",
          "logIndex": "0x9",
          "removed": false
        }
      ],
      "logsBloom": "0x00000000000000000000000000000008000000004000000000000000000000000000000000000000000000000000000000080000000000000000000000000000000000020000000000000000000000000000000000000101000000000000000000000000000000000000000000000000000000000000000000000000000000000000000000000000000000000000400000000000000000000000000000000000000000000000000000000000000000000000000000000000000000000010000000040000000080000000000000000000000000000200001000000000000000000000000000000000000000000000000000000000000000000000000000000000",
      "type": "0x0",
      "transactionHash": "0x9051d9dca1ef127a489b368d583bbf07f214e1b4401dca1065fbdd09e71d0681",
      "transactionIndex": "0x7",
      "blockHash": "0xa92b9a18758433b1e14c7f0fdcad55502287aaf52172dfacb1d72d5fd027bfc3",
      "blockNumber": "0x2a93d90",
      "gasUsed": "0xb306",
      "effectiveGasPrice": "0x5d22cfc40",
      "from": "0x3a4db9e7306af09012ceb0f222d581fd1f0c6d71",
      "to": "0xae84b9e6dba48d14f4ec7741666c976c0556a295",
      "contractAddress": null,
      "l1BaseFeeScalar": "0x0",
      "l1BlobBaseFee": "0x1",
      "l1BlobBaseFeeScalar": "0x0",
      "l1Fee": "0x0",
      "l1GasPrice": "0x18",
      "l1GasUsed": "0x86c"
    },
    {
      "status": "0x1",
      "cumulativeGasUsed": "0x6a8b3",
      "logs": [
        {
          "address": "0xae84b9e6dba48d14f4ec7741666c976c0556a295",
          "topics": [
            "0x0a3fbbea70e93f2daafa3102f5c9a1b8315e6d7a1e43e4bc020bc1162327470a",
            "0x0000000000000000000000003a4db9e7306af09012ceb0f222d581fd1f0c6d71",
            "0x0000000000000000000000003b346548fbfa74623047b1e199a96576dd156f2e"
          ],
          "data": "0x00000000000000000000000000000000000000000000001b1ae4d6e2ef500000",
          "blockHash": "0xa92b9a18758433b1e14c7f0fdcad55502287aaf52172dfacb1d72d5fd027bfc3",
          "blockNumber": "0x2a93d90",
          "transactionHash": "0xde03d9e545d7fab4ef0ef637f8addf1ea137a3273456a2dca330b6d7c2f0083b",
          "transactionIndex": "0x8",
          "logIndex": "0xa",
          "removed": false
        }
      ],
      "logsBloom": "0x00000000000000000000000000000008000000004000000000000000000000000000000010000000000000000000080000000000000000000000000000000000000000000000000000000000000000000000000000000101000000000000000000000000000000000000000000800000000000000000000000000000000000000000000000000000000000000000400000000000000000000000000000000000000000000000000000000000000000000000000000000000000000000010000000000000000080000000000000000000000000000200001000000000000000000000000000000000000000000000000000000000000000000000000000000000",
      "type": "0x0",
      "transactionHash": "0xde03d9e545d7fab4ef0ef637f8addf1ea137a3273456a2dca330b6d7c2f0083b",
      "transactionIndex": "0x8",
      "blockHash": "0xa92b9a18758433b1e14c7f0fdcad55502287aaf52172dfacb1d72d5fd027bfc3",
      "blockNumber": "0x2a93d90",
      "gasUsed": "0xbf82",
      "effectiveGasPrice": "0x5d22cfc40",
      "from": "0x3a4db9e7306af09012ceb0f222d581fd1f0c6d71",
      "to": "0xae84b9e6dba48d14f4ec7741666c976c0556a295",
      "contractAddress": null,
      "l1BaseFeeScalar": "0x0",
      "l1BlobBaseFee": "0x1",
      "l1BlobBaseFeeScalar": "0x0",
      "l1Fee": "0x0",
      "l1GasPrice": "0x18",
      "l1GasUsed": "0x8d7"
    },
    {
      "status": "0x1",
      "cumulativeGasUsed": "0x76003",
      "logs": [
        {
          "address": "0xac166a1b90308ca742db5b388ffcbdc3e17a186c",
          "topics": [
            "0x8c5be1e5ebec7d5bd14f71427d1e84f3dd0314c0f7b2291e5b200ac8c7c3b925",
            "0x0000000000000000000000003a4db9e7306af09012ceb0f222d581fd1f0c6d71",
            "0x000000000000000000000000a41cc78c1f302a35184ddbe225d5530376cad254"
          ],
          "data": "0x0000000000000000000000000000000000000000000000000de0b6b3a7640000",
          "blockHash": "0xa92b9a18758433b1e14c7f0fdcad55502287aaf52172dfacb1d72d5fd027bfc3",
          "blockNumber": "0x2a93d90",
          "transactionHash": "0x64eb4879bee4113ee3ac4b36564427b04408233601dcf10e02c69594c7111f23",
          "transactionIndex": "0x9",
          "logIndex": "0xb",
          "removed": false
        }
      ],
      "logsBloom": "0x00000000000000000000000000000000000000000000000000000000000000000000000000000000000000000000000000000000000000000000000000200000000000000000000000000000000000000000000000000000000000080000000002000000001000000000000000000000000000000000000000000000000000000000000000000000000000000000400000000000000000000000004000000000020000000000000000000000000000000000000000000000000000000000000000000000000080000000000000004000000000000000001000000000000000000010000000000000000000000000000000000000000000000000000000000001",
      "type": "0x0",
      "transactionHash": "0x64eb4879bee4113ee3ac4b36564427b04408233601dcf10e02c69594c7111f23",
      "transactionIndex": "0x9",
      "blockHash": "0xa92b9a18758433b1e14c7f0fdcad55502287aaf52172dfacb1d72d5fd027bfc3",
      "blockNumber": "0x2a93d90",
      "gasUsed": "0xb750",
      "effectiveGasPrice": "0x5d22cfc40",
      "from": "0x3a4db9e7306af09012ceb0f222d581fd1f0c6d71",
      "to": "0xac166a1b90308ca742db5b388ffcbdc3e17a186c",
      "contractAddress": null,
      "l1BaseFeeScalar": "0x0",
      "l1BlobBaseFee": "0x1",
      "l1BlobBaseFeeScalar": "0x0",
      "l1Fee": "0x0",
      "l1GasPrice": "0x18",
      "l1GasUsed": "0x640"
    },
    {
      "status": "0x1",
      "cumulativeGasUsed": "0xca24a",
      "logs": [
        {
          "address": "0xac166a1b90308ca742db5b388ffcbdc3e17a186c",
          "topics": [
            "0xddf252ad1be2c89b69c2b068fc378daa952ba7f163c4a11628f55a4df523b3ef",
            "0x0000000000000000000000003a4db9e7306af09012ceb0f222d581fd1f0c6d71",
            "0x000000000000000000000000a41cc78c1f302a35184ddbe225d5530376cad254"
          ],
          "data": "0x0000000000000000000000000000000000000000000000000de0b6b3a7640000",
          "blockHash": "0xa92b9a18758433b1e14c7f0fdcad55502287aaf52172dfacb1d72d5fd027bfc3",
          "blockNumber": "0x2a93d90",
          "transactionHash": "0x9c28b1c5103be47ee377c2488294d34da7951077169f6c5786cfc82b8ef847ef",
          "transactionIndex": "0xa",
          "logIndex": "0xc",
          "removed": false
        },
        {
          "address": "0xac166a1b90308ca742db5b388ffcbdc3e17a186c",
          "topics": [
            "0x8c5be1e5ebec7d5bd14f71427d1e84f3dd0314c0f7b2291e5b200ac8c7c3b925",
            "0x000000000000000000000000a41cc78c1f302a35184ddbe225d5530376cad254",
            "0x000000000000000000000000eb0225a90ee70a2076a51981c0a9b0b25f2174c7"
          ],
          "data": "0x0000000000000000000000000000000000000000000000000de0b6b3a7640000",
          "blockHash": "0xa92b9a18758433b1e14c7f0fdcad55502287aaf52172dfacb1d72d5fd027bfc3",
          "blockNumber": "0x2a93d90",
          "transactionHash": "0x9c28b1c5103be47ee377c2488294d34da7951077169f6c5786cfc82b8ef847ef",
          "transactionIndex": "0xa",
          "logIndex": "0xd",
          "removed": false
        },
        {
          "address": "0xac166a1b90308ca742db5b388ffcbdc3e17a186c",
          "topics": [
            "0xddf252ad1be2c89b69c2b068fc378daa952ba7f163c4a11628f55a4df523b3ef",
            "0x000000000000000000000000a41cc78c1f302a35184ddbe225d5530376cad254",
            "0x000000000000000000000000eb0225a90ee70a2076a51981c0a9b0b25f2174c7"
          ],
          "data": "0x0000000000000000000000000000000000000000000000000de0b6b3a7640000",
          "blockHash": "0xa92b9a18758433b1e14c7f0fdcad55502287aaf52172dfacb1d72d5fd027bfc3",
          "blockNumber": "0x2a93d90",
          "transactionHash": "0x9c28b1c5103be47ee377c2488294d34da7951077169f6c5786cfc82b8ef847ef",
          "transactionIndex": "0xa",
          "logIndex": "0xe",
          "removed": false
        },
        {
          "address": "0xac166a1b90308ca742db5b388ffcbdc3e17a186c",
          "topics": [
            "0x8c5be1e5ebec7d5bd14f71427d1e84f3dd0314c0f7b2291e5b200ac8c7c3b925",
            "0x000000000000000000000000eb0225a90ee70a2076a51981c0a9b0b25f2174c7",
            "0x000000000000000000000000fcc6d9a2477a31b4c8f77549fa455a72b3283e67"
          ],
          "data": "0x0000000000000000000000000000000000000000000000000de0b6b3a7640000",
          "blockHash": "0xa92b9a18758433b1e14c7f0fdcad55502287aaf52172dfacb1d72d5fd027bfc3",
          "blockNumber": "0x2a93d90",
          "transactionHash": "0x9c28b1c5103be47ee377c2488294d34da7951077169f6c5786cfc82b8ef847ef",
          "transactionIndex": "0xa",
          "logIndex": "0xf",
          "removed": false
        },
        {
          "address": "0xeb0225a90ee70a2076a51981c0a9b0b25f2174c7",
          "topics": [
            "0x523322d7afb07cee28d04498651096af062004e1f14315eff2e4a60290dfadda",
            "0x000000000000000000000000a41cc78c1f302a35184ddbe225d5530376cad254",
            "0x000000000000000000000000ac166a1b90308ca742db5b388ffcbdc3e17a186c"
          ],
          "data": "0x0000000000000000000000000000000000000000000000000de0b6b3a7640000",
          "blockHash": "0xa92b9a18758433b1e14c7f0fdcad55502287aaf52172dfacb1d72d5fd027bfc3",
          "blockNumber": "0x2a93d90",
          "transactionHash": "0x9c28b1c5103be47ee377c2488294d34da7951077169f6c5786cfc82b8ef847ef",
          "transactionIndex": "0xa",
          "logIndex": "0x10",
          "removed": false
        },
        {
          "address": "0x3b346548fbfa74623047b1e199a96576dd156f2e",
          "topics": [
            "0xddf252ad1be2c89b69c2b068fc378daa952ba7f163c4a11628f55a4df523b3ef",
            "0x0000000000000000000000000000000000000000000000000000000000000000",
            "0x000000000000000000000000eb0225a90ee70a2076a51981c0a9b0b25f2174c7"
          ],
          "data": "0x00000000000000000000000000000000000000000000000d8d726b7177a80000",
          "blockHash": "0xa92b9a18758433b1e14c7f0fdcad55502287aaf52172dfacb1d72d5fd027bfc3",
          "blockNumber": "0x2a93d90",
          "transactionHash": "0x9c28b1c5103be47ee377c2488294d34da7951077169f6c5786cfc82b8ef847ef",
          "transactionIndex": "0xa",
          "logIndex": "0x11",
          "removed": false
        },
        {
          "address": "0xeb0225a90ee70a2076a51981c0a9b0b25f2174c7",
          "topics": [
            "0xc14e9e6b4d98a542b05a0f6b64acd5f4cbdb914be88432d87486b664e97071a7",
            "0x000000000000000000000000a41cc78c1f302a35184ddbe225d5530376cad254",
            "0x0000000000000000000000003b346548fbfa74623047b1e199a96576dd156f2e"
          ],
          "data": "0x00000000000000000000000000000000000000000000000d8d726b7177a800000000000000000000000000000000000000000000000000000000000000000002",
          "blockHash": "0xa92b9a18758433b1e14c7f0fdcad55502287aaf52172dfacb1d72d5fd027bfc3",
          "blockNumber": "0x2a93d90",
          "transactionHash": "0x9c28b1c5103be47ee377c2488294d34da7951077169f6c5786cfc82b8ef847ef",
          "transactionIndex": "0xa",
          "logIndex": "0x12",
          "removed": false
        },
        {
          "address": "0x3b346548fbfa74623047b1e199a96576dd156f2e",
          "topics": [
            "0xddf252ad1be2c89b69c2b068fc378daa952ba7f163c4a11628f55a4df523b3ef",
            "0x000000000000000000000000a41cc78c1f302a35184ddbe225d5530376cad254",
            "0x0000000000000000000000003a4db9e7306af09012ceb0f222d581fd1f0c6d71"
          ],
          "data": "0x00000000000000000000000000000000000000000000000d8d726b7177a80000",
          "blockHash": "0xa92b9a18758433b1e14c7f0fdcad55502287aaf52172dfacb1d72d5fd027bfc3",
          "blockNumber": "0x2a93d90",
          "transactionHash": "0x9c28b1c5103be47ee377c2488294d34da7951077169f6c5786cfc82b8ef847ef",
          "transactionIndex": "0xa",
          "logIndex": "0x13",
          "removed": false
        },
        {
          "address": "0xa41cc78c1f302a35184ddbe225d5530376cad254",
          "topics": [
            "0x9f9b498443531d2db9df8a00ec466efc74ba50ec1d82f7badd3424b87930e19a",
            "0x0000000000000000000000000000000000000000000000000000000000000004",
            "0x0000000000000000000000003a4db9e7306af09012ceb0f222d581fd1f0c6d71"
          ],
          "data": "0x000000000000000000000000ac166a1b90308ca742db5b388ffcbdc3e17a186c0000000000000000000000000000000000000000000000000de0b6b3a76400000000000000000000000000003b346548fbfa74623047b1e199a96576dd156f2e00000000000000000000000000000000000000000000000d8d726b7177a800000000000000000000000000000000000000000000000000000000000000000002",
          "blockHash": "0xa92b9a18758433b1e14c7f0fdcad55502287aaf52172dfacb1d72d5fd027bfc3",
          "blockNumber": "0x2a93d90",
          "transactionHash": "0x9c28b1c5103be47ee377c2488294d34da7951077169f6c5786cfc82b8ef847ef",
          "transactionIndex": "0xa",
          "logIndex": "0x14",
          "removed": false
        }
      ],
      "logsBloom": "0x0000000000000000000000000000000000000100010000000000014000000100000000000000000000002000000000002008040000000000000000000020200000000002000000000000000800000000400000000000010100000008002000000a00000002100000000000000000180000000002000000000000001000000000000000000000000000000000000040002000000000000000000000400000000002000000000000000400000000002000000000000000000000200000000000000004000200008000000000000000c000000000008280001000020000000020000010000000000000002000001000000100000000004000002000000000000001",
      "type": "0x0",
      "transactionHash": "0x9c28b1c5103be47ee377c2488294d34da7951077169f6c5786cfc82b8ef847ef",
      "transactionIndex": "0xa",
      "blockHash": "0xa92b9a18758433b1e14c7f0fdcad55502287aaf52172dfacb1d72d5fd027bfc3",
      "blockNumber": "0x2a93d90",
      "gasUsed": "0x54247",
      "effectiveGasPrice": "0x5d22cfc40",
      "from": "0x3a4db9e7306af09012ceb0f222d581fd1f0c6d71",
      "to": "0xa41cc78c1f302a35184ddbe225d5530376cad254",
      "contractAddress": null,
      "l1BaseFeeScalar": "0x0",
      "l1BlobBaseFee": "0x1",
      "l1BlobBaseFeeScalar": "0x0",
      "l1Fee": "0x0",
      "l1GasPrice": "0x18",
      "l1GasUsed": "0x7d8"
    },
    {
      "status": "0x1",
      "cumulativeGasUsed": "0xd59bd",
      "logs": [
        {
          "address": "0x3b346548fbfa74623047b1e199a96576dd156f2e",
          "topics": [
            "0x8c5be1e5ebec7d5bd14f71427d1e84f3dd0314c0f7b2291e5b200ac8c7c3b925",
            "0x0000000000000000000000003a4db9e7306af09012ceb0f222d581fd1f0c6d71",
            "0x000000000000000000000000a41cc78c1f302a35184ddbe225d5530376cad254"
          ],
          "data": "0x000000000000000000000000000000000000000000000003635c9adc5dea0000",
          "blockHash": "0xa92b9a18758433b1e14c7f0fdcad55502287aaf52172dfacb1d72d5fd027bfc3",
          "blockNumber": "0x2a93d90",
          "transactionHash": "0x244c530030256c926e827cb62fe9c8df767377fcad850f18ba71f38192e29377",
          "transactionIndex": "0xb",
          "logIndex": "0x15",
          "removed": false
        }
      ],
      "logsBloom": "0x00000000000000000000000000000000000001000000000000000000000000000000000000000000000000000000000000000000000000000000000000200000000000000000000000000000000000004000000000000000000000000000000000000000001000000000000000000000000000000000000000000000000000000000000000000000000000000000400000000000000000000000004000000000020000000000000000000000000020000000000000000000000000000000000000000000000080000000000000000000000000000000001000000000000000000010000000000000000000000000000000000000000000000000000000000001",
      "type": "0x0",
      "transactionHash": "0x244c530030256c926e827cb62fe9c8df767377fcad850f18ba71f38192e29377",
      "transactionIndex": "0xb",
      "blockHash": "0xa92b9a18758433b1e14c7f0fdcad55502287aaf52172dfacb1d72d5fd027bfc3",
      "blockNumber": "0x2a93d90",
      "gasUsed": "0xb773",
      "effectiveGasPrice": "0x5d22cfc40",
      "from": "0x3a4db9e7306af09012ceb0f222d581fd1f0c6d71",
      "to": "0x3b346548fbfa74623047b1e199a96576dd156f2e",
      "contractAddress": null,
      "l1BaseFeeScalar": "0x0",
      "l1BlobBaseFee": "0x1",
      "l1BlobBaseFeeScalar": "0x0",
      "l1Fee": "0x0",
      "l1GasPrice": "0x18",
      "l1GasUsed": "0x640"
    },
    {
      "status": "0x1",
      "cumulativeGasUsed": "0xf100a",
      "logs": [
        {
          "address": "0x3b346548fbfa74623047b1e199a96576dd156f2e",
          "topics": [
            "0xddf252ad1be2c89b69c2b068fc378daa952ba7f163c4a11628f55a4df523b3ef",
            "0x0000000000000000000000003a4db9e7306af09012ceb0f222d581fd1f0c6d71",
            "0x000000000000000000000000a41cc78c1f302a35184ddbe225d5530376cad254"
          ],
          "data": "0x000000000000000000000000000000000000000000000003635c9adc5dea0000",
          "blockHash": "0xa92b9a18758433b1e14c7f0fdcad55502287aaf52172dfacb1d72d5fd027bfc3",
          "blockNumber": "0x2a93d90",
          "transactionHash": "0xce84b3afe7ab4eb3432f129aa2083052456d1928de7fac80415d4681e4c017cf",
          "transactionIndex": "0xc",
          "logIndex": "0x16",
          "removed": false
        },
        {
          "address": "0x3b346548fbfa74623047b1e199a96576dd156f2e",
          "topics": [
            "0x8c5be1e5ebec7d5bd14f71427d1e84f3dd0314c0f7b2291e5b200ac8c7c3b925",
            "0x000000000000000000000000a41cc78c1f302a35184ddbe225d5530376cad254",
            "0x000000000000000000000000eb0225a90ee70a2076a51981c0a9b0b25f2174c7"
          ],
          "data": "0x000000000000000000000000000000000000000000000003635c9adc5dea0000",
          "blockHash": "0xa92b9a18758433b1e14c7f0fdcad55502287aaf52172dfacb1d72d5fd027bfc3",
          "blockNumber": "0x2a93d90",
          "transactionHash": "0xce84b3afe7ab4eb3432f129aa2083052456d1928de7fac80415d4681e4c017cf",
          "transactionIndex": "0xc",
          "logIndex": "0x17",
          "removed": false
        },
        {
          "address": "0x3b346548fbfa74623047b1e199a96576dd156f2e",
          "topics": [
            "0xddf252ad1be2c89b69c2b068fc378daa952ba7f163c4a11628f55a4df523b3ef",
            "0x000000000000000000000000a41cc78c1f302a35184ddbe225d5530376cad254",
            "0x000000000000000000000000eb0225a90ee70a2076a51981c0a9b0b25f2174c7"
          ],
          "data": "0x000000000000000000000000000000000000000000000003635c9adc5dea0000",
          "blockHash": "0xa92b9a18758433b1e14c7f0fdcad55502287aaf52172dfacb1d72d5fd027bfc3",
          "blockNumber": "0x2a93d90",
          "transactionHash": "0xce84b3afe7ab4eb3432f129aa2083052456d1928de7fac80415d4681e4c017cf",
          "transactionIndex": "0xc",
          "logIndex": "0x18",
          "removed": false
        },
        {
          "address": "0x3b346548fbfa74623047b1e199a96576dd156f2e",
          "topics": [
            "0x8c5be1e5ebec7d5bd14f71427d1e84f3dd0314c0f7b2291e5b200ac8c7c3b925",
            "0x000000000000000000000000eb0225a90ee70a2076a51981c0a9b0b25f2174c7",
            "0x000000000000000000000000fcc6d9a2477a31b4c8f77549fa455a72b3283e67"
          ],
          "data": "0x000000000000000000000000000000000000000000000003635c9adc5dea0000",
          "blockHash": "0xa92b9a18758433b1e14c7f0fdcad55502287aaf52172dfacb1d72d5fd027bfc3",
          "blockNumber": "0x2a93d90",
          "transactionHash": "0xce84b3afe7ab4eb3432f129aa2083052456d1928de7fac80415d4681e4c017cf",
          "transactionIndex": "0xc",
          "logIndex": "0x19",
          "removed": false
        },
        {
          "address": "0xeb0225a90ee70a2076a51981c0a9b0b25f2174c7",
          "topics": [
            "0x0a3fbbea70e93f2daafa3102f5c9a1b8315e6d7a1e43e4bc020bc1162327470a",
            "0x000000000000000000000000a41cc78c1f302a35184ddbe225d5530376cad254",
            "0x0000000000000000000000003b346548fbfa74623047b1e199a96576dd156f2e"
          ],
          "data": "0x000000000000000000000000000000000000000000000003635c9adc5dea0000",
          "blockHash": "0xa92b9a18758433b1e14c7f0fdcad55502287aaf52172dfacb1d72d5fd027bfc3",
          "blockNumber": "0x2a93d90",
          "transactionHash": "0xce84b3afe7ab4eb3432f129aa2083052456d1928de7fac80415d4681e4c017cf",
          "transactionIndex": "0xc",
          "logIndex": "0x1a",
          "removed": false
        },
        {
          "address": "0xa41cc78c1f302a35184ddbe225d5530376cad254",
          "topics": [
            "0x0d4979b0859a1951f8ed7cbe3b1994e740552588f27ba02ca0f8f1ddcad16e0c",
            "0x0000000000000000000000000000000000000000000000000000000000000004"
          ],
          "data": "0x000000000000000000000000000000000000000000000003635c9adc5dea0000",
          "blockHash": "0xa92b9a18758433b1e14c7f0fdcad55502287aaf52172dfacb1d72d5fd027bfc3",
          "blockNumber": "0x2a93d90",
          "transactionHash": "0xce84b3afe7ab4eb3432f129aa2083052456d1928de7fac80415d4681e4c017cf",
          "transactionIndex": "0xc",
          "logIndex": "0x1b",
          "removed": false
        }
      ],
      "logsBloom": "0x00000000000000000000000010000000000001000100000000000140000001000000000010000000000000000000080020000400000000000000000000202000000000000000000000000008000000004000002000000101000000000000000088000000001000000000000000800000000000000000000000000010000000000000000000000000000000000000400020000000000000000000004000000000020000000000000000000000000020000000000000000000002000000000000000000002000080000000000000000000000000008280001000000000000000000010000000000000002000001000000100000000000000000000000000000001",
      "type": "0x0",
      "transactionHash": "0xce84b3afe7ab4eb3432f129aa2083052456d1928de7fac80415d4681e4c017cf",
      "transactionIndex": "0xc",
      "blockHash": "0xa92b9a18758433b1e14c7f0fdcad55502287aaf52172dfacb1d72d5fd027bfc3",
      "blockNumber": "0x2a93d90",
      "gasUsed": "0x1b64d",
      "effectiveGasPrice": "0x5d22cfc40",
      "from": "0x3a4db9e7306af09012ceb0f222d581fd1f0c6d71",
      "to": "0xa41cc78c1f302a35184ddbe225d5530376cad254",
      "contractAddress": null,
      "l1BaseFeeScalar": "0x0",
      "l1BlobBaseFee": "0x1",
      "l1BlobBaseFeeScalar": "0x0",
      "l1Fee": "0x0",
      "l1GasPrice": "0x18",
      "l1GasUsed": "0x640"
    },
    {
      "status": "0x1",
      "cumulativeGasUsed": "0xfcf8c",
      "logs": [
        {
          "address": "0xae84b9e6dba48d14f4ec7741666c976c0556a295",
          "topics": [
            "0x0a3fbbea70e93f2daafa3102f5c9a1b8315e6d7a1e43e4bc020bc1162327470a",
            "0x000000000000000000000000a41cc78c1f302a35184ddbe225d5530376cad254",
            "0x0000000000000000000000003b346548fbfa74623047b1e199a96576dd156f2e"
          ],
          "data": "0x000000000000000000000000000000000000000000000003635c9adc5dea0000",
          "blockHash": "0xa92b9a18758433b1e14c7f0fdcad55502287aaf52172dfacb1d72d5fd027bfc3",
          "blockNumber": "0x2a93d90",
          "transactionHash": "0x4d2ddc93ae0397134f82169b344fa26cf55d34f0f6566b2a3f34dc415d5a48fb",
          "transactionIndex": "0xd",
          "logIndex": "0x1c",
          "removed": false
        }
      ],
      "logsBloom": "0x00000000000000000000000000000008000000004000000000000000000000000000000010000000000000000000080000000000000000000000000000000000000000000000000000000000000000000000000000000101000000000000000000000000001000000000000000800000000000000000000000000000000000000000000000000000000000000000000000000000000000000000004000000000000000000000000000000000000000000000000000000000000000000010000000000000000000000000000000000000000000000200000000000000000000000000000000000000000000000000000000000000000000000000000000000001",
      "type": "0x0",
      "transactionHash": "0x4d2ddc93ae0397134f82169b344fa26cf55d34f0f6566b2a3f34dc415d5a48fb",
      "transactionIndex": "0xd",
      "blockHash": "0xa92b9a18758433b1e14c7f0fdcad55502287aaf52172dfacb1d72d5fd027bfc3",
      "blockNumber": "0x2a93d90",
      "gasUsed": "0xbf82",
      "effectiveGasPrice": "0x5d22cfc40",
      "from": "0x3a4db9e7306af09012ceb0f222d581fd1f0c6d71",
      "to": "0xae84b9e6dba48d14f4ec7741666c976c0556a295",
      "contractAddress": null,
      "l1BaseFeeScalar": "0x0",
      "l1BlobBaseFee": "0x1",
      "l1BlobBaseFeeScalar": "0x0",
      "l1Fee": "0x0",
      "l1GasPrice": "0x18",
      "l1GasUsed": "0x8d7"
    },
    {
      "status": "0x1",
      "cumulativeGasUsed": "0x1086ff",
      "logs": [
        {
          "address": "0x3b346548fbfa74623047b1e199a96576dd156f2e",
          "topics": [
            "0x8c5be1e5ebec7d5bd14f71427d1e84f3dd0314c0f7b2291e5b200ac8c7c3b925",
            "0x0000000000000000000000003a4db9e7306af09012ceb0f222d581fd1f0c6d71",
            "0x000000000000000000000000a41cc78c1f302a35184ddbe225d5530376cad254"
          ],
          "data": "0x00000000000000000000000000000000000000000000000a2a15d09519be0000",
          "blockHash": "0xa92b9a18758433b1e14c7f0fdcad55502287aaf52172dfacb1d72d5fd027bfc3",
          "blockNumber": "0x2a93d90",
          "transactionHash": "0x2df3d782631a91c1117468ff18b0d32ed004e46c4eaf29fbacfafe3e65c53ba2",
          "transactionIndex": "0xe",
          "logIndex": "0x1d",
          "removed": false
        }
      ],
      "logsBloom": "0x00000000000000000000000000000000000001000000000000000000000000000000000000000000000000000000000000000000000000000000000000200000000000000000000000000000000000004000000000000000000000000000000000000000001000000000000000000000000000000000000000000000000000000000000000000000000000000000400000000000000000000000004000000000020000000000000000000000000020000000000000000000000000000000000000000000000080000000000000000000000000000000001000000000000000000010000000000000000000000000000000000000000000000000000000000001",
      "type": "0x0",
      "transactionHash": "0x2df3d782631a91c1117468ff18b0d32ed004e46c4eaf29fbacfafe3e65c53ba2",
      "transactionIndex": "0xe",
      "blockHash": "0xa92b9a18758433b1e14c7f0fdcad55502287aaf52172dfacb1d72d5fd027bfc3",
      "blockNumber": "0x2a93d90",
      "gasUsed": "0xb773",
      "effectiveGasPrice": "0x5d22cfc40",
      "from": "0x3a4db9e7306af09012ceb0f222d581fd1f0c6d71",
      "to": "0x3b346548fbfa74623047b1e199a96576dd156f2e",
      "contractAddress": null,
      "l1BaseFeeScalar": "0x0",
      "l1BlobBaseFee": "0x1",
      "l1BlobBaseFeeScalar": "0x0",
      "l1Fee": "0x0",
      "l1GasPrice": "0x18",
      "l1GasUsed": "0x640"
    },
    {
      "status": "0x1",
      "cumulativeGasUsed": "0x12e154",
      "logs": [
        {
          "address": "0x3b346548fbfa74623047b1e199a96576dd156f2e",
          "topics": [
            "0xddf252ad1be2c89b69c2b068fc378daa952ba7f163c4a11628f55a4df523b3ef",
            "0x0000000000000000000000003a4db9e7306af09012ceb0f222d581fd1f0c6d71",
            "0x000000000000000000000000a41cc78c1f302a35184ddbe225d5530376cad254"
          ],
          "data": "0x00000000000000000000000000000000000000000000000a2a15d09519be0000",
          "blockHash": "0xa92b9a18758433b1e14c7f0fdcad55502287aaf52172dfacb1d72d5fd027bfc3",
          "blockNumber": "0x2a93d90",
          "transactionHash": "0xe53098d8cd4f7706c367ab62c96f062991a5709c9c8732796137e3566c65c9c2",
          "transactionIndex": "0xf",
          "logIndex": "0x1e",
          "removed": false
        },
        {
          "address": "0x3b346548fbfa74623047b1e199a96576dd156f2e",
          "topics": [
            "0x8c5be1e5ebec7d5bd14f71427d1e84f3dd0314c0f7b2291e5b200ac8c7c3b925",
            "0x000000000000000000000000a41cc78c1f302a35184ddbe225d5530376cad254",
            "0x000000000000000000000000eb0225a90ee70a2076a51981c0a9b0b25f2174c7"
          ],
          "data": "0x00000000000000000000000000000000000000000000000a2a15d09519be0000",
          "blockHash": "0xa92b9a18758433b1e14c7f0fdcad55502287aaf52172dfacb1d72d5fd027bfc3",
          "blockNumber": "0x2a93d90",
          "transactionHash": "0xe53098d8cd4f7706c367ab62c96f062991a5709c9c8732796137e3566c65c9c2",
          "transactionIndex": "0xf",
          "logIndex": "0x1f",
          "removed": false
        },
        {
          "address": "0x3b346548fbfa74623047b1e199a96576dd156f2e",
          "topics": [
            "0xddf252ad1be2c89b69c2b068fc378daa952ba7f163c4a11628f55a4df523b3ef",
            "0x000000000000000000000000a41cc78c1f302a35184ddbe225d5530376cad254",
            "0x000000000000000000000000eb0225a90ee70a2076a51981c0a9b0b25f2174c7"
          ],
          "data": "0x00000000000000000000000000000000000000000000000a2a15d09519be0000",
          "blockHash": "0xa92b9a18758433b1e14c7f0fdcad55502287aaf52172dfacb1d72d5fd027bfc3",
          "blockNumber": "0x2a93d90",
          "transactionHash": "0xe53098d8cd4f7706c367ab62c96f062991a5709c9c8732796137e3566c65c9c2",
          "transactionIndex": "0xf",
          "logIndex": "0x20",
          "removed": false
        },
        {
          "address": "0x3b346548fbfa74623047b1e199a96576dd156f2e",
          "topics": [
            "0x8c5be1e5ebec7d5bd14f71427d1e84f3dd0314c0f7b2291e5b200ac8c7c3b925",
            "0x000000000000000000000000eb0225a90ee70a2076a51981c0a9b0b25f2174c7",
            "0x000000000000000000000000fcc6d9a2477a31b4c8f77549fa455a72b3283e67"
          ],
          "data": "0x00000000000000000000000000000000000000000000000a2a15d09519be0000",
          "blockHash": "0xa92b9a18758433b1e14c7f0fdcad55502287aaf52172dfacb1d72d5fd027bfc3",
          "blockNumber": "0x2a93d90",
          "transactionHash": "0xe53098d8cd4f7706c367ab62c96f062991a5709c9c8732796137e3566c65c9c2",
          "transactionIndex": "0xf",
          "logIndex": "0x21",
          "removed": false
        },
        {
          "address": "0xeb0225a90ee70a2076a51981c0a9b0b25f2174c7",
          "topics": [
            "0x0a3fbbea70e93f2daafa3102f5c9a1b8315e6d7a1e43e4bc020bc1162327470a",
            "0x000000000000000000000000a41cc78c1f302a35184ddbe225d5530376cad254",
            "0x0000000000000000000000003b346548fbfa74623047b1e199a96576dd156f2e"
          ],
          "data": "0x00000000000000000000000000000000000000000000000a2a15d09519be0000",
          "blockHash": "0xa92b9a18758433b1e14c7f0fdcad55502287aaf52172dfacb1d72d5fd027bfc3",
          "blockNumber": "0x2a93d90",
          "transactionHash": "0xe53098d8cd4f7706c367ab62c96f062991a5709c9c8732796137e3566c65c9c2",
          "transactionIndex": "0xf",
          "logIndex": "0x22",
          "removed": false
        },
        {
          "address": "0xac166a1b90308ca742db5b388ffcbdc3e17a186c",
          "topics": [
            "0xddf252ad1be2c89b69c2b068fc378daa952ba7f163c4a11628f55a4df523b3ef",
            "0x0000000000000000000000000000000000000000000000000000000000000000",
            "0x0000000000000000000000003a4db9e7306af09012ceb0f222d581fd1f0c6d71"
          ],
          "data": "0x00000000000000000000000000000000000000000000003635c9adc5dea00000",
          "blockHash": "0xa92b9a18758433b1e14c7f0fdcad55502287aaf52172dfacb1d72d5fd027bfc3",
          "blockNumber": "0x2a93d90",
          "transactionHash": "0xe53098d8cd4f7706c367ab62c96f062991a5709c9c8732796137e3566c65c9c2",
          "transactionIndex": "0xf",
          "logIndex": "0x23",
          "removed": false
        },
        {
          "address": "0xeb0225a90ee70a2076a51981c0a9b0b25f2174c7",
          "topics": [
            "0xd1c19fbcd4551a5edfb66d43d2e337c04837afda3482b42bdf569a8fccdae5fb",
            "0x000000000000000000000000a41cc78c1f302a35184ddbe225d5530376cad254",
            "0x000000000000000000000000ac166a1b90308ca742db5b388ffcbdc3e17a186c"
          ],
          "data": "0xffffffffffffffffffffffffffffffffffffffffffffffffffffffffffffffff",
          "blockHash": "0xa92b9a18758433b1e14c7f0fdcad55502287aaf52172dfacb1d72d5fd027bfc3",
          "blockNumber": "0x2a93d90",
          "transactionHash": "0xe53098d8cd4f7706c367ab62c96f062991a5709c9c8732796137e3566c65c9c2",
          "transactionIndex": "0xf",
          "logIndex": "0x24",
          "removed": false
        },
        {
          "address": "0xa41cc78c1f302a35184ddbe225d5530376cad254",
          "topics": [
            "0xcefaf961c5013063cf501ffd9f9382e9b9c4b15741ad032fe93d7e9c7c733b22",
            "0x0000000000000000000000000000000000000000000000000000000000000004",
            "0x0000000000000000000000003a4db9e7306af09012ceb0f222d581fd1f0c6d71"
          ],
          "data": "0x",
          "blockHash": "0xa92b9a18758433b1e14c7f0fdcad55502287aaf52172dfacb1d72d5fd027bfc3",
          "blockNumber": "0x2a93d90",
          "transactionHash": "0xe53098d8cd4f7706c367ab62c96f062991a5709c9c8732796137e3566c65c9c2",
          "transactionIndex": "0xf",
          "logIndex": "0x25",
          "removed": false
        }
      ],
      "logsBloom": "0x0000000000000000000000000000000000002100010000000000014000000100000000001000000000000000000008002000040000000000000000000020200000000000000000000000000800020000400000000000010100000008100000000a000000021000000000000000841800000000000000000000000010000000000000000000000000000000000000400020000000000000000000004000000000020000000000000006000000000020000000000000000000002000000000000000000002000080000000000000004000000000008280001000000000000020000010000000000000002000081000000100000000000000002000000000000001",
      "type": "0x0",
      "transactionHash": "0xe53098d8cd4f7706c367ab62c96f062991a5709c9c8732796137e3566c65c9c2",
      "transactionIndex": "0xf",
      "blockHash": "0xa92b9a18758433b1e14c7f0fdcad55502287aaf52172dfacb1d72d5fd027bfc3",
      "blockNumber": "0x2a93d90",
      "gasUsed": "0x25a55",
      "effectiveGasPrice": "0x5d22cfc40",
      "from": "0x3a4db9e7306af09012ceb0f222d581fd1f0c6d71",
      "to": "0xa41cc78c1f302a35184ddbe225d5530376cad254",
      "contractAddress": null,
      "l1BaseFeeScalar": "0x0",
      "l1BlobBaseFee": "0x1",
      "l1BlobBaseFeeScalar": "0x0",
      "l1Fee": "0x0",
      "l1GasPrice": "0x18",
      "l1GasUsed": "0x640"
    },
    {
      "status": "0x1",
      "cumulativeGasUsed": "0x1398a4",
      "logs": [
        {
          "address": "0xac166a1b90308ca742db5b388ffcbdc3e17a186c",
          "topics": [
            "0x8c5be1e5ebec7d5bd14f71427d1e84f3dd0314c0f7b2291e5b200ac8c7c3b925",
            "0x0000000000000000000000003a4db9e7306af09012ceb0f222d581fd1f0c6d71",
            "0x000000000000000000000000a41cc78c1f302a35184ddbe225d5530376cad254"
          ],
          "data": "0x0000000000000000000000000000000000000000000000000de0b6b3a7640000",
          "blockHash": "0xa92b9a18758433b1e14c7f0fdcad55502287aaf52172dfacb1d72d5fd027bfc3",
          "blockNumber": "0x2a93d90",
          "transactionHash": "0x0578c4f043276cec9e56b20cd0eec0bcdae80abca82e29079c134ac0ee4f42ff",
          "transactionIndex": "0x10",
          "logIndex": "0x26",
          "removed": false
        }
      ],
      "logsBloom": "0x00000000000000000000000000000000000000000000000000000000000000000000000000000000000000000000000000000000000000000000000000200000000000000000000000000000000000000000000000000000000000080000000002000000001000000000000000000000000000000000000000000000000000000000000000000000000000000000400000000000000000000000004000000000020000000000000000000000000000000000000000000000000000000000000000000000000080000000000000004000000000000000001000000000000000000010000000000000000000000000000000000000000000000000000000000001",
      "type": "0x0",
      "transactionHash": "0x0578c4f043276cec9e56b20cd0eec0bcdae80abca82e29079c134ac0ee4f42ff",
      "transactionIndex": "0x10",
      "blockHash": "0xa92b9a18758433b1e14c7f0fdcad55502287aaf52172dfacb1d72d5fd027bfc3",
      "blockNumber": "0x2a93d90",
      "gasUsed": "0xb750",
      "effectiveGasPrice": "0x5d22cfc40",
      "from": "0x3a4db9e7306af09012ceb0f222d581fd1f0c6d71",
      "to": "0xac166a1b90308ca742db5b388ffcbdc3e17a186c",
      "contractAddress": null,
      "l1BaseFeeScalar": "0x0",
      "l1BlobBaseFee": "0x1",
      "l1BlobBaseFeeScalar": "0x0",
      "l1Fee": "0x0",
      "l1GasPrice": "0x18",
      "l1GasUsed": "0x640"
    },
    {
      "status": "0x1",
      "cumulativeGasUsed": "0x18cffb",
      "logs": [
        {
          "address": "0xac166a1b90308ca742db5b388ffcbdc3e17a186c",
          "topics": [
            "0xddf252ad1be2c89b69c2b068fc378daa952ba7f163c4a11628f55a4df523b3ef",
            "0x0000000000000000000000003a4db9e7306af09012ceb0f222d581fd1f0c6d71",
            "0x000000000000000000000000a41cc78c1f302a35184ddbe225d5530376cad254"
          ],
          "data": "0x0000000000000000000000000000000000000000000000000de0b6b3a7640000",
          "blockHash": "0xa92b9a18758433b1e14c7f0fdcad55502287aaf52172dfacb1d72d5fd027bfc3",
          "blockNumber": "0x2a93d90",
          "transactionHash": "0x9814ae3604c232df1b48e3590c7c2aea9f623b6d21761bcdd8c4b22c5051b2e5",
          "transactionIndex": "0x11",
          "logIndex": "0x27",
          "removed": false
        },
        {
          "address": "0xac166a1b90308ca742db5b388ffcbdc3e17a186c",
          "topics": [
            "0x8c5be1e5ebec7d5bd14f71427d1e84f3dd0314c0f7b2291e5b200ac8c7c3b925",
            "0x000000000000000000000000a41cc78c1f302a35184ddbe225d5530376cad254",
            "0x000000000000000000000000eb0225a90ee70a2076a51981c0a9b0b25f2174c7"
          ],
          "data": "0x0000000000000000000000000000000000000000000000000de0b6b3a7640000",
          "blockHash": "0xa92b9a18758433b1e14c7f0fdcad55502287aaf52172dfacb1d72d5fd027bfc3",
          "blockNumber": "0x2a93d90",
          "transactionHash": "0x9814ae3604c232df1b48e3590c7c2aea9f623b6d21761bcdd8c4b22c5051b2e5",
          "transactionIndex": "0x11",
          "logIndex": "0x28",
          "removed": false
        },
        {
          "address": "0xac166a1b90308ca742db5b388ffcbdc3e17a186c",
          "topics": [
            "0xddf252ad1be2c89b69c2b068fc378daa952ba7f163c4a11628f55a4df523b3ef",
            "0x000000000000000000000000a41cc78c1f302a35184ddbe225d5530376cad254",
            "0x000000000000000000000000eb0225a90ee70a2076a51981c0a9b0b25f2174c7"
          ],
          "data": "0x0000000000000000000000000000000000000000000000000de0b6b3a7640000",
          "blockHash": "0xa92b9a18758433b1e14c7f0fdcad55502287aaf52172dfacb1d72d5fd027bfc3",
          "blockNumber": "0x2a93d90",
          "transactionHash": "0x9814ae3604c232df1b48e3590c7c2aea9f623b6d21761bcdd8c4b22c5051b2e5",
          "transactionIndex": "0x11",
          "logIndex": "0x29",
          "removed": false
        },
        {
          "address": "0xac166a1b90308ca742db5b388ffcbdc3e17a186c",
          "topics": [
            "0x8c5be1e5ebec7d5bd14f71427d1e84f3dd0314c0f7b2291e5b200ac8c7c3b925",
            "0x000000000000000000000000eb0225a90ee70a2076a51981c0a9b0b25f2174c7",
            "0x000000000000000000000000fcc6d9a2477a31b4c8f77549fa455a72b3283e67"
          ],
          "data": "0x0000000000000000000000000000000000000000000000000de0b6b3a7640000",
          "blockHash": "0xa92b9a18758433b1e14c7f0fdcad55502287aaf52172dfacb1d72d5fd027bfc3",
          "blockNumber": "0x2a93d90",
          "transactionHash": "0x9814ae3604c232df1b48e3590c7c2aea9f623b6d21761bcdd8c4b22c5051b2e5",
          "transactionIndex": "0x11",
          "logIndex": "0x2a",
          "removed": false
        },
        {
          "address": "0xeb0225a90ee70a2076a51981c0a9b0b25f2174c7",
          "topics": [
            "0x523322d7afb07cee28d04498651096af062004e1f14315eff2e4a60290dfadda",
            "0x000000000000000000000000a41cc78c1f302a35184ddbe225d5530376cad254",
            "0x000000000000000000000000ac166a1b90308ca742db5b388ffcbdc3e17a186c"
          ],
          "data": "0x0000000000000000000000000000000000000000000000000de0b6b3a7640000",
          "blockHash": "0xa92b9a18758433b1e14c7f0fdcad55502287aaf52172dfacb1d72d5fd027bfc3",
          "blockNumber": "0x2a93d90",
          "transactionHash": "0x9814ae3604c232df1b48e3590c7c2aea9f623b6d21761bcdd8c4b22c5051b2e5",
          "transactionIndex": "0x11",
          "logIndex": "0x2b",
          "removed": false
        },
        {
          "address": "0x3b346548fbfa74623047b1e199a96576dd156f2e",
          "topics": [
            "0xddf252ad1be2c89b69c2b068fc378daa952ba7f163c4a11628f55a4df523b3ef",
            "0x0000000000000000000000000000000000000000000000000000000000000000",
            "0x000000000000000000000000eb0225a90ee70a2076a51981c0a9b0b25f2174c7"
          ],
          "data": "0x00000000000000000000000000000000000000000000000d8d726b7177a80000",
          "blockHash": "0xa92b9a18758433b1e14c7f0fdcad55502287aaf52172dfacb1d72d5fd027bfc3",
          "blockNumber": "0x2a93d90",
          "transactionHash": "0x9814ae3604c232df1b48e3590c7c2aea9f623b6d21761bcdd8c4b22c5051b2e5",
          "transactionIndex": "0x11",
          "logIndex": "0x2c",
          "removed": false
        },
        {
          "address": "0xeb0225a90ee70a2076a51981c0a9b0b25f2174c7",
          "topics": [
            "0xc14e9e6b4d98a542b05a0f6b64acd5f4cbdb914be88432d87486b664e97071a7",
            "0x000000000000000000000000a41cc78c1f302a35184ddbe225d5530376cad254",
            "0x0000000000000000000000003b346548fbfa74623047b1e199a96576dd156f2e"
          ],
          "data": "0x00000000000000000000000000000000000000000000000d8d726b7177a800000000000000000000000000000000000000000000000000000000000000000002",
          "blockHash": "0xa92b9a18758433b1e14c7f0fdcad55502287aaf52172dfacb1d72d5fd027bfc3",
          "blockNumber": "0x2a93d90",
          "transactionHash": "0x9814ae3604c232df1b48e3590c7c2aea9f623b6d21761bcdd8c4b22c5051b2e5",
          "transactionIndex": "0x11",
          "logIndex": "0x2d",
          "removed": false
        },
        {
          "address": "0x3b346548fbfa74623047b1e199a96576dd156f2e",
          "topics": [
            "0xddf252ad1be2c89b69c2b068fc378daa952ba7f163c4a11628f55a4df523b3ef",
            "0x000000000000000000000000a41cc78c1f302a35184ddbe225d5530376cad254",
            "0x0000000000000000000000003a4db9e7306af09012ceb0f222d581fd1f0c6d71"
          ],
          "data": "0x00000000000000000000000000000000000000000000000d8d726b7177a80000",
          "blockHash": "0xa92b9a18758433b1e14c7f0fdcad55502287aaf52172dfacb1d72d5fd027bfc3",
          "blockNumber": "0x2a93d90",
          "transactionHash": "0x9814ae3604c232df1b48e3590c7c2aea9f623b6d21761bcdd8c4b22c5051b2e5",
          "transactionIndex": "0x11",
          "logIndex": "0x2e",
          "removed": false
        },
        {
          "address": "0xa41cc78c1f302a35184ddbe225d5530376cad254",
          "topics": [
            "0x9f9b498443531d2db9df8a00ec466efc74ba50ec1d82f7badd3424b87930e19a",
            "0x0000000000000000000000000000000000000000000000000000000000000005",
            "0x0000000000000000000000003a4db9e7306af09012ceb0f222d581fd1f0c6d71"
          ],
          "data": "0x000000000000000000000000ac166a1b90308ca742db5b388ffcbdc3e17a186c0000000000000000000000000000000000000000000000000de0b6b3a76400000000000000000000000000003b346548fbfa74623047b1e199a96576dd156f2e00000000000000000000000000000000000000000000000d8d726b7177a800000000000000000000000000000000000000000000000000000000000000000002",
          "blockHash": "0xa92b9a18758433b1e14c7f0fdcad55502287aaf52172dfacb1d72d5fd027bfc3",
          "blockNumber": "0x2a93d90",
          "transactionHash": "0x9814ae3604c232df1b48e3590c7c2aea9f623b6d21761bcdd8c4b22c5051b2e5",
          "transactionIndex": "0x11",
          "logIndex": "0x2f",
          "removed": false
        }
      ],
      "logsBloom": "0x0000000000000000000000000000000000000100010000000000014000000100000000000000000000002000000000002008040000000000000000000020200000001002000000000000000800000000400000000000010100000008002000000200000002100000000000000000180000000002000000000000001000000000000000000000000000000000000040102000080000000000000000400000000002000000000000000400000000002000000000000000000000000000000000000004000200008000000000000000c000000000000280001000020000000020000010000000000000002000001000000100000000004000002000000000000001",
      "type": "0x0",
      "transactionHash": "0x9814ae3604c232df1b48e3590c7c2aea9f623b6d21761bcdd8c4b22c5051b2e5",
      "transactionIndex": "0x11",
      "blockHash": "0xa92b9a18758433b1e14c7f0fdcad55502287aaf52172dfacb1d72d5fd027bfc3",
      "blockNumber": "0x2a93d90",
      "gasUsed": "0x53757",
      "effectiveGasPrice": "0x5d22cfc40",
      "from": "0x3a4db9e7306af09012ceb0f222d581fd1f0c6d71",
      "to": "0xa41cc78c1f302a35184ddbe225d5530376cad254",
      "contractAddress": null,
      "l1BaseFeeScalar": "0x0",
      "l1BlobBaseFee": "0x1",
      "l1BlobBaseFeeScalar": "0x0",
      "l1Fee": "0x0",
      "l1GasPrice": "0x18",
      "l1GasUsed": "0x7d8"
    },
    {
      "status": "0x1",
      "cumulativeGasUsed": "0x19ccff",
      "logs": [
        {
          "address": "0xeb0225a90ee70a2076a51981c0a9b0b25f2174c7",
          "topics": [
            "0x523322d7afb07cee28d04498651096af062004e1f14315eff2e4a60290dfadda",
            "0x000000000000000000000000a41cc78c1f302a35184ddbe225d5530376cad254",
            "0x000000000000000000000000ac166a1b90308ca742db5b388ffcbdc3e17a186c"
          ],
          "data": "0x00000000000000000000000000000000000000000000000006f05b59d3b20000",
          "blockHash": "0xa92b9a18758433b1e14c7f0fdcad55502287aaf52172dfacb1d72d5fd027bfc3",
          "blockNumber": "0x2a93d90",
          "transactionHash": "0xa6a5225dfa9f5faa28e3d733a2a1e4124b6dceb4afe05bfcd8b38629bcbe7976",
          "transactionIndex": "0x12",
          "logIndex": "0x30",
          "removed": false
        },
        {
          "address": "0xa41cc78c1f302a35184ddbe225d5530376cad254",
          "topics": [
            "0x244160b15e69cc411f041d94ae7fab6f6bba85dade8403216c05ff4b920d5449",
            "0x0000000000000000000000000000000000000000000000000000000000000005"
          ],
          "data": "0x00000000000000000000000000000000000000000000000006f05b59d3b20000",
          "blockHash": "0xa92b9a18758433b1e14c7f0fdcad55502287aaf52172dfacb1d72d5fd027bfc3",
          "blockNumber": "0x2a93d90",
          "transactionHash": "0xa6a5225dfa9f5faa28e3d733a2a1e4124b6dceb4afe05bfcd8b38629bcbe7976",
          "transactionIndex": "0x12",
          "logIndex": "0x31",
          "removed": false
        }
      ],
      "logsBloom": "0x00000000000000000000000000000000000000000000000000000140000000000000000000000000000000000000000000080400000200000000000000000000000010020000000000000000000000000000000000000000000000000000000000000000001000000000000000001000000000000000000000000000000000000000000000000000000000000000001000000800000000000000004000000000000000000000000004000000000000000000000000000000000000000000000000040000000000000000000000000010000000000080000000000000000000000000000000000080002000001000000000000000000000002000000000000001",
      "type": "0x0",
      "transactionHash": "0xa6a5225dfa9f5faa28e3d733a2a1e4124b6dceb4afe05bfcd8b38629bcbe7976",
      "transactionIndex": "0x12",
      "blockHash": "0xa92b9a18758433b1e14c7f0fdcad55502287aaf52172dfacb1d72d5fd027bfc3",
      "blockNumber": "0x2a93d90",
      "gasUsed": "0xfd04",
      "effectiveGasPrice": "0x5d22cfc40",
      "from": "0x3a4db9e7306af09012ceb0f222d581fd1f0c6d71",
      "to": "0xa41cc78c1f302a35184ddbe225d5530376cad254",
      "contractAddress": null,
      "l1BaseFeeScalar": "0x0",
      "l1BlobBaseFee": "0x1",
      "l1BlobBaseFeeScalar": "0x0",
      "l1Fee": "0x0",
      "l1GasPrice": "0x18",
      "l1GasUsed": "0x640"
    },
    {
      "status": "0x1",
      "cumulativeGasUsed": "0x1ae18b",
      "logs": [
        {
          "address": "0xeb0225a90ee70a2076a51981c0a9b0b25f2174c7",
          "topics": [
            "0x0a3fbbea70e93f2daafa3102f5c9a1b8315e6d7a1e43e4bc020bc1162327470a",
            "0x000000000000000000000000a41cc78c1f302a35184ddbe225d5530376cad254",
            "0x0000000000000000000000003b346548fbfa74623047b1e199a96576dd156f2e"
          ],
          "data": "0x0000000000000000000000000000000000000000000000056bc75e2d63100000",
          "blockHash": "0xa92b9a18758433b1e14c7f0fdcad55502287aaf52172dfacb1d72d5fd027bfc3",
          "blockNumber": "0x2a93d90",
          "transactionHash": "0x91bbaf38b05a4cdc67478b21e4edfeddfefce03cacd8418b85bfb2361b79aaf6",
          "transactionIndex": "0x13",
          "logIndex": "0x32",
          "removed": false
        },
        {
          "address": "0xa41cc78c1f302a35184ddbe225d5530376cad254",
          "topics": [
            "0x0d4979b0859a1951f8ed7cbe3b1994e740552588f27ba02ca0f8f1ddcad16e0c",
            "0x0000000000000000000000000000000000000000000000000000000000000005"
          ],
          "data": "0x0000000000000000000000000000000000000000000000056bc75e2d63100000",
          "blockHash": "0xa92b9a18758433b1e14c7f0fdcad55502287aaf52172dfacb1d72d5fd027bfc3",
          "blockNumber": "0x2a93d90",
          "transactionHash": "0x91bbaf38b05a4cdc67478b21e4edfeddfefce03cacd8418b85bfb2361b79aaf6",
          "transactionIndex": "0x13",
          "logIndex": "0x33",
          "removed": false
        }
      ],
      "logsBloom": "0x00000000000000000000000010000000000000000000000000000140000000000000000010000000000000000000080000000400000000000000000000000000000010000000000000000000000000000000002000000101000000000000000080000000001000000000000000800000000000000000000000000000000000000000000000000000000000000000001000000800000000000000004000000000000000000000000000000000000000000000000000000000000000000000000000000000000000000000000000000000000000000280000000000000000000000000000000000000002000001000000000000000000000000000000000000001",
      "type": "0x0",
      "transactionHash": "0x91bbaf38b05a4cdc67478b21e4edfeddfefce03cacd8418b85bfb2361b79aaf6",
      "transactionIndex": "0x13",
      "blockHash": "0xa92b9a18758433b1e14c7f0fdcad55502287aaf52172dfacb1d72d5fd027bfc3",
      "blockNumber": "0x2a93d90",
      "gasUsed": "0x1148c",
      "effectiveGasPrice": "0x5d22cfc40",
      "from": "0x3a4db9e7306af09012ceb0f222d581fd1f0c6d71",
      "to": "0xa41cc78c1f302a35184ddbe225d5530376cad254",
      "contractAddress": null,
      "l1BaseFeeScalar": "0x0",
      "l1BlobBaseFee": "0x1",
      "l1BlobBaseFeeScalar": "0x0",
      "l1Fee": "0x0",
      "l1GasPrice": "0x18",
      "l1GasUsed": "0x640"
    },
    {
      "status": "0x1",
      "cumulativeGasUsed": "0x1b98db",
      "logs": [
        {
          "address": "0xac166a1b90308ca742db5b388ffcbdc3e17a186c",
          "topics": [
            "0x8c5be1e5ebec7d5bd14f71427d1e84f3dd0314c0f7b2291e5b200ac8c7c3b925",
            "0x0000000000000000000000003a4db9e7306af09012ceb0f222d581fd1f0c6d71",
            "0x000000000000000000000000a41cc78c1f302a35184ddbe225d5530376cad254"
          ],
          "data": "0x0000000000000000000000000000000000000000000000000de0b6b3a7640000",
          "blockHash": "0xa92b9a18758433b1e14c7f0fdcad55502287aaf52172dfacb1d72d5fd027bfc3",
          "blockNumber": "0x2a93d90",
          "transactionHash": "0xf55270dcae9216566030e879fdae2fe1ea4827cac97cb4e3131bad73f864a84e",
          "transactionIndex": "0x14",
          "logIndex": "0x34",
          "removed": false
        }
      ],
      "logsBloom": "0x00000000000000000000000000000000000000000000000000000000000000000000000000000000000000000000000000000000000000000000000000200000000000000000000000000000000000000000000000000000000000080000000002000000001000000000000000000000000000000000000000000000000000000000000000000000000000000000400000000000000000000000004000000000020000000000000000000000000000000000000000000000000000000000000000000000000080000000000000004000000000000000001000000000000000000010000000000000000000000000000000000000000000000000000000000001",
      "type": "0x0",
      "transactionHash": "0xf55270dcae9216566030e879fdae2fe1ea4827cac97cb4e3131bad73f864a84e",
      "transactionIndex": "0x14",
      "blockHash": "0xa92b9a18758433b1e14c7f0fdcad55502287aaf52172dfacb1d72d5fd027bfc3",
      "blockNumber": "0x2a93d90",
      "gasUsed": "0xb750",
      "effectiveGasPrice": "0x5d22cfc40",
      "from": "0x3a4db9e7306af09012ceb0f222d581fd1f0c6d71",
      "to": "0xac166a1b90308ca742db5b388ffcbdc3e17a186c",
      "contractAddress": null,
      "l1BaseFeeScalar": "0x0",
      "l1BlobBaseFee": "0x1",
      "l1BlobBaseFeeScalar": "0x0",
      "l1Fee": "0x0",
      "l1GasPrice": "0x18",
      "l1GasUsed": "0x640"
    },
    {
      "status": "0x1",
      "cumulativeGasUsed": "0x20e612",
      "logs": [
        {
          "address": "0xac166a1b90308ca742db5b388ffcbdc3e17a186c",
          "topics": [
            "0xddf252ad1be2c89b69c2b068fc378daa952ba7f163c4a11628f55a4df523b3ef",
            "0x0000000000000000000000003a4db9e7306af09012ceb0f222d581fd1f0c6d71",
            "0x000000000000000000000000a41cc78c1f302a35184ddbe225d5530376cad254"
          ],
          "data": "0x0000000000000000000000000000000000000000000000000de0b6b3a7640000",
          "blockHash": "0xa92b9a18758433b1e14c7f0fdcad55502287aaf52172dfacb1d72d5fd027bfc3",
          "blockNumber": "0x2a93d90",
          "transactionHash": "0x68731457d97f455dc88fa17a1d8f78deded4058614d1aa5c364730067fd14bf7",
          "transactionIndex": "0x15",
          "logIndex": "0x35",
          "removed": false
        },
        {
          "address": "0xac166a1b90308ca742db5b388ffcbdc3e17a186c",
          "topics": [
            "0x8c5be1e5ebec7d5bd14f71427d1e84f3dd0314c0f7b2291e5b200ac8c7c3b925",
            "0x000000000000000000000000a41cc78c1f302a35184ddbe225d5530376cad254",
            "0x000000000000000000000000eb0225a90ee70a2076a51981c0a9b0b25f2174c7"
          ],
          "data": "0x0000000000000000000000000000000000000000000000000de0b6b3a7640000",
          "blockHash": "0xa92b9a18758433b1e14c7f0fdcad55502287aaf52172dfacb1d72d5fd027bfc3",
          "blockNumber": "0x2a93d90",
          "transactionHash": "0x68731457d97f455dc88fa17a1d8f78deded4058614d1aa5c364730067fd14bf7",
          "transactionIndex": "0x15",
          "logIndex": "0x36",
          "removed": false
        },
        {
          "address": "0xac166a1b90308ca742db5b388ffcbdc3e17a186c",
          "topics": [
            "0xddf252ad1be2c89b69c2b068fc378daa952ba7f163c4a11628f55a4df523b3ef",
            "0x000000000000000000000000a41cc78c1f302a35184ddbe225d5530376cad254",
            "0x000000000000000000000000eb0225a90ee70a2076a51981c0a9b0b25f2174c7"
          ],
          "data": "0x0000000000000000000000000000000000000000000000000de0b6b3a7640000",
          "blockHash": "0xa92b9a18758433b1e14c7f0fdcad55502287aaf52172dfacb1d72d5fd027bfc3",
          "blockNumber": "0x2a93d90",
          "transactionHash": "0x68731457d97f455dc88fa17a1d8f78deded4058614d1aa5c364730067fd14bf7",
          "transactionIndex": "0x15",
          "logIndex": "0x37",
          "removed": false
        },
        {
          "address": "0xac166a1b90308ca742db5b388ffcbdc3e17a186c",
          "topics": [
            "0x8c5be1e5ebec7d5bd14f71427d1e84f3dd0314c0f7b2291e5b200ac8c7c3b925",
            "0x000000000000000000000000eb0225a90ee70a2076a51981c0a9b0b25f2174c7",
            "0x000000000000000000000000fcc6d9a2477a31b4c8f77549fa455a72b3283e67"
          ],
          "data": "0x0000000000000000000000000000000000000000000000000de0b6b3a7640000",
          "blockHash": "0xa92b9a18758433b1e14c7f0fdcad55502287aaf52172dfacb1d72d5fd027bfc3",
          "blockNumber": "0x2a93d90",
          "transactionHash": "0x68731457d97f455dc88fa17a1d8f78deded4058614d1aa5c364730067fd14bf7",
          "transactionIndex": "0x15",
          "logIndex": "0x38",
          "removed": false
        },
        {
          "address": "0xeb0225a90ee70a2076a51981c0a9b0b25f2174c7",
          "topics": [
            "0x523322d7afb07cee28d04498651096af062004e1f14315eff2e4a60290dfadda",
            "0x000000000000000000000000a41cc78c1f302a35184ddbe225d5530376cad254",
            "0x000000000000000000000000ac166a1b90308ca742db5b388ffcbdc3e17a186c"
          ],
          "data": "0x0000000000000000000000000000000000000000000000000de0b6b3a7640000",
          "blockHash": "0xa92b9a18758433b1e14c7f0fdcad55502287aaf52172dfacb1d72d5fd027bfc3",
          "blockNumber": "0x2a93d90",
          "transactionHash": "0x68731457d97f455dc88fa17a1d8f78deded4058614d1aa5c364730067fd14bf7",
          "transactionIndex": "0x15",
          "logIndex": "0x39",
          "removed": false
        },
        {
          "address": "0x3b346548fbfa74623047b1e199a96576dd156f2e",
          "topics": [
            "0xddf252ad1be2c89b69c2b068fc378daa952ba7f163c4a11628f55a4df523b3ef",
            "0x0000000000000000000000000000000000000000000000000000000000000000",
            "0x000000000000000000000000eb0225a90ee70a2076a51981c0a9b0b25f2174c7"
          ],
          "data": "0x000000000000000000000000000000000000000000000006c6b935b8bbd40000",
          "blockHash": "0xa92b9a18758433b1e14c7f0fdcad55502287aaf52172dfacb1d72d5fd027bfc3",
          "blockNumber": "0x2a93d90",
          "transactionHash": "0x68731457d97f455dc88fa17a1d8f78deded4058614d1aa5c364730067fd14bf7",
          "transactionIndex": "0x15",
          "logIndex": "0x3a",
          "removed": false
        },
        {
          "address": "0xeb0225a90ee70a2076a51981c0a9b0b25f2174c7",
          "topics": [
            "0xc14e9e6b4d98a542b05a0f6b64acd5f4cbdb914be88432d87486b664e97071a7",
            "0x000000000000000000000000a41cc78c1f302a35184ddbe225d5530376cad254",
            "0x0000000000000000000000003b346548fbfa74623047b1e199a96576dd156f2e"
          ],
          "data": "0x000000000000000000000000000000000000000000000006c6b935b8bbd400000000000000000000000000000000000000000000000000000000000000000002",
          "blockHash": "0xa92b9a18758433b1e14c7f0fdcad55502287aaf52172dfacb1d72d5fd027bfc3",
          "blockNumber": "0x2a93d90",
          "transactionHash": "0x68731457d97f455dc88fa17a1d8f78deded4058614d1aa5c364730067fd14bf7",
          "transactionIndex": "0x15",
          "logIndex": "0x3b",
          "removed": false
        },
        {
          "address": "0x3b346548fbfa74623047b1e199a96576dd156f2e",
          "topics": [
            "0xddf252ad1be2c89b69c2b068fc378daa952ba7f163c4a11628f55a4df523b3ef",
            "0x000000000000000000000000a41cc78c1f302a35184ddbe225d5530376cad254",
            "0x0000000000000000000000003a4db9e7306af09012ceb0f222d581fd1f0c6d71"
          ],
          "data": "0x000000000000000000000000000000000000000000000006c6b935b8bbd40000",
          "blockHash": "0xa92b9a18758433b1e14c7f0fdcad55502287aaf52172dfacb1d72d5fd027bfc3",
          "blockNumber": "0x2a93d90",
          "transactionHash": "0x68731457d97f455dc88fa17a1d8f78deded4058614d1aa5c364730067fd14bf7",
          "transactionIndex": "0x15",
          "logIndex": "0x3c",
          "removed": false
        },
        {
          "address": "0xa41cc78c1f302a35184ddbe225d5530376cad254",
          "topics": [
            "0x9f9b498443531d2db9df8a00ec466efc74ba50ec1d82f7badd3424b87930e19a",
            "0x0000000000000000000000000000000000000000000000000000000000000006",
            "0x0000000000000000000000003a4db9e7306af09012ceb0f222d581fd1f0c6d71"
          ],
          "data": "0x000000000000000000000000ac166a1b90308ca742db5b388ffcbdc3e17a186c0000000000000000000000000000000000000000000000000de0b6b3a76400000000000000000000000000003b346548fbfa74623047b1e199a96576dd156f2e000000000000000000000000000000000000000000000006c6b935b8bbd400000000000000000000000000000000000000000000000000000000000000000002",
          "blockHash": "0xa92b9a18758433b1e14c7f0fdcad55502287aaf52172dfacb1d72d5fd027bfc3",
          "blockNumber": "0x2a93d90",
          "transactionHash": "0x68731457d97f455dc88fa17a1d8f78deded4058614d1aa5c364730067fd14bf7",
          "transactionIndex": "0x15",
          "logIndex": "0x3d",
          "removed": false
        }
      ],
      "logsBloom": "0x0000000000000000000000000000000000000100010000000000014000000100000000000000000000002000000000002008040000040000000000000020200000000002000000000000000800000000400000000000010100000008002000000200000002100000000000000000180000000002000000000000001000000000000000040000000000000000000040002000000000000000000000400000000002000000000000000400000000002000000000000000000000000008000000000004000200008000000000000000c000000000000280001000020000000020000010000000000000002000001000000100000000004000002000000000000001",
      "type": "0x0",
      "transactionHash": "0x68731457d97f455dc88fa17a1d8f78deded4058614d1aa5c364730067fd14bf7",
      "transactionIndex": "0x15",
      "blockHash": "0xa92b9a18758433b1e14c7f0fdcad55502287aaf52172dfacb1d72d5fd027bfc3",
      "blockNumber": "0x2a93d90",
      "gasUsed": "0x54d37",
      "effectiveGasPrice": "0x5d22cfc40",
      "from": "0x3a4db9e7306af09012ceb0f222d581fd1f0c6d71",
      "to": "0xa41cc78c1f302a35184ddbe225d5530376cad254",
      "contractAddress": null,
      "l1BaseFeeScalar": "0x0",
      "l1BlobBaseFee": "0x1",
      "l1BlobBaseFeeScalar": "0x0",
      "l1Fee": "0x0",
      "l1GasPrice": "0x18",
      "l1GasUsed": "0x7d8"
    },
    {
      "status": "0x1",
      "cumulativeGasUsed": "0x228e80",
      "logs": [
        {
          "address": "0xeb0225a90ee70a2076a51981c0a9b0b25f2174c7",
          "topics": [
            "0x0a3fbbea70e93f2daafa3102f5c9a1b8315e6d7a1e43e4bc020bc1162327470a",
            "0x000000000000000000000000a41cc78c1f302a35184ddbe225d5530376cad254",
            "0x0000000000000000000000003b346548fbfa74623047b1e199a96576dd156f2e"
          ],
          "data": "0x000000000000000000000000000000000000000000000006c6b935b8bbd40000",
          "blockHash": "0xa92b9a18758433b1e14c7f0fdcad55502287aaf52172dfacb1d72d5fd027bfc3",
          "blockNumber": "0x2a93d90",
          "transactionHash": "0x77c98445b56bcf3ae483d3d3102013d149a3b9b991f73c0a71c9f5bc97f7040f",
          "transactionIndex": "0x16",
          "logIndex": "0x3e",
          "removed": false
        },
        {
          "address": "0xac166a1b90308ca742db5b388ffcbdc3e17a186c",
          "topics": [
            "0xddf252ad1be2c89b69c2b068fc378daa952ba7f163c4a11628f55a4df523b3ef",
            "0x0000000000000000000000000000000000000000000000000000000000000000",
            "0x0000000000000000000000003a4db9e7306af09012ceb0f222d581fd1f0c6d71"
          ],
          "data": "0x00000000000000000000000000000000000000000000003635c9adc5dea00000",
          "blockHash": "0xa92b9a18758433b1e14c7f0fdcad55502287aaf52172dfacb1d72d5fd027bfc3",
          "blockNumber": "0x2a93d90",
          "transactionHash": "0x77c98445b56bcf3ae483d3d3102013d149a3b9b991f73c0a71c9f5bc97f7040f",
          "transactionIndex": "0x16",
          "logIndex": "0x3f",
          "removed": false
        },
        {
          "address": "0xeb0225a90ee70a2076a51981c0a9b0b25f2174c7",
          "topics": [
            "0xd1c19fbcd4551a5edfb66d43d2e337c04837afda3482b42bdf569a8fccdae5fb",
            "0x000000000000000000000000a41cc78c1f302a35184ddbe225d5530376cad254",
            "0x000000000000000000000000ac166a1b90308ca742db5b388ffcbdc3e17a186c"
          ],
          "data": "0xffffffffffffffffffffffffffffffffffffffffffffffffffffffffffffffff",
          "blockHash": "0xa92b9a18758433b1e14c7f0fdcad55502287aaf52172dfacb1d72d5fd027bfc3",
          "blockNumber": "0x2a93d90",
          "transactionHash": "0x77c98445b56bcf3ae483d3d3102013d149a3b9b991f73c0a71c9f5bc97f7040f",
          "transactionIndex": "0x16",
          "logIndex": "0x40",
          "removed": false
        },
        {
          "address": "0xa41cc78c1f302a35184ddbe225d5530376cad254",
          "topics": [
            "0xcefaf961c5013063cf501ffd9f9382e9b9c4b15741ad032fe93d7e9c7c733b22",
            "0x0000000000000000000000000000000000000000000000000000000000000006",
            "0x0000000000000000000000003a4db9e7306af09012ceb0f222d581fd1f0c6d71"
          ],
          "data": "0x",
          "blockHash": "0xa92b9a18758433b1e14c7f0fdcad55502287aaf52172dfacb1d72d5fd027bfc3",
          "blockNumber": "0x2a93d90",
          "transactionHash": "0x77c98445b56bcf3ae483d3d3102013d149a3b9b991f73c0a71c9f5bc97f7040f",
          "transactionIndex": "0x16",
          "logIndex": "0x41",
          "removed": false
        }
      ],
      "logsBloom": "0x00000000000000000000000000000000000020000000000000000140000000000000000010000000000000000000080000000400000400000000000000000000000000000000000000000008000200000000000000000101000000081000000002000000021000000000000000841800000000000000000000000010000000000000000400000000000000000000400000000000000000000000004000000000000000000000000006000000000000000000000000000000000000080000000000000002000080000000000000004000000000000280001000000000000020000000000000000000002000081000000000000000000000002000000000000001",
      "type": "0x0",
      "transactionHash": "0x77c98445b56bcf3ae483d3d3102013d149a3b9b991f73c0a71c9f5bc97f7040f",
      "transactionIndex": "0x16",
      "blockHash": "0xa92b9a18758433b1e14c7f0fdcad55502287aaf52172dfacb1d72d5fd027bfc3",
      "blockNumber": "0x2a93d90",
      "gasUsed": "0x1a86e",
      "effectiveGasPrice": "0x5d22cfc40",
      "from": "0x3a4db9e7306af09012ceb0f222d581fd1f0c6d71",
      "to": "0xa41cc78c1f302a35184ddbe225d5530376cad254",
      "contractAddress": null,
      "l1BaseFeeScalar": "0x0",
      "l1BlobBaseFee": "0x1",
      "l1BlobBaseFeeScalar": "0x0",
      "l1Fee": "0x0",
      "l1GasPrice": "0x18",
      "l1GasUsed": "0x640"
    }
  ],
  "libraries": [],
  "pending": [],
  "returns": {},
  "timestamp": 1745601097,
  "chain": 44787,
  "commit": "1cefd9d"
}