{
  "transactions": [
    {
      "hash": "0x40bc7e9c09ba9c4c26241236599fc57f12afeb0ed3bc0f94a132d0ee5aa58373",
      "transactionType": "CALL",
      "contractName": null,
      "contractAddress": "0x48065fbbe25f71c9282ddf5e1cd6d6a887483d5e",
      "function": "approve(address,uint256)",
      "arguments": [
        "0x3E59A31363E2ad014dcbc521c4a0d5757d9f3402",
        "100000"
      ],
      "transaction": {
        "from": "0x3a4db9e7306af09012ceb0f222d581fd1f0c6d71",
        "to": "0x48065fbbe25f71c9282ddf5e1cd6d6a887483d5e",
        "gas": "0x1201c",
        "value": "0x0",
        "input": "0x095ea7b30000000000000000000000003e59a31363e2ad014dcbc521c4a0d5757d9f340200000000000000000000000000000000000000000000000000000000000186a0",
        "nonce": "0x28",
        "chainId": "0xa4ec"
      },
      "additionalContracts": [],
      "isFixedGasLimit": false
    },
    {
      "hash": "0xc560ee1e9d71824ae87c6d82040bf1d8f857d22e7264966f0e2d1ef6ba36b950",
      "transactionType": "CALL",
      "contractName": null,
      "contractAddress": "0x3e59a31363e2ad014dcbc521c4a0d5757d9f3402",
      "function": "supply(address,uint256,address,uint16)",
      "arguments": [
        "0x48065fbBE25f71C9282ddf5e1cD6D6A887483D5e",
        "100000",
        "0x3A4dB9e7306aF09012ceb0f222d581FD1F0C6D71",
        "0"
      ],
      "transaction": {
        "from": "0x3a4db9e7306af09012ceb0f222d581fd1f0c6d71",
        "to": "0x3e59a31363e2ad014dcbc521c4a0d5757d9f3402",
        "gas": "0x44fb3",
        "value": "0x0",
        "input": "0x617ba03700000000000000000000000048065fbbe25f71c9282ddf5e1cd6d6a887483d5e00000000000000000000000000000000000000000000000000000000000186a00000000000000000000000003a4db9e7306af09012ceb0f222d581fd1f0c6d710000000000000000000000000000000000000000000000000000000000000000",
        "nonce": "0x29",
        "chainId": "0xa4ec"
      },
      "additionalContracts": [],
      "isFixedGasLimit": false
    },
    {
      "hash": "0x6c5fca3d909f73a8ca472ea1f7233e98c0be946bb89b5dbbede0a02abc6aeef1",
      "transactionType": "CALL",
      "contractName": null,
      "contractAddress": "0x48065fbbe25f71c9282ddf5e1cd6d6a887483d5e",
      "function": "approve(address,uint256)",
      "arguments": [
        "0x3E59A31363E2ad014dcbc521c4a0d5757d9f3402",
        "50000"
      ],
      "transaction": {
        "from": "0x3a4db9e7306af09012ceb0f222d581fd1f0c6d71",
        "to": "0x48065fbbe25f71c9282ddf5e1cd6d6a887483d5e",
        "gas": "0x130fe",
        "value": "0x0",
        "input": "0x095ea7b30000000000000000000000003e59a31363e2ad014dcbc521c4a0d5757d9f3402000000000000000000000000000000000000000000000000000000000000c350",
        "nonce": "0x2a",
        "chainId": "0xa4ec"
      },
      "additionalContracts": [],
      "isFixedGasLimit": false
    },
    {
      "hash": "0x840e4663c8aa056e278fe970bad25e4c9adf2bae9a7a291890a4375890145c5c",
      "transactionType": "CALL",
      "contractName": null,
      "contractAddress": "0x3e59a31363e2ad014dcbc521c4a0d5757d9f3402",
      "function": "supply(address,uint256,address,uint16)",
      "arguments": [
        "0x48065fbBE25f71C9282ddf5e1cD6D6A887483D5e",
        "50000",
        "0x8A05C0a366abb49b56A44b37A5Fe281957DE2c37",
        "0"
      ],
      "transaction": {
        "from": "0x3a4db9e7306af09012ceb0f222d581fd1f0c6d71",
        "to": "0x3e59a31363e2ad014dcbc521c4a0d5757d9f3402",
        "gas": "0x437de",
        "value": "0x0",
        "input": "0x617ba03700000000000000000000000048065fbbe25f71c9282ddf5e1cd6d6a887483d5e000000000000000000000000000000000000000000000000000000000000c3500000000000000000000000008a05c0a366abb49b56a44b37a5fe281957de2c370000000000000000000000000000000000000000000000000000000000000000",
        "nonce": "0x2b",
        "chainId": "0xa4ec"
      },
      "additionalContracts": [],
      "isFixedGasLimit": false
    },
    {
      "hash": "0x8efdceb5bf970fe23b3d16febd2e351ac090f363f7d7bd82a2da9b2070ffe3e8",
      "transactionType": "CALL",
      "contractName": null,
      "contractAddress": "0x48065fbbe25f71c9282ddf5e1cd6d6a887483d5e",
      "function": "approve(address,uint256)",
      "arguments": [
        "0x8A05C0a366abb49b56A44b37A5Fe281957DE2c37",
        "50000"
      ],
      "transaction": {
        "from": "0x3a4db9e7306af09012ceb0f222d581fd1f0c6d71",
        "to": "0x48065fbbe25f71c9282ddf5e1cd6d6a887483d5e",
        "gas": "0x130fe",
        "value": "0x0",
        "input": "0x095ea7b30000000000000000000000008a05c0a366abb49b56a44b37a5fe281957de2c37000000000000000000000000000000000000000000000000000000000000c350",
        "nonce": "0x2c",
        "chainId": "0xa4ec"
      },
      "additionalContracts": [],
      "isFixedGasLimit": false
    },
    {
      "hash": "0x761b84cfaf1614604cad84a5a55d0bc9ba3b2647565825632c31fc02fdccdada",
      "transactionType": "CALL",
      "contractName": null,
      "contractAddress": "0x8a05c0a366abb49b56a44b37a5fe281957de2c37",
      "function": "supply(address,uint256,address,uint16)",
      "arguments": [
        "0x48065fbBE25f71C9282ddf5e1cD6D6A887483D5e",
        "50000",
        "0x8A05C0a366abb49b56A44b37A5Fe281957DE2c37",
        "0"
      ],
      "transaction": {
        "from": "0x3a4db9e7306af09012ceb0f222d581fd1f0c6d71",
        "to": "0x8a05c0a366abb49b56a44b37a5fe281957de2c37",
        "gas": "0x424f7",
        "value": "0x0",
        "input": "0x617ba03700000000000000000000000048065fbbe25f71c9282ddf5e1cd6d6a887483d5e000000000000000000000000000000000000000000000000000000000000c3500000000000000000000000008a05c0a366abb49b56a44b37a5fe281957de2c370000000000000000000000000000000000000000000000000000000000000000",
        "nonce": "0x2d",
        "chainId": "0xa4ec"
      },
      "additionalContracts": [],
      "isFixedGasLimit": false
    },
    {
      "hash": "0xc5ad08b5a249be2d7be8c645aa095b7217032646273af0798d387e6e04509cf2",
      "transactionType": "CALL",
      "contractName": null,
      "contractAddress": "0x3e59a31363e2ad014dcbc521c4a0d5757d9f3402",
      "function": "setUserUseReserveAsCollateral(address,bool)",
      "arguments": [
        "0x48065fbBE25f71C9282ddf5e1cD6D6A887483D5e",
        "true"
      ],
      "transaction": {
        "from": "0x3a4db9e7306af09012ceb0f222d581fd1f0c6d71",
        "to": "0x3e59a31363e2ad014dcbc521c4a0d5757d9f3402",
        "gas": "0x1bf38",
        "value": "0x0",
        "input": "0x5a3b74b900000000000000000000000048065fbbe25f71c9282ddf5e1cd6d6a887483d5e0000000000000000000000000000000000000000000000000000000000000001",
        "nonce": "0x2e",
        "chainId": "0xa4ec"
      },
      "additionalContracts": [],
      "isFixedGasLimit": false
    },
    {
      "hash": "0xd0a124bc859daf1fff26ea60b8e4953b938190c09d0bcc5195591b5b18322b13",
      "transactionType": "CALL",
      "contractName": null,
      "contractAddress": "0x8a05c0a366abb49b56a44b37a5fe281957de2c37",
      "function": "setUserUseReserveAsCollateral(address,bool)",
      "arguments": [
        "0x48065fbBE25f71C9282ddf5e1cD6D6A887483D5e",
        "true"
      ],
      "transaction": {
        "from": "0x3a4db9e7306af09012ceb0f222d581fd1f0c6d71",
        "to": "0x8a05c0a366abb49b56a44b37a5fe281957de2c37",
        "gas": "0x27d1b",
        "value": "0x0",
        "input": "0x5a3b74b900000000000000000000000048065fbbe25f71c9282ddf5e1cd6d6a887483d5e0000000000000000000000000000000000000000000000000000000000000001",
        "nonce": "0x2f",
        "chainId": "0xa4ec"
      },
      "additionalContracts": [],
      "isFixedGasLimit": false
    },
    {
      "hash": "0x79d3fe303405252a44eecef7debcc9e46d23d350aeaf4c3dc45d5f75d4065259",
      "transactionType": "CALL",
      "contractName": null,
      "contractAddress": "0x3e59a31363e2ad014dcbc521c4a0d5757d9f3402",
      "function": "borrow(address,uint256,uint256,uint16,address)",
      "arguments": [
        "0xcebA9300f2b948710d2653dD7B07f33A8B32118C",
        "10000",
        "2",
        "0",
        "0x3A4dB9e7306aF09012ceb0f222d581FD1F0C6D71"
      ],
      "transaction": {
        "from": "0x3a4db9e7306af09012ceb0f222d581fd1f0c6d71",
        "to": "0x3e59a31363e2ad014dcbc521c4a0d5757d9f3402",
        "gas": "0x5bca3",
        "value": "0x0",
        "input": "0xa415bcad000000000000000000000000ceba9300f2b948710d2653dd7b07f33a8b32118c0000000000000000000000000000000000000000000000000000000000002710000000000000000000000000000000000000000000000000000000000000000200000000000000000000000000000000000000000000000000000000000000000000000000000000000000003a4db9e7306af09012ceb0f222d581fd1f0c6d71",
        "nonce": "0x30",
        "chainId": "0xa4ec"
      },
      "additionalContracts": [],
      "isFixedGasLimit": false
    }
  ],
  "receipts": [
    {
      "status": "0x1",
      "cumulativeGasUsed": "0x11a6ea",
      "logs": [
        {
          "address": "0x48065fbbe25f71c9282ddf5e1cd6d6a887483d5e",
          "topics": [
            "0x8c5be1e5ebec7d5bd14f71427d1e84f3dd0314c0f7b2291e5b200ac8c7c3b925",
            "0x0000000000000000000000003a4db9e7306af09012ceb0f222d581fd1f0c6d71",
            "0x0000000000000000000000003e59a31363e2ad014dcbc521c4a0d5757d9f3402"
          ],
          "data": "0x00000000000000000000000000000000000000000000000000000000000186a0",
          "blockHash": "0x6ff8aa9ee2e6b4fe662db1c732bb80ca6caa3d23c113abaa4e5774bd84c3c164",
          "blockNumber": "0x2033ccc",
          "transactionHash": "0x40bc7e9c09ba9c4c26241236599fc57f12afeb0ed3bc0f94a132d0ee5aa58373",
          "transactionIndex": "0xa",
          "logIndex": "0x19",
          "removed": false
        }
      ],
      "logsBloom": "0x00000000000000010000020000000000000000000000000000000000000000000000000000000000000000000000000000000000000000000000000000200000000000000000000000000000000000000000000000000000000000000000000000000000000000000000000000000000000000000000000040000000000000000000010000000000000000000000400000000000000000000000000000000000020000100000000000000000000000000000000000000000000000000000000000000000000080000000008000000000000000000000001000000000000000000010000000000000000000000000000000000000000000000000000000000000",
      "type": "0x0",
      "transactionHash": "0x40bc7e9c09ba9c4c26241236599fc57f12afeb0ed3bc0f94a132d0ee5aa58373",
      "transactionIndex": "0xa",
      "blockHash": "0x6ff8aa9ee2e6b4fe662db1c732bb80ca6caa3d23c113abaa4e5774bd84c3c164",
      "blockNumber": "0x2033ccc",
      "gasUsed": "0xd097",
      "effectiveGasPrice": "0x5d22cfc40",
      "from": "0x3a4db9e7306af09012ceb0f222d581fd1f0c6d71",
      "to": "0x48065fbbe25f71c9282ddf5e1cd6d6a887483d5e",
      "contractAddress": null,
      "l1BaseFeeScalar": "0x0",
      "l1BlobBaseFee": "0x37772ed0",
      "l1BlobBaseFeeScalar": "0x0",
      "l1Fee": "0x0",
      "l1GasPrice": "0x2961c2cd",
      "l1GasUsed": "0x640"
    },
    {
      "status": "0x1",
      "cumulativeGasUsed": "0x194c10",
      "logs": [
        {
          "address": "0x3e59a31363e2ad014dcbc521c4a0d5757d9f3402",
          "topics": [
            "0x804c9b842b2748a22bb64b345453a3de7ca54a6ca45ce00d415894979e22897a",
            "0x00000000000000000000000048065fbbe25f71c9282ddf5e1cd6d6a887483d5e"
          ],
          "data": "0x00000000000000000000000000000000000000000000000b15ecd6f9ccd730c70000000000000000000000000000000000000000000000000000000000000000000000000000000000000000000000000000000000001c268ba8967554de3c6a0000000000000000000000000000000000000000033b5f8e1e48745f2b61b03a0000000000000000000000000000000000000000033bcc9c225abb3368abebc9",
          "blockHash": "0x6ff8aa9ee2e6b4fe662db1c732bb80ca6caa3d23c113abaa4e5774bd84c3c164",
          "blockNumber": "0x2033ccc",
          "transactionHash": "0xc560ee1e9d71824ae87c6d82040bf1d8f857d22e7264966f0e2d1ef6ba36b950",
          "transactionIndex": "0xc",
          "logIndex": "0x1d",
          "removed": false
        },
        {
          "address": "0x48065fbbe25f71c9282ddf5e1cd6d6a887483d5e",
          "topics": [
            "0xddf252ad1be2c89b69c2b068fc378daa952ba7f163c4a11628f55a4df523b3ef",
            "0x0000000000000000000000003a4db9e7306af09012ceb0f222d581fd1f0c6d71",
            "0x000000000000000000000000dee98402a302e4d707fb9bf2bac66faeec31e8df"
          ],
          "data": "0x00000000000000000000000000000000000000000000000000000000000186a0",
          "blockHash": "0x6ff8aa9ee2e6b4fe662db1c732bb80ca6caa3d23c113abaa4e5774bd84c3c164",
          "blockNumber": "0x2033ccc",
          "transactionHash": "0xc560ee1e9d71824ae87c6d82040bf1d8f857d22e7264966f0e2d1ef6ba36b950",
          "transactionIndex": "0xc",
          "logIndex": "0x1e",
          "removed": false
        },
        {
          "address": "0x48065fbbe25f71c9282ddf5e1cd6d6a887483d5e",
          "topics": [
            "0x8c5be1e5ebec7d5bd14f71427d1e84f3dd0314c0f7b2291e5b200ac8c7c3b925",
            "0x0000000000000000000000003a4db9e7306af09012ceb0f222d581fd1f0c6d71",
            "0x0000000000000000000000003e59a31363e2ad014dcbc521c4a0d5757d9f3402"
          ],
          "data": "0x0000000000000000000000000000000000000000000000000000000000000000",
          "blockHash": "0x6ff8aa9ee2e6b4fe662db1c732bb80ca6caa3d23c113abaa4e5774bd84c3c164",
          "blockNumber": "0x2033ccc",
          "transactionHash": "0xc560ee1e9d71824ae87c6d82040bf1d8f857d22e7264966f0e2d1ef6ba36b950",
          "transactionIndex": "0xc",
          "logIndex": "0x1f",
          "removed": false
        },
        {
          "address": "0xdee98402a302e4d707fb9bf2bac66faeec31e8df",
          "topics": [
            "0xddf252ad1be2c89b69c2b068fc378daa952ba7f163c4a11628f55a4df523b3ef",
            "0x0000000000000000000000000000000000000000000000000000000000000000",
            "0x0000000000000000000000003a4db9e7306af09012ceb0f222d581fd1f0c6d71"
          ],
          "data": "0x00000000000000000000000000000000000000000000000000000000000186a0",
          "blockHash": "0x6ff8aa9ee2e6b4fe662db1c732bb80ca6caa3d23c113abaa4e5774bd84c3c164",
          "blockNumber": "0x2033ccc",
          "transactionHash": "0xc560ee1e9d71824ae87c6d82040bf1d8f857d22e7264966f0e2d1ef6ba36b950",
          "transactionIndex": "0xc",
          "logIndex": "0x20",
          "removed": false
        },
        {
          "address": "0xdee98402a302e4d707fb9bf2bac66faeec31e8df",
          "topics": [
            "0x458f5fa412d0f69b08dd84872b0215675cc67bc1d5b6fd93300a1c3878b86196",
            "0x0000000000000000000000003a4db9e7306af09012ceb0f222d581fd1f0c6d71",
            "0x0000000000000000000000003a4db9e7306af09012ceb0f222d581fd1f0c6d71"
          ],
          "data": "0x00000000000000000000000000000000000000000000000000000000000186a000000000000000000000000000000000000000000000000000000000000000000000000000000000000000000000000000000000033b5f8e1e48745f2b61b03a",
          "blockHash": "0x6ff8aa9ee2e6b4fe662db1c732bb80ca6caa3d23c113abaa4e5774bd84c3c164",
          "blockNumber": "0x2033ccc",
          "transactionHash": "0xc560ee1e9d71824ae87c6d82040bf1d8f857d22e7264966f0e2d1ef6ba36b950",
          "transactionIndex": "0xc",
          "logIndex": "0x21",
          "removed": false
        },
        {
          "address": "0x3e59a31363e2ad014dcbc521c4a0d5757d9f3402",
          "topics": [
            "0x00058a56ea94653cdf4f152d227ace22d4c00ad99e2a43f58cb7d9e3feb295f2",
            "0x00000000000000000000000048065fbbe25f71c9282ddf5e1cd6d6a887483d5e",
            "0x0000000000000000000000003a4db9e7306af09012ceb0f222d581fd1f0c6d71"
          ],
          "data": "0x",
          "blockHash": "0x6ff8aa9ee2e6b4fe662db1c732bb80ca6caa3d23c113abaa4e5774bd84c3c164",
          "blockNumber": "0x2033ccc",
          "transactionHash": "0xc560ee1e9d71824ae87c6d82040bf1d8f857d22e7264966f0e2d1ef6ba36b950",
          "transactionIndex": "0xc",
          "logIndex": "0x22",
          "removed": false
        },
        {
          "address": "0x3e59a31363e2ad014dcbc521c4a0d5757d9f3402",
          "topics": [
            "0x2b627736bca15cd5381dcf80b0bf11fd197d01a037c52b927a881a10fb73ba61",
            "0x00000000000000000000000048065fbbe25f71c9282ddf5e1cd6d6a887483d5e",
            "0x0000000000000000000000003a4db9e7306af09012ceb0f222d581fd1f0c6d71",
            "0x0000000000000000000000000000000000000000000000000000000000000000"
          ],
          "data": "0x0000000000000000000000003a4db9e7306af09012ceb0f222d581fd1f0c6d7100000000000000000000000000000000000000000000000000000000000186a0",
          "blockHash": "0x6ff8aa9ee2e6b4fe662db1c732bb80ca6caa3d23c113abaa4e5774bd84c3c164",
          "blockNumber": "0x2033ccc",
          "transactionHash": "0xc560ee1e9d71824ae87c6d82040bf1d8f857d22e7264966f0e2d1ef6ba36b950",
          "transactionIndex": "0xc",
          "logIndex": "0x23",
          "removed": false
        }
      ],
      "logsBloom": "0x0000000000000801028002000000000000100000000000000000000000000000000000080000000000000000000400000000000080000000000000000020000000000000000000080000000800000000000000000000000000000004000000000000000002000000000000000000080000000000000000004000001000000000000001008000000000000000000040000000000000000000020000000000000002000010000100000000004000000000100000000000000040000000000001000200000200008000000000a040000040000000000000001000000000000120000010000000000000000000000000000040000000000000000000400000000000",
      "type": "0x0",
      "transactionHash": "0xc560ee1e9d71824ae87c6d82040bf1d8f857d22e7264966f0e2d1ef6ba36b950",
      "transactionIndex": "0xc",
      "blockHash": "0x6ff8aa9ee2e6b4fe662db1c732bb80ca6caa3d23c113abaa4e5774bd84c3c164",
      "blockNumber": "0x2033ccc",
      "gasUsed": "0x2f2ab",
      "effectiveGasPrice": "0x5d22cfc40",
      "from": "0x3a4db9e7306af09012ceb0f222d581fd1f0c6d71",
      "to": "0x3e59a31363e2ad014dcbc521c4a0d5757d9f3402",
      "contractAddress": null,
      "l1BaseFeeScalar": "0x0",
      "l1BlobBaseFee": "0x37772ed0",
      "l1BlobBaseFeeScalar": "0x0",
      "l1Fee": "0x0",
      "l1GasPrice": "0x2961c2cd",
      "l1GasUsed": "0x6cd"
    },
    {
      "status": "0x1",
      "cumulativeGasUsed": "0x1a1c9b",
      "logs": [
        {
          "address": "0x48065fbbe25f71c9282ddf5e1cd6d6a887483d5e",
          "topics": [
            "0x8c5be1e5ebec7d5bd14f71427d1e84f3dd0314c0f7b2291e5b200ac8c7c3b925",
            "0x0000000000000000000000003a4db9e7306af09012ceb0f222d581fd1f0c6d71",
            "0x0000000000000000000000003e59a31363e2ad014dcbc521c4a0d5757d9f3402"
          ],
          "data": "0x000000000000000000000000000000000000000000000000000000000000c350",
          "blockHash": "0x6ff8aa9ee2e6b4fe662db1c732bb80ca6caa3d23c113abaa4e5774bd84c3c164",
          "blockNumber": "0x2033ccc",
          "transactionHash": "0x6c5fca3d909f73a8ca472ea1f7233e98c0be946bb89b5dbbede0a02abc6aeef1",
          "transactionIndex": "0xd",
          "logIndex": "0x24",
          "removed": false
        }
      ],
      "logsBloom": "0x00000000000000010000020000000000000000000000000000000000000000000000000000000000000000000000000000000000000000000000000000200000000000000000000000000000000000000000000000000000000000000000000000000000000000000000000000000000000000000000000040000000000000000000010000000000000000000000400000000000000000000000000000000000020000100000000000000000000000000000000000000000000000000000000000000000000080000000008000000000000000000000001000000000000000000010000000000000000000000000000000000000000000000000000000000000",
      "type": "0x0",
      "transactionHash": "0x6c5fca3d909f73a8ca472ea1f7233e98c0be946bb89b5dbbede0a02abc6aeef1",
      "transactionIndex": "0xd",
      "blockHash": "0x6ff8aa9ee2e6b4fe662db1c732bb80ca6caa3d23c113abaa4e5774bd84c3c164",
      "blockNumber": "0x2033ccc",
      "gasUsed": "0xd08b",
      "effectiveGasPrice": "0x5d22cfc40",
      "from": "0x3a4db9e7306af09012ceb0f222d581fd1f0c6d71",
      "to": "0x48065fbbe25f71c9282ddf5e1cd6d6a887483d5e",
      "contractAddress": null,
      "l1BaseFeeScalar": "0x0",
      "l1BlobBaseFee": "0x37772ed0",
      "l1BlobBaseFeeScalar": "0x0",
      "l1Fee": "0x0",
      "l1GasPrice": "0x2961c2cd",
      "l1GasUsed": "0x640"
    },
    {
      "status": "0x1",
      "cumulativeGasUsed": "0x1d2a6a",
      "logs": [
        {
          "address": "0x3e59a31363e2ad014dcbc521c4a0d5757d9f3402",
          "topics": [
            "0x804c9b842b2748a22bb64b345453a3de7ca54a6ca45ce00d415894979e22897a",
            "0x00000000000000000000000048065fbbe25f71c9282ddf5e1cd6d6a887483d5e"
          ],
          "data": "0x00000000000000000000000000000000000000000000000b15ecd0aa069386c20000000000000000000000000000000000000000000000000000000000000000000000000000000000000000000000000000000000001c268ba092eec4fc6f340000000000000000000000000000000000000000033b5f8e1e48745f2b61b03a0000000000000000000000000000000000000000033bcc9c225abb3368abebc9",
          "blockHash": "0x6ff8aa9ee2e6b4fe662db1c732bb80ca6caa3d23c113abaa4e5774bd84c3c164",
          "blockNumber": "0x2033ccc",
          "transactionHash": "0x840e4663c8aa056e278fe970bad25e4c9adf2bae9a7a291890a4375890145c5c",
          "transactionIndex": "0xe",
          "logIndex": "0x25",
          "removed": false
        },
        {
          "address": "0x48065fbbe25f71c9282ddf5e1cd6d6a887483d5e",
          "topics": [
            "0xddf252ad1be2c89b69c2b068fc378daa952ba7f163c4a11628f55a4df523b3ef",
            "0x0000000000000000000000003a4db9e7306af09012ceb0f222d581fd1f0c6d71",
            "0x000000000000000000000000dee98402a302e4d707fb9bf2bac66faeec31e8df"
          ],
          "data": "0x000000000000000000000000000000000000000000000000000000000000c350",
          "blockHash": "0x6ff8aa9ee2e6b4fe662db1c732bb80ca6caa3d23c113abaa4e5774bd84c3c164",
          "blockNumber": "0x2033ccc",
          "transactionHash": "0x840e4663c8aa056e278fe970bad25e4c9adf2bae9a7a291890a4375890145c5c",
          "transactionIndex": "0xe",
          "logIndex": "0x26",
          "removed": false
        },
        {
          "address": "0x48065fbbe25f71c9282ddf5e1cd6d6a887483d5e",
          "topics": [
            "0x8c5be1e5ebec7d5bd14f71427d1e84f3dd0314c0f7b2291e5b200ac8c7c3b925",
            "0x0000000000000000000000003a4db9e7306af09012ceb0f222d581fd1f0c6d71",
            "0x0000000000000000000000003e59a31363e2ad014dcbc521c4a0d5757d9f3402"
          ],
          "data": "0x0000000000000000000000000000000000000000000000000000000000000000",
          "blockHash": "0x6ff8aa9ee2e6b4fe662db1c732bb80ca6caa3d23c113abaa4e5774bd84c3c164",
          "blockNumber": "0x2033ccc",
          "transactionHash": "0x840e4663c8aa056e278fe970bad25e4c9adf2bae9a7a291890a4375890145c5c",
          "transactionIndex": "0xe",
          "logIndex": "0x27",
          "removed": false
        },
        {
          "address": "0xdee98402a302e4d707fb9bf2bac66faeec31e8df",
          "topics": [
            "0xddf252ad1be2c89b69c2b068fc378daa952ba7f163c4a11628f55a4df523b3ef",
            "0x0000000000000000000000000000000000000000000000000000000000000000",
            "0x0000000000000000000000008a05c0a366abb49b56a44b37a5fe281957de2c37"
          ],
          "data": "0x000000000000000000000000000000000000000000000000000000000000c350",
          "blockHash": "0x6ff8aa9ee2e6b4fe662db1c732bb80ca6caa3d23c113abaa4e5774bd84c3c164",
          "blockNumber": "0x2033ccc",
          "transactionHash": "0x840e4663c8aa056e278fe970bad25e4c9adf2bae9a7a291890a4375890145c5c",
          "transactionIndex": "0xe",
          "logIndex": "0x28",
          "removed": false
        },
        {
          "address": "0xdee98402a302e4d707fb9bf2bac66faeec31e8df",
          "topics": [
            "0x458f5fa412d0f69b08dd84872b0215675cc67bc1d5b6fd93300a1c3878b86196",
            "0x0000000000000000000000003a4db9e7306af09012ceb0f222d581fd1f0c6d71",
            "0x0000000000000000000000008a05c0a366abb49b56a44b37a5fe281957de2c37"
          ],
          "data": "0x000000000000000000000000000000000000000000000000000000000000c35000000000000000000000000000000000000000000000000000000000000000000000000000000000000000000000000000000000033b5f8e1e48745f2b61b03a",
          "blockHash": "0x6ff8aa9ee2e6b4fe662db1c732bb80ca6caa3d23c113abaa4e5774bd84c3c164",
          "blockNumber": "0x2033ccc",
          "transactionHash": "0x840e4663c8aa056e278fe970bad25e4c9adf2bae9a7a291890a4375890145c5c",
          "transactionIndex": "0xe",
          "logIndex": "0x29",
          "removed": false
        },
        {
          "address": "0x3e59a31363e2ad014dcbc521c4a0d5757d9f3402",
          "topics": [
            "0x00058a56ea94653cdf4f152d227ace22d4c00ad99e2a43f58cb7d9e3feb295f2",
            "0x00000000000000000000000048065fbbe25f71c9282ddf5e1cd6d6a887483d5e",
            "0x0000000000000000000000008a05c0a366abb49b56a44b37a5fe281957de2c37"
          ],
          "data": "0x",
          "blockHash": "0x6ff8aa9ee2e6b4fe662db1c732bb80ca6caa3d23c113abaa4e5774bd84c3c164",
          "blockNumber": "0x2033ccc",
          "transactionHash": "0x840e4663c8aa056e278fe970bad25e4c9adf2bae9a7a291890a4375890145c5c",
          "transactionIndex": "0xe",
          "logIndex": "0x2a",
          "removed": false
        },
        {
          "address": "0x3e59a31363e2ad014dcbc521c4a0d5757d9f3402",
          "topics": [
            "0x2b627736bca15cd5381dcf80b0bf11fd197d01a037c52b927a881a10fb73ba61",
            "0x00000000000000000000000048065fbbe25f71c9282ddf5e1cd6d6a887483d5e",
            "0x0000000000000000000000008a05c0a366abb49b56a44b37a5fe281957de2c37",
            "0x0000000000000000000000000000000000000000000000000000000000000000"
          ],
          "data": "0x0000000000000000000000003a4db9e7306af09012ceb0f222d581fd1f0c6d71000000000000000000000000000000000000000000000000000000000000c350",
          "blockHash": "0x6ff8aa9ee2e6b4fe662db1c732bb80ca6caa3d23c113abaa4e5774bd84c3c164",
          "blockNumber": "0x2033ccc",
          "transactionHash": "0x840e4663c8aa056e278fe970bad25e4c9adf2bae9a7a291890a4375890145c5c",
          "transactionIndex": "0xe",
          "logIndex": "0x2b",
          "removed": false
        }
      ],
      "logsBloom": "0x0000000000000801028002000000000000100000000000000000000000004000000000080000000000000000000400000000000080000000000000000020000000000000000000080200000800000000000000000000000000000004000000000000000002000000000000000000080000000000000000004000001000000000000001208000000000000000000040000000000000000000020000000000000002000010000100000000004000000000100000000000000040000000000001000200000200008000000000a040000040000000000000001000000000000120000010000000000000000000000000000040000000000000000000400000000000",
      "type": "0x0",
      "transactionHash": "0x840e4663c8aa056e278fe970bad25e4c9adf2bae9a7a291890a4375890145c5c",
      "transactionIndex": "0xe",
      "blockHash": "0x6ff8aa9ee2e6b4fe662db1c732bb80ca6caa3d23c113abaa4e5774bd84c3c164",
      "blockNumber": "0x2033ccc",
      "gasUsed": "0x30dcf",
      "effectiveGasPrice": "0x5d22cfc40",
      "from": "0x3a4db9e7306af09012ceb0f222d581fd1f0c6d71",
      "to": "0x3e59a31363e2ad014dcbc521c4a0d5757d9f3402",
      "contractAddress": null,
      "l1BaseFeeScalar": "0x0",
      "l1BlobBaseFee": "0x37772ed0",
      "l1BlobBaseFeeScalar": "0x0",
      "l1Fee": "0x0",
      "l1GasPrice": "0x2961c2cd",
      "l1GasUsed": "0x6b2"
    },
    {
      "status": "0x1",
      "cumulativeGasUsed": "0x1ea688",
      "logs": [
        {
          "address": "0x48065fbbe25f71c9282ddf5e1cd6d6a887483d5e",
          "topics": [
            "0x8c5be1e5ebec7d5bd14f71427d1e84f3dd0314c0f7b2291e5b200ac8c7c3b925",
            "0x0000000000000000000000003a4db9e7306af09012ceb0f222d581fd1f0c6d71",
            "0x0000000000000000000000008a05c0a366abb49b56a44b37a5fe281957de2c37"
          ],
          "data": "0x000000000000000000000000000000000000000000000000000000000000c350",
          "blockHash": "0x6ff8aa9ee2e6b4fe662db1c732bb80ca6caa3d23c113abaa4e5774bd84c3c164",
          "blockNumber": "0x2033ccc",
          "transactionHash": "0x8efdceb5bf970fe23b3d16febd2e351ac090f363f7d7bd82a2da9b2070ffe3e8",
          "transactionIndex": "0x10",
          "logIndex": "0x2d",
          "removed": false
        }
      ],
      "logsBloom": "0x00000000000000000000000000000000000000000000000000000000000040000000000000000000000000000000000000000000000000000000000000200000000000000000000002000000000000000000000000000000000000000000000000000000000000000000000000000000000000000000000040000000000000000000012000000000000000000000400000000000000000000000000000000000020000000000000000000000000000000000000000000000000000000000000000000000000080000000008000000000000000000000001000000000000000000010000000000000000000000000000000000000000000000000000000000000",
      "type": "0x0",
      "transactionHash": "0x8efdceb5bf970fe23b3d16febd2e351ac090f363f7d7bd82a2da9b2070ffe3e8",
      "transactionIndex": "0x10",
      "blockHash": "0x6ff8aa9ee2e6b4fe662db1c732bb80ca6caa3d23c113abaa4e5774bd84c3c164",
      "blockNumber": "0x2033ccc",
      "gasUsed": "0xd08b",
      "effectiveGasPrice": "0x5d22cfc40",
      "from": "0x3a4db9e7306af09012ceb0f222d581fd1f0c6d71",
      "to": "0x48065fbbe25f71c9282ddf5e1cd6d6a887483d5e",
      "contractAddress": null,
      "l1BaseFeeScalar": "0x0",
      "l1BlobBaseFee": "0x37772ed0",
      "l1BlobBaseFeeScalar": "0x0",
      "l1Fee": "0x0",
      "l1GasPrice": "0x2961c2cd",
      "l1GasUsed": "0x640"
    },
    {
      "status": "0x1",
      "cumulativeGasUsed": "0x10b618",
      "logs": [
        {
          "address": "0x48065fbbe25f71c9282ddf5e1cd6d6a887483d5e",
          "topics": [
            "0xddf252ad1be2c89b69c2b068fc378daa952ba7f163c4a11628f55a4df523b3ef",
            "0x0000000000000000000000003a4db9e7306af09012ceb0f222d581fd1f0c6d71",
            "0x0000000000000000000000008a05c0a366abb49b56a44b37a5fe281957de2c37"
          ],
          "data": "0x000000000000000000000000000000000000000000000000000000000000c350",
          "blockHash": "0x0aa82395b9a62026dfd207fd8eadb961b4133cfedebb4d6a5da0331bafdf1594",
          "blockNumber": "0x2033ccd",
          "transactionHash": "0x761b84cfaf1614604cad84a5a55d0bc9ba3b2647565825632c31fc02fdccdada",
          "transactionIndex": "0x8",
          "logIndex": "0x1b",
          "removed": false
        },
        {
          "address": "0x48065fbbe25f71c9282ddf5e1cd6d6a887483d5e",
          "topics": [
            "0x8c5be1e5ebec7d5bd14f71427d1e84f3dd0314c0f7b2291e5b200ac8c7c3b925",
            "0x0000000000000000000000003a4db9e7306af09012ceb0f222d581fd1f0c6d71",
            "0x0000000000000000000000008a05c0a366abb49b56a44b37a5fe281957de2c37"
          ],
          "data": "0x0000000000000000000000000000000000000000000000000000000000000000",
          "blockHash": "0x0aa82395b9a62026dfd207fd8eadb961b4133cfedebb4d6a5da0331bafdf1594",
          "blockNumber": "0x2033ccd",
          "transactionHash": "0x761b84cfaf1614604cad84a5a55d0bc9ba3b2647565825632c31fc02fdccdada",
          "transactionIndex": "0x8",
          "logIndex": "0x1c",
          "removed": false
        },
        {
          "address": "0x48065fbbe25f71c9282ddf5e1cd6d6a887483d5e",
          "topics": [
            "0x8c5be1e5ebec7d5bd14f71427d1e84f3dd0314c0f7b2291e5b200ac8c7c3b925",
            "0x0000000000000000000000008a05c0a366abb49b56a44b37a5fe281957de2c37",
            "0x0000000000000000000000003e59a31363e2ad014dcbc521c4a0d5757d9f3402"
          ],
          "data": "0x000000000000000000000000000000000000000000000000000000000000c350",
          "blockHash": "0x0aa82395b9a62026dfd207fd8eadb961b4133cfedebb4d6a5da0331bafdf1594",
          "blockNumber": "0x2033ccd",
          "transactionHash": "0x761b84cfaf1614604cad84a5a55d0bc9ba3b2647565825632c31fc02fdccdada",
          "transactionIndex": "0x8",
          "logIndex": "0x1d",
          "removed": false
        },
        {
          "address": "0x3e59a31363e2ad014dcbc521c4a0d5757d9f3402",
          "topics": [
            "0x804c9b842b2748a22bb64b345453a3de7ca54a6ca45ce00d415894979e22897a",
            "0x00000000000000000000000048065fbbe25f71c9282ddf5e1cd6d6a887483d5e"
          ],
          "data": "0x00000000000000000000000000000000000000000000000b15ecca5a405540a50000000000000000000000000000000000000000000000000000000000000000000000000000000000000000000000000000000000001c268b988f6839aaab910000000000000000000000000000000000000000033b5f8e1e487a454d8fe95a0000000000000000000000000000000000000000033bcc9c2269b7f7078e6225",
          "blockHash": "0x0aa82395b9a62026dfd207fd8eadb961b4133cfedebb4d6a5da0331bafdf1594",
          "blockNumber": "0x2033ccd",
          "transactionHash": "0x761b84cfaf1614604cad84a5a55d0bc9ba3b2647565825632c31fc02fdccdada",
          "transactionIndex": "0x8",
          "logIndex": "0x1e",
          "removed": false
        },
        {
          "address": "0x48065fbbe25f71c9282ddf5e1cd6d6a887483d5e",
          "topics": [
            "0xddf252ad1be2c89b69c2b068fc378daa952ba7f163c4a11628f55a4df523b3ef",
            "0x0000000000000000000000008a05c0a366abb49b56a44b37a5fe281957de2c37",
            "0x000000000000000000000000dee98402a302e4d707fb9bf2bac66faeec31e8df"
          ],
          "data": "0x000000000000000000000000000000000000000000000000000000000000c350",
          "blockHash": "0x0aa82395b9a62026dfd207fd8eadb961b4133cfedebb4d6a5da0331bafdf1594",
          "blockNumber": "0x2033ccd",
          "transactionHash": "0x761b84cfaf1614604cad84a5a55d0bc9ba3b2647565825632c31fc02fdccdada",
          "transactionIndex": "0x8",
          "logIndex": "0x1f",
          "removed": false
        },
        {
          "address": "0x48065fbbe25f71c9282ddf5e1cd6d6a887483d5e",
          "topics": [
            "0x8c5be1e5ebec7d5bd14f71427d1e84f3dd0314c0f7b2291e5b200ac8c7c3b925",
            "0x0000000000000000000000008a05c0a366abb49b56a44b37a5fe281957de2c37",
            "0x0000000000000000000000003e59a31363e2ad014dcbc521c4a0d5757d9f3402"
          ],
          "data": "0x0000000000000000000000000000000000000000000000000000000000000000",
          "blockHash": "0x0aa82395b9a62026dfd207fd8eadb961b4133cfedebb4d6a5da0331bafdf1594",
          "blockNumber": "0x2033ccd",
          "transactionHash": "0x761b84cfaf1614604cad84a5a55d0bc9ba3b2647565825632c31fc02fdccdada",
          "transactionIndex": "0x8",
          "logIndex": "0x20",
          "removed": false
        },
        {
          "address": "0xdee98402a302e4d707fb9bf2bac66faeec31e8df",
          "topics": [
            "0xddf252ad1be2c89b69c2b068fc378daa952ba7f163c4a11628f55a4df523b3ef",
            "0x0000000000000000000000000000000000000000000000000000000000000000",
            "0x0000000000000000000000008a05c0a366abb49b56a44b37a5fe281957de2c37"
          ],
          "data": "0x000000000000000000000000000000000000000000000000000000000000c350",
          "blockHash": "0x0aa82395b9a62026dfd207fd8eadb961b4133cfedebb4d6a5da0331bafdf1594",
          "blockNumber": "0x2033ccd",
          "transactionHash": "0x761b84cfaf1614604cad84a5a55d0bc9ba3b2647565825632c31fc02fdccdada",
          "transactionIndex": "0x8",
          "logIndex": "0x21",
          "removed": false
        },
        {
          "address": "0xdee98402a302e4d707fb9bf2bac66faeec31e8df",
          "topics": [
            "0x458f5fa412d0f69b08dd84872b0215675cc67bc1d5b6fd93300a1c3878b86196",
            "0x0000000000000000000000008a05c0a366abb49b56a44b37a5fe281957de2c37",
            "0x0000000000000000000000008a05c0a366abb49b56a44b37a5fe281957de2c37"
          ],
          "data": "0x000000000000000000000000000000000000000000000000000000000000c35000000000000000000000000000000000000000000000000000000000000000000000000000000000000000000000000000000000033b5f8e1e487a454d8fe95a",
          "blockHash": "0x0aa82395b9a62026dfd207fd8eadb961b4133cfedebb4d6a5da0331bafdf1594",
          "blockNumber": "0x2033ccd",
          "transactionHash": "0x761b84cfaf1614604cad84a5a55d0bc9ba3b2647565825632c31fc02fdccdada",
          "transactionIndex": "0x8",
          "logIndex": "0x22",
          "removed": false
        },
        {
          "address": "0x3e59a31363e2ad014dcbc521c4a0d5757d9f3402",
          "topics": [
            "0x2b627736bca15cd5381dcf80b0bf11fd197d01a037c52b927a881a10fb73ba61",
            "0x00000000000000000000000048065fbbe25f71c9282ddf5e1cd6d6a887483d5e",
            "0x0000000000000000000000008a05c0a366abb49b56a44b37a5fe281957de2c37",
            "0x0000000000000000000000000000000000000000000000000000000000000000"
          ],
          "data": "0x0000000000000000000000008a05c0a366abb49b56a44b37a5fe281957de2c37000000000000000000000000000000000000000000000000000000000000c350",
          "blockHash": "0x0aa82395b9a62026dfd207fd8eadb961b4133cfedebb4d6a5da0331bafdf1594",
          "blockNumber": "0x2033ccd",
          "transactionHash": "0x761b84cfaf1614604cad84a5a55d0bc9ba3b2647565825632c31fc02fdccdada",
          "transactionIndex": "0x8",
          "logIndex": "0x23",
          "removed": false
        },
        {
          "address": "0x8a05c0a366abb49b56a44b37a5fe281957de2c37",
          "topics": [
            "0x523322d7afb07cee28d04498651096af062004e1f14315eff2e4a60290dfadda",
            "0x0000000000000000000000008a05c0a366abb49b56a44b37a5fe281957de2c37",
            "0x00000000000000000000000048065fbbe25f71c9282ddf5e1cd6d6a887483d5e"
          ],
          "data": "0x000000000000000000000000000000000000000000000000000000000000c350",
          "blockHash": "0x0aa82395b9a62026dfd207fd8eadb961b4133cfedebb4d6a5da0331bafdf1594",
          "blockNumber": "0x2033ccd",
          "transactionHash": "0x761b84cfaf1614604cad84a5a55d0bc9ba3b2647565825632c31fc02fdccdada",
          "transactionIndex": "0x8",
          "logIndex": "0x24",
          "removed": false
        }
      ],
      "logsBloom": "0x0000000000000001020002000000000000100000000000000000000000004000000000080000000000000000000400000008000080000000000000000020000000000002000000080200000800000000000000000000000000000104000000000000000002000000000000000000080000000000000000004000001000000000000001200000000000000000000050000000000000000000020000000000000002000010000100000000004000000000100000000000000040000000000001000204000200008000000000a040000040000000000000001000000000000120000010000000000000000000000000000040000000000000000000480000000000",
      "type": "0x0",
      "transactionHash": "0x761b84cfaf1614604cad84a5a55d0bc9ba3b2647565825632c31fc02fdccdada",
      "transactionIndex": "0x8",
      "blockHash": "0x0aa82395b9a62026dfd207fd8eadb961b4133cfedebb4d6a5da0331bafdf1594",
      "blockNumber": "0x2033ccd",
      "gasUsed": "0x2ef31",
      "effectiveGasPrice": "0x5d22cfc40",
      "from": "0x3a4db9e7306af09012ceb0f222d581fd1f0c6d71",
      "to": "0x8a05c0a366abb49b56a44b37a5fe281957de2c37",
      "contractAddress": null,
      "l1BaseFeeScalar": "0x0",
      "l1BlobBaseFee": "0x37772ed0",
      "l1BlobBaseFeeScalar": "0x0",
      "l1Fee": "0x0",
      "l1GasPrice": "0x2961c2cd",
      "l1GasUsed": "0x640"
    },
    {
      "status": "0x1",
      "cumulativeGasUsed": "0x11f9e0",
      "logs": [],
      "logsBloom": "0x00000000000000000000000000000000000000000000000000000000000000000000000000000000000000000000000000000000000000000000000000000000000000000000000000000000000000000000000000000000000000000000000000000000000000000000000000000000000000000000000000000000000000000000000000000000000000000000000000000000000000000000000000000000000000000000000000000000000000000000000000000000000000000000000000000000000000000000000000000000000000000000000000000000000000000000000000000000000000000000000000000000000000000000000000000000",
      "type": "0x0",
      "transactionHash": "0xc5ad08b5a249be2d7be8c645aa095b7217032646273af0798d387e6e04509cf2",
      "transactionIndex": "0x9",
      "blockHash": "0x0aa82395b9a62026dfd207fd8eadb961b4133cfedebb4d6a5da0331bafdf1594",
      "blockNumber": "0x2033ccd",
      "gasUsed": "0x143c8",
      "effectiveGasPrice": "0x5d22cfc40",
      "from": "0x3a4db9e7306af09012ceb0f222d581fd1f0c6d71",
      "to": "0x3e59a31363e2ad014dcbc521c4a0d5757d9f3402",
      "contractAddress": null,
      "l1BaseFeeScalar": "0x0",
      "l1BlobBaseFee": "0x37772ed0",
      "l1BlobBaseFeeScalar": "0x0",
      "l1Fee": "0x0",
      "l1GasPrice": "0x2961c2cd",
      "l1GasUsed": "0x640"
    },
    {
      "status": "0x1",
      "cumulativeGasUsed": "0xb3287",
      "logs": [],
      "logsBloom": "0x00000000000000000000000000000000000000000000000000000000000000000000000000000000000000000000000000000000000000000000000000000000000000000000000000000000000000000000000000000000000000000000000000000000000000000000000000000000000000000000000000000000000000000000000000000000000000000000000000000000000000000000000000000000000000000000000000000000000000000000000000000000000000000000000000000000000000000000000000000000000000000000000000000000000000000000000000000000000000000000000000000000000000000000000000000000",
      "type": "0x0",
      "transactionHash": "0xd0a124bc859daf1fff26ea60b8e4953b938190c09d0bcc5195591b5b18322b13",
      "transactionIndex": "0x8",
      "blockHash": "0x2d06b689a5eab8e28f212964f97daf11094c8340ddfe7e0e3a369d66f188ab60",
      "blockNumber": "0x2033cce",
      "gasUsed": "0x1b73d",
      "effectiveGasPrice": "0x5d22cfc40",
      "from": "0x3a4db9e7306af09012ceb0f222d581fd1f0c6d71",
      "to": "0x8a05c0a366abb49b56a44b37a5fe281957de2c37",
      "contractAddress": null,
      "l1BaseFeeScalar": "0x0",
      "l1BlobBaseFee": "0x37772ed0",
      "l1BlobBaseFeeScalar": "0x0",
      "l1Fee": "0x0",
      "l1GasPrice": "0x2961c2cd",
      "l1GasUsed": "0x640"
    },
    {
      "status": "0x1",
      "cumulativeGasUsed": "0x12668d",
      "logs": [
        {
          "address": "0xdbe517c0fa6467873b684eccbed77217e471e862",
          "topics": [
            "0xddf252ad1be2c89b69c2b068fc378daa952ba7f163c4a11628f55a4df523b3ef",
            "0x0000000000000000000000000000000000000000000000000000000000000000",
            "0x0000000000000000000000003a4db9e7306af09012ceb0f222d581fd1f0c6d71"
          ],
          "data": "0x0000000000000000000000000000000000000000000000000000000000002710",
          "blockHash": "0x2d06b689a5eab8e28f212964f97daf11094c8340ddfe7e0e3a369d66f188ab60",
          "blockNumber": "0x2033cce",
          "transactionHash": "0x79d3fe303405252a44eecef7debcc9e46d23d350aeaf4c3dc45d5f75d4065259",
          "transactionIndex": "0xa",
          "logIndex": "0x13",
          "removed": false
        },
        {
          "address": "0xdbe517c0fa6467873b684eccbed77217e471e862",
          "topics": [
            "0x458f5fa412d0f69b08dd84872b0215675cc67bc1d5b6fd93300a1c3878b86196",
            "0x0000000000000000000000003a4db9e7306af09012ceb0f222d581fd1f0c6d71",
            "0x0000000000000000000000003a4db9e7306af09012ceb0f222d581fd1f0c6d71"
          ],
          "data": "0x000000000000000000000000000000000000000000000000000000000000271000000000000000000000000000000000000000000000000000000000000000000000000000000000000000000000000000000000033c4e349eb72aa39e47a4f9",
          "blockHash": "0x2d06b689a5eab8e28f212964f97daf11094c8340ddfe7e0e3a369d66f188ab60",
          "blockNumber": "0x2033cce",
          "transactionHash": "0x79d3fe303405252a44eecef7debcc9e46d23d350aeaf4c3dc45d5f75d4065259",
          "transactionIndex": "0xa",
          "logIndex": "0x14",
          "removed": false
        },
        {
          "address": "0x3e59a31363e2ad014dcbc521c4a0d5757d9f3402",
          "topics": [
            "0x804c9b842b2748a22bb64b345453a3de7ca54a6ca45ce00d415894979e22897a",
            "0x000000000000000000000000ceba9300f2b948710d2653dd7b07f33a8b32118c"
          ],
          "data": "0x00000000000000000000000000000000000000000000d50ab595fe0dfbd1f76d000000000000000000000000000000000000000000000000000000000000000000000000000000000000000000000000000000000007b6824c2514ed0eb2c7f10000000000000000000000000000000000000000033b68a33d2b235f11ce53900000000000000000000000000000000000000000033c4e349eb72aa39e47a4f9",
          "blockHash": "0x2d06b689a5eab8e28f212964f97daf11094c8340ddfe7e0e3a369d66f188ab60",
          "blockNumber": "0x2033cce",
          "transactionHash": "0x79d3fe303405252a44eecef7debcc9e46d23d350aeaf4c3dc45d5f75d4065259",
          "transactionIndex": "0xa",
          "logIndex": "0x15",
          "removed": false
        },
        {
          "address": "0xceba9300f2b948710d2653dd7b07f33a8b32118c",
          "topics": [
            "0xddf252ad1be2c89b69c2b068fc378daa952ba7f163c4a11628f55a4df523b3ef",
            "0x000000000000000000000000ff8309b9e99bfd2d4021bc71a362abd93dbd4785",
            "0x0000000000000000000000003a4db9e7306af09012ceb0f222d581fd1f0c6d71"
          ],
          "data": "0x0000000000000000000000000000000000000000000000000000000000002710",
          "blockHash": "0x2d06b689a5eab8e28f212964f97daf11094c8340ddfe7e0e3a369d66f188ab60",
          "blockNumber": "0x2033cce",
          "transactionHash": "0x79d3fe303405252a44eecef7debcc9e46d23d350aeaf4c3dc45d5f75d4065259",
          "transactionIndex": "0xa",
          "logIndex": "0x16",
          "removed": false
        },
        {
          "address": "0x3e59a31363e2ad014dcbc521c4a0d5757d9f3402",
          "topics": [
            "0xb3d084820fb1a9decffb176436bd02558d15fac9b0ddfed8c465bc7359d7dce0",
            "0x000000000000000000000000ceba9300f2b948710d2653dd7b07f33a8b32118c",
            "0x0000000000000000000000003a4db9e7306af09012ceb0f222d581fd1f0c6d71",
            "0x0000000000000000000000000000000000000000000000000000000000000000"
          ],
          "data": "0x0000000000000000000000003a4db9e7306af09012ceb0f222d581fd1f0c6d710000000000000000000000000000000000000000000000000000000000002710000000000000000000000000000000000000000000000000000000000000000200000000000000000000000000000000000000000007b6824c2514ed0eb2c7f1",
          "blockHash": "0x2d06b689a5eab8e28f212964f97daf11094c8340ddfe7e0e3a369d66f188ab60",
          "blockNumber": "0x2033cce",
          "transactionHash": "0x79d3fe303405252a44eecef7debcc9e46d23d350aeaf4c3dc45d5f75d4065259",
          "transactionIndex": "0xa",
          "logIndex": "0x17",
          "removed": false
        }
      ],
      "logsBloom": "0x00000000000000000000100000400000000000000000000000000000000000000000000000000000000000000004400000100000800000000000000000000000000000008000000000000008000000000000000000000000000000040000000000000000020000000000000000000800000000000000000000000010000000000000000000000000000000000000400000000000000000002200000000000000000001000000000000000000000000000000000000000000400000000000010002000002000081200000022000000000000000000000041000000000000020000000000000004010000800000001000000000000000000000000000000000000",
      "type": "0x0",
      "transactionHash": "0x79d3fe303405252a44eecef7debcc9e46d23d350aeaf4c3dc45d5f75d4065259",
      "transactionIndex": "0xa",
      "blockHash": "0x2d06b689a5eab8e28f212964f97daf11094c8340ddfe7e0e3a369d66f188ab60",
      "blockNumber": "0x2033cce",
      "gasUsed": "0x42913",
      "effectiveGasPrice": "0x5d22cfc40",
      "from": "0x3a4db9e7306af09012ceb0f222d581fd1f0c6d71",
      "to": "0x3e59a31363e2ad014dcbc521c4a0d5757d9f3402",
      "contractAddress": null,
      "l1BaseFeeScalar": "0x0",
      "l1BlobBaseFee": "0x37772ed0",
      "l1BlobBaseFeeScalar": "0x0",
      "l1Fee": "0x0",
      "l1GasPrice": "0x2961c2cd",
      "l1GasUsed": "0x702"
    }
  ],
  "libraries": [],
  "pending": [],
  "returns": {},
  "timestamp": 1745667364,
  "chain": 42220,
  "commit": "1cefd9d"
}