{
  "transactions": [
    {
      "hash": "0xa9a9af43a3d1709be90635fff32927b2e04908fe05e663142adc866625818ced",
      "transactionType": "CALL",
      "contractName": null,
      "contractAddress": "0x3e59a31363e2ad014dcbc521c4a0d5757d9f3402",
      "function": "setUserUseReserveAsCollateral(address,bool)",
      "arguments": [
        "0x48065fbBE25f71C9282ddf5e1cD6D6A887483D5e",
        "true"
      ],
      "transaction": {
        "from": "0x3a4db9e7306af09012ceb0f222d581fd1f0c6d71",
        "to": "0x3e59a31363e2ad014dcbc521c4a0d5757d9f3402",
        "gas": "0x1c1b6",
        "value": "0x0",
        "input": "0x5a3b74b900000000000000000000000048065fbbe25f71c9282ddf5e1cd6d6a887483d5e0000000000000000000000000000000000000000000000000000000000000001",
        "nonce": "0x37",
        "chainId": "0xa4ec"
      },
      "additionalContracts": [],
      "isFixedGasLimit": false
    },
    {
      "hash": "0x3a1ada2c38d2abc11b63b0f6cb0f866e7107050f984a24831301fdb310b3bcb2",
      "transactionType": "CALL",
      "contractName": null,
      "contractAddress": "0x8a05c0a366abb49b56a44b37a5fe281957de2c37",
      "function": "setUserUseReserveAsCollateral(address,bool)",
      "arguments": [
        "0x48065fbBE25f71C9282ddf5e1cD6D6A887483D5e",
        "true"
      ],
      "transaction": {
        "from": "0x3a4db9e7306af09012ceb0f222d581fd1f0c6d71",
        "to": "0x8a05c0a366abb49b56a44b37a5fe281957de2c37",
        "gas": "0x25eb1",
        "value": "0x0",
        "input": "0x5a3b74b900000000000000000000000048065fbbe25f71c9282ddf5e1cd6d6a887483d5e0000000000000000000000000000000000000000000000000000000000000001",
        "nonce": "0x38",
        "chainId": "0xa4ec"
      },
      "additionalContracts": [],
      "isFixedGasLimit": false
    },
    {
      "hash": "0x84e0545ceb7f2a3418e6053915ecc3907c04b1586e5f982a737cf64f35abb138",
      "transactionType": "CALL",
      "contractName": null,
      "contractAddress": "0x3e59a31363e2ad014dcbc521c4a0d5757d9f3402",
      "function": "borrow(address,uint256,uint256,uint16,address)",
      "arguments": [
        "0xcebA9300f2b948710d2653dD7B07f33A8B32118C",
        "10000",
        "2",
        "0",
        "0x3A4dB9e7306aF09012ceb0f222d581FD1F0C6D71"
      ],
      "transaction": {
        "from": "0x3a4db9e7306af09012ceb0f222d581fd1f0c6d71",
        "to": "0x3e59a31363e2ad014dcbc521c4a0d5757d9f3402",
        "gas": "0x6443c",
        "value": "0x0",
        "input": "0xa415bcad000000000000000000000000ceba9300f2b948710d2653dd7b07f33a8b32118c0000000000000000000000000000000000000000000000000000000000002710000000000000000000000000000000000000000000000000000000000000000200000000000000000000000000000000000000000000000000000000000000000000000000000000000000003a4db9e7306af09012ceb0f222d581fd1f0c6d71",
        "nonce": "0x39",
        "chainId": "0xa4ec"
      },
      "additionalContracts": [],
      "isFixedGasLimit": false
    }
  ],
  "receipts": [
    {
      "status": "0x1",
      "cumulativeGasUsed": "0x137e65",
      "logs": [],
      "logsBloom": "0x00000000000000000000000000000000000000000000000000000000000000000000000000000000000000000000000000000000000000000000000000000000000000000000000000000000000000000000000000000000000000000000000000000000000000000000000000000000000000000000000000000000000000000000000000000000000000000000000000000000000000000000000000000000000000000000000000000000000000000000000000000000000000000000000000000000000000000000000000000000000000000000000000000000000000000000000000000000000000000000000000000000000000000000000000000000",
      "type": "0x0",
      "transactionHash": "0xa9a9af43a3d1709be90635fff32927b2e04908fe05e663142adc866625818ced",
      "transactionIndex": "0x9",
      "blockHash": "0x1f109eb3fe483d578b3b01c63f88820ac62ee6c6f9b7bb7b631dabf721af9a95",
      "blockNumber": "0x2033f6a",
      "gasUsed": "0x14596",
      "effectiveGasPrice": "0x5d22cfc40",
      "from": "0x3a4db9e7306af09012ceb0f222d581fd1f0c6d71",
      "to": "0x3e59a31363e2ad014dcbc521c4a0d5757d9f3402",
      "contractAddress": null,
      "l1BaseFeeScalar": "0x0",
      "l1BlobBaseFee": "0x40e5b6b8",
      "l1BlobBaseFeeScalar": "0x0",
      "l1Fee": "0x0",
      "l1GasPrice": "0x2a600fbd",
      "l1GasUsed": "0x640"
    },
    {
      "status": "0x1",
      "cumulativeGasUsed": "0x1535a2",
      "logs": [],
      "logsBloom": "0x00000000000000000000000000000000000000000000000000000000000000000000000000000000000000000000000000000000000000000000000000000000000000000000000000000000000000000000000000000000000000000000000000000000000000000000000000000000000000000000000000000000000000000000000000000000000000000000000000000000000000000000000000000000000000000000000000000000000000000000000000000000000000000000000000000000000000000000000000000000000000000000000000000000000000000000000000000000000000000000000000000000000000000000000000000000",
      "type": "0x0",
      "transactionHash": "0x3a1ada2c38d2abc11b63b0f6cb0f866e7107050f984a24831301fdb310b3bcb2",
      "transactionIndex": "0xa",
      "blockHash": "0x1f109eb3fe483d578b3b01c63f88820ac62ee6c6f9b7bb7b631dabf721af9a95",
      "blockNumber": "0x2033f6a",
      "gasUsed": "0x1b73d",
      "effectiveGasPrice": "0x5d22cfc40",
      "from": "0x3a4db9e7306af09012ceb0f222d581fd1f0c6d71",
      "to": "0x8a05c0a366abb49b56a44b37a5fe281957de2c37",
      "contractAddress": null,
      "l1BaseFeeScalar": "0x0",
      "l1BlobBaseFee": "0x40e5b6b8",
      "l1BlobBaseFeeScalar": "0x0",
      "l1Fee": "0x0",
      "l1GasPrice": "0x2a600fbd",
      "l1GasUsed": "0x640"
    },
    {
      "status": "0x1",
      "cumulativeGasUsed": "0x197e8c",
      "logs": [
        {
          "address": "0xdbe517c0fa6467873b684eccbed77217e471e862",
          "topics": [
            "0xddf252ad1be2c89b69c2b068fc378daa952ba7f163c4a11628f55a4df523b3ef",
            "0x0000000000000000000000000000000000000000000000000000000000000000",
            "0x0000000000000000000000003a4db9e7306af09012ceb0f222d581fd1f0c6d71"
          ],
          "data": "0x0000000000000000000000000000000000000000000000000000000000002710",
          "blockHash": "0x1f109eb3fe483d578b3b01c63f88820ac62ee6c6f9b7bb7b631dabf721af9a95",
          "blockNumber": "0x2033f6a",
          "transactionHash": "0x84e0545ceb7f2a3418e6053915ecc3907c04b1586e5f982a737cf64f35abb138",
          "transactionIndex": "0xb",
          "logIndex": "0x1f",
          "removed": false
        },
        {
          "address": "0xdbe517c0fa6467873b684eccbed77217e471e862",
          "topics": [
            "0x458f5fa412d0f69b08dd84872b0215675cc67bc1d5b6fd93300a1c3878b86196",
            "0x0000000000000000000000003a4db9e7306af09012ceb0f222d581fd1f0c6d71",
            "0x0000000000000000000000003a4db9e7306af09012ceb0f222d581fd1f0c6d71"
          ],
          "data": "0x000000000000000000000000000000000000000000000000000000000000271000000000000000000000000000000000000000000000000000000000000000000000000000000000000000000000000000000000033c4e3f577159dbb7146d34",
          "blockHash": "0x1f109eb3fe483d578b3b01c63f88820ac62ee6c6f9b7bb7b631dabf721af9a95",
          "blockNumber": "0x2033f6a",
          "transactionHash": "0x84e0545ceb7f2a3418e6053915ecc3907c04b1586e5f982a737cf64f35abb138",
          "transactionIndex": "0xb",
          "logIndex": "0x20",
          "removed": false
        },
        {
          "address": "0x3e59a31363e2ad014dcbc521c4a0d5757d9f3402",
          "topics": [
            "0x804c9b842b2748a22bb64b345453a3de7ca54a6ca45ce00d415894979e22897a",
            "0x000000000000000000000000ceba9300f2b948710d2653dd7b07f33a8b32118c"
          ],
          "data": "0x00000000000000000000000000000000000000000000d50ac2ca599a8758189a000000000000000000000000000000000000000000000000000000000000000000000000000000000000000000000000000000000007b6828955f36af2e57c2c0000000000000000000000000000000000000000033b68a464fe48ef7e966e590000000000000000000000000000000000000000033c4e3f577159dbb7146d34",
          "blockHash": "0x1f109eb3fe483d578b3b01c63f88820ac62ee6c6f9b7bb7b631dabf721af9a95",
          "blockNumber": "0x2033f6a",
          "transactionHash": "0x84e0545ceb7f2a3418e6053915ecc3907c04b1586e5f982a737cf64f35abb138",
          "transactionIndex": "0xb",
          "logIndex": "0x21",
          "removed": false
        },
        {
          "address": "0xceba9300f2b948710d2653dd7b07f33a8b32118c",
          "topics": [
            "0xddf252ad1be2c89b69c2b068fc378daa952ba7f163c4a11628f55a4df523b3ef",
            "0x000000000000000000000000ff8309b9e99bfd2d4021bc71a362abd93dbd4785",
            "0x0000000000000000000000003a4db9e7306af09012ceb0f222d581fd1f0c6d71"
          ],
          "data": "0x0000000000000000000000000000000000000000000000000000000000002710",
          "blockHash": "0x1f109eb3fe483d578b3b01c63f88820ac62ee6c6f9b7bb7b631dabf721af9a95",
          "blockNumber": "0x2033f6a",
          "transactionHash": "0x84e0545ceb7f2a3418e6053915ecc3907c04b1586e5f982a737cf64f35abb138",
          "transactionIndex": "0xb",
          "logIndex": "0x22",
          "removed": false
        },
        {
          "address": "0x3e59a31363e2ad014dcbc521c4a0d5757d9f3402",
          "topics": [
            "0xb3d084820fb1a9decffb176436bd02558d15fac9b0ddfed8c465bc7359d7dce0",
            "0x000000000000000000000000ceba9300f2b948710d2653dd7b07f33a8b32118c",
            "0x0000000000000000000000003a4db9e7306af09012ceb0f222d581fd1f0c6d71",
            "0x0000000000000000000000000000000000000000000000000000000000000000"
          ],
          "data": "0x0000000000000000000000003a4db9e7306af09012ceb0f222d581fd1f0c6d710000000000000000000000000000000000000000000000000000000000002710000000000000000000000000000000000000000000000000000000000000000200000000000000000000000000000000000000000007b6828955f36af2e57c2c",
          "blockHash": "0x1f109eb3fe483d578b3b01c63f88820ac62ee6c6f9b7bb7b631dabf721af9a95",
          "blockNumber": "0x2033f6a",
          "transactionHash": "0x84e0545ceb7f2a3418e6053915ecc3907c04b1586e5f982a737cf64f35abb138",
          "transactionIndex": "0xb",
          "logIndex": "0x23",
          "removed": false
        }
      ],
      "logsBloom": "0x00000000000000000000100000400000000000000000000000000000000000000000000000000000000000000004400000100000800000000000000000000000000000008000000000000008000000000000000000000000000000040000000000000000020000000000000000000800000000000000000000000010000000000000000000000000000000000000400000000000000000002200000000000000000001000000000000000000000000000000000000000000400000000000010002000002000081200000022000000000000000000000041000000000000020000000000000004010000800000001000000000000000000000000000000000000",
      "type": "0x0",
      "transactionHash": "0x84e0545ceb7f2a3418e6053915ecc3907c04b1586e5f982a737cf64f35abb138",
      "transactionIndex": "0xb",
      "blockHash": "0x1f109eb3fe483d578b3b01c63f88820ac62ee6c6f9b7bb7b631dabf721af9a95",
      "blockNumber": "0x2033f6a",
      "gasUsed": "0x448ea",
      "effectiveGasPrice": "0x5d22cfc40",
      "from": "0x3a4db9e7306af09012ceb0f222d581fd1f0c6d71",
      "to": "0x3e59a31363e2ad014dcbc521c4a0d5757d9f3402",
      "contractAddress": null,
      "l1BaseFeeScalar": "0x0",
      "l1BlobBaseFee": "0x40e5b6b8",
      "l1BlobBaseFeeScalar": "0x0",
      "l1Fee": "0x0",
      "l1GasPrice": "0x2a600fbd",
      "l1GasUsed": "0x702"
    }
  ],
  "libraries": [],
  "pending": [],
  "returns": {},
  "timestamp": 1745668034,
  "chain": 42220,
  "commit": "1cefd9d"
}