{
  "transactions": [
    {
      "hash": "0x1ed107cc38476e2da63c1884a9d87f2f6e451d0d4feb3ee40b7c5dfdb5aba830",
      "transactionType": "CALL",
      "contractName": null,
      "contractAddress": "0x48065fbbe25f71c9282ddf5e1cd6d6a887483d5e",
      "function": "approve(address,uint256)",
      "arguments": [
        "0xc2a61494430F6a99d5f024Ab6E76b1633c7c13c0",
        "500000"
      ],
      "transaction": {
        "from": "0x3a4db9e7306af09012ceb0f222d581fd1f0c6d71",
        "to": "0x48065fbbe25f71c9282ddf5e1cd6d6a887483d5e",
        "gas": "0x1201c",
        "value": "0x0",
        "input": "0x095ea7b3000000000000000000000000c2a61494430f6a99d5f024ab6e76b1633c7c13c0000000000000000000000000000000000000000000000000000000000007a120",
        "nonce": "0x64",
        "chainId": "0xa4ec"
      },
      "additionalContracts": [],
      "isFixedGasLimit": false
    },
    {
      "hash": "0x5aae1cd11f085160a9fdb8338f2975d6416a919c184b5d88a1a2207a78165d66",
      "transactionType": "CALL",
      "contractName": null,
      "contractAddress": "0xc2a61494430f6a99d5f024ab6e76b1633c7c13c0",
      "function": "createPosition(address,uint256,address,uint256,uint256)",
      "arguments": [
        "0x48065fbBE25f71C9282ddf5e1cD6D6A887483D5e",
        "500000",
        "0xcebA9300f2b948710d2653dD7B07f33A8B32118C",
        "250000",
        "2"
      ],
      "transaction": {
        "from": "0x3a4db9e7306af09012ceb0f222d581fd1f0c6d71",
        "to": "0xc2a61494430f6a99d5f024ab6e76b1633c7c13c0",
        "gas": "0xfae2a",
        "value": "0x0",
        "input": "0xb0c3d5df00000000000000000000000048065fbbe25f71c9282ddf5e1cd6d6a887483d5e000000000000000000000000000000000000000000000000000000000007a120000000000000000000000000ceba9300f2b948710d2653dd7b07f33a8b32118c000000000000000000000000000000000000000000000000000000000003d0900000000000000000000000000000000000000000000000000000000000000002",
        "nonce": "0x65",
        "chainId": "0xa4ec"
      },
      "additionalContracts": [],
      "isFixedGasLimit": false
    },
    {
      "hash": "0xa77b75210052c5fb8588ee48097665329028b97b105819ec349875feb26ba636",
      "transactionType": "CALL",
      "contractName": null,
      "contractAddress": "0x48065fbbe25f71c9282ddf5e1cd6d6a887483d5e",
      "function": "approve(address,uint256)",
      "arguments": [
        "0xc2a61494430F6a99d5f024Ab6E76b1633c7c13c0",
        "250000"
      ],
      "transaction": {
        "from": "0x3a4db9e7306af09012ceb0f222d581fd1f0c6d71",
        "to": "0x48065fbbe25f71c9282ddf5e1cd6d6a887483d5e",
        "gas": "0x1201c",
        "value": "0x0",
        "input": "0x095ea7b3000000000000000000000000c2a61494430f6a99d5f024ab6e76b1633c7c13c0000000000000000000000000000000000000000000000000000000000003d090",
        "nonce": "0x66",
        "chainId": "0xa4ec"
      },
      "additionalContracts": [],
      "isFixedGasLimit": false
    },
    {
      "hash": "0x234e79ba1ed96b7f0611c0d8746a4dbe30c3458b9bba125e240b54888f68a809",
      "transactionType": "CALL",
      "contractName": null,
      "contractAddress": "0xc2a61494430f6a99d5f024ab6e76b1633c7c13c0",
      "function": "addCollateral(uint256,uint256)",
      "arguments": [
        "1",
        "250000"
      ],
      "transaction": {
        "from": "0x3a4db9e7306af09012ceb0f222d581fd1f0c6d71",
        "to": "0xc2a61494430f6a99d5f024ab6e76b1633c7c13c0",
        "gas": "0x4b5df",
        "value": "0x0",
        "input": "0xa8f35adf0000000000000000000000000000000000000000000000000000000000000001000000000000000000000000000000000000000000000000000000000003d090",
        "nonce": "0x67",
        "chainId": "0xa4ec"
      },
      "additionalContracts": [],
      "isFixedGasLimit": false
    },
    {
      "hash": "0x78f41a19663172742a0f7a4d3dd354d284f579c2b5e08b05897a510f481b187b",
      "transactionType": "CALL",
      "contractName": null,
      "contractAddress": "0xc2a61494430f6a99d5f024ab6e76b1633c7c13c0",
      "function": "increaseBorrow(uint256,uint256)",
      "arguments": [
        "1",
        "125000"
      ],
      "transaction": {
        "from": "0x3a4db9e7306af09012ceb0f222d581fd1f0c6d71",
        "to": "0xc2a61494430f6a99d5f024ab6e76b1633c7c13c0",
        "gas": "0x780a8",
        "value": "0x0",
        "input": "0x9e6824d90000000000000000000000000000000000000000000000000000000000000001000000000000000000000000000000000000000000000000000000000001e848",
        "nonce": "0x68",
        "chainId": "0xa4ec"
      },
      "additionalContracts": [],
      "isFixedGasLimit": false
    },
    {
      "hash": "0x47ac64cd4edae43422ad3ddae1228c909987f0ad4339c8377dd7db6abffb66ad",
      "transactionType": "CALL",
      "contractName": null,
      "contractAddress": "0xceba9300f2b948710d2653dd7b07f33a8b32118c",
      "function": "approve(address,uint256)",
      "arguments": [
        "0xc2a61494430F6a99d5f024Ab6E76b1633c7c13c0",
        "187500"
      ],
      "transaction": {
        "from": "0x3a4db9e7306af09012ceb0f222d581fd1f0c6d71",
        "to": "0xceba9300f2b948710d2653dd7b07f33a8b32118c",
        "gas": "0x12b1b",
        "value": "0x0",
        "input": "0x095ea7b3000000000000000000000000c2a61494430f6a99d5f024ab6e76b1633c7c13c0000000000000000000000000000000000000000000000000000000000002dc6c",
        "nonce": "0x69",
        "chainId": "0xa4ec"
      },
      "additionalContracts": [],
      "isFixedGasLimit": false
    },
    {
      "hash": "0xbb794e46fd63927d584fad282867b1bcadbf3ebee43af718a09ee0d56d706d66",
      "transactionType": "CALL",
      "contractName": null,
      "contractAddress": "0xc2a61494430f6a99d5f024ab6e76b1633c7c13c0",
      "function": "repayDebt(uint256,uint256)",
      "arguments": [
        "1",
        "187500"
      ],
      "transaction": {
        "from": "0x3a4db9e7306af09012ceb0f222d581fd1f0c6d71",
        "to": "0xc2a61494430f6a99d5f024ab6e76b1633c7c13c0",
        "gas": "0x4a361",
        "value": "0x0",
        "input": "0x015cb0a50000000000000000000000000000000000000000000000000000000000000001000000000000000000000000000000000000000000000000000000000002dc6c",
        "nonce": "0x6a",
        "chainId": "0xa4ec"
      },
      "additionalContracts": [],
      "isFixedGasLimit": false
    },
    {
      "hash": "0x3929b3679da10f4af53fc80cac9cb4622f91569c845f12942af55ef59576387b",
      "transactionType": "CALL",
      "contractName": null,
      "contractAddress": "0xc2a61494430f6a99d5f024ab6e76b1633c7c13c0",
      "function": "withdrawCollateral(uint256,uint256)",
      "arguments": [
        "1",
        "150000"
      ],
      "transaction": {
        "from": "0x3a4db9e7306af09012ceb0f222d581fd1f0c6d71",
        "to": "0xc2a61494430f6a99d5f024ab6e76b1633c7c13c0",
        "gas": "0x75bb4",
        "value": "0x0",
        "input": "0x767a7b05000000000000000000000000000000000000000000000000000000000000000100000000000000000000000000000000000000000000000000000000000249f0",
        "nonce": "0x6b",
        "chainId": "0xa4ec"
      },
      "additionalContracts": [],
      "isFixedGasLimit": false
    },
    {
      "hash": "0x37e272d3ac57409adc0fee8d1171e585896633f74e2123327d4817bd00650d48",
      "transactionType": "CALL",
      "contractName": null,
      "contractAddress": "0xceba9300f2b948710d2653dd7b07f33a8b32118c",
      "function": "approve(address,uint256)",
      "arguments": [
        "0xc2a61494430F6a99d5f024Ab6E76b1633c7c13c0",
        "18750000"
      ],
      "transaction": {
        "from": "0x3a4db9e7306af09012ceb0f222d581fd1f0c6d71",
        "to": "0xceba9300f2b948710d2653dd7b07f33a8b32118c",
        "gas": "0x13cc6",
        "value": "0x0",
        "input": "0x095ea7b3000000000000000000000000c2a61494430f6a99d5f024ab6e76b1633c7c13c000000000000000000000000000000000000000000000000000000000011e1a30",
        "nonce": "0x6c",
        "chainId": "0xa4ec"
      },
      "additionalContracts": [],
      "isFixedGasLimit": false
    },
    {
      "hash": "0xb8e0690b0943026a0467cc1515b84370990a81b442831083ff4c4bb0b566254e",
      "transactionType": "CALL",
      "contractName": null,
      "contractAddress": "0xc2a61494430f6a99d5f024ab6e76b1633c7c13c0",
      "function": "repayDebt(uint256,uint256)",
      "arguments": [
        "1",
        "187500"
      ],
      "transaction": {
        "from": "0x3a4db9e7306af09012ceb0f222d581fd1f0c6d71",
        "to": "0xc2a61494430f6a99d5f024ab6e76b1633c7c13c0",
        "gas": "0x4b4c9",
        "value": "0x0",
        "input": "0x015cb0a50000000000000000000000000000000000000000000000000000000000000001000000000000000000000000000000000000000000000000000000000002dc6c",
        "nonce": "0x6d",
        "chainId": "0xa4ec"
      },
      "additionalContracts": [],
      "isFixedGasLimit": false
    },
    {
      "hash": "0xe7425a136a1628e61fc278ec9d15d2ed14522524767cb57d9fd0e7a89f833777",
      "transactionType": "CALL",
      "contractName": null,
      "contractAddress": "0xc2a61494430f6a99d5f024ab6e76b1633c7c13c0",
      "function": "withdrawCollateral(uint256,uint256)",
      "arguments": [
        "1",
        "600000"
      ],
      "transaction": {
        "from": "0x3a4db9e7306af09012ceb0f222d581fd1f0c6d71",
        "to": "0xc2a61494430f6a99d5f024ab6e76b1633c7c13c0",
        "gas": "0x57ee5",
        "value": "0x0",
        "input": "0x767a7b05000000000000000000000000000000000000000000000000000000000000000100000000000000000000000000000000000000000000000000000000000927c0",
        "nonce": "0x6e",
        "chainId": "0xa4ec"
      },
      "additionalContracts": [],
      "isFixedGasLimit": false
    },
    {
      "hash": "0xaf6a82ce480ce986faff675c6f03278125b574b8767dddeb5a2b5f23256e805b",
      "transactionType": "CALL",
      "contractName": null,
      "contractAddress": "0xc2a61494430f6a99d5f024ab6e76b1633c7c13c0",
      "function": "closePosition(uint256)",
      "arguments": [
        "1"
      ],
      "transaction": {
        "from": "0x3a4db9e7306af09012ceb0f222d581fd1f0c6d71",
        "to": "0xc2a61494430f6a99d5f024ab6e76b1633c7c13c0",
        "gas": "0x4dddc",
        "value": "0x0",
        "input": "0xa126d6010000000000000000000000000000000000000000000000000000000000000001",
        "nonce": "0x6f",
        "chainId": "0xa4ec"
      },
      "additionalContracts": [],
      "isFixedGasLimit": false
    }
  ],
  "receipts": [
    {
      "status": "0x1",
      "cumulativeGasUsed": "0x118940",
      "logs": [
        {
          "address": "0x48065fbbe25f71c9282ddf5e1cd6d6a887483d5e",
          "topics": [
            "0x8c5be1e5ebec7d5bd14f71427d1e84f3dd0314c0f7b2291e5b200ac8c7c3b925",
            "0x0000000000000000000000003a4db9e7306af09012ceb0f222d581fd1f0c6d71",
            "0x000000000000000000000000c2a61494430f6a99d5f024ab6e76b1633c7c13c0"
          ],
          "data": "0x000000000000000000000000000000000000000000000000000000000007a120",
          "blockHash": "0xb441ab704e119195aa67c619ef33ab2fd2d6dd0fbbb9ec3505db538832163211",
          "blockNumber": "0x2036e5b",
          "transactionHash": "0x1ed107cc38476e2da63c1884a9d87f2f6e451d0d4feb3ee40b7c5dfdb5aba830",
          "transactionIndex": "0x8",
          "logIndex": "0x28",
          "removed": false
        }
      ],
      "logsBloom": "0x00000000000000000000000000000000000000000000000000000000000000000000000000000000000000000000000000000000000000000000000000200000000000000000000000000000000000000000000000000000000000000000000000000000000000000000000000000000000000000000000040000000000000000000010000000000000000000000400000000000000000000000000000000000020000000000000000000000000000000000000000000000000000000000000000000000000080000000008000000000020000000000001000000000000000000010000000000000001000000000000000000000000000000000000000800000",
      "type": "0x0",
      "transactionHash": "0x1ed107cc38476e2da63c1884a9d87f2f6e451d0d4feb3ee40b7c5dfdb5aba830",
      "transactionIndex": "0x8",
      "blockHash": "0xb441ab704e119195aa67c619ef33ab2fd2d6dd0fbbb9ec3505db538832163211",
      "blockNumber": "0x2036e5b",
      "gasUsed": "0xd097",
      "effectiveGasPrice": "0x5d22cfc40",
      "from": "0x3a4db9e7306af09012ceb0f222d581fd1f0c6d71",
      "to": "0x48065fbbe25f71c9282ddf5e1cd6d6a887483d5e",
      "contractAddress": null,
      "l1BaseFeeScalar": "0x0",
      "l1BlobBaseFee": "0xbb539dca",
      "l1BlobBaseFeeScalar": "0x0",
      "l1Fee": "0x0",
      "l1GasPrice": "0x5856d3fe",
      "l1GasUsed": "0x640"
    },
    {
      "status": "0x1",
      "cumulativeGasUsed": "0x1c41fb",
      "logs": [
        {
          "address": "0x48065fbbe25f71c9282ddf5e1cd6d6a887483d5e",
          "topics": [
            "0xddf252ad1be2c89b69c2b068fc378daa952ba7f163c4a11628f55a4df523b3ef",
            "0x0000000000000000000000003a4db9e7306af09012ceb0f222d581fd1f0c6d71",
            "0x000000000000000000000000c2a61494430f6a99d5f024ab6e76b1633c7c13c0"
          ],
          "data": "0x000000000000000000000000000000000000000000000000000000000007a120",
          "blockHash": "0xb441ab704e119195aa67c619ef33ab2fd2d6dd0fbbb9ec3505db538832163211",
          "blockNumber": "0x2036e5b",
          "transactionHash": "0x5aae1cd11f085160a9fdb8338f2975d6416a919c184b5d88a1a2207a78165d66",
          "transactionIndex": "0x9",
          "logIndex": "0x29",
          "removed": false
        },
        {
          "address": "0x48065fbbe25f71c9282ddf5e1cd6d6a887483d5e",
          "topics": [
            "0x8c5be1e5ebec7d5bd14f71427d1e84f3dd0314c0f7b2291e5b200ac8c7c3b925",
            "0x0000000000000000000000003a4db9e7306af09012ceb0f222d581fd1f0c6d71",
            "0x000000000000000000000000c2a61494430f6a99d5f024ab6e76b1633c7c13c0"
          ],
          "data": "0x0000000000000000000000000000000000000000000000000000000000000000",
          "blockHash": "0xb441ab704e119195aa67c619ef33ab2fd2d6dd0fbbb9ec3505db538832163211",
          "blockNumber": "0x2036e5b",
          "transactionHash": "0x5aae1cd11f085160a9fdb8338f2975d6416a919c184b5d88a1a2207a78165d66",
          "transactionIndex": "0x9",
          "logIndex": "0x2a",
          "removed": false
        },
        {
          "address": "0x48065fbbe25f71c9282ddf5e1cd6d6a887483d5e",
          "topics": [
            "0x8c5be1e5ebec7d5bd14f71427d1e84f3dd0314c0f7b2291e5b200ac8c7c3b925",
            "0x000000000000000000000000c2a61494430f6a99d5f024ab6e76b1633c7c13c0",
            "0x0000000000000000000000003e59a31363e2ad014dcbc521c4a0d5757d9f3402"
          ],
          "data": "0x000000000000000000000000000000000000000000000000000000000007a120",
          "blockHash": "0xb441ab704e119195aa67c619ef33ab2fd2d6dd0fbbb9ec3505db538832163211",
          "blockNumber": "0x2036e5b",
          "transactionHash": "0x5aae1cd11f085160a9fdb8338f2975d6416a919c184b5d88a1a2207a78165d66",
          "transactionIndex": "0x9",
          "logIndex": "0x2b",
          "removed": false
        },
        {
          "address": "0x3e59a31363e2ad014dcbc521c4a0d5757d9f3402",
          "topics": [
            "0x804c9b842b2748a22bb64b345453a3de7ca54a6ca45ce00d415894979e22897a",
            "0x00000000000000000000000048065fbbe25f71c9282ddf5e1cd6d6a887483d5e"
          ],
          "data": "0x00000000000000000000000000000000000000000000000b15ec6ca69459d2850000000000000000000000000000000000000000000000000000000000000000000000000000000000000000000000000000000000001c268b219699a851f9b60000000000000000000000000000000000000000033b5f8e1f6ccc7627f7f8350000000000000000000000000000000000000000033bcc9f091b5df956b9477e",
          "blockHash": "0xb441ab704e119195aa67c619ef33ab2fd2d6dd0fbbb9ec3505db538832163211",
          "blockNumber": "0x2036e5b",
          "transactionHash": "0x5aae1cd11f085160a9fdb8338f2975d6416a919c184b5d88a1a2207a78165d66",
          "transactionIndex": "0x9",
          "logIndex": "0x2c",
          "removed": false
        },
        {
          "address": "0x48065fbbe25f71c9282ddf5e1cd6d6a887483d5e",
          "topics": [
            "0xddf252ad1be2c89b69c2b068fc378daa952ba7f163c4a11628f55a4df523b3ef",
            "0x000000000000000000000000c2a61494430f6a99d5f024ab6e76b1633c7c13c0",
            "0x000000000000000000000000dee98402a302e4d707fb9bf2bac66faeec31e8df"
          ],
          "data": "0x000000000000000000000000000000000000000000000000000000000007a120",
          "blockHash": "0xb441ab704e119195aa67c619ef33ab2fd2d6dd0fbbb9ec3505db538832163211",
          "blockNumber": "0x2036e5b",
          "transactionHash": "0x5aae1cd11f085160a9fdb8338f2975d6416a919c184b5d88a1a2207a78165d66",
          "transactionIndex": "0x9",
          "logIndex": "0x2d",
          "removed": false
        },
        {
          "address": "0x48065fbbe25f71c9282ddf5e1cd6d6a887483d5e",
          "topics": [
            "0x8c5be1e5ebec7d5bd14f71427d1e84f3dd0314c0f7b2291e5b200ac8c7c3b925",
            "0x000000000000000000000000c2a61494430f6a99d5f024ab6e76b1633c7c13c0",
            "0x0000000000000000000000003e59a31363e2ad014dcbc521c4a0d5757d9f3402"
          ],
          "data": "0x0000000000000000000000000000000000000000000000000000000000000000",
          "blockHash": "0xb441ab704e119195aa67c619ef33ab2fd2d6dd0fbbb9ec3505db538832163211",
          "blockNumber": "0x2036e5b",
          "transactionHash": "0x5aae1cd11f085160a9fdb8338f2975d6416a919c184b5d88a1a2207a78165d66",
          "transactionIndex": "0x9",
          "logIndex": "0x2e",
          "removed": false
        },
        {
          "address": "0xdee98402a302e4d707fb9bf2bac66faeec31e8df",
          "topics": [
            "0xddf252ad1be2c89b69c2b068fc378daa952ba7f163c4a11628f55a4df523b3ef",
            "0x0000000000000000000000000000000000000000000000000000000000000000",
            "0x000000000000000000000000c2a61494430f6a99d5f024ab6e76b1633c7c13c0"
          ],
          "data": "0x000000000000000000000000000000000000000000000000000000000007a120",
          "blockHash": "0xb441ab704e119195aa67c619ef33ab2fd2d6dd0fbbb9ec3505db538832163211",
          "blockNumber": "0x2036e5b",
          "transactionHash": "0x5aae1cd11f085160a9fdb8338f2975d6416a919c184b5d88a1a2207a78165d66",
          "transactionIndex": "0x9",
          "logIndex": "0x2f",
          "removed": false
        },
        {
          "address": "0xdee98402a302e4d707fb9bf2bac66faeec31e8df",
          "topics": [
            "0x458f5fa412d0f69b08dd84872b0215675cc67bc1d5b6fd93300a1c3878b86196",
            "0x000000000000000000000000c2a61494430f6a99d5f024ab6e76b1633c7c13c0",
            "0x000000000000000000000000c2a61494430f6a99d5f024ab6e76b1633c7c13c0"
          ],
          "data": "0x000000000000000000000000000000000000000000000000000000000007a12000000000000000000000000000000000000000000000000000000000000000000000000000000000000000000000000000000000033b5f8e1f6ccc7627f7f835",
          "blockHash": "0xb441ab704e119195aa67c619ef33ab2fd2d6dd0fbbb9ec3505db538832163211",
          "blockNumber": "0x2036e5b",
          "transactionHash": "0x5aae1cd11f085160a9fdb8338f2975d6416a919c184b5d88a1a2207a78165d66",
          "transactionIndex": "0x9",
          "logIndex": "0x30",
          "removed": false
        },
        {
          "address": "0x3e59a31363e2ad014dcbc521c4a0d5757d9f3402",
          "topics": [
            "0x00058a56ea94653cdf4f152d227ace22d4c00ad99e2a43f58cb7d9e3feb295f2",
            "0x00000000000000000000000048065fbbe25f71c9282ddf5e1cd6d6a887483d5e",
            "0x000000000000000000000000c2a61494430f6a99d5f024ab6e76b1633c7c13c0"
          ],
          "data": "0x",
          "blockHash": "0xb441ab704e119195aa67c619ef33ab2fd2d6dd0fbbb9ec3505db538832163211",
          "blockNumber": "0x2036e5b",
          "transactionHash": "0x5aae1cd11f085160a9fdb8338f2975d6416a919c184b5d88a1a2207a78165d66",
          "transactionIndex": "0x9",
          "logIndex": "0x31",
          "removed": false
        },
        {
          "address": "0x3e59a31363e2ad014dcbc521c4a0d5757d9f3402",
          "topics": [
            "0x2b627736bca15cd5381dcf80b0bf11fd197d01a037c52b927a881a10fb73ba61",
            "0x00000000000000000000000048065fbbe25f71c9282ddf5e1cd6d6a887483d5e",
            "0x000000000000000000000000c2a61494430f6a99d5f024ab6e76b1633c7c13c0",
            "0x0000000000000000000000000000000000000000000000000000000000000000"
          ],
          "data": "0x000000000000000000000000c2a61494430f6a99d5f024ab6e76b1633c7c13c0000000000000000000000000000000000000000000000000000000000007a120",
          "blockHash": "0xb441ab704e119195aa67c619ef33ab2fd2d6dd0fbbb9ec3505db538832163211",
          "blockNumber": "0x2036e5b",
          "transactionHash": "0x5aae1cd11f085160a9fdb8338f2975d6416a919c184b5d88a1a2207a78165d66",
          "transactionIndex": "0x9",
          "logIndex": "0x32",
          "removed": false
        },
        {
          "address": "0xdbe517c0fa6467873b684eccbed77217e471e862",
          "topics": [
            "0xddf252ad1be2c89b69c2b068fc378daa952ba7f163c4a11628f55a4df523b3ef",
            "0x0000000000000000000000000000000000000000000000000000000000000000",
            "0x000000000000000000000000c2a61494430f6a99d5f024ab6e76b1633c7c13c0"
          ],
          "data": "0x000000000000000000000000000000000000000000000000000000000003d090",
          "blockHash": "0xb441ab704e119195aa67c619ef33ab2fd2d6dd0fbbb9ec3505db538832163211",
          "blockNumber": "0x2036e5b",
          "transactionHash": "0x5aae1cd11f085160a9fdb8338f2975d6416a919c184b5d88a1a2207a78165d66",
          "transactionIndex": "0x9",
          "logIndex": "0x33",
          "removed": false
        },
        {
          "address": "0xdbe517c0fa6467873b684eccbed77217e471e862",
          "topics": [
            "0x458f5fa412d0f69b08dd84872b0215675cc67bc1d5b6fd93300a1c3878b86196",
            "0x000000000000000000000000c2a61494430f6a99d5f024ab6e76b1633c7c13c0",
            "0x000000000000000000000000c2a61494430f6a99d5f024ab6e76b1633c7c13c0"
          ],
          "data": "0x000000000000000000000000000000000000000000000000000000000003d09000000000000000000000000000000000000000000000000000000000000000000000000000000000000000000000000000000000033c4f0037f59b54ab08d456",
          "blockHash": "0xb441ab704e119195aa67c619ef33ab2fd2d6dd0fbbb9ec3505db538832163211",
          "blockNumber": "0x2036e5b",
          "transactionHash": "0x5aae1cd11f085160a9fdb8338f2975d6416a919c184b5d88a1a2207a78165d66",
          "transactionIndex": "0x9",
          "logIndex": "0x34",
          "removed": false
        },
        {
          "address": "0x3e59a31363e2ad014dcbc521c4a0d5757d9f3402",
          "topics": [
            "0x804c9b842b2748a22bb64b345453a3de7ca54a6ca45ce00d415894979e22897a",
            "0x000000000000000000000000ceba9300f2b948710d2653dd7b07f33a8b32118c"
          ],
          "data": "0x00000000000000000000000000000000000000000000d50b9a28d128e910de4a000000000000000000000000000000000000000000000000000000000000000000000000000000000000000000000000000000000007b6866f5ec9677239fea00000000000000000000000000000000000000000033b68b92ec2cae0e10f02970000000000000000000000000000000000000000033c4f0037f59b54ab08d456",
          "blockHash": "0xb441ab704e119195aa67c619ef33ab2fd2d6dd0fbbb9ec3505db538832163211",
          "blockNumber": "0x2036e5b",
          "transactionHash": "0x5aae1cd11f085160a9fdb8338f2975d6416a919c184b5d88a1a2207a78165d66",
          "transactionIndex": "0x9",
          "logIndex": "0x35",
          "removed": false
        },
        {
          "address": "0xceba9300f2b948710d2653dd7b07f33a8b32118c",
          "topics": [
            "0xddf252ad1be2c89b69c2b068fc378daa952ba7f163c4a11628f55a4df523b3ef",
            "0x000000000000000000000000ff8309b9e99bfd2d4021bc71a362abd93dbd4785",
            "0x000000000000000000000000c2a61494430f6a99d5f024ab6e76b1633c7c13c0"
          ],
          "data": "0x000000000000000000000000000000000000000000000000000000000003d090",
          "blockHash": "0xb441ab704e119195aa67c619ef33ab2fd2d6dd0fbbb9ec3505db538832163211",
          "blockNumber": "0x2036e5b",
          "transactionHash": "0x5aae1cd11f085160a9fdb8338f2975d6416a919c184b5d88a1a2207a78165d66",
          "transactionIndex": "0x9",
          "logIndex": "0x36",
          "removed": false
        },
        {
          "address": "0x3e59a31363e2ad014dcbc521c4a0d5757d9f3402",
          "topics": [
            "0xb3d084820fb1a9decffb176436bd02558d15fac9b0ddfed8c465bc7359d7dce0",
            "0x000000000000000000000000ceba9300f2b948710d2653dd7b07f33a8b32118c",
            "0x000000000000000000000000c2a61494430f6a99d5f024ab6e76b1633c7c13c0",
            "0x0000000000000000000000000000000000000000000000000000000000000000"
          ],
          "data": "0x000000000000000000000000c2a61494430f6a99d5f024ab6e76b1633c7c13c0000000000000000000000000000000000000000000000000000000000003d090000000000000000000000000000000000000000000000000000000000000000200000000000000000000000000000000000000000007b6866f5ec9677239fea0",
          "blockHash": "0xb441ab704e119195aa67c619ef33ab2fd2d6dd0fbbb9ec3505db538832163211",
          "blockNumber": "0x2036e5b",
          "transactionHash": "0x5aae1cd11f085160a9fdb8338f2975d6416a919c184b5d88a1a2207a78165d66",
          "transactionIndex": "0x9",
          "logIndex": "0x37",
          "removed": false
        },
        {
          "address": "0xceba9300f2b948710d2653dd7b07f33a8b32118c",
          "topics": [
            "0xddf252ad1be2c89b69c2b068fc378daa952ba7f163c4a11628f55a4df523b3ef",
            "0x000000000000000000000000c2a61494430f6a99d5f024ab6e76b1633c7c13c0",
            "0x0000000000000000000000003a4db9e7306af09012ceb0f222d581fd1f0c6d71"
          ],
          "data": "0x000000000000000000000000000000000000000000000000000000000003d090",
          "blockHash": "0xb441ab704e119195aa67c619ef33ab2fd2d6dd0fbbb9ec3505db538832163211",
          "blockNumber": "0x2036e5b",
          "transactionHash": "0x5aae1cd11f085160a9fdb8338f2975d6416a919c184b5d88a1a2207a78165d66",
          "transactionIndex": "0x9",
          "logIndex": "0x38",
          "removed": false
        },
        {
          "address": "0xc2a61494430f6a99d5f024ab6e76b1633c7c13c0",
          "topics": [
            "0x9f9b498443531d2db9df8a00ec466efc74ba50ec1d82f7badd3424b87930e19a",
            "0x0000000000000000000000000000000000000000000000000000000000000001",
            "0x0000000000000000000000003a4db9e7306af09012ceb0f222d581fd1f0c6d71"
          ],
          "data": "0x00000000000000000000000048065fbbe25f71c9282ddf5e1cd6d6a887483d5e000000000000000000000000000000000000000000000000000000000007a120000000000000000000000000ceba9300f2b948710d2653dd7b07f33a8b32118c000000000000000000000000000000000000000000000000000000000003d0900000000000000000000000000000000000000000000000000000000000000002",
          "blockHash": "0xb441ab704e119195aa67c619ef33ab2fd2d6dd0fbbb9ec3505db538832163211",
          "blockNumber": "0x2036e5b",
          "transactionHash": "0x5aae1cd11f085160a9fdb8338f2975d6416a919c184b5d88a1a2207a78165d66",
          "transactionIndex": "0x9",
          "logIndex": "0x39",
          "removed": false
        }
      ],
      "logsBloom": "0x0000000000000801028012000040000000100000000000000000000000000000000000080000000000002000000440000010000080000000000000000024000000000000800000080000000840000000000000000004000000000004000000000000000002000000000000020000080000000002000000004000001000000000000001008000000000000000000040000000000000000000220000000000000002000110000100000000004000000000100000000000000040000000000001000200000200008120000002a040000040020000000000041000020000000160000010000000004010001800000001000040000000000000000000400000800000",
      "type": "0x0",
      "transactionHash": "0x5aae1cd11f085160a9fdb8338f2975d6416a919c184b5d88a1a2207a78165d66",
      "transactionIndex": "0x9",
      "blockHash": "0xb441ab704e119195aa67c619ef33ab2fd2d6dd0fbbb9ec3505db538832163211",
      "blockNumber": "0x2036e5b",
      "gasUsed": "0xab8bb",
      "effectiveGasPrice": "0x5d22cfc40",
      "from": "0x3a4db9e7306af09012ceb0f222d581fd1f0c6d71",
      "to": "0xc2a61494430f6a99d5f024ab6e76b1633c7c13c0",
      "contractAddress": null,
      "l1BaseFeeScalar": "0x0",
      "l1BlobBaseFee": "0xbb539dca",
      "l1BlobBaseFeeScalar": "0x0",
      "l1Fee": "0x0",
      "l1GasPrice": "0x5856d3fe",
      "l1GasUsed": "0x76d"
    },
    {
      "status": "0x1",
      "cumulativeGasUsed": "0x1d1292",
      "logs": [
        {
          "address": "0x48065fbbe25f71c9282ddf5e1cd6d6a887483d5e",
          "topics": [
            "0x8c5be1e5ebec7d5bd14f71427d1e84f3dd0314c0f7b2291e5b200ac8c7c3b925",
            "0x0000000000000000000000003a4db9e7306af09012ceb0f222d581fd1f0c6d71",
            "0x000000000000000000000000c2a61494430f6a99d5f024ab6e76b1633c7c13c0"
          ],
          "data": "0x000000000000000000000000000000000000000000000000000000000003d090",
          "blockHash": "0xb441ab704e119195aa67c619ef33ab2fd2d6dd0fbbb9ec3505db538832163211",
          "blockNumber": "0x2036e5b",
          "transactionHash": "0xa77b75210052c5fb8588ee48097665329028b97b105819ec349875feb26ba636",
          "transactionIndex": "0xa",
          "logIndex": "0x3a",
          "removed": false
        }
      ],
      "logsBloom": "0x00000000000000000000000000000000000000000000000000000000000000000000000000000000000000000000000000000000000000000000000000200000000000000000000000000000000000000000000000000000000000000000000000000000000000000000000000000000000000000000000040000000000000000000010000000000000000000000400000000000000000000000000000000000020000000000000000000000000000000000000000000000000000000000000000000000000080000000008000000000020000000000001000000000000000000010000000000000001000000000000000000000000000000000000000800000",
      "type": "0x0",
      "transactionHash": "0xa77b75210052c5fb8588ee48097665329028b97b105819ec349875feb26ba636",
      "transactionIndex": "0xa",
      "blockHash": "0xb441ab704e119195aa67c619ef33ab2fd2d6dd0fbbb9ec3505db538832163211",
      "blockNumber": "0x2036e5b",
      "gasUsed": "0xd097",
      "effectiveGasPrice": "0x5d22cfc40",
      "from": "0x3a4db9e7306af09012ceb0f222d581fd1f0c6d71",
      "to": "0x48065fbbe25f71c9282ddf5e1cd6d6a887483d5e",
      "contractAddress": null,
      "l1BaseFeeScalar": "0x0",
      "l1BlobBaseFee": "0xbb539dca",
      "l1BlobBaseFeeScalar": "0x0",
      "l1Fee": "0x0",
      "l1GasPrice": "0x5856d3fe",
      "l1GasUsed": "0x640"
    },
    {
      "status": "0x1",
      "cumulativeGasUsed": "0xbc45e",
      "logs": [
        {
          "address": "0x48065fbbe25f71c9282ddf5e1cd6d6a887483d5e",
          "topics": [
            "0xddf252ad1be2c89b69c2b068fc378daa952ba7f163c4a11628f55a4df523b3ef",
            "0x0000000000000000000000003a4db9e7306af09012ceb0f222d581fd1f0c6d71",
            "0x000000000000000000000000c2a61494430f6a99d5f024ab6e76b1633c7c13c0"
          ],
          "data": "0x000000000000000000000000000000000000000000000000000000000003d090",
          "blockHash": "0xd035ec0bfee3f320dbf3aa0348961e5e6c9d85add63670dbd9d299434bb99cbc",
          "blockNumber": "0x2036e5c",
          "transactionHash": "0x234e79ba1ed96b7f0611c0d8746a4dbe30c3458b9bba125e240b54888f68a809",
          "transactionIndex": "0x5",
          "logIndex": "0xa",
          "removed": false
        },
        {
          "address": "0x48065fbbe25f71c9282ddf5e1cd6d6a887483d5e",
          "topics": [
            "0x8c5be1e5ebec7d5bd14f71427d1e84f3dd0314c0f7b2291e5b200ac8c7c3b925",
            "0x0000000000000000000000003a4db9e7306af09012ceb0f222d581fd1f0c6d71",
            "0x000000000000000000000000c2a61494430f6a99d5f024ab6e76b1633c7c13c0"
          ],
          "data": "0x0000000000000000000000000000000000000000000000000000000000000000",
          "blockHash": "0xd035ec0bfee3f320dbf3aa0348961e5e6c9d85add63670dbd9d299434bb99cbc",
          "blockNumber": "0x2036e5c",
          "transactionHash": "0x234e79ba1ed96b7f0611c0d8746a4dbe30c3458b9bba125e240b54888f68a809",
          "transactionIndex": "0x5",
          "logIndex": "0xb",
          "removed": false
        },
        {
          "address": "0x48065fbbe25f71c9282ddf5e1cd6d6a887483d5e",
          "topics": [
            "0x8c5be1e5ebec7d5bd14f71427d1e84f3dd0314c0f7b2291e5b200ac8c7c3b925",
            "0x000000000000000000000000c2a61494430f6a99d5f024ab6e76b1633c7c13c0",
            "0x0000000000000000000000003e59a31363e2ad014dcbc521c4a0d5757d9f3402"
          ],
          "data": "0x000000000000000000000000000000000000000000000000000000000003d090",
          "blockHash": "0xd035ec0bfee3f320dbf3aa0348961e5e6c9d85add63670dbd9d299434bb99cbc",
          "blockNumber": "0x2036e5c",
          "transactionHash": "0x234e79ba1ed96b7f0611c0d8746a4dbe30c3458b9bba125e240b54888f68a809",
          "transactionIndex": "0x5",
          "logIndex": "0xc",
          "removed": false
        },
        {
          "address": "0x3e59a31363e2ad014dcbc521c4a0d5757d9f3402",
          "topics": [
            "0x804c9b842b2748a22bb64b345453a3de7ca54a6ca45ce00d415894979e22897a",
            "0x00000000000000000000000048065fbbe25f71c9282ddf5e1cd6d6a887483d5e"
          ],
          "data": "0x00000000000000000000000000000000000000000000000b15ec4d17b71fcf390000000000000000000000000000000000000000000000000000000000000000000000000000000000000000000000000000000000001c268af984faaae264380000000000000000000000000000000000000000033b5f8e1f6cd25c49f0fb290000000000000000000000000000000000000000033bcc9f092a5abcbf72e372",
          "blockHash": "0xd035ec0bfee3f320dbf3aa0348961e5e6c9d85add63670dbd9d299434bb99cbc",
          "blockNumber": "0x2036e5c",
          "transactionHash": "0x234e79ba1ed96b7f0611c0d8746a4dbe30c3458b9bba125e240b54888f68a809",
          "transactionIndex": "0x5",
          "logIndex": "0xd",
          "removed": false
        },
        {
          "address": "0x48065fbbe25f71c9282ddf5e1cd6d6a887483d5e",
          "topics": [
            "0xddf252ad1be2c89b69c2b068fc378daa952ba7f163c4a11628f55a4df523b3ef",
            "0x000000000000000000000000c2a61494430f6a99d5f024ab6e76b1633c7c13c0",
            "0x000000000000000000000000dee98402a302e4d707fb9bf2bac66faeec31e8df"
          ],
          "data": "0x000000000000000000000000000000000000000000000000000000000003d090",
          "blockHash": "0xd035ec0bfee3f320dbf3aa0348961e5e6c9d85add63670dbd9d299434bb99cbc",
          "blockNumber": "0x2036e5c",
          "transactionHash": "0x234e79ba1ed96b7f0611c0d8746a4dbe30c3458b9bba125e240b54888f68a809",
          "transactionIndex": "0x5",
          "logIndex": "0xe",
          "removed": false
        },
        {
          "address": "0x48065fbbe25f71c9282ddf5e1cd6d6a887483d5e",
          "topics": [
            "0x8c5be1e5ebec7d5bd14f71427d1e84f3dd0314c0f7b2291e5b200ac8c7c3b925",
            "0x000000000000000000000000c2a61494430f6a99d5f024ab6e76b1633c7c13c0",
            "0x0000000000000000000000003e59a31363e2ad014dcbc521c4a0d5757d9f3402"
          ],
          "data": "0x0000000000000000000000000000000000000000000000000000000000000000",
          "blockHash": "0xd035ec0bfee3f320dbf3aa0348961e5e6c9d85add63670dbd9d299434bb99cbc",
          "blockNumber": "0x2036e5c",
          "transactionHash": "0x234e79ba1ed96b7f0611c0d8746a4dbe30c3458b9bba125e240b54888f68a809",
          "transactionIndex": "0x5",
          "logIndex": "0xf",
          "removed": false
        },
        {
          "address": "0xdee98402a302e4d707fb9bf2bac66faeec31e8df",
          "topics": [
            "0xddf252ad1be2c89b69c2b068fc378daa952ba7f163c4a11628f55a4df523b3ef",
            "0x0000000000000000000000000000000000000000000000000000000000000000",
            "0x000000000000000000000000c2a61494430f6a99d5f024ab6e76b1633c7c13c0"
          ],
          "data": "0x000000000000000000000000000000000000000000000000000000000003d090",
          "blockHash": "0xd035ec0bfee3f320dbf3aa0348961e5e6c9d85add63670dbd9d299434bb99cbc",
          "blockNumber": "0x2036e5c",
          "transactionHash": "0x234e79ba1ed96b7f0611c0d8746a4dbe30c3458b9bba125e240b54888f68a809",
          "transactionIndex": "0x5",
          "logIndex": "0x10",
          "removed": false
        },
        {
          "address": "0xdee98402a302e4d707fb9bf2bac66faeec31e8df",
          "topics": [
            "0x458f5fa412d0f69b08dd84872b0215675cc67bc1d5b6fd93300a1c3878b86196",
            "0x000000000000000000000000c2a61494430f6a99d5f024ab6e76b1633c7c13c0",
            "0x000000000000000000000000c2a61494430f6a99d5f024ab6e76b1633c7c13c0"
          ],
          "data": "0x000000000000000000000000000000000000000000000000000000000003d09000000000000000000000000000000000000000000000000000000000000000000000000000000000000000000000000000000000033b5f8e1f6cd25c49f0fb29",
          "blockHash": "0xd035ec0bfee3f320dbf3aa0348961e5e6c9d85add63670dbd9d299434bb99cbc",
          "blockNumber": "0x2036e5c",
          "transactionHash": "0x234e79ba1ed96b7f0611c0d8746a4dbe30c3458b9bba125e240b54888f68a809",
          "transactionIndex": "0x5",
          "logIndex": "0x11",
          "removed": false
        },
        {
          "address": "0x3e59a31363e2ad014dcbc521c4a0d5757d9f3402",
          "topics": [
            "0x2b627736bca15cd5381dcf80b0bf11fd197d01a037c52b927a881a10fb73ba61",
            "0x00000000000000000000000048065fbbe25f71c9282ddf5e1cd6d6a887483d5e",
            "0x000000000000000000000000c2a61494430f6a99d5f024ab6e76b1633c7c13c0",
            "0x0000000000000000000000000000000000000000000000000000000000000000"
          ],
          "data": "0x000000000000000000000000c2a61494430f6a99d5f024ab6e76b1633c7c13c0000000000000000000000000000000000000000000000000000000000003d090",
          "blockHash": "0xd035ec0bfee3f320dbf3aa0348961e5e6c9d85add63670dbd9d299434bb99cbc",
          "blockNumber": "0x2036e5c",
          "transactionHash": "0x234e79ba1ed96b7f0611c0d8746a4dbe30c3458b9bba125e240b54888f68a809",
          "transactionIndex": "0x5",
          "logIndex": "0x12",
          "removed": false
        },
        {
          "address": "0xc2a61494430f6a99d5f024ab6e76b1633c7c13c0",
          "topics": [
            "0x244160b15e69cc411f041d94ae7fab6f6bba85dade8403216c05ff4b920d5449",
            "0x0000000000000000000000000000000000000000000000000000000000000001"
          ],
          "data": "0x000000000000000000000000000000000000000000000000000000000003d090",
          "blockHash": "0xd035ec0bfee3f320dbf3aa0348961e5e6c9d85add63670dbd9d299434bb99cbc",
          "blockNumber": "0x2036e5c",
          "transactionHash": "0x234e79ba1ed96b7f0611c0d8746a4dbe30c3458b9bba125e240b54888f68a809",
          "transactionIndex": "0x5",
          "logIndex": "0x13",
          "removed": false
        }
      ],
      "logsBloom": "0x0000000000000001020002000000000000100000000000000000000000000000000000080000000000000000000400000000000080020000000000000024000000000000000000080000000840000000000000000004000000000004000000000000000002000000000000020000080000000000000000004000001000000000000001000000000000000000000040000000000000000000020000000000000002000010000100000000004000000000100000000000000040000000000001000200000200008000000000a040000050020000000000001000000000000160000010000000000080001000000000000040000000000000000000400000800000",
      "type": "0x0",
      "transactionHash": "0x234e79ba1ed96b7f0611c0d8746a4dbe30c3458b9bba125e240b54888f68a809",
      "transactionIndex": "0x5",
      "blockHash": "0xd035ec0bfee3f320dbf3aa0348961e5e6c9d85add63670dbd9d299434bb99cbc",
      "blockNumber": "0x2036e5c",
      "gasUsed": "0x382c6",
      "effectiveGasPrice": "0x5d22cfc40",
      "from": "0x3a4db9e7306af09012ceb0f222d581fd1f0c6d71",
      "to": "0xc2a61494430f6a99d5f024ab6e76b1633c7c13c0",
      "contractAddress": null,
      "l1BaseFeeScalar": "0x0",
      "l1BlobBaseFee": "0xbb539dca",
      "l1BlobBaseFeeScalar": "0x0",
      "l1Fee": "0x0",
      "l1GasPrice": "0x5856d3fe",
      "l1GasUsed": "0x640"
    },
    {
      "status": "0x1",
      "cumulativeGasUsed": "0x1160a5",
      "logs": [
        {
          "address": "0xdbe517c0fa6467873b684eccbed77217e471e862",
          "topics": [
            "0xddf252ad1be2c89b69c2b068fc378daa952ba7f163c4a11628f55a4df523b3ef",
            "0x0000000000000000000000000000000000000000000000000000000000000000",
            "0x000000000000000000000000c2a61494430f6a99d5f024ab6e76b1633c7c13c0"
          ],
          "data": "0x000000000000000000000000000000000000000000000000000000000001e848",
          "blockHash": "0xd035ec0bfee3f320dbf3aa0348961e5e6c9d85add63670dbd9d299434bb99cbc",
          "blockNumber": "0x2036e5c",
          "transactionHash": "0x78f41a19663172742a0f7a4d3dd354d284f579c2b5e08b05897a510f481b187b",
          "transactionIndex": "0x6",
          "logIndex": "0x14",
          "removed": false
        },
        {
          "address": "0xdbe517c0fa6467873b684eccbed77217e471e862",
          "topics": [
            "0x458f5fa412d0f69b08dd84872b0215675cc67bc1d5b6fd93300a1c3878b86196",
            "0x000000000000000000000000c2a61494430f6a99d5f024ab6e76b1633c7c13c0",
            "0x000000000000000000000000c2a61494430f6a99d5f024ab6e76b1633c7c13c0"
          ],
          "data": "0x000000000000000000000000000000000000000000000000000000000001e84800000000000000000000000000000000000000000000000000000000000000000000000000000000000000000000000000000000033c4f003c117d9731a09320",
          "blockHash": "0xd035ec0bfee3f320dbf3aa0348961e5e6c9d85add63670dbd9d299434bb99cbc",
          "blockNumber": "0x2036e5c",
          "transactionHash": "0x78f41a19663172742a0f7a4d3dd354d284f579c2b5e08b05897a510f481b187b",
          "transactionIndex": "0x6",
          "logIndex": "0x15",
          "removed": false
        },
        {
          "address": "0x3e59a31363e2ad014dcbc521c4a0d5757d9f3402",
          "topics": [
            "0x804c9b842b2748a22bb64b345453a3de7ca54a6ca45ce00d415894979e22897a",
            "0x000000000000000000000000ceba9300f2b948710d2653dd7b07f33a8b32118c"
          ],
          "data": "0x00000000000000000000000000000000000000000000d50bbcf64abbb441f0f0000000000000000000000000000000000000000000000000000000000000000000000000000000000000000000000000000000000007b68710a5b57ab5c198460000000000000000000000000000000000000000033b68b92f342a124279c7960000000000000000000000000000000000000000033c4f003c117d9731a09320",
          "blockHash": "0xd035ec0bfee3f320dbf3aa0348961e5e6c9d85add63670dbd9d299434bb99cbc",
          "blockNumber": "0x2036e5c",
          "transactionHash": "0x78f41a19663172742a0f7a4d3dd354d284f579c2b5e08b05897a510f481b187b",
          "transactionIndex": "0x6",
          "logIndex": "0x16",
          "removed": false
        },
        {
          "address": "0xceba9300f2b948710d2653dd7b07f33a8b32118c",
          "topics": [
            "0xddf252ad1be2c89b69c2b068fc378daa952ba7f163c4a11628f55a4df523b3ef",
            "0x000000000000000000000000ff8309b9e99bfd2d4021bc71a362abd93dbd4785",
            "0x000000000000000000000000c2a61494430f6a99d5f024ab6e76b1633c7c13c0"
          ],
          "data": "0x000000000000000000000000000000000000000000000000000000000001e848",
          "blockHash": "0xd035ec0bfee3f320dbf3aa0348961e5e6c9d85add63670dbd9d299434bb99cbc",
          "blockNumber": "0x2036e5c",
          "transactionHash": "0x78f41a19663172742a0f7a4d3dd354d284f579c2b5e08b05897a510f481b187b",
          "transactionIndex": "0x6",
          "logIndex": "0x17",
          "removed": false
        },
        {
          "address": "0x3e59a31363e2ad014dcbc521c4a0d5757d9f3402",
          "topics": [
            "0xb3d084820fb1a9decffb176436bd02558d15fac9b0ddfed8c465bc7359d7dce0",
            "0x000000000000000000000000ceba9300f2b948710d2653dd7b07f33a8b32118c",
            "0x000000000000000000000000c2a61494430f6a99d5f024ab6e76b1633c7c13c0",
            "0x0000000000000000000000000000000000000000000000000000000000000000"
          ],
          "data": "0x000000000000000000000000c2a61494430f6a99d5f024ab6e76b1633c7c13c0000000000000000000000000000000000000000000000000000000000001e848000000000000000000000000000000000000000000000000000000000000000200000000000000000000000000000000000000000007b68710a5b57ab5c19846",
          "blockHash": "0xd035ec0bfee3f320dbf3aa0348961e5e6c9d85add63670dbd9d299434bb99cbc",
          "blockNumber": "0x2036e5c",
          "transactionHash": "0x78f41a19663172742a0f7a4d3dd354d284f579c2b5e08b05897a510f481b187b",
          "transactionIndex": "0x6",
          "logIndex": "0x18",
          "removed": false
        },
        {
          "address": "0xceba9300f2b948710d2653dd7b07f33a8b32118c",
          "topics": [
            "0xddf252ad1be2c89b69c2b068fc378daa952ba7f163c4a11628f55a4df523b3ef",
            "0x000000000000000000000000c2a61494430f6a99d5f024ab6e76b1633c7c13c0",
            "0x0000000000000000000000003a4db9e7306af09012ceb0f222d581fd1f0c6d71"
          ],
          "data": "0x000000000000000000000000000000000000000000000000000000000001e848",
          "blockHash": "0xd035ec0bfee3f320dbf3aa0348961e5e6c9d85add63670dbd9d299434bb99cbc",
          "blockNumber": "0x2036e5c",
          "transactionHash": "0x78f41a19663172742a0f7a4d3dd354d284f579c2b5e08b05897a510f481b187b",
          "transactionIndex": "0x6",
          "logIndex": "0x19",
          "removed": false
        },
        {
          "address": "0xc2a61494430f6a99d5f024ab6e76b1633c7c13c0",
          "topics": [
            "0xf3a2c404b3362c4238317c3dad1020c2e9e984ba8df38a4a1ff18d57e92a242a",
            "0x0000000000000000000000000000000000000000000000000000000000000001"
          ],
          "data": "0x000000000000000000000000000000000000000000000000000000000001e848",
          "blockHash": "0xd035ec0bfee3f320dbf3aa0348961e5e6c9d85add63670dbd9d299434bb99cbc",
          "blockNumber": "0x2036e5c",
          "transactionHash": "0x78f41a19663172742a0f7a4d3dd354d284f579c2b5e08b05897a510f481b187b",
          "transactionIndex": "0x6",
          "logIndex": "0x1a",
          "removed": false
        }
      ],
      "logsBloom": "0x00000000000000000000100000400000000000000000000000000000000000000000000000000000000000000004400000100000800000000000000000040000000000008000000000000008400000000000000000040000000000040000000000000000020000000000000200000800000000000000000000000010000000000000000000000010000000000000400000000000000000002200000000000000000001000000000000000000000000000000000000000000400000000000010002000002000081200000022000000000020000400000041000000000000060000000000000004010001800000001000000000000000000000800000000800000",
      "type": "0x0",
      "transactionHash": "0x78f41a19663172742a0f7a4d3dd354d284f579c2b5e08b05897a510f481b187b",
      "transactionIndex": "0x6",
      "blockHash": "0xd035ec0bfee3f320dbf3aa0348961e5e6c9d85add63670dbd9d299434bb99cbc",
      "blockNumber": "0x2036e5c",
      "gasUsed": "0x59c47",
      "effectiveGasPrice": "0x5d22cfc40",
      "from": "0x3a4db9e7306af09012ceb0f222d581fd1f0c6d71",
      "to": "0xc2a61494430f6a99d5f024ab6e76b1633c7c13c0",
      "contractAddress": null,
      "l1BaseFeeScalar": "0x0",
      "l1BlobBaseFee": "0xbb539dca",
      "l1BlobBaseFeeScalar": "0x0",
      "l1Fee": "0x0",
      "l1GasPrice": "0x5856d3fe",
      "l1GasUsed": "0x640"
    },
    {
      "status": "0x1",
      "cumulativeGasUsed": "0x123932",
      "logs": [
        {
          "address": "0xceba9300f2b948710d2653dd7b07f33a8b32118c",
          "topics": [
            "0x8c5be1e5ebec7d5bd14f71427d1e84f3dd0314c0f7b2291e5b200ac8c7c3b925",
            "0x0000000000000000000000003a4db9e7306af09012ceb0f222d581fd1f0c6d71",
            "0x000000000000000000000000c2a61494430f6a99d5f024ab6e76b1633c7c13c0"
          ],
          "data": "0x000000000000000000000000000000000000000000000000000000000002dc6c",
          "blockHash": "0xd035ec0bfee3f320dbf3aa0348961e5e6c9d85add63670dbd9d299434bb99cbc",
          "blockNumber": "0x2036e5c",
          "transactionHash": "0x47ac64cd4edae43422ad3ddae1228c909987f0ad4339c8377dd7db6abffb66ad",
          "transactionIndex": "0x7",
          "logIndex": "0x1b",
          "removed": false
        }
      ],
      "logsBloom": "0x00000000000000000000100000000000000000000000000000000000000000000000000000000000000000000000000000000000000000000000000000200000000000000000000000000000000000000000000000000000000000000000000000000000000000000000000000000000000000000000000000000000000000000000000000000000000000000000400000000000000000000000000000000000020000000000000000000000000000000000000000000000000000000000000000000000000080000000020000000000020000000000001000000000000000000010000000000000001800000000000000000000000000000000000000800000",
      "type": "0x0",
      "transactionHash": "0x47ac64cd4edae43422ad3ddae1228c909987f0ad4339c8377dd7db6abffb66ad",
      "transactionIndex": "0x7",
      "blockHash": "0xd035ec0bfee3f320dbf3aa0348961e5e6c9d85add63670dbd9d299434bb99cbc",
      "blockNumber": "0x2036e5c",
      "gasUsed": "0xd88d",
      "effectiveGasPrice": "0x5d22cfc40",
      "from": "0x3a4db9e7306af09012ceb0f222d581fd1f0c6d71",
      "to": "0xceba9300f2b948710d2653dd7b07f33a8b32118c",
      "contractAddress": null,
      "l1BaseFeeScalar": "0x0",
      "l1BlobBaseFee": "0xbb539dca",
      "l1BlobBaseFeeScalar": "0x0",
      "l1Fee": "0x0",
      "l1GasPrice": "0x5856d3fe",
      "l1GasUsed": "0x640"
    },
    {
      "status": "0x1",
      "cumulativeGasUsed": "0x156515",
      "logs": [
        {
          "address": "0xceba9300f2b948710d2653dd7b07f33a8b32118c",
          "topics": [
            "0xddf252ad1be2c89b69c2b068fc378daa952ba7f163c4a11628f55a4df523b3ef",
            "0x0000000000000000000000003a4db9e7306af09012ceb0f222d581fd1f0c6d71",
            "0x000000000000000000000000c2a61494430f6a99d5f024ab6e76b1633c7c13c0"
          ],
          "data": "0x000000000000000000000000000000000000000000000000000000000002dc6c",
          "blockHash": "0xd035ec0bfee3f320dbf3aa0348961e5e6c9d85add63670dbd9d299434bb99cbc",
          "blockNumber": "0x2036e5c",
          "transactionHash": "0xbb794e46fd63927d584fad282867b1bcadbf3ebee43af718a09ee0d56d706d66",
          "transactionIndex": "0x8",
          "logIndex": "0x1c",
          "removed": false
        },
        {
          "address": "0xceba9300f2b948710d2653dd7b07f33a8b32118c",
          "topics": [
            "0x8c5be1e5ebec7d5bd14f71427d1e84f3dd0314c0f7b2291e5b200ac8c7c3b925",
            "0x000000000000000000000000c2a61494430f6a99d5f024ab6e76b1633c7c13c0",
            "0x0000000000000000000000003e59a31363e2ad014dcbc521c4a0d5757d9f3402"
          ],
          "data": "0x000000000000000000000000000000000000000000000000000000000002dc6c",
          "blockHash": "0xd035ec0bfee3f320dbf3aa0348961e5e6c9d85add63670dbd9d299434bb99cbc",
          "blockNumber": "0x2036e5c",
          "transactionHash": "0xbb794e46fd63927d584fad282867b1bcadbf3ebee43af718a09ee0d56d706d66",
          "transactionIndex": "0x8",
          "logIndex": "0x1d",
          "removed": false
        },
        {
          "address": "0xdbe517c0fa6467873b684eccbed77217e471e862",
          "topics": [
            "0xddf252ad1be2c89b69c2b068fc378daa952ba7f163c4a11628f55a4df523b3ef",
            "0x000000000000000000000000c2a61494430f6a99d5f024ab6e76b1633c7c13c0",
            "0x0000000000000000000000000000000000000000000000000000000000000000"
          ],
          "data": "0x000000000000000000000000000000000000000000000000000000000002dc6c",
          "blockHash": "0xd035ec0bfee3f320dbf3aa0348961e5e6c9d85add63670dbd9d299434bb99cbc",
          "blockNumber": "0x2036e5c",
          "transactionHash": "0xbb794e46fd63927d584fad282867b1bcadbf3ebee43af718a09ee0d56d706d66",
          "transactionIndex": "0x8",
          "logIndex": "0x1e",
          "removed": false
        },
        {
          "address": "0xdbe517c0fa6467873b684eccbed77217e471e862",
          "topics": [
            "0x4cf25bc1d991c17529c25213d3cc0cda295eeaad5f13f361969b12ea48015f90",
            "0x000000000000000000000000c2a61494430f6a99d5f024ab6e76b1633c7c13c0",
            "0x0000000000000000000000000000000000000000000000000000000000000000"
          ],
          "data": "0x000000000000000000000000000000000000000000000000000000000002dc6c00000000000000000000000000000000000000000000000000000000000000000000000000000000000000000000000000000000033c4f003c117d9731a09320",
          "blockHash": "0xd035ec0bfee3f320dbf3aa0348961e5e6c9d85add63670dbd9d299434bb99cbc",
          "blockNumber": "0x2036e5c",
          "transactionHash": "0xbb794e46fd63927d584fad282867b1bcadbf3ebee43af718a09ee0d56d706d66",
          "transactionIndex": "0x8",
          "logIndex": "0x1f",
          "removed": false
        },
        {
          "address": "0x3e59a31363e2ad014dcbc521c4a0d5757d9f3402",
          "topics": [
            "0x804c9b842b2748a22bb64b345453a3de7ca54a6ca45ce00d415894979e22897a",
            "0x000000000000000000000000ceba9300f2b948710d2653dd7b07f33a8b32118c"
          ],
          "data": "0x00000000000000000000000000000000000000000000d50b88c4e7f1f1cb4b69000000000000000000000000000000000000000000000000000000000000000000000000000000000000000000000000000000000007b6861ec8677f45fbe46e0000000000000000000000000000000000000000033b68b92f342a124279c7960000000000000000000000000000000000000000033c4f003c117d9731a09320",
          "blockHash": "0xd035ec0bfee3f320dbf3aa0348961e5e6c9d85add63670dbd9d299434bb99cbc",
          "blockNumber": "0x2036e5c",
          "transactionHash": "0xbb794e46fd63927d584fad282867b1bcadbf3ebee43af718a09ee0d56d706d66",
          "transactionIndex": "0x8",
          "logIndex": "0x20",
          "removed": false
        },
        {
          "address": "0xceba9300f2b948710d2653dd7b07f33a8b32118c",
          "topics": [
            "0xddf252ad1be2c89b69c2b068fc378daa952ba7f163c4a11628f55a4df523b3ef",
            "0x000000000000000000000000c2a61494430f6a99d5f024ab6e76b1633c7c13c0",
            "0x000000000000000000000000ff8309b9e99bfd2d4021bc71a362abd93dbd4785"
          ],
          "data": "0x000000000000000000000000000000000000000000000000000000000002dc6c",
          "blockHash": "0xd035ec0bfee3f320dbf3aa0348961e5e6c9d85add63670dbd9d299434bb99cbc",
          "blockNumber": "0x2036e5c",
          "transactionHash": "0xbb794e46fd63927d584fad282867b1bcadbf3ebee43af718a09ee0d56d706d66",
          "transactionIndex": "0x8",
          "logIndex": "0x21",
          "removed": false
        },
        {
          "address": "0x3e59a31363e2ad014dcbc521c4a0d5757d9f3402",
          "topics": [
            "0xa534c8dbe71f871f9f3530e97a74601fea17b426cae02e1c5aee42c96c784051",
            "0x000000000000000000000000ceba9300f2b948710d2653dd7b07f33a8b32118c",
            "0x000000000000000000000000c2a61494430f6a99d5f024ab6e76b1633c7c13c0",
            "0x000000000000000000000000c2a61494430f6a99d5f024ab6e76b1633c7c13c0"
          ],
          "data": "0x000000000000000000000000000000000000000000000000000000000002dc6c0000000000000000000000000000000000000000000000000000000000000000",
          "blockHash": "0xd035ec0bfee3f320dbf3aa0348961e5e6c9d85add63670dbd9d299434bb99cbc",
          "blockNumber": "0x2036e5c",
          "transactionHash": "0xbb794e46fd63927d584fad282867b1bcadbf3ebee43af718a09ee0d56d706d66",
          "transactionIndex": "0x8",
          "logIndex": "0x22",
          "removed": false
        },
        {
          "address": "0xc2a61494430f6a99d5f024ab6e76b1633c7c13c0",
          "topics": [
            "0x0d4979b0859a1951f8ed7cbe3b1994e740552588f27ba02ca0f8f1ddcad16e0c",
            "0x0000000000000000000000000000000000000000000000000000000000000001"
          ],
          "data": "0x000000000000000000000000000000000000000000000000000000000002dc6c",
          "blockHash": "0xd035ec0bfee3f320dbf3aa0348961e5e6c9d85add63670dbd9d299434bb99cbc",
          "blockNumber": "0x2036e5c",
          "transactionHash": "0xbb794e46fd63927d584fad282867b1bcadbf3ebee43af718a09ee0d56d706d66",
          "transactionIndex": "0x8",
          "logIndex": "0x23",
          "removed": false
        }
      ],
      "logsBloom": "0x10000000000000010000120010400000000000000000000000000000000000000000000000000000000000000000400000110000c00000000000000000240000000000008000000000000008400000000000002000040000000000000000000080000000020000000000000200000800000000000000000000000010000000000000000000000000000000000000400000000000000000002200000000000000020001100000000000000000000000000000000000000000400000000000010000000002000080200000022000000000020000000000001000000000000060040010100000004010001800000000000000000000000000000000000000840000",
      "type": "0x0",
      "transactionHash": "0xbb794e46fd63927d584fad282867b1bcadbf3ebee43af718a09ee0d56d706d66",
      "transactionIndex": "0x8",
      "blockHash": "0xd035ec0bfee3f320dbf3aa0348961e5e6c9d85add63670dbd9d299434bb99cbc",
      "blockNumber": "0x2036e5c",
      "gasUsed": "0x32be3",
      "effectiveGasPrice": "0x5d22cfc40",
      "from": "0x3a4db9e7306af09012ceb0f222d581fd1f0c6d71",
      "to": "0xc2a61494430f6a99d5f024ab6e76b1633c7c13c0",
      "contractAddress": null,
      "l1BaseFeeScalar": "0x0",
      "l1BlobBaseFee": "0xbb539dca",
      "l1BlobBaseFeeScalar": "0x0",
      "l1Fee": "0x0",
      "l1GasPrice": "0x5856d3fe",
      "l1GasUsed": "0x640"
    },
    {
      "status": "0x1",
      "cumulativeGasUsed": "0x124f07",
      "logs": [
        {
          "address": "0x3e59a31363e2ad014dcbc521c4a0d5757d9f3402",
          "topics": [
            "0x804c9b842b2748a22bb64b345453a3de7ca54a6ca45ce00d415894979e22897a",
            "0x00000000000000000000000048065fbbe25f71c9282ddf5e1cd6d6a887483d5e"
          ],
          "data": "0x00000000000000000000000000000000000000000000000b15ec60070898d8ab0000000000000000000000000000000000000000000000000000000000000000000000000000000000000000000000000000000000001c268b118f8d354208850000000000000000000000000000000000000000033b5f8e1f6cd8426bd933230000000000000000000000000000000000000000033bcc9f0939578012d79cb7",
          "blockHash": "0x210ef5851bd2cca4b46c680d2351c14743770c8f07638567b222df78174ec460",
          "blockNumber": "0x2036e5d",
          "transactionHash": "0x3929b3679da10f4af53fc80cac9cb4622f91569c845f12942af55ef59576387b",
          "transactionIndex": "0x7",
          "logIndex": "0x1b",
          "removed": false
        },
        {
          "address": "0xdee98402a302e4d707fb9bf2bac66faeec31e8df",
          "topics": [
            "0xddf252ad1be2c89b69c2b068fc378daa952ba7f163c4a11628f55a4df523b3ef",
            "0x000000000000000000000000c2a61494430f6a99d5f024ab6e76b1633c7c13c0",
            "0x0000000000000000000000000000000000000000000000000000000000000000"
          ],
          "data": "0x00000000000000000000000000000000000000000000000000000000000249f0",
          "blockHash": "0x210ef5851bd2cca4b46c680d2351c14743770c8f07638567b222df78174ec460",
          "blockNumber": "0x2036e5d",
          "transactionHash": "0x3929b3679da10f4af53fc80cac9cb4622f91569c845f12942af55ef59576387b",
          "transactionIndex": "0x7",
          "logIndex": "0x1c",
          "removed": false
        },
        {
          "address": "0xdee98402a302e4d707fb9bf2bac66faeec31e8df",
          "topics": [
            "0x4cf25bc1d991c17529c25213d3cc0cda295eeaad5f13f361969b12ea48015f90",
            "0x000000000000000000000000c2a61494430f6a99d5f024ab6e76b1633c7c13c0",
            "0x0000000000000000000000003a4db9e7306af09012ceb0f222d581fd1f0c6d71"
          ],
          "data": "0x00000000000000000000000000000000000000000000000000000000000249f000000000000000000000000000000000000000000000000000000000000000000000000000000000000000000000000000000000033b5f8e1f6cd8426bd93323",
          "blockHash": "0x210ef5851bd2cca4b46c680d2351c14743770c8f07638567b222df78174ec460",
          "blockNumber": "0x2036e5d",
          "transactionHash": "0x3929b3679da10f4af53fc80cac9cb4622f91569c845f12942af55ef59576387b",
          "transactionIndex": "0x7",
          "logIndex": "0x1d",
          "removed": false
        },
        {
          "address": "0x48065fbbe25f71c9282ddf5e1cd6d6a887483d5e",
          "topics": [
            "0xddf252ad1be2c89b69c2b068fc378daa952ba7f163c4a11628f55a4df523b3ef",
            "0x000000000000000000000000dee98402a302e4d707fb9bf2bac66faeec31e8df",
            "0x0000000000000000000000003a4db9e7306af09012ceb0f222d581fd1f0c6d71"
          ],
          "data": "0x00000000000000000000000000000000000000000000000000000000000249f0",
          "blockHash": "0x210ef5851bd2cca4b46c680d2351c14743770c8f07638567b222df78174ec460",
          "blockNumber": "0x2036e5d",
          "transactionHash": "0x3929b3679da10f4af53fc80cac9cb4622f91569c845f12942af55ef59576387b",
          "transactionIndex": "0x7",
          "logIndex": "0x1e",
          "removed": false
        },
        {
          "address": "0x3e59a31363e2ad014dcbc521c4a0d5757d9f3402",
          "topics": [
            "0x3115d1449a7b732c986cba18244e897a450f61e1bb8d589cd2e69e6c8924f9f7",
            "0x00000000000000000000000048065fbbe25f71c9282ddf5e1cd6d6a887483d5e",
            "0x000000000000000000000000c2a61494430f6a99d5f024ab6e76b1633c7c13c0",
            "0x0000000000000000000000003a4db9e7306af09012ceb0f222d581fd1f0c6d71"
          ],
          "data": "0x00000000000000000000000000000000000000000000000000000000000249f0",
          "blockHash": "0x210ef5851bd2cca4b46c680d2351c14743770c8f07638567b222df78174ec460",
          "blockNumber": "0x2036e5d",
          "transactionHash": "0x3929b3679da10f4af53fc80cac9cb4622f91569c845f12942af55ef59576387b",
          "transactionIndex": "0x7",
          "logIndex": "0x1f",
          "removed": false
        },
        {
          "address": "0xc2a61494430f6a99d5f024ab6e76b1633c7c13c0",
          "topics": [
            "0x2399e8aed1977410745a5211d8226a3a7d9278f50a8a197c5ec6e285bb437f0b",
            "0x0000000000000000000000000000000000000000000000000000000000000001"
          ],
          "data": "0x00000000000000000000000000000000000000000000000000000000000249f0",
          "blockHash": "0x210ef5851bd2cca4b46c680d2351c14743770c8f07638567b222df78174ec460",
          "blockNumber": "0x2036e5d",
          "transactionHash": "0x3929b3679da10f4af53fc80cac9cb4622f91569c845f12942af55ef59576387b",
          "transactionIndex": "0x7",
          "logIndex": "0x20",
          "removed": false
        }
      ],
      "logsBloom": "0x1000000000000000020000000000000000900000000000000000000000000000000000080000000000000000000000000001000080000000000000000004000000000000000000080000000840000000000000000004000000000000000000000000000002000000000000020000080000000000002002004000001000000000000001000000000000000000000040000000000000006000020000000000000000000000008100000000004000000000100000000000000040000000000001000000000200008000000000a000000040020000000000001000000000000160040000000000000000001000000000000000000000000000000000000000800000",
      "type": "0x0",
      "transactionHash": "0x3929b3679da10f4af53fc80cac9cb4622f91569c845f12942af55ef59576387b",
      "transactionIndex": "0x7",
      "blockHash": "0x210ef5851bd2cca4b46c680d2351c14743770c8f07638567b222df78174ec460",
      "blockNumber": "0x2036e5d",
      "gasUsed": "0x53617",
      "effectiveGasPrice": "0x5d22cfc40",
      "from": "0x3a4db9e7306af09012ceb0f222d581fd1f0c6d71",
      "to": "0xc2a61494430f6a99d5f024ab6e76b1633c7c13c0",
      "contractAddress": null,
      "l1BaseFeeScalar": "0x0",
      "l1BlobBaseFee": "0xbb539dca",
      "l1BlobBaseFeeScalar": "0x0",
      "l1Fee": "0x0",
      "l1GasPrice": "0x5856d3fe",
      "l1GasUsed": "0x640"
    },
    {
      "status": "0x1",
      "cumulativeGasUsed": "0x1327a0",
      "logs": [
        {
          "address": "0xceba9300f2b948710d2653dd7b07f33a8b32118c",
          "topics": [
            "0x8c5be1e5ebec7d5bd14f71427d1e84f3dd0314c0f7b2291e5b200ac8c7c3b925",
            "0x0000000000000000000000003a4db9e7306af09012ceb0f222d581fd1f0c6d71",
            "0x000000000000000000000000c2a61494430f6a99d5f024ab6e76b1633c7c13c0"
          ],
          "data": "0x00000000000000000000000000000000000000000000000000000000011e1a30",
          "blockHash": "0x210ef5851bd2cca4b46c680d2351c14743770c8f07638567b222df78174ec460",
          "blockNumber": "0x2036e5d",
          "transactionHash": "0x37e272d3ac57409adc0fee8d1171e585896633f74e2123327d4817bd00650d48",
          "transactionIndex": "0x8",
          "logIndex": "0x21",
          "removed": false
        }
      ],
      "logsBloom": "0x00000000000000000000100000000000000000000000000000000000000000000000000000000000000000000000000000000000000000000000000000200000000000000000000000000000000000000000000000000000000000000000000000000000000000000000000000000000000000000000000000000000000000000000000000000000000000000000400000000000000000000000000000000000020000000000000000000000000000000000000000000000000000000000000000000000000080000000020000000000020000000000001000000000000000000010000000000000001800000000000000000000000000000000000000800000",
      "type": "0x0",
      "transactionHash": "0x37e272d3ac57409adc0fee8d1171e585896633f74e2123327d4817bd00650d48",
      "transactionIndex": "0x8",
      "blockHash": "0x210ef5851bd2cca4b46c680d2351c14743770c8f07638567b222df78174ec460",
      "blockNumber": "0x2036e5d",
      "gasUsed": "0xd899",
      "effectiveGasPrice": "0x5d22cfc40",
      "from": "0x3a4db9e7306af09012ceb0f222d581fd1f0c6d71",
      "to": "0xceba9300f2b948710d2653dd7b07f33a8b32118c",
      "contractAddress": null,
      "l1BaseFeeScalar": "0x0",
      "l1BlobBaseFee": "0xbb539dca",
      "l1BlobBaseFeeScalar": "0x0",
      "l1Fee": "0x0",
      "l1GasPrice": "0x5856d3fe",
      "l1GasUsed": "0x640"
    },
    {
      "status": "0x1",
      "cumulativeGasUsed": "0x125c25",
      "logs": [
        {
          "address": "0xceba9300f2b948710d2653dd7b07f33a8b32118c",
          "topics": [
            "0xddf252ad1be2c89b69c2b068fc378daa952ba7f163c4a11628f55a4df523b3ef",
            "0x0000000000000000000000003a4db9e7306af09012ceb0f222d581fd1f0c6d71",
            "0x000000000000000000000000c2a61494430f6a99d5f024ab6e76b1633c7c13c0"
          ],
          "data": "0x000000000000000000000000000000000000000000000000000000000002dc6c",
          "blockHash": "0x8c83cd52c11cda4916d6c408e398f0f4355d4dd48a4937f619c0b1c2dd603df6",
          "blockNumber": "0x2036e5e",
          "transactionHash": "0xb8e0690b0943026a0467cc1515b84370990a81b442831083ff4c4bb0b566254e",
          "transactionIndex": "0x7",
          "logIndex": "0x20",
          "removed": false
        },
        {
          "address": "0xceba9300f2b948710d2653dd7b07f33a8b32118c",
          "topics": [
            "0x8c5be1e5ebec7d5bd14f71427d1e84f3dd0314c0f7b2291e5b200ac8c7c3b925",
            "0x000000000000000000000000c2a61494430f6a99d5f024ab6e76b1633c7c13c0",
            "0x0000000000000000000000003e59a31363e2ad014dcbc521c4a0d5757d9f3402"
          ],
          "data": "0x000000000000000000000000000000000000000000000000000000000002dc6c",
          "blockHash": "0x8c83cd52c11cda4916d6c408e398f0f4355d4dd48a4937f619c0b1c2dd603df6",
          "blockNumber": "0x2036e5e",
          "transactionHash": "0xb8e0690b0943026a0467cc1515b84370990a81b442831083ff4c4bb0b566254e",
          "transactionIndex": "0x7",
          "logIndex": "0x21",
          "removed": false
        },
        {
          "address": "0xdbe517c0fa6467873b684eccbed77217e471e862",
          "topics": [
            "0xddf252ad1be2c89b69c2b068fc378daa952ba7f163c4a11628f55a4df523b3ef",
            "0x000000000000000000000000c2a61494430f6a99d5f024ab6e76b1633c7c13c0",
            "0x0000000000000000000000000000000000000000000000000000000000000000"
          ],
          "data": "0x000000000000000000000000000000000000000000000000000000000002dc6c",
          "blockHash": "0x8c83cd52c11cda4916d6c408e398f0f4355d4dd48a4937f619c0b1c2dd603df6",
          "blockNumber": "0x2036e5e",
          "transactionHash": "0xb8e0690b0943026a0467cc1515b84370990a81b442831083ff4c4bb0b566254e",
          "transactionIndex": "0x7",
          "logIndex": "0x22",
          "removed": false
        },
        {
          "address": "0xdbe517c0fa6467873b684eccbed77217e471e862",
          "topics": [
            "0x4cf25bc1d991c17529c25213d3cc0cda295eeaad5f13f361969b12ea48015f90",
            "0x000000000000000000000000c2a61494430f6a99d5f024ab6e76b1633c7c13c0",
            "0x0000000000000000000000000000000000000000000000000000000000000000"
          ],
          "data": "0x000000000000000000000000000000000000000000000000000000000002dc6c00000000000000000000000000000000000000000000000000000000000000000000000000000000000000000000000000000000033c4f00444941c671b90c30",
          "blockHash": "0x8c83cd52c11cda4916d6c408e398f0f4355d4dd48a4937f619c0b1c2dd603df6",
          "blockNumber": "0x2036e5e",
          "transactionHash": "0xb8e0690b0943026a0467cc1515b84370990a81b442831083ff4c4bb0b566254e",
          "transactionIndex": "0x7",
          "logIndex": "0x23",
          "removed": false
        },
        {
          "address": "0x3e59a31363e2ad014dcbc521c4a0d5757d9f3402",
          "topics": [
            "0x804c9b842b2748a22bb64b345453a3de7ca54a6ca45ce00d415894979e22897a",
            "0x000000000000000000000000ceba9300f2b948710d2653dd7b07f33a8b32118c"
          ],
          "data": "0x00000000000000000000000000000000000000000000d50b54973ed59c1c0ddc000000000000000000000000000000000000000000000000000000000000000000000000000000000000000000000000000000000007b6852cfc3f49afcaeee30000000000000000000000000000000000000000033b68b93016e862834583730000000000000000000000000000000000000000033c4f00444941c671b90c30",
          "blockHash": "0x8c83cd52c11cda4916d6c408e398f0f4355d4dd48a4937f619c0b1c2dd603df6",
          "blockNumber": "0x2036e5e",
          "transactionHash": "0xb8e0690b0943026a0467cc1515b84370990a81b442831083ff4c4bb0b566254e",
          "transactionIndex": "0x7",
          "logIndex": "0x24",
          "removed": false
        },
        {
          "address": "0xceba9300f2b948710d2653dd7b07f33a8b32118c",
          "topics": [
            "0xddf252ad1be2c89b69c2b068fc378daa952ba7f163c4a11628f55a4df523b3ef",
            "0x000000000000000000000000c2a61494430f6a99d5f024ab6e76b1633c7c13c0",
            "0x000000000000000000000000ff8309b9e99bfd2d4021bc71a362abd93dbd4785"
          ],
          "data": "0x000000000000000000000000000000000000000000000000000000000002dc6c",
          "blockHash": "0x8c83cd52c11cda4916d6c408e398f0f4355d4dd48a4937f619c0b1c2dd603df6",
          "blockNumber": "0x2036e5e",
          "transactionHash": "0xb8e0690b0943026a0467cc1515b84370990a81b442831083ff4c4bb0b566254e",
          "transactionIndex": "0x7",
          "logIndex": "0x25",
          "removed": false
        },
        {
          "address": "0x3e59a31363e2ad014dcbc521c4a0d5757d9f3402",
          "topics": [
            "0xa534c8dbe71f871f9f3530e97a74601fea17b426cae02e1c5aee42c96c784051",
            "0x000000000000000000000000ceba9300f2b948710d2653dd7b07f33a8b32118c",
            "0x000000000000000000000000c2a61494430f6a99d5f024ab6e76b1633c7c13c0",
            "0x000000000000000000000000c2a61494430f6a99d5f024ab6e76b1633c7c13c0"
          ],
          "data": "0x000000000000000000000000000000000000000000000000000000000002dc6c0000000000000000000000000000000000000000000000000000000000000000",
          "blockHash": "0x8c83cd52c11cda4916d6c408e398f0f4355d4dd48a4937f619c0b1c2dd603df6",
          "blockNumber": "0x2036e5e",
          "transactionHash": "0xb8e0690b0943026a0467cc1515b84370990a81b442831083ff4c4bb0b566254e",
          "transactionIndex": "0x7",
          "logIndex": "0x26",
          "removed": false
        },
        {
          "address": "0xc2a61494430f6a99d5f024ab6e76b1633c7c13c0",
          "topics": [
            "0x0d4979b0859a1951f8ed7cbe3b1994e740552588f27ba02ca0f8f1ddcad16e0c",
            "0x0000000000000000000000000000000000000000000000000000000000000001"
          ],
          "data": "0x000000000000000000000000000000000000000000000000000000000002dc6c",
          "blockHash": "0x8c83cd52c11cda4916d6c408e398f0f4355d4dd48a4937f619c0b1c2dd603df6",
          "blockNumber": "0x2036e5e",
          "transactionHash": "0xb8e0690b0943026a0467cc1515b84370990a81b442831083ff4c4bb0b566254e",
          "transactionIndex": "0x7",
          "logIndex": "0x27",
          "removed": false
        }
      ],
      "logsBloom": "0x10000000000000010000120010400000000000000000000000000000000000000000000000000000000000000000400000110000c00000000000000000240000000000008000000000000008400000000000002000040000000000000000000080000000020000000000000200000800000000000000000000000010000000000000000000000000000000000000400000000000000000002200000000000000020001100000000000000000000000000000000000000000400000000000010000000002000080200000022000000000020000000000001000000000000060040010100000004010001800000000000000000000000000000000000000840000",
      "type": "0x0",
      "transactionHash": "0xb8e0690b0943026a0467cc1515b84370990a81b442831083ff4c4bb0b566254e",
      "transactionIndex": "0x7",
      "blockHash": "0x8c83cd52c11cda4916d6c408e398f0f4355d4dd48a4937f619c0b1c2dd603df6",
      "blockNumber": "0x2036e5e",
      "gasUsed": "0x35f64",
      "effectiveGasPrice": "0x5d22cfc40",
      "from": "0x3a4db9e7306af09012ceb0f222d581fd1f0c6d71",
      "to": "0xc2a61494430f6a99d5f024ab6e76b1633c7c13c0",
      "contractAddress": null,
      "l1BaseFeeScalar": "0x0",
      "l1BlobBaseFee": "0xbb539dca",
      "l1BlobBaseFeeScalar": "0x0",
      "l1Fee": "0x0",
      "l1GasPrice": "0x5856d3fe",
      "l1GasUsed": "0x640"
    },
    {
      "status": "0x1",
      "cumulativeGasUsed": "0x1639ac",
      "logs": [
        {
          "address": "0x3e59a31363e2ad014dcbc521c4a0d5757d9f3402",
          "topics": [
            "0x804c9b842b2748a22bb64b345453a3de7ca54a6ca45ce00d415894979e22897a",
            "0x00000000000000000000000048065fbbe25f71c9282ddf5e1cd6d6a887483d5e"
          ],
          "data": "0x00000000000000000000000000000000000000000000000b15ecabc450621e820000000000000000000000000000000000000000000000000000000000000000000000000000000000000000000000000000000000001c268b71b9d8f963e0220000000000000000000000000000000000000000033b5f8e1f6cde288dcb7e800000000000000000000000000000000000000000033bcc9f0948544373094d1c",
          "blockHash": "0x8c83cd52c11cda4916d6c408e398f0f4355d4dd48a4937f619c0b1c2dd603df6",
          "blockNumber": "0x2036e5e",
          "transactionHash": "0xe7425a136a1628e61fc278ec9d15d2ed14522524767cb57d9fd0e7a89f833777",
          "transactionIndex": "0x8",
          "logIndex": "0x28",
          "removed": false
        },
        {
          "address": "0xdee98402a302e4d707fb9bf2bac66faeec31e8df",
          "topics": [
            "0xddf252ad1be2c89b69c2b068fc378daa952ba7f163c4a11628f55a4df523b3ef",
            "0x000000000000000000000000c2a61494430f6a99d5f024ab6e76b1633c7c13c0",
            "0x0000000000000000000000000000000000000000000000000000000000000000"
          ],
          "data": "0x00000000000000000000000000000000000000000000000000000000000927c0",
          "blockHash": "0x8c83cd52c11cda4916d6c408e398f0f4355d4dd48a4937f619c0b1c2dd603df6",
          "blockNumber": "0x2036e5e",
          "transactionHash": "0xe7425a136a1628e61fc278ec9d15d2ed14522524767cb57d9fd0e7a89f833777",
          "transactionIndex": "0x8",
          "logIndex": "0x29",
          "removed": false
        },
        {
          "address": "0xdee98402a302e4d707fb9bf2bac66faeec31e8df",
          "topics": [
            "0x4cf25bc1d991c17529c25213d3cc0cda295eeaad5f13f361969b12ea48015f90",
            "0x000000000000000000000000c2a61494430f6a99d5f024ab6e76b1633c7c13c0",
            "0x0000000000000000000000003a4db9e7306af09012ceb0f222d581fd1f0c6d71"
          ],
          "data": "0x00000000000000000000000000000000000000000000000000000000000927c000000000000000000000000000000000000000000000000000000000000000000000000000000000000000000000000000000000033b5f8e1f6cde288dcb7e80",
          "blockHash": "0x8c83cd52c11cda4916d6c408e398f0f4355d4dd48a4937f619c0b1c2dd603df6",
          "blockNumber": "0x2036e5e",
          "transactionHash": "0xe7425a136a1628e61fc278ec9d15d2ed14522524767cb57d9fd0e7a89f833777",
          "transactionIndex": "0x8",
          "logIndex": "0x2a",
          "removed": false
        },
        {
          "address": "0x48065fbbe25f71c9282ddf5e1cd6d6a887483d5e",
          "topics": [
            "0xddf252ad1be2c89b69c2b068fc378daa952ba7f163c4a11628f55a4df523b3ef",
            "0x000000000000000000000000dee98402a302e4d707fb9bf2bac66faeec31e8df",
            "0x0000000000000000000000003a4db9e7306af09012ceb0f222d581fd1f0c6d71"
          ],
          "data": "0x00000000000000000000000000000000000000000000000000000000000927c0",
          "blockHash": "0x8c83cd52c11cda4916d6c408e398f0f4355d4dd48a4937f619c0b1c2dd603df6",
          "blockNumber": "0x2036e5e",
          "transactionHash": "0xe7425a136a1628e61fc278ec9d15d2ed14522524767cb57d9fd0e7a89f833777",
          "transactionIndex": "0x8",
          "logIndex": "0x2b",
          "removed": false
        },
        {
          "address": "0x3e59a31363e2ad014dcbc521c4a0d5757d9f3402",
          "topics": [
            "0x3115d1449a7b732c986cba18244e897a450f61e1bb8d589cd2e69e6c8924f9f7",
            "0x00000000000000000000000048065fbbe25f71c9282ddf5e1cd6d6a887483d5e",
            "0x000000000000000000000000c2a61494430f6a99d5f024ab6e76b1633c7c13c0",
            "0x0000000000000000000000003a4db9e7306af09012ceb0f222d581fd1f0c6d71"
          ],
          "data": "0x00000000000000000000000000000000000000000000000000000000000927c0",
          "blockHash": "0x8c83cd52c11cda4916d6c408e398f0f4355d4dd48a4937f619c0b1c2dd603df6",
          "blockNumber": "0x2036e5e",
          "transactionHash": "0xe7425a136a1628e61fc278ec9d15d2ed14522524767cb57d9fd0e7a89f833777",
          "transactionIndex": "0x8",
          "logIndex": "0x2c",
          "removed": false
        },
        {
          "address": "0xc2a61494430f6a99d5f024ab6e76b1633c7c13c0",
          "topics": [
            "0x2399e8aed1977410745a5211d8226a3a7d9278f50a8a197c5ec6e285bb437f0b",
            "0x0000000000000000000000000000000000000000000000000000000000000001"
          ],
          "data": "0x00000000000000000000000000000000000000000000000000000000000927c0",
          "blockHash": "0x8c83cd52c11cda4916d6c408e398f0f4355d4dd48a4937f619c0b1c2dd603df6",
          "blockNumber": "0x2036e5e",
          "transactionHash": "0xe7425a136a1628e61fc278ec9d15d2ed14522524767cb57d9fd0e7a89f833777",
          "transactionIndex": "0x8",
          "logIndex": "0x2d",
          "removed": false
        }
      ],
      "logsBloom": "0x1000000000000000020000000000000000900000000000000000000000000000000000080000000000000000000000000001000080000000000000000004000000000000000000080000000840000000000000000004000000000000000000000000000002000000000000020000080000000000002002004000001000000000000001000000000000000000000040000000000000006000020000000000000000000000008100000000004000000000100000000000000040000000000001000000000200008000000000a000000040020000000000001000000000000160040000000000000000001000000000000000000000000000000000000000800000",
      "type": "0x0",
      "transactionHash": "0xe7425a136a1628e61fc278ec9d15d2ed14522524767cb57d9fd0e7a89f833777",
      "transactionIndex": "0x8",
      "blockHash": "0x8c83cd52c11cda4916d6c408e398f0f4355d4dd48a4937f619c0b1c2dd603df6",
      "blockNumber": "0x2036e5e",
      "gasUsed": "0x3dd87",
      "effectiveGasPrice": "0x5d22cfc40",
      "from": "0x3a4db9e7306af09012ceb0f222d581fd1f0c6d71",
      "to": "0xc2a61494430f6a99d5f024ab6e76b1633c7c13c0",
      "contractAddress": null,
      "l1BaseFeeScalar": "0x0",
      "l1BlobBaseFee": "0xbb539dca",
      "l1BlobBaseFeeScalar": "0x0",
      "l1Fee": "0x0",
      "l1GasPrice": "0x5856d3fe",
      "l1GasUsed": "0x640"
    },
    {
      "status": "0x1",
      "cumulativeGasUsed": "0x19bfa8",
      "logs": [
        {
          "address": "0x3e59a31363e2ad014dcbc521c4a0d5757d9f3402",
          "topics": [
            "0x804c9b842b2748a22bb64b345453a3de7ca54a6ca45ce00d415894979e22897a",
            "0x00000000000000000000000048065fbbe25f71c9282ddf5e1cd6d6a887483d5e"
          ],
          "data": "0x00000000000000000000000000000000000000000000000b15ecabc458a7f2400000000000000000000000000000000000000000000000000000000000000000000000000000000000000000000000000000000000001c268b71b9e37a5d76bf0000000000000000000000000000000000000000033b5f8e1f6cde288dcb7e800000000000000000000000000000000000000000033bcc9f0948544373094d1c",
          "blockHash": "0x8c83cd52c11cda4916d6c408e398f0f4355d4dd48a4937f619c0b1c2dd603df6",
          "blockNumber": "0x2036e5e",
          "transactionHash": "0xaf6a82ce480ce986faff675c6f03278125b574b8767dddeb5a2b5f23256e805b",
          "transactionIndex": "0x9",
          "logIndex": "0x2e",
          "removed": false
        },
        {
          "address": "0x3e59a31363e2ad014dcbc521c4a0d5757d9f3402",
          "topics": [
            "0x44c58d81365b66dd4b1a7f36c25aa97b8c71c361ee4937adc1a00000227db5dd",
            "0x00000000000000000000000048065fbbe25f71c9282ddf5e1cd6d6a887483d5e",
            "0x000000000000000000000000c2a61494430f6a99d5f024ab6e76b1633c7c13c0"
          ],
          "data": "0x",
          "blockHash": "0x8c83cd52c11cda4916d6c408e398f0f4355d4dd48a4937f619c0b1c2dd603df6",
          "blockNumber": "0x2036e5e",
          "transactionHash": "0xaf6a82ce480ce986faff675c6f03278125b574b8767dddeb5a2b5f23256e805b",
          "transactionIndex": "0x9",
          "logIndex": "0x2f",
          "removed": false
        },
        {
          "address": "0xdee98402a302e4d707fb9bf2bac66faeec31e8df",
          "topics": [
            "0xddf252ad1be2c89b69c2b068fc378daa952ba7f163c4a11628f55a4df523b3ef",
            "0x000000000000000000000000c2a61494430f6a99d5f024ab6e76b1633c7c13c0",
            "0x0000000000000000000000000000000000000000000000000000000000000000"
          ],
          "data": "0x0000000000000000000000000000000000000000000000000000000000000001",
          "blockHash": "0x8c83cd52c11cda4916d6c408e398f0f4355d4dd48a4937f619c0b1c2dd603df6",
          "blockNumber": "0x2036e5e",
          "transactionHash": "0xaf6a82ce480ce986faff675c6f03278125b574b8767dddeb5a2b5f23256e805b",
          "transactionIndex": "0x9",
          "logIndex": "0x30",
          "removed": false
        },
        {
          "address": "0xdee98402a302e4d707fb9bf2bac66faeec31e8df",
          "topics": [
            "0x4cf25bc1d991c17529c25213d3cc0cda295eeaad5f13f361969b12ea48015f90",
            "0x000000000000000000000000c2a61494430f6a99d5f024ab6e76b1633c7c13c0",
            "0x0000000000000000000000003a4db9e7306af09012ceb0f222d581fd1f0c6d71"
          ],
          "data": "0x000000000000000000000000000000000000000000000000000000000000000100000000000000000000000000000000000000000000000000000000000000000000000000000000000000000000000000000000033b5f8e1f6cde288dcb7e80",
          "blockHash": "0x8c83cd52c11cda4916d6c408e398f0f4355d4dd48a4937f619c0b1c2dd603df6",
          "blockNumber": "0x2036e5e",
          "transactionHash": "0xaf6a82ce480ce986faff675c6f03278125b574b8767dddeb5a2b5f23256e805b",
          "transactionIndex": "0x9",
          "logIndex": "0x31",
          "removed": false
        },
        {
          "address": "0x48065fbbe25f71c9282ddf5e1cd6d6a887483d5e",
          "topics": [
            "0xddf252ad1be2c89b69c2b068fc378daa952ba7f163c4a11628f55a4df523b3ef",
            "0x000000000000000000000000dee98402a302e4d707fb9bf2bac66faeec31e8df",
            "0x0000000000000000000000003a4db9e7306af09012ceb0f222d581fd1f0c6d71"
          ],
          "data": "0x0000000000000000000000000000000000000000000000000000000000000001",
          "blockHash": "0x8c83cd52c11cda4916d6c408e398f0f4355d4dd48a4937f619c0b1c2dd603df6",
          "blockNumber": "0x2036e5e",
          "transactionHash": "0xaf6a82ce480ce986faff675c6f03278125b574b8767dddeb5a2b5f23256e805b",
          "transactionIndex": "0x9",
          "logIndex": "0x32",
          "removed": false
        },
        {
          "address": "0x3e59a31363e2ad014dcbc521c4a0d5757d9f3402",
          "topics": [
            "0x3115d1449a7b732c986cba18244e897a450f61e1bb8d589cd2e69e6c8924f9f7",
            "0x00000000000000000000000048065fbbe25f71c9282ddf5e1cd6d6a887483d5e",
            "0x000000000000000000000000c2a61494430f6a99d5f024ab6e76b1633c7c13c0",
            "0x0000000000000000000000003a4db9e7306af09012ceb0f222d581fd1f0c6d71"
          ],
          "data": "0x0000000000000000000000000000000000000000000000000000000000000001",
          "blockHash": "0x8c83cd52c11cda4916d6c408e398f0f4355d4dd48a4937f619c0b1c2dd603df6",
          "blockNumber": "0x2036e5e",
          "transactionHash": "0xaf6a82ce480ce986faff675c6f03278125b574b8767dddeb5a2b5f23256e805b",
          "transactionIndex": "0x9",
          "logIndex": "0x33",
          "removed": false
        },
        {
          "address": "0xc2a61494430f6a99d5f024ab6e76b1633c7c13c0",
          "topics": [
            "0xcefaf961c5013063cf501ffd9f9382e9b9c4b15741ad032fe93d7e9c7c733b22",
            "0x0000000000000000000000000000000000000000000000000000000000000001",
            "0x0000000000000000000000003a4db9e7306af09012ceb0f222d581fd1f0c6d71"
          ],
          "data": "0x",
          "blockHash": "0x8c83cd52c11cda4916d6c408e398f0f4355d4dd48a4937f619c0b1c2dd603df6",
          "blockNumber": "0x2036e5e",
          "transactionHash": "0xaf6a82ce480ce986faff675c6f03278125b574b8767dddeb5a2b5f23256e805b",
          "transactionIndex": "0x9",
          "logIndex": "0x34",
          "removed": false
        }
      ],
      "logsBloom": "0x1000000000000000020000000000000000902000000000000000000000000000000000080000000000000000000000000001000080000000000000000004000000000000000000088000000840020000000000000004000000000000000000000000000002000000000000020004080000000000000002004000001000000000000001000000000000000000000040000000000008000000020000000000000000000000008100000000004000000000100000000000000040000000000001000000000200008000000000a000000040020000000000001000000000000160040000000000000000001080000000000000000000000000000000000000800000",
      "type": "0x0",
      "transactionHash": "0xaf6a82ce480ce986faff675c6f03278125b574b8767dddeb5a2b5f23256e805b",
      "transactionIndex": "0x9",
      "blockHash": "0x8c83cd52c11cda4916d6c408e398f0f4355d4dd48a4937f619c0b1c2dd603df6",
      "blockNumber": "0x2036e5e",
      "gasUsed": "0x385fc",
      "effectiveGasPrice": "0x5d22cfc40",
      "from": "0x3a4db9e7306af09012ceb0f222d581fd1f0c6d71",
      "to": "0xc2a61494430f6a99d5f024ab6e76b1633c7c13c0",
      "contractAddress": null,
      "l1BaseFeeScalar": "0x0",
      "l1BlobBaseFee": "0xbb539dca",
      "l1BlobBaseFeeScalar": "0x0",
      "l1Fee": "0x0",
      "l1GasPrice": "0x5856d3fe",
      "l1GasUsed": "0x640"
    }
  ],
  "libraries": [],
  "pending": [],
  "returns": {},
  "timestamp": 1745680053,
  "chain": 42220,
  "commit": "1cefd9d"
}