{
  "transactions": [
    {
      "hash": "0xa6059ebf44b46d35bc17391897a17b88f6c236bb459128fafc2f50fb93c5ec9f",
      "transactionType": "CALL",
      "contractName": null,
      "contractAddress": "0x48065fbbe25f71c9282ddf5e1cd6d6a887483d5e",
      "function": "approve(address,uint256)",
      "arguments": [
        "0x79242D2F9a923AB409413eDCEd60f5155D5A8D1e",
        "500000"
      ],
      "transaction": {
        "from": "0x3a4db9e7306af09012ceb0f222d581fd1f0c6d71",
        "to": "0x48065fbbe25f71c9282ddf5e1cd6d6a887483d5e",
        "gas": "0x1201c",
        "value": "0x0",
        "input": "0x095ea7b300000000000000000000000079242d2f9a923ab409413edced60f5155d5a8d1e000000000000000000000000000000000000000000000000000000000007a120",
        "nonce": "0x3e",
        "chainId": "0xa4ec"
      },
      "additionalContracts": [],
      "isFixedGasLimit": false
    },
    {
      "hash": "0xfdaab7c0126511aa09f5e8027f2c2f1aefa93d5a053860fb8b61b3e8c0f3102a",
      "transactionType": "CALL",
      "contractName": null,
      "contractAddress": "0x79242d2f9a923ab409413edced60f5155d5a8d1e",
      "function": "createPosition(address,uint256,address,uint256,uint256)",
      "arguments": [
        "0x48065fbBE25f71C9282ddf5e1cD6D6A887483D5e",
        "500000",
        "0xcebA9300f2b948710d2653dD7B07f33A8B32118C",
        "250000",
        "2"
      ],
      "transaction": {
        "from": "0x3a4db9e7306af09012ceb0f222d581fd1f0c6d71",
        "to": "0x79242d2f9a923ab409413edced60f5155d5a8d1e",
        "gas": "0xf99dd",
        "value": "0x0",
        "input": "0xb0c3d5df00000000000000000000000048065fbbe25f71c9282ddf5e1cd6d6a887483d5e000000000000000000000000000000000000000000000000000000000007a120000000000000000000000000ceba9300f2b948710d2653dd7b07f33a8b32118c000000000000000000000000000000000000000000000000000000000003d0900000000000000000000000000000000000000000000000000000000000000002",
        "nonce": "0x3f",
        "chainId": "0xa4ec"
      },
      "additionalContracts": [],
      "isFixedGasLimit": false
    },
    {
      "hash": "0xced1115c4db6751c691b4dd782e7465776616bc612a79771c33fb2ff981a8f81",
      "transactionType": "CALL",
      "contractName": null,
      "contractAddress": "0x48065fbbe25f71c9282ddf5e1cd6d6a887483d5e",
      "function": "approve(address,uint256)",
      "arguments": [
        "0x79242D2F9a923AB409413eDCEd60f5155D5A8D1e",
        "250000"
      ],
      "transaction": {
        "from": "0x3a4db9e7306af09012ceb0f222d581fd1f0c6d71",
        "to": "0x48065fbbe25f71c9282ddf5e1cd6d6a887483d5e",
        "gas": "0x1201c",
        "value": "0x0",
        "input": "0x095ea7b300000000000000000000000079242d2f9a923ab409413edced60f5155d5a8d1e000000000000000000000000000000000000000000000000000000000003d090",
        "nonce": "0x40",
        "chainId": "0xa4ec"
      },
      "additionalContracts": [],
      "isFixedGasLimit": false
    },
    {
      "hash": "0x381913344fec14fdb7549555b9d010eaee7346a55eba72f212ce305ab715a8bb",
      "transactionType": "CALL",
      "contractName": null,
      "contractAddress": "0x79242d2f9a923ab409413edced60f5155d5a8d1e",
      "function": "addCollateral(uint256,uint256)",
      "arguments": [
        "1",
        "250000"
      ],
      "transaction": {
        "from": "0x3a4db9e7306af09012ceb0f222d581fd1f0c6d71",
        "to": "0x79242d2f9a923ab409413edced60f5155d5a8d1e",
        "gas": "0x4b5df",
        "value": "0x0",
        "input": "0xa8f35adf0000000000000000000000000000000000000000000000000000000000000001000000000000000000000000000000000000000000000000000000000003d090",
        "nonce": "0x41",
        "chainId": "0xa4ec"
      },
      "additionalContracts": [],
      "isFixedGasLimit": false
    },
    {
      "hash": "0x4da98d252bce3634c264c2a459177b55e4d34a893ba129d5b19a02f935eabf65",
      "transactionType": "CALL",
      "contractName": null,
      "contractAddress": "0x79242d2f9a923ab409413edced60f5155d5a8d1e",
      "function": "increaseBorrow(uint256,uint256)",
      "arguments": [
        "1",
        "125000"
      ],
      "transaction": {
        "from": "0x3a4db9e7306af09012ceb0f222d581fd1f0c6d71",
        "to": "0x79242d2f9a923ab409413edced60f5155d5a8d1e",
        "gas": "0x780a8",
        "value": "0x0",
        "input": "0x9e6824d90000000000000000000000000000000000000000000000000000000000000001000000000000000000000000000000000000000000000000000000000001e848",
        "nonce": "0x42",
        "chainId": "0xa4ec"
      },
      "additionalContracts": [],
      "isFixedGasLimit": false
    },
    {
      "hash": "0xc059bcc4a9cc603bc323fdd3ab387030146b33bf0741d0c7e5762aee813cc04d",
      "transactionType": "CALL",
      "contractName": null,
      "contractAddress": "0xceba9300f2b948710d2653dd7b07f33a8b32118c",
      "function": "approve(address,uint256)",
      "arguments": [
        "0x79242D2F9a923AB409413eDCEd60f5155D5A8D1e",
        "187500"
      ],
      "transaction": {
        "from": "0x3a4db9e7306af09012ceb0f222d581fd1f0c6d71",
        "to": "0xceba9300f2b948710d2653dd7b07f33a8b32118c",
        "gas": "0x12b1b",
        "value": "0x0",
        "input": "0x095ea7b300000000000000000000000079242d2f9a923ab409413edced60f5155d5a8d1e000000000000000000000000000000000000000000000000000000000002dc6c",
        "nonce": "0x43",
        "chainId": "0xa4ec"
      },
      "additionalContracts": [],
      "isFixedGasLimit": false
    },
    {
      "hash": "0x6ad275cf962d3cc6b3751b54e90cd20d61fb6c212d655a2c0dc37048b615c99e",
      "transactionType": "CALL",
      "contractName": null,
      "contractAddress": "0x79242d2f9a923ab409413edced60f5155d5a8d1e",
      "function": "repayDebt(uint256,uint256)",
      "arguments": [
        "1",
        "187500"
      ],
      "transaction": {
        "from": "0x3a4db9e7306af09012ceb0f222d581fd1f0c6d71",
        "to": "0x79242d2f9a923ab409413edced60f5155d5a8d1e",
        "gas": "0x4a361",
        "value": "0x0",
        "input": "0x015cb0a50000000000000000000000000000000000000000000000000000000000000001000000000000000000000000000000000000000000000000000000000002dc6c",
        "nonce": "0x44",
        "chainId": "0xa4ec"
      },
      "additionalContracts": [],
      "isFixedGasLimit": false
    },
    {
      "hash": "0x7e777d3e8509a09928718b131caeb7128a6baf97cc87694aa1731cb5643e75ad",
      "transactionType": "CALL",
      "contractName": null,
      "contractAddress": "0x79242d2f9a923ab409413edced60f5155d5a8d1e",
      "function": "withdrawCollateral(uint256,uint256)",
      "arguments": [
        "1",
        "150000"
      ],
      "transaction": {
        "from": "0x3a4db9e7306af09012ceb0f222d581fd1f0c6d71",
        "to": "0x79242d2f9a923ab409413edced60f5155d5a8d1e",
        "gas": "0x75bb4",
        "value": "0x0",
        "input": "0x767a7b05000000000000000000000000000000000000000000000000000000000000000100000000000000000000000000000000000000000000000000000000000249f0",
        "nonce": "0x45",
        "chainId": "0xa4ec"
      },
      "additionalContracts": [],
      "isFixedGasLimit": false
    },
    {
      "hash": "0x3f938a5b5d9e295491f58e4285738b70f1a70db1c4f8e24b20b5b35666ccfcdb",
      "transactionType": "CALL",
      "contractName": null,
      "contractAddress": "0xceba9300f2b948710d2653dd7b07f33a8b32118c",
      "function": "approve(address,uint256)",
      "arguments": [
        "0x79242D2F9a923AB409413eDCEd60f5155D5A8D1e",
        "187500"
      ],
      "transaction": {
        "from": "0x3a4db9e7306af09012ceb0f222d581fd1f0c6d71",
        "to": "0xceba9300f2b948710d2653dd7b07f33a8b32118c",
        "gas": "0x12b1b",
        "value": "0x0",
        "input": "0x095ea7b300000000000000000000000079242d2f9a923ab409413edced60f5155d5a8d1e000000000000000000000000000000000000000000000000000000000002dc6c",
        "nonce": "0x46",
        "chainId": "0xa4ec"
      },
      "additionalContracts": [],
      "isFixedGasLimit": false
    },
    {
      "hash": "0x6d9a745a96438fcee881223d0c9cc372a5c259eeb19963028d9a2c7102b6bdec",
      "transactionType": "CALL",
      "contractName": null,
      "contractAddress": "0x79242d2f9a923ab409413edced60f5155d5a8d1e",
      "function": "closePosition(uint256)",
      "arguments": [
        "1"
      ],
      "transaction": {
        "from": "0x3a4db9e7306af09012ceb0f222d581fd1f0c6d71",
        "to": "0x79242d2f9a923ab409413edced60f5155d5a8d1e",
        "gas": "0x909d3",
        "value": "0x0",
        "input": "0xa126d6010000000000000000000000000000000000000000000000000000000000000001",
        "nonce": "0x47",
        "chainId": "0xa4ec"
      },
      "additionalContracts": [],
      "isFixedGasLimit": false
    }
  ],
  "receipts": [
    {
      "status": "0x1",
      "cumulativeGasUsed": "0x1cea6a",
      "logs": [
        {
          "address": "0x48065fbbe25f71c9282ddf5e1cd6d6a887483d5e",
          "topics": [
            "0x8c5be1e5ebec7d5bd14f71427d1e84f3dd0314c0f7b2291e5b200ac8c7c3b925",
            "0x0000000000000000000000003a4db9e7306af09012ceb0f222d581fd1f0c6d71",
            "0x00000000000000000000000079242d2f9a923ab409413edced60f5155d5a8d1e"
          ],
          "data": "0x000000000000000000000000000000000000000000000000000000000007a120",
          "blockHash": "0x96cc197c185ec0f9483adcebfbc1b113ac4f0dad5ca1863f5b5269304648643f",
          "blockNumber": "0x20351ec",
          "transactionHash": "0xa6059ebf44b46d35bc17391897a17b88f6c236bb459128fafc2f50fb93c5ec9f",
          "transactionIndex": "0xe",
          "logIndex": "0x2a",
          "removed": false
        }
      ],
      "logsBloom": "0x00002000000000000000000000000000000000000000000000000000080000000000000000000000000000000000000000000000000000000000000000200000001000000000000000000000000000000000000000000000000000000000000000000000000000000000000000000000000000000000000040000000000000000000010000000000000000000000400000000000000000000000000000000000020000000000000000000000000000000000000000000000000000000000000000000000000080000000008000000000000000000000001000000000000000000010000000000000000000000000000000000000000000000000000000000000",
      "type": "0x0",
      "transactionHash": "0xa6059ebf44b46d35bc17391897a17b88f6c236bb459128fafc2f50fb93c5ec9f",
      "transactionIndex": "0xe",
      "blockHash": "0x96cc197c185ec0f9483adcebfbc1b113ac4f0dad5ca1863f5b5269304648643f",
      "blockNumber": "0x20351ec",
      "gasUsed": "0xd097",
      "effectiveGasPrice": "0x5d22cfc40",
      "from": "0x3a4db9e7306af09012ceb0f222d581fd1f0c6d71",
      "to": "0x48065fbbe25f71c9282ddf5e1cd6d6a887483d5e",
      "contractAddress": null,
      "l1BaseFeeScalar": "0x0",
      "l1BlobBaseFee": "0x17bc3c869",
      "l1BlobBaseFeeScalar": "0x0",
      "l1Fee": "0x0",
      "l1GasPrice": "0x2b6a458d",
      "l1GasUsed": "0x640"
    },
    {
      "status": "0x1",
      "cumulativeGasUsed": "0x279543",
      "logs": [
        {
          "address": "0x48065fbbe25f71c9282ddf5e1cd6d6a887483d5e",
          "topics": [
            "0xddf252ad1be2c89b69c2b068fc378daa952ba7f163c4a11628f55a4df523b3ef",
            "0x0000000000000000000000003a4db9e7306af09012ceb0f222d581fd1f0c6d71",
            "0x00000000000000000000000079242d2f9a923ab409413edced60f5155d5a8d1e"
          ],
          "data": "0x000000000000000000000000000000000000000000000000000000000007a120",
          "blockHash": "0x96cc197c185ec0f9483adcebfbc1b113ac4f0dad5ca1863f5b5269304648643f",
          "blockNumber": "0x20351ec",
          "transactionHash": "0xfdaab7c0126511aa09f5e8027f2c2f1aefa93d5a053860fb8b61b3e8c0f3102a",
          "transactionIndex": "0xf",
          "logIndex": "0x2b",
          "removed": false
        },
        {
          "address": "0x48065fbbe25f71c9282ddf5e1cd6d6a887483d5e",
          "topics": [
            "0x8c5be1e5ebec7d5bd14f71427d1e84f3dd0314c0f7b2291e5b200ac8c7c3b925",
            "0x0000000000000000000000003a4db9e7306af09012ceb0f222d581fd1f0c6d71",
            "0x00000000000000000000000079242d2f9a923ab409413edced60f5155d5a8d1e"
          ],
          "data": "0x0000000000000000000000000000000000000000000000000000000000000000",
          "blockHash": "0x96cc197c185ec0f9483adcebfbc1b113ac4f0dad5ca1863f5b5269304648643f",
          "blockNumber": "0x20351ec",
          "transactionHash": "0xfdaab7c0126511aa09f5e8027f2c2f1aefa93d5a053860fb8b61b3e8c0f3102a",
          "transactionIndex": "0xf",
          "logIndex": "0x2c",
          "removed": false
        },
        {
          "address": "0x48065fbbe25f71c9282ddf5e1cd6d6a887483d5e",
          "topics": [
            "0x8c5be1e5ebec7d5bd14f71427d1e84f3dd0314c0f7b2291e5b200ac8c7c3b925",
            "0x00000000000000000000000079242d2f9a923ab409413edced60f5155d5a8d1e",
            "0x0000000000000000000000003e59a31363e2ad014dcbc521c4a0d5757d9f3402"
          ],
          "data": "0x000000000000000000000000000000000000000000000000000000000007a120",
          "blockHash": "0x96cc197c185ec0f9483adcebfbc1b113ac4f0dad5ca1863f5b5269304648643f",
          "blockNumber": "0x20351ec",
          "transactionHash": "0xfdaab7c0126511aa09f5e8027f2c2f1aefa93d5a053860fb8b61b3e8c0f3102a",
          "transactionIndex": "0xf",
          "logIndex": "0x2d",
          "removed": false
        },
        {
          "address": "0x3e59a31363e2ad014dcbc521c4a0d5757d9f3402",
          "topics": [
            "0x804c9b842b2748a22bb64b345453a3de7ca54a6ca45ce00d415894979e22897a",
            "0x00000000000000000000000048065fbbe25f71c9282ddf5e1cd6d6a887483d5e"
          ],
          "data": "0x00000000000000000000000000000000000000000000000b15eca056a191ce4f0000000000000000000000000000000000000000000000000000000000000000000000000000000000000000000000000000000000001c268b6337264bb02b320000000000000000000000000000000000000000033b5f8e1ec511f0f701f7ca0000000000000000000000000000000000000000033bcc9d5ef65f94ee45a53f",
          "blockHash": "0x96cc197c185ec0f9483adcebfbc1b113ac4f0dad5ca1863f5b5269304648643f",
          "blockNumber": "0x20351ec",
          "transactionHash": "0xfdaab7c0126511aa09f5e8027f2c2f1aefa93d5a053860fb8b61b3e8c0f3102a",
          "transactionIndex": "0xf",
          "logIndex": "0x2e",
          "removed": false
        },
        {
          "address": "0x48065fbbe25f71c9282ddf5e1cd6d6a887483d5e",
          "topics": [
            "0xddf252ad1be2c89b69c2b068fc378daa952ba7f163c4a11628f55a4df523b3ef",
            "0x00000000000000000000000079242d2f9a923ab409413edced60f5155d5a8d1e",
            "0x000000000000000000000000dee98402a302e4d707fb9bf2bac66faeec31e8df"
          ],
          "data": "0x000000000000000000000000000000000000000000000000000000000007a120",
          "blockHash": "0x96cc197c185ec0f9483adcebfbc1b113ac4f0dad5ca1863f5b5269304648643f",
          "blockNumber": "0x20351ec",
          "transactionHash": "0xfdaab7c0126511aa09f5e8027f2c2f1aefa93d5a053860fb8b61b3e8c0f3102a",
          "transactionIndex": "0xf",
          "logIndex": "0x2f",
          "removed": false
        },
        {
          "address": "0x48065fbbe25f71c9282ddf5e1cd6d6a887483d5e",
          "topics": [
            "0x8c5be1e5ebec7d5bd14f71427d1e84f3dd0314c0f7b2291e5b200ac8c7c3b925",
            "0x00000000000000000000000079242d2f9a923ab409413edced60f5155d5a8d1e",
            "0x0000000000000000000000003e59a31363e2ad014dcbc521c4a0d5757d9f3402"
          ],
          "data": "0x0000000000000000000000000000000000000000000000000000000000000000",
          "blockHash": "0x96cc197c185ec0f9483adcebfbc1b113ac4f0dad5ca1863f5b5269304648643f",
          "blockNumber": "0x20351ec",
          "transactionHash": "0xfdaab7c0126511aa09f5e8027f2c2f1aefa93d5a053860fb8b61b3e8c0f3102a",
          "transactionIndex": "0xf",
          "logIndex": "0x30",
          "removed": false
        },
        {
          "address": "0xdee98402a302e4d707fb9bf2bac66faeec31e8df",
          "topics": [
            "0xddf252ad1be2c89b69c2b068fc378daa952ba7f163c4a11628f55a4df523b3ef",
            "0x0000000000000000000000000000000000000000000000000000000000000000",
            "0x00000000000000000000000079242d2f9a923ab409413edced60f5155d5a8d1e"
          ],
          "data": "0x000000000000000000000000000000000000000000000000000000000007a120",
          "blockHash": "0x96cc197c185ec0f9483adcebfbc1b113ac4f0dad5ca1863f5b5269304648643f",
          "blockNumber": "0x20351ec",
          "transactionHash": "0xfdaab7c0126511aa09f5e8027f2c2f1aefa93d5a053860fb8b61b3e8c0f3102a",
          "transactionIndex": "0xf",
          "logIndex": "0x31",
          "removed": false
        },
        {
          "address": "0xdee98402a302e4d707fb9bf2bac66faeec31e8df",
          "topics": [
            "0x458f5fa412d0f69b08dd84872b0215675cc67bc1d5b6fd93300a1c3878b86196",
            "0x00000000000000000000000079242d2f9a923ab409413edced60f5155d5a8d1e",
            "0x00000000000000000000000079242d2f9a923ab409413edced60f5155d5a8d1e"
          ],
          "data": "0x000000000000000000000000000000000000000000000000000000000007a12000000000000000000000000000000000000000000000000000000000000000000000000000000000000000000000000000000000033b5f8e1ec511f0f701f7ca",
          "blockHash": "0x96cc197c185ec0f9483adcebfbc1b113ac4f0dad5ca1863f5b5269304648643f",
          "blockNumber": "0x20351ec",
          "transactionHash": "0xfdaab7c0126511aa09f5e8027f2c2f1aefa93d5a053860fb8b61b3e8c0f3102a",
          "transactionIndex": "0xf",
          "logIndex": "0x32",
          "removed": false
        },
        {
          "address": "0x3e59a31363e2ad014dcbc521c4a0d5757d9f3402",
          "topics": [
            "0x00058a56ea94653cdf4f152d227ace22d4c00ad99e2a43f58cb7d9e3feb295f2",
            "0x00000000000000000000000048065fbbe25f71c9282ddf5e1cd6d6a887483d5e",
            "0x00000000000000000000000079242d2f9a923ab409413edced60f5155d5a8d1e"
          ],
          "data": "0x",
          "blockHash": "0x96cc197c185ec0f9483adcebfbc1b113ac4f0dad5ca1863f5b5269304648643f",
          "blockNumber": "0x20351ec",
          "transactionHash": "0xfdaab7c0126511aa09f5e8027f2c2f1aefa93d5a053860fb8b61b3e8c0f3102a",
          "transactionIndex": "0xf",
          "logIndex": "0x33",
          "removed": false
        },
        {
          "address": "0x3e59a31363e2ad014dcbc521c4a0d5757d9f3402",
          "topics": [
            "0x2b627736bca15cd5381dcf80b0bf11fd197d01a037c52b927a881a10fb73ba61",
            "0x00000000000000000000000048065fbbe25f71c9282ddf5e1cd6d6a887483d5e",
            "0x00000000000000000000000079242d2f9a923ab409413edced60f5155d5a8d1e",
            "0x0000000000000000000000000000000000000000000000000000000000000000"
          ],
          "data": "0x00000000000000000000000079242d2f9a923ab409413edced60f5155d5a8d1e000000000000000000000000000000000000000000000000000000000007a120",
          "blockHash": "0x96cc197c185ec0f9483adcebfbc1b113ac4f0dad5ca1863f5b5269304648643f",
          "blockNumber": "0x20351ec",
          "transactionHash": "0xfdaab7c0126511aa09f5e8027f2c2f1aefa93d5a053860fb8b61b3e8c0f3102a",
          "transactionIndex": "0xf",
          "logIndex": "0x34",
          "removed": false
        },
        {
          "address": "0xdbe517c0fa6467873b684eccbed77217e471e862",
          "topics": [
            "0xddf252ad1be2c89b69c2b068fc378daa952ba7f163c4a11628f55a4df523b3ef",
            "0x0000000000000000000000000000000000000000000000000000000000000000",
            "0x00000000000000000000000079242d2f9a923ab409413edced60f5155d5a8d1e"
          ],
          "data": "0x000000000000000000000000000000000000000000000000000000000003d090",
          "blockHash": "0x96cc197c185ec0f9483adcebfbc1b113ac4f0dad5ca1863f5b5269304648643f",
          "blockNumber": "0x20351ec",
          "transactionHash": "0xfdaab7c0126511aa09f5e8027f2c2f1aefa93d5a053860fb8b61b3e8c0f3102a",
          "transactionIndex": "0xf",
          "logIndex": "0x35",
          "removed": false
        },
        {
          "address": "0xdbe517c0fa6467873b684eccbed77217e471e862",
          "topics": [
            "0x458f5fa412d0f69b08dd84872b0215675cc67bc1d5b6fd93300a1c3878b86196",
            "0x00000000000000000000000079242d2f9a923ab409413edced60f5155d5a8d1e",
            "0x00000000000000000000000079242d2f9a923ab409413edced60f5155d5a8d1e"
          ],
          "data": "0x000000000000000000000000000000000000000000000000000000000003d09000000000000000000000000000000000000000000000000000000000000000000000000000000000000000000000000000000000033c4e8b634e53a17ca5fde2",
          "blockHash": "0x96cc197c185ec0f9483adcebfbc1b113ac4f0dad5ca1863f5b5269304648643f",
          "blockNumber": "0x20351ec",
          "transactionHash": "0xfdaab7c0126511aa09f5e8027f2c2f1aefa93d5a053860fb8b61b3e8c0f3102a",
          "transactionIndex": "0xf",
          "logIndex": "0x36",
          "removed": false
        },
        {
          "address": "0x3e59a31363e2ad014dcbc521c4a0d5757d9f3402",
          "topics": [
            "0x804c9b842b2748a22bb64b345453a3de7ca54a6ca45ce00d415894979e22897a",
            "0x000000000000000000000000ceba9300f2b948710d2653dd7b07f33a8b32118c"
          ],
          "data": "0x00000000000000000000000000000000000000000000d50b1facf011c6a835e1000000000000000000000000000000000000000000000000000000000000000000000000000000000000000000000000000000000007b68437c5c54dca217ca20000000000000000000000000000000000000000033b68ac97399e68c9e889ca0000000000000000000000000000000000000000033c4e8b634e53a17ca5fde2",
          "blockHash": "0x96cc197c185ec0f9483adcebfbc1b113ac4f0dad5ca1863f5b5269304648643f",
          "blockNumber": "0x20351ec",
          "transactionHash": "0xfdaab7c0126511aa09f5e8027f2c2f1aefa93d5a053860fb8b61b3e8c0f3102a",
          "transactionIndex": "0xf",
          "logIndex": "0x37",
          "removed": false
        },
        {
          "address": "0xceba9300f2b948710d2653dd7b07f33a8b32118c",
          "topics": [
            "0xddf252ad1be2c89b69c2b068fc378daa952ba7f163c4a11628f55a4df523b3ef",
            "0x000000000000000000000000ff8309b9e99bfd2d4021bc71a362abd93dbd4785",
            "0x00000000000000000000000079242d2f9a923ab409413edced60f5155d5a8d1e"
          ],
          "data": "0x000000000000000000000000000000000000000000000000000000000003d090",
          "blockHash": "0x96cc197c185ec0f9483adcebfbc1b113ac4f0dad5ca1863f5b5269304648643f",
          "blockNumber": "0x20351ec",
          "transactionHash": "0xfdaab7c0126511aa09f5e8027f2c2f1aefa93d5a053860fb8b61b3e8c0f3102a",
          "transactionIndex": "0xf",
          "logIndex": "0x38",
          "removed": false
        },
        {
          "address": "0x3e59a31363e2ad014dcbc521c4a0d5757d9f3402",
          "topics": [
            "0xb3d084820fb1a9decffb176436bd02558d15fac9b0ddfed8c465bc7359d7dce0",
            "0x000000000000000000000000ceba9300f2b948710d2653dd7b07f33a8b32118c",
            "0x00000000000000000000000079242d2f9a923ab409413edced60f5155d5a8d1e",
            "0x0000000000000000000000000000000000000000000000000000000000000000"
          ],
          "data": "0x00000000000000000000000079242d2f9a923ab409413edced60f5155d5a8d1e000000000000000000000000000000000000000000000000000000000003d090000000000000000000000000000000000000000000000000000000000000000200000000000000000000000000000000000000000007b68437c5c54dca217ca2",
          "blockHash": "0x96cc197c185ec0f9483adcebfbc1b113ac4f0dad5ca1863f5b5269304648643f",
          "blockNumber": "0x20351ec",
          "transactionHash": "0xfdaab7c0126511aa09f5e8027f2c2f1aefa93d5a053860fb8b61b3e8c0f3102a",
          "transactionIndex": "0xf",
          "logIndex": "0x39",
          "removed": false
        },
        {
          "address": "0xceba9300f2b948710d2653dd7b07f33a8b32118c",
          "topics": [
            "0xddf252ad1be2c89b69c2b068fc378daa952ba7f163c4a11628f55a4df523b3ef",
            "0x00000000000000000000000079242d2f9a923ab409413edced60f5155d5a8d1e",
            "0x0000000000000000000000003a4db9e7306af09012ceb0f222d581fd1f0c6d71"
          ],
          "data": "0x000000000000000000000000000000000000000000000000000000000003d090",
          "blockHash": "0x96cc197c185ec0f9483adcebfbc1b113ac4f0dad5ca1863f5b5269304648643f",
          "blockNumber": "0x20351ec",
          "transactionHash": "0xfdaab7c0126511aa09f5e8027f2c2f1aefa93d5a053860fb8b61b3e8c0f3102a",
          "transactionIndex": "0xf",
          "logIndex": "0x3a",
          "removed": false
        },
        {
          "address": "0x79242d2f9a923ab409413edced60f5155d5a8d1e",
          "topics": [
            "0x9f9b498443531d2db9df8a00ec466efc74ba50ec1d82f7badd3424b87930e19a",
            "0x0000000000000000000000000000000000000000000000000000000000000001",
            "0x0000000000000000000000003a4db9e7306af09012ceb0f222d581fd1f0c6d71"
          ],
          "data": "0x00000000000000000000000048065fbbe25f71c9282ddf5e1cd6d6a887483d5e000000000000000000000000000000000000000000000000000000000007a120000000000000000000000000ceba9300f2b948710d2653dd7b07f33a8b32118c000000000000000000000000000000000000000000000000000000000003d0900000000000000000000000000000000000000000000000000000000000000002",
          "blockHash": "0x96cc197c185ec0f9483adcebfbc1b113ac4f0dad5ca1863f5b5269304648643f",
          "blockNumber": "0x20351ec",
          "transactionHash": "0xfdaab7c0126511aa09f5e8027f2c2f1aefa93d5a053860fb8b61b3e8c0f3102a",
          "transactionIndex": "0xf",
          "logIndex": "0x3b",
          "removed": false
        }
      ],
      "logsBloom": "0x0000200000000801028012000040000000100000000000000000000008000000000000080000000000002800000440000010000080000000000000000024000000100000800000080000000800000000000000000004000000000004000000000000000002000000000000000000080000000002000000004000001000000000000001008000000000000000000040000000000000000000220000000000000002000110000100000000004000000000100000000000000040000001000001000200000200008120000002a040000040000000000000041000020000000160000010000000004010000800000011000040000000000000000000400000000000",
      "type": "0x0",
      "transactionHash": "0xfdaab7c0126511aa09f5e8027f2c2f1aefa93d5a053860fb8b61b3e8c0f3102a",
      "transactionIndex": "0xf",
      "blockHash": "0x96cc197c185ec0f9483adcebfbc1b113ac4f0dad5ca1863f5b5269304648643f",
      "blockNumber": "0x20351ec",
      "gasUsed": "0xaaad9",
      "effectiveGasPrice": "0x5d22cfc40",
      "from": "0x3a4db9e7306af09012ceb0f222d581fd1f0c6d71",
      "to": "0x79242d2f9a923ab409413edced60f5155d5a8d1e",
      "contractAddress": null,
      "l1BaseFeeScalar": "0x0",
      "l1BlobBaseFee": "0x17bc3c869",
      "l1BlobBaseFeeScalar": "0x0",
      "l1Fee": "0x0",
      "l1GasPrice": "0x2b6a458d",
      "l1GasUsed": "0x76d"
    },
    {
      "status": "0x1",
      "cumulativeGasUsed": "0x1accac",
      "logs": [
        {
          "address": "0x48065fbbe25f71c9282ddf5e1cd6d6a887483d5e",
          "topics": [
            "0x8c5be1e5ebec7d5bd14f71427d1e84f3dd0314c0f7b2291e5b200ac8c7c3b925",
            "0x0000000000000000000000003a4db9e7306af09012ceb0f222d581fd1f0c6d71",
            "0x00000000000000000000000079242d2f9a923ab409413edced60f5155d5a8d1e"
          ],
          "data": "0x000000000000000000000000000000000000000000000000000000000003d090",
          "blockHash": "0xe6f0b4c5e1ca2e868361b45ce67c89cdc8602ee720bde05dfe3d082d10731da3",
          "blockNumber": "0x20351ed",
          "transactionHash": "0xced1115c4db6751c691b4dd782e7465776616bc612a79771c33fb2ff981a8f81",
          "transactionIndex": "0xb",
          "logIndex": "0x2a",
          "removed": false
        }
      ],
      "logsBloom": "0x00002000000000000000000000000000000000000000000000000000080000000000000000000000000000000000000000000000000000000000000000200000001000000000000000000000000000000000000000000000000000000000000000000000000000000000000000000000000000000000000040000000000000000000010000000000000000000000400000000000000000000000000000000000020000000000000000000000000000000000000000000000000000000000000000000000000080000000008000000000000000000000001000000000000000000010000000000000000000000000000000000000000000000000000000000000",
      "type": "0x0",
      "transactionHash": "0xced1115c4db6751c691b4dd782e7465776616bc612a79771c33fb2ff981a8f81",
      "transactionIndex": "0xb",
      "blockHash": "0xe6f0b4c5e1ca2e868361b45ce67c89cdc8602ee720bde05dfe3d082d10731da3",
      "blockNumber": "0x20351ed",
      "gasUsed": "0xd097",
      "effectiveGasPrice": "0x5d22cfc40",
      "from": "0x3a4db9e7306af09012ceb0f222d581fd1f0c6d71",
      "to": "0x48065fbbe25f71c9282ddf5e1cd6d6a887483d5e",
      "contractAddress": null,
      "l1BaseFeeScalar": "0x0",
      "l1BlobBaseFee": "0x17bc3c869",
      "l1BlobBaseFeeScalar": "0x0",
      "l1Fee": "0x0",
      "l1GasPrice": "0x2b6a458d",
      "l1GasUsed": "0x640"
    },
    {
      "status": "0x1",
      "cumulativeGasUsed": "0x1e4f72",
      "logs": [
        {
          "address": "0x48065fbbe25f71c9282ddf5e1cd6d6a887483d5e",
          "topics": [
            "0xddf252ad1be2c89b69c2b068fc378daa952ba7f163c4a11628f55a4df523b3ef",
            "0x0000000000000000000000003a4db9e7306af09012ceb0f222d581fd1f0c6d71",
            "0x00000000000000000000000079242d2f9a923ab409413edced60f5155d5a8d1e"
          ],
          "data": "0x000000000000000000000000000000000000000000000000000000000003d090",
          "blockHash": "0xe6f0b4c5e1ca2e868361b45ce67c89cdc8602ee720bde05dfe3d082d10731da3",
          "blockNumber": "0x20351ed",
          "transactionHash": "0x381913344fec14fdb7549555b9d010eaee7346a55eba72f212ce305ab715a8bb",
          "transactionIndex": "0xc",
          "logIndex": "0x2b",
          "removed": false
        },
        {
          "address": "0x48065fbbe25f71c9282ddf5e1cd6d6a887483d5e",
          "topics": [
            "0x8c5be1e5ebec7d5bd14f71427d1e84f3dd0314c0f7b2291e5b200ac8c7c3b925",
            "0x0000000000000000000000003a4db9e7306af09012ceb0f222d581fd1f0c6d71",
            "0x00000000000000000000000079242d2f9a923ab409413edced60f5155d5a8d1e"
          ],
          "data": "0x0000000000000000000000000000000000000000000000000000000000000000",
          "blockHash": "0xe6f0b4c5e1ca2e868361b45ce67c89cdc8602ee720bde05dfe3d082d10731da3",
          "blockNumber": "0x20351ed",
          "transactionHash": "0x381913344fec14fdb7549555b9d010eaee7346a55eba72f212ce305ab715a8bb",
          "transactionIndex": "0xc",
          "logIndex": "0x2c",
          "removed": false
        },
        {
          "address": "0x48065fbbe25f71c9282ddf5e1cd6d6a887483d5e",
          "topics": [
            "0x8c5be1e5ebec7d5bd14f71427d1e84f3dd0314c0f7b2291e5b200ac8c7c3b925",
            "0x00000000000000000000000079242d2f9a923ab409413edced60f5155d5a8d1e",
            "0x0000000000000000000000003e59a31363e2ad014dcbc521c4a0d5757d9f3402"
          ],
          "data": "0x000000000000000000000000000000000000000000000000000000000003d090",
          "blockHash": "0xe6f0b4c5e1ca2e868361b45ce67c89cdc8602ee720bde05dfe3d082d10731da3",
          "blockNumber": "0x20351ed",
          "transactionHash": "0x381913344fec14fdb7549555b9d010eaee7346a55eba72f212ce305ab715a8bb",
          "transactionIndex": "0xc",
          "logIndex": "0x2d",
          "removed": false
        },
        {
          "address": "0x3e59a31363e2ad014dcbc521c4a0d5757d9f3402",
          "topics": [
            "0x804c9b842b2748a22bb64b345453a3de7ca54a6ca45ce00d415894979e22897a",
            "0x00000000000000000000000048065fbbe25f71c9282ddf5e1cd6d6a887483d5e"
          ],
          "data": "0x00000000000000000000000000000000000000000000000b15ec80c7c36ac92b0000000000000000000000000000000000000000000000000000000000000000000000000000000000000000000000000000000000001c268b3b25867ebd5ae00000000000000000000000000000000000000000033b5f8e1ec517d719167aaa0000000000000000000000000000000000000000033bcc9d5f055c587238bb09",
          "blockHash": "0xe6f0b4c5e1ca2e868361b45ce67c89cdc8602ee720bde05dfe3d082d10731da3",
          "blockNumber": "0x20351ed",
          "transactionHash": "0x381913344fec14fdb7549555b9d010eaee7346a55eba72f212ce305ab715a8bb",
          "transactionIndex": "0xc",
          "logIndex": "0x2e",
          "removed": false
        },
        {
          "address": "0x48065fbbe25f71c9282ddf5e1cd6d6a887483d5e",
          "topics": [
            "0xddf252ad1be2c89b69c2b068fc378daa952ba7f163c4a11628f55a4df523b3ef",
            "0x00000000000000000000000079242d2f9a923ab409413edced60f5155d5a8d1e",
            "0x000000000000000000000000dee98402a302e4d707fb9bf2bac66faeec31e8df"
          ],
          "data": "0x000000000000000000000000000000000000000000000000000000000003d090",
          "blockHash": "0xe6f0b4c5e1ca2e868361b45ce67c89cdc8602ee720bde05dfe3d082d10731da3",
          "blockNumber": "0x20351ed",
          "transactionHash": "0x381913344fec14fdb7549555b9d010eaee7346a55eba72f212ce305ab715a8bb",
          "transactionIndex": "0xc",
          "logIndex": "0x2f",
          "removed": false
        },
        {
          "address": "0x48065fbbe25f71c9282ddf5e1cd6d6a887483d5e",
          "topics": [
            "0x8c5be1e5ebec7d5bd14f71427d1e84f3dd0314c0f7b2291e5b200ac8c7c3b925",
            "0x00000000000000000000000079242d2f9a923ab409413edced60f5155d5a8d1e",
            "0x0000000000000000000000003e59a31363e2ad014dcbc521c4a0d5757d9f3402"
          ],
          "data": "0x0000000000000000000000000000000000000000000000000000000000000000",
          "blockHash": "0xe6f0b4c5e1ca2e868361b45ce67c89cdc8602ee720bde05dfe3d082d10731da3",
          "blockNumber": "0x20351ed",
          "transactionHash": "0x381913344fec14fdb7549555b9d010eaee7346a55eba72f212ce305ab715a8bb",
          "transactionIndex": "0xc",
          "logIndex": "0x30",
          "removed": false
        },
        {
          "address": "0xdee98402a302e4d707fb9bf2bac66faeec31e8df",
          "topics": [
            "0xddf252ad1be2c89b69c2b068fc378daa952ba7f163c4a11628f55a4df523b3ef",
            "0x0000000000000000000000000000000000000000000000000000000000000000",
            "0x00000000000000000000000079242d2f9a923ab409413edced60f5155d5a8d1e"
          ],
          "data": "0x000000000000000000000000000000000000000000000000000000000003d090",
          "blockHash": "0xe6f0b4c5e1ca2e868361b45ce67c89cdc8602ee720bde05dfe3d082d10731da3",
          "blockNumber": "0x20351ed",
          "transactionHash": "0x381913344fec14fdb7549555b9d010eaee7346a55eba72f212ce305ab715a8bb",
          "transactionIndex": "0xc",
          "logIndex": "0x31",
          "removed": false
        },
        {
          "address": "0xdee98402a302e4d707fb9bf2bac66faeec31e8df",
          "topics": [
            "0x458f5fa412d0f69b08dd84872b0215675cc67bc1d5b6fd93300a1c3878b86196",
            "0x00000000000000000000000079242d2f9a923ab409413edced60f5155d5a8d1e",
            "0x00000000000000000000000079242d2f9a923ab409413edced60f5155d5a8d1e"
          ],
          "data": "0x000000000000000000000000000000000000000000000000000000000003d09000000000000000000000000000000000000000000000000000000000000000000000000000000000000000000000000000000000033b5f8e1ec517d719167aaa",
          "blockHash": "0xe6f0b4c5e1ca2e868361b45ce67c89cdc8602ee720bde05dfe3d082d10731da3",
          "blockNumber": "0x20351ed",
          "transactionHash": "0x381913344fec14fdb7549555b9d010eaee7346a55eba72f212ce305ab715a8bb",
          "transactionIndex": "0xc",
          "logIndex": "0x32",
          "removed": false
        },
        {
          "address": "0x3e59a31363e2ad014dcbc521c4a0d5757d9f3402",
          "topics": [
            "0x2b627736bca15cd5381dcf80b0bf11fd197d01a037c52b927a881a10fb73ba61",
            "0x00000000000000000000000048065fbbe25f71c9282ddf5e1cd6d6a887483d5e",
            "0x00000000000000000000000079242d2f9a923ab409413edced60f5155d5a8d1e",
            "0x0000000000000000000000000000000000000000000000000000000000000000"
          ],
          "data": "0x00000000000000000000000079242d2f9a923ab409413edced60f5155d5a8d1e000000000000000000000000000000000000000000000000000000000003d090",
          "blockHash": "0xe6f0b4c5e1ca2e868361b45ce67c89cdc8602ee720bde05dfe3d082d10731da3",
          "blockNumber": "0x20351ed",
          "transactionHash": "0x381913344fec14fdb7549555b9d010eaee7346a55eba72f212ce305ab715a8bb",
          "transactionIndex": "0xc",
          "logIndex": "0x33",
          "removed": false
        },
        {
          "address": "0x79242d2f9a923ab409413edced60f5155d5a8d1e",
          "topics": [
            "0x244160b15e69cc411f041d94ae7fab6f6bba85dade8403216c05ff4b920d5449",
            "0x0000000000000000000000000000000000000000000000000000000000000001"
          ],
          "data": "0x000000000000000000000000000000000000000000000000000000000003d090",
          "blockHash": "0xe6f0b4c5e1ca2e868361b45ce67c89cdc8602ee720bde05dfe3d082d10731da3",
          "blockNumber": "0x20351ed",
          "transactionHash": "0x381913344fec14fdb7549555b9d010eaee7346a55eba72f212ce305ab715a8bb",
          "transactionIndex": "0xc",
          "logIndex": "0x34",
          "removed": false
        }
      ],
      "logsBloom": "0x0000200000000001020002000000000000100000000000000000000008000000000000080000000000000800000400000000000080020000000000000024000000100000000000080000000800000000000000000004000000000004000000000000000002000000000000000000080000000000000000004000001000000000000001000000000000000000000040000000000000000000020000000000000002000010000100000000004000000000100000000000000040000001000001000200000200008000000000a040000050000000000000001000000000000160000010000000000080000000000010000040000000000000000000400000000000",
      "type": "0x0",
      "transactionHash": "0x381913344fec14fdb7549555b9d010eaee7346a55eba72f212ce305ab715a8bb",
      "transactionIndex": "0xc",
      "blockHash": "0xe6f0b4c5e1ca2e868361b45ce67c89cdc8602ee720bde05dfe3d082d10731da3",
      "blockNumber": "0x20351ed",
      "gasUsed": "0x382c6",
      "effectiveGasPrice": "0x5d22cfc40",
      "from": "0x3a4db9e7306af09012ceb0f222d581fd1f0c6d71",
      "to": "0x79242d2f9a923ab409413edced60f5155d5a8d1e",
      "contractAddress": null,
      "l1BaseFeeScalar": "0x0",
      "l1BlobBaseFee": "0x17bc3c869",
      "l1BlobBaseFeeScalar": "0x0",
      "l1Fee": "0x0",
      "l1GasPrice": "0x2b6a458d",
      "l1GasUsed": "0x640"
    },
    {
      "status": "0x1",
      "cumulativeGasUsed": "0x1772d2",
      "logs": [
        {
          "address": "0xdbe517c0fa6467873b684eccbed77217e471e862",
          "topics": [
            "0xddf252ad1be2c89b69c2b068fc378daa952ba7f163c4a11628f55a4df523b3ef",
            "0x0000000000000000000000000000000000000000000000000000000000000000",
            "0x00000000000000000000000079242d2f9a923ab409413edced60f5155d5a8d1e"
          ],
          "data": "0x000000000000000000000000000000000000000000000000000000000001e848",
          "blockHash": "0x7ff0819228a80458b8bedd1aa7cefb05c3c7732ff3969791eef515ce694d4aa3",
          "blockNumber": "0x20351ee",
          "transactionHash": "0x4da98d252bce3634c264c2a459177b55e4d34a893ba129d5b19a02f935eabf65",
          "transactionIndex": "0x9",
          "logIndex": "0x1d",
          "removed": false
        },
        {
          "address": "0xdbe517c0fa6467873b684eccbed77217e471e862",
          "topics": [
            "0x458f5fa412d0f69b08dd84872b0215675cc67bc1d5b6fd93300a1c3878b86196",
            "0x00000000000000000000000079242d2f9a923ab409413edced60f5155d5a8d1e",
            "0x00000000000000000000000079242d2f9a923ab409413edced60f5155d5a8d1e"
          ],
          "data": "0x000000000000000000000000000000000000000000000000000000000001e84800000000000000000000000000000000000000000000000000000000000000000000000000000000000000000000000000000000033c4e8b6b8614a1145e57fe",
          "blockHash": "0x7ff0819228a80458b8bedd1aa7cefb05c3c7732ff3969791eef515ce694d4aa3",
          "blockNumber": "0x20351ee",
          "transactionHash": "0x4da98d252bce3634c264c2a459177b55e4d34a893ba129d5b19a02f935eabf65",
          "transactionIndex": "0x9",
          "logIndex": "0x1e",
          "removed": false
        },
        {
          "address": "0x3e59a31363e2ad014dcbc521c4a0d5757d9f3402",
          "topics": [
            "0x804c9b842b2748a22bb64b345453a3de7ca54a6ca45ce00d415894979e22897a",
            "0x000000000000000000000000ceba9300f2b948710d2653dd7b07f33a8b32118c"
          ],
          "data": "0x00000000000000000000000000000000000000000000d50b427c31d7671429b1000000000000000000000000000000000000000000000000000000000000000000000000000000000000000000000000000000000007b684d91521cb1c75028e0000000000000000000000000000000000000000033b68ac981c5c45bd5f806f0000000000000000000000000000000000000000033c4e8b6b8614a1145e57fe",
          "blockHash": "0x7ff0819228a80458b8bedd1aa7cefb05c3c7732ff3969791eef515ce694d4aa3",
          "blockNumber": "0x20351ee",
          "transactionHash": "0x4da98d252bce3634c264c2a459177b55e4d34a893ba129d5b19a02f935eabf65",
          "transactionIndex": "0x9",
          "logIndex": "0x1f",
          "removed": false
        },
        {
          "address": "0xceba9300f2b948710d2653dd7b07f33a8b32118c",
          "topics": [
            "0xddf252ad1be2c89b69c2b068fc378daa952ba7f163c4a11628f55a4df523b3ef",
            "0x000000000000000000000000ff8309b9e99bfd2d4021bc71a362abd93dbd4785",
            "0x00000000000000000000000079242d2f9a923ab409413edced60f5155d5a8d1e"
          ],
          "data": "0x000000000000000000000000000000000000000000000000000000000001e848",
          "blockHash": "0x7ff0819228a80458b8bedd1aa7cefb05c3c7732ff3969791eef515ce694d4aa3",
          "blockNumber": "0x20351ee",
          "transactionHash": "0x4da98d252bce3634c264c2a459177b55e4d34a893ba129d5b19a02f935eabf65",
          "transactionIndex": "0x9",
          "logIndex": "0x20",
          "removed": false
        },
        {
          "address": "0x3e59a31363e2ad014dcbc521c4a0d5757d9f3402",
          "topics": [
            "0xb3d084820fb1a9decffb176436bd02558d15fac9b0ddfed8c465bc7359d7dce0",
            "0x000000000000000000000000ceba9300f2b948710d2653dd7b07f33a8b32118c",
            "0x00000000000000000000000079242d2f9a923ab409413edced60f5155d5a8d1e",
            "0x0000000000000000000000000000000000000000000000000000000000000000"
          ],
          "data": "0x00000000000000000000000079242d2f9a923ab409413edced60f5155d5a8d1e000000000000000000000000000000000000000000000000000000000001e848000000000000000000000000000000000000000000000000000000000000000200000000000000000000000000000000000000000007b684d91521cb1c75028e",
          "blockHash": "0x7ff0819228a80458b8bedd1aa7cefb05c3c7732ff3969791eef515ce694d4aa3",
          "blockNumber": "0x20351ee",
          "transactionHash": "0x4da98d252bce3634c264c2a459177b55e4d34a893ba129d5b19a02f935eabf65",
          "transactionIndex": "0x9",
          "logIndex": "0x21",
          "removed": false
        },
        {
          "address": "0xceba9300f2b948710d2653dd7b07f33a8b32118c",
          "topics": [
            "0xddf252ad1be2c89b69c2b068fc378daa952ba7f163c4a11628f55a4df523b3ef",
            "0x00000000000000000000000079242d2f9a923ab409413edced60f5155d5a8d1e",
            "0x0000000000000000000000003a4db9e7306af09012ceb0f222d581fd1f0c6d71"
          ],
          "data": "0x000000000000000000000000000000000000000000000000000000000001e848",
          "blockHash": "0x7ff0819228a80458b8bedd1aa7cefb05c3c7732ff3969791eef515ce694d4aa3",
          "blockNumber": "0x20351ee",
          "transactionHash": "0x4da98d252bce3634c264c2a459177b55e4d34a893ba129d5b19a02f935eabf65",
          "transactionIndex": "0x9",
          "logIndex": "0x22",
          "removed": false
        },
        {
          "address": "0x79242d2f9a923ab409413edced60f5155d5a8d1e",
          "topics": [
            "0xf3a2c404b3362c4238317c3dad1020c2e9e984ba8df38a4a1ff18d57e92a242a",
            "0x0000000000000000000000000000000000000000000000000000000000000001"
          ],
          "data": "0x000000000000000000000000000000000000000000000000000000000001e848",
          "blockHash": "0x7ff0819228a80458b8bedd1aa7cefb05c3c7732ff3969791eef515ce694d4aa3",
          "blockNumber": "0x20351ee",
          "transactionHash": "0x4da98d252bce3634c264c2a459177b55e4d34a893ba129d5b19a02f935eabf65",
          "transactionIndex": "0x9",
          "logIndex": "0x23",
          "removed": false
        }
      ],
      "logsBloom": "0x00002000000000000000100000400000000000000000000000000000080000000000000000000000000008000004400000100000800000000000000000040000001000008000000000000008000000000000000000040000000000040000000000000000020000000000000000000800000000000000000000000010000000000000000000000010000000000000400000000000000000002200000000000000000001000000000000000000000000000000000000000000400000010000010002000002000081200000022000000000000000400000041000000000000060000000000000004010000800000011000000000000000000000800000000000000",
      "type": "0x0",
      "transactionHash": "0x4da98d252bce3634c264c2a459177b55e4d34a893ba129d5b19a02f935eabf65",
      "transactionIndex": "0x9",
      "blockHash": "0x7ff0819228a80458b8bedd1aa7cefb05c3c7732ff3969791eef515ce694d4aa3",
      "blockNumber": "0x20351ee",
      "gasUsed": "0x5a1b1",
      "effectiveGasPrice": "0x5d22cfc40",
      "from": "0x3a4db9e7306af09012ceb0f222d581fd1f0c6d71",
      "to": "0x79242d2f9a923ab409413edced60f5155d5a8d1e",
      "contractAddress": null,
      "l1BaseFeeScalar": "0x0",
      "l1BlobBaseFee": "0x17bc3c869",
      "l1BlobBaseFeeScalar": "0x0",
      "l1Fee": "0x0",
      "l1GasPrice": "0x2b6a458d",
      "l1GasUsed": "0x640"
    },
    {
      "status": "0x1",
      "cumulativeGasUsed": "0x184b5f",
      "logs": [
        {
          "address": "0xceba9300f2b948710d2653dd7b07f33a8b32118c",
          "topics": [
            "0x8c5be1e5ebec7d5bd14f71427d1e84f3dd0314c0f7b2291e5b200ac8c7c3b925",
            "0x0000000000000000000000003a4db9e7306af09012ceb0f222d581fd1f0c6d71",
            "0x00000000000000000000000079242d2f9a923ab409413edced60f5155d5a8d1e"
          ],
          "data": "0x000000000000000000000000000000000000000000000000000000000002dc6c",
          "blockHash": "0x7ff0819228a80458b8bedd1aa7cefb05c3c7732ff3969791eef515ce694d4aa3",
          "blockNumber": "0x20351ee",
          "transactionHash": "0xc059bcc4a9cc603bc323fdd3ab387030146b33bf0741d0c7e5762aee813cc04d",
          "transactionIndex": "0xa",
          "logIndex": "0x24",
          "removed": false
        }
      ],
      "logsBloom": "0x00002000000000000000100000000000000000000000000000000000080000000000000000000000000000000000000000000000000000000000000000200000001000000000000000000000000000000000000000000000000000000000000000000000000000000000000000000000000000000000000000000000000000000000000000000000000000000000400000000000000000000000000000000000020000000000000000000000000000000000000000000000000000000000000000000000000080000000020000000000000000000000001000000000000000000010000000000000000800000000000000000000000000000000000000000000",
      "type": "0x0",
      "transactionHash": "0xc059bcc4a9cc603bc323fdd3ab387030146b33bf0741d0c7e5762aee813cc04d",
      "transactionIndex": "0xa",
      "blockHash": "0x7ff0819228a80458b8bedd1aa7cefb05c3c7732ff3969791eef515ce694d4aa3",
      "blockNumber": "0x20351ee",
      "gasUsed": "0xd88d",
      "effectiveGasPrice": "0x5d22cfc40",
      "from": "0x3a4db9e7306af09012ceb0f222d581fd1f0c6d71",
      "to": "0xceba9300f2b948710d2653dd7b07f33a8b32118c",
      "contractAddress": null,
      "l1BaseFeeScalar": "0x0",
      "l1BlobBaseFee": "0x17bc3c869",
      "l1BlobBaseFeeScalar": "0x0",
      "l1Fee": "0x0",
      "l1GasPrice": "0x2b6a458d",
      "l1GasUsed": "0x640"
    },
    {
      "status": "0x1",
      "cumulativeGasUsed": "0x1b7742",
      "logs": [
        {
          "address": "0xceba9300f2b948710d2653dd7b07f33a8b32118c",
          "topics": [
            "0xddf252ad1be2c89b69c2b068fc378daa952ba7f163c4a11628f55a4df523b3ef",
            "0x0000000000000000000000003a4db9e7306af09012ceb0f222d581fd1f0c6d71",
            "0x00000000000000000000000079242d2f9a923ab409413edced60f5155d5a8d1e"
          ],
          "data": "0x000000000000000000000000000000000000000000000000000000000002dc6c",
          "blockHash": "0x7ff0819228a80458b8bedd1aa7cefb05c3c7732ff3969791eef515ce694d4aa3",
          "blockNumber": "0x20351ee",
          "transactionHash": "0x6ad275cf962d3cc6b3751b54e90cd20d61fb6c212d655a2c0dc37048b615c99e",
          "transactionIndex": "0xb",
          "logIndex": "0x25",
          "removed": false
        },
        {
          "address": "0xceba9300f2b948710d2653dd7b07f33a8b32118c",
          "topics": [
            "0x8c5be1e5ebec7d5bd14f71427d1e84f3dd0314c0f7b2291e5b200ac8c7c3b925",
            "0x00000000000000000000000079242d2f9a923ab409413edced60f5155d5a8d1e",
            "0x0000000000000000000000003e59a31363e2ad014dcbc521c4a0d5757d9f3402"
          ],
          "data": "0x000000000000000000000000000000000000000000000000000000000002dc6c",
          "blockHash": "0x7ff0819228a80458b8bedd1aa7cefb05c3c7732ff3969791eef515ce694d4aa3",
          "blockNumber": "0x20351ee",
          "transactionHash": "0x6ad275cf962d3cc6b3751b54e90cd20d61fb6c212d655a2c0dc37048b615c99e",
          "transactionIndex": "0xb",
          "logIndex": "0x26",
          "removed": false
        },
        {
          "address": "0xdbe517c0fa6467873b684eccbed77217e471e862",
          "topics": [
            "0xddf252ad1be2c89b69c2b068fc378daa952ba7f163c4a11628f55a4df523b3ef",
            "0x00000000000000000000000079242d2f9a923ab409413edced60f5155d5a8d1e",
            "0x0000000000000000000000000000000000000000000000000000000000000000"
          ],
          "data": "0x000000000000000000000000000000000000000000000000000000000002dc6c",
          "blockHash": "0x7ff0819228a80458b8bedd1aa7cefb05c3c7732ff3969791eef515ce694d4aa3",
          "blockNumber": "0x20351ee",
          "transactionHash": "0x6ad275cf962d3cc6b3751b54e90cd20d61fb6c212d655a2c0dc37048b615c99e",
          "transactionIndex": "0xb",
          "logIndex": "0x27",
          "removed": false
        },
        {
          "address": "0xdbe517c0fa6467873b684eccbed77217e471e862",
          "topics": [
            "0x4cf25bc1d991c17529c25213d3cc0cda295eeaad5f13f361969b12ea48015f90",
            "0x00000000000000000000000079242d2f9a923ab409413edced60f5155d5a8d1e",
            "0x0000000000000000000000000000000000000000000000000000000000000000"
          ],
          "data": "0x000000000000000000000000000000000000000000000000000000000002dc6c00000000000000000000000000000000000000000000000000000000000000000000000000000000000000000000000000000000033c4e8b6b8614a1145e57fe",
          "blockHash": "0x7ff0819228a80458b8bedd1aa7cefb05c3c7732ff3969791eef515ce694d4aa3",
          "blockNumber": "0x20351ee",
          "transactionHash": "0x6ad275cf962d3cc6b3751b54e90cd20d61fb6c212d655a2c0dc37048b615c99e",
          "transactionIndex": "0xb",
          "logIndex": "0x28",
          "removed": false
        },
        {
          "address": "0x3e59a31363e2ad014dcbc521c4a0d5757d9f3402",
          "topics": [
            "0x804c9b842b2748a22bb64b345453a3de7ca54a6ca45ce00d415894979e22897a",
            "0x000000000000000000000000ceba9300f2b948710d2653dd7b07f33a8b32118c"
          ],
          "data": "0x00000000000000000000000000000000000000000000d50b0e4add2c5fb578bf000000000000000000000000000000000000000000000000000000000000000000000000000000000000000000000000000000000007b683e737cfb8c60fce0c0000000000000000000000000000000000000000033b68ac981c5c45bd5f806f0000000000000000000000000000000000000000033c4e8b6b8614a1145e57fe",
          "blockHash": "0x7ff0819228a80458b8bedd1aa7cefb05c3c7732ff3969791eef515ce694d4aa3",
          "blockNumber": "0x20351ee",
          "transactionHash": "0x6ad275cf962d3cc6b3751b54e90cd20d61fb6c212d655a2c0dc37048b615c99e",
          "transactionIndex": "0xb",
          "logIndex": "0x29",
          "removed": false
        },
        {
          "address": "0xceba9300f2b948710d2653dd7b07f33a8b32118c",
          "topics": [
            "0xddf252ad1be2c89b69c2b068fc378daa952ba7f163c4a11628f55a4df523b3ef",
            "0x00000000000000000000000079242d2f9a923ab409413edced60f5155d5a8d1e",
            "0x000000000000000000000000ff8309b9e99bfd2d4021bc71a362abd93dbd4785"
          ],
          "data": "0x000000000000000000000000000000000000000000000000000000000002dc6c",
          "blockHash": "0x7ff0819228a80458b8bedd1aa7cefb05c3c7732ff3969791eef515ce694d4aa3",
          "blockNumber": "0x20351ee",
          "transactionHash": "0x6ad275cf962d3cc6b3751b54e90cd20d61fb6c212d655a2c0dc37048b615c99e",
          "transactionIndex": "0xb",
          "logIndex": "0x2a",
          "removed": false
        },
        {
          "address": "0x3e59a31363e2ad014dcbc521c4a0d5757d9f3402",
          "topics": [
            "0xa534c8dbe71f871f9f3530e97a74601fea17b426cae02e1c5aee42c96c784051",
            "0x000000000000000000000000ceba9300f2b948710d2653dd7b07f33a8b32118c",
            "0x00000000000000000000000079242d2f9a923ab409413edced60f5155d5a8d1e",
            "0x00000000000000000000000079242d2f9a923ab409413edced60f5155d5a8d1e"
          ],
          "data": "0x000000000000000000000000000000000000000000000000000000000002dc6c0000000000000000000000000000000000000000000000000000000000000000",
          "blockHash": "0x7ff0819228a80458b8bedd1aa7cefb05c3c7732ff3969791eef515ce694d4aa3",
          "blockNumber": "0x20351ee",
          "transactionHash": "0x6ad275cf962d3cc6b3751b54e90cd20d61fb6c212d655a2c0dc37048b615c99e",
          "transactionIndex": "0xb",
          "logIndex": "0x2b",
          "removed": false
        },
        {
          "address": "0x79242d2f9a923ab409413edced60f5155d5a8d1e",
          "topics": [
            "0x0d4979b0859a1951f8ed7cbe3b1994e740552588f27ba02ca0f8f1ddcad16e0c",
            "0x0000000000000000000000000000000000000000000000000000000000000001"
          ],
          "data": "0x000000000000000000000000000000000000000000000000000000000002dc6c",
          "blockHash": "0x7ff0819228a80458b8bedd1aa7cefb05c3c7732ff3969791eef515ce694d4aa3",
          "blockNumber": "0x20351ee",
          "transactionHash": "0x6ad275cf962d3cc6b3751b54e90cd20d61fb6c212d655a2c0dc37048b615c99e",
          "transactionIndex": "0xb",
          "logIndex": "0x2c",
          "removed": false
        }
      ],
      "logsBloom": "0x10002000000000010000120010400000000000000000000000000000080000000000000000000000000008000000400000110000c00000000000000000240000001000008000000000000008000000000000002000040000000000000000000080000000020000000000000000000800000000000000000000000010000000000000000000000000000000000000400000000000000000002200000000000000020001100000000000000000000000000000000000000000400000010000010000000002000080200000022000000000000000000000001000000000000060040010100000004010000800000010000000000000000000000000000000040000",
      "type": "0x0",
      "transactionHash": "0x6ad275cf962d3cc6b3751b54e90cd20d61fb6c212d655a2c0dc37048b615c99e",
      "transactionIndex": "0xb",
      "blockHash": "0x7ff0819228a80458b8bedd1aa7cefb05c3c7732ff3969791eef515ce694d4aa3",
      "blockNumber": "0x20351ee",
      "gasUsed": "0x32be3",
      "effectiveGasPrice": "0x5d22cfc40",
      "from": "0x3a4db9e7306af09012ceb0f222d581fd1f0c6d71",
      "to": "0x79242d2f9a923ab409413edced60f5155d5a8d1e",
      "contractAddress": null,
      "l1BaseFeeScalar": "0x0",
      "l1BlobBaseFee": "0x17bc3c869",
      "l1BlobBaseFeeScalar": "0x0",
      "l1Fee": "0x0",
      "l1GasPrice": "0x2b6a458d",
      "l1GasUsed": "0x640"
    },
    {
      "status": "0x1",
      "cumulativeGasUsed": "0xf243b",
      "logs": [
        {
          "address": "0x3e59a31363e2ad014dcbc521c4a0d5757d9f3402",
          "topics": [
            "0x804c9b842b2748a22bb64b345453a3de7ca54a6ca45ce00d415894979e22897a",
            "0x00000000000000000000000048065fbbe25f71c9282ddf5e1cd6d6a887483d5e"
          ],
          "data": "0x00000000000000000000000000000000000000000000000b15ec93b7157206eb0000000000000000000000000000000000000000000000000000000000000000000000000000000000000000000000000000000000001c268b533019859eeed80000000000000000000000000000000000000000033b5f8e1ec523a35d1dea770000000000000000000000000000000000000000033bcc9d5f2355df4f7565ee",
          "blockHash": "0xb160faccb5371aaaf462aa32c2de1e7cb910683ba01fd15d59d57fa7a186bef6",
          "blockNumber": "0x20351ef",
          "transactionHash": "0x7e777d3e8509a09928718b131caeb7128a6baf97cc87694aa1731cb5643e75ad",
          "transactionIndex": "0x5",
          "logIndex": "0xd",
          "removed": false
        },
        {
          "address": "0xdee98402a302e4d707fb9bf2bac66faeec31e8df",
          "topics": [
            "0xddf252ad1be2c89b69c2b068fc378daa952ba7f163c4a11628f55a4df523b3ef",
            "0x00000000000000000000000079242d2f9a923ab409413edced60f5155d5a8d1e",
            "0x0000000000000000000000000000000000000000000000000000000000000000"
          ],
          "data": "0x00000000000000000000000000000000000000000000000000000000000249f0",
          "blockHash": "0xb160faccb5371aaaf462aa32c2de1e7cb910683ba01fd15d59d57fa7a186bef6",
          "blockNumber": "0x20351ef",
          "transactionHash": "0x7e777d3e8509a09928718b131caeb7128a6baf97cc87694aa1731cb5643e75ad",
          "transactionIndex": "0x5",
          "logIndex": "0xe",
          "removed": false
        },
        {
          "address": "0xdee98402a302e4d707fb9bf2bac66faeec31e8df",
          "topics": [
            "0x4cf25bc1d991c17529c25213d3cc0cda295eeaad5f13f361969b12ea48015f90",
            "0x00000000000000000000000079242d2f9a923ab409413edced60f5155d5a8d1e",
            "0x0000000000000000000000003a4db9e7306af09012ceb0f222d581fd1f0c6d71"
          ],
          "data": "0x00000000000000000000000000000000000000000000000000000000000249f000000000000000000000000000000000000000000000000000000000000000000000000000000000000000000000000000000000033b5f8e1ec523a35d1dea77",
          "blockHash": "0xb160faccb5371aaaf462aa32c2de1e7cb910683ba01fd15d59d57fa7a186bef6",
          "blockNumber": "0x20351ef",
          "transactionHash": "0x7e777d3e8509a09928718b131caeb7128a6baf97cc87694aa1731cb5643e75ad",
          "transactionIndex": "0x5",
          "logIndex": "0xf",
          "removed": false
        },
        {
          "address": "0x48065fbbe25f71c9282ddf5e1cd6d6a887483d5e",
          "topics": [
            "0xddf252ad1be2c89b69c2b068fc378daa952ba7f163c4a11628f55a4df523b3ef",
            "0x000000000000000000000000dee98402a302e4d707fb9bf2bac66faeec31e8df",
            "0x0000000000000000000000003a4db9e7306af09012ceb0f222d581fd1f0c6d71"
          ],
          "data": "0x00000000000000000000000000000000000000000000000000000000000249f0",
          "blockHash": "0xb160faccb5371aaaf462aa32c2de1e7cb910683ba01fd15d59d57fa7a186bef6",
          "blockNumber": "0x20351ef",
          "transactionHash": "0x7e777d3e8509a09928718b131caeb7128a6baf97cc87694aa1731cb5643e75ad",
          "transactionIndex": "0x5",
          "logIndex": "0x10",
          "removed": false
        },
        {
          "address": "0x3e59a31363e2ad014dcbc521c4a0d5757d9f3402",
          "topics": [
            "0x3115d1449a7b732c986cba18244e897a450f61e1bb8d589cd2e69e6c8924f9f7",
            "0x00000000000000000000000048065fbbe25f71c9282ddf5e1cd6d6a887483d5e",
            "0x00000000000000000000000079242d2f9a923ab409413edced60f5155d5a8d1e",
            "0x0000000000000000000000003a4db9e7306af09012ceb0f222d581fd1f0c6d71"
          ],
          "data": "0x00000000000000000000000000000000000000000000000000000000000249f0",
          "blockHash": "0xb160faccb5371aaaf462aa32c2de1e7cb910683ba01fd15d59d57fa7a186bef6",
          "blockNumber": "0x20351ef",
          "transactionHash": "0x7e777d3e8509a09928718b131caeb7128a6baf97cc87694aa1731cb5643e75ad",
          "transactionIndex": "0x5",
          "logIndex": "0x11",
          "removed": false
        },
        {
          "address": "0x79242d2f9a923ab409413edced60f5155d5a8d1e",
          "topics": [
            "0x2399e8aed1977410745a5211d8226a3a7d9278f50a8a197c5ec6e285bb437f0b",
            "0x0000000000000000000000000000000000000000000000000000000000000001"
          ],
          "data": "0x00000000000000000000000000000000000000000000000000000000000249f0",
          "blockHash": "0xb160faccb5371aaaf462aa32c2de1e7cb910683ba01fd15d59d57fa7a186bef6",
          "blockNumber": "0x20351ef",
          "transactionHash": "0x7e777d3e8509a09928718b131caeb7128a6baf97cc87694aa1731cb5643e75ad",
          "transactionIndex": "0x5",
          "logIndex": "0x12",
          "removed": false
        }
      ],
      "logsBloom": "0x1000200000000000020000000000000000900000000000000000000008000000000000080000000000000800000000000001000080000000000000000004000000100000000000080000000800000000000000000004000000000000000000000000000002000000000000000000080000000000002002004000001000000000000001000000000000000000000040000000000000006000020000000000000000000000008100000000004000000000100000000000000040000001000001000000000200008000000000a000000040000000000000001000000000000160040000000000000000000000000010000000000000000000000000000000000000",
      "type": "0x0",
      "transactionHash": "0x7e777d3e8509a09928718b131caeb7128a6baf97cc87694aa1731cb5643e75ad",
      "transactionIndex": "0x5",
      "blockHash": "0xb160faccb5371aaaf462aa32c2de1e7cb910683ba01fd15d59d57fa7a186bef6",
      "blockNumber": "0x20351ef",
      "gasUsed": "0x53617",
      "effectiveGasPrice": "0x5d22cfc40",
      "from": "0x3a4db9e7306af09012ceb0f222d581fd1f0c6d71",
      "to": "0x79242d2f9a923ab409413edced60f5155d5a8d1e",
      "contractAddress": null,
      "l1BaseFeeScalar": "0x0",
      "l1BlobBaseFee": "0x17bc3c869",
      "l1BlobBaseFeeScalar": "0x0",
      "l1Fee": "0x0",
      "l1GasPrice": "0x2b6a458d",
      "l1GasUsed": "0x640"
    },
    {
      "status": "0x1",
      "cumulativeGasUsed": "0xffcc8",
      "logs": [
        {
          "address": "0xceba9300f2b948710d2653dd7b07f33a8b32118c",
          "topics": [
            "0x8c5be1e5ebec7d5bd14f71427d1e84f3dd0314c0f7b2291e5b200ac8c7c3b925",
            "0x0000000000000000000000003a4db9e7306af09012ceb0f222d581fd1f0c6d71",
            "0x00000000000000000000000079242d2f9a923ab409413edced60f5155d5a8d1e"
          ],
          "data": "0x000000000000000000000000000000000000000000000000000000000002dc6c",
          "blockHash": "0xb160faccb5371aaaf462aa32c2de1e7cb910683ba01fd15d59d57fa7a186bef6",
          "blockNumber": "0x20351ef",
          "transactionHash": "0x3f938a5b5d9e295491f58e4285738b70f1a70db1c4f8e24b20b5b35666ccfcdb",
          "transactionIndex": "0x6",
          "logIndex": "0x13",
          "removed": false
        }
      ],
      "logsBloom": "0x00002000000000000000100000000000000000000000000000000000080000000000000000000000000000000000000000000000000000000000000000200000001000000000000000000000000000000000000000000000000000000000000000000000000000000000000000000000000000000000000000000000000000000000000000000000000000000000400000000000000000000000000000000000020000000000000000000000000000000000000000000000000000000000000000000000000080000000020000000000000000000000001000000000000000000010000000000000000800000000000000000000000000000000000000000000",
      "type": "0x0",
      "transactionHash": "0x3f938a5b5d9e295491f58e4285738b70f1a70db1c4f8e24b20b5b35666ccfcdb",
      "transactionIndex": "0x6",
      "blockHash": "0xb160faccb5371aaaf462aa32c2de1e7cb910683ba01fd15d59d57fa7a186bef6",
      "blockNumber": "0x20351ef",
      "gasUsed": "0xd88d",
      "effectiveGasPrice": "0x5d22cfc40",
      "from": "0x3a4db9e7306af09012ceb0f222d581fd1f0c6d71",
      "to": "0xceba9300f2b948710d2653dd7b07f33a8b32118c",
      "contractAddress": null,
      "l1BaseFeeScalar": "0x0",
      "l1BlobBaseFee": "0x17bc3c869",
      "l1BlobBaseFeeScalar": "0x0",
      "l1Fee": "0x0",
      "l1GasPrice": "0x2b6a458d",
      "l1GasUsed": "0x640"
    },
    {
      "status": "0x1",
      "cumulativeGasUsed": "0x1658a4",
      "logs": [
        {
          "address": "0xceba9300f2b948710d2653dd7b07f33a8b32118c",
          "topics": [
            "0xddf252ad1be2c89b69c2b068fc378daa952ba7f163c4a11628f55a4df523b3ef",
            "0x0000000000000000000000003a4db9e7306af09012ceb0f222d581fd1f0c6d71",
            "0x00000000000000000000000079242d2f9a923ab409413edced60f5155d5a8d1e"
          ],
          "data": "0x000000000000000000000000000000000000000000000000000000000002dc6c",
          "blockHash": "0xb160faccb5371aaaf462aa32c2de1e7cb910683ba01fd15d59d57fa7a186bef6",
          "blockNumber": "0x20351ef",
          "transactionHash": "0x6d9a745a96438fcee881223d0c9cc372a5c259eeb19963028d9a2c7102b6bdec",
          "transactionIndex": "0x7",
          "logIndex": "0x14",
          "removed": false
        },
        {
          "address": "0xceba9300f2b948710d2653dd7b07f33a8b32118c",
          "topics": [
            "0x8c5be1e5ebec7d5bd14f71427d1e84f3dd0314c0f7b2291e5b200ac8c7c3b925",
            "0x00000000000000000000000079242d2f9a923ab409413edced60f5155d5a8d1e",
            "0x0000000000000000000000003e59a31363e2ad014dcbc521c4a0d5757d9f3402"
          ],
          "data": "0x000000000000000000000000000000000000000000000000000000000002dc6c",
          "blockHash": "0xb160faccb5371aaaf462aa32c2de1e7cb910683ba01fd15d59d57fa7a186bef6",
          "blockNumber": "0x20351ef",
          "transactionHash": "0x6d9a745a96438fcee881223d0c9cc372a5c259eeb19963028d9a2c7102b6bdec",
          "transactionIndex": "0x7",
          "logIndex": "0x15",
          "removed": false
        },
        {
          "address": "0xdbe517c0fa6467873b684eccbed77217e471e862",
          "topics": [
            "0xddf252ad1be2c89b69c2b068fc378daa952ba7f163c4a11628f55a4df523b3ef",
            "0x00000000000000000000000079242d2f9a923ab409413edced60f5155d5a8d1e",
            "0x0000000000000000000000000000000000000000000000000000000000000000"
          ],
          "data": "0x000000000000000000000000000000000000000000000000000000000002dc6c",
          "blockHash": "0xb160faccb5371aaaf462aa32c2de1e7cb910683ba01fd15d59d57fa7a186bef6",
          "blockNumber": "0x20351ef",
          "transactionHash": "0x6d9a745a96438fcee881223d0c9cc372a5c259eeb19963028d9a2c7102b6bdec",
          "transactionIndex": "0x7",
          "logIndex": "0x16",
          "removed": false
        },
        {
          "address": "0xdbe517c0fa6467873b684eccbed77217e471e862",
          "topics": [
            "0x4cf25bc1d991c17529c25213d3cc0cda295eeaad5f13f361969b12ea48015f90",
            "0x00000000000000000000000079242d2f9a923ab409413edced60f5155d5a8d1e",
            "0x0000000000000000000000000000000000000000000000000000000000000000"
          ],
          "data": "0x000000000000000000000000000000000000000000000000000000000002dc6c00000000000000000000000000000000000000000000000000000000000000000000000000000000000000000000000000000000033c4e8b6fa1f4f5fe31c680",
          "blockHash": "0xb160faccb5371aaaf462aa32c2de1e7cb910683ba01fd15d59d57fa7a186bef6",
          "blockNumber": "0x20351ef",
          "transactionHash": "0x6d9a745a96438fcee881223d0c9cc372a5c259eeb19963028d9a2c7102b6bdec",
          "transactionIndex": "0x7",
          "logIndex": "0x17",
          "removed": false
        },
        {
          "address": "0x3e59a31363e2ad014dcbc521c4a0d5757d9f3402",
          "topics": [
            "0x804c9b842b2748a22bb64b345453a3de7ca54a6ca45ce00d415894979e22897a",
            "0x000000000000000000000000ceba9300f2b948710d2653dd7b07f33a8b32118c"
          ],
          "data": "0x00000000000000000000000000000000000000000000d50ada1b70911519eadc000000000000000000000000000000000000000000000000000000000000000000000000000000000000000000000000000000000007b682f56335bd6ccc51f40000000000000000000000000000000000000000033b68ac988dbb2af72008ea0000000000000000000000000000000000000000033c4e8b6fa1f4f5fe31c680",
          "blockHash": "0xb160faccb5371aaaf462aa32c2de1e7cb910683ba01fd15d59d57fa7a186bef6",
          "blockNumber": "0x20351ef",
          "transactionHash": "0x6d9a745a96438fcee881223d0c9cc372a5c259eeb19963028d9a2c7102b6bdec",
          "transactionIndex": "0x7",
          "logIndex": "0x18",
          "removed": false
        },
        {
          "address": "0xceba9300f2b948710d2653dd7b07f33a8b32118c",
          "topics": [
            "0xddf252ad1be2c89b69c2b068fc378daa952ba7f163c4a11628f55a4df523b3ef",
            "0x00000000000000000000000079242d2f9a923ab409413edced60f5155d5a8d1e",
            "0x000000000000000000000000ff8309b9e99bfd2d4021bc71a362abd93dbd4785"
          ],
          "data": "0x000000000000000000000000000000000000000000000000000000000002dc6c",
          "blockHash": "0xb160faccb5371aaaf462aa32c2de1e7cb910683ba01fd15d59d57fa7a186bef6",
          "blockNumber": "0x20351ef",
          "transactionHash": "0x6d9a745a96438fcee881223d0c9cc372a5c259eeb19963028d9a2c7102b6bdec",
          "transactionIndex": "0x7",
          "logIndex": "0x19",
          "removed": false
        },
        {
          "address": "0x3e59a31363e2ad014dcbc521c4a0d5757d9f3402",
          "topics": [
            "0xa534c8dbe71f871f9f3530e97a74601fea17b426cae02e1c5aee42c96c784051",
            "0x000000000000000000000000ceba9300f2b948710d2653dd7b07f33a8b32118c",
            "0x00000000000000000000000079242d2f9a923ab409413edced60f5155d5a8d1e",
            "0x00000000000000000000000079242d2f9a923ab409413edced60f5155d5a8d1e"
          ],
          "data": "0x000000000000000000000000000000000000000000000000000000000002dc6c0000000000000000000000000000000000000000000000000000000000000000",
          "blockHash": "0xb160faccb5371aaaf462aa32c2de1e7cb910683ba01fd15d59d57fa7a186bef6",
          "blockNumber": "0x20351ef",
          "transactionHash": "0x6d9a745a96438fcee881223d0c9cc372a5c259eeb19963028d9a2c7102b6bdec",
          "transactionIndex": "0x7",
          "logIndex": "0x1a",
          "removed": false
        },
        {
          "address": "0x3e59a31363e2ad014dcbc521c4a0d5757d9f3402",
          "topics": [
            "0x804c9b842b2748a22bb64b345453a3de7ca54a6ca45ce00d415894979e22897a",
            "0x00000000000000000000000048065fbbe25f71c9282ddf5e1cd6d6a887483d5e"
          ],
          "data": "0x00000000000000000000000000000000000000000000000b15ecdf7467b9f2090000000000000000000000000000000000000000000000000000000000000000000000000000000000000000000000000000000000001c268bb35a71bcc25f050000000000000000000000000000000000000000033b5f8e1ec523a35d1dea770000000000000000000000000000000000000000033bcc9d5f2355df4f7565ee",
          "blockHash": "0xb160faccb5371aaaf462aa32c2de1e7cb910683ba01fd15d59d57fa7a186bef6",
          "blockNumber": "0x20351ef",
          "transactionHash": "0x6d9a745a96438fcee881223d0c9cc372a5c259eeb19963028d9a2c7102b6bdec",
          "transactionIndex": "0x7",
          "logIndex": "0x1b",
          "removed": false
        },
        {
          "address": "0x3e59a31363e2ad014dcbc521c4a0d5757d9f3402",
          "topics": [
            "0x44c58d81365b66dd4b1a7f36c25aa97b8c71c361ee4937adc1a00000227db5dd",
            "0x00000000000000000000000048065fbbe25f71c9282ddf5e1cd6d6a887483d5e",
            "0x00000000000000000000000079242d2f9a923ab409413edced60f5155d5a8d1e"
          ],
          "data": "0x",
          "blockHash": "0xb160faccb5371aaaf462aa32c2de1e7cb910683ba01fd15d59d57fa7a186bef6",
          "blockNumber": "0x20351ef",
          "transactionHash": "0x6d9a745a96438fcee881223d0c9cc372a5c259eeb19963028d9a2c7102b6bdec",
          "transactionIndex": "0x7",
          "logIndex": "0x1c",
          "removed": false
        },
        {
          "address": "0xdee98402a302e4d707fb9bf2bac66faeec31e8df",
          "topics": [
            "0xddf252ad1be2c89b69c2b068fc378daa952ba7f163c4a11628f55a4df523b3ef",
            "0x00000000000000000000000079242d2f9a923ab409413edced60f5155d5a8d1e",
            "0x0000000000000000000000000000000000000000000000000000000000000000"
          ],
          "data": "0x00000000000000000000000000000000000000000000000000000000000927c1",
          "blockHash": "0xb160faccb5371aaaf462aa32c2de1e7cb910683ba01fd15d59d57fa7a186bef6",
          "blockNumber": "0x20351ef",
          "transactionHash": "0x6d9a745a96438fcee881223d0c9cc372a5c259eeb19963028d9a2c7102b6bdec",
          "transactionIndex": "0x7",
          "logIndex": "0x1d",
          "removed": false
        },
        {
          "address": "0xdee98402a302e4d707fb9bf2bac66faeec31e8df",
          "topics": [
            "0x4cf25bc1d991c17529c25213d3cc0cda295eeaad5f13f361969b12ea48015f90",
            "0x00000000000000000000000079242d2f9a923ab409413edced60f5155d5a8d1e",
            "0x0000000000000000000000003a4db9e7306af09012ceb0f222d581fd1f0c6d71"
          ],
          "data": "0x00000000000000000000000000000000000000000000000000000000000927c100000000000000000000000000000000000000000000000000000000000000000000000000000000000000000000000000000000033b5f8e1ec523a35d1dea77",
          "blockHash": "0xb160faccb5371aaaf462aa32c2de1e7cb910683ba01fd15d59d57fa7a186bef6",
          "blockNumber": "0x20351ef",
          "transactionHash": "0x6d9a745a96438fcee881223d0c9cc372a5c259eeb19963028d9a2c7102b6bdec",
          "transactionIndex": "0x7",
          "logIndex": "0x1e",
          "removed": false
        },
        {
          "address": "0x48065fbbe25f71c9282ddf5e1cd6d6a887483d5e",
          "topics": [
            "0xddf252ad1be2c89b69c2b068fc378daa952ba7f163c4a11628f55a4df523b3ef",
            "0x000000000000000000000000dee98402a302e4d707fb9bf2bac66faeec31e8df",
            "0x0000000000000000000000003a4db9e7306af09012ceb0f222d581fd1f0c6d71"
          ],
          "data": "0x00000000000000000000000000000000000000000000000000000000000927c1",
          "blockHash": "0xb160faccb5371aaaf462aa32c2de1e7cb910683ba01fd15d59d57fa7a186bef6",
          "blockNumber": "0x20351ef",
          "transactionHash": "0x6d9a745a96438fcee881223d0c9cc372a5c259eeb19963028d9a2c7102b6bdec",
          "transactionIndex": "0x7",
          "logIndex": "0x1f",
          "removed": false
        },
        {
          "address": "0x3e59a31363e2ad014dcbc521c4a0d5757d9f3402",
          "topics": [
            "0x3115d1449a7b732c986cba18244e897a450f61e1bb8d589cd2e69e6c8924f9f7",
            "0x00000000000000000000000048065fbbe25f71c9282ddf5e1cd6d6a887483d5e",
            "0x00000000000000000000000079242d2f9a923ab409413edced60f5155d5a8d1e",
            "0x0000000000000000000000003a4db9e7306af09012ceb0f222d581fd1f0c6d71"
          ],
          "data": "0x00000000000000000000000000000000000000000000000000000000000927c1",
          "blockHash": "0xb160faccb5371aaaf462aa32c2de1e7cb910683ba01fd15d59d57fa7a186bef6",
          "blockNumber": "0x20351ef",
          "transactionHash": "0x6d9a745a96438fcee881223d0c9cc372a5c259eeb19963028d9a2c7102b6bdec",
          "transactionIndex": "0x7",
          "logIndex": "0x20",
          "removed": false
        },
        {
          "address": "0x79242d2f9a923ab409413edced60f5155d5a8d1e",
          "topics": [
            "0xcefaf961c5013063cf501ffd9f9382e9b9c4b15741ad032fe93d7e9c7c733b22",
            "0x0000000000000000000000000000000000000000000000000000000000000001",
            "0x0000000000000000000000003a4db9e7306af09012ceb0f222d581fd1f0c6d71"
          ],
          "data": "0x",
          "blockHash": "0xb160faccb5371aaaf462aa32c2de1e7cb910683ba01fd15d59d57fa7a186bef6",
          "blockNumber": "0x20351ef",
          "transactionHash": "0x6d9a745a96438fcee881223d0c9cc372a5c259eeb19963028d9a2c7102b6bdec",
          "transactionIndex": "0x7",
          "logIndex": "0x21",
          "removed": false
        }
      ],
      "logsBloom": "0x10002000000000010200120000400000009020000000000000000000080000000000000800000000000008000000400000110000c0000000000000000024000000100000800000088000000800020000000000000004000000000000000000000000000002000000000000000004080000000000000002004000001000000000000001000000000000000000000040000000000008000000220000000000000002000110008100000000004000000000100000000000000040000001000001000000000200008020000002a000000040000000000000001000000000000160040010100000004010000880000010000000000000000000000000000000040000",
      "type": "0x0",
      "transactionHash": "0x6d9a745a96438fcee881223d0c9cc372a5c259eeb19963028d9a2c7102b6bdec",
      "transactionIndex": "0x7",
      "blockHash": "0xb160faccb5371aaaf462aa32c2de1e7cb910683ba01fd15d59d57fa7a186bef6",
      "blockNumber": "0x20351ef",
      "gasUsed": "0x65bdc",
      "effectiveGasPrice": "0x5d22cfc40",
      "from": "0x3a4db9e7306af09012ceb0f222d581fd1f0c6d71",
      "to": "0x79242d2f9a923ab409413edced60f5155d5a8d1e",
      "contractAddress": null,
      "l1BaseFeeScalar": "0x0",
      "l1BlobBaseFee": "0x17bc3c869",
      "l1BlobBaseFeeScalar": "0x0",
      "l1Fee": "0x0",
      "l1GasPrice": "0x2b6a458d",
      "l1GasUsed": "0x640"
    }
  ],
  "libraries": [],
  "pending": [],
  "returns": {},
  "timestamp": 1745672773,
  "chain": 42220,
  "commit": "1cefd9d"
}