{
  "transactions": [
    {
      "hash": "0xd50067d105b7fb6dccecf9d88a26073d1d1e3ff1b79794247dfa14aa1a973e8b",
      "transactionType": "CALL",
      "contractName": null,
      "contractAddress": "0x48065fbbe25f71c9282ddf5e1cd6d6a887483d5e",
      "function": "approve(address,uint256)",
      "arguments": [
        "0x79242D2F9a923AB409413eDCEd60f5155D5A8D1e",
        "500000"
      ],
      "transaction": {
        "from": "0x3a4db9e7306af09012ceb0f222d581fd1f0c6d71",
        "to": "0x48065fbbe25f71c9282ddf5e1cd6d6a887483d5e",
        "gas": "0x1201c",
        "value": "0x0",
        "input": "0x095ea7b300000000000000000000000079242d2f9a923ab409413edced60f5155d5a8d1e000000000000000000000000000000000000000000000000000000000007a120",
        "nonce": "0x48",
        "chainId": "0xa4ec"
      },
      "additionalContracts": [],
      "isFixedGasLimit": false
    },
    {
      "hash": "0x229a364e3f9efa1c32cab4130bb1f7b3e99283e988abdb63deff35988637aa05",
      "transactionType": "CALL",
      "contractName": null,
      "contractAddress": "0x79242d2f9a923ab409413edced60f5155d5a8d1e",
      "function": "createPosition(address,uint256,address,uint256,uint256)",
      "arguments": [
        "0x48065fbBE25f71C9282ddf5e1cD6D6A887483D5e",
        "500000",
        "0xcebA9300f2b948710d2653dD7B07f33A8B32118C",
        "250000",
        "2"
      ],
      "transaction": {
        "from": "0x3a4db9e7306af09012ceb0f222d581fd1f0c6d71",
        "to": "0x79242d2f9a923ab409413edced60f5155d5a8d1e",
        "gas": "0xdba5e",
        "value": "0x0",
        "input": "0xb0c3d5df00000000000000000000000048065fbbe25f71c9282ddf5e1cd6d6a887483d5e000000000000000000000000000000000000000000000000000000000007a120000000000000000000000000ceba9300f2b948710d2653dd7b07f33a8b32118c000000000000000000000000000000000000000000000000000000000003d0900000000000000000000000000000000000000000000000000000000000000002",
        "nonce": "0x49",
        "chainId": "0xa4ec"
      },
      "additionalContracts": [],
      "isFixedGasLimit": false
    },
    {
      "hash": "0xf925abfed0a1d2f4ea39b81c0c4612c5abf850d796a7bc0b43a21ff23edfb784",
      "transactionType": "CALL",
      "contractName": null,
      "contractAddress": "0x48065fbbe25f71c9282ddf5e1cd6d6a887483d5e",
      "function": "approve(address,uint256)",
      "arguments": [
        "0x79242D2F9a923AB409413eDCEd60f5155D5A8D1e",
        "250000"
      ],
      "transaction": {
        "from": "0x3a4db9e7306af09012ceb0f222d581fd1f0c6d71",
        "to": "0x48065fbbe25f71c9282ddf5e1cd6d6a887483d5e",
        "gas": "0x1201c",
        "value": "0x0",
        "input": "0x095ea7b300000000000000000000000079242d2f9a923ab409413edced60f5155d5a8d1e000000000000000000000000000000000000000000000000000000000003d090",
        "nonce": "0x4a",
        "chainId": "0xa4ec"
      },
      "additionalContracts": [],
      "isFixedGasLimit": false
    },
    {
      "hash": "0xbe40efe69a77a98aa623093d0dd739aea3fd67cb2e0340a16408e8795d6f1e4b",
      "transactionType": "CALL",
      "contractName": null,
      "contractAddress": "0x79242d2f9a923ab409413edced60f5155d5a8d1e",
      "function": "addCollateral(uint256,uint256)",
      "arguments": [
        "2",
        "250000"
      ],
      "transaction": {
        "from": "0x3a4db9e7306af09012ceb0f222d581fd1f0c6d71",
        "to": "0x79242d2f9a923ab409413edced60f5155d5a8d1e",
        "gas": "0x4b5df",
        "value": "0x0",
        "input": "0xa8f35adf0000000000000000000000000000000000000000000000000000000000000002000000000000000000000000000000000000000000000000000000000003d090",
        "nonce": "0x4b",
        "chainId": "0xa4ec"
      },
      "additionalContracts": [],
      "isFixedGasLimit": false
    },
    {
      "hash": "0xcc2de9ccf811d0b4c9224c7e647e90dd13aef6d24fd00281993e705702246b18",
      "transactionType": "CALL",
      "contractName": null,
      "contractAddress": "0x79242d2f9a923ab409413edced60f5155d5a8d1e",
      "function": "increaseBorrow(uint256,uint256)",
      "arguments": [
        "2",
        "125000"
      ],
      "transaction": {
        "from": "0x3a4db9e7306af09012ceb0f222d581fd1f0c6d71",
        "to": "0x79242d2f9a923ab409413edced60f5155d5a8d1e",
        "gas": "0x780a8",
        "value": "0x0",
        "input": "0x9e6824d90000000000000000000000000000000000000000000000000000000000000002000000000000000000000000000000000000000000000000000000000001e848",
        "nonce": "0x4c",
        "chainId": "0xa4ec"
      },
      "additionalContracts": [],
      "isFixedGasLimit": false
    },
    {
      "hash": "0x9228cb338a04e5da224810d62c595f3e77615151b488a2807605ec71e1c46ae4",
      "transactionType": "CALL",
      "contractName": null,
      "contractAddress": "0xceba9300f2b948710d2653dd7b07f33a8b32118c",
      "function": "approve(address,uint256)",
      "arguments": [
        "0x79242D2F9a923AB409413eDCEd60f5155D5A8D1e",
        "187500"
      ],
      "transaction": {
        "from": "0x3a4db9e7306af09012ceb0f222d581fd1f0c6d71",
        "to": "0xceba9300f2b948710d2653dd7b07f33a8b32118c",
        "gas": "0x12b1b",
        "value": "0x0",
        "input": "0x095ea7b300000000000000000000000079242d2f9a923ab409413edced60f5155d5a8d1e000000000000000000000000000000000000000000000000000000000002dc6c",
        "nonce": "0x4d",
        "chainId": "0xa4ec"
      },
      "additionalContracts": [],
      "isFixedGasLimit": false
    },
    {
      "hash": "0xf43342e167a8d1682bb0202fa2cb60482c8177efaa3fddde75d1fb11d7c93f8d",
      "transactionType": "CALL",
      "contractName": null,
      "contractAddress": "0x79242d2f9a923ab409413edced60f5155d5a8d1e",
      "function": "repayDebt(uint256,uint256)",
      "arguments": [
        "2",
        "187500"
      ],
      "transaction": {
        "from": "0x3a4db9e7306af09012ceb0f222d581fd1f0c6d71",
        "to": "0x79242d2f9a923ab409413edced60f5155d5a8d1e",
        "gas": "0x4a361",
        "value": "0x0",
        "input": "0x015cb0a50000000000000000000000000000000000000000000000000000000000000002000000000000000000000000000000000000000000000000000000000002dc6c",
        "nonce": "0x4e",
        "chainId": "0xa4ec"
      },
      "additionalContracts": [],
      "isFixedGasLimit": false
    },
    {
      "hash": "0x84793c8d0cc8c37e7cced40939e61589b13747dfeb0cf6c94b2e77783f17b1ea",
      "transactionType": "CALL",
      "contractName": null,
      "contractAddress": "0x79242d2f9a923ab409413edced60f5155d5a8d1e",
      "function": "withdrawCollateral(uint256,uint256)",
      "arguments": [
        "2",
        "150000"
      ],
      "transaction": {
        "from": "0x3a4db9e7306af09012ceb0f222d581fd1f0c6d71",
        "to": "0x79242d2f9a923ab409413edced60f5155d5a8d1e",
        "gas": "0x75bb4",
        "value": "0x0",
        "input": "0x767a7b05000000000000000000000000000000000000000000000000000000000000000200000000000000000000000000000000000000000000000000000000000249f0",
        "nonce": "0x4f",
        "chainId": "0xa4ec"
      },
      "additionalContracts": [],
      "isFixedGasLimit": false
    },
    {
      "hash": "0xbd06fb544af533bb4c24dd2f7f3fac03bd328a23a2ca5e44a1cb6ba43194585c",
      "transactionType": "CALL",
      "contractName": null,
      "contractAddress": "0xceba9300f2b948710d2653dd7b07f33a8b32118c",
      "function": "approve(address,uint256)",
      "arguments": [
        "0x79242D2F9a923AB409413eDCEd60f5155D5A8D1e",
        "187500"
      ],
      "transaction": {
        "from": "0x3a4db9e7306af09012ceb0f222d581fd1f0c6d71",
        "to": "0xceba9300f2b948710d2653dd7b07f33a8b32118c",
        "gas": "0x12b1b",
        "value": "0x0",
        "input": "0x095ea7b300000000000000000000000079242d2f9a923ab409413edced60f5155d5a8d1e000000000000000000000000000000000000000000000000000000000002dc6c",
        "nonce": "0x50",
        "chainId": "0xa4ec"
      },
      "additionalContracts": [],
      "isFixedGasLimit": false
    },
    {
      "hash": "0xb34cd5c95e2bc4b4f8037c221881ee0bdb2083d178b799cd2eba420c8cf0456d",
      "transactionType": "CALL",
      "contractName": null,
      "contractAddress": "0x79242d2f9a923ab409413edced60f5155d5a8d1e",
      "function": "closePosition(uint256)",
      "arguments": [
        "2"
      ],
      "transaction": {
        "from": "0x3a4db9e7306af09012ceb0f222d581fd1f0c6d71",
        "to": "0x79242d2f9a923ab409413edced60f5155d5a8d1e",
        "gas": "0x909d3",
        "value": "0x0",
        "input": "0xa126d6010000000000000000000000000000000000000000000000000000000000000002",
        "nonce": "0x51",
        "chainId": "0xa4ec"
      },
      "additionalContracts": [],
      "isFixedGasLimit": false
    }
  ],
  "receipts": [
    {
      "status": "0x1",
      "cumulativeGasUsed": "0x151f14",
      "logs": [
        {
          "address": "0x48065fbbe25f71c9282ddf5e1cd6d6a887483d5e",
          "topics": [
            "0x8c5be1e5ebec7d5bd14f71427d1e84f3dd0314c0f7b2291e5b200ac8c7c3b925",
            "0x0000000000000000000000003a4db9e7306af09012ceb0f222d581fd1f0c6d71",
            "0x00000000000000000000000079242d2f9a923ab409413edced60f5155d5a8d1e"
          ],
          "data": "0x000000000000000000000000000000000000000000000000000000000007a120",
          "blockHash": "0x67f59dc3c2b97bd967fa34a1eff1f13534be73be25d7ad3525096f1e81b3eca2",
          "blockNumber": "0x20353b2",
          "transactionHash": "0xd50067d105b7fb6dccecf9d88a26073d1d1e3ff1b79794247dfa14aa1a973e8b",
          "transactionIndex": "0xa",
          "logIndex": "0x29",
          "removed": false
        }
      ],
      "logsBloom": "0x00002000000000000000000000000000000000000000000000000000080000000000000000000000000000000000000000000000000000000000000000200000001000000000000000000000000000000000000000000000000000000000000000000000000000000000000000000000000000000000000040000000000000000000010000000000000000000000400000000000000000000000000000000000020000000000000000000000000000000000000000000000000000000000000000000000000080000000008000000000000000000000001000000000000000000010000000000000000000000000000000000000000000000000000000000000",
      "type": "0x0",
      "transactionHash": "0xd50067d105b7fb6dccecf9d88a26073d1d1e3ff1b79794247dfa14aa1a973e8b",
      "transactionIndex": "0xa",
      "blockHash": "0x67f59dc3c2b97bd967fa34a1eff1f13534be73be25d7ad3525096f1e81b3eca2",
      "blockNumber": "0x20353b2",
      "gasUsed": "0xd097",
      "effectiveGasPrice": "0x5d22cfc40",
      "from": "0x3a4db9e7306af09012ceb0f222d581fd1f0c6d71",
      "to": "0x48065fbbe25f71c9282ddf5e1cd6d6a887483d5e",
      "contractAddress": null,
      "l1BaseFeeScalar": "0x0",
      "l1BlobBaseFee": "0x1f3e2b33d",
      "l1BlobBaseFeeScalar": "0x0",
      "l1Fee": "0x0",
      "l1GasPrice": "0x2c0bdaa3",
      "l1GasUsed": "0x640"
    },
    {
      "status": "0x1",
      "cumulativeGasUsed": "0x1f0f6b",
      "logs": [
        {
          "address": "0x48065fbbe25f71c9282ddf5e1cd6d6a887483d5e",
          "topics": [
            "0xddf252ad1be2c89b69c2b068fc378daa952ba7f163c4a11628f55a4df523b3ef",
            "0x0000000000000000000000003a4db9e7306af09012ceb0f222d581fd1f0c6d71",
            "0x00000000000000000000000079242d2f9a923ab409413edced60f5155d5a8d1e"
          ],
          "data": "0x000000000000000000000000000000000000000000000000000000000007a120",
          "blockHash": "0x67f59dc3c2b97bd967fa34a1eff1f13534be73be25d7ad3525096f1e81b3eca2",
          "blockNumber": "0x20353b2",
          "transactionHash": "0x229a364e3f9efa1c32cab4130bb1f7b3e99283e988abdb63deff35988637aa05",
          "transactionIndex": "0xb",
          "logIndex": "0x2a",
          "removed": false
        },
        {
          "address": "0x48065fbbe25f71c9282ddf5e1cd6d6a887483d5e",
          "topics": [
            "0x8c5be1e5ebec7d5bd14f71427d1e84f3dd0314c0f7b2291e5b200ac8c7c3b925",
            "0x0000000000000000000000003a4db9e7306af09012ceb0f222d581fd1f0c6d71",
            "0x00000000000000000000000079242d2f9a923ab409413edced60f5155d5a8d1e"
          ],
          "data": "0x0000000000000000000000000000000000000000000000000000000000000000",
          "blockHash": "0x67f59dc3c2b97bd967fa34a1eff1f13534be73be25d7ad3525096f1e81b3eca2",
          "blockNumber": "0x20353b2",
          "transactionHash": "0x229a364e3f9efa1c32cab4130bb1f7b3e99283e988abdb63deff35988637aa05",
          "transactionIndex": "0xb",
          "logIndex": "0x2b",
          "removed": false
        },
        {
          "address": "0x48065fbbe25f71c9282ddf5e1cd6d6a887483d5e",
          "topics": [
            "0x8c5be1e5ebec7d5bd14f71427d1e84f3dd0314c0f7b2291e5b200ac8c7c3b925",
            "0x00000000000000000000000079242d2f9a923ab409413edced60f5155d5a8d1e",
            "0x0000000000000000000000003e59a31363e2ad014dcbc521c4a0d5757d9f3402"
          ],
          "data": "0x000000000000000000000000000000000000000000000000000000000007a120",
          "blockHash": "0x67f59dc3c2b97bd967fa34a1eff1f13534be73be25d7ad3525096f1e81b3eca2",
          "blockNumber": "0x20353b2",
          "transactionHash": "0x229a364e3f9efa1c32cab4130bb1f7b3e99283e988abdb63deff35988637aa05",
          "transactionIndex": "0xb",
          "logIndex": "0x2c",
          "removed": false
        },
        {
          "address": "0x3e59a31363e2ad014dcbc521c4a0d5757d9f3402",
          "topics": [
            "0x804c9b842b2748a22bb64b345453a3de7ca54a6ca45ce00d415894979e22897a",
            "0x00000000000000000000000048065fbbe25f71c9282ddf5e1cd6d6a887483d5e"
          ],
          "data": "0x00000000000000000000000000000000000000000000000b15eca11368a995c90000000000000000000000000000000000000000000000000000000000000000000000000000000000000000000000000000000000001c268b6426d68509c3b00000000000000000000000000000000000000000033b5f8e1ecf8811a26bb0b20000000000000000000000000000000000000000033bcc9d798aa29c5bc9b336",
          "blockHash": "0x67f59dc3c2b97bd967fa34a1eff1f13534be73be25d7ad3525096f1e81b3eca2",
          "blockNumber": "0x20353b2",
          "transactionHash": "0x229a364e3f9efa1c32cab4130bb1f7b3e99283e988abdb63deff35988637aa05",
          "transactionIndex": "0xb",
          "logIndex": "0x2d",
          "removed": false
        },
        {
          "address": "0x48065fbbe25f71c9282ddf5e1cd6d6a887483d5e",
          "topics": [
            "0xddf252ad1be2c89b69c2b068fc378daa952ba7f163c4a11628f55a4df523b3ef",
            "0x00000000000000000000000079242d2f9a923ab409413edced60f5155d5a8d1e",
            "0x000000000000000000000000dee98402a302e4d707fb9bf2bac66faeec31e8df"
          ],
          "data": "0x000000000000000000000000000000000000000000000000000000000007a120",
          "blockHash": "0x67f59dc3c2b97bd967fa34a1eff1f13534be73be25d7ad3525096f1e81b3eca2",
          "blockNumber": "0x20353b2",
          "transactionHash": "0x229a364e3f9efa1c32cab4130bb1f7b3e99283e988abdb63deff35988637aa05",
          "transactionIndex": "0xb",
          "logIndex": "0x2e",
          "removed": false
        },
        {
          "address": "0x48065fbbe25f71c9282ddf5e1cd6d6a887483d5e",
          "topics": [
            "0x8c5be1e5ebec7d5bd14f71427d1e84f3dd0314c0f7b2291e5b200ac8c7c3b925",
            "0x00000000000000000000000079242d2f9a923ab409413edced60f5155d5a8d1e",
            "0x0000000000000000000000003e59a31363e2ad014dcbc521c4a0d5757d9f3402"
          ],
          "data": "0x0000000000000000000000000000000000000000000000000000000000000000",
          "blockHash": "0x67f59dc3c2b97bd967fa34a1eff1f13534be73be25d7ad3525096f1e81b3eca2",
          "blockNumber": "0x20353b2",
          "transactionHash": "0x229a364e3f9efa1c32cab4130bb1f7b3e99283e988abdb63deff35988637aa05",
          "transactionIndex": "0xb",
          "logIndex": "0x2f",
          "removed": false
        },
        {
          "address": "0xdee98402a302e4d707fb9bf2bac66faeec31e8df",
          "topics": [
            "0xddf252ad1be2c89b69c2b068fc378daa952ba7f163c4a11628f55a4df523b3ef",
            "0x0000000000000000000000000000000000000000000000000000000000000000",
            "0x00000000000000000000000079242d2f9a923ab409413edced60f5155d5a8d1e"
          ],
          "data": "0x000000000000000000000000000000000000000000000000000000000007a120",
          "blockHash": "0x67f59dc3c2b97bd967fa34a1eff1f13534be73be25d7ad3525096f1e81b3eca2",
          "blockNumber": "0x20353b2",
          "transactionHash": "0x229a364e3f9efa1c32cab4130bb1f7b3e99283e988abdb63deff35988637aa05",
          "transactionIndex": "0xb",
          "logIndex": "0x30",
          "removed": false
        },
        {
          "address": "0xdee98402a302e4d707fb9bf2bac66faeec31e8df",
          "topics": [
            "0x458f5fa412d0f69b08dd84872b0215675cc67bc1d5b6fd93300a1c3878b86196",
            "0x00000000000000000000000079242d2f9a923ab409413edced60f5155d5a8d1e",
            "0x00000000000000000000000079242d2f9a923ab409413edced60f5155d5a8d1e"
          ],
          "data": "0x000000000000000000000000000000000000000000000000000000000007a12000000000000000000000000000000000000000000000000000000000000000000000000000000000000000000000000000000000033b5f8e1ecf8811a26bb0b2",
          "blockHash": "0x67f59dc3c2b97bd967fa34a1eff1f13534be73be25d7ad3525096f1e81b3eca2",
          "blockNumber": "0x20353b2",
          "transactionHash": "0x229a364e3f9efa1c32cab4130bb1f7b3e99283e988abdb63deff35988637aa05",
          "transactionIndex": "0xb",
          "logIndex": "0x31",
          "removed": false
        },
        {
          "address": "0x3e59a31363e2ad014dcbc521c4a0d5757d9f3402",
          "topics": [
            "0x00058a56ea94653cdf4f152d227ace22d4c00ad99e2a43f58cb7d9e3feb295f2",
            "0x00000000000000000000000048065fbbe25f71c9282ddf5e1cd6d6a887483d5e",
            "0x00000000000000000000000079242d2f9a923ab409413edced60f5155d5a8d1e"
          ],
          "data": "0x",
          "blockHash": "0x67f59dc3c2b97bd967fa34a1eff1f13534be73be25d7ad3525096f1e81b3eca2",
          "blockNumber": "0x20353b2",
          "transactionHash": "0x229a364e3f9efa1c32cab4130bb1f7b3e99283e988abdb63deff35988637aa05",
          "transactionIndex": "0xb",
          "logIndex": "0x32",
          "removed": false
        },
        {
          "address": "0x3e59a31363e2ad014dcbc521c4a0d5757d9f3402",
          "topics": [
            "0x2b627736bca15cd5381dcf80b0bf11fd197d01a037c52b927a881a10fb73ba61",
            "0x00000000000000000000000048065fbbe25f71c9282ddf5e1cd6d6a887483d5e",
            "0x00000000000000000000000079242d2f9a923ab409413edced60f5155d5a8d1e",
            "0x0000000000000000000000000000000000000000000000000000000000000000"
          ],
          "data": "0x00000000000000000000000079242d2f9a923ab409413edced60f5155d5a8d1e000000000000000000000000000000000000000000000000000000000007a120",
          "blockHash": "0x67f59dc3c2b97bd967fa34a1eff1f13534be73be25d7ad3525096f1e81b3eca2",
          "blockNumber": "0x20353b2",
          "transactionHash": "0x229a364e3f9efa1c32cab4130bb1f7b3e99283e988abdb63deff35988637aa05",
          "transactionIndex": "0xb",
          "logIndex": "0x33",
          "removed": false
        },
        {
          "address": "0xdbe517c0fa6467873b684eccbed77217e471e862",
          "topics": [
            "0xddf252ad1be2c89b69c2b068fc378daa952ba7f163c4a11628f55a4df523b3ef",
            "0x0000000000000000000000000000000000000000000000000000000000000000",
            "0x00000000000000000000000079242d2f9a923ab409413edced60f5155d5a8d1e"
          ],
          "data": "0x000000000000000000000000000000000000000000000000000000000003d090",
          "blockHash": "0x67f59dc3c2b97bd967fa34a1eff1f13534be73be25d7ad3525096f1e81b3eca2",
          "blockNumber": "0x20353b2",
          "transactionHash": "0x229a364e3f9efa1c32cab4130bb1f7b3e99283e988abdb63deff35988637aa05",
          "transactionIndex": "0xb",
          "logIndex": "0x34",
          "removed": false
        },
        {
          "address": "0xdbe517c0fa6467873b684eccbed77217e471e862",
          "topics": [
            "0x458f5fa412d0f69b08dd84872b0215675cc67bc1d5b6fd93300a1c3878b86196",
            "0x00000000000000000000000079242d2f9a923ab409413edced60f5155d5a8d1e",
            "0x00000000000000000000000079242d2f9a923ab409413edced60f5155d5a8d1e"
          ],
          "data": "0x000000000000000000000000000000000000000000000000000000000003d09000000000000000000000000000000000000000000000000000000000000000000000000000000000000000000000000000000000033c4e92acbd4fb557857069",
          "blockHash": "0x67f59dc3c2b97bd967fa34a1eff1f13534be73be25d7ad3525096f1e81b3eca2",
          "blockNumber": "0x20353b2",
          "transactionHash": "0x229a364e3f9efa1c32cab4130bb1f7b3e99283e988abdb63deff35988637aa05",
          "transactionIndex": "0xb",
          "logIndex": "0x35",
          "removed": false
        },
        {
          "address": "0x3e59a31363e2ad014dcbc521c4a0d5757d9f3402",
          "topics": [
            "0x804c9b842b2748a22bb64b345453a3de7ca54a6ca45ce00d415894979e22897a",
            "0x000000000000000000000000ceba9300f2b948710d2653dd7b07f33a8b32118c"
          ],
          "data": "0x00000000000000000000000000000000000000000000d50b22f97d5bc5495351000000000000000000000000000000000000000000000000000000000000000000000000000000000000000000000000000000000007b684470f7ba7f13561d20000000000000000000000000000000000000000033b68ad6047b81366838d700000000000000000000000000000000000000000033c4e92acbd4fb557857069",
          "blockHash": "0x67f59dc3c2b97bd967fa34a1eff1f13534be73be25d7ad3525096f1e81b3eca2",
          "blockNumber": "0x20353b2",
          "transactionHash": "0x229a364e3f9efa1c32cab4130bb1f7b3e99283e988abdb63deff35988637aa05",
          "transactionIndex": "0xb",
          "logIndex": "0x36",
          "removed": false
        },
        {
          "address": "0xceba9300f2b948710d2653dd7b07f33a8b32118c",
          "topics": [
            "0xddf252ad1be2c89b69c2b068fc378daa952ba7f163c4a11628f55a4df523b3ef",
            "0x000000000000000000000000ff8309b9e99bfd2d4021bc71a362abd93dbd4785",
            "0x00000000000000000000000079242d2f9a923ab409413edced60f5155d5a8d1e"
          ],
          "data": "0x000000000000000000000000000000000000000000000000000000000003d090",
          "blockHash": "0x67f59dc3c2b97bd967fa34a1eff1f13534be73be25d7ad3525096f1e81b3eca2",
          "blockNumber": "0x20353b2",
          "transactionHash": "0x229a364e3f9efa1c32cab4130bb1f7b3e99283e988abdb63deff35988637aa05",
          "transactionIndex": "0xb",
          "logIndex": "0x37",
          "removed": false
        },
        {
          "address": "0x3e59a31363e2ad014dcbc521c4a0d5757d9f3402",
          "topics": [
            "0xb3d084820fb1a9decffb176436bd02558d15fac9b0ddfed8c465bc7359d7dce0",
            "0x000000000000000000000000ceba9300f2b948710d2653dd7b07f33a8b32118c",
            "0x00000000000000000000000079242d2f9a923ab409413edced60f5155d5a8d1e",
            "0x0000000000000000000000000000000000000000000000000000000000000000"
          ],
          "data": "0x00000000000000000000000079242d2f9a923ab409413edced60f5155d5a8d1e000000000000000000000000000000000000000000000000000000000003d090000000000000000000000000000000000000000000000000000000000000000200000000000000000000000000000000000000000007b684470f7ba7f13561d2",
          "blockHash": "0x67f59dc3c2b97bd967fa34a1eff1f13534be73be25d7ad3525096f1e81b3eca2",
          "blockNumber": "0x20353b2",
          "transactionHash": "0x229a364e3f9efa1c32cab4130bb1f7b3e99283e988abdb63deff35988637aa05",
          "transactionIndex": "0xb",
          "logIndex": "0x38",
          "removed": false
        },
        {
          "address": "0xceba9300f2b948710d2653dd7b07f33a8b32118c",
          "topics": [
            "0xddf252ad1be2c89b69c2b068fc378daa952ba7f163c4a11628f55a4df523b3ef",
            "0x00000000000000000000000079242d2f9a923ab409413edced60f5155d5a8d1e",
            "0x0000000000000000000000003a4db9e7306af09012ceb0f222d581fd1f0c6d71"
          ],
          "data": "0x000000000000000000000000000000000000000000000000000000000003d090",
          "blockHash": "0x67f59dc3c2b97bd967fa34a1eff1f13534be73be25d7ad3525096f1e81b3eca2",
          "blockNumber": "0x20353b2",
          "transactionHash": "0x229a364e3f9efa1c32cab4130bb1f7b3e99283e988abdb63deff35988637aa05",
          "transactionIndex": "0xb",
          "logIndex": "0x39",
          "removed": false
        },
        {
          "address": "0x79242d2f9a923ab409413edced60f5155d5a8d1e",
          "topics": [
            "0x9f9b498443531d2db9df8a00ec466efc74ba50ec1d82f7badd3424b87930e19a",
            "0x0000000000000000000000000000000000000000000000000000000000000002",
            "0x0000000000000000000000003a4db9e7306af09012ceb0f222d581fd1f0c6d71"
          ],
          "data": "0x00000000000000000000000048065fbbe25f71c9282ddf5e1cd6d6a887483d5e000000000000000000000000000000000000000000000000000000000007a120000000000000000000000000ceba9300f2b948710d2653dd7b07f33a8b32118c000000000000000000000000000000000000000000000000000000000003d0900000000000000000000000000000000000000000000000000000000000000002",
          "blockHash": "0x67f59dc3c2b97bd967fa34a1eff1f13534be73be25d7ad3525096f1e81b3eca2",
          "blockNumber": "0x20353b2",
          "transactionHash": "0x229a364e3f9efa1c32cab4130bb1f7b3e99283e988abdb63deff35988637aa05",
          "transactionIndex": "0xb",
          "logIndex": "0x3a",
          "removed": false
        }
      ],
      "logsBloom": "0x0400200000000801028012000040000000100000000000000000000008000000000000080000000000002800000440000010000080000000000000000020000000100000800000080000000800000000000000000000000000000004000000000000000002000000000000000000080000000002000000004000001000000000000001008000000000000000000040000000000000000000220000000000000002000110000100000000014000000000100000000000000040000001000001000200000200008120000002a040000040000000000000041000020000000120000010000000004010000800000011000040000000008000000000400000000000",
      "type": "0x0",
      "transactionHash": "0x229a364e3f9efa1c32cab4130bb1f7b3e99283e988abdb63deff35988637aa05",
      "transactionIndex": "0xb",
      "blockHash": "0x67f59dc3c2b97bd967fa34a1eff1f13534be73be25d7ad3525096f1e81b3eca2",
      "blockNumber": "0x20353b2",
      "gasUsed": "0x9f057",
      "effectiveGasPrice": "0x5d22cfc40",
      "from": "0x3a4db9e7306af09012ceb0f222d581fd1f0c6d71",
      "to": "0x79242d2f9a923ab409413edced60f5155d5a8d1e",
      "contractAddress": null,
      "l1BaseFeeScalar": "0x0",
      "l1BlobBaseFee": "0x1f3e2b33d",
      "l1BlobBaseFeeScalar": "0x0",
      "l1Fee": "0x0",
      "l1GasPrice": "0x2c0bdaa3",
      "l1GasUsed": "0x76d"
    },
    {
      "status": "0x1",
      "cumulativeGasUsed": "0x1fe002",
      "logs": [
        {
          "address": "0x48065fbbe25f71c9282ddf5e1cd6d6a887483d5e",
          "topics": [
            "0x8c5be1e5ebec7d5bd14f71427d1e84f3dd0314c0f7b2291e5b200ac8c7c3b925",
            "0x0000000000000000000000003a4db9e7306af09012ceb0f222d581fd1f0c6d71",
            "0x00000000000000000000000079242d2f9a923ab409413edced60f5155d5a8d1e"
          ],
          "data": "0x000000000000000000000000000000000000000000000000000000000003d090",
          "blockHash": "0x67f59dc3c2b97bd967fa34a1eff1f13534be73be25d7ad3525096f1e81b3eca2",
          "blockNumber": "0x20353b2",
          "transactionHash": "0xf925abfed0a1d2f4ea39b81c0c4612c5abf850d796a7bc0b43a21ff23edfb784",
          "transactionIndex": "0xc",
          "logIndex": "0x3b",
          "removed": false
        }
      ],
      "logsBloom": "0x00002000000000000000000000000000000000000000000000000000080000000000000000000000000000000000000000000000000000000000000000200000001000000000000000000000000000000000000000000000000000000000000000000000000000000000000000000000000000000000000040000000000000000000010000000000000000000000400000000000000000000000000000000000020000000000000000000000000000000000000000000000000000000000000000000000000080000000008000000000000000000000001000000000000000000010000000000000000000000000000000000000000000000000000000000000",
      "type": "0x0",
      "transactionHash": "0xf925abfed0a1d2f4ea39b81c0c4612c5abf850d796a7bc0b43a21ff23edfb784",
      "transactionIndex": "0xc",
      "blockHash": "0x67f59dc3c2b97bd967fa34a1eff1f13534be73be25d7ad3525096f1e81b3eca2",
      "blockNumber": "0x20353b2",
      "gasUsed": "0xd097",
      "effectiveGasPrice": "0x5d22cfc40",
      "from": "0x3a4db9e7306af09012ceb0f222d581fd1f0c6d71",
      "to": "0x48065fbbe25f71c9282ddf5e1cd6d6a887483d5e",
      "contractAddress": null,
      "l1BaseFeeScalar": "0x0",
      "l1BlobBaseFee": "0x1f3e2b33d",
      "l1BlobBaseFeeScalar": "0x0",
      "l1Fee": "0x0",
      "l1GasPrice": "0x2c0bdaa3",
      "l1GasUsed": "0x640"
    },
    {
      "status": "0x1",
      "cumulativeGasUsed": "0xb6281",
      "logs": [
        {
          "address": "0x48065fbbe25f71c9282ddf5e1cd6d6a887483d5e",
          "topics": [
            "0xddf252ad1be2c89b69c2b068fc378daa952ba7f163c4a11628f55a4df523b3ef",
            "0x0000000000000000000000003a4db9e7306af09012ceb0f222d581fd1f0c6d71",
            "0x00000000000000000000000079242d2f9a923ab409413edced60f5155d5a8d1e"
          ],
          "data": "0x000000000000000000000000000000000000000000000000000000000003d090",
          "blockHash": "0x05f2315b8744dc3e7cb81b7e419af359617f25f3aca87f049921a1cef86c8ca0",
          "blockNumber": "0x20353b3",
          "transactionHash": "0xbe40efe69a77a98aa623093d0dd739aea3fd67cb2e0340a16408e8795d6f1e4b",
          "transactionIndex": "0x5",
          "logIndex": "0xf",
          "removed": false
        },
        {
          "address": "0x48065fbbe25f71c9282ddf5e1cd6d6a887483d5e",
          "topics": [
            "0x8c5be1e5ebec7d5bd14f71427d1e84f3dd0314c0f7b2291e5b200ac8c7c3b925",
            "0x0000000000000000000000003a4db9e7306af09012ceb0f222d581fd1f0c6d71",
            "0x00000000000000000000000079242d2f9a923ab409413edced60f5155d5a8d1e"
          ],
          "data": "0x0000000000000000000000000000000000000000000000000000000000000000",
          "blockHash": "0x05f2315b8744dc3e7cb81b7e419af359617f25f3aca87f049921a1cef86c8ca0",
          "blockNumber": "0x20353b3",
          "transactionHash": "0xbe40efe69a77a98aa623093d0dd739aea3fd67cb2e0340a16408e8795d6f1e4b",
          "transactionIndex": "0x5",
          "logIndex": "0x10",
          "removed": false
        },
        {
          "address": "0x48065fbbe25f71c9282ddf5e1cd6d6a887483d5e",
          "topics": [
            "0x8c5be1e5ebec7d5bd14f71427d1e84f3dd0314c0f7b2291e5b200ac8c7c3b925",
            "0x00000000000000000000000079242d2f9a923ab409413edced60f5155d5a8d1e",
            "0x0000000000000000000000003e59a31363e2ad014dcbc521c4a0d5757d9f3402"
          ],
          "data": "0x000000000000000000000000000000000000000000000000000000000003d090",
          "blockHash": "0x05f2315b8744dc3e7cb81b7e419af359617f25f3aca87f049921a1cef86c8ca0",
          "blockNumber": "0x20353b3",
          "transactionHash": "0xbe40efe69a77a98aa623093d0dd739aea3fd67cb2e0340a16408e8795d6f1e4b",
          "transactionIndex": "0x5",
          "logIndex": "0x11",
          "removed": false
        },
        {
          "address": "0x3e59a31363e2ad014dcbc521c4a0d5757d9f3402",
          "topics": [
            "0x804c9b842b2748a22bb64b345453a3de7ca54a6ca45ce00d415894979e22897a",
            "0x00000000000000000000000048065fbbe25f71c9282ddf5e1cd6d6a887483d5e"
          ],
          "data": "0x00000000000000000000000000000000000000000000000b15ec81848a8077a60000000000000000000000000000000000000000000000000000000000000000000000000000000000000000000000000000000000001c268b3c1536b6c24f3e0000000000000000000000000000000000000000033b5f8e1ecf8df7c48098190000000000000000000000000000000000000000033bcc9d79999f5fe0b7963a",
          "blockHash": "0x05f2315b8744dc3e7cb81b7e419af359617f25f3aca87f049921a1cef86c8ca0",
          "blockNumber": "0x20353b3",
          "transactionHash": "0xbe40efe69a77a98aa623093d0dd739aea3fd67cb2e0340a16408e8795d6f1e4b",
          "transactionIndex": "0x5",
          "logIndex": "0x12",
          "removed": false
        },
        {
          "address": "0x48065fbbe25f71c9282ddf5e1cd6d6a887483d5e",
          "topics": [
            "0xddf252ad1be2c89b69c2b068fc378daa952ba7f163c4a11628f55a4df523b3ef",
            "0x00000000000000000000000079242d2f9a923ab409413edced60f5155d5a8d1e",
            "0x000000000000000000000000dee98402a302e4d707fb9bf2bac66faeec31e8df"
          ],
          "data": "0x000000000000000000000000000000000000000000000000000000000003d090",
          "blockHash": "0x05f2315b8744dc3e7cb81b7e419af359617f25f3aca87f049921a1cef86c8ca0",
          "blockNumber": "0x20353b3",
          "transactionHash": "0xbe40efe69a77a98aa623093d0dd739aea3fd67cb2e0340a16408e8795d6f1e4b",
          "transactionIndex": "0x5",
          "logIndex": "0x13",
          "removed": false
        },
        {
          "address": "0x48065fbbe25f71c9282ddf5e1cd6d6a887483d5e",
          "topics": [
            "0x8c5be1e5ebec7d5bd14f71427d1e84f3dd0314c0f7b2291e5b200ac8c7c3b925",
            "0x00000000000000000000000079242d2f9a923ab409413edced60f5155d5a8d1e",
            "0x0000000000000000000000003e59a31363e2ad014dcbc521c4a0d5757d9f3402"
          ],
          "data": "0x0000000000000000000000000000000000000000000000000000000000000000",
          "blockHash": "0x05f2315b8744dc3e7cb81b7e419af359617f25f3aca87f049921a1cef86c8ca0",
          "blockNumber": "0x20353b3",
          "transactionHash": "0xbe40efe69a77a98aa623093d0dd739aea3fd67cb2e0340a16408e8795d6f1e4b",
          "transactionIndex": "0x5",
          "logIndex": "0x14",
          "removed": false
        },
        {
          "address": "0xdee98402a302e4d707fb9bf2bac66faeec31e8df",
          "topics": [
            "0xddf252ad1be2c89b69c2b068fc378daa952ba7f163c4a11628f55a4df523b3ef",
            "0x0000000000000000000000000000000000000000000000000000000000000000",
            "0x00000000000000000000000079242d2f9a923ab409413edced60f5155d5a8d1e"
          ],
          "data": "0x000000000000000000000000000000000000000000000000000000000003d090",
          "blockHash": "0x05f2315b8744dc3e7cb81b7e419af359617f25f3aca87f049921a1cef86c8ca0",
          "blockNumber": "0x20353b3",
          "transactionHash": "0xbe40efe69a77a98aa623093d0dd739aea3fd67cb2e0340a16408e8795d6f1e4b",
          "transactionIndex": "0x5",
          "logIndex": "0x15",
          "removed": false
        },
        {
          "address": "0xdee98402a302e4d707fb9bf2bac66faeec31e8df",
          "topics": [
            "0x458f5fa412d0f69b08dd84872b0215675cc67bc1d5b6fd93300a1c3878b86196",
            "0x00000000000000000000000079242d2f9a923ab409413edced60f5155d5a8d1e",
            "0x00000000000000000000000079242d2f9a923ab409413edced60f5155d5a8d1e"
          ],
          "data": "0x000000000000000000000000000000000000000000000000000000000003d09000000000000000000000000000000000000000000000000000000000000000000000000000000000000000000000000000000000033b5f8e1ecf8df7c4809819",
          "blockHash": "0x05f2315b8744dc3e7cb81b7e419af359617f25f3aca87f049921a1cef86c8ca0",
          "blockNumber": "0x20353b3",
          "transactionHash": "0xbe40efe69a77a98aa623093d0dd739aea3fd67cb2e0340a16408e8795d6f1e4b",
          "transactionIndex": "0x5",
          "logIndex": "0x16",
          "removed": false
        },
        {
          "address": "0x3e59a31363e2ad014dcbc521c4a0d5757d9f3402",
          "topics": [
            "0x2b627736bca15cd5381dcf80b0bf11fd197d01a037c52b927a881a10fb73ba61",
            "0x00000000000000000000000048065fbbe25f71c9282ddf5e1cd6d6a887483d5e",
            "0x00000000000000000000000079242d2f9a923ab409413edced60f5155d5a8d1e",
            "0x0000000000000000000000000000000000000000000000000000000000000000"
          ],
          "data": "0x00000000000000000000000079242d2f9a923ab409413edced60f5155d5a8d1e000000000000000000000000000000000000000000000000000000000003d090",
          "blockHash": "0x05f2315b8744dc3e7cb81b7e419af359617f25f3aca87f049921a1cef86c8ca0",
          "blockNumber": "0x20353b3",
          "transactionHash": "0xbe40efe69a77a98aa623093d0dd739aea3fd67cb2e0340a16408e8795d6f1e4b",
          "transactionIndex": "0x5",
          "logIndex": "0x17",
          "removed": false
        },
        {
          "address": "0x79242d2f9a923ab409413edced60f5155d5a8d1e",
          "topics": [
            "0x244160b15e69cc411f041d94ae7fab6f6bba85dade8403216c05ff4b920d5449",
            "0x0000000000000000000000000000000000000000000000000000000000000002"
          ],
          "data": "0x000000000000000000000000000000000000000000000000000000000003d090",
          "blockHash": "0x05f2315b8744dc3e7cb81b7e419af359617f25f3aca87f049921a1cef86c8ca0",
          "blockNumber": "0x20353b3",
          "transactionHash": "0xbe40efe69a77a98aa623093d0dd739aea3fd67cb2e0340a16408e8795d6f1e4b",
          "transactionIndex": "0x5",
          "logIndex": "0x18",
          "removed": false
        }
      ],
      "logsBloom": "0x0400200000000001020002000000000000100000000000000000000008000000000000080000000000000800000400000000000080020000000000000020000000100000000000080000000800000000000000000000000000000004000000000000000002000000000000000000080000000000000000004000001000000000000001000000000000000000000040000000000000000000020000000000000002000010000100000000014000000000100000000000000040000001000001000200000200008000000000a040000050000000000000001000000000000120000010000000000080000000000010000040000000008000000000400000000000",
      "type": "0x0",
      "transactionHash": "0xbe40efe69a77a98aa623093d0dd739aea3fd67cb2e0340a16408e8795d6f1e4b",
      "transactionIndex": "0x5",
      "blockHash": "0x05f2315b8744dc3e7cb81b7e419af359617f25f3aca87f049921a1cef86c8ca0",
      "blockNumber": "0x20353b3",
      "gasUsed": "0x382c6",
      "effectiveGasPrice": "0x5d22cfc40",
      "from": "0x3a4db9e7306af09012ceb0f222d581fd1f0c6d71",
      "to": "0x79242d2f9a923ab409413edced60f5155d5a8d1e",
      "contractAddress": null,
      "l1BaseFeeScalar": "0x0",
      "l1BlobBaseFee": "0x1f3e2b33d",
      "l1BlobBaseFeeScalar": "0x0",
      "l1Fee": "0x0",
      "l1GasPrice": "0x2c0bdaa3",
      "l1GasUsed": "0x640"
    },
    {
      "status": "0x1",
      "cumulativeGasUsed": "0x138a11",
      "logs": [
        {
          "address": "0xdbe517c0fa6467873b684eccbed77217e471e862",
          "topics": [
            "0xddf252ad1be2c89b69c2b068fc378daa952ba7f163c4a11628f55a4df523b3ef",
            "0x0000000000000000000000000000000000000000000000000000000000000000",
            "0x00000000000000000000000079242d2f9a923ab409413edced60f5155d5a8d1e"
          ],
          "data": "0x000000000000000000000000000000000000000000000000000000000001e848",
          "blockHash": "0x05f2315b8744dc3e7cb81b7e419af359617f25f3aca87f049921a1cef86c8ca0",
          "blockNumber": "0x20353b3",
          "transactionHash": "0xcc2de9ccf811d0b4c9224c7e647e90dd13aef6d24fd00281993e705702246b18",
          "transactionIndex": "0x8",
          "logIndex": "0x1c",
          "removed": false
        },
        {
          "address": "0xdbe517c0fa6467873b684eccbed77217e471e862",
          "topics": [
            "0x458f5fa412d0f69b08dd84872b0215675cc67bc1d5b6fd93300a1c3878b86196",
            "0x00000000000000000000000079242d2f9a923ab409413edced60f5155d5a8d1e",
            "0x00000000000000000000000079242d2f9a923ab409413edced60f5155d5a8d1e"
          ],
          "data": "0x000000000000000000000000000000000000000000000000000000000001e84800000000000000000000000000000000000000000000000000000000000000000000000000000000000000000000000000000000033c4e92b0d9304686a5aab7",
          "blockHash": "0x05f2315b8744dc3e7cb81b7e419af359617f25f3aca87f049921a1cef86c8ca0",
          "blockNumber": "0x20353b3",
          "transactionHash": "0xcc2de9ccf811d0b4c9224c7e647e90dd13aef6d24fd00281993e705702246b18",
          "transactionIndex": "0x8",
          "logIndex": "0x1d",
          "removed": false
        },
        {
          "address": "0x3e59a31363e2ad014dcbc521c4a0d5757d9f3402",
          "topics": [
            "0x804c9b842b2748a22bb64b345453a3de7ca54a6ca45ce00d415894979e22897a",
            "0x000000000000000000000000ceba9300f2b948710d2653dd7b07f33a8b32118c"
          ],
          "data": "0x00000000000000000000000000000000000000000000d50b45c6edbfc3a12756000000000000000000000000000000000000000000000000000000000000000000000000000000000000000000000000000000000007b684e8566a4a2b66d89d0000000000000000000000000000000000000000033b68ad60b91703bd38d1390000000000000000000000000000000000000000033c4e92b0d9304686a5aab7",
          "blockHash": "0x05f2315b8744dc3e7cb81b7e419af359617f25f3aca87f049921a1cef86c8ca0",
          "blockNumber": "0x20353b3",
          "transactionHash": "0xcc2de9ccf811d0b4c9224c7e647e90dd13aef6d24fd00281993e705702246b18",
          "transactionIndex": "0x8",
          "logIndex": "0x1e",
          "removed": false
        },
        {
          "address": "0xceba9300f2b948710d2653dd7b07f33a8b32118c",
          "topics": [
            "0xddf252ad1be2c89b69c2b068fc378daa952ba7f163c4a11628f55a4df523b3ef",
            "0x000000000000000000000000ff8309b9e99bfd2d4021bc71a362abd93dbd4785",
            "0x00000000000000000000000079242d2f9a923ab409413edced60f5155d5a8d1e"
          ],
          "data": "0x000000000000000000000000000000000000000000000000000000000001e848",
          "blockHash": "0x05f2315b8744dc3e7cb81b7e419af359617f25f3aca87f049921a1cef86c8ca0",
          "blockNumber": "0x20353b3",
          "transactionHash": "0xcc2de9ccf811d0b4c9224c7e647e90dd13aef6d24fd00281993e705702246b18",
          "transactionIndex": "0x8",
          "logIndex": "0x1f",
          "removed": false
        },
        {
          "address": "0x3e59a31363e2ad014dcbc521c4a0d5757d9f3402",
          "topics": [
            "0xb3d084820fb1a9decffb176436bd02558d15fac9b0ddfed8c465bc7359d7dce0",
            "0x000000000000000000000000ceba9300f2b948710d2653dd7b07f33a8b32118c",
            "0x00000000000000000000000079242d2f9a923ab409413edced60f5155d5a8d1e",
            "0x0000000000000000000000000000000000000000000000000000000000000000"
          ],
          "data": "0x00000000000000000000000079242d2f9a923ab409413edced60f5155d5a8d1e000000000000000000000000000000000000000000000000000000000001e848000000000000000000000000000000000000000000000000000000000000000200000000000000000000000000000000000000000007b684e8566a4a2b66d89d",
          "blockHash": "0x05f2315b8744dc3e7cb81b7e419af359617f25f3aca87f049921a1cef86c8ca0",
          "blockNumber": "0x20353b3",
          "transactionHash": "0xcc2de9ccf811d0b4c9224c7e647e90dd13aef6d24fd00281993e705702246b18",
          "transactionIndex": "0x8",
          "logIndex": "0x20",
          "removed": false
        },
        {
          "address": "0xceba9300f2b948710d2653dd7b07f33a8b32118c",
          "topics": [
            "0xddf252ad1be2c89b69c2b068fc378daa952ba7f163c4a11628f55a4df523b3ef",
            "0x00000000000000000000000079242d2f9a923ab409413edced60f5155d5a8d1e",
            "0x0000000000000000000000003a4db9e7306af09012ceb0f222d581fd1f0c6d71"
          ],
          "data": "0x000000000000000000000000000000000000000000000000000000000001e848",
          "blockHash": "0x05f2315b8744dc3e7cb81b7e419af359617f25f3aca87f049921a1cef86c8ca0",
          "blockNumber": "0x20353b3",
          "transactionHash": "0xcc2de9ccf811d0b4c9224c7e647e90dd13aef6d24fd00281993e705702246b18",
          "transactionIndex": "0x8",
          "logIndex": "0x21",
          "removed": false
        },
        {
          "address": "0x79242d2f9a923ab409413edced60f5155d5a8d1e",
          "topics": [
            "0xf3a2c404b3362c4238317c3dad1020c2e9e984ba8df38a4a1ff18d57e92a242a",
            "0x0000000000000000000000000000000000000000000000000000000000000002"
          ],
          "data": "0x000000000000000000000000000000000000000000000000000000000001e848",
          "blockHash": "0x05f2315b8744dc3e7cb81b7e419af359617f25f3aca87f049921a1cef86c8ca0",
          "blockNumber": "0x20353b3",
          "transactionHash": "0xcc2de9ccf811d0b4c9224c7e647e90dd13aef6d24fd00281993e705702246b18",
          "transactionIndex": "0x8",
          "logIndex": "0x22",
          "removed": false
        }
      ],
      "logsBloom": "0x04002000000000000000100000400000000000000000000000000000080000000000000000000000000008000004400000100000800000000000000000000000001000008000000000000008000000000000000000000000000000040000000000000000020000000000000000000800000000000000000000000010000000000000000000000010000000000000400000000000000000002200000000000000000001000000000000000100000000000000000000000000400000010000010002000002000081200000022000000000000000400000041000000000000020000000000000004010000800000011000000000000008000000800000000000000",
      "type": "0x0",
      "transactionHash": "0xcc2de9ccf811d0b4c9224c7e647e90dd13aef6d24fd00281993e705702246b18",
      "transactionIndex": "0x8",
      "blockHash": "0x05f2315b8744dc3e7cb81b7e419af359617f25f3aca87f049921a1cef86c8ca0",
      "blockNumber": "0x20353b3",
      "gasUsed": "0x59c47",
      "effectiveGasPrice": "0x5d22cfc40",
      "from": "0x3a4db9e7306af09012ceb0f222d581fd1f0c6d71",
      "to": "0x79242d2f9a923ab409413edced60f5155d5a8d1e",
      "contractAddress": null,
      "l1BaseFeeScalar": "0x0",
      "l1BlobBaseFee": "0x1f3e2b33d",
      "l1BlobBaseFeeScalar": "0x0",
      "l1Fee": "0x0",
      "l1GasPrice": "0x2c0bdaa3",
      "l1GasUsed": "0x640"
    },
    {
      "status": "0x1",
      "cumulativeGasUsed": "0x14629e",
      "logs": [
        {
          "address": "0xceba9300f2b948710d2653dd7b07f33a8b32118c",
          "topics": [
            "0x8c5be1e5ebec7d5bd14f71427d1e84f3dd0314c0f7b2291e5b200ac8c7c3b925",
            "0x0000000000000000000000003a4db9e7306af09012ceb0f222d581fd1f0c6d71",
            "0x00000000000000000000000079242d2f9a923ab409413edced60f5155d5a8d1e"
          ],
          "data": "0x000000000000000000000000000000000000000000000000000000000002dc6c",
          "blockHash": "0x05f2315b8744dc3e7cb81b7e419af359617f25f3aca87f049921a1cef86c8ca0",
          "blockNumber": "0x20353b3",
          "transactionHash": "0x9228cb338a04e5da224810d62c595f3e77615151b488a2807605ec71e1c46ae4",
          "transactionIndex": "0x9",
          "logIndex": "0x23",
          "removed": false
        }
      ],
      "logsBloom": "0x00002000000000000000100000000000000000000000000000000000080000000000000000000000000000000000000000000000000000000000000000200000001000000000000000000000000000000000000000000000000000000000000000000000000000000000000000000000000000000000000000000000000000000000000000000000000000000000400000000000000000000000000000000000020000000000000000000000000000000000000000000000000000000000000000000000000080000000020000000000000000000000001000000000000000000010000000000000000800000000000000000000000000000000000000000000",
      "type": "0x0",
      "transactionHash": "0x9228cb338a04e5da224810d62c595f3e77615151b488a2807605ec71e1c46ae4",
      "transactionIndex": "0x9",
      "blockHash": "0x05f2315b8744dc3e7cb81b7e419af359617f25f3aca87f049921a1cef86c8ca0",
      "blockNumber": "0x20353b3",
      "gasUsed": "0xd88d",
      "effectiveGasPrice": "0x5d22cfc40",
      "from": "0x3a4db9e7306af09012ceb0f222d581fd1f0c6d71",
      "to": "0xceba9300f2b948710d2653dd7b07f33a8b32118c",
      "contractAddress": null,
      "l1BaseFeeScalar": "0x0",
      "l1BlobBaseFee": "0x1f3e2b33d",
      "l1BlobBaseFeeScalar": "0x0",
      "l1Fee": "0x0",
      "l1GasPrice": "0x2c0bdaa3",
      "l1GasUsed": "0x640"
    },
    {
      "status": "0x1",
      "cumulativeGasUsed": "0xdd9a3",
      "logs": [
        {
          "address": "0xceba9300f2b948710d2653dd7b07f33a8b32118c",
          "topics": [
            "0xddf252ad1be2c89b69c2b068fc378daa952ba7f163c4a11628f55a4df523b3ef",
            "0x0000000000000000000000003a4db9e7306af09012ceb0f222d581fd1f0c6d71",
            "0x00000000000000000000000079242d2f9a923ab409413edced60f5155d5a8d1e"
          ],
          "data": "0x000000000000000000000000000000000000000000000000000000000002dc6c",
          "blockHash": "0xc722978a1cb594551c43aa167e0c80eb7d56473f1f1ba0ce74cb0caa85768d39",
          "blockNumber": "0x20353b4",
          "transactionHash": "0xf43342e167a8d1682bb0202fa2cb60482c8177efaa3fddde75d1fb11d7c93f8d",
          "transactionIndex": "0x6",
          "logIndex": "0x18",
          "removed": false
        },
        {
          "address": "0xceba9300f2b948710d2653dd7b07f33a8b32118c",
          "topics": [
            "0x8c5be1e5ebec7d5bd14f71427d1e84f3dd0314c0f7b2291e5b200ac8c7c3b925",
            "0x00000000000000000000000079242d2f9a923ab409413edced60f5155d5a8d1e",
            "0x0000000000000000000000003e59a31363e2ad014dcbc521c4a0d5757d9f3402"
          ],
          "data": "0x000000000000000000000000000000000000000000000000000000000002dc6c",
          "blockHash": "0xc722978a1cb594551c43aa167e0c80eb7d56473f1f1ba0ce74cb0caa85768d39",
          "blockNumber": "0x20353b4",
          "transactionHash": "0xf43342e167a8d1682bb0202fa2cb60482c8177efaa3fddde75d1fb11d7c93f8d",
          "transactionIndex": "0x6",
          "logIndex": "0x19",
          "removed": false
        },
        {
          "address": "0xdbe517c0fa6467873b684eccbed77217e471e862",
          "topics": [
            "0xddf252ad1be2c89b69c2b068fc378daa952ba7f163c4a11628f55a4df523b3ef",
            "0x00000000000000000000000079242d2f9a923ab409413edced60f5155d5a8d1e",
            "0x0000000000000000000000000000000000000000000000000000000000000000"
          ],
          "data": "0x000000000000000000000000000000000000000000000000000000000002dc6c",
          "blockHash": "0xc722978a1cb594551c43aa167e0c80eb7d56473f1f1ba0ce74cb0caa85768d39",
          "blockNumber": "0x20353b4",
          "transactionHash": "0xf43342e167a8d1682bb0202fa2cb60482c8177efaa3fddde75d1fb11d7c93f8d",
          "transactionIndex": "0x6",
          "logIndex": "0x1a",
          "removed": false
        },
        {
          "address": "0xdbe517c0fa6467873b684eccbed77217e471e862",
          "topics": [
            "0x4cf25bc1d991c17529c25213d3cc0cda295eeaad5f13f361969b12ea48015f90",
            "0x00000000000000000000000079242d2f9a923ab409413edced60f5155d5a8d1e",
            "0x0000000000000000000000000000000000000000000000000000000000000000"
          ],
          "data": "0x000000000000000000000000000000000000000000000000000000000002dc6c00000000000000000000000000000000000000000000000000000000000000000000000000000000000000000000000000000000033c4e92b4f5112da5a16749",
          "blockHash": "0xc722978a1cb594551c43aa167e0c80eb7d56473f1f1ba0ce74cb0caa85768d39",
          "blockNumber": "0x20353b4",
          "transactionHash": "0xf43342e167a8d1682bb0202fa2cb60482c8177efaa3fddde75d1fb11d7c93f8d",
          "transactionIndex": "0x6",
          "logIndex": "0x1b",
          "removed": false
        },
        {
          "address": "0x3e59a31363e2ad014dcbc521c4a0d5757d9f3402",
          "topics": [
            "0x804c9b842b2748a22bb64b345453a3de7ca54a6ca45ce00d415894979e22897a",
            "0x000000000000000000000000ceba9300f2b948710d2653dd7b07f33a8b32118c"
          ],
          "data": "0x00000000000000000000000000000000000000000000d50b11976a589a48d5b2000000000000000000000000000000000000000000000000000000000000000000000000000000000000000000000000000000000007b683f6818628a84f18c50000000000000000000000000000000000000000033b68ad612a760699236f5d0000000000000000000000000000000000000000033c4e92b4f5112da5a16749",
          "blockHash": "0xc722978a1cb594551c43aa167e0c80eb7d56473f1f1ba0ce74cb0caa85768d39",
          "blockNumber": "0x20353b4",
          "transactionHash": "0xf43342e167a8d1682bb0202fa2cb60482c8177efaa3fddde75d1fb11d7c93f8d",
          "transactionIndex": "0x6",
          "logIndex": "0x1c",
          "removed": false
        },
        {
          "address": "0xceba9300f2b948710d2653dd7b07f33a8b32118c",
          "topics": [
            "0xddf252ad1be2c89b69c2b068fc378daa952ba7f163c4a11628f55a4df523b3ef",
            "0x00000000000000000000000079242d2f9a923ab409413edced60f5155d5a8d1e",
            "0x000000000000000000000000ff8309b9e99bfd2d4021bc71a362abd93dbd4785"
          ],
          "data": "0x000000000000000000000000000000000000000000000000000000000002dc6c",
          "blockHash": "0xc722978a1cb594551c43aa167e0c80eb7d56473f1f1ba0ce74cb0caa85768d39",
          "blockNumber": "0x20353b4",
          "transactionHash": "0xf43342e167a8d1682bb0202fa2cb60482c8177efaa3fddde75d1fb11d7c93f8d",
          "transactionIndex": "0x6",
          "logIndex": "0x1d",
          "removed": false
        },
        {
          "address": "0x3e59a31363e2ad014dcbc521c4a0d5757d9f3402",
          "topics": [
            "0xa534c8dbe71f871f9f3530e97a74601fea17b426cae02e1c5aee42c96c784051",
            "0x000000000000000000000000ceba9300f2b948710d2653dd7b07f33a8b32118c",
            "0x00000000000000000000000079242d2f9a923ab409413edced60f5155d5a8d1e",
            "0x00000000000000000000000079242d2f9a923ab409413edced60f5155d5a8d1e"
          ],
          "data": "0x000000000000000000000000000000000000000000000000000000000002dc6c0000000000000000000000000000000000000000000000000000000000000000",
          "blockHash": "0xc722978a1cb594551c43aa167e0c80eb7d56473f1f1ba0ce74cb0caa85768d39",
          "blockNumber": "0x20353b4",
          "transactionHash": "0xf43342e167a8d1682bb0202fa2cb60482c8177efaa3fddde75d1fb11d7c93f8d",
          "transactionIndex": "0x6",
          "logIndex": "0x1e",
          "removed": false
        },
        {
          "address": "0x79242d2f9a923ab409413edced60f5155d5a8d1e",
          "topics": [
            "0x0d4979b0859a1951f8ed7cbe3b1994e740552588f27ba02ca0f8f1ddcad16e0c",
            "0x0000000000000000000000000000000000000000000000000000000000000002"
          ],
          "data": "0x000000000000000000000000000000000000000000000000000000000002dc6c",
          "blockHash": "0xc722978a1cb594551c43aa167e0c80eb7d56473f1f1ba0ce74cb0caa85768d39",
          "blockNumber": "0x20353b4",
          "transactionHash": "0xf43342e167a8d1682bb0202fa2cb60482c8177efaa3fddde75d1fb11d7c93f8d",
          "transactionIndex": "0x6",
          "logIndex": "0x1f",
          "removed": false
        }
      ],
      "logsBloom": "0x14002000000000010000120010400000000000000000000000000000080000000000000000000000000008000000400000110000c00000000000000000200000001000008000000000000008000000000000002000000000000000000000000080000000020000000000000000000800000000000000000000000010000000000000000000000000000000000000400000000000000000002200000000000000020001100000000000000100000000000000000000000000400000010000010000000002000080200000022000000000000000000000001000000000000020040010100000004010000800000010000000000000008000000000000000040000",
      "type": "0x0",
      "transactionHash": "0xf43342e167a8d1682bb0202fa2cb60482c8177efaa3fddde75d1fb11d7c93f8d",
      "transactionIndex": "0x6",
      "blockHash": "0xc722978a1cb594551c43aa167e0c80eb7d56473f1f1ba0ce74cb0caa85768d39",
      "blockNumber": "0x20353b4",
      "gasUsed": "0x3537e",
      "effectiveGasPrice": "0x5d22cfc40",
      "from": "0x3a4db9e7306af09012ceb0f222d581fd1f0c6d71",
      "to": "0x79242d2f9a923ab409413edced60f5155d5a8d1e",
      "contractAddress": null,
      "l1BaseFeeScalar": "0x0",
      "l1BlobBaseFee": "0x1f3e2b33d",
      "l1BlobBaseFeeScalar": "0x0",
      "l1Fee": "0x0",
      "l1GasPrice": "0x2c0bdaa3",
      "l1GasUsed": "0x640"
    },
    {
      "status": "0x1",
      "cumulativeGasUsed": "0x12fd30",
      "logs": [
        {
          "address": "0x3e59a31363e2ad014dcbc521c4a0d5757d9f3402",
          "topics": [
            "0x804c9b842b2748a22bb64b345453a3de7ca54a6ca45ce00d415894979e22897a",
            "0x00000000000000000000000048065fbbe25f71c9282ddf5e1cd6d6a887483d5e"
          ],
          "data": "0x00000000000000000000000000000000000000000000000b15ec9473dc88f7980000000000000000000000000000000000000000000000000000000000000000000000000000000000000000000000000000000000001c268b541fc9be7045af0000000000000000000000000000000000000000033b5f8e1ecf93dde684b4860000000000000000000000000000000000000000033bcc9d79a89c235050962a",
          "blockHash": "0xc722978a1cb594551c43aa167e0c80eb7d56473f1f1ba0ce74cb0caa85768d39",
          "blockNumber": "0x20353b4",
          "transactionHash": "0x84793c8d0cc8c37e7cced40939e61589b13747dfeb0cf6c94b2e77783f17b1ea",
          "transactionIndex": "0x7",
          "logIndex": "0x20",
          "removed": false
        },
        {
          "address": "0xdee98402a302e4d707fb9bf2bac66faeec31e8df",
          "topics": [
            "0xddf252ad1be2c89b69c2b068fc378daa952ba7f163c4a11628f55a4df523b3ef",
            "0x00000000000000000000000079242d2f9a923ab409413edced60f5155d5a8d1e",
            "0x0000000000000000000000000000000000000000000000000000000000000000"
          ],
          "data": "0x00000000000000000000000000000000000000000000000000000000000249f0",
          "blockHash": "0xc722978a1cb594551c43aa167e0c80eb7d56473f1f1ba0ce74cb0caa85768d39",
          "blockNumber": "0x20353b4",
          "transactionHash": "0x84793c8d0cc8c37e7cced40939e61589b13747dfeb0cf6c94b2e77783f17b1ea",
          "transactionIndex": "0x7",
          "logIndex": "0x21",
          "removed": false
        },
        {
          "address": "0xdee98402a302e4d707fb9bf2bac66faeec31e8df",
          "topics": [
            "0x4cf25bc1d991c17529c25213d3cc0cda295eeaad5f13f361969b12ea48015f90",
            "0x00000000000000000000000079242d2f9a923ab409413edced60f5155d5a8d1e",
            "0x0000000000000000000000003a4db9e7306af09012ceb0f222d581fd1f0c6d71"
          ],
          "data": "0x00000000000000000000000000000000000000000000000000000000000249f000000000000000000000000000000000000000000000000000000000000000000000000000000000000000000000000000000000033b5f8e1ecf93dde684b486",
          "blockHash": "0xc722978a1cb594551c43aa167e0c80eb7d56473f1f1ba0ce74cb0caa85768d39",
          "blockNumber": "0x20353b4",
          "transactionHash": "0x84793c8d0cc8c37e7cced40939e61589b13747dfeb0cf6c94b2e77783f17b1ea",
          "transactionIndex": "0x7",
          "logIndex": "0x22",
          "removed": false
        },
        {
          "address": "0x48065fbbe25f71c9282ddf5e1cd6d6a887483d5e",
          "topics": [
            "0xddf252ad1be2c89b69c2b068fc378daa952ba7f163c4a11628f55a4df523b3ef",
            "0x000000000000000000000000dee98402a302e4d707fb9bf2bac66faeec31e8df",
            "0x0000000000000000000000003a4db9e7306af09012ceb0f222d581fd1f0c6d71"
          ],
          "data": "0x00000000000000000000000000000000000000000000000000000000000249f0",
          "blockHash": "0xc722978a1cb594551c43aa167e0c80eb7d56473f1f1ba0ce74cb0caa85768d39",
          "blockNumber": "0x20353b4",
          "transactionHash": "0x84793c8d0cc8c37e7cced40939e61589b13747dfeb0cf6c94b2e77783f17b1ea",
          "transactionIndex": "0x7",
          "logIndex": "0x23",
          "removed": false
        },
        {
          "address": "0x3e59a31363e2ad014dcbc521c4a0d5757d9f3402",
          "topics": [
            "0x3115d1449a7b732c986cba18244e897a450f61e1bb8d589cd2e69e6c8924f9f7",
            "0x00000000000000000000000048065fbbe25f71c9282ddf5e1cd6d6a887483d5e",
            "0x00000000000000000000000079242d2f9a923ab409413edced60f5155d5a8d1e",
            "0x0000000000000000000000003a4db9e7306af09012ceb0f222d581fd1f0c6d71"
          ],
          "data": "0x00000000000000000000000000000000000000000000000000000000000249f0",
          "blockHash": "0xc722978a1cb594551c43aa167e0c80eb7d56473f1f1ba0ce74cb0caa85768d39",
          "blockNumber": "0x20353b4",
          "transactionHash": "0x84793c8d0cc8c37e7cced40939e61589b13747dfeb0cf6c94b2e77783f17b1ea",
          "transactionIndex": "0x7",
          "logIndex": "0x24",
          "removed": false
        },
        {
          "address": "0x79242d2f9a923ab409413edced60f5155d5a8d1e",
          "topics": [
            "0x2399e8aed1977410745a5211d8226a3a7d9278f50a8a197c5ec6e285bb437f0b",
            "0x0000000000000000000000000000000000000000000000000000000000000002"
          ],
          "data": "0x00000000000000000000000000000000000000000000000000000000000249f0",
          "blockHash": "0xc722978a1cb594551c43aa167e0c80eb7d56473f1f1ba0ce74cb0caa85768d39",
          "blockNumber": "0x20353b4",
          "transactionHash": "0x84793c8d0cc8c37e7cced40939e61589b13747dfeb0cf6c94b2e77783f17b1ea",
          "transactionIndex": "0x7",
          "logIndex": "0x25",
          "removed": false
        }
      ],
      "logsBloom": "0x1400200000000000020000000000000000900000000000000000000008000000000000080000000000000800000000000001000080000000000000000000000000100000000000080000000800000000000000000000000000000000000000000000000002000000000000000000080000000000002002004000001000000000000001000000000000000000000040000000000000006000020000000000000000000000008100000000014000000000100000000000000040000001000001000000000200008000000000a000000040000000000000001000000000000120040000000000000000000000000010000000000000008000000000000000000000",
      "type": "0x0",
      "transactionHash": "0x84793c8d0cc8c37e7cced40939e61589b13747dfeb0cf6c94b2e77783f17b1ea",
      "transactionIndex": "0x7",
      "blockHash": "0xc722978a1cb594551c43aa167e0c80eb7d56473f1f1ba0ce74cb0caa85768d39",
      "blockNumber": "0x20353b4",
      "gasUsed": "0x5238d",
      "effectiveGasPrice": "0x5d22cfc40",
      "from": "0x3a4db9e7306af09012ceb0f222d581fd1f0c6d71",
      "to": "0x79242d2f9a923ab409413edced60f5155d5a8d1e",
      "contractAddress": null,
      "l1BaseFeeScalar": "0x0",
      "l1BlobBaseFee": "0x1f3e2b33d",
      "l1BlobBaseFeeScalar": "0x0",
      "l1Fee": "0x0",
      "l1GasPrice": "0x2c0bdaa3",
      "l1GasUsed": "0x640"
    },
    {
      "status": "0x1",
      "cumulativeGasUsed": "0xda3e9",
      "logs": [
        {
          "address": "0xceba9300f2b948710d2653dd7b07f33a8b32118c",
          "topics": [
            "0x8c5be1e5ebec7d5bd14f71427d1e84f3dd0314c0f7b2291e5b200ac8c7c3b925",
            "0x0000000000000000000000003a4db9e7306af09012ceb0f222d581fd1f0c6d71",
            "0x00000000000000000000000079242d2f9a923ab409413edced60f5155d5a8d1e"
          ],
          "data": "0x000000000000000000000000000000000000000000000000000000000002dc6c",
          "blockHash": "0x75f291b99a587194c64a23d29098ff4fe3d7295c2cd8ec98a9c9d7fbfd5d61a3",
          "blockNumber": "0x20353b5",
          "transactionHash": "0xbd06fb544af533bb4c24dd2f7f3fac03bd328a23a2ca5e44a1cb6ba43194585c",
          "transactionIndex": "0x8",
          "logIndex": "0x13",
          "removed": false
        }
      ],
      "logsBloom": "0x00002000000000000000100000000000000000000000000000000000080000000000000000000000000000000000000000000000000000000000000000200000001000000000000000000000000000000000000000000000000000000000000000000000000000000000000000000000000000000000000000000000000000000000000000000000000000000000400000000000000000000000000000000000020000000000000000000000000000000000000000000000000000000000000000000000000080000000020000000000000000000000001000000000000000000010000000000000000800000000000000000000000000000000000000000000",
      "type": "0x0",
      "transactionHash": "0xbd06fb544af533bb4c24dd2f7f3fac03bd328a23a2ca5e44a1cb6ba43194585c",
      "transactionIndex": "0x8",
      "blockHash": "0x75f291b99a587194c64a23d29098ff4fe3d7295c2cd8ec98a9c9d7fbfd5d61a3",
      "blockNumber": "0x20353b5",
      "gasUsed": "0xd88d",
      "effectiveGasPrice": "0x5d22cfc40",
      "from": "0x3a4db9e7306af09012ceb0f222d581fd1f0c6d71",
      "to": "0xceba9300f2b948710d2653dd7b07f33a8b32118c",
      "contractAddress": null,
      "l1BaseFeeScalar": "0x0",
      "l1BlobBaseFee": "0x1f3e2b33d",
      "l1BlobBaseFeeScalar": "0x0",
      "l1Fee": "0x0",
      "l1GasPrice": "0x2c0bdaa3",
      "l1GasUsed": "0x640"
    },
    {
      "status": "0x1",
      "cumulativeGasUsed": "0x141b51",
      "logs": [
        {
          "address": "0xceba9300f2b948710d2653dd7b07f33a8b32118c",
          "topics": [
            "0xddf252ad1be2c89b69c2b068fc378daa952ba7f163c4a11628f55a4df523b3ef",
            "0x0000000000000000000000003a4db9e7306af09012ceb0f222d581fd1f0c6d71",
            "0x00000000000000000000000079242d2f9a923ab409413edced60f5155d5a8d1e"
          ],
          "data": "0x000000000000000000000000000000000000000000000000000000000002dc6c",
          "blockHash": "0x75f291b99a587194c64a23d29098ff4fe3d7295c2cd8ec98a9c9d7fbfd5d61a3",
          "blockNumber": "0x20353b5",
          "transactionHash": "0xb34cd5c95e2bc4b4f8037c221881ee0bdb2083d178b799cd2eba420c8cf0456d",
          "transactionIndex": "0x9",
          "logIndex": "0x14",
          "removed": false
        },
        {
          "address": "0xceba9300f2b948710d2653dd7b07f33a8b32118c",
          "topics": [
            "0x8c5be1e5ebec7d5bd14f71427d1e84f3dd0314c0f7b2291e5b200ac8c7c3b925",
            "0x00000000000000000000000079242d2f9a923ab409413edced60f5155d5a8d1e",
            "0x0000000000000000000000003e59a31363e2ad014dcbc521c4a0d5757d9f3402"
          ],
          "data": "0x000000000000000000000000000000000000000000000000000000000002dc6c",
          "blockHash": "0x75f291b99a587194c64a23d29098ff4fe3d7295c2cd8ec98a9c9d7fbfd5d61a3",
          "blockNumber": "0x20353b5",
          "transactionHash": "0xb34cd5c95e2bc4b4f8037c221881ee0bdb2083d178b799cd2eba420c8cf0456d",
          "transactionIndex": "0x9",
          "logIndex": "0x15",
          "removed": false
        },
        {
          "address": "0xdbe517c0fa6467873b684eccbed77217e471e862",
          "topics": [
            "0xddf252ad1be2c89b69c2b068fc378daa952ba7f163c4a11628f55a4df523b3ef",
            "0x00000000000000000000000079242d2f9a923ab409413edced60f5155d5a8d1e",
            "0x0000000000000000000000000000000000000000000000000000000000000000"
          ],
          "data": "0x000000000000000000000000000000000000000000000000000000000002dc6c",
          "blockHash": "0x75f291b99a587194c64a23d29098ff4fe3d7295c2cd8ec98a9c9d7fbfd5d61a3",
          "blockNumber": "0x20353b5",
          "transactionHash": "0xb34cd5c95e2bc4b4f8037c221881ee0bdb2083d178b799cd2eba420c8cf0456d",
          "transactionIndex": "0x9",
          "logIndex": "0x16",
          "removed": false
        },
        {
          "address": "0xdbe517c0fa6467873b684eccbed77217e471e862",
          "topics": [
            "0x4cf25bc1d991c17529c25213d3cc0cda295eeaad5f13f361969b12ea48015f90",
            "0x00000000000000000000000079242d2f9a923ab409413edced60f5155d5a8d1e",
            "0x0000000000000000000000000000000000000000000000000000000000000000"
          ],
          "data": "0x000000000000000000000000000000000000000000000000000000000002dc6c00000000000000000000000000000000000000000000000000000000000000000000000000000000000000000000000000000000033c4e92b910f193f55473f4",
          "blockHash": "0x75f291b99a587194c64a23d29098ff4fe3d7295c2cd8ec98a9c9d7fbfd5d61a3",
          "blockNumber": "0x20353b5",
          "transactionHash": "0xb34cd5c95e2bc4b4f8037c221881ee0bdb2083d178b799cd2eba420c8cf0456d",
          "transactionIndex": "0x9",
          "logIndex": "0x17",
          "removed": false
        },
        {
          "address": "0x3e59a31363e2ad014dcbc521c4a0d5757d9f3402",
          "topics": [
            "0x804c9b842b2748a22bb64b345453a3de7ca54a6ca45ce00d415894979e22897a",
            "0x000000000000000000000000ceba9300f2b948710d2653dd7b07f33a8b32118c"
          ],
          "data": "0x00000000000000000000000000000000000000000000d50add67fd63f6360d6e000000000000000000000000000000000000000000000000000000000000000000000000000000000000000000000000000000000007b68304acec6e979fc57b0000000000000000000000000000000000000000033b68ad619bd4edafddae3c0000000000000000000000000000000000000000033c4e92b910f193f55473f4",
          "blockHash": "0x75f291b99a587194c64a23d29098ff4fe3d7295c2cd8ec98a9c9d7fbfd5d61a3",
          "blockNumber": "0x20353b5",
          "transactionHash": "0xb34cd5c95e2bc4b4f8037c221881ee0bdb2083d178b799cd2eba420c8cf0456d",
          "transactionIndex": "0x9",
          "logIndex": "0x18",
          "removed": false
        },
        {
          "address": "0xceba9300f2b948710d2653dd7b07f33a8b32118c",
          "topics": [
            "0xddf252ad1be2c89b69c2b068fc378daa952ba7f163c4a11628f55a4df523b3ef",
            "0x00000000000000000000000079242d2f9a923ab409413edced60f5155d5a8d1e",
            "0x000000000000000000000000ff8309b9e99bfd2d4021bc71a362abd93dbd4785"
          ],
          "data": "0x000000000000000000000000000000000000000000000000000000000002dc6c",
          "blockHash": "0x75f291b99a587194c64a23d29098ff4fe3d7295c2cd8ec98a9c9d7fbfd5d61a3",
          "blockNumber": "0x20353b5",
          "transactionHash": "0xb34cd5c95e2bc4b4f8037c221881ee0bdb2083d178b799cd2eba420c8cf0456d",
          "transactionIndex": "0x9",
          "logIndex": "0x19",
          "removed": false
        },
        {
          "address": "0x3e59a31363e2ad014dcbc521c4a0d5757d9f3402",
          "topics": [
            "0xa534c8dbe71f871f9f3530e97a74601fea17b426cae02e1c5aee42c96c784051",
            "0x000000000000000000000000ceba9300f2b948710d2653dd7b07f33a8b32118c",
            "0x00000000000000000000000079242d2f9a923ab409413edced60f5155d5a8d1e",
            "0x00000000000000000000000079242d2f9a923ab409413edced60f5155d5a8d1e"
          ],
          "data": "0x000000000000000000000000000000000000000000000000000000000002dc6c0000000000000000000000000000000000000000000000000000000000000000",
          "blockHash": "0x75f291b99a587194c64a23d29098ff4fe3d7295c2cd8ec98a9c9d7fbfd5d61a3",
          "blockNumber": "0x20353b5",
          "transactionHash": "0xb34cd5c95e2bc4b4f8037c221881ee0bdb2083d178b799cd2eba420c8cf0456d",
          "transactionIndex": "0x9",
          "logIndex": "0x1a",
          "removed": false
        },
        {
          "address": "0x3e59a31363e2ad014dcbc521c4a0d5757d9f3402",
          "topics": [
            "0x804c9b842b2748a22bb64b345453a3de7ca54a6ca45ce00d415894979e22897a",
            "0x00000000000000000000000048065fbbe25f71c9282ddf5e1cd6d6a887483d5e"
          ],
          "data": "0x00000000000000000000000000000000000000000000000b15ece0312ed5eb7d0000000000000000000000000000000000000000000000000000000000000000000000000000000000000000000000000000000000001c268bb44a21f8c5402a0000000000000000000000000000000000000000033b5f8e1ecf99c40892e4560000000000000000000000000000000000000000033bcc9d79b798e6ccb68d76",
          "blockHash": "0x75f291b99a587194c64a23d29098ff4fe3d7295c2cd8ec98a9c9d7fbfd5d61a3",
          "blockNumber": "0x20353b5",
          "transactionHash": "0xb34cd5c95e2bc4b4f8037c221881ee0bdb2083d178b799cd2eba420c8cf0456d",
          "transactionIndex": "0x9",
          "logIndex": "0x1b",
          "removed": false
        },
        {
          "address": "0x3e59a31363e2ad014dcbc521c4a0d5757d9f3402",
          "topics": [
            "0x44c58d81365b66dd4b1a7f36c25aa97b8c71c361ee4937adc1a00000227db5dd",
            "0x00000000000000000000000048065fbbe25f71c9282ddf5e1cd6d6a887483d5e",
            "0x00000000000000000000000079242d2f9a923ab409413edced60f5155d5a8d1e"
          ],
          "data": "0x",
          "blockHash": "0x75f291b99a587194c64a23d29098ff4fe3d7295c2cd8ec98a9c9d7fbfd5d61a3",
          "blockNumber": "0x20353b5",
          "transactionHash": "0xb34cd5c95e2bc4b4f8037c221881ee0bdb2083d178b799cd2eba420c8cf0456d",
          "transactionIndex": "0x9",
          "logIndex": "0x1c",
          "removed": false
        },
        {
          "address": "0xdee98402a302e4d707fb9bf2bac66faeec31e8df",
          "topics": [
            "0xddf252ad1be2c89b69c2b068fc378daa952ba7f163c4a11628f55a4df523b3ef",
            "0x00000000000000000000000079242d2f9a923ab409413edced60f5155d5a8d1e",
            "0x0000000000000000000000000000000000000000000000000000000000000000"
          ],
          "data": "0x00000000000000000000000000000000000000000000000000000000000927c1",
          "blockHash": "0x75f291b99a587194c64a23d29098ff4fe3d7295c2cd8ec98a9c9d7fbfd5d61a3",
          "blockNumber": "0x20353b5",
          "transactionHash": "0xb34cd5c95e2bc4b4f8037c221881ee0bdb2083d178b799cd2eba420c8cf0456d",
          "transactionIndex": "0x9",
          "logIndex": "0x1d",
          "removed": false
        },
        {
          "address": "0xdee98402a302e4d707fb9bf2bac66faeec31e8df",
          "topics": [
            "0x4cf25bc1d991c17529c25213d3cc0cda295eeaad5f13f361969b12ea48015f90",
            "0x00000000000000000000000079242d2f9a923ab409413edced60f5155d5a8d1e",
            "0x0000000000000000000000003a4db9e7306af09012ceb0f222d581fd1f0c6d71"
          ],
          "data": "0x00000000000000000000000000000000000000000000000000000000000927c100000000000000000000000000000000000000000000000000000000000000000000000000000000000000000000000000000000033b5f8e1ecf99c40892e456",
          "blockHash": "0x75f291b99a587194c64a23d29098ff4fe3d7295c2cd8ec98a9c9d7fbfd5d61a3",
          "blockNumber": "0x20353b5",
          "transactionHash": "0xb34cd5c95e2bc4b4f8037c221881ee0bdb2083d178b799cd2eba420c8cf0456d",
          "transactionIndex": "0x9",
          "logIndex": "0x1e",
          "removed": false
        },
        {
          "address": "0x48065fbbe25f71c9282ddf5e1cd6d6a887483d5e",
          "topics": [
            "0xddf252ad1be2c89b69c2b068fc378daa952ba7f163c4a11628f55a4df523b3ef",
            "0x000000000000000000000000dee98402a302e4d707fb9bf2bac66faeec31e8df",
            "0x0000000000000000000000003a4db9e7306af09012ceb0f222d581fd1f0c6d71"
          ],
          "data": "0x00000000000000000000000000000000000000000000000000000000000927c1",
          "blockHash": "0x75f291b99a587194c64a23d29098ff4fe3d7295c2cd8ec98a9c9d7fbfd5d61a3",
          "blockNumber": "0x20353b5",
          "transactionHash": "0xb34cd5c95e2bc4b4f8037c221881ee0bdb2083d178b799cd2eba420c8cf0456d",
          "transactionIndex": "0x9",
          "logIndex": "0x1f",
          "removed": false
        },
        {
          "address": "0x3e59a31363e2ad014dcbc521c4a0d5757d9f3402",
          "topics": [
            "0x3115d1449a7b732c986cba18244e897a450f61e1bb8d589cd2e69e6c8924f9f7",
            "0x00000000000000000000000048065fbbe25f71c9282ddf5e1cd6d6a887483d5e",
            "0x00000000000000000000000079242d2f9a923ab409413edced60f5155d5a8d1e",
            "0x0000000000000000000000003a4db9e7306af09012ceb0f222d581fd1f0c6d71"
          ],
          "data": "0x00000000000000000000000000000000000000000000000000000000000927c1",
          "blockHash": "0x75f291b99a587194c64a23d29098ff4fe3d7295c2cd8ec98a9c9d7fbfd5d61a3",
          "blockNumber": "0x20353b5",
          "transactionHash": "0xb34cd5c95e2bc4b4f8037c221881ee0bdb2083d178b799cd2eba420c8cf0456d",
          "transactionIndex": "0x9",
          "logIndex": "0x20",
          "removed": false
        },
        {
          "address": "0x79242d2f9a923ab409413edced60f5155d5a8d1e",
          "topics": [
            "0xcefaf961c5013063cf501ffd9f9382e9b9c4b15741ad032fe93d7e9c7c733b22",
            "0x0000000000000000000000000000000000000000000000000000000000000002",
            "0x0000000000000000000000003a4db9e7306af09012ceb0f222d581fd1f0c6d71"
          ],
          "data": "0x",
          "blockHash": "0x75f291b99a587194c64a23d29098ff4fe3d7295c2cd8ec98a9c9d7fbfd5d61a3",
          "blockNumber": "0x20353b5",
          "transactionHash": "0xb34cd5c95e2bc4b4f8037c221881ee0bdb2083d178b799cd2eba420c8cf0456d",
          "transactionIndex": "0x9",
          "logIndex": "0x21",
          "removed": false
        }
      ],
      "logsBloom": "0x14002000000000010200120000400000009020000000000000000000080000000000000800000000000008000000400000110000c0000000000000000020000000100000800000088000000800020000000000000000000000000000000000000000000002000000000000000004080000000000000002004000001000000000000001000000000000000000000040000000000008000000220000000000000002000110008100000000014000000000100000000000000040000001000001000000000200008020000002a000000040000000000000001000000000000120040010100000004010000880000010000000000000008000000000000000040000",
      "type": "0x0",
      "transactionHash": "0xb34cd5c95e2bc4b4f8037c221881ee0bdb2083d178b799cd2eba420c8cf0456d",
      "transactionIndex": "0x9",
      "blockHash": "0x75f291b99a587194c64a23d29098ff4fe3d7295c2cd8ec98a9c9d7fbfd5d61a3",
      "blockNumber": "0x20353b5",
      "gasUsed": "0x67768",
      "effectiveGasPrice": "0x5d22cfc40",
      "from": "0x3a4db9e7306af09012ceb0f222d581fd1f0c6d71",
      "to": "0x79242d2f9a923ab409413edced60f5155d5a8d1e",
      "contractAddress": null,
      "l1BaseFeeScalar": "0x0",
      "l1BlobBaseFee": "0x1f3e2b33d",
      "l1BlobBaseFeeScalar": "0x0",
      "l1Fee": "0x0",
      "l1GasPrice": "0x2c0bdaa3",
      "l1GasUsed": "0x640"
    }
  ],
  "libraries": [],
  "pending": [],
  "returns": {},
  "timestamp": 1745673228,
  "chain": 42220,
  "commit": "1cefd9d"
}