{
  "transactions": [
    {
      "hash": "0xf8541926e425469bcdd5f195f2d0a4fa3ed58e705d84f01c56d762691eeb6767",
      "transactionType": "CALL",
      "contractName": null,
      "contractAddress": "0x48065fbbe25f71c9282ddf5e1cd6d6a887483d5e",
      "function": "approve(address,uint256)",
      "arguments": [
        "0xC74c4119e25c2C6995868f48205da9a9d4F2B717",
        "500000"
      ],
      "transaction": {
        "from": "0x3a4db9e7306af09012ceb0f222d581fd1f0c6d71",
        "to": "0x48065fbbe25f71c9282ddf5e1cd6d6a887483d5e",
        "gas": "0x1201c",
        "value": "0x0",
        "input": "0x095ea7b3000000000000000000000000c74c4119e25c2c6995868f48205da9a9d4f2b717000000000000000000000000000000000000000000000000000000000007a120",
        "nonce": "0x92",
        "chainId": "0xa4ec"
      },
      "additionalContracts": [],
      "isFixedGasLimit": false
    },
    {
      "hash": "0xf49edd66a950cf3d16d66000dcb9194077af0f85fefb11a5836abe96dda77ece",
      "transactionType": "CALL",
      "contractName": null,
      "contractAddress": "0xc74c4119e25c2c6995868f48205da9a9d4f2b717",
      "function": "createPosition(address,uint256,address,uint256,uint256)",
      "arguments": [
        "0x48065fbBE25f71C9282ddf5e1cD6D6A887483D5e",
        "500000",
        "0xcebA9300f2b948710d2653dD7B07f33A8B32118C",
        "250000",
        "2"
      ],
      "transaction": {
        "from": "0x3a4db9e7306af09012ceb0f222d581fd1f0c6d71",
        "to": "0xc74c4119e25c2c6995868f48205da9a9d4f2b717",
        "gas": "0xd50fc",
        "value": "0x0",
        "input": "0xb0c3d5df00000000000000000000000048065fbbe25f71c9282ddf5e1cd6d6a887483d5e000000000000000000000000000000000000000000000000000000000007a120000000000000000000000000ceba9300f2b948710d2653dd7b07f33a8b32118c000000000000000000000000000000000000000000000000000000000003d0900000000000000000000000000000000000000000000000000000000000000002",
        "nonce": "0x93",
        "chainId": "0xa4ec"
      },
      "additionalContracts": [],
      "isFixedGasLimit": false
    },
    {
      "hash": "0x4d311e1b33bad6331376718fd209ac90625014acf91c13cd14332611f13f8e2e",
      "transactionType": "CALL",
      "contractName": null,
      "contractAddress": "0xc74c4119e25c2c6995868f48205da9a9d4f2b717",
      "function": "addCollateralWithPermit(uint256,uint256,uint256,uint8,bytes32,bytes32)",
      "arguments": [
        "2",
        "250000",
        "1745694985",
        "28",
        "0xcbeaa44b4149f73cf4cb5692a8140d28c68896b3bc8cd28b4990e1dc81d1e1ca",
        "0x61b5b7ae01014e33df680a328154a307c83f1e638ea276294ed1a622d6e66976"
      ],
      "transaction": {
        "from": "0x3a4db9e7306af09012ceb0f222d581fd1f0c6d71",
        "to": "0xc74c4119e25c2c6995868f48205da9a9d4f2b717",
        "gas": "0x5848f",
        "value": "0x0",
        "input": "0x558e45ba0000000000000000000000000000000000000000000000000000000000000002000000000000000000000000000000000000000000000000000000000003d09000000000000000000000000000000000000000000000000000000000680d3109000000000000000000000000000000000000000000000000000000000000001ccbeaa44b4149f73cf4cb5692a8140d28c68896b3bc8cd28b4990e1dc81d1e1ca61b5b7ae01014e33df680a328154a307c83f1e638ea276294ed1a622d6e66976",
        "nonce": "0x94",
        "chainId": "0xa4ec"
      },
      "additionalContracts": [],
      "isFixedGasLimit": false
    },
    {
      "hash": "0x84d44d2916495a489a516c8a862b557969859acafca277ef815e90304f516e76",
      "transactionType": "CALL",
      "contractName": null,
      "contractAddress": "0xc74c4119e25c2c6995868f48205da9a9d4f2b717",
      "function": "increaseBorrow(uint256,uint256)",
      "arguments": [
        "2",
        "125000"
      ],
      "transaction": {
        "from": "0x3a4db9e7306af09012ceb0f222d581fd1f0c6d71",
        "to": "0xc74c4119e25c2c6995868f48205da9a9d4f2b717",
        "gas": "0x78103",
        "value": "0x0",
        "input": "0x9e6824d90000000000000000000000000000000000000000000000000000000000000002000000000000000000000000000000000000000000000000000000000001e848",
        "nonce": "0x95",
        "chainId": "0xa4ec"
      },
      "additionalContracts": [],
      "isFixedGasLimit": false
    },
    {
      "hash": "0xe4396d9e99a6917d90669d5fd51e90e8b7f00c9bfb521d6ef18c9e689d00bd57",
      "transactionType": "CALL",
      "contractName": null,
      "contractAddress": "0xc74c4119e25c2c6995868f48205da9a9d4f2b717",
      "function": "repayDebtWithPermit(uint256,uint256,uint256,uint8,bytes32,bytes32)",
      "arguments": [
        "2",
        "187500",
        "1745694985",
        "28",
        "0x63d4a1ad2466d7b01708a7b09869ebac3e838f6c1d0f55ecade292b1530d4022",
        "0x57496f4d2b0fcbbeb3d9639e7ba2a84b905f63ed9e93f15f56e1e6fe15b1fa14"
      ],
      "transaction": {
        "from": "0x3a4db9e7306af09012ceb0f222d581fd1f0c6d71",
        "to": "0xc74c4119e25c2c6995868f48205da9a9d4f2b717",
        "gas": "0x4e6ed",
        "value": "0x0",
        "input": "0xc9a7906a0000000000000000000000000000000000000000000000000000000000000002000000000000000000000000000000000000000000000000000000000002dc6c00000000000000000000000000000000000000000000000000000000680d3109000000000000000000000000000000000000000000000000000000000000001c63d4a1ad2466d7b01708a7b09869ebac3e838f6c1d0f55ecade292b1530d402257496f4d2b0fcbbeb3d9639e7ba2a84b905f63ed9e93f15f56e1e6fe15b1fa14",
        "nonce": "0x96",
        "chainId": "0xa4ec"
      },
      "additionalContracts": [],
      "isFixedGasLimit": false
    }
  ],
  "receipts": [
    {
      "status": "0x1",
      "cumulativeGasUsed": "0x37d24",
      "logs": [
        {
          "address": "0x48065fbbe25f71c9282ddf5e1cd6d6a887483d5e",
          "topics": [
            "0x8c5be1e5ebec7d5bd14f71427d1e84f3dd0314c0f7b2291e5b200ac8c7c3b925",
            "0x0000000000000000000000003a4db9e7306af09012ceb0f222d581fd1f0c6d71",
            "0x000000000000000000000000c74c4119e25c2c6995868f48205da9a9d4f2b717"
          ],
          "data": "0x000000000000000000000000000000000000000000000000000000000007a120",
          "blockHash": "0x0647dae0a6a3f9c837261b859ab9674465033fbc3c4716a1a97e367cc893c640",
          "blockNumber": "0x2039ade",
          "transactionHash": "0xf8541926e425469bcdd5f195f2d0a4fa3ed58e705d84f01c56d762691eeb6767",
          "transactionIndex": "0x4",
          "logIndex": "0x3",
          "removed": false
        }
      ],
      "logsBloom": "0x00000000000000000000000000000000000000000000002000000000000000000000000000000000000000000000000000000000000000000000000000200000000000000000000000000000000000000000000000000000000000000000000000000000000000000100000000000000000000000000000040000000000000000000010000000000000000000000400000000000000000000000000000000000020000000000000000000000000000000000000000000000000000000000000000000000000080000000008000000000000000000000001000000000000000000010000000000000000000000000000000000000000008000000000000000000",
      "type": "0x0",
      "transactionHash": "0xf8541926e425469bcdd5f195f2d0a4fa3ed58e705d84f01c56d762691eeb6767",
      "transactionIndex": "0x4",
      "blockHash": "0x0647dae0a6a3f9c837261b859ab9674465033fbc3c4716a1a97e367cc893c640",
      "blockNumber": "0x2039ade",
      "gasUsed": "0xd097",
      "effectiveGasPrice": "0x5d22cfc40",
      "from": "0x3a4db9e7306af09012ceb0f222d581fd1f0c6d71",
      "to": "0x48065fbbe25f71c9282ddf5e1cd6d6a887483d5e",
      "contractAddress": null,
      "l1BaseFeeScalar": "0x0",
      "l1BlobBaseFee": "0x6277de9",
      "l1BlobBaseFeeScalar": "0x0",
      "l1Fee": "0x0",
      "l1GasPrice": "0x18d01a73",
      "l1GasUsed": "0x640"
    },
    {
      "status": "0x1",
      "cumulativeGasUsed": "0xdccc3",
      "logs": [
        {
          "address": "0x48065fbbe25f71c9282ddf5e1cd6d6a887483d5e",
          "topics": [
            "0xddf252ad1be2c89b69c2b068fc378daa952ba7f163c4a11628f55a4df523b3ef",
            "0x0000000000000000000000003a4db9e7306af09012ceb0f222d581fd1f0c6d71",
            "0x000000000000000000000000c74c4119e25c2c6995868f48205da9a9d4f2b717"
          ],
          "data": "0x000000000000000000000000000000000000000000000000000000000007a120",
          "blockHash": "0x0647dae0a6a3f9c837261b859ab9674465033fbc3c4716a1a97e367cc893c640",
          "blockNumber": "0x2039ade",
          "transactionHash": "0xf49edd66a950cf3d16d66000dcb9194077af0f85fefb11a5836abe96dda77ece",
          "transactionIndex": "0x6",
          "logIndex": "0x5",
          "removed": false
        },
        {
          "address": "0x48065fbbe25f71c9282ddf5e1cd6d6a887483d5e",
          "topics": [
            "0x8c5be1e5ebec7d5bd14f71427d1e84f3dd0314c0f7b2291e5b200ac8c7c3b925",
            "0x0000000000000000000000003a4db9e7306af09012ceb0f222d581fd1f0c6d71",
            "0x000000000000000000000000c74c4119e25c2c6995868f48205da9a9d4f2b717"
          ],
          "data": "0x0000000000000000000000000000000000000000000000000000000000000000",
          "blockHash": "0x0647dae0a6a3f9c837261b859ab9674465033fbc3c4716a1a97e367cc893c640",
          "blockNumber": "0x2039ade",
          "transactionHash": "0xf49edd66a950cf3d16d66000dcb9194077af0f85fefb11a5836abe96dda77ece",
          "transactionIndex": "0x6",
          "logIndex": "0x6",
          "removed": false
        },
        {
          "address": "0x48065fbbe25f71c9282ddf5e1cd6d6a887483d5e",
          "topics": [
            "0x8c5be1e5ebec7d5bd14f71427d1e84f3dd0314c0f7b2291e5b200ac8c7c3b925",
            "0x000000000000000000000000c74c4119e25c2c6995868f48205da9a9d4f2b717",
            "0x0000000000000000000000003e59a31363e2ad014dcbc521c4a0d5757d9f3402"
          ],
          "data": "0x000000000000000000000000000000000000000000000000000000000007a120",
          "blockHash": "0x0647dae0a6a3f9c837261b859ab9674465033fbc3c4716a1a97e367cc893c640",
          "blockNumber": "0x2039ade",
          "transactionHash": "0xf49edd66a950cf3d16d66000dcb9194077af0f85fefb11a5836abe96dda77ece",
          "transactionIndex": "0x6",
          "logIndex": "0x7",
          "removed": false
        },
        {
          "address": "0x3e59a31363e2ad014dcbc521c4a0d5757d9f3402",
          "topics": [
            "0x804c9b842b2748a22bb64b345453a3de7ca54a6ca45ce00d415894979e22897a",
            "0x00000000000000000000000048065fbbe25f71c9282ddf5e1cd6d6a887483d5e"
          ],
          "data": "0x00000000000000000000000000000000000000000000000b15eba1835cf12bc70000000000000000000000000000000000000000000000000000000000000000000000000000000000000000000000000000000000001c268a1faad3b7e1d5d30000000000000000000000000000000000000000033b5f8e20735f098c23df1f0000000000000000000000000000000000000000033bcca1a4384463a5351b2e",
          "blockHash": "0x0647dae0a6a3f9c837261b859ab9674465033fbc3c4716a1a97e367cc893c640",
          "blockNumber": "0x2039ade",
          "transactionHash": "0xf49edd66a950cf3d16d66000dcb9194077af0f85fefb11a5836abe96dda77ece",
          "transactionIndex": "0x6",
          "logIndex": "0x8",
          "removed": false
        },
        {
          "address": "0x48065fbbe25f71c9282ddf5e1cd6d6a887483d5e",
          "topics": [
            "0xddf252ad1be2c89b69c2b068fc378daa952ba7f163c4a11628f55a4df523b3ef",
            "0x000000000000000000000000c74c4119e25c2c6995868f48205da9a9d4f2b717",
            "0x000000000000000000000000dee98402a302e4d707fb9bf2bac66faeec31e8df"
          ],
          "data": "0x000000000000000000000000000000000000000000000000000000000007a120",
          "blockHash": "0x0647dae0a6a3f9c837261b859ab9674465033fbc3c4716a1a97e367cc893c640",
          "blockNumber": "0x2039ade",
          "transactionHash": "0xf49edd66a950cf3d16d66000dcb9194077af0f85fefb11a5836abe96dda77ece",
          "transactionIndex": "0x6",
          "logIndex": "0x9",
          "removed": false
        },
        {
          "address": "0x48065fbbe25f71c9282ddf5e1cd6d6a887483d5e",
          "topics": [
            "0x8c5be1e5ebec7d5bd14f71427d1e84f3dd0314c0f7b2291e5b200ac8c7c3b925",
            "0x000000000000000000000000c74c4119e25c2c6995868f48205da9a9d4f2b717",
            "0x0000000000000000000000003e59a31363e2ad014dcbc521c4a0d5757d9f3402"
          ],
          "data": "0x0000000000000000000000000000000000000000000000000000000000000000",
          "blockHash": "0x0647dae0a6a3f9c837261b859ab9674465033fbc3c4716a1a97e367cc893c640",
          "blockNumber": "0x2039ade",
          "transactionHash": "0xf49edd66a950cf3d16d66000dcb9194077af0f85fefb11a5836abe96dda77ece",
          "transactionIndex": "0x6",
          "logIndex": "0xa",
          "removed": false
        },
        {
          "address": "0xdee98402a302e4d707fb9bf2bac66faeec31e8df",
          "topics": [
            "0xddf252ad1be2c89b69c2b068fc378daa952ba7f163c4a11628f55a4df523b3ef",
            "0x0000000000000000000000000000000000000000000000000000000000000000",
            "0x000000000000000000000000c74c4119e25c2c6995868f48205da9a9d4f2b717"
          ],
          "data": "0x000000000000000000000000000000000000000000000000000000000007a120",
          "blockHash": "0x0647dae0a6a3f9c837261b859ab9674465033fbc3c4716a1a97e367cc893c640",
          "blockNumber": "0x2039ade",
          "transactionHash": "0xf49edd66a950cf3d16d66000dcb9194077af0f85fefb11a5836abe96dda77ece",
          "transactionIndex": "0x6",
          "logIndex": "0xb",
          "removed": false
        },
        {
          "address": "0xdee98402a302e4d707fb9bf2bac66faeec31e8df",
          "topics": [
            "0x458f5fa412d0f69b08dd84872b0215675cc67bc1d5b6fd93300a1c3878b86196",
            "0x000000000000000000000000c74c4119e25c2c6995868f48205da9a9d4f2b717",
            "0x000000000000000000000000c74c4119e25c2c6995868f48205da9a9d4f2b717"
          ],
          "data": "0x000000000000000000000000000000000000000000000000000000000007a12000000000000000000000000000000000000000000000000000000000000000000000000000000000000000000000000000000000033b5f8e20735f098c23df1f",
          "blockHash": "0x0647dae0a6a3f9c837261b859ab9674465033fbc3c4716a1a97e367cc893c640",
          "blockNumber": "0x2039ade",
          "transactionHash": "0xf49edd66a950cf3d16d66000dcb9194077af0f85fefb11a5836abe96dda77ece",
          "transactionIndex": "0x6",
          "logIndex": "0xc",
          "removed": false
        },
        {
          "address": "0x3e59a31363e2ad014dcbc521c4a0d5757d9f3402",
          "topics": [
            "0x2b627736bca15cd5381dcf80b0bf11fd197d01a037c52b927a881a10fb73ba61",
            "0x00000000000000000000000048065fbbe25f71c9282ddf5e1cd6d6a887483d5e",
            "0x000000000000000000000000c74c4119e25c2c6995868f48205da9a9d4f2b717",
            "0x0000000000000000000000000000000000000000000000000000000000000000"
          ],
          "data": "0x000000000000000000000000c74c4119e25c2c6995868f48205da9a9d4f2b717000000000000000000000000000000000000000000000000000000000007a120",
          "blockHash": "0x0647dae0a6a3f9c837261b859ab9674465033fbc3c4716a1a97e367cc893c640",
          "blockNumber": "0x2039ade",
          "transactionHash": "0xf49edd66a950cf3d16d66000dcb9194077af0f85fefb11a5836abe96dda77ece",
          "transactionIndex": "0x6",
          "logIndex": "0xd",
          "removed": false
        },
        {
          "address": "0xdbe517c0fa6467873b684eccbed77217e471e862",
          "topics": [
            "0xddf252ad1be2c89b69c2b068fc378daa952ba7f163c4a11628f55a4df523b3ef",
            "0x0000000000000000000000000000000000000000000000000000000000000000",
            "0x000000000000000000000000c74c4119e25c2c6995868f48205da9a9d4f2b717"
          ],
          "data": "0x000000000000000000000000000000000000000000000000000000000003d090",
          "blockHash": "0x0647dae0a6a3f9c837261b859ab9674465033fbc3c4716a1a97e367cc893c640",
          "blockNumber": "0x2039ade",
          "transactionHash": "0xf49edd66a950cf3d16d66000dcb9194077af0f85fefb11a5836abe96dda77ece",
          "transactionIndex": "0x6",
          "logIndex": "0xe",
          "removed": false
        },
        {
          "address": "0xdbe517c0fa6467873b684eccbed77217e471e862",
          "topics": [
            "0x458f5fa412d0f69b08dd84872b0215675cc67bc1d5b6fd93300a1c3878b86196",
            "0x000000000000000000000000c74c4119e25c2c6995868f48205da9a9d4f2b717",
            "0x000000000000000000000000c74c4119e25c2c6995868f48205da9a9d4f2b717"
          ],
          "data": "0x000000000000000000000000000000000000000000000000000000000003d09000000000000000000000000000000000000000000000000000000000000000000000000000000000000000000000000000000000033c4fb71d534fd9f2934e53",
          "blockHash": "0x0647dae0a6a3f9c837261b859ab9674465033fbc3c4716a1a97e367cc893c640",
          "blockNumber": "0x2039ade",
          "transactionHash": "0xf49edd66a950cf3d16d66000dcb9194077af0f85fefb11a5836abe96dda77ece",
          "transactionIndex": "0x6",
          "logIndex": "0xf",
          "removed": false
        },
        {
          "address": "0x3e59a31363e2ad014dcbc521c4a0d5757d9f3402",
          "topics": [
            "0x804c9b842b2748a22bb64b345453a3de7ca54a6ca45ce00d415894979e22897a",
            "0x000000000000000000000000ceba9300f2b948710d2653dd7b07f33a8b32118c"
          ],
          "data": "0x00000000000000000000000000000000000000000000d50c9af111f7ee2bd2b0000000000000000000000000000000000000000000000000000000000000000000000000000000000000000000000000000000000007b68b154e7052b504d2460000000000000000000000000000000000000000033b68cce52a5735ec500b830000000000000000000000000000000000000000033c4fb71d534fd9f2934e53",
          "blockHash": "0x0647dae0a6a3f9c837261b859ab9674465033fbc3c4716a1a97e367cc893c640",
          "blockNumber": "0x2039ade",
          "transactionHash": "0xf49edd66a950cf3d16d66000dcb9194077af0f85fefb11a5836abe96dda77ece",
          "transactionIndex": "0x6",
          "logIndex": "0x10",
          "removed": false
        },
        {
          "address": "0xceba9300f2b948710d2653dd7b07f33a8b32118c",
          "topics": [
            "0xddf252ad1be2c89b69c2b068fc378daa952ba7f163c4a11628f55a4df523b3ef",
            "0x000000000000000000000000ff8309b9e99bfd2d4021bc71a362abd93dbd4785",
            "0x000000000000000000000000c74c4119e25c2c6995868f48205da9a9d4f2b717"
          ],
          "data": "0x000000000000000000000000000000000000000000000000000000000003d090",
          "blockHash": "0x0647dae0a6a3f9c837261b859ab9674465033fbc3c4716a1a97e367cc893c640",
          "blockNumber": "0x2039ade",
          "transactionHash": "0xf49edd66a950cf3d16d66000dcb9194077af0f85fefb11a5836abe96dda77ece",
          "transactionIndex": "0x6",
          "logIndex": "0x11",
          "removed": false
        },
        {
          "address": "0x3e59a31363e2ad014dcbc521c4a0d5757d9f3402",
          "topics": [
            "0xb3d084820fb1a9decffb176436bd02558d15fac9b0ddfed8c465bc7359d7dce0",
            "0x000000000000000000000000ceba9300f2b948710d2653dd7b07f33a8b32118c",
            "0x000000000000000000000000c74c4119e25c2c6995868f48205da9a9d4f2b717",
            "0x0000000000000000000000000000000000000000000000000000000000000000"
          ],
          "data": "0x000000000000000000000000c74c4119e25c2c6995868f48205da9a9d4f2b717000000000000000000000000000000000000000000000000000000000003d090000000000000000000000000000000000000000000000000000000000000000200000000000000000000000000000000000000000007b68b154e7052b504d246",
          "blockHash": "0x0647dae0a6a3f9c837261b859ab9674465033fbc3c4716a1a97e367cc893c640",
          "blockNumber": "0x2039ade",
          "transactionHash": "0xf49edd66a950cf3d16d66000dcb9194077af0f85fefb11a5836abe96dda77ece",
          "transactionIndex": "0x6",
          "logIndex": "0x12",
          "removed": false
        },
        {
          "address": "0xceba9300f2b948710d2653dd7b07f33a8b32118c",
          "topics": [
            "0xddf252ad1be2c89b69c2b068fc378daa952ba7f163c4a11628f55a4df523b3ef",
            "0x000000000000000000000000c74c4119e25c2c6995868f48205da9a9d4f2b717",
            "0x0000000000000000000000003a4db9e7306af09012ceb0f222d581fd1f0c6d71"
          ],
          "data": "0x000000000000000000000000000000000000000000000000000000000003d090",
          "blockHash": "0x0647dae0a6a3f9c837261b859ab9674465033fbc3c4716a1a97e367cc893c640",
          "blockNumber": "0x2039ade",
          "transactionHash": "0xf49edd66a950cf3d16d66000dcb9194077af0f85fefb11a5836abe96dda77ece",
          "transactionIndex": "0x6",
          "logIndex": "0x13",
          "removed": false
        },
        {
          "address": "0xc74c4119e25c2c6995868f48205da9a9d4f2b717",
          "topics": [
            "0x9f9b498443531d2db9df8a00ec466efc74ba50ec1d82f7badd3424b87930e19a",
            "0x0000000000000000000000000000000000000000000000000000000000000002",
            "0x0000000000000000000000003a4db9e7306af09012ceb0f222d581fd1f0c6d71"
          ],
          "data": "0x00000000000000000000000048065fbbe25f71c9282ddf5e1cd6d6a887483d5e000000000000000000000000000000000000000000000000000000000007a120000000000000000000000000ceba9300f2b948710d2653dd7b07f33a8b32118c000000000000000000000000000000000000000000000000000000000003d0900000000000000000000000000000000000000000000000000000000000000002",
          "blockHash": "0x0647dae0a6a3f9c837261b859ab9674465033fbc3c4716a1a97e367cc893c640",
          "blockNumber": "0x2039ade",
          "transactionHash": "0xf49edd66a950cf3d16d66000dcb9194077af0f85fefb11a5836abe96dda77ece",
          "transactionIndex": "0x6",
          "logIndex": "0x14",
          "removed": false
        }
      ],
      "logsBloom": "0x040000000000000102001200004000000010000000000020000000000000000000000008000000000000200000044000001000008000000000000000002000000000000080000008000000080000000000000000000000000000000c000000800000000002000000010000000000080000000002000000004000001000000000000001000000000080000000000040000000000000000000220000000000000002000110000100000000014000000000100000000000000040000000000001000200000200008120000002a040000040000000000000041000020000000120000010000000004010000800000001000040000000008008000000400000000000",
      "type": "0x0",
      "transactionHash": "0xf49edd66a950cf3d16d66000dcb9194077af0f85fefb11a5836abe96dda77ece",
      "transactionIndex": "0x6",
      "blockHash": "0x0647dae0a6a3f9c837261b859ab9674465033fbc3c4716a1a97e367cc893c640",
      "blockNumber": "0x2039ade",
      "gasUsed": "0x9a40c",
      "effectiveGasPrice": "0x5d22cfc40",
      "from": "0x3a4db9e7306af09012ceb0f222d581fd1f0c6d71",
      "to": "0xc74c4119e25c2c6995868f48205da9a9d4f2b717",
      "contractAddress": null,
      "l1BaseFeeScalar": "0x0",
      "l1BlobBaseFee": "0x6277de9",
      "l1BlobBaseFeeScalar": "0x0",
      "l1Fee": "0x0",
      "l1GasPrice": "0x18d01a73",
      "l1GasUsed": "0x77b"
    },
    {
      "status": "0x1",
      "cumulativeGasUsed": "0x11929e",
      "logs": [
        {
          "address": "0x48065fbbe25f71c9282ddf5e1cd6d6a887483d5e",
          "topics": [
            "0x8c5be1e5ebec7d5bd14f71427d1e84f3dd0314c0f7b2291e5b200ac8c7c3b925",
            "0x0000000000000000000000003a4db9e7306af09012ceb0f222d581fd1f0c6d71",
            "0x000000000000000000000000c74c4119e25c2c6995868f48205da9a9d4f2b717"
          ],
          "data": "0x000000000000000000000000000000000000000000000000000000000003d090",
          "blockHash": "0x0647dae0a6a3f9c837261b859ab9674465033fbc3c4716a1a97e367cc893c640",
          "blockNumber": "0x2039ade",
          "transactionHash": "0x4d311e1b33bad6331376718fd209ac90625014acf91c13cd14332611f13f8e2e",
          "transactionIndex": "0x7",
          "logIndex": "0x15",
          "removed": false
        },
        {
          "address": "0x48065fbbe25f71c9282ddf5e1cd6d6a887483d5e",
          "topics": [
            "0xddf252ad1be2c89b69c2b068fc378daa952ba7f163c4a11628f55a4df523b3ef",
            "0x0000000000000000000000003a4db9e7306af09012ceb0f222d581fd1f0c6d71",
            "0x000000000000000000000000c74c4119e25c2c6995868f48205da9a9d4f2b717"
          ],
          "data": "0x000000000000000000000000000000000000000000000000000000000003d090",
          "blockHash": "0x0647dae0a6a3f9c837261b859ab9674465033fbc3c4716a1a97e367cc893c640",
          "blockNumber": "0x2039ade",
          "transactionHash": "0x4d311e1b33bad6331376718fd209ac90625014acf91c13cd14332611f13f8e2e",
          "transactionIndex": "0x7",
          "logIndex": "0x16",
          "removed": false
        },
        {
          "address": "0x48065fbbe25f71c9282ddf5e1cd6d6a887483d5e",
          "topics": [
            "0x8c5be1e5ebec7d5bd14f71427d1e84f3dd0314c0f7b2291e5b200ac8c7c3b925",
            "0x0000000000000000000000003a4db9e7306af09012ceb0f222d581fd1f0c6d71",
            "0x000000000000000000000000c74c4119e25c2c6995868f48205da9a9d4f2b717"
          ],
          "data": "0x0000000000000000000000000000000000000000000000000000000000000000",
          "blockHash": "0x0647dae0a6a3f9c837261b859ab9674465033fbc3c4716a1a97e367cc893c640",
          "blockNumber": "0x2039ade",
          "transactionHash": "0x4d311e1b33bad6331376718fd209ac90625014acf91c13cd14332611f13f8e2e",
          "transactionIndex": "0x7",
          "logIndex": "0x17",
          "removed": false
        },
        {
          "address": "0x48065fbbe25f71c9282ddf5e1cd6d6a887483d5e",
          "topics": [
            "0x8c5be1e5ebec7d5bd14f71427d1e84f3dd0314c0f7b2291e5b200ac8c7c3b925",
            "0x000000000000000000000000c74c4119e25c2c6995868f48205da9a9d4f2b717",
            "0x0000000000000000000000003e59a31363e2ad014dcbc521c4a0d5757d9f3402"
          ],
          "data": "0x000000000000000000000000000000000000000000000000000000000003d090",
          "blockHash": "0x0647dae0a6a3f9c837261b859ab9674465033fbc3c4716a1a97e367cc893c640",
          "blockNumber": "0x2039ade",
          "transactionHash": "0x4d311e1b33bad6331376718fd209ac90625014acf91c13cd14332611f13f8e2e",
          "transactionIndex": "0x7",
          "logIndex": "0x18",
          "removed": false
        },
        {
          "address": "0x3e59a31363e2ad014dcbc521c4a0d5757d9f3402",
          "topics": [
            "0x804c9b842b2748a22bb64b345453a3de7ca54a6ca45ce00d415894979e22897a",
            "0x00000000000000000000000048065fbbe25f71c9282ddf5e1cd6d6a887483d5e"
          ],
          "data": "0x00000000000000000000000000000000000000000000000b15eb81f48333ea760000000000000000000000000000000000000000000000000000000000000000000000000000000000000000000000000000000000001c2689f79937b8d9a9230000000000000000000000000000000000000000033b5f8e20735f098c23df1f0000000000000000000000000000000000000000033bcca1a4384463a5351b2e",
          "blockHash": "0x0647dae0a6a3f9c837261b859ab9674465033fbc3c4716a1a97e367cc893c640",
          "blockNumber": "0x2039ade",
          "transactionHash": "0x4d311e1b33bad6331376718fd209ac90625014acf91c13cd14332611f13f8e2e",
          "transactionIndex": "0x7",
          "logIndex": "0x19",
          "removed": false
        },
        {
          "address": "0x48065fbbe25f71c9282ddf5e1cd6d6a887483d5e",
          "topics": [
            "0xddf252ad1be2c89b69c2b068fc378daa952ba7f163c4a11628f55a4df523b3ef",
            "0x000000000000000000000000c74c4119e25c2c6995868f48205da9a9d4f2b717",
            "0x000000000000000000000000dee98402a302e4d707fb9bf2bac66faeec31e8df"
          ],
          "data": "0x000000000000000000000000000000000000000000000000000000000003d090",
          "blockHash": "0x0647dae0a6a3f9c837261b859ab9674465033fbc3c4716a1a97e367cc893c640",
          "blockNumber": "0x2039ade",
          "transactionHash": "0x4d311e1b33bad6331376718fd209ac90625014acf91c13cd14332611f13f8e2e",
          "transactionIndex": "0x7",
          "logIndex": "0x1a",
          "removed": false
        },
        {
          "address": "0x48065fbbe25f71c9282ddf5e1cd6d6a887483d5e",
          "topics": [
            "0x8c5be1e5ebec7d5bd14f71427d1e84f3dd0314c0f7b2291e5b200ac8c7c3b925",
            "0x000000000000000000000000c74c4119e25c2c6995868f48205da9a9d4f2b717",
            "0x0000000000000000000000003e59a31363e2ad014dcbc521c4a0d5757d9f3402"
          ],
          "data": "0x0000000000000000000000000000000000000000000000000000000000000000",
          "blockHash": "0x0647dae0a6a3f9c837261b859ab9674465033fbc3c4716a1a97e367cc893c640",
          "blockNumber": "0x2039ade",
          "transactionHash": "0x4d311e1b33bad6331376718fd209ac90625014acf91c13cd14332611f13f8e2e",
          "transactionIndex": "0x7",
          "logIndex": "0x1b",
          "removed": false
        },
        {
          "address": "0xdee98402a302e4d707fb9bf2bac66faeec31e8df",
          "topics": [
            "0xddf252ad1be2c89b69c2b068fc378daa952ba7f163c4a11628f55a4df523b3ef",
            "0x0000000000000000000000000000000000000000000000000000000000000000",
            "0x000000000000000000000000c74c4119e25c2c6995868f48205da9a9d4f2b717"
          ],
          "data": "0x000000000000000000000000000000000000000000000000000000000003d090",
          "blockHash": "0x0647dae0a6a3f9c837261b859ab9674465033fbc3c4716a1a97e367cc893c640",
          "blockNumber": "0x2039ade",
          "transactionHash": "0x4d311e1b33bad6331376718fd209ac90625014acf91c13cd14332611f13f8e2e",
          "transactionIndex": "0x7",
          "logIndex": "0x1c",
          "removed": false
        },
        {
          "address": "0xdee98402a302e4d707fb9bf2bac66faeec31e8df",
          "topics": [
            "0x458f5fa412d0f69b08dd84872b0215675cc67bc1d5b6fd93300a1c3878b86196",
            "0x000000000000000000000000c74c4119e25c2c6995868f48205da9a9d4f2b717",
            "0x000000000000000000000000c74c4119e25c2c6995868f48205da9a9d4f2b717"
          ],
          "data": "0x000000000000000000000000000000000000000000000000000000000003d09000000000000000000000000000000000000000000000000000000000000000000000000000000000000000000000000000000000033b5f8e20735f098c23df1f",
          "blockHash": "0x0647dae0a6a3f9c837261b859ab9674465033fbc3c4716a1a97e367cc893c640",
          "blockNumber": "0x2039ade",
          "transactionHash": "0x4d311e1b33bad6331376718fd209ac90625014acf91c13cd14332611f13f8e2e",
          "transactionIndex": "0x7",
          "logIndex": "0x1d",
          "removed": false
        },
        {
          "address": "0x3e59a31363e2ad014dcbc521c4a0d5757d9f3402",
          "topics": [
            "0x2b627736bca15cd5381dcf80b0bf11fd197d01a037c52b927a881a10fb73ba61",
            "0x00000000000000000000000048065fbbe25f71c9282ddf5e1cd6d6a887483d5e",
            "0x000000000000000000000000c74c4119e25c2c6995868f48205da9a9d4f2b717",
            "0x0000000000000000000000000000000000000000000000000000000000000000"
          ],
          "data": "0x000000000000000000000000c74c4119e25c2c6995868f48205da9a9d4f2b717000000000000000000000000000000000000000000000000000000000003d090",
          "blockHash": "0x0647dae0a6a3f9c837261b859ab9674465033fbc3c4716a1a97e367cc893c640",
          "blockNumber": "0x2039ade",
          "transactionHash": "0x4d311e1b33bad6331376718fd209ac90625014acf91c13cd14332611f13f8e2e",
          "transactionIndex": "0x7",
          "logIndex": "0x1e",
          "removed": false
        },
        {
          "address": "0xc74c4119e25c2c6995868f48205da9a9d4f2b717",
          "topics": [
            "0x244160b15e69cc411f041d94ae7fab6f6bba85dade8403216c05ff4b920d5449",
            "0x0000000000000000000000000000000000000000000000000000000000000002"
          ],
          "data": "0x000000000000000000000000000000000000000000000000000000000003d090",
          "blockHash": "0x0647dae0a6a3f9c837261b859ab9674465033fbc3c4716a1a97e367cc893c640",
          "blockNumber": "0x2039ade",
          "transactionHash": "0x4d311e1b33bad6331376718fd209ac90625014acf91c13cd14332611f13f8e2e",
          "transactionIndex": "0x7",
          "logIndex": "0x1f",
          "removed": false
        }
      ],
      "logsBloom": "0x040000000000000102000200000000000010000000000020000000000000000000000008000000000000000000040000000000008002000000000000002000000000000000000008000000080000000000000000000000000000000c000000800000000002000000010000000000080000000000000000004000001000000000000001000000000080000000000040000000000000000000020000000000000002000010000100000000014000000000100000000000000040000000000001000200000200008000000000a040000050000000000000001000000000000120000010000000000080000000000000000040000000008008000000400000000000",
      "type": "0x0",
      "transactionHash": "0x4d311e1b33bad6331376718fd209ac90625014acf91c13cd14332611f13f8e2e",
      "transactionIndex": "0x7",
      "blockHash": "0x0647dae0a6a3f9c837261b859ab9674465033fbc3c4716a1a97e367cc893c640",
      "blockNumber": "0x2039ade",
      "gasUsed": "0x3c5db",
      "effectiveGasPrice": "0x5d22cfc40",
      "from": "0x3a4db9e7306af09012ceb0f222d581fd1f0c6d71",
      "to": "0xc74c4119e25c2c6995868f48205da9a9d4f2b717",
      "contractAddress": null,
      "l1BaseFeeScalar": "0x0",
      "l1BlobBaseFee": "0x6277de9",
      "l1BlobBaseFeeScalar": "0x0",
      "l1Fee": "0x0",
      "l1GasPrice": "0x18d01a73",
      "l1GasUsed": "0x85e"
    },
    {
      "status": "0x1",
      "cumulativeGasUsed": "0x1965a9",
      "logs": [
        {
          "address": "0xdbe517c0fa6467873b684eccbed77217e471e862",
          "topics": [
            "0xddf252ad1be2c89b69c2b068fc378daa952ba7f163c4a11628f55a4df523b3ef",
            "0x0000000000000000000000000000000000000000000000000000000000000000",
            "0x000000000000000000000000c74c4119e25c2c6995868f48205da9a9d4f2b717"
          ],
          "data": "0x000000000000000000000000000000000000000000000000000000000001e848",
          "blockHash": "0x68c5b517d4a9a7a126e087e0ec266236a689565682f4bcadc86d56339cd228c9",
          "blockNumber": "0x2039adf",
          "transactionHash": "0x84d44d2916495a489a516c8a862b557969859acafca277ef815e90304f516e76",
          "transactionIndex": "0x9",
          "logIndex": "0x23",
          "removed": false
        },
        {
          "address": "0xdbe517c0fa6467873b684eccbed77217e471e862",
          "topics": [
            "0x458f5fa412d0f69b08dd84872b0215675cc67bc1d5b6fd93300a1c3878b86196",
            "0x000000000000000000000000c74c4119e25c2c6995868f48205da9a9d4f2b717",
            "0x000000000000000000000000c74c4119e25c2c6995868f48205da9a9d4f2b717"
          ],
          "data": "0x000000000000000000000000000000000000000000000000000000000001e84800000000000000000000000000000000000000000000000000000000000000000000000000000000000000000000000000000000033c4fb7216f357ea66543e7",
          "blockHash": "0x68c5b517d4a9a7a126e087e0ec266236a689565682f4bcadc86d56339cd228c9",
          "blockNumber": "0x2039adf",
          "transactionHash": "0x84d44d2916495a489a516c8a862b557969859acafca277ef815e90304f516e76",
          "transactionIndex": "0x9",
          "logIndex": "0x24",
          "removed": false
        },
        {
          "address": "0x3e59a31363e2ad014dcbc521c4a0d5757d9f3402",
          "topics": [
            "0x804c9b842b2748a22bb64b345453a3de7ca54a6ca45ce00d415894979e22897a",
            "0x000000000000000000000000ceba9300f2b948710d2653dd7b07f33a8b32118c"
          ],
          "data": "0x00000000000000000000000000000000000000000000d50cbdbe9f97f5746220000000000000000000000000000000000000000000000000000000000000000000000000000000000000000000000000000000000007b68bb6955820525ae81f0000000000000000000000000000000000000000033b68cce59bb6f2a6ae762b0000000000000000000000000000000000000000033c4fb7216f357ea66543e7",
          "blockHash": "0x68c5b517d4a9a7a126e087e0ec266236a689565682f4bcadc86d56339cd228c9",
          "blockNumber": "0x2039adf",
          "transactionHash": "0x84d44d2916495a489a516c8a862b557969859acafca277ef815e90304f516e76",
          "transactionIndex": "0x9",
          "logIndex": "0x25",
          "removed": false
        },
        {
          "address": "0xceba9300f2b948710d2653dd7b07f33a8b32118c",
          "topics": [
            "0xddf252ad1be2c89b69c2b068fc378daa952ba7f163c4a11628f55a4df523b3ef",
            "0x000000000000000000000000ff8309b9e99bfd2d4021bc71a362abd93dbd4785",
            "0x000000000000000000000000c74c4119e25c2c6995868f48205da9a9d4f2b717"
          ],
          "data": "0x000000000000000000000000000000000000000000000000000000000001e848",
          "blockHash": "0x68c5b517d4a9a7a126e087e0ec266236a689565682f4bcadc86d56339cd228c9",
          "blockNumber": "0x2039adf",
          "transactionHash": "0x84d44d2916495a489a516c8a862b557969859acafca277ef815e90304f516e76",
          "transactionIndex": "0x9",
          "logIndex": "0x26",
          "removed": false
        },
        {
          "address": "0x3e59a31363e2ad014dcbc521c4a0d5757d9f3402",
          "topics": [
            "0xb3d084820fb1a9decffb176436bd02558d15fac9b0ddfed8c465bc7359d7dce0",
            "0x000000000000000000000000ceba9300f2b948710d2653dd7b07f33a8b32118c",
            "0x000000000000000000000000c74c4119e25c2c6995868f48205da9a9d4f2b717",
            "0x0000000000000000000000000000000000000000000000000000000000000000"
          ],
          "data": "0x000000000000000000000000c74c4119e25c2c6995868f48205da9a9d4f2b717000000000000000000000000000000000000000000000000000000000001e848000000000000000000000000000000000000000000000000000000000000000200000000000000000000000000000000000000000007b68bb6955820525ae81f",
          "blockHash": "0x68c5b517d4a9a7a126e087e0ec266236a689565682f4bcadc86d56339cd228c9",
          "blockNumber": "0x2039adf",
          "transactionHash": "0x84d44d2916495a489a516c8a862b557969859acafca277ef815e90304f516e76",
          "transactionIndex": "0x9",
          "logIndex": "0x27",
          "removed": false
        },
        {
          "address": "0xceba9300f2b948710d2653dd7b07f33a8b32118c",
          "topics": [
            "0xddf252ad1be2c89b69c2b068fc378daa952ba7f163c4a11628f55a4df523b3ef",
            "0x000000000000000000000000c74c4119e25c2c6995868f48205da9a9d4f2b717",
            "0x0000000000000000000000003a4db9e7306af09012ceb0f222d581fd1f0c6d71"
          ],
          "data": "0x000000000000000000000000000000000000000000000000000000000001e848",
          "blockHash": "0x68c5b517d4a9a7a126e087e0ec266236a689565682f4bcadc86d56339cd228c9",
          "blockNumber": "0x2039adf",
          "transactionHash": "0x84d44d2916495a489a516c8a862b557969859acafca277ef815e90304f516e76",
          "transactionIndex": "0x9",
          "logIndex": "0x28",
          "removed": false
        },
        {
          "address": "0xc74c4119e25c2c6995868f48205da9a9d4f2b717",
          "topics": [
            "0xf3a2c404b3362c4238317c3dad1020c2e9e984ba8df38a4a1ff18d57e92a242a",
            "0x0000000000000000000000000000000000000000000000000000000000000002"
          ],
          "data": "0x000000000000000000000000000000000000000000000000000000000001e848",
          "blockHash": "0x68c5b517d4a9a7a126e087e0ec266236a689565682f4bcadc86d56339cd228c9",
          "blockNumber": "0x2039adf",
          "transactionHash": "0x84d44d2916495a489a516c8a862b557969859acafca277ef815e90304f516e76",
          "transactionIndex": "0x9",
          "logIndex": "0x29",
          "removed": false
        }
      ],
      "logsBloom": "0x040000000000000000001000004000000000000000000020000000000000000000000000000000000000000000044000001000008000000000000000000000000000000080000000000000080000000000000000000000000000000c0000008000000000020000000100000000000800000000000000000000000010000000000000000000000010800000000000400000000000000000002200000000000000000001000000000000000100000000000000000000000000400000000000010002000002000081200000022000000000000000400000041000000000000020000000000000004010000800000001000000000000008008000800000000000000",
      "type": "0x0",
      "transactionHash": "0x84d44d2916495a489a516c8a862b557969859acafca277ef815e90304f516e76",
      "transactionIndex": "0x9",
      "blockHash": "0x68c5b517d4a9a7a126e087e0ec266236a689565682f4bcadc86d56339cd228c9",
      "blockNumber": "0x2039adf",
      "gasUsed": "0x5a1f3",
      "effectiveGasPrice": "0x5d22cfc40",
      "from": "0x3a4db9e7306af09012ceb0f222d581fd1f0c6d71",
      "to": "0xc74c4119e25c2c6995868f48205da9a9d4f2b717",
      "contractAddress": null,
      "l1BaseFeeScalar": "0x0",
      "l1BlobBaseFee": "0x6277de9",
      "l1BlobBaseFeeScalar": "0x0",
      "l1Fee": "0x0",
      "l1GasPrice": "0x18d01a73",
      "l1GasUsed": "0x640"
    },
    {
      "status": "0x1",
      "cumulativeGasUsed": "0x1e494f",
      "logs": [
        {
          "address": "0xceba9300f2b948710d2653dd7b07f33a8b32118c",
          "topics": [
            "0x8c5be1e5ebec7d5bd14f71427d1e84f3dd0314c0f7b2291e5b200ac8c7c3b925",
            "0x0000000000000000000000003a4db9e7306af09012ceb0f222d581fd1f0c6d71",
            "0x000000000000000000000000c74c4119e25c2c6995868f48205da9a9d4f2b717"
          ],
          "data": "0x000000000000000000000000000000000000000000000000000000000002dc6c",
          "blockHash": "0x68c5b517d4a9a7a126e087e0ec266236a689565682f4bcadc86d56339cd228c9",
          "blockNumber": "0x2039adf",
          "transactionHash": "0xe4396d9e99a6917d90669d5fd51e90e8b7f00c9bfb521d6ef18c9e689d00bd57",
          "transactionIndex": "0xc",
          "logIndex": "0x2c",
          "removed": false
        },
        {
          "address": "0xceba9300f2b948710d2653dd7b07f33a8b32118c",
          "topics": [
            "0xddf252ad1be2c89b69c2b068fc378daa952ba7f163c4a11628f55a4df523b3ef",
            "0x0000000000000000000000003a4db9e7306af09012ceb0f222d581fd1f0c6d71",
            "0x000000000000000000000000c74c4119e25c2c6995868f48205da9a9d4f2b717"
          ],
          "data": "0x000000000000000000000000000000000000000000000000000000000002dc6c",
          "blockHash": "0x68c5b517d4a9a7a126e087e0ec266236a689565682f4bcadc86d56339cd228c9",
          "blockNumber": "0x2039adf",
          "transactionHash": "0xe4396d9e99a6917d90669d5fd51e90e8b7f00c9bfb521d6ef18c9e689d00bd57",
          "transactionIndex": "0xc",
          "logIndex": "0x2d",
          "removed": false
        },
        {
          "address": "0xceba9300f2b948710d2653dd7b07f33a8b32118c",
          "topics": [
            "0x8c5be1e5ebec7d5bd14f71427d1e84f3dd0314c0f7b2291e5b200ac8c7c3b925",
            "0x000000000000000000000000c74c4119e25c2c6995868f48205da9a9d4f2b717",
            "0x0000000000000000000000003e59a31363e2ad014dcbc521c4a0d5757d9f3402"
          ],
          "data": "0x000000000000000000000000000000000000000000000000000000000002dc6c",
          "blockHash": "0x68c5b517d4a9a7a126e087e0ec266236a689565682f4bcadc86d56339cd228c9",
          "blockNumber": "0x2039adf",
          "transactionHash": "0xe4396d9e99a6917d90669d5fd51e90e8b7f00c9bfb521d6ef18c9e689d00bd57",
          "transactionIndex": "0xc",
          "logIndex": "0x2e",
          "removed": false
        },
        {
          "address": "0xdbe517c0fa6467873b684eccbed77217e471e862",
          "topics": [
            "0xddf252ad1be2c89b69c2b068fc378daa952ba7f163c4a11628f55a4df523b3ef",
            "0x000000000000000000000000c74c4119e25c2c6995868f48205da9a9d4f2b717",
            "0x0000000000000000000000000000000000000000000000000000000000000000"
          ],
          "data": "0x000000000000000000000000000000000000000000000000000000000002dc6c",
          "blockHash": "0x68c5b517d4a9a7a126e087e0ec266236a689565682f4bcadc86d56339cd228c9",
          "blockNumber": "0x2039adf",
          "transactionHash": "0xe4396d9e99a6917d90669d5fd51e90e8b7f00c9bfb521d6ef18c9e689d00bd57",
          "transactionIndex": "0xc",
          "logIndex": "0x2f",
          "removed": false
        },
        {
          "address": "0xdbe517c0fa6467873b684eccbed77217e471e862",
          "topics": [
            "0x4cf25bc1d991c17529c25213d3cc0cda295eeaad5f13f361969b12ea48015f90",
            "0x000000000000000000000000c74c4119e25c2c6995868f48205da9a9d4f2b717",
            "0x0000000000000000000000000000000000000000000000000000000000000000"
          ],
          "data": "0x000000000000000000000000000000000000000000000000000000000002dc6c00000000000000000000000000000000000000000000000000000000000000000000000000000000000000000000000000000000033c4fb7216f357ea66543e7",
          "blockHash": "0x68c5b517d4a9a7a126e087e0ec266236a689565682f4bcadc86d56339cd228c9",
          "blockNumber": "0x2039adf",
          "transactionHash": "0xe4396d9e99a6917d90669d5fd51e90e8b7f00c9bfb521d6ef18c9e689d00bd57",
          "transactionIndex": "0xc",
          "logIndex": "0x30",
          "removed": false
        },
        {
          "address": "0x3e59a31363e2ad014dcbc521c4a0d5757d9f3402",
          "topics": [
            "0x804c9b842b2748a22bb64b345453a3de7ca54a6ca45ce00d415894979e22897a",
            "0x000000000000000000000000ceba9300f2b948710d2653dd7b07f33a8b32118c"
          ],
          "data": "0x00000000000000000000000000000000000000000000d50c898d1ebbbdc64406000000000000000000000000000000000000000000000000000000000000000000000000000000000000000000000000000000000007b68ac4b8108bf0653bc80000000000000000000000000000000000000000033b68cce59bb6f2a6ae762b0000000000000000000000000000000000000000033c4fb7216f357ea66543e7",
          "blockHash": "0x68c5b517d4a9a7a126e087e0ec266236a689565682f4bcadc86d56339cd228c9",
          "blockNumber": "0x2039adf",
          "transactionHash": "0xe4396d9e99a6917d90669d5fd51e90e8b7f00c9bfb521d6ef18c9e689d00bd57",
          "transactionIndex": "0xc",
          "logIndex": "0x31",
          "removed": false
        },
        {
          "address": "0xceba9300f2b948710d2653dd7b07f33a8b32118c",
          "topics": [
            "0xddf252ad1be2c89b69c2b068fc378daa952ba7f163c4a11628f55a4df523b3ef",
            "0x000000000000000000000000c74c4119e25c2c6995868f48205da9a9d4f2b717",
            "0x000000000000000000000000ff8309b9e99bfd2d4021bc71a362abd93dbd4785"
          ],
          "data": "0x000000000000000000000000000000000000000000000000000000000002dc6c",
          "blockHash": "0x68c5b517d4a9a7a126e087e0ec266236a689565682f4bcadc86d56339cd228c9",
          "blockNumber": "0x2039adf",
          "transactionHash": "0xe4396d9e99a6917d90669d5fd51e90e8b7f00c9bfb521d6ef18c9e689d00bd57",
          "transactionIndex": "0xc",
          "logIndex": "0x32",
          "removed": false
        },
        {
          "address": "0x3e59a31363e2ad014dcbc521c4a0d5757d9f3402",
          "topics": [
            "0xa534c8dbe71f871f9f3530e97a74601fea17b426cae02e1c5aee42c96c784051",
            "0x000000000000000000000000ceba9300f2b948710d2653dd7b07f33a8b32118c",
            "0x000000000000000000000000c74c4119e25c2c6995868f48205da9a9d4f2b717",
            "0x000000000000000000000000c74c4119e25c2c6995868f48205da9a9d4f2b717"
          ],
          "data": "0x000000000000000000000000000000000000000000000000000000000002dc6c0000000000000000000000000000000000000000000000000000000000000000",
          "blockHash": "0x68c5b517d4a9a7a126e087e0ec266236a689565682f4bcadc86d56339cd228c9",
          "blockNumber": "0x2039adf",
          "transactionHash": "0xe4396d9e99a6917d90669d5fd51e90e8b7f00c9bfb521d6ef18c9e689d00bd57",
          "transactionIndex": "0xc",
          "logIndex": "0x33",
          "removed": false
        },
        {
          "address": "0xc74c4119e25c2c6995868f48205da9a9d4f2b717",
          "topics": [
            "0x0d4979b0859a1951f8ed7cbe3b1994e740552588f27ba02ca0f8f1ddcad16e0c",
            "0x0000000000000000000000000000000000000000000000000000000000000002"
          ],
          "data": "0x000000000000000000000000000000000000000000000000000000000002dc6c",
          "blockHash": "0x68c5b517d4a9a7a126e087e0ec266236a689565682f4bcadc86d56339cd228c9",
          "blockNumber": "0x2039adf",
          "transactionHash": "0xe4396d9e99a6917d90669d5fd51e90e8b7f00c9bfb521d6ef18c9e689d00bd57",
          "transactionIndex": "0xc",
          "logIndex": "0x34",
          "removed": false
        }
      ],
      "logsBloom": "0x14000000000000010000120010400000000000000000002000000000000000000000000000000000000000000000400000110000c00000000000000000200000000000008000000000000008000000000000002000000000000000080000008080000000020000000100000000000800000000000000000000000010000000000000000000000000800000000000400000000000000000002200000000000000020001100000000000000100000000000000000000000000400000000000010000000002000080200000022000000000000000000000001000000000000020040010100000004010000800000000000000000000008008000000000000040000",
      "type": "0x0",
      "transactionHash": "0xe4396d9e99a6917d90669d5fd51e90e8b7f00c9bfb521d6ef18c9e689d00bd57",
      "transactionIndex": "0xc",
      "blockHash": "0x68c5b517d4a9a7a126e087e0ec266236a689565682f4bcadc86d56339cd228c9",
      "blockNumber": "0x2039adf",
      "gasUsed": "0x38c8c",
      "effectiveGasPrice": "0x5d22cfc40",
      "from": "0x3a4db9e7306af09012ceb0f222d581fd1f0c6d71",
      "to": "0xc74c4119e25c2c6995868f48205da9a9d4f2b717",
      "contractAddress": null,
      "l1BaseFeeScalar": "0x0",
      "l1BlobBaseFee": "0x6277de9",
      "l1BlobBaseFeeScalar": "0x0",
      "l1Fee": "0x0",
      "l1GasPrice": "0x18d01a73",
      "l1GasUsed": "0x85e"
    }
  ],
  "libraries": [],
  "pending": [],
  "returns": {},
  "timestamp": 1745691446,
  "chain": 42220,
  "commit": "1cefd9d"
}