{
  "transactions": [
    {
      "hash": "0xd853efec048f41c14707410ab9df3de015762e9aff51e669f4b0cbdcd1325a3c",
      "transactionType": "CALL",
      "contractName": null,
      "contractAddress": "0x48065fbbe25f71c9282ddf5e1cd6d6a887483d5e",
      "function": "approve(address,uint256)",
      "arguments": [
        "0xC74c4119e25c2C6995868f48205da9a9d4F2B717",
        "500000"
      ],
      "transaction": {
        "from": "0x3a4db9e7306af09012ceb0f222d581fd1f0c6d71",
        "to": "0x48065fbbe25f71c9282ddf5e1cd6d6a887483d5e",
        "gas": "0x1201c",
        "value": "0x0",
        "input": "0x095ea7b3000000000000000000000000c74c4119e25c2c6995868f48205da9a9d4f2b717000000000000000000000000000000000000000000000000000000000007a120",
        "nonce": "0x99",
        "chainId": "0xa4ec"
      },
      "additionalContracts": [],
      "isFixedGasLimit": false
    },
    {
      "hash": "0xef4e5da1c6f198cdc1b079a5cd23689ca7d20ddd876b1c7de29ab5e9221f7960",
      "transactionType": "CALL",
      "contractName": null,
      "contractAddress": "0xc74c4119e25c2c6995868f48205da9a9d4f2b717",
      "function": "createPosition(address,uint256,address,uint256,uint256)",
      "arguments": [
        "0x48065fbBE25f71C9282ddf5e1cD6D6A887483D5e",
        "500000",
        "0xcebA9300f2b948710d2653dD7B07f33A8B32118C",
        "250000",
        "2"
      ],
      "transaction": {
        "from": "0x3a4db9e7306af09012ceb0f222d581fd1f0c6d71",
        "to": "0xc74c4119e25c2c6995868f48205da9a9d4f2b717",
        "gas": "0xe4815",
        "value": "0x0",
        "input": "0xb0c3d5df00000000000000000000000048065fbbe25f71c9282ddf5e1cd6d6a887483d5e000000000000000000000000000000000000000000000000000000000007a120000000000000000000000000ceba9300f2b948710d2653dd7b07f33a8b32118c000000000000000000000000000000000000000000000000000000000003d0900000000000000000000000000000000000000000000000000000000000000002",
        "nonce": "0x9a",
        "chainId": "0xa4ec"
      },
      "additionalContracts": [],
      "isFixedGasLimit": false
    },
    {
      "hash": "0x713ad555c8147533f0f22e3267b6d9f51201c0ed790b07ba09de7d65141daf92",
      "transactionType": "CALL",
      "contractName": null,
      "contractAddress": "0x48065fbbe25f71c9282ddf5e1cd6d6a887483d5e",
      "function": "approve(address,uint256)",
      "arguments": [
        "0xC74c4119e25c2C6995868f48205da9a9d4F2B717",
        "250000"
      ],
      "transaction": {
        "from": "0x3a4db9e7306af09012ceb0f222d581fd1f0c6d71",
        "to": "0x48065fbbe25f71c9282ddf5e1cd6d6a887483d5e",
        "gas": "0x1201c",
        "value": "0x0",
        "input": "0x095ea7b3000000000000000000000000c74c4119e25c2c6995868f48205da9a9d4f2b717000000000000000000000000000000000000000000000000000000000003d090",
        "nonce": "0x9b",
        "chainId": "0xa4ec"
      },
      "additionalContracts": [],
      "isFixedGasLimit": false
    },
    {
      "hash": "0xa2865365f52fbf434f2117cc1498042e2945a3bad34b08f2d10df228955fa6c1",
      "transactionType": "CALL",
      "contractName": null,
      "contractAddress": "0xc74c4119e25c2c6995868f48205da9a9d4f2b717",
      "function": "addCollateral(uint256,uint256)",
      "arguments": [
        "3",
        "250000"
      ],
      "transaction": {
        "from": "0x3a4db9e7306af09012ceb0f222d581fd1f0c6d71",
        "to": "0xc74c4119e25c2c6995868f48205da9a9d4f2b717",
        "gas": "0x4b659",
        "value": "0x0",
        "input": "0xa8f35adf0000000000000000000000000000000000000000000000000000000000000003000000000000000000000000000000000000000000000000000000000003d090",
        "nonce": "0x9c",
        "chainId": "0xa4ec"
      },
      "additionalContracts": [],
      "isFixedGasLimit": false
    },
    {
      "hash": "0x0a46e02caf6c040153662af5e66d87e824031494f751bff95e5e5718fb9da13b",
      "transactionType": "CALL",
      "contractName": null,
      "contractAddress": "0xc74c4119e25c2c6995868f48205da9a9d4f2b717",
      "function": "increaseBorrow(uint256,uint256)",
      "arguments": [
        "3",
        "125000"
      ],
      "transaction": {
        "from": "0x3a4db9e7306af09012ceb0f222d581fd1f0c6d71",
        "to": "0xc74c4119e25c2c6995868f48205da9a9d4f2b717",
        "gas": "0x78103",
        "value": "0x0",
        "input": "0x9e6824d90000000000000000000000000000000000000000000000000000000000000003000000000000000000000000000000000000000000000000000000000001e848",
        "nonce": "0x9d",
        "chainId": "0xa4ec"
      },
      "additionalContracts": [],
      "isFixedGasLimit": false
    },
    {
      "hash": "0xf485ac97fe6f7845c024d1dce28640714c488ee8004fd42814b8bc69a796b820",
      "transactionType": "CALL",
      "contractName": null,
      "contractAddress": "0xceba9300f2b948710d2653dd7b07f33a8b32118c",
      "function": "approve(address,uint256)",
      "arguments": [
        "0xC74c4119e25c2C6995868f48205da9a9d4F2B717",
        "187500"
      ],
      "transaction": {
        "from": "0x3a4db9e7306af09012ceb0f222d581fd1f0c6d71",
        "to": "0xceba9300f2b948710d2653dd7b07f33a8b32118c",
        "gas": "0x12b1b",
        "value": "0x0",
        "input": "0x095ea7b3000000000000000000000000c74c4119e25c2c6995868f48205da9a9d4f2b717000000000000000000000000000000000000000000000000000000000002dc6c",
        "nonce": "0x9e",
        "chainId": "0xa4ec"
      },
      "additionalContracts": [],
      "isFixedGasLimit": false
    },
    {
      "hash": "0xc524ff76463f3c283d04319bb01928fd51ec95fef0e52d20f79cd8c02b63645f",
      "transactionType": "CALL",
      "contractName": null,
      "contractAddress": "0xc74c4119e25c2c6995868f48205da9a9d4f2b717",
      "function": "repayDebt(uint256,uint256)",
      "arguments": [
        "3",
        "187500"
      ],
      "transaction": {
        "from": "0x3a4db9e7306af09012ceb0f222d581fd1f0c6d71",
        "to": "0xc74c4119e25c2c6995868f48205da9a9d4f2b717",
        "gas": "0x4a361",
        "value": "0x0",
        "input": "0x015cb0a50000000000000000000000000000000000000000000000000000000000000003000000000000000000000000000000000000000000000000000000000002dc6c",
        "nonce": "0x9f",
        "chainId": "0xa4ec"
      },
      "additionalContracts": [],
      "isFixedGasLimit": false
    },
    {
      "hash": "0x09305676d9148ebbf48d28fdb5b0fc9f54b7f2e7d8e0e306526a04fceb322c11",
      "transactionType": "CALL",
      "contractName": null,
      "contractAddress": "0xc74c4119e25c2c6995868f48205da9a9d4f2b717",
      "function": "withdrawCollateral(uint256,uint256)",
      "arguments": [
        "3",
        "150000"
      ],
      "transaction": {
        "from": "0x3a4db9e7306af09012ceb0f222d581fd1f0c6d71",
        "to": "0xc74c4119e25c2c6995868f48205da9a9d4f2b717",
        "gas": "0x6f349",
        "value": "0x0",
        "input": "0x767a7b05000000000000000000000000000000000000000000000000000000000000000300000000000000000000000000000000000000000000000000000000000249f0",
        "nonce": "0xa0",
        "chainId": "0xa4ec"
      },
      "additionalContracts": [],
      "isFixedGasLimit": false
    },
    {
      "hash": "0xb382d50a7e9fe0c6ad956085a9739b69fa4247a8683de52e3f0fca326393517a",
      "transactionType": "CALL",
      "contractName": null,
      "contractAddress": "0xceba9300f2b948710d2653dd7b07f33a8b32118c",
      "function": "approve(address,uint256)",
      "arguments": [
        "0xC74c4119e25c2C6995868f48205da9a9d4F2B717",
        "375000"
      ],
      "transaction": {
        "from": "0x3a4db9e7306af09012ceb0f222d581fd1f0c6d71",
        "to": "0xceba9300f2b948710d2653dd7b07f33a8b32118c",
        "gas": "0x12b1b",
        "value": "0x0",
        "input": "0x095ea7b3000000000000000000000000c74c4119e25c2c6995868f48205da9a9d4f2b717000000000000000000000000000000000000000000000000000000000005b8d8",
        "nonce": "0xa1",
        "chainId": "0xa4ec"
      },
      "additionalContracts": [],
      "isFixedGasLimit": false
    },
    {
      "hash": "0xc0215199e468675e20eae95af4e1ea9d86a31a771d38df870bfa7907a2ab1e82",
      "transactionType": "CALL",
      "contractName": null,
      "contractAddress": "0xc74c4119e25c2c6995868f48205da9a9d4f2b717",
      "function": "repayDebt(uint256,uint256)",
      "arguments": [
        "3",
        "187500"
      ],
      "transaction": {
        "from": "0x3a4db9e7306af09012ceb0f222d581fd1f0c6d71",
        "to": "0xc74c4119e25c2c6995868f48205da9a9d4f2b717",
        "gas": "0x4600f",
        "value": "0x0",
        "input": "0x015cb0a50000000000000000000000000000000000000000000000000000000000000003000000000000000000000000000000000000000000000000000000000002dc6c",
        "nonce": "0xa2",
        "chainId": "0xa4ec"
      },
      "additionalContracts": [],
      "isFixedGasLimit": false
    },
    {
      "hash": "0xb4aefa6dcf071cd29abae438037f366635ba50f8ebe35054ae8daf64bc7b4d72",
      "transactionType": "CALL",
      "contractName": null,
      "contractAddress": "0xc74c4119e25c2c6995868f48205da9a9d4f2b717",
      "function": "withdrawCollateral(uint256,uint256)",
      "arguments": [
        "3",
        "600000"
      ],
      "transaction": {
        "from": "0x3a4db9e7306af09012ceb0f222d581fd1f0c6d71",
        "to": "0xc74c4119e25c2c6995868f48205da9a9d4f2b717",
        "gas": "0x6d963",
        "value": "0x0",
        "input": "0x767a7b05000000000000000000000000000000000000000000000000000000000000000300000000000000000000000000000000000000000000000000000000000927c0",
        "nonce": "0xa3",
        "chainId": "0xa4ec"
      },
      "additionalContracts": [],
      "isFixedGasLimit": false
    }
  ],
  "receipts": [
    {
      "status": "0x1",
      "cumulativeGasUsed": "0x1ca3a7",
      "logs": [
        {
          "address": "0x48065fbbe25f71c9282ddf5e1cd6d6a887483d5e",
          "topics": [
            "0x8c5be1e5ebec7d5bd14f71427d1e84f3dd0314c0f7b2291e5b200ac8c7c3b925",
            "0x0000000000000000000000003a4db9e7306af09012ceb0f222d581fd1f0c6d71",
            "0x000000000000000000000000c74c4119e25c2c6995868f48205da9a9d4f2b717"
          ],
          "data": "0x000000000000000000000000000000000000000000000000000000000007a120",
          "blockHash": "0xe0eaeb93305ce511bb637e83beb4cea59c7320e68fb80bcb0da21c1b4b018e0b",
          "blockNumber": "0x2039de1",
          "transactionHash": "0xd853efec048f41c14707410ab9df3de015762e9aff51e669f4b0cbdcd1325a3c",
          "transactionIndex": "0xd",
          "logIndex": "0x2a",
          "removed": false
        }
      ],
      "logsBloom": "0x00000000000000000000000000000000000000000000002000000000000000000000000000000000000000000000000000000000000000000000000000200000000000000000000000000000000000000000000000000000000000000000000000000000000000000100000000000000000000000000000040000000000000000000010000000000000000000000400000000000000000000000000000000000020000000000000000000000000000000000000000000000000000000000000000000000000080000000008000000000000000000000001000000000000000000010000000000000000000000000000000000000000008000000000000000000",
      "type": "0x0",
      "transactionHash": "0xd853efec048f41c14707410ab9df3de015762e9aff51e669f4b0cbdcd1325a3c",
      "transactionIndex": "0xd",
      "blockHash": "0xe0eaeb93305ce511bb637e83beb4cea59c7320e68fb80bcb0da21c1b4b018e0b",
      "blockNumber": "0x2039de1",
      "gasUsed": "0xd097",
      "effectiveGasPrice": "0x5d22cfc40",
      "from": "0x3a4db9e7306af09012ceb0f222d581fd1f0c6d71",
      "to": "0x48065fbbe25f71c9282ddf5e1cd6d6a887483d5e",
      "contractAddress": null,
      "l1BaseFeeScalar": "0x0",
      "l1BlobBaseFee": "0x348a02f",
      "l1BlobBaseFeeScalar": "0x0",
      "l1Fee": "0x0",
      "l1GasPrice": "0x17c1eb2f",
      "l1GasUsed": "0x640"
    },
    {
      "status": "0x1",
      "cumulativeGasUsed": "0x27131d",
      "logs": [
        {
          "address": "0x48065fbbe25f71c9282ddf5e1cd6d6a887483d5e",
          "topics": [
            "0xddf252ad1be2c89b69c2b068fc378daa952ba7f163c4a11628f55a4df523b3ef",
            "0x0000000000000000000000003a4db9e7306af09012ceb0f222d581fd1f0c6d71",
            "0x000000000000000000000000c74c4119e25c2c6995868f48205da9a9d4f2b717"
          ],
          "data": "0x000000000000000000000000000000000000000000000000000000000007a120",
          "blockHash": "0xe0eaeb93305ce511bb637e83beb4cea59c7320e68fb80bcb0da21c1b4b018e0b",
          "blockNumber": "0x2039de1",
          "transactionHash": "0xef4e5da1c6f198cdc1b079a5cd23689ca7d20ddd876b1c7de29ab5e9221f7960",
          "transactionIndex": "0xf",
          "logIndex": "0x2c",
          "removed": false
        },
        {
          "address": "0x48065fbbe25f71c9282ddf5e1cd6d6a887483d5e",
          "topics": [
            "0x8c5be1e5ebec7d5bd14f71427d1e84f3dd0314c0f7b2291e5b200ac8c7c3b925",
            "0x0000000000000000000000003a4db9e7306af09012ceb0f222d581fd1f0c6d71",
            "0x000000000000000000000000c74c4119e25c2c6995868f48205da9a9d4f2b717"
          ],
          "data": "0x0000000000000000000000000000000000000000000000000000000000000000",
          "blockHash": "0xe0eaeb93305ce511bb637e83beb4cea59c7320e68fb80bcb0da21c1b4b018e0b",
          "blockNumber": "0x2039de1",
          "transactionHash": "0xef4e5da1c6f198cdc1b079a5cd23689ca7d20ddd876b1c7de29ab5e9221f7960",
          "transactionIndex": "0xf",
          "logIndex": "0x2d",
          "removed": false
        },
        {
          "address": "0x48065fbbe25f71c9282ddf5e1cd6d6a887483d5e",
          "topics": [
            "0x8c5be1e5ebec7d5bd14f71427d1e84f3dd0314c0f7b2291e5b200ac8c7c3b925",
            "0x000000000000000000000000c74c4119e25c2c6995868f48205da9a9d4f2b717",
            "0x0000000000000000000000003e59a31363e2ad014dcbc521c4a0d5757d9f3402"
          ],
          "data": "0x000000000000000000000000000000000000000000000000000000000007a120",
          "blockHash": "0xe0eaeb93305ce511bb637e83beb4cea59c7320e68fb80bcb0da21c1b4b018e0b",
          "blockNumber": "0x2039de1",
          "transactionHash": "0xef4e5da1c6f198cdc1b079a5cd23689ca7d20ddd876b1c7de29ab5e9221f7960",
          "transactionIndex": "0xf",
          "logIndex": "0x2e",
          "removed": false
        },
        {
          "address": "0x3e59a31363e2ad014dcbc521c4a0d5757d9f3402",
          "topics": [
            "0x804c9b842b2748a22bb64b345453a3de7ca54a6ca45ce00d415894979e22897a",
            "0x00000000000000000000000048065fbbe25f71c9282ddf5e1cd6d6a887483d5e"
          ],
          "data": "0x00000000000000000000000000000000000000000000000b15eb4417af2312cc0000000000000000000000000000000000000000000000000000000000000000000000000000000000000000000000000000000000001c2689a90d677c142b610000000000000000000000000000000000000000033b5f8e2085232064fd11380000000000000000000000000000000000000000033bcca1d15b832fd81a7af2",
          "blockHash": "0xe0eaeb93305ce511bb637e83beb4cea59c7320e68fb80bcb0da21c1b4b018e0b",
          "blockNumber": "0x2039de1",
          "transactionHash": "0xef4e5da1c6f198cdc1b079a5cd23689ca7d20ddd876b1c7de29ab5e9221f7960",
          "transactionIndex": "0xf",
          "logIndex": "0x2f",
          "removed": false
        },
        {
          "address": "0x48065fbbe25f71c9282ddf5e1cd6d6a887483d5e",
          "topics": [
            "0xddf252ad1be2c89b69c2b068fc378daa952ba7f163c4a11628f55a4df523b3ef",
            "0x000000000000000000000000c74c4119e25c2c6995868f48205da9a9d4f2b717",
            "0x000000000000000000000000dee98402a302e4d707fb9bf2bac66faeec31e8df"
          ],
          "data": "0x000000000000000000000000000000000000000000000000000000000007a120",
          "blockHash": "0xe0eaeb93305ce511bb637e83beb4cea59c7320e68fb80bcb0da21c1b4b018e0b",
          "blockNumber": "0x2039de1",
          "transactionHash": "0xef4e5da1c6f198cdc1b079a5cd23689ca7d20ddd876b1c7de29ab5e9221f7960",
          "transactionIndex": "0xf",
          "logIndex": "0x30",
          "removed": false
        },
        {
          "address": "0x48065fbbe25f71c9282ddf5e1cd6d6a887483d5e",
          "topics": [
            "0x8c5be1e5ebec7d5bd14f71427d1e84f3dd0314c0f7b2291e5b200ac8c7c3b925",
            "0x000000000000000000000000c74c4119e25c2c6995868f48205da9a9d4f2b717",
            "0x0000000000000000000000003e59a31363e2ad014dcbc521c4a0d5757d9f3402"
          ],
          "data": "0x0000000000000000000000000000000000000000000000000000000000000000",
          "blockHash": "0xe0eaeb93305ce511bb637e83beb4cea59c7320e68fb80bcb0da21c1b4b018e0b",
          "blockNumber": "0x2039de1",
          "transactionHash": "0xef4e5da1c6f198cdc1b079a5cd23689ca7d20ddd876b1c7de29ab5e9221f7960",
          "transactionIndex": "0xf",
          "logIndex": "0x31",
          "removed": false
        },
        {
          "address": "0xdee98402a302e4d707fb9bf2bac66faeec31e8df",
          "topics": [
            "0xddf252ad1be2c89b69c2b068fc378daa952ba7f163c4a11628f55a4df523b3ef",
            "0x0000000000000000000000000000000000000000000000000000000000000000",
            "0x000000000000000000000000c74c4119e25c2c6995868f48205da9a9d4f2b717"
          ],
          "data": "0x000000000000000000000000000000000000000000000000000000000007a120",
          "blockHash": "0xe0eaeb93305ce511bb637e83beb4cea59c7320e68fb80bcb0da21c1b4b018e0b",
          "blockNumber": "0x2039de1",
          "transactionHash": "0xef4e5da1c6f198cdc1b079a5cd23689ca7d20ddd876b1c7de29ab5e9221f7960",
          "transactionIndex": "0xf",
          "logIndex": "0x32",
          "removed": false
        },
        {
          "address": "0xdee98402a302e4d707fb9bf2bac66faeec31e8df",
          "topics": [
            "0x458f5fa412d0f69b08dd84872b0215675cc67bc1d5b6fd93300a1c3878b86196",
            "0x000000000000000000000000c74c4119e25c2c6995868f48205da9a9d4f2b717",
            "0x000000000000000000000000c74c4119e25c2c6995868f48205da9a9d4f2b717"
          ],
          "data": "0x000000000000000000000000000000000000000000000000000000000007a12000000000000000000000000000000000000000000000000000000000000000000000000000000000000000000000000000000000033b5f8e2085232064fd1138",
          "blockHash": "0xe0eaeb93305ce511bb637e83beb4cea59c7320e68fb80bcb0da21c1b4b018e0b",
          "blockNumber": "0x2039de1",
          "transactionHash": "0xef4e5da1c6f198cdc1b079a5cd23689ca7d20ddd876b1c7de29ab5e9221f7960",
          "transactionIndex": "0xf",
          "logIndex": "0x33",
          "removed": false
        },
        {
          "address": "0x3e59a31363e2ad014dcbc521c4a0d5757d9f3402",
          "topics": [
            "0x2b627736bca15cd5381dcf80b0bf11fd197d01a037c52b927a881a10fb73ba61",
            "0x00000000000000000000000048065fbbe25f71c9282ddf5e1cd6d6a887483d5e",
            "0x000000000000000000000000c74c4119e25c2c6995868f48205da9a9d4f2b717",
            "0x0000000000000000000000000000000000000000000000000000000000000000"
          ],
          "data": "0x000000000000000000000000c74c4119e25c2c6995868f48205da9a9d4f2b717000000000000000000000000000000000000000000000000000000000007a120",
          "blockHash": "0xe0eaeb93305ce511bb637e83beb4cea59c7320e68fb80bcb0da21c1b4b018e0b",
          "blockNumber": "0x2039de1",
          "transactionHash": "0xef4e5da1c6f198cdc1b079a5cd23689ca7d20ddd876b1c7de29ab5e9221f7960",
          "transactionIndex": "0xf",
          "logIndex": "0x34",
          "removed": false
        },
        {
          "address": "0xdbe517c0fa6467873b684eccbed77217e471e862",
          "topics": [
            "0xddf252ad1be2c89b69c2b068fc378daa952ba7f163c4a11628f55a4df523b3ef",
            "0x0000000000000000000000000000000000000000000000000000000000000000",
            "0x000000000000000000000000c74c4119e25c2c6995868f48205da9a9d4f2b717"
          ],
          "data": "0x000000000000000000000000000000000000000000000000000000000003d090",
          "blockHash": "0xe0eaeb93305ce511bb637e83beb4cea59c7320e68fb80bcb0da21c1b4b018e0b",
          "blockNumber": "0x2039de1",
          "transactionHash": "0xef4e5da1c6f198cdc1b079a5cd23689ca7d20ddd876b1c7de29ab5e9221f7960",
          "transactionIndex": "0xf",
          "logIndex": "0x35",
          "removed": false
        },
        {
          "address": "0xdbe517c0fa6467873b684eccbed77217e471e862",
          "topics": [
            "0x458f5fa412d0f69b08dd84872b0215675cc67bc1d5b6fd93300a1c3878b86196",
            "0x000000000000000000000000c74c4119e25c2c6995868f48205da9a9d4f2b717",
            "0x000000000000000000000000c74c4119e25c2c6995868f48205da9a9d4f2b717"
          ],
          "data": "0x000000000000000000000000000000000000000000000000000000000003d09000000000000000000000000000000000000000000000000000000000000000000000000000000000000000000000000000000000033c4fc37d578564e2e4cc01",
          "blockHash": "0xe0eaeb93305ce511bb637e83beb4cea59c7320e68fb80bcb0da21c1b4b018e0b",
          "blockNumber": "0x2039de1",
          "transactionHash": "0xef4e5da1c6f198cdc1b079a5cd23689ca7d20ddd876b1c7de29ab5e9221f7960",
          "transactionIndex": "0xf",
          "logIndex": "0x36",
          "removed": false
        },
        {
          "address": "0x3e59a31363e2ad014dcbc521c4a0d5757d9f3402",
          "topics": [
            "0x804c9b842b2748a22bb64b345453a3de7ca54a6ca45ce00d415894979e22897a",
            "0x000000000000000000000000ceba9300f2b948710d2653dd7b07f33a8b32118c"
          ],
          "data": "0x00000000000000000000000000000000000000000000d50cd4bce220bd4b2619000000000000000000000000000000000000000000000000000000000000000000000000000000000000000000000000000000000007b68c212244a062cefdd90000000000000000000000000000000000000000033b68ce3a9d90c59539076b0000000000000000000000000000000000000000033c4fc37d578564e2e4cc01",
          "blockHash": "0xe0eaeb93305ce511bb637e83beb4cea59c7320e68fb80bcb0da21c1b4b018e0b",
          "blockNumber": "0x2039de1",
          "transactionHash": "0xef4e5da1c6f198cdc1b079a5cd23689ca7d20ddd876b1c7de29ab5e9221f7960",
          "transactionIndex": "0xf",
          "logIndex": "0x37",
          "removed": false
        },
        {
          "address": "0xceba9300f2b948710d2653dd7b07f33a8b32118c",
          "topics": [
            "0xddf252ad1be2c89b69c2b068fc378daa952ba7f163c4a11628f55a4df523b3ef",
            "0x000000000000000000000000ff8309b9e99bfd2d4021bc71a362abd93dbd4785",
            "0x000000000000000000000000c74c4119e25c2c6995868f48205da9a9d4f2b717"
          ],
          "data": "0x000000000000000000000000000000000000000000000000000000000003d090",
          "blockHash": "0xe0eaeb93305ce511bb637e83beb4cea59c7320e68fb80bcb0da21c1b4b018e0b",
          "blockNumber": "0x2039de1",
          "transactionHash": "0xef4e5da1c6f198cdc1b079a5cd23689ca7d20ddd876b1c7de29ab5e9221f7960",
          "transactionIndex": "0xf",
          "logIndex": "0x38",
          "removed": false
        },
        {
          "address": "0x3e59a31363e2ad014dcbc521c4a0d5757d9f3402",
          "topics": [
            "0xb3d084820fb1a9decffb176436bd02558d15fac9b0ddfed8c465bc7359d7dce0",
            "0x000000000000000000000000ceba9300f2b948710d2653dd7b07f33a8b32118c",
            "0x000000000000000000000000c74c4119e25c2c6995868f48205da9a9d4f2b717",
            "0x0000000000000000000000000000000000000000000000000000000000000000"
          ],
          "data": "0x000000000000000000000000c74c4119e25c2c6995868f48205da9a9d4f2b717000000000000000000000000000000000000000000000000000000000003d090000000000000000000000000000000000000000000000000000000000000000200000000000000000000000000000000000000000007b68c212244a062cefdd9",
          "blockHash": "0xe0eaeb93305ce511bb637e83beb4cea59c7320e68fb80bcb0da21c1b4b018e0b",
          "blockNumber": "0x2039de1",
          "transactionHash": "0xef4e5da1c6f198cdc1b079a5cd23689ca7d20ddd876b1c7de29ab5e9221f7960",
          "transactionIndex": "0xf",
          "logIndex": "0x39",
          "removed": false
        },
        {
          "address": "0xceba9300f2b948710d2653dd7b07f33a8b32118c",
          "topics": [
            "0xddf252ad1be2c89b69c2b068fc378daa952ba7f163c4a11628f55a4df523b3ef",
            "0x000000000000000000000000c74c4119e25c2c6995868f48205da9a9d4f2b717",
            "0x0000000000000000000000003a4db9e7306af09012ceb0f222d581fd1f0c6d71"
          ],
          "data": "0x000000000000000000000000000000000000000000000000000000000003d090",
          "blockHash": "0xe0eaeb93305ce511bb637e83beb4cea59c7320e68fb80bcb0da21c1b4b018e0b",
          "blockNumber": "0x2039de1",
          "transactionHash": "0xef4e5da1c6f198cdc1b079a5cd23689ca7d20ddd876b1c7de29ab5e9221f7960",
          "transactionIndex": "0xf",
          "logIndex": "0x3a",
          "removed": false
        },
        {
          "address": "0xc74c4119e25c2c6995868f48205da9a9d4f2b717",
          "topics": [
            "0x9f9b498443531d2db9df8a00ec466efc74ba50ec1d82f7badd3424b87930e19a",
            "0x0000000000000000000000000000000000000000000000000000000000000003",
            "0x0000000000000000000000003a4db9e7306af09012ceb0f222d581fd1f0c6d71"
          ],
          "data": "0x00000000000000000000000048065fbbe25f71c9282ddf5e1cd6d6a887483d5e000000000000000000000000000000000000000000000000000000000007a120000000000000000000000000ceba9300f2b948710d2653dd7b07f33a8b32118c000000000000000000000000000000000000000000000000000000000003d0900000000000000000000000000000000000000000000000000000000000000002",
          "blockHash": "0xe0eaeb93305ce511bb637e83beb4cea59c7320e68fb80bcb0da21c1b4b018e0b",
          "blockNumber": "0x2039de1",
          "transactionHash": "0xef4e5da1c6f198cdc1b079a5cd23689ca7d20ddd876b1c7de29ab5e9221f7960",
          "transactionIndex": "0xf",
          "logIndex": "0x3b",
          "removed": false
        }
      ],
      "logsBloom": "0x000000000000000102001200004000000010000000000020000000000000000000000008000000000000200000044000001000008200000000000000002000000000000080000008000000080000000000000000000000000000000c000000800000000002000000010000000000080000000002000000004000001000000000000001000000000080000000000040000000000000000000220000000000000002000110000100000000004000000000100000000080000040000000000041000200000200008120000002a040000040000000000000041000020000000120000010000000004010000800000001000040000000000008000000400000000000",
      "type": "0x0",
      "transactionHash": "0xef4e5da1c6f198cdc1b079a5cd23689ca7d20ddd876b1c7de29ab5e9221f7960",
      "transactionIndex": "0xf",
      "blockHash": "0xe0eaeb93305ce511bb637e83beb4cea59c7320e68fb80bcb0da21c1b4b018e0b",
      "blockNumber": "0x2039de1",
      "gasUsed": "0x9c3e3",
      "effectiveGasPrice": "0x5d22cfc40",
      "from": "0x3a4db9e7306af09012ceb0f222d581fd1f0c6d71",
      "to": "0xc74c4119e25c2c6995868f48205da9a9d4f2b717",
      "contractAddress": null,
      "l1BaseFeeScalar": "0x0",
      "l1BlobBaseFee": "0x348a02f",
      "l1BlobBaseFeeScalar": "0x0",
      "l1Fee": "0x0",
      "l1GasPrice": "0x17c1eb2f",
      "l1GasUsed": "0x77b"
    },
    {
      "status": "0x1",
      "cumulativeGasUsed": "0x20e73e",
      "logs": [
        {
          "address": "0x48065fbbe25f71c9282ddf5e1cd6d6a887483d5e",
          "topics": [
            "0x8c5be1e5ebec7d5bd14f71427d1e84f3dd0314c0f7b2291e5b200ac8c7c3b925",
            "0x0000000000000000000000003a4db9e7306af09012ceb0f222d581fd1f0c6d71",
            "0x000000000000000000000000c74c4119e25c2c6995868f48205da9a9d4f2b717"
          ],
          "data": "0x000000000000000000000000000000000000000000000000000000000003d090",
          "blockHash": "0xc4750f855c537f6ad4890aed65b70ece5c924143f9316e17fa38202070556257",
          "blockNumber": "0x2039de2",
          "transactionHash": "0x713ad555c8147533f0f22e3267b6d9f51201c0ed790b07ba09de7d65141daf92",
          "transactionIndex": "0x12",
          "logIndex": "0x29",
          "removed": false
        }
      ],
      "logsBloom": "0x00000000000000000000000000000000000000000000002000000000000000000000000000000000000000000000000000000000000000000000000000200000000000000000000000000000000000000000000000000000000000000000000000000000000000000100000000000000000000000000000040000000000000000000010000000000000000000000400000000000000000000000000000000000020000000000000000000000000000000000000000000000000000000000000000000000000080000000008000000000000000000000001000000000000000000010000000000000000000000000000000000000000008000000000000000000",
      "type": "0x0",
      "transactionHash": "0x713ad555c8147533f0f22e3267b6d9f51201c0ed790b07ba09de7d65141daf92",
      "transactionIndex": "0x12",
      "blockHash": "0xc4750f855c537f6ad4890aed65b70ece5c924143f9316e17fa38202070556257",
      "blockNumber": "0x2039de2",
      "gasUsed": "0xd097",
      "effectiveGasPrice": "0x5d22cfc40",
      "from": "0x3a4db9e7306af09012ceb0f222d581fd1f0c6d71",
      "to": "0x48065fbbe25f71c9282ddf5e1cd6d6a887483d5e",
      "contractAddress": null,
      "l1BaseFeeScalar": "0x0",
      "l1BlobBaseFee": "0x348a02f",
      "l1BlobBaseFeeScalar": "0x0",
      "l1Fee": "0x0",
      "l1GasPrice": "0x17c1eb2f",
      "l1GasUsed": "0x640"
    },
    {
      "status": "0x1",
      "cumulativeGasUsed": "0x246a5c",
      "logs": [
        {
          "address": "0x48065fbbe25f71c9282ddf5e1cd6d6a887483d5e",
          "topics": [
            "0xddf252ad1be2c89b69c2b068fc378daa952ba7f163c4a11628f55a4df523b3ef",
            "0x0000000000000000000000003a4db9e7306af09012ceb0f222d581fd1f0c6d71",
            "0x000000000000000000000000c74c4119e25c2c6995868f48205da9a9d4f2b717"
          ],
          "data": "0x000000000000000000000000000000000000000000000000000000000003d090",
          "blockHash": "0xc4750f855c537f6ad4890aed65b70ece5c924143f9316e17fa38202070556257",
          "blockNumber": "0x2039de2",
          "transactionHash": "0xa2865365f52fbf434f2117cc1498042e2945a3bad34b08f2d10df228955fa6c1",
          "transactionIndex": "0x13",
          "logIndex": "0x2a",
          "removed": false
        },
        {
          "address": "0x48065fbbe25f71c9282ddf5e1cd6d6a887483d5e",
          "topics": [
            "0x8c5be1e5ebec7d5bd14f71427d1e84f3dd0314c0f7b2291e5b200ac8c7c3b925",
            "0x0000000000000000000000003a4db9e7306af09012ceb0f222d581fd1f0c6d71",
            "0x000000000000000000000000c74c4119e25c2c6995868f48205da9a9d4f2b717"
          ],
          "data": "0x0000000000000000000000000000000000000000000000000000000000000000",
          "blockHash": "0xc4750f855c537f6ad4890aed65b70ece5c924143f9316e17fa38202070556257",
          "blockNumber": "0x2039de2",
          "transactionHash": "0xa2865365f52fbf434f2117cc1498042e2945a3bad34b08f2d10df228955fa6c1",
          "transactionIndex": "0x13",
          "logIndex": "0x2b",
          "removed": false
        },
        {
          "address": "0x48065fbbe25f71c9282ddf5e1cd6d6a887483d5e",
          "topics": [
            "0x8c5be1e5ebec7d5bd14f71427d1e84f3dd0314c0f7b2291e5b200ac8c7c3b925",
            "0x000000000000000000000000c74c4119e25c2c6995868f48205da9a9d4f2b717",
            "0x0000000000000000000000003e59a31363e2ad014dcbc521c4a0d5757d9f3402"
          ],
          "data": "0x000000000000000000000000000000000000000000000000000000000003d090",
          "blockHash": "0xc4750f855c537f6ad4890aed65b70ece5c924143f9316e17fa38202070556257",
          "blockNumber": "0x2039de2",
          "transactionHash": "0xa2865365f52fbf434f2117cc1498042e2945a3bad34b08f2d10df228955fa6c1",
          "transactionIndex": "0x13",
          "logIndex": "0x2c",
          "removed": false
        },
        {
          "address": "0x3e59a31363e2ad014dcbc521c4a0d5757d9f3402",
          "topics": [
            "0x804c9b842b2748a22bb64b345453a3de7ca54a6ca45ce00d415894979e22897a",
            "0x00000000000000000000000048065fbbe25f71c9282ddf5e1cd6d6a887483d5e"
          ],
          "data": "0x00000000000000000000000000000000000000000000000b15eb2488d6f685e80000000000000000000000000000000000000000000000000000000000000000000000000000000000000000000000000000000000001c268980fbccd0fba20e0000000000000000000000000000000000000000033b5f8e20852906865847c20000000000000000000000000000000000000000033bcca1d16a7ff285418fe4",
          "blockHash": "0xc4750f855c537f6ad4890aed65b70ece5c924143f9316e17fa38202070556257",
          "blockNumber": "0x2039de2",
          "transactionHash": "0xa2865365f52fbf434f2117cc1498042e2945a3bad34b08f2d10df228955fa6c1",
          "transactionIndex": "0x13",
          "logIndex": "0x2d",
          "removed": false
        },
        {
          "address": "0x48065fbbe25f71c9282ddf5e1cd6d6a887483d5e",
          "topics": [
            "0xddf252ad1be2c89b69c2b068fc378daa952ba7f163c4a11628f55a4df523b3ef",
            "0x000000000000000000000000c74c4119e25c2c6995868f48205da9a9d4f2b717",
            "0x000000000000000000000000dee98402a302e4d707fb9bf2bac66faeec31e8df"
          ],
          "data": "0x000000000000000000000000000000000000000000000000000000000003d090",
          "blockHash": "0xc4750f855c537f6ad4890aed65b70ece5c924143f9316e17fa38202070556257",
          "blockNumber": "0x2039de2",
          "transactionHash": "0xa2865365f52fbf434f2117cc1498042e2945a3bad34b08f2d10df228955fa6c1",
          "transactionIndex": "0x13",
          "logIndex": "0x2e",
          "removed": false
        },
        {
          "address": "0x48065fbbe25f71c9282ddf5e1cd6d6a887483d5e",
          "topics": [
            "0x8c5be1e5ebec7d5bd14f71427d1e84f3dd0314c0f7b2291e5b200ac8c7c3b925",
            "0x000000000000000000000000c74c4119e25c2c6995868f48205da9a9d4f2b717",
            "0x0000000000000000000000003e59a31363e2ad014dcbc521c4a0d5757d9f3402"
          ],
          "data": "0x0000000000000000000000000000000000000000000000000000000000000000",
          "blockHash": "0xc4750f855c537f6ad4890aed65b70ece5c924143f9316e17fa38202070556257",
          "blockNumber": "0x2039de2",
          "transactionHash": "0xa2865365f52fbf434f2117cc1498042e2945a3bad34b08f2d10df228955fa6c1",
          "transactionIndex": "0x13",
          "logIndex": "0x2f",
          "removed": false
        },
        {
          "address": "0xdee98402a302e4d707fb9bf2bac66faeec31e8df",
          "topics": [
            "0xddf252ad1be2c89b69c2b068fc378daa952ba7f163c4a11628f55a4df523b3ef",
            "0x0000000000000000000000000000000000000000000000000000000000000000",
            "0x000000000000000000000000c74c4119e25c2c6995868f48205da9a9d4f2b717"
          ],
          "data": "0x000000000000000000000000000000000000000000000000000000000003d090",
          "blockHash": "0xc4750f855c537f6ad4890aed65b70ece5c924143f9316e17fa38202070556257",
          "blockNumber": "0x2039de2",
          "transactionHash": "0xa2865365f52fbf434f2117cc1498042e2945a3bad34b08f2d10df228955fa6c1",
          "transactionIndex": "0x13",
          "logIndex": "0x30",
          "removed": false
        },
        {
          "address": "0xdee98402a302e4d707fb9bf2bac66faeec31e8df",
          "topics": [
            "0x458f5fa412d0f69b08dd84872b0215675cc67bc1d5b6fd93300a1c3878b86196",
            "0x000000000000000000000000c74c4119e25c2c6995868f48205da9a9d4f2b717",
            "0x000000000000000000000000c74c4119e25c2c6995868f48205da9a9d4f2b717"
          ],
          "data": "0x000000000000000000000000000000000000000000000000000000000003d09000000000000000000000000000000000000000000000000000000000000000000000000000000000000000000000000000000000033b5f8e20852906865847c2",
          "blockHash": "0xc4750f855c537f6ad4890aed65b70ece5c924143f9316e17fa38202070556257",
          "blockNumber": "0x2039de2",
          "transactionHash": "0xa2865365f52fbf434f2117cc1498042e2945a3bad34b08f2d10df228955fa6c1",
          "transactionIndex": "0x13",
          "logIndex": "0x31",
          "removed": false
        },
        {
          "address": "0x3e59a31363e2ad014dcbc521c4a0d5757d9f3402",
          "topics": [
            "0x2b627736bca15cd5381dcf80b0bf11fd197d01a037c52b927a881a10fb73ba61",
            "0x00000000000000000000000048065fbbe25f71c9282ddf5e1cd6d6a887483d5e",
            "0x000000000000000000000000c74c4119e25c2c6995868f48205da9a9d4f2b717",
            "0x0000000000000000000000000000000000000000000000000000000000000000"
          ],
          "data": "0x000000000000000000000000c74c4119e25c2c6995868f48205da9a9d4f2b717000000000000000000000000000000000000000000000000000000000003d090",
          "blockHash": "0xc4750f855c537f6ad4890aed65b70ece5c924143f9316e17fa38202070556257",
          "blockNumber": "0x2039de2",
          "transactionHash": "0xa2865365f52fbf434f2117cc1498042e2945a3bad34b08f2d10df228955fa6c1",
          "transactionIndex": "0x13",
          "logIndex": "0x32",
          "removed": false
        },
        {
          "address": "0xc74c4119e25c2c6995868f48205da9a9d4f2b717",
          "topics": [
            "0x244160b15e69cc411f041d94ae7fab6f6bba85dade8403216c05ff4b920d5449",
            "0x0000000000000000000000000000000000000000000000000000000000000003"
          ],
          "data": "0x000000000000000000000000000000000000000000000000000000000003d090",
          "blockHash": "0xc4750f855c537f6ad4890aed65b70ece5c924143f9316e17fa38202070556257",
          "blockNumber": "0x2039de2",
          "transactionHash": "0xa2865365f52fbf434f2117cc1498042e2945a3bad34b08f2d10df228955fa6c1",
          "transactionIndex": "0x13",
          "logIndex": "0x33",
          "removed": false
        }
      ],
      "logsBloom": "0x000000000000000102000200000000000010000000000020000000000000000000000008000000000000000000040000000000008202000000000000002000000000000000000008000000080000000000000000000000000000000c000000800000000002000000010000000000080000000000000000004000001000000000000001000000000080000000000040000000000000000000020000000000000002000010000100000000004000000000100000000080000040000000000041000200000200008000000000a040000050000000000000001000000000000120000010000000000080000000000000000040000000000008000000400000000000",
      "type": "0x0",
      "transactionHash": "0xa2865365f52fbf434f2117cc1498042e2945a3bad34b08f2d10df228955fa6c1",
      "transactionIndex": "0x13",
      "blockHash": "0xc4750f855c537f6ad4890aed65b70ece5c924143f9316e17fa38202070556257",
      "blockNumber": "0x2039de2",
      "gasUsed": "0x3831e",
      "effectiveGasPrice": "0x5d22cfc40",
      "from": "0x3a4db9e7306af09012ceb0f222d581fd1f0c6d71",
      "to": "0xc74c4119e25c2c6995868f48205da9a9d4f2b717",
      "contractAddress": null,
      "l1BaseFeeScalar": "0x0",
      "l1BlobBaseFee": "0x348a02f",
      "l1BlobBaseFeeScalar": "0x0",
      "l1Fee": "0x0",
      "l1GasPrice": "0x17c1eb2f",
      "l1GasUsed": "0x640"
    },
    {
      "status": "0x1",
      "cumulativeGasUsed": "0x2a06e5",
      "logs": [
        {
          "address": "0xdbe517c0fa6467873b684eccbed77217e471e862",
          "topics": [
            "0xddf252ad1be2c89b69c2b068fc378daa952ba7f163c4a11628f55a4df523b3ef",
            "0x0000000000000000000000000000000000000000000000000000000000000000",
            "0x000000000000000000000000c74c4119e25c2c6995868f48205da9a9d4f2b717"
          ],
          "data": "0x000000000000000000000000000000000000000000000000000000000001e848",
          "blockHash": "0xc4750f855c537f6ad4890aed65b70ece5c924143f9316e17fa38202070556257",
          "blockNumber": "0x2039de2",
          "transactionHash": "0x0a46e02caf6c040153662af5e66d87e824031494f751bff95e5e5718fb9da13b",
          "transactionIndex": "0x14",
          "logIndex": "0x34",
          "removed": false
        },
        {
          "address": "0xdbe517c0fa6467873b684eccbed77217e471e862",
          "topics": [
            "0x458f5fa412d0f69b08dd84872b0215675cc67bc1d5b6fd93300a1c3878b86196",
            "0x000000000000000000000000c74c4119e25c2c6995868f48205da9a9d4f2b717",
            "0x000000000000000000000000c74c4119e25c2c6995868f48205da9a9d4f2b717"
          ],
          "data": "0x000000000000000000000000000000000000000000000000000000000001e84800000000000000000000000000000000000000000000000000000000000000000000000000000000000000000000000000000000033c4fc381736ba7fbd6f5bb",
          "blockHash": "0xc4750f855c537f6ad4890aed65b70ece5c924143f9316e17fa38202070556257",
          "blockNumber": "0x2039de2",
          "transactionHash": "0x0a46e02caf6c040153662af5e66d87e824031494f751bff95e5e5718fb9da13b",
          "transactionIndex": "0x14",
          "logIndex": "0x35",
          "removed": false
        },
        {
          "address": "0x3e59a31363e2ad014dcbc521c4a0d5757d9f3402",
          "topics": [
            "0x804c9b842b2748a22bb64b345453a3de7ca54a6ca45ce00d415894979e22897a",
            "0x000000000000000000000000ceba9300f2b948710d2653dd7b07f33a8b32118c"
          ],
          "data": "0x00000000000000000000000000000000000000000000d50cf78a74694499b42a000000000000000000000000000000000000000000000000000000000000000000000000000000000000000000000000000000000007b68cc2692c23e3df9c200000000000000000000000000000000000000000033b68ce3b0ef0a13ff52f020000000000000000000000000000000000000000033c4fc381736ba7fbd6f5bb",
          "blockHash": "0xc4750f855c537f6ad4890aed65b70ece5c924143f9316e17fa38202070556257",
          "blockNumber": "0x2039de2",
          "transactionHash": "0x0a46e02caf6c040153662af5e66d87e824031494f751bff95e5e5718fb9da13b",
          "transactionIndex": "0x14",
          "logIndex": "0x36",
          "removed": false
        },
        {
          "address": "0xceba9300f2b948710d2653dd7b07f33a8b32118c",
          "topics": [
            "0xddf252ad1be2c89b69c2b068fc378daa952ba7f163c4a11628f55a4df523b3ef",
            "0x000000000000000000000000ff8309b9e99bfd2d4021bc71a362abd93dbd4785",
            "0x000000000000000000000000c74c4119e25c2c6995868f48205da9a9d4f2b717"
          ],
          "data": "0x000000000000000000000000000000000000000000000000000000000001e848",
          "blockHash": "0xc4750f855c537f6ad4890aed65b70ece5c924143f9316e17fa38202070556257",
          "blockNumber": "0x2039de2",
          "transactionHash": "0x0a46e02caf6c040153662af5e66d87e824031494f751bff95e5e5718fb9da13b",
          "transactionIndex": "0x14",
          "logIndex": "0x37",
          "removed": false
        },
        {
          "address": "0x3e59a31363e2ad014dcbc521c4a0d5757d9f3402",
          "topics": [
            "0xb3d084820fb1a9decffb176436bd02558d15fac9b0ddfed8c465bc7359d7dce0",
            "0x000000000000000000000000ceba9300f2b948710d2653dd7b07f33a8b32118c",
            "0x000000000000000000000000c74c4119e25c2c6995868f48205da9a9d4f2b717",
            "0x0000000000000000000000000000000000000000000000000000000000000000"
          ],
          "data": "0x000000000000000000000000c74c4119e25c2c6995868f48205da9a9d4f2b717000000000000000000000000000000000000000000000000000000000001e848000000000000000000000000000000000000000000000000000000000000000200000000000000000000000000000000000000000007b68cc2692c23e3df9c20",
          "blockHash": "0xc4750f855c537f6ad4890aed65b70ece5c924143f9316e17fa38202070556257",
          "blockNumber": "0x2039de2",
          "transactionHash": "0x0a46e02caf6c040153662af5e66d87e824031494f751bff95e5e5718fb9da13b",
          "transactionIndex": "0x14",
          "logIndex": "0x38",
          "removed": false
        },
        {
          "address": "0xceba9300f2b948710d2653dd7b07f33a8b32118c",
          "topics": [
            "0xddf252ad1be2c89b69c2b068fc378daa952ba7f163c4a11628f55a4df523b3ef",
            "0x000000000000000000000000c74c4119e25c2c6995868f48205da9a9d4f2b717",
            "0x0000000000000000000000003a4db9e7306af09012ceb0f222d581fd1f0c6d71"
          ],
          "data": "0x000000000000000000000000000000000000000000000000000000000001e848",
          "blockHash": "0xc4750f855c537f6ad4890aed65b70ece5c924143f9316e17fa38202070556257",
          "blockNumber": "0x2039de2",
          "transactionHash": "0x0a46e02caf6c040153662af5e66d87e824031494f751bff95e5e5718fb9da13b",
          "transactionIndex": "0x14",
          "logIndex": "0x39",
          "removed": false
        },
        {
          "address": "0xc74c4119e25c2c6995868f48205da9a9d4f2b717",
          "topics": [
            "0xf3a2c404b3362c4238317c3dad1020c2e9e984ba8df38a4a1ff18d57e92a242a",
            "0x0000000000000000000000000000000000000000000000000000000000000003"
          ],
          "data": "0x000000000000000000000000000000000000000000000000000000000001e848",
          "blockHash": "0xc4750f855c537f6ad4890aed65b70ece5c924143f9316e17fa38202070556257",
          "blockNumber": "0x2039de2",
          "transactionHash": "0x0a46e02caf6c040153662af5e66d87e824031494f751bff95e5e5718fb9da13b",
          "transactionIndex": "0x14",
          "logIndex": "0x3a",
          "removed": false
        }
      ],
      "logsBloom": "0x000000000000000000001000004000000000000000000020000000000000000000000000000000000000000000044000001000008200000000000000000000000000000080000000000000080000000000000000000000000000000c0000008000000000020000000100000000000800000000000000000000000010000000000000000000000010800000000000400000000000000000002200000000000000000001000000000000000000000000000000000000800000400000000000410002000002000081200000022000000000000000400000041000000000000020000000000000004010000800000001000000000000000008000800000000000000",
      "type": "0x0",
      "transactionHash": "0x0a46e02caf6c040153662af5e66d87e824031494f751bff95e5e5718fb9da13b",
      "transactionIndex": "0x14",
      "blockHash": "0xc4750f855c537f6ad4890aed65b70ece5c924143f9316e17fa38202070556257",
      "blockNumber": "0x2039de2",
      "gasUsed": "0x59c89",
      "effectiveGasPrice": "0x5d22cfc40",
      "from": "0x3a4db9e7306af09012ceb0f222d581fd1f0c6d71",
      "to": "0xc74c4119e25c2c6995868f48205da9a9d4f2b717",
      "contractAddress": null,
      "l1BaseFeeScalar": "0x0",
      "l1BlobBaseFee": "0x348a02f",
      "l1BlobBaseFeeScalar": "0x0",
      "l1Fee": "0x0",
      "l1GasPrice": "0x17c1eb2f",
      "l1GasUsed": "0x640"
    },
    {
      "status": "0x1",
      "cumulativeGasUsed": "0x2adf72",
      "logs": [
        {
          "address": "0xceba9300f2b948710d2653dd7b07f33a8b32118c",
          "topics": [
            "0x8c5be1e5ebec7d5bd14f71427d1e84f3dd0314c0f7b2291e5b200ac8c7c3b925",
            "0x0000000000000000000000003a4db9e7306af09012ceb0f222d581fd1f0c6d71",
            "0x000000000000000000000000c74c4119e25c2c6995868f48205da9a9d4f2b717"
          ],
          "data": "0x000000000000000000000000000000000000000000000000000000000002dc6c",
          "blockHash": "0xc4750f855c537f6ad4890aed65b70ece5c924143f9316e17fa38202070556257",
          "blockNumber": "0x2039de2",
          "transactionHash": "0xf485ac97fe6f7845c024d1dce28640714c488ee8004fd42814b8bc69a796b820",
          "transactionIndex": "0x15",
          "logIndex": "0x3b",
          "removed": false
        }
      ],
      "logsBloom": "0x00000000000000000000100000000000000000000000002000000000000000000000000000000000000000000000000000000000000000000000000000200000000000000000000000000000000000000000000000000000000000000000000000000000000000000100000000000000000000000000000000000000000000000000000000000000000000000000400000000000000000000000000000000000020000000000000000000000000000000000000000000000000000000000000000000000000080000000020000000000000000000000001000000000000000000010000000000000000800000000000000000000000008000000000000000000",
      "type": "0x0",
      "transactionHash": "0xf485ac97fe6f7845c024d1dce28640714c488ee8004fd42814b8bc69a796b820",
      "transactionIndex": "0x15",
      "blockHash": "0xc4750f855c537f6ad4890aed65b70ece5c924143f9316e17fa38202070556257",
      "blockNumber": "0x2039de2",
      "gasUsed": "0xd88d",
      "effectiveGasPrice": "0x5d22cfc40",
      "from": "0x3a4db9e7306af09012ceb0f222d581fd1f0c6d71",
      "to": "0xceba9300f2b948710d2653dd7b07f33a8b32118c",
      "contractAddress": null,
      "l1BaseFeeScalar": "0x0",
      "l1BlobBaseFee": "0x348a02f",
      "l1BlobBaseFeeScalar": "0x0",
      "l1Fee": "0x0",
      "l1GasPrice": "0x17c1eb2f",
      "l1GasUsed": "0x640"
    },
    {
      "status": "0x1",
      "cumulativeGasUsed": "0x2e0b55",
      "logs": [
        {
          "address": "0xceba9300f2b948710d2653dd7b07f33a8b32118c",
          "topics": [
            "0xddf252ad1be2c89b69c2b068fc378daa952ba7f163c4a11628f55a4df523b3ef",
            "0x0000000000000000000000003a4db9e7306af09012ceb0f222d581fd1f0c6d71",
            "0x000000000000000000000000c74c4119e25c2c6995868f48205da9a9d4f2b717"
          ],
          "data": "0x000000000000000000000000000000000000000000000000000000000002dc6c",
          "blockHash": "0xc4750f855c537f6ad4890aed65b70ece5c924143f9316e17fa38202070556257",
          "blockNumber": "0x2039de2",
          "transactionHash": "0xc524ff76463f3c283d04319bb01928fd51ec95fef0e52d20f79cd8c02b63645f",
          "transactionIndex": "0x16",
          "logIndex": "0x3c",
          "removed": false
        },
        {
          "address": "0xceba9300f2b948710d2653dd7b07f33a8b32118c",
          "topics": [
            "0x8c5be1e5ebec7d5bd14f71427d1e84f3dd0314c0f7b2291e5b200ac8c7c3b925",
            "0x000000000000000000000000c74c4119e25c2c6995868f48205da9a9d4f2b717",
            "0x0000000000000000000000003e59a31363e2ad014dcbc521c4a0d5757d9f3402"
          ],
          "data": "0x000000000000000000000000000000000000000000000000000000000002dc6c",
          "blockHash": "0xc4750f855c537f6ad4890aed65b70ece5c924143f9316e17fa38202070556257",
          "blockNumber": "0x2039de2",
          "transactionHash": "0xc524ff76463f3c283d04319bb01928fd51ec95fef0e52d20f79cd8c02b63645f",
          "transactionIndex": "0x16",
          "logIndex": "0x3d",
          "removed": false
        },
        {
          "address": "0xdbe517c0fa6467873b684eccbed77217e471e862",
          "topics": [
            "0xddf252ad1be2c89b69c2b068fc378daa952ba7f163c4a11628f55a4df523b3ef",
            "0x000000000000000000000000c74c4119e25c2c6995868f48205da9a9d4f2b717",
            "0x0000000000000000000000000000000000000000000000000000000000000000"
          ],
          "data": "0x000000000000000000000000000000000000000000000000000000000002dc6c",
          "blockHash": "0xc4750f855c537f6ad4890aed65b70ece5c924143f9316e17fa38202070556257",
          "blockNumber": "0x2039de2",
          "transactionHash": "0xc524ff76463f3c283d04319bb01928fd51ec95fef0e52d20f79cd8c02b63645f",
          "transactionIndex": "0x16",
          "logIndex": "0x3e",
          "removed": false
        },
        {
          "address": "0xdbe517c0fa6467873b684eccbed77217e471e862",
          "topics": [
            "0x4cf25bc1d991c17529c25213d3cc0cda295eeaad5f13f361969b12ea48015f90",
            "0x000000000000000000000000c74c4119e25c2c6995868f48205da9a9d4f2b717",
            "0x0000000000000000000000000000000000000000000000000000000000000000"
          ],
          "data": "0x000000000000000000000000000000000000000000000000000000000002dc6c00000000000000000000000000000000000000000000000000000000000000000000000000000000000000000000000000000000033c4fc381736ba7fbd6f5bb",
          "blockHash": "0xc4750f855c537f6ad4890aed65b70ece5c924143f9316e17fa38202070556257",
          "blockNumber": "0x2039de2",
          "transactionHash": "0xc524ff76463f3c283d04319bb01928fd51ec95fef0e52d20f79cd8c02b63645f",
          "transactionIndex": "0x16",
          "logIndex": "0x3f",
          "removed": false
        },
        {
          "address": "0x3e59a31363e2ad014dcbc521c4a0d5757d9f3402",
          "topics": [
            "0x804c9b842b2748a22bb64b345453a3de7ca54a6ca45ce00d415894979e22897a",
            "0x000000000000000000000000ceba9300f2b948710d2653dd7b07f33a8b32118c"
          ],
          "data": "0x00000000000000000000000000000000000000000000d50cc358ec90a03d44e3000000000000000000000000000000000000000000000000000000000000000000000000000000000000000000000000000000000007b68bd08be4fe6876546f0000000000000000000000000000000000000000033b68ce3b0ef0a13ff52f020000000000000000000000000000000000000000033c4fc381736ba7fbd6f5bb",
          "blockHash": "0xc4750f855c537f6ad4890aed65b70ece5c924143f9316e17fa38202070556257",
          "blockNumber": "0x2039de2",
          "transactionHash": "0xc524ff76463f3c283d04319bb01928fd51ec95fef0e52d20f79cd8c02b63645f",
          "transactionIndex": "0x16",
          "logIndex": "0x40",
          "removed": false
        },
        {
          "address": "0xceba9300f2b948710d2653dd7b07f33a8b32118c",
          "topics": [
            "0xddf252ad1be2c89b69c2b068fc378daa952ba7f163c4a11628f55a4df523b3ef",
            "0x000000000000000000000000c74c4119e25c2c6995868f48205da9a9d4f2b717",
            "0x000000000000000000000000ff8309b9e99bfd2d4021bc71a362abd93dbd4785"
          ],
          "data": "0x000000000000000000000000000000000000000000000000000000000002dc6c",
          "blockHash": "0xc4750f855c537f6ad4890aed65b70ece5c924143f9316e17fa38202070556257",
          "blockNumber": "0x2039de2",
          "transactionHash": "0xc524ff76463f3c283d04319bb01928fd51ec95fef0e52d20f79cd8c02b63645f",
          "transactionIndex": "0x16",
          "logIndex": "0x41",
          "removed": false
        },
        {
          "address": "0x3e59a31363e2ad014dcbc521c4a0d5757d9f3402",
          "topics": [
            "0xa534c8dbe71f871f9f3530e97a74601fea17b426cae02e1c5aee42c96c784051",
            "0x000000000000000000000000ceba9300f2b948710d2653dd7b07f33a8b32118c",
            "0x000000000000000000000000c74c4119e25c2c6995868f48205da9a9d4f2b717",
            "0x000000000000000000000000c74c4119e25c2c6995868f48205da9a9d4f2b717"
          ],
          "data": "0x000000000000000000000000000000000000000000000000000000000002dc6c0000000000000000000000000000000000000000000000000000000000000000",
          "blockHash": "0xc4750f855c537f6ad4890aed65b70ece5c924143f9316e17fa38202070556257",
          "blockNumber": "0x2039de2",
          "transactionHash": "0xc524ff76463f3c283d04319bb01928fd51ec95fef0e52d20f79cd8c02b63645f",
          "transactionIndex": "0x16",
          "logIndex": "0x42",
          "removed": false
        },
        {
          "address": "0xc74c4119e25c2c6995868f48205da9a9d4f2b717",
          "topics": [
            "0x0d4979b0859a1951f8ed7cbe3b1994e740552588f27ba02ca0f8f1ddcad16e0c",
            "0x0000000000000000000000000000000000000000000000000000000000000003"
          ],
          "data": "0x000000000000000000000000000000000000000000000000000000000002dc6c",
          "blockHash": "0xc4750f855c537f6ad4890aed65b70ece5c924143f9316e17fa38202070556257",
          "blockNumber": "0x2039de2",
          "transactionHash": "0xc524ff76463f3c283d04319bb01928fd51ec95fef0e52d20f79cd8c02b63645f",
          "transactionIndex": "0x16",
          "logIndex": "0x43",
          "removed": false
        }
      ],
      "logsBloom": "0x10000000000000010000120010400000000000000000002000000000000000000000000000000000000000000000400000110000c20000000000000000200000000000008000000000000008000000000000002000000000000000080000008080000000020000000100000000000800000000000000000000000010000000000000000000000000800000000000400000000000000000002200000000000000020001100000000000000000000000000000000000800000400000000000410000000002000080200000022000000000000000000000001000000000000020040010100000004010000800000000000000000000000008000000000000040000",
      "type": "0x0",
      "transactionHash": "0xc524ff76463f3c283d04319bb01928fd51ec95fef0e52d20f79cd8c02b63645f",
      "transactionIndex": "0x16",
      "blockHash": "0xc4750f855c537f6ad4890aed65b70ece5c924143f9316e17fa38202070556257",
      "blockNumber": "0x2039de2",
      "gasUsed": "0x32be3",
      "effectiveGasPrice": "0x5d22cfc40",
      "from": "0x3a4db9e7306af09012ceb0f222d581fd1f0c6d71",
      "to": "0xc74c4119e25c2c6995868f48205da9a9d4f2b717",
      "contractAddress": null,
      "l1BaseFeeScalar": "0x0",
      "l1BlobBaseFee": "0x348a02f",
      "l1BlobBaseFeeScalar": "0x0",
      "l1Fee": "0x0",
      "l1GasPrice": "0x17c1eb2f",
      "l1GasUsed": "0x640"
    },
    {
      "status": "0x1",
      "cumulativeGasUsed": "0x331382",
      "logs": [
        {
          "address": "0x3e59a31363e2ad014dcbc521c4a0d5757d9f3402",
          "topics": [
            "0x804c9b842b2748a22bb64b345453a3de7ca54a6ca45ce00d415894979e22897a",
            "0x00000000000000000000000048065fbbe25f71c9282ddf5e1cd6d6a887483d5e"
          ],
          "data": "0x00000000000000000000000000000000000000000000000b15eb377825677b850000000000000000000000000000000000000000000000000000000000000000000000000000000000000000000000000000000000001c268999065cc38d747e0000000000000000000000000000000000000000033b5f8e20852906865847c20000000000000000000000000000000000000000033bcca1d16a7ff285418fe4",
          "blockHash": "0xc4750f855c537f6ad4890aed65b70ece5c924143f9316e17fa38202070556257",
          "blockNumber": "0x2039de2",
          "transactionHash": "0x09305676d9148ebbf48d28fdb5b0fc9f54b7f2e7d8e0e306526a04fceb322c11",
          "transactionIndex": "0x17",
          "logIndex": "0x44",
          "removed": false
        },
        {
          "address": "0xdee98402a302e4d707fb9bf2bac66faeec31e8df",
          "topics": [
            "0xddf252ad1be2c89b69c2b068fc378daa952ba7f163c4a11628f55a4df523b3ef",
            "0x000000000000000000000000c74c4119e25c2c6995868f48205da9a9d4f2b717",
            "0x0000000000000000000000000000000000000000000000000000000000000000"
          ],
          "data": "0x00000000000000000000000000000000000000000000000000000000000249f0",
          "blockHash": "0xc4750f855c537f6ad4890aed65b70ece5c924143f9316e17fa38202070556257",
          "blockNumber": "0x2039de2",
          "transactionHash": "0x09305676d9148ebbf48d28fdb5b0fc9f54b7f2e7d8e0e306526a04fceb322c11",
          "transactionIndex": "0x17",
          "logIndex": "0x45",
          "removed": false
        },
        {
          "address": "0xdee98402a302e4d707fb9bf2bac66faeec31e8df",
          "topics": [
            "0x4cf25bc1d991c17529c25213d3cc0cda295eeaad5f13f361969b12ea48015f90",
            "0x000000000000000000000000c74c4119e25c2c6995868f48205da9a9d4f2b717",
            "0x0000000000000000000000003a4db9e7306af09012ceb0f222d581fd1f0c6d71"
          ],
          "data": "0x00000000000000000000000000000000000000000000000000000000000249f000000000000000000000000000000000000000000000000000000000000000000000000000000000000000000000000000000000033b5f8e20852906865847c2",
          "blockHash": "0xc4750f855c537f6ad4890aed65b70ece5c924143f9316e17fa38202070556257",
          "blockNumber": "0x2039de2",
          "transactionHash": "0x09305676d9148ebbf48d28fdb5b0fc9f54b7f2e7d8e0e306526a04fceb322c11",
          "transactionIndex": "0x17",
          "logIndex": "0x46",
          "removed": false
        },
        {
          "address": "0x48065fbbe25f71c9282ddf5e1cd6d6a887483d5e",
          "topics": [
            "0xddf252ad1be2c89b69c2b068fc378daa952ba7f163c4a11628f55a4df523b3ef",
            "0x000000000000000000000000dee98402a302e4d707fb9bf2bac66faeec31e8df",
            "0x0000000000000000000000003a4db9e7306af09012ceb0f222d581fd1f0c6d71"
          ],
          "data": "0x00000000000000000000000000000000000000000000000000000000000249f0",
          "blockHash": "0xc4750f855c537f6ad4890aed65b70ece5c924143f9316e17fa38202070556257",
          "blockNumber": "0x2039de2",
          "transactionHash": "0x09305676d9148ebbf48d28fdb5b0fc9f54b7f2e7d8e0e306526a04fceb322c11",
          "transactionIndex": "0x17",
          "logIndex": "0x47",
          "removed": false
        },
        {
          "address": "0x3e59a31363e2ad014dcbc521c4a0d5757d9f3402",
          "topics": [
            "0x3115d1449a7b732c986cba18244e897a450f61e1bb8d589cd2e69e6c8924f9f7",
            "0x00000000000000000000000048065fbbe25f71c9282ddf5e1cd6d6a887483d5e",
            "0x000000000000000000000000c74c4119e25c2c6995868f48205da9a9d4f2b717",
            "0x0000000000000000000000003a4db9e7306af09012ceb0f222d581fd1f0c6d71"
          ],
          "data": "0x00000000000000000000000000000000000000000000000000000000000249f0",
          "blockHash": "0xc4750f855c537f6ad4890aed65b70ece5c924143f9316e17fa38202070556257",
          "blockNumber": "0x2039de2",
          "transactionHash": "0x09305676d9148ebbf48d28fdb5b0fc9f54b7f2e7d8e0e306526a04fceb322c11",
          "transactionIndex": "0x17",
          "logIndex": "0x48",
          "removed": false
        },
        {
          "address": "0xc74c4119e25c2c6995868f48205da9a9d4f2b717",
          "topics": [
            "0x2399e8aed1977410745a5211d8226a3a7d9278f50a8a197c5ec6e285bb437f0b",
            "0x0000000000000000000000000000000000000000000000000000000000000003"
          ],
          "data": "0x00000000000000000000000000000000000000000000000000000000000249f0",
          "blockHash": "0xc4750f855c537f6ad4890aed65b70ece5c924143f9316e17fa38202070556257",
          "blockNumber": "0x2039de2",
          "transactionHash": "0x09305676d9148ebbf48d28fdb5b0fc9f54b7f2e7d8e0e306526a04fceb322c11",
          "transactionIndex": "0x17",
          "logIndex": "0x49",
          "removed": false
        }
      ],
      "logsBloom": "0x1000000000000000020000000000000000900000000000200000000000000000000000080000000000000000000000000001000082000000000000000000000000000000000000080000000800000000000000000000000000000008000000800000000002000000010000000000080000000000002002004000001000000000000001000000000080000000000040000000000000006000020000000000000000000000008100000000004000000000100000000080000040000000000041000000000200008000000000a000000040000000000000001000000000000120040000000000000000000000000000000000000000000008000000000000000000",
      "type": "0x0",
      "transactionHash": "0x09305676d9148ebbf48d28fdb5b0fc9f54b7f2e7d8e0e306526a04fceb322c11",
      "transactionIndex": "0x17",
      "blockHash": "0xc4750f855c537f6ad4890aed65b70ece5c924143f9316e17fa38202070556257",
      "blockNumber": "0x2039de2",
      "gasUsed": "0x5082d",
      "effectiveGasPrice": "0x5d22cfc40",
      "from": "0x3a4db9e7306af09012ceb0f222d581fd1f0c6d71",
      "to": "0xc74c4119e25c2c6995868f48205da9a9d4f2b717",
      "contractAddress": null,
      "l1BaseFeeScalar": "0x0",
      "l1BlobBaseFee": "0x348a02f",
      "l1BlobBaseFeeScalar": "0x0",
      "l1Fee": "0x0",
      "l1GasPrice": "0x17c1eb2f",
      "l1GasUsed": "0x640"
    },
    {
      "status": "0x1",
      "cumulativeGasUsed": "0x17668f",
      "logs": [
        {
          "address": "0xceba9300f2b948710d2653dd7b07f33a8b32118c",
          "topics": [
            "0x8c5be1e5ebec7d5bd14f71427d1e84f3dd0314c0f7b2291e5b200ac8c7c3b925",
            "0x0000000000000000000000003a4db9e7306af09012ceb0f222d581fd1f0c6d71",
            "0x000000000000000000000000c74c4119e25c2c6995868f48205da9a9d4f2b717"
          ],
          "data": "0x000000000000000000000000000000000000000000000000000000000005b8d8",
          "blockHash": "0xfe45c6a8130e8017d58ea6bfa9712bef9c32a5b0bb519d354c6c3457b0d66bd3",
          "blockNumber": "0x2039de3",
          "transactionHash": "0xb382d50a7e9fe0c6ad956085a9739b69fa4247a8683de52e3f0fca326393517a",
          "transactionIndex": "0xe",
          "logIndex": "0x20",
          "removed": false
        }
      ],
      "logsBloom": "0x00000000000000000000100000000000000000000000002000000000000000000000000000000000000000000000000000000000000000000000000000200000000000000000000000000000000000000000000000000000000000000000000000000000000000000100000000000000000000000000000000000000000000000000000000000000000000000000400000000000000000000000000000000000020000000000000000000000000000000000000000000000000000000000000000000000000080000000020000000000000000000000001000000000000000000010000000000000000800000000000000000000000008000000000000000000",
      "type": "0x0",
      "transactionHash": "0xb382d50a7e9fe0c6ad956085a9739b69fa4247a8683de52e3f0fca326393517a",
      "transactionIndex": "0xe",
      "blockHash": "0xfe45c6a8130e8017d58ea6bfa9712bef9c32a5b0bb519d354c6c3457b0d66bd3",
      "blockNumber": "0x2039de3",
      "gasUsed": "0xd88d",
      "effectiveGasPrice": "0x5d22cfc40",
      "from": "0x3a4db9e7306af09012ceb0f222d581fd1f0c6d71",
      "to": "0xceba9300f2b948710d2653dd7b07f33a8b32118c",
      "contractAddress": null,
      "l1BaseFeeScalar": "0x0",
      "l1BlobBaseFee": "0x348a02f",
      "l1BlobBaseFeeScalar": "0x0",
      "l1Fee": "0x0",
      "l1GasPrice": "0x17c1eb2f",
      "l1GasUsed": "0x640"
    },
    {
      "status": "0x1",
      "cumulativeGasUsed": "0x1ab912",
      "logs": [
        {
          "address": "0xceba9300f2b948710d2653dd7b07f33a8b32118c",
          "topics": [
            "0xddf252ad1be2c89b69c2b068fc378daa952ba7f163c4a11628f55a4df523b3ef",
            "0x0000000000000000000000003a4db9e7306af09012ceb0f222d581fd1f0c6d71",
            "0x000000000000000000000000c74c4119e25c2c6995868f48205da9a9d4f2b717"
          ],
          "data": "0x000000000000000000000000000000000000000000000000000000000002dc6c",
          "blockHash": "0xfe45c6a8130e8017d58ea6bfa9712bef9c32a5b0bb519d354c6c3457b0d66bd3",
          "blockNumber": "0x2039de3",
          "transactionHash": "0xc0215199e468675e20eae95af4e1ea9d86a31a771d38df870bfa7907a2ab1e82",
          "transactionIndex": "0xf",
          "logIndex": "0x21",
          "removed": false
        },
        {
          "address": "0xceba9300f2b948710d2653dd7b07f33a8b32118c",
          "topics": [
            "0x8c5be1e5ebec7d5bd14f71427d1e84f3dd0314c0f7b2291e5b200ac8c7c3b925",
            "0x000000000000000000000000c74c4119e25c2c6995868f48205da9a9d4f2b717",
            "0x0000000000000000000000003e59a31363e2ad014dcbc521c4a0d5757d9f3402"
          ],
          "data": "0x000000000000000000000000000000000000000000000000000000000002dc6c",
          "blockHash": "0xfe45c6a8130e8017d58ea6bfa9712bef9c32a5b0bb519d354c6c3457b0d66bd3",
          "blockNumber": "0x2039de3",
          "transactionHash": "0xc0215199e468675e20eae95af4e1ea9d86a31a771d38df870bfa7907a2ab1e82",
          "transactionIndex": "0xf",
          "logIndex": "0x22",
          "removed": false
        },
        {
          "address": "0xdbe517c0fa6467873b684eccbed77217e471e862",
          "topics": [
            "0xddf252ad1be2c89b69c2b068fc378daa952ba7f163c4a11628f55a4df523b3ef",
            "0x000000000000000000000000c74c4119e25c2c6995868f48205da9a9d4f2b717",
            "0x0000000000000000000000000000000000000000000000000000000000000000"
          ],
          "data": "0x000000000000000000000000000000000000000000000000000000000002dc6c",
          "blockHash": "0xfe45c6a8130e8017d58ea6bfa9712bef9c32a5b0bb519d354c6c3457b0d66bd3",
          "blockNumber": "0x2039de3",
          "transactionHash": "0xc0215199e468675e20eae95af4e1ea9d86a31a771d38df870bfa7907a2ab1e82",
          "transactionIndex": "0xf",
          "logIndex": "0x23",
          "removed": false
        },
        {
          "address": "0xdbe517c0fa6467873b684eccbed77217e471e862",
          "topics": [
            "0x4cf25bc1d991c17529c25213d3cc0cda295eeaad5f13f361969b12ea48015f90",
            "0x000000000000000000000000c74c4119e25c2c6995868f48205da9a9d4f2b717",
            "0x0000000000000000000000000000000000000000000000000000000000000000"
          ],
          "data": "0x000000000000000000000000000000000000000000000000000000000002dc6c00000000000000000000000000000000000000000000000000000000000000000000000000000000000000000000000000000000033c4fc3858f51c02b98d664",
          "blockHash": "0xfe45c6a8130e8017d58ea6bfa9712bef9c32a5b0bb519d354c6c3457b0d66bd3",
          "blockNumber": "0x2039de3",
          "transactionHash": "0xc0215199e468675e20eae95af4e1ea9d86a31a771d38df870bfa7907a2ab1e82",
          "transactionIndex": "0xf",
          "logIndex": "0x24",
          "removed": false
        },
        {
          "address": "0x3e59a31363e2ad014dcbc521c4a0d5757d9f3402",
          "topics": [
            "0x804c9b842b2748a22bb64b345453a3de7ca54a6ca45ce00d415894979e22897a",
            "0x000000000000000000000000ceba9300f2b948710d2653dd7b07f33a8b32118c"
          ],
          "data": "0x00000000000000000000000000000000000000000000d50c8f293cbb034204c0000000000000000000000000000000000000000000000000000000000000000000000000000000000000000000000000000000000007b68adeb70b8730acac480000000000000000000000000000000000000000033b68ce3b805073a9a5a1400000000000000000000000000000000000000000033c4fc3858f51c02b98d664",
          "blockHash": "0xfe45c6a8130e8017d58ea6bfa9712bef9c32a5b0bb519d354c6c3457b0d66bd3",
          "blockNumber": "0x2039de3",
          "transactionHash": "0xc0215199e468675e20eae95af4e1ea9d86a31a771d38df870bfa7907a2ab1e82",
          "transactionIndex": "0xf",
          "logIndex": "0x25",
          "removed": false
        },
        {
          "address": "0xceba9300f2b948710d2653dd7b07f33a8b32118c",
          "topics": [
            "0xddf252ad1be2c89b69c2b068fc378daa952ba7f163c4a11628f55a4df523b3ef",
            "0x000000000000000000000000c74c4119e25c2c6995868f48205da9a9d4f2b717",
            "0x000000000000000000000000ff8309b9e99bfd2d4021bc71a362abd93dbd4785"
          ],
          "data": "0x000000000000000000000000000000000000000000000000000000000002dc6c",
          "blockHash": "0xfe45c6a8130e8017d58ea6bfa9712bef9c32a5b0bb519d354c6c3457b0d66bd3",
          "blockNumber": "0x2039de3",
          "transactionHash": "0xc0215199e468675e20eae95af4e1ea9d86a31a771d38df870bfa7907a2ab1e82",
          "transactionIndex": "0xf",
          "logIndex": "0x26",
          "removed": false
        },
        {
          "address": "0x3e59a31363e2ad014dcbc521c4a0d5757d9f3402",
          "topics": [
            "0xa534c8dbe71f871f9f3530e97a74601fea17b426cae02e1c5aee42c96c784051",
            "0x000000000000000000000000ceba9300f2b948710d2653dd7b07f33a8b32118c",
            "0x000000000000000000000000c74c4119e25c2c6995868f48205da9a9d4f2b717",
            "0x000000000000000000000000c74c4119e25c2c6995868f48205da9a9d4f2b717"
          ],
          "data": "0x000000000000000000000000000000000000000000000000000000000002dc6c0000000000000000000000000000000000000000000000000000000000000000",
          "blockHash": "0xfe45c6a8130e8017d58ea6bfa9712bef9c32a5b0bb519d354c6c3457b0d66bd3",
          "blockNumber": "0x2039de3",
          "transactionHash": "0xc0215199e468675e20eae95af4e1ea9d86a31a771d38df870bfa7907a2ab1e82",
          "transactionIndex": "0xf",
          "logIndex": "0x27",
          "removed": false
        },
        {
          "address": "0xc74c4119e25c2c6995868f48205da9a9d4f2b717",
          "topics": [
            "0x0d4979b0859a1951f8ed7cbe3b1994e740552588f27ba02ca0f8f1ddcad16e0c",
            "0x0000000000000000000000000000000000000000000000000000000000000003"
          ],
          "data": "0x000000000000000000000000000000000000000000000000000000000002dc6c",
          "blockHash": "0xfe45c6a8130e8017d58ea6bfa9712bef9c32a5b0bb519d354c6c3457b0d66bd3",
          "blockNumber": "0x2039de3",
          "transactionHash": "0xc0215199e468675e20eae95af4e1ea9d86a31a771d38df870bfa7907a2ab1e82",
          "transactionIndex": "0xf",
          "logIndex": "0x28",
          "removed": false
        }
      ],
      "logsBloom": "0x10000000000000010000120010400000000000000000002000000000000000000000000000000000000000000000400000110000c20000000000000000200000000000008000000000000008000000000000002000000000000000080000008080000000020000000100000000000800000000000000000000000010000000000000000000000000800000000000400000000000000000002200000000000000020001100000000000000000000000000000000000800000400000000000410000000002000080200000022000000000000000000000001000000000000020040010100000004010000800000000000000000000000008000000000000040000",
      "type": "0x0",
      "transactionHash": "0xc0215199e468675e20eae95af4e1ea9d86a31a771d38df870bfa7907a2ab1e82",
      "transactionIndex": "0xf",
      "blockHash": "0xfe45c6a8130e8017d58ea6bfa9712bef9c32a5b0bb519d354c6c3457b0d66bd3",
      "blockNumber": "0x2039de3",
      "gasUsed": "0x35283",
      "effectiveGasPrice": "0x5d22cfc40",
      "from": "0x3a4db9e7306af09012ceb0f222d581fd1f0c6d71",
      "to": "0xc74c4119e25c2c6995868f48205da9a9d4f2b717",
      "contractAddress": null,
      "l1BaseFeeScalar": "0x0",
      "l1BlobBaseFee": "0x348a02f",
      "l1BlobBaseFeeScalar": "0x0",
      "l1Fee": "0x0",
      "l1GasPrice": "0x17c1eb2f",
      "l1GasUsed": "0x640"
    },
    {
      "status": "0x1",
      "cumulativeGasUsed": "0xbc5e0",
      "logs": [
        {
          "address": "0x3e59a31363e2ad014dcbc521c4a0d5757d9f3402",
          "topics": [
            "0x804c9b842b2748a22bb64b345453a3de7ca54a6ca45ce00d415894979e22897a",
            "0x00000000000000000000000048065fbbe25f71c9282ddf5e1cd6d6a887483d5e"
          ],
          "data": "0x00000000000000000000000000000000000000000000000b15eb8335611071a00000000000000000000000000000000000000000000000000000000000000000000000000000000000000000000000000000000000001c2689f9309e2877c18b0000000000000000000000000000000000000000033b5f8e208534d2c90145ab0000000000000000000000000000000000000000033bcca1d1887977ce7f9efb",
          "blockHash": "0x52f5919232ab2cedc6bf1be47945384d7d6865fe9d789daa49235eedff02718b",
          "blockNumber": "0x2039de4",
          "transactionHash": "0xb4aefa6dcf071cd29abae438037f366635ba50f8ebe35054ae8daf64bc7b4d72",
          "transactionIndex": "0x5",
          "logIndex": "0xf",
          "removed": false
        },
        {
          "address": "0xdee98402a302e4d707fb9bf2bac66faeec31e8df",
          "topics": [
            "0xddf252ad1be2c89b69c2b068fc378daa952ba7f163c4a11628f55a4df523b3ef",
            "0x000000000000000000000000c74c4119e25c2c6995868f48205da9a9d4f2b717",
            "0x0000000000000000000000000000000000000000000000000000000000000000"
          ],
          "data": "0x00000000000000000000000000000000000000000000000000000000000927c0",
          "blockHash": "0x52f5919232ab2cedc6bf1be47945384d7d6865fe9d789daa49235eedff02718b",
          "blockNumber": "0x2039de4",
          "transactionHash": "0xb4aefa6dcf071cd29abae438037f366635ba50f8ebe35054ae8daf64bc7b4d72",
          "transactionIndex": "0x5",
          "logIndex": "0x10",
          "removed": false
        },
        {
          "address": "0xdee98402a302e4d707fb9bf2bac66faeec31e8df",
          "topics": [
            "0x4cf25bc1d991c17529c25213d3cc0cda295eeaad5f13f361969b12ea48015f90",
            "0x000000000000000000000000c74c4119e25c2c6995868f48205da9a9d4f2b717",
            "0x0000000000000000000000003a4db9e7306af09012ceb0f222d581fd1f0c6d71"
          ],
          "data": "0x00000000000000000000000000000000000000000000000000000000000927c000000000000000000000000000000000000000000000000000000000000000000000000000000000000000000000000000000000033b5f8e208534d2c90145ab",
          "blockHash": "0x52f5919232ab2cedc6bf1be47945384d7d6865fe9d789daa49235eedff02718b",
          "blockNumber": "0x2039de4",
          "transactionHash": "0xb4aefa6dcf071cd29abae438037f366635ba50f8ebe35054ae8daf64bc7b4d72",
          "transactionIndex": "0x5",
          "logIndex": "0x11",
          "removed": false
        },
        {
          "address": "0x48065fbbe25f71c9282ddf5e1cd6d6a887483d5e",
          "topics": [
            "0xddf252ad1be2c89b69c2b068fc378daa952ba7f163c4a11628f55a4df523b3ef",
            "0x000000000000000000000000dee98402a302e4d707fb9bf2bac66faeec31e8df",
            "0x0000000000000000000000003a4db9e7306af09012ceb0f222d581fd1f0c6d71"
          ],
          "data": "0x00000000000000000000000000000000000000000000000000000000000927c0",
          "blockHash": "0x52f5919232ab2cedc6bf1be47945384d7d6865fe9d789daa49235eedff02718b",
          "blockNumber": "0x2039de4",
          "transactionHash": "0xb4aefa6dcf071cd29abae438037f366635ba50f8ebe35054ae8daf64bc7b4d72",
          "transactionIndex": "0x5",
          "logIndex": "0x12",
          "removed": false
        },
        {
          "address": "0x3e59a31363e2ad014dcbc521c4a0d5757d9f3402",
          "topics": [
            "0x3115d1449a7b732c986cba18244e897a450f61e1bb8d589cd2e69e6c8924f9f7",
            "0x00000000000000000000000048065fbbe25f71c9282ddf5e1cd6d6a887483d5e",
            "0x000000000000000000000000c74c4119e25c2c6995868f48205da9a9d4f2b717",
            "0x0000000000000000000000003a4db9e7306af09012ceb0f222d581fd1f0c6d71"
          ],
          "data": "0x00000000000000000000000000000000000000000000000000000000000927c0",
          "blockHash": "0x52f5919232ab2cedc6bf1be47945384d7d6865fe9d789daa49235eedff02718b",
          "blockNumber": "0x2039de4",
          "transactionHash": "0xb4aefa6dcf071cd29abae438037f366635ba50f8ebe35054ae8daf64bc7b4d72",
          "transactionIndex": "0x5",
          "logIndex": "0x13",
          "removed": false
        },
        {
          "address": "0xc74c4119e25c2c6995868f48205da9a9d4f2b717",
          "topics": [
            "0x2399e8aed1977410745a5211d8226a3a7d9278f50a8a197c5ec6e285bb437f0b",
            "0x0000000000000000000000000000000000000000000000000000000000000003"
          ],
          "data": "0x00000000000000000000000000000000000000000000000000000000000927c0",
          "blockHash": "0x52f5919232ab2cedc6bf1be47945384d7d6865fe9d789daa49235eedff02718b",
          "blockNumber": "0x2039de4",
          "transactionHash": "0xb4aefa6dcf071cd29abae438037f366635ba50f8ebe35054ae8daf64bc7b4d72",
          "transactionIndex": "0x5",
          "logIndex": "0x14",
          "removed": false
        }
      ],
      "logsBloom": "0x1000000000000000020000000000000000900000000000200000000000000000000000080000000000000000000000000001000082000000000000000000000000000000000000080000000800000000000000000000000000000008000000800000000002000000010000000000080000000000002002004000001000000000000001000000000080000000000040000000000000006000020000000000000000000000008100000000004000000000100000000080000040000000000041000000000200008000000000a000000040000000000000001000000000000120040000000000000000000000000000000000000000000008000000000000000000",
      "type": "0x0",
      "transactionHash": "0xb4aefa6dcf071cd29abae438037f366635ba50f8ebe35054ae8daf64bc7b4d72",
      "transactionIndex": "0x5",
      "blockHash": "0x52f5919232ab2cedc6bf1be47945384d7d6865fe9d789daa49235eedff02718b",
      "blockNumber": "0x2039de4",
      "gasUsed": "0x52383",
      "effectiveGasPrice": "0x5d22cfc40",
      "from": "0x3a4db9e7306af09012ceb0f222d581fd1f0c6d71",
      "to": "0xc74c4119e25c2c6995868f48205da9a9d4f2b717",
      "contractAddress": null,
      "l1BaseFeeScalar": "0x0",
      "l1BlobBaseFee": "0x348a02f",
      "l1BlobBaseFeeScalar": "0x0",
      "l1Fee": "0x0",
      "l1GasPrice": "0x17c1eb2f",
      "l1GasUsed": "0x640"
    }
  ],
  "libraries": [],
  "pending": [],
  "returns": {},
  "timestamp": 1745692219,
  "chain": 42220,
  "commit": "1cefd9d"
}