{
  "transactions": [
    {
      "hash": "0x8441096173d4b17d32d349816cf0d51b8844b5c603933d3dc4c6babb45c71377",
      "transactionType": "CALL",
      "contractName": null,
      "contractAddress": "0x48065fbbe25f71c9282ddf5e1cd6d6a887483d5e",
      "function": "approve(address,uint256)",
      "arguments": [
        "0xd2B508298fCC37261953684744ec4CCc734d5083",
        "500000"
      ],
      "transaction": {
        "from": "0x3a4db9e7306af09012ceb0f222d581fd1f0c6d71",
        "to": "0x48065fbbe25f71c9282ddf5e1cd6d6a887483d5e",
        "gas": "0x1201c",
        "value": "0x0",
        "input": "0x095ea7b3000000000000000000000000d2b508298fcc37261953684744ec4ccc734d5083000000000000000000000000000000000000000000000000000000000007a120",
        "nonce": "0xc2",
        "chainId": "0xa4ec"
      },
      "additionalContracts": [],
      "isFixedGasLimit": false
    },
    {
      "hash": "0x1dfe75d175cb5cf8da5f8ee93d8407b9a7e7a410b91ad3d23488c5a18fc2a5a7",
      "transactionType": "CALL",
      "contractName": null,
      "contractAddress": "0xd2b508298fcc37261953684744ec4ccc734d5083",
      "function": "createPosition(address,uint256,address,uint256,uint256)",
      "arguments": [
        "0x48065fbBE25f71C9282ddf5e1cD6D6A887483D5e",
        "500000",
        "0xcebA9300f2b948710d2653dD7B07f33A8B32118C",
        "250000",
        "2"
      ],
      "transaction": {
        "from": "0x3a4db9e7306af09012ceb0f222d581fd1f0c6d71",
        "to": "0xd2b508298fcc37261953684744ec4ccc734d5083",
        "gas": "0xdebbf",
        "value": "0x0",
        "input": "0xb0c3d5df00000000000000000000000048065fbbe25f71c9282ddf5e1cd6d6a887483d5e000000000000000000000000000000000000000000000000000000000007a120000000000000000000000000ceba9300f2b948710d2653dd7b07f33a8b32118c000000000000000000000000000000000000000000000000000000000003d0900000000000000000000000000000000000000000000000000000000000000002",
        "nonce": "0xc3",
        "chainId": "0xa4ec"
      },
      "additionalContracts": [],
      "isFixedGasLimit": false
    },
    {
      "hash": null,
      "transactionType": "CALL",
      "contractName": null,
      "contractAddress": "0xd2b508298fcc37261953684744ec4ccc734d5083",
      "function": "addCollateralWithPermit(uint256,uint256,uint256,uint8,bytes32,bytes32)",
      "arguments": [
        "4",
        "250000",
        "1745755631",
        "28",
        "0x86fcc660925687940e9f53301b71affffc422e308a48f2e003bd40c06490f086",
        "0x6710db0406544cd772d5a74b47723de214e23cb610b83a31087035132ea363bf"
      ],
      "transaction": {
        "from": "0x3a4db9e7306af09012ceb0f222d581fd1f0c6d71",
        "to": "0xd2b508298fcc37261953684744ec4ccc734d5083",
        "gas": "0x53652",
        "value": "0x0",
        "input": "0x558e45ba0000000000000000000000000000000000000000000000000000000000000004000000000000000000000000000000000000000000000000000000000003d09000000000000000000000000000000000000000000000000000000000680e1def000000000000000000000000000000000000000000000000000000000000001c86fcc660925687940e9f53301b71affffc422e308a48f2e003bd40c06490f0866710db0406544cd772d5a74b47723de214e23cb610b83a31087035132ea363bf",
        "nonce": "0xc4",
        "chainId": "0xa4ec"
      },
      "additionalContracts": [],
      "isFixedGasLimit": false
    },
    {
      "hash": null,
      "transactionType": "CALL",
      "contractName": null,
      "contractAddress": "0xd2b508298fcc37261953684744ec4ccc734d5083",
      "function": "increaseBorrow(uint256,uint256)",
      "arguments": [
        "4",
        "125000"
      ],
      "transaction": {
        "from": "0x3a4db9e7306af09012ceb0f222d581fd1f0c6d71",
        "to": "0xd2b508298fcc37261953684744ec4ccc734d5083",
        "gas": "0x815b7",
        "value": "0x0",
        "input": "0x9e6824d90000000000000000000000000000000000000000000000000000000000000004000000000000000000000000000000000000000000000000000000000001e848",
        "nonce": "0xc5",
        "chainId": "0xa4ec"
      },
      "additionalContracts": [],
      "isFixedGasLimit": false
    },
    {
      "hash": null,
      "transactionType": "CALL",
      "contractName": null,
      "contractAddress": "0xd2b508298fcc37261953684744ec4ccc734d5083",
      "function": "repayDebtWithPermit(uint256,uint256,uint256,uint8,bytes32,bytes32)",
      "arguments": [
        "4",
        "187500",
        "1745755631",
        "28",
        "0x17c5fa7998cb4da024fc379416999b37b86928235fdae848addb9587b7f969e9",
        "0x17809dd76ba6b815e17220582017811149f98aab01607b5ca95223049f359d06"
      ],
      "transaction": {
        "from": "0x3a4db9e7306af09012ceb0f222d581fd1f0c6d71",
        "to": "0xd2b508298fcc37261953684744ec4ccc734d5083",
        "gas": "0x5595c",
        "value": "0x0",
        "input": "0xc9a7906a0000000000000000000000000000000000000000000000000000000000000004000000000000000000000000000000000000000000000000000000000002dc6c00000000000000000000000000000000000000000000000000000000680e1def000000000000000000000000000000000000000000000000000000000000001c17c5fa7998cb4da024fc379416999b37b86928235fdae848addb9587b7f969e917809dd76ba6b815e17220582017811149f98aab01607b5ca95223049f359d06",
        "nonce": "0xc6",
        "chainId": "0xa4ec"
      },
      "additionalContracts": [],
      "isFixedGasLimit": false
    },
    {
      "hash": null,
      "transactionType": "CALL",
      "contractName": null,
      "contractAddress": "0xd2b508298fcc37261953684744ec4ccc734d5083",
      "function": "withdrawCollateral(uint256,uint256)",
      "arguments": [
        "4",
        "150000"
      ],
      "transaction": {
        "from": "0x3a4db9e7306af09012ceb0f222d581fd1f0c6d71",
        "to": "0xd2b508298fcc37261953684744ec4ccc734d5083",
        "gas": "0x75c35",
        "value": "0x0",
        "input": "0x767a7b05000000000000000000000000000000000000000000000000000000000000000400000000000000000000000000000000000000000000000000000000000249f0",
        "nonce": "0xc7",
        "chainId": "0xa4ec"
      },
      "additionalContracts": [],
      "isFixedGasLimit": false
    },
    {
      "hash": null,
      "transactionType": "CALL",
      "contractName": null,
      "contractAddress": "0xceba9300f2b948710d2653dd7b07f33a8b32118c",
      "function": "approve(address,uint256)",
      "arguments": [
        "0xd2B508298fCC37261953684744ec4CCc734d5083",
        "375000"
      ],
      "transaction": {
        "from": "0x3a4db9e7306af09012ceb0f222d581fd1f0c6d71",
        "to": "0xceba9300f2b948710d2653dd7b07f33a8b32118c",
        "gas": "0x12b1b",
        "value": "0x0",
        "input": "0x095ea7b3000000000000000000000000d2b508298fcc37261953684744ec4ccc734d5083000000000000000000000000000000000000000000000000000000000005b8d8",
        "nonce": "0xc8",
        "chainId": "0xa4ec"
      },
      "additionalContracts": [],
      "isFixedGasLimit": false
    },
    {
      "hash": null,
      "transactionType": "CALL",
      "contractName": null,
      "contractAddress": "0xd2b508298fcc37261953684744ec4ccc734d5083",
      "function": "repayDebt(uint256,uint256)",
      "arguments": [
        "4",
        "187500"
      ],
      "transaction": {
        "from": "0x3a4db9e7306af09012ceb0f222d581fd1f0c6d71",
        "to": "0xd2b508298fcc37261953684744ec4ccc734d5083",
        "gas": "0x5dd1f",
        "value": "0x0",
        "input": "0x015cb0a50000000000000000000000000000000000000000000000000000000000000004000000000000000000000000000000000000000000000000000000000002dc6c",
        "nonce": "0xc9",
        "chainId": "0xa4ec"
      },
      "additionalContracts": [],
      "isFixedGasLimit": false
    },
    {
      "hash": null,
      "transactionType": "CALL",
      "contractName": null,
      "contractAddress": "0xd2b508298fcc37261953684744ec4ccc734d5083",
      "function": "withdrawCollateral(uint256,uint256)",
      "arguments": [
        "4",
        "600000"
      ],
      "transaction": {
        "from": "0x3a4db9e7306af09012ceb0f222d581fd1f0c6d71",
        "to": "0xd2b508298fcc37261953684744ec4ccc734d5083",
        "gas": "0x57f65",
        "value": "0x0",
        "input": "0x767a7b05000000000000000000000000000000000000000000000000000000000000000400000000000000000000000000000000000000000000000000000000000927c0",
        "nonce": "0xca",
        "chainId": "0xa4ec"
      },
      "additionalContracts": [],
      "isFixedGasLimit": false
    }
  ],
  "receipts": [],
  "libraries": [],
  "pending": [
    "0x8441096173d4b17d32d349816cf0d51b8844b5c603933d3dc4c6babb45c71377",
    "0x1dfe75d175cb5cf8da5f8ee93d8407b9a7e7a410b91ad3d23488c5a18fc2a5a7"
  ],
  "returns": {},
  "timestamp": 1745752063,
  "chain": 42220,
  "commit": "1cefd9d"
}