{
  "transactions": [
    {
      "hash": "0x6ddd5d029de942cdc6e4fab6fd08feaa867e3f4335834e6e6b454b0b88dcd89e",
      "transactionType": "CALL",
      "contractName": null,
      "contractAddress": "0x48065fbbe25f71c9282ddf5e1cd6d6a887483d5e",
      "function": "approve(address,uint256)",
      "arguments": [
        "0xc2a61494430F6a99d5f024Ab6E76b1633c7c13c0",
        "500000"
      ],
      "transaction": {
        "from": "0x3a4db9e7306af09012ceb0f222d581fd1f0c6d71",
        "to": "0x48065fbbe25f71c9282ddf5e1cd6d6a887483d5e",
        "gas": "0x1201c",
        "value": "0x0",
        "input": "0x095ea7b3000000000000000000000000c2a61494430f6a99d5f024ab6e76b1633c7c13c0000000000000000000000000000000000000000000000000000000000007a120",
        "nonce": "0x77",
        "chainId": "0xa4ec"
      },
      "additionalContracts": [],
      "isFixedGasLimit": false
    },
    {
      "hash": "0xd9fa46dcf0d17850a01135336c93f37a2fe2e9e6afe703355712c18a4c88e8ec",
      "transactionType": "CALL",
      "contractName": null,
      "contractAddress": "0xc2a61494430f6a99d5f024ab6e76b1633c7c13c0",
      "function": "createPosition(address,uint256,address,uint256,uint256)",
      "arguments": [
        "0x48065fbBE25f71C9282ddf5e1cD6D6A887483D5e",
        "500000",
        "0xcebA9300f2b948710d2653dD7B07f33A8B32118C",
        "250000",
        "2"
      ],
      "transaction": {
        "from": "0x3a4db9e7306af09012ceb0f222d581fd1f0c6d71",
        "to": "0xc2a61494430f6a99d5f024ab6e76b1633c7c13c0",
        "gas": "0xe4794",
        "value": "0x0",
        "input": "0xb0c3d5df00000000000000000000000048065fbbe25f71c9282ddf5e1cd6d6a887483d5e000000000000000000000000000000000000000000000000000000000007a120000000000000000000000000ceba9300f2b948710d2653dd7b07f33a8b32118c000000000000000000000000000000000000000000000000000000000003d0900000000000000000000000000000000000000000000000000000000000000002",
        "nonce": "0x78",
        "chainId": "0xa4ec"
      },
      "additionalContracts": [],
      "isFixedGasLimit": false
    },
    {
      "hash": "0xa58ffa5d2fadb9d1feeee72e0a064a401218f088f46b57533c635d30193a8275",
      "transactionType": "CALL",
      "contractName": null,
      "contractAddress": "0xc2a61494430f6a99d5f024ab6e76b1633c7c13c0",
      "function": "increaseBorrow(uint256,uint256)",
      "arguments": [
        "4",
        "125000"
      ],
      "transaction": {
        "from": "0x3a4db9e7306af09012ceb0f222d581fd1f0c6d71",
        "to": "0xc2a61494430f6a99d5f024ab6e76b1633c7c13c0",
        "gas": "0x780a8",
        "value": "0x0",
        "input": "0x9e6824d90000000000000000000000000000000000000000000000000000000000000004000000000000000000000000000000000000000000000000000000000001e848",
        "nonce": "0x79",
        "chainId": "0xa4ec"
      },
      "additionalContracts": [],
      "isFixedGasLimit": false
    },
    {
      "hash": "0xd810a51d98bb5546ca75728f64e75abf82ed752af0434012ad3aa9d4afc62dc0",
      "transactionType": "CALL",
      "contractName": null,
      "contractAddress": "0xceba9300f2b948710d2653dd7b07f33a8b32118c",
      "function": "approve(address,uint256)",
      "arguments": [
        "0xc2a61494430F6a99d5f024Ab6E76b1633c7c13c0",
        "187500"
      ],
      "transaction": {
        "from": "0x3a4db9e7306af09012ceb0f222d581fd1f0c6d71",
        "to": "0xceba9300f2b948710d2653dd7b07f33a8b32118c",
        "gas": "0x12b1b",
        "value": "0x0",
        "input": "0x095ea7b3000000000000000000000000c2a61494430f6a99d5f024ab6e76b1633c7c13c0000000000000000000000000000000000000000000000000000000000002dc6c",
        "nonce": "0x7a",
        "chainId": "0xa4ec"
      },
      "additionalContracts": [],
      "isFixedGasLimit": false
    },
    {
      "hash": "0xc85d21d5b82b939b496847fb140f55c6caa5299d593969e4109e1326c280dfe7",
      "transactionType": "CALL",
      "contractName": null,
      "contractAddress": "0xc2a61494430f6a99d5f024ab6e76b1633c7c13c0",
      "function": "repayDebt(uint256,uint256)",
      "arguments": [
        "4",
        "187500"
      ],
      "transaction": {
        "from": "0x3a4db9e7306af09012ceb0f222d581fd1f0c6d71",
        "to": "0xc2a61494430f6a99d5f024ab6e76b1633c7c13c0",
        "gas": "0x4a361",
        "value": "0x0",
        "input": "0x015cb0a50000000000000000000000000000000000000000000000000000000000000004000000000000000000000000000000000000000000000000000000000002dc6c",
        "nonce": "0x7b",
        "chainId": "0xa4ec"
      },
      "additionalContracts": [],
      "isFixedGasLimit": false
    },
    {
      "hash": "0x1ccd825235d3985d7671e1ffe120730e57e94d7e225425ef248e5d2f9e6abde9",
      "transactionType": "CALL",
      "contractName": null,
      "contractAddress": "0xc2a61494430f6a99d5f024ab6e76b1633c7c13c0",
      "function": "withdrawCollateral(uint256,uint256)",
      "arguments": [
        "4",
        "100000"
      ],
      "transaction": {
        "from": "0x3a4db9e7306af09012ceb0f222d581fd1f0c6d71",
        "to": "0xc2a61494430f6a99d5f024ab6e76b1633c7c13c0",
        "gas": "0x75bb4",
        "value": "0x0",
        "input": "0x767a7b05000000000000000000000000000000000000000000000000000000000000000400000000000000000000000000000000000000000000000000000000000186a0",
        "nonce": "0x7c",
        "chainId": "0xa4ec"
      },
      "additionalContracts": [],
      "isFixedGasLimit": false
    },
    {
      "hash": "0x7ae9df6f71ecfba5aa06e8cd54a14c6155f0d2eeabd866ba18eac2cfbc40e67d",
      "transactionType": "CALL",
      "contractName": null,
      "contractAddress": "0xceba9300f2b948710d2653dd7b07f33a8b32118c",
      "function": "approve(address,uint256)",
      "arguments": [
        "0xc2a61494430F6a99d5f024Ab6E76b1633c7c13c0",
        "375000"
      ],
      "transaction": {
        "from": "0x3a4db9e7306af09012ceb0f222d581fd1f0c6d71",
        "to": "0xceba9300f2b948710d2653dd7b07f33a8b32118c",
        "gas": "0x12b1b",
        "value": "0x0",
        "input": "0x095ea7b3000000000000000000000000c2a61494430f6a99d5f024ab6e76b1633c7c13c0000000000000000000000000000000000000000000000000000000000005b8d8",
        "nonce": "0x7d",
        "chainId": "0xa4ec"
      },
      "additionalContracts": [],
      "isFixedGasLimit": false
    },
    {
      "hash": "0x8ee721b13d334dec496df0d3e4b0a610b6a9aabf07bc109dbc0690b648684bde",
      "transactionType": "CALL",
      "contractName": null,
      "contractAddress": "0xc2a61494430f6a99d5f024ab6e76b1633c7c13c0",
      "function": "repayDebt(uint256,uint256)",
      "arguments": [
        "4",
        "187500"
      ],
      "transaction": {
        "from": "0x3a4db9e7306af09012ceb0f222d581fd1f0c6d71",
        "to": "0xc2a61494430f6a99d5f024ab6e76b1633c7c13c0",
        "gas": "0x4600f",
        "value": "0x0",
        "input": "0x015cb0a50000000000000000000000000000000000000000000000000000000000000004000000000000000000000000000000000000000000000000000000000002dc6c",
        "nonce": "0x7e",
        "chainId": "0xa4ec"
      },
      "additionalContracts": [],
      "isFixedGasLimit": false
    },
    {
      "hash": "0x4751b47ce39d5f24c018f5bc78c482196e1e858411ff223a393d65235fbd32a9",
      "transactionType": "CALL",
      "contractName": null,
      "contractAddress": "0xc2a61494430f6a99d5f024ab6e76b1633c7c13c0",
      "function": "withdrawCollateral(uint256,uint256)",
      "arguments": [
        "4",
        "400000"
      ],
      "transaction": {
        "from": "0x3a4db9e7306af09012ceb0f222d581fd1f0c6d71",
        "to": "0xc2a61494430f6a99d5f024ab6e76b1633c7c13c0",
        "gas": "0x74048",
        "value": "0x0",
        "input": "0x767a7b0500000000000000000000000000000000000000000000000000000000000000040000000000000000000000000000000000000000000000000000000000061a80",
        "nonce": "0x7f",
        "chainId": "0xa4ec"
      },
      "additionalContracts": [],
      "isFixedGasLimit": false
    }
  ],
  "receipts": [
    {
      "status": "0x1",
      "cumulativeGasUsed": "0x2243b9",
      "logs": [
        {
          "address": "0x48065fbbe25f71c9282ddf5e1cd6d6a887483d5e",
          "topics": [
            "0x8c5be1e5ebec7d5bd14f71427d1e84f3dd0314c0f7b2291e5b200ac8c7c3b925",
            "0x0000000000000000000000003a4db9e7306af09012ceb0f222d581fd1f0c6d71",
            "0x000000000000000000000000c2a61494430f6a99d5f024ab6e76b1633c7c13c0"
          ],
          "data": "0x000000000000000000000000000000000000000000000000000000000007a120",
          "blockHash": "0x3a89bba4faa6a52196bde1129dad745fc7c0dc89018b979c61cefddb46306303",
          "blockNumber": "0x203856f",
          "transactionHash": "0x6ddd5d029de942cdc6e4fab6fd08feaa867e3f4335834e6e6b454b0b88dcd89e",
          "transactionIndex": "0xe",
          "logIndex": "0x2a",
          "removed": false
        }
      ],
      "logsBloom": "0x00000000000000000000000000000000000000000000000000000000000000000000000000000000000000000000000000000000000000000000000000200000000000000000000000000000000000000000000000000000000000000000000000000000000000000000000000000000000000000000000040000000000000000000010000000000000000000000400000000000000000000000000000000000020000000000000000000000000000000000000000000000000000000000000000000000000080000000008000000000020000000000001000000000000000000010000000000000001000000000000000000000000000000000000000800000",
      "type": "0x0",
      "transactionHash": "0x6ddd5d029de942cdc6e4fab6fd08feaa867e3f4335834e6e6b454b0b88dcd89e",
      "transactionIndex": "0xe",
      "blockHash": "0x3a89bba4faa6a52196bde1129dad745fc7c0dc89018b979c61cefddb46306303",
      "blockNumber": "0x203856f",
      "gasUsed": "0xd097",
      "effectiveGasPrice": "0x5d22cfc40",
      "from": "0x3a4db9e7306af09012ceb0f222d581fd1f0c6d71",
      "to": "0x48065fbbe25f71c9282ddf5e1cd6d6a887483d5e",
      "contractAddress": null,
      "l1BaseFeeScalar": "0x0",
      "l1BlobBaseFee": "0x1d982c39",
      "l1BlobBaseFeeScalar": "0x0",
      "l1Fee": "0x0",
      "l1GasPrice": "0x2b670dbf",
      "l1GasUsed": "0x640"
    },
    {
      "status": "0x1",
      "cumulativeGasUsed": "0x2c0744",
      "logs": [
        {
          "address": "0x48065fbbe25f71c9282ddf5e1cd6d6a887483d5e",
          "topics": [
            "0xddf252ad1be2c89b69c2b068fc378daa952ba7f163c4a11628f55a4df523b3ef",
            "0x0000000000000000000000003a4db9e7306af09012ceb0f222d581fd1f0c6d71",
            "0x000000000000000000000000c2a61494430f6a99d5f024ab6e76b1633c7c13c0"
          ],
          "data": "0x000000000000000000000000000000000000000000000000000000000007a120",
          "blockHash": "0x3a89bba4faa6a52196bde1129dad745fc7c0dc89018b979c61cefddb46306303",
          "blockNumber": "0x203856f",
          "transactionHash": "0xd9fa46dcf0d17850a01135336c93f37a2fe2e9e6afe703355712c18a4c88e8ec",
          "transactionIndex": "0xf",
          "logIndex": "0x2b",
          "removed": false
        },
        {
          "address": "0x48065fbbe25f71c9282ddf5e1cd6d6a887483d5e",
          "topics": [
            "0x8c5be1e5ebec7d5bd14f71427d1e84f3dd0314c0f7b2291e5b200ac8c7c3b925",
            "0x0000000000000000000000003a4db9e7306af09012ceb0f222d581fd1f0c6d71",
            "0x000000000000000000000000c2a61494430f6a99d5f024ab6e76b1633c7c13c0"
          ],
          "data": "0x0000000000000000000000000000000000000000000000000000000000000000",
          "blockHash": "0x3a89bba4faa6a52196bde1129dad745fc7c0dc89018b979c61cefddb46306303",
          "blockNumber": "0x203856f",
          "transactionHash": "0xd9fa46dcf0d17850a01135336c93f37a2fe2e9e6afe703355712c18a4c88e8ec",
          "transactionIndex": "0xf",
          "logIndex": "0x2c",
          "removed": false
        },
        {
          "address": "0x48065fbbe25f71c9282ddf5e1cd6d6a887483d5e",
          "topics": [
            "0x8c5be1e5ebec7d5bd14f71427d1e84f3dd0314c0f7b2291e5b200ac8c7c3b925",
            "0x000000000000000000000000c2a61494430f6a99d5f024ab6e76b1633c7c13c0",
            "0x0000000000000000000000003e59a31363e2ad014dcbc521c4a0d5757d9f3402"
          ],
          "data": "0x000000000000000000000000000000000000000000000000000000000007a120",
          "blockHash": "0x3a89bba4faa6a52196bde1129dad745fc7c0dc89018b979c61cefddb46306303",
          "blockNumber": "0x203856f",
          "transactionHash": "0xd9fa46dcf0d17850a01135336c93f37a2fe2e9e6afe703355712c18a4c88e8ec",
          "transactionIndex": "0xf",
          "logIndex": "0x2d",
          "removed": false
        },
        {
          "address": "0x3e59a31363e2ad014dcbc521c4a0d5757d9f3402",
          "topics": [
            "0x804c9b842b2748a22bb64b345453a3de7ca54a6ca45ce00d415894979e22897a",
            "0x00000000000000000000000048065fbbe25f71c9282ddf5e1cd6d6a887483d5e"
          ],
          "data": "0x00000000000000000000000000000000000000000000000b15ebd813a0508caf0000000000000000000000000000000000000000000000000000000000000000000000000000000000000000000000000000000000001c268a64f224b70b12b20000000000000000000000000000000000000000033b5f8e1ff4ef7dca0f4bf40000000000000000000000000000000000000000033bcca062fcab6e932d4e38",
          "blockHash": "0x3a89bba4faa6a52196bde1129dad745fc7c0dc89018b979c61cefddb46306303",
          "blockNumber": "0x203856f",
          "transactionHash": "0xd9fa46dcf0d17850a01135336c93f37a2fe2e9e6afe703355712c18a4c88e8ec",
          "transactionIndex": "0xf",
          "logIndex": "0x2e",
          "removed": false
        },
        {
          "address": "0x48065fbbe25f71c9282ddf5e1cd6d6a887483d5e",
          "topics": [
            "0xddf252ad1be2c89b69c2b068fc378daa952ba7f163c4a11628f55a4df523b3ef",
            "0x000000000000000000000000c2a61494430f6a99d5f024ab6e76b1633c7c13c0",
            "0x000000000000000000000000dee98402a302e4d707fb9bf2bac66faeec31e8df"
          ],
          "data": "0x000000000000000000000000000000000000000000000000000000000007a120",
          "blockHash": "0x3a89bba4faa6a52196bde1129dad745fc7c0dc89018b979c61cefddb46306303",
          "blockNumber": "0x203856f",
          "transactionHash": "0xd9fa46dcf0d17850a01135336c93f37a2fe2e9e6afe703355712c18a4c88e8ec",
          "transactionIndex": "0xf",
          "logIndex": "0x2f",
          "removed": false
        },
        {
          "address": "0x48065fbbe25f71c9282ddf5e1cd6d6a887483d5e",
          "topics": [
            "0x8c5be1e5ebec7d5bd14f71427d1e84f3dd0314c0f7b2291e5b200ac8c7c3b925",
            "0x000000000000000000000000c2a61494430f6a99d5f024ab6e76b1633c7c13c0",
            "0x0000000000000000000000003e59a31363e2ad014dcbc521c4a0d5757d9f3402"
          ],
          "data": "0x0000000000000000000000000000000000000000000000000000000000000000",
          "blockHash": "0x3a89bba4faa6a52196bde1129dad745fc7c0dc89018b979c61cefddb46306303",
          "blockNumber": "0x203856f",
          "transactionHash": "0xd9fa46dcf0d17850a01135336c93f37a2fe2e9e6afe703355712c18a4c88e8ec",
          "transactionIndex": "0xf",
          "logIndex": "0x30",
          "removed": false
        },
        {
          "address": "0xdee98402a302e4d707fb9bf2bac66faeec31e8df",
          "topics": [
            "0xddf252ad1be2c89b69c2b068fc378daa952ba7f163c4a11628f55a4df523b3ef",
            "0x0000000000000000000000000000000000000000000000000000000000000000",
            "0x000000000000000000000000c2a61494430f6a99d5f024ab6e76b1633c7c13c0"
          ],
          "data": "0x000000000000000000000000000000000000000000000000000000000007a120",
          "blockHash": "0x3a89bba4faa6a52196bde1129dad745fc7c0dc89018b979c61cefddb46306303",
          "blockNumber": "0x203856f",
          "transactionHash": "0xd9fa46dcf0d17850a01135336c93f37a2fe2e9e6afe703355712c18a4c88e8ec",
          "transactionIndex": "0xf",
          "logIndex": "0x31",
          "removed": false
        },
        {
          "address": "0xdee98402a302e4d707fb9bf2bac66faeec31e8df",
          "topics": [
            "0x458f5fa412d0f69b08dd84872b0215675cc67bc1d5b6fd93300a1c3878b86196",
            "0x000000000000000000000000c2a61494430f6a99d5f024ab6e76b1633c7c13c0",
            "0x000000000000000000000000c2a61494430f6a99d5f024ab6e76b1633c7c13c0"
          ],
          "data": "0x000000000000000000000000000000000000000000000000000000000007a12000000000000000000000000000000000000000000000000000000000000000000000000000000000000000000000000000000000033b5f8e1ff4ef7dca0f4bf4",
          "blockHash": "0x3a89bba4faa6a52196bde1129dad745fc7c0dc89018b979c61cefddb46306303",
          "blockNumber": "0x203856f",
          "transactionHash": "0xd9fa46dcf0d17850a01135336c93f37a2fe2e9e6afe703355712c18a4c88e8ec",
          "transactionIndex": "0xf",
          "logIndex": "0x32",
          "removed": false
        },
        {
          "address": "0x3e59a31363e2ad014dcbc521c4a0d5757d9f3402",
          "topics": [
            "0x2b627736bca15cd5381dcf80b0bf11fd197d01a037c52b927a881a10fb73ba61",
            "0x00000000000000000000000048065fbbe25f71c9282ddf5e1cd6d6a887483d5e",
            "0x000000000000000000000000c2a61494430f6a99d5f024ab6e76b1633c7c13c0",
            "0x0000000000000000000000000000000000000000000000000000000000000000"
          ],
          "data": "0x000000000000000000000000c2a61494430f6a99d5f024ab6e76b1633c7c13c0000000000000000000000000000000000000000000000000000000000007a120",
          "blockHash": "0x3a89bba4faa6a52196bde1129dad745fc7c0dc89018b979c61cefddb46306303",
          "blockNumber": "0x203856f",
          "transactionHash": "0xd9fa46dcf0d17850a01135336c93f37a2fe2e9e6afe703355712c18a4c88e8ec",
          "transactionIndex": "0xf",
          "logIndex": "0x33",
          "removed": false
        },
        {
          "address": "0xdbe517c0fa6467873b684eccbed77217e471e862",
          "topics": [
            "0xddf252ad1be2c89b69c2b068fc378daa952ba7f163c4a11628f55a4df523b3ef",
            "0x0000000000000000000000000000000000000000000000000000000000000000",
            "0x000000000000000000000000c2a61494430f6a99d5f024ab6e76b1633c7c13c0"
          ],
          "data": "0x000000000000000000000000000000000000000000000000000000000003d091",
          "blockHash": "0x3a89bba4faa6a52196bde1129dad745fc7c0dc89018b979c61cefddb46306303",
          "blockNumber": "0x203856f",
          "transactionHash": "0xd9fa46dcf0d17850a01135336c93f37a2fe2e9e6afe703355712c18a4c88e8ec",
          "transactionIndex": "0xf",
          "logIndex": "0x34",
          "removed": false
        },
        {
          "address": "0xdbe517c0fa6467873b684eccbed77217e471e862",
          "topics": [
            "0x458f5fa412d0f69b08dd84872b0215675cc67bc1d5b6fd93300a1c3878b86196",
            "0x000000000000000000000000c2a61494430f6a99d5f024ab6e76b1633c7c13c0",
            "0x000000000000000000000000c2a61494430f6a99d5f024ab6e76b1633c7c13c0"
          ],
          "data": "0x000000000000000000000000000000000000000000000000000000000003d09100000000000000000000000000000000000000000000000000000000000000010000000000000000000000000000000000000000033c4f5f0b7f3038fe6aebf8",
          "blockHash": "0x3a89bba4faa6a52196bde1129dad745fc7c0dc89018b979c61cefddb46306303",
          "blockNumber": "0x203856f",
          "transactionHash": "0xd9fa46dcf0d17850a01135336c93f37a2fe2e9e6afe703355712c18a4c88e8ec",
          "transactionIndex": "0xf",
          "logIndex": "0x35",
          "removed": false
        },
        {
          "address": "0x3e59a31363e2ad014dcbc521c4a0d5757d9f3402",
          "topics": [
            "0x804c9b842b2748a22bb64b345453a3de7ca54a6ca45ce00d415894979e22897a",
            "0x000000000000000000000000ceba9300f2b948710d2653dd7b07f33a8b32118c"
          ],
          "data": "0x00000000000000000000000000000000000000000000d50c3edffe01caf24170000000000000000000000000000000000000000000000000000000000000000000000000000000000000000000000000000000000007b6896aaafd0e29b66ed00000000000000000000000000000000000000000033b68c3672c3ed3aa2ba4620000000000000000000000000000000000000000033c4f5f0b7f3038fe6aebf8",
          "blockHash": "0x3a89bba4faa6a52196bde1129dad745fc7c0dc89018b979c61cefddb46306303",
          "blockNumber": "0x203856f",
          "transactionHash": "0xd9fa46dcf0d17850a01135336c93f37a2fe2e9e6afe703355712c18a4c88e8ec",
          "transactionIndex": "0xf",
          "logIndex": "0x36",
          "removed": false
        },
        {
          "address": "0xceba9300f2b948710d2653dd7b07f33a8b32118c",
          "topics": [
            "0xddf252ad1be2c89b69c2b068fc378daa952ba7f163c4a11628f55a4df523b3ef",
            "0x000000000000000000000000ff8309b9e99bfd2d4021bc71a362abd93dbd4785",
            "0x000000000000000000000000c2a61494430f6a99d5f024ab6e76b1633c7c13c0"
          ],
          "data": "0x000000000000000000000000000000000000000000000000000000000003d090",
          "blockHash": "0x3a89bba4faa6a52196bde1129dad745fc7c0dc89018b979c61cefddb46306303",
          "blockNumber": "0x203856f",
          "transactionHash": "0xd9fa46dcf0d17850a01135336c93f37a2fe2e9e6afe703355712c18a4c88e8ec",
          "transactionIndex": "0xf",
          "logIndex": "0x37",
          "removed": false
        },
        {
          "address": "0x3e59a31363e2ad014dcbc521c4a0d5757d9f3402",
          "topics": [
            "0xb3d084820fb1a9decffb176436bd02558d15fac9b0ddfed8c465bc7359d7dce0",
            "0x000000000000000000000000ceba9300f2b948710d2653dd7b07f33a8b32118c",
            "0x000000000000000000000000c2a61494430f6a99d5f024ab6e76b1633c7c13c0",
            "0x0000000000000000000000000000000000000000000000000000000000000000"
          ],
          "data": "0x000000000000000000000000c2a61494430f6a99d5f024ab6e76b1633c7c13c0000000000000000000000000000000000000000000000000000000000003d090000000000000000000000000000000000000000000000000000000000000000200000000000000000000000000000000000000000007b6896aaafd0e29b66ed0",
          "blockHash": "0x3a89bba4faa6a52196bde1129dad745fc7c0dc89018b979c61cefddb46306303",
          "blockNumber": "0x203856f",
          "transactionHash": "0xd9fa46dcf0d17850a01135336c93f37a2fe2e9e6afe703355712c18a4c88e8ec",
          "transactionIndex": "0xf",
          "logIndex": "0x38",
          "removed": false
        },
        {
          "address": "0xceba9300f2b948710d2653dd7b07f33a8b32118c",
          "topics": [
            "0xddf252ad1be2c89b69c2b068fc378daa952ba7f163c4a11628f55a4df523b3ef",
            "0x000000000000000000000000c2a61494430f6a99d5f024ab6e76b1633c7c13c0",
            "0x0000000000000000000000003a4db9e7306af09012ceb0f222d581fd1f0c6d71"
          ],
          "data": "0x000000000000000000000000000000000000000000000000000000000003d090",
          "blockHash": "0x3a89bba4faa6a52196bde1129dad745fc7c0dc89018b979c61cefddb46306303",
          "blockNumber": "0x203856f",
          "transactionHash": "0xd9fa46dcf0d17850a01135336c93f37a2fe2e9e6afe703355712c18a4c88e8ec",
          "transactionIndex": "0xf",
          "logIndex": "0x39",
          "removed": false
        },
        {
          "address": "0xc2a61494430f6a99d5f024ab6e76b1633c7c13c0",
          "topics": [
            "0x9f9b498443531d2db9df8a00ec466efc74ba50ec1d82f7badd3424b87930e19a",
            "0x0000000000000000000000000000000000000000000000000000000000000004",
            "0x0000000000000000000000003a4db9e7306af09012ceb0f222d581fd1f0c6d71"
          ],
          "data": "0x00000000000000000000000048065fbbe25f71c9282ddf5e1cd6d6a887483d5e000000000000000000000000000000000000000000000000000000000007a120000000000000000000000000ceba9300f2b948710d2653dd7b07f33a8b32118c000000000000000000000000000000000000000000000000000000000003d0900000000000000000000000000000000000000000000000000000000000000002",
          "blockHash": "0x3a89bba4faa6a52196bde1129dad745fc7c0dc89018b979c61cefddb46306303",
          "blockNumber": "0x203856f",
          "transactionHash": "0xd9fa46dcf0d17850a01135336c93f37a2fe2e9e6afe703355712c18a4c88e8ec",
          "transactionIndex": "0xf",
          "logIndex": "0x3a",
          "removed": false
        }
      ],
      "logsBloom": "0x0000000000000001020012000040000000100000000000000000000000000000000000080000000000002000000440000010000080000000000000000020000000000000800000080000000840000000000000000004000000000004000000000800000002000000000000020000080000000002000000004000001000000000000001000000000000000000000040000000000000000000220000000000000002000110000100000000004000000000100000000000000040200000000001000200000200008120000002a040000040020000008000041000020000000120000010000000004010001800000001000040000000000000000000400000800000",
      "type": "0x0",
      "transactionHash": "0xd9fa46dcf0d17850a01135336c93f37a2fe2e9e6afe703355712c18a4c88e8ec",
      "transactionIndex": "0xf",
      "blockHash": "0x3a89bba4faa6a52196bde1129dad745fc7c0dc89018b979c61cefddb46306303",
      "blockNumber": "0x203856f",
      "gasUsed": "0x9c38b",
      "effectiveGasPrice": "0x5d22cfc40",
      "from": "0x3a4db9e7306af09012ceb0f222d581fd1f0c6d71",
      "to": "0xc2a61494430f6a99d5f024ab6e76b1633c7c13c0",
      "contractAddress": null,
      "l1BaseFeeScalar": "0x0",
      "l1BlobBaseFee": "0x1d982c39",
      "l1BlobBaseFeeScalar": "0x0",
      "l1Fee": "0x0",
      "l1GasPrice": "0x2b670dbf",
      "l1GasUsed": "0x76d"
    },
    {
      "status": "0x1",
      "cumulativeGasUsed": "0x1faae0",
      "logs": [
        {
          "address": "0xdbe517c0fa6467873b684eccbed77217e471e862",
          "topics": [
            "0xddf252ad1be2c89b69c2b068fc378daa952ba7f163c4a11628f55a4df523b3ef",
            "0x0000000000000000000000000000000000000000000000000000000000000000",
            "0x000000000000000000000000c2a61494430f6a99d5f024ab6e76b1633c7c13c0"
          ],
          "data": "0x000000000000000000000000000000000000000000000000000000000001e848",
          "blockHash": "0x2f9d4d0951d55d9b10ae9c1150de8fa7b86ba1d378d3c05f4a0e94003755b6fc",
          "blockNumber": "0x2038570",
          "transactionHash": "0xa58ffa5d2fadb9d1feeee72e0a064a401218f088f46b57533c635d30193a8275",
          "transactionIndex": "0xb",
          "logIndex": "0x20",
          "removed": false
        },
        {
          "address": "0xdbe517c0fa6467873b684eccbed77217e471e862",
          "topics": [
            "0x458f5fa412d0f69b08dd84872b0215675cc67bc1d5b6fd93300a1c3878b86196",
            "0x000000000000000000000000c2a61494430f6a99d5f024ab6e76b1633c7c13c0",
            "0x000000000000000000000000c2a61494430f6a99d5f024ab6e76b1633c7c13c0"
          ],
          "data": "0x000000000000000000000000000000000000000000000000000000000001e84800000000000000000000000000000000000000000000000000000000000000000000000000000000000000000000000000000000033c4f5f0f9b148a9251e625",
          "blockHash": "0x2f9d4d0951d55d9b10ae9c1150de8fa7b86ba1d378d3c05f4a0e94003755b6fc",
          "blockNumber": "0x2038570",
          "transactionHash": "0xa58ffa5d2fadb9d1feeee72e0a064a401218f088f46b57533c635d30193a8275",
          "transactionIndex": "0xb",
          "logIndex": "0x21",
          "removed": false
        },
        {
          "address": "0x3e59a31363e2ad014dcbc521c4a0d5757d9f3402",
          "topics": [
            "0x804c9b842b2748a22bb64b345453a3de7ca54a6ca45ce00d415894979e22897a",
            "0x000000000000000000000000ceba9300f2b948710d2653dd7b07f33a8b32118c"
          ],
          "data": "0x00000000000000000000000000000000000000000000d50c61ad848e5d6cf09e000000000000000000000000000000000000000000000000000000000000000000000000000000000000000000000000000000000007b68a0bf1e6ea510c3d200000000000000000000000000000000000000000033b68c3679d9e5e194fdfa50000000000000000000000000000000000000000033c4f5f0f9b148a9251e625",
          "blockHash": "0x2f9d4d0951d55d9b10ae9c1150de8fa7b86ba1d378d3c05f4a0e94003755b6fc",
          "blockNumber": "0x2038570",
          "transactionHash": "0xa58ffa5d2fadb9d1feeee72e0a064a401218f088f46b57533c635d30193a8275",
          "transactionIndex": "0xb",
          "logIndex": "0x22",
          "removed": false
        },
        {
          "address": "0xceba9300f2b948710d2653dd7b07f33a8b32118c",
          "topics": [
            "0xddf252ad1be2c89b69c2b068fc378daa952ba7f163c4a11628f55a4df523b3ef",
            "0x000000000000000000000000ff8309b9e99bfd2d4021bc71a362abd93dbd4785",
            "0x000000000000000000000000c2a61494430f6a99d5f024ab6e76b1633c7c13c0"
          ],
          "data": "0x000000000000000000000000000000000000000000000000000000000001e848",
          "blockHash": "0x2f9d4d0951d55d9b10ae9c1150de8fa7b86ba1d378d3c05f4a0e94003755b6fc",
          "blockNumber": "0x2038570",
          "transactionHash": "0xa58ffa5d2fadb9d1feeee72e0a064a401218f088f46b57533c635d30193a8275",
          "transactionIndex": "0xb",
          "logIndex": "0x23",
          "removed": false
        },
        {
          "address": "0x3e59a31363e2ad014dcbc521c4a0d5757d9f3402",
          "topics": [
            "0xb3d084820fb1a9decffb176436bd02558d15fac9b0ddfed8c465bc7359d7dce0",
            "0x000000000000000000000000ceba9300f2b948710d2653dd7b07f33a8b32118c",
            "0x000000000000000000000000c2a61494430f6a99d5f024ab6e76b1633c7c13c0",
            "0x0000000000000000000000000000000000000000000000000000000000000000"
          ],
          "data": "0x000000000000000000000000c2a61494430f6a99d5f024ab6e76b1633c7c13c0000000000000000000000000000000000000000000000000000000000001e848000000000000000000000000000000000000000000000000000000000000000200000000000000000000000000000000000000000007b68a0bf1e6ea510c3d20",
          "blockHash": "0x2f9d4d0951d55d9b10ae9c1150de8fa7b86ba1d378d3c05f4a0e94003755b6fc",
          "blockNumber": "0x2038570",
          "transactionHash": "0xa58ffa5d2fadb9d1feeee72e0a064a401218f088f46b57533c635d30193a8275",
          "transactionIndex": "0xb",
          "logIndex": "0x24",
          "removed": false
        },
        {
          "address": "0xceba9300f2b948710d2653dd7b07f33a8b32118c",
          "topics": [
            "0xddf252ad1be2c89b69c2b068fc378daa952ba7f163c4a11628f55a4df523b3ef",
            "0x000000000000000000000000c2a61494430f6a99d5f024ab6e76b1633c7c13c0",
            "0x0000000000000000000000003a4db9e7306af09012ceb0f222d581fd1f0c6d71"
          ],
          "data": "0x000000000000000000000000000000000000000000000000000000000001e848",
          "blockHash": "0x2f9d4d0951d55d9b10ae9c1150de8fa7b86ba1d378d3c05f4a0e94003755b6fc",
          "blockNumber": "0x2038570",
          "transactionHash": "0xa58ffa5d2fadb9d1feeee72e0a064a401218f088f46b57533c635d30193a8275",
          "transactionIndex": "0xb",
          "logIndex": "0x25",
          "removed": false
        },
        {
          "address": "0xc2a61494430f6a99d5f024ab6e76b1633c7c13c0",
          "topics": [
            "0xf3a2c404b3362c4238317c3dad1020c2e9e984ba8df38a4a1ff18d57e92a242a",
            "0x0000000000000000000000000000000000000000000000000000000000000004"
          ],
          "data": "0x000000000000000000000000000000000000000000000000000000000001e848",
          "blockHash": "0x2f9d4d0951d55d9b10ae9c1150de8fa7b86ba1d378d3c05f4a0e94003755b6fc",
          "blockNumber": "0x2038570",
          "transactionHash": "0xa58ffa5d2fadb9d1feeee72e0a064a401218f088f46b57533c635d30193a8275",
          "transactionIndex": "0xb",
          "logIndex": "0x26",
          "removed": false
        }
      ],
      "logsBloom": "0x00000000000000000000100000400000000000000000000000000000000000000000000000000000000000000004400000100000800000000000000000000000000000008000000000000008400000000000000000040000000000040000000008000000020000000000000200000800000000000000000000000010000000000000000000000010000000000000400000000000000000002200000000000000000001000000000000000000000000000000000000000000402000000000010002000002000081200000022000000000020000408000041000000000000020000000000000004010001800000001000000000000000000000800000000800000",
      "type": "0x0",
      "transactionHash": "0xa58ffa5d2fadb9d1feeee72e0a064a401218f088f46b57533c635d30193a8275",
      "transactionIndex": "0xb",
      "blockHash": "0x2f9d4d0951d55d9b10ae9c1150de8fa7b86ba1d378d3c05f4a0e94003755b6fc",
      "blockNumber": "0x2038570",
      "gasUsed": "0x5a1b1",
      "effectiveGasPrice": "0x5d22cfc40",
      "from": "0x3a4db9e7306af09012ceb0f222d581fd1f0c6d71",
      "to": "0xc2a61494430f6a99d5f024ab6e76b1633c7c13c0",
      "contractAddress": null,
      "l1BaseFeeScalar": "0x0",
      "l1BlobBaseFee": "0x20030c8a",
      "l1BlobBaseFeeScalar": "0x0",
      "l1Fee": "0x0",
      "l1GasPrice": "0x2ffdf5db",
      "l1GasUsed": "0x640"
    },
    {
      "status": "0x1",
      "cumulativeGasUsed": "0x202806",
      "logs": [
        {
          "address": "0xceba9300f2b948710d2653dd7b07f33a8b32118c",
          "topics": [
            "0x8c5be1e5ebec7d5bd14f71427d1e84f3dd0314c0f7b2291e5b200ac8c7c3b925",
            "0x0000000000000000000000003a4db9e7306af09012ceb0f222d581fd1f0c6d71",
            "0x000000000000000000000000c2a61494430f6a99d5f024ab6e76b1633c7c13c0"
          ],
          "data": "0x000000000000000000000000000000000000000000000000000000000002dc6c",
          "blockHash": "0x1eff5885bef14c2c1d809a61bc2caf6c398b75a08cfcce3ad315da4345b73d8d",
          "blockNumber": "0x2038571",
          "transactionHash": "0xd810a51d98bb5546ca75728f64e75abf82ed752af0434012ad3aa9d4afc62dc0",
          "transactionIndex": "0xc",
          "logIndex": "0x1b",
          "removed": false
        }
      ],
      "logsBloom": "0x00000000000000000000100000000000000000000000000000000000000000000000000000000000000000000000000000000000000000000000000000200000000000000000000000000000000000000000000000000000000000000000000000000000000000000000000000000000000000000000000000000000000000000000000000000000000000000000400000000000000000000000000000000000020000000000000000000000000000000000000000000000000000000000000000000000000080000000020000000000020000000000001000000000000000000010000000000000001800000000000000000000000000000000000000800000",
      "type": "0x0",
      "transactionHash": "0xd810a51d98bb5546ca75728f64e75abf82ed752af0434012ad3aa9d4afc62dc0",
      "transactionIndex": "0xc",
      "blockHash": "0x1eff5885bef14c2c1d809a61bc2caf6c398b75a08cfcce3ad315da4345b73d8d",
      "blockNumber": "0x2038571",
      "gasUsed": "0xd88d",
      "effectiveGasPrice": "0x5d22cfc40",
      "from": "0x3a4db9e7306af09012ceb0f222d581fd1f0c6d71",
      "to": "0xceba9300f2b948710d2653dd7b07f33a8b32118c",
      "contractAddress": null,
      "l1BaseFeeScalar": "0x0",
      "l1BlobBaseFee": "0x1d982c39",
      "l1BlobBaseFeeScalar": "0x0",
      "l1Fee": "0x0",
      "l1GasPrice": "0x2feb848a",
      "l1GasUsed": "0x640"
    },
    {
      "status": "0x1",
      "cumulativeGasUsed": "0x237b84",
      "logs": [
        {
          "address": "0xceba9300f2b948710d2653dd7b07f33a8b32118c",
          "topics": [
            "0xddf252ad1be2c89b69c2b068fc378daa952ba7f163c4a11628f55a4df523b3ef",
            "0x0000000000000000000000003a4db9e7306af09012ceb0f222d581fd1f0c6d71",
            "0x000000000000000000000000c2a61494430f6a99d5f024ab6e76b1633c7c13c0"
          ],
          "data": "0x000000000000000000000000000000000000000000000000000000000002dc6c",
          "blockHash": "0x1eff5885bef14c2c1d809a61bc2caf6c398b75a08cfcce3ad315da4345b73d8d",
          "blockNumber": "0x2038571",
          "transactionHash": "0xc85d21d5b82b939b496847fb140f55c6caa5299d593969e4109e1326c280dfe7",
          "transactionIndex": "0xd",
          "logIndex": "0x1c",
          "removed": false
        },
        {
          "address": "0xceba9300f2b948710d2653dd7b07f33a8b32118c",
          "topics": [
            "0x8c5be1e5ebec7d5bd14f71427d1e84f3dd0314c0f7b2291e5b200ac8c7c3b925",
            "0x000000000000000000000000c2a61494430f6a99d5f024ab6e76b1633c7c13c0",
            "0x0000000000000000000000003e59a31363e2ad014dcbc521c4a0d5757d9f3402"
          ],
          "data": "0x000000000000000000000000000000000000000000000000000000000002dc6c",
          "blockHash": "0x1eff5885bef14c2c1d809a61bc2caf6c398b75a08cfcce3ad315da4345b73d8d",
          "blockNumber": "0x2038571",
          "transactionHash": "0xc85d21d5b82b939b496847fb140f55c6caa5299d593969e4109e1326c280dfe7",
          "transactionIndex": "0xd",
          "logIndex": "0x1d",
          "removed": false
        },
        {
          "address": "0xdbe517c0fa6467873b684eccbed77217e471e862",
          "topics": [
            "0xddf252ad1be2c89b69c2b068fc378daa952ba7f163c4a11628f55a4df523b3ef",
            "0x000000000000000000000000c2a61494430f6a99d5f024ab6e76b1633c7c13c0",
            "0x0000000000000000000000000000000000000000000000000000000000000000"
          ],
          "data": "0x000000000000000000000000000000000000000000000000000000000002dc6c",
          "blockHash": "0x1eff5885bef14c2c1d809a61bc2caf6c398b75a08cfcce3ad315da4345b73d8d",
          "blockNumber": "0x2038571",
          "transactionHash": "0xc85d21d5b82b939b496847fb140f55c6caa5299d593969e4109e1326c280dfe7",
          "transactionIndex": "0xd",
          "logIndex": "0x1e",
          "removed": false
        },
        {
          "address": "0xdbe517c0fa6467873b684eccbed77217e471e862",
          "topics": [
            "0x4cf25bc1d991c17529c25213d3cc0cda295eeaad5f13f361969b12ea48015f90",
            "0x000000000000000000000000c2a61494430f6a99d5f024ab6e76b1633c7c13c0",
            "0x0000000000000000000000000000000000000000000000000000000000000000"
          ],
          "data": "0x000000000000000000000000000000000000000000000000000000000002dc6c00000000000000000000000000000000000000000000000000000000000000000000000000000000000000000000000000000000033c4f5f13b6f93216271296",
          "blockHash": "0x1eff5885bef14c2c1d809a61bc2caf6c398b75a08cfcce3ad315da4345b73d8d",
          "blockNumber": "0x2038571",
          "transactionHash": "0xc85d21d5b82b939b496847fb140f55c6caa5299d593969e4109e1326c280dfe7",
          "transactionIndex": "0xd",
          "logIndex": "0x1f",
          "removed": false
        },
        {
          "address": "0x3e59a31363e2ad014dcbc521c4a0d5757d9f3402",
          "topics": [
            "0x804c9b842b2748a22bb64b345453a3de7ca54a6ca45ce00d415894979e22897a",
            "0x000000000000000000000000ceba9300f2b948710d2653dd7b07f33a8b32118c"
          ],
          "data": "0x00000000000000000000000000000000000000000000d50c2d7deffb2555f74e000000000000000000000000000000000000000000000000000000000000000000000000000000000000000000000000000000000007b6891a1d545673e4a6220000000000000000000000000000000000000000033b68c3680efdfb0db5be4e0000000000000000000000000000000000000000033c4f5f13b6f93216271296",
          "blockHash": "0x1eff5885bef14c2c1d809a61bc2caf6c398b75a08cfcce3ad315da4345b73d8d",
          "blockNumber": "0x2038571",
          "transactionHash": "0xc85d21d5b82b939b496847fb140f55c6caa5299d593969e4109e1326c280dfe7",
          "transactionIndex": "0xd",
          "logIndex": "0x20",
          "removed": false
        },
        {
          "address": "0xceba9300f2b948710d2653dd7b07f33a8b32118c",
          "topics": [
            "0xddf252ad1be2c89b69c2b068fc378daa952ba7f163c4a11628f55a4df523b3ef",
            "0x000000000000000000000000c2a61494430f6a99d5f024ab6e76b1633c7c13c0",
            "0x000000000000000000000000ff8309b9e99bfd2d4021bc71a362abd93dbd4785"
          ],
          "data": "0x000000000000000000000000000000000000000000000000000000000002dc6c",
          "blockHash": "0x1eff5885bef14c2c1d809a61bc2caf6c398b75a08cfcce3ad315da4345b73d8d",
          "blockNumber": "0x2038571",
          "transactionHash": "0xc85d21d5b82b939b496847fb140f55c6caa5299d593969e4109e1326c280dfe7",
          "transactionIndex": "0xd",
          "logIndex": "0x21",
          "removed": false
        },
        {
          "address": "0x3e59a31363e2ad014dcbc521c4a0d5757d9f3402",
          "topics": [
            "0xa534c8dbe71f871f9f3530e97a74601fea17b426cae02e1c5aee42c96c784051",
            "0x000000000000000000000000ceba9300f2b948710d2653dd7b07f33a8b32118c",
            "0x000000000000000000000000c2a61494430f6a99d5f024ab6e76b1633c7c13c0",
            "0x000000000000000000000000c2a61494430f6a99d5f024ab6e76b1633c7c13c0"
          ],
          "data": "0x000000000000000000000000000000000000000000000000000000000002dc6c0000000000000000000000000000000000000000000000000000000000000000",
          "blockHash": "0x1eff5885bef14c2c1d809a61bc2caf6c398b75a08cfcce3ad315da4345b73d8d",
          "blockNumber": "0x2038571",
          "transactionHash": "0xc85d21d5b82b939b496847fb140f55c6caa5299d593969e4109e1326c280dfe7",
          "transactionIndex": "0xd",
          "logIndex": "0x22",
          "removed": false
        },
        {
          "address": "0xc2a61494430f6a99d5f024ab6e76b1633c7c13c0",
          "topics": [
            "0x0d4979b0859a1951f8ed7cbe3b1994e740552588f27ba02ca0f8f1ddcad16e0c",
            "0x0000000000000000000000000000000000000000000000000000000000000004"
          ],
          "data": "0x000000000000000000000000000000000000000000000000000000000002dc6c",
          "blockHash": "0x1eff5885bef14c2c1d809a61bc2caf6c398b75a08cfcce3ad315da4345b73d8d",
          "blockNumber": "0x2038571",
          "transactionHash": "0xc85d21d5b82b939b496847fb140f55c6caa5299d593969e4109e1326c280dfe7",
          "transactionIndex": "0xd",
          "logIndex": "0x23",
          "removed": false
        }
      ],
      "logsBloom": "0x10000000000000010000120010400000000000000000000000000000000000000000000000000000000000000000400000110000c00000000000000000200000000000008000000000000008400000000000002000040000000000000000000088000000020000000000000200000800000000000000000000000010000000000000000000000000000000000000400000000000000000002200000000000000020001100000000000000000000000000000000000000000402000000000010000000002000080200000022000000000020000008000001000000000000020040010100000004010001800000000000000000000000000000000000000840000",
      "type": "0x0",
      "transactionHash": "0xc85d21d5b82b939b496847fb140f55c6caa5299d593969e4109e1326c280dfe7",
      "transactionIndex": "0xd",
      "blockHash": "0x1eff5885bef14c2c1d809a61bc2caf6c398b75a08cfcce3ad315da4345b73d8d",
      "blockNumber": "0x2038571",
      "gasUsed": "0x3537e",
      "effectiveGasPrice": "0x5d22cfc40",
      "from": "0x3a4db9e7306af09012ceb0f222d581fd1f0c6d71",
      "to": "0xc2a61494430f6a99d5f024ab6e76b1633c7c13c0",
      "contractAddress": null,
      "l1BaseFeeScalar": "0x0",
      "l1BlobBaseFee": "0x1d982c39",
      "l1BlobBaseFeeScalar": "0x0",
      "l1Fee": "0x0",
      "l1GasPrice": "0x2feb848a",
      "l1GasUsed": "0x640"
    },
    {
      "status": "0x1",
      "cumulativeGasUsed": "0x307023",
      "logs": [
        {
          "address": "0x3e59a31363e2ad014dcbc521c4a0d5757d9f3402",
          "topics": [
            "0x804c9b842b2748a22bb64b345453a3de7ca54a6ca45ce00d415894979e22897a",
            "0x00000000000000000000000048065fbbe25f71c9282ddf5e1cd6d6a887483d5e"
          ],
          "data": "0x00000000000000000000000000000000000000000000000b15ebe4b32b240ef70000000000000000000000000000000000000000000000000000000000000000000000000000000000000000000000000000000000001c268a74f9305ee00b6f0000000000000000000000000000000000000000033b5f8e1ff501302f0d29920000000000000000000000000000000000000000033bcca06329a1b7b2d798a0",
          "blockHash": "0xf8af88393d97db327e4c1f2ff87971369a8a9e930f78035cb1bc2cf6243efd43",
          "blockNumber": "0x2038572",
          "transactionHash": "0x1ccd825235d3985d7671e1ffe120730e57e94d7e225425ef248e5d2f9e6abde9",
          "transactionIndex": "0x10",
          "logIndex": "0x27",
          "removed": false
        },
        {
          "address": "0xdee98402a302e4d707fb9bf2bac66faeec31e8df",
          "topics": [
            "0xddf252ad1be2c89b69c2b068fc378daa952ba7f163c4a11628f55a4df523b3ef",
            "0x000000000000000000000000c2a61494430f6a99d5f024ab6e76b1633c7c13c0",
            "0x0000000000000000000000000000000000000000000000000000000000000000"
          ],
          "data": "0x00000000000000000000000000000000000000000000000000000000000186a0",
          "blockHash": "0xf8af88393d97db327e4c1f2ff87971369a8a9e930f78035cb1bc2cf6243efd43",
          "blockNumber": "0x2038572",
          "transactionHash": "0x1ccd825235d3985d7671e1ffe120730e57e94d7e225425ef248e5d2f9e6abde9",
          "transactionIndex": "0x10",
          "logIndex": "0x28",
          "removed": false
        },
        {
          "address": "0xdee98402a302e4d707fb9bf2bac66faeec31e8df",
          "topics": [
            "0x4cf25bc1d991c17529c25213d3cc0cda295eeaad5f13f361969b12ea48015f90",
            "0x000000000000000000000000c2a61494430f6a99d5f024ab6e76b1633c7c13c0",
            "0x0000000000000000000000003a4db9e7306af09012ceb0f222d581fd1f0c6d71"
          ],
          "data": "0x00000000000000000000000000000000000000000000000000000000000186a000000000000000000000000000000000000000000000000000000000000000000000000000000000000000000000000000000000033b5f8e1ff501302f0d2992",
          "blockHash": "0xf8af88393d97db327e4c1f2ff87971369a8a9e930f78035cb1bc2cf6243efd43",
          "blockNumber": "0x2038572",
          "transactionHash": "0x1ccd825235d3985d7671e1ffe120730e57e94d7e225425ef248e5d2f9e6abde9",
          "transactionIndex": "0x10",
          "logIndex": "0x29",
          "removed": false
        },
        {
          "address": "0x48065fbbe25f71c9282ddf5e1cd6d6a887483d5e",
          "topics": [
            "0xddf252ad1be2c89b69c2b068fc378daa952ba7f163c4a11628f55a4df523b3ef",
            "0x000000000000000000000000dee98402a302e4d707fb9bf2bac66faeec31e8df",
            "0x0000000000000000000000003a4db9e7306af09012ceb0f222d581fd1f0c6d71"
          ],
          "data": "0x00000000000000000000000000000000000000000000000000000000000186a0",
          "blockHash": "0xf8af88393d97db327e4c1f2ff87971369a8a9e930f78035cb1bc2cf6243efd43",
          "blockNumber": "0x2038572",
          "transactionHash": "0x1ccd825235d3985d7671e1ffe120730e57e94d7e225425ef248e5d2f9e6abde9",
          "transactionIndex": "0x10",
          "logIndex": "0x2a",
          "removed": false
        },
        {
          "address": "0x3e59a31363e2ad014dcbc521c4a0d5757d9f3402",
          "topics": [
            "0x3115d1449a7b732c986cba18244e897a450f61e1bb8d589cd2e69e6c8924f9f7",
            "0x00000000000000000000000048065fbbe25f71c9282ddf5e1cd6d6a887483d5e",
            "0x000000000000000000000000c2a61494430f6a99d5f024ab6e76b1633c7c13c0",
            "0x0000000000000000000000003a4db9e7306af09012ceb0f222d581fd1f0c6d71"
          ],
          "data": "0x00000000000000000000000000000000000000000000000000000000000186a0",
          "blockHash": "0xf8af88393d97db327e4c1f2ff87971369a8a9e930f78035cb1bc2cf6243efd43",
          "blockNumber": "0x2038572",
          "transactionHash": "0x1ccd825235d3985d7671e1ffe120730e57e94d7e225425ef248e5d2f9e6abde9",
          "transactionIndex": "0x10",
          "logIndex": "0x2b",
          "removed": false
        },
        {
          "address": "0xc2a61494430f6a99d5f024ab6e76b1633c7c13c0",
          "topics": [
            "0x2399e8aed1977410745a5211d8226a3a7d9278f50a8a197c5ec6e285bb437f0b",
            "0x0000000000000000000000000000000000000000000000000000000000000004"
          ],
          "data": "0x00000000000000000000000000000000000000000000000000000000000186a0",
          "blockHash": "0xf8af88393d97db327e4c1f2ff87971369a8a9e930f78035cb1bc2cf6243efd43",
          "blockNumber": "0x2038572",
          "transactionHash": "0x1ccd825235d3985d7671e1ffe120730e57e94d7e225425ef248e5d2f9e6abde9",
          "transactionIndex": "0x10",
          "logIndex": "0x2c",
          "removed": false
        }
      ],
      "logsBloom": "0x1000000000000000020000000000000000900000000000000000000000000000000000080000000000000000000000000001000080000000000000000000000000000000000000080000000840000000000000000004000000000000000000000800000002000000000000020000080000000000002002004000001000000000000001000000000000000000000040000000000000006000020000000000000000000000008100000000004000000000100000000000000040200000000001000000000200008000000000a000000040020000008000001000000000000120040000000000000000001000000000000000000000000000000000000000800000",
      "type": "0x0",
      "transactionHash": "0x1ccd825235d3985d7671e1ffe120730e57e94d7e225425ef248e5d2f9e6abde9",
      "transactionIndex": "0x10",
      "blockHash": "0xf8af88393d97db327e4c1f2ff87971369a8a9e930f78035cb1bc2cf6243efd43",
      "blockNumber": "0x2038572",
      "gasUsed": "0x53613",
      "effectiveGasPrice": "0x5d22cfc40",
      "from": "0x3a4db9e7306af09012ceb0f222d581fd1f0c6d71",
      "to": "0xc2a61494430f6a99d5f024ab6e76b1633c7c13c0",
      "contractAddress": null,
      "l1BaseFeeScalar": "0x0",
      "l1BlobBaseFee": "0x1a4e602c",
      "l1BlobBaseFeeScalar": "0x0",
      "l1Fee": "0x0",
      "l1GasPrice": "0x306be962",
      "l1GasUsed": "0x640"
    },
    {
      "status": "0x1",
      "cumulativeGasUsed": "0x3148b0",
      "logs": [
        {
          "address": "0xceba9300f2b948710d2653dd7b07f33a8b32118c",
          "topics": [
            "0x8c5be1e5ebec7d5bd14f71427d1e84f3dd0314c0f7b2291e5b200ac8c7c3b925",
            "0x0000000000000000000000003a4db9e7306af09012ceb0f222d581fd1f0c6d71",
            "0x000000000000000000000000c2a61494430f6a99d5f024ab6e76b1633c7c13c0"
          ],
          "data": "0x000000000000000000000000000000000000000000000000000000000005b8d8",
          "blockHash": "0xf8af88393d97db327e4c1f2ff87971369a8a9e930f78035cb1bc2cf6243efd43",
          "blockNumber": "0x2038572",
          "transactionHash": "0x7ae9df6f71ecfba5aa06e8cd54a14c6155f0d2eeabd866ba18eac2cfbc40e67d",
          "transactionIndex": "0x11",
          "logIndex": "0x2d",
          "removed": false
        }
      ],
      "logsBloom": "0x00000000000000000000100000000000000000000000000000000000000000000000000000000000000000000000000000000000000000000000000000200000000000000000000000000000000000000000000000000000000000000000000000000000000000000000000000000000000000000000000000000000000000000000000000000000000000000000400000000000000000000000000000000000020000000000000000000000000000000000000000000000000000000000000000000000000080000000020000000000020000000000001000000000000000000010000000000000001800000000000000000000000000000000000000800000",
      "type": "0x0",
      "transactionHash": "0x7ae9df6f71ecfba5aa06e8cd54a14c6155f0d2eeabd866ba18eac2cfbc40e67d",
      "transactionIndex": "0x11",
      "blockHash": "0xf8af88393d97db327e4c1f2ff87971369a8a9e930f78035cb1bc2cf6243efd43",
      "blockNumber": "0x2038572",
      "gasUsed": "0xd88d",
      "effectiveGasPrice": "0x5d22cfc40",
      "from": "0x3a4db9e7306af09012ceb0f222d581fd1f0c6d71",
      "to": "0xceba9300f2b948710d2653dd7b07f33a8b32118c",
      "contractAddress": null,
      "l1BaseFeeScalar": "0x0",
      "l1BlobBaseFee": "0x1a4e602c",
      "l1BlobBaseFeeScalar": "0x0",
      "l1Fee": "0x0",
      "l1GasPrice": "0x306be962",
      "l1GasUsed": "0x640"
    },
    {
      "status": "0x1",
      "cumulativeGasUsed": "0x35f259",
      "logs": [
        {
          "address": "0xceba9300f2b948710d2653dd7b07f33a8b32118c",
          "topics": [
            "0xddf252ad1be2c89b69c2b068fc378daa952ba7f163c4a11628f55a4df523b3ef",
            "0x0000000000000000000000003a4db9e7306af09012ceb0f222d581fd1f0c6d71",
            "0x000000000000000000000000c2a61494430f6a99d5f024ab6e76b1633c7c13c0"
          ],
          "data": "0x000000000000000000000000000000000000000000000000000000000002dc6c",
          "blockHash": "0xf8af88393d97db327e4c1f2ff87971369a8a9e930f78035cb1bc2cf6243efd43",
          "blockNumber": "0x2038572",
          "transactionHash": "0x8ee721b13d334dec496df0d3e4b0a610b6a9aabf07bc109dbc0690b648684bde",
          "transactionIndex": "0x14",
          "logIndex": "0x30",
          "removed": false
        },
        {
          "address": "0xceba9300f2b948710d2653dd7b07f33a8b32118c",
          "topics": [
            "0x8c5be1e5ebec7d5bd14f71427d1e84f3dd0314c0f7b2291e5b200ac8c7c3b925",
            "0x000000000000000000000000c2a61494430f6a99d5f024ab6e76b1633c7c13c0",
            "0x0000000000000000000000003e59a31363e2ad014dcbc521c4a0d5757d9f3402"
          ],
          "data": "0x000000000000000000000000000000000000000000000000000000000002dc6c",
          "blockHash": "0xf8af88393d97db327e4c1f2ff87971369a8a9e930f78035cb1bc2cf6243efd43",
          "blockNumber": "0x2038572",
          "transactionHash": "0x8ee721b13d334dec496df0d3e4b0a610b6a9aabf07bc109dbc0690b648684bde",
          "transactionIndex": "0x14",
          "logIndex": "0x31",
          "removed": false
        },
        {
          "address": "0xdbe517c0fa6467873b684eccbed77217e471e862",
          "topics": [
            "0xddf252ad1be2c89b69c2b068fc378daa952ba7f163c4a11628f55a4df523b3ef",
            "0x000000000000000000000000c2a61494430f6a99d5f024ab6e76b1633c7c13c0",
            "0x0000000000000000000000000000000000000000000000000000000000000000"
          ],
          "data": "0x000000000000000000000000000000000000000000000000000000000002dc6c",
          "blockHash": "0xf8af88393d97db327e4c1f2ff87971369a8a9e930f78035cb1bc2cf6243efd43",
          "blockNumber": "0x2038572",
          "transactionHash": "0x8ee721b13d334dec496df0d3e4b0a610b6a9aabf07bc109dbc0690b648684bde",
          "transactionIndex": "0x14",
          "logIndex": "0x32",
          "removed": false
        },
        {
          "address": "0xdbe517c0fa6467873b684eccbed77217e471e862",
          "topics": [
            "0x4cf25bc1d991c17529c25213d3cc0cda295eeaad5f13f361969b12ea48015f90",
            "0x000000000000000000000000c2a61494430f6a99d5f024ab6e76b1633c7c13c0",
            "0x0000000000000000000000000000000000000000000000000000000000000000"
          ],
          "data": "0x000000000000000000000000000000000000000000000000000000000002dc6c00000000000000000000000000000000000000000000000000000000000000000000000000000000000000000000000000000000033c4f5f17d2dd58cabf401f",
          "blockHash": "0xf8af88393d97db327e4c1f2ff87971369a8a9e930f78035cb1bc2cf6243efd43",
          "blockNumber": "0x2038572",
          "transactionHash": "0x8ee721b13d334dec496df0d3e4b0a610b6a9aabf07bc109dbc0690b648684bde",
          "transactionIndex": "0x14",
          "logIndex": "0x33",
          "removed": false
        },
        {
          "address": "0x3e59a31363e2ad014dcbc521c4a0d5757d9f3402",
          "topics": [
            "0x804c9b842b2748a22bb64b345453a3de7ca54a6ca45ce00d415894979e22897a",
            "0x000000000000000000000000ceba9300f2b948710d2653dd7b07f33a8b32118c"
          ],
          "data": "0x00000000000000000000000000000000000000000000d50bf94e61cc32571e5a000000000000000000000000000000000000000000000000000000000000000000000000000000000000000000000000000000000007b6882848c1c2e136f0490000000000000000000000000000000000000000033b68c368805d7c3ce15d3d0000000000000000000000000000000000000000033c4f5f17d2dd58cabf401f",
          "blockHash": "0xf8af88393d97db327e4c1f2ff87971369a8a9e930f78035cb1bc2cf6243efd43",
          "blockNumber": "0x2038572",
          "transactionHash": "0x8ee721b13d334dec496df0d3e4b0a610b6a9aabf07bc109dbc0690b648684bde",
          "transactionIndex": "0x14",
          "logIndex": "0x34",
          "removed": false
        },
        {
          "address": "0xceba9300f2b948710d2653dd7b07f33a8b32118c",
          "topics": [
            "0xddf252ad1be2c89b69c2b068fc378daa952ba7f163c4a11628f55a4df523b3ef",
            "0x000000000000000000000000c2a61494430f6a99d5f024ab6e76b1633c7c13c0",
            "0x000000000000000000000000ff8309b9e99bfd2d4021bc71a362abd93dbd4785"
          ],
          "data": "0x000000000000000000000000000000000000000000000000000000000002dc6c",
          "blockHash": "0xf8af88393d97db327e4c1f2ff87971369a8a9e930f78035cb1bc2cf6243efd43",
          "blockNumber": "0x2038572",
          "transactionHash": "0x8ee721b13d334dec496df0d3e4b0a610b6a9aabf07bc109dbc0690b648684bde",
          "transactionIndex": "0x14",
          "logIndex": "0x35",
          "removed": false
        },
        {
          "address": "0x3e59a31363e2ad014dcbc521c4a0d5757d9f3402",
          "topics": [
            "0xa534c8dbe71f871f9f3530e97a74601fea17b426cae02e1c5aee42c96c784051",
            "0x000000000000000000000000ceba9300f2b948710d2653dd7b07f33a8b32118c",
            "0x000000000000000000000000c2a61494430f6a99d5f024ab6e76b1633c7c13c0",
            "0x000000000000000000000000c2a61494430f6a99d5f024ab6e76b1633c7c13c0"
          ],
          "data": "0x000000000000000000000000000000000000000000000000000000000002dc6c0000000000000000000000000000000000000000000000000000000000000000",
          "blockHash": "0xf8af88393d97db327e4c1f2ff87971369a8a9e930f78035cb1bc2cf6243efd43",
          "blockNumber": "0x2038572",
          "transactionHash": "0x8ee721b13d334dec496df0d3e4b0a610b6a9aabf07bc109dbc0690b648684bde",
          "transactionIndex": "0x14",
          "logIndex": "0x36",
          "removed": false
        },
        {
          "address": "0xc2a61494430f6a99d5f024ab6e76b1633c7c13c0",
          "topics": [
            "0x0d4979b0859a1951f8ed7cbe3b1994e740552588f27ba02ca0f8f1ddcad16e0c",
            "0x0000000000000000000000000000000000000000000000000000000000000004"
          ],
          "data": "0x000000000000000000000000000000000000000000000000000000000002dc6c",
          "blockHash": "0xf8af88393d97db327e4c1f2ff87971369a8a9e930f78035cb1bc2cf6243efd43",
          "blockNumber": "0x2038572",
          "transactionHash": "0x8ee721b13d334dec496df0d3e4b0a610b6a9aabf07bc109dbc0690b648684bde",
          "transactionIndex": "0x14",
          "logIndex": "0x37",
          "removed": false
        }
      ],
      "logsBloom": "0x10000000000000010000120010400000000000000000000000000000000000000000000000000000000000000000400000110000c00000000000000000200000000000008000000000000008400000000000002000040000000000000000000088000000020000000000000200000800000000000000000000000010000000000000000000000000000000000000400000000000000000002200000000000000020001100000000000000000000000000000000000000000402000000000010000000002000080200000022000000000020000008000001000000000000020040010100000004010001800000000000000000000000000000000000000840000",
      "type": "0x0",
      "transactionHash": "0x8ee721b13d334dec496df0d3e4b0a610b6a9aabf07bc109dbc0690b648684bde",
      "transactionIndex": "0x14",
      "blockHash": "0xf8af88393d97db327e4c1f2ff87971369a8a9e930f78035cb1bc2cf6243efd43",
      "blockNumber": "0x2038572",
      "gasUsed": "0x35283",
      "effectiveGasPrice": "0x5d22cfc40",
      "from": "0x3a4db9e7306af09012ceb0f222d581fd1f0c6d71",
      "to": "0xc2a61494430f6a99d5f024ab6e76b1633c7c13c0",
      "contractAddress": null,
      "l1BaseFeeScalar": "0x0",
      "l1BlobBaseFee": "0x1a4e602c",
      "l1BlobBaseFeeScalar": "0x0",
      "l1Fee": "0x0",
      "l1GasPrice": "0x306be962",
      "l1GasUsed": "0x640"
    },
    {
      "status": "0x1",
      "cumulativeGasUsed": "0x2aa066",
      "logs": [
        {
          "address": "0x3e59a31363e2ad014dcbc521c4a0d5757d9f3402",
          "topics": [
            "0x804c9b842b2748a22bb64b345453a3de7ca54a6ca45ce00d415894979e22897a",
            "0x00000000000000000000000048065fbbe25f71c9282ddf5e1cd6d6a887483d5e"
          ],
          "data": "0x00000000000000000000000000000000000000000000000b15ec17315749b4790000000000000000000000000000000000000000000000000000000000000000000000000000000000000000000000000000000000001c268ab5155fb4b555eb0000000000000000000000000000000000000000033b5f8e1ff5071650bdd5b20000000000000000000000000000000000000000033bcca063389e7ac5eeb270",
          "blockHash": "0x7458eddeb5f0bff6576e760684a1ad2508c8a3b59ade060efdfec9c0c0e1376a",
          "blockNumber": "0x2038573",
          "transactionHash": "0x4751b47ce39d5f24c018f5bc78c482196e1e858411ff223a393d65235fbd32a9",
          "transactionIndex": "0x15",
          "logIndex": "0x35",
          "removed": false
        },
        {
          "address": "0xdee98402a302e4d707fb9bf2bac66faeec31e8df",
          "topics": [
            "0xddf252ad1be2c89b69c2b068fc378daa952ba7f163c4a11628f55a4df523b3ef",
            "0x000000000000000000000000c2a61494430f6a99d5f024ab6e76b1633c7c13c0",
            "0x0000000000000000000000000000000000000000000000000000000000000000"
          ],
          "data": "0x0000000000000000000000000000000000000000000000000000000000061a80",
          "blockHash": "0x7458eddeb5f0bff6576e760684a1ad2508c8a3b59ade060efdfec9c0c0e1376a",
          "blockNumber": "0x2038573",
          "transactionHash": "0x4751b47ce39d5f24c018f5bc78c482196e1e858411ff223a393d65235fbd32a9",
          "transactionIndex": "0x15",
          "logIndex": "0x36",
          "removed": false
        },
        {
          "address": "0xdee98402a302e4d707fb9bf2bac66faeec31e8df",
          "topics": [
            "0x4cf25bc1d991c17529c25213d3cc0cda295eeaad5f13f361969b12ea48015f90",
            "0x000000000000000000000000c2a61494430f6a99d5f024ab6e76b1633c7c13c0",
            "0x0000000000000000000000003a4db9e7306af09012ceb0f222d581fd1f0c6d71"
          ],
          "data": "0x0000000000000000000000000000000000000000000000000000000000061a8000000000000000000000000000000000000000000000000000000000000000000000000000000000000000000000000000000000033b5f8e1ff5071650bdd5b2",
          "blockHash": "0x7458eddeb5f0bff6576e760684a1ad2508c8a3b59ade060efdfec9c0c0e1376a",
          "blockNumber": "0x2038573",
          "transactionHash": "0x4751b47ce39d5f24c018f5bc78c482196e1e858411ff223a393d65235fbd32a9",
          "transactionIndex": "0x15",
          "logIndex": "0x37",
          "removed": false
        },
        {
          "address": "0x48065fbbe25f71c9282ddf5e1cd6d6a887483d5e",
          "topics": [
            "0xddf252ad1be2c89b69c2b068fc378daa952ba7f163c4a11628f55a4df523b3ef",
            "0x000000000000000000000000dee98402a302e4d707fb9bf2bac66faeec31e8df",
            "0x0000000000000000000000003a4db9e7306af09012ceb0f222d581fd1f0c6d71"
          ],
          "data": "0x0000000000000000000000000000000000000000000000000000000000061a80",
          "blockHash": "0x7458eddeb5f0bff6576e760684a1ad2508c8a3b59ade060efdfec9c0c0e1376a",
          "blockNumber": "0x2038573",
          "transactionHash": "0x4751b47ce39d5f24c018f5bc78c482196e1e858411ff223a393d65235fbd32a9",
          "transactionIndex": "0x15",
          "logIndex": "0x38",
          "removed": false
        },
        {
          "address": "0x3e59a31363e2ad014dcbc521c4a0d5757d9f3402",
          "topics": [
            "0x3115d1449a7b732c986cba18244e897a450f61e1bb8d589cd2e69e6c8924f9f7",
            "0x00000000000000000000000048065fbbe25f71c9282ddf5e1cd6d6a887483d5e",
            "0x000000000000000000000000c2a61494430f6a99d5f024ab6e76b1633c7c13c0",
            "0x0000000000000000000000003a4db9e7306af09012ceb0f222d581fd1f0c6d71"
          ],
          "data": "0x0000000000000000000000000000000000000000000000000000000000061a80",
          "blockHash": "0x7458eddeb5f0bff6576e760684a1ad2508c8a3b59ade060efdfec9c0c0e1376a",
          "blockNumber": "0x2038573",
          "transactionHash": "0x4751b47ce39d5f24c018f5bc78c482196e1e858411ff223a393d65235fbd32a9",
          "transactionIndex": "0x15",
          "logIndex": "0x39",
          "removed": false
        },
        {
          "address": "0xc2a61494430f6a99d5f024ab6e76b1633c7c13c0",
          "topics": [
            "0x2399e8aed1977410745a5211d8226a3a7d9278f50a8a197c5ec6e285bb437f0b",
            "0x0000000000000000000000000000000000000000000000000000000000000004"
          ],
          "data": "0x0000000000000000000000000000000000000000000000000000000000061a80",
          "blockHash": "0x7458eddeb5f0bff6576e760684a1ad2508c8a3b59ade060efdfec9c0c0e1376a",
          "blockNumber": "0x2038573",
          "transactionHash": "0x4751b47ce39d5f24c018f5bc78c482196e1e858411ff223a393d65235fbd32a9",
          "transactionIndex": "0x15",
          "logIndex": "0x3a",
          "removed": false
        }
      ],
      "logsBloom": "0x1000000000000000020000000000000000900000000000000000000000000000000000080000000000000000000000000001000080000000000000000000000000000000000000080000000840000000000000000004000000000000000000000800000002000000000000020000080000000000002002004000001000000000000001000000000000000000000040000000000000006000020000000000000000000000008100000000004000000000100000000000000040200000000001000000000200008000000000a000000040020000008000001000000000000120040000000000000000001000000000000000000000000000000000000000800000",
      "type": "0x0",
      "transactionHash": "0x4751b47ce39d5f24c018f5bc78c482196e1e858411ff223a393d65235fbd32a9",
      "transactionIndex": "0x15",
      "blockHash": "0x7458eddeb5f0bff6576e760684a1ad2508c8a3b59ade060efdfec9c0c0e1376a",
      "blockNumber": "0x2038573",
      "gasUsed": "0x52357",
      "effectiveGasPrice": "0x5d22cfc40",
      "from": "0x3a4db9e7306af09012ceb0f222d581fd1f0c6d71",
      "to": "0xc2a61494430f6a99d5f024ab6e76b1633c7c13c0",
      "contractAddress": null,
      "l1BaseFeeScalar": "0x0",
      "l1BlobBaseFee": "0x1a4e602c",
      "l1BlobBaseFeeScalar": "0x0",
      "l1Fee": "0x0",
      "l1GasPrice": "0x2fc0ffe2",
      "l1GasUsed": "0x640"
    }
  ],
  "libraries": [],
  "pending": [],
  "returns": {},
  "timestamp": 1745685962,
  "chain": 42220,
  "commit": "1cefd9d"
}