{
  "transactions": [
    {
      "hash": "0xfabe3bbd7077c331c07352cedacdccc57618e0cf64af91dd882fd58f149b9349",
      "transactionType": "CALL",
      "contractName": null,
      "contractAddress": "0x48065fbbe25f71c9282ddf5e1cd6d6a887483d5e",
      "function": "approve(address,uint256)",
      "arguments": [
        "0xd2B508298fCC37261953684744ec4CCc734d5083",
        "500000"
      ],
      "transaction": {
        "from": "0x3a4db9e7306af09012ceb0f222d581fd1f0c6d71",
        "to": "0x48065fbbe25f71c9282ddf5e1cd6d6a887483d5e",
        "gas": "0x1201c",
        "value": "0x0",
        "input": "0x095ea7b3000000000000000000000000d2b508298fcc37261953684744ec4ccc734d5083000000000000000000000000000000000000000000000000000000000007a120",
        "nonce": "0xa5",
        "chainId": "0xa4ec"
      },
      "additionalContracts": [],
      "isFixedGasLimit": false
    },
    {
      "hash": "0xb02ce8849a21c9531123a23e5542d2085308dc954d2f7bdfbf8ea1d3c5632cef",
      "transactionType": "CALL",
      "contractName": null,
      "contractAddress": "0xd2b508298fcc37261953684744ec4ccc734d5083",
      "function": "createPosition(address,uint256,address,uint256,uint256)",
      "arguments": [
        "0x48065fbBE25f71C9282ddf5e1cD6D6A887483D5e",
        "500000",
        "0xcebA9300f2b948710d2653dD7B07f33A8B32118C",
        "250000",
        "2"
      ],
      "transaction": {
        "from": "0x3a4db9e7306af09012ceb0f222d581fd1f0c6d71",
        "to": "0xd2b508298fcc37261953684744ec4ccc734d5083",
        "gas": "0x10b439",
        "value": "0x0",
        "input": "0xb0c3d5df00000000000000000000000048065fbbe25f71c9282ddf5e1cd6d6a887483d5e000000000000000000000000000000000000000000000000000000000007a120000000000000000000000000ceba9300f2b948710d2653dd7b07f33a8b32118c000000000000000000000000000000000000000000000000000000000003d0900000000000000000000000000000000000000000000000000000000000000002",
        "nonce": "0xa6",
        "chainId": "0xa4ec"
      },
      "additionalContracts": [],
      "isFixedGasLimit": false
    },
    {
      "hash": "0x962241cdd8ddfbe7cd77f43457f0c20bd4b930098c0d055e495b3583648e8da3",
      "transactionType": "CALL",
      "contractName": null,
      "contractAddress": "0x48065fbbe25f71c9282ddf5e1cd6d6a887483d5e",
      "function": "approve(address,uint256)",
      "arguments": [
        "0xd2B508298fCC37261953684744ec4CCc734d5083",
        "250000"
      ],
      "transaction": {
        "from": "0x3a4db9e7306af09012ceb0f222d581fd1f0c6d71",
        "to": "0x48065fbbe25f71c9282ddf5e1cd6d6a887483d5e",
        "gas": "0x1201c",
        "value": "0x0",
        "input": "0x095ea7b3000000000000000000000000d2b508298fcc37261953684744ec4ccc734d5083000000000000000000000000000000000000000000000000000000000003d090",
        "nonce": "0xa7",
        "chainId": "0xa4ec"
      },
      "additionalContracts": [],
      "isFixedGasLimit": false
    },
    {
      "hash": "0x5b454b40a119225bff26a16f38981c89ae47070057260531a9cfa21baef9d89b",
      "transactionType": "CALL",
      "contractName": null,
      "contractAddress": "0xd2b508298fcc37261953684744ec4ccc734d5083",
      "function": "addCollateral(uint256,uint256)",
      "arguments": [
        "1",
        "250000"
      ],
      "transaction": {
        "from": "0x3a4db9e7306af09012ceb0f222d581fd1f0c6d71",
        "to": "0xd2b508298fcc37261953684744ec4ccc734d5083",
        "gas": "0x4b6d2",
        "value": "0x0",
        "input": "0xa8f35adf0000000000000000000000000000000000000000000000000000000000000001000000000000000000000000000000000000000000000000000000000003d090",
        "nonce": "0xa8",
        "chainId": "0xa4ec"
      },
      "additionalContracts": [],
      "isFixedGasLimit": false
    },
    {
      "hash": "0x4c0f656bc409a47968b682796cd2dc3bb3f457736bd3fdb7870a70702a7ce260",
      "transactionType": "CALL",
      "contractName": null,
      "contractAddress": "0xd2b508298fcc37261953684744ec4ccc734d5083",
      "function": "increaseBorrow(uint256,uint256)",
      "arguments": [
        "1",
        "125000"
      ],
      "transaction": {
        "from": "0x3a4db9e7306af09012ceb0f222d581fd1f0c6d71",
        "to": "0xd2b508298fcc37261953684744ec4ccc734d5083",
        "gas": "0x815b7",
        "value": "0x0",
        "input": "0x9e6824d90000000000000000000000000000000000000000000000000000000000000001000000000000000000000000000000000000000000000000000000000001e848",
        "nonce": "0xa9",
        "chainId": "0xa4ec"
      },
      "additionalContracts": [],
      "isFixedGasLimit": false
    },
    {
      "hash": "0xd1a5d9d4ba81e27436f5bb2e32c102d9d157f94e26d7c8688c085a8c42b651b5",
      "transactionType": "CALL",
      "contractName": null,
      "contractAddress": "0xceba9300f2b948710d2653dd7b07f33a8b32118c",
      "function": "approve(address,uint256)",
      "arguments": [
        "0xd2B508298fCC37261953684744ec4CCc734d5083",
        "187500"
      ],
      "transaction": {
        "from": "0x3a4db9e7306af09012ceb0f222d581fd1f0c6d71",
        "to": "0xceba9300f2b948710d2653dd7b07f33a8b32118c",
        "gas": "0x12b1b",
        "value": "0x0",
        "input": "0x095ea7b3000000000000000000000000d2b508298fcc37261953684744ec4ccc734d5083000000000000000000000000000000000000000000000000000000000002dc6c",
        "nonce": "0xaa",
        "chainId": "0xa4ec"
      },
      "additionalContracts": [],
      "isFixedGasLimit": false
    },
    {
      "hash": "0xb9f77fb1f74c876998a1ef9beba5ccc262d573791406faadc156f28e096f5a77",
      "transactionType": "CALL",
      "contractName": null,
      "contractAddress": "0xd2b508298fcc37261953684744ec4ccc734d5083",
      "function": "repayDebt(uint256,uint256)",
      "arguments": [
        "1",
        "187500"
      ],
      "transaction": {
        "from": "0x3a4db9e7306af09012ceb0f222d581fd1f0c6d71",
        "to": "0xd2b508298fcc37261953684744ec4ccc734d5083",
        "gas": "0x4874c",
        "value": "0x0",
        "input": "0x015cb0a50000000000000000000000000000000000000000000000000000000000000001000000000000000000000000000000000000000000000000000000000002dc6c",
        "nonce": "0xab",
        "chainId": "0xa4ec"
      },
      "additionalContracts": [],
      "isFixedGasLimit": false
    },
    {
      "hash": "0x5c35f1940ed6ecc51d7db343f839e64070ba57b885cb3112cfc59c762ff81bc1",
      "transactionType": "CALL",
      "contractName": null,
      "contractAddress": "0xd2b508298fcc37261953684744ec4ccc734d5083",
      "function": "withdrawCollateral(uint256,uint256)",
      "arguments": [
        "1",
        "150000"
      ],
      "transaction": {
        "from": "0x3a4db9e7306af09012ceb0f222d581fd1f0c6d71",
        "to": "0xd2b508298fcc37261953684744ec4ccc734d5083",
        "gas": "0x75c35",
        "value": "0x0",
        "input": "0x767a7b05000000000000000000000000000000000000000000000000000000000000000100000000000000000000000000000000000000000000000000000000000249f0",
        "nonce": "0xac",
        "chainId": "0xa4ec"
      },
      "additionalContracts": [],
      "isFixedGasLimit": false
    },
    {
      "hash": "0x18473276c722d76f6bdf120b87070e654231f339ecf9db6403c5acab838ee954",
      "transactionType": "CALL",
      "contractName": null,
      "contractAddress": "0xceba9300f2b948710d2653dd7b07f33a8b32118c",
      "function": "approve(address,uint256)",
      "arguments": [
        "0xd2B508298fCC37261953684744ec4CCc734d5083",
        "375000"
      ],
      "transaction": {
        "from": "0x3a4db9e7306af09012ceb0f222d581fd1f0c6d71",
        "to": "0xceba9300f2b948710d2653dd7b07f33a8b32118c",
        "gas": "0x12b1b",
        "value": "0x0",
        "input": "0x095ea7b3000000000000000000000000d2b508298fcc37261953684744ec4ccc734d5083000000000000000000000000000000000000000000000000000000000005b8d8",
        "nonce": "0xad",
        "chainId": "0xa4ec"
      },
      "additionalContracts": [],
      "isFixedGasLimit": false
    },
    {
      "hash": "0xeb1485a0b5ff80f6f6364485c223efd9a9297d53249fbcf866145d18448436e3",
      "transactionType": "CALL",
      "contractName": null,
      "contractAddress": "0xd2b508298fcc37261953684744ec4ccc734d5083",
      "function": "repayDebt(uint256,uint256)",
      "arguments": [
        "1",
        "187500"
      ],
      "transaction": {
        "from": "0x3a4db9e7306af09012ceb0f222d581fd1f0c6d71",
        "to": "0xd2b508298fcc37261953684744ec4ccc734d5083",
        "gas": "0x47dd5",
        "value": "0x0",
        "input": "0x015cb0a50000000000000000000000000000000000000000000000000000000000000001000000000000000000000000000000000000000000000000000000000002dc6c",
        "nonce": "0xae",
        "chainId": "0xa4ec"
      },
      "additionalContracts": [],
      "isFixedGasLimit": false
    },
    {
      "hash": "0x577a11caa127252ad7d148707f26d1f81b3c11ecae41eb6cbde5cd15e77b80e3",
      "transactionType": "CALL",
      "contractName": null,
      "contractAddress": "0xd2b508298fcc37261953684744ec4ccc734d5083",
      "function": "withdrawCollateral(uint256,uint256)",
      "arguments": [
        "1",
        "600000"
      ],
      "transaction": {
        "from": "0x3a4db9e7306af09012ceb0f222d581fd1f0c6d71",
        "to": "0xd2b508298fcc37261953684744ec4ccc734d5083",
        "gas": "0x57f65",
        "value": "0x0",
        "input": "0x767a7b05000000000000000000000000000000000000000000000000000000000000000100000000000000000000000000000000000000000000000000000000000927c0",
        "nonce": "0xaf",
        "chainId": "0xa4ec"
      },
      "additionalContracts": [],
      "isFixedGasLimit": false
    }
  ],
  "receipts": [
    {
      "status": "0x1",
      "cumulativeGasUsed": "0x22ce5e",
      "logs": [
        {
          "address": "0x48065fbbe25f71c9282ddf5e1cd6d6a887483d5e",
          "topics": [
            "0x8c5be1e5ebec7d5bd14f71427d1e84f3dd0314c0f7b2291e5b200ac8c7c3b925",
            "0x0000000000000000000000003a4db9e7306af09012ceb0f222d581fd1f0c6d71",
            "0x000000000000000000000000d2b508298fcc37261953684744ec4ccc734d5083"
          ],
          "data": "0x000000000000000000000000000000000000000000000000000000000007a120",
          "blockHash": "0xa1e1decad7bfd7153b1a72dd213f7e3fb56a758b70867b37b1649432c5574d8b",
          "blockNumber": "0x204747e",
          "transactionHash": "0xfabe3bbd7077c331c07352cedacdccc57618e0cf64af91dd882fd58f149b9349",
          "transactionIndex": "0x1b",
          "logIndex": "0x47",
          "removed": false
        }
      ],
      "logsBloom": "0x00000000000000000000000000000000000000000000000000000000000000000000000000000000000000000000000000000000000000000000000000200000000000000000000000000000000000000000000000000000000000000000000000000000000000000000000000000000000000000000000040000000000000000000010000000000000000000000400000000000000000000000000000000000020000000000000000000000000000000000000000000000000000000000000000000000000080000000008000000000000000000000001000000000000000000110100000000000000000000000000000000000000010000000000000000000",
      "type": "0x0",
      "transactionHash": "0xfabe3bbd7077c331c07352cedacdccc57618e0cf64af91dd882fd58f149b9349",
      "transactionIndex": "0x1b",
      "blockHash": "0xa1e1decad7bfd7153b1a72dd213f7e3fb56a758b70867b37b1649432c5574d8b",
      "blockNumber": "0x204747e",
      "gasUsed": "0xd097",
      "effectiveGasPrice": "0x5d22cfc40",
      "from": "0x3a4db9e7306af09012ceb0f222d581fd1f0c6d71",
      "to": "0x48065fbbe25f71c9282ddf5e1cd6d6a887483d5e",
      "contractAddress": null,
      "l1BaseFeeScalar": "0x0",
      "l1BlobBaseFee": "0x5c6712e7",
      "l1BlobBaseFeeScalar": "0x0",
      "l1Fee": "0x0",
      "l1GasPrice": "0x18e1f48d",
      "l1GasUsed": "0x640"
    },
    {
      "status": "0x1",
      "cumulativeGasUsed": "0x2e3a48",
      "logs": [
        {
          "address": "0x48065fbbe25f71c9282ddf5e1cd6d6a887483d5e",
          "topics": [
            "0xddf252ad1be2c89b69c2b068fc378daa952ba7f163c4a11628f55a4df523b3ef",
            "0x0000000000000000000000003a4db9e7306af09012ceb0f222d581fd1f0c6d71",
            "0x000000000000000000000000d2b508298fcc37261953684744ec4ccc734d5083"
          ],
          "data": "0x000000000000000000000000000000000000000000000000000000000007a120",
          "blockHash": "0xa1e1decad7bfd7153b1a72dd213f7e3fb56a758b70867b37b1649432c5574d8b",
          "blockNumber": "0x204747e",
          "transactionHash": "0xb02ce8849a21c9531123a23e5542d2085308dc954d2f7bdfbf8ea1d3c5632cef",
          "transactionIndex": "0x1c",
          "logIndex": "0x48",
          "removed": false
        },
        {
          "address": "0x48065fbbe25f71c9282ddf5e1cd6d6a887483d5e",
          "topics": [
            "0x8c5be1e5ebec7d5bd14f71427d1e84f3dd0314c0f7b2291e5b200ac8c7c3b925",
            "0x0000000000000000000000003a4db9e7306af09012ceb0f222d581fd1f0c6d71",
            "0x000000000000000000000000d2b508298fcc37261953684744ec4ccc734d5083"
          ],
          "data": "0x0000000000000000000000000000000000000000000000000000000000000000",
          "blockHash": "0xa1e1decad7bfd7153b1a72dd213f7e3fb56a758b70867b37b1649432c5574d8b",
          "blockNumber": "0x204747e",
          "transactionHash": "0xb02ce8849a21c9531123a23e5542d2085308dc954d2f7bdfbf8ea1d3c5632cef",
          "transactionIndex": "0x1c",
          "logIndex": "0x49",
          "removed": false
        },
        {
          "address": "0x48065fbbe25f71c9282ddf5e1cd6d6a887483d5e",
          "topics": [
            "0x8c5be1e5ebec7d5bd14f71427d1e84f3dd0314c0f7b2291e5b200ac8c7c3b925",
            "0x000000000000000000000000d2b508298fcc37261953684744ec4ccc734d5083",
            "0x0000000000000000000000003e59a31363e2ad014dcbc521c4a0d5757d9f3402"
          ],
          "data": "0x000000000000000000000000000000000000000000000000000000000007a120",
          "blockHash": "0xa1e1decad7bfd7153b1a72dd213f7e3fb56a758b70867b37b1649432c5574d8b",
          "blockNumber": "0x204747e",
          "transactionHash": "0xb02ce8849a21c9531123a23e5542d2085308dc954d2f7bdfbf8ea1d3c5632cef",
          "transactionIndex": "0x1c",
          "logIndex": "0x4a",
          "removed": false
        },
        {
          "address": "0x3e59a31363e2ad014dcbc521c4a0d5757d9f3402",
          "topics": [
            "0x804c9b842b2748a22bb64b345453a3de7ca54a6ca45ce00d415894979e22897a",
            "0x00000000000000000000000048065fbbe25f71c9282ddf5e1cd6d6a887483d5e"
          ],
          "data": "0x00000000000000000000000000000000000000000000000b15eb9a0f5b346a0e0000000000000000000000000000000000000000000000000000000000000000000000000000000000000000000000000000000000001c268a163441963604c60000000000000000000000000000000000000000033b5f8e257721414100b2980000000000000000000000000000000000000000033bccae61d77f7f44db437b",
          "blockHash": "0xa1e1decad7bfd7153b1a72dd213f7e3fb56a758b70867b37b1649432c5574d8b",
          "blockNumber": "0x204747e",
          "transactionHash": "0xb02ce8849a21c9531123a23e5542d2085308dc954d2f7bdfbf8ea1d3c5632cef",
          "transactionIndex": "0x1c",
          "logIndex": "0x4b",
          "removed": false
        },
        {
          "address": "0x48065fbbe25f71c9282ddf5e1cd6d6a887483d5e",
          "topics": [
            "0xddf252ad1be2c89b69c2b068fc378daa952ba7f163c4a11628f55a4df523b3ef",
            "0x000000000000000000000000d2b508298fcc37261953684744ec4ccc734d5083",
            "0x000000000000000000000000dee98402a302e4d707fb9bf2bac66faeec31e8df"
          ],
          "data": "0x000000000000000000000000000000000000000000000000000000000007a120",
          "blockHash": "0xa1e1decad7bfd7153b1a72dd213f7e3fb56a758b70867b37b1649432c5574d8b",
          "blockNumber": "0x204747e",
          "transactionHash": "0xb02ce8849a21c9531123a23e5542d2085308dc954d2f7bdfbf8ea1d3c5632cef",
          "transactionIndex": "0x1c",
          "logIndex": "0x4c",
          "removed": false
        },
        {
          "address": "0x48065fbbe25f71c9282ddf5e1cd6d6a887483d5e",
          "topics": [
            "0x8c5be1e5ebec7d5bd14f71427d1e84f3dd0314c0f7b2291e5b200ac8c7c3b925",
            "0x000000000000000000000000d2b508298fcc37261953684744ec4ccc734d5083",
            "0x0000000000000000000000003e59a31363e2ad014dcbc521c4a0d5757d9f3402"
          ],
          "data": "0x0000000000000000000000000000000000000000000000000000000000000000",
          "blockHash": "0xa1e1decad7bfd7153b1a72dd213f7e3fb56a758b70867b37b1649432c5574d8b",
          "blockNumber": "0x204747e",
          "transactionHash": "0xb02ce8849a21c9531123a23e5542d2085308dc954d2f7bdfbf8ea1d3c5632cef",
          "transactionIndex": "0x1c",
          "logIndex": "0x4d",
          "removed": false
        },
        {
          "address": "0xdee98402a302e4d707fb9bf2bac66faeec31e8df",
          "topics": [
            "0xddf252ad1be2c89b69c2b068fc378daa952ba7f163c4a11628f55a4df523b3ef",
            "0x0000000000000000000000000000000000000000000000000000000000000000",
            "0x000000000000000000000000d2b508298fcc37261953684744ec4ccc734d5083"
          ],
          "data": "0x000000000000000000000000000000000000000000000000000000000007a120",
          "blockHash": "0xa1e1decad7bfd7153b1a72dd213f7e3fb56a758b70867b37b1649432c5574d8b",
          "blockNumber": "0x204747e",
          "transactionHash": "0xb02ce8849a21c9531123a23e5542d2085308dc954d2f7bdfbf8ea1d3c5632cef",
          "transactionIndex": "0x1c",
          "logIndex": "0x4e",
          "removed": false
        },
        {
          "address": "0xdee98402a302e4d707fb9bf2bac66faeec31e8df",
          "topics": [
            "0x458f5fa412d0f69b08dd84872b0215675cc67bc1d5b6fd93300a1c3878b86196",
            "0x000000000000000000000000d2b508298fcc37261953684744ec4ccc734d5083",
            "0x000000000000000000000000d2b508298fcc37261953684744ec4ccc734d5083"
          ],
          "data": "0x000000000000000000000000000000000000000000000000000000000007a12000000000000000000000000000000000000000000000000000000000000000000000000000000000000000000000000000000000033b5f8e257721414100b298",
          "blockHash": "0xa1e1decad7bfd7153b1a72dd213f7e3fb56a758b70867b37b1649432c5574d8b",
          "blockNumber": "0x204747e",
          "transactionHash": "0xb02ce8849a21c9531123a23e5542d2085308dc954d2f7bdfbf8ea1d3c5632cef",
          "transactionIndex": "0x1c",
          "logIndex": "0x4f",
          "removed": false
        },
        {
          "address": "0x3e59a31363e2ad014dcbc521c4a0d5757d9f3402",
          "topics": [
            "0x00058a56ea94653cdf4f152d227ace22d4c00ad99e2a43f58cb7d9e3feb295f2",
            "0x00000000000000000000000048065fbbe25f71c9282ddf5e1cd6d6a887483d5e",
            "0x000000000000000000000000d2b508298fcc37261953684744ec4ccc734d5083"
          ],
          "data": "0x",
          "blockHash": "0xa1e1decad7bfd7153b1a72dd213f7e3fb56a758b70867b37b1649432c5574d8b",
          "blockNumber": "0x204747e",
          "transactionHash": "0xb02ce8849a21c9531123a23e5542d2085308dc954d2f7bdfbf8ea1d3c5632cef",
          "transactionIndex": "0x1c",
          "logIndex": "0x50",
          "removed": false
        },
        {
          "address": "0x3e59a31363e2ad014dcbc521c4a0d5757d9f3402",
          "topics": [
            "0x2b627736bca15cd5381dcf80b0bf11fd197d01a037c52b927a881a10fb73ba61",
            "0x00000000000000000000000048065fbbe25f71c9282ddf5e1cd6d6a887483d5e",
            "0x000000000000000000000000d2b508298fcc37261953684744ec4ccc734d5083",
            "0x0000000000000000000000000000000000000000000000000000000000000000"
          ],
          "data": "0x000000000000000000000000d2b508298fcc37261953684744ec4ccc734d5083000000000000000000000000000000000000000000000000000000000007a120",
          "blockHash": "0xa1e1decad7bfd7153b1a72dd213f7e3fb56a758b70867b37b1649432c5574d8b",
          "blockNumber": "0x204747e",
          "transactionHash": "0xb02ce8849a21c9531123a23e5542d2085308dc954d2f7bdfbf8ea1d3c5632cef",
          "transactionIndex": "0x1c",
          "logIndex": "0x51",
          "removed": false
        },
        {
          "address": "0xdbe517c0fa6467873b684eccbed77217e471e862",
          "topics": [
            "0xddf252ad1be2c89b69c2b068fc378daa952ba7f163c4a11628f55a4df523b3ef",
            "0x0000000000000000000000000000000000000000000000000000000000000000",
            "0x000000000000000000000000d2b508298fcc37261953684744ec4ccc734d5083"
          ],
          "data": "0x000000000000000000000000000000000000000000000000000000000003d090",
          "blockHash": "0xa1e1decad7bfd7153b1a72dd213f7e3fb56a758b70867b37b1649432c5574d8b",
          "blockNumber": "0x204747e",
          "transactionHash": "0xb02ce8849a21c9531123a23e5542d2085308dc954d2f7bdfbf8ea1d3c5632cef",
          "transactionIndex": "0x1c",
          "logIndex": "0x52",
          "removed": false
        },
        {
          "address": "0xdbe517c0fa6467873b684eccbed77217e471e862",
          "topics": [
            "0x458f5fa412d0f69b08dd84872b0215675cc67bc1d5b6fd93300a1c3878b86196",
            "0x000000000000000000000000d2b508298fcc37261953684744ec4ccc734d5083",
            "0x000000000000000000000000d2b508298fcc37261953684744ec4ccc734d5083"
          ],
          "data": "0x000000000000000000000000000000000000000000000000000000000003d09000000000000000000000000000000000000000000000000000000000000000000000000000000000000000000000000000000000033c5335a417ee5afa9e5705",
          "blockHash": "0xa1e1decad7bfd7153b1a72dd213f7e3fb56a758b70867b37b1649432c5574d8b",
          "blockNumber": "0x204747e",
          "transactionHash": "0xb02ce8849a21c9531123a23e5542d2085308dc954d2f7bdfbf8ea1d3c5632cef",
          "transactionIndex": "0x1c",
          "logIndex": "0x53",
          "removed": false
        },
        {
          "address": "0x3e59a31363e2ad014dcbc521c4a0d5757d9f3402",
          "topics": [
            "0x804c9b842b2748a22bb64b345453a3de7ca54a6ca45ce00d415894979e22897a",
            "0x000000000000000000000000ceba9300f2b948710d2653dd7b07f33a8b32118c"
          ],
          "data": "0x00000000000000000000000000000000000000000000d6140f21a7322c862647000000000000000000000000000000000000000000000000000000000000000000000000000000000000000000000000000000000007bb4e75a2cbc1448a0c180000000000000000000000000000000000000000033b692d56f8652d415850670000000000000000000000000000000000000000033c5335a417ee5afa9e5705",
          "blockHash": "0xa1e1decad7bfd7153b1a72dd213f7e3fb56a758b70867b37b1649432c5574d8b",
          "blockNumber": "0x204747e",
          "transactionHash": "0xb02ce8849a21c9531123a23e5542d2085308dc954d2f7bdfbf8ea1d3c5632cef",
          "transactionIndex": "0x1c",
          "logIndex": "0x54",
          "removed": false
        },
        {
          "address": "0xceba9300f2b948710d2653dd7b07f33a8b32118c",
          "topics": [
            "0xddf252ad1be2c89b69c2b068fc378daa952ba7f163c4a11628f55a4df523b3ef",
            "0x000000000000000000000000ff8309b9e99bfd2d4021bc71a362abd93dbd4785",
            "0x000000000000000000000000d2b508298fcc37261953684744ec4ccc734d5083"
          ],
          "data": "0x000000000000000000000000000000000000000000000000000000000003d090",
          "blockHash": "0xa1e1decad7bfd7153b1a72dd213f7e3fb56a758b70867b37b1649432c5574d8b",
          "blockNumber": "0x204747e",
          "transactionHash": "0xb02ce8849a21c9531123a23e5542d2085308dc954d2f7bdfbf8ea1d3c5632cef",
          "transactionIndex": "0x1c",
          "logIndex": "0x55",
          "removed": false
        },
        {
          "address": "0x3e59a31363e2ad014dcbc521c4a0d5757d9f3402",
          "topics": [
            "0xb3d084820fb1a9decffb176436bd02558d15fac9b0ddfed8c465bc7359d7dce0",
            "0x000000000000000000000000ceba9300f2b948710d2653dd7b07f33a8b32118c",
            "0x000000000000000000000000d2b508298fcc37261953684744ec4ccc734d5083",
            "0x0000000000000000000000000000000000000000000000000000000000000000"
          ],
          "data": "0x000000000000000000000000d2b508298fcc37261953684744ec4ccc734d5083000000000000000000000000000000000000000000000000000000000003d090000000000000000000000000000000000000000000000000000000000000000200000000000000000000000000000000000000000007bb4e75a2cbc1448a0c18",
          "blockHash": "0xa1e1decad7bfd7153b1a72dd213f7e3fb56a758b70867b37b1649432c5574d8b",
          "blockNumber": "0x204747e",
          "transactionHash": "0xb02ce8849a21c9531123a23e5542d2085308dc954d2f7bdfbf8ea1d3c5632cef",
          "transactionIndex": "0x1c",
          "logIndex": "0x56",
          "removed": false
        },
        {
          "address": "0xceba9300f2b948710d2653dd7b07f33a8b32118c",
          "topics": [
            "0xddf252ad1be2c89b69c2b068fc378daa952ba7f163c4a11628f55a4df523b3ef",
            "0x000000000000000000000000d2b508298fcc37261953684744ec4ccc734d5083",
            "0x0000000000000000000000003a4db9e7306af09012ceb0f222d581fd1f0c6d71"
          ],
          "data": "0x000000000000000000000000000000000000000000000000000000000003d090",
          "blockHash": "0xa1e1decad7bfd7153b1a72dd213f7e3fb56a758b70867b37b1649432c5574d8b",
          "blockNumber": "0x204747e",
          "transactionHash": "0xb02ce8849a21c9531123a23e5542d2085308dc954d2f7bdfbf8ea1d3c5632cef",
          "transactionIndex": "0x1c",
          "logIndex": "0x57",
          "removed": false
        },
        {
          "address": "0xd2b508298fcc37261953684744ec4ccc734d5083",
          "topics": [
            "0x9f9b498443531d2db9df8a00ec466efc74ba50ec1d82f7badd3424b87930e19a",
            "0x0000000000000000000000000000000000000000000000000000000000000001",
            "0x0000000000000000000000003a4db9e7306af09012ceb0f222d581fd1f0c6d71"
          ],
          "data": "0x00000000000000000000000048065fbbe25f71c9282ddf5e1cd6d6a887483d5e000000000000000000000000000000000000000000000000000000000007a120000000000000000000000000ceba9300f2b948710d2653dd7b07f33a8b32118c000000000000000000000000000000000000000000000000000000000003d0900000000000000000000000000000000000000000000000000000000000000002",
          "blockHash": "0xa1e1decad7bfd7153b1a72dd213f7e3fb56a758b70867b37b1649432c5574d8b",
          "blockNumber": "0x204747e",
          "transactionHash": "0xb02ce8849a21c9531123a23e5542d2085308dc954d2f7bdfbf8ea1d3c5632cef",
          "transactionIndex": "0x1c",
          "logIndex": "0x58",
          "removed": false
        }
      ],
      "logsBloom": "0x0000000000000811028012000040000000100000000000000000000000000010000000080000000000002000000440000010000080000000000000000024000000000000800000080000000800000000000000000004000000000004000000000000000002000000000000000000080000000002000000004000001000000000000001008000000000000000000040000000000000000000220000000000000002000110000100000000004000000000100000000000000040000000000001000200000200008120000002a040000040000000000000041800020000000160000110100000004010000800000001000040000000000010000000400000000000",
      "type": "0x0",
      "transactionHash": "0xb02ce8849a21c9531123a23e5542d2085308dc954d2f7bdfbf8ea1d3c5632cef",
      "transactionIndex": "0x1c",
      "blockHash": "0xa1e1decad7bfd7153b1a72dd213f7e3fb56a758b70867b37b1649432c5574d8b",
      "blockNumber": "0x204747e",
      "gasUsed": "0xb6bea",
      "effectiveGasPrice": "0x5d22cfc40",
      "from": "0x3a4db9e7306af09012ceb0f222d581fd1f0c6d71",
      "to": "0xd2b508298fcc37261953684744ec4ccc734d5083",
      "contractAddress": null,
      "l1BaseFeeScalar": "0x0",
      "l1BlobBaseFee": "0x5c6712e7",
      "l1BlobBaseFeeScalar": "0x0",
      "l1Fee": "0x0",
      "l1GasPrice": "0x18e1f48d",
      "l1GasUsed": "0x77b"
    },
    {
      "status": "0x1",
      "cumulativeGasUsed": "0x31b91f",
      "logs": [
        {
          "address": "0x48065fbbe25f71c9282ddf5e1cd6d6a887483d5e",
          "topics": [
            "0x8c5be1e5ebec7d5bd14f71427d1e84f3dd0314c0f7b2291e5b200ac8c7c3b925",
            "0x0000000000000000000000003a4db9e7306af09012ceb0f222d581fd1f0c6d71",
            "0x000000000000000000000000d2b508298fcc37261953684744ec4ccc734d5083"
          ],
          "data": "0x000000000000000000000000000000000000000000000000000000000003d090",
          "blockHash": "0xa1e1decad7bfd7153b1a72dd213f7e3fb56a758b70867b37b1649432c5574d8b",
          "blockNumber": "0x204747e",
          "transactionHash": "0x962241cdd8ddfbe7cd77f43457f0c20bd4b930098c0d055e495b3583648e8da3",
          "transactionIndex": "0x21",
          "logIndex": "0x5d",
          "removed": false
        }
      ],
      "logsBloom": "0x00000000000000000000000000000000000000000000000000000000000000000000000000000000000000000000000000000000000000000000000000200000000000000000000000000000000000000000000000000000000000000000000000000000000000000000000000000000000000000000000040000000000000000000010000000000000000000000400000000000000000000000000000000000020000000000000000000000000000000000000000000000000000000000000000000000000080000000008000000000000000000000001000000000000000000110100000000000000000000000000000000000000010000000000000000000",
      "type": "0x0",
      "transactionHash": "0x962241cdd8ddfbe7cd77f43457f0c20bd4b930098c0d055e495b3583648e8da3",
      "transactionIndex": "0x21",
      "blockHash": "0xa1e1decad7bfd7153b1a72dd213f7e3fb56a758b70867b37b1649432c5574d8b",
      "blockNumber": "0x204747e",
      "gasUsed": "0xd097",
      "effectiveGasPrice": "0x5d22cfc40",
      "from": "0x3a4db9e7306af09012ceb0f222d581fd1f0c6d71",
      "to": "0x48065fbbe25f71c9282ddf5e1cd6d6a887483d5e",
      "contractAddress": null,
      "l1BaseFeeScalar": "0x0",
      "l1BlobBaseFee": "0x5c6712e7",
      "l1BlobBaseFeeScalar": "0x0",
      "l1Fee": "0x0",
      "l1GasPrice": "0x18e1f48d",
      "l1GasUsed": "0x640"
    },
    {
      "status": "0x1",
      "cumulativeGasUsed": "0x3522d7",
      "logs": [
        {
          "address": "0x48065fbbe25f71c9282ddf5e1cd6d6a887483d5e",
          "topics": [
            "0xddf252ad1be2c89b69c2b068fc378daa952ba7f163c4a11628f55a4df523b3ef",
            "0x0000000000000000000000003a4db9e7306af09012ceb0f222d581fd1f0c6d71",
            "0x000000000000000000000000d2b508298fcc37261953684744ec4ccc734d5083"
          ],
          "data": "0x000000000000000000000000000000000000000000000000000000000003d090",
          "blockHash": "0xa1e1decad7bfd7153b1a72dd213f7e3fb56a758b70867b37b1649432c5574d8b",
          "blockNumber": "0x204747e",
          "transactionHash": "0x5b454b40a119225bff26a16f38981c89ae47070057260531a9cfa21baef9d89b",
          "transactionIndex": "0x22",
          "logIndex": "0x5e",
          "removed": false
        },
        {
          "address": "0x48065fbbe25f71c9282ddf5e1cd6d6a887483d5e",
          "topics": [
            "0x8c5be1e5ebec7d5bd14f71427d1e84f3dd0314c0f7b2291e5b200ac8c7c3b925",
            "0x0000000000000000000000003a4db9e7306af09012ceb0f222d581fd1f0c6d71",
            "0x000000000000000000000000d2b508298fcc37261953684744ec4ccc734d5083"
          ],
          "data": "0x0000000000000000000000000000000000000000000000000000000000000000",
          "blockHash": "0xa1e1decad7bfd7153b1a72dd213f7e3fb56a758b70867b37b1649432c5574d8b",
          "blockNumber": "0x204747e",
          "transactionHash": "0x5b454b40a119225bff26a16f38981c89ae47070057260531a9cfa21baef9d89b",
          "transactionIndex": "0x22",
          "logIndex": "0x5f",
          "removed": false
        },
        {
          "address": "0x48065fbbe25f71c9282ddf5e1cd6d6a887483d5e",
          "topics": [
            "0x8c5be1e5ebec7d5bd14f71427d1e84f3dd0314c0f7b2291e5b200ac8c7c3b925",
            "0x000000000000000000000000d2b508298fcc37261953684744ec4ccc734d5083",
            "0x0000000000000000000000003e59a31363e2ad014dcbc521c4a0d5757d9f3402"
          ],
          "data": "0x000000000000000000000000000000000000000000000000000000000003d090",
          "blockHash": "0xa1e1decad7bfd7153b1a72dd213f7e3fb56a758b70867b37b1649432c5574d8b",
          "blockNumber": "0x204747e",
          "transactionHash": "0x5b454b40a119225bff26a16f38981c89ae47070057260531a9cfa21baef9d89b",
          "transactionIndex": "0x22",
          "logIndex": "0x60",
          "removed": false
        },
        {
          "address": "0x3e59a31363e2ad014dcbc521c4a0d5757d9f3402",
          "topics": [
            "0x804c9b842b2748a22bb64b345453a3de7ca54a6ca45ce00d415894979e22897a",
            "0x00000000000000000000000048065fbbe25f71c9282ddf5e1cd6d6a887483d5e"
          ],
          "data": "0x00000000000000000000000000000000000000000000000b15eb7a80821358780000000000000000000000000000000000000000000000000000000000000000000000000000000000000000000000000000000000001c2689ee22a650046d6a0000000000000000000000000000000000000000033b5f8e257721414100b2980000000000000000000000000000000000000000033bccae61d77f7f44db437b",
          "blockHash": "0xa1e1decad7bfd7153b1a72dd213f7e3fb56a758b70867b37b1649432c5574d8b",
          "blockNumber": "0x204747e",
          "transactionHash": "0x5b454b40a119225bff26a16f38981c89ae47070057260531a9cfa21baef9d89b",
          "transactionIndex": "0x22",
          "logIndex": "0x61",
          "removed": false
        },
        {
          "address": "0x48065fbbe25f71c9282ddf5e1cd6d6a887483d5e",
          "topics": [
            "0xddf252ad1be2c89b69c2b068fc378daa952ba7f163c4a11628f55a4df523b3ef",
            "0x000000000000000000000000d2b508298fcc37261953684744ec4ccc734d5083",
            "0x000000000000000000000000dee98402a302e4d707fb9bf2bac66faeec31e8df"
          ],
          "data": "0x000000000000000000000000000000000000000000000000000000000003d090",
          "blockHash": "0xa1e1decad7bfd7153b1a72dd213f7e3fb56a758b70867b37b1649432c5574d8b",
          "blockNumber": "0x204747e",
          "transactionHash": "0x5b454b40a119225bff26a16f38981c89ae47070057260531a9cfa21baef9d89b",
          "transactionIndex": "0x22",
          "logIndex": "0x62",
          "removed": false
        },
        {
          "address": "0x48065fbbe25f71c9282ddf5e1cd6d6a887483d5e",
          "topics": [
            "0x8c5be1e5ebec7d5bd14f71427d1e84f3dd0314c0f7b2291e5b200ac8c7c3b925",
            "0x000000000000000000000000d2b508298fcc37261953684744ec4ccc734d5083",
            "0x0000000000000000000000003e59a31363e2ad014dcbc521c4a0d5757d9f3402"
          ],
          "data": "0x0000000000000000000000000000000000000000000000000000000000000000",
          "blockHash": "0xa1e1decad7bfd7153b1a72dd213f7e3fb56a758b70867b37b1649432c5574d8b",
          "blockNumber": "0x204747e",
          "transactionHash": "0x5b454b40a119225bff26a16f38981c89ae47070057260531a9cfa21baef9d89b",
          "transactionIndex": "0x22",
          "logIndex": "0x63",
          "removed": false
        },
        {
          "address": "0xdee98402a302e4d707fb9bf2bac66faeec31e8df",
          "topics": [
            "0xddf252ad1be2c89b69c2b068fc378daa952ba7f163c4a11628f55a4df523b3ef",
            "0x0000000000000000000000000000000000000000000000000000000000000000",
            "0x000000000000000000000000d2b508298fcc37261953684744ec4ccc734d5083"
          ],
          "data": "0x000000000000000000000000000000000000000000000000000000000003d090",
          "blockHash": "0xa1e1decad7bfd7153b1a72dd213f7e3fb56a758b70867b37b1649432c5574d8b",
          "blockNumber": "0x204747e",
          "transactionHash": "0x5b454b40a119225bff26a16f38981c89ae47070057260531a9cfa21baef9d89b",
          "transactionIndex": "0x22",
          "logIndex": "0x64",
          "removed": false
        },
        {
          "address": "0xdee98402a302e4d707fb9bf2bac66faeec31e8df",
          "topics": [
            "0x458f5fa412d0f69b08dd84872b0215675cc67bc1d5b6fd93300a1c3878b86196",
            "0x000000000000000000000000d2b508298fcc37261953684744ec4ccc734d5083",
            "0x000000000000000000000000d2b508298fcc37261953684744ec4ccc734d5083"
          ],
          "data": "0x000000000000000000000000000000000000000000000000000000000003d09000000000000000000000000000000000000000000000000000000000000000000000000000000000000000000000000000000000033b5f8e257721414100b298",
          "blockHash": "0xa1e1decad7bfd7153b1a72dd213f7e3fb56a758b70867b37b1649432c5574d8b",
          "blockNumber": "0x204747e",
          "transactionHash": "0x5b454b40a119225bff26a16f38981c89ae47070057260531a9cfa21baef9d89b",
          "transactionIndex": "0x22",
          "logIndex": "0x65",
          "removed": false
        },
        {
          "address": "0x3e59a31363e2ad014dcbc521c4a0d5757d9f3402",
          "topics": [
            "0x2b627736bca15cd5381dcf80b0bf11fd197d01a037c52b927a881a10fb73ba61",
            "0x00000000000000000000000048065fbbe25f71c9282ddf5e1cd6d6a887483d5e",
            "0x000000000000000000000000d2b508298fcc37261953684744ec4ccc734d5083",
            "0x0000000000000000000000000000000000000000000000000000000000000000"
          ],
          "data": "0x000000000000000000000000d2b508298fcc37261953684744ec4ccc734d5083000000000000000000000000000000000000000000000000000000000003d090",
          "blockHash": "0xa1e1decad7bfd7153b1a72dd213f7e3fb56a758b70867b37b1649432c5574d8b",
          "blockNumber": "0x204747e",
          "transactionHash": "0x5b454b40a119225bff26a16f38981c89ae47070057260531a9cfa21baef9d89b",
          "transactionIndex": "0x22",
          "logIndex": "0x66",
          "removed": false
        },
        {
          "address": "0xd2b508298fcc37261953684744ec4ccc734d5083",
          "topics": [
            "0x244160b15e69cc411f041d94ae7fab6f6bba85dade8403216c05ff4b920d5449",
            "0x0000000000000000000000000000000000000000000000000000000000000001"
          ],
          "data": "0x000000000000000000000000000000000000000000000000000000000003d090",
          "blockHash": "0xa1e1decad7bfd7153b1a72dd213f7e3fb56a758b70867b37b1649432c5574d8b",
          "blockNumber": "0x204747e",
          "transactionHash": "0x5b454b40a119225bff26a16f38981c89ae47070057260531a9cfa21baef9d89b",
          "transactionIndex": "0x22",
          "logIndex": "0x67",
          "removed": false
        }
      ],
      "logsBloom": "0x0000000000000011020002000000000000100000000000000000000000000010000000080000000000000000000400000000000080020000000000000024000000000000000000080000000800000000000000000004000000000004000000000000000002000000000000000000080000000000000000004000001000000000000001000000000000000000000040000000000000000000020000000000000002000010000100000000004000000000100000000000000040000000000001000200000200008000000000a040000050000000000000001800000000000160000110100000000080000000000000000040000000000010000000400000000000",
      "type": "0x0",
      "transactionHash": "0x5b454b40a119225bff26a16f38981c89ae47070057260531a9cfa21baef9d89b",
      "transactionIndex": "0x22",
      "blockHash": "0xa1e1decad7bfd7153b1a72dd213f7e3fb56a758b70867b37b1649432c5574d8b",
      "blockNumber": "0x204747e",
      "gasUsed": "0x369b8",
      "effectiveGasPrice": "0x5d22cfc40",
      "from": "0x3a4db9e7306af09012ceb0f222d581fd1f0c6d71",
      "to": "0xd2b508298fcc37261953684744ec4ccc734d5083",
      "contractAddress": null,
      "l1BaseFeeScalar": "0x0",
      "l1BlobBaseFee": "0x5c6712e7",
      "l1BlobBaseFeeScalar": "0x0",
      "l1Fee": "0x0",
      "l1GasPrice": "0x18e1f48d",
      "l1GasUsed": "0x640"
    },
    {
      "status": "0x1",
      "cumulativeGasUsed": "0x2461df",
      "logs": [
        {
          "address": "0xdbe517c0fa6467873b684eccbed77217e471e862",
          "topics": [
            "0xddf252ad1be2c89b69c2b068fc378daa952ba7f163c4a11628f55a4df523b3ef",
            "0x0000000000000000000000000000000000000000000000000000000000000000",
            "0x000000000000000000000000d2b508298fcc37261953684744ec4ccc734d5083"
          ],
          "data": "0x000000000000000000000000000000000000000000000000000000000001e848",
          "blockHash": "0x5a6301e4b9f54baf91a5419b7db754e0316c9d83bb3a19d494752029a42a69f1",
          "blockNumber": "0x204747f",
          "transactionHash": "0x4c0f656bc409a47968b682796cd2dc3bb3f457736bd3fdb7870a70702a7ce260",
          "transactionIndex": "0x1a",
          "logIndex": "0x3c",
          "removed": false
        },
        {
          "address": "0xdbe517c0fa6467873b684eccbed77217e471e862",
          "topics": [
            "0x458f5fa412d0f69b08dd84872b0215675cc67bc1d5b6fd93300a1c3878b86196",
            "0x000000000000000000000000d2b508298fcc37261953684744ec4ccc734d5083",
            "0x000000000000000000000000d2b508298fcc37261953684744ec4ccc734d5083"
          ],
          "data": "0x000000000000000000000000000000000000000000000000000000000001e84800000000000000000000000000000000000000000000000000000000000000000000000000000000000000000000000000000000033c5335a836620b5b86c70f",
          "blockHash": "0x5a6301e4b9f54baf91a5419b7db754e0316c9d83bb3a19d494752029a42a69f1",
          "blockNumber": "0x204747f",
          "transactionHash": "0x4c0f656bc409a47968b682796cd2dc3bb3f457736bd3fdb7870a70702a7ce260",
          "transactionIndex": "0x1a",
          "logIndex": "0x3d",
          "removed": false
        },
        {
          "address": "0x3e59a31363e2ad014dcbc521c4a0d5757d9f3402",
          "topics": [
            "0x804c9b842b2748a22bb64b345453a3de7ca54a6ca45ce00d415894979e22897a",
            "0x000000000000000000000000ceba9300f2b948710d2653dd7b07f33a8b32118c"
          ],
          "data": "0x00000000000000000000000000000000000000000000d614321a03eb9281b4c0000000000000000000000000000000000000000000000000000000000000000000000000000000000000000000000000000000000007bb4f174c3e8b95c3bc660000000000000000000000000000000000000000033b692d576a5129a18e37f10000000000000000000000000000000000000000033c5335a836620b5b86c70f",
          "blockHash": "0x5a6301e4b9f54baf91a5419b7db754e0316c9d83bb3a19d494752029a42a69f1",
          "blockNumber": "0x204747f",
          "transactionHash": "0x4c0f656bc409a47968b682796cd2dc3bb3f457736bd3fdb7870a70702a7ce260",
          "transactionIndex": "0x1a",
          "logIndex": "0x3e",
          "removed": false
        },
        {
          "address": "0xceba9300f2b948710d2653dd7b07f33a8b32118c",
          "topics": [
            "0xddf252ad1be2c89b69c2b068fc378daa952ba7f163c4a11628f55a4df523b3ef",
            "0x000000000000000000000000ff8309b9e99bfd2d4021bc71a362abd93dbd4785",
            "0x000000000000000000000000d2b508298fcc37261953684744ec4ccc734d5083"
          ],
          "data": "0x000000000000000000000000000000000000000000000000000000000001e848",
          "blockHash": "0x5a6301e4b9f54baf91a5419b7db754e0316c9d83bb3a19d494752029a42a69f1",
          "blockNumber": "0x204747f",
          "transactionHash": "0x4c0f656bc409a47968b682796cd2dc3bb3f457736bd3fdb7870a70702a7ce260",
          "transactionIndex": "0x1a",
          "logIndex": "0x3f",
          "removed": false
        },
        {
          "address": "0x3e59a31363e2ad014dcbc521c4a0d5757d9f3402",
          "topics": [
            "0xb3d084820fb1a9decffb176436bd02558d15fac9b0ddfed8c465bc7359d7dce0",
            "0x000000000000000000000000ceba9300f2b948710d2653dd7b07f33a8b32118c",
            "0x000000000000000000000000d2b508298fcc37261953684744ec4ccc734d5083",
            "0x0000000000000000000000000000000000000000000000000000000000000000"
          ],
          "data": "0x000000000000000000000000d2b508298fcc37261953684744ec4ccc734d5083000000000000000000000000000000000000000000000000000000000001e848000000000000000000000000000000000000000000000000000000000000000200000000000000000000000000000000000000000007bb4f174c3e8b95c3bc66",
          "blockHash": "0x5a6301e4b9f54baf91a5419b7db754e0316c9d83bb3a19d494752029a42a69f1",
          "blockNumber": "0x204747f",
          "transactionHash": "0x4c0f656bc409a47968b682796cd2dc3bb3f457736bd3fdb7870a70702a7ce260",
          "transactionIndex": "0x1a",
          "logIndex": "0x40",
          "removed": false
        },
        {
          "address": "0xceba9300f2b948710d2653dd7b07f33a8b32118c",
          "topics": [
            "0xddf252ad1be2c89b69c2b068fc378daa952ba7f163c4a11628f55a4df523b3ef",
            "0x000000000000000000000000d2b508298fcc37261953684744ec4ccc734d5083",
            "0x0000000000000000000000003a4db9e7306af09012ceb0f222d581fd1f0c6d71"
          ],
          "data": "0x000000000000000000000000000000000000000000000000000000000001e848",
          "blockHash": "0x5a6301e4b9f54baf91a5419b7db754e0316c9d83bb3a19d494752029a42a69f1",
          "blockNumber": "0x204747f",
          "transactionHash": "0x4c0f656bc409a47968b682796cd2dc3bb3f457736bd3fdb7870a70702a7ce260",
          "transactionIndex": "0x1a",
          "logIndex": "0x41",
          "removed": false
        },
        {
          "address": "0xd2b508298fcc37261953684744ec4ccc734d5083",
          "topics": [
            "0xf3a2c404b3362c4238317c3dad1020c2e9e984ba8df38a4a1ff18d57e92a242a",
            "0x0000000000000000000000000000000000000000000000000000000000000001"
          ],
          "data": "0x000000000000000000000000000000000000000000000000000000000001e848",
          "blockHash": "0x5a6301e4b9f54baf91a5419b7db754e0316c9d83bb3a19d494752029a42a69f1",
          "blockNumber": "0x204747f",
          "transactionHash": "0x4c0f656bc409a47968b682796cd2dc3bb3f457736bd3fdb7870a70702a7ce260",
          "transactionIndex": "0x1a",
          "logIndex": "0x42",
          "removed": false
        }
      ],
      "logsBloom": "0x00000000000000100000100000400000000000000000000000000000000000100000000000000000000000000004400000100000800000000000000000040000000000008000000000000008000000000000000000040000000000040000000000000000020000000000000000000800000000000000000000000010000000000000000000000010000000000000400000000000000000002200000000000000000001000000000000000000000000000000000000000000400000000000010002000002000081200000022000000000000000400000041800000000000060000100100000004010000800000001000000000000000010000800000000000000",
      "type": "0x0",
      "transactionHash": "0x4c0f656bc409a47968b682796cd2dc3bb3f457736bd3fdb7870a70702a7ce260",
      "transactionIndex": "0x1a",
      "blockHash": "0x5a6301e4b9f54baf91a5419b7db754e0316c9d83bb3a19d494752029a42a69f1",
      "blockNumber": "0x204747f",
      "gasUsed": "0x5ba5c",
      "effectiveGasPrice": "0x5d22cfc40",
      "from": "0x3a4db9e7306af09012ceb0f222d581fd1f0c6d71",
      "to": "0xd2b508298fcc37261953684744ec4ccc734d5083",
      "contractAddress": null,
      "l1BaseFeeScalar": "0x0",
      "l1BlobBaseFee": "0x5c6712e7",
      "l1BlobBaseFeeScalar": "0x0",
      "l1Fee": "0x0",
      "l1GasPrice": "0x18e1f48d",
      "l1GasUsed": "0x640"
    },
    {
      "status": "0x1",
      "cumulativeGasUsed": "0x253a6c",
      "logs": [
        {
          "address": "0xceba9300f2b948710d2653dd7b07f33a8b32118c",
          "topics": [
            "0x8c5be1e5ebec7d5bd14f71427d1e84f3dd0314c0f7b2291e5b200ac8c7c3b925",
            "0x0000000000000000000000003a4db9e7306af09012ceb0f222d581fd1f0c6d71",
            "0x000000000000000000000000d2b508298fcc37261953684744ec4ccc734d5083"
          ],
          "data": "0x000000000000000000000000000000000000000000000000000000000002dc6c",
          "blockHash": "0x5a6301e4b9f54baf91a5419b7db754e0316c9d83bb3a19d494752029a42a69f1",
          "blockNumber": "0x204747f",
          "transactionHash": "0xd1a5d9d4ba81e27436f5bb2e32c102d9d157f94e26d7c8688c085a8c42b651b5",
          "transactionIndex": "0x1b",
          "logIndex": "0x43",
          "removed": false
        }
      ],
      "logsBloom": "0x00000000000000000000100000000000000000000000000000000000000000000000000000000000000000000000000000000000000000000000000000200000000000000000000000000000000000000000000000000000000000000000000000000000000000000000000000000000000000000000000000000000000000000000000000000000000000000000400000000000000000000000000000000000020000000000000000000000000000000000000000000000000000000000000000000000000080000000020000000000000000000000001000000000000000000110100000000000000800000000000000000000000010000000000000000000",
      "type": "0x0",
      "transactionHash": "0xd1a5d9d4ba81e27436f5bb2e32c102d9d157f94e26d7c8688c085a8c42b651b5",
      "transactionIndex": "0x1b",
      "blockHash": "0x5a6301e4b9f54baf91a5419b7db754e0316c9d83bb3a19d494752029a42a69f1",
      "blockNumber": "0x204747f",
      "gasUsed": "0xd88d",
      "effectiveGasPrice": "0x5d22cfc40",
      "from": "0x3a4db9e7306af09012ceb0f222d581fd1f0c6d71",
      "to": "0xceba9300f2b948710d2653dd7b07f33a8b32118c",
      "contractAddress": null,
      "l1BaseFeeScalar": "0x0",
      "l1BlobBaseFee": "0x5c6712e7",
      "l1BlobBaseFeeScalar": "0x0",
      "l1Fee": "0x0",
      "l1GasPrice": "0x18e1f48d",
      "l1GasUsed": "0x640"
    },
    {
      "status": "0x1",
      "cumulativeGasUsed": "0x2881bc",
      "logs": [
        {
          "address": "0xceba9300f2b948710d2653dd7b07f33a8b32118c",
          "topics": [
            "0xddf252ad1be2c89b69c2b068fc378daa952ba7f163c4a11628f55a4df523b3ef",
            "0x0000000000000000000000003a4db9e7306af09012ceb0f222d581fd1f0c6d71",
            "0x000000000000000000000000d2b508298fcc37261953684744ec4ccc734d5083"
          ],
          "data": "0x000000000000000000000000000000000000000000000000000000000002dc6c",
          "blockHash": "0x5a6301e4b9f54baf91a5419b7db754e0316c9d83bb3a19d494752029a42a69f1",
          "blockNumber": "0x204747f",
          "transactionHash": "0xb9f77fb1f74c876998a1ef9beba5ccc262d573791406faadc156f28e096f5a77",
          "transactionIndex": "0x1c",
          "logIndex": "0x44",
          "removed": false
        },
        {
          "address": "0xceba9300f2b948710d2653dd7b07f33a8b32118c",
          "topics": [
            "0x8c5be1e5ebec7d5bd14f71427d1e84f3dd0314c0f7b2291e5b200ac8c7c3b925",
            "0x000000000000000000000000d2b508298fcc37261953684744ec4ccc734d5083",
            "0x0000000000000000000000003e59a31363e2ad014dcbc521c4a0d5757d9f3402"
          ],
          "data": "0x000000000000000000000000000000000000000000000000000000000002dc6c",
          "blockHash": "0x5a6301e4b9f54baf91a5419b7db754e0316c9d83bb3a19d494752029a42a69f1",
          "blockNumber": "0x204747f",
          "transactionHash": "0xb9f77fb1f74c876998a1ef9beba5ccc262d573791406faadc156f28e096f5a77",
          "transactionIndex": "0x1c",
          "logIndex": "0x45",
          "removed": false
        },
        {
          "address": "0xdbe517c0fa6467873b684eccbed77217e471e862",
          "topics": [
            "0xddf252ad1be2c89b69c2b068fc378daa952ba7f163c4a11628f55a4df523b3ef",
            "0x000000000000000000000000d2b508298fcc37261953684744ec4ccc734d5083",
            "0x0000000000000000000000000000000000000000000000000000000000000000"
          ],
          "data": "0x000000000000000000000000000000000000000000000000000000000002dc6c",
          "blockHash": "0x5a6301e4b9f54baf91a5419b7db754e0316c9d83bb3a19d494752029a42a69f1",
          "blockNumber": "0x204747f",
          "transactionHash": "0xb9f77fb1f74c876998a1ef9beba5ccc262d573791406faadc156f28e096f5a77",
          "transactionIndex": "0x1c",
          "logIndex": "0x46",
          "removed": false
        },
        {
          "address": "0xdbe517c0fa6467873b684eccbed77217e471e862",
          "topics": [
            "0x4cf25bc1d991c17529c25213d3cc0cda295eeaad5f13f361969b12ea48015f90",
            "0x000000000000000000000000d2b508298fcc37261953684744ec4ccc734d5083",
            "0x0000000000000000000000000000000000000000000000000000000000000000"
          ],
          "data": "0x000000000000000000000000000000000000000000000000000000000002dc6c00000000000000000000000000000000000000000000000000000000000000000000000000000000000000000000000000000000033c5335a836620b5b86c70f",
          "blockHash": "0x5a6301e4b9f54baf91a5419b7db754e0316c9d83bb3a19d494752029a42a69f1",
          "blockNumber": "0x204747f",
          "transactionHash": "0xb9f77fb1f74c876998a1ef9beba5ccc262d573791406faadc156f28e096f5a77",
          "transactionIndex": "0x1c",
          "logIndex": "0x47",
          "removed": false
        },
        {
          "address": "0x3e59a31363e2ad014dcbc521c4a0d5757d9f3402",
          "topics": [
            "0x804c9b842b2748a22bb64b345453a3de7ca54a6ca45ce00d415894979e22897a",
            "0x000000000000000000000000ceba9300f2b948710d2653dd7b07f33a8b32118c"
          ],
          "data": "0x00000000000000000000000000000000000000000000d613fda83776821d926d000000000000000000000000000000000000000000000000000000000000000000000000000000000000000000000000000000000007bb4e24dabd900a53ebe50000000000000000000000000000000000000000033b692d576a5129a18e37f10000000000000000000000000000000000000000033c5335a836620b5b86c70f",
          "blockHash": "0x5a6301e4b9f54baf91a5419b7db754e0316c9d83bb3a19d494752029a42a69f1",
          "blockNumber": "0x204747f",
          "transactionHash": "0xb9f77fb1f74c876998a1ef9beba5ccc262d573791406faadc156f28e096f5a77",
          "transactionIndex": "0x1c",
          "logIndex": "0x48",
          "removed": false
        },
        {
          "address": "0xceba9300f2b948710d2653dd7b07f33a8b32118c",
          "topics": [
            "0xddf252ad1be2c89b69c2b068fc378daa952ba7f163c4a11628f55a4df523b3ef",
            "0x000000000000000000000000d2b508298fcc37261953684744ec4ccc734d5083",
            "0x000000000000000000000000ff8309b9e99bfd2d4021bc71a362abd93dbd4785"
          ],
          "data": "0x000000000000000000000000000000000000000000000000000000000002dc6c",
          "blockHash": "0x5a6301e4b9f54baf91a5419b7db754e0316c9d83bb3a19d494752029a42a69f1",
          "blockNumber": "0x204747f",
          "transactionHash": "0xb9f77fb1f74c876998a1ef9beba5ccc262d573791406faadc156f28e096f5a77",
          "transactionIndex": "0x1c",
          "logIndex": "0x49",
          "removed": false
        },
        {
          "address": "0x3e59a31363e2ad014dcbc521c4a0d5757d9f3402",
          "topics": [
            "0xa534c8dbe71f871f9f3530e97a74601fea17b426cae02e1c5aee42c96c784051",
            "0x000000000000000000000000ceba9300f2b948710d2653dd7b07f33a8b32118c",
            "0x000000000000000000000000d2b508298fcc37261953684744ec4ccc734d5083",
            "0x000000000000000000000000d2b508298fcc37261953684744ec4ccc734d5083"
          ],
          "data": "0x000000000000000000000000000000000000000000000000000000000002dc6c0000000000000000000000000000000000000000000000000000000000000000",
          "blockHash": "0x5a6301e4b9f54baf91a5419b7db754e0316c9d83bb3a19d494752029a42a69f1",
          "blockNumber": "0x204747f",
          "transactionHash": "0xb9f77fb1f74c876998a1ef9beba5ccc262d573791406faadc156f28e096f5a77",
          "transactionIndex": "0x1c",
          "logIndex": "0x4a",
          "removed": false
        },
        {
          "address": "0xd2b508298fcc37261953684744ec4ccc734d5083",
          "topics": [
            "0x0d4979b0859a1951f8ed7cbe3b1994e740552588f27ba02ca0f8f1ddcad16e0c",
            "0x0000000000000000000000000000000000000000000000000000000000000001"
          ],
          "data": "0x000000000000000000000000000000000000000000000000000000000002dc6c",
          "blockHash": "0x5a6301e4b9f54baf91a5419b7db754e0316c9d83bb3a19d494752029a42a69f1",
          "blockNumber": "0x204747f",
          "transactionHash": "0xb9f77fb1f74c876998a1ef9beba5ccc262d573791406faadc156f28e096f5a77",
          "transactionIndex": "0x1c",
          "logIndex": "0x4b",
          "removed": false
        }
      ],
      "logsBloom": "0x10000000000000110000120010400000000000000000000000000000000000100000000000000000000000000000400000110000c00000000000000000240000000000008000000000000008000000000000002000040000000000000000000080000000020000000000000000000800000000000000000000000010000000000000000000000000000000000000400000000000000000002200000000000000020001100000000000000000000000000000000000000000400000000000010000000002000080200000022000000000000000000000001800000000000060040110100000004010000800000000000000000000000010000000000000040000",
      "type": "0x0",
      "transactionHash": "0xb9f77fb1f74c876998a1ef9beba5ccc262d573791406faadc156f28e096f5a77",
      "transactionIndex": "0x1c",
      "blockHash": "0x5a6301e4b9f54baf91a5419b7db754e0316c9d83bb3a19d494752029a42a69f1",
      "blockNumber": "0x204747f",
      "gasUsed": "0x34750",
      "effectiveGasPrice": "0x5d22cfc40",
      "from": "0x3a4db9e7306af09012ceb0f222d581fd1f0c6d71",
      "to": "0xd2b508298fcc37261953684744ec4ccc734d5083",
      "contractAddress": null,
      "l1BaseFeeScalar": "0x0",
      "l1BlobBaseFee": "0x5c6712e7",
      "l1BlobBaseFeeScalar": "0x0",
      "l1Fee": "0x0",
      "l1GasPrice": "0x18e1f48d",
      "l1GasUsed": "0x640"
    },
    {
      "status": "0x1",
      "cumulativeGasUsed": "0x2da5a1",
      "logs": [
        {
          "address": "0x3e59a31363e2ad014dcbc521c4a0d5757d9f3402",
          "topics": [
            "0x804c9b842b2748a22bb64b345453a3de7ca54a6ca45ce00d415894979e22897a",
            "0x00000000000000000000000048065fbbe25f71c9282ddf5e1cd6d6a887483d5e"
          ],
          "data": "0x00000000000000000000000000000000000000000000000b15eb8d6fd11704190000000000000000000000000000000000000000000000000000000000000000000000000000000000000000000000000000000000001c268a062d369fa548110000000000000000000000000000000000000000033b5f8e257727276278e60c0000000000000000000000000000000000000000033bccae61e67c4251060759",
          "blockHash": "0x5a6301e4b9f54baf91a5419b7db754e0316c9d83bb3a19d494752029a42a69f1",
          "blockNumber": "0x204747f",
          "transactionHash": "0x5c35f1940ed6ecc51d7db343f839e64070ba57b885cb3112cfc59c762ff81bc1",
          "transactionIndex": "0x1d",
          "logIndex": "0x4c",
          "removed": false
        },
        {
          "address": "0xdee98402a302e4d707fb9bf2bac66faeec31e8df",
          "topics": [
            "0xddf252ad1be2c89b69c2b068fc378daa952ba7f163c4a11628f55a4df523b3ef",
            "0x000000000000000000000000d2b508298fcc37261953684744ec4ccc734d5083",
            "0x0000000000000000000000000000000000000000000000000000000000000000"
          ],
          "data": "0x00000000000000000000000000000000000000000000000000000000000249f0",
          "blockHash": "0x5a6301e4b9f54baf91a5419b7db754e0316c9d83bb3a19d494752029a42a69f1",
          "blockNumber": "0x204747f",
          "transactionHash": "0x5c35f1940ed6ecc51d7db343f839e64070ba57b885cb3112cfc59c762ff81bc1",
          "transactionIndex": "0x1d",
          "logIndex": "0x4d",
          "removed": false
        },
        {
          "address": "0xdee98402a302e4d707fb9bf2bac66faeec31e8df",
          "topics": [
            "0x4cf25bc1d991c17529c25213d3cc0cda295eeaad5f13f361969b12ea48015f90",
            "0x000000000000000000000000d2b508298fcc37261953684744ec4ccc734d5083",
            "0x0000000000000000000000003a4db9e7306af09012ceb0f222d581fd1f0c6d71"
          ],
          "data": "0x00000000000000000000000000000000000000000000000000000000000249f000000000000000000000000000000000000000000000000000000000000000000000000000000000000000000000000000000000033b5f8e257727276278e60c",
          "blockHash": "0x5a6301e4b9f54baf91a5419b7db754e0316c9d83bb3a19d494752029a42a69f1",
          "blockNumber": "0x204747f",
          "transactionHash": "0x5c35f1940ed6ecc51d7db343f839e64070ba57b885cb3112cfc59c762ff81bc1",
          "transactionIndex": "0x1d",
          "logIndex": "0x4e",
          "removed": false
        },
        {
          "address": "0x48065fbbe25f71c9282ddf5e1cd6d6a887483d5e",
          "topics": [
            "0xddf252ad1be2c89b69c2b068fc378daa952ba7f163c4a11628f55a4df523b3ef",
            "0x000000000000000000000000dee98402a302e4d707fb9bf2bac66faeec31e8df",
            "0x0000000000000000000000003a4db9e7306af09012ceb0f222d581fd1f0c6d71"
          ],
          "data": "0x00000000000000000000000000000000000000000000000000000000000249f0",
          "blockHash": "0x5a6301e4b9f54baf91a5419b7db754e0316c9d83bb3a19d494752029a42a69f1",
          "blockNumber": "0x204747f",
          "transactionHash": "0x5c35f1940ed6ecc51d7db343f839e64070ba57b885cb3112cfc59c762ff81bc1",
          "transactionIndex": "0x1d",
          "logIndex": "0x4f",
          "removed": false
        },
        {
          "address": "0x3e59a31363e2ad014dcbc521c4a0d5757d9f3402",
          "topics": [
            "0x3115d1449a7b732c986cba18244e897a450f61e1bb8d589cd2e69e6c8924f9f7",
            "0x00000000000000000000000048065fbbe25f71c9282ddf5e1cd6d6a887483d5e",
            "0x000000000000000000000000d2b508298fcc37261953684744ec4ccc734d5083",
            "0x0000000000000000000000003a4db9e7306af09012ceb0f222d581fd1f0c6d71"
          ],
          "data": "0x00000000000000000000000000000000000000000000000000000000000249f0",
          "blockHash": "0x5a6301e4b9f54baf91a5419b7db754e0316c9d83bb3a19d494752029a42a69f1",
          "blockNumber": "0x204747f",
          "transactionHash": "0x5c35f1940ed6ecc51d7db343f839e64070ba57b885cb3112cfc59c762ff81bc1",
          "transactionIndex": "0x1d",
          "logIndex": "0x50",
          "removed": false
        },
        {
          "address": "0xd2b508298fcc37261953684744ec4ccc734d5083",
          "topics": [
            "0x2399e8aed1977410745a5211d8226a3a7d9278f50a8a197c5ec6e285bb437f0b",
            "0x0000000000000000000000000000000000000000000000000000000000000001"
          ],
          "data": "0x00000000000000000000000000000000000000000000000000000000000249f0",
          "blockHash": "0x5a6301e4b9f54baf91a5419b7db754e0316c9d83bb3a19d494752029a42a69f1",
          "blockNumber": "0x204747f",
          "transactionHash": "0x5c35f1940ed6ecc51d7db343f839e64070ba57b885cb3112cfc59c762ff81bc1",
          "transactionIndex": "0x1d",
          "logIndex": "0x51",
          "removed": false
        }
      ],
      "logsBloom": "0x1000000000000010020000000000000000900000000000000000000000000010000000080000000000000000000000000001000080000000000000000004000000000000000000080000000800000000000000000004000000000000000000000000000002000000000000000000080000000000002002004000001000000000000001000000000000000000000040000000000000006000020000000000000000000000008100000000004000000000100000000000000040000000000001000000000200008000000000a000000040000000000000001800000000000160040100100000000000000000000000000000000000000010000000000000000000",
      "type": "0x0",
      "transactionHash": "0x5c35f1940ed6ecc51d7db343f839e64070ba57b885cb3112cfc59c762ff81bc1",
      "transactionIndex": "0x1d",
      "blockHash": "0x5a6301e4b9f54baf91a5419b7db754e0316c9d83bb3a19d494752029a42a69f1",
      "blockNumber": "0x204747f",
      "gasUsed": "0x523e5",
      "effectiveGasPrice": "0x5d22cfc40",
      "from": "0x3a4db9e7306af09012ceb0f222d581fd1f0c6d71",
      "to": "0xd2b508298fcc37261953684744ec4ccc734d5083",
      "contractAddress": null,
      "l1BaseFeeScalar": "0x0",
      "l1BlobBaseFee": "0x5c6712e7",
      "l1BlobBaseFeeScalar": "0x0",
      "l1Fee": "0x0",
      "l1GasPrice": "0x18e1f48d",
      "l1GasUsed": "0x640"
    },
    {
      "status": "0x1",
      "cumulativeGasUsed": "0x20d45b",
      "logs": [
        {
          "address": "0xceba9300f2b948710d2653dd7b07f33a8b32118c",
          "topics": [
            "0x8c5be1e5ebec7d5bd14f71427d1e84f3dd0314c0f7b2291e5b200ac8c7c3b925",
            "0x0000000000000000000000003a4db9e7306af09012ceb0f222d581fd1f0c6d71",
            "0x000000000000000000000000d2b508298fcc37261953684744ec4ccc734d5083"
          ],
          "data": "0x000000000000000000000000000000000000000000000000000000000005b8d8",
          "blockHash": "0x6ecab08842fb9996c71f8193af721fe42f59389d1d8faf2efee2547e4f53f6a7",
          "blockNumber": "0x2047480",
          "transactionHash": "0x18473276c722d76f6bdf120b87070e654231f339ecf9db6403c5acab838ee954",
          "transactionIndex": "0x18",
          "logIndex": "0x31",
          "removed": false
        }
      ],
      "logsBloom": "0x00000000000000000000100000000000000000000000000000000000000000000000000000000000000000000000000000000000000000000000000000200000000000000000000000000000000000000000000000000000000000000000000000000000000000000000000000000000000000000000000000000000000000000000000000000000000000000000400000000000000000000000000000000000020000000000000000000000000000000000000000000000000000000000000000000000000080000000020000000000000000000000001000000000000000000110100000000000000800000000000000000000000010000000000000000000",
      "type": "0x0",
      "transactionHash": "0x18473276c722d76f6bdf120b87070e654231f339ecf9db6403c5acab838ee954",
      "transactionIndex": "0x18",
      "blockHash": "0x6ecab08842fb9996c71f8193af721fe42f59389d1d8faf2efee2547e4f53f6a7",
      "blockNumber": "0x2047480",
      "gasUsed": "0xd88d",
      "effectiveGasPrice": "0x5d22cfc40",
      "from": "0x3a4db9e7306af09012ceb0f222d581fd1f0c6d71",
      "to": "0xceba9300f2b948710d2653dd7b07f33a8b32118c",
      "contractAddress": null,
      "l1BaseFeeScalar": "0x0",
      "l1BlobBaseFee": "0x5c6712e7",
      "l1BlobBaseFeeScalar": "0x0",
      "l1Fee": "0x0",
      "l1GasPrice": "0x18e1f48d",
      "l1GasUsed": "0x640"
    },
    {
      "status": "0x1",
      "cumulativeGasUsed": "0x243c6c",
      "logs": [
        {
          "address": "0xceba9300f2b948710d2653dd7b07f33a8b32118c",
          "topics": [
            "0xddf252ad1be2c89b69c2b068fc378daa952ba7f163c4a11628f55a4df523b3ef",
            "0x0000000000000000000000003a4db9e7306af09012ceb0f222d581fd1f0c6d71",
            "0x000000000000000000000000d2b508298fcc37261953684744ec4ccc734d5083"
          ],
          "data": "0x000000000000000000000000000000000000000000000000000000000002dc6c",
          "blockHash": "0x6ecab08842fb9996c71f8193af721fe42f59389d1d8faf2efee2547e4f53f6a7",
          "blockNumber": "0x2047480",
          "transactionHash": "0xeb1485a0b5ff80f6f6364485c223efd9a9297d53249fbcf866145d18448436e3",
          "transactionIndex": "0x19",
          "logIndex": "0x32",
          "removed": false
        },
        {
          "address": "0xceba9300f2b948710d2653dd7b07f33a8b32118c",
          "topics": [
            "0x8c5be1e5ebec7d5bd14f71427d1e84f3dd0314c0f7b2291e5b200ac8c7c3b925",
            "0x000000000000000000000000d2b508298fcc37261953684744ec4ccc734d5083",
            "0x0000000000000000000000003e59a31363e2ad014dcbc521c4a0d5757d9f3402"
          ],
          "data": "0x000000000000000000000000000000000000000000000000000000000002dc6c",
          "blockHash": "0x6ecab08842fb9996c71f8193af721fe42f59389d1d8faf2efee2547e4f53f6a7",
          "blockNumber": "0x2047480",
          "transactionHash": "0xeb1485a0b5ff80f6f6364485c223efd9a9297d53249fbcf866145d18448436e3",
          "transactionIndex": "0x19",
          "logIndex": "0x33",
          "removed": false
        },
        {
          "address": "0xdbe517c0fa6467873b684eccbed77217e471e862",
          "topics": [
            "0xddf252ad1be2c89b69c2b068fc378daa952ba7f163c4a11628f55a4df523b3ef",
            "0x000000000000000000000000d2b508298fcc37261953684744ec4ccc734d5083",
            "0x0000000000000000000000000000000000000000000000000000000000000000"
          ],
          "data": "0x000000000000000000000000000000000000000000000000000000000002dc6c",
          "blockHash": "0x6ecab08842fb9996c71f8193af721fe42f59389d1d8faf2efee2547e4f53f6a7",
          "blockNumber": "0x2047480",
          "transactionHash": "0xeb1485a0b5ff80f6f6364485c223efd9a9297d53249fbcf866145d18448436e3",
          "transactionIndex": "0x19",
          "logIndex": "0x34",
          "removed": false
        },
        {
          "address": "0xdbe517c0fa6467873b684eccbed77217e471e862",
          "topics": [
            "0x4cf25bc1d991c17529c25213d3cc0cda295eeaad5f13f361969b12ea48015f90",
            "0x000000000000000000000000d2b508298fcc37261953684744ec4ccc734d5083",
            "0x0000000000000000000000000000000000000000000000000000000000000000"
          ],
          "data": "0x000000000000000000000000000000000000000000000000000000000002dc6c00000000000000000000000000000000000000000000000000000000000000000000000000000000000000000000000000000000033c5335ac54d590b8a0041f",
          "blockHash": "0x6ecab08842fb9996c71f8193af721fe42f59389d1d8faf2efee2547e4f53f6a7",
          "blockNumber": "0x2047480",
          "transactionHash": "0xeb1485a0b5ff80f6f6364485c223efd9a9297d53249fbcf866145d18448436e3",
          "transactionIndex": "0x19",
          "logIndex": "0x35",
          "removed": false
        },
        {
          "address": "0x3e59a31363e2ad014dcbc521c4a0d5757d9f3402",
          "topics": [
            "0x804c9b842b2748a22bb64b345453a3de7ca54a6ca45ce00d415894979e22897a",
            "0x000000000000000000000000ceba9300f2b948710d2653dd7b07f33a8b32118c"
          ],
          "data": "0x00000000000000000000000000000000000000000000d613c938554308b90680000000000000000000000000000000000000000000000000000000000000000000000000000000000000000000000000000000000007bb4d3271f945bf1f42580000000000000000000000000000000000000000033b692d57dc3d1cb549a6390000000000000000000000000000000000000000033c5335ac54d590b8a0041f",
          "blockHash": "0x6ecab08842fb9996c71f8193af721fe42f59389d1d8faf2efee2547e4f53f6a7",
          "blockNumber": "0x2047480",
          "transactionHash": "0xeb1485a0b5ff80f6f6364485c223efd9a9297d53249fbcf866145d18448436e3",
          "transactionIndex": "0x19",
          "logIndex": "0x36",
          "removed": false
        },
        {
          "address": "0xceba9300f2b948710d2653dd7b07f33a8b32118c",
          "topics": [
            "0xddf252ad1be2c89b69c2b068fc378daa952ba7f163c4a11628f55a4df523b3ef",
            "0x000000000000000000000000d2b508298fcc37261953684744ec4ccc734d5083",
            "0x000000000000000000000000ff8309b9e99bfd2d4021bc71a362abd93dbd4785"
          ],
          "data": "0x000000000000000000000000000000000000000000000000000000000002dc6c",
          "blockHash": "0x6ecab08842fb9996c71f8193af721fe42f59389d1d8faf2efee2547e4f53f6a7",
          "blockNumber": "0x2047480",
          "transactionHash": "0xeb1485a0b5ff80f6f6364485c223efd9a9297d53249fbcf866145d18448436e3",
          "transactionIndex": "0x19",
          "logIndex": "0x37",
          "removed": false
        },
        {
          "address": "0x3e59a31363e2ad014dcbc521c4a0d5757d9f3402",
          "topics": [
            "0xa534c8dbe71f871f9f3530e97a74601fea17b426cae02e1c5aee42c96c784051",
            "0x000000000000000000000000ceba9300f2b948710d2653dd7b07f33a8b32118c",
            "0x000000000000000000000000d2b508298fcc37261953684744ec4ccc734d5083",
            "0x000000000000000000000000d2b508298fcc37261953684744ec4ccc734d5083"
          ],
          "data": "0x000000000000000000000000000000000000000000000000000000000002dc6c0000000000000000000000000000000000000000000000000000000000000000",
          "blockHash": "0x6ecab08842fb9996c71f8193af721fe42f59389d1d8faf2efee2547e4f53f6a7",
          "blockNumber": "0x2047480",
          "transactionHash": "0xeb1485a0b5ff80f6f6364485c223efd9a9297d53249fbcf866145d18448436e3",
          "transactionIndex": "0x19",
          "logIndex": "0x38",
          "removed": false
        },
        {
          "address": "0xd2b508298fcc37261953684744ec4ccc734d5083",
          "topics": [
            "0x0d4979b0859a1951f8ed7cbe3b1994e740552588f27ba02ca0f8f1ddcad16e0c",
            "0x0000000000000000000000000000000000000000000000000000000000000001"
          ],
          "data": "0x000000000000000000000000000000000000000000000000000000000002dc6c",
          "blockHash": "0x6ecab08842fb9996c71f8193af721fe42f59389d1d8faf2efee2547e4f53f6a7",
          "blockNumber": "0x2047480",
          "transactionHash": "0xeb1485a0b5ff80f6f6364485c223efd9a9297d53249fbcf866145d18448436e3",
          "transactionIndex": "0x19",
          "logIndex": "0x39",
          "removed": false
        }
      ],
      "logsBloom": "0x10000000000000110000120010400000000000000000000000000000000000100000000000000000000000000000400000110000c00000000000000000240000000000008000000000000008000000000000002000040000000000000000000080000000020000000000000000000800000000000000000000000010000000000000000000000000000000000000400000000000000000002200000000000000020001100000000000000000000000000000000000000000400000000000010000000002000080200000022000000000000000000000001800000000000060040110100000004010000800000000000000000000000010000000000000040000",
      "type": "0x0",
      "transactionHash": "0xeb1485a0b5ff80f6f6364485c223efd9a9297d53249fbcf866145d18448436e3",
      "transactionIndex": "0x19",
      "blockHash": "0x6ecab08842fb9996c71f8193af721fe42f59389d1d8faf2efee2547e4f53f6a7",
      "blockNumber": "0x2047480",
      "gasUsed": "0x36811",
      "effectiveGasPrice": "0x5d22cfc40",
      "from": "0x3a4db9e7306af09012ceb0f222d581fd1f0c6d71",
      "to": "0xd2b508298fcc37261953684744ec4ccc734d5083",
      "contractAddress": null,
      "l1BaseFeeScalar": "0x0",
      "l1BlobBaseFee": "0x5c6712e7",
      "l1BlobBaseFeeScalar": "0x0",
      "l1Fee": "0x0",
      "l1GasPrice": "0x18e1f48d",
      "l1GasUsed": "0x640"
    },
    {
      "status": "0x1",
      "cumulativeGasUsed": "0x117dfc",
      "logs": [
        {
          "address": "0x3e59a31363e2ad014dcbc521c4a0d5757d9f3402",
          "topics": [
            "0x804c9b842b2748a22bb64b345453a3de7ca54a6ca45ce00d415894979e22897a",
            "0x00000000000000000000000048065fbbe25f71c9282ddf5e1cd6d6a887483d5e"
          ],
          "data": "0x00000000000000000000000000000000000000000000000b15ebd92d0f0ad2530000000000000000000000000000000000000000000000000000000000000000000000000000000000000000000000000000000000001c268a66577978cbbc2e0000000000000000000000000000000000000000033b5f8e257732f3a57d73b60000000000000000000000000000000000000000033bccae620475c882f5c0e6",
          "blockHash": "0x37df3c4e4d0d82aae7b214c63aaf48a00a65345f1515aa22786e52a7c882c692",
          "blockNumber": "0x2047481",
          "transactionHash": "0x577a11caa127252ad7d148707f26d1f81b3c11ecae41eb6cbde5cd15e77b80e3",
          "transactionIndex": "0x12",
          "logIndex": "0x16",
          "removed": false
        },
        {
          "address": "0xdee98402a302e4d707fb9bf2bac66faeec31e8df",
          "topics": [
            "0xddf252ad1be2c89b69c2b068fc378daa952ba7f163c4a11628f55a4df523b3ef",
            "0x000000000000000000000000d2b508298fcc37261953684744ec4ccc734d5083",
            "0x0000000000000000000000000000000000000000000000000000000000000000"
          ],
          "data": "0x00000000000000000000000000000000000000000000000000000000000927c0",
          "blockHash": "0x37df3c4e4d0d82aae7b214c63aaf48a00a65345f1515aa22786e52a7c882c692",
          "blockNumber": "0x2047481",
          "transactionHash": "0x577a11caa127252ad7d148707f26d1f81b3c11ecae41eb6cbde5cd15e77b80e3",
          "transactionIndex": "0x12",
          "logIndex": "0x17",
          "removed": false
        },
        {
          "address": "0xdee98402a302e4d707fb9bf2bac66faeec31e8df",
          "topics": [
            "0x4cf25bc1d991c17529c25213d3cc0cda295eeaad5f13f361969b12ea48015f90",
            "0x000000000000000000000000d2b508298fcc37261953684744ec4ccc734d5083",
            "0x0000000000000000000000003a4db9e7306af09012ceb0f222d581fd1f0c6d71"
          ],
          "data": "0x00000000000000000000000000000000000000000000000000000000000927c000000000000000000000000000000000000000000000000000000000000000000000000000000000000000000000000000000000033b5f8e257732f3a57d73b6",
          "blockHash": "0x37df3c4e4d0d82aae7b214c63aaf48a00a65345f1515aa22786e52a7c882c692",
          "blockNumber": "0x2047481",
          "transactionHash": "0x577a11caa127252ad7d148707f26d1f81b3c11ecae41eb6cbde5cd15e77b80e3",
          "transactionIndex": "0x12",
          "logIndex": "0x18",
          "removed": false
        },
        {
          "address": "0x48065fbbe25f71c9282ddf5e1cd6d6a887483d5e",
          "topics": [
            "0xddf252ad1be2c89b69c2b068fc378daa952ba7f163c4a11628f55a4df523b3ef",
            "0x000000000000000000000000dee98402a302e4d707fb9bf2bac66faeec31e8df",
            "0x0000000000000000000000003a4db9e7306af09012ceb0f222d581fd1f0c6d71"
          ],
          "data": "0x00000000000000000000000000000000000000000000000000000000000927c0",
          "blockHash": "0x37df3c4e4d0d82aae7b214c63aaf48a00a65345f1515aa22786e52a7c882c692",
          "blockNumber": "0x2047481",
          "transactionHash": "0x577a11caa127252ad7d148707f26d1f81b3c11ecae41eb6cbde5cd15e77b80e3",
          "transactionIndex": "0x12",
          "logIndex": "0x19",
          "removed": false
        },
        {
          "address": "0x3e59a31363e2ad014dcbc521c4a0d5757d9f3402",
          "topics": [
            "0x3115d1449a7b732c986cba18244e897a450f61e1bb8d589cd2e69e6c8924f9f7",
            "0x00000000000000000000000048065fbbe25f71c9282ddf5e1cd6d6a887483d5e",
            "0x000000000000000000000000d2b508298fcc37261953684744ec4ccc734d5083",
            "0x0000000000000000000000003a4db9e7306af09012ceb0f222d581fd1f0c6d71"
          ],
          "data": "0x00000000000000000000000000000000000000000000000000000000000927c0",
          "blockHash": "0x37df3c4e4d0d82aae7b214c63aaf48a00a65345f1515aa22786e52a7c882c692",
          "blockNumber": "0x2047481",
          "transactionHash": "0x577a11caa127252ad7d148707f26d1f81b3c11ecae41eb6cbde5cd15e77b80e3",
          "transactionIndex": "0x12",
          "logIndex": "0x1a",
          "removed": false
        },
        {
          "address": "0xd2b508298fcc37261953684744ec4ccc734d5083",
          "topics": [
            "0x2399e8aed1977410745a5211d8226a3a7d9278f50a8a197c5ec6e285bb437f0b",
            "0x0000000000000000000000000000000000000000000000000000000000000001"
          ],
          "data": "0x00000000000000000000000000000000000000000000000000000000000927c0",
          "blockHash": "0x37df3c4e4d0d82aae7b214c63aaf48a00a65345f1515aa22786e52a7c882c692",
          "blockNumber": "0x2047481",
          "transactionHash": "0x577a11caa127252ad7d148707f26d1f81b3c11ecae41eb6cbde5cd15e77b80e3",
          "transactionIndex": "0x12",
          "logIndex": "0x1b",
          "removed": false
        }
      ],
      "logsBloom": "0x1000000000000010020000000000000000900000000000000000000000000010000000080000000000000000000000000001000080000000000000000004000000000000000000080000000800000000000000000004000000000000000000000000000002000000000000000000080000000000002002004000001000000000000001000000000000000000000040000000000000006000020000000000000000000000008100000000004000000000100000000000000040000000000001000000000200008000000000a000000040000000000000001800000000000160040100100000000000000000000000000000000000000010000000000000000000",
      "type": "0x0",
      "transactionHash": "0x577a11caa127252ad7d148707f26d1f81b3c11ecae41eb6cbde5cd15e77b80e3",
      "transactionIndex": "0x12",
      "blockHash": "0x37df3c4e4d0d82aae7b214c63aaf48a00a65345f1515aa22786e52a7c882c692",
      "blockNumber": "0x2047481",
      "gasUsed": "0x3dddf",
      "effectiveGasPrice": "0x5d22cfc40",
      "from": "0x3a4db9e7306af09012ceb0f222d581fd1f0c6d71",
      "to": "0xd2b508298fcc37261953684744ec4ccc734d5083",
      "contractAddress": null,
      "l1BaseFeeScalar": "0x0",
      "l1BlobBaseFee": "0x5c6712e7",
      "l1BlobBaseFeeScalar": "0x0",
      "l1Fee": "0x0",
      "l1GasPrice": "0x18e1f48d",
      "l1GasUsed": "0x640"
    }
  ],
  "libraries": [],
  "pending": [],
  "returns": {},
  "timestamp": 1745747160,
  "chain": 42220,
  "commit": "1cefd9d"
}