{
  "transactions": [
    {
      "hash": "0x9112e524fc5a8a6feae93a941ec75130c7abdef7e7c29db7c2a9252ce6acb5b7",
      "transactionType": "CALL",
      "contractName": null,
      "contractAddress": "0x48065fbbe25f71c9282ddf5e1cd6d6a887483d5e",
      "function": "approve(address,uint256)",
      "arguments": [
        "0xc2a61494430F6a99d5f024Ab6E76b1633c7c13c0",
        "500000"
      ],
      "transaction": {
        "from": "0x3a4db9e7306af09012ceb0f222d581fd1f0c6d71",
        "to": "0x48065fbbe25f71c9282ddf5e1cd6d6a887483d5e",
        "gas": "0x1201c",
        "value": "0x0",
        "input": "0x095ea7b3000000000000000000000000c2a61494430f6a99d5f024ab6e76b1633c7c13c0000000000000000000000000000000000000000000000000000000000007a120",
        "nonce": "0x70",
        "chainId": "0xa4ec"
      },
      "additionalContracts": [],
      "isFixedGasLimit": false
    },
    {
      "hash": "0x6a9656f0716850226669219df7028c00c21349093d7da03d50fcca8bb945cfb5",
      "transactionType": "CALL",
      "contractName": null,
      "contractAddress": "0xc2a61494430f6a99d5f024ab6e76b1633c7c13c0",
      "function": "createPosition(address,uint256,address,uint256,uint256)",
      "arguments": [
        "0x48065fbBE25f71C9282ddf5e1cD6D6A887483D5e",
        "500000",
        "0xcebA9300f2b948710d2653dD7B07f33A8B32118C",
        "250000",
        "2"
      ],
      "transaction": {
        "from": "0x3a4db9e7306af09012ceb0f222d581fd1f0c6d71",
        "to": "0xc2a61494430f6a99d5f024ab6e76b1633c7c13c0",
        "gas": "0xdba5e",
        "value": "0x0",
        "input": "0xb0c3d5df00000000000000000000000048065fbbe25f71c9282ddf5e1cd6d6a887483d5e000000000000000000000000000000000000000000000000000000000007a120000000000000000000000000ceba9300f2b948710d2653dd7b07f33a8b32118c000000000000000000000000000000000000000000000000000000000003d0900000000000000000000000000000000000000000000000000000000000000002",
        "nonce": "0x71",
        "chainId": "0xa4ec"
      },
      "additionalContracts": [],
      "isFixedGasLimit": false
    }
  ],
  "receipts": [
    {
      "status": "0x1",
      "cumulativeGasUsed": "0x7f519",
      "logs": [
        {
          "address": "0x48065fbbe25f71c9282ddf5e1cd6d6a887483d5e",
          "topics": [
            "0x8c5be1e5ebec7d5bd14f71427d1e84f3dd0314c0f7b2291e5b200ac8c7c3b925",
            "0x0000000000000000000000003a4db9e7306af09012ceb0f222d581fd1f0c6d71",
            "0x000000000000000000000000c2a61494430f6a99d5f024ab6e76b1633c7c13c0"
          ],
          "data": "0x000000000000000000000000000000000000000000000000000000000007a120",
          "blockHash": "0x3bdb6ed77e939060bed84df284e6e743156a762dfe962994feefc4c751753dc3",
          "blockNumber": "0x2037413",
          "transactionHash": "0x9112e524fc5a8a6feae93a941ec75130c7abdef7e7c29db7c2a9252ce6acb5b7",
          "transactionIndex": "0x6",
          "logIndex": "0x13",
          "removed": false
        }
      ],
      "logsBloom": "0x00000000000000000000000000000000000000000000000000000000000000000000000000000000000000000000000000000000000000000000000000200000000000000000000000000000000000000000000000000000000000000000000000000000000000000000000000000000000000000000000040000000000000000000010000000000000000000000400000000000000000000000000000000000020000000000000000000000000000000000000000000000000000000000000000000000000080000000008000000000020000000000001000000000000000000010000000000000001000000000000000000000000000000000000000800000",
      "type": "0x0",
      "transactionHash": "0x9112e524fc5a8a6feae93a941ec75130c7abdef7e7c29db7c2a9252ce6acb5b7",
      "transactionIndex": "0x6",
      "blockHash": "0x3bdb6ed77e939060bed84df284e6e743156a762dfe962994feefc4c751753dc3",
      "blockNumber": "0x2037413",
      "gasUsed": "0xd097",
      "effectiveGasPrice": "0x5d22cfc40",
      "from": "0x3a4db9e7306af09012ceb0f222d581fd1f0c6d71",
      "to": "0x48065fbbe25f71c9282ddf5e1cd6d6a887483d5e",
      "contractAddress": null,
      "l1BaseFeeScalar": "0x0",
      "l1BlobBaseFee": "0x4ef9325c",
      "l1BlobBaseFeeScalar": "0x0",
      "l1Fee": "0x0",
      "l1GasPrice": "0x30ece695",
      "l1GasUsed": "0x640"
    },
    {
      "status": "0x1",
      "cumulativeGasUsed": "0x11e570",
      "logs": [
        {
          "address": "0x48065fbbe25f71c9282ddf5e1cd6d6a887483d5e",
          "topics": [
            "0xddf252ad1be2c89b69c2b068fc378daa952ba7f163c4a11628f55a4df523b3ef",
            "0x0000000000000000000000003a4db9e7306af09012ceb0f222d581fd1f0c6d71",
            "0x000000000000000000000000c2a61494430f6a99d5f024ab6e76b1633c7c13c0"
          ],
          "data": "0x000000000000000000000000000000000000000000000000000000000007a120",
          "blockHash": "0x3bdb6ed77e939060bed84df284e6e743156a762dfe962994feefc4c751753dc3",
          "blockNumber": "0x2037413",
          "transactionHash": "0x6a9656f0716850226669219df7028c00c21349093d7da03d50fcca8bb945cfb5",
          "transactionIndex": "0x7",
          "logIndex": "0x14",
          "removed": false
        },
        {
          "address": "0x48065fbbe25f71c9282ddf5e1cd6d6a887483d5e",
          "topics": [
            "0x8c5be1e5ebec7d5bd14f71427d1e84f3dd0314c0f7b2291e5b200ac8c7c3b925",
            "0x0000000000000000000000003a4db9e7306af09012ceb0f222d581fd1f0c6d71",
            "0x000000000000000000000000c2a61494430f6a99d5f024ab6e76b1633c7c13c0"
          ],
          "data": "0x0000000000000000000000000000000000000000000000000000000000000000",
          "blockHash": "0x3bdb6ed77e939060bed84df284e6e743156a762dfe962994feefc4c751753dc3",
          "blockNumber": "0x2037413",
          "transactionHash": "0x6a9656f0716850226669219df7028c00c21349093d7da03d50fcca8bb945cfb5",
          "transactionIndex": "0x7",
          "logIndex": "0x15",
          "removed": false
        },
        {
          "address": "0x48065fbbe25f71c9282ddf5e1cd6d6a887483d5e",
          "topics": [
            "0x8c5be1e5ebec7d5bd14f71427d1e84f3dd0314c0f7b2291e5b200ac8c7c3b925",
            "0x000000000000000000000000c2a61494430f6a99d5f024ab6e76b1633c7c13c0",
            "0x0000000000000000000000003e59a31363e2ad014dcbc521c4a0d5757d9f3402"
          ],
          "data": "0x000000000000000000000000000000000000000000000000000000000007a120",
          "blockHash": "0x3bdb6ed77e939060bed84df284e6e743156a762dfe962994feefc4c751753dc3",
          "blockNumber": "0x2037413",
          "transactionHash": "0x6a9656f0716850226669219df7028c00c21349093d7da03d50fcca8bb945cfb5",
          "transactionIndex": "0x7",
          "logIndex": "0x16",
          "removed": false
        },
        {
          "address": "0x3e59a31363e2ad014dcbc521c4a0d5757d9f3402",
          "topics": [
            "0x804c9b842b2748a22bb64b345453a3de7ca54a6ca45ce00d415894979e22897a",
            "0x00000000000000000000000048065fbbe25f71c9282ddf5e1cd6d6a887483d5e"
          ],
          "data": "0x00000000000000000000000000000000000000000000000b15ec6eefb8eb8d520000000000000000000000000000000000000000000000000000000000000000000000000000000000000000000000000000000000001c268b247d8c43012f430000000000000000000000000000000000000000033b5f8e1f8e88892f9639200000000000000000000000000000000000000000033bcc9f5ed0dc700b821f97",
          "blockHash": "0x3bdb6ed77e939060bed84df284e6e743156a762dfe962994feefc4c751753dc3",
          "blockNumber": "0x2037413",
          "transactionHash": "0x6a9656f0716850226669219df7028c00c21349093d7da03d50fcca8bb945cfb5",
          "transactionIndex": "0x7",
          "logIndex": "0x17",
          "removed": false
        },
        {
          "address": "0x48065fbbe25f71c9282ddf5e1cd6d6a887483d5e",
          "topics": [
            "0xddf252ad1be2c89b69c2b068fc378daa952ba7f163c4a11628f55a4df523b3ef",
            "0x000000000000000000000000c2a61494430f6a99d5f024ab6e76b1633c7c13c0",
            "0x000000000000000000000000dee98402a302e4d707fb9bf2bac66faeec31e8df"
          ],
          "data": "0x000000000000000000000000000000000000000000000000000000000007a120",
          "blockHash": "0x3bdb6ed77e939060bed84df284e6e743156a762dfe962994feefc4c751753dc3",
          "blockNumber": "0x2037413",
          "transactionHash": "0x6a9656f0716850226669219df7028c00c21349093d7da03d50fcca8bb945cfb5",
          "transactionIndex": "0x7",
          "logIndex": "0x18",
          "removed": false
        },
        {
          "address": "0x48065fbbe25f71c9282ddf5e1cd6d6a887483d5e",
          "topics": [
            "0x8c5be1e5ebec7d5bd14f71427d1e84f3dd0314c0f7b2291e5b200ac8c7c3b925",
            "0x000000000000000000000000c2a61494430f6a99d5f024ab6e76b1633c7c13c0",
            "0x0000000000000000000000003e59a31363e2ad014dcbc521c4a0d5757d9f3402"
          ],
          "data": "0x0000000000000000000000000000000000000000000000000000000000000000",
          "blockHash": "0x3bdb6ed77e939060bed84df284e6e743156a762dfe962994feefc4c751753dc3",
          "blockNumber": "0x2037413",
          "transactionHash": "0x6a9656f0716850226669219df7028c00c21349093d7da03d50fcca8bb945cfb5",
          "transactionIndex": "0x7",
          "logIndex": "0x19",
          "removed": false
        },
        {
          "address": "0xdee98402a302e4d707fb9bf2bac66faeec31e8df",
          "topics": [
            "0xddf252ad1be2c89b69c2b068fc378daa952ba7f163c4a11628f55a4df523b3ef",
            "0x0000000000000000000000000000000000000000000000000000000000000000",
            "0x000000000000000000000000c2a61494430f6a99d5f024ab6e76b1633c7c13c0"
          ],
          "data": "0x000000000000000000000000000000000000000000000000000000000007a120",
          "blockHash": "0x3bdb6ed77e939060bed84df284e6e743156a762dfe962994feefc4c751753dc3",
          "blockNumber": "0x2037413",
          "transactionHash": "0x6a9656f0716850226669219df7028c00c21349093d7da03d50fcca8bb945cfb5",
          "transactionIndex": "0x7",
          "logIndex": "0x1a",
          "removed": false
        },
        {
          "address": "0xdee98402a302e4d707fb9bf2bac66faeec31e8df",
          "topics": [
            "0x458f5fa412d0f69b08dd84872b0215675cc67bc1d5b6fd93300a1c3878b86196",
            "0x000000000000000000000000c2a61494430f6a99d5f024ab6e76b1633c7c13c0",
            "0x000000000000000000000000c2a61494430f6a99d5f024ab6e76b1633c7c13c0"
          ],
          "data": "0x000000000000000000000000000000000000000000000000000000000007a12000000000000000000000000000000000000000000000000000000000000000000000000000000000000000000000000000000000033b5f8e1f8e88892f963920",
          "blockHash": "0x3bdb6ed77e939060bed84df284e6e743156a762dfe962994feefc4c751753dc3",
          "blockNumber": "0x2037413",
          "transactionHash": "0x6a9656f0716850226669219df7028c00c21349093d7da03d50fcca8bb945cfb5",
          "transactionIndex": "0x7",
          "logIndex": "0x1b",
          "removed": false
        },
        {
          "address": "0x3e59a31363e2ad014dcbc521c4a0d5757d9f3402",
          "topics": [
            "0x00058a56ea94653cdf4f152d227ace22d4c00ad99e2a43f58cb7d9e3feb295f2",
            "0x00000000000000000000000048065fbbe25f71c9282ddf5e1cd6d6a887483d5e",
            "0x000000000000000000000000c2a61494430f6a99d5f024ab6e76b1633c7c13c0"
          ],
          "data": "0x",
          "blockHash": "0x3bdb6ed77e939060bed84df284e6e743156a762dfe962994feefc4c751753dc3",
          "blockNumber": "0x2037413",
          "transactionHash": "0x6a9656f0716850226669219df7028c00c21349093d7da03d50fcca8bb945cfb5",
          "transactionIndex": "0x7",
          "logIndex": "0x1c",
          "removed": false
        },
        {
          "address": "0x3e59a31363e2ad014dcbc521c4a0d5757d9f3402",
          "topics": [
            "0x2b627736bca15cd5381dcf80b0bf11fd197d01a037c52b927a881a10fb73ba61",
            "0x00000000000000000000000048065fbbe25f71c9282ddf5e1cd6d6a887483d5e",
            "0x000000000000000000000000c2a61494430f6a99d5f024ab6e76b1633c7c13c0",
            "0x0000000000000000000000000000000000000000000000000000000000000000"
          ],
          "data": "0x000000000000000000000000c2a61494430f6a99d5f024ab6e76b1633c7c13c0000000000000000000000000000000000000000000000000000000000007a120",
          "blockHash": "0x3bdb6ed77e939060bed84df284e6e743156a762dfe962994feefc4c751753dc3",
          "blockNumber": "0x2037413",
          "transactionHash": "0x6a9656f0716850226669219df7028c00c21349093d7da03d50fcca8bb945cfb5",
          "transactionIndex": "0x7",
          "logIndex": "0x1d",
          "removed": false
        },
        {
          "address": "0xdbe517c0fa6467873b684eccbed77217e471e862",
          "topics": [
            "0xddf252ad1be2c89b69c2b068fc378daa952ba7f163c4a11628f55a4df523b3ef",
            "0x0000000000000000000000000000000000000000000000000000000000000000",
            "0x000000000000000000000000c2a61494430f6a99d5f024ab6e76b1633c7c13c0"
          ],
          "data": "0x000000000000000000000000000000000000000000000000000000000003d090",
          "blockHash": "0x3bdb6ed77e939060bed84df284e6e743156a762dfe962994feefc4c751753dc3",
          "blockNumber": "0x2037413",
          "transactionHash": "0x6a9656f0716850226669219df7028c00c21349093d7da03d50fcca8bb945cfb5",
          "transactionIndex": "0x7",
          "logIndex": "0x1e",
          "removed": false
        },
        {
          "address": "0xdbe517c0fa6467873b684eccbed77217e471e862",
          "topics": [
            "0x458f5fa412d0f69b08dd84872b0215675cc67bc1d5b6fd93300a1c3878b86196",
            "0x000000000000000000000000c2a61494430f6a99d5f024ab6e76b1633c7c13c0",
            "0x000000000000000000000000c2a61494430f6a99d5f024ab6e76b1633c7c13c0"
          ],
          "data": "0x000000000000000000000000000000000000000000000000000000000003d09000000000000000000000000000000000000000000000000000000000000000000000000000000000000000000000000000000000033c4f17b768088fab83bcc0",
          "blockHash": "0x3bdb6ed77e939060bed84df284e6e743156a762dfe962994feefc4c751753dc3",
          "blockNumber": "0x2037413",
          "transactionHash": "0x6a9656f0716850226669219df7028c00c21349093d7da03d50fcca8bb945cfb5",
          "transactionIndex": "0x7",
          "logIndex": "0x1f",
          "removed": false
        },
        {
          "address": "0x3e59a31363e2ad014dcbc521c4a0d5757d9f3402",
          "topics": [
            "0x804c9b842b2748a22bb64b345453a3de7ca54a6ca45ce00d415894979e22897a",
            "0x000000000000000000000000ceba9300f2b948710d2653dd7b07f33a8b32118c"
          ],
          "data": "0x00000000000000000000000000000000000000000000d50ba4cc33e0186b85bf000000000000000000000000000000000000000000000000000000000000000000000000000000000000000000000000000000000007b686a0ab168e45aa09d80000000000000000000000000000000000000000033b68bbb71a59ed0261e5fb0000000000000000000000000000000000000000033c4f17b768088fab83bcc0",
          "blockHash": "0x3bdb6ed77e939060bed84df284e6e743156a762dfe962994feefc4c751753dc3",
          "blockNumber": "0x2037413",
          "transactionHash": "0x6a9656f0716850226669219df7028c00c21349093d7da03d50fcca8bb945cfb5",
          "transactionIndex": "0x7",
          "logIndex": "0x20",
          "removed": false
        },
        {
          "address": "0xceba9300f2b948710d2653dd7b07f33a8b32118c",
          "topics": [
            "0xddf252ad1be2c89b69c2b068fc378daa952ba7f163c4a11628f55a4df523b3ef",
            "0x000000000000000000000000ff8309b9e99bfd2d4021bc71a362abd93dbd4785",
            "0x000000000000000000000000c2a61494430f6a99d5f024ab6e76b1633c7c13c0"
          ],
          "data": "0x000000000000000000000000000000000000000000000000000000000003d090",
          "blockHash": "0x3bdb6ed77e939060bed84df284e6e743156a762dfe962994feefc4c751753dc3",
          "blockNumber": "0x2037413",
          "transactionHash": "0x6a9656f0716850226669219df7028c00c21349093d7da03d50fcca8bb945cfb5",
          "transactionIndex": "0x7",
          "logIndex": "0x21",
          "removed": false
        },
        {
          "address": "0x3e59a31363e2ad014dcbc521c4a0d5757d9f3402",
          "topics": [
            "0xb3d084820fb1a9decffb176436bd02558d15fac9b0ddfed8c465bc7359d7dce0",
            "0x000000000000000000000000ceba9300f2b948710d2653dd7b07f33a8b32118c",
            "0x000000000000000000000000c2a61494430f6a99d5f024ab6e76b1633c7c13c0",
            "0x0000000000000000000000000000000000000000000000000000000000000000"
          ],
          "data": "0x000000000000000000000000c2a61494430f6a99d5f024ab6e76b1633c7c13c0000000000000000000000000000000000000000000000000000000000003d090000000000000000000000000000000000000000000000000000000000000000200000000000000000000000000000000000000000007b686a0ab168e45aa09d8",
          "blockHash": "0x3bdb6ed77e939060bed84df284e6e743156a762dfe962994feefc4c751753dc3",
          "blockNumber": "0x2037413",
          "transactionHash": "0x6a9656f0716850226669219df7028c00c21349093d7da03d50fcca8bb945cfb5",
          "transactionIndex": "0x7",
          "logIndex": "0x22",
          "removed": false
        },
        {
          "address": "0xceba9300f2b948710d2653dd7b07f33a8b32118c",
          "topics": [
            "0xddf252ad1be2c89b69c2b068fc378daa952ba7f163c4a11628f55a4df523b3ef",
            "0x000000000000000000000000c2a61494430f6a99d5f024ab6e76b1633c7c13c0",
            "0x0000000000000000000000003a4db9e7306af09012ceb0f222d581fd1f0c6d71"
          ],
          "data": "0x000000000000000000000000000000000000000000000000000000000003d090",
          "blockHash": "0x3bdb6ed77e939060bed84df284e6e743156a762dfe962994feefc4c751753dc3",
          "blockNumber": "0x2037413",
          "transactionHash": "0x6a9656f0716850226669219df7028c00c21349093d7da03d50fcca8bb945cfb5",
          "transactionIndex": "0x7",
          "logIndex": "0x23",
          "removed": false
        },
        {
          "address": "0xc2a61494430f6a99d5f024ab6e76b1633c7c13c0",
          "topics": [
            "0x9f9b498443531d2db9df8a00ec466efc74ba50ec1d82f7badd3424b87930e19a",
            "0x0000000000000000000000000000000000000000000000000000000000000002",
            "0x0000000000000000000000003a4db9e7306af09012ceb0f222d581fd1f0c6d71"
          ],
          "data": "0x00000000000000000000000048065fbbe25f71c9282ddf5e1cd6d6a887483d5e000000000000000000000000000000000000000000000000000000000007a120000000000000000000000000ceba9300f2b948710d2653dd7b07f33a8b32118c000000000000000000000000000000000000000000000000000000000003d0900000000000000000000000000000000000000000000000000000000000000002",
          "blockHash": "0x3bdb6ed77e939060bed84df284e6e743156a762dfe962994feefc4c751753dc3",
          "blockNumber": "0x2037413",
          "transactionHash": "0x6a9656f0716850226669219df7028c00c21349093d7da03d50fcca8bb945cfb5",
          "transactionIndex": "0x7",
          "logIndex": "0x24",
          "removed": false
        }
      ],
      "logsBloom": "0x0400000000000801028012000040000000100000000000000000000000000000000000080000000000002000000440000010000080000000000000000020000000000000800000080000000840000000000000000004000000000004000000000000000002000000000000020000080000000002000000004000001000000000000001008000000000000000000040000000000000000000220000000000000002000110000100000000014000000000100000000000000040000000000001000200000200008120000002a040000040020000000000041000020000000120000010000000004010001800000001000040000000008000000000400000800000",
      "type": "0x0",
      "transactionHash": "0x6a9656f0716850226669219df7028c00c21349093d7da03d50fcca8bb945cfb5",
      "transactionIndex": "0x7",
      "blockHash": "0x3bdb6ed77e939060bed84df284e6e743156a762dfe962994feefc4c751753dc3",
      "blockNumber": "0x2037413",
      "gasUsed": "0x9f057",
      "effectiveGasPrice": "0x5d22cfc40",
      "from": "0x3a4db9e7306af09012ceb0f222d581fd1f0c6d71",
      "to": "0xc2a61494430f6a99d5f024ab6e76b1633c7c13c0",
      "contractAddress": null,
      "l1BaseFeeScalar": "0x0",
      "l1BlobBaseFee": "0x4ef9325c",
      "l1BlobBaseFeeScalar": "0x0",
      "l1Fee": "0x0",
      "l1GasPrice": "0x30ece695",
      "l1GasUsed": "0x76d"
    }
  ],
  "libraries": [],
  "pending": [],
  "returns": {},
  "timestamp": 1745681514,
  "chain": 42220,
  "commit": "1cefd9d"
}