{
  "transactions": [
    {
      "hash": "0xcaaabea51f7b888f3552bbf9077adf179fa3b6c2e458e692ec273c1478e0fdfc",
      "transactionType": "CALL",
      "contractName": null,
      "contractAddress": "0x48065fbbe25f71c9282ddf5e1cd6d6a887483d5e",
      "function": "approve(address,uint256)",
      "arguments": [
        "0xd2B508298fCC37261953684744ec4CCc734d5083",
        "500000"
      ],
      "transaction": {
        "from": "0x3a4db9e7306af09012ceb0f222d581fd1f0c6d71",
        "to": "0x48065fbbe25f71c9282ddf5e1cd6d6a887483d5e",
        "gas": "0x1201c",
        "value": "0x0",
        "input": "0x095ea7b3000000000000000000000000d2b508298fcc37261953684744ec4ccc734d5083000000000000000000000000000000000000000000000000000000000007a120",
        "nonce": "0xe7",
        "chainId": "0xa4ec"
      },
      "additionalContracts": [],
      "isFixedGasLimit": false
    },
    {
      "hash": "0xe565d2afa81d3a9571a392f7ce9a0c6f8c75439f1425926df1b04cda91f25d53",
      "transactionType": "CALL",
      "contractName": null,
      "contractAddress": "0xd2b508298fcc37261953684744ec4ccc734d5083",
      "function": "createPosition(address,uint256,address,uint256,uint256)",
      "arguments": [
        "0x48065fbBE25f71C9282ddf5e1cD6D6A887483D5e",
        "500000",
        "0xcebA9300f2b948710d2653dD7B07f33A8B32118C",
        "250000",
        "2"
      ],
      "transaction": {
        "from": "0x3a4db9e7306af09012ceb0f222d581fd1f0c6d71",
        "to": "0xd2b508298fcc37261953684744ec4ccc734d5083",
        "gas": "0xe8a41",
        "value": "0x0",
        "input": "0xb0c3d5df00000000000000000000000048065fbbe25f71c9282ddf5e1cd6d6a887483d5e000000000000000000000000000000000000000000000000000000000007a120000000000000000000000000ceba9300f2b948710d2653dd7b07f33a8b32118c000000000000000000000000000000000000000000000000000000000003d0900000000000000000000000000000000000000000000000000000000000000002",
        "nonce": "0xe8",
        "chainId": "0xa4ec"
      },
      "additionalContracts": [],
      "isFixedGasLimit": false
    },
    {
      "hash": "0xb010fff8f86a02dbaf6c4b00f520e7b46a61dff41ff944736a8dd6dc2621eca1",
      "transactionType": "CALL",
      "contractName": null,
      "contractAddress": "0x48065fbbe25f71c9282ddf5e1cd6d6a887483d5e",
      "function": "approve(address,uint256)",
      "arguments": [
        "0xd2B508298fCC37261953684744ec4CCc734d5083",
        "250000"
      ],
      "transaction": {
        "from": "0x3a4db9e7306af09012ceb0f222d581fd1f0c6d71",
        "to": "0x48065fbbe25f71c9282ddf5e1cd6d6a887483d5e",
        "gas": "0x1201c",
        "value": "0x0",
        "input": "0x095ea7b3000000000000000000000000d2b508298fcc37261953684744ec4ccc734d5083000000000000000000000000000000000000000000000000000000000003d090",
        "nonce": "0xe9",
        "chainId": "0xa4ec"
      },
      "additionalContracts": [],
      "isFixedGasLimit": false
    },
    {
      "hash": "0x80a19dd8a0c4e0b64ac82064eee8bafe418464e4150f90501b8d41c2b752cee0",
      "transactionType": "CALL",
      "contractName": null,
      "contractAddress": "0xd2b508298fcc37261953684744ec4ccc734d5083",
      "function": "addCollateral(uint256,uint256)",
      "arguments": [
        "9",
        "250000"
      ],
      "transaction": {
        "from": "0x3a4db9e7306af09012ceb0f222d581fd1f0c6d71",
        "to": "0xd2b508298fcc37261953684744ec4ccc734d5083",
        "gas": "0x4b6d2",
        "value": "0x0",
        "input": "0xa8f35adf0000000000000000000000000000000000000000000000000000000000000009000000000000000000000000000000000000000000000000000000000003d090",
        "nonce": "0xea",
        "chainId": "0xa4ec"
      },
      "additionalContracts": [],
      "isFixedGasLimit": false
    },
    {
      "hash": "0x981561b70a69e19674fa0ae01e417e4b21d640030b36d44556cb0f7105a9f124",
      "transactionType": "CALL",
      "contractName": null,
      "contractAddress": "0xd2b508298fcc37261953684744ec4ccc734d5083",
      "function": "increaseBorrow(uint256,uint256)",
      "arguments": [
        "9",
        "125000"
      ],
      "transaction": {
        "from": "0x3a4db9e7306af09012ceb0f222d581fd1f0c6d71",
        "to": "0xd2b508298fcc37261953684744ec4ccc734d5083",
        "gas": "0x815b7",
        "value": "0x0",
        "input": "0x9e6824d90000000000000000000000000000000000000000000000000000000000000009000000000000000000000000000000000000000000000000000000000001e848",
        "nonce": "0xeb",
        "chainId": "0xa4ec"
      },
      "additionalContracts": [],
      "isFixedGasLimit": false
    },
    {
      "hash": "0x10667aace5d25b4aec8452611066914b827fbee5e6c87659738255c477902cd3",
      "transactionType": "CALL",
      "contractName": null,
      "contractAddress": "0xceba9300f2b948710d2653dd7b07f33a8b32118c",
      "function": "approve(address,uint256)",
      "arguments": [
        "0xd2B508298fCC37261953684744ec4CCc734d5083",
        "187500"
      ],
      "transaction": {
        "from": "0x3a4db9e7306af09012ceb0f222d581fd1f0c6d71",
        "to": "0xceba9300f2b948710d2653dd7b07f33a8b32118c",
        "gas": "0xcb04",
        "value": "0x0",
        "input": "0x095ea7b3000000000000000000000000d2b508298fcc37261953684744ec4ccc734d5083000000000000000000000000000000000000000000000000000000000002dc6c",
        "nonce": "0xec",
        "chainId": "0xa4ec"
      },
      "additionalContracts": [],
      "isFixedGasLimit": false
    },
    {
      "hash": "0xe55342528bf213e580db0f0b58423a7ab9f4eaa8392abc3a70b38594f4f88348",
      "transactionType": "CALL",
      "contractName": null,
      "contractAddress": "0xd2b508298fcc37261953684744ec4ccc734d5083",
      "function": "repayDebt(uint256,uint256)",
      "arguments": [
        "9",
        "187500"
      ],
      "transaction": {
        "from": "0x3a4db9e7306af09012ceb0f222d581fd1f0c6d71",
        "to": "0xd2b508298fcc37261953684744ec4ccc734d5083",
        "gas": "0x4874c",
        "value": "0x0",
        "input": "0x015cb0a50000000000000000000000000000000000000000000000000000000000000009000000000000000000000000000000000000000000000000000000000002dc6c",
        "nonce": "0xed",
        "chainId": "0xa4ec"
      },
      "additionalContracts": [],
      "isFixedGasLimit": false
    },
    {
      "hash": "0xc94f2ed4f2a4efff2d2fa465c7c1f9a2bd4be60360a0d3b7fc93a497532f9073",
      "transactionType": "CALL",
      "contractName": null,
      "contractAddress": "0xd2b508298fcc37261953684744ec4ccc734d5083",
      "function": "withdrawCollateral(uint256,uint256)",
      "arguments": [
        "9",
        "150000"
      ],
      "transaction": {
        "from": "0x3a4db9e7306af09012ceb0f222d581fd1f0c6d71",
        "to": "0xd2b508298fcc37261953684744ec4ccc734d5083",
        "gas": "0x75c35",
        "value": "0x0",
        "input": "0x767a7b05000000000000000000000000000000000000000000000000000000000000000900000000000000000000000000000000000000000000000000000000000249f0",
        "nonce": "0xee",
        "chainId": "0xa4ec"
      },
      "additionalContracts": [],
      "isFixedGasLimit": false
    },
    {
      "hash": "0x4e88f70198217214e67a8ccbe0d31d84493b4fbb65170701d0b9da06fb23e88e",
      "transactionType": "CALL",
      "contractName": null,
      "contractAddress": "0xceba9300f2b948710d2653dd7b07f33a8b32118c",
      "function": "approve(address,uint256)",
      "arguments": [
        "0xd2B508298fCC37261953684744ec4CCc734d5083",
        "375000"
      ],
      "transaction": {
        "from": "0x3a4db9e7306af09012ceb0f222d581fd1f0c6d71",
        "to": "0xceba9300f2b948710d2653dd7b07f33a8b32118c",
        "gas": "0x12b1b",
        "value": "0x0",
        "input": "0x095ea7b3000000000000000000000000d2b508298fcc37261953684744ec4ccc734d5083000000000000000000000000000000000000000000000000000000000005b8d8",
        "nonce": "0xef",
        "chainId": "0xa4ec"
      },
      "additionalContracts": [],
      "isFixedGasLimit": false
    },
    {
      "hash": "0xce469f3873a89d0c0a1c0a79e0d78552b217ae6ef89b3732954a807b968e1d96",
      "transactionType": "CALL",
      "contractName": null,
      "contractAddress": "0xd2b508298fcc37261953684744ec4ccc734d5083",
      "function": "repayDebt(uint256,uint256)",
      "arguments": [
        "9",
        "187500"
      ],
      "transaction": {
        "from": "0x3a4db9e7306af09012ceb0f222d581fd1f0c6d71",
        "to": "0xd2b508298fcc37261953684744ec4ccc734d5083",
        "gas": "0x485f1",
        "value": "0x0",
        "input": "0x015cb0a50000000000000000000000000000000000000000000000000000000000000009000000000000000000000000000000000000000000000000000000000002dc6c",
        "nonce": "0xf0",
        "chainId": "0xa4ec"
      },
      "additionalContracts": [],
      "isFixedGasLimit": false
    },
    {
      "hash": "0x5a3976f6a77fdb3cfa9d3c26f8837a9df90eff01c630f60cbf0d141eded5fd93",
      "transactionType": "CALL",
      "contractName": null,
      "contractAddress": "0xd2b508298fcc37261953684744ec4ccc734d5083",
      "function": "withdrawCollateral(uint256,uint256)",
      "arguments": [
        "9",
        "600000"
      ],
      "transaction": {
        "from": "0x3a4db9e7306af09012ceb0f222d581fd1f0c6d71",
        "to": "0xd2b508298fcc37261953684744ec4ccc734d5083",
        "gas": "0x740c9",
        "value": "0x0",
        "input": "0x767a7b05000000000000000000000000000000000000000000000000000000000000000900000000000000000000000000000000000000000000000000000000000927c0",
        "nonce": "0xf1",
        "chainId": "0xa4ec"
      },
      "additionalContracts": [],
      "isFixedGasLimit": false
    }
  ],
  "receipts": [
    {
      "status": "0x1",
      "cumulativeGasUsed": "0x94b74",
      "logs": [
        {
          "address": "0x48065fbbe25f71c9282ddf5e1cd6d6a887483d5e",
          "topics": [
            "0x8c5be1e5ebec7d5bd14f71427d1e84f3dd0314c0f7b2291e5b200ac8c7c3b925",
            "0x0000000000000000000000003a4db9e7306af09012ceb0f222d581fd1f0c6d71",
            "0x000000000000000000000000d2b508298fcc37261953684744ec4ccc734d5083"
          ],
          "data": "0x000000000000000000000000000000000000000000000000000000000007a120",
          "blockHash": "0x017cd38fd491c822141f2071445e10682a2b841221d712a1c010faa6cf7916fb",
          "blockNumber": "0x207bfd2",
          "transactionHash": "0xcaaabea51f7b888f3552bbf9077adf179fa3b6c2e458e692ec273c1478e0fdfc",
          "transactionIndex": "0x5",
          "logIndex": "0x11",
          "removed": false
        }
      ],
      "logsBloom": "0x00000000000000000000000000000000000000000000000000000000000000000000000000000000000000000000000000000000000000000000000000200000000000000000000000000000000000000000000000000000000000000000000000000000000000000000000000000000000000000000000040000000000000000000010000000000000000000000400000000000000000000000000000000000020000000000000000000000000000000000000000000000000000000000000000000000000080000000008000000000000000000000001000000000000000000110100000000000000000000000000000000000000010000000000000000000",
      "type": "0x0",
      "transactionHash": "0xcaaabea51f7b888f3552bbf9077adf179fa3b6c2e458e692ec273c1478e0fdfc",
      "transactionIndex": "0x5",
      "blockHash": "0x017cd38fd491c822141f2071445e10682a2b841221d712a1c010faa6cf7916fb",
      "blockNumber": "0x207bfd2",
      "gasUsed": "0xd097",
      "effectiveGasPrice": "0x5d22cfc40",
      "from": "0x3a4db9e7306af09012ceb0f222d581fd1f0c6d71",
      "to": "0x48065fbbe25f71c9282ddf5e1cd6d6a887483d5e",
      "contractAddress": null,
      "l1BaseFeeScalar": "0x0",
      "l1BlobBaseFee": "0x1851ce98",
      "l1BlobBaseFeeScalar": "0x0",
      "l1Fee": "0x0",
      "l1GasPrice": "0x509b0990",
      "l1GasUsed": "0x640"
    },
    {
      "status": "0x1",
      "cumulativeGasUsed": "0x133c96",
      "logs": [
        {
          "address": "0x48065fbbe25f71c9282ddf5e1cd6d6a887483d5e",
          "topics": [
            "0xddf252ad1be2c89b69c2b068fc378daa952ba7f163c4a11628f55a4df523b3ef",
            "0x0000000000000000000000003a4db9e7306af09012ceb0f222d581fd1f0c6d71",
            "0x000000000000000000000000d2b508298fcc37261953684744ec4ccc734d5083"
          ],
          "data": "0x000000000000000000000000000000000000000000000000000000000007a120",
          "blockHash": "0x017cd38fd491c822141f2071445e10682a2b841221d712a1c010faa6cf7916fb",
          "blockNumber": "0x207bfd2",
          "transactionHash": "0xe565d2afa81d3a9571a392f7ce9a0c6f8c75439f1425926df1b04cda91f25d53",
          "transactionIndex": "0x6",
          "logIndex": "0x12",
          "removed": false
        },
        {
          "address": "0x48065fbbe25f71c9282ddf5e1cd6d6a887483d5e",
          "topics": [
            "0x8c5be1e5ebec7d5bd14f71427d1e84f3dd0314c0f7b2291e5b200ac8c7c3b925",
            "0x0000000000000000000000003a4db9e7306af09012ceb0f222d581fd1f0c6d71",
            "0x000000000000000000000000d2b508298fcc37261953684744ec4ccc734d5083"
          ],
          "data": "0x0000000000000000000000000000000000000000000000000000000000000000",
          "blockHash": "0x017cd38fd491c822141f2071445e10682a2b841221d712a1c010faa6cf7916fb",
          "blockNumber": "0x207bfd2",
          "transactionHash": "0xe565d2afa81d3a9571a392f7ce9a0c6f8c75439f1425926df1b04cda91f25d53",
          "transactionIndex": "0x6",
          "logIndex": "0x13",
          "removed": false
        },
        {
          "address": "0x48065fbbe25f71c9282ddf5e1cd6d6a887483d5e",
          "topics": [
            "0x8c5be1e5ebec7d5bd14f71427d1e84f3dd0314c0f7b2291e5b200ac8c7c3b925",
            "0x000000000000000000000000d2b508298fcc37261953684744ec4ccc734d5083",
            "0x0000000000000000000000003e59a31363e2ad014dcbc521c4a0d5757d9f3402"
          ],
          "data": "0x000000000000000000000000000000000000000000000000000000000007a120",
          "blockHash": "0x017cd38fd491c822141f2071445e10682a2b841221d712a1c010faa6cf7916fb",
          "blockNumber": "0x207bfd2",
          "transactionHash": "0xe565d2afa81d3a9571a392f7ce9a0c6f8c75439f1425926df1b04cda91f25d53",
          "transactionIndex": "0x6",
          "logIndex": "0x14",
          "removed": false
        },
        {
          "address": "0x3e59a31363e2ad014dcbc521c4a0d5757d9f3402",
          "topics": [
            "0x804c9b842b2748a22bb64b345453a3de7ca54a6ca45ce00d415894979e22897a",
            "0x00000000000000000000000048065fbbe25f71c9282ddf5e1cd6d6a887483d5e"
          ],
          "data": "0x00000000000000000000000000000000000000000000000c95acd0860117d0e80000000000000000000000000000000000000000000000000000000000000000000000000000000000000000000000000000000000001dfe57ec3fd2587bb7520000000000000000000000000000000000000000033b5f8e3b1d7147d124e7ba0000000000000000000000000000000000000000033bcce27b638424768256ef",
          "blockHash": "0x017cd38fd491c822141f2071445e10682a2b841221d712a1c010faa6cf7916fb",
          "blockNumber": "0x207bfd2",
          "transactionHash": "0xe565d2afa81d3a9571a392f7ce9a0c6f8c75439f1425926df1b04cda91f25d53",
          "transactionIndex": "0x6",
          "logIndex": "0x15",
          "removed": false
        },
        {
          "address": "0x48065fbbe25f71c9282ddf5e1cd6d6a887483d5e",
          "topics": [
            "0xddf252ad1be2c89b69c2b068fc378daa952ba7f163c4a11628f55a4df523b3ef",
            "0x000000000000000000000000d2b508298fcc37261953684744ec4ccc734d5083",
            "0x000000000000000000000000dee98402a302e4d707fb9bf2bac66faeec31e8df"
          ],
          "data": "0x000000000000000000000000000000000000000000000000000000000007a120",
          "blockHash": "0x017cd38fd491c822141f2071445e10682a2b841221d712a1c010faa6cf7916fb",
          "blockNumber": "0x207bfd2",
          "transactionHash": "0xe565d2afa81d3a9571a392f7ce9a0c6f8c75439f1425926df1b04cda91f25d53",
          "transactionIndex": "0x6",
          "logIndex": "0x16",
          "removed": false
        },
        {
          "address": "0x48065fbbe25f71c9282ddf5e1cd6d6a887483d5e",
          "topics": [
            "0x8c5be1e5ebec7d5bd14f71427d1e84f3dd0314c0f7b2291e5b200ac8c7c3b925",
            "0x000000000000000000000000d2b508298fcc37261953684744ec4ccc734d5083",
            "0x0000000000000000000000003e59a31363e2ad014dcbc521c4a0d5757d9f3402"
          ],
          "data": "0x0000000000000000000000000000000000000000000000000000000000000000",
          "blockHash": "0x017cd38fd491c822141f2071445e10682a2b841221d712a1c010faa6cf7916fb",
          "blockNumber": "0x207bfd2",
          "transactionHash": "0xe565d2afa81d3a9571a392f7ce9a0c6f8c75439f1425926df1b04cda91f25d53",
          "transactionIndex": "0x6",
          "logIndex": "0x17",
          "removed": false
        },
        {
          "address": "0xdee98402a302e4d707fb9bf2bac66faeec31e8df",
          "topics": [
            "0xddf252ad1be2c89b69c2b068fc378daa952ba7f163c4a11628f55a4df523b3ef",
            "0x0000000000000000000000000000000000000000000000000000000000000000",
            "0x000000000000000000000000d2b508298fcc37261953684744ec4ccc734d5083"
          ],
          "data": "0x000000000000000000000000000000000000000000000000000000000007a120",
          "blockHash": "0x017cd38fd491c822141f2071445e10682a2b841221d712a1c010faa6cf7916fb",
          "blockNumber": "0x207bfd2",
          "transactionHash": "0xe565d2afa81d3a9571a392f7ce9a0c6f8c75439f1425926df1b04cda91f25d53",
          "transactionIndex": "0x6",
          "logIndex": "0x18",
          "removed": false
        },
        {
          "address": "0xdee98402a302e4d707fb9bf2bac66faeec31e8df",
          "topics": [
            "0x458f5fa412d0f69b08dd84872b0215675cc67bc1d5b6fd93300a1c3878b86196",
            "0x000000000000000000000000d2b508298fcc37261953684744ec4ccc734d5083",
            "0x000000000000000000000000d2b508298fcc37261953684744ec4ccc734d5083"
          ],
          "data": "0x000000000000000000000000000000000000000000000000000000000007a12000000000000000000000000000000000000000000000000000000000000000000000000000000000000000000000000000000000033b5f8e3b1d7147d124e7ba",
          "blockHash": "0x017cd38fd491c822141f2071445e10682a2b841221d712a1c010faa6cf7916fb",
          "blockNumber": "0x207bfd2",
          "transactionHash": "0xe565d2afa81d3a9571a392f7ce9a0c6f8c75439f1425926df1b04cda91f25d53",
          "transactionIndex": "0x6",
          "logIndex": "0x19",
          "removed": false
        },
        {
          "address": "0x3e59a31363e2ad014dcbc521c4a0d5757d9f3402",
          "topics": [
            "0x2b627736bca15cd5381dcf80b0bf11fd197d01a037c52b927a881a10fb73ba61",
            "0x00000000000000000000000048065fbbe25f71c9282ddf5e1cd6d6a887483d5e",
            "0x000000000000000000000000d2b508298fcc37261953684744ec4ccc734d5083",
            "0x0000000000000000000000000000000000000000000000000000000000000000"
          ],
          "data": "0x000000000000000000000000d2b508298fcc37261953684744ec4ccc734d5083000000000000000000000000000000000000000000000000000000000007a120",
          "blockHash": "0x017cd38fd491c822141f2071445e10682a2b841221d712a1c010faa6cf7916fb",
          "blockNumber": "0x207bfd2",
          "transactionHash": "0xe565d2afa81d3a9571a392f7ce9a0c6f8c75439f1425926df1b04cda91f25d53",
          "transactionIndex": "0x6",
          "logIndex": "0x1a",
          "removed": false
        },
        {
          "address": "0xdbe517c0fa6467873b684eccbed77217e471e862",
          "topics": [
            "0xddf252ad1be2c89b69c2b068fc378daa952ba7f163c4a11628f55a4df523b3ef",
            "0x0000000000000000000000000000000000000000000000000000000000000000",
            "0x000000000000000000000000d2b508298fcc37261953684744ec4ccc734d5083"
          ],
          "data": "0x000000000000000000000000000000000000000000000000000000000003d0b6",
          "blockHash": "0x017cd38fd491c822141f2071445e10682a2b841221d712a1c010faa6cf7916fb",
          "blockNumber": "0x207bfd2",
          "transactionHash": "0xe565d2afa81d3a9571a392f7ce9a0c6f8c75439f1425926df1b04cda91f25d53",
          "transactionIndex": "0x6",
          "logIndex": "0x1b",
          "removed": false
        },
        {
          "address": "0xdbe517c0fa6467873b684eccbed77217e471e862",
          "topics": [
            "0x458f5fa412d0f69b08dd84872b0215675cc67bc1d5b6fd93300a1c3878b86196",
            "0x000000000000000000000000d2b508298fcc37261953684744ec4ccc734d5083",
            "0x000000000000000000000000d2b508298fcc37261953684744ec4ccc734d5083"
          ],
          "data": "0x000000000000000000000000000000000000000000000000000000000003d0b600000000000000000000000000000000000000000000000000000000000000260000000000000000000000000000000000000000033c60c46175ba80748038ef",
          "blockHash": "0x017cd38fd491c822141f2071445e10682a2b841221d712a1c010faa6cf7916fb",
          "blockNumber": "0x207bfd2",
          "transactionHash": "0xe565d2afa81d3a9571a392f7ce9a0c6f8c75439f1425926df1b04cda91f25d53",
          "transactionIndex": "0x6",
          "logIndex": "0x1c",
          "removed": false
        },
        {
          "address": "0x3e59a31363e2ad014dcbc521c4a0d5757d9f3402",
          "topics": [
            "0x804c9b842b2748a22bb64b345453a3de7ca54a6ca45ce00d415894979e22897a",
            "0x000000000000000000000000ceba9300f2b948710d2653dd7b07f33a8b32118c"
          ],
          "data": "0x00000000000000000000000000000000000000000000d6333476498d51593fa4000000000000000000000000000000000000000000000000000000000000000000000000000000000000000000000000000000000007bbde6bf40d73280721a20000000000000000000000000000000000000000033b6aa3fc01bfa3f644f9750000000000000000000000000000000000000000033c60c46175ba80748038ef",
          "blockHash": "0x017cd38fd491c822141f2071445e10682a2b841221d712a1c010faa6cf7916fb",
          "blockNumber": "0x207bfd2",
          "transactionHash": "0xe565d2afa81d3a9571a392f7ce9a0c6f8c75439f1425926df1b04cda91f25d53",
          "transactionIndex": "0x6",
          "logIndex": "0x1d",
          "removed": false
        },
        {
          "address": "0xceba9300f2b948710d2653dd7b07f33a8b32118c",
          "topics": [
            "0xddf252ad1be2c89b69c2b068fc378daa952ba7f163c4a11628f55a4df523b3ef",
            "0x000000000000000000000000ff8309b9e99bfd2d4021bc71a362abd93dbd4785",
            "0x000000000000000000000000d2b508298fcc37261953684744ec4ccc734d5083"
          ],
          "data": "0x000000000000000000000000000000000000000000000000000000000003d090",
          "blockHash": "0x017cd38fd491c822141f2071445e10682a2b841221d712a1c010faa6cf7916fb",
          "blockNumber": "0x207bfd2",
          "transactionHash": "0xe565d2afa81d3a9571a392f7ce9a0c6f8c75439f1425926df1b04cda91f25d53",
          "transactionIndex": "0x6",
          "logIndex": "0x1e",
          "removed": false
        },
        {
          "address": "0x3e59a31363e2ad014dcbc521c4a0d5757d9f3402",
          "topics": [
            "0xb3d084820fb1a9decffb176436bd02558d15fac9b0ddfed8c465bc7359d7dce0",
            "0x000000000000000000000000ceba9300f2b948710d2653dd7b07f33a8b32118c",
            "0x000000000000000000000000d2b508298fcc37261953684744ec4ccc734d5083",
            "0x0000000000000000000000000000000000000000000000000000000000000000"
          ],
          "data": "0x000000000000000000000000d2b508298fcc37261953684744ec4ccc734d5083000000000000000000000000000000000000000000000000000000000003d090000000000000000000000000000000000000000000000000000000000000000200000000000000000000000000000000000000000007bbde6bf40d73280721a2",
          "blockHash": "0x017cd38fd491c822141f2071445e10682a2b841221d712a1c010faa6cf7916fb",
          "blockNumber": "0x207bfd2",
          "transactionHash": "0xe565d2afa81d3a9571a392f7ce9a0c6f8c75439f1425926df1b04cda91f25d53",
          "transactionIndex": "0x6",
          "logIndex": "0x1f",
          "removed": false
        },
        {
          "address": "0xceba9300f2b948710d2653dd7b07f33a8b32118c",
          "topics": [
            "0xddf252ad1be2c89b69c2b068fc378daa952ba7f163c4a11628f55a4df523b3ef",
            "0x000000000000000000000000d2b508298fcc37261953684744ec4ccc734d5083",
            "0x0000000000000000000000003a4db9e7306af09012ceb0f222d581fd1f0c6d71"
          ],
          "data": "0x000000000000000000000000000000000000000000000000000000000003d090",
          "blockHash": "0x017cd38fd491c822141f2071445e10682a2b841221d712a1c010faa6cf7916fb",
          "blockNumber": "0x207bfd2",
          "transactionHash": "0xe565d2afa81d3a9571a392f7ce9a0c6f8c75439f1425926df1b04cda91f25d53",
          "transactionIndex": "0x6",
          "logIndex": "0x20",
          "removed": false
        },
        {
          "address": "0xd2b508298fcc37261953684744ec4ccc734d5083",
          "topics": [
            "0x9f9b498443531d2db9df8a00ec466efc74ba50ec1d82f7badd3424b87930e19a",
            "0x0000000000000000000000000000000000000000000000000000000000000009",
            "0x0000000000000000000000003a4db9e7306af09012ceb0f222d581fd1f0c6d71"
          ],
          "data": "0x00000000000000000000000048065fbbe25f71c9282ddf5e1cd6d6a887483d5e000000000000000000000000000000000000000000000000000000000007a120000000000000000000000000ceba9300f2b948710d2653dd7b07f33a8b32118c000000000000000000000000000000000000000000000000000000000003d0900000000000000000000000000000000000000000000000000000000000000002",
          "blockHash": "0x017cd38fd491c822141f2071445e10682a2b841221d712a1c010faa6cf7916fb",
          "blockNumber": "0x207bfd2",
          "transactionHash": "0xe565d2afa81d3a9571a392f7ce9a0c6f8c75439f1425926df1b04cda91f25d53",
          "transactionIndex": "0x6",
          "logIndex": "0x21",
          "removed": false
        }
      ],
      "logsBloom": "0x0000000000000011020012000040000000100000000000000000000000000010000000080000000000002000000440000010000080000000000000000020000000000000800000080000000800000000000000000000000000000004000000000000000002000000000000000000080000000002000000004000001000000000000001000000000000000000000040000000100000000000220000000000000002000110000100000000004000000000100000000000000040000000000001000200000200008120000002a040000040000000000000041800020000000120000110100000004010000800000001000040000000000010000000400000800000",
      "type": "0x0",
      "transactionHash": "0xe565d2afa81d3a9571a392f7ce9a0c6f8c75439f1425926df1b04cda91f25d53",
      "transactionIndex": "0x6",
      "blockHash": "0x017cd38fd491c822141f2071445e10682a2b841221d712a1c010faa6cf7916fb",
      "blockNumber": "0x207bfd2",
      "gasUsed": "0x9f122",
      "effectiveGasPrice": "0x5d22cfc40",
      "from": "0x3a4db9e7306af09012ceb0f222d581fd1f0c6d71",
      "to": "0xd2b508298fcc37261953684744ec4ccc734d5083",
      "contractAddress": null,
      "l1BaseFeeScalar": "0x0",
      "l1BlobBaseFee": "0x1851ce98",
      "l1BlobBaseFeeScalar": "0x0",
      "l1Fee": "0x0",
      "l1GasPrice": "0x509b0990",
      "l1GasUsed": "0x77b"
    },
    {
      "status": "0x1",
      "cumulativeGasUsed": "0x140d2d",
      "logs": [
        {
          "address": "0x48065fbbe25f71c9282ddf5e1cd6d6a887483d5e",
          "topics": [
            "0x8c5be1e5ebec7d5bd14f71427d1e84f3dd0314c0f7b2291e5b200ac8c7c3b925",
            "0x0000000000000000000000003a4db9e7306af09012ceb0f222d581fd1f0c6d71",
            "0x000000000000000000000000d2b508298fcc37261953684744ec4ccc734d5083"
          ],
          "data": "0x000000000000000000000000000000000000000000000000000000000003d090",
          "blockHash": "0x017cd38fd491c822141f2071445e10682a2b841221d712a1c010faa6cf7916fb",
          "blockNumber": "0x207bfd2",
          "transactionHash": "0xb010fff8f86a02dbaf6c4b00f520e7b46a61dff41ff944736a8dd6dc2621eca1",
          "transactionIndex": "0x7",
          "logIndex": "0x22",
          "removed": false
        }
      ],
      "logsBloom": "0x00000000000000000000000000000000000000000000000000000000000000000000000000000000000000000000000000000000000000000000000000200000000000000000000000000000000000000000000000000000000000000000000000000000000000000000000000000000000000000000000040000000000000000000010000000000000000000000400000000000000000000000000000000000020000000000000000000000000000000000000000000000000000000000000000000000000080000000008000000000000000000000001000000000000000000110100000000000000000000000000000000000000010000000000000000000",
      "type": "0x0",
      "transactionHash": "0xb010fff8f86a02dbaf6c4b00f520e7b46a61dff41ff944736a8dd6dc2621eca1",
      "transactionIndex": "0x7",
      "blockHash": "0x017cd38fd491c822141f2071445e10682a2b841221d712a1c010faa6cf7916fb",
      "blockNumber": "0x207bfd2",
      "gasUsed": "0xd097",
      "effectiveGasPrice": "0x5d22cfc40",
      "from": "0x3a4db9e7306af09012ceb0f222d581fd1f0c6d71",
      "to": "0x48065fbbe25f71c9282ddf5e1cd6d6a887483d5e",
      "contractAddress": null,
      "l1BaseFeeScalar": "0x0",
      "l1BlobBaseFee": "0x1851ce98",
      "l1BlobBaseFeeScalar": "0x0",
      "l1Fee": "0x0",
      "l1GasPrice": "0x509b0990",
      "l1GasUsed": "0x640"
    },
    {
      "status": "0x1",
      "cumulativeGasUsed": "0xf746c",
      "logs": [
        {
          "address": "0x48065fbbe25f71c9282ddf5e1cd6d6a887483d5e",
          "topics": [
            "0xddf252ad1be2c89b69c2b068fc378daa952ba7f163c4a11628f55a4df523b3ef",
            "0x0000000000000000000000003a4db9e7306af09012ceb0f222d581fd1f0c6d71",
            "0x000000000000000000000000d2b508298fcc37261953684744ec4ccc734d5083"
          ],
          "data": "0x000000000000000000000000000000000000000000000000000000000003d090",
          "blockHash": "0xa391c19a0c04c62032980a6b54d282d3ae319a89eb18a75d5dd35b8546c3906e",
          "blockNumber": "0x207bfd3",
          "transactionHash": "0x80a19dd8a0c4e0b64ac82064eee8bafe418464e4150f90501b8d41c2b752cee0",
          "transactionIndex": "0x5",
          "logIndex": "0x13",
          "removed": false
        },
        {
          "address": "0x48065fbbe25f71c9282ddf5e1cd6d6a887483d5e",
          "topics": [
            "0x8c5be1e5ebec7d5bd14f71427d1e84f3dd0314c0f7b2291e5b200ac8c7c3b925",
            "0x0000000000000000000000003a4db9e7306af09012ceb0f222d581fd1f0c6d71",
            "0x000000000000000000000000d2b508298fcc37261953684744ec4ccc734d5083"
          ],
          "data": "0x0000000000000000000000000000000000000000000000000000000000000000",
          "blockHash": "0xa391c19a0c04c62032980a6b54d282d3ae319a89eb18a75d5dd35b8546c3906e",
          "blockNumber": "0x207bfd3",
          "transactionHash": "0x80a19dd8a0c4e0b64ac82064eee8bafe418464e4150f90501b8d41c2b752cee0",
          "transactionIndex": "0x5",
          "logIndex": "0x14",
          "removed": false
        },
        {
          "address": "0x48065fbbe25f71c9282ddf5e1cd6d6a887483d5e",
          "topics": [
            "0x8c5be1e5ebec7d5bd14f71427d1e84f3dd0314c0f7b2291e5b200ac8c7c3b925",
            "0x000000000000000000000000d2b508298fcc37261953684744ec4ccc734d5083",
            "0x0000000000000000000000003e59a31363e2ad014dcbc521c4a0d5757d9f3402"
          ],
          "data": "0x000000000000000000000000000000000000000000000000000000000003d090",
          "blockHash": "0xa391c19a0c04c62032980a6b54d282d3ae319a89eb18a75d5dd35b8546c3906e",
          "blockNumber": "0x207bfd3",
          "transactionHash": "0x80a19dd8a0c4e0b64ac82064eee8bafe418464e4150f90501b8d41c2b752cee0",
          "transactionIndex": "0x5",
          "logIndex": "0x15",
          "removed": false
        },
        {
          "address": "0x3e59a31363e2ad014dcbc521c4a0d5757d9f3402",
          "topics": [
            "0x804c9b842b2748a22bb64b345453a3de7ca54a6ca45ce00d415894979e22897a",
            "0x00000000000000000000000048065fbbe25f71c9282ddf5e1cd6d6a887483d5e"
          ],
          "data": "0x00000000000000000000000000000000000000000000000c95acacae19e721110000000000000000000000000000000000000000000000000000000000000000000000000000000000000000000000000000000000001dfe57c1892d88b7234b0000000000000000000000000000000000000000033b5f8e3b1d77fa27607e650000000000000000000000000000000000000000033bcce27b737c18dbfab4fa",
          "blockHash": "0xa391c19a0c04c62032980a6b54d282d3ae319a89eb18a75d5dd35b8546c3906e",
          "blockNumber": "0x207bfd3",
          "transactionHash": "0x80a19dd8a0c4e0b64ac82064eee8bafe418464e4150f90501b8d41c2b752cee0",
          "transactionIndex": "0x5",
          "logIndex": "0x16",
          "removed": false
        },
        {
          "address": "0x48065fbbe25f71c9282ddf5e1cd6d6a887483d5e",
          "topics": [
            "0xddf252ad1be2c89b69c2b068fc378daa952ba7f163c4a11628f55a4df523b3ef",
            "0x000000000000000000000000d2b508298fcc37261953684744ec4ccc734d5083",
            "0x000000000000000000000000dee98402a302e4d707fb9bf2bac66faeec31e8df"
          ],
          "data": "0x000000000000000000000000000000000000000000000000000000000003d090",
          "blockHash": "0xa391c19a0c04c62032980a6b54d282d3ae319a89eb18a75d5dd35b8546c3906e",
          "blockNumber": "0x207bfd3",
          "transactionHash": "0x80a19dd8a0c4e0b64ac82064eee8bafe418464e4150f90501b8d41c2b752cee0",
          "transactionIndex": "0x5",
          "logIndex": "0x17",
          "removed": false
        },
        {
          "address": "0x48065fbbe25f71c9282ddf5e1cd6d6a887483d5e",
          "topics": [
            "0x8c5be1e5ebec7d5bd14f71427d1e84f3dd0314c0f7b2291e5b200ac8c7c3b925",
            "0x000000000000000000000000d2b508298fcc37261953684744ec4ccc734d5083",
            "0x0000000000000000000000003e59a31363e2ad014dcbc521c4a0d5757d9f3402"
          ],
          "data": "0x0000000000000000000000000000000000000000000000000000000000000000",
          "blockHash": "0xa391c19a0c04c62032980a6b54d282d3ae319a89eb18a75d5dd35b8546c3906e",
          "blockNumber": "0x207bfd3",
          "transactionHash": "0x80a19dd8a0c4e0b64ac82064eee8bafe418464e4150f90501b8d41c2b752cee0",
          "transactionIndex": "0x5",
          "logIndex": "0x18",
          "removed": false
        },
        {
          "address": "0xdee98402a302e4d707fb9bf2bac66faeec31e8df",
          "topics": [
            "0xddf252ad1be2c89b69c2b068fc378daa952ba7f163c4a11628f55a4df523b3ef",
            "0x0000000000000000000000000000000000000000000000000000000000000000",
            "0x000000000000000000000000d2b508298fcc37261953684744ec4ccc734d5083"
          ],
          "data": "0x000000000000000000000000000000000000000000000000000000000003d090",
          "blockHash": "0xa391c19a0c04c62032980a6b54d282d3ae319a89eb18a75d5dd35b8546c3906e",
          "blockNumber": "0x207bfd3",
          "transactionHash": "0x80a19dd8a0c4e0b64ac82064eee8bafe418464e4150f90501b8d41c2b752cee0",
          "transactionIndex": "0x5",
          "logIndex": "0x19",
          "removed": false
        },
        {
          "address": "0xdee98402a302e4d707fb9bf2bac66faeec31e8df",
          "topics": [
            "0x458f5fa412d0f69b08dd84872b0215675cc67bc1d5b6fd93300a1c3878b86196",
            "0x000000000000000000000000d2b508298fcc37261953684744ec4ccc734d5083",
            "0x000000000000000000000000d2b508298fcc37261953684744ec4ccc734d5083"
          ],
          "data": "0x000000000000000000000000000000000000000000000000000000000003d09000000000000000000000000000000000000000000000000000000000000000000000000000000000000000000000000000000000033b5f8e3b1d77fa27607e65",
          "blockHash": "0xa391c19a0c04c62032980a6b54d282d3ae319a89eb18a75d5dd35b8546c3906e",
          "blockNumber": "0x207bfd3",
          "transactionHash": "0x80a19dd8a0c4e0b64ac82064eee8bafe418464e4150f90501b8d41c2b752cee0",
          "transactionIndex": "0x5",
          "logIndex": "0x1a",
          "removed": false
        },
        {
          "address": "0x3e59a31363e2ad014dcbc521c4a0d5757d9f3402",
          "topics": [
            "0x2b627736bca15cd5381dcf80b0bf11fd197d01a037c52b927a881a10fb73ba61",
            "0x00000000000000000000000048065fbbe25f71c9282ddf5e1cd6d6a887483d5e",
            "0x000000000000000000000000d2b508298fcc37261953684744ec4ccc734d5083",
            "0x0000000000000000000000000000000000000000000000000000000000000000"
          ],
          "data": "0x000000000000000000000000d2b508298fcc37261953684744ec4ccc734d5083000000000000000000000000000000000000000000000000000000000003d090",
          "blockHash": "0xa391c19a0c04c62032980a6b54d282d3ae319a89eb18a75d5dd35b8546c3906e",
          "blockNumber": "0x207bfd3",
          "transactionHash": "0x80a19dd8a0c4e0b64ac82064eee8bafe418464e4150f90501b8d41c2b752cee0",
          "transactionIndex": "0x5",
          "logIndex": "0x1b",
          "removed": false
        },
        {
          "address": "0xd2b508298fcc37261953684744ec4ccc734d5083",
          "topics": [
            "0x244160b15e69cc411f041d94ae7fab6f6bba85dade8403216c05ff4b920d5449",
            "0x0000000000000000000000000000000000000000000000000000000000000009"
          ],
          "data": "0x000000000000000000000000000000000000000000000000000000000003d090",
          "blockHash": "0xa391c19a0c04c62032980a6b54d282d3ae319a89eb18a75d5dd35b8546c3906e",
          "blockNumber": "0x207bfd3",
          "transactionHash": "0x80a19dd8a0c4e0b64ac82064eee8bafe418464e4150f90501b8d41c2b752cee0",
          "transactionIndex": "0x5",
          "logIndex": "0x1c",
          "removed": false
        }
      ],
      "logsBloom": "0x0000000000000011020002000000000000100000000000000000000000000010000000080000000000000000000400000000000080020000000000000020000000000000000000080000000800000000000000000000000000000004000000000000000002000000000000000000080000000000000000004000001000000000000001000000000000000000000040000000100000000000020000000000000002000010000100000000004000000000100000000000000040000000000001000200000200008000000000a040000050000000000000001800000000000120000110100000000080000000000000000040000000000010000000400000800000",
      "type": "0x0",
      "transactionHash": "0x80a19dd8a0c4e0b64ac82064eee8bafe418464e4150f90501b8d41c2b752cee0",
      "transactionIndex": "0x5",
      "blockHash": "0xa391c19a0c04c62032980a6b54d282d3ae319a89eb18a75d5dd35b8546c3906e",
      "blockNumber": "0x207bfd3",
      "gasUsed": "0x38376",
      "effectiveGasPrice": "0x5d22cfc40",
      "from": "0x3a4db9e7306af09012ceb0f222d581fd1f0c6d71",
      "to": "0xd2b508298fcc37261953684744ec4ccc734d5083",
      "contractAddress": null,
      "l1BaseFeeScalar": "0x0",
      "l1BlobBaseFee": "0x1851ce98",
      "l1BlobBaseFeeScalar": "0x0",
      "l1Fee": "0x0",
      "l1GasPrice": "0x509b0990",
      "l1GasUsed": "0x640"
    },
    {
      "status": "0x1",
      "cumulativeGasUsed": "0x15295e",
      "logs": [
        {
          "address": "0xdbe517c0fa6467873b684eccbed77217e471e862",
          "topics": [
            "0xddf252ad1be2c89b69c2b068fc378daa952ba7f163c4a11628f55a4df523b3ef",
            "0x0000000000000000000000000000000000000000000000000000000000000000",
            "0x000000000000000000000000d2b508298fcc37261953684744ec4ccc734d5083"
          ],
          "data": "0x000000000000000000000000000000000000000000000000000000000001e848",
          "blockHash": "0xa391c19a0c04c62032980a6b54d282d3ae319a89eb18a75d5dd35b8546c3906e",
          "blockNumber": "0x207bfd3",
          "transactionHash": "0x981561b70a69e19674fa0ae01e417e4b21d640030b36d44556cb0f7105a9f124",
          "transactionIndex": "0x6",
          "logIndex": "0x1d",
          "removed": false
        },
        {
          "address": "0xdbe517c0fa6467873b684eccbed77217e471e862",
          "topics": [
            "0x458f5fa412d0f69b08dd84872b0215675cc67bc1d5b6fd93300a1c3878b86196",
            "0x000000000000000000000000d2b508298fcc37261953684744ec4ccc734d5083",
            "0x000000000000000000000000d2b508298fcc37261953684744ec4ccc734d5083"
          ],
          "data": "0x000000000000000000000000000000000000000000000000000000000001e84800000000000000000000000000000000000000000000000000000000000000000000000000000000000000000000000000000000033c60c465948c26038aac6b",
          "blockHash": "0xa391c19a0c04c62032980a6b54d282d3ae319a89eb18a75d5dd35b8546c3906e",
          "blockNumber": "0x207bfd3",
          "transactionHash": "0x981561b70a69e19674fa0ae01e417e4b21d640030b36d44556cb0f7105a9f124",
          "transactionIndex": "0x6",
          "logIndex": "0x1e",
          "removed": false
        },
        {
          "address": "0x3e59a31363e2ad014dcbc521c4a0d5757d9f3402",
          "topics": [
            "0x804c9b842b2748a22bb64b345453a3de7ca54a6ca45ce00d415894979e22897a",
            "0x000000000000000000000000ceba9300f2b948710d2653dd7b07f33a8b32118c"
          ],
          "data": "0x00000000000000000000000000000000000000000000d63357731bd52a488548000000000000000000000000000000000000000000000000000000000000000000000000000000000000000000000000000000000007bbdf0da65aba9b79894f0000000000000000000000000000000000000000033b6aa3fc73bc66f56cd4d60000000000000000000000000000000000000000033c60c465948c26038aac6b",
          "blockHash": "0xa391c19a0c04c62032980a6b54d282d3ae319a89eb18a75d5dd35b8546c3906e",
          "blockNumber": "0x207bfd3",
          "transactionHash": "0x981561b70a69e19674fa0ae01e417e4b21d640030b36d44556cb0f7105a9f124",
          "transactionIndex": "0x6",
          "logIndex": "0x1f",
          "removed": false
        },
        {
          "address": "0xceba9300f2b948710d2653dd7b07f33a8b32118c",
          "topics": [
            "0xddf252ad1be2c89b69c2b068fc378daa952ba7f163c4a11628f55a4df523b3ef",
            "0x000000000000000000000000ff8309b9e99bfd2d4021bc71a362abd93dbd4785",
            "0x000000000000000000000000d2b508298fcc37261953684744ec4ccc734d5083"
          ],
          "data": "0x000000000000000000000000000000000000000000000000000000000001e848",
          "blockHash": "0xa391c19a0c04c62032980a6b54d282d3ae319a89eb18a75d5dd35b8546c3906e",
          "blockNumber": "0x207bfd3",
          "transactionHash": "0x981561b70a69e19674fa0ae01e417e4b21d640030b36d44556cb0f7105a9f124",
          "transactionIndex": "0x6",
          "logIndex": "0x20",
          "removed": false
        },
        {
          "address": "0x3e59a31363e2ad014dcbc521c4a0d5757d9f3402",
          "topics": [
            "0xb3d084820fb1a9decffb176436bd02558d15fac9b0ddfed8c465bc7359d7dce0",
            "0x000000000000000000000000ceba9300f2b948710d2653dd7b07f33a8b32118c",
            "0x000000000000000000000000d2b508298fcc37261953684744ec4ccc734d5083",
            "0x0000000000000000000000000000000000000000000000000000000000000000"
          ],
          "data": "0x000000000000000000000000d2b508298fcc37261953684744ec4ccc734d5083000000000000000000000000000000000000000000000000000000000001e848000000000000000000000000000000000000000000000000000000000000000200000000000000000000000000000000000000000007bbdf0da65aba9b79894f",
          "blockHash": "0xa391c19a0c04c62032980a6b54d282d3ae319a89eb18a75d5dd35b8546c3906e",
          "blockNumber": "0x207bfd3",
          "transactionHash": "0x981561b70a69e19674fa0ae01e417e4b21d640030b36d44556cb0f7105a9f124",
          "transactionIndex": "0x6",
          "logIndex": "0x21",
          "removed": false
        },
        {
          "address": "0xceba9300f2b948710d2653dd7b07f33a8b32118c",
          "topics": [
            "0xddf252ad1be2c89b69c2b068fc378daa952ba7f163c4a11628f55a4df523b3ef",
            "0x000000000000000000000000d2b508298fcc37261953684744ec4ccc734d5083",
            "0x0000000000000000000000003a4db9e7306af09012ceb0f222d581fd1f0c6d71"
          ],
          "data": "0x000000000000000000000000000000000000000000000000000000000001e848",
          "blockHash": "0xa391c19a0c04c62032980a6b54d282d3ae319a89eb18a75d5dd35b8546c3906e",
          "blockNumber": "0x207bfd3",
          "transactionHash": "0x981561b70a69e19674fa0ae01e417e4b21d640030b36d44556cb0f7105a9f124",
          "transactionIndex": "0x6",
          "logIndex": "0x22",
          "removed": false
        },
        {
          "address": "0xd2b508298fcc37261953684744ec4ccc734d5083",
          "topics": [
            "0xf3a2c404b3362c4238317c3dad1020c2e9e984ba8df38a4a1ff18d57e92a242a",
            "0x0000000000000000000000000000000000000000000000000000000000000009"
          ],
          "data": "0x000000000000000000000000000000000000000000000000000000000001e848",
          "blockHash": "0xa391c19a0c04c62032980a6b54d282d3ae319a89eb18a75d5dd35b8546c3906e",
          "blockNumber": "0x207bfd3",
          "transactionHash": "0x981561b70a69e19674fa0ae01e417e4b21d640030b36d44556cb0f7105a9f124",
          "transactionIndex": "0x6",
          "logIndex": "0x23",
          "removed": false
        }
      ],
      "logsBloom": "0x00000000000000100000100000400000000000000000000000000000000000100000000000000000000000000004400000100000800000000000000000200000000000008000000000000008000000000000000000000000000000040000000000000000020000000000000000000800000000000000000000000010000000000000000000000010000000000000400000001000000000002200000000000000000001000000000000000000000000000000000000000000400000000000010002000002000081200000022000000000000000400000041800000000000020000100100000004010000800000001000000000000000010000800000000800000",
      "type": "0x0",
      "transactionHash": "0x981561b70a69e19674fa0ae01e417e4b21d640030b36d44556cb0f7105a9f124",
      "transactionIndex": "0x6",
      "blockHash": "0xa391c19a0c04c62032980a6b54d282d3ae319a89eb18a75d5dd35b8546c3906e",
      "blockNumber": "0x207bfd3",
      "gasUsed": "0x5b4f2",
      "effectiveGasPrice": "0x5d22cfc40",
      "from": "0x3a4db9e7306af09012ceb0f222d581fd1f0c6d71",
      "to": "0xd2b508298fcc37261953684744ec4ccc734d5083",
      "contractAddress": null,
      "l1BaseFeeScalar": "0x0",
      "l1BlobBaseFee": "0x1851ce98",
      "l1BlobBaseFeeScalar": "0x0",
      "l1Fee": "0x0",
      "l1GasPrice": "0x509b0990",
      "l1GasUsed": "0x640"
    },
    {
      "status": "0x1",
      "cumulativeGasUsed": "0x15b42f",
      "logs": [
        {
          "address": "0xceba9300f2b948710d2653dd7b07f33a8b32118c",
          "topics": [
            "0x8c5be1e5ebec7d5bd14f71427d1e84f3dd0314c0f7b2291e5b200ac8c7c3b925",
            "0x0000000000000000000000003a4db9e7306af09012ceb0f222d581fd1f0c6d71",
            "0x000000000000000000000000d2b508298fcc37261953684744ec4ccc734d5083"
          ],
          "data": "0x000000000000000000000000000000000000000000000000000000000002dc6c",
          "blockHash": "0xa391c19a0c04c62032980a6b54d282d3ae319a89eb18a75d5dd35b8546c3906e",
          "blockNumber": "0x207bfd3",
          "transactionHash": "0x10667aace5d25b4aec8452611066914b827fbee5e6c87659738255c477902cd3",
          "transactionIndex": "0x7",
          "logIndex": "0x24",
          "removed": false
        }
      ],
      "logsBloom": "0x00000000000000000000100000000000000000000000000000000000000000000000000000000000000000000000000000000000000000000000000000200000000000000000000000000000000000000000000000000000000000000000000000000000000000000000000000000000000000000000000000000000000000000000000000000000000000000000400000000000000000000000000000000000020000000000000000000000000000000000000000000000000000000000000000000000000080000000020000000000000000000000001000000000000000000110100000000000000800000000000000000000000010000000000000000000",
      "type": "0x0",
      "transactionHash": "0x10667aace5d25b4aec8452611066914b827fbee5e6c87659738255c477902cd3",
      "transactionIndex": "0x7",
      "blockHash": "0xa391c19a0c04c62032980a6b54d282d3ae319a89eb18a75d5dd35b8546c3906e",
      "blockNumber": "0x207bfd3",
      "gasUsed": "0x8ad1",
      "effectiveGasPrice": "0x5d22cfc40",
      "from": "0x3a4db9e7306af09012ceb0f222d581fd1f0c6d71",
      "to": "0xceba9300f2b948710d2653dd7b07f33a8b32118c",
      "contractAddress": null,
      "l1BaseFeeScalar": "0x0",
      "l1BlobBaseFee": "0x1851ce98",
      "l1BlobBaseFeeScalar": "0x0",
      "l1Fee": "0x0",
      "l1GasPrice": "0x509b0990",
      "l1GasUsed": "0x640"
    },
    {
      "status": "0x1",
      "cumulativeGasUsed": "0xa15aa",
      "logs": [
        {
          "address": "0xceba9300f2b948710d2653dd7b07f33a8b32118c",
          "topics": [
            "0xddf252ad1be2c89b69c2b068fc378daa952ba7f163c4a11628f55a4df523b3ef",
            "0x0000000000000000000000003a4db9e7306af09012ceb0f222d581fd1f0c6d71",
            "0x000000000000000000000000d2b508298fcc37261953684744ec4ccc734d5083"
          ],
          "data": "0x000000000000000000000000000000000000000000000000000000000002dc6c",
          "blockHash": "0x6f09c214bd39fadc894d56d11ad2c271db0b785351f35852801b71c84fb8bcad",
          "blockNumber": "0x207bfd4",
          "transactionHash": "0xe55342528bf213e580db0f0b58423a7ab9f4eaa8392abc3a70b38594f4f88348",
          "transactionIndex": "0x3",
          "logIndex": "0xb",
          "removed": false
        },
        {
          "address": "0xceba9300f2b948710d2653dd7b07f33a8b32118c",
          "topics": [
            "0x8c5be1e5ebec7d5bd14f71427d1e84f3dd0314c0f7b2291e5b200ac8c7c3b925",
            "0x000000000000000000000000d2b508298fcc37261953684744ec4ccc734d5083",
            "0x0000000000000000000000003e59a31363e2ad014dcbc521c4a0d5757d9f3402"
          ],
          "data": "0x000000000000000000000000000000000000000000000000000000000002dc6c",
          "blockHash": "0x6f09c214bd39fadc894d56d11ad2c271db0b785351f35852801b71c84fb8bcad",
          "blockNumber": "0x207bfd4",
          "transactionHash": "0xe55342528bf213e580db0f0b58423a7ab9f4eaa8392abc3a70b38594f4f88348",
          "transactionIndex": "0x3",
          "logIndex": "0xc",
          "removed": false
        },
        {
          "address": "0xdbe517c0fa6467873b684eccbed77217e471e862",
          "topics": [
            "0xddf252ad1be2c89b69c2b068fc378daa952ba7f163c4a11628f55a4df523b3ef",
            "0x000000000000000000000000d2b508298fcc37261953684744ec4ccc734d5083",
            "0x0000000000000000000000000000000000000000000000000000000000000000"
          ],
          "data": "0x000000000000000000000000000000000000000000000000000000000002dc6c",
          "blockHash": "0x6f09c214bd39fadc894d56d11ad2c271db0b785351f35852801b71c84fb8bcad",
          "blockNumber": "0x207bfd4",
          "transactionHash": "0xe55342528bf213e580db0f0b58423a7ab9f4eaa8392abc3a70b38594f4f88348",
          "transactionIndex": "0x3",
          "logIndex": "0xd",
          "removed": false
        },
        {
          "address": "0xdbe517c0fa6467873b684eccbed77217e471e862",
          "topics": [
            "0x4cf25bc1d991c17529c25213d3cc0cda295eeaad5f13f361969b12ea48015f90",
            "0x000000000000000000000000d2b508298fcc37261953684744ec4ccc734d5083",
            "0x0000000000000000000000000000000000000000000000000000000000000000"
          ],
          "data": "0x000000000000000000000000000000000000000000000000000000000002dc6c00000000000000000000000000000000000000000000000000000000000000000000000000000000000000000000000000000000033c60c469b35e21bd8f3ddd",
          "blockHash": "0x6f09c214bd39fadc894d56d11ad2c271db0b785351f35852801b71c84fb8bcad",
          "blockNumber": "0x207bfd4",
          "transactionHash": "0xe55342528bf213e580db0f0b58423a7ab9f4eaa8392abc3a70b38594f4f88348",
          "transactionIndex": "0x3",
          "logIndex": "0xe",
          "removed": false
        },
        {
          "address": "0x3e59a31363e2ad014dcbc521c4a0d5757d9f3402",
          "topics": [
            "0x804c9b842b2748a22bb64b345453a3de7ca54a6ca45ce00d415894979e22897a",
            "0x000000000000000000000000ceba9300f2b948710d2653dd7b07f33a8b32118c"
          ],
          "data": "0x00000000000000000000000000000000000000000000d63322fc836b3248e922000000000000000000000000000000000000000000000000000000000000000000000000000000000000000000000000000000000007bbde1b304faa222411d90000000000000000000000000000000000000000033b6aa3fce5b93c930c6d6d0000000000000000000000000000000000000000033c60c469b35e21bd8f3ddd",
          "blockHash": "0x6f09c214bd39fadc894d56d11ad2c271db0b785351f35852801b71c84fb8bcad",
          "blockNumber": "0x207bfd4",
          "transactionHash": "0xe55342528bf213e580db0f0b58423a7ab9f4eaa8392abc3a70b38594f4f88348",
          "transactionIndex": "0x3",
          "logIndex": "0xf",
          "removed": false
        },
        {
          "address": "0xceba9300f2b948710d2653dd7b07f33a8b32118c",
          "topics": [
            "0xddf252ad1be2c89b69c2b068fc378daa952ba7f163c4a11628f55a4df523b3ef",
            "0x000000000000000000000000d2b508298fcc37261953684744ec4ccc734d5083",
            "0x000000000000000000000000ff8309b9e99bfd2d4021bc71a362abd93dbd4785"
          ],
          "data": "0x000000000000000000000000000000000000000000000000000000000002dc6c",
          "blockHash": "0x6f09c214bd39fadc894d56d11ad2c271db0b785351f35852801b71c84fb8bcad",
          "blockNumber": "0x207bfd4",
          "transactionHash": "0xe55342528bf213e580db0f0b58423a7ab9f4eaa8392abc3a70b38594f4f88348",
          "transactionIndex": "0x3",
          "logIndex": "0x10",
          "removed": false
        },
        {
          "address": "0x3e59a31363e2ad014dcbc521c4a0d5757d9f3402",
          "topics": [
            "0xa534c8dbe71f871f9f3530e97a74601fea17b426cae02e1c5aee42c96c784051",
            "0x000000000000000000000000ceba9300f2b948710d2653dd7b07f33a8b32118c",
            "0x000000000000000000000000d2b508298fcc37261953684744ec4ccc734d5083",
            "0x000000000000000000000000d2b508298fcc37261953684744ec4ccc734d5083"
          ],
          "data": "0x000000000000000000000000000000000000000000000000000000000002dc6c0000000000000000000000000000000000000000000000000000000000000000",
          "blockHash": "0x6f09c214bd39fadc894d56d11ad2c271db0b785351f35852801b71c84fb8bcad",
          "blockNumber": "0x207bfd4",
          "transactionHash": "0xe55342528bf213e580db0f0b58423a7ab9f4eaa8392abc3a70b38594f4f88348",
          "transactionIndex": "0x3",
          "logIndex": "0x11",
          "removed": false
        },
        {
          "address": "0xd2b508298fcc37261953684744ec4ccc734d5083",
          "topics": [
            "0x0d4979b0859a1951f8ed7cbe3b1994e740552588f27ba02ca0f8f1ddcad16e0c",
            "0x0000000000000000000000000000000000000000000000000000000000000009"
          ],
          "data": "0x000000000000000000000000000000000000000000000000000000000002dc6c",
          "blockHash": "0x6f09c214bd39fadc894d56d11ad2c271db0b785351f35852801b71c84fb8bcad",
          "blockNumber": "0x207bfd4",
          "transactionHash": "0xe55342528bf213e580db0f0b58423a7ab9f4eaa8392abc3a70b38594f4f88348",
          "transactionIndex": "0x3",
          "logIndex": "0x12",
          "removed": false
        }
      ],
      "logsBloom": "0x10000000000000110000120010400000000000000000000000000000000000100000000000000000000000000000400000110000c00000000000000000200000000000008000000000000008000000000000002000000000000000000000000080000000020000000000000000000800000000000000000000000010000000000000000000000000000000000000400000001000000000002200000000000000020001100000000000000000000000000000000000000000400000000000010000000002000080200000022000000000000000000000001800000000000020040110100000004010000800000000000000000000000010000000000000840000",
      "type": "0x0",
      "transactionHash": "0xe55342528bf213e580db0f0b58423a7ab9f4eaa8392abc3a70b38594f4f88348",
      "transactionIndex": "0x3",
      "blockHash": "0x6f09c214bd39fadc894d56d11ad2c271db0b785351f35852801b71c84fb8bcad",
      "blockNumber": "0x207bfd4",
      "gasUsed": "0x36eeb",
      "effectiveGasPrice": "0x5d22cfc40",
      "from": "0x3a4db9e7306af09012ceb0f222d581fd1f0c6d71",
      "to": "0xd2b508298fcc37261953684744ec4ccc734d5083",
      "contractAddress": null,
      "l1BaseFeeScalar": "0x0",
      "l1BlobBaseFee": "0x1851ce98",
      "l1BlobBaseFeeScalar": "0x0",
      "l1Fee": "0x0",
      "l1GasPrice": "0x509b0990",
      "l1GasUsed": "0x640"
    },
    {
      "status": "0x1",
      "cumulativeGasUsed": "0xf398f",
      "logs": [
        {
          "address": "0x3e59a31363e2ad014dcbc521c4a0d5757d9f3402",
          "topics": [
            "0x804c9b842b2748a22bb64b345453a3de7ca54a6ca45ce00d415894979e22897a",
            "0x00000000000000000000000048065fbbe25f71c9282ddf5e1cd6d6a887483d5e"
          ],
          "data": "0x00000000000000000000000000000000000000000000000c95acc22fa48b90bd0000000000000000000000000000000000000000000000000000000000000000000000000000000000000000000000000000000000001dfe57db29f6c393d3d00000000000000000000000000000000000000000033b5f8e3b1d7eac7d8902540000000000000000000000000000000000000000033bcce27b83740d2ab5c579",
          "blockHash": "0x6f09c214bd39fadc894d56d11ad2c271db0b785351f35852801b71c84fb8bcad",
          "blockNumber": "0x207bfd4",
          "transactionHash": "0xc94f2ed4f2a4efff2d2fa465c7c1f9a2bd4be60360a0d3b7fc93a497532f9073",
          "transactionIndex": "0x4",
          "logIndex": "0x13",
          "removed": false
        },
        {
          "address": "0xdee98402a302e4d707fb9bf2bac66faeec31e8df",
          "topics": [
            "0xddf252ad1be2c89b69c2b068fc378daa952ba7f163c4a11628f55a4df523b3ef",
            "0x000000000000000000000000d2b508298fcc37261953684744ec4ccc734d5083",
            "0x0000000000000000000000000000000000000000000000000000000000000000"
          ],
          "data": "0x00000000000000000000000000000000000000000000000000000000000249f0",
          "blockHash": "0x6f09c214bd39fadc894d56d11ad2c271db0b785351f35852801b71c84fb8bcad",
          "blockNumber": "0x207bfd4",
          "transactionHash": "0xc94f2ed4f2a4efff2d2fa465c7c1f9a2bd4be60360a0d3b7fc93a497532f9073",
          "transactionIndex": "0x4",
          "logIndex": "0x14",
          "removed": false
        },
        {
          "address": "0xdee98402a302e4d707fb9bf2bac66faeec31e8df",
          "topics": [
            "0x4cf25bc1d991c17529c25213d3cc0cda295eeaad5f13f361969b12ea48015f90",
            "0x000000000000000000000000d2b508298fcc37261953684744ec4ccc734d5083",
            "0x0000000000000000000000003a4db9e7306af09012ceb0f222d581fd1f0c6d71"
          ],
          "data": "0x00000000000000000000000000000000000000000000000000000000000249f000000000000000000000000000000000000000000000000000000000000000000000000000000000000000000000000000000000033b5f8e3b1d7eac7d890254",
          "blockHash": "0x6f09c214bd39fadc894d56d11ad2c271db0b785351f35852801b71c84fb8bcad",
          "blockNumber": "0x207bfd4",
          "transactionHash": "0xc94f2ed4f2a4efff2d2fa465c7c1f9a2bd4be60360a0d3b7fc93a497532f9073",
          "transactionIndex": "0x4",
          "logIndex": "0x15",
          "removed": false
        },
        {
          "address": "0x48065fbbe25f71c9282ddf5e1cd6d6a887483d5e",
          "topics": [
            "0xddf252ad1be2c89b69c2b068fc378daa952ba7f163c4a11628f55a4df523b3ef",
            "0x000000000000000000000000dee98402a302e4d707fb9bf2bac66faeec31e8df",
            "0x0000000000000000000000003a4db9e7306af09012ceb0f222d581fd1f0c6d71"
          ],
          "data": "0x00000000000000000000000000000000000000000000000000000000000249f0",
          "blockHash": "0x6f09c214bd39fadc894d56d11ad2c271db0b785351f35852801b71c84fb8bcad",
          "blockNumber": "0x207bfd4",
          "transactionHash": "0xc94f2ed4f2a4efff2d2fa465c7c1f9a2bd4be60360a0d3b7fc93a497532f9073",
          "transactionIndex": "0x4",
          "logIndex": "0x16",
          "removed": false
        },
        {
          "address": "0x3e59a31363e2ad014dcbc521c4a0d5757d9f3402",
          "topics": [
            "0x3115d1449a7b732c986cba18244e897a450f61e1bb8d589cd2e69e6c8924f9f7",
            "0x00000000000000000000000048065fbbe25f71c9282ddf5e1cd6d6a887483d5e",
            "0x000000000000000000000000d2b508298fcc37261953684744ec4ccc734d5083",
            "0x0000000000000000000000003a4db9e7306af09012ceb0f222d581fd1f0c6d71"
          ],
          "data": "0x00000000000000000000000000000000000000000000000000000000000249f0",
          "blockHash": "0x6f09c214bd39fadc894d56d11ad2c271db0b785351f35852801b71c84fb8bcad",
          "blockNumber": "0x207bfd4",
          "transactionHash": "0xc94f2ed4f2a4efff2d2fa465c7c1f9a2bd4be60360a0d3b7fc93a497532f9073",
          "transactionIndex": "0x4",
          "logIndex": "0x17",
          "removed": false
        },
        {
          "address": "0xd2b508298fcc37261953684744ec4ccc734d5083",
          "topics": [
            "0x2399e8aed1977410745a5211d8226a3a7d9278f50a8a197c5ec6e285bb437f0b",
            "0x0000000000000000000000000000000000000000000000000000000000000009"
          ],
          "data": "0x00000000000000000000000000000000000000000000000000000000000249f0",
          "blockHash": "0x6f09c214bd39fadc894d56d11ad2c271db0b785351f35852801b71c84fb8bcad",
          "blockNumber": "0x207bfd4",
          "transactionHash": "0xc94f2ed4f2a4efff2d2fa465c7c1f9a2bd4be60360a0d3b7fc93a497532f9073",
          "transactionIndex": "0x4",
          "logIndex": "0x18",
          "removed": false
        }
      ],
      "logsBloom": "0x1000000000000010020000000000000000900000000000000000000000000010000000080000000000000000000000000001000080000000000000000020000000000000000000080000000800000000000000000000000000000000000000000000000002000000000000000000080000000000002002004000001000000000000001000000000000000000000040000000100000006000020000000000000000000000008100000000004000000000100000000000000040000000000001000000000200008000000000a000000040000000000000001800000000000120040100100000000000000000000000000000000000000010000000000000800000",
      "type": "0x0",
      "transactionHash": "0xc94f2ed4f2a4efff2d2fa465c7c1f9a2bd4be60360a0d3b7fc93a497532f9073",
      "transactionIndex": "0x4",
      "blockHash": "0x6f09c214bd39fadc894d56d11ad2c271db0b785351f35852801b71c84fb8bcad",
      "blockNumber": "0x207bfd4",
      "gasUsed": "0x523e5",
      "effectiveGasPrice": "0x5d22cfc40",
      "from": "0x3a4db9e7306af09012ceb0f222d581fd1f0c6d71",
      "to": "0xd2b508298fcc37261953684744ec4ccc734d5083",
      "contractAddress": null,
      "l1BaseFeeScalar": "0x0",
      "l1BlobBaseFee": "0x1851ce98",
      "l1BlobBaseFeeScalar": "0x0",
      "l1Fee": "0x0",
      "l1GasPrice": "0x509b0990",
      "l1GasUsed": "0x640"
    },
    {
      "status": "0x1",
      "cumulativeGasUsed": "0x10121c",
      "logs": [
        {
          "address": "0xceba9300f2b948710d2653dd7b07f33a8b32118c",
          "topics": [
            "0x8c5be1e5ebec7d5bd14f71427d1e84f3dd0314c0f7b2291e5b200ac8c7c3b925",
            "0x0000000000000000000000003a4db9e7306af09012ceb0f222d581fd1f0c6d71",
            "0x000000000000000000000000d2b508298fcc37261953684744ec4ccc734d5083"
          ],
          "data": "0x000000000000000000000000000000000000000000000000000000000005b8d8",
          "blockHash": "0x6f09c214bd39fadc894d56d11ad2c271db0b785351f35852801b71c84fb8bcad",
          "blockNumber": "0x207bfd4",
          "transactionHash": "0x4e88f70198217214e67a8ccbe0d31d84493b4fbb65170701d0b9da06fb23e88e",
          "transactionIndex": "0x5",
          "logIndex": "0x19",
          "removed": false
        }
      ],
      "logsBloom": "0x00000000000000000000100000000000000000000000000000000000000000000000000000000000000000000000000000000000000000000000000000200000000000000000000000000000000000000000000000000000000000000000000000000000000000000000000000000000000000000000000000000000000000000000000000000000000000000000400000000000000000000000000000000000020000000000000000000000000000000000000000000000000000000000000000000000000080000000020000000000000000000000001000000000000000000110100000000000000800000000000000000000000010000000000000000000",
      "type": "0x0",
      "transactionHash": "0x4e88f70198217214e67a8ccbe0d31d84493b4fbb65170701d0b9da06fb23e88e",
      "transactionIndex": "0x5",
      "blockHash": "0x6f09c214bd39fadc894d56d11ad2c271db0b785351f35852801b71c84fb8bcad",
      "blockNumber": "0x207bfd4",
      "gasUsed": "0xd88d",
      "effectiveGasPrice": "0x5d22cfc40",
      "from": "0x3a4db9e7306af09012ceb0f222d581fd1f0c6d71",
      "to": "0xceba9300f2b948710d2653dd7b07f33a8b32118c",
      "contractAddress": null,
      "l1BaseFeeScalar": "0x0",
      "l1BlobBaseFee": "0x1851ce98",
      "l1BlobBaseFeeScalar": "0x0",
      "l1Fee": "0x0",
      "l1GasPrice": "0x509b0990",
      "l1GasUsed": "0x640"
    },
    {
      "status": "0x1",
      "cumulativeGasUsed": "0x135871",
      "logs": [
        {
          "address": "0xceba9300f2b948710d2653dd7b07f33a8b32118c",
          "topics": [
            "0xddf252ad1be2c89b69c2b068fc378daa952ba7f163c4a11628f55a4df523b3ef",
            "0x0000000000000000000000003a4db9e7306af09012ceb0f222d581fd1f0c6d71",
            "0x000000000000000000000000d2b508298fcc37261953684744ec4ccc734d5083"
          ],
          "data": "0x000000000000000000000000000000000000000000000000000000000002dc6c",
          "blockHash": "0x6f09c214bd39fadc894d56d11ad2c271db0b785351f35852801b71c84fb8bcad",
          "blockNumber": "0x207bfd4",
          "transactionHash": "0xce469f3873a89d0c0a1c0a79e0d78552b217ae6ef89b3732954a807b968e1d96",
          "transactionIndex": "0x6",
          "logIndex": "0x1a",
          "removed": false
        },
        {
          "address": "0xceba9300f2b948710d2653dd7b07f33a8b32118c",
          "topics": [
            "0x8c5be1e5ebec7d5bd14f71427d1e84f3dd0314c0f7b2291e5b200ac8c7c3b925",
            "0x000000000000000000000000d2b508298fcc37261953684744ec4ccc734d5083",
            "0x0000000000000000000000003e59a31363e2ad014dcbc521c4a0d5757d9f3402"
          ],
          "data": "0x000000000000000000000000000000000000000000000000000000000002dc6c",
          "blockHash": "0x6f09c214bd39fadc894d56d11ad2c271db0b785351f35852801b71c84fb8bcad",
          "blockNumber": "0x207bfd4",
          "transactionHash": "0xce469f3873a89d0c0a1c0a79e0d78552b217ae6ef89b3732954a807b968e1d96",
          "transactionIndex": "0x6",
          "logIndex": "0x1b",
          "removed": false
        },
        {
          "address": "0xdbe517c0fa6467873b684eccbed77217e471e862",
          "topics": [
            "0xddf252ad1be2c89b69c2b068fc378daa952ba7f163c4a11628f55a4df523b3ef",
            "0x000000000000000000000000d2b508298fcc37261953684744ec4ccc734d5083",
            "0x0000000000000000000000000000000000000000000000000000000000000000"
          ],
          "data": "0x000000000000000000000000000000000000000000000000000000000002dc6c",
          "blockHash": "0x6f09c214bd39fadc894d56d11ad2c271db0b785351f35852801b71c84fb8bcad",
          "blockNumber": "0x207bfd4",
          "transactionHash": "0xce469f3873a89d0c0a1c0a79e0d78552b217ae6ef89b3732954a807b968e1d96",
          "transactionIndex": "0x6",
          "logIndex": "0x1c",
          "removed": false
        },
        {
          "address": "0xdbe517c0fa6467873b684eccbed77217e471e862",
          "topics": [
            "0x4cf25bc1d991c17529c25213d3cc0cda295eeaad5f13f361969b12ea48015f90",
            "0x000000000000000000000000d2b508298fcc37261953684744ec4ccc734d5083",
            "0x0000000000000000000000000000000000000000000000000000000000000000"
          ],
          "data": "0x000000000000000000000000000000000000000000000000000000000002dc6c00000000000000000000000000000000000000000000000000000000000000000000000000000000000000000000000000000000033c60c469b35e21bd8f3ddd",
          "blockHash": "0x6f09c214bd39fadc894d56d11ad2c271db0b785351f35852801b71c84fb8bcad",
          "blockNumber": "0x207bfd4",
          "transactionHash": "0xce469f3873a89d0c0a1c0a79e0d78552b217ae6ef89b3732954a807b968e1d96",
          "transactionIndex": "0x6",
          "logIndex": "0x1d",
          "removed": false
        },
        {
          "address": "0x3e59a31363e2ad014dcbc521c4a0d5757d9f3402",
          "topics": [
            "0x804c9b842b2748a22bb64b345453a3de7ca54a6ca45ce00d415894979e22897a",
            "0x000000000000000000000000ceba9300f2b948710d2653dd7b07f33a8b32118c"
          ],
          "data": "0x00000000000000000000000000000000000000000000d632ee840d60146d7de0000000000000000000000000000000000000000000000000000000000000000000000000000000000000000000000000000000000007bbdd28b187846dca08030000000000000000000000000000000000000000033b6aa3fce5b93c930c6d6d0000000000000000000000000000000000000000033c60c469b35e21bd8f3ddd",
          "blockHash": "0x6f09c214bd39fadc894d56d11ad2c271db0b785351f35852801b71c84fb8bcad",
          "blockNumber": "0x207bfd4",
          "transactionHash": "0xce469f3873a89d0c0a1c0a79e0d78552b217ae6ef89b3732954a807b968e1d96",
          "transactionIndex": "0x6",
          "logIndex": "0x1e",
          "removed": false
        },
        {
          "address": "0xceba9300f2b948710d2653dd7b07f33a8b32118c",
          "topics": [
            "0xddf252ad1be2c89b69c2b068fc378daa952ba7f163c4a11628f55a4df523b3ef",
            "0x000000000000000000000000d2b508298fcc37261953684744ec4ccc734d5083",
            "0x000000000000000000000000ff8309b9e99bfd2d4021bc71a362abd93dbd4785"
          ],
          "data": "0x000000000000000000000000000000000000000000000000000000000002dc6c",
          "blockHash": "0x6f09c214bd39fadc894d56d11ad2c271db0b785351f35852801b71c84fb8bcad",
          "blockNumber": "0x207bfd4",
          "transactionHash": "0xce469f3873a89d0c0a1c0a79e0d78552b217ae6ef89b3732954a807b968e1d96",
          "transactionIndex": "0x6",
          "logIndex": "0x1f",
          "removed": false
        },
        {
          "address": "0x3e59a31363e2ad014dcbc521c4a0d5757d9f3402",
          "topics": [
            "0xa534c8dbe71f871f9f3530e97a74601fea17b426cae02e1c5aee42c96c784051",
            "0x000000000000000000000000ceba9300f2b948710d2653dd7b07f33a8b32118c",
            "0x000000000000000000000000d2b508298fcc37261953684744ec4ccc734d5083",
            "0x000000000000000000000000d2b508298fcc37261953684744ec4ccc734d5083"
          ],
          "data": "0x000000000000000000000000000000000000000000000000000000000002dc6c0000000000000000000000000000000000000000000000000000000000000000",
          "blockHash": "0x6f09c214bd39fadc894d56d11ad2c271db0b785351f35852801b71c84fb8bcad",
          "blockNumber": "0x207bfd4",
          "transactionHash": "0xce469f3873a89d0c0a1c0a79e0d78552b217ae6ef89b3732954a807b968e1d96",
          "transactionIndex": "0x6",
          "logIndex": "0x20",
          "removed": false
        },
        {
          "address": "0xd2b508298fcc37261953684744ec4ccc734d5083",
          "topics": [
            "0x0d4979b0859a1951f8ed7cbe3b1994e740552588f27ba02ca0f8f1ddcad16e0c",
            "0x0000000000000000000000000000000000000000000000000000000000000009"
          ],
          "data": "0x000000000000000000000000000000000000000000000000000000000002dc6c",
          "blockHash": "0x6f09c214bd39fadc894d56d11ad2c271db0b785351f35852801b71c84fb8bcad",
          "blockNumber": "0x207bfd4",
          "transactionHash": "0xce469f3873a89d0c0a1c0a79e0d78552b217ae6ef89b3732954a807b968e1d96",
          "transactionIndex": "0x6",
          "logIndex": "0x21",
          "removed": false
        }
      ],
      "logsBloom": "0x10000000000000110000120010400000000000000000000000000000000000100000000000000000000000000000400000110000c00000000000000000200000000000008000000000000008000000000000002000000000000000000000000080000000020000000000000000000800000000000000000000000010000000000000000000000000000000000000400000001000000000002200000000000000020001100000000000000000000000000000000000000000400000000000010000000002000080200000022000000000000000000000001800000000000020040110100000004010000800000000000000000000000010000000000000840000",
      "type": "0x0",
      "transactionHash": "0xce469f3873a89d0c0a1c0a79e0d78552b217ae6ef89b3732954a807b968e1d96",
      "transactionIndex": "0x6",
      "blockHash": "0x6f09c214bd39fadc894d56d11ad2c271db0b785351f35852801b71c84fb8bcad",
      "blockNumber": "0x207bfd4",
      "gasUsed": "0x34655",
      "effectiveGasPrice": "0x5d22cfc40",
      "from": "0x3a4db9e7306af09012ceb0f222d581fd1f0c6d71",
      "to": "0xd2b508298fcc37261953684744ec4ccc734d5083",
      "contractAddress": null,
      "l1BaseFeeScalar": "0x0",
      "l1BlobBaseFee": "0x1851ce98",
      "l1BlobBaseFeeScalar": "0x0",
      "l1Fee": "0x0",
      "l1GasPrice": "0x509b0990",
      "l1GasUsed": "0x640"
    },
    {
      "status": "0x1",
      "cumulativeGasUsed": "0x9f6a7",
      "logs": [
        {
          "address": "0x3e59a31363e2ad014dcbc521c4a0d5757d9f3402",
          "topics": [
            "0x804c9b842b2748a22bb64b345453a3de7ca54a6ca45ce00d415894979e22897a",
            "0x00000000000000000000000048065fbbe25f71c9282ddf5e1cd6d6a887483d5e"
          ],
          "data": "0x00000000000000000000000000000000000000000000000c95ad1835d14496560000000000000000000000000000000000000000000000000000000000000000000000000000000000000000000000000000000000001dfe5841ad1d64fc53950000000000000000000000000000000000000000033b5f8e3b1d855ed3bcf7e80000000000000000000000000000000000000000033bcce27b936c0187161c3d",
          "blockHash": "0x61ae606ffa67d0dec0500bc37874c362ef7f674f12fb67d4a1daf71f3155dc23",
          "blockNumber": "0x207bfd5",
          "transactionHash": "0x5a3976f6a77fdb3cfa9d3c26f8837a9df90eff01c630f60cbf0d141eded5fd93",
          "transactionIndex": "0x3",
          "logIndex": "0xb",
          "removed": false
        },
        {
          "address": "0xdee98402a302e4d707fb9bf2bac66faeec31e8df",
          "topics": [
            "0xddf252ad1be2c89b69c2b068fc378daa952ba7f163c4a11628f55a4df523b3ef",
            "0x000000000000000000000000d2b508298fcc37261953684744ec4ccc734d5083",
            "0x0000000000000000000000000000000000000000000000000000000000000000"
          ],
          "data": "0x00000000000000000000000000000000000000000000000000000000000927c0",
          "blockHash": "0x61ae606ffa67d0dec0500bc37874c362ef7f674f12fb67d4a1daf71f3155dc23",
          "blockNumber": "0x207bfd5",
          "transactionHash": "0x5a3976f6a77fdb3cfa9d3c26f8837a9df90eff01c630f60cbf0d141eded5fd93",
          "transactionIndex": "0x3",
          "logIndex": "0xc",
          "removed": false
        },
        {
          "address": "0xdee98402a302e4d707fb9bf2bac66faeec31e8df",
          "topics": [
            "0x4cf25bc1d991c17529c25213d3cc0cda295eeaad5f13f361969b12ea48015f90",
            "0x000000000000000000000000d2b508298fcc37261953684744ec4ccc734d5083",
            "0x0000000000000000000000003a4db9e7306af09012ceb0f222d581fd1f0c6d71"
          ],
          "data": "0x00000000000000000000000000000000000000000000000000000000000927c000000000000000000000000000000000000000000000000000000000000000000000000000000000000000000000000000000000033b5f8e3b1d855ed3bcf7e8",
          "blockHash": "0x61ae606ffa67d0dec0500bc37874c362ef7f674f12fb67d4a1daf71f3155dc23",
          "blockNumber": "0x207bfd5",
          "transactionHash": "0x5a3976f6a77fdb3cfa9d3c26f8837a9df90eff01c630f60cbf0d141eded5fd93",
          "transactionIndex": "0x3",
          "logIndex": "0xd",
          "removed": false
        },
        {
          "address": "0x48065fbbe25f71c9282ddf5e1cd6d6a887483d5e",
          "topics": [
            "0xddf252ad1be2c89b69c2b068fc378daa952ba7f163c4a11628f55a4df523b3ef",
            "0x000000000000000000000000dee98402a302e4d707fb9bf2bac66faeec31e8df",
            "0x0000000000000000000000003a4db9e7306af09012ceb0f222d581fd1f0c6d71"
          ],
          "data": "0x00000000000000000000000000000000000000000000000000000000000927c0",
          "blockHash": "0x61ae606ffa67d0dec0500bc37874c362ef7f674f12fb67d4a1daf71f3155dc23",
          "blockNumber": "0x207bfd5",
          "transactionHash": "0x5a3976f6a77fdb3cfa9d3c26f8837a9df90eff01c630f60cbf0d141eded5fd93",
          "transactionIndex": "0x3",
          "logIndex": "0xe",
          "removed": false
        },
        {
          "address": "0x3e59a31363e2ad014dcbc521c4a0d5757d9f3402",
          "topics": [
            "0x3115d1449a7b732c986cba18244e897a450f61e1bb8d589cd2e69e6c8924f9f7",
            "0x00000000000000000000000048065fbbe25f71c9282ddf5e1cd6d6a887483d5e",
            "0x000000000000000000000000d2b508298fcc37261953684744ec4ccc734d5083",
            "0x0000000000000000000000003a4db9e7306af09012ceb0f222d581fd1f0c6d71"
          ],
          "data": "0x00000000000000000000000000000000000000000000000000000000000927c0",
          "blockHash": "0x61ae606ffa67d0dec0500bc37874c362ef7f674f12fb67d4a1daf71f3155dc23",
          "blockNumber": "0x207bfd5",
          "transactionHash": "0x5a3976f6a77fdb3cfa9d3c26f8837a9df90eff01c630f60cbf0d141eded5fd93",
          "transactionIndex": "0x3",
          "logIndex": "0xf",
          "removed": false
        },
        {
          "address": "0xd2b508298fcc37261953684744ec4ccc734d5083",
          "topics": [
            "0x2399e8aed1977410745a5211d8226a3a7d9278f50a8a197c5ec6e285bb437f0b",
            "0x0000000000000000000000000000000000000000000000000000000000000009"
          ],
          "data": "0x00000000000000000000000000000000000000000000000000000000000927c0",
          "blockHash": "0x61ae606ffa67d0dec0500bc37874c362ef7f674f12fb67d4a1daf71f3155dc23",
          "blockNumber": "0x207bfd5",
          "transactionHash": "0x5a3976f6a77fdb3cfa9d3c26f8837a9df90eff01c630f60cbf0d141eded5fd93",
          "transactionIndex": "0x3",
          "logIndex": "0x10",
          "removed": false
        }
      ],
      "logsBloom": "0x1000000000000010020000000000000000900000000000000000000000000010000000080000000000000000000000000001000080000000000000000020000000000000000000080000000800000000000000000000000000000000000000000000000002000000000000000000080000000000002002004000001000000000000001000000000000000000000040000000100000006000020000000000000000000000008100000000004000000000100000000000000040000000000001000000000200008000000000a000000040000000000000001800000000000120040100100000000000000000000000000000000000000010000000000000800000",
      "type": "0x0",
      "transactionHash": "0x5a3976f6a77fdb3cfa9d3c26f8837a9df90eff01c630f60cbf0d141eded5fd93",
      "transactionIndex": "0x3",
      "blockHash": "0x61ae606ffa67d0dec0500bc37874c362ef7f674f12fb67d4a1daf71f3155dc23",
      "blockNumber": "0x207bfd5",
      "gasUsed": "0x523af",
      "effectiveGasPrice": "0x5d22cfc40",
      "from": "0x3a4db9e7306af09012ceb0f222d581fd1f0c6d71",
      "to": "0xd2b508298fcc37261953684744ec4ccc734d5083",
      "contractAddress": null,
      "l1BaseFeeScalar": "0x0",
      "l1BlobBaseFee": "0x1851ce98",
      "l1BlobBaseFeeScalar": "0x0",
      "l1Fee": "0x0",
      "l1GasPrice": "0x509b0990",
      "l1GasUsed": "0x640"
    }
  ],
  "libraries": [],
  "pending": [],
  "returns": {},
  "timestamp": 1745963051,
  "chain": 42220,
  "commit": "1cefd9d"
}