{
  "transactions": [
    {
      "hash": "0x0f0e6ca57a54be67346b3d9bac2bd3ba84cc4ed95e2489788f4d60aae10a1f93",
      "transactionType": "CALL",
      "contractName": null,
      "contractAddress": "0x48065fbbe25f71c9282ddf5e1cd6d6a887483d5e",
      "function": "approve(address,uint256)",
      "arguments": [
        "0xd2B508298fCC37261953684744ec4CCc734d5083",
        "500000"
      ],
      "transaction": {
        "from": "0x3a4db9e7306af09012ceb0f222d581fd1f0c6d71",
        "to": "0x48065fbbe25f71c9282ddf5e1cd6d6a887483d5e",
        "gas": "0x1201c",
        "value": "0x0",
        "input": "0x095ea7b3000000000000000000000000d2b508298fcc37261953684744ec4ccc734d5083000000000000000000000000000000000000000000000000000000000007a120",
        "nonce": "0xb9",
        "chainId": "0xa4ec"
      },
      "additionalContracts": [],
      "isFixedGasLimit": false
    },
    {
      "hash": "0x78859d14fcc550d3b8daeb2ee536d3da201baa6c76b5afad99ff671a2002b942",
      "transactionType": "CALL",
      "contractName": null,
      "contractAddress": "0xd2b508298fcc37261953684744ec4ccc734d5083",
      "function": "createPosition(address,uint256,address,uint256,uint256)",
      "arguments": [
        "0x48065fbBE25f71C9282ddf5e1cD6D6A887483D5e",
        "500000",
        "0xcebA9300f2b948710d2653dD7B07f33A8B32118C",
        "250000",
        "2"
      ],
      "transaction": {
        "from": "0x3a4db9e7306af09012ceb0f222d581fd1f0c6d71",
        "to": "0xd2b508298fcc37261953684744ec4ccc734d5083",
        "gas": "0xdd892",
        "value": "0x0",
        "input": "0xb0c3d5df00000000000000000000000048065fbbe25f71c9282ddf5e1cd6d6a887483d5e000000000000000000000000000000000000000000000000000000000007a120000000000000000000000000ceba9300f2b948710d2653dd7b07f33a8b32118c000000000000000000000000000000000000000000000000000000000003d0900000000000000000000000000000000000000000000000000000000000000002",
        "nonce": "0xba",
        "chainId": "0xa4ec"
      },
      "additionalContracts": [],
      "isFixedGasLimit": false
    },
    {
      "hash": "0xa9c4de629fe93e8db2c443a70bfc8f8d3f677df072d61787b53b2d0d7643e86c",
      "transactionType": "CALL",
      "contractName": null,
      "contractAddress": "0xd2b508298fcc37261953684744ec4ccc734d5083",
      "function": "addCollateralWithPermit(uint256,uint256,uint256,uint8,bytes32,bytes32)",
      "arguments": [
        "3",
        "250000",
        "1745751100",
        "28",
        "0xce1e57f822bae93104f6087e7dbc426aa82173d0d023eac3ad5a720eca73104c",
        "0x043c15b00c323c6a503f6b0710d9fe55ac9b5a84fb9d67f7e8c0e0e52e8aa612"
      ],
      "transaction": {
        "from": "0x3a4db9e7306af09012ceb0f222d581fd1f0c6d71",
        "to": "0xd2b508298fcc37261953684744ec4ccc734d5083",
        "gas": "0x53652",
        "value": "0x0",
        "input": "0x558e45ba0000000000000000000000000000000000000000000000000000000000000003000000000000000000000000000000000000000000000000000000000003d09000000000000000000000000000000000000000000000000000000000680e0c3c000000000000000000000000000000000000000000000000000000000000001cce1e57f822bae93104f6087e7dbc426aa82173d0d023eac3ad5a720eca73104c043c15b00c323c6a503f6b0710d9fe55ac9b5a84fb9d67f7e8c0e0e52e8aa612",
        "nonce": "0xbb",
        "chainId": "0xa4ec"
      },
      "additionalContracts": [],
      "isFixedGasLimit": false
    },
    {
      "hash": "0x3180a0cb22e2b3e677b0bd7250de25e71cfced45bc54a6faecaecf9ca979e9c2",
      "transactionType": "CALL",
      "contractName": null,
      "contractAddress": "0xd2b508298fcc37261953684744ec4ccc734d5083",
      "function": "increaseBorrow(uint256,uint256)",
      "arguments": [
        "3",
        "125000"
      ],
      "transaction": {
        "from": "0x3a4db9e7306af09012ceb0f222d581fd1f0c6d71",
        "to": "0xd2b508298fcc37261953684744ec4ccc734d5083",
        "gas": "0x815b7",
        "value": "0x0",
        "input": "0x9e6824d90000000000000000000000000000000000000000000000000000000000000003000000000000000000000000000000000000000000000000000000000001e848",
        "nonce": "0xbc",
        "chainId": "0xa4ec"
      },
      "additionalContracts": [],
      "isFixedGasLimit": false
    },
    {
      "hash": "0x87ca739caa58ae41b35c365156ecff5d61f5edc60cdc34323673ac86e93c9f22",
      "transactionType": "CALL",
      "contractName": null,
      "contractAddress": "0xd2b508298fcc37261953684744ec4ccc734d5083",
      "function": "repayDebtWithPermit(uint256,uint256,uint256,uint8,bytes32,bytes32)",
      "arguments": [
        "3",
        "187500",
        "1745751100",
        "28",
        "0x2fe89720f9ee10a63dd53c0cacd32c04abfc95fb97f20718cb2a6fbe721111fa",
        "0x6e5252737cbf14cf103d514c78d74afc20f771f4815eb1e739b08938f6b632c1"
      ],
      "transaction": {
        "from": "0x3a4db9e7306af09012ceb0f222d581fd1f0c6d71",
        "to": "0xd2b508298fcc37261953684744ec4ccc734d5083",
        "gas": "0x5595c",
        "value": "0x0",
        "input": "0xc9a7906a0000000000000000000000000000000000000000000000000000000000000003000000000000000000000000000000000000000000000000000000000002dc6c00000000000000000000000000000000000000000000000000000000680e0c3c000000000000000000000000000000000000000000000000000000000000001c2fe89720f9ee10a63dd53c0cacd32c04abfc95fb97f20718cb2a6fbe721111fa6e5252737cbf14cf103d514c78d74afc20f771f4815eb1e739b08938f6b632c1",
        "nonce": "0xbd",
        "chainId": "0xa4ec"
      },
      "additionalContracts": [],
      "isFixedGasLimit": false
    },
    {
      "hash": "0x46ca4f80e30c68d87c3182a6acbd0a4f2f977df79c0716e9981b4cbd967b95ed",
      "transactionType": "CALL",
      "contractName": null,
      "contractAddress": "0xd2b508298fcc37261953684744ec4ccc734d5083",
      "function": "withdrawCollateral(uint256,uint256)",
      "arguments": [
        "3",
        "150000"
      ],
      "transaction": {
        "from": "0x3a4db9e7306af09012ceb0f222d581fd1f0c6d71",
        "to": "0xd2b508298fcc37261953684744ec4ccc734d5083",
        "gas": "0x75c35",
        "value": "0x0",
        "input": "0x767a7b05000000000000000000000000000000000000000000000000000000000000000300000000000000000000000000000000000000000000000000000000000249f0",
        "nonce": "0xbe",
        "chainId": "0xa4ec"
      },
      "additionalContracts": [],
      "isFixedGasLimit": false
    },
    {
      "hash": "0xb895a82c2656336719e565cb6c34e131177c2ac94e05df58d135590f6a6b43d8",
      "transactionType": "CALL",
      "contractName": null,
      "contractAddress": "0xceba9300f2b948710d2653dd7b07f33a8b32118c",
      "function": "approve(address,uint256)",
      "arguments": [
        "0xd2B508298fCC37261953684744ec4CCc734d5083",
        "375000"
      ],
      "transaction": {
        "from": "0x3a4db9e7306af09012ceb0f222d581fd1f0c6d71",
        "to": "0xceba9300f2b948710d2653dd7b07f33a8b32118c",
        "gas": "0x12b1b",
        "value": "0x0",
        "input": "0x095ea7b3000000000000000000000000d2b508298fcc37261953684744ec4ccc734d5083000000000000000000000000000000000000000000000000000000000005b8d8",
        "nonce": "0xbf",
        "chainId": "0xa4ec"
      },
      "additionalContracts": [],
      "isFixedGasLimit": false
    },
    {
      "hash": "0x4a712bae0ccb129dc41826eac72b3b0d28c8cab341b505ae584ccd132c807fbd",
      "transactionType": "CALL",
      "contractName": null,
      "contractAddress": "0xd2b508298fcc37261953684744ec4ccc734d5083",
      "function": "repayDebt(uint256,uint256)",
      "arguments": [
        "3",
        "187500"
      ],
      "transaction": {
        "from": "0x3a4db9e7306af09012ceb0f222d581fd1f0c6d71",
        "to": "0xd2b508298fcc37261953684744ec4ccc734d5083",
        "gas": "0x47dd5",
        "value": "0x0",
        "input": "0x015cb0a50000000000000000000000000000000000000000000000000000000000000003000000000000000000000000000000000000000000000000000000000002dc6c",
        "nonce": "0xc0",
        "chainId": "0xa4ec"
      },
      "additionalContracts": [],
      "isFixedGasLimit": false
    },
    {
      "hash": "0x7b53d3a92dfe518f6411d1587229c9b6773735fbb67bd5d695667df9928fa91d",
      "transactionType": "CALL",
      "contractName": null,
      "contractAddress": "0xd2b508298fcc37261953684744ec4ccc734d5083",
      "function": "withdrawCollateral(uint256,uint256)",
      "arguments": [
        "3",
        "600000"
      ],
      "transaction": {
        "from": "0x3a4db9e7306af09012ceb0f222d581fd1f0c6d71",
        "to": "0xd2b508298fcc37261953684744ec4ccc734d5083",
        "gas": "0x57f65",
        "value": "0x0",
        "input": "0x767a7b05000000000000000000000000000000000000000000000000000000000000000300000000000000000000000000000000000000000000000000000000000927c0",
        "nonce": "0xc1",
        "chainId": "0xa4ec"
      },
      "additionalContracts": [],
      "isFixedGasLimit": false
    }
  ],
  "receipts": [
    {
      "status": "0x1",
      "cumulativeGasUsed": "0x150b14",
      "logs": [
        {
          "address": "0x48065fbbe25f71c9282ddf5e1cd6d6a887483d5e",
          "topics": [
            "0x8c5be1e5ebec7d5bd14f71427d1e84f3dd0314c0f7b2291e5b200ac8c7c3b925",
            "0x0000000000000000000000003a4db9e7306af09012ceb0f222d581fd1f0c6d71",
            "0x000000000000000000000000d2b508298fcc37261953684744ec4ccc734d5083"
          ],
          "data": "0x000000000000000000000000000000000000000000000000000000000007a120",
          "blockHash": "0x8fff58cd860b6fa8cc49bf6be11321cd2e19f2427c0925958d26aaf192e1ce74",
          "blockNumber": "0x20475fc",
          "transactionHash": "0x0f0e6ca57a54be67346b3d9bac2bd3ba84cc4ed95e2489788f4d60aae10a1f93",
          "transactionIndex": "0x11",
          "logIndex": "0x21",
          "removed": false
        }
      ],
      "logsBloom": "0x00000000000000000000000000000000000000000000000000000000000000000000000000000000000000000000000000000000000000000000000000200000000000000000000000000000000000000000000000000000000000000000000000000000000000000000000000000000000000000000000040000000000000000000010000000000000000000000400000000000000000000000000000000000020000000000000000000000000000000000000000000000000000000000000000000000000080000000008000000000000000000000001000000000000000000110100000000000000000000000000000000000000010000000000000000000",
      "type": "0x0",
      "transactionHash": "0x0f0e6ca57a54be67346b3d9bac2bd3ba84cc4ed95e2489788f4d60aae10a1f93",
      "transactionIndex": "0x11",
      "blockHash": "0x8fff58cd860b6fa8cc49bf6be11321cd2e19f2427c0925958d26aaf192e1ce74",
      "blockNumber": "0x20475fc",
      "gasUsed": "0xd097",
      "effectiveGasPrice": "0x5d22cfc40",
      "from": "0x3a4db9e7306af09012ceb0f222d581fd1f0c6d71",
      "to": "0x48065fbbe25f71c9282ddf5e1cd6d6a887483d5e",
      "contractAddress": null,
      "l1BaseFeeScalar": "0x0",
      "l1BlobBaseFee": "0x6c1d8d5f",
      "l1BlobBaseFeeScalar": "0x0",
      "l1Fee": "0x0",
      "l1GasPrice": "0x16c334d8",
      "l1GasUsed": "0x640"
    },
    {
      "status": "0x1",
      "cumulativeGasUsed": "0x1f1149",
      "logs": [
        {
          "address": "0x48065fbbe25f71c9282ddf5e1cd6d6a887483d5e",
          "topics": [
            "0xddf252ad1be2c89b69c2b068fc378daa952ba7f163c4a11628f55a4df523b3ef",
            "0x0000000000000000000000003a4db9e7306af09012ceb0f222d581fd1f0c6d71",
            "0x000000000000000000000000d2b508298fcc37261953684744ec4ccc734d5083"
          ],
          "data": "0x000000000000000000000000000000000000000000000000000000000007a120",
          "blockHash": "0x8fff58cd860b6fa8cc49bf6be11321cd2e19f2427c0925958d26aaf192e1ce74",
          "blockNumber": "0x20475fc",
          "transactionHash": "0x78859d14fcc550d3b8daeb2ee536d3da201baa6c76b5afad99ff671a2002b942",
          "transactionIndex": "0x12",
          "logIndex": "0x22",
          "removed": false
        },
        {
          "address": "0x48065fbbe25f71c9282ddf5e1cd6d6a887483d5e",
          "topics": [
            "0x8c5be1e5ebec7d5bd14f71427d1e84f3dd0314c0f7b2291e5b200ac8c7c3b925",
            "0x0000000000000000000000003a4db9e7306af09012ceb0f222d581fd1f0c6d71",
            "0x000000000000000000000000d2b508298fcc37261953684744ec4ccc734d5083"
          ],
          "data": "0x0000000000000000000000000000000000000000000000000000000000000000",
          "blockHash": "0x8fff58cd860b6fa8cc49bf6be11321cd2e19f2427c0925958d26aaf192e1ce74",
          "blockNumber": "0x20475fc",
          "transactionHash": "0x78859d14fcc550d3b8daeb2ee536d3da201baa6c76b5afad99ff671a2002b942",
          "transactionIndex": "0x12",
          "logIndex": "0x23",
          "removed": false
        },
        {
          "address": "0x48065fbbe25f71c9282ddf5e1cd6d6a887483d5e",
          "topics": [
            "0x8c5be1e5ebec7d5bd14f71427d1e84f3dd0314c0f7b2291e5b200ac8c7c3b925",
            "0x000000000000000000000000d2b508298fcc37261953684744ec4ccc734d5083",
            "0x0000000000000000000000003e59a31363e2ad014dcbc521c4a0d5757d9f3402"
          ],
          "data": "0x000000000000000000000000000000000000000000000000000000000007a120",
          "blockHash": "0x8fff58cd860b6fa8cc49bf6be11321cd2e19f2427c0925958d26aaf192e1ce74",
          "blockNumber": "0x20475fc",
          "transactionHash": "0x78859d14fcc550d3b8daeb2ee536d3da201baa6c76b5afad99ff671a2002b942",
          "transactionIndex": "0x12",
          "logIndex": "0x24",
          "removed": false
        },
        {
          "address": "0x3e59a31363e2ad014dcbc521c4a0d5757d9f3402",
          "topics": [
            "0x804c9b842b2748a22bb64b345453a3de7ca54a6ca45ce00d415894979e22897a",
            "0x00000000000000000000000048065fbbe25f71c9282ddf5e1cd6d6a887483d5e"
          ],
          "data": "0x00000000000000000000000000000000000000000000000b15eb9aa65a31ba8c0000000000000000000000000000000000000000000000000000000000000000000000000000000000000000000000000000000000001c268a16f3f95020c53c0000000000000000000000000000000000000000033b5f8e257feea77cc523200000000000000000000000000000000000000000033bccae7834aaea3ecbd461",
          "blockHash": "0x8fff58cd860b6fa8cc49bf6be11321cd2e19f2427c0925958d26aaf192e1ce74",
          "blockNumber": "0x20475fc",
          "transactionHash": "0x78859d14fcc550d3b8daeb2ee536d3da201baa6c76b5afad99ff671a2002b942",
          "transactionIndex": "0x12",
          "logIndex": "0x25",
          "removed": false
        },
        {
          "address": "0x48065fbbe25f71c9282ddf5e1cd6d6a887483d5e",
          "topics": [
            "0xddf252ad1be2c89b69c2b068fc378daa952ba7f163c4a11628f55a4df523b3ef",
            "0x000000000000000000000000d2b508298fcc37261953684744ec4ccc734d5083",
            "0x000000000000000000000000dee98402a302e4d707fb9bf2bac66faeec31e8df"
          ],
          "data": "0x000000000000000000000000000000000000000000000000000000000007a120",
          "blockHash": "0x8fff58cd860b6fa8cc49bf6be11321cd2e19f2427c0925958d26aaf192e1ce74",
          "blockNumber": "0x20475fc",
          "transactionHash": "0x78859d14fcc550d3b8daeb2ee536d3da201baa6c76b5afad99ff671a2002b942",
          "transactionIndex": "0x12",
          "logIndex": "0x26",
          "removed": false
        },
        {
          "address": "0x48065fbbe25f71c9282ddf5e1cd6d6a887483d5e",
          "topics": [
            "0x8c5be1e5ebec7d5bd14f71427d1e84f3dd0314c0f7b2291e5b200ac8c7c3b925",
            "0x000000000000000000000000d2b508298fcc37261953684744ec4ccc734d5083",
            "0x0000000000000000000000003e59a31363e2ad014dcbc521c4a0d5757d9f3402"
          ],
          "data": "0x0000000000000000000000000000000000000000000000000000000000000000",
          "blockHash": "0x8fff58cd860b6fa8cc49bf6be11321cd2e19f2427c0925958d26aaf192e1ce74",
          "blockNumber": "0x20475fc",
          "transactionHash": "0x78859d14fcc550d3b8daeb2ee536d3da201baa6c76b5afad99ff671a2002b942",
          "transactionIndex": "0x12",
          "logIndex": "0x27",
          "removed": false
        },
        {
          "address": "0xdee98402a302e4d707fb9bf2bac66faeec31e8df",
          "topics": [
            "0xddf252ad1be2c89b69c2b068fc378daa952ba7f163c4a11628f55a4df523b3ef",
            "0x0000000000000000000000000000000000000000000000000000000000000000",
            "0x000000000000000000000000d2b508298fcc37261953684744ec4ccc734d5083"
          ],
          "data": "0x000000000000000000000000000000000000000000000000000000000007a120",
          "blockHash": "0x8fff58cd860b6fa8cc49bf6be11321cd2e19f2427c0925958d26aaf192e1ce74",
          "blockNumber": "0x20475fc",
          "transactionHash": "0x78859d14fcc550d3b8daeb2ee536d3da201baa6c76b5afad99ff671a2002b942",
          "transactionIndex": "0x12",
          "logIndex": "0x28",
          "removed": false
        },
        {
          "address": "0xdee98402a302e4d707fb9bf2bac66faeec31e8df",
          "topics": [
            "0x458f5fa412d0f69b08dd84872b0215675cc67bc1d5b6fd93300a1c3878b86196",
            "0x000000000000000000000000d2b508298fcc37261953684744ec4ccc734d5083",
            "0x000000000000000000000000d2b508298fcc37261953684744ec4ccc734d5083"
          ],
          "data": "0x000000000000000000000000000000000000000000000000000000000007a12000000000000000000000000000000000000000000000000000000000000000000000000000000000000000000000000000000000033b5f8e257feea77cc52320",
          "blockHash": "0x8fff58cd860b6fa8cc49bf6be11321cd2e19f2427c0925958d26aaf192e1ce74",
          "blockNumber": "0x20475fc",
          "transactionHash": "0x78859d14fcc550d3b8daeb2ee536d3da201baa6c76b5afad99ff671a2002b942",
          "transactionIndex": "0x12",
          "logIndex": "0x29",
          "removed": false
        },
        {
          "address": "0x3e59a31363e2ad014dcbc521c4a0d5757d9f3402",
          "topics": [
            "0x2b627736bca15cd5381dcf80b0bf11fd197d01a037c52b927a881a10fb73ba61",
            "0x00000000000000000000000048065fbbe25f71c9282ddf5e1cd6d6a887483d5e",
            "0x000000000000000000000000d2b508298fcc37261953684744ec4ccc734d5083",
            "0x0000000000000000000000000000000000000000000000000000000000000000"
          ],
          "data": "0x000000000000000000000000d2b508298fcc37261953684744ec4ccc734d5083000000000000000000000000000000000000000000000000000000000007a120",
          "blockHash": "0x8fff58cd860b6fa8cc49bf6be11321cd2e19f2427c0925958d26aaf192e1ce74",
          "blockNumber": "0x20475fc",
          "transactionHash": "0x78859d14fcc550d3b8daeb2ee536d3da201baa6c76b5afad99ff671a2002b942",
          "transactionIndex": "0x12",
          "logIndex": "0x2a",
          "removed": false
        },
        {
          "address": "0xdbe517c0fa6467873b684eccbed77217e471e862",
          "topics": [
            "0xddf252ad1be2c89b69c2b068fc378daa952ba7f163c4a11628f55a4df523b3ef",
            "0x0000000000000000000000000000000000000000000000000000000000000000",
            "0x000000000000000000000000d2b508298fcc37261953684744ec4ccc734d5083"
          ],
          "data": "0x000000000000000000000000000000000000000000000000000000000003d090",
          "blockHash": "0x8fff58cd860b6fa8cc49bf6be11321cd2e19f2427c0925958d26aaf192e1ce74",
          "blockNumber": "0x20475fc",
          "transactionHash": "0x78859d14fcc550d3b8daeb2ee536d3da201baa6c76b5afad99ff671a2002b942",
          "transactionIndex": "0x12",
          "logIndex": "0x2b",
          "removed": false
        },
        {
          "address": "0xdbe517c0fa6467873b684eccbed77217e471e862",
          "topics": [
            "0x458f5fa412d0f69b08dd84872b0215675cc67bc1d5b6fd93300a1c3878b86196",
            "0x000000000000000000000000d2b508298fcc37261953684744ec4ccc734d5083",
            "0x000000000000000000000000d2b508298fcc37261953684744ec4ccc734d5083"
          ],
          "data": "0x000000000000000000000000000000000000000000000000000000000003d09000000000000000000000000000000000000000000000000000000000000000000000000000000000000000000000000000000000033c533bc987992fb1f925ee",
          "blockHash": "0x8fff58cd860b6fa8cc49bf6be11321cd2e19f2427c0925958d26aaf192e1ce74",
          "blockNumber": "0x20475fc",
          "transactionHash": "0x78859d14fcc550d3b8daeb2ee536d3da201baa6c76b5afad99ff671a2002b942",
          "transactionIndex": "0x12",
          "logIndex": "0x2c",
          "removed": false
        },
        {
          "address": "0x3e59a31363e2ad014dcbc521c4a0d5757d9f3402",
          "topics": [
            "0x804c9b842b2748a22bb64b345453a3de7ca54a6ca45ce00d415894979e22897a",
            "0x000000000000000000000000ceba9300f2b948710d2653dd7b07f33a8b32118c"
          ],
          "data": "0x00000000000000000000000000000000000000000000d61411ed328482c1c93b000000000000000000000000000000000000000000000000000000000000000000000000000000000000000000000000000000000007bb4e828ea7315772d14e0000000000000000000000000000000000000000033b692e00f6514e58eee2cf0000000000000000000000000000000000000000033c533bc987992fb1f925ee",
          "blockHash": "0x8fff58cd860b6fa8cc49bf6be11321cd2e19f2427c0925958d26aaf192e1ce74",
          "blockNumber": "0x20475fc",
          "transactionHash": "0x78859d14fcc550d3b8daeb2ee536d3da201baa6c76b5afad99ff671a2002b942",
          "transactionIndex": "0x12",
          "logIndex": "0x2d",
          "removed": false
        },
        {
          "address": "0xceba9300f2b948710d2653dd7b07f33a8b32118c",
          "topics": [
            "0xddf252ad1be2c89b69c2b068fc378daa952ba7f163c4a11628f55a4df523b3ef",
            "0x000000000000000000000000ff8309b9e99bfd2d4021bc71a362abd93dbd4785",
            "0x000000000000000000000000d2b508298fcc37261953684744ec4ccc734d5083"
          ],
          "data": "0x000000000000000000000000000000000000000000000000000000000003d090",
          "blockHash": "0x8fff58cd860b6fa8cc49bf6be11321cd2e19f2427c0925958d26aaf192e1ce74",
          "blockNumber": "0x20475fc",
          "transactionHash": "0x78859d14fcc550d3b8daeb2ee536d3da201baa6c76b5afad99ff671a2002b942",
          "transactionIndex": "0x12",
          "logIndex": "0x2e",
          "removed": false
        },
        {
          "address": "0x3e59a31363e2ad014dcbc521c4a0d5757d9f3402",
          "topics": [
            "0xb3d084820fb1a9decffb176436bd02558d15fac9b0ddfed8c465bc7359d7dce0",
            "0x000000000000000000000000ceba9300f2b948710d2653dd7b07f33a8b32118c",
            "0x000000000000000000000000d2b508298fcc37261953684744ec4ccc734d5083",
            "0x0000000000000000000000000000000000000000000000000000000000000000"
          ],
          "data": "0x000000000000000000000000d2b508298fcc37261953684744ec4ccc734d5083000000000000000000000000000000000000000000000000000000000003d090000000000000000000000000000000000000000000000000000000000000000200000000000000000000000000000000000000000007bb4e828ea7315772d14e",
          "blockHash": "0x8fff58cd860b6fa8cc49bf6be11321cd2e19f2427c0925958d26aaf192e1ce74",
          "blockNumber": "0x20475fc",
          "transactionHash": "0x78859d14fcc550d3b8daeb2ee536d3da201baa6c76b5afad99ff671a2002b942",
          "transactionIndex": "0x12",
          "logIndex": "0x2f",
          "removed": false
        },
        {
          "address": "0xceba9300f2b948710d2653dd7b07f33a8b32118c",
          "topics": [
            "0xddf252ad1be2c89b69c2b068fc378daa952ba7f163c4a11628f55a4df523b3ef",
            "0x000000000000000000000000d2b508298fcc37261953684744ec4ccc734d5083",
            "0x0000000000000000000000003a4db9e7306af09012ceb0f222d581fd1f0c6d71"
          ],
          "data": "0x000000000000000000000000000000000000000000000000000000000003d090",
          "blockHash": "0x8fff58cd860b6fa8cc49bf6be11321cd2e19f2427c0925958d26aaf192e1ce74",
          "blockNumber": "0x20475fc",
          "transactionHash": "0x78859d14fcc550d3b8daeb2ee536d3da201baa6c76b5afad99ff671a2002b942",
          "transactionIndex": "0x12",
          "logIndex": "0x30",
          "removed": false
        },
        {
          "address": "0xd2b508298fcc37261953684744ec4ccc734d5083",
          "topics": [
            "0x9f9b498443531d2db9df8a00ec466efc74ba50ec1d82f7badd3424b87930e19a",
            "0x0000000000000000000000000000000000000000000000000000000000000003",
            "0x0000000000000000000000003a4db9e7306af09012ceb0f222d581fd1f0c6d71"
          ],
          "data": "0x00000000000000000000000048065fbbe25f71c9282ddf5e1cd6d6a887483d5e000000000000000000000000000000000000000000000000000000000007a120000000000000000000000000ceba9300f2b948710d2653dd7b07f33a8b32118c000000000000000000000000000000000000000000000000000000000003d0900000000000000000000000000000000000000000000000000000000000000002",
          "blockHash": "0x8fff58cd860b6fa8cc49bf6be11321cd2e19f2427c0925958d26aaf192e1ce74",
          "blockNumber": "0x20475fc",
          "transactionHash": "0x78859d14fcc550d3b8daeb2ee536d3da201baa6c76b5afad99ff671a2002b942",
          "transactionIndex": "0x12",
          "logIndex": "0x31",
          "removed": false
        }
      ],
      "logsBloom": "0x0000000000000011020012000040000000100000000000000000000000000010000000080000000000002000000440000010000082000000000000000020000000000000800000080000000800000000000000000000000000000004000000000000000002000000000000000000080000000002000000004000001000000000000001000000000000000000000040000000000000000000220000000000000002000110000100000000004000000000100000000080000040000000000041000200000200008120000002a040000040000000000000041800020000000120000110100000004010000800000001000040000000000010000000400000000000",
      "type": "0x0",
      "transactionHash": "0x78859d14fcc550d3b8daeb2ee536d3da201baa6c76b5afad99ff671a2002b942",
      "transactionIndex": "0x12",
      "blockHash": "0x8fff58cd860b6fa8cc49bf6be11321cd2e19f2427c0925958d26aaf192e1ce74",
      "blockNumber": "0x20475fc",
      "gasUsed": "0xa0635",
      "effectiveGasPrice": "0x5d22cfc40",
      "from": "0x3a4db9e7306af09012ceb0f222d581fd1f0c6d71",
      "to": "0xd2b508298fcc37261953684744ec4ccc734d5083",
      "contractAddress": null,
      "l1BaseFeeScalar": "0x0",
      "l1BlobBaseFee": "0x6c1d8d5f",
      "l1BlobBaseFeeScalar": "0x0",
      "l1Fee": "0x0",
      "l1GasPrice": "0x16c334d8",
      "l1GasUsed": "0x77b"
    },
    {
      "status": "0x1",
      "cumulativeGasUsed": "0x161b1b",
      "logs": [
        {
          "address": "0x48065fbbe25f71c9282ddf5e1cd6d6a887483d5e",
          "topics": [
            "0x8c5be1e5ebec7d5bd14f71427d1e84f3dd0314c0f7b2291e5b200ac8c7c3b925",
            "0x0000000000000000000000003a4db9e7306af09012ceb0f222d581fd1f0c6d71",
            "0x000000000000000000000000d2b508298fcc37261953684744ec4ccc734d5083"
          ],
          "data": "0x000000000000000000000000000000000000000000000000000000000003d090",
          "blockHash": "0xc16448a739f749d80cb1eebeee5fa159ec04f49d0ed49b9fde8add3423c9dd52",
          "blockNumber": "0x20475fd",
          "transactionHash": "0xa9c4de629fe93e8db2c443a70bfc8f8d3f677df072d61787b53b2d0d7643e86c",
          "transactionIndex": "0x12",
          "logIndex": "0x1a",
          "removed": false
        },
        {
          "address": "0x48065fbbe25f71c9282ddf5e1cd6d6a887483d5e",
          "topics": [
            "0xddf252ad1be2c89b69c2b068fc378daa952ba7f163c4a11628f55a4df523b3ef",
            "0x0000000000000000000000003a4db9e7306af09012ceb0f222d581fd1f0c6d71",
            "0x000000000000000000000000d2b508298fcc37261953684744ec4ccc734d5083"
          ],
          "data": "0x000000000000000000000000000000000000000000000000000000000003d090",
          "blockHash": "0xc16448a739f749d80cb1eebeee5fa159ec04f49d0ed49b9fde8add3423c9dd52",
          "blockNumber": "0x20475fd",
          "transactionHash": "0xa9c4de629fe93e8db2c443a70bfc8f8d3f677df072d61787b53b2d0d7643e86c",
          "transactionIndex": "0x12",
          "logIndex": "0x1b",
          "removed": false
        },
        {
          "address": "0x48065fbbe25f71c9282ddf5e1cd6d6a887483d5e",
          "topics": [
            "0x8c5be1e5ebec7d5bd14f71427d1e84f3dd0314c0f7b2291e5b200ac8c7c3b925",
            "0x0000000000000000000000003a4db9e7306af09012ceb0f222d581fd1f0c6d71",
            "0x000000000000000000000000d2b508298fcc37261953684744ec4ccc734d5083"
          ],
          "data": "0x0000000000000000000000000000000000000000000000000000000000000000",
          "blockHash": "0xc16448a739f749d80cb1eebeee5fa159ec04f49d0ed49b9fde8add3423c9dd52",
          "blockNumber": "0x20475fd",
          "transactionHash": "0xa9c4de629fe93e8db2c443a70bfc8f8d3f677df072d61787b53b2d0d7643e86c",
          "transactionIndex": "0x12",
          "logIndex": "0x1c",
          "removed": false
        },
        {
          "address": "0x48065fbbe25f71c9282ddf5e1cd6d6a887483d5e",
          "topics": [
            "0x8c5be1e5ebec7d5bd14f71427d1e84f3dd0314c0f7b2291e5b200ac8c7c3b925",
            "0x000000000000000000000000d2b508298fcc37261953684744ec4ccc734d5083",
            "0x0000000000000000000000003e59a31363e2ad014dcbc521c4a0d5757d9f3402"
          ],
          "data": "0x000000000000000000000000000000000000000000000000000000000003d090",
          "blockHash": "0xc16448a739f749d80cb1eebeee5fa159ec04f49d0ed49b9fde8add3423c9dd52",
          "blockNumber": "0x20475fd",
          "transactionHash": "0xa9c4de629fe93e8db2c443a70bfc8f8d3f677df072d61787b53b2d0d7643e86c",
          "transactionIndex": "0x12",
          "logIndex": "0x1d",
          "removed": false
        },
        {
          "address": "0x3e59a31363e2ad014dcbc521c4a0d5757d9f3402",
          "topics": [
            "0x804c9b842b2748a22bb64b345453a3de7ca54a6ca45ce00d415894979e22897a",
            "0x00000000000000000000000048065fbbe25f71c9282ddf5e1cd6d6a887483d5e"
          ],
          "data": "0x00000000000000000000000000000000000000000000000b15eb7b17810efb7b0000000000000000000000000000000000000000000000000000000000000000000000000000000000000000000000000000000000001c2689eee25e08dec2a20000000000000000000000000000000000000000033b5f8e257ff48d9e4e71f40000000000000000000000000000000000000000033bccae7843a7ad6119786a",
          "blockHash": "0xc16448a739f749d80cb1eebeee5fa159ec04f49d0ed49b9fde8add3423c9dd52",
          "blockNumber": "0x20475fd",
          "transactionHash": "0xa9c4de629fe93e8db2c443a70bfc8f8d3f677df072d61787b53b2d0d7643e86c",
          "transactionIndex": "0x12",
          "logIndex": "0x1e",
          "removed": false
        },
        {
          "address": "0x48065fbbe25f71c9282ddf5e1cd6d6a887483d5e",
          "topics": [
            "0xddf252ad1be2c89b69c2b068fc378daa952ba7f163c4a11628f55a4df523b3ef",
            "0x000000000000000000000000d2b508298fcc37261953684744ec4ccc734d5083",
            "0x000000000000000000000000dee98402a302e4d707fb9bf2bac66faeec31e8df"
          ],
          "data": "0x000000000000000000000000000000000000000000000000000000000003d090",
          "blockHash": "0xc16448a739f749d80cb1eebeee5fa159ec04f49d0ed49b9fde8add3423c9dd52",
          "blockNumber": "0x20475fd",
          "transactionHash": "0xa9c4de629fe93e8db2c443a70bfc8f8d3f677df072d61787b53b2d0d7643e86c",
          "transactionIndex": "0x12",
          "logIndex": "0x1f",
          "removed": false
        },
        {
          "address": "0x48065fbbe25f71c9282ddf5e1cd6d6a887483d5e",
          "topics": [
            "0x8c5be1e5ebec7d5bd14f71427d1e84f3dd0314c0f7b2291e5b200ac8c7c3b925",
            "0x000000000000000000000000d2b508298fcc37261953684744ec4ccc734d5083",
            "0x0000000000000000000000003e59a31363e2ad014dcbc521c4a0d5757d9f3402"
          ],
          "data": "0x0000000000000000000000000000000000000000000000000000000000000000",
          "blockHash": "0xc16448a739f749d80cb1eebeee5fa159ec04f49d0ed49b9fde8add3423c9dd52",
          "blockNumber": "0x20475fd",
          "transactionHash": "0xa9c4de629fe93e8db2c443a70bfc8f8d3f677df072d61787b53b2d0d7643e86c",
          "transactionIndex": "0x12",
          "logIndex": "0x20",
          "removed": false
        },
        {
          "address": "0xdee98402a302e4d707fb9bf2bac66faeec31e8df",
          "topics": [
            "0xddf252ad1be2c89b69c2b068fc378daa952ba7f163c4a11628f55a4df523b3ef",
            "0x0000000000000000000000000000000000000000000000000000000000000000",
            "0x000000000000000000000000d2b508298fcc37261953684744ec4ccc734d5083"
          ],
          "data": "0x000000000000000000000000000000000000000000000000000000000003d090",
          "blockHash": "0xc16448a739f749d80cb1eebeee5fa159ec04f49d0ed49b9fde8add3423c9dd52",
          "blockNumber": "0x20475fd",
          "transactionHash": "0xa9c4de629fe93e8db2c443a70bfc8f8d3f677df072d61787b53b2d0d7643e86c",
          "transactionIndex": "0x12",
          "logIndex": "0x21",
          "removed": false
        },
        {
          "address": "0xdee98402a302e4d707fb9bf2bac66faeec31e8df",
          "topics": [
            "0x458f5fa412d0f69b08dd84872b0215675cc67bc1d5b6fd93300a1c3878b86196",
            "0x000000000000000000000000d2b508298fcc37261953684744ec4ccc734d5083",
            "0x000000000000000000000000d2b508298fcc37261953684744ec4ccc734d5083"
          ],
          "data": "0x000000000000000000000000000000000000000000000000000000000003d09000000000000000000000000000000000000000000000000000000000000000000000000000000000000000000000000000000000033b5f8e257ff48d9e4e71f4",
          "blockHash": "0xc16448a739f749d80cb1eebeee5fa159ec04f49d0ed49b9fde8add3423c9dd52",
          "blockNumber": "0x20475fd",
          "transactionHash": "0xa9c4de629fe93e8db2c443a70bfc8f8d3f677df072d61787b53b2d0d7643e86c",
          "transactionIndex": "0x12",
          "logIndex": "0x22",
          "removed": false
        },
        {
          "address": "0x3e59a31363e2ad014dcbc521c4a0d5757d9f3402",
          "topics": [
            "0x2b627736bca15cd5381dcf80b0bf11fd197d01a037c52b927a881a10fb73ba61",
            "0x00000000000000000000000048065fbbe25f71c9282ddf5e1cd6d6a887483d5e",
            "0x000000000000000000000000d2b508298fcc37261953684744ec4ccc734d5083",
            "0x0000000000000000000000000000000000000000000000000000000000000000"
          ],
          "data": "0x000000000000000000000000d2b508298fcc37261953684744ec4ccc734d5083000000000000000000000000000000000000000000000000000000000003d090",
          "blockHash": "0xc16448a739f749d80cb1eebeee5fa159ec04f49d0ed49b9fde8add3423c9dd52",
          "blockNumber": "0x20475fd",
          "transactionHash": "0xa9c4de629fe93e8db2c443a70bfc8f8d3f677df072d61787b53b2d0d7643e86c",
          "transactionIndex": "0x12",
          "logIndex": "0x23",
          "removed": false
        },
        {
          "address": "0xd2b508298fcc37261953684744ec4ccc734d5083",
          "topics": [
            "0x244160b15e69cc411f041d94ae7fab6f6bba85dade8403216c05ff4b920d5449",
            "0x0000000000000000000000000000000000000000000000000000000000000003"
          ],
          "data": "0x000000000000000000000000000000000000000000000000000000000003d090",
          "blockHash": "0xc16448a739f749d80cb1eebeee5fa159ec04f49d0ed49b9fde8add3423c9dd52",
          "blockNumber": "0x20475fd",
          "transactionHash": "0xa9c4de629fe93e8db2c443a70bfc8f8d3f677df072d61787b53b2d0d7643e86c",
          "transactionIndex": "0x12",
          "logIndex": "0x24",
          "removed": false
        }
      ],
      "logsBloom": "0x0000000000000011020002000000000000100000000000000000000000000010000000080000000000000000000400000000000082020000000000000020000000000000000000080000000800000000000000000000000000000004000000000000000002000000000000000000080000000000000000004000001000000000000001000000000000000000000040000000000000000000020000000000000002000010000100000000004000000000100000000080000040000000000041000200000200008000000000a040000050000000000000001800000000000120000110100000000080000000000000000040000000000010000000400000000000",
      "type": "0x0",
      "transactionHash": "0xa9c4de629fe93e8db2c443a70bfc8f8d3f677df072d61787b53b2d0d7643e86c",
      "transactionIndex": "0x12",
      "blockHash": "0xc16448a739f749d80cb1eebeee5fa159ec04f49d0ed49b9fde8add3423c9dd52",
      "blockNumber": "0x20475fd",
      "gasUsed": "0x3dfc5",
      "effectiveGasPrice": "0x5d22cfc40",
      "from": "0x3a4db9e7306af09012ceb0f222d581fd1f0c6d71",
      "to": "0xd2b508298fcc37261953684744ec4ccc734d5083",
      "contractAddress": null,
      "l1BaseFeeScalar": "0x0",
      "l1BlobBaseFee": "0x6c1d8d5f",
      "l1BlobBaseFeeScalar": "0x0",
      "l1Fee": "0x0",
      "l1GasPrice": "0x16c334d8",
      "l1GasUsed": "0x85e"
    },
    {
      "status": "0x1",
      "cumulativeGasUsed": "0x1bd00d",
      "logs": [
        {
          "address": "0xdbe517c0fa6467873b684eccbed77217e471e862",
          "topics": [
            "0xddf252ad1be2c89b69c2b068fc378daa952ba7f163c4a11628f55a4df523b3ef",
            "0x0000000000000000000000000000000000000000000000000000000000000000",
            "0x000000000000000000000000d2b508298fcc37261953684744ec4ccc734d5083"
          ],
          "data": "0x000000000000000000000000000000000000000000000000000000000001e848",
          "blockHash": "0xc16448a739f749d80cb1eebeee5fa159ec04f49d0ed49b9fde8add3423c9dd52",
          "blockNumber": "0x20475fd",
          "transactionHash": "0x3180a0cb22e2b3e677b0bd7250de25e71cfced45bc54a6faecaecf9ca979e9c2",
          "transactionIndex": "0x13",
          "logIndex": "0x25",
          "removed": false
        },
        {
          "address": "0xdbe517c0fa6467873b684eccbed77217e471e862",
          "topics": [
            "0x458f5fa412d0f69b08dd84872b0215675cc67bc1d5b6fd93300a1c3878b86196",
            "0x000000000000000000000000d2b508298fcc37261953684744ec4ccc734d5083",
            "0x000000000000000000000000d2b508298fcc37261953684744ec4ccc734d5083"
          ],
          "data": "0x000000000000000000000000000000000000000000000000000000000001e84800000000000000000000000000000000000000000000000000000000000000000000000000000000000000000000000000000000033c533bcda60ceec813738d",
          "blockHash": "0xc16448a739f749d80cb1eebeee5fa159ec04f49d0ed49b9fde8add3423c9dd52",
          "blockNumber": "0x20475fd",
          "transactionHash": "0x3180a0cb22e2b3e677b0bd7250de25e71cfced45bc54a6faecaecf9ca979e9c2",
          "transactionIndex": "0x13",
          "logIndex": "0x26",
          "removed": false
        },
        {
          "address": "0x3e59a31363e2ad014dcbc521c4a0d5757d9f3402",
          "topics": [
            "0x804c9b842b2748a22bb64b345453a3de7ca54a6ca45ce00d415894979e22897a",
            "0x000000000000000000000000ceba9300f2b948710d2653dd7b07f33a8b32118c"
          ],
          "data": "0x00000000000000000000000000000000000000000000d61434e58f705e18ad4e000000000000000000000000000000000000000000000000000000000000000000000000000000000000000000000000000000000007bb4f243819d6bf8e10440000000000000000000000000000000000000000033b692e01683d4c4d5370770000000000000000000000000000000000000000033c533bcda60ceec813738d",
          "blockHash": "0xc16448a739f749d80cb1eebeee5fa159ec04f49d0ed49b9fde8add3423c9dd52",
          "blockNumber": "0x20475fd",
          "transactionHash": "0x3180a0cb22e2b3e677b0bd7250de25e71cfced45bc54a6faecaecf9ca979e9c2",
          "transactionIndex": "0x13",
          "logIndex": "0x27",
          "removed": false
        },
        {
          "address": "0xceba9300f2b948710d2653dd7b07f33a8b32118c",
          "topics": [
            "0xddf252ad1be2c89b69c2b068fc378daa952ba7f163c4a11628f55a4df523b3ef",
            "0x000000000000000000000000ff8309b9e99bfd2d4021bc71a362abd93dbd4785",
            "0x000000000000000000000000d2b508298fcc37261953684744ec4ccc734d5083"
          ],
          "data": "0x000000000000000000000000000000000000000000000000000000000001e848",
          "blockHash": "0xc16448a739f749d80cb1eebeee5fa159ec04f49d0ed49b9fde8add3423c9dd52",
          "blockNumber": "0x20475fd",
          "transactionHash": "0x3180a0cb22e2b3e677b0bd7250de25e71cfced45bc54a6faecaecf9ca979e9c2",
          "transactionIndex": "0x13",
          "logIndex": "0x28",
          "removed": false
        },
        {
          "address": "0x3e59a31363e2ad014dcbc521c4a0d5757d9f3402",
          "topics": [
            "0xb3d084820fb1a9decffb176436bd02558d15fac9b0ddfed8c465bc7359d7dce0",
            "0x000000000000000000000000ceba9300f2b948710d2653dd7b07f33a8b32118c",
            "0x000000000000000000000000d2b508298fcc37261953684744ec4ccc734d5083",
            "0x0000000000000000000000000000000000000000000000000000000000000000"
          ],
          "data": "0x000000000000000000000000d2b508298fcc37261953684744ec4ccc734d5083000000000000000000000000000000000000000000000000000000000001e848000000000000000000000000000000000000000000000000000000000000000200000000000000000000000000000000000000000007bb4f243819d6bf8e1044",
          "blockHash": "0xc16448a739f749d80cb1eebeee5fa159ec04f49d0ed49b9fde8add3423c9dd52",
          "blockNumber": "0x20475fd",
          "transactionHash": "0x3180a0cb22e2b3e677b0bd7250de25e71cfced45bc54a6faecaecf9ca979e9c2",
          "transactionIndex": "0x13",
          "logIndex": "0x29",
          "removed": false
        },
        {
          "address": "0xceba9300f2b948710d2653dd7b07f33a8b32118c",
          "topics": [
            "0xddf252ad1be2c89b69c2b068fc378daa952ba7f163c4a11628f55a4df523b3ef",
            "0x000000000000000000000000d2b508298fcc37261953684744ec4ccc734d5083",
            "0x0000000000000000000000003a4db9e7306af09012ceb0f222d581fd1f0c6d71"
          ],
          "data": "0x000000000000000000000000000000000000000000000000000000000001e848",
          "blockHash": "0xc16448a739f749d80cb1eebeee5fa159ec04f49d0ed49b9fde8add3423c9dd52",
          "blockNumber": "0x20475fd",
          "transactionHash": "0x3180a0cb22e2b3e677b0bd7250de25e71cfced45bc54a6faecaecf9ca979e9c2",
          "transactionIndex": "0x13",
          "logIndex": "0x2a",
          "removed": false
        },
        {
          "address": "0xd2b508298fcc37261953684744ec4ccc734d5083",
          "topics": [
            "0xf3a2c404b3362c4238317c3dad1020c2e9e984ba8df38a4a1ff18d57e92a242a",
            "0x0000000000000000000000000000000000000000000000000000000000000003"
          ],
          "data": "0x000000000000000000000000000000000000000000000000000000000001e848",
          "blockHash": "0xc16448a739f749d80cb1eebeee5fa159ec04f49d0ed49b9fde8add3423c9dd52",
          "blockNumber": "0x20475fd",
          "transactionHash": "0x3180a0cb22e2b3e677b0bd7250de25e71cfced45bc54a6faecaecf9ca979e9c2",
          "transactionIndex": "0x13",
          "logIndex": "0x2b",
          "removed": false
        }
      ],
      "logsBloom": "0x00000000000000100000100000400000000000000000000000000000000000100000000000000000000000000004400000100000820000000000000000000000000000008000000000000008000000000000000000000000000000040000000000000000020000000000000000000800000000000000000000000010000000000000000000000010000000000000400000000000000000002200000000000000000001000000000000000000000000000000000000800000400000000000410002000002000081200000022000000000000000400000041800000000000020000100100000004010000800000001000000000000000010000800000000000000",
      "type": "0x0",
      "transactionHash": "0x3180a0cb22e2b3e677b0bd7250de25e71cfced45bc54a6faecaecf9ca979e9c2",
      "transactionIndex": "0x13",
      "blockHash": "0xc16448a739f749d80cb1eebeee5fa159ec04f49d0ed49b9fde8add3423c9dd52",
      "blockNumber": "0x20475fd",
      "gasUsed": "0x5b4f2",
      "effectiveGasPrice": "0x5d22cfc40",
      "from": "0x3a4db9e7306af09012ceb0f222d581fd1f0c6d71",
      "to": "0xd2b508298fcc37261953684744ec4ccc734d5083",
      "contractAddress": null,
      "l1BaseFeeScalar": "0x0",
      "l1BlobBaseFee": "0x6c1d8d5f",
      "l1BlobBaseFeeScalar": "0x0",
      "l1Fee": "0x0",
      "l1GasPrice": "0x16c334d8",
      "l1GasUsed": "0x640"
    },
    {
      "status": "0x1",
      "cumulativeGasUsed": "0x3623c0",
      "logs": [
        {
          "address": "0xceba9300f2b948710d2653dd7b07f33a8b32118c",
          "topics": [
            "0x8c5be1e5ebec7d5bd14f71427d1e84f3dd0314c0f7b2291e5b200ac8c7c3b925",
            "0x0000000000000000000000003a4db9e7306af09012ceb0f222d581fd1f0c6d71",
            "0x000000000000000000000000d2b508298fcc37261953684744ec4ccc734d5083"
          ],
          "data": "0x000000000000000000000000000000000000000000000000000000000002dc6c",
          "blockHash": "0xf6caa277bbb31305ee795135d89028335f88c3a21900a74f64df7eebce477bd0",
          "blockNumber": "0x20475fe",
          "transactionHash": "0x87ca739caa58ae41b35c365156ecff5d61f5edc60cdc34323673ac86e93c9f22",
          "transactionIndex": "0x25",
          "logIndex": "0x5f",
          "removed": false
        },
        {
          "address": "0xceba9300f2b948710d2653dd7b07f33a8b32118c",
          "topics": [
            "0xddf252ad1be2c89b69c2b068fc378daa952ba7f163c4a11628f55a4df523b3ef",
            "0x0000000000000000000000003a4db9e7306af09012ceb0f222d581fd1f0c6d71",
            "0x000000000000000000000000d2b508298fcc37261953684744ec4ccc734d5083"
          ],
          "data": "0x000000000000000000000000000000000000000000000000000000000002dc6c",
          "blockHash": "0xf6caa277bbb31305ee795135d89028335f88c3a21900a74f64df7eebce477bd0",
          "blockNumber": "0x20475fe",
          "transactionHash": "0x87ca739caa58ae41b35c365156ecff5d61f5edc60cdc34323673ac86e93c9f22",
          "transactionIndex": "0x25",
          "logIndex": "0x60",
          "removed": false
        },
        {
          "address": "0xceba9300f2b948710d2653dd7b07f33a8b32118c",
          "topics": [
            "0x8c5be1e5ebec7d5bd14f71427d1e84f3dd0314c0f7b2291e5b200ac8c7c3b925",
            "0x000000000000000000000000d2b508298fcc37261953684744ec4ccc734d5083",
            "0x0000000000000000000000003e59a31363e2ad014dcbc521c4a0d5757d9f3402"
          ],
          "data": "0x000000000000000000000000000000000000000000000000000000000002dc6c",
          "blockHash": "0xf6caa277bbb31305ee795135d89028335f88c3a21900a74f64df7eebce477bd0",
          "blockNumber": "0x20475fe",
          "transactionHash": "0x87ca739caa58ae41b35c365156ecff5d61f5edc60cdc34323673ac86e93c9f22",
          "transactionIndex": "0x25",
          "logIndex": "0x61",
          "removed": false
        },
        {
          "address": "0xdbe517c0fa6467873b684eccbed77217e471e862",
          "topics": [
            "0xddf252ad1be2c89b69c2b068fc378daa952ba7f163c4a11628f55a4df523b3ef",
            "0x000000000000000000000000d2b508298fcc37261953684744ec4ccc734d5083",
            "0x0000000000000000000000000000000000000000000000000000000000000000"
          ],
          "data": "0x000000000000000000000000000000000000000000000000000000000002dc6c",
          "blockHash": "0xf6caa277bbb31305ee795135d89028335f88c3a21900a74f64df7eebce477bd0",
          "blockNumber": "0x20475fe",
          "transactionHash": "0x87ca739caa58ae41b35c365156ecff5d61f5edc60cdc34323673ac86e93c9f22",
          "transactionIndex": "0x25",
          "logIndex": "0x62",
          "removed": false
        },
        {
          "address": "0xdbe517c0fa6467873b684eccbed77217e471e862",
          "topics": [
            "0x4cf25bc1d991c17529c25213d3cc0cda295eeaad5f13f361969b12ea48015f90",
            "0x000000000000000000000000d2b508298fcc37261953684744ec4ccc734d5083",
            "0x0000000000000000000000000000000000000000000000000000000000000000"
          ],
          "data": "0x000000000000000000000000000000000000000000000000000000000002dc6c00000000000000000000000000000000000000000000000000000000000000000000000000000000000000000000000000000000033c533bd1c481040307333f",
          "blockHash": "0xf6caa277bbb31305ee795135d89028335f88c3a21900a74f64df7eebce477bd0",
          "blockNumber": "0x20475fe",
          "transactionHash": "0x87ca739caa58ae41b35c365156ecff5d61f5edc60cdc34323673ac86e93c9f22",
          "transactionIndex": "0x25",
          "logIndex": "0x63",
          "removed": false
        },
        {
          "address": "0x3e59a31363e2ad014dcbc521c4a0d5757d9f3402",
          "topics": [
            "0x804c9b842b2748a22bb64b345453a3de7ca54a6ca45ce00d415894979e22897a",
            "0x000000000000000000000000ceba9300f2b948710d2653dd7b07f33a8b32118c"
          ],
          "data": "0x00000000000000000000000000000000000000000000d6140075a684ea2ca8f6000000000000000000000000000000000000000000000000000000000000000000000000000000000000000000000000000000000007bb4e31cf55c3a2d541c80000000000000000000000000000000000000000033b692e01da295cddc7ec860000000000000000000000000000000000000000033c533bd1c481040307333f",
          "blockHash": "0xf6caa277bbb31305ee795135d89028335f88c3a21900a74f64df7eebce477bd0",
          "blockNumber": "0x20475fe",
          "transactionHash": "0x87ca739caa58ae41b35c365156ecff5d61f5edc60cdc34323673ac86e93c9f22",
          "transactionIndex": "0x25",
          "logIndex": "0x64",
          "removed": false
        },
        {
          "address": "0xceba9300f2b948710d2653dd7b07f33a8b32118c",
          "topics": [
            "0xddf252ad1be2c89b69c2b068fc378daa952ba7f163c4a11628f55a4df523b3ef",
            "0x000000000000000000000000d2b508298fcc37261953684744ec4ccc734d5083",
            "0x000000000000000000000000ff8309b9e99bfd2d4021bc71a362abd93dbd4785"
          ],
          "data": "0x000000000000000000000000000000000000000000000000000000000002dc6c",
          "blockHash": "0xf6caa277bbb31305ee795135d89028335f88c3a21900a74f64df7eebce477bd0",
          "blockNumber": "0x20475fe",
          "transactionHash": "0x87ca739caa58ae41b35c365156ecff5d61f5edc60cdc34323673ac86e93c9f22",
          "transactionIndex": "0x25",
          "logIndex": "0x65",
          "removed": false
        },
        {
          "address": "0x3e59a31363e2ad014dcbc521c4a0d5757d9f3402",
          "topics": [
            "0xa534c8dbe71f871f9f3530e97a74601fea17b426cae02e1c5aee42c96c784051",
            "0x000000000000000000000000ceba9300f2b948710d2653dd7b07f33a8b32118c",
            "0x000000000000000000000000d2b508298fcc37261953684744ec4ccc734d5083",
            "0x000000000000000000000000d2b508298fcc37261953684744ec4ccc734d5083"
          ],
          "data": "0x000000000000000000000000000000000000000000000000000000000002dc6c0000000000000000000000000000000000000000000000000000000000000000",
          "blockHash": "0xf6caa277bbb31305ee795135d89028335f88c3a21900a74f64df7eebce477bd0",
          "blockNumber": "0x20475fe",
          "transactionHash": "0x87ca739caa58ae41b35c365156ecff5d61f5edc60cdc34323673ac86e93c9f22",
          "transactionIndex": "0x25",
          "logIndex": "0x66",
          "removed": false
        },
        {
          "address": "0xd2b508298fcc37261953684744ec4ccc734d5083",
          "topics": [
            "0x0d4979b0859a1951f8ed7cbe3b1994e740552588f27ba02ca0f8f1ddcad16e0c",
            "0x0000000000000000000000000000000000000000000000000000000000000003"
          ],
          "data": "0x000000000000000000000000000000000000000000000000000000000002dc6c",
          "blockHash": "0xf6caa277bbb31305ee795135d89028335f88c3a21900a74f64df7eebce477bd0",
          "blockNumber": "0x20475fe",
          "transactionHash": "0x87ca739caa58ae41b35c365156ecff5d61f5edc60cdc34323673ac86e93c9f22",
          "transactionIndex": "0x25",
          "logIndex": "0x67",
          "removed": false
        }
      ],
      "logsBloom": "0x10000000000000110000120010400000000000000000000000000000000000100000000000000000000000000000400000110000c20000000000000000200000000000008000000000000008000000000000002000000000000000000000000080000000020000000000000000000800000000000000000000000010000000000000000000000000000000000000400000000000000000002200000000000000020001100000000000000000000000000000000000800000400000000000410000000002000080200000022000000000000000000000001800000000000020040110100000004010000800000000000000000000000010000000000000040000",
      "type": "0x0",
      "transactionHash": "0x87ca739caa58ae41b35c365156ecff5d61f5edc60cdc34323673ac86e93c9f22",
      "transactionIndex": "0x25",
      "blockHash": "0xf6caa277bbb31305ee795135d89028335f88c3a21900a74f64df7eebce477bd0",
      "blockNumber": "0x20475fe",
      "gasUsed": "0x3cfec",
      "effectiveGasPrice": "0x5d22cfc40",
      "from": "0x3a4db9e7306af09012ceb0f222d581fd1f0c6d71",
      "to": "0xd2b508298fcc37261953684744ec4ccc734d5083",
      "contractAddress": null,
      "l1BaseFeeScalar": "0x0",
      "l1BlobBaseFee": "0x6c1d8d5f",
      "l1BlobBaseFeeScalar": "0x0",
      "l1Fee": "0x0",
      "l1GasPrice": "0x16c334d8",
      "l1GasUsed": "0x85e"
    },
    {
      "status": "0x1",
      "cumulativeGasUsed": "0x3b47a5",
      "logs": [
        {
          "address": "0x3e59a31363e2ad014dcbc521c4a0d5757d9f3402",
          "topics": [
            "0x804c9b842b2748a22bb64b345453a3de7ca54a6ca45ce00d415894979e22897a",
            "0x00000000000000000000000048065fbbe25f71c9282ddf5e1cd6d6a887483d5e"
          ],
          "data": "0x00000000000000000000000000000000000000000000000b15eb8e06d013a8cc0000000000000000000000000000000000000000000000000000000000000000000000000000000000000000000000000000000000001c268a06ecee592310d40000000000000000000000000000000000000000033b5f8e257ffa73bfc6f5d20000000000000000000000000000000000000000033bccae7852a4706e123b58",
          "blockHash": "0xf6caa277bbb31305ee795135d89028335f88c3a21900a74f64df7eebce477bd0",
          "blockNumber": "0x20475fe",
          "transactionHash": "0x46ca4f80e30c68d87c3182a6acbd0a4f2f977df79c0716e9981b4cbd967b95ed",
          "transactionIndex": "0x26",
          "logIndex": "0x68",
          "removed": false
        },
        {
          "address": "0xdee98402a302e4d707fb9bf2bac66faeec31e8df",
          "topics": [
            "0xddf252ad1be2c89b69c2b068fc378daa952ba7f163c4a11628f55a4df523b3ef",
            "0x000000000000000000000000d2b508298fcc37261953684744ec4ccc734d5083",
            "0x0000000000000000000000000000000000000000000000000000000000000000"
          ],
          "data": "0x00000000000000000000000000000000000000000000000000000000000249f0",
          "blockHash": "0xf6caa277bbb31305ee795135d89028335f88c3a21900a74f64df7eebce477bd0",
          "blockNumber": "0x20475fe",
          "transactionHash": "0x46ca4f80e30c68d87c3182a6acbd0a4f2f977df79c0716e9981b4cbd967b95ed",
          "transactionIndex": "0x26",
          "logIndex": "0x69",
          "removed": false
        },
        {
          "address": "0xdee98402a302e4d707fb9bf2bac66faeec31e8df",
          "topics": [
            "0x4cf25bc1d991c17529c25213d3cc0cda295eeaad5f13f361969b12ea48015f90",
            "0x000000000000000000000000d2b508298fcc37261953684744ec4ccc734d5083",
            "0x0000000000000000000000003a4db9e7306af09012ceb0f222d581fd1f0c6d71"
          ],
          "data": "0x00000000000000000000000000000000000000000000000000000000000249f000000000000000000000000000000000000000000000000000000000000000000000000000000000000000000000000000000000033b5f8e257ffa73bfc6f5d2",
          "blockHash": "0xf6caa277bbb31305ee795135d89028335f88c3a21900a74f64df7eebce477bd0",
          "blockNumber": "0x20475fe",
          "transactionHash": "0x46ca4f80e30c68d87c3182a6acbd0a4f2f977df79c0716e9981b4cbd967b95ed",
          "transactionIndex": "0x26",
          "logIndex": "0x6a",
          "removed": false
        },
        {
          "address": "0x48065fbbe25f71c9282ddf5e1cd6d6a887483d5e",
          "topics": [
            "0xddf252ad1be2c89b69c2b068fc378daa952ba7f163c4a11628f55a4df523b3ef",
            "0x000000000000000000000000dee98402a302e4d707fb9bf2bac66faeec31e8df",
            "0x0000000000000000000000003a4db9e7306af09012ceb0f222d581fd1f0c6d71"
          ],
          "data": "0x00000000000000000000000000000000000000000000000000000000000249f0",
          "blockHash": "0xf6caa277bbb31305ee795135d89028335f88c3a21900a74f64df7eebce477bd0",
          "blockNumber": "0x20475fe",
          "transactionHash": "0x46ca4f80e30c68d87c3182a6acbd0a4f2f977df79c0716e9981b4cbd967b95ed",
          "transactionIndex": "0x26",
          "logIndex": "0x6b",
          "removed": false
        },
        {
          "address": "0x3e59a31363e2ad014dcbc521c4a0d5757d9f3402",
          "topics": [
            "0x3115d1449a7b732c986cba18244e897a450f61e1bb8d589cd2e69e6c8924f9f7",
            "0x00000000000000000000000048065fbbe25f71c9282ddf5e1cd6d6a887483d5e",
            "0x000000000000000000000000d2b508298fcc37261953684744ec4ccc734d5083",
            "0x0000000000000000000000003a4db9e7306af09012ceb0f222d581fd1f0c6d71"
          ],
          "data": "0x00000000000000000000000000000000000000000000000000000000000249f0",
          "blockHash": "0xf6caa277bbb31305ee795135d89028335f88c3a21900a74f64df7eebce477bd0",
          "blockNumber": "0x20475fe",
          "transactionHash": "0x46ca4f80e30c68d87c3182a6acbd0a4f2f977df79c0716e9981b4cbd967b95ed",
          "transactionIndex": "0x26",
          "logIndex": "0x6c",
          "removed": false
        },
        {
          "address": "0xd2b508298fcc37261953684744ec4ccc734d5083",
          "topics": [
            "0x2399e8aed1977410745a5211d8226a3a7d9278f50a8a197c5ec6e285bb437f0b",
            "0x0000000000000000000000000000000000000000000000000000000000000003"
          ],
          "data": "0x00000000000000000000000000000000000000000000000000000000000249f0",
          "blockHash": "0xf6caa277bbb31305ee795135d89028335f88c3a21900a74f64df7eebce477bd0",
          "blockNumber": "0x20475fe",
          "transactionHash": "0x46ca4f80e30c68d87c3182a6acbd0a4f2f977df79c0716e9981b4cbd967b95ed",
          "transactionIndex": "0x26",
          "logIndex": "0x6d",
          "removed": false
        }
      ],
      "logsBloom": "0x1000000000000010020000000000000000900000000000000000000000000010000000080000000000000000000000000001000082000000000000000000000000000000000000080000000800000000000000000000000000000000000000000000000002000000000000000000080000000000002002004000001000000000000001000000000000000000000040000000000000006000020000000000000000000000008100000000004000000000100000000080000040000000000041000000000200008000000000a000000040000000000000001800000000000120040100100000000000000000000000000000000000000010000000000000000000",
      "type": "0x0",
      "transactionHash": "0x46ca4f80e30c68d87c3182a6acbd0a4f2f977df79c0716e9981b4cbd967b95ed",
      "transactionIndex": "0x26",
      "blockHash": "0xf6caa277bbb31305ee795135d89028335f88c3a21900a74f64df7eebce477bd0",
      "blockNumber": "0x20475fe",
      "gasUsed": "0x523e5",
      "effectiveGasPrice": "0x5d22cfc40",
      "from": "0x3a4db9e7306af09012ceb0f222d581fd1f0c6d71",
      "to": "0xd2b508298fcc37261953684744ec4ccc734d5083",
      "contractAddress": null,
      "l1BaseFeeScalar": "0x0",
      "l1BlobBaseFee": "0x6c1d8d5f",
      "l1BlobBaseFeeScalar": "0x0",
      "l1Fee": "0x0",
      "l1GasPrice": "0x16c334d8",
      "l1GasUsed": "0x640"
    },
    {
      "status": "0x1",
      "cumulativeGasUsed": "0x3c2032",
      "logs": [
        {
          "address": "0xceba9300f2b948710d2653dd7b07f33a8b32118c",
          "topics": [
            "0x8c5be1e5ebec7d5bd14f71427d1e84f3dd0314c0f7b2291e5b200ac8c7c3b925",
            "0x0000000000000000000000003a4db9e7306af09012ceb0f222d581fd1f0c6d71",
            "0x000000000000000000000000d2b508298fcc37261953684744ec4ccc734d5083"
          ],
          "data": "0x000000000000000000000000000000000000000000000000000000000005b8d8",
          "blockHash": "0xf6caa277bbb31305ee795135d89028335f88c3a21900a74f64df7eebce477bd0",
          "blockNumber": "0x20475fe",
          "transactionHash": "0xb895a82c2656336719e565cb6c34e131177c2ac94e05df58d135590f6a6b43d8",
          "transactionIndex": "0x27",
          "logIndex": "0x6e",
          "removed": false
        }
      ],
      "logsBloom": "0x00000000000000000000100000000000000000000000000000000000000000000000000000000000000000000000000000000000000000000000000000200000000000000000000000000000000000000000000000000000000000000000000000000000000000000000000000000000000000000000000000000000000000000000000000000000000000000000400000000000000000000000000000000000020000000000000000000000000000000000000000000000000000000000000000000000000080000000020000000000000000000000001000000000000000000110100000000000000800000000000000000000000010000000000000000000",
      "type": "0x0",
      "transactionHash": "0xb895a82c2656336719e565cb6c34e131177c2ac94e05df58d135590f6a6b43d8",
      "transactionIndex": "0x27",
      "blockHash": "0xf6caa277bbb31305ee795135d89028335f88c3a21900a74f64df7eebce477bd0",
      "blockNumber": "0x20475fe",
      "gasUsed": "0xd88d",
      "effectiveGasPrice": "0x5d22cfc40",
      "from": "0x3a4db9e7306af09012ceb0f222d581fd1f0c6d71",
      "to": "0xceba9300f2b948710d2653dd7b07f33a8b32118c",
      "contractAddress": null,
      "l1BaseFeeScalar": "0x0",
      "l1BlobBaseFee": "0x6c1d8d5f",
      "l1BlobBaseFeeScalar": "0x0",
      "l1Fee": "0x0",
      "l1GasPrice": "0x16c334d8",
      "l1GasUsed": "0x640"
    },
    {
      "status": "0x1",
      "cumulativeGasUsed": "0x3f60a8",
      "logs": [
        {
          "address": "0xceba9300f2b948710d2653dd7b07f33a8b32118c",
          "topics": [
            "0xddf252ad1be2c89b69c2b068fc378daa952ba7f163c4a11628f55a4df523b3ef",
            "0x0000000000000000000000003a4db9e7306af09012ceb0f222d581fd1f0c6d71",
            "0x000000000000000000000000d2b508298fcc37261953684744ec4ccc734d5083"
          ],
          "data": "0x000000000000000000000000000000000000000000000000000000000002dc6c",
          "blockHash": "0xf6caa277bbb31305ee795135d89028335f88c3a21900a74f64df7eebce477bd0",
          "blockNumber": "0x20475fe",
          "transactionHash": "0x4a712bae0ccb129dc41826eac72b3b0d28c8cab341b505ae584ccd132c807fbd",
          "transactionIndex": "0x28",
          "logIndex": "0x6f",
          "removed": false
        },
        {
          "address": "0xceba9300f2b948710d2653dd7b07f33a8b32118c",
          "topics": [
            "0x8c5be1e5ebec7d5bd14f71427d1e84f3dd0314c0f7b2291e5b200ac8c7c3b925",
            "0x000000000000000000000000d2b508298fcc37261953684744ec4ccc734d5083",
            "0x0000000000000000000000003e59a31363e2ad014dcbc521c4a0d5757d9f3402"
          ],
          "data": "0x000000000000000000000000000000000000000000000000000000000002dc6c",
          "blockHash": "0xf6caa277bbb31305ee795135d89028335f88c3a21900a74f64df7eebce477bd0",
          "blockNumber": "0x20475fe",
          "transactionHash": "0x4a712bae0ccb129dc41826eac72b3b0d28c8cab341b505ae584ccd132c807fbd",
          "transactionIndex": "0x28",
          "logIndex": "0x70",
          "removed": false
        },
        {
          "address": "0xdbe517c0fa6467873b684eccbed77217e471e862",
          "topics": [
            "0xddf252ad1be2c89b69c2b068fc378daa952ba7f163c4a11628f55a4df523b3ef",
            "0x000000000000000000000000d2b508298fcc37261953684744ec4ccc734d5083",
            "0x0000000000000000000000000000000000000000000000000000000000000000"
          ],
          "data": "0x000000000000000000000000000000000000000000000000000000000002dc6c",
          "blockHash": "0xf6caa277bbb31305ee795135d89028335f88c3a21900a74f64df7eebce477bd0",
          "blockNumber": "0x20475fe",
          "transactionHash": "0x4a712bae0ccb129dc41826eac72b3b0d28c8cab341b505ae584ccd132c807fbd",
          "transactionIndex": "0x28",
          "logIndex": "0x71",
          "removed": false
        },
        {
          "address": "0xdbe517c0fa6467873b684eccbed77217e471e862",
          "topics": [
            "0x4cf25bc1d991c17529c25213d3cc0cda295eeaad5f13f361969b12ea48015f90",
            "0x000000000000000000000000d2b508298fcc37261953684744ec4ccc734d5083",
            "0x0000000000000000000000000000000000000000000000000000000000000000"
          ],
          "data": "0x000000000000000000000000000000000000000000000000000000000002dc6c00000000000000000000000000000000000000000000000000000000000000000000000000000000000000000000000000000000033c533bd1c481040307333f",
          "blockHash": "0xf6caa277bbb31305ee795135d89028335f88c3a21900a74f64df7eebce477bd0",
          "blockNumber": "0x20475fe",
          "transactionHash": "0x4a712bae0ccb129dc41826eac72b3b0d28c8cab341b505ae584ccd132c807fbd",
          "transactionIndex": "0x28",
          "logIndex": "0x72",
          "removed": false
        },
        {
          "address": "0x3e59a31363e2ad014dcbc521c4a0d5757d9f3402",
          "topics": [
            "0x804c9b842b2748a22bb64b345453a3de7ca54a6ca45ce00d415894979e22897a",
            "0x000000000000000000000000ceba9300f2b948710d2653dd7b07f33a8b32118c"
          ],
          "data": "0x00000000000000000000000000000000000000000000d613cc03e0307d2e1cd2000000000000000000000000000000000000000000000000000000000000000000000000000000000000000000000000000000000007bb4d3f5dd4ff94b66a3e0000000000000000000000000000000000000000033b692e01da295cddc7ec860000000000000000000000000000000000000000033c533bd1c481040307333f",
          "blockHash": "0xf6caa277bbb31305ee795135d89028335f88c3a21900a74f64df7eebce477bd0",
          "blockNumber": "0x20475fe",
          "transactionHash": "0x4a712bae0ccb129dc41826eac72b3b0d28c8cab341b505ae584ccd132c807fbd",
          "transactionIndex": "0x28",
          "logIndex": "0x73",
          "removed": false
        },
        {
          "address": "0xceba9300f2b948710d2653dd7b07f33a8b32118c",
          "topics": [
            "0xddf252ad1be2c89b69c2b068fc378daa952ba7f163c4a11628f55a4df523b3ef",
            "0x000000000000000000000000d2b508298fcc37261953684744ec4ccc734d5083",
            "0x000000000000000000000000ff8309b9e99bfd2d4021bc71a362abd93dbd4785"
          ],
          "data": "0x000000000000000000000000000000000000000000000000000000000002dc6c",
          "blockHash": "0xf6caa277bbb31305ee795135d89028335f88c3a21900a74f64df7eebce477bd0",
          "blockNumber": "0x20475fe",
          "transactionHash": "0x4a712bae0ccb129dc41826eac72b3b0d28c8cab341b505ae584ccd132c807fbd",
          "transactionIndex": "0x28",
          "logIndex": "0x74",
          "removed": false
        },
        {
          "address": "0x3e59a31363e2ad014dcbc521c4a0d5757d9f3402",
          "topics": [
            "0xa534c8dbe71f871f9f3530e97a74601fea17b426cae02e1c5aee42c96c784051",
            "0x000000000000000000000000ceba9300f2b948710d2653dd7b07f33a8b32118c",
            "0x000000000000000000000000d2b508298fcc37261953684744ec4ccc734d5083",
            "0x000000000000000000000000d2b508298fcc37261953684744ec4ccc734d5083"
          ],
          "data": "0x000000000000000000000000000000000000000000000000000000000002dc6c0000000000000000000000000000000000000000000000000000000000000000",
          "blockHash": "0xf6caa277bbb31305ee795135d89028335f88c3a21900a74f64df7eebce477bd0",
          "blockNumber": "0x20475fe",
          "transactionHash": "0x4a712bae0ccb129dc41826eac72b3b0d28c8cab341b505ae584ccd132c807fbd",
          "transactionIndex": "0x28",
          "logIndex": "0x75",
          "removed": false
        },
        {
          "address": "0xd2b508298fcc37261953684744ec4ccc734d5083",
          "topics": [
            "0x0d4979b0859a1951f8ed7cbe3b1994e740552588f27ba02ca0f8f1ddcad16e0c",
            "0x0000000000000000000000000000000000000000000000000000000000000003"
          ],
          "data": "0x000000000000000000000000000000000000000000000000000000000002dc6c",
          "blockHash": "0xf6caa277bbb31305ee795135d89028335f88c3a21900a74f64df7eebce477bd0",
          "blockNumber": "0x20475fe",
          "transactionHash": "0x4a712bae0ccb129dc41826eac72b3b0d28c8cab341b505ae584ccd132c807fbd",
          "transactionIndex": "0x28",
          "logIndex": "0x76",
          "removed": false
        }
      ],
      "logsBloom": "0x10000000000000110000120010400000000000000000000000000000000000100000000000000000000000000000400000110000c20000000000000000200000000000008000000000000008000000000000002000000000000000000000000080000000020000000000000000000800000000000000000000000010000000000000000000000000000000000000400000000000000000002200000000000000020001100000000000000000000000000000000000800000400000000000410000000002000080200000022000000000000000000000001800000000000020040110100000004010000800000000000000000000000010000000000000040000",
      "type": "0x0",
      "transactionHash": "0x4a712bae0ccb129dc41826eac72b3b0d28c8cab341b505ae584ccd132c807fbd",
      "transactionIndex": "0x28",
      "blockHash": "0xf6caa277bbb31305ee795135d89028335f88c3a21900a74f64df7eebce477bd0",
      "blockNumber": "0x20475fe",
      "gasUsed": "0x34076",
      "effectiveGasPrice": "0x5d22cfc40",
      "from": "0x3a4db9e7306af09012ceb0f222d581fd1f0c6d71",
      "to": "0xd2b508298fcc37261953684744ec4ccc734d5083",
      "contractAddress": null,
      "l1BaseFeeScalar": "0x0",
      "l1BlobBaseFee": "0x6c1d8d5f",
      "l1BlobBaseFeeScalar": "0x0",
      "l1Fee": "0x0",
      "l1GasPrice": "0x16c334d8",
      "l1GasUsed": "0x640"
    },
    {
      "status": "0x1",
      "cumulativeGasUsed": "0x4322fb",
      "logs": [
        {
          "address": "0x3e59a31363e2ad014dcbc521c4a0d5757d9f3402",
          "topics": [
            "0x804c9b842b2748a22bb64b345453a3de7ca54a6ca45ce00d415894979e22897a",
            "0x00000000000000000000000048065fbbe25f71c9282ddf5e1cd6d6a887483d5e"
          ],
          "data": "0x00000000000000000000000000000000000000000000000b15ebd9c40e0b7dc60000000000000000000000000000000000000000000000000000000000000000000000000000000000000000000000000000000000001c268a67173134d753260000000000000000000000000000000000000000033b5f8e257ffa73bfc6f5d20000000000000000000000000000000000000000033bccae7852a4706e123b58",
          "blockHash": "0xf6caa277bbb31305ee795135d89028335f88c3a21900a74f64df7eebce477bd0",
          "blockNumber": "0x20475fe",
          "transactionHash": "0x7b53d3a92dfe518f6411d1587229c9b6773735fbb67bd5d695667df9928fa91d",
          "transactionIndex": "0x29",
          "logIndex": "0x77",
          "removed": false
        },
        {
          "address": "0xdee98402a302e4d707fb9bf2bac66faeec31e8df",
          "topics": [
            "0xddf252ad1be2c89b69c2b068fc378daa952ba7f163c4a11628f55a4df523b3ef",
            "0x000000000000000000000000d2b508298fcc37261953684744ec4ccc734d5083",
            "0x0000000000000000000000000000000000000000000000000000000000000000"
          ],
          "data": "0x00000000000000000000000000000000000000000000000000000000000927c0",
          "blockHash": "0xf6caa277bbb31305ee795135d89028335f88c3a21900a74f64df7eebce477bd0",
          "blockNumber": "0x20475fe",
          "transactionHash": "0x7b53d3a92dfe518f6411d1587229c9b6773735fbb67bd5d695667df9928fa91d",
          "transactionIndex": "0x29",
          "logIndex": "0x78",
          "removed": false
        },
        {
          "address": "0xdee98402a302e4d707fb9bf2bac66faeec31e8df",
          "topics": [
            "0x4cf25bc1d991c17529c25213d3cc0cda295eeaad5f13f361969b12ea48015f90",
            "0x000000000000000000000000d2b508298fcc37261953684744ec4ccc734d5083",
            "0x0000000000000000000000003a4db9e7306af09012ceb0f222d581fd1f0c6d71"
          ],
          "data": "0x00000000000000000000000000000000000000000000000000000000000927c000000000000000000000000000000000000000000000000000000000000000000000000000000000000000000000000000000000033b5f8e257ffa73bfc6f5d2",
          "blockHash": "0xf6caa277bbb31305ee795135d89028335f88c3a21900a74f64df7eebce477bd0",
          "blockNumber": "0x20475fe",
          "transactionHash": "0x7b53d3a92dfe518f6411d1587229c9b6773735fbb67bd5d695667df9928fa91d",
          "transactionIndex": "0x29",
          "logIndex": "0x79",
          "removed": false
        },
        {
          "address": "0x48065fbbe25f71c9282ddf5e1cd6d6a887483d5e",
          "topics": [
            "0xddf252ad1be2c89b69c2b068fc378daa952ba7f163c4a11628f55a4df523b3ef",
            "0x000000000000000000000000dee98402a302e4d707fb9bf2bac66faeec31e8df",
            "0x0000000000000000000000003a4db9e7306af09012ceb0f222d581fd1f0c6d71"
          ],
          "data": "0x00000000000000000000000000000000000000000000000000000000000927c0",
          "blockHash": "0xf6caa277bbb31305ee795135d89028335f88c3a21900a74f64df7eebce477bd0",
          "blockNumber": "0x20475fe",
          "transactionHash": "0x7b53d3a92dfe518f6411d1587229c9b6773735fbb67bd5d695667df9928fa91d",
          "transactionIndex": "0x29",
          "logIndex": "0x7a",
          "removed": false
        },
        {
          "address": "0x3e59a31363e2ad014dcbc521c4a0d5757d9f3402",
          "topics": [
            "0x3115d1449a7b732c986cba18244e897a450f61e1bb8d589cd2e69e6c8924f9f7",
            "0x00000000000000000000000048065fbbe25f71c9282ddf5e1cd6d6a887483d5e",
            "0x000000000000000000000000d2b508298fcc37261953684744ec4ccc734d5083",
            "0x0000000000000000000000003a4db9e7306af09012ceb0f222d581fd1f0c6d71"
          ],
          "data": "0x00000000000000000000000000000000000000000000000000000000000927c0",
          "blockHash": "0xf6caa277bbb31305ee795135d89028335f88c3a21900a74f64df7eebce477bd0",
          "blockNumber": "0x20475fe",
          "transactionHash": "0x7b53d3a92dfe518f6411d1587229c9b6773735fbb67bd5d695667df9928fa91d",
          "transactionIndex": "0x29",
          "logIndex": "0x7b",
          "removed": false
        },
        {
          "address": "0xd2b508298fcc37261953684744ec4ccc734d5083",
          "topics": [
            "0x2399e8aed1977410745a5211d8226a3a7d9278f50a8a197c5ec6e285bb437f0b",
            "0x0000000000000000000000000000000000000000000000000000000000000003"
          ],
          "data": "0x00000000000000000000000000000000000000000000000000000000000927c0",
          "blockHash": "0xf6caa277bbb31305ee795135d89028335f88c3a21900a74f64df7eebce477bd0",
          "blockNumber": "0x20475fe",
          "transactionHash": "0x7b53d3a92dfe518f6411d1587229c9b6773735fbb67bd5d695667df9928fa91d",
          "transactionIndex": "0x29",
          "logIndex": "0x7c",
          "removed": false
        }
      ],
      "logsBloom": "0x1000000000000010020000000000000000900000000000000000000000000010000000080000000000000000000000000001000082000000000000000000000000000000000000080000000800000000000000000000000000000000000000000000000002000000000000000000080000000000002002004000001000000000000001000000000000000000000040000000000000006000020000000000000000000000008100000000004000000000100000000080000040000000000041000000000200008000000000a000000040000000000000001800000000000120040100100000000000000000000000000000000000000010000000000000000000",
      "type": "0x0",
      "transactionHash": "0x7b53d3a92dfe518f6411d1587229c9b6773735fbb67bd5d695667df9928fa91d",
      "transactionIndex": "0x29",
      "blockHash": "0xf6caa277bbb31305ee795135d89028335f88c3a21900a74f64df7eebce477bd0",
      "blockNumber": "0x20475fe",
      "gasUsed": "0x3c253",
      "effectiveGasPrice": "0x5d22cfc40",
      "from": "0x3a4db9e7306af09012ceb0f222d581fd1f0c6d71",
      "to": "0xd2b508298fcc37261953684744ec4ccc734d5083",
      "contractAddress": null,
      "l1BaseFeeScalar": "0x0",
      "l1BlobBaseFee": "0x6c1d8d5f",
      "l1BlobBaseFeeScalar": "0x0",
      "l1Fee": "0x0",
      "l1GasPrice": "0x16c334d8",
      "l1GasUsed": "0x640"
    }
  ],
  "libraries": [],
  "pending": [],
  "returns": {},
  "timestamp": 1745747540,
  "chain": 42220,
  "commit": "1cefd9d"
}