{
  "transactions": [
    {
      "hash": "0x1bb8bcff886f5d775e7f1da556144eec221bf08f1bd1e029d72744f028e1be62",
      "transactionType": "CALL",
      "contractName": null,
      "contractAddress": "0x48065fbbe25f71c9282ddf5e1cd6d6a887483d5e",
      "function": "approve(address,uint256)",
      "arguments": [
        "0xd2B508298fCC37261953684744ec4CCc734d5083",
        "500000"
      ],
      "transaction": {
        "from": "0x3a4db9e7306af09012ceb0f222d581fd1f0c6d71",
        "to": "0x48065fbbe25f71c9282ddf5e1cd6d6a887483d5e",
        "gas": "0x1201c",
        "value": "0x0",
        "input": "0x095ea7b3000000000000000000000000d2b508298fcc37261953684744ec4ccc734d5083000000000000000000000000000000000000000000000000000000000007a120",
        "nonce": "0xcb",
        "chainId": "0xa4ec"
      },
      "additionalContracts": [],
      "isFixedGasLimit": false
    },
    {
      "hash": "0xc37255a2d22b1db79cbc5cfe308505bade8465adf4ec118e7409002070fcdf34",
      "transactionType": "CALL",
      "contractName": null,
      "contractAddress": "0xd2b508298fcc37261953684744ec4ccc734d5083",
      "function": "createPosition(address,uint256,address,uint256,uint256)",
      "arguments": [
        "0x48065fbBE25f71C9282ddf5e1cD6D6A887483D5e",
        "500000",
        "0xcebA9300f2b948710d2653dD7B07f33A8B32118C",
        "250000",
        "2"
      ],
      "transaction": {
        "from": "0x3a4db9e7306af09012ceb0f222d581fd1f0c6d71",
        "to": "0xd2b508298fcc37261953684744ec4ccc734d5083",
        "gas": "0xe8a41",
        "value": "0x0",
        "input": "0xb0c3d5df00000000000000000000000048065fbbe25f71c9282ddf5e1cd6d6a887483d5e000000000000000000000000000000000000000000000000000000000007a120000000000000000000000000ceba9300f2b948710d2653dd7b07f33a8b32118c000000000000000000000000000000000000000000000000000000000003d0900000000000000000000000000000000000000000000000000000000000000002",
        "nonce": "0xcc",
        "chainId": "0xa4ec"
      },
      "additionalContracts": [],
      "isFixedGasLimit": false
    },
    {
      "hash": "0x884a206a48ab4d3a16f8ea06a7b9a508a7d36d8d7224c9d34ac440340f2bc605",
      "transactionType": "CALL",
      "contractName": null,
      "contractAddress": "0xd2b508298fcc37261953684744ec4ccc734d5083",
      "function": "increaseBorrow(uint256,uint256)",
      "arguments": [
        "6",
        "125000"
      ],
      "transaction": {
        "from": "0x3a4db9e7306af09012ceb0f222d581fd1f0c6d71",
        "to": "0xd2b508298fcc37261953684744ec4ccc734d5083",
        "gas": "0x815b7",
        "value": "0x0",
        "input": "0x9e6824d90000000000000000000000000000000000000000000000000000000000000006000000000000000000000000000000000000000000000000000000000001e848",
        "nonce": "0xcd",
        "chainId": "0xa4ec"
      },
      "additionalContracts": [],
      "isFixedGasLimit": false
    },
    {
      "hash": "0x1ca6d3297b9c79535de7f75cebb88827c1bf8738ea332e4f8f660e1ba70f4f81",
      "transactionType": "CALL",
      "contractName": null,
      "contractAddress": "0xd2b508298fcc37261953684744ec4ccc734d5083",
      "function": "repayDebtWithPermit(uint256,uint256,uint256,uint8,bytes32,bytes32)",
      "arguments": [
        "6",
        "187500",
        "1745756115",
        "28",
        "0xbdc95b5c37f84913a6999f0121b6fe853a7de31277035552f6ef68e7a2416ca5",
        "0x52314be8cf5c3501442592bdd12560dce869d2ae83abfdbe86b94aed6c69b61a"
      ],
      "transaction": {
        "from": "0x3a4db9e7306af09012ceb0f222d581fd1f0c6d71",
        "to": "0xd2b508298fcc37261953684744ec4ccc734d5083",
        "gas": "0x5595c",
        "value": "0x0",
        "input": "0xc9a7906a0000000000000000000000000000000000000000000000000000000000000006000000000000000000000000000000000000000000000000000000000002dc6c00000000000000000000000000000000000000000000000000000000680e1fd3000000000000000000000000000000000000000000000000000000000000001cbdc95b5c37f84913a6999f0121b6fe853a7de31277035552f6ef68e7a2416ca552314be8cf5c3501442592bdd12560dce869d2ae83abfdbe86b94aed6c69b61a",
        "nonce": "0xce",
        "chainId": "0xa4ec"
      },
      "additionalContracts": [],
      "isFixedGasLimit": false
    },
    {
      "hash": "0xfc731caa0e909662fb894717e1b14a5a4db3d39ef49c5bea6d075fd49b812632",
      "transactionType": "CALL",
      "contractName": null,
      "contractAddress": "0xd2b508298fcc37261953684744ec4ccc734d5083",
      "function": "withdrawCollateral(uint256,uint256)",
      "arguments": [
        "6",
        "100000"
      ],
      "transaction": {
        "from": "0x3a4db9e7306af09012ceb0f222d581fd1f0c6d71",
        "to": "0xd2b508298fcc37261953684744ec4ccc734d5083",
        "gas": "0x75c35",
        "value": "0x0",
        "input": "0x767a7b05000000000000000000000000000000000000000000000000000000000000000600000000000000000000000000000000000000000000000000000000000186a0",
        "nonce": "0xcf",
        "chainId": "0xa4ec"
      },
      "additionalContracts": [],
      "isFixedGasLimit": false
    },
    {
      "hash": "0x426b5f678fc8baa09a62eab8ddeb28aecbbe4a6a7172ecfd313dd4ec3f89c758",
      "transactionType": "CALL",
      "contractName": null,
      "contractAddress": "0xceba9300f2b948710d2653dd7b07f33a8b32118c",
      "function": "approve(address,uint256)",
      "arguments": [
        "0xd2B508298fCC37261953684744ec4CCc734d5083",
        "375000"
      ],
      "transaction": {
        "from": "0x3a4db9e7306af09012ceb0f222d581fd1f0c6d71",
        "to": "0xceba9300f2b948710d2653dd7b07f33a8b32118c",
        "gas": "0x12b1b",
        "value": "0x0",
        "input": "0x095ea7b3000000000000000000000000d2b508298fcc37261953684744ec4ccc734d5083000000000000000000000000000000000000000000000000000000000005b8d8",
        "nonce": "0xd0",
        "chainId": "0xa4ec"
      },
      "additionalContracts": [],
      "isFixedGasLimit": false
    },
    {
      "hash": "0x2af3b135eb66c3fcf71470c534d67678693f049878037b3ad0611049c4ca48cb",
      "transactionType": "CALL",
      "contractName": null,
      "contractAddress": "0xd2b508298fcc37261953684744ec4ccc734d5083",
      "function": "repayDebt(uint256,uint256)",
      "arguments": [
        "6",
        "187500"
      ],
      "transaction": {
        "from": "0x3a4db9e7306af09012ceb0f222d581fd1f0c6d71",
        "to": "0xd2b508298fcc37261953684744ec4ccc734d5083",
        "gas": "0x485f1",
        "value": "0x0",
        "input": "0x015cb0a50000000000000000000000000000000000000000000000000000000000000006000000000000000000000000000000000000000000000000000000000002dc6c",
        "nonce": "0xd1",
        "chainId": "0xa4ec"
      },
      "additionalContracts": [],
      "isFixedGasLimit": false
    },
    {
      "hash": "0x681572111d170eee44c35f6fa48c65727ef2954e040da9381315b47910ebbe4c",
      "transactionType": "CALL",
      "contractName": null,
      "contractAddress": "0xd2b508298fcc37261953684744ec4ccc734d5083",
      "function": "withdrawCollateral(uint256,uint256)",
      "arguments": [
        "6",
        "400000"
      ],
      "transaction": {
        "from": "0x3a4db9e7306af09012ceb0f222d581fd1f0c6d71",
        "to": "0xd2b508298fcc37261953684744ec4ccc734d5083",
        "gas": "0x740c9",
        "value": "0x0",
        "input": "0x767a7b0500000000000000000000000000000000000000000000000000000000000000060000000000000000000000000000000000000000000000000000000000061a80",
        "nonce": "0xd2",
        "chainId": "0xa4ec"
      },
      "additionalContracts": [],
      "isFixedGasLimit": false
    }
  ],
  "receipts": [
    {
      "status": "0x1",
      "cumulativeGasUsed": "0xf5852",
      "logs": [
        {
          "address": "0x48065fbbe25f71c9282ddf5e1cd6d6a887483d5e",
          "topics": [
            "0x8c5be1e5ebec7d5bd14f71427d1e84f3dd0314c0f7b2291e5b200ac8c7c3b925",
            "0x0000000000000000000000003a4db9e7306af09012ceb0f222d581fd1f0c6d71",
            "0x000000000000000000000000d2b508298fcc37261953684744ec4ccc734d5083"
          ],
          "data": "0x000000000000000000000000000000000000000000000000000000000007a120",
          "blockHash": "0x0efc7bf8b8c8ea7fe0ce439f35396d8a1b0a085f628e9c0a90acd9fab00e8d72",
          "blockNumber": "0x20489ab",
          "transactionHash": "0x1bb8bcff886f5d775e7f1da556144eec221bf08f1bd1e029d72744f028e1be62",
          "transactionIndex": "0x7",
          "logIndex": "0x1c",
          "removed": false
        }
      ],
      "logsBloom": "0x00000000000000000000000000000000000000000000000000000000000000000000000000000000000000000000000000000000000000000000000000200000000000000000000000000000000000000000000000000000000000000000000000000000000000000000000000000000000000000000000040000000000000000000010000000000000000000000400000000000000000000000000000000000020000000000000000000000000000000000000000000000000000000000000000000000000080000000008000000000000000000000001000000000000000000110100000000000000000000000000000000000000010000000000000000000",
      "type": "0x0",
      "transactionHash": "0x1bb8bcff886f5d775e7f1da556144eec221bf08f1bd1e029d72744f028e1be62",
      "transactionIndex": "0x7",
      "blockHash": "0x0efc7bf8b8c8ea7fe0ce439f35396d8a1b0a085f628e9c0a90acd9fab00e8d72",
      "blockNumber": "0x20489ab",
      "gasUsed": "0xd097",
      "effectiveGasPrice": "0x5d22cfc40",
      "from": "0x3a4db9e7306af09012ceb0f222d581fd1f0c6d71",
      "to": "0x48065fbbe25f71c9282ddf5e1cd6d6a887483d5e",
      "contractAddress": null,
      "l1BaseFeeScalar": "0x0",
      "l1BlobBaseFee": "0x601a44b2",
      "l1BlobBaseFeeScalar": "0x0",
      "l1Fee": "0x0",
      "l1GasPrice": "0x17178799",
      "l1GasUsed": "0x640"
    },
    {
      "status": "0x1",
      "cumulativeGasUsed": "0x194974",
      "logs": [
        {
          "address": "0x48065fbbe25f71c9282ddf5e1cd6d6a887483d5e",
          "topics": [
            "0xddf252ad1be2c89b69c2b068fc378daa952ba7f163c4a11628f55a4df523b3ef",
            "0x0000000000000000000000003a4db9e7306af09012ceb0f222d581fd1f0c6d71",
            "0x000000000000000000000000d2b508298fcc37261953684744ec4ccc734d5083"
          ],
          "data": "0x000000000000000000000000000000000000000000000000000000000007a120",
          "blockHash": "0x0efc7bf8b8c8ea7fe0ce439f35396d8a1b0a085f628e9c0a90acd9fab00e8d72",
          "blockNumber": "0x20489ab",
          "transactionHash": "0xc37255a2d22b1db79cbc5cfe308505bade8465adf4ec118e7409002070fcdf34",
          "transactionIndex": "0x8",
          "logIndex": "0x1d",
          "removed": false
        },
        {
          "address": "0x48065fbbe25f71c9282ddf5e1cd6d6a887483d5e",
          "topics": [
            "0x8c5be1e5ebec7d5bd14f71427d1e84f3dd0314c0f7b2291e5b200ac8c7c3b925",
            "0x0000000000000000000000003a4db9e7306af09012ceb0f222d581fd1f0c6d71",
            "0x000000000000000000000000d2b508298fcc37261953684744ec4ccc734d5083"
          ],
          "data": "0x0000000000000000000000000000000000000000000000000000000000000000",
          "blockHash": "0x0efc7bf8b8c8ea7fe0ce439f35396d8a1b0a085f628e9c0a90acd9fab00e8d72",
          "blockNumber": "0x20489ab",
          "transactionHash": "0xc37255a2d22b1db79cbc5cfe308505bade8465adf4ec118e7409002070fcdf34",
          "transactionIndex": "0x8",
          "logIndex": "0x1e",
          "removed": false
        },
        {
          "address": "0x48065fbbe25f71c9282ddf5e1cd6d6a887483d5e",
          "topics": [
            "0x8c5be1e5ebec7d5bd14f71427d1e84f3dd0314c0f7b2291e5b200ac8c7c3b925",
            "0x000000000000000000000000d2b508298fcc37261953684744ec4ccc734d5083",
            "0x0000000000000000000000003e59a31363e2ad014dcbc521c4a0d5757d9f3402"
          ],
          "data": "0x000000000000000000000000000000000000000000000000000000000007a120",
          "blockHash": "0x0efc7bf8b8c8ea7fe0ce439f35396d8a1b0a085f628e9c0a90acd9fab00e8d72",
          "blockNumber": "0x20489ab",
          "transactionHash": "0xc37255a2d22b1db79cbc5cfe308505bade8465adf4ec118e7409002070fcdf34",
          "transactionIndex": "0x8",
          "logIndex": "0x1f",
          "removed": false
        },
        {
          "address": "0x3e59a31363e2ad014dcbc521c4a0d5757d9f3402",
          "topics": [
            "0x804c9b842b2748a22bb64b345453a3de7ca54a6ca45ce00d415894979e22897a",
            "0x00000000000000000000000048065fbbe25f71c9282ddf5e1cd6d6a887483d5e"
          ],
          "data": "0x00000000000000000000000000000000000000000000000b15eb17af01a3ad5c0000000000000000000000000000000000000000000000000000000000000000000000000000000000000000000000000000000000001c268970aabdb7039aa20000000000000000000000000000000000000000033b5f8e25f40b77c471ec700000000000000000000000000000000000000000033bccaf9f35f2ceb9181d7e",
          "blockHash": "0x0efc7bf8b8c8ea7fe0ce439f35396d8a1b0a085f628e9c0a90acd9fab00e8d72",
          "blockNumber": "0x20489ab",
          "transactionHash": "0xc37255a2d22b1db79cbc5cfe308505bade8465adf4ec118e7409002070fcdf34",
          "transactionIndex": "0x8",
          "logIndex": "0x20",
          "removed": false
        },
        {
          "address": "0x48065fbbe25f71c9282ddf5e1cd6d6a887483d5e",
          "topics": [
            "0xddf252ad1be2c89b69c2b068fc378daa952ba7f163c4a11628f55a4df523b3ef",
            "0x000000000000000000000000d2b508298fcc37261953684744ec4ccc734d5083",
            "0x000000000000000000000000dee98402a302e4d707fb9bf2bac66faeec31e8df"
          ],
          "data": "0x000000000000000000000000000000000000000000000000000000000007a120",
          "blockHash": "0x0efc7bf8b8c8ea7fe0ce439f35396d8a1b0a085f628e9c0a90acd9fab00e8d72",
          "blockNumber": "0x20489ab",
          "transactionHash": "0xc37255a2d22b1db79cbc5cfe308505bade8465adf4ec118e7409002070fcdf34",
          "transactionIndex": "0x8",
          "logIndex": "0x21",
          "removed": false
        },
        {
          "address": "0x48065fbbe25f71c9282ddf5e1cd6d6a887483d5e",
          "topics": [
            "0x8c5be1e5ebec7d5bd14f71427d1e84f3dd0314c0f7b2291e5b200ac8c7c3b925",
            "0x000000000000000000000000d2b508298fcc37261953684744ec4ccc734d5083",
            "0x0000000000000000000000003e59a31363e2ad014dcbc521c4a0d5757d9f3402"
          ],
          "data": "0x0000000000000000000000000000000000000000000000000000000000000000",
          "blockHash": "0x0efc7bf8b8c8ea7fe0ce439f35396d8a1b0a085f628e9c0a90acd9fab00e8d72",
          "blockNumber": "0x20489ab",
          "transactionHash": "0xc37255a2d22b1db79cbc5cfe308505bade8465adf4ec118e7409002070fcdf34",
          "transactionIndex": "0x8",
          "logIndex": "0x22",
          "removed": false
        },
        {
          "address": "0xdee98402a302e4d707fb9bf2bac66faeec31e8df",
          "topics": [
            "0xddf252ad1be2c89b69c2b068fc378daa952ba7f163c4a11628f55a4df523b3ef",
            "0x0000000000000000000000000000000000000000000000000000000000000000",
            "0x000000000000000000000000d2b508298fcc37261953684744ec4ccc734d5083"
          ],
          "data": "0x000000000000000000000000000000000000000000000000000000000007a120",
          "blockHash": "0x0efc7bf8b8c8ea7fe0ce439f35396d8a1b0a085f628e9c0a90acd9fab00e8d72",
          "blockNumber": "0x20489ab",
          "transactionHash": "0xc37255a2d22b1db79cbc5cfe308505bade8465adf4ec118e7409002070fcdf34",
          "transactionIndex": "0x8",
          "logIndex": "0x23",
          "removed": false
        },
        {
          "address": "0xdee98402a302e4d707fb9bf2bac66faeec31e8df",
          "topics": [
            "0x458f5fa412d0f69b08dd84872b0215675cc67bc1d5b6fd93300a1c3878b86196",
            "0x000000000000000000000000d2b508298fcc37261953684744ec4ccc734d5083",
            "0x000000000000000000000000d2b508298fcc37261953684744ec4ccc734d5083"
          ],
          "data": "0x000000000000000000000000000000000000000000000000000000000007a12000000000000000000000000000000000000000000000000000000000000000000000000000000000000000000000000000000000033b5f8e25f40b77c471ec70",
          "blockHash": "0x0efc7bf8b8c8ea7fe0ce439f35396d8a1b0a085f628e9c0a90acd9fab00e8d72",
          "blockNumber": "0x20489ab",
          "transactionHash": "0xc37255a2d22b1db79cbc5cfe308505bade8465adf4ec118e7409002070fcdf34",
          "transactionIndex": "0x8",
          "logIndex": "0x24",
          "removed": false
        },
        {
          "address": "0x3e59a31363e2ad014dcbc521c4a0d5757d9f3402",
          "topics": [
            "0x2b627736bca15cd5381dcf80b0bf11fd197d01a037c52b927a881a10fb73ba61",
            "0x00000000000000000000000048065fbbe25f71c9282ddf5e1cd6d6a887483d5e",
            "0x000000000000000000000000d2b508298fcc37261953684744ec4ccc734d5083",
            "0x0000000000000000000000000000000000000000000000000000000000000000"
          ],
          "data": "0x000000000000000000000000d2b508298fcc37261953684744ec4ccc734d5083000000000000000000000000000000000000000000000000000000000007a120",
          "blockHash": "0x0efc7bf8b8c8ea7fe0ce439f35396d8a1b0a085f628e9c0a90acd9fab00e8d72",
          "blockNumber": "0x20489ab",
          "transactionHash": "0xc37255a2d22b1db79cbc5cfe308505bade8465adf4ec118e7409002070fcdf34",
          "transactionIndex": "0x8",
          "logIndex": "0x25",
          "removed": false
        },
        {
          "address": "0xdbe517c0fa6467873b684eccbed77217e471e862",
          "topics": [
            "0xddf252ad1be2c89b69c2b068fc378daa952ba7f163c4a11628f55a4df523b3ef",
            "0x0000000000000000000000000000000000000000000000000000000000000000",
            "0x000000000000000000000000d2b508298fcc37261953684744ec4ccc734d5083"
          ],
          "data": "0x000000000000000000000000000000000000000000000000000000000003d091",
          "blockHash": "0x0efc7bf8b8c8ea7fe0ce439f35396d8a1b0a085f628e9c0a90acd9fab00e8d72",
          "blockNumber": "0x20489ab",
          "transactionHash": "0xc37255a2d22b1db79cbc5cfe308505bade8465adf4ec118e7409002070fcdf34",
          "transactionIndex": "0x8",
          "logIndex": "0x26",
          "removed": false
        },
        {
          "address": "0xdbe517c0fa6467873b684eccbed77217e471e862",
          "topics": [
            "0x458f5fa412d0f69b08dd84872b0215675cc67bc1d5b6fd93300a1c3878b86196",
            "0x000000000000000000000000d2b508298fcc37261953684744ec4ccc734d5083",
            "0x000000000000000000000000d2b508298fcc37261953684744ec4ccc734d5083"
          ],
          "data": "0x000000000000000000000000000000000000000000000000000000000003d09100000000000000000000000000000000000000000000000000000000000000010000000000000000000000000000000000000000033c538cdce9d360952dc84f",
          "blockHash": "0x0efc7bf8b8c8ea7fe0ce439f35396d8a1b0a085f628e9c0a90acd9fab00e8d72",
          "blockNumber": "0x20489ab",
          "transactionHash": "0xc37255a2d22b1db79cbc5cfe308505bade8465adf4ec118e7409002070fcdf34",
          "transactionIndex": "0x8",
          "logIndex": "0x27",
          "removed": false
        },
        {
          "address": "0x3e59a31363e2ad014dcbc521c4a0d5757d9f3402",
          "topics": [
            "0x804c9b842b2748a22bb64b345453a3de7ca54a6ca45ce00d415894979e22897a",
            "0x000000000000000000000000ceba9300f2b948710d2653dd7b07f33a8b32118c"
          ],
          "data": "0x00000000000000000000000000000000000000000000d614e59d043ada75db26000000000000000000000000000000000000000000000000000000000000000000000000000000000000000000000000000000000007bb5255269dce3b626dca0000000000000000000000000000000000000000033b6936c358539b13d967d60000000000000000000000000000000000000000033c538cdce9d360952dc84f",
          "blockHash": "0x0efc7bf8b8c8ea7fe0ce439f35396d8a1b0a085f628e9c0a90acd9fab00e8d72",
          "blockNumber": "0x20489ab",
          "transactionHash": "0xc37255a2d22b1db79cbc5cfe308505bade8465adf4ec118e7409002070fcdf34",
          "transactionIndex": "0x8",
          "logIndex": "0x28",
          "removed": false
        },
        {
          "address": "0xceba9300f2b948710d2653dd7b07f33a8b32118c",
          "topics": [
            "0xddf252ad1be2c89b69c2b068fc378daa952ba7f163c4a11628f55a4df523b3ef",
            "0x000000000000000000000000ff8309b9e99bfd2d4021bc71a362abd93dbd4785",
            "0x000000000000000000000000d2b508298fcc37261953684744ec4ccc734d5083"
          ],
          "data": "0x000000000000000000000000000000000000000000000000000000000003d090",
          "blockHash": "0x0efc7bf8b8c8ea7fe0ce439f35396d8a1b0a085f628e9c0a90acd9fab00e8d72",
          "blockNumber": "0x20489ab",
          "transactionHash": "0xc37255a2d22b1db79cbc5cfe308505bade8465adf4ec118e7409002070fcdf34",
          "transactionIndex": "0x8",
          "logIndex": "0x29",
          "removed": false
        },
        {
          "address": "0x3e59a31363e2ad014dcbc521c4a0d5757d9f3402",
          "topics": [
            "0xb3d084820fb1a9decffb176436bd02558d15fac9b0ddfed8c465bc7359d7dce0",
            "0x000000000000000000000000ceba9300f2b948710d2653dd7b07f33a8b32118c",
            "0x000000000000000000000000d2b508298fcc37261953684744ec4ccc734d5083",
            "0x0000000000000000000000000000000000000000000000000000000000000000"
          ],
          "data": "0x000000000000000000000000d2b508298fcc37261953684744ec4ccc734d5083000000000000000000000000000000000000000000000000000000000003d090000000000000000000000000000000000000000000000000000000000000000200000000000000000000000000000000000000000007bb5255269dce3b626dca",
          "blockHash": "0x0efc7bf8b8c8ea7fe0ce439f35396d8a1b0a085f628e9c0a90acd9fab00e8d72",
          "blockNumber": "0x20489ab",
          "transactionHash": "0xc37255a2d22b1db79cbc5cfe308505bade8465adf4ec118e7409002070fcdf34",
          "transactionIndex": "0x8",
          "logIndex": "0x2a",
          "removed": false
        },
        {
          "address": "0xceba9300f2b948710d2653dd7b07f33a8b32118c",
          "topics": [
            "0xddf252ad1be2c89b69c2b068fc378daa952ba7f163c4a11628f55a4df523b3ef",
            "0x000000000000000000000000d2b508298fcc37261953684744ec4ccc734d5083",
            "0x0000000000000000000000003a4db9e7306af09012ceb0f222d581fd1f0c6d71"
          ],
          "data": "0x000000000000000000000000000000000000000000000000000000000003d090",
          "blockHash": "0x0efc7bf8b8c8ea7fe0ce439f35396d8a1b0a085f628e9c0a90acd9fab00e8d72",
          "blockNumber": "0x20489ab",
          "transactionHash": "0xc37255a2d22b1db79cbc5cfe308505bade8465adf4ec118e7409002070fcdf34",
          "transactionIndex": "0x8",
          "logIndex": "0x2b",
          "removed": false
        },
        {
          "address": "0xd2b508298fcc37261953684744ec4ccc734d5083",
          "topics": [
            "0x9f9b498443531d2db9df8a00ec466efc74ba50ec1d82f7badd3424b87930e19a",
            "0x0000000000000000000000000000000000000000000000000000000000000006",
            "0x0000000000000000000000003a4db9e7306af09012ceb0f222d581fd1f0c6d71"
          ],
          "data": "0x00000000000000000000000048065fbbe25f71c9282ddf5e1cd6d6a887483d5e000000000000000000000000000000000000000000000000000000000007a120000000000000000000000000ceba9300f2b948710d2653dd7b07f33a8b32118c000000000000000000000000000000000000000000000000000000000003d0900000000000000000000000000000000000000000000000000000000000000002",
          "blockHash": "0x0efc7bf8b8c8ea7fe0ce439f35396d8a1b0a085f628e9c0a90acd9fab00e8d72",
          "blockNumber": "0x20489ab",
          "transactionHash": "0xc37255a2d22b1db79cbc5cfe308505bade8465adf4ec118e7409002070fcdf34",
          "transactionIndex": "0x8",
          "logIndex": "0x2c",
          "removed": false
        }
      ],
      "logsBloom": "0x0000000000000011020012000040000000100000000000000000000000000010000000080000000000002000000440000010000080040000000000000020000000000000800000080000000800000000000000000000000000000004000000000000000002000000000000000000080000000002000000004000001000000000000001040000000000000000000040000000000000000000220000000000000002000110000100000000004000000000100000000000000040000008000001000200000200008120000002a040000040000000000000041800020000000120000110100000004010000800000001000040000000000010000000400000000000",
      "type": "0x0",
      "transactionHash": "0xc37255a2d22b1db79cbc5cfe308505bade8465adf4ec118e7409002070fcdf34",
      "transactionIndex": "0x8",
      "blockHash": "0x0efc7bf8b8c8ea7fe0ce439f35396d8a1b0a085f628e9c0a90acd9fab00e8d72",
      "blockNumber": "0x20489ab",
      "gasUsed": "0x9f122",
      "effectiveGasPrice": "0x5d22cfc40",
      "from": "0x3a4db9e7306af09012ceb0f222d581fd1f0c6d71",
      "to": "0xd2b508298fcc37261953684744ec4ccc734d5083",
      "contractAddress": null,
      "l1BaseFeeScalar": "0x0",
      "l1BlobBaseFee": "0x601a44b2",
      "l1BlobBaseFeeScalar": "0x0",
      "l1Fee": "0x0",
      "l1GasPrice": "0x17178799",
      "l1GasUsed": "0x77b"
    },
    {
      "status": "0x1",
      "cumulativeGasUsed": "0x1ed0a5",
      "logs": [
        {
          "address": "0xdbe517c0fa6467873b684eccbed77217e471e862",
          "topics": [
            "0xddf252ad1be2c89b69c2b068fc378daa952ba7f163c4a11628f55a4df523b3ef",
            "0x0000000000000000000000000000000000000000000000000000000000000000",
            "0x000000000000000000000000d2b508298fcc37261953684744ec4ccc734d5083"
          ],
          "data": "0x000000000000000000000000000000000000000000000000000000000001e848",
          "blockHash": "0x0efc7bf8b8c8ea7fe0ce439f35396d8a1b0a085f628e9c0a90acd9fab00e8d72",
          "blockNumber": "0x20489ab",
          "transactionHash": "0x884a206a48ab4d3a16f8ea06a7b9a508a7d36d8d7224c9d34ac440340f2bc605",
          "transactionIndex": "0x9",
          "logIndex": "0x2d",
          "removed": false
        },
        {
          "address": "0xdbe517c0fa6467873b684eccbed77217e471e862",
          "topics": [
            "0x458f5fa412d0f69b08dd84872b0215675cc67bc1d5b6fd93300a1c3878b86196",
            "0x000000000000000000000000d2b508298fcc37261953684744ec4ccc734d5083",
            "0x000000000000000000000000d2b508298fcc37261953684744ec4ccc734d5083"
          ],
          "data": "0x000000000000000000000000000000000000000000000000000000000001e84800000000000000000000000000000000000000000000000000000000000000000000000000000000000000000000000000000000033c538cdce9d360952dc84f",
          "blockHash": "0x0efc7bf8b8c8ea7fe0ce439f35396d8a1b0a085f628e9c0a90acd9fab00e8d72",
          "blockNumber": "0x20489ab",
          "transactionHash": "0x884a206a48ab4d3a16f8ea06a7b9a508a7d36d8d7224c9d34ac440340f2bc605",
          "transactionIndex": "0x9",
          "logIndex": "0x2e",
          "removed": false
        },
        {
          "address": "0x3e59a31363e2ad014dcbc521c4a0d5757d9f3402",
          "topics": [
            "0x804c9b842b2748a22bb64b345453a3de7ca54a6ca45ce00d415894979e22897a",
            "0x000000000000000000000000ceba9300f2b948710d2653dd7b07f33a8b32118c"
          ],
          "data": "0x00000000000000000000000000000000000000000000d61508939e51e9265ef1000000000000000000000000000000000000000000000000000000000000000000000000000000000000000000000000000000000007bb52f6c79c6a6d13a5f60000000000000000000000000000000000000000033b6936c358539b13d967d60000000000000000000000000000000000000000033c538cdce9d360952dc84f",
          "blockHash": "0x0efc7bf8b8c8ea7fe0ce439f35396d8a1b0a085f628e9c0a90acd9fab00e8d72",
          "blockNumber": "0x20489ab",
          "transactionHash": "0x884a206a48ab4d3a16f8ea06a7b9a508a7d36d8d7224c9d34ac440340f2bc605",
          "transactionIndex": "0x9",
          "logIndex": "0x2f",
          "removed": false
        },
        {
          "address": "0xceba9300f2b948710d2653dd7b07f33a8b32118c",
          "topics": [
            "0xddf252ad1be2c89b69c2b068fc378daa952ba7f163c4a11628f55a4df523b3ef",
            "0x000000000000000000000000ff8309b9e99bfd2d4021bc71a362abd93dbd4785",
            "0x000000000000000000000000d2b508298fcc37261953684744ec4ccc734d5083"
          ],
          "data": "0x000000000000000000000000000000000000000000000000000000000001e848",
          "blockHash": "0x0efc7bf8b8c8ea7fe0ce439f35396d8a1b0a085f628e9c0a90acd9fab00e8d72",
          "blockNumber": "0x20489ab",
          "transactionHash": "0x884a206a48ab4d3a16f8ea06a7b9a508a7d36d8d7224c9d34ac440340f2bc605",
          "transactionIndex": "0x9",
          "logIndex": "0x30",
          "removed": false
        },
        {
          "address": "0x3e59a31363e2ad014dcbc521c4a0d5757d9f3402",
          "topics": [
            "0xb3d084820fb1a9decffb176436bd02558d15fac9b0ddfed8c465bc7359d7dce0",
            "0x000000000000000000000000ceba9300f2b948710d2653dd7b07f33a8b32118c",
            "0x000000000000000000000000d2b508298fcc37261953684744ec4ccc734d5083",
            "0x0000000000000000000000000000000000000000000000000000000000000000"
          ],
          "data": "0x000000000000000000000000d2b508298fcc37261953684744ec4ccc734d5083000000000000000000000000000000000000000000000000000000000001e848000000000000000000000000000000000000000000000000000000000000000200000000000000000000000000000000000000000007bb52f6c79c6a6d13a5f6",
          "blockHash": "0x0efc7bf8b8c8ea7fe0ce439f35396d8a1b0a085f628e9c0a90acd9fab00e8d72",
          "blockNumber": "0x20489ab",
          "transactionHash": "0x884a206a48ab4d3a16f8ea06a7b9a508a7d36d8d7224c9d34ac440340f2bc605",
          "transactionIndex": "0x9",
          "logIndex": "0x31",
          "removed": false
        },
        {
          "address": "0xceba9300f2b948710d2653dd7b07f33a8b32118c",
          "topics": [
            "0xddf252ad1be2c89b69c2b068fc378daa952ba7f163c4a11628f55a4df523b3ef",
            "0x000000000000000000000000d2b508298fcc37261953684744ec4ccc734d5083",
            "0x0000000000000000000000003a4db9e7306af09012ceb0f222d581fd1f0c6d71"
          ],
          "data": "0x000000000000000000000000000000000000000000000000000000000001e848",
          "blockHash": "0x0efc7bf8b8c8ea7fe0ce439f35396d8a1b0a085f628e9c0a90acd9fab00e8d72",
          "blockNumber": "0x20489ab",
          "transactionHash": "0x884a206a48ab4d3a16f8ea06a7b9a508a7d36d8d7224c9d34ac440340f2bc605",
          "transactionIndex": "0x9",
          "logIndex": "0x32",
          "removed": false
        },
        {
          "address": "0xd2b508298fcc37261953684744ec4ccc734d5083",
          "topics": [
            "0xf3a2c404b3362c4238317c3dad1020c2e9e984ba8df38a4a1ff18d57e92a242a",
            "0x0000000000000000000000000000000000000000000000000000000000000006"
          ],
          "data": "0x000000000000000000000000000000000000000000000000000000000001e848",
          "blockHash": "0x0efc7bf8b8c8ea7fe0ce439f35396d8a1b0a085f628e9c0a90acd9fab00e8d72",
          "blockNumber": "0x20489ab",
          "transactionHash": "0x884a206a48ab4d3a16f8ea06a7b9a508a7d36d8d7224c9d34ac440340f2bc605",
          "transactionIndex": "0x9",
          "logIndex": "0x33",
          "removed": false
        }
      ],
      "logsBloom": "0x00000000000000100000100000400000000000000000000000000000000000100000000000000000000000000004400000100000800400000000000000000000000000008000000000000008000000000000000000000000000000040000000000000000020000000000000000000800000000000000000000000010000000000000000400000010000000000000400000000000000000002200000000000000000001000000000000000000000000000000000000000000400000080000010002000002000081200000022000000000000000400000041800000000000020000100100000004010000800000001000000000000000010000800000000000000",
      "type": "0x0",
      "transactionHash": "0x884a206a48ab4d3a16f8ea06a7b9a508a7d36d8d7224c9d34ac440340f2bc605",
      "transactionIndex": "0x9",
      "blockHash": "0x0efc7bf8b8c8ea7fe0ce439f35396d8a1b0a085f628e9c0a90acd9fab00e8d72",
      "blockNumber": "0x20489ab",
      "gasUsed": "0x58731",
      "effectiveGasPrice": "0x5d22cfc40",
      "from": "0x3a4db9e7306af09012ceb0f222d581fd1f0c6d71",
      "to": "0xd2b508298fcc37261953684744ec4ccc734d5083",
      "contractAddress": null,
      "l1BaseFeeScalar": "0x0",
      "l1BlobBaseFee": "0x601a44b2",
      "l1BlobBaseFeeScalar": "0x0",
      "l1Fee": "0x0",
      "l1GasPrice": "0x17178799",
      "l1GasUsed": "0x640"
    },
    {
      "status": "0x1",
      "cumulativeGasUsed": "0xfa948",
      "logs": [
        {
          "address": "0xceba9300f2b948710d2653dd7b07f33a8b32118c",
          "topics": [
            "0x8c5be1e5ebec7d5bd14f71427d1e84f3dd0314c0f7b2291e5b200ac8c7c3b925",
            "0x0000000000000000000000003a4db9e7306af09012ceb0f222d581fd1f0c6d71",
            "0x000000000000000000000000d2b508298fcc37261953684744ec4ccc734d5083"
          ],
          "data": "0x000000000000000000000000000000000000000000000000000000000002dc6c",
          "blockHash": "0x649a8803161ace95a04e42b5dca6e463c939949495e7fb9f7f57f03616d23856",
          "blockNumber": "0x20489ac",
          "transactionHash": "0x1ca6d3297b9c79535de7f75cebb88827c1bf8738ea332e4f8f660e1ba70f4f81",
          "transactionIndex": "0x5",
          "logIndex": "0x12",
          "removed": false
        },
        {
          "address": "0xceba9300f2b948710d2653dd7b07f33a8b32118c",
          "topics": [
            "0xddf252ad1be2c89b69c2b068fc378daa952ba7f163c4a11628f55a4df523b3ef",
            "0x0000000000000000000000003a4db9e7306af09012ceb0f222d581fd1f0c6d71",
            "0x000000000000000000000000d2b508298fcc37261953684744ec4ccc734d5083"
          ],
          "data": "0x000000000000000000000000000000000000000000000000000000000002dc6c",
          "blockHash": "0x649a8803161ace95a04e42b5dca6e463c939949495e7fb9f7f57f03616d23856",
          "blockNumber": "0x20489ac",
          "transactionHash": "0x1ca6d3297b9c79535de7f75cebb88827c1bf8738ea332e4f8f660e1ba70f4f81",
          "transactionIndex": "0x5",
          "logIndex": "0x13",
          "removed": false
        },
        {
          "address": "0xceba9300f2b948710d2653dd7b07f33a8b32118c",
          "topics": [
            "0x8c5be1e5ebec7d5bd14f71427d1e84f3dd0314c0f7b2291e5b200ac8c7c3b925",
            "0x000000000000000000000000d2b508298fcc37261953684744ec4ccc734d5083",
            "0x0000000000000000000000003e59a31363e2ad014dcbc521c4a0d5757d9f3402"
          ],
          "data": "0x000000000000000000000000000000000000000000000000000000000002dc6c",
          "blockHash": "0x649a8803161ace95a04e42b5dca6e463c939949495e7fb9f7f57f03616d23856",
          "blockNumber": "0x20489ac",
          "transactionHash": "0x1ca6d3297b9c79535de7f75cebb88827c1bf8738ea332e4f8f660e1ba70f4f81",
          "transactionIndex": "0x5",
          "logIndex": "0x14",
          "removed": false
        },
        {
          "address": "0xdbe517c0fa6467873b684eccbed77217e471e862",
          "topics": [
            "0xddf252ad1be2c89b69c2b068fc378daa952ba7f163c4a11628f55a4df523b3ef",
            "0x000000000000000000000000d2b508298fcc37261953684744ec4ccc734d5083",
            "0x0000000000000000000000000000000000000000000000000000000000000000"
          ],
          "data": "0x000000000000000000000000000000000000000000000000000000000002dc6c",
          "blockHash": "0x649a8803161ace95a04e42b5dca6e463c939949495e7fb9f7f57f03616d23856",
          "blockNumber": "0x20489ac",
          "transactionHash": "0x1ca6d3297b9c79535de7f75cebb88827c1bf8738ea332e4f8f660e1ba70f4f81",
          "transactionIndex": "0x5",
          "logIndex": "0x15",
          "removed": false
        },
        {
          "address": "0xdbe517c0fa6467873b684eccbed77217e471e862",
          "topics": [
            "0x4cf25bc1d991c17529c25213d3cc0cda295eeaad5f13f361969b12ea48015f90",
            "0x000000000000000000000000d2b508298fcc37261953684744ec4ccc734d5083",
            "0x0000000000000000000000000000000000000000000000000000000000000000"
          ],
          "data": "0x000000000000000000000000000000000000000000000000000000000002dc6c00000000000000000000000000000000000000000000000000000000000000000000000000000000000000000000000000000000033c538ce10849e6519ca119",
          "blockHash": "0x649a8803161ace95a04e42b5dca6e463c939949495e7fb9f7f57f03616d23856",
          "blockNumber": "0x20489ac",
          "transactionHash": "0x1ca6d3297b9c79535de7f75cebb88827c1bf8738ea332e4f8f660e1ba70f4f81",
          "transactionIndex": "0x5",
          "logIndex": "0x16",
          "removed": false
        },
        {
          "address": "0x3e59a31363e2ad014dcbc521c4a0d5757d9f3402",
          "topics": [
            "0x804c9b842b2748a22bb64b345453a3de7ca54a6ca45ce00d415894979e22897a",
            "0x000000000000000000000000ceba9300f2b948710d2653dd7b07f33a8b32118c"
          ],
          "data": "0x00000000000000000000000000000000000000000000d614d4238bf6bea7943d000000000000000000000000000000000000000000000000000000000000000000000000000000000000000000000000000000000007bb52045e90a21e3a909c0000000000000000000000000000000000000000033b6936c3ca401d7e3c5e2a0000000000000000000000000000000000000000033c538ce10849e6519ca119",
          "blockHash": "0x649a8803161ace95a04e42b5dca6e463c939949495e7fb9f7f57f03616d23856",
          "blockNumber": "0x20489ac",
          "transactionHash": "0x1ca6d3297b9c79535de7f75cebb88827c1bf8738ea332e4f8f660e1ba70f4f81",
          "transactionIndex": "0x5",
          "logIndex": "0x17",
          "removed": false
        },
        {
          "address": "0xceba9300f2b948710d2653dd7b07f33a8b32118c",
          "topics": [
            "0xddf252ad1be2c89b69c2b068fc378daa952ba7f163c4a11628f55a4df523b3ef",
            "0x000000000000000000000000d2b508298fcc37261953684744ec4ccc734d5083",
            "0x000000000000000000000000ff8309b9e99bfd2d4021bc71a362abd93dbd4785"
          ],
          "data": "0x000000000000000000000000000000000000000000000000000000000002dc6c",
          "blockHash": "0x649a8803161ace95a04e42b5dca6e463c939949495e7fb9f7f57f03616d23856",
          "blockNumber": "0x20489ac",
          "transactionHash": "0x1ca6d3297b9c79535de7f75cebb88827c1bf8738ea332e4f8f660e1ba70f4f81",
          "transactionIndex": "0x5",
          "logIndex": "0x18",
          "removed": false
        },
        {
          "address": "0x3e59a31363e2ad014dcbc521c4a0d5757d9f3402",
          "topics": [
            "0xa534c8dbe71f871f9f3530e97a74601fea17b426cae02e1c5aee42c96c784051",
            "0x000000000000000000000000ceba9300f2b948710d2653dd7b07f33a8b32118c",
            "0x000000000000000000000000d2b508298fcc37261953684744ec4ccc734d5083",
            "0x000000000000000000000000d2b508298fcc37261953684744ec4ccc734d5083"
          ],
          "data": "0x000000000000000000000000000000000000000000000000000000000002dc6c0000000000000000000000000000000000000000000000000000000000000000",
          "blockHash": "0x649a8803161ace95a04e42b5dca6e463c939949495e7fb9f7f57f03616d23856",
          "blockNumber": "0x20489ac",
          "transactionHash": "0x1ca6d3297b9c79535de7f75cebb88827c1bf8738ea332e4f8f660e1ba70f4f81",
          "transactionIndex": "0x5",
          "logIndex": "0x19",
          "removed": false
        },
        {
          "address": "0xd2b508298fcc37261953684744ec4ccc734d5083",
          "topics": [
            "0x0d4979b0859a1951f8ed7cbe3b1994e740552588f27ba02ca0f8f1ddcad16e0c",
            "0x0000000000000000000000000000000000000000000000000000000000000006"
          ],
          "data": "0x000000000000000000000000000000000000000000000000000000000002dc6c",
          "blockHash": "0x649a8803161ace95a04e42b5dca6e463c939949495e7fb9f7f57f03616d23856",
          "blockNumber": "0x20489ac",
          "transactionHash": "0x1ca6d3297b9c79535de7f75cebb88827c1bf8738ea332e4f8f660e1ba70f4f81",
          "transactionIndex": "0x5",
          "logIndex": "0x1a",
          "removed": false
        }
      ],
      "logsBloom": "0x10000000000000110000120010400000000000000000000000000000000000100000000000000000000000000000400000110000c00400000000000000200000000000008000000000000008000000000000002000000000000000000000000080000000020000000000000000000800000000000000000000000010000000000000000400000000000000000000400000000000000000002200000000000000020001100000000000000000000000000000000000000000400000080000010000000002000080200000022000000000000000000000001800000000000020040110100000004010000800000000000000000000000010000000000000040000",
      "type": "0x0",
      "transactionHash": "0x1ca6d3297b9c79535de7f75cebb88827c1bf8738ea332e4f8f660e1ba70f4f81",
      "transactionIndex": "0x5",
      "blockHash": "0x649a8803161ace95a04e42b5dca6e463c939949495e7fb9f7f57f03616d23856",
      "blockNumber": "0x20489ac",
      "gasUsed": "0x3cfec",
      "effectiveGasPrice": "0x5d22cfc40",
      "from": "0x3a4db9e7306af09012ceb0f222d581fd1f0c6d71",
      "to": "0xd2b508298fcc37261953684744ec4ccc734d5083",
      "contractAddress": null,
      "l1BaseFeeScalar": "0x0",
      "l1BlobBaseFee": "0x601a44b2",
      "l1BlobBaseFeeScalar": "0x0",
      "l1Fee": "0x0",
      "l1GasPrice": "0x17178799",
      "l1GasUsed": "0x85e"
    },
    {
      "status": "0x1",
      "cumulativeGasUsed": "0x14cd2d",
      "logs": [
        {
          "address": "0x3e59a31363e2ad014dcbc521c4a0d5757d9f3402",
          "topics": [
            "0x804c9b842b2748a22bb64b345453a3de7ca54a6ca45ce00d415894979e22897a",
            "0x00000000000000000000000048065fbbe25f71c9282ddf5e1cd6d6a887483d5e"
          ],
          "data": "0x00000000000000000000000000000000000000000000000b15eb244e8af31c8f0000000000000000000000000000000000000000000000000000000000000000000000000000000000000000000000000000000000001c268980b1c7fd316d760000000000000000000000000000000000000000033b5f8e25f4115de5b58b530000000000000000000000000000000000000000033bccaf9f44ef918835356a",
          "blockHash": "0x649a8803161ace95a04e42b5dca6e463c939949495e7fb9f7f57f03616d23856",
          "blockNumber": "0x20489ac",
          "transactionHash": "0xfc731caa0e909662fb894717e1b14a5a4db3d39ef49c5bea6d075fd49b812632",
          "transactionIndex": "0x6",
          "logIndex": "0x1b",
          "removed": false
        },
        {
          "address": "0xdee98402a302e4d707fb9bf2bac66faeec31e8df",
          "topics": [
            "0xddf252ad1be2c89b69c2b068fc378daa952ba7f163c4a11628f55a4df523b3ef",
            "0x000000000000000000000000d2b508298fcc37261953684744ec4ccc734d5083",
            "0x0000000000000000000000000000000000000000000000000000000000000000"
          ],
          "data": "0x00000000000000000000000000000000000000000000000000000000000186a0",
          "blockHash": "0x649a8803161ace95a04e42b5dca6e463c939949495e7fb9f7f57f03616d23856",
          "blockNumber": "0x20489ac",
          "transactionHash": "0xfc731caa0e909662fb894717e1b14a5a4db3d39ef49c5bea6d075fd49b812632",
          "transactionIndex": "0x6",
          "logIndex": "0x1c",
          "removed": false
        },
        {
          "address": "0xdee98402a302e4d707fb9bf2bac66faeec31e8df",
          "topics": [
            "0x4cf25bc1d991c17529c25213d3cc0cda295eeaad5f13f361969b12ea48015f90",
            "0x000000000000000000000000d2b508298fcc37261953684744ec4ccc734d5083",
            "0x0000000000000000000000003a4db9e7306af09012ceb0f222d581fd1f0c6d71"
          ],
          "data": "0x00000000000000000000000000000000000000000000000000000000000186a000000000000000000000000000000000000000000000000000000000000000000000000000000000000000000000000000000000033b5f8e25f4115de5b58b53",
          "blockHash": "0x649a8803161ace95a04e42b5dca6e463c939949495e7fb9f7f57f03616d23856",
          "blockNumber": "0x20489ac",
          "transactionHash": "0xfc731caa0e909662fb894717e1b14a5a4db3d39ef49c5bea6d075fd49b812632",
          "transactionIndex": "0x6",
          "logIndex": "0x1d",
          "removed": false
        },
        {
          "address": "0x48065fbbe25f71c9282ddf5e1cd6d6a887483d5e",
          "topics": [
            "0xddf252ad1be2c89b69c2b068fc378daa952ba7f163c4a11628f55a4df523b3ef",
            "0x000000000000000000000000dee98402a302e4d707fb9bf2bac66faeec31e8df",
            "0x0000000000000000000000003a4db9e7306af09012ceb0f222d581fd1f0c6d71"
          ],
          "data": "0x00000000000000000000000000000000000000000000000000000000000186a0",
          "blockHash": "0x649a8803161ace95a04e42b5dca6e463c939949495e7fb9f7f57f03616d23856",
          "blockNumber": "0x20489ac",
          "transactionHash": "0xfc731caa0e909662fb894717e1b14a5a4db3d39ef49c5bea6d075fd49b812632",
          "transactionIndex": "0x6",
          "logIndex": "0x1e",
          "removed": false
        },
        {
          "address": "0x3e59a31363e2ad014dcbc521c4a0d5757d9f3402",
          "topics": [
            "0x3115d1449a7b732c986cba18244e897a450f61e1bb8d589cd2e69e6c8924f9f7",
            "0x00000000000000000000000048065fbbe25f71c9282ddf5e1cd6d6a887483d5e",
            "0x000000000000000000000000d2b508298fcc37261953684744ec4ccc734d5083",
            "0x0000000000000000000000003a4db9e7306af09012ceb0f222d581fd1f0c6d71"
          ],
          "data": "0x00000000000000000000000000000000000000000000000000000000000186a0",
          "blockHash": "0x649a8803161ace95a04e42b5dca6e463c939949495e7fb9f7f57f03616d23856",
          "blockNumber": "0x20489ac",
          "transactionHash": "0xfc731caa0e909662fb894717e1b14a5a4db3d39ef49c5bea6d075fd49b812632",
          "transactionIndex": "0x6",
          "logIndex": "0x1f",
          "removed": false
        },
        {
          "address": "0xd2b508298fcc37261953684744ec4ccc734d5083",
          "topics": [
            "0x2399e8aed1977410745a5211d8226a3a7d9278f50a8a197c5ec6e285bb437f0b",
            "0x0000000000000000000000000000000000000000000000000000000000000006"
          ],
          "data": "0x00000000000000000000000000000000000000000000000000000000000186a0",
          "blockHash": "0x649a8803161ace95a04e42b5dca6e463c939949495e7fb9f7f57f03616d23856",
          "blockNumber": "0x20489ac",
          "transactionHash": "0xfc731caa0e909662fb894717e1b14a5a4db3d39ef49c5bea6d075fd49b812632",
          "transactionIndex": "0x6",
          "logIndex": "0x20",
          "removed": false
        }
      ],
      "logsBloom": "0x1000000000000010020000000000000000900000000000000000000000000010000000080000000000000000000000000001000080040000000000000000000000000000000000080000000800000000000000000000000000000000000000000000000002000000000000000000080000000000002002004000001000000000000001040000000000000000000040000000000000006000020000000000000000000000008100000000004000000000100000000000000040000008000001000000000200008000000000a000000040000000000000001800000000000120040100100000000000000000000000000000000000000010000000000000000000",
      "type": "0x0",
      "transactionHash": "0xfc731caa0e909662fb894717e1b14a5a4db3d39ef49c5bea6d075fd49b812632",
      "transactionIndex": "0x6",
      "blockHash": "0x649a8803161ace95a04e42b5dca6e463c939949495e7fb9f7f57f03616d23856",
      "blockNumber": "0x20489ac",
      "gasUsed": "0x523e5",
      "effectiveGasPrice": "0x5d22cfc40",
      "from": "0x3a4db9e7306af09012ceb0f222d581fd1f0c6d71",
      "to": "0xd2b508298fcc37261953684744ec4ccc734d5083",
      "contractAddress": null,
      "l1BaseFeeScalar": "0x0",
      "l1BlobBaseFee": "0x601a44b2",
      "l1BlobBaseFeeScalar": "0x0",
      "l1Fee": "0x0",
      "l1GasPrice": "0x17178799",
      "l1GasUsed": "0x640"
    },
    {
      "status": "0x1",
      "cumulativeGasUsed": "0x15a5ba",
      "logs": [
        {
          "address": "0xceba9300f2b948710d2653dd7b07f33a8b32118c",
          "topics": [
            "0x8c5be1e5ebec7d5bd14f71427d1e84f3dd0314c0f7b2291e5b200ac8c7c3b925",
            "0x0000000000000000000000003a4db9e7306af09012ceb0f222d581fd1f0c6d71",
            "0x000000000000000000000000d2b508298fcc37261953684744ec4ccc734d5083"
          ],
          "data": "0x000000000000000000000000000000000000000000000000000000000005b8d8",
          "blockHash": "0x649a8803161ace95a04e42b5dca6e463c939949495e7fb9f7f57f03616d23856",
          "blockNumber": "0x20489ac",
          "transactionHash": "0x426b5f678fc8baa09a62eab8ddeb28aecbbe4a6a7172ecfd313dd4ec3f89c758",
          "transactionIndex": "0x7",
          "logIndex": "0x21",
          "removed": false
        }
      ],
      "logsBloom": "0x00000000000000000000100000000000000000000000000000000000000000000000000000000000000000000000000000000000000000000000000000200000000000000000000000000000000000000000000000000000000000000000000000000000000000000000000000000000000000000000000000000000000000000000000000000000000000000000400000000000000000000000000000000000020000000000000000000000000000000000000000000000000000000000000000000000000080000000020000000000000000000000001000000000000000000110100000000000000800000000000000000000000010000000000000000000",
      "type": "0x0",
      "transactionHash": "0x426b5f678fc8baa09a62eab8ddeb28aecbbe4a6a7172ecfd313dd4ec3f89c758",
      "transactionIndex": "0x7",
      "blockHash": "0x649a8803161ace95a04e42b5dca6e463c939949495e7fb9f7f57f03616d23856",
      "blockNumber": "0x20489ac",
      "gasUsed": "0xd88d",
      "effectiveGasPrice": "0x5d22cfc40",
      "from": "0x3a4db9e7306af09012ceb0f222d581fd1f0c6d71",
      "to": "0xceba9300f2b948710d2653dd7b07f33a8b32118c",
      "contractAddress": null,
      "l1BaseFeeScalar": "0x0",
      "l1BlobBaseFee": "0x601a44b2",
      "l1BlobBaseFeeScalar": "0x0",
      "l1Fee": "0x0",
      "l1GasPrice": "0x17178799",
      "l1GasUsed": "0x640"
    },
    {
      "status": "0x1",
      "cumulativeGasUsed": "0x16c844",
      "logs": [
        {
          "address": "0xceba9300f2b948710d2653dd7b07f33a8b32118c",
          "topics": [
            "0xddf252ad1be2c89b69c2b068fc378daa952ba7f163c4a11628f55a4df523b3ef",
            "0x0000000000000000000000003a4db9e7306af09012ceb0f222d581fd1f0c6d71",
            "0x000000000000000000000000d2b508298fcc37261953684744ec4ccc734d5083"
          ],
          "data": "0x000000000000000000000000000000000000000000000000000000000002dc6c",
          "blockHash": "0x6f61aeb2c17041b194fd8a8590b191dc83e5f1db62dfd0b4db48af2ab3d3add5",
          "blockNumber": "0x20489ad",
          "transactionHash": "0x2af3b135eb66c3fcf71470c534d67678693f049878037b3ad0611049c4ca48cb",
          "transactionIndex": "0x9",
          "logIndex": "0x25",
          "removed": false
        },
        {
          "address": "0xceba9300f2b948710d2653dd7b07f33a8b32118c",
          "topics": [
            "0x8c5be1e5ebec7d5bd14f71427d1e84f3dd0314c0f7b2291e5b200ac8c7c3b925",
            "0x000000000000000000000000d2b508298fcc37261953684744ec4ccc734d5083",
            "0x0000000000000000000000003e59a31363e2ad014dcbc521c4a0d5757d9f3402"
          ],
          "data": "0x000000000000000000000000000000000000000000000000000000000002dc6c",
          "blockHash": "0x6f61aeb2c17041b194fd8a8590b191dc83e5f1db62dfd0b4db48af2ab3d3add5",
          "blockNumber": "0x20489ad",
          "transactionHash": "0x2af3b135eb66c3fcf71470c534d67678693f049878037b3ad0611049c4ca48cb",
          "transactionIndex": "0x9",
          "logIndex": "0x26",
          "removed": false
        },
        {
          "address": "0xdbe517c0fa6467873b684eccbed77217e471e862",
          "topics": [
            "0xddf252ad1be2c89b69c2b068fc378daa952ba7f163c4a11628f55a4df523b3ef",
            "0x000000000000000000000000d2b508298fcc37261953684744ec4ccc734d5083",
            "0x0000000000000000000000000000000000000000000000000000000000000000"
          ],
          "data": "0x000000000000000000000000000000000000000000000000000000000002dc6c",
          "blockHash": "0x6f61aeb2c17041b194fd8a8590b191dc83e5f1db62dfd0b4db48af2ab3d3add5",
          "blockNumber": "0x20489ad",
          "transactionHash": "0x2af3b135eb66c3fcf71470c534d67678693f049878037b3ad0611049c4ca48cb",
          "transactionIndex": "0x9",
          "logIndex": "0x27",
          "removed": false
        },
        {
          "address": "0xdbe517c0fa6467873b684eccbed77217e471e862",
          "topics": [
            "0x4cf25bc1d991c17529c25213d3cc0cda295eeaad5f13f361969b12ea48015f90",
            "0x000000000000000000000000d2b508298fcc37261953684744ec4ccc734d5083",
            "0x0000000000000000000000000000000000000000000000000000000000000000"
          ],
          "data": "0x000000000000000000000000000000000000000000000000000000000002dc6c00000000000000000000000000000000000000000000000000000000000000000000000000000000000000000000000000000000033c538ce526bfeaef159db0",
          "blockHash": "0x6f61aeb2c17041b194fd8a8590b191dc83e5f1db62dfd0b4db48af2ab3d3add5",
          "blockNumber": "0x20489ad",
          "transactionHash": "0x2af3b135eb66c3fcf71470c534d67678693f049878037b3ad0611049c4ca48cb",
          "transactionIndex": "0x9",
          "logIndex": "0x28",
          "removed": false
        },
        {
          "address": "0x3e59a31363e2ad014dcbc521c4a0d5757d9f3402",
          "topics": [
            "0x804c9b842b2748a22bb64b345453a3de7ca54a6ca45ce00d415894979e22897a",
            "0x000000000000000000000000ceba9300f2b948710d2653dd7b07f33a8b32118c"
          ],
          "data": "0x00000000000000000000000000000000000000000000d6149fb390286efd66f8000000000000000000000000000000000000000000000000000000000000000000000000000000000000000000000000000000000007bb5111f5cf6882bfc1080000000000000000000000000000000000000000033b6936c43c2c84010fad5e0000000000000000000000000000000000000000033c538ce526bfeaef159db0",
          "blockHash": "0x6f61aeb2c17041b194fd8a8590b191dc83e5f1db62dfd0b4db48af2ab3d3add5",
          "blockNumber": "0x20489ad",
          "transactionHash": "0x2af3b135eb66c3fcf71470c534d67678693f049878037b3ad0611049c4ca48cb",
          "transactionIndex": "0x9",
          "logIndex": "0x29",
          "removed": false
        },
        {
          "address": "0xceba9300f2b948710d2653dd7b07f33a8b32118c",
          "topics": [
            "0xddf252ad1be2c89b69c2b068fc378daa952ba7f163c4a11628f55a4df523b3ef",
            "0x000000000000000000000000d2b508298fcc37261953684744ec4ccc734d5083",
            "0x000000000000000000000000ff8309b9e99bfd2d4021bc71a362abd93dbd4785"
          ],
          "data": "0x000000000000000000000000000000000000000000000000000000000002dc6c",
          "blockHash": "0x6f61aeb2c17041b194fd8a8590b191dc83e5f1db62dfd0b4db48af2ab3d3add5",
          "blockNumber": "0x20489ad",
          "transactionHash": "0x2af3b135eb66c3fcf71470c534d67678693f049878037b3ad0611049c4ca48cb",
          "transactionIndex": "0x9",
          "logIndex": "0x2a",
          "removed": false
        },
        {
          "address": "0x3e59a31363e2ad014dcbc521c4a0d5757d9f3402",
          "topics": [
            "0xa534c8dbe71f871f9f3530e97a74601fea17b426cae02e1c5aee42c96c784051",
            "0x000000000000000000000000ceba9300f2b948710d2653dd7b07f33a8b32118c",
            "0x000000000000000000000000d2b508298fcc37261953684744ec4ccc734d5083",
            "0x000000000000000000000000d2b508298fcc37261953684744ec4ccc734d5083"
          ],
          "data": "0x000000000000000000000000000000000000000000000000000000000002dc6c0000000000000000000000000000000000000000000000000000000000000000",
          "blockHash": "0x6f61aeb2c17041b194fd8a8590b191dc83e5f1db62dfd0b4db48af2ab3d3add5",
          "blockNumber": "0x20489ad",
          "transactionHash": "0x2af3b135eb66c3fcf71470c534d67678693f049878037b3ad0611049c4ca48cb",
          "transactionIndex": "0x9",
          "logIndex": "0x2b",
          "removed": false
        },
        {
          "address": "0xd2b508298fcc37261953684744ec4ccc734d5083",
          "topics": [
            "0x0d4979b0859a1951f8ed7cbe3b1994e740552588f27ba02ca0f8f1ddcad16e0c",
            "0x0000000000000000000000000000000000000000000000000000000000000006"
          ],
          "data": "0x000000000000000000000000000000000000000000000000000000000002dc6c",
          "blockHash": "0x6f61aeb2c17041b194fd8a8590b191dc83e5f1db62dfd0b4db48af2ab3d3add5",
          "blockNumber": "0x20489ad",
          "transactionHash": "0x2af3b135eb66c3fcf71470c534d67678693f049878037b3ad0611049c4ca48cb",
          "transactionIndex": "0x9",
          "logIndex": "0x2c",
          "removed": false
        }
      ],
      "logsBloom": "0x10000000000000110000120010400000000000000000000000000000000000100000000000000000000000000000400000110000c00400000000000000200000000000008000000000000008000000000000002000000000000000000000000080000000020000000000000000000800000000000000000000000010000000000000000400000000000000000000400000000000000000002200000000000000020001100000000000000000000000000000000000000000400000080000010000000002000080200000022000000000000000000000001800000000000020040110100000004010000800000000000000000000000010000000000000040000",
      "type": "0x0",
      "transactionHash": "0x2af3b135eb66c3fcf71470c534d67678693f049878037b3ad0611049c4ca48cb",
      "transactionIndex": "0x9",
      "blockHash": "0x6f61aeb2c17041b194fd8a8590b191dc83e5f1db62dfd0b4db48af2ab3d3add5",
      "blockNumber": "0x20489ad",
      "gasUsed": "0x36df0",
      "effectiveGasPrice": "0x5d22cfc40",
      "from": "0x3a4db9e7306af09012ceb0f222d581fd1f0c6d71",
      "to": "0xd2b508298fcc37261953684744ec4ccc734d5083",
      "contractAddress": null,
      "l1BaseFeeScalar": "0x0",
      "l1BlobBaseFee": "0x601a44b2",
      "l1BlobBaseFeeScalar": "0x0",
      "l1Fee": "0x0",
      "l1GasPrice": "0x17178799",
      "l1GasUsed": "0x640"
    },
    {
      "status": "0x1",
      "cumulativeGasUsed": "0x1bd969",
      "logs": [
        {
          "address": "0x3e59a31363e2ad014dcbc521c4a0d5757d9f3402",
          "topics": [
            "0x804c9b842b2748a22bb64b345453a3de7ca54a6ca45ce00d415894979e22897a",
            "0x00000000000000000000000048065fbbe25f71c9282ddf5e1cd6d6a887483d5e"
          ],
          "data": "0x00000000000000000000000000000000000000000000000b15eb56ccb10875960000000000000000000000000000000000000000000000000000000000000000000000000000000000000000000000000000000000001c2689c0cdf1cc6a070a0000000000000000000000000000000000000000033b5f8e25f4174406ffe1cc0000000000000000000000000000000000000000033bccaf9f53ec545fdb084e",
          "blockHash": "0x6f61aeb2c17041b194fd8a8590b191dc83e5f1db62dfd0b4db48af2ab3d3add5",
          "blockNumber": "0x20489ad",
          "transactionHash": "0x681572111d170eee44c35f6fa48c65727ef2954e040da9381315b47910ebbe4c",
          "transactionIndex": "0xa",
          "logIndex": "0x2d",
          "removed": false
        },
        {
          "address": "0xdee98402a302e4d707fb9bf2bac66faeec31e8df",
          "topics": [
            "0xddf252ad1be2c89b69c2b068fc378daa952ba7f163c4a11628f55a4df523b3ef",
            "0x000000000000000000000000d2b508298fcc37261953684744ec4ccc734d5083",
            "0x0000000000000000000000000000000000000000000000000000000000000000"
          ],
          "data": "0x0000000000000000000000000000000000000000000000000000000000061a80",
          "blockHash": "0x6f61aeb2c17041b194fd8a8590b191dc83e5f1db62dfd0b4db48af2ab3d3add5",
          "blockNumber": "0x20489ad",
          "transactionHash": "0x681572111d170eee44c35f6fa48c65727ef2954e040da9381315b47910ebbe4c",
          "transactionIndex": "0xa",
          "logIndex": "0x2e",
          "removed": false
        },
        {
          "address": "0xdee98402a302e4d707fb9bf2bac66faeec31e8df",
          "topics": [
            "0x4cf25bc1d991c17529c25213d3cc0cda295eeaad5f13f361969b12ea48015f90",
            "0x000000000000000000000000d2b508298fcc37261953684744ec4ccc734d5083",
            "0x0000000000000000000000003a4db9e7306af09012ceb0f222d581fd1f0c6d71"
          ],
          "data": "0x0000000000000000000000000000000000000000000000000000000000061a8000000000000000000000000000000000000000000000000000000000000000000000000000000000000000000000000000000000033b5f8e25f4174406ffe1cc",
          "blockHash": "0x6f61aeb2c17041b194fd8a8590b191dc83e5f1db62dfd0b4db48af2ab3d3add5",
          "blockNumber": "0x20489ad",
          "transactionHash": "0x681572111d170eee44c35f6fa48c65727ef2954e040da9381315b47910ebbe4c",
          "transactionIndex": "0xa",
          "logIndex": "0x2f",
          "removed": false
        },
        {
          "address": "0x48065fbbe25f71c9282ddf5e1cd6d6a887483d5e",
          "topics": [
            "0xddf252ad1be2c89b69c2b068fc378daa952ba7f163c4a11628f55a4df523b3ef",
            "0x000000000000000000000000dee98402a302e4d707fb9bf2bac66faeec31e8df",
            "0x0000000000000000000000003a4db9e7306af09012ceb0f222d581fd1f0c6d71"
          ],
          "data": "0x0000000000000000000000000000000000000000000000000000000000061a80",
          "blockHash": "0x6f61aeb2c17041b194fd8a8590b191dc83e5f1db62dfd0b4db48af2ab3d3add5",
          "blockNumber": "0x20489ad",
          "transactionHash": "0x681572111d170eee44c35f6fa48c65727ef2954e040da9381315b47910ebbe4c",
          "transactionIndex": "0xa",
          "logIndex": "0x30",
          "removed": false
        },
        {
          "address": "0x3e59a31363e2ad014dcbc521c4a0d5757d9f3402",
          "topics": [
            "0x3115d1449a7b732c986cba18244e897a450f61e1bb8d589cd2e69e6c8924f9f7",
            "0x00000000000000000000000048065fbbe25f71c9282ddf5e1cd6d6a887483d5e",
            "0x000000000000000000000000d2b508298fcc37261953684744ec4ccc734d5083",
            "0x0000000000000000000000003a4db9e7306af09012ceb0f222d581fd1f0c6d71"
          ],
          "data": "0x0000000000000000000000000000000000000000000000000000000000061a80",
          "blockHash": "0x6f61aeb2c17041b194fd8a8590b191dc83e5f1db62dfd0b4db48af2ab3d3add5",
          "blockNumber": "0x20489ad",
          "transactionHash": "0x681572111d170eee44c35f6fa48c65727ef2954e040da9381315b47910ebbe4c",
          "transactionIndex": "0xa",
          "logIndex": "0x31",
          "removed": false
        },
        {
          "address": "0xd2b508298fcc37261953684744ec4ccc734d5083",
          "topics": [
            "0x2399e8aed1977410745a5211d8226a3a7d9278f50a8a197c5ec6e285bb437f0b",
            "0x0000000000000000000000000000000000000000000000000000000000000006"
          ],
          "data": "0x0000000000000000000000000000000000000000000000000000000000061a80",
          "blockHash": "0x6f61aeb2c17041b194fd8a8590b191dc83e5f1db62dfd0b4db48af2ab3d3add5",
          "blockNumber": "0x20489ad",
          "transactionHash": "0x681572111d170eee44c35f6fa48c65727ef2954e040da9381315b47910ebbe4c",
          "transactionIndex": "0xa",
          "logIndex": "0x32",
          "removed": false
        }
      ],
      "logsBloom": "0x1000000000000010020000000000000000900000000000000000000000000010000000080000000000000000000000000001000080040000000000000000000000000000000000080000000800000000000000000000000000000000000000000000000002000000000000000000080000000000002002004000001000000000000001040000000000000000000040000000000000006000020000000000000000000000008100000000004000000000100000000000000040000008000001000000000200008000000000a000000040000000000000001800000000000120040100100000000000000000000000000000000000000010000000000000000000",
      "type": "0x0",
      "transactionHash": "0x681572111d170eee44c35f6fa48c65727ef2954e040da9381315b47910ebbe4c",
      "transactionIndex": "0xa",
      "blockHash": "0x6f61aeb2c17041b194fd8a8590b191dc83e5f1db62dfd0b4db48af2ab3d3add5",
      "blockNumber": "0x20489ad",
      "gasUsed": "0x51125",
      "effectiveGasPrice": "0x5d22cfc40",
      "from": "0x3a4db9e7306af09012ceb0f222d581fd1f0c6d71",
      "to": "0xd2b508298fcc37261953684744ec4ccc734d5083",
      "contractAddress": null,
      "l1BaseFeeScalar": "0x0",
      "l1BlobBaseFee": "0x601a44b2",
      "l1BlobBaseFeeScalar": "0x0",
      "l1Fee": "0x0",
      "l1GasPrice": "0x17178799",
      "l1GasUsed": "0x640"
    }
  ],
  "libraries": [],
  "pending": [],
  "returns": {},
  "timestamp": 1745752580,
  "chain": 42220,
  "commit": "1cefd9d"
}