{
  "transactions": [
    {
      "hash": "0xdf6fcc972a556d78ca1d5b75924df48728d2d3004806bd436b0e4386c11f0c33",
      "transactionType": "CALL",
      "contractName": null,
      "contractAddress": "0x48065fbbe25f71c9282ddf5e1cd6d6a887483d5e",
      "function": "approve(address,uint256)",
      "arguments": [
        "0xd2B508298fCC37261953684744ec4CCc734d5083",
        "500000"
      ],
      "transaction": {
        "from": "0x3a4db9e7306af09012ceb0f222d581fd1f0c6d71",
        "to": "0x48065fbbe25f71c9282ddf5e1cd6d6a887483d5e",
        "gas": "0x1201c",
        "value": "0x0",
        "input": "0x095ea7b3000000000000000000000000d2b508298fcc37261953684744ec4ccc734d5083000000000000000000000000000000000000000000000000000000000007a120",
        "nonce": "0xfe",
        "chainId": "0xa4ec"
      },
      "additionalContracts": [],
      "isFixedGasLimit": false
    },
    {
      "hash": "0xcf2d987c94a8374e2cb022ff6f60e29c7b8bcd36137fcb60dfd92749726f8324",
      "transactionType": "CALL",
      "contractName": null,
      "contractAddress": "0xd2b508298fcc37261953684744ec4ccc734d5083",
      "function": "createPosition(address,uint256,address,uint256,uint256)",
      "arguments": [
        "0x48065fbBE25f71C9282ddf5e1cD6D6A887483D5e",
        "500000",
        "0xcebA9300f2b948710d2653dD7B07f33A8B32118C",
        "250000",
        "2"
      ],
      "transaction": {
        "from": "0x3a4db9e7306af09012ceb0f222d581fd1f0c6d71",
        "to": "0xd2b508298fcc37261953684744ec4ccc734d5083",
        "gas": "0xe8a41",
        "value": "0x0",
        "input": "0xb0c3d5df00000000000000000000000048065fbbe25f71c9282ddf5e1cd6d6a887483d5e000000000000000000000000000000000000000000000000000000000007a120000000000000000000000000ceba9300f2b948710d2653dd7b07f33a8b32118c000000000000000000000000000000000000000000000000000000000003d0900000000000000000000000000000000000000000000000000000000000000002",
        "nonce": "0xff",
        "chainId": "0xa4ec"
      },
      "additionalContracts": [],
      "isFixedGasLimit": false
    },
    {
      "hash": "0x828e45f3cf7eac10ebbfe4cab9054ea7bbdf713b4e3fc1a8709582d8f10728d0",
      "transactionType": "CALL",
      "contractName": null,
      "contractAddress": "0xd2b508298fcc37261953684744ec4ccc734d5083",
      "function": "addCollateralWithPermit(uint256,uint256,uint256,uint8,bytes32,bytes32)",
      "arguments": [
        "11",
        "250000",
        "1745970435",
        "28",
        "0xd6f27d5a944f7359129e36ed143ef32156b450b1e5a40a998a82910ddb7f13a7",
        "0x6af2851e663ee0acc2779211f73da9aa99a1998d0a8998bb3b2578d4e87eb91d"
      ],
      "transaction": {
        "from": "0x3a4db9e7306af09012ceb0f222d581fd1f0c6d71",
        "to": "0xd2b508298fcc37261953684744ec4ccc734d5083",
        "gas": "0x53652",
        "value": "0x0",
        "input": "0x558e45ba000000000000000000000000000000000000000000000000000000000000000b000000000000000000000000000000000000000000000000000000000003d0900000000000000000000000000000000000000000000000000000000068116503000000000000000000000000000000000000000000000000000000000000001cd6f27d5a944f7359129e36ed143ef32156b450b1e5a40a998a82910ddb7f13a76af2851e663ee0acc2779211f73da9aa99a1998d0a8998bb3b2578d4e87eb91d",
        "nonce": "0x100",
        "chainId": "0xa4ec"
      },
      "additionalContracts": [],
      "isFixedGasLimit": false
    },
    {
      "hash": "0x86dccf8fe6f2cb74ce8939582221fe0e51f5d92050396b150a5514ef4def70b5",
      "transactionType": "CALL",
      "contractName": null,
      "contractAddress": "0xd2b508298fcc37261953684744ec4ccc734d5083",
      "function": "increaseBorrow(uint256,uint256)",
      "arguments": [
        "11",
        "125000"
      ],
      "transaction": {
        "from": "0x3a4db9e7306af09012ceb0f222d581fd1f0c6d71",
        "to": "0xd2b508298fcc37261953684744ec4ccc734d5083",
        "gas": "0x815b7",
        "value": "0x0",
        "input": "0x9e6824d9000000000000000000000000000000000000000000000000000000000000000b000000000000000000000000000000000000000000000000000000000001e848",
        "nonce": "0x101",
        "chainId": "0xa4ec"
      },
      "additionalContracts": [],
      "isFixedGasLimit": false
    },
    {
      "hash": "0x6c894b1f91b311ac81bf80a343bc322b8603819cd834ba0c13f522a6ed926e16",
      "transactionType": "CALL",
      "contractName": null,
      "contractAddress": "0xd2b508298fcc37261953684744ec4ccc734d5083",
      "function": "repayDebtWithPermit(uint256,uint256,uint256,uint8,bytes32,bytes32)",
      "arguments": [
        "11",
        "187500",
        "1745970435",
        "27",
        "0x3d8d6c67ac4b154877ab16641ce1eec1d2a05b915fdadc87470e081cb11ddd33",
        "0x3a4fe063f338481ea2ca86ad9c7add3231028980b58e8b7cd2605b6995006cb5"
      ],
      "transaction": {
        "from": "0x3a4db9e7306af09012ceb0f222d581fd1f0c6d71",
        "to": "0xd2b508298fcc37261953684744ec4ccc734d5083",
        "gas": "0x5592d",
        "value": "0x0",
        "input": "0xc9a7906a000000000000000000000000000000000000000000000000000000000000000b000000000000000000000000000000000000000000000000000000000002dc6c0000000000000000000000000000000000000000000000000000000068116503000000000000000000000000000000000000000000000000000000000000001b3d8d6c67ac4b154877ab16641ce1eec1d2a05b915fdadc87470e081cb11ddd333a4fe063f338481ea2ca86ad9c7add3231028980b58e8b7cd2605b6995006cb5",
        "nonce": "0x102",
        "chainId": "0xa4ec"
      },
      "additionalContracts": [],
      "isFixedGasLimit": false
    },
    {
      "hash": "0x44688ea90bdd79e6e0dcd4ad8af2cbf1736a3d06df269322de3bf90432c635d2",
      "transactionType": "CALL",
      "contractName": null,
      "contractAddress": "0xd2b508298fcc37261953684744ec4ccc734d5083",
      "function": "withdrawCollateral(uint256,uint256)",
      "arguments": [
        "11",
        "150000"
      ],
      "transaction": {
        "from": "0x3a4db9e7306af09012ceb0f222d581fd1f0c6d71",
        "to": "0xd2b508298fcc37261953684744ec4ccc734d5083",
        "gas": "0x75c35",
        "value": "0x0",
        "input": "0x767a7b05000000000000000000000000000000000000000000000000000000000000000b00000000000000000000000000000000000000000000000000000000000249f0",
        "nonce": "0x103",
        "chainId": "0xa4ec"
      },
      "additionalContracts": [],
      "isFixedGasLimit": false
    },
    {
      "hash": "0x0d6f707a7753c80f71dbee8ce06cf7fff34d94f7e8a635ce7a8954c1ca955b2c",
      "transactionType": "CALL",
      "contractName": null,
      "contractAddress": "0xceba9300f2b948710d2653dd7b07f33a8b32118c",
      "function": "approve(address,uint256)",
      "arguments": [
        "0xd2B508298fCC37261953684744ec4CCc734d5083",
        "375000"
      ],
      "transaction": {
        "from": "0x3a4db9e7306af09012ceb0f222d581fd1f0c6d71",
        "to": "0xceba9300f2b948710d2653dd7b07f33a8b32118c",
        "gas": "0x12b1b",
        "value": "0x0",
        "input": "0x095ea7b3000000000000000000000000d2b508298fcc37261953684744ec4ccc734d5083000000000000000000000000000000000000000000000000000000000005b8d8",
        "nonce": "0x104",
        "chainId": "0xa4ec"
      },
      "additionalContracts": [],
      "isFixedGasLimit": false
    },
    {
      "hash": "0x69a7ca9028672bd2b44eca94d3c4a34855a454ec5e2a0bf32d10a733d88b8ae3",
      "transactionType": "CALL",
      "contractName": null,
      "contractAddress": "0xd2b508298fcc37261953684744ec4ccc734d5083",
      "function": "repayDebt(uint256,uint256)",
      "arguments": [
        "11",
        "187500"
      ],
      "transaction": {
        "from": "0x3a4db9e7306af09012ceb0f222d581fd1f0c6d71",
        "to": "0xd2b508298fcc37261953684744ec4ccc734d5083",
        "gas": "0x485f1",
        "value": "0x0",
        "input": "0x015cb0a5000000000000000000000000000000000000000000000000000000000000000b000000000000000000000000000000000000000000000000000000000002dc6c",
        "nonce": "0x105",
        "chainId": "0xa4ec"
      },
      "additionalContracts": [],
      "isFixedGasLimit": false
    },
    {
      "hash": "0xcf7c3821ed9347b4742526b7a2f5b83e3a90b78ea8701255aceb23e3a41fd42d",
      "transactionType": "CALL",
      "contractName": null,
      "contractAddress": "0xd2b508298fcc37261953684744ec4ccc734d5083",
      "function": "withdrawCollateral(uint256,uint256)",
      "arguments": [
        "11",
        "600000"
      ],
      "transaction": {
        "from": "0x3a4db9e7306af09012ceb0f222d581fd1f0c6d71",
        "to": "0xd2b508298fcc37261953684744ec4ccc734d5083",
        "gas": "0x740c9",
        "value": "0x0",
        "input": "0x767a7b05000000000000000000000000000000000000000000000000000000000000000b00000000000000000000000000000000000000000000000000000000000927c0",
        "nonce": "0x106",
        "chainId": "0xa4ec"
      },
      "additionalContracts": [],
      "isFixedGasLimit": false
    }
  ],
  "receipts": [
    {
      "status": "0x1",
      "cumulativeGasUsed": "0x10ecfd",
      "logs": [
        {
          "address": "0x48065fbbe25f71c9282ddf5e1cd6d6a887483d5e",
          "topics": [
            "0x8c5be1e5ebec7d5bd14f71427d1e84f3dd0314c0f7b2291e5b200ac8c7c3b925",
            "0x0000000000000000000000003a4db9e7306af09012ceb0f222d581fd1f0c6d71",
            "0x000000000000000000000000d2b508298fcc37261953684744ec4ccc734d5083"
          ],
          "data": "0x000000000000000000000000000000000000000000000000000000000007a120",
          "blockHash": "0x8ad33a8dfa0837443b302e0d6f8d814f48c0668d768138ea0381eed31878bf99",
          "blockNumber": "0x207cebc",
          "transactionHash": "0xdf6fcc972a556d78ca1d5b75924df48728d2d3004806bd436b0e4386c11f0c33",
          "transactionIndex": "0x9",
          "logIndex": "0x11",
          "removed": false
        }
      ],
      "logsBloom": "0x00000000000000000000000000000000000000000000000000000000000000000000000000000000000000000000000000000000000000000000000000200000000000000000000000000000000000000000000000000000000000000000000000000000000000000000000000000000000000000000000040000000000000000000010000000000000000000000400000000000000000000000000000000000020000000000000000000000000000000000000000000000000000000000000000000000000080000000008000000000000000000000001000000000000000000110100000000000000000000000000000000000000010000000000000000000",
      "type": "0x0",
      "transactionHash": "0xdf6fcc972a556d78ca1d5b75924df48728d2d3004806bd436b0e4386c11f0c33",
      "transactionIndex": "0x9",
      "blockHash": "0x8ad33a8dfa0837443b302e0d6f8d814f48c0668d768138ea0381eed31878bf99",
      "blockNumber": "0x207cebc",
      "gasUsed": "0xd097",
      "effectiveGasPrice": "0x5d22cfc40",
      "from": "0x3a4db9e7306af09012ceb0f222d581fd1f0c6d71",
      "to": "0x48065fbbe25f71c9282ddf5e1cd6d6a887483d5e",
      "contractAddress": null,
      "l1BaseFeeScalar": "0x0",
      "l1BlobBaseFee": "0x2d94577a",
      "l1BlobBaseFeeScalar": "0x0",
      "l1Fee": "0x0",
      "l1GasPrice": "0x164ef822",
      "l1GasUsed": "0x640"
    },
    {
      "status": "0x1",
      "cumulativeGasUsed": "0x10a8ed",
      "logs": [
        {
          "address": "0x48065fbbe25f71c9282ddf5e1cd6d6a887483d5e",
          "topics": [
            "0xddf252ad1be2c89b69c2b068fc378daa952ba7f163c4a11628f55a4df523b3ef",
            "0x0000000000000000000000003a4db9e7306af09012ceb0f222d581fd1f0c6d71",
            "0x000000000000000000000000d2b508298fcc37261953684744ec4ccc734d5083"
          ],
          "data": "0x000000000000000000000000000000000000000000000000000000000007a120",
          "blockHash": "0xf7281ed88d8cb67113853e752a886280972e02acbd02fb5871042fd9a501fe20",
          "blockNumber": "0x207cebd",
          "transactionHash": "0xcf2d987c94a8374e2cb022ff6f60e29c7b8bcd36137fcb60dfd92749726f8324",
          "transactionIndex": "0x3",
          "logIndex": "0x7",
          "removed": false
        },
        {
          "address": "0x48065fbbe25f71c9282ddf5e1cd6d6a887483d5e",
          "topics": [
            "0x8c5be1e5ebec7d5bd14f71427d1e84f3dd0314c0f7b2291e5b200ac8c7c3b925",
            "0x0000000000000000000000003a4db9e7306af09012ceb0f222d581fd1f0c6d71",
            "0x000000000000000000000000d2b508298fcc37261953684744ec4ccc734d5083"
          ],
          "data": "0x0000000000000000000000000000000000000000000000000000000000000000",
          "blockHash": "0xf7281ed88d8cb67113853e752a886280972e02acbd02fb5871042fd9a501fe20",
          "blockNumber": "0x207cebd",
          "transactionHash": "0xcf2d987c94a8374e2cb022ff6f60e29c7b8bcd36137fcb60dfd92749726f8324",
          "transactionIndex": "0x3",
          "logIndex": "0x8",
          "removed": false
        },
        {
          "address": "0x48065fbbe25f71c9282ddf5e1cd6d6a887483d5e",
          "topics": [
            "0x8c5be1e5ebec7d5bd14f71427d1e84f3dd0314c0f7b2291e5b200ac8c7c3b925",
            "0x000000000000000000000000d2b508298fcc37261953684744ec4ccc734d5083",
            "0x0000000000000000000000003e59a31363e2ad014dcbc521c4a0d5757d9f3402"
          ],
          "data": "0x000000000000000000000000000000000000000000000000000000000007a120",
          "blockHash": "0xf7281ed88d8cb67113853e752a886280972e02acbd02fb5871042fd9a501fe20",
          "blockNumber": "0x207cebd",
          "transactionHash": "0xcf2d987c94a8374e2cb022ff6f60e29c7b8bcd36137fcb60dfd92749726f8324",
          "transactionIndex": "0x3",
          "logIndex": "0x9",
          "removed": false
        },
        {
          "address": "0x3e59a31363e2ad014dcbc521c4a0d5757d9f3402",
          "topics": [
            "0x804c9b842b2748a22bb64b345453a3de7ca54a6ca45ce00d415894979e22897a",
            "0x00000000000000000000000048065fbbe25f71c9282ddf5e1cd6d6a887483d5e"
          ],
          "data": "0x00000000000000000000000000000000000000000000000cd2053059adb668960000000000000000000000000000000000000000000000000000000000000000000000000000000000000000000000000000000000001e45ebdebe988fa45bbc0000000000000000000000000000000000000000033b5f8e3b82155dee34e30f0000000000000000000000000000000000000000033bcce36a7c946ba7e6fb39",
          "blockHash": "0xf7281ed88d8cb67113853e752a886280972e02acbd02fb5871042fd9a501fe20",
          "blockNumber": "0x207cebd",
          "transactionHash": "0xcf2d987c94a8374e2cb022ff6f60e29c7b8bcd36137fcb60dfd92749726f8324",
          "transactionIndex": "0x3",
          "logIndex": "0xa",
          "removed": false
        },
        {
          "address": "0x48065fbbe25f71c9282ddf5e1cd6d6a887483d5e",
          "topics": [
            "0xddf252ad1be2c89b69c2b068fc378daa952ba7f163c4a11628f55a4df523b3ef",
            "0x000000000000000000000000d2b508298fcc37261953684744ec4ccc734d5083",
            "0x000000000000000000000000dee98402a302e4d707fb9bf2bac66faeec31e8df"
          ],
          "data": "0x000000000000000000000000000000000000000000000000000000000007a120",
          "blockHash": "0xf7281ed88d8cb67113853e752a886280972e02acbd02fb5871042fd9a501fe20",
          "blockNumber": "0x207cebd",
          "transactionHash": "0xcf2d987c94a8374e2cb022ff6f60e29c7b8bcd36137fcb60dfd92749726f8324",
          "transactionIndex": "0x3",
          "logIndex": "0xb",
          "removed": false
        },
        {
          "address": "0x48065fbbe25f71c9282ddf5e1cd6d6a887483d5e",
          "topics": [
            "0x8c5be1e5ebec7d5bd14f71427d1e84f3dd0314c0f7b2291e5b200ac8c7c3b925",
            "0x000000000000000000000000d2b508298fcc37261953684744ec4ccc734d5083",
            "0x0000000000000000000000003e59a31363e2ad014dcbc521c4a0d5757d9f3402"
          ],
          "data": "0x0000000000000000000000000000000000000000000000000000000000000000",
          "blockHash": "0xf7281ed88d8cb67113853e752a886280972e02acbd02fb5871042fd9a501fe20",
          "blockNumber": "0x207cebd",
          "transactionHash": "0xcf2d987c94a8374e2cb022ff6f60e29c7b8bcd36137fcb60dfd92749726f8324",
          "transactionIndex": "0x3",
          "logIndex": "0xc",
          "removed": false
        },
        {
          "address": "0xdee98402a302e4d707fb9bf2bac66faeec31e8df",
          "topics": [
            "0xddf252ad1be2c89b69c2b068fc378daa952ba7f163c4a11628f55a4df523b3ef",
            "0x0000000000000000000000000000000000000000000000000000000000000000",
            "0x000000000000000000000000d2b508298fcc37261953684744ec4ccc734d5083"
          ],
          "data": "0x000000000000000000000000000000000000000000000000000000000007a120",
          "blockHash": "0xf7281ed88d8cb67113853e752a886280972e02acbd02fb5871042fd9a501fe20",
          "blockNumber": "0x207cebd",
          "transactionHash": "0xcf2d987c94a8374e2cb022ff6f60e29c7b8bcd36137fcb60dfd92749726f8324",
          "transactionIndex": "0x3",
          "logIndex": "0xd",
          "removed": false
        },
        {
          "address": "0xdee98402a302e4d707fb9bf2bac66faeec31e8df",
          "topics": [
            "0x458f5fa412d0f69b08dd84872b0215675cc67bc1d5b6fd93300a1c3878b86196",
            "0x000000000000000000000000d2b508298fcc37261953684744ec4ccc734d5083",
            "0x000000000000000000000000d2b508298fcc37261953684744ec4ccc734d5083"
          ],
          "data": "0x000000000000000000000000000000000000000000000000000000000007a12000000000000000000000000000000000000000000000000000000000000000000000000000000000000000000000000000000000033b5f8e3b82155dee34e30f",
          "blockHash": "0xf7281ed88d8cb67113853e752a886280972e02acbd02fb5871042fd9a501fe20",
          "blockNumber": "0x207cebd",
          "transactionHash": "0xcf2d987c94a8374e2cb022ff6f60e29c7b8bcd36137fcb60dfd92749726f8324",
          "transactionIndex": "0x3",
          "logIndex": "0xe",
          "removed": false
        },
        {
          "address": "0x3e59a31363e2ad014dcbc521c4a0d5757d9f3402",
          "topics": [
            "0x2b627736bca15cd5381dcf80b0bf11fd197d01a037c52b927a881a10fb73ba61",
            "0x00000000000000000000000048065fbbe25f71c9282ddf5e1cd6d6a887483d5e",
            "0x000000000000000000000000d2b508298fcc37261953684744ec4ccc734d5083",
            "0x0000000000000000000000000000000000000000000000000000000000000000"
          ],
          "data": "0x000000000000000000000000d2b508298fcc37261953684744ec4ccc734d5083000000000000000000000000000000000000000000000000000000000007a120",
          "blockHash": "0xf7281ed88d8cb67113853e752a886280972e02acbd02fb5871042fd9a501fe20",
          "blockNumber": "0x207cebd",
          "transactionHash": "0xcf2d987c94a8374e2cb022ff6f60e29c7b8bcd36137fcb60dfd92749726f8324",
          "transactionIndex": "0x3",
          "logIndex": "0xf",
          "removed": false
        },
        {
          "address": "0xdbe517c0fa6467873b684eccbed77217e471e862",
          "topics": [
            "0xddf252ad1be2c89b69c2b068fc378daa952ba7f163c4a11628f55a4df523b3ef",
            "0x0000000000000000000000000000000000000000000000000000000000000000",
            "0x000000000000000000000000d2b508298fcc37261953684744ec4ccc734d5083"
          ],
          "data": "0x000000000000000000000000000000000000000000000000000000000003d090",
          "blockHash": "0xf7281ed88d8cb67113853e752a886280972e02acbd02fb5871042fd9a501fe20",
          "blockNumber": "0x207cebd",
          "transactionHash": "0xcf2d987c94a8374e2cb022ff6f60e29c7b8bcd36137fcb60dfd92749726f8324",
          "transactionIndex": "0x3",
          "logIndex": "0x10",
          "removed": false
        },
        {
          "address": "0xdbe517c0fa6467873b684eccbed77217e471e862",
          "topics": [
            "0x458f5fa412d0f69b08dd84872b0215675cc67bc1d5b6fd93300a1c3878b86196",
            "0x000000000000000000000000d2b508298fcc37261953684744ec4ccc734d5083",
            "0x000000000000000000000000d2b508298fcc37261953684744ec4ccc734d5083"
          ],
          "data": "0x000000000000000000000000000000000000000000000000000000000003d09000000000000000000000000000000000000000000000000000000000000000000000000000000000000000000000000000000000033c6101d92ff2c6a8e012c8",
          "blockHash": "0xf7281ed88d8cb67113853e752a886280972e02acbd02fb5871042fd9a501fe20",
          "blockNumber": "0x207cebd",
          "transactionHash": "0xcf2d987c94a8374e2cb022ff6f60e29c7b8bcd36137fcb60dfd92749726f8324",
          "transactionIndex": "0x3",
          "logIndex": "0x11",
          "removed": false
        },
        {
          "address": "0x3e59a31363e2ad014dcbc521c4a0d5757d9f3402",
          "topics": [
            "0x804c9b842b2748a22bb64b345453a3de7ca54a6ca45ce00d415894979e22897a",
            "0x000000000000000000000000ceba9300f2b948710d2653dd7b07f33a8b32118c"
          ],
          "data": "0x00000000000000000000000000000000000000000000d633506dc64d63a8bc31000000000000000000000000000000000000000000000000000000000000000000000000000000000000000000000000000000000007bbdeed33e88d832558cb0000000000000000000000000000000000000000033b6aaaa075610c353467980000000000000000000000000000000000000000033c6101d92ff2c6a8e012c8",
          "blockHash": "0xf7281ed88d8cb67113853e752a886280972e02acbd02fb5871042fd9a501fe20",
          "blockNumber": "0x207cebd",
          "transactionHash": "0xcf2d987c94a8374e2cb022ff6f60e29c7b8bcd36137fcb60dfd92749726f8324",
          "transactionIndex": "0x3",
          "logIndex": "0x12",
          "removed": false
        },
        {
          "address": "0xceba9300f2b948710d2653dd7b07f33a8b32118c",
          "topics": [
            "0xddf252ad1be2c89b69c2b068fc378daa952ba7f163c4a11628f55a4df523b3ef",
            "0x000000000000000000000000ff8309b9e99bfd2d4021bc71a362abd93dbd4785",
            "0x000000000000000000000000d2b508298fcc37261953684744ec4ccc734d5083"
          ],
          "data": "0x000000000000000000000000000000000000000000000000000000000003d090",
          "blockHash": "0xf7281ed88d8cb67113853e752a886280972e02acbd02fb5871042fd9a501fe20",
          "blockNumber": "0x207cebd",
          "transactionHash": "0xcf2d987c94a8374e2cb022ff6f60e29c7b8bcd36137fcb60dfd92749726f8324",
          "transactionIndex": "0x3",
          "logIndex": "0x13",
          "removed": false
        },
        {
          "address": "0x3e59a31363e2ad014dcbc521c4a0d5757d9f3402",
          "topics": [
            "0xb3d084820fb1a9decffb176436bd02558d15fac9b0ddfed8c465bc7359d7dce0",
            "0x000000000000000000000000ceba9300f2b948710d2653dd7b07f33a8b32118c",
            "0x000000000000000000000000d2b508298fcc37261953684744ec4ccc734d5083",
            "0x0000000000000000000000000000000000000000000000000000000000000000"
          ],
          "data": "0x000000000000000000000000d2b508298fcc37261953684744ec4ccc734d5083000000000000000000000000000000000000000000000000000000000003d090000000000000000000000000000000000000000000000000000000000000000200000000000000000000000000000000000000000007bbdeed33e88d832558cb",
          "blockHash": "0xf7281ed88d8cb67113853e752a886280972e02acbd02fb5871042fd9a501fe20",
          "blockNumber": "0x207cebd",
          "transactionHash": "0xcf2d987c94a8374e2cb022ff6f60e29c7b8bcd36137fcb60dfd92749726f8324",
          "transactionIndex": "0x3",
          "logIndex": "0x14",
          "removed": false
        },
        {
          "address": "0xceba9300f2b948710d2653dd7b07f33a8b32118c",
          "topics": [
            "0xddf252ad1be2c89b69c2b068fc378daa952ba7f163c4a11628f55a4df523b3ef",
            "0x000000000000000000000000d2b508298fcc37261953684744ec4ccc734d5083",
            "0x0000000000000000000000003a4db9e7306af09012ceb0f222d581fd1f0c6d71"
          ],
          "data": "0x000000000000000000000000000000000000000000000000000000000003d090",
          "blockHash": "0xf7281ed88d8cb67113853e752a886280972e02acbd02fb5871042fd9a501fe20",
          "blockNumber": "0x207cebd",
          "transactionHash": "0xcf2d987c94a8374e2cb022ff6f60e29c7b8bcd36137fcb60dfd92749726f8324",
          "transactionIndex": "0x3",
          "logIndex": "0x15",
          "removed": false
        },
        {
          "address": "0xd2b508298fcc37261953684744ec4ccc734d5083",
          "topics": [
            "0x9f9b498443531d2db9df8a00ec466efc74ba50ec1d82f7badd3424b87930e19a",
            "0x000000000000000000000000000000000000000000000000000000000000000b",
            "0x0000000000000000000000003a4db9e7306af09012ceb0f222d581fd1f0c6d71"
          ],
          "data": "0x00000000000000000000000048065fbbe25f71c9282ddf5e1cd6d6a887483d5e000000000000000000000000000000000000000000000000000000000007a120000000000000000000000000ceba9300f2b948710d2653dd7b07f33a8b32118c000000000000000000000000000000000000000000000000000000000003d0900000000000000000000000000000000000000000000000000000000000000002",
          "blockHash": "0xf7281ed88d8cb67113853e752a886280972e02acbd02fb5871042fd9a501fe20",
          "blockNumber": "0x207cebd",
          "transactionHash": "0xcf2d987c94a8374e2cb022ff6f60e29c7b8bcd36137fcb60dfd92749726f8324",
          "transactionIndex": "0x3",
          "logIndex": "0x16",
          "removed": false
        }
      ],
      "logsBloom": "0x0000000000000011020012400040000000100000000000000000000000000010000000080000000000002000000440000010000080000000000000000020000000000000800000080000000800000000000000000000000000000004000000000000000002000000000000000000080000000002000000004000001000000000000001000000000000000000000040000000000000000000220000000000000002000110000100000000004000000000100000000000000040000000000001000200000200008120000002a040000040002000000000041800020000000120000110100000004010000800000001000040000000000010040000400000000000",
      "type": "0x0",
      "transactionHash": "0xcf2d987c94a8374e2cb022ff6f60e29c7b8bcd36137fcb60dfd92749726f8324",
      "transactionIndex": "0x3",
      "blockHash": "0xf7281ed88d8cb67113853e752a886280972e02acbd02fb5871042fd9a501fe20",
      "blockNumber": "0x207cebd",
      "gasUsed": "0x9f122",
      "effectiveGasPrice": "0x5d22cfc40",
      "from": "0x3a4db9e7306af09012ceb0f222d581fd1f0c6d71",
      "to": "0xd2b508298fcc37261953684744ec4ccc734d5083",
      "contractAddress": null,
      "l1BaseFeeScalar": "0x0",
      "l1BlobBaseFee": "0x2d94577a",
      "l1BlobBaseFeeScalar": "0x0",
      "l1Fee": "0x0",
      "l1GasPrice": "0x164ef822",
      "l1GasUsed": "0x77b"
    },
    {
      "status": "0x1",
      "cumulativeGasUsed": "0x146ef4",
      "logs": [
        {
          "address": "0x48065fbbe25f71c9282ddf5e1cd6d6a887483d5e",
          "topics": [
            "0x8c5be1e5ebec7d5bd14f71427d1e84f3dd0314c0f7b2291e5b200ac8c7c3b925",
            "0x0000000000000000000000003a4db9e7306af09012ceb0f222d581fd1f0c6d71",
            "0x000000000000000000000000d2b508298fcc37261953684744ec4ccc734d5083"
          ],
          "data": "0x000000000000000000000000000000000000000000000000000000000003d090",
          "blockHash": "0xf7281ed88d8cb67113853e752a886280972e02acbd02fb5871042fd9a501fe20",
          "blockNumber": "0x207cebd",
          "transactionHash": "0x828e45f3cf7eac10ebbfe4cab9054ea7bbdf713b4e3fc1a8709582d8f10728d0",
          "transactionIndex": "0x4",
          "logIndex": "0x17",
          "removed": false
        },
        {
          "address": "0x48065fbbe25f71c9282ddf5e1cd6d6a887483d5e",
          "topics": [
            "0xddf252ad1be2c89b69c2b068fc378daa952ba7f163c4a11628f55a4df523b3ef",
            "0x0000000000000000000000003a4db9e7306af09012ceb0f222d581fd1f0c6d71",
            "0x000000000000000000000000d2b508298fcc37261953684744ec4ccc734d5083"
          ],
          "data": "0x000000000000000000000000000000000000000000000000000000000003d090",
          "blockHash": "0xf7281ed88d8cb67113853e752a886280972e02acbd02fb5871042fd9a501fe20",
          "blockNumber": "0x207cebd",
          "transactionHash": "0x828e45f3cf7eac10ebbfe4cab9054ea7bbdf713b4e3fc1a8709582d8f10728d0",
          "transactionIndex": "0x4",
          "logIndex": "0x18",
          "removed": false
        },
        {
          "address": "0x48065fbbe25f71c9282ddf5e1cd6d6a887483d5e",
          "topics": [
            "0x8c5be1e5ebec7d5bd14f71427d1e84f3dd0314c0f7b2291e5b200ac8c7c3b925",
            "0x0000000000000000000000003a4db9e7306af09012ceb0f222d581fd1f0c6d71",
            "0x000000000000000000000000d2b508298fcc37261953684744ec4ccc734d5083"
          ],
          "data": "0x0000000000000000000000000000000000000000000000000000000000000000",
          "blockHash": "0xf7281ed88d8cb67113853e752a886280972e02acbd02fb5871042fd9a501fe20",
          "blockNumber": "0x207cebd",
          "transactionHash": "0x828e45f3cf7eac10ebbfe4cab9054ea7bbdf713b4e3fc1a8709582d8f10728d0",
          "transactionIndex": "0x4",
          "logIndex": "0x19",
          "removed": false
        },
        {
          "address": "0x48065fbbe25f71c9282ddf5e1cd6d6a887483d5e",
          "topics": [
            "0x8c5be1e5ebec7d5bd14f71427d1e84f3dd0314c0f7b2291e5b200ac8c7c3b925",
            "0x000000000000000000000000d2b508298fcc37261953684744ec4ccc734d5083",
            "0x0000000000000000000000003e59a31363e2ad014dcbc521c4a0d5757d9f3402"
          ],
          "data": "0x000000000000000000000000000000000000000000000000000000000003d090",
          "blockHash": "0xf7281ed88d8cb67113853e752a886280972e02acbd02fb5871042fd9a501fe20",
          "blockNumber": "0x207cebd",
          "transactionHash": "0x828e45f3cf7eac10ebbfe4cab9054ea7bbdf713b4e3fc1a8709582d8f10728d0",
          "transactionIndex": "0x4",
          "logIndex": "0x1a",
          "removed": false
        },
        {
          "address": "0x3e59a31363e2ad014dcbc521c4a0d5757d9f3402",
          "topics": [
            "0x804c9b842b2748a22bb64b345453a3de7ca54a6ca45ce00d415894979e22897a",
            "0x00000000000000000000000048065fbbe25f71c9282ddf5e1cd6d6a887483d5e"
          ],
          "data": "0x00000000000000000000000000000000000000000000000cd2050bd5e70cff220000000000000000000000000000000000000000000000000000000000000000000000000000000000000000000000000000000000001e45ebb3a2051b72dd4a0000000000000000000000000000000000000000033b5f8e3b82155dee34e30f0000000000000000000000000000000000000000033bcce36a7c946ba7e6fb39",
          "blockHash": "0xf7281ed88d8cb67113853e752a886280972e02acbd02fb5871042fd9a501fe20",
          "blockNumber": "0x207cebd",
          "transactionHash": "0x828e45f3cf7eac10ebbfe4cab9054ea7bbdf713b4e3fc1a8709582d8f10728d0",
          "transactionIndex": "0x4",
          "logIndex": "0x1b",
          "removed": false
        },
        {
          "address": "0x48065fbbe25f71c9282ddf5e1cd6d6a887483d5e",
          "topics": [
            "0xddf252ad1be2c89b69c2b068fc378daa952ba7f163c4a11628f55a4df523b3ef",
            "0x000000000000000000000000d2b508298fcc37261953684744ec4ccc734d5083",
            "0x000000000000000000000000dee98402a302e4d707fb9bf2bac66faeec31e8df"
          ],
          "data": "0x000000000000000000000000000000000000000000000000000000000003d090",
          "blockHash": "0xf7281ed88d8cb67113853e752a886280972e02acbd02fb5871042fd9a501fe20",
          "blockNumber": "0x207cebd",
          "transactionHash": "0x828e45f3cf7eac10ebbfe4cab9054ea7bbdf713b4e3fc1a8709582d8f10728d0",
          "transactionIndex": "0x4",
          "logIndex": "0x1c",
          "removed": false
        },
        {
          "address": "0x48065fbbe25f71c9282ddf5e1cd6d6a887483d5e",
          "topics": [
            "0x8c5be1e5ebec7d5bd14f71427d1e84f3dd0314c0f7b2291e5b200ac8c7c3b925",
            "0x000000000000000000000000d2b508298fcc37261953684744ec4ccc734d5083",
            "0x0000000000000000000000003e59a31363e2ad014dcbc521c4a0d5757d9f3402"
          ],
          "data": "0x0000000000000000000000000000000000000000000000000000000000000000",
          "blockHash": "0xf7281ed88d8cb67113853e752a886280972e02acbd02fb5871042fd9a501fe20",
          "blockNumber": "0x207cebd",
          "transactionHash": "0x828e45f3cf7eac10ebbfe4cab9054ea7bbdf713b4e3fc1a8709582d8f10728d0",
          "transactionIndex": "0x4",
          "logIndex": "0x1d",
          "removed": false
        },
        {
          "address": "0xdee98402a302e4d707fb9bf2bac66faeec31e8df",
          "topics": [
            "0xddf252ad1be2c89b69c2b068fc378daa952ba7f163c4a11628f55a4df523b3ef",
            "0x0000000000000000000000000000000000000000000000000000000000000000",
            "0x000000000000000000000000d2b508298fcc37261953684744ec4ccc734d5083"
          ],
          "data": "0x000000000000000000000000000000000000000000000000000000000003d090",
          "blockHash": "0xf7281ed88d8cb67113853e752a886280972e02acbd02fb5871042fd9a501fe20",
          "blockNumber": "0x207cebd",
          "transactionHash": "0x828e45f3cf7eac10ebbfe4cab9054ea7bbdf713b4e3fc1a8709582d8f10728d0",
          "transactionIndex": "0x4",
          "logIndex": "0x1e",
          "removed": false
        },
        {
          "address": "0xdee98402a302e4d707fb9bf2bac66faeec31e8df",
          "topics": [
            "0x458f5fa412d0f69b08dd84872b0215675cc67bc1d5b6fd93300a1c3878b86196",
            "0x000000000000000000000000d2b508298fcc37261953684744ec4ccc734d5083",
            "0x000000000000000000000000d2b508298fcc37261953684744ec4ccc734d5083"
          ],
          "data": "0x000000000000000000000000000000000000000000000000000000000003d09000000000000000000000000000000000000000000000000000000000000000000000000000000000000000000000000000000000033b5f8e3b82155dee34e30f",
          "blockHash": "0xf7281ed88d8cb67113853e752a886280972e02acbd02fb5871042fd9a501fe20",
          "blockNumber": "0x207cebd",
          "transactionHash": "0x828e45f3cf7eac10ebbfe4cab9054ea7bbdf713b4e3fc1a8709582d8f10728d0",
          "transactionIndex": "0x4",
          "logIndex": "0x1f",
          "removed": false
        },
        {
          "address": "0x3e59a31363e2ad014dcbc521c4a0d5757d9f3402",
          "topics": [
            "0x2b627736bca15cd5381dcf80b0bf11fd197d01a037c52b927a881a10fb73ba61",
            "0x00000000000000000000000048065fbbe25f71c9282ddf5e1cd6d6a887483d5e",
            "0x000000000000000000000000d2b508298fcc37261953684744ec4ccc734d5083",
            "0x0000000000000000000000000000000000000000000000000000000000000000"
          ],
          "data": "0x000000000000000000000000d2b508298fcc37261953684744ec4ccc734d5083000000000000000000000000000000000000000000000000000000000003d090",
          "blockHash": "0xf7281ed88d8cb67113853e752a886280972e02acbd02fb5871042fd9a501fe20",
          "blockNumber": "0x207cebd",
          "transactionHash": "0x828e45f3cf7eac10ebbfe4cab9054ea7bbdf713b4e3fc1a8709582d8f10728d0",
          "transactionIndex": "0x4",
          "logIndex": "0x20",
          "removed": false
        },
        {
          "address": "0xd2b508298fcc37261953684744ec4ccc734d5083",
          "topics": [
            "0x244160b15e69cc411f041d94ae7fab6f6bba85dade8403216c05ff4b920d5449",
            "0x000000000000000000000000000000000000000000000000000000000000000b"
          ],
          "data": "0x000000000000000000000000000000000000000000000000000000000003d090",
          "blockHash": "0xf7281ed88d8cb67113853e752a886280972e02acbd02fb5871042fd9a501fe20",
          "blockNumber": "0x207cebd",
          "transactionHash": "0x828e45f3cf7eac10ebbfe4cab9054ea7bbdf713b4e3fc1a8709582d8f10728d0",
          "transactionIndex": "0x4",
          "logIndex": "0x21",
          "removed": false
        }
      ],
      "logsBloom": "0x0000000000000011020002400000000000100000000000000000000000000010000000080000000000000000000400000000000080020000000000000020000000000000000000080000000800000000000000000000000000000004000000000000000002000000000000000000080000000000000000004000001000000000000001000000000000000000000040000000000000000000020000000000000002000010000100000000004000000000100000000000000040000000000001000200000200008000000000a040000050002000000000001800000000000120000110100000000080000000000000000040000000000010040000400000000000",
      "type": "0x0",
      "transactionHash": "0x828e45f3cf7eac10ebbfe4cab9054ea7bbdf713b4e3fc1a8709582d8f10728d0",
      "transactionIndex": "0x4",
      "blockHash": "0xf7281ed88d8cb67113853e752a886280972e02acbd02fb5871042fd9a501fe20",
      "blockNumber": "0x207cebd",
      "gasUsed": "0x3c607",
      "effectiveGasPrice": "0x5d22cfc40",
      "from": "0x3a4db9e7306af09012ceb0f222d581fd1f0c6d71",
      "to": "0xd2b508298fcc37261953684744ec4ccc734d5083",
      "contractAddress": null,
      "l1BaseFeeScalar": "0x0",
      "l1BlobBaseFee": "0x2d94577a",
      "l1BlobBaseFeeScalar": "0x0",
      "l1Fee": "0x0",
      "l1GasPrice": "0x164ef822",
      "l1GasUsed": "0x86c"
    },
    {
      "status": "0x1",
      "cumulativeGasUsed": "0x19f625",
      "logs": [
        {
          "address": "0xdbe517c0fa6467873b684eccbed77217e471e862",
          "topics": [
            "0xddf252ad1be2c89b69c2b068fc378daa952ba7f163c4a11628f55a4df523b3ef",
            "0x0000000000000000000000000000000000000000000000000000000000000000",
            "0x000000000000000000000000d2b508298fcc37261953684744ec4ccc734d5083"
          ],
          "data": "0x000000000000000000000000000000000000000000000000000000000001e848",
          "blockHash": "0xf7281ed88d8cb67113853e752a886280972e02acbd02fb5871042fd9a501fe20",
          "blockNumber": "0x207cebd",
          "transactionHash": "0x86dccf8fe6f2cb74ce8939582221fe0e51f5d92050396b150a5514ef4def70b5",
          "transactionIndex": "0x5",
          "logIndex": "0x22",
          "removed": false
        },
        {
          "address": "0xdbe517c0fa6467873b684eccbed77217e471e862",
          "topics": [
            "0x458f5fa412d0f69b08dd84872b0215675cc67bc1d5b6fd93300a1c3878b86196",
            "0x000000000000000000000000d2b508298fcc37261953684744ec4ccc734d5083",
            "0x000000000000000000000000d2b508298fcc37261953684744ec4ccc734d5083"
          ],
          "data": "0x000000000000000000000000000000000000000000000000000000000001e84800000000000000000000000000000000000000000000000000000000000000000000000000000000000000000000000000000000033c6101d92ff2c6a8e012c8",
          "blockHash": "0xf7281ed88d8cb67113853e752a886280972e02acbd02fb5871042fd9a501fe20",
          "blockNumber": "0x207cebd",
          "transactionHash": "0x86dccf8fe6f2cb74ce8939582221fe0e51f5d92050396b150a5514ef4def70b5",
          "transactionIndex": "0x5",
          "logIndex": "0x23",
          "removed": false
        },
        {
          "address": "0x3e59a31363e2ad014dcbc521c4a0d5757d9f3402",
          "topics": [
            "0x804c9b842b2748a22bb64b345453a3de7ca54a6ca45ce00d415894979e22897a",
            "0x000000000000000000000000ceba9300f2b948710d2653dd7b07f33a8b32118c"
          ],
          "data": "0x00000000000000000000000000000000000000000000d6337368c6a234a828cf000000000000000000000000000000000000000000000000000000000000000000000000000000000000000000000000000000000007bbdf8eddc1e05ac77adb0000000000000000000000000000000000000000033b6aaaa075610c353467980000000000000000000000000000000000000000033c6101d92ff2c6a8e012c8",
          "blockHash": "0xf7281ed88d8cb67113853e752a886280972e02acbd02fb5871042fd9a501fe20",
          "blockNumber": "0x207cebd",
          "transactionHash": "0x86dccf8fe6f2cb74ce8939582221fe0e51f5d92050396b150a5514ef4def70b5",
          "transactionIndex": "0x5",
          "logIndex": "0x24",
          "removed": false
        },
        {
          "address": "0xceba9300f2b948710d2653dd7b07f33a8b32118c",
          "topics": [
            "0xddf252ad1be2c89b69c2b068fc378daa952ba7f163c4a11628f55a4df523b3ef",
            "0x000000000000000000000000ff8309b9e99bfd2d4021bc71a362abd93dbd4785",
            "0x000000000000000000000000d2b508298fcc37261953684744ec4ccc734d5083"
          ],
          "data": "0x000000000000000000000000000000000000000000000000000000000001e848",
          "blockHash": "0xf7281ed88d8cb67113853e752a886280972e02acbd02fb5871042fd9a501fe20",
          "blockNumber": "0x207cebd",
          "transactionHash": "0x86dccf8fe6f2cb74ce8939582221fe0e51f5d92050396b150a5514ef4def70b5",
          "transactionIndex": "0x5",
          "logIndex": "0x25",
          "removed": false
        },
        {
          "address": "0x3e59a31363e2ad014dcbc521c4a0d5757d9f3402",
          "topics": [
            "0xb3d084820fb1a9decffb176436bd02558d15fac9b0ddfed8c465bc7359d7dce0",
            "0x000000000000000000000000ceba9300f2b948710d2653dd7b07f33a8b32118c",
            "0x000000000000000000000000d2b508298fcc37261953684744ec4ccc734d5083",
            "0x0000000000000000000000000000000000000000000000000000000000000000"
          ],
          "data": "0x000000000000000000000000d2b508298fcc37261953684744ec4ccc734d5083000000000000000000000000000000000000000000000000000000000001e848000000000000000000000000000000000000000000000000000000000000000200000000000000000000000000000000000000000007bbdf8eddc1e05ac77adb",
          "blockHash": "0xf7281ed88d8cb67113853e752a886280972e02acbd02fb5871042fd9a501fe20",
          "blockNumber": "0x207cebd",
          "transactionHash": "0x86dccf8fe6f2cb74ce8939582221fe0e51f5d92050396b150a5514ef4def70b5",
          "transactionIndex": "0x5",
          "logIndex": "0x26",
          "removed": false
        },
        {
          "address": "0xceba9300f2b948710d2653dd7b07f33a8b32118c",
          "topics": [
            "0xddf252ad1be2c89b69c2b068fc378daa952ba7f163c4a11628f55a4df523b3ef",
            "0x000000000000000000000000d2b508298fcc37261953684744ec4ccc734d5083",
            "0x0000000000000000000000003a4db9e7306af09012ceb0f222d581fd1f0c6d71"
          ],
          "data": "0x000000000000000000000000000000000000000000000000000000000001e848",
          "blockHash": "0xf7281ed88d8cb67113853e752a886280972e02acbd02fb5871042fd9a501fe20",
          "blockNumber": "0x207cebd",
          "transactionHash": "0x86dccf8fe6f2cb74ce8939582221fe0e51f5d92050396b150a5514ef4def70b5",
          "transactionIndex": "0x5",
          "logIndex": "0x27",
          "removed": false
        },
        {
          "address": "0xd2b508298fcc37261953684744ec4ccc734d5083",
          "topics": [
            "0xf3a2c404b3362c4238317c3dad1020c2e9e984ba8df38a4a1ff18d57e92a242a",
            "0x000000000000000000000000000000000000000000000000000000000000000b"
          ],
          "data": "0x000000000000000000000000000000000000000000000000000000000001e848",
          "blockHash": "0xf7281ed88d8cb67113853e752a886280972e02acbd02fb5871042fd9a501fe20",
          "blockNumber": "0x207cebd",
          "transactionHash": "0x86dccf8fe6f2cb74ce8939582221fe0e51f5d92050396b150a5514ef4def70b5",
          "transactionIndex": "0x5",
          "logIndex": "0x28",
          "removed": false
        }
      ],
      "logsBloom": "0x00000000000000100000104000400000000000000000000000000000000000100000000000000000000000000004400000100000800000000000000000000000000000008000000000000008000000000000000000000000000000040000000000000000020000000000000000000800000000000000000000000010000000000000000000000010000000000000400000000000000000002200000000000000000001000000000000000000000000000000000000000000400000000000010002000002000081200000022000000000002000400000041800000000000020000100100000004010000800000001000000000000000010040800000000000000",
      "type": "0x0",
      "transactionHash": "0x86dccf8fe6f2cb74ce8939582221fe0e51f5d92050396b150a5514ef4def70b5",
      "transactionIndex": "0x5",
      "blockHash": "0xf7281ed88d8cb67113853e752a886280972e02acbd02fb5871042fd9a501fe20",
      "blockNumber": "0x207cebd",
      "gasUsed": "0x58731",
      "effectiveGasPrice": "0x5d22cfc40",
      "from": "0x3a4db9e7306af09012ceb0f222d581fd1f0c6d71",
      "to": "0xd2b508298fcc37261953684744ec4ccc734d5083",
      "contractAddress": null,
      "l1BaseFeeScalar": "0x0",
      "l1BlobBaseFee": "0x2d94577a",
      "l1BlobBaseFeeScalar": "0x0",
      "l1Fee": "0x0",
      "l1GasPrice": "0x164ef822",
      "l1GasUsed": "0x640"
    },
    {
      "status": "0x1",
      "cumulativeGasUsed": "0x1d9e56",
      "logs": [
        {
          "address": "0xceba9300f2b948710d2653dd7b07f33a8b32118c",
          "topics": [
            "0x8c5be1e5ebec7d5bd14f71427d1e84f3dd0314c0f7b2291e5b200ac8c7c3b925",
            "0x0000000000000000000000003a4db9e7306af09012ceb0f222d581fd1f0c6d71",
            "0x000000000000000000000000d2b508298fcc37261953684744ec4ccc734d5083"
          ],
          "data": "0x000000000000000000000000000000000000000000000000000000000002dc6c",
          "blockHash": "0xf7281ed88d8cb67113853e752a886280972e02acbd02fb5871042fd9a501fe20",
          "blockNumber": "0x207cebd",
          "transactionHash": "0x6c894b1f91b311ac81bf80a343bc322b8603819cd834ba0c13f522a6ed926e16",
          "transactionIndex": "0x6",
          "logIndex": "0x29",
          "removed": false
        },
        {
          "address": "0xceba9300f2b948710d2653dd7b07f33a8b32118c",
          "topics": [
            "0xddf252ad1be2c89b69c2b068fc378daa952ba7f163c4a11628f55a4df523b3ef",
            "0x0000000000000000000000003a4db9e7306af09012ceb0f222d581fd1f0c6d71",
            "0x000000000000000000000000d2b508298fcc37261953684744ec4ccc734d5083"
          ],
          "data": "0x000000000000000000000000000000000000000000000000000000000002dc6c",
          "blockHash": "0xf7281ed88d8cb67113853e752a886280972e02acbd02fb5871042fd9a501fe20",
          "blockNumber": "0x207cebd",
          "transactionHash": "0x6c894b1f91b311ac81bf80a343bc322b8603819cd834ba0c13f522a6ed926e16",
          "transactionIndex": "0x6",
          "logIndex": "0x2a",
          "removed": false
        },
        {
          "address": "0xceba9300f2b948710d2653dd7b07f33a8b32118c",
          "topics": [
            "0x8c5be1e5ebec7d5bd14f71427d1e84f3dd0314c0f7b2291e5b200ac8c7c3b925",
            "0x000000000000000000000000d2b508298fcc37261953684744ec4ccc734d5083",
            "0x0000000000000000000000003e59a31363e2ad014dcbc521c4a0d5757d9f3402"
          ],
          "data": "0x000000000000000000000000000000000000000000000000000000000002dc6c",
          "blockHash": "0xf7281ed88d8cb67113853e752a886280972e02acbd02fb5871042fd9a501fe20",
          "blockNumber": "0x207cebd",
          "transactionHash": "0x6c894b1f91b311ac81bf80a343bc322b8603819cd834ba0c13f522a6ed926e16",
          "transactionIndex": "0x6",
          "logIndex": "0x2b",
          "removed": false
        },
        {
          "address": "0xdbe517c0fa6467873b684eccbed77217e471e862",
          "topics": [
            "0xddf252ad1be2c89b69c2b068fc378daa952ba7f163c4a11628f55a4df523b3ef",
            "0x000000000000000000000000d2b508298fcc37261953684744ec4ccc734d5083",
            "0x0000000000000000000000000000000000000000000000000000000000000000"
          ],
          "data": "0x000000000000000000000000000000000000000000000000000000000002dc6c",
          "blockHash": "0xf7281ed88d8cb67113853e752a886280972e02acbd02fb5871042fd9a501fe20",
          "blockNumber": "0x207cebd",
          "transactionHash": "0x6c894b1f91b311ac81bf80a343bc322b8603819cd834ba0c13f522a6ed926e16",
          "transactionIndex": "0x6",
          "logIndex": "0x2c",
          "removed": false
        },
        {
          "address": "0xdbe517c0fa6467873b684eccbed77217e471e862",
          "topics": [
            "0x4cf25bc1d991c17529c25213d3cc0cda295eeaad5f13f361969b12ea48015f90",
            "0x000000000000000000000000d2b508298fcc37261953684744ec4ccc734d5083",
            "0x0000000000000000000000000000000000000000000000000000000000000000"
          ],
          "data": "0x000000000000000000000000000000000000000000000000000000000002dc6c00000000000000000000000000000000000000000000000000000000000000000000000000000000000000000000000000000000033c6101d92ff2c6a8e012c8",
          "blockHash": "0xf7281ed88d8cb67113853e752a886280972e02acbd02fb5871042fd9a501fe20",
          "blockNumber": "0x207cebd",
          "transactionHash": "0x6c894b1f91b311ac81bf80a343bc322b8603819cd834ba0c13f522a6ed926e16",
          "transactionIndex": "0x6",
          "logIndex": "0x2d",
          "removed": false
        },
        {
          "address": "0x3e59a31363e2ad014dcbc521c4a0d5757d9f3402",
          "topics": [
            "0x804c9b842b2748a22bb64b345453a3de7ca54a6ca45ce00d415894979e22897a",
            "0x000000000000000000000000ceba9300f2b948710d2653dd7b07f33a8b32118c"
          ],
          "data": "0x00000000000000000000000000000000000000000000d6333ef03712934746ea000000000000000000000000000000000000000000000000000000000000000000000000000000000000000000000000000000000007bbde9c5eb152512d58430000000000000000000000000000000000000000033b6aaaa075610c353467980000000000000000000000000000000000000000033c6101d92ff2c6a8e012c8",
          "blockHash": "0xf7281ed88d8cb67113853e752a886280972e02acbd02fb5871042fd9a501fe20",
          "blockNumber": "0x207cebd",
          "transactionHash": "0x6c894b1f91b311ac81bf80a343bc322b8603819cd834ba0c13f522a6ed926e16",
          "transactionIndex": "0x6",
          "logIndex": "0x2e",
          "removed": false
        },
        {
          "address": "0xceba9300f2b948710d2653dd7b07f33a8b32118c",
          "topics": [
            "0xddf252ad1be2c89b69c2b068fc378daa952ba7f163c4a11628f55a4df523b3ef",
            "0x000000000000000000000000d2b508298fcc37261953684744ec4ccc734d5083",
            "0x000000000000000000000000ff8309b9e99bfd2d4021bc71a362abd93dbd4785"
          ],
          "data": "0x000000000000000000000000000000000000000000000000000000000002dc6c",
          "blockHash": "0xf7281ed88d8cb67113853e752a886280972e02acbd02fb5871042fd9a501fe20",
          "blockNumber": "0x207cebd",
          "transactionHash": "0x6c894b1f91b311ac81bf80a343bc322b8603819cd834ba0c13f522a6ed926e16",
          "transactionIndex": "0x6",
          "logIndex": "0x2f",
          "removed": false
        },
        {
          "address": "0x3e59a31363e2ad014dcbc521c4a0d5757d9f3402",
          "topics": [
            "0xa534c8dbe71f871f9f3530e97a74601fea17b426cae02e1c5aee42c96c784051",
            "0x000000000000000000000000ceba9300f2b948710d2653dd7b07f33a8b32118c",
            "0x000000000000000000000000d2b508298fcc37261953684744ec4ccc734d5083",
            "0x000000000000000000000000d2b508298fcc37261953684744ec4ccc734d5083"
          ],
          "data": "0x000000000000000000000000000000000000000000000000000000000002dc6c0000000000000000000000000000000000000000000000000000000000000000",
          "blockHash": "0xf7281ed88d8cb67113853e752a886280972e02acbd02fb5871042fd9a501fe20",
          "blockNumber": "0x207cebd",
          "transactionHash": "0x6c894b1f91b311ac81bf80a343bc322b8603819cd834ba0c13f522a6ed926e16",
          "transactionIndex": "0x6",
          "logIndex": "0x30",
          "removed": false
        },
        {
          "address": "0xd2b508298fcc37261953684744ec4ccc734d5083",
          "topics": [
            "0x0d4979b0859a1951f8ed7cbe3b1994e740552588f27ba02ca0f8f1ddcad16e0c",
            "0x000000000000000000000000000000000000000000000000000000000000000b"
          ],
          "data": "0x000000000000000000000000000000000000000000000000000000000002dc6c",
          "blockHash": "0xf7281ed88d8cb67113853e752a886280972e02acbd02fb5871042fd9a501fe20",
          "blockNumber": "0x207cebd",
          "transactionHash": "0x6c894b1f91b311ac81bf80a343bc322b8603819cd834ba0c13f522a6ed926e16",
          "transactionIndex": "0x6",
          "logIndex": "0x31",
          "removed": false
        }
      ],
      "logsBloom": "0x10000000000000110000124010400000000000000000000000000000000000100000000000000000000000000000400000110000c00000000000000000200000000000008000000000000008000000000000002000000000000000000000000080000000020000000000000000000800000000000000000000000010000000000000000000000000000000000000400000000000000000002200000000000000020001100000000000000000000000000000000000000000400000000000010000000002000080200000022000000000002000000000001800000000000020040110100000004010000800000000000000000000000010040000000000040000",
      "type": "0x0",
      "transactionHash": "0x6c894b1f91b311ac81bf80a343bc322b8603819cd834ba0c13f522a6ed926e16",
      "transactionIndex": "0x6",
      "blockHash": "0xf7281ed88d8cb67113853e752a886280972e02acbd02fb5871042fd9a501fe20",
      "blockNumber": "0x207cebd",
      "gasUsed": "0x3a831",
      "effectiveGasPrice": "0x5d22cfc40",
      "from": "0x3a4db9e7306af09012ceb0f222d581fd1f0c6d71",
      "to": "0xd2b508298fcc37261953684744ec4ccc734d5083",
      "contractAddress": null,
      "l1BaseFeeScalar": "0x0",
      "l1BlobBaseFee": "0x2d94577a",
      "l1BlobBaseFeeScalar": "0x0",
      "l1Fee": "0x0",
      "l1GasPrice": "0x164ef822",
      "l1GasUsed": "0x86c"
    },
    {
      "status": "0x1",
      "cumulativeGasUsed": "0xfd0f7",
      "logs": [
        {
          "address": "0x3e59a31363e2ad014dcbc521c4a0d5757d9f3402",
          "topics": [
            "0x804c9b842b2748a22bb64b345453a3de7ca54a6ca45ce00d415894979e22897a",
            "0x00000000000000000000000048065fbbe25f71c9282ddf5e1cd6d6a887483d5e"
          ],
          "data": "0x00000000000000000000000000000000000000000000000cd20521be915fec760000000000000000000000000000000000000000000000000000000000000000000000000000000000000000000000000000000000001e45ebcd7ff71f3add800000000000000000000000000000000000000000033b5f8e3b821c3060d815670000000000000000000000000000000000000000033bcce36a8cb27ba94b43b2",
          "blockHash": "0xdf92af034fca163e0bec387a6d16c1da53207b09e73a6092c2098b3ee5a07ffa",
          "blockNumber": "0x207cebe",
          "transactionHash": "0x44688ea90bdd79e6e0dcd4ad8af2cbf1736a3d06df269322de3bf90432c635d2",
          "transactionIndex": "0x4",
          "logIndex": "0xe",
          "removed": false
        },
        {
          "address": "0xdee98402a302e4d707fb9bf2bac66faeec31e8df",
          "topics": [
            "0xddf252ad1be2c89b69c2b068fc378daa952ba7f163c4a11628f55a4df523b3ef",
            "0x000000000000000000000000d2b508298fcc37261953684744ec4ccc734d5083",
            "0x0000000000000000000000000000000000000000000000000000000000000000"
          ],
          "data": "0x00000000000000000000000000000000000000000000000000000000000249f0",
          "blockHash": "0xdf92af034fca163e0bec387a6d16c1da53207b09e73a6092c2098b3ee5a07ffa",
          "blockNumber": "0x207cebe",
          "transactionHash": "0x44688ea90bdd79e6e0dcd4ad8af2cbf1736a3d06df269322de3bf90432c635d2",
          "transactionIndex": "0x4",
          "logIndex": "0xf",
          "removed": false
        },
        {
          "address": "0xdee98402a302e4d707fb9bf2bac66faeec31e8df",
          "topics": [
            "0x4cf25bc1d991c17529c25213d3cc0cda295eeaad5f13f361969b12ea48015f90",
            "0x000000000000000000000000d2b508298fcc37261953684744ec4ccc734d5083",
            "0x0000000000000000000000003a4db9e7306af09012ceb0f222d581fd1f0c6d71"
          ],
          "data": "0x00000000000000000000000000000000000000000000000000000000000249f000000000000000000000000000000000000000000000000000000000000000000000000000000000000000000000000000000000033b5f8e3b821c3060d81567",
          "blockHash": "0xdf92af034fca163e0bec387a6d16c1da53207b09e73a6092c2098b3ee5a07ffa",
          "blockNumber": "0x207cebe",
          "transactionHash": "0x44688ea90bdd79e6e0dcd4ad8af2cbf1736a3d06df269322de3bf90432c635d2",
          "transactionIndex": "0x4",
          "logIndex": "0x10",
          "removed": false
        },
        {
          "address": "0x48065fbbe25f71c9282ddf5e1cd6d6a887483d5e",
          "topics": [
            "0xddf252ad1be2c89b69c2b068fc378daa952ba7f163c4a11628f55a4df523b3ef",
            "0x000000000000000000000000dee98402a302e4d707fb9bf2bac66faeec31e8df",
            "0x0000000000000000000000003a4db9e7306af09012ceb0f222d581fd1f0c6d71"
          ],
          "data": "0x00000000000000000000000000000000000000000000000000000000000249f0",
          "blockHash": "0xdf92af034fca163e0bec387a6d16c1da53207b09e73a6092c2098b3ee5a07ffa",
          "blockNumber": "0x207cebe",
          "transactionHash": "0x44688ea90bdd79e6e0dcd4ad8af2cbf1736a3d06df269322de3bf90432c635d2",
          "transactionIndex": "0x4",
          "logIndex": "0x11",
          "removed": false
        },
        {
          "address": "0x3e59a31363e2ad014dcbc521c4a0d5757d9f3402",
          "topics": [
            "0x3115d1449a7b732c986cba18244e897a450f61e1bb8d589cd2e69e6c8924f9f7",
            "0x00000000000000000000000048065fbbe25f71c9282ddf5e1cd6d6a887483d5e",
            "0x000000000000000000000000d2b508298fcc37261953684744ec4ccc734d5083",
            "0x0000000000000000000000003a4db9e7306af09012ceb0f222d581fd1f0c6d71"
          ],
          "data": "0x00000000000000000000000000000000000000000000000000000000000249f0",
          "blockHash": "0xdf92af034fca163e0bec387a6d16c1da53207b09e73a6092c2098b3ee5a07ffa",
          "blockNumber": "0x207cebe",
          "transactionHash": "0x44688ea90bdd79e6e0dcd4ad8af2cbf1736a3d06df269322de3bf90432c635d2",
          "transactionIndex": "0x4",
          "logIndex": "0x12",
          "removed": false
        },
        {
          "address": "0xd2b508298fcc37261953684744ec4ccc734d5083",
          "topics": [
            "0x2399e8aed1977410745a5211d8226a3a7d9278f50a8a197c5ec6e285bb437f0b",
            "0x000000000000000000000000000000000000000000000000000000000000000b"
          ],
          "data": "0x00000000000000000000000000000000000000000000000000000000000249f0",
          "blockHash": "0xdf92af034fca163e0bec387a6d16c1da53207b09e73a6092c2098b3ee5a07ffa",
          "blockNumber": "0x207cebe",
          "transactionHash": "0x44688ea90bdd79e6e0dcd4ad8af2cbf1736a3d06df269322de3bf90432c635d2",
          "transactionIndex": "0x4",
          "logIndex": "0x13",
          "removed": false
        }
      ],
      "logsBloom": "0x1000000000000010020000400000000000900000000000000000000000000010000000080000000000000000000000000001000080000000000000000000000000000000000000080000000800000000000000000000000000000000000000000000000002000000000000000000080000000000002002004000001000000000000001000000000000000000000040000000000000006000020000000000000000000000008100000000004000000000100000000000000040000000000001000000000200008000000000a000000040002000000000001800000000000120040100100000000000000000000000000000000000000010040000000000000000",
      "type": "0x0",
      "transactionHash": "0x44688ea90bdd79e6e0dcd4ad8af2cbf1736a3d06df269322de3bf90432c635d2",
      "transactionIndex": "0x4",
      "blockHash": "0xdf92af034fca163e0bec387a6d16c1da53207b09e73a6092c2098b3ee5a07ffa",
      "blockNumber": "0x207cebe",
      "gasUsed": "0x5366f",
      "effectiveGasPrice": "0x5d22cfc40",
      "from": "0x3a4db9e7306af09012ceb0f222d581fd1f0c6d71",
      "to": "0xd2b508298fcc37261953684744ec4ccc734d5083",
      "contractAddress": null,
      "l1BaseFeeScalar": "0x0",
      "l1BlobBaseFee": "0x2d94577a",
      "l1BlobBaseFeeScalar": "0x0",
      "l1Fee": "0x0",
      "l1GasPrice": "0x164ef822",
      "l1GasUsed": "0x640"
    },
    {
      "status": "0x1",
      "cumulativeGasUsed": "0x10a984",
      "logs": [
        {
          "address": "0xceba9300f2b948710d2653dd7b07f33a8b32118c",
          "topics": [
            "0x8c5be1e5ebec7d5bd14f71427d1e84f3dd0314c0f7b2291e5b200ac8c7c3b925",
            "0x0000000000000000000000003a4db9e7306af09012ceb0f222d581fd1f0c6d71",
            "0x000000000000000000000000d2b508298fcc37261953684744ec4ccc734d5083"
          ],
          "data": "0x000000000000000000000000000000000000000000000000000000000005b8d8",
          "blockHash": "0xdf92af034fca163e0bec387a6d16c1da53207b09e73a6092c2098b3ee5a07ffa",
          "blockNumber": "0x207cebe",
          "transactionHash": "0x0d6f707a7753c80f71dbee8ce06cf7fff34d94f7e8a635ce7a8954c1ca955b2c",
          "transactionIndex": "0x5",
          "logIndex": "0x14",
          "removed": false
        }
      ],
      "logsBloom": "0x00000000000000000000100000000000000000000000000000000000000000000000000000000000000000000000000000000000000000000000000000200000000000000000000000000000000000000000000000000000000000000000000000000000000000000000000000000000000000000000000000000000000000000000000000000000000000000000400000000000000000000000000000000000020000000000000000000000000000000000000000000000000000000000000000000000000080000000020000000000000000000000001000000000000000000110100000000000000800000000000000000000000010000000000000000000",
      "type": "0x0",
      "transactionHash": "0x0d6f707a7753c80f71dbee8ce06cf7fff34d94f7e8a635ce7a8954c1ca955b2c",
      "transactionIndex": "0x5",
      "blockHash": "0xdf92af034fca163e0bec387a6d16c1da53207b09e73a6092c2098b3ee5a07ffa",
      "blockNumber": "0x207cebe",
      "gasUsed": "0xd88d",
      "effectiveGasPrice": "0x5d22cfc40",
      "from": "0x3a4db9e7306af09012ceb0f222d581fd1f0c6d71",
      "to": "0xceba9300f2b948710d2653dd7b07f33a8b32118c",
      "contractAddress": null,
      "l1BaseFeeScalar": "0x0",
      "l1BlobBaseFee": "0x2d94577a",
      "l1BlobBaseFeeScalar": "0x0",
      "l1Fee": "0x0",
      "l1GasPrice": "0x164ef822",
      "l1GasUsed": "0x640"
    },
    {
      "status": "0x1",
      "cumulativeGasUsed": "0x141774",
      "logs": [
        {
          "address": "0xceba9300f2b948710d2653dd7b07f33a8b32118c",
          "topics": [
            "0xddf252ad1be2c89b69c2b068fc378daa952ba7f163c4a11628f55a4df523b3ef",
            "0x0000000000000000000000003a4db9e7306af09012ceb0f222d581fd1f0c6d71",
            "0x000000000000000000000000d2b508298fcc37261953684744ec4ccc734d5083"
          ],
          "data": "0x000000000000000000000000000000000000000000000000000000000002dc6c",
          "blockHash": "0xdf92af034fca163e0bec387a6d16c1da53207b09e73a6092c2098b3ee5a07ffa",
          "blockNumber": "0x207cebe",
          "transactionHash": "0x69a7ca9028672bd2b44eca94d3c4a34855a454ec5e2a0bf32d10a733d88b8ae3",
          "transactionIndex": "0x6",
          "logIndex": "0x15",
          "removed": false
        },
        {
          "address": "0xceba9300f2b948710d2653dd7b07f33a8b32118c",
          "topics": [
            "0x8c5be1e5ebec7d5bd14f71427d1e84f3dd0314c0f7b2291e5b200ac8c7c3b925",
            "0x000000000000000000000000d2b508298fcc37261953684744ec4ccc734d5083",
            "0x0000000000000000000000003e59a31363e2ad014dcbc521c4a0d5757d9f3402"
          ],
          "data": "0x000000000000000000000000000000000000000000000000000000000002dc6c",
          "blockHash": "0xdf92af034fca163e0bec387a6d16c1da53207b09e73a6092c2098b3ee5a07ffa",
          "blockNumber": "0x207cebe",
          "transactionHash": "0x69a7ca9028672bd2b44eca94d3c4a34855a454ec5e2a0bf32d10a733d88b8ae3",
          "transactionIndex": "0x6",
          "logIndex": "0x16",
          "removed": false
        },
        {
          "address": "0xdbe517c0fa6467873b684eccbed77217e471e862",
          "topics": [
            "0xddf252ad1be2c89b69c2b068fc378daa952ba7f163c4a11628f55a4df523b3ef",
            "0x000000000000000000000000d2b508298fcc37261953684744ec4ccc734d5083",
            "0x0000000000000000000000000000000000000000000000000000000000000000"
          ],
          "data": "0x000000000000000000000000000000000000000000000000000000000002dc6c",
          "blockHash": "0xdf92af034fca163e0bec387a6d16c1da53207b09e73a6092c2098b3ee5a07ffa",
          "blockNumber": "0x207cebe",
          "transactionHash": "0x69a7ca9028672bd2b44eca94d3c4a34855a454ec5e2a0bf32d10a733d88b8ae3",
          "transactionIndex": "0x6",
          "logIndex": "0x17",
          "removed": false
        },
        {
          "address": "0xdbe517c0fa6467873b684eccbed77217e471e862",
          "topics": [
            "0x4cf25bc1d991c17529c25213d3cc0cda295eeaad5f13f361969b12ea48015f90",
            "0x000000000000000000000000d2b508298fcc37261953684744ec4ccc734d5083",
            "0x0000000000000000000000000000000000000000000000000000000000000000"
          ],
          "data": "0x000000000000000000000000000000000000000000000000000000000002dc6c00000000000000000000000000000000000000000000000000000000000000000000000000000000000000000000000000000000033c6101dd4ec4d4489a70a3",
          "blockHash": "0xdf92af034fca163e0bec387a6d16c1da53207b09e73a6092c2098b3ee5a07ffa",
          "blockNumber": "0x207cebe",
          "transactionHash": "0x69a7ca9028672bd2b44eca94d3c4a34855a454ec5e2a0bf32d10a733d88b8ae3",
          "transactionIndex": "0x6",
          "logIndex": "0x18",
          "removed": false
        },
        {
          "address": "0x3e59a31363e2ad014dcbc521c4a0d5757d9f3402",
          "topics": [
            "0x804c9b842b2748a22bb64b345453a3de7ca54a6ca45ce00d415894979e22897a",
            "0x000000000000000000000000ceba9300f2b948710d2653dd7b07f33a8b32118c"
          ],
          "data": "0x00000000000000000000000000000000000000000000d6330a79a220d493d3cf000000000000000000000000000000000000000000000000000000000000000000000000000000000000000000000000000000000007bbdda9e8a86b6a7984380000000000000000000000000000000000000000033b6aaaa0e75dd5b1d15e950000000000000000000000000000000000000000033c6101dd4ec4d4489a70a3",
          "blockHash": "0xdf92af034fca163e0bec387a6d16c1da53207b09e73a6092c2098b3ee5a07ffa",
          "blockNumber": "0x207cebe",
          "transactionHash": "0x69a7ca9028672bd2b44eca94d3c4a34855a454ec5e2a0bf32d10a733d88b8ae3",
          "transactionIndex": "0x6",
          "logIndex": "0x19",
          "removed": false
        },
        {
          "address": "0xceba9300f2b948710d2653dd7b07f33a8b32118c",
          "topics": [
            "0xddf252ad1be2c89b69c2b068fc378daa952ba7f163c4a11628f55a4df523b3ef",
            "0x000000000000000000000000d2b508298fcc37261953684744ec4ccc734d5083",
            "0x000000000000000000000000ff8309b9e99bfd2d4021bc71a362abd93dbd4785"
          ],
          "data": "0x000000000000000000000000000000000000000000000000000000000002dc6c",
          "blockHash": "0xdf92af034fca163e0bec387a6d16c1da53207b09e73a6092c2098b3ee5a07ffa",
          "blockNumber": "0x207cebe",
          "transactionHash": "0x69a7ca9028672bd2b44eca94d3c4a34855a454ec5e2a0bf32d10a733d88b8ae3",
          "transactionIndex": "0x6",
          "logIndex": "0x1a",
          "removed": false
        },
        {
          "address": "0x3e59a31363e2ad014dcbc521c4a0d5757d9f3402",
          "topics": [
            "0xa534c8dbe71f871f9f3530e97a74601fea17b426cae02e1c5aee42c96c784051",
            "0x000000000000000000000000ceba9300f2b948710d2653dd7b07f33a8b32118c",
            "0x000000000000000000000000d2b508298fcc37261953684744ec4ccc734d5083",
            "0x000000000000000000000000d2b508298fcc37261953684744ec4ccc734d5083"
          ],
          "data": "0x000000000000000000000000000000000000000000000000000000000002dc6c0000000000000000000000000000000000000000000000000000000000000000",
          "blockHash": "0xdf92af034fca163e0bec387a6d16c1da53207b09e73a6092c2098b3ee5a07ffa",
          "blockNumber": "0x207cebe",
          "transactionHash": "0x69a7ca9028672bd2b44eca94d3c4a34855a454ec5e2a0bf32d10a733d88b8ae3",
          "transactionIndex": "0x6",
          "logIndex": "0x1b",
          "removed": false
        },
        {
          "address": "0xd2b508298fcc37261953684744ec4ccc734d5083",
          "topics": [
            "0x0d4979b0859a1951f8ed7cbe3b1994e740552588f27ba02ca0f8f1ddcad16e0c",
            "0x000000000000000000000000000000000000000000000000000000000000000b"
          ],
          "data": "0x000000000000000000000000000000000000000000000000000000000002dc6c",
          "blockHash": "0xdf92af034fca163e0bec387a6d16c1da53207b09e73a6092c2098b3ee5a07ffa",
          "blockNumber": "0x207cebe",
          "transactionHash": "0x69a7ca9028672bd2b44eca94d3c4a34855a454ec5e2a0bf32d10a733d88b8ae3",
          "transactionIndex": "0x6",
          "logIndex": "0x1c",
          "removed": false
        }
      ],
      "logsBloom": "0x10000000000000110000124010400000000000000000000000000000000000100000000000000000000000000000400000110000c00000000000000000200000000000008000000000000008000000000000002000000000000000000000000080000000020000000000000000000800000000000000000000000010000000000000000000000000000000000000400000000000000000002200000000000000020001100000000000000000000000000000000000000000400000000000010000000002000080200000022000000000002000000000001800000000000020040110100000004010000800000000000000000000000010040000000000040000",
      "type": "0x0",
      "transactionHash": "0x69a7ca9028672bd2b44eca94d3c4a34855a454ec5e2a0bf32d10a733d88b8ae3",
      "transactionIndex": "0x6",
      "blockHash": "0xdf92af034fca163e0bec387a6d16c1da53207b09e73a6092c2098b3ee5a07ffa",
      "blockNumber": "0x207cebe",
      "gasUsed": "0x36df0",
      "effectiveGasPrice": "0x5d22cfc40",
      "from": "0x3a4db9e7306af09012ceb0f222d581fd1f0c6d71",
      "to": "0xd2b508298fcc37261953684744ec4ccc734d5083",
      "contractAddress": null,
      "l1BaseFeeScalar": "0x0",
      "l1BlobBaseFee": "0x2d94577a",
      "l1BlobBaseFeeScalar": "0x0",
      "l1Fee": "0x0",
      "l1GasPrice": "0x164ef822",
      "l1GasUsed": "0x640"
    },
    {
      "status": "0x1",
      "cumulativeGasUsed": "0x190d0d",
      "logs": [
        {
          "address": "0x3e59a31363e2ad014dcbc521c4a0d5757d9f3402",
          "topics": [
            "0x804c9b842b2748a22bb64b345453a3de7ca54a6ca45ce00d415894979e22897a",
            "0x00000000000000000000000048065fbbe25f71c9282ddf5e1cd6d6a887483d5e"
          ],
          "data": "0x00000000000000000000000000000000000000000000000cd20579613cdd3c190000000000000000000000000000000000000000000000000000000000000000000000000000000000000000000000000000000000001e45ec34f7c0e865c0fe0000000000000000000000000000000000000000033b5f8e3b821c3060d815670000000000000000000000000000000000000000033bcce36a8cb27ba94b43b2",
          "blockHash": "0xdf92af034fca163e0bec387a6d16c1da53207b09e73a6092c2098b3ee5a07ffa",
          "blockNumber": "0x207cebe",
          "transactionHash": "0xcf7c3821ed9347b4742526b7a2f5b83e3a90b78ea8701255aceb23e3a41fd42d",
          "transactionIndex": "0x7",
          "logIndex": "0x1d",
          "removed": false
        },
        {
          "address": "0xdee98402a302e4d707fb9bf2bac66faeec31e8df",
          "topics": [
            "0xddf252ad1be2c89b69c2b068fc378daa952ba7f163c4a11628f55a4df523b3ef",
            "0x000000000000000000000000d2b508298fcc37261953684744ec4ccc734d5083",
            "0x0000000000000000000000000000000000000000000000000000000000000000"
          ],
          "data": "0x00000000000000000000000000000000000000000000000000000000000927c0",
          "blockHash": "0xdf92af034fca163e0bec387a6d16c1da53207b09e73a6092c2098b3ee5a07ffa",
          "blockNumber": "0x207cebe",
          "transactionHash": "0xcf7c3821ed9347b4742526b7a2f5b83e3a90b78ea8701255aceb23e3a41fd42d",
          "transactionIndex": "0x7",
          "logIndex": "0x1e",
          "removed": false
        },
        {
          "address": "0xdee98402a302e4d707fb9bf2bac66faeec31e8df",
          "topics": [
            "0x4cf25bc1d991c17529c25213d3cc0cda295eeaad5f13f361969b12ea48015f90",
            "0x000000000000000000000000d2b508298fcc37261953684744ec4ccc734d5083",
            "0x0000000000000000000000003a4db9e7306af09012ceb0f222d581fd1f0c6d71"
          ],
          "data": "0x00000000000000000000000000000000000000000000000000000000000927c000000000000000000000000000000000000000000000000000000000000000000000000000000000000000000000000000000000033b5f8e3b821c3060d81567",
          "blockHash": "0xdf92af034fca163e0bec387a6d16c1da53207b09e73a6092c2098b3ee5a07ffa",
          "blockNumber": "0x207cebe",
          "transactionHash": "0xcf7c3821ed9347b4742526b7a2f5b83e3a90b78ea8701255aceb23e3a41fd42d",
          "transactionIndex": "0x7",
          "logIndex": "0x1f",
          "removed": false
        },
        {
          "address": "0x48065fbbe25f71c9282ddf5e1cd6d6a887483d5e",
          "topics": [
            "0xddf252ad1be2c89b69c2b068fc378daa952ba7f163c4a11628f55a4df523b3ef",
            "0x000000000000000000000000dee98402a302e4d707fb9bf2bac66faeec31e8df",
            "0x0000000000000000000000003a4db9e7306af09012ceb0f222d581fd1f0c6d71"
          ],
          "data": "0x00000000000000000000000000000000000000000000000000000000000927c0",
          "blockHash": "0xdf92af034fca163e0bec387a6d16c1da53207b09e73a6092c2098b3ee5a07ffa",
          "blockNumber": "0x207cebe",
          "transactionHash": "0xcf7c3821ed9347b4742526b7a2f5b83e3a90b78ea8701255aceb23e3a41fd42d",
          "transactionIndex": "0x7",
          "logIndex": "0x20",
          "removed": false
        },
        {
          "address": "0x3e59a31363e2ad014dcbc521c4a0d5757d9f3402",
          "topics": [
            "0x3115d1449a7b732c986cba18244e897a450f61e1bb8d589cd2e69e6c8924f9f7",
            "0x00000000000000000000000048065fbbe25f71c9282ddf5e1cd6d6a887483d5e",
            "0x000000000000000000000000d2b508298fcc37261953684744ec4ccc734d5083",
            "0x0000000000000000000000003a4db9e7306af09012ceb0f222d581fd1f0c6d71"
          ],
          "data": "0x00000000000000000000000000000000000000000000000000000000000927c0",
          "blockHash": "0xdf92af034fca163e0bec387a6d16c1da53207b09e73a6092c2098b3ee5a07ffa",
          "blockNumber": "0x207cebe",
          "transactionHash": "0xcf7c3821ed9347b4742526b7a2f5b83e3a90b78ea8701255aceb23e3a41fd42d",
          "transactionIndex": "0x7",
          "logIndex": "0x21",
          "removed": false
        },
        {
          "address": "0xd2b508298fcc37261953684744ec4ccc734d5083",
          "topics": [
            "0x2399e8aed1977410745a5211d8226a3a7d9278f50a8a197c5ec6e285bb437f0b",
            "0x000000000000000000000000000000000000000000000000000000000000000b"
          ],
          "data": "0x00000000000000000000000000000000000000000000000000000000000927c0",
          "blockHash": "0xdf92af034fca163e0bec387a6d16c1da53207b09e73a6092c2098b3ee5a07ffa",
          "blockNumber": "0x207cebe",
          "transactionHash": "0xcf7c3821ed9347b4742526b7a2f5b83e3a90b78ea8701255aceb23e3a41fd42d",
          "transactionIndex": "0x7",
          "logIndex": "0x22",
          "removed": false
        }
      ],
      "logsBloom": "0x1000000000000010020000400000000000900000000000000000000000000010000000080000000000000000000000000001000080000000000000000000000000000000000000080000000800000000000000000000000000000000000000000000000002000000000000000000080000000000002002004000001000000000000001000000000000000000000040000000000000006000020000000000000000000000008100000000004000000000100000000000000040000000000001000000000200008000000000a000000040002000000000001800000000000120040100100000000000000000000000000000000000000010040000000000000000",
      "type": "0x0",
      "transactionHash": "0xcf7c3821ed9347b4742526b7a2f5b83e3a90b78ea8701255aceb23e3a41fd42d",
      "transactionIndex": "0x7",
      "blockHash": "0xdf92af034fca163e0bec387a6d16c1da53207b09e73a6092c2098b3ee5a07ffa",
      "blockNumber": "0x207cebe",
      "gasUsed": "0x4f599",
      "effectiveGasPrice": "0x5d22cfc40",
      "from": "0x3a4db9e7306af09012ceb0f222d581fd1f0c6d71",
      "to": "0xd2b508298fcc37261953684744ec4ccc734d5083",
      "contractAddress": null,
      "l1BaseFeeScalar": "0x0",
      "l1BlobBaseFee": "0x2d94577a",
      "l1BlobBaseFeeScalar": "0x0",
      "l1Fee": "0x0",
      "l1GasPrice": "0x164ef822",
      "l1GasUsed": "0x640"
    }
  ],
  "libraries": [],
  "pending": [],
  "returns": {},
  "timestamp": 1745966869,
  "chain": 42220,
  "commit": "1cefd9d"
}