{
  "transactions": [
    {
      "hash": "0xff8f59712a25deb7752436e42217221ef68eb49a7f82acbd6980b36ee13b49c2",
      "transactionType": "CALL",
      "contractName": null,
      "contractAddress": "0x48065fbbe25f71c9282ddf5e1cd6d6a887483d5e",
      "function": "approve(address,uint256)",
      "arguments": [
        "0x79242D2F9a923AB409413eDCEd60f5155D5A8D1e",
        "500000"
      ],
      "transaction": {
        "from": "0x3a4db9e7306af09012ceb0f222d581fd1f0c6d71",
        "to": "0x48065fbbe25f71c9282ddf5e1cd6d6a887483d5e",
        "gas": "0x1201c",
        "value": "0x0",
        "input": "0x095ea7b300000000000000000000000079242d2f9a923ab409413edced60f5155d5a8d1e000000000000000000000000000000000000000000000000000000000007a120",
        "nonce": "0x61",
        "chainId": "0xa4ec"
      },
      "additionalContracts": [],
      "isFixedGasLimit": false
    },
    {
      "hash": "0x2e2bf2312cc34d7b3c9e70d72ba42a7a91020d793ac7a63022e73b5470d8e7f0",
      "transactionType": "CALL",
      "contractName": null,
      "contractAddress": "0x79242d2f9a923ab409413edced60f5155d5a8d1e",
      "function": "createPosition(address,uint256,address,uint256,uint256)",
      "arguments": [
        "0x48065fbBE25f71C9282ddf5e1cD6D6A887483D5e",
        "500000",
        "0xcebA9300f2b948710d2653dD7B07f33A8B32118C",
        "250000",
        "2"
      ],
      "transaction": {
        "from": "0x3a4db9e7306af09012ceb0f222d581fd1f0c6d71",
        "to": "0x79242d2f9a923ab409413edced60f5155d5a8d1e",
        "gas": "0xdba5e",
        "value": "0x0",
        "input": "0xb0c3d5df00000000000000000000000048065fbbe25f71c9282ddf5e1cd6d6a887483d5e000000000000000000000000000000000000000000000000000000000007a120000000000000000000000000ceba9300f2b948710d2653dd7b07f33a8b32118c000000000000000000000000000000000000000000000000000000000003d0900000000000000000000000000000000000000000000000000000000000000002",
        "nonce": "0x62",
        "chainId": "0xa4ec"
      },
      "additionalContracts": [],
      "isFixedGasLimit": false
    }
  ],
  "receipts": [
    {
      "status": "0x1",
      "cumulativeGasUsed": "0x103987",
      "logs": [
        {
          "address": "0x48065fbbe25f71c9282ddf5e1cd6d6a887483d5e",
          "topics": [
            "0x8c5be1e5ebec7d5bd14f71427d1e84f3dd0314c0f7b2291e5b200ac8c7c3b925",
            "0x0000000000000000000000003a4db9e7306af09012ceb0f222d581fd1f0c6d71",
            "0x00000000000000000000000079242d2f9a923ab409413edced60f5155d5a8d1e"
          ],
          "data": "0x000000000000000000000000000000000000000000000000000000000007a120",
          "blockHash": "0x9896d16c1a73662f027a29fd6f312f4ded3fdda9bd157906a83469a37c12460d",
          "blockNumber": "0x2036225",
          "transactionHash": "0xff8f59712a25deb7752436e42217221ef68eb49a7f82acbd6980b36ee13b49c2",
          "transactionIndex": "0x8",
          "logIndex": "0x17",
          "removed": false
        }
      ],
      "logsBloom": "0x00002000000000000000000000000000000000000000000000000000080000000000000000000000000000000000000000000000000000000000000000200000001000000000000000000000000000000000000000000000000000000000000000000000000000000000000000000000000000000000000040000000000000000000010000000000000000000000400000000000000000000000000000000000020000000000000000000000000000000000000000000000000000000000000000000000000080000000008000000000000000000000001000000000000000000010000000000000000000000000000000000000000000000000000000000000",
      "type": "0x0",
      "transactionHash": "0xff8f59712a25deb7752436e42217221ef68eb49a7f82acbd6980b36ee13b49c2",
      "transactionIndex": "0x8",
      "blockHash": "0x9896d16c1a73662f027a29fd6f312f4ded3fdda9bd157906a83469a37c12460d",
      "blockNumber": "0x2036225",
      "gasUsed": "0xd097",
      "effectiveGasPrice": "0x5d22cfc40",
      "from": "0x3a4db9e7306af09012ceb0f222d581fd1f0c6d71",
      "to": "0x48065fbbe25f71c9282ddf5e1cd6d6a887483d5e",
      "contractAddress": null,
      "l1BaseFeeScalar": "0x0",
      "l1BlobBaseFee": "0x1ce2291bd",
      "l1BlobBaseFeeScalar": "0x0",
      "l1Fee": "0x0",
      "l1GasPrice": "0x2fdd55a9",
      "l1GasUsed": "0x640"
    },
    {
      "status": "0x1",
      "cumulativeGasUsed": "0x1a29de",
      "logs": [
        {
          "address": "0x48065fbbe25f71c9282ddf5e1cd6d6a887483d5e",
          "topics": [
            "0xddf252ad1be2c89b69c2b068fc378daa952ba7f163c4a11628f55a4df523b3ef",
            "0x0000000000000000000000003a4db9e7306af09012ceb0f222d581fd1f0c6d71",
            "0x00000000000000000000000079242d2f9a923ab409413edced60f5155d5a8d1e"
          ],
          "data": "0x000000000000000000000000000000000000000000000000000000000007a120",
          "blockHash": "0x9896d16c1a73662f027a29fd6f312f4ded3fdda9bd157906a83469a37c12460d",
          "blockNumber": "0x2036225",
          "transactionHash": "0x2e2bf2312cc34d7b3c9e70d72ba42a7a91020d793ac7a63022e73b5470d8e7f0",
          "transactionIndex": "0x9",
          "logIndex": "0x18",
          "removed": false
        },
        {
          "address": "0x48065fbbe25f71c9282ddf5e1cd6d6a887483d5e",
          "topics": [
            "0x8c5be1e5ebec7d5bd14f71427d1e84f3dd0314c0f7b2291e5b200ac8c7c3b925",
            "0x0000000000000000000000003a4db9e7306af09012ceb0f222d581fd1f0c6d71",
            "0x00000000000000000000000079242d2f9a923ab409413edced60f5155d5a8d1e"
          ],
          "data": "0x0000000000000000000000000000000000000000000000000000000000000000",
          "blockHash": "0x9896d16c1a73662f027a29fd6f312f4ded3fdda9bd157906a83469a37c12460d",
          "blockNumber": "0x2036225",
          "transactionHash": "0x2e2bf2312cc34d7b3c9e70d72ba42a7a91020d793ac7a63022e73b5470d8e7f0",
          "transactionIndex": "0x9",
          "logIndex": "0x19",
          "removed": false
        },
        {
          "address": "0x48065fbbe25f71c9282ddf5e1cd6d6a887483d5e",
          "topics": [
            "0x8c5be1e5ebec7d5bd14f71427d1e84f3dd0314c0f7b2291e5b200ac8c7c3b925",
            "0x00000000000000000000000079242d2f9a923ab409413edced60f5155d5a8d1e",
            "0x0000000000000000000000003e59a31363e2ad014dcbc521c4a0d5757d9f3402"
          ],
          "data": "0x000000000000000000000000000000000000000000000000000000000007a120",
          "blockHash": "0x9896d16c1a73662f027a29fd6f312f4ded3fdda9bd157906a83469a37c12460d",
          "blockNumber": "0x2036225",
          "transactionHash": "0x2e2bf2312cc34d7b3c9e70d72ba42a7a91020d793ac7a63022e73b5470d8e7f0",
          "transactionIndex": "0x9",
          "logIndex": "0x1a",
          "removed": false
        },
        {
          "address": "0x3e59a31363e2ad014dcbc521c4a0d5757d9f3402",
          "topics": [
            "0x804c9b842b2748a22bb64b345453a3de7ca54a6ca45ce00d415894979e22897a",
            "0x00000000000000000000000048065fbbe25f71c9282ddf5e1cd6d6a887483d5e"
          ],
          "data": "0x00000000000000000000000000000000000000000000000b15eca6d3b847ee9a0000000000000000000000000000000000000000000000000000000000000000000000000000000000000000000000000000000000001c268b6b7435d948fcca0000000000000000000000000000000000000000033b5f8e1f24c451d7502a000000000000000000000000000000000000000000033bcc9e5218e20c93a96a30",
          "blockHash": "0x9896d16c1a73662f027a29fd6f312f4ded3fdda9bd157906a83469a37c12460d",
          "blockNumber": "0x2036225",
          "transactionHash": "0x2e2bf2312cc34d7b3c9e70d72ba42a7a91020d793ac7a63022e73b5470d8e7f0",
          "transactionIndex": "0x9",
          "logIndex": "0x1b",
          "removed": false
        },
        {
          "address": "0x48065fbbe25f71c9282ddf5e1cd6d6a887483d5e",
          "topics": [
            "0xddf252ad1be2c89b69c2b068fc378daa952ba7f163c4a11628f55a4df523b3ef",
            "0x00000000000000000000000079242d2f9a923ab409413edced60f5155d5a8d1e",
            "0x000000000000000000000000dee98402a302e4d707fb9bf2bac66faeec31e8df"
          ],
          "data": "0x000000000000000000000000000000000000000000000000000000000007a120",
          "blockHash": "0x9896d16c1a73662f027a29fd6f312f4ded3fdda9bd157906a83469a37c12460d",
          "blockNumber": "0x2036225",
          "transactionHash": "0x2e2bf2312cc34d7b3c9e70d72ba42a7a91020d793ac7a63022e73b5470d8e7f0",
          "transactionIndex": "0x9",
          "logIndex": "0x1c",
          "removed": false
        },
        {
          "address": "0x48065fbbe25f71c9282ddf5e1cd6d6a887483d5e",
          "topics": [
            "0x8c5be1e5ebec7d5bd14f71427d1e84f3dd0314c0f7b2291e5b200ac8c7c3b925",
            "0x00000000000000000000000079242d2f9a923ab409413edced60f5155d5a8d1e",
            "0x0000000000000000000000003e59a31363e2ad014dcbc521c4a0d5757d9f3402"
          ],
          "data": "0x0000000000000000000000000000000000000000000000000000000000000000",
          "blockHash": "0x9896d16c1a73662f027a29fd6f312f4ded3fdda9bd157906a83469a37c12460d",
          "blockNumber": "0x2036225",
          "transactionHash": "0x2e2bf2312cc34d7b3c9e70d72ba42a7a91020d793ac7a63022e73b5470d8e7f0",
          "transactionIndex": "0x9",
          "logIndex": "0x1d",
          "removed": false
        },
        {
          "address": "0xdee98402a302e4d707fb9bf2bac66faeec31e8df",
          "topics": [
            "0xddf252ad1be2c89b69c2b068fc378daa952ba7f163c4a11628f55a4df523b3ef",
            "0x0000000000000000000000000000000000000000000000000000000000000000",
            "0x00000000000000000000000079242d2f9a923ab409413edced60f5155d5a8d1e"
          ],
          "data": "0x000000000000000000000000000000000000000000000000000000000007a120",
          "blockHash": "0x9896d16c1a73662f027a29fd6f312f4ded3fdda9bd157906a83469a37c12460d",
          "blockNumber": "0x2036225",
          "transactionHash": "0x2e2bf2312cc34d7b3c9e70d72ba42a7a91020d793ac7a63022e73b5470d8e7f0",
          "transactionIndex": "0x9",
          "logIndex": "0x1e",
          "removed": false
        },
        {
          "address": "0xdee98402a302e4d707fb9bf2bac66faeec31e8df",
          "topics": [
            "0x458f5fa412d0f69b08dd84872b0215675cc67bc1d5b6fd93300a1c3878b86196",
            "0x00000000000000000000000079242d2f9a923ab409413edced60f5155d5a8d1e",
            "0x00000000000000000000000079242d2f9a923ab409413edced60f5155d5a8d1e"
          ],
          "data": "0x000000000000000000000000000000000000000000000000000000000007a12000000000000000000000000000000000000000000000000000000000000000000000000000000000000000000000000000000000033b5f8e1f24c451d7502a00",
          "blockHash": "0x9896d16c1a73662f027a29fd6f312f4ded3fdda9bd157906a83469a37c12460d",
          "blockNumber": "0x2036225",
          "transactionHash": "0x2e2bf2312cc34d7b3c9e70d72ba42a7a91020d793ac7a63022e73b5470d8e7f0",
          "transactionIndex": "0x9",
          "logIndex": "0x1f",
          "removed": false
        },
        {
          "address": "0x3e59a31363e2ad014dcbc521c4a0d5757d9f3402",
          "topics": [
            "0x00058a56ea94653cdf4f152d227ace22d4c00ad99e2a43f58cb7d9e3feb295f2",
            "0x00000000000000000000000048065fbbe25f71c9282ddf5e1cd6d6a887483d5e",
            "0x00000000000000000000000079242d2f9a923ab409413edced60f5155d5a8d1e"
          ],
          "data": "0x",
          "blockHash": "0x9896d16c1a73662f027a29fd6f312f4ded3fdda9bd157906a83469a37c12460d",
          "blockNumber": "0x2036225",
          "transactionHash": "0x2e2bf2312cc34d7b3c9e70d72ba42a7a91020d793ac7a63022e73b5470d8e7f0",
          "transactionIndex": "0x9",
          "logIndex": "0x20",
          "removed": false
        },
        {
          "address": "0x3e59a31363e2ad014dcbc521c4a0d5757d9f3402",
          "topics": [
            "0x2b627736bca15cd5381dcf80b0bf11fd197d01a037c52b927a881a10fb73ba61",
            "0x00000000000000000000000048065fbbe25f71c9282ddf5e1cd6d6a887483d5e",
            "0x00000000000000000000000079242d2f9a923ab409413edced60f5155d5a8d1e",
            "0x0000000000000000000000000000000000000000000000000000000000000000"
          ],
          "data": "0x00000000000000000000000079242d2f9a923ab409413edced60f5155d5a8d1e000000000000000000000000000000000000000000000000000000000007a120",
          "blockHash": "0x9896d16c1a73662f027a29fd6f312f4ded3fdda9bd157906a83469a37c12460d",
          "blockNumber": "0x2036225",
          "transactionHash": "0x2e2bf2312cc34d7b3c9e70d72ba42a7a91020d793ac7a63022e73b5470d8e7f0",
          "transactionIndex": "0x9",
          "logIndex": "0x21",
          "removed": false
        },
        {
          "address": "0xdbe517c0fa6467873b684eccbed77217e471e862",
          "topics": [
            "0xddf252ad1be2c89b69c2b068fc378daa952ba7f163c4a11628f55a4df523b3ef",
            "0x0000000000000000000000000000000000000000000000000000000000000000",
            "0x00000000000000000000000079242d2f9a923ab409413edced60f5155d5a8d1e"
          ],
          "data": "0x000000000000000000000000000000000000000000000000000000000003d090",
          "blockHash": "0x9896d16c1a73662f027a29fd6f312f4ded3fdda9bd157906a83469a37c12460d",
          "blockNumber": "0x2036225",
          "transactionHash": "0x2e2bf2312cc34d7b3c9e70d72ba42a7a91020d793ac7a63022e73b5470d8e7f0",
          "transactionIndex": "0x9",
          "logIndex": "0x22",
          "removed": false
        },
        {
          "address": "0xdbe517c0fa6467873b684eccbed77217e471e862",
          "topics": [
            "0x458f5fa412d0f69b08dd84872b0215675cc67bc1d5b6fd93300a1c3878b86196",
            "0x00000000000000000000000079242d2f9a923ab409413edced60f5155d5a8d1e",
            "0x00000000000000000000000079242d2f9a923ab409413edced60f5155d5a8d1e"
          ],
          "data": "0x000000000000000000000000000000000000000000000000000000000003d09000000000000000000000000000000000000000000000000000000000000000000000000000000000000000000000000000000000033c4ece0b8526b3666f920d",
          "blockHash": "0x9896d16c1a73662f027a29fd6f312f4ded3fdda9bd157906a83469a37c12460d",
          "blockNumber": "0x2036225",
          "transactionHash": "0x2e2bf2312cc34d7b3c9e70d72ba42a7a91020d793ac7a63022e73b5470d8e7f0",
          "transactionIndex": "0x9",
          "logIndex": "0x23",
          "removed": false
        },
        {
          "address": "0x3e59a31363e2ad014dcbc521c4a0d5757d9f3402",
          "topics": [
            "0x804c9b842b2748a22bb64b345453a3de7ca54a6ca45ce00d415894979e22897a",
            "0x000000000000000000000000ceba9300f2b948710d2653dd7b07f33a8b32118c"
          ],
          "data": "0x00000000000000000000000000000000000000000000d50b3dda710e48b3535b000000000000000000000000000000000000000000000000000000000000000000000000000000000000000000000000000000000007b684c39e469e5b38daa20000000000000000000000000000000000000000033b68b3c664c6c0a182ed180000000000000000000000000000000000000000033c4ece0b8526b3666f920d",
          "blockHash": "0x9896d16c1a73662f027a29fd6f312f4ded3fdda9bd157906a83469a37c12460d",
          "blockNumber": "0x2036225",
          "transactionHash": "0x2e2bf2312cc34d7b3c9e70d72ba42a7a91020d793ac7a63022e73b5470d8e7f0",
          "transactionIndex": "0x9",
          "logIndex": "0x24",
          "removed": false
        },
        {
          "address": "0xceba9300f2b948710d2653dd7b07f33a8b32118c",
          "topics": [
            "0xddf252ad1be2c89b69c2b068fc378daa952ba7f163c4a11628f55a4df523b3ef",
            "0x000000000000000000000000ff8309b9e99bfd2d4021bc71a362abd93dbd4785",
            "0x00000000000000000000000079242d2f9a923ab409413edced60f5155d5a8d1e"
          ],
          "data": "0x000000000000000000000000000000000000000000000000000000000003d090",
          "blockHash": "0x9896d16c1a73662f027a29fd6f312f4ded3fdda9bd157906a83469a37c12460d",
          "blockNumber": "0x2036225",
          "transactionHash": "0x2e2bf2312cc34d7b3c9e70d72ba42a7a91020d793ac7a63022e73b5470d8e7f0",
          "transactionIndex": "0x9",
          "logIndex": "0x25",
          "removed": false
        },
        {
          "address": "0x3e59a31363e2ad014dcbc521c4a0d5757d9f3402",
          "topics": [
            "0xb3d084820fb1a9decffb176436bd02558d15fac9b0ddfed8c465bc7359d7dce0",
            "0x000000000000000000000000ceba9300f2b948710d2653dd7b07f33a8b32118c",
            "0x00000000000000000000000079242d2f9a923ab409413edced60f5155d5a8d1e",
            "0x0000000000000000000000000000000000000000000000000000000000000000"
          ],
          "data": "0x00000000000000000000000079242d2f9a923ab409413edced60f5155d5a8d1e000000000000000000000000000000000000000000000000000000000003d090000000000000000000000000000000000000000000000000000000000000000200000000000000000000000000000000000000000007b684c39e469e5b38daa2",
          "blockHash": "0x9896d16c1a73662f027a29fd6f312f4ded3fdda9bd157906a83469a37c12460d",
          "blockNumber": "0x2036225",
          "transactionHash": "0x2e2bf2312cc34d7b3c9e70d72ba42a7a91020d793ac7a63022e73b5470d8e7f0",
          "transactionIndex": "0x9",
          "logIndex": "0x26",
          "removed": false
        },
        {
          "address": "0xceba9300f2b948710d2653dd7b07f33a8b32118c",
          "topics": [
            "0xddf252ad1be2c89b69c2b068fc378daa952ba7f163c4a11628f55a4df523b3ef",
            "0x00000000000000000000000079242d2f9a923ab409413edced60f5155d5a8d1e",
            "0x0000000000000000000000003a4db9e7306af09012ceb0f222d581fd1f0c6d71"
          ],
          "data": "0x000000000000000000000000000000000000000000000000000000000003d090",
          "blockHash": "0x9896d16c1a73662f027a29fd6f312f4ded3fdda9bd157906a83469a37c12460d",
          "blockNumber": "0x2036225",
          "transactionHash": "0x2e2bf2312cc34d7b3c9e70d72ba42a7a91020d793ac7a63022e73b5470d8e7f0",
          "transactionIndex": "0x9",
          "logIndex": "0x27",
          "removed": false
        },
        {
          "address": "0x79242d2f9a923ab409413edced60f5155d5a8d1e",
          "topics": [
            "0x9f9b498443531d2db9df8a00ec466efc74ba50ec1d82f7badd3424b87930e19a",
            "0x0000000000000000000000000000000000000000000000000000000000000005",
            "0x0000000000000000000000003a4db9e7306af09012ceb0f222d581fd1f0c6d71"
          ],
          "data": "0x00000000000000000000000048065fbbe25f71c9282ddf5e1cd6d6a887483d5e000000000000000000000000000000000000000000000000000000000007a120000000000000000000000000ceba9300f2b948710d2653dd7b07f33a8b32118c000000000000000000000000000000000000000000000000000000000003d0900000000000000000000000000000000000000000000000000000000000000002",
          "blockHash": "0x9896d16c1a73662f027a29fd6f312f4ded3fdda9bd157906a83469a37c12460d",
          "blockNumber": "0x2036225",
          "transactionHash": "0x2e2bf2312cc34d7b3c9e70d72ba42a7a91020d793ac7a63022e73b5470d8e7f0",
          "transactionIndex": "0x9",
          "logIndex": "0x28",
          "removed": false
        }
      ],
      "logsBloom": "0x0000200000000801028012000040000000100000000000000000000008000000000000080000000000002800000440000010000080000000000000000020000000101000800000080000000800000000000000000000000000000004000000000000000002000000000000000000080000000002000000004000001000000000000001008000000000000000000040100000080000000000220000000000000002000110000100000000004000000000100000000000000040000001000001000200000200008120000002a040000040000000000000041000020000000120000010000000004010000800000011000040000000000000000000400000000000",
      "type": "0x0",
      "transactionHash": "0x2e2bf2312cc34d7b3c9e70d72ba42a7a91020d793ac7a63022e73b5470d8e7f0",
      "transactionIndex": "0x9",
      "blockHash": "0x9896d16c1a73662f027a29fd6f312f4ded3fdda9bd157906a83469a37c12460d",
      "blockNumber": "0x2036225",
      "gasUsed": "0x9f057",
      "effectiveGasPrice": "0x5d22cfc40",
      "from": "0x3a4db9e7306af09012ceb0f222d581fd1f0c6d71",
      "to": "0x79242d2f9a923ab409413edced60f5155d5a8d1e",
      "contractAddress": null,
      "l1BaseFeeScalar": "0x0",
      "l1BlobBaseFee": "0x1ce2291bd",
      "l1BlobBaseFeeScalar": "0x0",
      "l1Fee": "0x0",
      "l1GasPrice": "0x2fdd55a9",
      "l1GasUsed": "0x76d"
    }
  ],
  "libraries": [],
  "pending": [],
  "returns": {},
  "timestamp": 1745676924,
  "chain": 42220,
  "commit": "1cefd9d"
}