{
  "transactions": [
    {
      "hash": "0xaa2126141926c1de91e197eb10ad582115455c187506d469ed5e34b916949cfa",
      "transactionType": "CALL",
      "contractName": null,
      "contractAddress": "0x48065fbbe25f71c9282ddf5e1cd6d6a887483d5e",
      "function": "approve(address,uint256)",
      "arguments": [
        "0xd2B508298fCC37261953684744ec4CCc734d5083",
        "500000"
      ],
      "transaction": {
        "from": "0x3a4db9e7306af09012ceb0f222d581fd1f0c6d71",
        "to": "0x48065fbbe25f71c9282ddf5e1cd6d6a887483d5e",
        "gas": "0x1201c",
        "value": "0x0",
        "input": "0x095ea7b3000000000000000000000000d2b508298fcc37261953684744ec4ccc734d5083000000000000000000000000000000000000000000000000000000000007a120",
        "nonce": "0xd3",
        "chainId": "0xa4ec"
      },
      "additionalContracts": [],
      "isFixedGasLimit": false
    },
    {
      "hash": "0x13a05f38e6a3ccdc8bc48c0513f506155b9cbe5fd47141416311f59a845a5ad1",
      "transactionType": "CALL",
      "contractName": null,
      "contractAddress": "0xd2b508298fcc37261953684744ec4ccc734d5083",
      "function": "createPosition(address,uint256,address,uint256,uint256)",
      "arguments": [
        "0x48065fbBE25f71C9282ddf5e1cD6D6A887483D5e",
        "500000",
        "0xcebA9300f2b948710d2653dD7B07f33A8B32118C",
        "250000",
        "2"
      ],
      "transaction": {
        "from": "0x3a4db9e7306af09012ceb0f222d581fd1f0c6d71",
        "to": "0xd2b508298fcc37261953684744ec4ccc734d5083",
        "gas": "0xda84a",
        "value": "0x0",
        "input": "0xb0c3d5df00000000000000000000000048065fbbe25f71c9282ddf5e1cd6d6a887483d5e000000000000000000000000000000000000000000000000000000000007a120000000000000000000000000ceba9300f2b948710d2653dd7b07f33a8b32118c000000000000000000000000000000000000000000000000000000000003d0900000000000000000000000000000000000000000000000000000000000000002",
        "nonce": "0xd4",
        "chainId": "0xa4ec"
      },
      "additionalContracts": [],
      "isFixedGasLimit": false
    },
    {
      "hash": "0xc66caa0c4064e71dc39f45df09eecb6797ac9054953471c1df049c8b69d60b6c",
      "transactionType": "CALL",
      "contractName": null,
      "contractAddress": "0xd2b508298fcc37261953684744ec4ccc734d5083",
      "function": "addCollateralWithPermit(uint256,uint256,uint256,uint8,bytes32,bytes32)",
      "arguments": [
        "7",
        "250000",
        "1745756258",
        "28",
        "0x3d23a1b9187d72e8fee3a7d2dbe10ef1ad3ce981ff39c879f6bf39fdc539a211",
        "0x7cc41906d48a7d50af30edf6d706cc3db96fad461d43b301498ecd32920af869"
      ],
      "transaction": {
        "from": "0x3a4db9e7306af09012ceb0f222d581fd1f0c6d71",
        "to": "0xd2b508298fcc37261953684744ec4ccc734d5083",
        "gas": "0x53652",
        "value": "0x0",
        "input": "0x558e45ba0000000000000000000000000000000000000000000000000000000000000007000000000000000000000000000000000000000000000000000000000003d09000000000000000000000000000000000000000000000000000000000680e2062000000000000000000000000000000000000000000000000000000000000001c3d23a1b9187d72e8fee3a7d2dbe10ef1ad3ce981ff39c879f6bf39fdc539a2117cc41906d48a7d50af30edf6d706cc3db96fad461d43b301498ecd32920af869",
        "nonce": "0xd5",
        "chainId": "0xa4ec"
      },
      "additionalContracts": [],
      "isFixedGasLimit": false
    },
    {
      "hash": "0xce09c5ddf48f536950affbe934bcef46ef79f0b772787cf642aa584dbb9b05f2",
      "transactionType": "CALL",
      "contractName": null,
      "contractAddress": "0xd2b508298fcc37261953684744ec4ccc734d5083",
      "function": "increaseBorrow(uint256,uint256)",
      "arguments": [
        "7",
        "125000"
      ],
      "transaction": {
        "from": "0x3a4db9e7306af09012ceb0f222d581fd1f0c6d71",
        "to": "0xd2b508298fcc37261953684744ec4ccc734d5083",
        "gas": "0x815b7",
        "value": "0x0",
        "input": "0x9e6824d90000000000000000000000000000000000000000000000000000000000000007000000000000000000000000000000000000000000000000000000000001e848",
        "nonce": "0xd6",
        "chainId": "0xa4ec"
      },
      "additionalContracts": [],
      "isFixedGasLimit": false
    },
    {
      "hash": "0xf1873470e4736b2af62f9571d1f8c049222f14fc7213039f1978c686c602822b",
      "transactionType": "CALL",
      "contractName": null,
      "contractAddress": "0xd2b508298fcc37261953684744ec4ccc734d5083",
      "function": "repayDebtWithPermit(uint256,uint256,uint256,uint8,bytes32,bytes32)",
      "arguments": [
        "7",
        "187500",
        "1745756258",
        "28",
        "0x0ce1ea8209f60a38d30a85f15613ba31fd81c83977a7c46ccba0cc92a121658d",
        "0x711174a5415060e79e7be26e0e08b92efbd08a1dc5ec4a1ad6c78b7616e56bc8"
      ],
      "transaction": {
        "from": "0x3a4db9e7306af09012ceb0f222d581fd1f0c6d71",
        "to": "0xd2b508298fcc37261953684744ec4ccc734d5083",
        "gas": "0x5595c",
        "value": "0x0",
        "input": "0xc9a7906a0000000000000000000000000000000000000000000000000000000000000007000000000000000000000000000000000000000000000000000000000002dc6c00000000000000000000000000000000000000000000000000000000680e2062000000000000000000000000000000000000000000000000000000000000001c0ce1ea8209f60a38d30a85f15613ba31fd81c83977a7c46ccba0cc92a121658d711174a5415060e79e7be26e0e08b92efbd08a1dc5ec4a1ad6c78b7616e56bc8",
        "nonce": "0xd7",
        "chainId": "0xa4ec"
      },
      "additionalContracts": [],
      "isFixedGasLimit": false
    },
    {
      "hash": "0x42ff5c137cbf18dcdd16b9aee13104a20f76820184183e8317818b93c161a214",
      "transactionType": "CALL",
      "contractName": null,
      "contractAddress": "0xd2b508298fcc37261953684744ec4ccc734d5083",
      "function": "withdrawCollateral(uint256,uint256)",
      "arguments": [
        "7",
        "150000"
      ],
      "transaction": {
        "from": "0x3a4db9e7306af09012ceb0f222d581fd1f0c6d71",
        "to": "0xd2b508298fcc37261953684744ec4ccc734d5083",
        "gas": "0x75c35",
        "value": "0x0",
        "input": "0x767a7b05000000000000000000000000000000000000000000000000000000000000000700000000000000000000000000000000000000000000000000000000000249f0",
        "nonce": "0xd8",
        "chainId": "0xa4ec"
      },
      "additionalContracts": [],
      "isFixedGasLimit": false
    },
    {
      "hash": "0x432ca7dcc7bc3676455ec15a1adb427e6e009ecf77d40e4084967a3b1da73fe4",
      "transactionType": "CALL",
      "contractName": null,
      "contractAddress": "0xceba9300f2b948710d2653dd7b07f33a8b32118c",
      "function": "approve(address,uint256)",
      "arguments": [
        "0xd2B508298fCC37261953684744ec4CCc734d5083",
        "375000"
      ],
      "transaction": {
        "from": "0x3a4db9e7306af09012ceb0f222d581fd1f0c6d71",
        "to": "0xceba9300f2b948710d2653dd7b07f33a8b32118c",
        "gas": "0x12b1b",
        "value": "0x0",
        "input": "0x095ea7b3000000000000000000000000d2b508298fcc37261953684744ec4ccc734d5083000000000000000000000000000000000000000000000000000000000005b8d8",
        "nonce": "0xd9",
        "chainId": "0xa4ec"
      },
      "additionalContracts": [],
      "isFixedGasLimit": false
    },
    {
      "hash": "0x20d21bea1a279d7acf49e36a945568178270c68d31b6c02cb63dd979e708b7d2",
      "transactionType": "CALL",
      "contractName": null,
      "contractAddress": "0xd2b508298fcc37261953684744ec4ccc734d5083",
      "function": "repayDebt(uint256,uint256)",
      "arguments": [
        "7",
        "187500"
      ],
      "transaction": {
        "from": "0x3a4db9e7306af09012ceb0f222d581fd1f0c6d71",
        "to": "0xd2b508298fcc37261953684744ec4ccc734d5083",
        "gas": "0x485f1",
        "value": "0x0",
        "input": "0x015cb0a50000000000000000000000000000000000000000000000000000000000000007000000000000000000000000000000000000000000000000000000000002dc6c",
        "nonce": "0xda",
        "chainId": "0xa4ec"
      },
      "additionalContracts": [],
      "isFixedGasLimit": false
    },
    {
      "hash": "0x75e057140b6e29d25bedf784b2510309903cb69df17e76209a062f79822c0d89",
      "transactionType": "CALL",
      "contractName": null,
      "contractAddress": "0xd2b508298fcc37261953684744ec4ccc734d5083",
      "function": "withdrawCollateral(uint256,uint256)",
      "arguments": [
        "7",
        "600000"
      ],
      "transaction": {
        "from": "0x3a4db9e7306af09012ceb0f222d581fd1f0c6d71",
        "to": "0xd2b508298fcc37261953684744ec4ccc734d5083",
        "gas": "0x740c9",
        "value": "0x0",
        "input": "0x767a7b05000000000000000000000000000000000000000000000000000000000000000700000000000000000000000000000000000000000000000000000000000927c0",
        "nonce": "0xdb",
        "chainId": "0xa4ec"
      },
      "additionalContracts": [],
      "isFixedGasLimit": false
    }
  ],
  "receipts": [
    {
      "status": "0x1",
      "cumulativeGasUsed": "0xad67f",
      "logs": [
        {
          "address": "0x48065fbbe25f71c9282ddf5e1cd6d6a887483d5e",
          "topics": [
            "0x8c5be1e5ebec7d5bd14f71427d1e84f3dd0314c0f7b2291e5b200ac8c7c3b925",
            "0x0000000000000000000000003a4db9e7306af09012ceb0f222d581fd1f0c6d71",
            "0x000000000000000000000000d2b508298fcc37261953684744ec4ccc734d5083"
          ],
          "data": "0x000000000000000000000000000000000000000000000000000000000007a120",
          "blockHash": "0xa1c9fb81036b2cbf2c8e107a536f80d584a02f0bad2948d75ad418bc0c44b3bc",
          "blockNumber": "0x2048a26",
          "transactionHash": "0xaa2126141926c1de91e197eb10ad582115455c187506d469ed5e34b916949cfa",
          "transactionIndex": "0x7",
          "logIndex": "0x16",
          "removed": false
        }
      ],
      "logsBloom": "0x00000000000000000000000000000000000000000000000000000000000000000000000000000000000000000000000000000000000000000000000000200000000000000000000000000000000000000000000000000000000000000000000000000000000000000000000000000000000000000000000040000000000000000000010000000000000000000000400000000000000000000000000000000000020000000000000000000000000000000000000000000000000000000000000000000000000080000000008000000000000000000000001000000000000000000110100000000000000000000000000000000000000010000000000000000000",
      "type": "0x0",
      "transactionHash": "0xaa2126141926c1de91e197eb10ad582115455c187506d469ed5e34b916949cfa",
      "transactionIndex": "0x7",
      "blockHash": "0xa1c9fb81036b2cbf2c8e107a536f80d584a02f0bad2948d75ad418bc0c44b3bc",
      "blockNumber": "0x2048a26",
      "gasUsed": "0xd097",
      "effectiveGasPrice": "0x5d22cfc40",
      "from": "0x3a4db9e7306af09012ceb0f222d581fd1f0c6d71",
      "to": "0x48065fbbe25f71c9282ddf5e1cd6d6a887483d5e",
      "contractAddress": null,
      "l1BaseFeeScalar": "0x0",
      "l1BlobBaseFee": "0x601a44b2",
      "l1BlobBaseFeeScalar": "0x0",
      "l1Fee": "0x0",
      "l1GasPrice": "0x17178799",
      "l1GasUsed": "0x640"
    },
    {
      "status": "0x1",
      "cumulativeGasUsed": "0x14b9bf",
      "logs": [
        {
          "address": "0x48065fbbe25f71c9282ddf5e1cd6d6a887483d5e",
          "topics": [
            "0xddf252ad1be2c89b69c2b068fc378daa952ba7f163c4a11628f55a4df523b3ef",
            "0x0000000000000000000000003a4db9e7306af09012ceb0f222d581fd1f0c6d71",
            "0x000000000000000000000000d2b508298fcc37261953684744ec4ccc734d5083"
          ],
          "data": "0x000000000000000000000000000000000000000000000000000000000007a120",
          "blockHash": "0xa1c9fb81036b2cbf2c8e107a536f80d584a02f0bad2948d75ad418bc0c44b3bc",
          "blockNumber": "0x2048a26",
          "transactionHash": "0x13a05f38e6a3ccdc8bc48c0513f506155b9cbe5fd47141416311f59a845a5ad1",
          "transactionIndex": "0x8",
          "logIndex": "0x17",
          "removed": false
        },
        {
          "address": "0x48065fbbe25f71c9282ddf5e1cd6d6a887483d5e",
          "topics": [
            "0x8c5be1e5ebec7d5bd14f71427d1e84f3dd0314c0f7b2291e5b200ac8c7c3b925",
            "0x0000000000000000000000003a4db9e7306af09012ceb0f222d581fd1f0c6d71",
            "0x000000000000000000000000d2b508298fcc37261953684744ec4ccc734d5083"
          ],
          "data": "0x0000000000000000000000000000000000000000000000000000000000000000",
          "blockHash": "0xa1c9fb81036b2cbf2c8e107a536f80d584a02f0bad2948d75ad418bc0c44b3bc",
          "blockNumber": "0x2048a26",
          "transactionHash": "0x13a05f38e6a3ccdc8bc48c0513f506155b9cbe5fd47141416311f59a845a5ad1",
          "transactionIndex": "0x8",
          "logIndex": "0x18",
          "removed": false
        },
        {
          "address": "0x48065fbbe25f71c9282ddf5e1cd6d6a887483d5e",
          "topics": [
            "0x8c5be1e5ebec7d5bd14f71427d1e84f3dd0314c0f7b2291e5b200ac8c7c3b925",
            "0x000000000000000000000000d2b508298fcc37261953684744ec4ccc734d5083",
            "0x0000000000000000000000003e59a31363e2ad014dcbc521c4a0d5757d9f3402"
          ],
          "data": "0x000000000000000000000000000000000000000000000000000000000007a120",
          "blockHash": "0xa1c9fb81036b2cbf2c8e107a536f80d584a02f0bad2948d75ad418bc0c44b3bc",
          "blockNumber": "0x2048a26",
          "transactionHash": "0x13a05f38e6a3ccdc8bc48c0513f506155b9cbe5fd47141416311f59a845a5ad1",
          "transactionIndex": "0x8",
          "logIndex": "0x19",
          "removed": false
        },
        {
          "address": "0x3e59a31363e2ad014dcbc521c4a0d5757d9f3402",
          "topics": [
            "0x804c9b842b2748a22bb64b345453a3de7ca54a6ca45ce00d415894979e22897a",
            "0x00000000000000000000000048065fbbe25f71c9282ddf5e1cd6d6a887483d5e"
          ],
          "data": "0x00000000000000000000000000000000000000000000000b15eb17e7a13ffc030000000000000000000000000000000000000000000000000000000000000000000000000000000000000000000000000000000000001c268970f2a29afa0d840000000000000000000000000000000000000000033b5f8e25f6e109cfd5d8180000000000000000000000000000000000000000033bccafa669647c770cc694",
          "blockHash": "0xa1c9fb81036b2cbf2c8e107a536f80d584a02f0bad2948d75ad418bc0c44b3bc",
          "blockNumber": "0x2048a26",
          "transactionHash": "0x13a05f38e6a3ccdc8bc48c0513f506155b9cbe5fd47141416311f59a845a5ad1",
          "transactionIndex": "0x8",
          "logIndex": "0x1a",
          "removed": false
        },
        {
          "address": "0x48065fbbe25f71c9282ddf5e1cd6d6a887483d5e",
          "topics": [
            "0xddf252ad1be2c89b69c2b068fc378daa952ba7f163c4a11628f55a4df523b3ef",
            "0x000000000000000000000000d2b508298fcc37261953684744ec4ccc734d5083",
            "0x000000000000000000000000dee98402a302e4d707fb9bf2bac66faeec31e8df"
          ],
          "data": "0x000000000000000000000000000000000000000000000000000000000007a120",
          "blockHash": "0xa1c9fb81036b2cbf2c8e107a536f80d584a02f0bad2948d75ad418bc0c44b3bc",
          "blockNumber": "0x2048a26",
          "transactionHash": "0x13a05f38e6a3ccdc8bc48c0513f506155b9cbe5fd47141416311f59a845a5ad1",
          "transactionIndex": "0x8",
          "logIndex": "0x1b",
          "removed": false
        },
        {
          "address": "0x48065fbbe25f71c9282ddf5e1cd6d6a887483d5e",
          "topics": [
            "0x8c5be1e5ebec7d5bd14f71427d1e84f3dd0314c0f7b2291e5b200ac8c7c3b925",
            "0x000000000000000000000000d2b508298fcc37261953684744ec4ccc734d5083",
            "0x0000000000000000000000003e59a31363e2ad014dcbc521c4a0d5757d9f3402"
          ],
          "data": "0x0000000000000000000000000000000000000000000000000000000000000000",
          "blockHash": "0xa1c9fb81036b2cbf2c8e107a536f80d584a02f0bad2948d75ad418bc0c44b3bc",
          "blockNumber": "0x2048a26",
          "transactionHash": "0x13a05f38e6a3ccdc8bc48c0513f506155b9cbe5fd47141416311f59a845a5ad1",
          "transactionIndex": "0x8",
          "logIndex": "0x1c",
          "removed": false
        },
        {
          "address": "0xdee98402a302e4d707fb9bf2bac66faeec31e8df",
          "topics": [
            "0xddf252ad1be2c89b69c2b068fc378daa952ba7f163c4a11628f55a4df523b3ef",
            "0x0000000000000000000000000000000000000000000000000000000000000000",
            "0x000000000000000000000000d2b508298fcc37261953684744ec4ccc734d5083"
          ],
          "data": "0x000000000000000000000000000000000000000000000000000000000007a120",
          "blockHash": "0xa1c9fb81036b2cbf2c8e107a536f80d584a02f0bad2948d75ad418bc0c44b3bc",
          "blockNumber": "0x2048a26",
          "transactionHash": "0x13a05f38e6a3ccdc8bc48c0513f506155b9cbe5fd47141416311f59a845a5ad1",
          "transactionIndex": "0x8",
          "logIndex": "0x1d",
          "removed": false
        },
        {
          "address": "0xdee98402a302e4d707fb9bf2bac66faeec31e8df",
          "topics": [
            "0x458f5fa412d0f69b08dd84872b0215675cc67bc1d5b6fd93300a1c3878b86196",
            "0x000000000000000000000000d2b508298fcc37261953684744ec4ccc734d5083",
            "0x000000000000000000000000d2b508298fcc37261953684744ec4ccc734d5083"
          ],
          "data": "0x000000000000000000000000000000000000000000000000000000000007a12000000000000000000000000000000000000000000000000000000000000000000000000000000000000000000000000000000000033b5f8e25f6e109cfd5d818",
          "blockHash": "0xa1c9fb81036b2cbf2c8e107a536f80d584a02f0bad2948d75ad418bc0c44b3bc",
          "blockNumber": "0x2048a26",
          "transactionHash": "0x13a05f38e6a3ccdc8bc48c0513f506155b9cbe5fd47141416311f59a845a5ad1",
          "transactionIndex": "0x8",
          "logIndex": "0x1e",
          "removed": false
        },
        {
          "address": "0x3e59a31363e2ad014dcbc521c4a0d5757d9f3402",
          "topics": [
            "0x2b627736bca15cd5381dcf80b0bf11fd197d01a037c52b927a881a10fb73ba61",
            "0x00000000000000000000000048065fbbe25f71c9282ddf5e1cd6d6a887483d5e",
            "0x000000000000000000000000d2b508298fcc37261953684744ec4ccc734d5083",
            "0x0000000000000000000000000000000000000000000000000000000000000000"
          ],
          "data": "0x000000000000000000000000d2b508298fcc37261953684744ec4ccc734d5083000000000000000000000000000000000000000000000000000000000007a120",
          "blockHash": "0xa1c9fb81036b2cbf2c8e107a536f80d584a02f0bad2948d75ad418bc0c44b3bc",
          "blockNumber": "0x2048a26",
          "transactionHash": "0x13a05f38e6a3ccdc8bc48c0513f506155b9cbe5fd47141416311f59a845a5ad1",
          "transactionIndex": "0x8",
          "logIndex": "0x1f",
          "removed": false
        },
        {
          "address": "0xdbe517c0fa6467873b684eccbed77217e471e862",
          "topics": [
            "0xddf252ad1be2c89b69c2b068fc378daa952ba7f163c4a11628f55a4df523b3ef",
            "0x0000000000000000000000000000000000000000000000000000000000000000",
            "0x000000000000000000000000d2b508298fcc37261953684744ec4ccc734d5083"
          ],
          "data": "0x000000000000000000000000000000000000000000000000000000000003d090",
          "blockHash": "0xa1c9fb81036b2cbf2c8e107a536f80d584a02f0bad2948d75ad418bc0c44b3bc",
          "blockNumber": "0x2048a26",
          "transactionHash": "0x13a05f38e6a3ccdc8bc48c0513f506155b9cbe5fd47141416311f59a845a5ad1",
          "transactionIndex": "0x8",
          "logIndex": "0x20",
          "removed": false
        },
        {
          "address": "0xdbe517c0fa6467873b684eccbed77217e471e862",
          "topics": [
            "0x458f5fa412d0f69b08dd84872b0215675cc67bc1d5b6fd93300a1c3878b86196",
            "0x000000000000000000000000d2b508298fcc37261953684744ec4ccc734d5083",
            "0x000000000000000000000000d2b508298fcc37261953684744ec4ccc734d5083"
          ],
          "data": "0x000000000000000000000000000000000000000000000000000000000003d09000000000000000000000000000000000000000000000000000000000000000000000000000000000000000000000000000000000033c538ed78c4ba6815a658b",
          "blockHash": "0xa1c9fb81036b2cbf2c8e107a536f80d584a02f0bad2948d75ad418bc0c44b3bc",
          "blockNumber": "0x2048a26",
          "transactionHash": "0x13a05f38e6a3ccdc8bc48c0513f506155b9cbe5fd47141416311f59a845a5ad1",
          "transactionIndex": "0x8",
          "logIndex": "0x21",
          "removed": false
        },
        {
          "address": "0x3e59a31363e2ad014dcbc521c4a0d5757d9f3402",
          "topics": [
            "0x804c9b842b2748a22bb64b345453a3de7ca54a6ca45ce00d415894979e22897a",
            "0x000000000000000000000000ceba9300f2b948710d2653dd7b07f33a8b32118c"
          ],
          "data": "0x00000000000000000000000000000000000000000000d614e68357c4cab9c268000000000000000000000000000000000000000000000000000000000000000000000000000000000000000000000000000000000007bb52594f5f9eb22b4f3a0000000000000000000000000000000000000000033b6936fa14dbc769b61cd40000000000000000000000000000000000000000033c538ed78c4ba6815a658b",
          "blockHash": "0xa1c9fb81036b2cbf2c8e107a536f80d584a02f0bad2948d75ad418bc0c44b3bc",
          "blockNumber": "0x2048a26",
          "transactionHash": "0x13a05f38e6a3ccdc8bc48c0513f506155b9cbe5fd47141416311f59a845a5ad1",
          "transactionIndex": "0x8",
          "logIndex": "0x22",
          "removed": false
        },
        {
          "address": "0xceba9300f2b948710d2653dd7b07f33a8b32118c",
          "topics": [
            "0xddf252ad1be2c89b69c2b068fc378daa952ba7f163c4a11628f55a4df523b3ef",
            "0x000000000000000000000000ff8309b9e99bfd2d4021bc71a362abd93dbd4785",
            "0x000000000000000000000000d2b508298fcc37261953684744ec4ccc734d5083"
          ],
          "data": "0x000000000000000000000000000000000000000000000000000000000003d090",
          "blockHash": "0xa1c9fb81036b2cbf2c8e107a536f80d584a02f0bad2948d75ad418bc0c44b3bc",
          "blockNumber": "0x2048a26",
          "transactionHash": "0x13a05f38e6a3ccdc8bc48c0513f506155b9cbe5fd47141416311f59a845a5ad1",
          "transactionIndex": "0x8",
          "logIndex": "0x23",
          "removed": false
        },
        {
          "address": "0x3e59a31363e2ad014dcbc521c4a0d5757d9f3402",
          "topics": [
            "0xb3d084820fb1a9decffb176436bd02558d15fac9b0ddfed8c465bc7359d7dce0",
            "0x000000000000000000000000ceba9300f2b948710d2653dd7b07f33a8b32118c",
            "0x000000000000000000000000d2b508298fcc37261953684744ec4ccc734d5083",
            "0x0000000000000000000000000000000000000000000000000000000000000000"
          ],
          "data": "0x000000000000000000000000d2b508298fcc37261953684744ec4ccc734d5083000000000000000000000000000000000000000000000000000000000003d090000000000000000000000000000000000000000000000000000000000000000200000000000000000000000000000000000000000007bb52594f5f9eb22b4f3a",
          "blockHash": "0xa1c9fb81036b2cbf2c8e107a536f80d584a02f0bad2948d75ad418bc0c44b3bc",
          "blockNumber": "0x2048a26",
          "transactionHash": "0x13a05f38e6a3ccdc8bc48c0513f506155b9cbe5fd47141416311f59a845a5ad1",
          "transactionIndex": "0x8",
          "logIndex": "0x24",
          "removed": false
        },
        {
          "address": "0xceba9300f2b948710d2653dd7b07f33a8b32118c",
          "topics": [
            "0xddf252ad1be2c89b69c2b068fc378daa952ba7f163c4a11628f55a4df523b3ef",
            "0x000000000000000000000000d2b508298fcc37261953684744ec4ccc734d5083",
            "0x0000000000000000000000003a4db9e7306af09012ceb0f222d581fd1f0c6d71"
          ],
          "data": "0x000000000000000000000000000000000000000000000000000000000003d090",
          "blockHash": "0xa1c9fb81036b2cbf2c8e107a536f80d584a02f0bad2948d75ad418bc0c44b3bc",
          "blockNumber": "0x2048a26",
          "transactionHash": "0x13a05f38e6a3ccdc8bc48c0513f506155b9cbe5fd47141416311f59a845a5ad1",
          "transactionIndex": "0x8",
          "logIndex": "0x25",
          "removed": false
        },
        {
          "address": "0xd2b508298fcc37261953684744ec4ccc734d5083",
          "topics": [
            "0x9f9b498443531d2db9df8a00ec466efc74ba50ec1d82f7badd3424b87930e19a",
            "0x0000000000000000000000000000000000000000000000000000000000000007",
            "0x0000000000000000000000003a4db9e7306af09012ceb0f222d581fd1f0c6d71"
          ],
          "data": "0x00000000000000000000000048065fbbe25f71c9282ddf5e1cd6d6a887483d5e000000000000000000000000000000000000000000000000000000000007a120000000000000000000000000ceba9300f2b948710d2653dd7b07f33a8b32118c000000000000000000000000000000000000000000000000000000000003d0900000000000000000000000000000000000000000000000000000000000000002",
          "blockHash": "0xa1c9fb81036b2cbf2c8e107a536f80d584a02f0bad2948d75ad418bc0c44b3bc",
          "blockNumber": "0x2048a26",
          "transactionHash": "0x13a05f38e6a3ccdc8bc48c0513f506155b9cbe5fd47141416311f59a845a5ad1",
          "transactionIndex": "0x8",
          "logIndex": "0x26",
          "removed": false
        }
      ],
      "logsBloom": "0x0000000000000011020012000040000000100000000000000000000000000010000000080000000000002000000440000010100080000000000000000020000000002000800000080000000800000000000000000000000000000004000000000000000002000000000000000000080000000002000000004000001000000000000001000000000000000000000040000000000000000000220000000000000002000110000100000000004000000000100000000000000040000000000001000200000200008120000002a040000040000000000000041800020100000120000110100000004010000800000001000040000000000010000000400000000000",
      "type": "0x0",
      "transactionHash": "0x13a05f38e6a3ccdc8bc48c0513f506155b9cbe5fd47141416311f59a845a5ad1",
      "transactionIndex": "0x8",
      "blockHash": "0xa1c9fb81036b2cbf2c8e107a536f80d584a02f0bad2948d75ad418bc0c44b3bc",
      "blockNumber": "0x2048a26",
      "gasUsed": "0x9e340",
      "effectiveGasPrice": "0x5d22cfc40",
      "from": "0x3a4db9e7306af09012ceb0f222d581fd1f0c6d71",
      "to": "0xd2b508298fcc37261953684744ec4ccc734d5083",
      "contractAddress": null,
      "l1BaseFeeScalar": "0x0",
      "l1BlobBaseFee": "0x601a44b2",
      "l1BlobBaseFeeScalar": "0x0",
      "l1Fee": "0x0",
      "l1GasPrice": "0x17178799",
      "l1GasUsed": "0x77b"
    },
    {
      "status": "0x1",
      "cumulativeGasUsed": "0x165adf",
      "logs": [
        {
          "address": "0x48065fbbe25f71c9282ddf5e1cd6d6a887483d5e",
          "topics": [
            "0x8c5be1e5ebec7d5bd14f71427d1e84f3dd0314c0f7b2291e5b200ac8c7c3b925",
            "0x0000000000000000000000003a4db9e7306af09012ceb0f222d581fd1f0c6d71",
            "0x000000000000000000000000d2b508298fcc37261953684744ec4ccc734d5083"
          ],
          "data": "0x000000000000000000000000000000000000000000000000000000000003d090",
          "blockHash": "0x354a38b55384ee2ce72becc033959d661449615a80ecc825baaa57c811e7b96b",
          "blockNumber": "0x2048a27",
          "transactionHash": "0xc66caa0c4064e71dc39f45df09eecb6797ac9054953471c1df049c8b69d60b6c",
          "transactionIndex": "0xb",
          "logIndex": "0x18",
          "removed": false
        },
        {
          "address": "0x48065fbbe25f71c9282ddf5e1cd6d6a887483d5e",
          "topics": [
            "0xddf252ad1be2c89b69c2b068fc378daa952ba7f163c4a11628f55a4df523b3ef",
            "0x0000000000000000000000003a4db9e7306af09012ceb0f222d581fd1f0c6d71",
            "0x000000000000000000000000d2b508298fcc37261953684744ec4ccc734d5083"
          ],
          "data": "0x000000000000000000000000000000000000000000000000000000000003d090",
          "blockHash": "0x354a38b55384ee2ce72becc033959d661449615a80ecc825baaa57c811e7b96b",
          "blockNumber": "0x2048a27",
          "transactionHash": "0xc66caa0c4064e71dc39f45df09eecb6797ac9054953471c1df049c8b69d60b6c",
          "transactionIndex": "0xb",
          "logIndex": "0x19",
          "removed": false
        },
        {
          "address": "0x48065fbbe25f71c9282ddf5e1cd6d6a887483d5e",
          "topics": [
            "0x8c5be1e5ebec7d5bd14f71427d1e84f3dd0314c0f7b2291e5b200ac8c7c3b925",
            "0x0000000000000000000000003a4db9e7306af09012ceb0f222d581fd1f0c6d71",
            "0x000000000000000000000000d2b508298fcc37261953684744ec4ccc734d5083"
          ],
          "data": "0x0000000000000000000000000000000000000000000000000000000000000000",
          "blockHash": "0x354a38b55384ee2ce72becc033959d661449615a80ecc825baaa57c811e7b96b",
          "blockNumber": "0x2048a27",
          "transactionHash": "0xc66caa0c4064e71dc39f45df09eecb6797ac9054953471c1df049c8b69d60b6c",
          "transactionIndex": "0xb",
          "logIndex": "0x1a",
          "removed": false
        },
        {
          "address": "0x48065fbbe25f71c9282ddf5e1cd6d6a887483d5e",
          "topics": [
            "0x8c5be1e5ebec7d5bd14f71427d1e84f3dd0314c0f7b2291e5b200ac8c7c3b925",
            "0x000000000000000000000000d2b508298fcc37261953684744ec4ccc734d5083",
            "0x0000000000000000000000003e59a31363e2ad014dcbc521c4a0d5757d9f3402"
          ],
          "data": "0x000000000000000000000000000000000000000000000000000000000003d090",
          "blockHash": "0x354a38b55384ee2ce72becc033959d661449615a80ecc825baaa57c811e7b96b",
          "blockNumber": "0x2048a27",
          "transactionHash": "0xc66caa0c4064e71dc39f45df09eecb6797ac9054953471c1df049c8b69d60b6c",
          "transactionIndex": "0xb",
          "logIndex": "0x1b",
          "removed": false
        },
        {
          "address": "0x3e59a31363e2ad014dcbc521c4a0d5757d9f3402",
          "topics": [
            "0x804c9b842b2748a22bb64b345453a3de7ca54a6ca45ce00d415894979e22897a",
            "0x00000000000000000000000048065fbbe25f71c9282ddf5e1cd6d6a887483d5e"
          ],
          "data": "0x00000000000000000000000000000000000000000000000b15eaf858ca5719510000000000000000000000000000000000000000000000000000000000000000000000000000000000000000000000000000000000001c268948e1093af9e7270000000000000000000000000000000000000000033b5f8e25f6e6eff11995210000000000000000000000000000000000000000033bccafa678613f4671856e",
          "blockHash": "0x354a38b55384ee2ce72becc033959d661449615a80ecc825baaa57c811e7b96b",
          "blockNumber": "0x2048a27",
          "transactionHash": "0xc66caa0c4064e71dc39f45df09eecb6797ac9054953471c1df049c8b69d60b6c",
          "transactionIndex": "0xb",
          "logIndex": "0x1c",
          "removed": false
        },
        {
          "address": "0x48065fbbe25f71c9282ddf5e1cd6d6a887483d5e",
          "topics": [
            "0xddf252ad1be2c89b69c2b068fc378daa952ba7f163c4a11628f55a4df523b3ef",
            "0x000000000000000000000000d2b508298fcc37261953684744ec4ccc734d5083",
            "0x000000000000000000000000dee98402a302e4d707fb9bf2bac66faeec31e8df"
          ],
          "data": "0x000000000000000000000000000000000000000000000000000000000003d090",
          "blockHash": "0x354a38b55384ee2ce72becc033959d661449615a80ecc825baaa57c811e7b96b",
          "blockNumber": "0x2048a27",
          "transactionHash": "0xc66caa0c4064e71dc39f45df09eecb6797ac9054953471c1df049c8b69d60b6c",
          "transactionIndex": "0xb",
          "logIndex": "0x1d",
          "removed": false
        },
        {
          "address": "0x48065fbbe25f71c9282ddf5e1cd6d6a887483d5e",
          "topics": [
            "0x8c5be1e5ebec7d5bd14f71427d1e84f3dd0314c0f7b2291e5b200ac8c7c3b925",
            "0x000000000000000000000000d2b508298fcc37261953684744ec4ccc734d5083",
            "0x0000000000000000000000003e59a31363e2ad014dcbc521c4a0d5757d9f3402"
          ],
          "data": "0x0000000000000000000000000000000000000000000000000000000000000000",
          "blockHash": "0x354a38b55384ee2ce72becc033959d661449615a80ecc825baaa57c811e7b96b",
          "blockNumber": "0x2048a27",
          "transactionHash": "0xc66caa0c4064e71dc39f45df09eecb6797ac9054953471c1df049c8b69d60b6c",
          "transactionIndex": "0xb",
          "logIndex": "0x1e",
          "removed": false
        },
        {
          "address": "0xdee98402a302e4d707fb9bf2bac66faeec31e8df",
          "topics": [
            "0xddf252ad1be2c89b69c2b068fc378daa952ba7f163c4a11628f55a4df523b3ef",
            "0x0000000000000000000000000000000000000000000000000000000000000000",
            "0x000000000000000000000000d2b508298fcc37261953684744ec4ccc734d5083"
          ],
          "data": "0x000000000000000000000000000000000000000000000000000000000003d090",
          "blockHash": "0x354a38b55384ee2ce72becc033959d661449615a80ecc825baaa57c811e7b96b",
          "blockNumber": "0x2048a27",
          "transactionHash": "0xc66caa0c4064e71dc39f45df09eecb6797ac9054953471c1df049c8b69d60b6c",
          "transactionIndex": "0xb",
          "logIndex": "0x1f",
          "removed": false
        },
        {
          "address": "0xdee98402a302e4d707fb9bf2bac66faeec31e8df",
          "topics": [
            "0x458f5fa412d0f69b08dd84872b0215675cc67bc1d5b6fd93300a1c3878b86196",
            "0x000000000000000000000000d2b508298fcc37261953684744ec4ccc734d5083",
            "0x000000000000000000000000d2b508298fcc37261953684744ec4ccc734d5083"
          ],
          "data": "0x000000000000000000000000000000000000000000000000000000000003d09000000000000000000000000000000000000000000000000000000000000000000000000000000000000000000000000000000000033b5f8e25f6e6eff1199521",
          "blockHash": "0x354a38b55384ee2ce72becc033959d661449615a80ecc825baaa57c811e7b96b",
          "blockNumber": "0x2048a27",
          "transactionHash": "0xc66caa0c4064e71dc39f45df09eecb6797ac9054953471c1df049c8b69d60b6c",
          "transactionIndex": "0xb",
          "logIndex": "0x20",
          "removed": false
        },
        {
          "address": "0x3e59a31363e2ad014dcbc521c4a0d5757d9f3402",
          "topics": [
            "0x2b627736bca15cd5381dcf80b0bf11fd197d01a037c52b927a881a10fb73ba61",
            "0x00000000000000000000000048065fbbe25f71c9282ddf5e1cd6d6a887483d5e",
            "0x000000000000000000000000d2b508298fcc37261953684744ec4ccc734d5083",
            "0x0000000000000000000000000000000000000000000000000000000000000000"
          ],
          "data": "0x000000000000000000000000d2b508298fcc37261953684744ec4ccc734d5083000000000000000000000000000000000000000000000000000000000003d090",
          "blockHash": "0x354a38b55384ee2ce72becc033959d661449615a80ecc825baaa57c811e7b96b",
          "blockNumber": "0x2048a27",
          "transactionHash": "0xc66caa0c4064e71dc39f45df09eecb6797ac9054953471c1df049c8b69d60b6c",
          "transactionIndex": "0xb",
          "logIndex": "0x21",
          "removed": false
        },
        {
          "address": "0xd2b508298fcc37261953684744ec4ccc734d5083",
          "topics": [
            "0x244160b15e69cc411f041d94ae7fab6f6bba85dade8403216c05ff4b920d5449",
            "0x0000000000000000000000000000000000000000000000000000000000000007"
          ],
          "data": "0x000000000000000000000000000000000000000000000000000000000003d090",
          "blockHash": "0x354a38b55384ee2ce72becc033959d661449615a80ecc825baaa57c811e7b96b",
          "blockNumber": "0x2048a27",
          "transactionHash": "0xc66caa0c4064e71dc39f45df09eecb6797ac9054953471c1df049c8b69d60b6c",
          "transactionIndex": "0xb",
          "logIndex": "0x22",
          "removed": false
        }
      ],
      "logsBloom": "0x0000000000000011020002000000000000100000000000000000000000000010000000080000000000000000000400000000100080020000000000000020000000002000000000080000000800000000000000000000000000000004000000000000000002000000000000000000080000000000000000004000001000000000000001000000000000000000000040000000000000000000020000000000000002000010000100000000004000000000100000000000000040000000000001000200000200008000000000a040000050000000000000001800000100000120000110100000000080000000000000000040000000000010000000400000000000",
      "type": "0x0",
      "transactionHash": "0xc66caa0c4064e71dc39f45df09eecb6797ac9054953471c1df049c8b69d60b6c",
      "transactionIndex": "0xb",
      "blockHash": "0x354a38b55384ee2ce72becc033959d661449615a80ecc825baaa57c811e7b96b",
      "blockNumber": "0x2048a27",
      "gasUsed": "0x3dfc5",
      "effectiveGasPrice": "0x5d22cfc40",
      "from": "0x3a4db9e7306af09012ceb0f222d581fd1f0c6d71",
      "to": "0xd2b508298fcc37261953684744ec4ccc734d5083",
      "contractAddress": null,
      "l1BaseFeeScalar": "0x0",
      "l1BlobBaseFee": "0x601a44b2",
      "l1BlobBaseFeeScalar": "0x0",
      "l1Fee": "0x0",
      "l1GasPrice": "0x17178799",
      "l1GasUsed": "0x85e"
    },
    {
      "status": "0x1",
      "cumulativeGasUsed": "0x1cbb64",
      "logs": [
        {
          "address": "0xdbe517c0fa6467873b684eccbed77217e471e862",
          "topics": [
            "0xddf252ad1be2c89b69c2b068fc378daa952ba7f163c4a11628f55a4df523b3ef",
            "0x0000000000000000000000000000000000000000000000000000000000000000",
            "0x000000000000000000000000d2b508298fcc37261953684744ec4ccc734d5083"
          ],
          "data": "0x000000000000000000000000000000000000000000000000000000000001e848",
          "blockHash": "0x354a38b55384ee2ce72becc033959d661449615a80ecc825baaa57c811e7b96b",
          "blockNumber": "0x2048a27",
          "transactionHash": "0xce09c5ddf48f536950affbe934bcef46ef79f0b772787cf642aa584dbb9b05f2",
          "transactionIndex": "0xd",
          "logIndex": "0x24",
          "removed": false
        },
        {
          "address": "0xdbe517c0fa6467873b684eccbed77217e471e862",
          "topics": [
            "0x458f5fa412d0f69b08dd84872b0215675cc67bc1d5b6fd93300a1c3878b86196",
            "0x000000000000000000000000d2b508298fcc37261953684744ec4ccc734d5083",
            "0x000000000000000000000000d2b508298fcc37261953684744ec4ccc734d5083"
          ],
          "data": "0x000000000000000000000000000000000000000000000000000000000001e84800000000000000000000000000000000000000000000000000000000000000000000000000000000000000000000000000000000033c538edbaac1daded5dbed",
          "blockHash": "0x354a38b55384ee2ce72becc033959d661449615a80ecc825baaa57c811e7b96b",
          "blockNumber": "0x2048a27",
          "transactionHash": "0xce09c5ddf48f536950affbe934bcef46ef79f0b772787cf642aa584dbb9b05f2",
          "transactionIndex": "0xd",
          "logIndex": "0x25",
          "removed": false
        },
        {
          "address": "0x3e59a31363e2ad014dcbc521c4a0d5757d9f3402",
          "topics": [
            "0x804c9b842b2748a22bb64b345453a3de7ca54a6ca45ce00d415894979e22897a",
            "0x000000000000000000000000ceba9300f2b948710d2653dd7b07f33a8b32118c"
          ],
          "data": "0x00000000000000000000000000000000000000000000d615097bd5c25c8de1d6000000000000000000000000000000000000000000000000000000000000000000000000000000000000000000000000000000000007bb52faf91adf4250e06e0000000000000000000000000000000000000000033b6936fa86c837bb2357790000000000000000000000000000000000000000033c538edbaac1daded5dbed",
          "blockHash": "0x354a38b55384ee2ce72becc033959d661449615a80ecc825baaa57c811e7b96b",
          "blockNumber": "0x2048a27",
          "transactionHash": "0xce09c5ddf48f536950affbe934bcef46ef79f0b772787cf642aa584dbb9b05f2",
          "transactionIndex": "0xd",
          "logIndex": "0x26",
          "removed": false
        },
        {
          "address": "0xceba9300f2b948710d2653dd7b07f33a8b32118c",
          "topics": [
            "0xddf252ad1be2c89b69c2b068fc378daa952ba7f163c4a11628f55a4df523b3ef",
            "0x000000000000000000000000ff8309b9e99bfd2d4021bc71a362abd93dbd4785",
            "0x000000000000000000000000d2b508298fcc37261953684744ec4ccc734d5083"
          ],
          "data": "0x000000000000000000000000000000000000000000000000000000000001e848",
          "blockHash": "0x354a38b55384ee2ce72becc033959d661449615a80ecc825baaa57c811e7b96b",
          "blockNumber": "0x2048a27",
          "transactionHash": "0xce09c5ddf48f536950affbe934bcef46ef79f0b772787cf642aa584dbb9b05f2",
          "transactionIndex": "0xd",
          "logIndex": "0x27",
          "removed": false
        },
        {
          "address": "0x3e59a31363e2ad014dcbc521c4a0d5757d9f3402",
          "topics": [
            "0xb3d084820fb1a9decffb176436bd02558d15fac9b0ddfed8c465bc7359d7dce0",
            "0x000000000000000000000000ceba9300f2b948710d2653dd7b07f33a8b32118c",
            "0x000000000000000000000000d2b508298fcc37261953684744ec4ccc734d5083",
            "0x0000000000000000000000000000000000000000000000000000000000000000"
          ],
          "data": "0x000000000000000000000000d2b508298fcc37261953684744ec4ccc734d5083000000000000000000000000000000000000000000000000000000000001e848000000000000000000000000000000000000000000000000000000000000000200000000000000000000000000000000000000000007bb52faf91adf4250e06e",
          "blockHash": "0x354a38b55384ee2ce72becc033959d661449615a80ecc825baaa57c811e7b96b",
          "blockNumber": "0x2048a27",
          "transactionHash": "0xce09c5ddf48f536950affbe934bcef46ef79f0b772787cf642aa584dbb9b05f2",
          "transactionIndex": "0xd",
          "logIndex": "0x28",
          "removed": false
        },
        {
          "address": "0xceba9300f2b948710d2653dd7b07f33a8b32118c",
          "topics": [
            "0xddf252ad1be2c89b69c2b068fc378daa952ba7f163c4a11628f55a4df523b3ef",
            "0x000000000000000000000000d2b508298fcc37261953684744ec4ccc734d5083",
            "0x0000000000000000000000003a4db9e7306af09012ceb0f222d581fd1f0c6d71"
          ],
          "data": "0x000000000000000000000000000000000000000000000000000000000001e848",
          "blockHash": "0x354a38b55384ee2ce72becc033959d661449615a80ecc825baaa57c811e7b96b",
          "blockNumber": "0x2048a27",
          "transactionHash": "0xce09c5ddf48f536950affbe934bcef46ef79f0b772787cf642aa584dbb9b05f2",
          "transactionIndex": "0xd",
          "logIndex": "0x29",
          "removed": false
        },
        {
          "address": "0xd2b508298fcc37261953684744ec4ccc734d5083",
          "topics": [
            "0xf3a2c404b3362c4238317c3dad1020c2e9e984ba8df38a4a1ff18d57e92a242a",
            "0x0000000000000000000000000000000000000000000000000000000000000007"
          ],
          "data": "0x000000000000000000000000000000000000000000000000000000000001e848",
          "blockHash": "0x354a38b55384ee2ce72becc033959d661449615a80ecc825baaa57c811e7b96b",
          "blockNumber": "0x2048a27",
          "transactionHash": "0xce09c5ddf48f536950affbe934bcef46ef79f0b772787cf642aa584dbb9b05f2",
          "transactionIndex": "0xd",
          "logIndex": "0x2a",
          "removed": false
        }
      ],
      "logsBloom": "0x00000000000000100000100000400000000000000000000000000000000000100000000000000000000000000004400000101000800000000000000000000000000020008000000000000008000000000000000000000000000000040000000000000000020000000000000000000800000000000000000000000010000000000000000000000010000000000000400000000000000000002200000000000000000001000000000000000000000000000000000000000000400000000000010002000002000081200000022000000000000000400000041800000100000020000100100000004010000800000001000000000000000010000800000000000000",
      "type": "0x0",
      "transactionHash": "0xce09c5ddf48f536950affbe934bcef46ef79f0b772787cf642aa584dbb9b05f2",
      "transactionIndex": "0xd",
      "blockHash": "0x354a38b55384ee2ce72becc033959d661449615a80ecc825baaa57c811e7b96b",
      "blockNumber": "0x2048a27",
      "gasUsed": "0x5b4f2",
      "effectiveGasPrice": "0x5d22cfc40",
      "from": "0x3a4db9e7306af09012ceb0f222d581fd1f0c6d71",
      "to": "0xd2b508298fcc37261953684744ec4ccc734d5083",
      "contractAddress": null,
      "l1BaseFeeScalar": "0x0",
      "l1BlobBaseFee": "0x601a44b2",
      "l1BlobBaseFeeScalar": "0x0",
      "l1Fee": "0x0",
      "l1GasPrice": "0x17178799",
      "l1GasUsed": "0x640"
    },
    {
      "status": "0x1",
      "cumulativeGasUsed": "0xa2070",
      "logs": [
        {
          "address": "0xceba9300f2b948710d2653dd7b07f33a8b32118c",
          "topics": [
            "0x8c5be1e5ebec7d5bd14f71427d1e84f3dd0314c0f7b2291e5b200ac8c7c3b925",
            "0x0000000000000000000000003a4db9e7306af09012ceb0f222d581fd1f0c6d71",
            "0x000000000000000000000000d2b508298fcc37261953684744ec4ccc734d5083"
          ],
          "data": "0x000000000000000000000000000000000000000000000000000000000002dc6c",
          "blockHash": "0xc15880ab6f05910cfd0dc627ea29c388e7f5bed5c9643b0deb038785977a4664",
          "blockNumber": "0x2048a28",
          "transactionHash": "0xf1873470e4736b2af62f9571d1f8c049222f14fc7213039f1978c686c602822b",
          "transactionIndex": "0x3",
          "logIndex": "0xc",
          "removed": false
        },
        {
          "address": "0xceba9300f2b948710d2653dd7b07f33a8b32118c",
          "topics": [
            "0xddf252ad1be2c89b69c2b068fc378daa952ba7f163c4a11628f55a4df523b3ef",
            "0x0000000000000000000000003a4db9e7306af09012ceb0f222d581fd1f0c6d71",
            "0x000000000000000000000000d2b508298fcc37261953684744ec4ccc734d5083"
          ],
          "data": "0x000000000000000000000000000000000000000000000000000000000002dc6c",
          "blockHash": "0xc15880ab6f05910cfd0dc627ea29c388e7f5bed5c9643b0deb038785977a4664",
          "blockNumber": "0x2048a28",
          "transactionHash": "0xf1873470e4736b2af62f9571d1f8c049222f14fc7213039f1978c686c602822b",
          "transactionIndex": "0x3",
          "logIndex": "0xd",
          "removed": false
        },
        {
          "address": "0xceba9300f2b948710d2653dd7b07f33a8b32118c",
          "topics": [
            "0x8c5be1e5ebec7d5bd14f71427d1e84f3dd0314c0f7b2291e5b200ac8c7c3b925",
            "0x000000000000000000000000d2b508298fcc37261953684744ec4ccc734d5083",
            "0x0000000000000000000000003e59a31363e2ad014dcbc521c4a0d5757d9f3402"
          ],
          "data": "0x000000000000000000000000000000000000000000000000000000000002dc6c",
          "blockHash": "0xc15880ab6f05910cfd0dc627ea29c388e7f5bed5c9643b0deb038785977a4664",
          "blockNumber": "0x2048a28",
          "transactionHash": "0xf1873470e4736b2af62f9571d1f8c049222f14fc7213039f1978c686c602822b",
          "transactionIndex": "0x3",
          "logIndex": "0xe",
          "removed": false
        },
        {
          "address": "0xdbe517c0fa6467873b684eccbed77217e471e862",
          "topics": [
            "0xddf252ad1be2c89b69c2b068fc378daa952ba7f163c4a11628f55a4df523b3ef",
            "0x000000000000000000000000d2b508298fcc37261953684744ec4ccc734d5083",
            "0x0000000000000000000000000000000000000000000000000000000000000000"
          ],
          "data": "0x000000000000000000000000000000000000000000000000000000000002dc6c",
          "blockHash": "0xc15880ab6f05910cfd0dc627ea29c388e7f5bed5c9643b0deb038785977a4664",
          "blockNumber": "0x2048a28",
          "transactionHash": "0xf1873470e4736b2af62f9571d1f8c049222f14fc7213039f1978c686c602822b",
          "transactionIndex": "0x3",
          "logIndex": "0xf",
          "removed": false
        },
        {
          "address": "0xdbe517c0fa6467873b684eccbed77217e471e862",
          "topics": [
            "0x4cf25bc1d991c17529c25213d3cc0cda295eeaad5f13f361969b12ea48015f90",
            "0x000000000000000000000000d2b508298fcc37261953684744ec4ccc734d5083",
            "0x0000000000000000000000000000000000000000000000000000000000000000"
          ],
          "data": "0x000000000000000000000000000000000000000000000000000000000002dc6c00000000000000000000000000000000000000000000000000000000000000000000000000000000000000000000000000000000033c538edfc93865615a1ae5",
          "blockHash": "0xc15880ab6f05910cfd0dc627ea29c388e7f5bed5c9643b0deb038785977a4664",
          "blockNumber": "0x2048a28",
          "transactionHash": "0xf1873470e4736b2af62f9571d1f8c049222f14fc7213039f1978c686c602822b",
          "transactionIndex": "0x3",
          "logIndex": "0x10",
          "removed": false
        },
        {
          "address": "0x3e59a31363e2ad014dcbc521c4a0d5757d9f3402",
          "topics": [
            "0x804c9b842b2748a22bb64b345453a3de7ca54a6ca45ce00d415894979e22897a",
            "0x000000000000000000000000ceba9300f2b948710d2653dd7b07f33a8b32118c"
          ],
          "data": "0x00000000000000000000000000000000000000000000d614d50bc34ea3caa8ab000000000000000000000000000000000000000000000000000000000000000000000000000000000000000000000000000000000007bb5208900f28e81b65060000000000000000000000000000000000000000033b6936faf8b4baa8b24d560000000000000000000000000000000000000000033c538edfc93865615a1ae5",
          "blockHash": "0xc15880ab6f05910cfd0dc627ea29c388e7f5bed5c9643b0deb038785977a4664",
          "blockNumber": "0x2048a28",
          "transactionHash": "0xf1873470e4736b2af62f9571d1f8c049222f14fc7213039f1978c686c602822b",
          "transactionIndex": "0x3",
          "logIndex": "0x11",
          "removed": false
        },
        {
          "address": "0xceba9300f2b948710d2653dd7b07f33a8b32118c",
          "topics": [
            "0xddf252ad1be2c89b69c2b068fc378daa952ba7f163c4a11628f55a4df523b3ef",
            "0x000000000000000000000000d2b508298fcc37261953684744ec4ccc734d5083",
            "0x000000000000000000000000ff8309b9e99bfd2d4021bc71a362abd93dbd4785"
          ],
          "data": "0x000000000000000000000000000000000000000000000000000000000002dc6c",
          "blockHash": "0xc15880ab6f05910cfd0dc627ea29c388e7f5bed5c9643b0deb038785977a4664",
          "blockNumber": "0x2048a28",
          "transactionHash": "0xf1873470e4736b2af62f9571d1f8c049222f14fc7213039f1978c686c602822b",
          "transactionIndex": "0x3",
          "logIndex": "0x12",
          "removed": false
        },
        {
          "address": "0x3e59a31363e2ad014dcbc521c4a0d5757d9f3402",
          "topics": [
            "0xa534c8dbe71f871f9f3530e97a74601fea17b426cae02e1c5aee42c96c784051",
            "0x000000000000000000000000ceba9300f2b948710d2653dd7b07f33a8b32118c",
            "0x000000000000000000000000d2b508298fcc37261953684744ec4ccc734d5083",
            "0x000000000000000000000000d2b508298fcc37261953684744ec4ccc734d5083"
          ],
          "data": "0x000000000000000000000000000000000000000000000000000000000002dc6c0000000000000000000000000000000000000000000000000000000000000000",
          "blockHash": "0xc15880ab6f05910cfd0dc627ea29c388e7f5bed5c9643b0deb038785977a4664",
          "blockNumber": "0x2048a28",
          "transactionHash": "0xf1873470e4736b2af62f9571d1f8c049222f14fc7213039f1978c686c602822b",
          "transactionIndex": "0x3",
          "logIndex": "0x13",
          "removed": false
        },
        {
          "address": "0xd2b508298fcc37261953684744ec4ccc734d5083",
          "topics": [
            "0x0d4979b0859a1951f8ed7cbe3b1994e740552588f27ba02ca0f8f1ddcad16e0c",
            "0x0000000000000000000000000000000000000000000000000000000000000007"
          ],
          "data": "0x000000000000000000000000000000000000000000000000000000000002dc6c",
          "blockHash": "0xc15880ab6f05910cfd0dc627ea29c388e7f5bed5c9643b0deb038785977a4664",
          "blockNumber": "0x2048a28",
          "transactionHash": "0xf1873470e4736b2af62f9571d1f8c049222f14fc7213039f1978c686c602822b",
          "transactionIndex": "0x3",
          "logIndex": "0x14",
          "removed": false
        }
      ],
      "logsBloom": "0x10000000000000110000120010400000000000000000000000000000000000100000000000000000000000000000400000111000c00000000000000000200000000020008000000000000008000000000000002000000000000000000000000080000000020000000000000000000800000000000000000000000010000000000000000000000000000000000000400000000000000000002200000000000000020001100000000000000000000000000000000000000000400000000000010000000002000080200000022000000000000000000000001800000100000020040110100000004010000800000000000000000000000010000000000000040000",
      "type": "0x0",
      "transactionHash": "0xf1873470e4736b2af62f9571d1f8c049222f14fc7213039f1978c686c602822b",
      "transactionIndex": "0x3",
      "blockHash": "0xc15880ab6f05910cfd0dc627ea29c388e7f5bed5c9643b0deb038785977a4664",
      "blockNumber": "0x2048a28",
      "gasUsed": "0x3cfec",
      "effectiveGasPrice": "0x5d22cfc40",
      "from": "0x3a4db9e7306af09012ceb0f222d581fd1f0c6d71",
      "to": "0xd2b508298fcc37261953684744ec4ccc734d5083",
      "contractAddress": null,
      "l1BaseFeeScalar": "0x0",
      "l1BlobBaseFee": "0x601a44b2",
      "l1BlobBaseFeeScalar": "0x0",
      "l1Fee": "0x0",
      "l1GasPrice": "0x17178799",
      "l1GasUsed": "0x85e"
    },
    {
      "status": "0x1",
      "cumulativeGasUsed": "0xf4455",
      "logs": [
        {
          "address": "0x3e59a31363e2ad014dcbc521c4a0d5757d9f3402",
          "topics": [
            "0x804c9b842b2748a22bb64b345453a3de7ca54a6ca45ce00d415894979e22897a",
            "0x00000000000000000000000048065fbbe25f71c9282ddf5e1cd6d6a887483d5e"
          ],
          "data": "0x00000000000000000000000000000000000000000000000b15eb0b481805dc050000000000000000000000000000000000000000000000000000000000000000000000000000000000000000000000000000000000001c268960eb9866e37efd0000000000000000000000000000000000000000033b5f8e25f6ecd6124c87350000000000000000000000000000000000000000033bccafa6875e0200816429",
          "blockHash": "0xc15880ab6f05910cfd0dc627ea29c388e7f5bed5c9643b0deb038785977a4664",
          "blockNumber": "0x2048a28",
          "transactionHash": "0x42ff5c137cbf18dcdd16b9aee13104a20f76820184183e8317818b93c161a214",
          "transactionIndex": "0x4",
          "logIndex": "0x15",
          "removed": false
        },
        {
          "address": "0xdee98402a302e4d707fb9bf2bac66faeec31e8df",
          "topics": [
            "0xddf252ad1be2c89b69c2b068fc378daa952ba7f163c4a11628f55a4df523b3ef",
            "0x000000000000000000000000d2b508298fcc37261953684744ec4ccc734d5083",
            "0x0000000000000000000000000000000000000000000000000000000000000000"
          ],
          "data": "0x00000000000000000000000000000000000000000000000000000000000249f0",
          "blockHash": "0xc15880ab6f05910cfd0dc627ea29c388e7f5bed5c9643b0deb038785977a4664",
          "blockNumber": "0x2048a28",
          "transactionHash": "0x42ff5c137cbf18dcdd16b9aee13104a20f76820184183e8317818b93c161a214",
          "transactionIndex": "0x4",
          "logIndex": "0x16",
          "removed": false
        },
        {
          "address": "0xdee98402a302e4d707fb9bf2bac66faeec31e8df",
          "topics": [
            "0x4cf25bc1d991c17529c25213d3cc0cda295eeaad5f13f361969b12ea48015f90",
            "0x000000000000000000000000d2b508298fcc37261953684744ec4ccc734d5083",
            "0x0000000000000000000000003a4db9e7306af09012ceb0f222d581fd1f0c6d71"
          ],
          "data": "0x00000000000000000000000000000000000000000000000000000000000249f000000000000000000000000000000000000000000000000000000000000000000000000000000000000000000000000000000000033b5f8e25f6ecd6124c8735",
          "blockHash": "0xc15880ab6f05910cfd0dc627ea29c388e7f5bed5c9643b0deb038785977a4664",
          "blockNumber": "0x2048a28",
          "transactionHash": "0x42ff5c137cbf18dcdd16b9aee13104a20f76820184183e8317818b93c161a214",
          "transactionIndex": "0x4",
          "logIndex": "0x17",
          "removed": false
        },
        {
          "address": "0x48065fbbe25f71c9282ddf5e1cd6d6a887483d5e",
          "topics": [
            "0xddf252ad1be2c89b69c2b068fc378daa952ba7f163c4a11628f55a4df523b3ef",
            "0x000000000000000000000000dee98402a302e4d707fb9bf2bac66faeec31e8df",
            "0x0000000000000000000000003a4db9e7306af09012ceb0f222d581fd1f0c6d71"
          ],
          "data": "0x00000000000000000000000000000000000000000000000000000000000249f0",
          "blockHash": "0xc15880ab6f05910cfd0dc627ea29c388e7f5bed5c9643b0deb038785977a4664",
          "blockNumber": "0x2048a28",
          "transactionHash": "0x42ff5c137cbf18dcdd16b9aee13104a20f76820184183e8317818b93c161a214",
          "transactionIndex": "0x4",
          "logIndex": "0x18",
          "removed": false
        },
        {
          "address": "0x3e59a31363e2ad014dcbc521c4a0d5757d9f3402",
          "topics": [
            "0x3115d1449a7b732c986cba18244e897a450f61e1bb8d589cd2e69e6c8924f9f7",
            "0x00000000000000000000000048065fbbe25f71c9282ddf5e1cd6d6a887483d5e",
            "0x000000000000000000000000d2b508298fcc37261953684744ec4ccc734d5083",
            "0x0000000000000000000000003a4db9e7306af09012ceb0f222d581fd1f0c6d71"
          ],
          "data": "0x00000000000000000000000000000000000000000000000000000000000249f0",
          "blockHash": "0xc15880ab6f05910cfd0dc627ea29c388e7f5bed5c9643b0deb038785977a4664",
          "blockNumber": "0x2048a28",
          "transactionHash": "0x42ff5c137cbf18dcdd16b9aee13104a20f76820184183e8317818b93c161a214",
          "transactionIndex": "0x4",
          "logIndex": "0x19",
          "removed": false
        },
        {
          "address": "0xd2b508298fcc37261953684744ec4ccc734d5083",
          "topics": [
            "0x2399e8aed1977410745a5211d8226a3a7d9278f50a8a197c5ec6e285bb437f0b",
            "0x0000000000000000000000000000000000000000000000000000000000000007"
          ],
          "data": "0x00000000000000000000000000000000000000000000000000000000000249f0",
          "blockHash": "0xc15880ab6f05910cfd0dc627ea29c388e7f5bed5c9643b0deb038785977a4664",
          "blockNumber": "0x2048a28",
          "transactionHash": "0x42ff5c137cbf18dcdd16b9aee13104a20f76820184183e8317818b93c161a214",
          "transactionIndex": "0x4",
          "logIndex": "0x1a",
          "removed": false
        }
      ],
      "logsBloom": "0x1000000000000010020000000000000000900000000000000000000000000010000000080000000000000000000000000001100080000000000000000000000000002000000000080000000800000000000000000000000000000000000000000000000002000000000000000000080000000000002002004000001000000000000001000000000000000000000040000000000000006000020000000000000000000000008100000000004000000000100000000000000040000000000001000000000200008000000000a000000040000000000000001800000100000120040100100000000000000000000000000000000000000010000000000000000000",
      "type": "0x0",
      "transactionHash": "0x42ff5c137cbf18dcdd16b9aee13104a20f76820184183e8317818b93c161a214",
      "transactionIndex": "0x4",
      "blockHash": "0xc15880ab6f05910cfd0dc627ea29c388e7f5bed5c9643b0deb038785977a4664",
      "blockNumber": "0x2048a28",
      "gasUsed": "0x523e5",
      "effectiveGasPrice": "0x5d22cfc40",
      "from": "0x3a4db9e7306af09012ceb0f222d581fd1f0c6d71",
      "to": "0xd2b508298fcc37261953684744ec4ccc734d5083",
      "contractAddress": null,
      "l1BaseFeeScalar": "0x0",
      "l1BlobBaseFee": "0x601a44b2",
      "l1BlobBaseFeeScalar": "0x0",
      "l1Fee": "0x0",
      "l1GasPrice": "0x17178799",
      "l1GasUsed": "0x640"
    },
    {
      "status": "0x1",
      "cumulativeGasUsed": "0x101ce2",
      "logs": [
        {
          "address": "0xceba9300f2b948710d2653dd7b07f33a8b32118c",
          "topics": [
            "0x8c5be1e5ebec7d5bd14f71427d1e84f3dd0314c0f7b2291e5b200ac8c7c3b925",
            "0x0000000000000000000000003a4db9e7306af09012ceb0f222d581fd1f0c6d71",
            "0x000000000000000000000000d2b508298fcc37261953684744ec4ccc734d5083"
          ],
          "data": "0x000000000000000000000000000000000000000000000000000000000005b8d8",
          "blockHash": "0xc15880ab6f05910cfd0dc627ea29c388e7f5bed5c9643b0deb038785977a4664",
          "blockNumber": "0x2048a28",
          "transactionHash": "0x432ca7dcc7bc3676455ec15a1adb427e6e009ecf77d40e4084967a3b1da73fe4",
          "transactionIndex": "0x5",
          "logIndex": "0x1b",
          "removed": false
        }
      ],
      "logsBloom": "0x00000000000000000000100000000000000000000000000000000000000000000000000000000000000000000000000000000000000000000000000000200000000000000000000000000000000000000000000000000000000000000000000000000000000000000000000000000000000000000000000000000000000000000000000000000000000000000000400000000000000000000000000000000000020000000000000000000000000000000000000000000000000000000000000000000000000080000000020000000000000000000000001000000000000000000110100000000000000800000000000000000000000010000000000000000000",
      "type": "0x0",
      "transactionHash": "0x432ca7dcc7bc3676455ec15a1adb427e6e009ecf77d40e4084967a3b1da73fe4",
      "transactionIndex": "0x5",
      "blockHash": "0xc15880ab6f05910cfd0dc627ea29c388e7f5bed5c9643b0deb038785977a4664",
      "blockNumber": "0x2048a28",
      "gasUsed": "0xd88d",
      "effectiveGasPrice": "0x5d22cfc40",
      "from": "0x3a4db9e7306af09012ceb0f222d581fd1f0c6d71",
      "to": "0xceba9300f2b948710d2653dd7b07f33a8b32118c",
      "contractAddress": null,
      "l1BaseFeeScalar": "0x0",
      "l1BlobBaseFee": "0x601a44b2",
      "l1BlobBaseFeeScalar": "0x0",
      "l1Fee": "0x0",
      "l1GasPrice": "0x17178799",
      "l1GasUsed": "0x640"
    },
    {
      "status": "0x1",
      "cumulativeGasUsed": "0x136337",
      "logs": [
        {
          "address": "0xceba9300f2b948710d2653dd7b07f33a8b32118c",
          "topics": [
            "0xddf252ad1be2c89b69c2b068fc378daa952ba7f163c4a11628f55a4df523b3ef",
            "0x0000000000000000000000003a4db9e7306af09012ceb0f222d581fd1f0c6d71",
            "0x000000000000000000000000d2b508298fcc37261953684744ec4ccc734d5083"
          ],
          "data": "0x000000000000000000000000000000000000000000000000000000000002dc6c",
          "blockHash": "0xc15880ab6f05910cfd0dc627ea29c388e7f5bed5c9643b0deb038785977a4664",
          "blockNumber": "0x2048a28",
          "transactionHash": "0x20d21bea1a279d7acf49e36a945568178270c68d31b6c02cb63dd979e708b7d2",
          "transactionIndex": "0x6",
          "logIndex": "0x1c",
          "removed": false
        },
        {
          "address": "0xceba9300f2b948710d2653dd7b07f33a8b32118c",
          "topics": [
            "0x8c5be1e5ebec7d5bd14f71427d1e84f3dd0314c0f7b2291e5b200ac8c7c3b925",
            "0x000000000000000000000000d2b508298fcc37261953684744ec4ccc734d5083",
            "0x0000000000000000000000003e59a31363e2ad014dcbc521c4a0d5757d9f3402"
          ],
          "data": "0x000000000000000000000000000000000000000000000000000000000002dc6c",
          "blockHash": "0xc15880ab6f05910cfd0dc627ea29c388e7f5bed5c9643b0deb038785977a4664",
          "blockNumber": "0x2048a28",
          "transactionHash": "0x20d21bea1a279d7acf49e36a945568178270c68d31b6c02cb63dd979e708b7d2",
          "transactionIndex": "0x6",
          "logIndex": "0x1d",
          "removed": false
        },
        {
          "address": "0xdbe517c0fa6467873b684eccbed77217e471e862",
          "topics": [
            "0xddf252ad1be2c89b69c2b068fc378daa952ba7f163c4a11628f55a4df523b3ef",
            "0x000000000000000000000000d2b508298fcc37261953684744ec4ccc734d5083",
            "0x0000000000000000000000000000000000000000000000000000000000000000"
          ],
          "data": "0x000000000000000000000000000000000000000000000000000000000002dc6c",
          "blockHash": "0xc15880ab6f05910cfd0dc627ea29c388e7f5bed5c9643b0deb038785977a4664",
          "blockNumber": "0x2048a28",
          "transactionHash": "0x20d21bea1a279d7acf49e36a945568178270c68d31b6c02cb63dd979e708b7d2",
          "transactionIndex": "0x6",
          "logIndex": "0x1e",
          "removed": false
        },
        {
          "address": "0xdbe517c0fa6467873b684eccbed77217e471e862",
          "topics": [
            "0x4cf25bc1d991c17529c25213d3cc0cda295eeaad5f13f361969b12ea48015f90",
            "0x000000000000000000000000d2b508298fcc37261953684744ec4ccc734d5083",
            "0x0000000000000000000000000000000000000000000000000000000000000000"
          ],
          "data": "0x000000000000000000000000000000000000000000000000000000000002dc6c00000000000000000000000000000000000000000000000000000000000000000000000000000000000000000000000000000000033c538edfc93865615a1ae5",
          "blockHash": "0xc15880ab6f05910cfd0dc627ea29c388e7f5bed5c9643b0deb038785977a4664",
          "blockNumber": "0x2048a28",
          "transactionHash": "0x20d21bea1a279d7acf49e36a945568178270c68d31b6c02cb63dd979e708b7d2",
          "transactionIndex": "0x6",
          "logIndex": "0x1f",
          "removed": false
        },
        {
          "address": "0x3e59a31363e2ad014dcbc521c4a0d5757d9f3402",
          "topics": [
            "0x804c9b842b2748a22bb64b345453a3de7ca54a6ca45ce00d415894979e22897a",
            "0x000000000000000000000000ceba9300f2b948710d2653dd7b07f33a8b32118c"
          ],
          "data": "0x00000000000000000000000000000000000000000000d614a099e391e647a5a2000000000000000000000000000000000000000000000000000000000000000000000000000000000000000000000000000000000007bb51161e9150b7a228be0000000000000000000000000000000000000000033b6936faf8b4baa8b24d560000000000000000000000000000000000000000033c538edfc93865615a1ae5",
          "blockHash": "0xc15880ab6f05910cfd0dc627ea29c388e7f5bed5c9643b0deb038785977a4664",
          "blockNumber": "0x2048a28",
          "transactionHash": "0x20d21bea1a279d7acf49e36a945568178270c68d31b6c02cb63dd979e708b7d2",
          "transactionIndex": "0x6",
          "logIndex": "0x20",
          "removed": false
        },
        {
          "address": "0xceba9300f2b948710d2653dd7b07f33a8b32118c",
          "topics": [
            "0xddf252ad1be2c89b69c2b068fc378daa952ba7f163c4a11628f55a4df523b3ef",
            "0x000000000000000000000000d2b508298fcc37261953684744ec4ccc734d5083",
            "0x000000000000000000000000ff8309b9e99bfd2d4021bc71a362abd93dbd4785"
          ],
          "data": "0x000000000000000000000000000000000000000000000000000000000002dc6c",
          "blockHash": "0xc15880ab6f05910cfd0dc627ea29c388e7f5bed5c9643b0deb038785977a4664",
          "blockNumber": "0x2048a28",
          "transactionHash": "0x20d21bea1a279d7acf49e36a945568178270c68d31b6c02cb63dd979e708b7d2",
          "transactionIndex": "0x6",
          "logIndex": "0x21",
          "removed": false
        },
        {
          "address": "0x3e59a31363e2ad014dcbc521c4a0d5757d9f3402",
          "topics": [
            "0xa534c8dbe71f871f9f3530e97a74601fea17b426cae02e1c5aee42c96c784051",
            "0x000000000000000000000000ceba9300f2b948710d2653dd7b07f33a8b32118c",
            "0x000000000000000000000000d2b508298fcc37261953684744ec4ccc734d5083",
            "0x000000000000000000000000d2b508298fcc37261953684744ec4ccc734d5083"
          ],
          "data": "0x000000000000000000000000000000000000000000000000000000000002dc6c0000000000000000000000000000000000000000000000000000000000000000",
          "blockHash": "0xc15880ab6f05910cfd0dc627ea29c388e7f5bed5c9643b0deb038785977a4664",
          "blockNumber": "0x2048a28",
          "transactionHash": "0x20d21bea1a279d7acf49e36a945568178270c68d31b6c02cb63dd979e708b7d2",
          "transactionIndex": "0x6",
          "logIndex": "0x22",
          "removed": false
        },
        {
          "address": "0xd2b508298fcc37261953684744ec4ccc734d5083",
          "topics": [
            "0x0d4979b0859a1951f8ed7cbe3b1994e740552588f27ba02ca0f8f1ddcad16e0c",
            "0x0000000000000000000000000000000000000000000000000000000000000007"
          ],
          "data": "0x000000000000000000000000000000000000000000000000000000000002dc6c",
          "blockHash": "0xc15880ab6f05910cfd0dc627ea29c388e7f5bed5c9643b0deb038785977a4664",
          "blockNumber": "0x2048a28",
          "transactionHash": "0x20d21bea1a279d7acf49e36a945568178270c68d31b6c02cb63dd979e708b7d2",
          "transactionIndex": "0x6",
          "logIndex": "0x23",
          "removed": false
        }
      ],
      "logsBloom": "0x10000000000000110000120010400000000000000000000000000000000000100000000000000000000000000000400000111000c00000000000000000200000000020008000000000000008000000000000002000000000000000000000000080000000020000000000000000000800000000000000000000000010000000000000000000000000000000000000400000000000000000002200000000000000020001100000000000000000000000000000000000000000400000000000010000000002000080200000022000000000000000000000001800000100000020040110100000004010000800000000000000000000000010000000000000040000",
      "type": "0x0",
      "transactionHash": "0x20d21bea1a279d7acf49e36a945568178270c68d31b6c02cb63dd979e708b7d2",
      "transactionIndex": "0x6",
      "blockHash": "0xc15880ab6f05910cfd0dc627ea29c388e7f5bed5c9643b0deb038785977a4664",
      "blockNumber": "0x2048a28",
      "gasUsed": "0x34655",
      "effectiveGasPrice": "0x5d22cfc40",
      "from": "0x3a4db9e7306af09012ceb0f222d581fd1f0c6d71",
      "to": "0xd2b508298fcc37261953684744ec4ccc734d5083",
      "contractAddress": null,
      "l1BaseFeeScalar": "0x0",
      "l1BlobBaseFee": "0x601a44b2",
      "l1BlobBaseFeeScalar": "0x0",
      "l1Fee": "0x0",
      "l1GasPrice": "0x17178799",
      "l1GasUsed": "0x640"
    },
    {
      "status": "0x1",
      "cumulativeGasUsed": "0x179a40",
      "logs": [
        {
          "address": "0x3e59a31363e2ad014dcbc521c4a0d5757d9f3402",
          "topics": [
            "0x804c9b842b2748a22bb64b345453a3de7ca54a6ca45ce00d415894979e22897a",
            "0x00000000000000000000000048065fbbe25f71c9282ddf5e1cd6d6a887483d5e"
          ],
          "data": "0x00000000000000000000000000000000000000000000000b15eb570550a6065a0000000000000000000000000000000000000000000000000000000000000000000000000000000000000000000000000000000000001c2689c115d6b12cca540000000000000000000000000000000000000000033b5f8e25f6f2bc33898ca90000000000000000000000000000000000000000033bccafa6965ac4c75e387a",
          "blockHash": "0x63e48ff97d681f16e88581f5c563e3046f9696c277f86b0ffb70f4682d409ac8",
          "blockNumber": "0x2048a29",
          "transactionHash": "0x75e057140b6e29d25bedf784b2510309903cb69df17e76209a062f79822c0d89",
          "transactionIndex": "0xa",
          "logIndex": "0x25",
          "removed": false
        },
        {
          "address": "0xdee98402a302e4d707fb9bf2bac66faeec31e8df",
          "topics": [
            "0xddf252ad1be2c89b69c2b068fc378daa952ba7f163c4a11628f55a4df523b3ef",
            "0x000000000000000000000000d2b508298fcc37261953684744ec4ccc734d5083",
            "0x0000000000000000000000000000000000000000000000000000000000000000"
          ],
          "data": "0x00000000000000000000000000000000000000000000000000000000000927c0",
          "blockHash": "0x63e48ff97d681f16e88581f5c563e3046f9696c277f86b0ffb70f4682d409ac8",
          "blockNumber": "0x2048a29",
          "transactionHash": "0x75e057140b6e29d25bedf784b2510309903cb69df17e76209a062f79822c0d89",
          "transactionIndex": "0xa",
          "logIndex": "0x26",
          "removed": false
        },
        {
          "address": "0xdee98402a302e4d707fb9bf2bac66faeec31e8df",
          "topics": [
            "0x4cf25bc1d991c17529c25213d3cc0cda295eeaad5f13f361969b12ea48015f90",
            "0x000000000000000000000000d2b508298fcc37261953684744ec4ccc734d5083",
            "0x0000000000000000000000003a4db9e7306af09012ceb0f222d581fd1f0c6d71"
          ],
          "data": "0x00000000000000000000000000000000000000000000000000000000000927c000000000000000000000000000000000000000000000000000000000000000000000000000000000000000000000000000000000033b5f8e25f6f2bc33898ca9",
          "blockHash": "0x63e48ff97d681f16e88581f5c563e3046f9696c277f86b0ffb70f4682d409ac8",
          "blockNumber": "0x2048a29",
          "transactionHash": "0x75e057140b6e29d25bedf784b2510309903cb69df17e76209a062f79822c0d89",
          "transactionIndex": "0xa",
          "logIndex": "0x27",
          "removed": false
        },
        {
          "address": "0x48065fbbe25f71c9282ddf5e1cd6d6a887483d5e",
          "topics": [
            "0xddf252ad1be2c89b69c2b068fc378daa952ba7f163c4a11628f55a4df523b3ef",
            "0x000000000000000000000000dee98402a302e4d707fb9bf2bac66faeec31e8df",
            "0x0000000000000000000000003a4db9e7306af09012ceb0f222d581fd1f0c6d71"
          ],
          "data": "0x00000000000000000000000000000000000000000000000000000000000927c0",
          "blockHash": "0x63e48ff97d681f16e88581f5c563e3046f9696c277f86b0ffb70f4682d409ac8",
          "blockNumber": "0x2048a29",
          "transactionHash": "0x75e057140b6e29d25bedf784b2510309903cb69df17e76209a062f79822c0d89",
          "transactionIndex": "0xa",
          "logIndex": "0x28",
          "removed": false
        },
        {
          "address": "0x3e59a31363e2ad014dcbc521c4a0d5757d9f3402",
          "topics": [
            "0x3115d1449a7b732c986cba18244e897a450f61e1bb8d589cd2e69e6c8924f9f7",
            "0x00000000000000000000000048065fbbe25f71c9282ddf5e1cd6d6a887483d5e",
            "0x000000000000000000000000d2b508298fcc37261953684744ec4ccc734d5083",
            "0x0000000000000000000000003a4db9e7306af09012ceb0f222d581fd1f0c6d71"
          ],
          "data": "0x00000000000000000000000000000000000000000000000000000000000927c0",
          "blockHash": "0x63e48ff97d681f16e88581f5c563e3046f9696c277f86b0ffb70f4682d409ac8",
          "blockNumber": "0x2048a29",
          "transactionHash": "0x75e057140b6e29d25bedf784b2510309903cb69df17e76209a062f79822c0d89",
          "transactionIndex": "0xa",
          "logIndex": "0x29",
          "removed": false
        },
        {
          "address": "0xd2b508298fcc37261953684744ec4ccc734d5083",
          "topics": [
            "0x2399e8aed1977410745a5211d8226a3a7d9278f50a8a197c5ec6e285bb437f0b",
            "0x0000000000000000000000000000000000000000000000000000000000000007"
          ],
          "data": "0x00000000000000000000000000000000000000000000000000000000000927c0",
          "blockHash": "0x63e48ff97d681f16e88581f5c563e3046f9696c277f86b0ffb70f4682d409ac8",
          "blockNumber": "0x2048a29",
          "transactionHash": "0x75e057140b6e29d25bedf784b2510309903cb69df17e76209a062f79822c0d89",
          "transactionIndex": "0xa",
          "logIndex": "0x2a",
          "removed": false
        }
      ],
      "logsBloom": "0x1000000000000010020000000000000000900000000000000000000000000010000000080000000000000000000000000001100080000000000000000000000000002000000000080000000800000000000000000000000000000000000000000000000002000000000000000000080000000000002002004000001000000000000001000000000000000000000040000000000000006000020000000000000000000000008100000000004000000000100000000000000040000000000001000000000200008000000000a000000040000000000000001800000100000120040100100000000000000000000000000000000000000010000000000000000000",
      "type": "0x0",
      "transactionHash": "0x75e057140b6e29d25bedf784b2510309903cb69df17e76209a062f79822c0d89",
      "transactionIndex": "0xa",
      "blockHash": "0x63e48ff97d681f16e88581f5c563e3046f9696c277f86b0ffb70f4682d409ac8",
      "blockNumber": "0x2048a29",
      "gasUsed": "0x523af",
      "effectiveGasPrice": "0x5d22cfc40",
      "from": "0x3a4db9e7306af09012ceb0f222d581fd1f0c6d71",
      "to": "0xd2b508298fcc37261953684744ec4ccc734d5083",
      "contractAddress": null,
      "l1BaseFeeScalar": "0x0",
      "l1BlobBaseFee": "0x601a44b2",
      "l1BlobBaseFeeScalar": "0x0",
      "l1Fee": "0x0",
      "l1GasPrice": "0x17178799",
      "l1GasUsed": "0x640"
    }
  ],
  "libraries": [],
  "pending": [],
  "returns": {},
  "timestamp": 1745752703,
  "chain": 42220,
  "commit": "1cefd9d"
}