{
  "transactions": [
    {
      "hash": "0xca228f70c2a0c77f5dca0a7debd0afccb09a22a484f0e6230e976ab17fa990da",
      "transactionType": "CALL",
      "contractName": null,
      "contractAddress": "0x79242d2f9a923ab409413edced60f5155d5a8d1e",
      "function": "closePositionWithPermit(uint256,uint256,uint8,bytes32,bytes32)",
      "arguments": [
        "3",
        "1745679522",
        "27",
        "0x3fea1035cbfeaef15df4673df53418c206d740a332a3fe684295b839694c2ffb",
        "0x63a2e04f7f9c5dae2e8e6edace723200d9273e90d297471227ea45b9dc1404fe"
      ],
      "transaction": {
        "from": "0x3a4db9e7306af09012ceb0f222d581fd1f0c6d71",
        "to": "0x79242d2f9a923ab409413edced60f5155d5a8d1e",
        "gas": "0xa0ed5",
        "value": "0x0",
        "input": "0xc3fabc34000000000000000000000000000000000000000000000000000000000000000300000000000000000000000000000000000000000000000000000000680cf4a2000000000000000000000000000000000000000000000000000000000000001b3fea1035cbfeaef15df4673df53418c206d740a332a3fe684295b839694c2ffb63a2e04f7f9c5dae2e8e6edace723200d9273e90d297471227ea45b9dc1404fe",
        "nonce": "0x56",
        "chainId": "0xa4ec"
      },
      "additionalContracts": [],
      "isFixedGasLimit": false
    }
  ],
  "receipts": [
    {
      "status": "0x1",
      "cumulativeGasUsed": "0x162e39",
      "logs": [
        {
          "address": "0xceba9300f2b948710d2653dd7b07f33a8b32118c",
          "topics": [
            "0x8c5be1e5ebec7d5bd14f71427d1e84f3dd0314c0f7b2291e5b200ac8c7c3b925",
            "0x0000000000000000000000003a4db9e7306af09012ceb0f222d581fd1f0c6d71",
            "0x00000000000000000000000079242d2f9a923ab409413edced60f5155d5a8d1e"
          ],
          "data": "0x000000000000000000000000000000000000000000000000000000000001e848",
          "blockHash": "0x396a6a07e685fcb833677b4afaee32747827371a25bbc995912133457982968f",
          "blockNumber": "0x2035e5b",
          "transactionHash": "0xca228f70c2a0c77f5dca0a7debd0afccb09a22a484f0e6230e976ab17fa990da",
          "transactionIndex": "0x8",
          "logIndex": "0x15",
          "removed": false
        },
        {
          "address": "0xceba9300f2b948710d2653dd7b07f33a8b32118c",
          "topics": [
            "0xddf252ad1be2c89b69c2b068fc378daa952ba7f163c4a11628f55a4df523b3ef",
            "0x0000000000000000000000003a4db9e7306af09012ceb0f222d581fd1f0c6d71",
            "0x00000000000000000000000079242d2f9a923ab409413edced60f5155d5a8d1e"
          ],
          "data": "0x000000000000000000000000000000000000000000000000000000000001e848",
          "blockHash": "0x396a6a07e685fcb833677b4afaee32747827371a25bbc995912133457982968f",
          "blockNumber": "0x2035e5b",
          "transactionHash": "0xca228f70c2a0c77f5dca0a7debd0afccb09a22a484f0e6230e976ab17fa990da",
          "transactionIndex": "0x8",
          "logIndex": "0x16",
          "removed": false
        },
        {
          "address": "0xceba9300f2b948710d2653dd7b07f33a8b32118c",
          "topics": [
            "0x8c5be1e5ebec7d5bd14f71427d1e84f3dd0314c0f7b2291e5b200ac8c7c3b925",
            "0x00000000000000000000000079242d2f9a923ab409413edced60f5155d5a8d1e",
            "0x0000000000000000000000003e59a31363e2ad014dcbc521c4a0d5757d9f3402"
          ],
          "data": "0x000000000000000000000000000000000000000000000000000000000001e848",
          "blockHash": "0x396a6a07e685fcb833677b4afaee32747827371a25bbc995912133457982968f",
          "blockNumber": "0x2035e5b",
          "transactionHash": "0xca228f70c2a0c77f5dca0a7debd0afccb09a22a484f0e6230e976ab17fa990da",
          "transactionIndex": "0x8",
          "logIndex": "0x17",
          "removed": false
        },
        {
          "address": "0xdbe517c0fa6467873b684eccbed77217e471e862",
          "topics": [
            "0xddf252ad1be2c89b69c2b068fc378daa952ba7f163c4a11628f55a4df523b3ef",
            "0x00000000000000000000000079242d2f9a923ab409413edced60f5155d5a8d1e",
            "0x0000000000000000000000000000000000000000000000000000000000000000"
          ],
          "data": "0x000000000000000000000000000000000000000000000000000000000001e848",
          "blockHash": "0x396a6a07e685fcb833677b4afaee32747827371a25bbc995912133457982968f",
          "blockNumber": "0x2035e5b",
          "transactionHash": "0xca228f70c2a0c77f5dca0a7debd0afccb09a22a484f0e6230e976ab17fa990da",
          "transactionIndex": "0x8",
          "logIndex": "0x18",
          "removed": false
        },
        {
          "address": "0xdbe517c0fa6467873b684eccbed77217e471e862",
          "topics": [
            "0x4cf25bc1d991c17529c25213d3cc0cda295eeaad5f13f361969b12ea48015f90",
            "0x00000000000000000000000079242d2f9a923ab409413edced60f5155d5a8d1e",
            "0x0000000000000000000000000000000000000000000000000000000000000000"
          ],
          "data": "0x000000000000000000000000000000000000000000000000000000000001e84800000000000000000000000000000000000000000000000000000000000000000000000000000000000000000000000000000000033c4ebe79e505164c32e2dd",
          "blockHash": "0x396a6a07e685fcb833677b4afaee32747827371a25bbc995912133457982968f",
          "blockNumber": "0x2035e5b",
          "transactionHash": "0xca228f70c2a0c77f5dca0a7debd0afccb09a22a484f0e6230e976ab17fa990da",
          "transactionIndex": "0x8",
          "logIndex": "0x19",
          "removed": false
        },
        {
          "address": "0x3e59a31363e2ad014dcbc521c4a0d5757d9f3402",
          "topics": [
            "0x804c9b842b2748a22bb64b345453a3de7ca54a6ca45ce00d415894979e22897a",
            "0x000000000000000000000000ceba9300f2b948710d2653dd7b07f33a8b32118c"
          ],
          "data": "0x00000000000000000000000000000000000000000000d50af136fe013199e711000000000000000000000000000000000000000000000000000000000000000000000000000000000000000000000000000000000007b683607859aecaf390670000000000000000000000000000000000000000033b68b218d3694229e8c8a10000000000000000000000000000000000000000033c4ebe79e505164c32e2dd",
          "blockHash": "0x396a6a07e685fcb833677b4afaee32747827371a25bbc995912133457982968f",
          "blockNumber": "0x2035e5b",
          "transactionHash": "0xca228f70c2a0c77f5dca0a7debd0afccb09a22a484f0e6230e976ab17fa990da",
          "transactionIndex": "0x8",
          "logIndex": "0x1a",
          "removed": false
        },
        {
          "address": "0xceba9300f2b948710d2653dd7b07f33a8b32118c",
          "topics": [
            "0xddf252ad1be2c89b69c2b068fc378daa952ba7f163c4a11628f55a4df523b3ef",
            "0x00000000000000000000000079242d2f9a923ab409413edced60f5155d5a8d1e",
            "0x000000000000000000000000ff8309b9e99bfd2d4021bc71a362abd93dbd4785"
          ],
          "data": "0x000000000000000000000000000000000000000000000000000000000001e848",
          "blockHash": "0x396a6a07e685fcb833677b4afaee32747827371a25bbc995912133457982968f",
          "blockNumber": "0x2035e5b",
          "transactionHash": "0xca228f70c2a0c77f5dca0a7debd0afccb09a22a484f0e6230e976ab17fa990da",
          "transactionIndex": "0x8",
          "logIndex": "0x1b",
          "removed": false
        },
        {
          "address": "0x3e59a31363e2ad014dcbc521c4a0d5757d9f3402",
          "topics": [
            "0xa534c8dbe71f871f9f3530e97a74601fea17b426cae02e1c5aee42c96c784051",
            "0x000000000000000000000000ceba9300f2b948710d2653dd7b07f33a8b32118c",
            "0x00000000000000000000000079242d2f9a923ab409413edced60f5155d5a8d1e",
            "0x00000000000000000000000079242d2f9a923ab409413edced60f5155d5a8d1e"
          ],
          "data": "0x000000000000000000000000000000000000000000000000000000000001e8480000000000000000000000000000000000000000000000000000000000000000",
          "blockHash": "0x396a6a07e685fcb833677b4afaee32747827371a25bbc995912133457982968f",
          "blockNumber": "0x2035e5b",
          "transactionHash": "0xca228f70c2a0c77f5dca0a7debd0afccb09a22a484f0e6230e976ab17fa990da",
          "transactionIndex": "0x8",
          "logIndex": "0x1c",
          "removed": false
        },
        {
          "address": "0x3e59a31363e2ad014dcbc521c4a0d5757d9f3402",
          "topics": [
            "0x804c9b842b2748a22bb64b345453a3de7ca54a6ca45ce00d415894979e22897a",
            "0x00000000000000000000000048065fbbe25f71c9282ddf5e1cd6d6a887483d5e"
          ],
          "data": "0x00000000000000000000000000000000000000000000000b15ece477f05cadc30000000000000000000000000000000000000000000000000000000000000000000000000000000000000000000000000000000000001c268bb9b820e9bffa8a0000000000000000000000000000000000000000033b5f8e1f0e6a542c3085b70000000000000000000000000000000000000000033bcc9e194f247d57702642",
          "blockHash": "0x396a6a07e685fcb833677b4afaee32747827371a25bbc995912133457982968f",
          "blockNumber": "0x2035e5b",
          "transactionHash": "0xca228f70c2a0c77f5dca0a7debd0afccb09a22a484f0e6230e976ab17fa990da",
          "transactionIndex": "0x8",
          "logIndex": "0x1d",
          "removed": false
        },
        {
          "address": "0x3e59a31363e2ad014dcbc521c4a0d5757d9f3402",
          "topics": [
            "0x44c58d81365b66dd4b1a7f36c25aa97b8c71c361ee4937adc1a00000227db5dd",
            "0x00000000000000000000000048065fbbe25f71c9282ddf5e1cd6d6a887483d5e",
            "0x00000000000000000000000079242d2f9a923ab409413edced60f5155d5a8d1e"
          ],
          "data": "0x",
          "blockHash": "0x396a6a07e685fcb833677b4afaee32747827371a25bbc995912133457982968f",
          "blockNumber": "0x2035e5b",
          "transactionHash": "0xca228f70c2a0c77f5dca0a7debd0afccb09a22a484f0e6230e976ab17fa990da",
          "transactionIndex": "0x8",
          "logIndex": "0x1e",
          "removed": false
        },
        {
          "address": "0xdee98402a302e4d707fb9bf2bac66faeec31e8df",
          "topics": [
            "0xddf252ad1be2c89b69c2b068fc378daa952ba7f163c4a11628f55a4df523b3ef",
            "0x00000000000000000000000079242d2f9a923ab409413edced60f5155d5a8d1e",
            "0x0000000000000000000000000000000000000000000000000000000000000000"
          ],
          "data": "0x00000000000000000000000000000000000000000000000000000000000b71b1",
          "blockHash": "0x396a6a07e685fcb833677b4afaee32747827371a25bbc995912133457982968f",
          "blockNumber": "0x2035e5b",
          "transactionHash": "0xca228f70c2a0c77f5dca0a7debd0afccb09a22a484f0e6230e976ab17fa990da",
          "transactionIndex": "0x8",
          "logIndex": "0x1f",
          "removed": false
        },
        {
          "address": "0xdee98402a302e4d707fb9bf2bac66faeec31e8df",
          "topics": [
            "0x4cf25bc1d991c17529c25213d3cc0cda295eeaad5f13f361969b12ea48015f90",
            "0x00000000000000000000000079242d2f9a923ab409413edced60f5155d5a8d1e",
            "0x0000000000000000000000003a4db9e7306af09012ceb0f222d581fd1f0c6d71"
          ],
          "data": "0x00000000000000000000000000000000000000000000000000000000000b71b100000000000000000000000000000000000000000000000000000000000000000000000000000000000000000000000000000000033b5f8e1f0e6a542c3085b7",
          "blockHash": "0x396a6a07e685fcb833677b4afaee32747827371a25bbc995912133457982968f",
          "blockNumber": "0x2035e5b",
          "transactionHash": "0xca228f70c2a0c77f5dca0a7debd0afccb09a22a484f0e6230e976ab17fa990da",
          "transactionIndex": "0x8",
          "logIndex": "0x20",
          "removed": false
        },
        {
          "address": "0x48065fbbe25f71c9282ddf5e1cd6d6a887483d5e",
          "topics": [
            "0xddf252ad1be2c89b69c2b068fc378daa952ba7f163c4a11628f55a4df523b3ef",
            "0x000000000000000000000000dee98402a302e4d707fb9bf2bac66faeec31e8df",
            "0x0000000000000000000000003a4db9e7306af09012ceb0f222d581fd1f0c6d71"
          ],
          "data": "0x00000000000000000000000000000000000000000000000000000000000b71b1",
          "blockHash": "0x396a6a07e685fcb833677b4afaee32747827371a25bbc995912133457982968f",
          "blockNumber": "0x2035e5b",
          "transactionHash": "0xca228f70c2a0c77f5dca0a7debd0afccb09a22a484f0e6230e976ab17fa990da",
          "transactionIndex": "0x8",
          "logIndex": "0x21",
          "removed": false
        },
        {
          "address": "0x3e59a31363e2ad014dcbc521c4a0d5757d9f3402",
          "topics": [
            "0x3115d1449a7b732c986cba18244e897a450f61e1bb8d589cd2e69e6c8924f9f7",
            "0x00000000000000000000000048065fbbe25f71c9282ddf5e1cd6d6a887483d5e",
            "0x00000000000000000000000079242d2f9a923ab409413edced60f5155d5a8d1e",
            "0x0000000000000000000000003a4db9e7306af09012ceb0f222d581fd1f0c6d71"
          ],
          "data": "0x00000000000000000000000000000000000000000000000000000000000b71b1",
          "blockHash": "0x396a6a07e685fcb833677b4afaee32747827371a25bbc995912133457982968f",
          "blockNumber": "0x2035e5b",
          "transactionHash": "0xca228f70c2a0c77f5dca0a7debd0afccb09a22a484f0e6230e976ab17fa990da",
          "transactionIndex": "0x8",
          "logIndex": "0x22",
          "removed": false
        },
        {
          "address": "0x79242d2f9a923ab409413edced60f5155d5a8d1e",
          "topics": [
            "0xcefaf961c5013063cf501ffd9f9382e9b9c4b15741ad032fe93d7e9c7c733b22",
            "0x0000000000000000000000000000000000000000000000000000000000000003",
            "0x0000000000000000000000003a4db9e7306af09012ceb0f222d581fd1f0c6d71"
          ],
          "data": "0x",
          "blockHash": "0x396a6a07e685fcb833677b4afaee32747827371a25bbc995912133457982968f",
          "blockNumber": "0x2035e5b",
          "transactionHash": "0xca228f70c2a0c77f5dca0a7debd0afccb09a22a484f0e6230e976ab17fa990da",
          "transactionIndex": "0x8",
          "logIndex": "0x23",
          "removed": false
        }
      ],
      "logsBloom": "0x10002000000000010200120000400000009020000000000000000000080000000000000800000000000008000000400000110000c2000000000000000020000000100000800000088000000800020000000000000000000000000000000000000000000002000000000000000004080000000000000002004000001000000000000001000000000000000000000040000000000008000000220000000000000002000110008100000000004000000000100000000080000040000001000041000000000200008020000002a000000040000000000000001000000000000120040010100000004010000880000010000000000000000000000000000000040000",
      "type": "0x0",
      "transactionHash": "0xca228f70c2a0c77f5dca0a7debd0afccb09a22a484f0e6230e976ab17fa990da",
      "transactionIndex": "0x8",
      "blockHash": "0x396a6a07e685fcb833677b4afaee32747827371a25bbc995912133457982968f",
      "blockNumber": "0x2035e5b",
      "gasUsed": "0x6e092",
      "effectiveGasPrice": "0x5d22cfc40",
      "from": "0x3a4db9e7306af09012ceb0f222d581fd1f0c6d71",
      "to": "0x79242d2f9a923ab409413edced60f5155d5a8d1e",
      "contractAddress": null,
      "l1BaseFeeScalar": "0x0",
      "l1BlobBaseFee": "0x13813794d",
      "l1BlobBaseFeeScalar": "0x0",
      "l1Fee": "0x0",
      "l1GasPrice": "0x358636c9",
      "l1GasUsed": "0x7f3"
    }
  ],
  "libraries": [],
  "pending": [],
  "returns": {},
  "timestamp": 1745675953,
  "chain": 42220,
  "commit": "1cefd9d"
}