{
  "transactions": [
    {
      "hash": "0xf33c3b96138bcdc9f5f68626143783554ed17564a38367f096ee6a9f47954781",
      "transactionType": "CALL",
      "contractName": null,
      "contractAddress": "0x48065fbbe25f71c9282ddf5e1cd6d6a887483d5e",
      "function": "approve(address,uint256)",
      "arguments": [
        "0xC74c4119e25c2C6995868f48205da9a9d4F2B717",
        "500000"
      ],
      "transaction": {
        "from": "0x3a4db9e7306af09012ceb0f222d581fd1f0c6d71",
        "to": "0x48065fbbe25f71c9282ddf5e1cd6d6a887483d5e",
        "gas": "0x1201c",
        "value": "0x0",
        "input": "0x095ea7b3000000000000000000000000c74c4119e25c2c6995868f48205da9a9d4f2b717000000000000000000000000000000000000000000000000000000000007a120",
        "nonce": "0x87",
        "chainId": "0xa4ec"
      },
      "additionalContracts": [],
      "isFixedGasLimit": false
    },
    {
      "hash": "0x1aac9fd9a0b1f2577447b557e312df3aad8d23fc2e0f7c261ad3ddf88d26a7e7",
      "transactionType": "CALL",
      "contractName": null,
      "contractAddress": "0xc74c4119e25c2c6995868f48205da9a9d4f2b717",
      "function": "createPosition(address,uint256,address,uint256,uint256)",
      "arguments": [
        "0x48065fbBE25f71C9282ddf5e1cD6D6A887483D5e",
        "500000",
        "0xcebA9300f2b948710d2653dD7B07f33A8B32118C",
        "250000",
        "2"
      ],
      "transaction": {
        "from": "0x3a4db9e7306af09012ceb0f222d581fd1f0c6d71",
        "to": "0xc74c4119e25c2c6995868f48205da9a9d4f2b717",
        "gas": "0xfaeab",
        "value": "0x0",
        "input": "0xb0c3d5df00000000000000000000000048065fbbe25f71c9282ddf5e1cd6d6a887483d5e000000000000000000000000000000000000000000000000000000000007a120000000000000000000000000ceba9300f2b948710d2653dd7b07f33a8b32118c000000000000000000000000000000000000000000000000000000000003d0900000000000000000000000000000000000000000000000000000000000000002",
        "nonce": "0x88",
        "chainId": "0xa4ec"
      },
      "additionalContracts": [],
      "isFixedGasLimit": false
    },
    {
      "hash": "0xad7fbf3244d8d246c9375a2a6da45499d6b2e2213cc4a09895289b5aff2a7592",
      "transactionType": "CALL",
      "contractName": null,
      "contractAddress": "0x48065fbbe25f71c9282ddf5e1cd6d6a887483d5e",
      "function": "approve(address,uint256)",
      "arguments": [
        "0xC74c4119e25c2C6995868f48205da9a9d4F2B717",
        "250000"
      ],
      "transaction": {
        "from": "0x3a4db9e7306af09012ceb0f222d581fd1f0c6d71",
        "to": "0x48065fbbe25f71c9282ddf5e1cd6d6a887483d5e",
        "gas": "0x1201c",
        "value": "0x0",
        "input": "0x095ea7b3000000000000000000000000c74c4119e25c2c6995868f48205da9a9d4f2b717000000000000000000000000000000000000000000000000000000000003d090",
        "nonce": "0x89",
        "chainId": "0xa4ec"
      },
      "additionalContracts": [],
      "isFixedGasLimit": false
    },
    {
      "hash": "0xb53688966463206bfdfd3946727e641912c49eba8921a33860f5812f16a19bfc",
      "transactionType": "CALL",
      "contractName": null,
      "contractAddress": "0xc74c4119e25c2c6995868f48205da9a9d4f2b717",
      "function": "addCollateral(uint256,uint256)",
      "arguments": [
        "1",
        "250000"
      ],
      "transaction": {
        "from": "0x3a4db9e7306af09012ceb0f222d581fd1f0c6d71",
        "to": "0xc74c4119e25c2c6995868f48205da9a9d4f2b717",
        "gas": "0x4b659",
        "value": "0x0",
        "input": "0xa8f35adf0000000000000000000000000000000000000000000000000000000000000001000000000000000000000000000000000000000000000000000000000003d090",
        "nonce": "0x8a",
        "chainId": "0xa4ec"
      },
      "additionalContracts": [],
      "isFixedGasLimit": false
    },
    {
      "hash": "0xbbed564a9fcafe4c3c626144529c4edf20400e2e8f24580de95b5fe9a32c8700",
      "transactionType": "CALL",
      "contractName": null,
      "contractAddress": "0xc74c4119e25c2c6995868f48205da9a9d4f2b717",
      "function": "increaseBorrow(uint256,uint256)",
      "arguments": [
        "1",
        "125000"
      ],
      "transaction": {
        "from": "0x3a4db9e7306af09012ceb0f222d581fd1f0c6d71",
        "to": "0xc74c4119e25c2c6995868f48205da9a9d4f2b717",
        "gas": "0x78103",
        "value": "0x0",
        "input": "0x9e6824d90000000000000000000000000000000000000000000000000000000000000001000000000000000000000000000000000000000000000000000000000001e848",
        "nonce": "0x8b",
        "chainId": "0xa4ec"
      },
      "additionalContracts": [],
      "isFixedGasLimit": false
    },
    {
      "hash": "0x9eaa65152fd752400beed2ea2028499443976e564c05bc8508c07062e69e8a84",
      "transactionType": "CALL",
      "contractName": null,
      "contractAddress": "0xceba9300f2b948710d2653dd7b07f33a8b32118c",
      "function": "approve(address,uint256)",
      "arguments": [
        "0xC74c4119e25c2C6995868f48205da9a9d4F2B717",
        "187500"
      ],
      "transaction": {
        "from": "0x3a4db9e7306af09012ceb0f222d581fd1f0c6d71",
        "to": "0xceba9300f2b948710d2653dd7b07f33a8b32118c",
        "gas": "0x12b1b",
        "value": "0x0",
        "input": "0x095ea7b3000000000000000000000000c74c4119e25c2c6995868f48205da9a9d4f2b717000000000000000000000000000000000000000000000000000000000002dc6c",
        "nonce": "0x8c",
        "chainId": "0xa4ec"
      },
      "additionalContracts": [],
      "isFixedGasLimit": false
    },
    {
      "hash": "0x0f51f29388f064f76830fd2c1d5b6ed7bda0c3b81d9d1c0f8cd75a225072313b",
      "transactionType": "CALL",
      "contractName": null,
      "contractAddress": "0xc74c4119e25c2c6995868f48205da9a9d4f2b717",
      "function": "repayDebt(uint256,uint256)",
      "arguments": [
        "1",
        "187500"
      ],
      "transaction": {
        "from": "0x3a4db9e7306af09012ceb0f222d581fd1f0c6d71",
        "to": "0xc74c4119e25c2c6995868f48205da9a9d4f2b717",
        "gas": "0x4a361",
        "value": "0x0",
        "input": "0x015cb0a50000000000000000000000000000000000000000000000000000000000000001000000000000000000000000000000000000000000000000000000000002dc6c",
        "nonce": "0x8d",
        "chainId": "0xa4ec"
      },
      "additionalContracts": [],
      "isFixedGasLimit": false
    },
    {
      "hash": "0xb50d7fed013f8bb89a8763961323301c5c06bcd86596777534956d949796c403",
      "transactionType": "CALL",
      "contractName": null,
      "contractAddress": "0xc74c4119e25c2c6995868f48205da9a9d4f2b717",
      "function": "withdrawCollateral(uint256,uint256)",
      "arguments": [
        "1",
        "150000"
      ],
      "transaction": {
        "from": "0x3a4db9e7306af09012ceb0f222d581fd1f0c6d71",
        "to": "0xc74c4119e25c2c6995868f48205da9a9d4f2b717",
        "gas": "0x6f349",
        "value": "0x0",
        "input": "0x767a7b05000000000000000000000000000000000000000000000000000000000000000100000000000000000000000000000000000000000000000000000000000249f0",
        "nonce": "0x8e",
        "chainId": "0xa4ec"
      },
      "additionalContracts": [],
      "isFixedGasLimit": false
    },
    {
      "hash": "0xe030e039cc777b623e193301098dca26319287886872055e6afd87e9891fa68c",
      "transactionType": "CALL",
      "contractName": null,
      "contractAddress": "0xceba9300f2b948710d2653dd7b07f33a8b32118c",
      "function": "approve(address,uint256)",
      "arguments": [
        "0xC74c4119e25c2C6995868f48205da9a9d4F2B717",
        "375000"
      ],
      "transaction": {
        "from": "0x3a4db9e7306af09012ceb0f222d581fd1f0c6d71",
        "to": "0xceba9300f2b948710d2653dd7b07f33a8b32118c",
        "gas": "0x12b1b",
        "value": "0x0",
        "input": "0x095ea7b3000000000000000000000000c74c4119e25c2c6995868f48205da9a9d4f2b717000000000000000000000000000000000000000000000000000000000005b8d8",
        "nonce": "0x8f",
        "chainId": "0xa4ec"
      },
      "additionalContracts": [],
      "isFixedGasLimit": false
    },
    {
      "hash": "0x9cff84e09ce9b1492c7d20a96217de15680311662ef592b17fee4a0aaab1fb6d",
      "transactionType": "CALL",
      "contractName": null,
      "contractAddress": "0xc74c4119e25c2c6995868f48205da9a9d4f2b717",
      "function": "repayDebt(uint256,uint256)",
      "arguments": [
        "1",
        "187500"
      ],
      "transaction": {
        "from": "0x3a4db9e7306af09012ceb0f222d581fd1f0c6d71",
        "to": "0xc74c4119e25c2c6995868f48205da9a9d4f2b717",
        "gas": "0x4b4c9",
        "value": "0x0",
        "input": "0x015cb0a50000000000000000000000000000000000000000000000000000000000000001000000000000000000000000000000000000000000000000000000000002dc6c",
        "nonce": "0x90",
        "chainId": "0xa4ec"
      },
      "additionalContracts": [],
      "isFixedGasLimit": false
    },
    {
      "hash": "0xefb712a5f5369d485827554c024404ec67b0566bc139e3c7c776a746244e6058",
      "transactionType": "CALL",
      "contractName": null,
      "contractAddress": "0xc74c4119e25c2c6995868f48205da9a9d4f2b717",
      "function": "withdrawCollateral(uint256,uint256)",
      "arguments": [
        "1",
        "600000"
      ],
      "transaction": {
        "from": "0x3a4db9e7306af09012ceb0f222d581fd1f0c6d71",
        "to": "0xc74c4119e25c2c6995868f48205da9a9d4f2b717",
        "gas": "0x530f8",
        "value": "0x0",
        "input": "0x767a7b05000000000000000000000000000000000000000000000000000000000000000100000000000000000000000000000000000000000000000000000000000927c0",
        "nonce": "0x91",
        "chainId": "0xa4ec"
      },
      "additionalContracts": [],
      "isFixedGasLimit": false
    }
  ],
  "receipts": [
    {
      "status": "0x1",
      "cumulativeGasUsed": "0x126fcc",
      "logs": [
        {
          "address": "0x48065fbbe25f71c9282ddf5e1cd6d6a887483d5e",
          "topics": [
            "0x8c5be1e5ebec7d5bd14f71427d1e84f3dd0314c0f7b2291e5b200ac8c7c3b925",
            "0x0000000000000000000000003a4db9e7306af09012ceb0f222d581fd1f0c6d71",
            "0x000000000000000000000000c74c4119e25c2c6995868f48205da9a9d4f2b717"
          ],
          "data": "0x000000000000000000000000000000000000000000000000000000000007a120",
          "blockHash": "0xc5a05b7b8cdd8bbe45c54379d9cb479333b339bafbeffa6b6e401688aaffd969",
          "blockNumber": "0x203994a",
          "transactionHash": "0xf33c3b96138bcdc9f5f68626143783554ed17564a38367f096ee6a9f47954781",
          "transactionIndex": "0xa",
          "logIndex": "0x20",
          "removed": false
        }
      ],
      "logsBloom": "0x00000000000000000000000000000000000000000000002000000000000000000000000000000000000000000000000000000000000000000000000000200000000000000000000000000000000000000000000000000000000000000000000000000000000000000100000000000000000000000000000040000000000000000000010000000000000000000000400000000000000000000000000000000000020000000000000000000000000000000000000000000000000000000000000000000000000080000000008000000000000000000000001000000000000000000010000000000000000000000000000000000000000008000000000000000000",
      "type": "0x0",
      "transactionHash": "0xf33c3b96138bcdc9f5f68626143783554ed17564a38367f096ee6a9f47954781",
      "transactionIndex": "0xa",
      "blockHash": "0xc5a05b7b8cdd8bbe45c54379d9cb479333b339bafbeffa6b6e401688aaffd969",
      "blockNumber": "0x203994a",
      "gasUsed": "0xd097",
      "effectiveGasPrice": "0x5d22cfc40",
      "from": "0x3a4db9e7306af09012ceb0f222d581fd1f0c6d71",
      "to": "0x48065fbbe25f71c9282ddf5e1cd6d6a887483d5e",
      "contractAddress": null,
      "l1BaseFeeScalar": "0x0",
      "l1BlobBaseFee": "0x5ead5bf",
      "l1BlobBaseFeeScalar": "0x0",
      "l1Fee": "0x0",
      "l1GasPrice": "0x1867079f",
      "l1GasUsed": "0x640"
    },
    {
      "status": "0x1",
      "cumulativeGasUsed": "0xf6d87",
      "logs": [
        {
          "address": "0x48065fbbe25f71c9282ddf5e1cd6d6a887483d5e",
          "topics": [
            "0xddf252ad1be2c89b69c2b068fc378daa952ba7f163c4a11628f55a4df523b3ef",
            "0x0000000000000000000000003a4db9e7306af09012ceb0f222d581fd1f0c6d71",
            "0x000000000000000000000000c74c4119e25c2c6995868f48205da9a9d4f2b717"
          ],
          "data": "0x000000000000000000000000000000000000000000000000000000000007a120",
          "blockHash": "0xa4aca95a384de02d430532e4c4aa478e9bb2c8e2371fcfa213d4a5f3e4874145",
          "blockNumber": "0x203994b",
          "transactionHash": "0x1aac9fd9a0b1f2577447b557e312df3aad8d23fc2e0f7c261ad3ddf88d26a7e7",
          "transactionIndex": "0x3",
          "logIndex": "0xb",
          "removed": false
        },
        {
          "address": "0x48065fbbe25f71c9282ddf5e1cd6d6a887483d5e",
          "topics": [
            "0x8c5be1e5ebec7d5bd14f71427d1e84f3dd0314c0f7b2291e5b200ac8c7c3b925",
            "0x0000000000000000000000003a4db9e7306af09012ceb0f222d581fd1f0c6d71",
            "0x000000000000000000000000c74c4119e25c2c6995868f48205da9a9d4f2b717"
          ],
          "data": "0x0000000000000000000000000000000000000000000000000000000000000000",
          "blockHash": "0xa4aca95a384de02d430532e4c4aa478e9bb2c8e2371fcfa213d4a5f3e4874145",
          "blockNumber": "0x203994b",
          "transactionHash": "0x1aac9fd9a0b1f2577447b557e312df3aad8d23fc2e0f7c261ad3ddf88d26a7e7",
          "transactionIndex": "0x3",
          "logIndex": "0xc",
          "removed": false
        },
        {
          "address": "0x48065fbbe25f71c9282ddf5e1cd6d6a887483d5e",
          "topics": [
            "0x8c5be1e5ebec7d5bd14f71427d1e84f3dd0314c0f7b2291e5b200ac8c7c3b925",
            "0x000000000000000000000000c74c4119e25c2c6995868f48205da9a9d4f2b717",
            "0x0000000000000000000000003e59a31363e2ad014dcbc521c4a0d5757d9f3402"
          ],
          "data": "0x000000000000000000000000000000000000000000000000000000000007a120",
          "blockHash": "0xa4aca95a384de02d430532e4c4aa478e9bb2c8e2371fcfa213d4a5f3e4874145",
          "blockNumber": "0x203994b",
          "transactionHash": "0x1aac9fd9a0b1f2577447b557e312df3aad8d23fc2e0f7c261ad3ddf88d26a7e7",
          "transactionIndex": "0x3",
          "logIndex": "0xd",
          "removed": false
        },
        {
          "address": "0x3e59a31363e2ad014dcbc521c4a0d5757d9f3402",
          "topics": [
            "0x804c9b842b2748a22bb64b345453a3de7ca54a6ca45ce00d415894979e22897a",
            "0x00000000000000000000000048065fbbe25f71c9282ddf5e1cd6d6a887483d5e"
          ],
          "data": "0x00000000000000000000000000000000000000000000000b15eba0ec5df126d40000000000000000000000000000000000000000000000000000000000000000000000000000000000000000000000000000000000001c268a1eeb1bfac339f60000000000000000000000000000000000000000033b5f8e206a15c2873efd030000000000000000000000000000000000000000033bcca18ca05d4927dff5b9",
          "blockHash": "0xa4aca95a384de02d430532e4c4aa478e9bb2c8e2371fcfa213d4a5f3e4874145",
          "blockNumber": "0x203994b",
          "transactionHash": "0x1aac9fd9a0b1f2577447b557e312df3aad8d23fc2e0f7c261ad3ddf88d26a7e7",
          "transactionIndex": "0x3",
          "logIndex": "0xe",
          "removed": false
        },
        {
          "address": "0x48065fbbe25f71c9282ddf5e1cd6d6a887483d5e",
          "topics": [
            "0xddf252ad1be2c89b69c2b068fc378daa952ba7f163c4a11628f55a4df523b3ef",
            "0x000000000000000000000000c74c4119e25c2c6995868f48205da9a9d4f2b717",
            "0x000000000000000000000000dee98402a302e4d707fb9bf2bac66faeec31e8df"
          ],
          "data": "0x000000000000000000000000000000000000000000000000000000000007a120",
          "blockHash": "0xa4aca95a384de02d430532e4c4aa478e9bb2c8e2371fcfa213d4a5f3e4874145",
          "blockNumber": "0x203994b",
          "transactionHash": "0x1aac9fd9a0b1f2577447b557e312df3aad8d23fc2e0f7c261ad3ddf88d26a7e7",
          "transactionIndex": "0x3",
          "logIndex": "0xf",
          "removed": false
        },
        {
          "address": "0x48065fbbe25f71c9282ddf5e1cd6d6a887483d5e",
          "topics": [
            "0x8c5be1e5ebec7d5bd14f71427d1e84f3dd0314c0f7b2291e5b200ac8c7c3b925",
            "0x000000000000000000000000c74c4119e25c2c6995868f48205da9a9d4f2b717",
            "0x0000000000000000000000003e59a31363e2ad014dcbc521c4a0d5757d9f3402"
          ],
          "data": "0x0000000000000000000000000000000000000000000000000000000000000000",
          "blockHash": "0xa4aca95a384de02d430532e4c4aa478e9bb2c8e2371fcfa213d4a5f3e4874145",
          "blockNumber": "0x203994b",
          "transactionHash": "0x1aac9fd9a0b1f2577447b557e312df3aad8d23fc2e0f7c261ad3ddf88d26a7e7",
          "transactionIndex": "0x3",
          "logIndex": "0x10",
          "removed": false
        },
        {
          "address": "0xdee98402a302e4d707fb9bf2bac66faeec31e8df",
          "topics": [
            "0xddf252ad1be2c89b69c2b068fc378daa952ba7f163c4a11628f55a4df523b3ef",
            "0x0000000000000000000000000000000000000000000000000000000000000000",
            "0x000000000000000000000000c74c4119e25c2c6995868f48205da9a9d4f2b717"
          ],
          "data": "0x000000000000000000000000000000000000000000000000000000000007a120",
          "blockHash": "0xa4aca95a384de02d430532e4c4aa478e9bb2c8e2371fcfa213d4a5f3e4874145",
          "blockNumber": "0x203994b",
          "transactionHash": "0x1aac9fd9a0b1f2577447b557e312df3aad8d23fc2e0f7c261ad3ddf88d26a7e7",
          "transactionIndex": "0x3",
          "logIndex": "0x11",
          "removed": false
        },
        {
          "address": "0xdee98402a302e4d707fb9bf2bac66faeec31e8df",
          "topics": [
            "0x458f5fa412d0f69b08dd84872b0215675cc67bc1d5b6fd93300a1c3878b86196",
            "0x000000000000000000000000c74c4119e25c2c6995868f48205da9a9d4f2b717",
            "0x000000000000000000000000c74c4119e25c2c6995868f48205da9a9d4f2b717"
          ],
          "data": "0x000000000000000000000000000000000000000000000000000000000007a12000000000000000000000000000000000000000000000000000000000000000000000000000000000000000000000000000000000033b5f8e206a15c2873efd03",
          "blockHash": "0xa4aca95a384de02d430532e4c4aa478e9bb2c8e2371fcfa213d4a5f3e4874145",
          "blockNumber": "0x203994b",
          "transactionHash": "0x1aac9fd9a0b1f2577447b557e312df3aad8d23fc2e0f7c261ad3ddf88d26a7e7",
          "transactionIndex": "0x3",
          "logIndex": "0x12",
          "removed": false
        },
        {
          "address": "0x3e59a31363e2ad014dcbc521c4a0d5757d9f3402",
          "topics": [
            "0x00058a56ea94653cdf4f152d227ace22d4c00ad99e2a43f58cb7d9e3feb295f2",
            "0x00000000000000000000000048065fbbe25f71c9282ddf5e1cd6d6a887483d5e",
            "0x000000000000000000000000c74c4119e25c2c6995868f48205da9a9d4f2b717"
          ],
          "data": "0x",
          "blockHash": "0xa4aca95a384de02d430532e4c4aa478e9bb2c8e2371fcfa213d4a5f3e4874145",
          "blockNumber": "0x203994b",
          "transactionHash": "0x1aac9fd9a0b1f2577447b557e312df3aad8d23fc2e0f7c261ad3ddf88d26a7e7",
          "transactionIndex": "0x3",
          "logIndex": "0x13",
          "removed": false
        },
        {
          "address": "0x3e59a31363e2ad014dcbc521c4a0d5757d9f3402",
          "topics": [
            "0x2b627736bca15cd5381dcf80b0bf11fd197d01a037c52b927a881a10fb73ba61",
            "0x00000000000000000000000048065fbbe25f71c9282ddf5e1cd6d6a887483d5e",
            "0x000000000000000000000000c74c4119e25c2c6995868f48205da9a9d4f2b717",
            "0x0000000000000000000000000000000000000000000000000000000000000000"
          ],
          "data": "0x000000000000000000000000c74c4119e25c2c6995868f48205da9a9d4f2b717000000000000000000000000000000000000000000000000000000000007a120",
          "blockHash": "0xa4aca95a384de02d430532e4c4aa478e9bb2c8e2371fcfa213d4a5f3e4874145",
          "blockNumber": "0x203994b",
          "transactionHash": "0x1aac9fd9a0b1f2577447b557e312df3aad8d23fc2e0f7c261ad3ddf88d26a7e7",
          "transactionIndex": "0x3",
          "logIndex": "0x14",
          "removed": false
        },
        {
          "address": "0xdbe517c0fa6467873b684eccbed77217e471e862",
          "topics": [
            "0xddf252ad1be2c89b69c2b068fc378daa952ba7f163c4a11628f55a4df523b3ef",
            "0x0000000000000000000000000000000000000000000000000000000000000000",
            "0x000000000000000000000000c74c4119e25c2c6995868f48205da9a9d4f2b717"
          ],
          "data": "0x000000000000000000000000000000000000000000000000000000000003d090",
          "blockHash": "0xa4aca95a384de02d430532e4c4aa478e9bb2c8e2371fcfa213d4a5f3e4874145",
          "blockNumber": "0x203994b",
          "transactionHash": "0x1aac9fd9a0b1f2577447b557e312df3aad8d23fc2e0f7c261ad3ddf88d26a7e7",
          "transactionIndex": "0x3",
          "logIndex": "0x15",
          "removed": false
        },
        {
          "address": "0xdbe517c0fa6467873b684eccbed77217e471e862",
          "topics": [
            "0x458f5fa412d0f69b08dd84872b0215675cc67bc1d5b6fd93300a1c3878b86196",
            "0x000000000000000000000000c74c4119e25c2c6995868f48205da9a9d4f2b717",
            "0x000000000000000000000000c74c4119e25c2c6995868f48205da9a9d4f2b717"
          ],
          "data": "0x000000000000000000000000000000000000000000000000000000000003d09000000000000000000000000000000000000000000000000000000000000000000000000000000000000000000000000000000000033c4fb0a569ec7c1ccbb74f",
          "blockHash": "0xa4aca95a384de02d430532e4c4aa478e9bb2c8e2371fcfa213d4a5f3e4874145",
          "blockNumber": "0x203994b",
          "transactionHash": "0x1aac9fd9a0b1f2577447b557e312df3aad8d23fc2e0f7c261ad3ddf88d26a7e7",
          "transactionIndex": "0x3",
          "logIndex": "0x16",
          "removed": false
        },
        {
          "address": "0x3e59a31363e2ad014dcbc521c4a0d5757d9f3402",
          "topics": [
            "0x804c9b842b2748a22bb64b345453a3de7ca54a6ca45ce00d415894979e22897a",
            "0x000000000000000000000000ceba9300f2b948710d2653dd7b07f33a8b32118c"
          ],
          "data": "0x00000000000000000000000000000000000000000000d50c980366c229aa48a7000000000000000000000000000000000000000000000000000000000000000000000000000000000000000000000000000000000007b68b07bc77dde9d0182a0000000000000000000000000000000000000000033b68cc32b0ddb5eec0c5230000000000000000000000000000000000000000033c4fb0a569ec7c1ccbb74f",
          "blockHash": "0xa4aca95a384de02d430532e4c4aa478e9bb2c8e2371fcfa213d4a5f3e4874145",
          "blockNumber": "0x203994b",
          "transactionHash": "0x1aac9fd9a0b1f2577447b557e312df3aad8d23fc2e0f7c261ad3ddf88d26a7e7",
          "transactionIndex": "0x3",
          "logIndex": "0x17",
          "removed": false
        },
        {
          "address": "0xceba9300f2b948710d2653dd7b07f33a8b32118c",
          "topics": [
            "0xddf252ad1be2c89b69c2b068fc378daa952ba7f163c4a11628f55a4df523b3ef",
            "0x000000000000000000000000ff8309b9e99bfd2d4021bc71a362abd93dbd4785",
            "0x000000000000000000000000c74c4119e25c2c6995868f48205da9a9d4f2b717"
          ],
          "data": "0x000000000000000000000000000000000000000000000000000000000003d090",
          "blockHash": "0xa4aca95a384de02d430532e4c4aa478e9bb2c8e2371fcfa213d4a5f3e4874145",
          "blockNumber": "0x203994b",
          "transactionHash": "0x1aac9fd9a0b1f2577447b557e312df3aad8d23fc2e0f7c261ad3ddf88d26a7e7",
          "transactionIndex": "0x3",
          "logIndex": "0x18",
          "removed": false
        },
        {
          "address": "0x3e59a31363e2ad014dcbc521c4a0d5757d9f3402",
          "topics": [
            "0xb3d084820fb1a9decffb176436bd02558d15fac9b0ddfed8c465bc7359d7dce0",
            "0x000000000000000000000000ceba9300f2b948710d2653dd7b07f33a8b32118c",
            "0x000000000000000000000000c74c4119e25c2c6995868f48205da9a9d4f2b717",
            "0x0000000000000000000000000000000000000000000000000000000000000000"
          ],
          "data": "0x000000000000000000000000c74c4119e25c2c6995868f48205da9a9d4f2b717000000000000000000000000000000000000000000000000000000000003d090000000000000000000000000000000000000000000000000000000000000000200000000000000000000000000000000000000000007b68b07bc77dde9d0182a",
          "blockHash": "0xa4aca95a384de02d430532e4c4aa478e9bb2c8e2371fcfa213d4a5f3e4874145",
          "blockNumber": "0x203994b",
          "transactionHash": "0x1aac9fd9a0b1f2577447b557e312df3aad8d23fc2e0f7c261ad3ddf88d26a7e7",
          "transactionIndex": "0x3",
          "logIndex": "0x19",
          "removed": false
        },
        {
          "address": "0xceba9300f2b948710d2653dd7b07f33a8b32118c",
          "topics": [
            "0xddf252ad1be2c89b69c2b068fc378daa952ba7f163c4a11628f55a4df523b3ef",
            "0x000000000000000000000000c74c4119e25c2c6995868f48205da9a9d4f2b717",
            "0x0000000000000000000000003a4db9e7306af09012ceb0f222d581fd1f0c6d71"
          ],
          "data": "0x000000000000000000000000000000000000000000000000000000000003d090",
          "blockHash": "0xa4aca95a384de02d430532e4c4aa478e9bb2c8e2371fcfa213d4a5f3e4874145",
          "blockNumber": "0x203994b",
          "transactionHash": "0x1aac9fd9a0b1f2577447b557e312df3aad8d23fc2e0f7c261ad3ddf88d26a7e7",
          "transactionIndex": "0x3",
          "logIndex": "0x1a",
          "removed": false
        },
        {
          "address": "0xc74c4119e25c2c6995868f48205da9a9d4f2b717",
          "topics": [
            "0x9f9b498443531d2db9df8a00ec466efc74ba50ec1d82f7badd3424b87930e19a",
            "0x0000000000000000000000000000000000000000000000000000000000000001",
            "0x0000000000000000000000003a4db9e7306af09012ceb0f222d581fd1f0c6d71"
          ],
          "data": "0x00000000000000000000000048065fbbe25f71c9282ddf5e1cd6d6a887483d5e000000000000000000000000000000000000000000000000000000000007a120000000000000000000000000ceba9300f2b948710d2653dd7b07f33a8b32118c000000000000000000000000000000000000000000000000000000000003d0900000000000000000000000000000000000000000000000000000000000000002",
          "blockHash": "0xa4aca95a384de02d430532e4c4aa478e9bb2c8e2371fcfa213d4a5f3e4874145",
          "blockNumber": "0x203994b",
          "transactionHash": "0x1aac9fd9a0b1f2577447b557e312df3aad8d23fc2e0f7c261ad3ddf88d26a7e7",
          "transactionIndex": "0x3",
          "logIndex": "0x1b",
          "removed": false
        }
      ],
      "logsBloom": "0x000000000000080102801200004000000010000000000020000000000000000000000008000000000000200000044000001000008000000000000000002400000000000080000008000000080000000000000000000400000000000c000000800000000002000000010000000000080000000002000000004000001000000000000001008000000080000000000040000000000000000000220000000000000002000110000100000000004000000000100000000000000040000000000001000200000200008120000002a040000040000000000000041000020000000160000010000000004010000800000001000040000000000008000000400000000000",
      "type": "0x0",
      "transactionHash": "0x1aac9fd9a0b1f2577447b557e312df3aad8d23fc2e0f7c261ad3ddf88d26a7e7",
      "transactionIndex": "0x3",
      "blockHash": "0xa4aca95a384de02d430532e4c4aa478e9bb2c8e2371fcfa213d4a5f3e4874145",
      "blockNumber": "0x203994b",
      "gasUsed": "0xab913",
      "effectiveGasPrice": "0x5d22cfc40",
      "from": "0x3a4db9e7306af09012ceb0f222d581fd1f0c6d71",
      "to": "0xc74c4119e25c2c6995868f48205da9a9d4f2b717",
      "contractAddress": null,
      "l1BaseFeeScalar": "0x0",
      "l1BlobBaseFee": "0x5ead5bf",
      "l1BlobBaseFeeScalar": "0x0",
      "l1Fee": "0x0",
      "l1GasPrice": "0x1867079f",
      "l1GasUsed": "0x77b"
    },
    {
      "status": "0x1",
      "cumulativeGasUsed": "0x13abd9",
      "logs": [
        {
          "address": "0x48065fbbe25f71c9282ddf5e1cd6d6a887483d5e",
          "topics": [
            "0x8c5be1e5ebec7d5bd14f71427d1e84f3dd0314c0f7b2291e5b200ac8c7c3b925",
            "0x0000000000000000000000003a4db9e7306af09012ceb0f222d581fd1f0c6d71",
            "0x000000000000000000000000c74c4119e25c2c6995868f48205da9a9d4f2b717"
          ],
          "data": "0x000000000000000000000000000000000000000000000000000000000003d090",
          "blockHash": "0x8732b3cbc5ffb4059ee8435101cbe7b5229dfd6bd62c2e8f54c05b08e2467eaa",
          "blockNumber": "0x203994c",
          "transactionHash": "0xad7fbf3244d8d246c9375a2a6da45499d6b2e2213cc4a09895289b5aff2a7592",
          "transactionIndex": "0xb",
          "logIndex": "0x23",
          "removed": false
        }
      ],
      "logsBloom": "0x00000000000000000000000000000000000000000000002000000000000000000000000000000000000000000000000000000000000000000000000000200000000000000000000000000000000000000000000000000000000000000000000000000000000000000100000000000000000000000000000040000000000000000000010000000000000000000000400000000000000000000000000000000000020000000000000000000000000000000000000000000000000000000000000000000000000080000000008000000000000000000000001000000000000000000010000000000000000000000000000000000000000008000000000000000000",
      "type": "0x0",
      "transactionHash": "0xad7fbf3244d8d246c9375a2a6da45499d6b2e2213cc4a09895289b5aff2a7592",
      "transactionIndex": "0xb",
      "blockHash": "0x8732b3cbc5ffb4059ee8435101cbe7b5229dfd6bd62c2e8f54c05b08e2467eaa",
      "blockNumber": "0x203994c",
      "gasUsed": "0xd097",
      "effectiveGasPrice": "0x5d22cfc40",
      "from": "0x3a4db9e7306af09012ceb0f222d581fd1f0c6d71",
      "to": "0x48065fbbe25f71c9282ddf5e1cd6d6a887483d5e",
      "contractAddress": null,
      "l1BaseFeeScalar": "0x0",
      "l1BlobBaseFee": "0x5ead5bf",
      "l1BlobBaseFeeScalar": "0x0",
      "l1Fee": "0x0",
      "l1GasPrice": "0x1867079f",
      "l1GasUsed": "0x640"
    },
    {
      "status": "0x1",
      "cumulativeGasUsed": "0x17da8a",
      "logs": [
        {
          "address": "0x48065fbbe25f71c9282ddf5e1cd6d6a887483d5e",
          "topics": [
            "0xddf252ad1be2c89b69c2b068fc378daa952ba7f163c4a11628f55a4df523b3ef",
            "0x0000000000000000000000003a4db9e7306af09012ceb0f222d581fd1f0c6d71",
            "0x000000000000000000000000c74c4119e25c2c6995868f48205da9a9d4f2b717"
          ],
          "data": "0x000000000000000000000000000000000000000000000000000000000003d090",
          "blockHash": "0x8732b3cbc5ffb4059ee8435101cbe7b5229dfd6bd62c2e8f54c05b08e2467eaa",
          "blockNumber": "0x203994c",
          "transactionHash": "0xb53688966463206bfdfd3946727e641912c49eba8921a33860f5812f16a19bfc",
          "transactionIndex": "0xd",
          "logIndex": "0x25",
          "removed": false
        },
        {
          "address": "0x48065fbbe25f71c9282ddf5e1cd6d6a887483d5e",
          "topics": [
            "0x8c5be1e5ebec7d5bd14f71427d1e84f3dd0314c0f7b2291e5b200ac8c7c3b925",
            "0x0000000000000000000000003a4db9e7306af09012ceb0f222d581fd1f0c6d71",
            "0x000000000000000000000000c74c4119e25c2c6995868f48205da9a9d4f2b717"
          ],
          "data": "0x0000000000000000000000000000000000000000000000000000000000000000",
          "blockHash": "0x8732b3cbc5ffb4059ee8435101cbe7b5229dfd6bd62c2e8f54c05b08e2467eaa",
          "blockNumber": "0x203994c",
          "transactionHash": "0xb53688966463206bfdfd3946727e641912c49eba8921a33860f5812f16a19bfc",
          "transactionIndex": "0xd",
          "logIndex": "0x26",
          "removed": false
        },
        {
          "address": "0x48065fbbe25f71c9282ddf5e1cd6d6a887483d5e",
          "topics": [
            "0x8c5be1e5ebec7d5bd14f71427d1e84f3dd0314c0f7b2291e5b200ac8c7c3b925",
            "0x000000000000000000000000c74c4119e25c2c6995868f48205da9a9d4f2b717",
            "0x0000000000000000000000003e59a31363e2ad014dcbc521c4a0d5757d9f3402"
          ],
          "data": "0x000000000000000000000000000000000000000000000000000000000003d090",
          "blockHash": "0x8732b3cbc5ffb4059ee8435101cbe7b5229dfd6bd62c2e8f54c05b08e2467eaa",
          "blockNumber": "0x203994c",
          "transactionHash": "0xb53688966463206bfdfd3946727e641912c49eba8921a33860f5812f16a19bfc",
          "transactionIndex": "0xd",
          "logIndex": "0x27",
          "removed": false
        },
        {
          "address": "0x3e59a31363e2ad014dcbc521c4a0d5757d9f3402",
          "topics": [
            "0x804c9b842b2748a22bb64b345453a3de7ca54a6ca45ce00d415894979e22897a",
            "0x00000000000000000000000048065fbbe25f71c9282ddf5e1cd6d6a887483d5e"
          ],
          "data": "0x00000000000000000000000000000000000000000000000b15eb815d843592fe0000000000000000000000000000000000000000000000000000000000000000000000000000000000000000000000000000000000001c2689f6d97ffccb788d0000000000000000000000000000000000000000033b5f8e206a1ba8a8cb992a0000000000000000000000000000000000000000033bcca18caf5a0c1288f5cf",
          "blockHash": "0x8732b3cbc5ffb4059ee8435101cbe7b5229dfd6bd62c2e8f54c05b08e2467eaa",
          "blockNumber": "0x203994c",
          "transactionHash": "0xb53688966463206bfdfd3946727e641912c49eba8921a33860f5812f16a19bfc",
          "transactionIndex": "0xd",
          "logIndex": "0x28",
          "removed": false
        },
        {
          "address": "0x48065fbbe25f71c9282ddf5e1cd6d6a887483d5e",
          "topics": [
            "0xddf252ad1be2c89b69c2b068fc378daa952ba7f163c4a11628f55a4df523b3ef",
            "0x000000000000000000000000c74c4119e25c2c6995868f48205da9a9d4f2b717",
            "0x000000000000000000000000dee98402a302e4d707fb9bf2bac66faeec31e8df"
          ],
          "data": "0x000000000000000000000000000000000000000000000000000000000003d090",
          "blockHash": "0x8732b3cbc5ffb4059ee8435101cbe7b5229dfd6bd62c2e8f54c05b08e2467eaa",
          "blockNumber": "0x203994c",
          "transactionHash": "0xb53688966463206bfdfd3946727e641912c49eba8921a33860f5812f16a19bfc",
          "transactionIndex": "0xd",
          "logIndex": "0x29",
          "removed": false
        },
        {
          "address": "0x48065fbbe25f71c9282ddf5e1cd6d6a887483d5e",
          "topics": [
            "0x8c5be1e5ebec7d5bd14f71427d1e84f3dd0314c0f7b2291e5b200ac8c7c3b925",
            "0x000000000000000000000000c74c4119e25c2c6995868f48205da9a9d4f2b717",
            "0x0000000000000000000000003e59a31363e2ad014dcbc521c4a0d5757d9f3402"
          ],
          "data": "0x0000000000000000000000000000000000000000000000000000000000000000",
          "blockHash": "0x8732b3cbc5ffb4059ee8435101cbe7b5229dfd6bd62c2e8f54c05b08e2467eaa",
          "blockNumber": "0x203994c",
          "transactionHash": "0xb53688966463206bfdfd3946727e641912c49eba8921a33860f5812f16a19bfc",
          "transactionIndex": "0xd",
          "logIndex": "0x2a",
          "removed": false
        },
        {
          "address": "0xdee98402a302e4d707fb9bf2bac66faeec31e8df",
          "topics": [
            "0xddf252ad1be2c89b69c2b068fc378daa952ba7f163c4a11628f55a4df523b3ef",
            "0x0000000000000000000000000000000000000000000000000000000000000000",
            "0x000000000000000000000000c74c4119e25c2c6995868f48205da9a9d4f2b717"
          ],
          "data": "0x000000000000000000000000000000000000000000000000000000000003d090",
          "blockHash": "0x8732b3cbc5ffb4059ee8435101cbe7b5229dfd6bd62c2e8f54c05b08e2467eaa",
          "blockNumber": "0x203994c",
          "transactionHash": "0xb53688966463206bfdfd3946727e641912c49eba8921a33860f5812f16a19bfc",
          "transactionIndex": "0xd",
          "logIndex": "0x2b",
          "removed": false
        },
        {
          "address": "0xdee98402a302e4d707fb9bf2bac66faeec31e8df",
          "topics": [
            "0x458f5fa412d0f69b08dd84872b0215675cc67bc1d5b6fd93300a1c3878b86196",
            "0x000000000000000000000000c74c4119e25c2c6995868f48205da9a9d4f2b717",
            "0x000000000000000000000000c74c4119e25c2c6995868f48205da9a9d4f2b717"
          ],
          "data": "0x000000000000000000000000000000000000000000000000000000000003d09000000000000000000000000000000000000000000000000000000000000000000000000000000000000000000000000000000000033b5f8e206a1ba8a8cb992a",
          "blockHash": "0x8732b3cbc5ffb4059ee8435101cbe7b5229dfd6bd62c2e8f54c05b08e2467eaa",
          "blockNumber": "0x203994c",
          "transactionHash": "0xb53688966463206bfdfd3946727e641912c49eba8921a33860f5812f16a19bfc",
          "transactionIndex": "0xd",
          "logIndex": "0x2c",
          "removed": false
        },
        {
          "address": "0x3e59a31363e2ad014dcbc521c4a0d5757d9f3402",
          "topics": [
            "0x2b627736bca15cd5381dcf80b0bf11fd197d01a037c52b927a881a10fb73ba61",
            "0x00000000000000000000000048065fbbe25f71c9282ddf5e1cd6d6a887483d5e",
            "0x000000000000000000000000c74c4119e25c2c6995868f48205da9a9d4f2b717",
            "0x0000000000000000000000000000000000000000000000000000000000000000"
          ],
          "data": "0x000000000000000000000000c74c4119e25c2c6995868f48205da9a9d4f2b717000000000000000000000000000000000000000000000000000000000003d090",
          "blockHash": "0x8732b3cbc5ffb4059ee8435101cbe7b5229dfd6bd62c2e8f54c05b08e2467eaa",
          "blockNumber": "0x203994c",
          "transactionHash": "0xb53688966463206bfdfd3946727e641912c49eba8921a33860f5812f16a19bfc",
          "transactionIndex": "0xd",
          "logIndex": "0x2d",
          "removed": false
        },
        {
          "address": "0xc74c4119e25c2c6995868f48205da9a9d4f2b717",
          "topics": [
            "0x244160b15e69cc411f041d94ae7fab6f6bba85dade8403216c05ff4b920d5449",
            "0x0000000000000000000000000000000000000000000000000000000000000001"
          ],
          "data": "0x000000000000000000000000000000000000000000000000000000000003d090",
          "blockHash": "0x8732b3cbc5ffb4059ee8435101cbe7b5229dfd6bd62c2e8f54c05b08e2467eaa",
          "blockNumber": "0x203994c",
          "transactionHash": "0xb53688966463206bfdfd3946727e641912c49eba8921a33860f5812f16a19bfc",
          "transactionIndex": "0xd",
          "logIndex": "0x2e",
          "removed": false
        }
      ],
      "logsBloom": "0x000000000000000102000200000000000010000000000020000000000000000000000008000000000000000000040000000000008002000000000000002400000000000000000008000000080000000000000000000400000000000c000000800000000002000000010000000000080000000000000000004000001000000000000001000000000080000000000040000000000000000000020000000000000002000010000100000000004000000000100000000000000040000000000001000200000200008000000000a040000050000000000000001000000000000160000010000000000080000000000000000040000000000008000000400000000000",
      "type": "0x0",
      "transactionHash": "0xb53688966463206bfdfd3946727e641912c49eba8921a33860f5812f16a19bfc",
      "transactionIndex": "0xd",
      "blockHash": "0x8732b3cbc5ffb4059ee8435101cbe7b5229dfd6bd62c2e8f54c05b08e2467eaa",
      "blockNumber": "0x203994c",
      "gasUsed": "0x3831e",
      "effectiveGasPrice": "0x5d22cfc40",
      "from": "0x3a4db9e7306af09012ceb0f222d581fd1f0c6d71",
      "to": "0xc74c4119e25c2c6995868f48205da9a9d4f2b717",
      "contractAddress": null,
      "l1BaseFeeScalar": "0x0",
      "l1BlobBaseFee": "0x5ead5bf",
      "l1BlobBaseFeeScalar": "0x0",
      "l1Fee": "0x0",
      "l1GasPrice": "0x1867079f",
      "l1GasUsed": "0x640"
    },
    {
      "status": "0x1",
      "cumulativeGasUsed": "0x13fd00",
      "logs": [
        {
          "address": "0xdbe517c0fa6467873b684eccbed77217e471e862",
          "topics": [
            "0xddf252ad1be2c89b69c2b068fc378daa952ba7f163c4a11628f55a4df523b3ef",
            "0x0000000000000000000000000000000000000000000000000000000000000000",
            "0x000000000000000000000000c74c4119e25c2c6995868f48205da9a9d4f2b717"
          ],
          "data": "0x000000000000000000000000000000000000000000000000000000000001e848",
          "blockHash": "0x5bcd4f46709ed796c8de1fb1dd369f122bdfd8e12f723423f7f4df85e5117345",
          "blockNumber": "0x203994d",
          "transactionHash": "0xbbed564a9fcafe4c3c626144529c4edf20400e2e8f24580de95b5fe9a32c8700",
          "transactionIndex": "0x5",
          "logIndex": "0x19",
          "removed": false
        },
        {
          "address": "0xdbe517c0fa6467873b684eccbed77217e471e862",
          "topics": [
            "0x458f5fa412d0f69b08dd84872b0215675cc67bc1d5b6fd93300a1c3878b86196",
            "0x000000000000000000000000c74c4119e25c2c6995868f48205da9a9d4f2b717",
            "0x000000000000000000000000c74c4119e25c2c6995868f48205da9a9d4f2b717"
          ],
          "data": "0x000000000000000000000000000000000000000000000000000000000001e84800000000000000000000000000000000000000000000000000000000000000000000000000000000000000000000000000000000033c4fb0ada1b7a6a6803720",
          "blockHash": "0x5bcd4f46709ed796c8de1fb1dd369f122bdfd8e12f723423f7f4df85e5117345",
          "blockNumber": "0x203994d",
          "transactionHash": "0xbbed564a9fcafe4c3c626144529c4edf20400e2e8f24580de95b5fe9a32c8700",
          "transactionIndex": "0x5",
          "logIndex": "0x1a",
          "removed": false
        },
        {
          "address": "0x3e59a31363e2ad014dcbc521c4a0d5757d9f3402",
          "topics": [
            "0x804c9b842b2748a22bb64b345453a3de7ca54a6ca45ce00d415894979e22897a",
            "0x000000000000000000000000ceba9300f2b948710d2653dd7b07f33a8b32118c"
          ],
          "data": "0x00000000000000000000000000000000000000000000d50cbad2c5cbd467410a000000000000000000000000000000000000000000000000000000000000000000000000000000000000000000000000000000000007b68ba90bcd805b5c6c450000000000000000000000000000000000000000033b68cc33939d2c14b5918a0000000000000000000000000000000000000000033c4fb0ada1b7a6a6803720",
          "blockHash": "0x5bcd4f46709ed796c8de1fb1dd369f122bdfd8e12f723423f7f4df85e5117345",
          "blockNumber": "0x203994d",
          "transactionHash": "0xbbed564a9fcafe4c3c626144529c4edf20400e2e8f24580de95b5fe9a32c8700",
          "transactionIndex": "0x5",
          "logIndex": "0x1b",
          "removed": false
        },
        {
          "address": "0xceba9300f2b948710d2653dd7b07f33a8b32118c",
          "topics": [
            "0xddf252ad1be2c89b69c2b068fc378daa952ba7f163c4a11628f55a4df523b3ef",
            "0x000000000000000000000000ff8309b9e99bfd2d4021bc71a362abd93dbd4785",
            "0x000000000000000000000000c74c4119e25c2c6995868f48205da9a9d4f2b717"
          ],
          "data": "0x000000000000000000000000000000000000000000000000000000000001e848",
          "blockHash": "0x5bcd4f46709ed796c8de1fb1dd369f122bdfd8e12f723423f7f4df85e5117345",
          "blockNumber": "0x203994d",
          "transactionHash": "0xbbed564a9fcafe4c3c626144529c4edf20400e2e8f24580de95b5fe9a32c8700",
          "transactionIndex": "0x5",
          "logIndex": "0x1c",
          "removed": false
        },
        {
          "address": "0x3e59a31363e2ad014dcbc521c4a0d5757d9f3402",
          "topics": [
            "0xb3d084820fb1a9decffb176436bd02558d15fac9b0ddfed8c465bc7359d7dce0",
            "0x000000000000000000000000ceba9300f2b948710d2653dd7b07f33a8b32118c",
            "0x000000000000000000000000c74c4119e25c2c6995868f48205da9a9d4f2b717",
            "0x0000000000000000000000000000000000000000000000000000000000000000"
          ],
          "data": "0x000000000000000000000000c74c4119e25c2c6995868f48205da9a9d4f2b717000000000000000000000000000000000000000000000000000000000001e848000000000000000000000000000000000000000000000000000000000000000200000000000000000000000000000000000000000007b68ba90bcd805b5c6c45",
          "blockHash": "0x5bcd4f46709ed796c8de1fb1dd369f122bdfd8e12f723423f7f4df85e5117345",
          "blockNumber": "0x203994d",
          "transactionHash": "0xbbed564a9fcafe4c3c626144529c4edf20400e2e8f24580de95b5fe9a32c8700",
          "transactionIndex": "0x5",
          "logIndex": "0x1d",
          "removed": false
        },
        {
          "address": "0xceba9300f2b948710d2653dd7b07f33a8b32118c",
          "topics": [
            "0xddf252ad1be2c89b69c2b068fc378daa952ba7f163c4a11628f55a4df523b3ef",
            "0x000000000000000000000000c74c4119e25c2c6995868f48205da9a9d4f2b717",
            "0x0000000000000000000000003a4db9e7306af09012ceb0f222d581fd1f0c6d71"
          ],
          "data": "0x000000000000000000000000000000000000000000000000000000000001e848",
          "blockHash": "0x5bcd4f46709ed796c8de1fb1dd369f122bdfd8e12f723423f7f4df85e5117345",
          "blockNumber": "0x203994d",
          "transactionHash": "0xbbed564a9fcafe4c3c626144529c4edf20400e2e8f24580de95b5fe9a32c8700",
          "transactionIndex": "0x5",
          "logIndex": "0x1e",
          "removed": false
        },
        {
          "address": "0xc74c4119e25c2c6995868f48205da9a9d4f2b717",
          "topics": [
            "0xf3a2c404b3362c4238317c3dad1020c2e9e984ba8df38a4a1ff18d57e92a242a",
            "0x0000000000000000000000000000000000000000000000000000000000000001"
          ],
          "data": "0x000000000000000000000000000000000000000000000000000000000001e848",
          "blockHash": "0x5bcd4f46709ed796c8de1fb1dd369f122bdfd8e12f723423f7f4df85e5117345",
          "blockNumber": "0x203994d",
          "transactionHash": "0xbbed564a9fcafe4c3c626144529c4edf20400e2e8f24580de95b5fe9a32c8700",
          "transactionIndex": "0x5",
          "logIndex": "0x1f",
          "removed": false
        }
      ],
      "logsBloom": "0x000000000000000000001000004000000000000000000020000000000000000000000000000000000000000000044000001000008000000000000000000400000000000080000000000000080000000000000000000400000000000c0000008000000000020000000100000000000800000000000000000000000010000000000000000000000010800000000000400000000000000000002200000000000000000001000000000000000000000000000000000000000000400000000000010002000002000081200000022000000000000000400000041000000000000060000000000000004010000800000001000000000000000008000800000000000000",
      "type": "0x0",
      "transactionHash": "0xbbed564a9fcafe4c3c626144529c4edf20400e2e8f24580de95b5fe9a32c8700",
      "transactionIndex": "0x5",
      "blockHash": "0x5bcd4f46709ed796c8de1fb1dd369f122bdfd8e12f723423f7f4df85e5117345",
      "blockNumber": "0x203994d",
      "gasUsed": "0x5a1f3",
      "effectiveGasPrice": "0x5d22cfc40",
      "from": "0x3a4db9e7306af09012ceb0f222d581fd1f0c6d71",
      "to": "0xc74c4119e25c2c6995868f48205da9a9d4f2b717",
      "contractAddress": null,
      "l1BaseFeeScalar": "0x0",
      "l1BlobBaseFee": "0x5ead5bf",
      "l1BlobBaseFeeScalar": "0x0",
      "l1Fee": "0x0",
      "l1GasPrice": "0x1867079f",
      "l1GasUsed": "0x640"
    },
    {
      "status": "0x1",
      "cumulativeGasUsed": "0x14d58d",
      "logs": [
        {
          "address": "0xceba9300f2b948710d2653dd7b07f33a8b32118c",
          "topics": [
            "0x8c5be1e5ebec7d5bd14f71427d1e84f3dd0314c0f7b2291e5b200ac8c7c3b925",
            "0x0000000000000000000000003a4db9e7306af09012ceb0f222d581fd1f0c6d71",
            "0x000000000000000000000000c74c4119e25c2c6995868f48205da9a9d4f2b717"
          ],
          "data": "0x000000000000000000000000000000000000000000000000000000000002dc6c",
          "blockHash": "0x5bcd4f46709ed796c8de1fb1dd369f122bdfd8e12f723423f7f4df85e5117345",
          "blockNumber": "0x203994d",
          "transactionHash": "0x9eaa65152fd752400beed2ea2028499443976e564c05bc8508c07062e69e8a84",
          "transactionIndex": "0x6",
          "logIndex": "0x20",
          "removed": false
        }
      ],
      "logsBloom": "0x00000000000000000000100000000000000000000000002000000000000000000000000000000000000000000000000000000000000000000000000000200000000000000000000000000000000000000000000000000000000000000000000000000000000000000100000000000000000000000000000000000000000000000000000000000000000000000000400000000000000000000000000000000000020000000000000000000000000000000000000000000000000000000000000000000000000080000000020000000000000000000000001000000000000000000010000000000000000800000000000000000000000008000000000000000000",
      "type": "0x0",
      "transactionHash": "0x9eaa65152fd752400beed2ea2028499443976e564c05bc8508c07062e69e8a84",
      "transactionIndex": "0x6",
      "blockHash": "0x5bcd4f46709ed796c8de1fb1dd369f122bdfd8e12f723423f7f4df85e5117345",
      "blockNumber": "0x203994d",
      "gasUsed": "0xd88d",
      "effectiveGasPrice": "0x5d22cfc40",
      "from": "0x3a4db9e7306af09012ceb0f222d581fd1f0c6d71",
      "to": "0xceba9300f2b948710d2653dd7b07f33a8b32118c",
      "contractAddress": null,
      "l1BaseFeeScalar": "0x0",
      "l1BlobBaseFee": "0x5ead5bf",
      "l1BlobBaseFeeScalar": "0x0",
      "l1Fee": "0x0",
      "l1GasPrice": "0x1867079f",
      "l1GasUsed": "0x640"
    },
    {
      "status": "0x1",
      "cumulativeGasUsed": "0x180170",
      "logs": [
        {
          "address": "0xceba9300f2b948710d2653dd7b07f33a8b32118c",
          "topics": [
            "0xddf252ad1be2c89b69c2b068fc378daa952ba7f163c4a11628f55a4df523b3ef",
            "0x0000000000000000000000003a4db9e7306af09012ceb0f222d581fd1f0c6d71",
            "0x000000000000000000000000c74c4119e25c2c6995868f48205da9a9d4f2b717"
          ],
          "data": "0x000000000000000000000000000000000000000000000000000000000002dc6c",
          "blockHash": "0x5bcd4f46709ed796c8de1fb1dd369f122bdfd8e12f723423f7f4df85e5117345",
          "blockNumber": "0x203994d",
          "transactionHash": "0x0f51f29388f064f76830fd2c1d5b6ed7bda0c3b81d9d1c0f8cd75a225072313b",
          "transactionIndex": "0x7",
          "logIndex": "0x21",
          "removed": false
        },
        {
          "address": "0xceba9300f2b948710d2653dd7b07f33a8b32118c",
          "topics": [
            "0x8c5be1e5ebec7d5bd14f71427d1e84f3dd0314c0f7b2291e5b200ac8c7c3b925",
            "0x000000000000000000000000c74c4119e25c2c6995868f48205da9a9d4f2b717",
            "0x0000000000000000000000003e59a31363e2ad014dcbc521c4a0d5757d9f3402"
          ],
          "data": "0x000000000000000000000000000000000000000000000000000000000002dc6c",
          "blockHash": "0x5bcd4f46709ed796c8de1fb1dd369f122bdfd8e12f723423f7f4df85e5117345",
          "blockNumber": "0x203994d",
          "transactionHash": "0x0f51f29388f064f76830fd2c1d5b6ed7bda0c3b81d9d1c0f8cd75a225072313b",
          "transactionIndex": "0x7",
          "logIndex": "0x22",
          "removed": false
        },
        {
          "address": "0xdbe517c0fa6467873b684eccbed77217e471e862",
          "topics": [
            "0xddf252ad1be2c89b69c2b068fc378daa952ba7f163c4a11628f55a4df523b3ef",
            "0x000000000000000000000000c74c4119e25c2c6995868f48205da9a9d4f2b717",
            "0x0000000000000000000000000000000000000000000000000000000000000000"
          ],
          "data": "0x000000000000000000000000000000000000000000000000000000000002dc6c",
          "blockHash": "0x5bcd4f46709ed796c8de1fb1dd369f122bdfd8e12f723423f7f4df85e5117345",
          "blockNumber": "0x203994d",
          "transactionHash": "0x0f51f29388f064f76830fd2c1d5b6ed7bda0c3b81d9d1c0f8cd75a225072313b",
          "transactionIndex": "0x7",
          "logIndex": "0x23",
          "removed": false
        },
        {
          "address": "0xdbe517c0fa6467873b684eccbed77217e471e862",
          "topics": [
            "0x4cf25bc1d991c17529c25213d3cc0cda295eeaad5f13f361969b12ea48015f90",
            "0x000000000000000000000000c74c4119e25c2c6995868f48205da9a9d4f2b717",
            "0x0000000000000000000000000000000000000000000000000000000000000000"
          ],
          "data": "0x000000000000000000000000000000000000000000000000000000000002dc6c00000000000000000000000000000000000000000000000000000000000000000000000000000000000000000000000000000000033c4fb0ada1b7a6a6803720",
          "blockHash": "0x5bcd4f46709ed796c8de1fb1dd369f122bdfd8e12f723423f7f4df85e5117345",
          "blockNumber": "0x203994d",
          "transactionHash": "0x0f51f29388f064f76830fd2c1d5b6ed7bda0c3b81d9d1c0f8cd75a225072313b",
          "transactionIndex": "0x7",
          "logIndex": "0x24",
          "removed": false
        },
        {
          "address": "0x3e59a31363e2ad014dcbc521c4a0d5757d9f3402",
          "topics": [
            "0x804c9b842b2748a22bb64b345453a3de7ca54a6ca45ce00d415894979e22897a",
            "0x000000000000000000000000ceba9300f2b948710d2653dd7b07f33a8b32118c"
          ],
          "data": "0x00000000000000000000000000000000000000000000d50c86a1453ebd3671c7000000000000000000000000000000000000000000000000000000000000000000000000000000000000000000000000000000000007b68ab72e85b22670c0f30000000000000000000000000000000000000000033b68cc33939d2c14b5918a0000000000000000000000000000000000000000033c4fb0ada1b7a6a6803720",
          "blockHash": "0x5bcd4f46709ed796c8de1fb1dd369f122bdfd8e12f723423f7f4df85e5117345",
          "blockNumber": "0x203994d",
          "transactionHash": "0x0f51f29388f064f76830fd2c1d5b6ed7bda0c3b81d9d1c0f8cd75a225072313b",
          "transactionIndex": "0x7",
          "logIndex": "0x25",
          "removed": false
        },
        {
          "address": "0xceba9300f2b948710d2653dd7b07f33a8b32118c",
          "topics": [
            "0xddf252ad1be2c89b69c2b068fc378daa952ba7f163c4a11628f55a4df523b3ef",
            "0x000000000000000000000000c74c4119e25c2c6995868f48205da9a9d4f2b717",
            "0x000000000000000000000000ff8309b9e99bfd2d4021bc71a362abd93dbd4785"
          ],
          "data": "0x000000000000000000000000000000000000000000000000000000000002dc6c",
          "blockHash": "0x5bcd4f46709ed796c8de1fb1dd369f122bdfd8e12f723423f7f4df85e5117345",
          "blockNumber": "0x203994d",
          "transactionHash": "0x0f51f29388f064f76830fd2c1d5b6ed7bda0c3b81d9d1c0f8cd75a225072313b",
          "transactionIndex": "0x7",
          "logIndex": "0x26",
          "removed": false
        },
        {
          "address": "0x3e59a31363e2ad014dcbc521c4a0d5757d9f3402",
          "topics": [
            "0xa534c8dbe71f871f9f3530e97a74601fea17b426cae02e1c5aee42c96c784051",
            "0x000000000000000000000000ceba9300f2b948710d2653dd7b07f33a8b32118c",
            "0x000000000000000000000000c74c4119e25c2c6995868f48205da9a9d4f2b717",
            "0x000000000000000000000000c74c4119e25c2c6995868f48205da9a9d4f2b717"
          ],
          "data": "0x000000000000000000000000000000000000000000000000000000000002dc6c0000000000000000000000000000000000000000000000000000000000000000",
          "blockHash": "0x5bcd4f46709ed796c8de1fb1dd369f122bdfd8e12f723423f7f4df85e5117345",
          "blockNumber": "0x203994d",
          "transactionHash": "0x0f51f29388f064f76830fd2c1d5b6ed7bda0c3b81d9d1c0f8cd75a225072313b",
          "transactionIndex": "0x7",
          "logIndex": "0x27",
          "removed": false
        },
        {
          "address": "0xc74c4119e25c2c6995868f48205da9a9d4f2b717",
          "topics": [
            "0x0d4979b0859a1951f8ed7cbe3b1994e740552588f27ba02ca0f8f1ddcad16e0c",
            "0x0000000000000000000000000000000000000000000000000000000000000001"
          ],
          "data": "0x000000000000000000000000000000000000000000000000000000000002dc6c",
          "blockHash": "0x5bcd4f46709ed796c8de1fb1dd369f122bdfd8e12f723423f7f4df85e5117345",
          "blockNumber": "0x203994d",
          "transactionHash": "0x0f51f29388f064f76830fd2c1d5b6ed7bda0c3b81d9d1c0f8cd75a225072313b",
          "transactionIndex": "0x7",
          "logIndex": "0x28",
          "removed": false
        }
      ],
      "logsBloom": "0x10000000000000010000120010400000000000000000002000000000000000000000000000000000000000000000400000110000c00000000000000000240000000000008000000000000008000000000000002000040000000000080000008080000000020000000100000000000800000000000000000000000010000000000000000000000000800000000000400000000000000000002200000000000000020001100000000000000000000000000000000000000000400000000000010000000002000080200000022000000000000000000000001000000000000060040010100000004010000800000000000000000000000008000000000000040000",
      "type": "0x0",
      "transactionHash": "0x0f51f29388f064f76830fd2c1d5b6ed7bda0c3b81d9d1c0f8cd75a225072313b",
      "transactionIndex": "0x7",
      "blockHash": "0x5bcd4f46709ed796c8de1fb1dd369f122bdfd8e12f723423f7f4df85e5117345",
      "blockNumber": "0x203994d",
      "gasUsed": "0x32be3",
      "effectiveGasPrice": "0x5d22cfc40",
      "from": "0x3a4db9e7306af09012ceb0f222d581fd1f0c6d71",
      "to": "0xc74c4119e25c2c6995868f48205da9a9d4f2b717",
      "contractAddress": null,
      "l1BaseFeeScalar": "0x0",
      "l1BlobBaseFee": "0x5ead5bf",
      "l1BlobBaseFeeScalar": "0x0",
      "l1Fee": "0x0",
      "l1GasPrice": "0x1867079f",
      "l1GasUsed": "0x640"
    },
    {
      "status": "0x1",
      "cumulativeGasUsed": "0x1d2529",
      "logs": [
        {
          "address": "0x3e59a31363e2ad014dcbc521c4a0d5757d9f3402",
          "topics": [
            "0x804c9b842b2748a22bb64b345453a3de7ca54a6ca45ce00d415894979e22897a",
            "0x00000000000000000000000048065fbbe25f71c9282ddf5e1cd6d6a887483d5e"
          ],
          "data": "0x00000000000000000000000000000000000000000000000b15eb944cd395f32b0000000000000000000000000000000000000000000000000000000000000000000000000000000000000000000000000000000000001c268a0ee410bab0058f0000000000000000000000000000000000000000033b5f8e206a218eca476a590000000000000000000000000000000000000000033bcca18cbe56cee7dd14be",
          "blockHash": "0x5bcd4f46709ed796c8de1fb1dd369f122bdfd8e12f723423f7f4df85e5117345",
          "blockNumber": "0x203994d",
          "transactionHash": "0xb50d7fed013f8bb89a8763961323301c5c06bcd86596777534956d949796c403",
          "transactionIndex": "0x8",
          "logIndex": "0x29",
          "removed": false
        },
        {
          "address": "0xdee98402a302e4d707fb9bf2bac66faeec31e8df",
          "topics": [
            "0xddf252ad1be2c89b69c2b068fc378daa952ba7f163c4a11628f55a4df523b3ef",
            "0x000000000000000000000000c74c4119e25c2c6995868f48205da9a9d4f2b717",
            "0x0000000000000000000000000000000000000000000000000000000000000000"
          ],
          "data": "0x00000000000000000000000000000000000000000000000000000000000249f0",
          "blockHash": "0x5bcd4f46709ed796c8de1fb1dd369f122bdfd8e12f723423f7f4df85e5117345",
          "blockNumber": "0x203994d",
          "transactionHash": "0xb50d7fed013f8bb89a8763961323301c5c06bcd86596777534956d949796c403",
          "transactionIndex": "0x8",
          "logIndex": "0x2a",
          "removed": false
        },
        {
          "address": "0xdee98402a302e4d707fb9bf2bac66faeec31e8df",
          "topics": [
            "0x4cf25bc1d991c17529c25213d3cc0cda295eeaad5f13f361969b12ea48015f90",
            "0x000000000000000000000000c74c4119e25c2c6995868f48205da9a9d4f2b717",
            "0x0000000000000000000000003a4db9e7306af09012ceb0f222d581fd1f0c6d71"
          ],
          "data": "0x00000000000000000000000000000000000000000000000000000000000249f000000000000000000000000000000000000000000000000000000000000000000000000000000000000000000000000000000000033b5f8e206a218eca476a59",
          "blockHash": "0x5bcd4f46709ed796c8de1fb1dd369f122bdfd8e12f723423f7f4df85e5117345",
          "blockNumber": "0x203994d",
          "transactionHash": "0xb50d7fed013f8bb89a8763961323301c5c06bcd86596777534956d949796c403",
          "transactionIndex": "0x8",
          "logIndex": "0x2b",
          "removed": false
        },
        {
          "address": "0x48065fbbe25f71c9282ddf5e1cd6d6a887483d5e",
          "topics": [
            "0xddf252ad1be2c89b69c2b068fc378daa952ba7f163c4a11628f55a4df523b3ef",
            "0x000000000000000000000000dee98402a302e4d707fb9bf2bac66faeec31e8df",
            "0x0000000000000000000000003a4db9e7306af09012ceb0f222d581fd1f0c6d71"
          ],
          "data": "0x00000000000000000000000000000000000000000000000000000000000249f0",
          "blockHash": "0x5bcd4f46709ed796c8de1fb1dd369f122bdfd8e12f723423f7f4df85e5117345",
          "blockNumber": "0x203994d",
          "transactionHash": "0xb50d7fed013f8bb89a8763961323301c5c06bcd86596777534956d949796c403",
          "transactionIndex": "0x8",
          "logIndex": "0x2c",
          "removed": false
        },
        {
          "address": "0x3e59a31363e2ad014dcbc521c4a0d5757d9f3402",
          "topics": [
            "0x3115d1449a7b732c986cba18244e897a450f61e1bb8d589cd2e69e6c8924f9f7",
            "0x00000000000000000000000048065fbbe25f71c9282ddf5e1cd6d6a887483d5e",
            "0x000000000000000000000000c74c4119e25c2c6995868f48205da9a9d4f2b717",
            "0x0000000000000000000000003a4db9e7306af09012ceb0f222d581fd1f0c6d71"
          ],
          "data": "0x00000000000000000000000000000000000000000000000000000000000249f0",
          "blockHash": "0x5bcd4f46709ed796c8de1fb1dd369f122bdfd8e12f723423f7f4df85e5117345",
          "blockNumber": "0x203994d",
          "transactionHash": "0xb50d7fed013f8bb89a8763961323301c5c06bcd86596777534956d949796c403",
          "transactionIndex": "0x8",
          "logIndex": "0x2d",
          "removed": false
        },
        {
          "address": "0xc74c4119e25c2c6995868f48205da9a9d4f2b717",
          "topics": [
            "0x2399e8aed1977410745a5211d8226a3a7d9278f50a8a197c5ec6e285bb437f0b",
            "0x0000000000000000000000000000000000000000000000000000000000000001"
          ],
          "data": "0x00000000000000000000000000000000000000000000000000000000000249f0",
          "blockHash": "0x5bcd4f46709ed796c8de1fb1dd369f122bdfd8e12f723423f7f4df85e5117345",
          "blockNumber": "0x203994d",
          "transactionHash": "0xb50d7fed013f8bb89a8763961323301c5c06bcd86596777534956d949796c403",
          "transactionIndex": "0x8",
          "logIndex": "0x2e",
          "removed": false
        }
      ],
      "logsBloom": "0x1000000000000000020000000000000000900000000000200000000000000000000000080000000000000000000000000001000080000000000000000004000000000000000000080000000800000000000000000004000000000008000000800000000002000000010000000000080000000000002002004000001000000000000001000000000080000000000040000000000000006000020000000000000000000000008100000000004000000000100000000000000040000000000001000000000200008000000000a000000040000000000000001000000000000160040000000000000000000000000000000000000000000008000000000000000000",
      "type": "0x0",
      "transactionHash": "0xb50d7fed013f8bb89a8763961323301c5c06bcd86596777534956d949796c403",
      "transactionIndex": "0x8",
      "blockHash": "0x5bcd4f46709ed796c8de1fb1dd369f122bdfd8e12f723423f7f4df85e5117345",
      "blockNumber": "0x203994d",
      "gasUsed": "0x523b9",
      "effectiveGasPrice": "0x5d22cfc40",
      "from": "0x3a4db9e7306af09012ceb0f222d581fd1f0c6d71",
      "to": "0xc74c4119e25c2c6995868f48205da9a9d4f2b717",
      "contractAddress": null,
      "l1BaseFeeScalar": "0x0",
      "l1BlobBaseFee": "0x5ead5bf",
      "l1BlobBaseFeeScalar": "0x0",
      "l1Fee": "0x0",
      "l1GasPrice": "0x1867079f",
      "l1GasUsed": "0x640"
    },
    {
      "status": "0x1",
      "cumulativeGasUsed": "0x1dfdb6",
      "logs": [
        {
          "address": "0xceba9300f2b948710d2653dd7b07f33a8b32118c",
          "topics": [
            "0x8c5be1e5ebec7d5bd14f71427d1e84f3dd0314c0f7b2291e5b200ac8c7c3b925",
            "0x0000000000000000000000003a4db9e7306af09012ceb0f222d581fd1f0c6d71",
            "0x000000000000000000000000c74c4119e25c2c6995868f48205da9a9d4f2b717"
          ],
          "data": "0x000000000000000000000000000000000000000000000000000000000005b8d8",
          "blockHash": "0x5bcd4f46709ed796c8de1fb1dd369f122bdfd8e12f723423f7f4df85e5117345",
          "blockNumber": "0x203994d",
          "transactionHash": "0xe030e039cc777b623e193301098dca26319287886872055e6afd87e9891fa68c",
          "transactionIndex": "0x9",
          "logIndex": "0x2f",
          "removed": false
        }
      ],
      "logsBloom": "0x00000000000000000000100000000000000000000000002000000000000000000000000000000000000000000000000000000000000000000000000000200000000000000000000000000000000000000000000000000000000000000000000000000000000000000100000000000000000000000000000000000000000000000000000000000000000000000000400000000000000000000000000000000000020000000000000000000000000000000000000000000000000000000000000000000000000080000000020000000000000000000000001000000000000000000010000000000000000800000000000000000000000008000000000000000000",
      "type": "0x0",
      "transactionHash": "0xe030e039cc777b623e193301098dca26319287886872055e6afd87e9891fa68c",
      "transactionIndex": "0x9",
      "blockHash": "0x5bcd4f46709ed796c8de1fb1dd369f122bdfd8e12f723423f7f4df85e5117345",
      "blockNumber": "0x203994d",
      "gasUsed": "0xd88d",
      "effectiveGasPrice": "0x5d22cfc40",
      "from": "0x3a4db9e7306af09012ceb0f222d581fd1f0c6d71",
      "to": "0xceba9300f2b948710d2653dd7b07f33a8b32118c",
      "contractAddress": null,
      "l1BaseFeeScalar": "0x0",
      "l1BlobBaseFee": "0x5ead5bf",
      "l1BlobBaseFeeScalar": "0x0",
      "l1Fee": "0x0",
      "l1GasPrice": "0x1867079f",
      "l1GasUsed": "0x640"
    },
    {
      "status": "0x1",
      "cumulativeGasUsed": "0x21357f",
      "logs": [
        {
          "address": "0xceba9300f2b948710d2653dd7b07f33a8b32118c",
          "topics": [
            "0xddf252ad1be2c89b69c2b068fc378daa952ba7f163c4a11628f55a4df523b3ef",
            "0x0000000000000000000000003a4db9e7306af09012ceb0f222d581fd1f0c6d71",
            "0x000000000000000000000000c74c4119e25c2c6995868f48205da9a9d4f2b717"
          ],
          "data": "0x000000000000000000000000000000000000000000000000000000000002dc6c",
          "blockHash": "0x5bcd4f46709ed796c8de1fb1dd369f122bdfd8e12f723423f7f4df85e5117345",
          "blockNumber": "0x203994d",
          "transactionHash": "0x9cff84e09ce9b1492c7d20a96217de15680311662ef592b17fee4a0aaab1fb6d",
          "transactionIndex": "0xa",
          "logIndex": "0x30",
          "removed": false
        },
        {
          "address": "0xceba9300f2b948710d2653dd7b07f33a8b32118c",
          "topics": [
            "0x8c5be1e5ebec7d5bd14f71427d1e84f3dd0314c0f7b2291e5b200ac8c7c3b925",
            "0x000000000000000000000000c74c4119e25c2c6995868f48205da9a9d4f2b717",
            "0x0000000000000000000000003e59a31363e2ad014dcbc521c4a0d5757d9f3402"
          ],
          "data": "0x000000000000000000000000000000000000000000000000000000000002dc6c",
          "blockHash": "0x5bcd4f46709ed796c8de1fb1dd369f122bdfd8e12f723423f7f4df85e5117345",
          "blockNumber": "0x203994d",
          "transactionHash": "0x9cff84e09ce9b1492c7d20a96217de15680311662ef592b17fee4a0aaab1fb6d",
          "transactionIndex": "0xa",
          "logIndex": "0x31",
          "removed": false
        },
        {
          "address": "0xdbe517c0fa6467873b684eccbed77217e471e862",
          "topics": [
            "0xddf252ad1be2c89b69c2b068fc378daa952ba7f163c4a11628f55a4df523b3ef",
            "0x000000000000000000000000c74c4119e25c2c6995868f48205da9a9d4f2b717",
            "0x0000000000000000000000000000000000000000000000000000000000000000"
          ],
          "data": "0x000000000000000000000000000000000000000000000000000000000002dc6c",
          "blockHash": "0x5bcd4f46709ed796c8de1fb1dd369f122bdfd8e12f723423f7f4df85e5117345",
          "blockNumber": "0x203994d",
          "transactionHash": "0x9cff84e09ce9b1492c7d20a96217de15680311662ef592b17fee4a0aaab1fb6d",
          "transactionIndex": "0xa",
          "logIndex": "0x32",
          "removed": false
        },
        {
          "address": "0xdbe517c0fa6467873b684eccbed77217e471e862",
          "topics": [
            "0x4cf25bc1d991c17529c25213d3cc0cda295eeaad5f13f361969b12ea48015f90",
            "0x000000000000000000000000c74c4119e25c2c6995868f48205da9a9d4f2b717",
            "0x0000000000000000000000000000000000000000000000000000000000000000"
          ],
          "data": "0x000000000000000000000000000000000000000000000000000000000002dc6c00000000000000000000000000000000000000000000000000000000000000000000000000000000000000000000000000000000033c4fb0ada1b7a6a6803720",
          "blockHash": "0x5bcd4f46709ed796c8de1fb1dd369f122bdfd8e12f723423f7f4df85e5117345",
          "blockNumber": "0x203994d",
          "transactionHash": "0x9cff84e09ce9b1492c7d20a96217de15680311662ef592b17fee4a0aaab1fb6d",
          "transactionIndex": "0xa",
          "logIndex": "0x33",
          "removed": false
        },
        {
          "address": "0x3e59a31363e2ad014dcbc521c4a0d5757d9f3402",
          "topics": [
            "0x804c9b842b2748a22bb64b345453a3de7ca54a6ca45ce00d415894979e22897a",
            "0x000000000000000000000000ceba9300f2b948710d2653dd7b07f33a8b32118c"
          ],
          "data": "0x00000000000000000000000000000000000000000000d50c526fcb1650e329cd000000000000000000000000000000000000000000000000000000000000000000000000000000000000000000000000000000000007b689c5513de3f18515a00000000000000000000000000000000000000000033b68cc33939d2c14b5918a0000000000000000000000000000000000000000033c4fb0ada1b7a6a6803720",
          "blockHash": "0x5bcd4f46709ed796c8de1fb1dd369f122bdfd8e12f723423f7f4df85e5117345",
          "blockNumber": "0x203994d",
          "transactionHash": "0x9cff84e09ce9b1492c7d20a96217de15680311662ef592b17fee4a0aaab1fb6d",
          "transactionIndex": "0xa",
          "logIndex": "0x34",
          "removed": false
        },
        {
          "address": "0xceba9300f2b948710d2653dd7b07f33a8b32118c",
          "topics": [
            "0xddf252ad1be2c89b69c2b068fc378daa952ba7f163c4a11628f55a4df523b3ef",
            "0x000000000000000000000000c74c4119e25c2c6995868f48205da9a9d4f2b717",
            "0x000000000000000000000000ff8309b9e99bfd2d4021bc71a362abd93dbd4785"
          ],
          "data": "0x000000000000000000000000000000000000000000000000000000000002dc6c",
          "blockHash": "0x5bcd4f46709ed796c8de1fb1dd369f122bdfd8e12f723423f7f4df85e5117345",
          "blockNumber": "0x203994d",
          "transactionHash": "0x9cff84e09ce9b1492c7d20a96217de15680311662ef592b17fee4a0aaab1fb6d",
          "transactionIndex": "0xa",
          "logIndex": "0x35",
          "removed": false
        },
        {
          "address": "0x3e59a31363e2ad014dcbc521c4a0d5757d9f3402",
          "topics": [
            "0xa534c8dbe71f871f9f3530e97a74601fea17b426cae02e1c5aee42c96c784051",
            "0x000000000000000000000000ceba9300f2b948710d2653dd7b07f33a8b32118c",
            "0x000000000000000000000000c74c4119e25c2c6995868f48205da9a9d4f2b717",
            "0x000000000000000000000000c74c4119e25c2c6995868f48205da9a9d4f2b717"
          ],
          "data": "0x000000000000000000000000000000000000000000000000000000000002dc6c0000000000000000000000000000000000000000000000000000000000000000",
          "blockHash": "0x5bcd4f46709ed796c8de1fb1dd369f122bdfd8e12f723423f7f4df85e5117345",
          "blockNumber": "0x203994d",
          "transactionHash": "0x9cff84e09ce9b1492c7d20a96217de15680311662ef592b17fee4a0aaab1fb6d",
          "transactionIndex": "0xa",
          "logIndex": "0x36",
          "removed": false
        },
        {
          "address": "0xc74c4119e25c2c6995868f48205da9a9d4f2b717",
          "topics": [
            "0x0d4979b0859a1951f8ed7cbe3b1994e740552588f27ba02ca0f8f1ddcad16e0c",
            "0x0000000000000000000000000000000000000000000000000000000000000001"
          ],
          "data": "0x000000000000000000000000000000000000000000000000000000000002dc6c",
          "blockHash": "0x5bcd4f46709ed796c8de1fb1dd369f122bdfd8e12f723423f7f4df85e5117345",
          "blockNumber": "0x203994d",
          "transactionHash": "0x9cff84e09ce9b1492c7d20a96217de15680311662ef592b17fee4a0aaab1fb6d",
          "transactionIndex": "0xa",
          "logIndex": "0x37",
          "removed": false
        }
      ],
      "logsBloom": "0x10000000000000010000120010400000000000000000002000000000000000000000000000000000000000000000400000110000c00000000000000000240000000000008000000000000008000000000000002000040000000000080000008080000000020000000100000000000800000000000000000000000010000000000000000000000000800000000000400000000000000000002200000000000000020001100000000000000000000000000000000000000000400000000000010000000002000080200000022000000000000000000000001000000000000060040010100000004010000800000000000000000000000008000000000000040000",
      "type": "0x0",
      "transactionHash": "0x9cff84e09ce9b1492c7d20a96217de15680311662ef592b17fee4a0aaab1fb6d",
      "transactionIndex": "0xa",
      "blockHash": "0x5bcd4f46709ed796c8de1fb1dd369f122bdfd8e12f723423f7f4df85e5117345",
      "blockNumber": "0x203994d",
      "gasUsed": "0x337c9",
      "effectiveGasPrice": "0x5d22cfc40",
      "from": "0x3a4db9e7306af09012ceb0f222d581fd1f0c6d71",
      "to": "0xc74c4119e25c2c6995868f48205da9a9d4f2b717",
      "contractAddress": null,
      "l1BaseFeeScalar": "0x0",
      "l1BlobBaseFee": "0x5ead5bf",
      "l1BlobBaseFeeScalar": "0x0",
      "l1Fee": "0x0",
      "l1GasPrice": "0x1867079f",
      "l1GasUsed": "0x640"
    },
    {
      "status": "0x1",
      "cumulativeGasUsed": "0x24f7a6",
      "logs": [
        {
          "address": "0x3e59a31363e2ad014dcbc521c4a0d5757d9f3402",
          "topics": [
            "0x804c9b842b2748a22bb64b345453a3de7ca54a6ca45ce00d415894979e22897a",
            "0x00000000000000000000000048065fbbe25f71c9282ddf5e1cd6d6a887483d5e"
          ],
          "data": "0x00000000000000000000000000000000000000000000000b15ebe00a12fc93a60000000000000000000000000000000000000000000000000000000000000000000000000000000000000000000000000000000000001c268a6f0e554ce551500000000000000000000000000000000000000000033b5f8e206a218eca476a590000000000000000000000000000000000000000033bcca18cbe56cee7dd14be",
          "blockHash": "0x5bcd4f46709ed796c8de1fb1dd369f122bdfd8e12f723423f7f4df85e5117345",
          "blockNumber": "0x203994d",
          "transactionHash": "0xefb712a5f5369d485827554c024404ec67b0566bc139e3c7c776a746244e6058",
          "transactionIndex": "0xb",
          "logIndex": "0x38",
          "removed": false
        },
        {
          "address": "0xdee98402a302e4d707fb9bf2bac66faeec31e8df",
          "topics": [
            "0xddf252ad1be2c89b69c2b068fc378daa952ba7f163c4a11628f55a4df523b3ef",
            "0x000000000000000000000000c74c4119e25c2c6995868f48205da9a9d4f2b717",
            "0x0000000000000000000000000000000000000000000000000000000000000000"
          ],
          "data": "0x00000000000000000000000000000000000000000000000000000000000927c0",
          "blockHash": "0x5bcd4f46709ed796c8de1fb1dd369f122bdfd8e12f723423f7f4df85e5117345",
          "blockNumber": "0x203994d",
          "transactionHash": "0xefb712a5f5369d485827554c024404ec67b0566bc139e3c7c776a746244e6058",
          "transactionIndex": "0xb",
          "logIndex": "0x39",
          "removed": false
        },
        {
          "address": "0xdee98402a302e4d707fb9bf2bac66faeec31e8df",
          "topics": [
            "0x4cf25bc1d991c17529c25213d3cc0cda295eeaad5f13f361969b12ea48015f90",
            "0x000000000000000000000000c74c4119e25c2c6995868f48205da9a9d4f2b717",
            "0x0000000000000000000000003a4db9e7306af09012ceb0f222d581fd1f0c6d71"
          ],
          "data": "0x00000000000000000000000000000000000000000000000000000000000927c000000000000000000000000000000000000000000000000000000000000000000000000000000000000000000000000000000000033b5f8e206a218eca476a59",
          "blockHash": "0x5bcd4f46709ed796c8de1fb1dd369f122bdfd8e12f723423f7f4df85e5117345",
          "blockNumber": "0x203994d",
          "transactionHash": "0xefb712a5f5369d485827554c024404ec67b0566bc139e3c7c776a746244e6058",
          "transactionIndex": "0xb",
          "logIndex": "0x3a",
          "removed": false
        },
        {
          "address": "0x48065fbbe25f71c9282ddf5e1cd6d6a887483d5e",
          "topics": [
            "0xddf252ad1be2c89b69c2b068fc378daa952ba7f163c4a11628f55a4df523b3ef",
            "0x000000000000000000000000dee98402a302e4d707fb9bf2bac66faeec31e8df",
            "0x0000000000000000000000003a4db9e7306af09012ceb0f222d581fd1f0c6d71"
          ],
          "data": "0x00000000000000000000000000000000000000000000000000000000000927c0",
          "blockHash": "0x5bcd4f46709ed796c8de1fb1dd369f122bdfd8e12f723423f7f4df85e5117345",
          "blockNumber": "0x203994d",
          "transactionHash": "0xefb712a5f5369d485827554c024404ec67b0566bc139e3c7c776a746244e6058",
          "transactionIndex": "0xb",
          "logIndex": "0x3b",
          "removed": false
        },
        {
          "address": "0x3e59a31363e2ad014dcbc521c4a0d5757d9f3402",
          "topics": [
            "0x3115d1449a7b732c986cba18244e897a450f61e1bb8d589cd2e69e6c8924f9f7",
            "0x00000000000000000000000048065fbbe25f71c9282ddf5e1cd6d6a887483d5e",
            "0x000000000000000000000000c74c4119e25c2c6995868f48205da9a9d4f2b717",
            "0x0000000000000000000000003a4db9e7306af09012ceb0f222d581fd1f0c6d71"
          ],
          "data": "0x00000000000000000000000000000000000000000000000000000000000927c0",
          "blockHash": "0x5bcd4f46709ed796c8de1fb1dd369f122bdfd8e12f723423f7f4df85e5117345",
          "blockNumber": "0x203994d",
          "transactionHash": "0xefb712a5f5369d485827554c024404ec67b0566bc139e3c7c776a746244e6058",
          "transactionIndex": "0xb",
          "logIndex": "0x3c",
          "removed": false
        },
        {
          "address": "0xc74c4119e25c2c6995868f48205da9a9d4f2b717",
          "topics": [
            "0x2399e8aed1977410745a5211d8226a3a7d9278f50a8a197c5ec6e285bb437f0b",
            "0x0000000000000000000000000000000000000000000000000000000000000001"
          ],
          "data": "0x00000000000000000000000000000000000000000000000000000000000927c0",
          "blockHash": "0x5bcd4f46709ed796c8de1fb1dd369f122bdfd8e12f723423f7f4df85e5117345",
          "blockNumber": "0x203994d",
          "transactionHash": "0xefb712a5f5369d485827554c024404ec67b0566bc139e3c7c776a746244e6058",
          "transactionIndex": "0xb",
          "logIndex": "0x3d",
          "removed": false
        }
      ],
      "logsBloom": "0x1000000000000000020000000000000000900000000000200000000000000000000000080000000000000000000000000001000080000000000000000004000000000000000000080000000800000000000000000004000000000008000000800000000002000000010000000000080000000000002002004000001000000000000001000000000080000000000040000000000000006000020000000000000000000000008100000000004000000000100000000000000040000000000001000000000200008000000000a000000040000000000000001000000000000160040000000000000000000000000000000000000000000008000000000000000000",
      "type": "0x0",
      "transactionHash": "0xefb712a5f5369d485827554c024404ec67b0566bc139e3c7c776a746244e6058",
      "transactionIndex": "0xb",
      "blockHash": "0x5bcd4f46709ed796c8de1fb1dd369f122bdfd8e12f723423f7f4df85e5117345",
      "blockNumber": "0x203994d",
      "gasUsed": "0x3c227",
      "effectiveGasPrice": "0x5d22cfc40",
      "from": "0x3a4db9e7306af09012ceb0f222d581fd1f0c6d71",
      "to": "0xc74c4119e25c2c6995868f48205da9a9d4f2b717",
      "contractAddress": null,
      "l1BaseFeeScalar": "0x0",
      "l1BlobBaseFee": "0x5ead5bf",
      "l1BlobBaseFeeScalar": "0x0",
      "l1Fee": "0x0",
      "l1GasPrice": "0x1867079f",
      "l1GasUsed": "0x640"
    }
  ],
  "libraries": [],
  "pending": [],
  "returns": {},
  "timestamp": 1745691044,
  "chain": 42220,
  "commit": "1cefd9d"
}