{
  "transactions": [
    {
      "hash": "0x7b4f698a982004a6511801d679659045c686cc6529d3a26165ee19fe13eec6aa",
      "transactionType": "CALL",
      "contractName": null,
      "contractAddress": "0x48065fbbe25f71c9282ddf5e1cd6d6a887483d5e",
      "function": "approve(address,uint256)",
      "arguments": [
        "0xd2B508298fCC37261953684744ec4CCc734d5083",
        "500000"
      ],
      "transaction": {
        "from": "0x3a4db9e7306af09012ceb0f222d581fd1f0c6d71",
        "to": "0x48065fbbe25f71c9282ddf5e1cd6d6a887483d5e",
        "gas": "0x1201c",
        "value": "0x0",
        "input": "0x095ea7b3000000000000000000000000d2b508298fcc37261953684744ec4ccc734d5083000000000000000000000000000000000000000000000000000000000007a120",
        "nonce": "0xdc",
        "chainId": "0xa4ec"
      },
      "additionalContracts": [],
      "isFixedGasLimit": false
    },
    {
      "hash": "0xe70f3f6db64c3fb3f1bda44437b4f185be700d5b73c38105d4e324a049a49fa9",
      "transactionType": "CALL",
      "contractName": null,
      "contractAddress": "0xd2b508298fcc37261953684744ec4ccc734d5083",
      "function": "createPosition(address,uint256,address,uint256,uint256)",
      "arguments": [
        "0x48065fbBE25f71C9282ddf5e1cD6D6A887483D5e",
        "500000",
        "0xcebA9300f2b948710d2653dD7B07f33A8B32118C",
        "250000",
        "2"
      ],
      "transaction": {
        "from": "0x3a4db9e7306af09012ceb0f222d581fd1f0c6d71",
        "to": "0xd2b508298fcc37261953684744ec4ccc734d5083",
        "gas": "0xda84a",
        "value": "0x0",
        "input": "0xb0c3d5df00000000000000000000000048065fbbe25f71c9282ddf5e1cd6d6a887483d5e000000000000000000000000000000000000000000000000000000000007a120000000000000000000000000ceba9300f2b948710d2653dd7b07f33a8b32118c000000000000000000000000000000000000000000000000000000000003d0900000000000000000000000000000000000000000000000000000000000000002",
        "nonce": "0xdd",
        "chainId": "0xa4ec"
      },
      "additionalContracts": [],
      "isFixedGasLimit": false
    },
    {
      "hash": "0xf6d61bc24fc2854a3d3cbb96f657365cac64ebc274177e6384eccd56524456fe",
      "transactionType": "CALL",
      "contractName": null,
      "contractAddress": "0x48065fbbe25f71c9282ddf5e1cd6d6a887483d5e",
      "function": "approve(address,uint256)",
      "arguments": [
        "0xd2B508298fCC37261953684744ec4CCc734d5083",
        "250000"
      ],
      "transaction": {
        "from": "0x3a4db9e7306af09012ceb0f222d581fd1f0c6d71",
        "to": "0x48065fbbe25f71c9282ddf5e1cd6d6a887483d5e",
        "gas": "0x1201c",
        "value": "0x0",
        "input": "0x095ea7b3000000000000000000000000d2b508298fcc37261953684744ec4ccc734d5083000000000000000000000000000000000000000000000000000000000003d090",
        "nonce": "0xde",
        "chainId": "0xa4ec"
      },
      "additionalContracts": [],
      "isFixedGasLimit": false
    },
    {
      "hash": "0x8f487e1cb7329ec1853b37802c4ff2fd99280860f0ed5ed7daa043b8d6a88684",
      "transactionType": "CALL",
      "contractName": null,
      "contractAddress": "0xd2b508298fcc37261953684744ec4ccc734d5083",
      "function": "addCollateral(uint256,uint256)",
      "arguments": [
        "8",
        "250000"
      ],
      "transaction": {
        "from": "0x3a4db9e7306af09012ceb0f222d581fd1f0c6d71",
        "to": "0xd2b508298fcc37261953684744ec4ccc734d5083",
        "gas": "0x4b6d2",
        "value": "0x0",
        "input": "0xa8f35adf0000000000000000000000000000000000000000000000000000000000000008000000000000000000000000000000000000000000000000000000000003d090",
        "nonce": "0xdf",
        "chainId": "0xa4ec"
      },
      "additionalContracts": [],
      "isFixedGasLimit": false
    },
    {
      "hash": "0xf5e2d159c6cc3b818749807dfc616dd10d8116473d7c16d44233fbd77dae9dc6",
      "transactionType": "CALL",
      "contractName": null,
      "contractAddress": "0xd2b508298fcc37261953684744ec4ccc734d5083",
      "function": "increaseBorrow(uint256,uint256)",
      "arguments": [
        "8",
        "125000"
      ],
      "transaction": {
        "from": "0x3a4db9e7306af09012ceb0f222d581fd1f0c6d71",
        "to": "0xd2b508298fcc37261953684744ec4ccc734d5083",
        "gas": "0x815b7",
        "value": "0x0",
        "input": "0x9e6824d90000000000000000000000000000000000000000000000000000000000000008000000000000000000000000000000000000000000000000000000000001e848",
        "nonce": "0xe0",
        "chainId": "0xa4ec"
      },
      "additionalContracts": [],
      "isFixedGasLimit": false
    },
    {
      "hash": "0x4a9ac3e7a8e021b7e564f1c6e5c6105406554007a6ee791d835a0af0b645ff24",
      "transactionType": "CALL",
      "contractName": null,
      "contractAddress": "0xceba9300f2b948710d2653dd7b07f33a8b32118c",
      "function": "approve(address,uint256)",
      "arguments": [
        "0xd2B508298fCC37261953684744ec4CCc734d5083",
        "187500"
      ],
      "transaction": {
        "from": "0x3a4db9e7306af09012ceb0f222d581fd1f0c6d71",
        "to": "0xceba9300f2b948710d2653dd7b07f33a8b32118c",
        "gas": "0xcb04",
        "value": "0x0",
        "input": "0x095ea7b3000000000000000000000000d2b508298fcc37261953684744ec4ccc734d5083000000000000000000000000000000000000000000000000000000000002dc6c",
        "nonce": "0xe1",
        "chainId": "0xa4ec"
      },
      "additionalContracts": [],
      "isFixedGasLimit": false
    },
    {
      "hash": "0x255f59affede0313a378de44513c71c38b96af2649948ca3c0c6bd7b13ed78c0",
      "transactionType": "CALL",
      "contractName": null,
      "contractAddress": "0xd2b508298fcc37261953684744ec4ccc734d5083",
      "function": "repayDebt(uint256,uint256)",
      "arguments": [
        "8",
        "187500"
      ],
      "transaction": {
        "from": "0x3a4db9e7306af09012ceb0f222d581fd1f0c6d71",
        "to": "0xd2b508298fcc37261953684744ec4ccc734d5083",
        "gas": "0x4874c",
        "value": "0x0",
        "input": "0x015cb0a50000000000000000000000000000000000000000000000000000000000000008000000000000000000000000000000000000000000000000000000000002dc6c",
        "nonce": "0xe2",
        "chainId": "0xa4ec"
      },
      "additionalContracts": [],
      "isFixedGasLimit": false
    },
    {
      "hash": "0xea5165e896d6c97d504e5c5509466cd3ee0af3ae17ae86575018570b9b2b2a13",
      "transactionType": "CALL",
      "contractName": null,
      "contractAddress": "0xd2b508298fcc37261953684744ec4ccc734d5083",
      "function": "withdrawCollateral(uint256,uint256)",
      "arguments": [
        "8",
        "150000"
      ],
      "transaction": {
        "from": "0x3a4db9e7306af09012ceb0f222d581fd1f0c6d71",
        "to": "0xd2b508298fcc37261953684744ec4ccc734d5083",
        "gas": "0x75c35",
        "value": "0x0",
        "input": "0x767a7b05000000000000000000000000000000000000000000000000000000000000000800000000000000000000000000000000000000000000000000000000000249f0",
        "nonce": "0xe3",
        "chainId": "0xa4ec"
      },
      "additionalContracts": [],
      "isFixedGasLimit": false
    },
    {
      "hash": "0x554b5be77191144a5b5bcc903f24dd44070f5dc4071d960b3ab35af70e87a0b3",
      "transactionType": "CALL",
      "contractName": null,
      "contractAddress": "0xceba9300f2b948710d2653dd7b07f33a8b32118c",
      "function": "approve(address,uint256)",
      "arguments": [
        "0xd2B508298fCC37261953684744ec4CCc734d5083",
        "375000"
      ],
      "transaction": {
        "from": "0x3a4db9e7306af09012ceb0f222d581fd1f0c6d71",
        "to": "0xceba9300f2b948710d2653dd7b07f33a8b32118c",
        "gas": "0x12b1b",
        "value": "0x0",
        "input": "0x095ea7b3000000000000000000000000d2b508298fcc37261953684744ec4ccc734d5083000000000000000000000000000000000000000000000000000000000005b8d8",
        "nonce": "0xe4",
        "chainId": "0xa4ec"
      },
      "additionalContracts": [],
      "isFixedGasLimit": false
    },
    {
      "hash": "0x6d0138ea18d0654f5de1e4fa8f3ec49c12227d2097925cb59e602dc5532d0627",
      "transactionType": "CALL",
      "contractName": null,
      "contractAddress": "0xd2b508298fcc37261953684744ec4ccc734d5083",
      "function": "repayDebt(uint256,uint256)",
      "arguments": [
        "8",
        "187500"
      ],
      "transaction": {
        "from": "0x3a4db9e7306af09012ceb0f222d581fd1f0c6d71",
        "to": "0xd2b508298fcc37261953684744ec4ccc734d5083",
        "gas": "0x485f1",
        "value": "0x0",
        "input": "0x015cb0a50000000000000000000000000000000000000000000000000000000000000008000000000000000000000000000000000000000000000000000000000002dc6c",
        "nonce": "0xe5",
        "chainId": "0xa4ec"
      },
      "additionalContracts": [],
      "isFixedGasLimit": false
    },
    {
      "hash": "0x0639b4969fe61bf4ac2d773f6f9734ba27be3fbf6de0d400315c2e941cf3f177",
      "transactionType": "CALL",
      "contractName": null,
      "contractAddress": "0xd2b508298fcc37261953684744ec4ccc734d5083",
      "function": "withdrawCollateral(uint256,uint256)",
      "arguments": [
        "8",
        "600000"
      ],
      "transaction": {
        "from": "0x3a4db9e7306af09012ceb0f222d581fd1f0c6d71",
        "to": "0xd2b508298fcc37261953684744ec4ccc734d5083",
        "gas": "0x740c9",
        "value": "0x0",
        "input": "0x767a7b05000000000000000000000000000000000000000000000000000000000000000800000000000000000000000000000000000000000000000000000000000927c0",
        "nonce": "0xe6",
        "chainId": "0xa4ec"
      },
      "additionalContracts": [],
      "isFixedGasLimit": false
    }
  ],
  "receipts": [
    {
      "status": "0x1",
      "cumulativeGasUsed": "0x272a51",
      "logs": [
        {
          "address": "0x48065fbbe25f71c9282ddf5e1cd6d6a887483d5e",
          "topics": [
            "0x8c5be1e5ebec7d5bd14f71427d1e84f3dd0314c0f7b2291e5b200ac8c7c3b925",
            "0x0000000000000000000000003a4db9e7306af09012ceb0f222d581fd1f0c6d71",
            "0x000000000000000000000000d2b508298fcc37261953684744ec4ccc734d5083"
          ],
          "data": "0x000000000000000000000000000000000000000000000000000000000007a120",
          "blockHash": "0xd1955a007b7bf6b24665384eddc05ba0642d13cddc49feba4925f1bcc1d108f3",
          "blockNumber": "0x2048aef",
          "transactionHash": "0x7b4f698a982004a6511801d679659045c686cc6529d3a26165ee19fe13eec6aa",
          "transactionIndex": "0xe",
          "logIndex": "0x43",
          "removed": false
        }
      ],
      "logsBloom": "0x00000000000000000000000000000000000000000000000000000000000000000000000000000000000000000000000000000000000000000000000000200000000000000000000000000000000000000000000000000000000000000000000000000000000000000000000000000000000000000000000040000000000000000000010000000000000000000000400000000000000000000000000000000000020000000000000000000000000000000000000000000000000000000000000000000000000080000000008000000000000000000000001000000000000000000110100000000000000000000000000000000000000010000000000000000000",
      "type": "0x0",
      "transactionHash": "0x7b4f698a982004a6511801d679659045c686cc6529d3a26165ee19fe13eec6aa",
      "transactionIndex": "0xe",
      "blockHash": "0xd1955a007b7bf6b24665384eddc05ba0642d13cddc49feba4925f1bcc1d108f3",
      "blockNumber": "0x2048aef",
      "gasUsed": "0xd097",
      "effectiveGasPrice": "0x5d22cfc40",
      "from": "0x3a4db9e7306af09012ceb0f222d581fd1f0c6d71",
      "to": "0x48065fbbe25f71c9282ddf5e1cd6d6a887483d5e",
      "contractAddress": null,
      "l1BaseFeeScalar": "0x0",
      "l1BlobBaseFee": "0x4632d75f",
      "l1BlobBaseFeeScalar": "0x0",
      "l1Fee": "0x0",
      "l1GasPrice": "0x126b5a82",
      "l1GasUsed": "0x640"
    },
    {
      "status": "0x1",
      "cumulativeGasUsed": "0x15c526",
      "logs": [
        {
          "address": "0x48065fbbe25f71c9282ddf5e1cd6d6a887483d5e",
          "topics": [
            "0xddf252ad1be2c89b69c2b068fc378daa952ba7f163c4a11628f55a4df523b3ef",
            "0x0000000000000000000000003a4db9e7306af09012ceb0f222d581fd1f0c6d71",
            "0x000000000000000000000000d2b508298fcc37261953684744ec4ccc734d5083"
          ],
          "data": "0x000000000000000000000000000000000000000000000000000000000007a120",
          "blockHash": "0xe4c565731252879c43fb1d8695d19657b391b2f1103e71f8fcb808a6e08ca390",
          "blockNumber": "0x2048af0",
          "transactionHash": "0xe70f3f6db64c3fb3f1bda44437b4f185be700d5b73c38105d4e324a049a49fa9",
          "transactionIndex": "0x5",
          "logIndex": "0x18",
          "removed": false
        },
        {
          "address": "0x48065fbbe25f71c9282ddf5e1cd6d6a887483d5e",
          "topics": [
            "0x8c5be1e5ebec7d5bd14f71427d1e84f3dd0314c0f7b2291e5b200ac8c7c3b925",
            "0x0000000000000000000000003a4db9e7306af09012ceb0f222d581fd1f0c6d71",
            "0x000000000000000000000000d2b508298fcc37261953684744ec4ccc734d5083"
          ],
          "data": "0x0000000000000000000000000000000000000000000000000000000000000000",
          "blockHash": "0xe4c565731252879c43fb1d8695d19657b391b2f1103e71f8fcb808a6e08ca390",
          "blockNumber": "0x2048af0",
          "transactionHash": "0xe70f3f6db64c3fb3f1bda44437b4f185be700d5b73c38105d4e324a049a49fa9",
          "transactionIndex": "0x5",
          "logIndex": "0x19",
          "removed": false
        },
        {
          "address": "0x48065fbbe25f71c9282ddf5e1cd6d6a887483d5e",
          "topics": [
            "0x8c5be1e5ebec7d5bd14f71427d1e84f3dd0314c0f7b2291e5b200ac8c7c3b925",
            "0x000000000000000000000000d2b508298fcc37261953684744ec4ccc734d5083",
            "0x0000000000000000000000003e59a31363e2ad014dcbc521c4a0d5757d9f3402"
          ],
          "data": "0x000000000000000000000000000000000000000000000000000000000007a120",
          "blockHash": "0xe4c565731252879c43fb1d8695d19657b391b2f1103e71f8fcb808a6e08ca390",
          "blockNumber": "0x2048af0",
          "transactionHash": "0xe70f3f6db64c3fb3f1bda44437b4f185be700d5b73c38105d4e324a049a49fa9",
          "transactionIndex": "0x5",
          "logIndex": "0x1a",
          "removed": false
        },
        {
          "address": "0x3e59a31363e2ad014dcbc521c4a0d5757d9f3402",
          "topics": [
            "0x804c9b842b2748a22bb64b345453a3de7ca54a6ca45ce00d415894979e22897a",
            "0x00000000000000000000000048065fbbe25f71c9282ddf5e1cd6d6a887483d5e"
          ],
          "data": "0x00000000000000000000000000000000000000000000000b15eb183320bb106d0000000000000000000000000000000000000000000000000000000000000000000000000000000000000000000000000000000000001c268971527e7597fb0d0000000000000000000000000000000000000000033b5f8e25fb88a0294d0a6b0000000000000000000000000000000000000000033bccafb23cd6553e932931",
          "blockHash": "0xe4c565731252879c43fb1d8695d19657b391b2f1103e71f8fcb808a6e08ca390",
          "blockNumber": "0x2048af0",
          "transactionHash": "0xe70f3f6db64c3fb3f1bda44437b4f185be700d5b73c38105d4e324a049a49fa9",
          "transactionIndex": "0x5",
          "logIndex": "0x1b",
          "removed": false
        },
        {
          "address": "0x48065fbbe25f71c9282ddf5e1cd6d6a887483d5e",
          "topics": [
            "0xddf252ad1be2c89b69c2b068fc378daa952ba7f163c4a11628f55a4df523b3ef",
            "0x000000000000000000000000d2b508298fcc37261953684744ec4ccc734d5083",
            "0x000000000000000000000000dee98402a302e4d707fb9bf2bac66faeec31e8df"
          ],
          "data": "0x000000000000000000000000000000000000000000000000000000000007a120",
          "blockHash": "0xe4c565731252879c43fb1d8695d19657b391b2f1103e71f8fcb808a6e08ca390",
          "blockNumber": "0x2048af0",
          "transactionHash": "0xe70f3f6db64c3fb3f1bda44437b4f185be700d5b73c38105d4e324a049a49fa9",
          "transactionIndex": "0x5",
          "logIndex": "0x1c",
          "removed": false
        },
        {
          "address": "0x48065fbbe25f71c9282ddf5e1cd6d6a887483d5e",
          "topics": [
            "0x8c5be1e5ebec7d5bd14f71427d1e84f3dd0314c0f7b2291e5b200ac8c7c3b925",
            "0x000000000000000000000000d2b508298fcc37261953684744ec4ccc734d5083",
            "0x0000000000000000000000003e59a31363e2ad014dcbc521c4a0d5757d9f3402"
          ],
          "data": "0x0000000000000000000000000000000000000000000000000000000000000000",
          "blockHash": "0xe4c565731252879c43fb1d8695d19657b391b2f1103e71f8fcb808a6e08ca390",
          "blockNumber": "0x2048af0",
          "transactionHash": "0xe70f3f6db64c3fb3f1bda44437b4f185be700d5b73c38105d4e324a049a49fa9",
          "transactionIndex": "0x5",
          "logIndex": "0x1d",
          "removed": false
        },
        {
          "address": "0xdee98402a302e4d707fb9bf2bac66faeec31e8df",
          "topics": [
            "0xddf252ad1be2c89b69c2b068fc378daa952ba7f163c4a11628f55a4df523b3ef",
            "0x0000000000000000000000000000000000000000000000000000000000000000",
            "0x000000000000000000000000d2b508298fcc37261953684744ec4ccc734d5083"
          ],
          "data": "0x000000000000000000000000000000000000000000000000000000000007a120",
          "blockHash": "0xe4c565731252879c43fb1d8695d19657b391b2f1103e71f8fcb808a6e08ca390",
          "blockNumber": "0x2048af0",
          "transactionHash": "0xe70f3f6db64c3fb3f1bda44437b4f185be700d5b73c38105d4e324a049a49fa9",
          "transactionIndex": "0x5",
          "logIndex": "0x1e",
          "removed": false
        },
        {
          "address": "0xdee98402a302e4d707fb9bf2bac66faeec31e8df",
          "topics": [
            "0x458f5fa412d0f69b08dd84872b0215675cc67bc1d5b6fd93300a1c3878b86196",
            "0x000000000000000000000000d2b508298fcc37261953684744ec4ccc734d5083",
            "0x000000000000000000000000d2b508298fcc37261953684744ec4ccc734d5083"
          ],
          "data": "0x000000000000000000000000000000000000000000000000000000000007a12000000000000000000000000000000000000000000000000000000000000000000000000000000000000000000000000000000000033b5f8e25fb88a0294d0a6b",
          "blockHash": "0xe4c565731252879c43fb1d8695d19657b391b2f1103e71f8fcb808a6e08ca390",
          "blockNumber": "0x2048af0",
          "transactionHash": "0xe70f3f6db64c3fb3f1bda44437b4f185be700d5b73c38105d4e324a049a49fa9",
          "transactionIndex": "0x5",
          "logIndex": "0x1f",
          "removed": false
        },
        {
          "address": "0x3e59a31363e2ad014dcbc521c4a0d5757d9f3402",
          "topics": [
            "0x2b627736bca15cd5381dcf80b0bf11fd197d01a037c52b927a881a10fb73ba61",
            "0x00000000000000000000000048065fbbe25f71c9282ddf5e1cd6d6a887483d5e",
            "0x000000000000000000000000d2b508298fcc37261953684744ec4ccc734d5083",
            "0x0000000000000000000000000000000000000000000000000000000000000000"
          ],
          "data": "0x000000000000000000000000d2b508298fcc37261953684744ec4ccc734d5083000000000000000000000000000000000000000000000000000000000007a120",
          "blockHash": "0xe4c565731252879c43fb1d8695d19657b391b2f1103e71f8fcb808a6e08ca390",
          "blockNumber": "0x2048af0",
          "transactionHash": "0xe70f3f6db64c3fb3f1bda44437b4f185be700d5b73c38105d4e324a049a49fa9",
          "transactionIndex": "0x5",
          "logIndex": "0x20",
          "removed": false
        },
        {
          "address": "0xdbe517c0fa6467873b684eccbed77217e471e862",
          "topics": [
            "0xddf252ad1be2c89b69c2b068fc378daa952ba7f163c4a11628f55a4df523b3ef",
            "0x0000000000000000000000000000000000000000000000000000000000000000",
            "0x000000000000000000000000d2b508298fcc37261953684744ec4ccc734d5083"
          ],
          "data": "0x000000000000000000000000000000000000000000000000000000000003d090",
          "blockHash": "0xe4c565731252879c43fb1d8695d19657b391b2f1103e71f8fcb808a6e08ca390",
          "blockNumber": "0x2048af0",
          "transactionHash": "0xe70f3f6db64c3fb3f1bda44437b4f185be700d5b73c38105d4e324a049a49fa9",
          "transactionIndex": "0x5",
          "logIndex": "0x21",
          "removed": false
        },
        {
          "address": "0xdbe517c0fa6467873b684eccbed77217e471e862",
          "topics": [
            "0x458f5fa412d0f69b08dd84872b0215675cc67bc1d5b6fd93300a1c3878b86196",
            "0x000000000000000000000000d2b508298fcc37261953684744ec4ccc734d5083",
            "0x000000000000000000000000d2b508298fcc37261953684744ec4ccc734d5083"
          ],
          "data": "0x000000000000000000000000000000000000000000000000000000000003d09000000000000000000000000000000000000000000000000000000000000000000000000000000000000000000000000000000000033c539217950c6af45e6e69",
          "blockHash": "0xe4c565731252879c43fb1d8695d19657b391b2f1103e71f8fcb808a6e08ca390",
          "blockNumber": "0x2048af0",
          "transactionHash": "0xe70f3f6db64c3fb3f1bda44437b4f185be700d5b73c38105d4e324a049a49fa9",
          "transactionIndex": "0x5",
          "logIndex": "0x22",
          "removed": false
        },
        {
          "address": "0x3e59a31363e2ad014dcbc521c4a0d5757d9f3402",
          "topics": [
            "0x804c9b842b2748a22bb64b345453a3de7ca54a6ca45ce00d415894979e22897a",
            "0x000000000000000000000000ceba9300f2b948710d2653dd7b07f33a8b32118c"
          ],
          "data": "0x00000000000000000000000000000000000000000000d614e7fda7b4ef219b84000000000000000000000000000000000000000000000000000000000000000000000000000000000000000000000000000000000007bb5260243e2a75ba38a00000000000000000000000000000000000000000033b693753f94f69a3ce25ce0000000000000000000000000000000000000000033c539217950c6af45e6e69",
          "blockHash": "0xe4c565731252879c43fb1d8695d19657b391b2f1103e71f8fcb808a6e08ca390",
          "blockNumber": "0x2048af0",
          "transactionHash": "0xe70f3f6db64c3fb3f1bda44437b4f185be700d5b73c38105d4e324a049a49fa9",
          "transactionIndex": "0x5",
          "logIndex": "0x23",
          "removed": false
        },
        {
          "address": "0xceba9300f2b948710d2653dd7b07f33a8b32118c",
          "topics": [
            "0xddf252ad1be2c89b69c2b068fc378daa952ba7f163c4a11628f55a4df523b3ef",
            "0x000000000000000000000000ff8309b9e99bfd2d4021bc71a362abd93dbd4785",
            "0x000000000000000000000000d2b508298fcc37261953684744ec4ccc734d5083"
          ],
          "data": "0x000000000000000000000000000000000000000000000000000000000003d090",
          "blockHash": "0xe4c565731252879c43fb1d8695d19657b391b2f1103e71f8fcb808a6e08ca390",
          "blockNumber": "0x2048af0",
          "transactionHash": "0xe70f3f6db64c3fb3f1bda44437b4f185be700d5b73c38105d4e324a049a49fa9",
          "transactionIndex": "0x5",
          "logIndex": "0x24",
          "removed": false
        },
        {
          "address": "0x3e59a31363e2ad014dcbc521c4a0d5757d9f3402",
          "topics": [
            "0xb3d084820fb1a9decffb176436bd02558d15fac9b0ddfed8c465bc7359d7dce0",
            "0x000000000000000000000000ceba9300f2b948710d2653dd7b07f33a8b32118c",
            "0x000000000000000000000000d2b508298fcc37261953684744ec4ccc734d5083",
            "0x0000000000000000000000000000000000000000000000000000000000000000"
          ],
          "data": "0x000000000000000000000000d2b508298fcc37261953684744ec4ccc734d5083000000000000000000000000000000000000000000000000000000000003d090000000000000000000000000000000000000000000000000000000000000000200000000000000000000000000000000000000000007bb5260243e2a75ba38a0",
          "blockHash": "0xe4c565731252879c43fb1d8695d19657b391b2f1103e71f8fcb808a6e08ca390",
          "blockNumber": "0x2048af0",
          "transactionHash": "0xe70f3f6db64c3fb3f1bda44437b4f185be700d5b73c38105d4e324a049a49fa9",
          "transactionIndex": "0x5",
          "logIndex": "0x25",
          "removed": false
        },
        {
          "address": "0xceba9300f2b948710d2653dd7b07f33a8b32118c",
          "topics": [
            "0xddf252ad1be2c89b69c2b068fc378daa952ba7f163c4a11628f55a4df523b3ef",
            "0x000000000000000000000000d2b508298fcc37261953684744ec4ccc734d5083",
            "0x0000000000000000000000003a4db9e7306af09012ceb0f222d581fd1f0c6d71"
          ],
          "data": "0x000000000000000000000000000000000000000000000000000000000003d090",
          "blockHash": "0xe4c565731252879c43fb1d8695d19657b391b2f1103e71f8fcb808a6e08ca390",
          "blockNumber": "0x2048af0",
          "transactionHash": "0xe70f3f6db64c3fb3f1bda44437b4f185be700d5b73c38105d4e324a049a49fa9",
          "transactionIndex": "0x5",
          "logIndex": "0x26",
          "removed": false
        },
        {
          "address": "0xd2b508298fcc37261953684744ec4ccc734d5083",
          "topics": [
            "0x9f9b498443531d2db9df8a00ec466efc74ba50ec1d82f7badd3424b87930e19a",
            "0x0000000000000000000000000000000000000000000000000000000000000008",
            "0x0000000000000000000000003a4db9e7306af09012ceb0f222d581fd1f0c6d71"
          ],
          "data": "0x00000000000000000000000048065fbbe25f71c9282ddf5e1cd6d6a887483d5e000000000000000000000000000000000000000000000000000000000007a120000000000000000000000000ceba9300f2b948710d2653dd7b07f33a8b32118c000000000000000000000000000000000000000000000000000000000003d0900000000000000000000000000000000000000000000000000000000000000002",
          "blockHash": "0xe4c565731252879c43fb1d8695d19657b391b2f1103e71f8fcb808a6e08ca390",
          "blockNumber": "0x2048af0",
          "transactionHash": "0xe70f3f6db64c3fb3f1bda44437b4f185be700d5b73c38105d4e324a049a49fa9",
          "transactionIndex": "0x5",
          "logIndex": "0x27",
          "removed": false
        }
      ],
      "logsBloom": "0x0000000000000011020012000040000000100000000000000000000000000010000000080000000000002000000440000010000080008000000000000020000000000000800000080000000800000000000000000000000000000004000000000000000002000000000000000000080000000002000000004000001000000000008001000000000000000000000040000000000000000000220000000000000002000110000100000000004000000000100000000000000040000000000001004200000200008120000002a040000040000000000000041800020000000120000110100000004010000800000001000040000000000010000000400000000000",
      "type": "0x0",
      "transactionHash": "0xe70f3f6db64c3fb3f1bda44437b4f185be700d5b73c38105d4e324a049a49fa9",
      "transactionIndex": "0x5",
      "blockHash": "0xe4c565731252879c43fb1d8695d19657b391b2f1103e71f8fcb808a6e08ca390",
      "blockNumber": "0x2048af0",
      "gasUsed": "0x9e340",
      "effectiveGasPrice": "0x5d22cfc40",
      "from": "0x3a4db9e7306af09012ceb0f222d581fd1f0c6d71",
      "to": "0xd2b508298fcc37261953684744ec4ccc734d5083",
      "contractAddress": null,
      "l1BaseFeeScalar": "0x0",
      "l1BlobBaseFee": "0x4632d75f",
      "l1BlobBaseFeeScalar": "0x0",
      "l1Fee": "0x0",
      "l1GasPrice": "0x126b5a82",
      "l1GasUsed": "0x77b"
    },
    {
      "status": "0x1",
      "cumulativeGasUsed": "0x18776b",
      "logs": [
        {
          "address": "0x48065fbbe25f71c9282ddf5e1cd6d6a887483d5e",
          "topics": [
            "0x8c5be1e5ebec7d5bd14f71427d1e84f3dd0314c0f7b2291e5b200ac8c7c3b925",
            "0x0000000000000000000000003a4db9e7306af09012ceb0f222d581fd1f0c6d71",
            "0x000000000000000000000000d2b508298fcc37261953684744ec4ccc734d5083"
          ],
          "data": "0x000000000000000000000000000000000000000000000000000000000003d090",
          "blockHash": "0xe4c565731252879c43fb1d8695d19657b391b2f1103e71f8fcb808a6e08ca390",
          "blockNumber": "0x2048af0",
          "transactionHash": "0xf6d61bc24fc2854a3d3cbb96f657365cac64ebc274177e6384eccd56524456fe",
          "transactionIndex": "0x7",
          "logIndex": "0x2a",
          "removed": false
        }
      ],
      "logsBloom": "0x00000000000000000000000000000000000000000000000000000000000000000000000000000000000000000000000000000000000000000000000000200000000000000000000000000000000000000000000000000000000000000000000000000000000000000000000000000000000000000000000040000000000000000000010000000000000000000000400000000000000000000000000000000000020000000000000000000000000000000000000000000000000000000000000000000000000080000000008000000000000000000000001000000000000000000110100000000000000000000000000000000000000010000000000000000000",
      "type": "0x0",
      "transactionHash": "0xf6d61bc24fc2854a3d3cbb96f657365cac64ebc274177e6384eccd56524456fe",
      "transactionIndex": "0x7",
      "blockHash": "0xe4c565731252879c43fb1d8695d19657b391b2f1103e71f8fcb808a6e08ca390",
      "blockNumber": "0x2048af0",
      "gasUsed": "0xd097",
      "effectiveGasPrice": "0x5d22cfc40",
      "from": "0x3a4db9e7306af09012ceb0f222d581fd1f0c6d71",
      "to": "0x48065fbbe25f71c9282ddf5e1cd6d6a887483d5e",
      "contractAddress": null,
      "l1BaseFeeScalar": "0x0",
      "l1BlobBaseFee": "0x4632d75f",
      "l1BlobBaseFeeScalar": "0x0",
      "l1Fee": "0x0",
      "l1GasPrice": "0x126b5a82",
      "l1GasUsed": "0x640"
    },
    {
      "status": "0x1",
      "cumulativeGasUsed": "0x161bc1",
      "logs": [
        {
          "address": "0x48065fbbe25f71c9282ddf5e1cd6d6a887483d5e",
          "topics": [
            "0xddf252ad1be2c89b69c2b068fc378daa952ba7f163c4a11628f55a4df523b3ef",
            "0x0000000000000000000000003a4db9e7306af09012ceb0f222d581fd1f0c6d71",
            "0x000000000000000000000000d2b508298fcc37261953684744ec4ccc734d5083"
          ],
          "data": "0x000000000000000000000000000000000000000000000000000000000003d090",
          "blockHash": "0x080deb362f114358e452cc4d54daecabfbd9f15195468e886816c64d77933ada",
          "blockNumber": "0x2048af1",
          "transactionHash": "0x8f487e1cb7329ec1853b37802c4ff2fd99280860f0ed5ed7daa043b8d6a88684",
          "transactionIndex": "0x8",
          "logIndex": "0x21",
          "removed": false
        },
        {
          "address": "0x48065fbbe25f71c9282ddf5e1cd6d6a887483d5e",
          "topics": [
            "0x8c5be1e5ebec7d5bd14f71427d1e84f3dd0314c0f7b2291e5b200ac8c7c3b925",
            "0x0000000000000000000000003a4db9e7306af09012ceb0f222d581fd1f0c6d71",
            "0x000000000000000000000000d2b508298fcc37261953684744ec4ccc734d5083"
          ],
          "data": "0x0000000000000000000000000000000000000000000000000000000000000000",
          "blockHash": "0x080deb362f114358e452cc4d54daecabfbd9f15195468e886816c64d77933ada",
          "blockNumber": "0x2048af1",
          "transactionHash": "0x8f487e1cb7329ec1853b37802c4ff2fd99280860f0ed5ed7daa043b8d6a88684",
          "transactionIndex": "0x8",
          "logIndex": "0x22",
          "removed": false
        },
        {
          "address": "0x48065fbbe25f71c9282ddf5e1cd6d6a887483d5e",
          "topics": [
            "0x8c5be1e5ebec7d5bd14f71427d1e84f3dd0314c0f7b2291e5b200ac8c7c3b925",
            "0x000000000000000000000000d2b508298fcc37261953684744ec4ccc734d5083",
            "0x0000000000000000000000003e59a31363e2ad014dcbc521c4a0d5757d9f3402"
          ],
          "data": "0x000000000000000000000000000000000000000000000000000000000003d090",
          "blockHash": "0x080deb362f114358e452cc4d54daecabfbd9f15195468e886816c64d77933ada",
          "blockNumber": "0x2048af1",
          "transactionHash": "0x8f487e1cb7329ec1853b37802c4ff2fd99280860f0ed5ed7daa043b8d6a88684",
          "transactionIndex": "0x8",
          "logIndex": "0x23",
          "removed": false
        },
        {
          "address": "0x3e59a31363e2ad014dcbc521c4a0d5757d9f3402",
          "topics": [
            "0x804c9b842b2748a22bb64b345453a3de7ca54a6ca45ce00d415894979e22897a",
            "0x00000000000000000000000048065fbbe25f71c9282ddf5e1cd6d6a887483d5e"
          ],
          "data": "0x00000000000000000000000000000000000000000000000b15eaf8a449d156fd0000000000000000000000000000000000000000000000000000000000000000000000000000000000000000000000000000000000001c26894940e5150f9f180000000000000000000000000000000000000000033b5f8e25fb8e864a90efaa0000000000000000000000000000000000000000033bccafb24bd3180e61c0f1",
          "blockHash": "0x080deb362f114358e452cc4d54daecabfbd9f15195468e886816c64d77933ada",
          "blockNumber": "0x2048af1",
          "transactionHash": "0x8f487e1cb7329ec1853b37802c4ff2fd99280860f0ed5ed7daa043b8d6a88684",
          "transactionIndex": "0x8",
          "logIndex": "0x24",
          "removed": false
        },
        {
          "address": "0x48065fbbe25f71c9282ddf5e1cd6d6a887483d5e",
          "topics": [
            "0xddf252ad1be2c89b69c2b068fc378daa952ba7f163c4a11628f55a4df523b3ef",
            "0x000000000000000000000000d2b508298fcc37261953684744ec4ccc734d5083",
            "0x000000000000000000000000dee98402a302e4d707fb9bf2bac66faeec31e8df"
          ],
          "data": "0x000000000000000000000000000000000000000000000000000000000003d090",
          "blockHash": "0x080deb362f114358e452cc4d54daecabfbd9f15195468e886816c64d77933ada",
          "blockNumber": "0x2048af1",
          "transactionHash": "0x8f487e1cb7329ec1853b37802c4ff2fd99280860f0ed5ed7daa043b8d6a88684",
          "transactionIndex": "0x8",
          "logIndex": "0x25",
          "removed": false
        },
        {
          "address": "0x48065fbbe25f71c9282ddf5e1cd6d6a887483d5e",
          "topics": [
            "0x8c5be1e5ebec7d5bd14f71427d1e84f3dd0314c0f7b2291e5b200ac8c7c3b925",
            "0x000000000000000000000000d2b508298fcc37261953684744ec4ccc734d5083",
            "0x0000000000000000000000003e59a31363e2ad014dcbc521c4a0d5757d9f3402"
          ],
          "data": "0x0000000000000000000000000000000000000000000000000000000000000000",
          "blockHash": "0x080deb362f114358e452cc4d54daecabfbd9f15195468e886816c64d77933ada",
          "blockNumber": "0x2048af1",
          "transactionHash": "0x8f487e1cb7329ec1853b37802c4ff2fd99280860f0ed5ed7daa043b8d6a88684",
          "transactionIndex": "0x8",
          "logIndex": "0x26",
          "removed": false
        },
        {
          "address": "0xdee98402a302e4d707fb9bf2bac66faeec31e8df",
          "topics": [
            "0xddf252ad1be2c89b69c2b068fc378daa952ba7f163c4a11628f55a4df523b3ef",
            "0x0000000000000000000000000000000000000000000000000000000000000000",
            "0x000000000000000000000000d2b508298fcc37261953684744ec4ccc734d5083"
          ],
          "data": "0x000000000000000000000000000000000000000000000000000000000003d090",
          "blockHash": "0x080deb362f114358e452cc4d54daecabfbd9f15195468e886816c64d77933ada",
          "blockNumber": "0x2048af1",
          "transactionHash": "0x8f487e1cb7329ec1853b37802c4ff2fd99280860f0ed5ed7daa043b8d6a88684",
          "transactionIndex": "0x8",
          "logIndex": "0x27",
          "removed": false
        },
        {
          "address": "0xdee98402a302e4d707fb9bf2bac66faeec31e8df",
          "topics": [
            "0x458f5fa412d0f69b08dd84872b0215675cc67bc1d5b6fd93300a1c3878b86196",
            "0x000000000000000000000000d2b508298fcc37261953684744ec4ccc734d5083",
            "0x000000000000000000000000d2b508298fcc37261953684744ec4ccc734d5083"
          ],
          "data": "0x000000000000000000000000000000000000000000000000000000000003d09000000000000000000000000000000000000000000000000000000000000000000000000000000000000000000000000000000000033b5f8e25fb8e864a90efaa",
          "blockHash": "0x080deb362f114358e452cc4d54daecabfbd9f15195468e886816c64d77933ada",
          "blockNumber": "0x2048af1",
          "transactionHash": "0x8f487e1cb7329ec1853b37802c4ff2fd99280860f0ed5ed7daa043b8d6a88684",
          "transactionIndex": "0x8",
          "logIndex": "0x28",
          "removed": false
        },
        {
          "address": "0x3e59a31363e2ad014dcbc521c4a0d5757d9f3402",
          "topics": [
            "0x2b627736bca15cd5381dcf80b0bf11fd197d01a037c52b927a881a10fb73ba61",
            "0x00000000000000000000000048065fbbe25f71c9282ddf5e1cd6d6a887483d5e",
            "0x000000000000000000000000d2b508298fcc37261953684744ec4ccc734d5083",
            "0x0000000000000000000000000000000000000000000000000000000000000000"
          ],
          "data": "0x000000000000000000000000d2b508298fcc37261953684744ec4ccc734d5083000000000000000000000000000000000000000000000000000000000003d090",
          "blockHash": "0x080deb362f114358e452cc4d54daecabfbd9f15195468e886816c64d77933ada",
          "blockNumber": "0x2048af1",
          "transactionHash": "0x8f487e1cb7329ec1853b37802c4ff2fd99280860f0ed5ed7daa043b8d6a88684",
          "transactionIndex": "0x8",
          "logIndex": "0x29",
          "removed": false
        },
        {
          "address": "0xd2b508298fcc37261953684744ec4ccc734d5083",
          "topics": [
            "0x244160b15e69cc411f041d94ae7fab6f6bba85dade8403216c05ff4b920d5449",
            "0x0000000000000000000000000000000000000000000000000000000000000008"
          ],
          "data": "0x000000000000000000000000000000000000000000000000000000000003d090",
          "blockHash": "0x080deb362f114358e452cc4d54daecabfbd9f15195468e886816c64d77933ada",
          "blockNumber": "0x2048af1",
          "transactionHash": "0x8f487e1cb7329ec1853b37802c4ff2fd99280860f0ed5ed7daa043b8d6a88684",
          "transactionIndex": "0x8",
          "logIndex": "0x2a",
          "removed": false
        }
      ],
      "logsBloom": "0x0000000000000011020002000000000000100000000000000000000000000010000000080000000000000000000400000000000080028000000000000020000000000000000000080000000800000000000000000000000000000004000000000000000002000000000000000000080000000000000000004000001000000000008001000000000000000000000040000000000000000000020000000000000002000010000100000000004000000000100000000000000040000000000001004200000200008000000000a040000050000000000000001800000000000120000110100000000080000000000000000040000000000010000000400000000000",
      "type": "0x0",
      "transactionHash": "0x8f487e1cb7329ec1853b37802c4ff2fd99280860f0ed5ed7daa043b8d6a88684",
      "transactionIndex": "0x8",
      "blockHash": "0x080deb362f114358e452cc4d54daecabfbd9f15195468e886816c64d77933ada",
      "blockNumber": "0x2048af1",
      "gasUsed": "0x38376",
      "effectiveGasPrice": "0x5d22cfc40",
      "from": "0x3a4db9e7306af09012ceb0f222d581fd1f0c6d71",
      "to": "0xd2b508298fcc37261953684744ec4ccc734d5083",
      "contractAddress": null,
      "l1BaseFeeScalar": "0x0",
      "l1BlobBaseFee": "0x4632d75f",
      "l1BlobBaseFeeScalar": "0x0",
      "l1Fee": "0x0",
      "l1GasPrice": "0x126b5a82",
      "l1GasUsed": "0x640"
    },
    {
      "status": "0x1",
      "cumulativeGasUsed": "0x1bd0b3",
      "logs": [
        {
          "address": "0xdbe517c0fa6467873b684eccbed77217e471e862",
          "topics": [
            "0xddf252ad1be2c89b69c2b068fc378daa952ba7f163c4a11628f55a4df523b3ef",
            "0x0000000000000000000000000000000000000000000000000000000000000000",
            "0x000000000000000000000000d2b508298fcc37261953684744ec4ccc734d5083"
          ],
          "data": "0x000000000000000000000000000000000000000000000000000000000001e848",
          "blockHash": "0x080deb362f114358e452cc4d54daecabfbd9f15195468e886816c64d77933ada",
          "blockNumber": "0x2048af1",
          "transactionHash": "0xf5e2d159c6cc3b818749807dfc616dd10d8116473d7c16d44233fbd77dae9dc6",
          "transactionIndex": "0x9",
          "logIndex": "0x2b",
          "removed": false
        },
        {
          "address": "0xdbe517c0fa6467873b684eccbed77217e471e862",
          "topics": [
            "0x458f5fa412d0f69b08dd84872b0215675cc67bc1d5b6fd93300a1c3878b86196",
            "0x000000000000000000000000d2b508298fcc37261953684744ec4ccc734d5083",
            "0x000000000000000000000000d2b508298fcc37261953684744ec4ccc734d5083"
          ],
          "data": "0x000000000000000000000000000000000000000000000000000000000001e84800000000000000000000000000000000000000000000000000000000000000000000000000000000000000000000000000000000033c53921bb382a718b94884",
          "blockHash": "0x080deb362f114358e452cc4d54daecabfbd9f15195468e886816c64d77933ada",
          "blockNumber": "0x2048af1",
          "transactionHash": "0xf5e2d159c6cc3b818749807dfc616dd10d8116473d7c16d44233fbd77dae9dc6",
          "transactionIndex": "0x9",
          "logIndex": "0x2c",
          "removed": false
        },
        {
          "address": "0x3e59a31363e2ad014dcbc521c4a0d5757d9f3402",
          "topics": [
            "0x804c9b842b2748a22bb64b345453a3de7ca54a6ca45ce00d415894979e22897a",
            "0x000000000000000000000000ceba9300f2b948710d2653dd7b07f33a8b32118c"
          ],
          "data": "0x00000000000000000000000000000000000000000000d6150af625cd2e6aa3e9000000000000000000000000000000000000000000000000000000000000000000000000000000000000000000000000000000000007bb5301cdf9578209179a0000000000000000000000000000000000000000033b6937546b3bdacaed89bc0000000000000000000000000000000000000000033c53921bb382a718b94884",
          "blockHash": "0x080deb362f114358e452cc4d54daecabfbd9f15195468e886816c64d77933ada",
          "blockNumber": "0x2048af1",
          "transactionHash": "0xf5e2d159c6cc3b818749807dfc616dd10d8116473d7c16d44233fbd77dae9dc6",
          "transactionIndex": "0x9",
          "logIndex": "0x2d",
          "removed": false
        },
        {
          "address": "0xceba9300f2b948710d2653dd7b07f33a8b32118c",
          "topics": [
            "0xddf252ad1be2c89b69c2b068fc378daa952ba7f163c4a11628f55a4df523b3ef",
            "0x000000000000000000000000ff8309b9e99bfd2d4021bc71a362abd93dbd4785",
            "0x000000000000000000000000d2b508298fcc37261953684744ec4ccc734d5083"
          ],
          "data": "0x000000000000000000000000000000000000000000000000000000000001e848",
          "blockHash": "0x080deb362f114358e452cc4d54daecabfbd9f15195468e886816c64d77933ada",
          "blockNumber": "0x2048af1",
          "transactionHash": "0xf5e2d159c6cc3b818749807dfc616dd10d8116473d7c16d44233fbd77dae9dc6",
          "transactionIndex": "0x9",
          "logIndex": "0x2e",
          "removed": false
        },
        {
          "address": "0x3e59a31363e2ad014dcbc521c4a0d5757d9f3402",
          "topics": [
            "0xb3d084820fb1a9decffb176436bd02558d15fac9b0ddfed8c465bc7359d7dce0",
            "0x000000000000000000000000ceba9300f2b948710d2653dd7b07f33a8b32118c",
            "0x000000000000000000000000d2b508298fcc37261953684744ec4ccc734d5083",
            "0x0000000000000000000000000000000000000000000000000000000000000000"
          ],
          "data": "0x000000000000000000000000d2b508298fcc37261953684744ec4ccc734d5083000000000000000000000000000000000000000000000000000000000001e848000000000000000000000000000000000000000000000000000000000000000200000000000000000000000000000000000000000007bb5301cdf9578209179a",
          "blockHash": "0x080deb362f114358e452cc4d54daecabfbd9f15195468e886816c64d77933ada",
          "blockNumber": "0x2048af1",
          "transactionHash": "0xf5e2d159c6cc3b818749807dfc616dd10d8116473d7c16d44233fbd77dae9dc6",
          "transactionIndex": "0x9",
          "logIndex": "0x2f",
          "removed": false
        },
        {
          "address": "0xceba9300f2b948710d2653dd7b07f33a8b32118c",
          "topics": [
            "0xddf252ad1be2c89b69c2b068fc378daa952ba7f163c4a11628f55a4df523b3ef",
            "0x000000000000000000000000d2b508298fcc37261953684744ec4ccc734d5083",
            "0x0000000000000000000000003a4db9e7306af09012ceb0f222d581fd1f0c6d71"
          ],
          "data": "0x000000000000000000000000000000000000000000000000000000000001e848",
          "blockHash": "0x080deb362f114358e452cc4d54daecabfbd9f15195468e886816c64d77933ada",
          "blockNumber": "0x2048af1",
          "transactionHash": "0xf5e2d159c6cc3b818749807dfc616dd10d8116473d7c16d44233fbd77dae9dc6",
          "transactionIndex": "0x9",
          "logIndex": "0x30",
          "removed": false
        },
        {
          "address": "0xd2b508298fcc37261953684744ec4ccc734d5083",
          "topics": [
            "0xf3a2c404b3362c4238317c3dad1020c2e9e984ba8df38a4a1ff18d57e92a242a",
            "0x0000000000000000000000000000000000000000000000000000000000000008"
          ],
          "data": "0x000000000000000000000000000000000000000000000000000000000001e848",
          "blockHash": "0x080deb362f114358e452cc4d54daecabfbd9f15195468e886816c64d77933ada",
          "blockNumber": "0x2048af1",
          "transactionHash": "0xf5e2d159c6cc3b818749807dfc616dd10d8116473d7c16d44233fbd77dae9dc6",
          "transactionIndex": "0x9",
          "logIndex": "0x31",
          "removed": false
        }
      ],
      "logsBloom": "0x00000000000000100000100000400000000000000000000000000000000000100000000000000000000000000004400000100000800080000000000000000000000000008000000000000008000000000000000000000000000000040000000000000000020000000000000000000800000000000000000000000010000000000080000000000010000000000000400000000000000000002200000000000000000001000000000000000000000000000000000000000000400000000000010042000002000081200000022000000000000000400000041800000000000020000100100000004010000800000001000000000000000010000800000000000000",
      "type": "0x0",
      "transactionHash": "0xf5e2d159c6cc3b818749807dfc616dd10d8116473d7c16d44233fbd77dae9dc6",
      "transactionIndex": "0x9",
      "blockHash": "0x080deb362f114358e452cc4d54daecabfbd9f15195468e886816c64d77933ada",
      "blockNumber": "0x2048af1",
      "gasUsed": "0x5b4f2",
      "effectiveGasPrice": "0x5d22cfc40",
      "from": "0x3a4db9e7306af09012ceb0f222d581fd1f0c6d71",
      "to": "0xd2b508298fcc37261953684744ec4ccc734d5083",
      "contractAddress": null,
      "l1BaseFeeScalar": "0x0",
      "l1BlobBaseFee": "0x4632d75f",
      "l1BlobBaseFeeScalar": "0x0",
      "l1Fee": "0x0",
      "l1GasPrice": "0x126b5a82",
      "l1GasUsed": "0x640"
    },
    {
      "status": "0x1",
      "cumulativeGasUsed": "0x1c5b84",
      "logs": [
        {
          "address": "0xceba9300f2b948710d2653dd7b07f33a8b32118c",
          "topics": [
            "0x8c5be1e5ebec7d5bd14f71427d1e84f3dd0314c0f7b2291e5b200ac8c7c3b925",
            "0x0000000000000000000000003a4db9e7306af09012ceb0f222d581fd1f0c6d71",
            "0x000000000000000000000000d2b508298fcc37261953684744ec4ccc734d5083"
          ],
          "data": "0x000000000000000000000000000000000000000000000000000000000002dc6c",
          "blockHash": "0x080deb362f114358e452cc4d54daecabfbd9f15195468e886816c64d77933ada",
          "blockNumber": "0x2048af1",
          "transactionHash": "0x4a9ac3e7a8e021b7e564f1c6e5c6105406554007a6ee791d835a0af0b645ff24",
          "transactionIndex": "0xa",
          "logIndex": "0x32",
          "removed": false
        }
      ],
      "logsBloom": "0x00000000000000000000100000000000000000000000000000000000000000000000000000000000000000000000000000000000000000000000000000200000000000000000000000000000000000000000000000000000000000000000000000000000000000000000000000000000000000000000000000000000000000000000000000000000000000000000400000000000000000000000000000000000020000000000000000000000000000000000000000000000000000000000000000000000000080000000020000000000000000000000001000000000000000000110100000000000000800000000000000000000000010000000000000000000",
      "type": "0x0",
      "transactionHash": "0x4a9ac3e7a8e021b7e564f1c6e5c6105406554007a6ee791d835a0af0b645ff24",
      "transactionIndex": "0xa",
      "blockHash": "0x080deb362f114358e452cc4d54daecabfbd9f15195468e886816c64d77933ada",
      "blockNumber": "0x2048af1",
      "gasUsed": "0x8ad1",
      "effectiveGasPrice": "0x5d22cfc40",
      "from": "0x3a4db9e7306af09012ceb0f222d581fd1f0c6d71",
      "to": "0xceba9300f2b948710d2653dd7b07f33a8b32118c",
      "contractAddress": null,
      "l1BaseFeeScalar": "0x0",
      "l1BlobBaseFee": "0x4632d75f",
      "l1BlobBaseFeeScalar": "0x0",
      "l1Fee": "0x0",
      "l1GasPrice": "0x126b5a82",
      "l1GasUsed": "0x640"
    },
    {
      "status": "0x1",
      "cumulativeGasUsed": "0x1fa2d4",
      "logs": [
        {
          "address": "0xceba9300f2b948710d2653dd7b07f33a8b32118c",
          "topics": [
            "0xddf252ad1be2c89b69c2b068fc378daa952ba7f163c4a11628f55a4df523b3ef",
            "0x0000000000000000000000003a4db9e7306af09012ceb0f222d581fd1f0c6d71",
            "0x000000000000000000000000d2b508298fcc37261953684744ec4ccc734d5083"
          ],
          "data": "0x000000000000000000000000000000000000000000000000000000000002dc6c",
          "blockHash": "0x080deb362f114358e452cc4d54daecabfbd9f15195468e886816c64d77933ada",
          "blockNumber": "0x2048af1",
          "transactionHash": "0x255f59affede0313a378de44513c71c38b96af2649948ca3c0c6bd7b13ed78c0",
          "transactionIndex": "0xb",
          "logIndex": "0x33",
          "removed": false
        },
        {
          "address": "0xceba9300f2b948710d2653dd7b07f33a8b32118c",
          "topics": [
            "0x8c5be1e5ebec7d5bd14f71427d1e84f3dd0314c0f7b2291e5b200ac8c7c3b925",
            "0x000000000000000000000000d2b508298fcc37261953684744ec4ccc734d5083",
            "0x0000000000000000000000003e59a31363e2ad014dcbc521c4a0d5757d9f3402"
          ],
          "data": "0x000000000000000000000000000000000000000000000000000000000002dc6c",
          "blockHash": "0x080deb362f114358e452cc4d54daecabfbd9f15195468e886816c64d77933ada",
          "blockNumber": "0x2048af1",
          "transactionHash": "0x255f59affede0313a378de44513c71c38b96af2649948ca3c0c6bd7b13ed78c0",
          "transactionIndex": "0xb",
          "logIndex": "0x34",
          "removed": false
        },
        {
          "address": "0xdbe517c0fa6467873b684eccbed77217e471e862",
          "topics": [
            "0xddf252ad1be2c89b69c2b068fc378daa952ba7f163c4a11628f55a4df523b3ef",
            "0x000000000000000000000000d2b508298fcc37261953684744ec4ccc734d5083",
            "0x0000000000000000000000000000000000000000000000000000000000000000"
          ],
          "data": "0x000000000000000000000000000000000000000000000000000000000002dc6c",
          "blockHash": "0x080deb362f114358e452cc4d54daecabfbd9f15195468e886816c64d77933ada",
          "blockNumber": "0x2048af1",
          "transactionHash": "0x255f59affede0313a378de44513c71c38b96af2649948ca3c0c6bd7b13ed78c0",
          "transactionIndex": "0xb",
          "logIndex": "0x35",
          "removed": false
        },
        {
          "address": "0xdbe517c0fa6467873b684eccbed77217e471e862",
          "topics": [
            "0x4cf25bc1d991c17529c25213d3cc0cda295eeaad5f13f361969b12ea48015f90",
            "0x000000000000000000000000d2b508298fcc37261953684744ec4ccc734d5083",
            "0x0000000000000000000000000000000000000000000000000000000000000000"
          ],
          "data": "0x000000000000000000000000000000000000000000000000000000000002dc6c00000000000000000000000000000000000000000000000000000000000000000000000000000000000000000000000000000000033c53921bb382a718b94884",
          "blockHash": "0x080deb362f114358e452cc4d54daecabfbd9f15195468e886816c64d77933ada",
          "blockNumber": "0x2048af1",
          "transactionHash": "0x255f59affede0313a378de44513c71c38b96af2649948ca3c0c6bd7b13ed78c0",
          "transactionIndex": "0xb",
          "logIndex": "0x36",
          "removed": false
        },
        {
          "address": "0x3e59a31363e2ad014dcbc521c4a0d5757d9f3402",
          "topics": [
            "0x804c9b842b2748a22bb64b345453a3de7ca54a6ca45ce00d415894979e22897a",
            "0x000000000000000000000000ceba9300f2b948710d2653dd7b07f33a8b32118c"
          ],
          "data": "0x00000000000000000000000000000000000000000000d614d6843f7c1ce21e5b000000000000000000000000000000000000000000000000000000000000000000000000000000000000000000000000000000000007bb520f5c7b9c6ffb6d730000000000000000000000000000000000000000033b6937546b3bdacaed89bc0000000000000000000000000000000000000000033c53921bb382a718b94884",
          "blockHash": "0x080deb362f114358e452cc4d54daecabfbd9f15195468e886816c64d77933ada",
          "blockNumber": "0x2048af1",
          "transactionHash": "0x255f59affede0313a378de44513c71c38b96af2649948ca3c0c6bd7b13ed78c0",
          "transactionIndex": "0xb",
          "logIndex": "0x37",
          "removed": false
        },
        {
          "address": "0xceba9300f2b948710d2653dd7b07f33a8b32118c",
          "topics": [
            "0xddf252ad1be2c89b69c2b068fc378daa952ba7f163c4a11628f55a4df523b3ef",
            "0x000000000000000000000000d2b508298fcc37261953684744ec4ccc734d5083",
            "0x000000000000000000000000ff8309b9e99bfd2d4021bc71a362abd93dbd4785"
          ],
          "data": "0x000000000000000000000000000000000000000000000000000000000002dc6c",
          "blockHash": "0x080deb362f114358e452cc4d54daecabfbd9f15195468e886816c64d77933ada",
          "blockNumber": "0x2048af1",
          "transactionHash": "0x255f59affede0313a378de44513c71c38b96af2649948ca3c0c6bd7b13ed78c0",
          "transactionIndex": "0xb",
          "logIndex": "0x38",
          "removed": false
        },
        {
          "address": "0x3e59a31363e2ad014dcbc521c4a0d5757d9f3402",
          "topics": [
            "0xa534c8dbe71f871f9f3530e97a74601fea17b426cae02e1c5aee42c96c784051",
            "0x000000000000000000000000ceba9300f2b948710d2653dd7b07f33a8b32118c",
            "0x000000000000000000000000d2b508298fcc37261953684744ec4ccc734d5083",
            "0x000000000000000000000000d2b508298fcc37261953684744ec4ccc734d5083"
          ],
          "data": "0x000000000000000000000000000000000000000000000000000000000002dc6c0000000000000000000000000000000000000000000000000000000000000000",
          "blockHash": "0x080deb362f114358e452cc4d54daecabfbd9f15195468e886816c64d77933ada",
          "blockNumber": "0x2048af1",
          "transactionHash": "0x255f59affede0313a378de44513c71c38b96af2649948ca3c0c6bd7b13ed78c0",
          "transactionIndex": "0xb",
          "logIndex": "0x39",
          "removed": false
        },
        {
          "address": "0xd2b508298fcc37261953684744ec4ccc734d5083",
          "topics": [
            "0x0d4979b0859a1951f8ed7cbe3b1994e740552588f27ba02ca0f8f1ddcad16e0c",
            "0x0000000000000000000000000000000000000000000000000000000000000008"
          ],
          "data": "0x000000000000000000000000000000000000000000000000000000000002dc6c",
          "blockHash": "0x080deb362f114358e452cc4d54daecabfbd9f15195468e886816c64d77933ada",
          "blockNumber": "0x2048af1",
          "transactionHash": "0x255f59affede0313a378de44513c71c38b96af2649948ca3c0c6bd7b13ed78c0",
          "transactionIndex": "0xb",
          "logIndex": "0x3a",
          "removed": false
        }
      ],
      "logsBloom": "0x10000000000000110000120010400000000000000000000000000000000000100000000000000000000000000000400000110000c00080000000000000200000000000008000000000000008000000000000002000000000000000000000000080000000020000000000000000000800000000000000000000000010000000000080000000000000000000000000400000000000000000002200000000000000020001100000000000000000000000000000000000000000400000000000010040000002000080200000022000000000000000000000001800000000000020040110100000004010000800000000000000000000000010000000000000040000",
      "type": "0x0",
      "transactionHash": "0x255f59affede0313a378de44513c71c38b96af2649948ca3c0c6bd7b13ed78c0",
      "transactionIndex": "0xb",
      "blockHash": "0x080deb362f114358e452cc4d54daecabfbd9f15195468e886816c64d77933ada",
      "blockNumber": "0x2048af1",
      "gasUsed": "0x34750",
      "effectiveGasPrice": "0x5d22cfc40",
      "from": "0x3a4db9e7306af09012ceb0f222d581fd1f0c6d71",
      "to": "0xd2b508298fcc37261953684744ec4ccc734d5083",
      "contractAddress": null,
      "l1BaseFeeScalar": "0x0",
      "l1BlobBaseFee": "0x4632d75f",
      "l1BlobBaseFeeScalar": "0x0",
      "l1Fee": "0x0",
      "l1GasPrice": "0x126b5a82",
      "l1GasUsed": "0x640"
    },
    {
      "status": "0x1",
      "cumulativeGasUsed": "0x1ae773",
      "logs": [
        {
          "address": "0x3e59a31363e2ad014dcbc521c4a0d5757d9f3402",
          "topics": [
            "0x804c9b842b2748a22bb64b345453a3de7ca54a6ca45ce00d415894979e22897a",
            "0x00000000000000000000000048065fbbe25f71c9282ddf5e1cd6d6a887483d5e"
          ],
          "data": "0x00000000000000000000000000000000000000000000000b15eb0b9397809a890000000000000000000000000000000000000000000000000000000000000000000000000000000000000000000000000000000000001c2689614b74414af0b00000000000000000000000000000000000000000033b5f8e25fb946c6bc409f30000000000000000000000000000000000000000033bccafb25acfdac8db7891",
          "blockHash": "0xf4d0b26bc940e686a705742fda31ac537d50f310a138566903ec225aaaec8d4a",
          "blockNumber": "0x2048af2",
          "transactionHash": "0xea5165e896d6c97d504e5c5509466cd3ee0af3ae17ae86575018570b9b2b2a13",
          "transactionIndex": "0xb",
          "logIndex": "0x26",
          "removed": false
        },
        {
          "address": "0xdee98402a302e4d707fb9bf2bac66faeec31e8df",
          "topics": [
            "0xddf252ad1be2c89b69c2b068fc378daa952ba7f163c4a11628f55a4df523b3ef",
            "0x000000000000000000000000d2b508298fcc37261953684744ec4ccc734d5083",
            "0x0000000000000000000000000000000000000000000000000000000000000000"
          ],
          "data": "0x00000000000000000000000000000000000000000000000000000000000249f0",
          "blockHash": "0xf4d0b26bc940e686a705742fda31ac537d50f310a138566903ec225aaaec8d4a",
          "blockNumber": "0x2048af2",
          "transactionHash": "0xea5165e896d6c97d504e5c5509466cd3ee0af3ae17ae86575018570b9b2b2a13",
          "transactionIndex": "0xb",
          "logIndex": "0x27",
          "removed": false
        },
        {
          "address": "0xdee98402a302e4d707fb9bf2bac66faeec31e8df",
          "topics": [
            "0x4cf25bc1d991c17529c25213d3cc0cda295eeaad5f13f361969b12ea48015f90",
            "0x000000000000000000000000d2b508298fcc37261953684744ec4ccc734d5083",
            "0x0000000000000000000000003a4db9e7306af09012ceb0f222d581fd1f0c6d71"
          ],
          "data": "0x00000000000000000000000000000000000000000000000000000000000249f000000000000000000000000000000000000000000000000000000000000000000000000000000000000000000000000000000000033b5f8e25fb946c6bc409f3",
          "blockHash": "0xf4d0b26bc940e686a705742fda31ac537d50f310a138566903ec225aaaec8d4a",
          "blockNumber": "0x2048af2",
          "transactionHash": "0xea5165e896d6c97d504e5c5509466cd3ee0af3ae17ae86575018570b9b2b2a13",
          "transactionIndex": "0xb",
          "logIndex": "0x28",
          "removed": false
        },
        {
          "address": "0x48065fbbe25f71c9282ddf5e1cd6d6a887483d5e",
          "topics": [
            "0xddf252ad1be2c89b69c2b068fc378daa952ba7f163c4a11628f55a4df523b3ef",
            "0x000000000000000000000000dee98402a302e4d707fb9bf2bac66faeec31e8df",
            "0x0000000000000000000000003a4db9e7306af09012ceb0f222d581fd1f0c6d71"
          ],
          "data": "0x00000000000000000000000000000000000000000000000000000000000249f0",
          "blockHash": "0xf4d0b26bc940e686a705742fda31ac537d50f310a138566903ec225aaaec8d4a",
          "blockNumber": "0x2048af2",
          "transactionHash": "0xea5165e896d6c97d504e5c5509466cd3ee0af3ae17ae86575018570b9b2b2a13",
          "transactionIndex": "0xb",
          "logIndex": "0x29",
          "removed": false
        },
        {
          "address": "0x3e59a31363e2ad014dcbc521c4a0d5757d9f3402",
          "topics": [
            "0x3115d1449a7b732c986cba18244e897a450f61e1bb8d589cd2e69e6c8924f9f7",
            "0x00000000000000000000000048065fbbe25f71c9282ddf5e1cd6d6a887483d5e",
            "0x000000000000000000000000d2b508298fcc37261953684744ec4ccc734d5083",
            "0x0000000000000000000000003a4db9e7306af09012ceb0f222d581fd1f0c6d71"
          ],
          "data": "0x00000000000000000000000000000000000000000000000000000000000249f0",
          "blockHash": "0xf4d0b26bc940e686a705742fda31ac537d50f310a138566903ec225aaaec8d4a",
          "blockNumber": "0x2048af2",
          "transactionHash": "0xea5165e896d6c97d504e5c5509466cd3ee0af3ae17ae86575018570b9b2b2a13",
          "transactionIndex": "0xb",
          "logIndex": "0x2a",
          "removed": false
        },
        {
          "address": "0xd2b508298fcc37261953684744ec4ccc734d5083",
          "topics": [
            "0x2399e8aed1977410745a5211d8226a3a7d9278f50a8a197c5ec6e285bb437f0b",
            "0x0000000000000000000000000000000000000000000000000000000000000008"
          ],
          "data": "0x00000000000000000000000000000000000000000000000000000000000249f0",
          "blockHash": "0xf4d0b26bc940e686a705742fda31ac537d50f310a138566903ec225aaaec8d4a",
          "blockNumber": "0x2048af2",
          "transactionHash": "0xea5165e896d6c97d504e5c5509466cd3ee0af3ae17ae86575018570b9b2b2a13",
          "transactionIndex": "0xb",
          "logIndex": "0x2b",
          "removed": false
        }
      ],
      "logsBloom": "0x1000000000000010020000000000000000900000000000000000000000000010000000080000000000000000000000000001000080008000000000000000000000000000000000080000000800000000000000000000000000000000000000000000000002000000000000000000080000000000002002004000001000000000008001000000000000000000000040000000000000006000020000000000000000000000008100000000004000000000100000000000000040000000000001004000000200008000000000a000000040000000000000001800000000000120040100100000000000000000000000000000000000000010000000000000000000",
      "type": "0x0",
      "transactionHash": "0xea5165e896d6c97d504e5c5509466cd3ee0af3ae17ae86575018570b9b2b2a13",
      "transactionIndex": "0xb",
      "blockHash": "0xf4d0b26bc940e686a705742fda31ac537d50f310a138566903ec225aaaec8d4a",
      "blockNumber": "0x2048af2",
      "gasUsed": "0x5366f",
      "effectiveGasPrice": "0x5d22cfc40",
      "from": "0x3a4db9e7306af09012ceb0f222d581fd1f0c6d71",
      "to": "0xd2b508298fcc37261953684744ec4ccc734d5083",
      "contractAddress": null,
      "l1BaseFeeScalar": "0x0",
      "l1BlobBaseFee": "0x4632d75f",
      "l1BlobBaseFeeScalar": "0x0",
      "l1Fee": "0x0",
      "l1GasPrice": "0x126b5a82",
      "l1GasUsed": "0x640"
    },
    {
      "status": "0x1",
      "cumulativeGasUsed": "0x1bc000",
      "logs": [
        {
          "address": "0xceba9300f2b948710d2653dd7b07f33a8b32118c",
          "topics": [
            "0x8c5be1e5ebec7d5bd14f71427d1e84f3dd0314c0f7b2291e5b200ac8c7c3b925",
            "0x0000000000000000000000003a4db9e7306af09012ceb0f222d581fd1f0c6d71",
            "0x000000000000000000000000d2b508298fcc37261953684744ec4ccc734d5083"
          ],
          "data": "0x000000000000000000000000000000000000000000000000000000000005b8d8",
          "blockHash": "0xf4d0b26bc940e686a705742fda31ac537d50f310a138566903ec225aaaec8d4a",
          "blockNumber": "0x2048af2",
          "transactionHash": "0x554b5be77191144a5b5bcc903f24dd44070f5dc4071d960b3ab35af70e87a0b3",
          "transactionIndex": "0xc",
          "logIndex": "0x2c",
          "removed": false
        }
      ],
      "logsBloom": "0x00000000000000000000100000000000000000000000000000000000000000000000000000000000000000000000000000000000000000000000000000200000000000000000000000000000000000000000000000000000000000000000000000000000000000000000000000000000000000000000000000000000000000000000000000000000000000000000400000000000000000000000000000000000020000000000000000000000000000000000000000000000000000000000000000000000000080000000020000000000000000000000001000000000000000000110100000000000000800000000000000000000000010000000000000000000",
      "type": "0x0",
      "transactionHash": "0x554b5be77191144a5b5bcc903f24dd44070f5dc4071d960b3ab35af70e87a0b3",
      "transactionIndex": "0xc",
      "blockHash": "0xf4d0b26bc940e686a705742fda31ac537d50f310a138566903ec225aaaec8d4a",
      "blockNumber": "0x2048af2",
      "gasUsed": "0xd88d",
      "effectiveGasPrice": "0x5d22cfc40",
      "from": "0x3a4db9e7306af09012ceb0f222d581fd1f0c6d71",
      "to": "0xceba9300f2b948710d2653dd7b07f33a8b32118c",
      "contractAddress": null,
      "l1BaseFeeScalar": "0x0",
      "l1BlobBaseFee": "0x4632d75f",
      "l1BlobBaseFeeScalar": "0x0",
      "l1Fee": "0x0",
      "l1GasPrice": "0x126b5a82",
      "l1GasUsed": "0x640"
    },
    {
      "status": "0x1",
      "cumulativeGasUsed": "0x1753fa",
      "logs": [
        {
          "address": "0xceba9300f2b948710d2653dd7b07f33a8b32118c",
          "topics": [
            "0xddf252ad1be2c89b69c2b068fc378daa952ba7f163c4a11628f55a4df523b3ef",
            "0x0000000000000000000000003a4db9e7306af09012ceb0f222d581fd1f0c6d71",
            "0x000000000000000000000000d2b508298fcc37261953684744ec4ccc734d5083"
          ],
          "data": "0x000000000000000000000000000000000000000000000000000000000002dc6c",
          "blockHash": "0xd954c7e33f480ae0b1de357e72eb6965f26ac94ac9024810d5d17b35f1ad8fd5",
          "blockNumber": "0x2048af3",
          "transactionHash": "0x6d0138ea18d0654f5de1e4fa8f3ec49c12227d2097925cb59e602dc5532d0627",
          "transactionIndex": "0xa",
          "logIndex": "0x24",
          "removed": false
        },
        {
          "address": "0xceba9300f2b948710d2653dd7b07f33a8b32118c",
          "topics": [
            "0x8c5be1e5ebec7d5bd14f71427d1e84f3dd0314c0f7b2291e5b200ac8c7c3b925",
            "0x000000000000000000000000d2b508298fcc37261953684744ec4ccc734d5083",
            "0x0000000000000000000000003e59a31363e2ad014dcbc521c4a0d5757d9f3402"
          ],
          "data": "0x000000000000000000000000000000000000000000000000000000000002dc6c",
          "blockHash": "0xd954c7e33f480ae0b1de357e72eb6965f26ac94ac9024810d5d17b35f1ad8fd5",
          "blockNumber": "0x2048af3",
          "transactionHash": "0x6d0138ea18d0654f5de1e4fa8f3ec49c12227d2097925cb59e602dc5532d0627",
          "transactionIndex": "0xa",
          "logIndex": "0x25",
          "removed": false
        },
        {
          "address": "0xdbe517c0fa6467873b684eccbed77217e471e862",
          "topics": [
            "0xddf252ad1be2c89b69c2b068fc378daa952ba7f163c4a11628f55a4df523b3ef",
            "0x000000000000000000000000d2b508298fcc37261953684744ec4ccc734d5083",
            "0x0000000000000000000000000000000000000000000000000000000000000000"
          ],
          "data": "0x000000000000000000000000000000000000000000000000000000000002dc6c",
          "blockHash": "0xd954c7e33f480ae0b1de357e72eb6965f26ac94ac9024810d5d17b35f1ad8fd5",
          "blockNumber": "0x2048af3",
          "transactionHash": "0x6d0138ea18d0654f5de1e4fa8f3ec49c12227d2097925cb59e602dc5532d0627",
          "transactionIndex": "0xa",
          "logIndex": "0x26",
          "removed": false
        },
        {
          "address": "0xdbe517c0fa6467873b684eccbed77217e471e862",
          "topics": [
            "0x4cf25bc1d991c17529c25213d3cc0cda295eeaad5f13f361969b12ea48015f90",
            "0x000000000000000000000000d2b508298fcc37261953684744ec4ccc734d5083",
            "0x0000000000000000000000000000000000000000000000000000000000000000"
          ],
          "data": "0x000000000000000000000000000000000000000000000000000000000002dc6c00000000000000000000000000000000000000000000000000000000000000000000000000000000000000000000000000000000033c539223f06ec95f55f323",
          "blockHash": "0xd954c7e33f480ae0b1de357e72eb6965f26ac94ac9024810d5d17b35f1ad8fd5",
          "blockNumber": "0x2048af3",
          "transactionHash": "0x6d0138ea18d0654f5de1e4fa8f3ec49c12227d2097925cb59e602dc5532d0627",
          "transactionIndex": "0xa",
          "logIndex": "0x27",
          "removed": false
        },
        {
          "address": "0x3e59a31363e2ad014dcbc521c4a0d5757d9f3402",
          "topics": [
            "0x804c9b842b2748a22bb64b345453a3de7ca54a6ca45ce00d415894979e22897a",
            "0x000000000000000000000000ceba9300f2b948710d2653dd7b07f33a8b32118c"
          ],
          "data": "0x00000000000000000000000000000000000000000000d614a21617229564a499000000000000000000000000000000000000000000000000000000000000000000000000000000000000000000000000000000000007bb511cfc2cb401fc02d00000000000000000000000000000000000000000033b6937554f14aa803f24570000000000000000000000000000000000000000033c539223f06ec95f55f323",
          "blockHash": "0xd954c7e33f480ae0b1de357e72eb6965f26ac94ac9024810d5d17b35f1ad8fd5",
          "blockNumber": "0x2048af3",
          "transactionHash": "0x6d0138ea18d0654f5de1e4fa8f3ec49c12227d2097925cb59e602dc5532d0627",
          "transactionIndex": "0xa",
          "logIndex": "0x28",
          "removed": false
        },
        {
          "address": "0xceba9300f2b948710d2653dd7b07f33a8b32118c",
          "topics": [
            "0xddf252ad1be2c89b69c2b068fc378daa952ba7f163c4a11628f55a4df523b3ef",
            "0x000000000000000000000000d2b508298fcc37261953684744ec4ccc734d5083",
            "0x000000000000000000000000ff8309b9e99bfd2d4021bc71a362abd93dbd4785"
          ],
          "data": "0x000000000000000000000000000000000000000000000000000000000002dc6c",
          "blockHash": "0xd954c7e33f480ae0b1de357e72eb6965f26ac94ac9024810d5d17b35f1ad8fd5",
          "blockNumber": "0x2048af3",
          "transactionHash": "0x6d0138ea18d0654f5de1e4fa8f3ec49c12227d2097925cb59e602dc5532d0627",
          "transactionIndex": "0xa",
          "logIndex": "0x29",
          "removed": false
        },
        {
          "address": "0x3e59a31363e2ad014dcbc521c4a0d5757d9f3402",
          "topics": [
            "0xa534c8dbe71f871f9f3530e97a74601fea17b426cae02e1c5aee42c96c784051",
            "0x000000000000000000000000ceba9300f2b948710d2653dd7b07f33a8b32118c",
            "0x000000000000000000000000d2b508298fcc37261953684744ec4ccc734d5083",
            "0x000000000000000000000000d2b508298fcc37261953684744ec4ccc734d5083"
          ],
          "data": "0x000000000000000000000000000000000000000000000000000000000002dc6c0000000000000000000000000000000000000000000000000000000000000000",
          "blockHash": "0xd954c7e33f480ae0b1de357e72eb6965f26ac94ac9024810d5d17b35f1ad8fd5",
          "blockNumber": "0x2048af3",
          "transactionHash": "0x6d0138ea18d0654f5de1e4fa8f3ec49c12227d2097925cb59e602dc5532d0627",
          "transactionIndex": "0xa",
          "logIndex": "0x2a",
          "removed": false
        },
        {
          "address": "0xd2b508298fcc37261953684744ec4ccc734d5083",
          "topics": [
            "0x0d4979b0859a1951f8ed7cbe3b1994e740552588f27ba02ca0f8f1ddcad16e0c",
            "0x0000000000000000000000000000000000000000000000000000000000000008"
          ],
          "data": "0x000000000000000000000000000000000000000000000000000000000002dc6c",
          "blockHash": "0xd954c7e33f480ae0b1de357e72eb6965f26ac94ac9024810d5d17b35f1ad8fd5",
          "blockNumber": "0x2048af3",
          "transactionHash": "0x6d0138ea18d0654f5de1e4fa8f3ec49c12227d2097925cb59e602dc5532d0627",
          "transactionIndex": "0xa",
          "logIndex": "0x2b",
          "removed": false
        }
      ],
      "logsBloom": "0x10000000000000110000120010400000000000000000000000000000000000100000000000000000000000000000400000110000c00080000000000000200000000000008000000000000008000000000000002000000000000000000000000080000000020000000000000000000800000000000000000000000010000000000080000000000000000000000000400000000000000000002200000000000000020001100000000000000000000000000000000000000000400000000000010040000002000080200000022000000000000000000000001800000000000020040110100000004010000800000000000000000000000010000000000000040000",
      "type": "0x0",
      "transactionHash": "0x6d0138ea18d0654f5de1e4fa8f3ec49c12227d2097925cb59e602dc5532d0627",
      "transactionIndex": "0xa",
      "blockHash": "0xd954c7e33f480ae0b1de357e72eb6965f26ac94ac9024810d5d17b35f1ad8fd5",
      "blockNumber": "0x2048af3",
      "gasUsed": "0x36df0",
      "effectiveGasPrice": "0x5d22cfc40",
      "from": "0x3a4db9e7306af09012ceb0f222d581fd1f0c6d71",
      "to": "0xd2b508298fcc37261953684744ec4ccc734d5083",
      "contractAddress": null,
      "l1BaseFeeScalar": "0x0",
      "l1BlobBaseFee": "0x4632d75f",
      "l1BlobBaseFeeScalar": "0x0",
      "l1Fee": "0x0",
      "l1GasPrice": "0x126b5a82",
      "l1GasUsed": "0x640"
    },
    {
      "status": "0x1",
      "cumulativeGasUsed": "0x1c651f",
      "logs": [
        {
          "address": "0x3e59a31363e2ad014dcbc521c4a0d5757d9f3402",
          "topics": [
            "0x804c9b842b2748a22bb64b345453a3de7ca54a6ca45ce00d415894979e22897a",
            "0x00000000000000000000000048065fbbe25f71c9282ddf5e1cd6d6a887483d5e"
          ],
          "data": "0x00000000000000000000000000000000000000000000000b15eb5750d022c83e0000000000000000000000000000000000000000000000000000000000000000000000000000000000000000000000000000000000001c2689c175b28cdb23110000000000000000000000000000000000000000033b5f8e25fb9a528d01379d0000000000000000000000000000000000000000033bccafb269cc9d902225c8",
          "blockHash": "0xd954c7e33f480ae0b1de357e72eb6965f26ac94ac9024810d5d17b35f1ad8fd5",
          "blockNumber": "0x2048af3",
          "transactionHash": "0x0639b4969fe61bf4ac2d773f6f9734ba27be3fbf6de0d400315c2e941cf3f177",
          "transactionIndex": "0xb",
          "logIndex": "0x2c",
          "removed": false
        },
        {
          "address": "0xdee98402a302e4d707fb9bf2bac66faeec31e8df",
          "topics": [
            "0xddf252ad1be2c89b69c2b068fc378daa952ba7f163c4a11628f55a4df523b3ef",
            "0x000000000000000000000000d2b508298fcc37261953684744ec4ccc734d5083",
            "0x0000000000000000000000000000000000000000000000000000000000000000"
          ],
          "data": "0x00000000000000000000000000000000000000000000000000000000000927c0",
          "blockHash": "0xd954c7e33f480ae0b1de357e72eb6965f26ac94ac9024810d5d17b35f1ad8fd5",
          "blockNumber": "0x2048af3",
          "transactionHash": "0x0639b4969fe61bf4ac2d773f6f9734ba27be3fbf6de0d400315c2e941cf3f177",
          "transactionIndex": "0xb",
          "logIndex": "0x2d",
          "removed": false
        },
        {
          "address": "0xdee98402a302e4d707fb9bf2bac66faeec31e8df",
          "topics": [
            "0x4cf25bc1d991c17529c25213d3cc0cda295eeaad5f13f361969b12ea48015f90",
            "0x000000000000000000000000d2b508298fcc37261953684744ec4ccc734d5083",
            "0x0000000000000000000000003a4db9e7306af09012ceb0f222d581fd1f0c6d71"
          ],
          "data": "0x00000000000000000000000000000000000000000000000000000000000927c000000000000000000000000000000000000000000000000000000000000000000000000000000000000000000000000000000000033b5f8e25fb9a528d01379d",
          "blockHash": "0xd954c7e33f480ae0b1de357e72eb6965f26ac94ac9024810d5d17b35f1ad8fd5",
          "blockNumber": "0x2048af3",
          "transactionHash": "0x0639b4969fe61bf4ac2d773f6f9734ba27be3fbf6de0d400315c2e941cf3f177",
          "transactionIndex": "0xb",
          "logIndex": "0x2e",
          "removed": false
        },
        {
          "address": "0x48065fbbe25f71c9282ddf5e1cd6d6a887483d5e",
          "topics": [
            "0xddf252ad1be2c89b69c2b068fc378daa952ba7f163c4a11628f55a4df523b3ef",
            "0x000000000000000000000000dee98402a302e4d707fb9bf2bac66faeec31e8df",
            "0x0000000000000000000000003a4db9e7306af09012ceb0f222d581fd1f0c6d71"
          ],
          "data": "0x00000000000000000000000000000000000000000000000000000000000927c0",
          "blockHash": "0xd954c7e33f480ae0b1de357e72eb6965f26ac94ac9024810d5d17b35f1ad8fd5",
          "blockNumber": "0x2048af3",
          "transactionHash": "0x0639b4969fe61bf4ac2d773f6f9734ba27be3fbf6de0d400315c2e941cf3f177",
          "transactionIndex": "0xb",
          "logIndex": "0x2f",
          "removed": false
        },
        {
          "address": "0x3e59a31363e2ad014dcbc521c4a0d5757d9f3402",
          "topics": [
            "0x3115d1449a7b732c986cba18244e897a450f61e1bb8d589cd2e69e6c8924f9f7",
            "0x00000000000000000000000048065fbbe25f71c9282ddf5e1cd6d6a887483d5e",
            "0x000000000000000000000000d2b508298fcc37261953684744ec4ccc734d5083",
            "0x0000000000000000000000003a4db9e7306af09012ceb0f222d581fd1f0c6d71"
          ],
          "data": "0x00000000000000000000000000000000000000000000000000000000000927c0",
          "blockHash": "0xd954c7e33f480ae0b1de357e72eb6965f26ac94ac9024810d5d17b35f1ad8fd5",
          "blockNumber": "0x2048af3",
          "transactionHash": "0x0639b4969fe61bf4ac2d773f6f9734ba27be3fbf6de0d400315c2e941cf3f177",
          "transactionIndex": "0xb",
          "logIndex": "0x30",
          "removed": false
        },
        {
          "address": "0xd2b508298fcc37261953684744ec4ccc734d5083",
          "topics": [
            "0x2399e8aed1977410745a5211d8226a3a7d9278f50a8a197c5ec6e285bb437f0b",
            "0x0000000000000000000000000000000000000000000000000000000000000008"
          ],
          "data": "0x00000000000000000000000000000000000000000000000000000000000927c0",
          "blockHash": "0xd954c7e33f480ae0b1de357e72eb6965f26ac94ac9024810d5d17b35f1ad8fd5",
          "blockNumber": "0x2048af3",
          "transactionHash": "0x0639b4969fe61bf4ac2d773f6f9734ba27be3fbf6de0d400315c2e941cf3f177",
          "transactionIndex": "0xb",
          "logIndex": "0x31",
          "removed": false
        }
      ],
      "logsBloom": "0x1000000000000010020000000000000000900000000000000000000000000010000000080000000000000000000000000001000080008000000000000000000000000000000000080000000800000000000000000000000000000000000000000000000002000000000000000000080000000000002002004000001000000000008001000000000000000000000040000000000000006000020000000000000000000000008100000000004000000000100000000000000040000000000001004000000200008000000000a000000040000000000000001800000000000120040100100000000000000000000000000000000000000010000000000000000000",
      "type": "0x0",
      "transactionHash": "0x0639b4969fe61bf4ac2d773f6f9734ba27be3fbf6de0d400315c2e941cf3f177",
      "transactionIndex": "0xb",
      "blockHash": "0xd954c7e33f480ae0b1de357e72eb6965f26ac94ac9024810d5d17b35f1ad8fd5",
      "blockNumber": "0x2048af3",
      "gasUsed": "0x51125",
      "effectiveGasPrice": "0x5d22cfc40",
      "from": "0x3a4db9e7306af09012ceb0f222d581fd1f0c6d71",
      "to": "0xd2b508298fcc37261953684744ec4ccc734d5083",
      "contractAddress": null,
      "l1BaseFeeScalar": "0x0",
      "l1BlobBaseFee": "0x4632d75f",
      "l1BlobBaseFeeScalar": "0x0",
      "l1Fee": "0x0",
      "l1GasPrice": "0x126b5a82",
      "l1GasUsed": "0x640"
    }
  ],
  "libraries": [],
  "pending": [],
  "returns": {},
  "timestamp": 1745752905,
  "chain": 42220,
  "commit": "1cefd9d"
}