{
  "transactions": [
    {
      "hash": "0xe983c0523179550d557ae9963df9408d2e90771848abfe6e01ca4318ec823b3c",
      "transactionType": "CALL",
      "contractName": null,
      "contractAddress": "0x48065fbbe25f71c9282ddf5e1cd6d6a887483d5e",
      "function": "approve(address,uint256)",
      "arguments": [
        "0x79242D2F9a923AB409413eDCEd60f5155D5A8D1e",
        "500000"
      ],
      "transaction": {
        "from": "0x3a4db9e7306af09012ceb0f222d581fd1f0c6d71",
        "to": "0x48065fbbe25f71c9282ddf5e1cd6d6a887483d5e",
        "gas": "0x1201c",
        "value": "0x0",
        "input": "0x095ea7b300000000000000000000000079242d2f9a923ab409413edced60f5155d5a8d1e000000000000000000000000000000000000000000000000000000000007a120",
        "nonce": "0x57",
        "chainId": "0xa4ec"
      },
      "additionalContracts": [],
      "isFixedGasLimit": false
    },
    {
      "hash": "0xd9924e92b43fd178b11b11f195e184c946b9ac70af79afad09b910beb491fdd3",
      "transactionType": "CALL",
      "contractName": null,
      "contractAddress": "0x79242d2f9a923ab409413edced60f5155d5a8d1e",
      "function": "createPosition(address,uint256,address,uint256,uint256)",
      "arguments": [
        "0x48065fbBE25f71C9282ddf5e1cD6D6A887483D5e",
        "500000",
        "0xcebA9300f2b948710d2653dD7B07f33A8B32118C",
        "250000",
        "2"
      ],
      "transaction": {
        "from": "0x3a4db9e7306af09012ceb0f222d581fd1f0c6d71",
        "to": "0x79242d2f9a923ab409413edced60f5155d5a8d1e",
        "gas": "0xdba5e",
        "value": "0x0",
        "input": "0xb0c3d5df00000000000000000000000048065fbbe25f71c9282ddf5e1cd6d6a887483d5e000000000000000000000000000000000000000000000000000000000007a120000000000000000000000000ceba9300f2b948710d2653dd7b07f33a8b32118c000000000000000000000000000000000000000000000000000000000003d0900000000000000000000000000000000000000000000000000000000000000002",
        "nonce": "0x58",
        "chainId": "0xa4ec"
      },
      "additionalContracts": [],
      "isFixedGasLimit": false
    },
    {
      "hash": "0xaa811ec402b399a6bbb3a5d78a3d974f27a1280aba6024d2096f3554bc5a3689",
      "transactionType": "CALL",
      "contractName": null,
      "contractAddress": "0x48065fbbe25f71c9282ddf5e1cd6d6a887483d5e",
      "function": "approve(address,uint256)",
      "arguments": [
        "0x79242D2F9a923AB409413eDCEd60f5155D5A8D1e",
        "250000"
      ],
      "transaction": {
        "from": "0x3a4db9e7306af09012ceb0f222d581fd1f0c6d71",
        "to": "0x48065fbbe25f71c9282ddf5e1cd6d6a887483d5e",
        "gas": "0x1201c",
        "value": "0x0",
        "input": "0x095ea7b300000000000000000000000079242d2f9a923ab409413edced60f5155d5a8d1e000000000000000000000000000000000000000000000000000000000003d090",
        "nonce": "0x59",
        "chainId": "0xa4ec"
      },
      "additionalContracts": [],
      "isFixedGasLimit": false
    },
    {
      "hash": "0xa2948dafb6116bcb1dff58f0fccc43db167e88b563b09a3eeccfcdf003ed673c",
      "transactionType": "CALL",
      "contractName": null,
      "contractAddress": "0x79242d2f9a923ab409413edced60f5155d5a8d1e",
      "function": "addCollateral(uint256,uint256)",
      "arguments": [
        "4",
        "250000"
      ],
      "transaction": {
        "from": "0x3a4db9e7306af09012ceb0f222d581fd1f0c6d71",
        "to": "0x79242d2f9a923ab409413edced60f5155d5a8d1e",
        "gas": "0x4b5df",
        "value": "0x0",
        "input": "0xa8f35adf0000000000000000000000000000000000000000000000000000000000000004000000000000000000000000000000000000000000000000000000000003d090",
        "nonce": "0x5a",
        "chainId": "0xa4ec"
      },
      "additionalContracts": [],
      "isFixedGasLimit": false
    },
    {
      "hash": "0xb25f0630ff334fb5d52a165b05f928baca16f24db83716e295209c8b88dd23ec",
      "transactionType": "CALL",
      "contractName": null,
      "contractAddress": "0x79242d2f9a923ab409413edced60f5155d5a8d1e",
      "function": "increaseBorrow(uint256,uint256)",
      "arguments": [
        "4",
        "125000"
      ],
      "transaction": {
        "from": "0x3a4db9e7306af09012ceb0f222d581fd1f0c6d71",
        "to": "0x79242d2f9a923ab409413edced60f5155d5a8d1e",
        "gas": "0x780a8",
        "value": "0x0",
        "input": "0x9e6824d90000000000000000000000000000000000000000000000000000000000000004000000000000000000000000000000000000000000000000000000000001e848",
        "nonce": "0x5b",
        "chainId": "0xa4ec"
      },
      "additionalContracts": [],
      "isFixedGasLimit": false
    },
    {
      "hash": "0xe51c9ba248e0388b54aab1592ae520fd1df6b37c6be100313cf919638c2b468f",
      "transactionType": "CALL",
      "contractName": null,
      "contractAddress": "0xceba9300f2b948710d2653dd7b07f33a8b32118c",
      "function": "approve(address,uint256)",
      "arguments": [
        "0x79242D2F9a923AB409413eDCEd60f5155D5A8D1e",
        "187500"
      ],
      "transaction": {
        "from": "0x3a4db9e7306af09012ceb0f222d581fd1f0c6d71",
        "to": "0xceba9300f2b948710d2653dd7b07f33a8b32118c",
        "gas": "0x12b1b",
        "value": "0x0",
        "input": "0x095ea7b300000000000000000000000079242d2f9a923ab409413edced60f5155d5a8d1e000000000000000000000000000000000000000000000000000000000002dc6c",
        "nonce": "0x5c",
        "chainId": "0xa4ec"
      },
      "additionalContracts": [],
      "isFixedGasLimit": false
    },
    {
      "hash": "0x9883d4d376dae8b1916c778b94612fd9859492cbbbe274c929eba8619ba07add",
      "transactionType": "CALL",
      "contractName": null,
      "contractAddress": "0x79242d2f9a923ab409413edced60f5155d5a8d1e",
      "function": "repayDebt(uint256,uint256)",
      "arguments": [
        "4",
        "187500"
      ],
      "transaction": {
        "from": "0x3a4db9e7306af09012ceb0f222d581fd1f0c6d71",
        "to": "0x79242d2f9a923ab409413edced60f5155d5a8d1e",
        "gas": "0x4a361",
        "value": "0x0",
        "input": "0x015cb0a50000000000000000000000000000000000000000000000000000000000000004000000000000000000000000000000000000000000000000000000000002dc6c",
        "nonce": "0x5d",
        "chainId": "0xa4ec"
      },
      "additionalContracts": [],
      "isFixedGasLimit": false
    },
    {
      "hash": "0x01f1dff7027f04482eed42a358cda1612237b909db5f5dff44980a0aeb5a01a1",
      "transactionType": "CALL",
      "contractName": null,
      "contractAddress": "0x79242d2f9a923ab409413edced60f5155d5a8d1e",
      "function": "withdrawCollateral(uint256,uint256)",
      "arguments": [
        "4",
        "150000"
      ],
      "transaction": {
        "from": "0x3a4db9e7306af09012ceb0f222d581fd1f0c6d71",
        "to": "0x79242d2f9a923ab409413edced60f5155d5a8d1e",
        "gas": "0x75bb4",
        "value": "0x0",
        "input": "0x767a7b05000000000000000000000000000000000000000000000000000000000000000400000000000000000000000000000000000000000000000000000000000249f0",
        "nonce": "0x5e",
        "chainId": "0xa4ec"
      },
      "additionalContracts": [],
      "isFixedGasLimit": false
    },
    {
      "hash": "0x14a3d34b56472471b8885f60157f726b49a8190e08ee11a71da7d02c759dfdc1",
      "transactionType": "CALL",
      "contractName": null,
      "contractAddress": "0xceba9300f2b948710d2653dd7b07f33a8b32118c",
      "function": "approve(address,uint256)",
      "arguments": [
        "0x79242D2F9a923AB409413eDCEd60f5155D5A8D1e",
        "187500"
      ],
      "transaction": {
        "from": "0x3a4db9e7306af09012ceb0f222d581fd1f0c6d71",
        "to": "0xceba9300f2b948710d2653dd7b07f33a8b32118c",
        "gas": "0x12b1b",
        "value": "0x0",
        "input": "0x095ea7b300000000000000000000000079242d2f9a923ab409413edced60f5155d5a8d1e000000000000000000000000000000000000000000000000000000000002dc6c",
        "nonce": "0x5f",
        "chainId": "0xa4ec"
      },
      "additionalContracts": [],
      "isFixedGasLimit": false
    },
    {
      "hash": "0x2f5b312ee069854d9d58ac1ee5f1dc2f05072ce84ba0c0bb1ec0db05b303486f",
      "transactionType": "CALL",
      "contractName": null,
      "contractAddress": "0x79242d2f9a923ab409413edced60f5155d5a8d1e",
      "function": "closePosition(uint256)",
      "arguments": [
        "4"
      ],
      "transaction": {
        "from": "0x3a4db9e7306af09012ceb0f222d581fd1f0c6d71",
        "to": "0x79242d2f9a923ab409413edced60f5155d5a8d1e",
        "gas": "0x909d3",
        "value": "0x0",
        "input": "0xa126d6010000000000000000000000000000000000000000000000000000000000000004",
        "nonce": "0x60",
        "chainId": "0xa4ec"
      },
      "additionalContracts": [],
      "isFixedGasLimit": false
    }
  ],
  "receipts": [
    {
      "status": "0x1",
      "cumulativeGasUsed": "0x127d6e",
      "logs": [
        {
          "address": "0x48065fbbe25f71c9282ddf5e1cd6d6a887483d5e",
          "topics": [
            "0x8c5be1e5ebec7d5bd14f71427d1e84f3dd0314c0f7b2291e5b200ac8c7c3b925",
            "0x0000000000000000000000003a4db9e7306af09012ceb0f222d581fd1f0c6d71",
            "0x00000000000000000000000079242d2f9a923ab409413edced60f5155d5a8d1e"
          ],
          "data": "0x000000000000000000000000000000000000000000000000000000000007a120",
          "blockHash": "0x1053ff8bdab2d2934c0953f96c8819bdd2fadcf14198a03b683bbb010c70809e",
          "blockNumber": "0x2036054",
          "transactionHash": "0xe983c0523179550d557ae9963df9408d2e90771848abfe6e01ca4318ec823b3c",
          "transactionIndex": "0xb",
          "logIndex": "0x21",
          "removed": false
        }
      ],
      "logsBloom": "0x00002000000000000000000000000000000000000000000000000000080000000000000000000000000000000000000000000000000000000000000000200000001000000000000000000000000000000000000000000000000000000000000000000000000000000000000000000000000000000000000040000000000000000000010000000000000000000000400000000000000000000000000000000000020000000000000000000000000000000000000000000000000000000000000000000000000080000000008000000000000000000000001000000000000000000010000000000000000000000000000000000000000000000000000000000000",
      "type": "0x0",
      "transactionHash": "0xe983c0523179550d557ae9963df9408d2e90771848abfe6e01ca4318ec823b3c",
      "transactionIndex": "0xb",
      "blockHash": "0x1053ff8bdab2d2934c0953f96c8819bdd2fadcf14198a03b683bbb010c70809e",
      "blockNumber": "0x2036054",
      "gasUsed": "0xd097",
      "effectiveGasPrice": "0x5d22cfc40",
      "from": "0x3a4db9e7306af09012ceb0f222d581fd1f0c6d71",
      "to": "0x48065fbbe25f71c9282ddf5e1cd6d6a887483d5e",
      "contractAddress": null,
      "l1BaseFeeScalar": "0x0",
      "l1BlobBaseFee": "0x10ab88edf",
      "l1BlobBaseFeeScalar": "0x0",
      "l1Fee": "0x0",
      "l1GasPrice": "0x31593674",
      "l1GasUsed": "0x640"
    },
    {
      "status": "0x1",
      "cumulativeGasUsed": "0x202ff3",
      "logs": [
        {
          "address": "0x48065fbbe25f71c9282ddf5e1cd6d6a887483d5e",
          "topics": [
            "0xddf252ad1be2c89b69c2b068fc378daa952ba7f163c4a11628f55a4df523b3ef",
            "0x0000000000000000000000003a4db9e7306af09012ceb0f222d581fd1f0c6d71",
            "0x00000000000000000000000079242d2f9a923ab409413edced60f5155d5a8d1e"
          ],
          "data": "0x000000000000000000000000000000000000000000000000000000000007a120",
          "blockHash": "0x5b7a2e4bedfe17159f5b06acdca217d55e072bbf2ebcc5cc16fed7a1aab1c704",
          "blockNumber": "0x2036055",
          "transactionHash": "0xd9924e92b43fd178b11b11f195e184c946b9ac70af79afad09b910beb491fdd3",
          "transactionIndex": "0xb",
          "logIndex": "0x25",
          "removed": false
        },
        {
          "address": "0x48065fbbe25f71c9282ddf5e1cd6d6a887483d5e",
          "topics": [
            "0x8c5be1e5ebec7d5bd14f71427d1e84f3dd0314c0f7b2291e5b200ac8c7c3b925",
            "0x0000000000000000000000003a4db9e7306af09012ceb0f222d581fd1f0c6d71",
            "0x00000000000000000000000079242d2f9a923ab409413edced60f5155d5a8d1e"
          ],
          "data": "0x0000000000000000000000000000000000000000000000000000000000000000",
          "blockHash": "0x5b7a2e4bedfe17159f5b06acdca217d55e072bbf2ebcc5cc16fed7a1aab1c704",
          "blockNumber": "0x2036055",
          "transactionHash": "0xd9924e92b43fd178b11b11f195e184c946b9ac70af79afad09b910beb491fdd3",
          "transactionIndex": "0xb",
          "logIndex": "0x26",
          "removed": false
        },
        {
          "address": "0x48065fbbe25f71c9282ddf5e1cd6d6a887483d5e",
          "topics": [
            "0x8c5be1e5ebec7d5bd14f71427d1e84f3dd0314c0f7b2291e5b200ac8c7c3b925",
            "0x00000000000000000000000079242d2f9a923ab409413edced60f5155d5a8d1e",
            "0x0000000000000000000000003e59a31363e2ad014dcbc521c4a0d5757d9f3402"
          ],
          "data": "0x000000000000000000000000000000000000000000000000000000000007a120",
          "blockHash": "0x5b7a2e4bedfe17159f5b06acdca217d55e072bbf2ebcc5cc16fed7a1aab1c704",
          "blockNumber": "0x2036055",
          "transactionHash": "0xd9924e92b43fd178b11b11f195e184c946b9ac70af79afad09b910beb491fdd3",
          "transactionIndex": "0xb",
          "logIndex": "0x27",
          "removed": false
        },
        {
          "address": "0x3e59a31363e2ad014dcbc521c4a0d5757d9f3402",
          "topics": [
            "0x804c9b842b2748a22bb64b345453a3de7ca54a6ca45ce00d415894979e22897a",
            "0x00000000000000000000000048065fbbe25f71c9282ddf5e1cd6d6a887483d5e"
          ],
          "data": "0x00000000000000000000000000000000000000000000000b15eca616f12ff6510000000000000000000000000000000000000000000000000000000000000000000000000000000000000000000000000000000000001c268b6a84859fef97060000000000000000000000000000000000000000033b5f8e1f1a1333d064a9b60000000000000000000000000000000000000000033bcc9e36eebf52602028d4",
          "blockHash": "0x5b7a2e4bedfe17159f5b06acdca217d55e072bbf2ebcc5cc16fed7a1aab1c704",
          "blockNumber": "0x2036055",
          "transactionHash": "0xd9924e92b43fd178b11b11f195e184c946b9ac70af79afad09b910beb491fdd3",
          "transactionIndex": "0xb",
          "logIndex": "0x28",
          "removed": false
        },
        {
          "address": "0x48065fbbe25f71c9282ddf5e1cd6d6a887483d5e",
          "topics": [
            "0xddf252ad1be2c89b69c2b068fc378daa952ba7f163c4a11628f55a4df523b3ef",
            "0x00000000000000000000000079242d2f9a923ab409413edced60f5155d5a8d1e",
            "0x000000000000000000000000dee98402a302e4d707fb9bf2bac66faeec31e8df"
          ],
          "data": "0x000000000000000000000000000000000000000000000000000000000007a120",
          "blockHash": "0x5b7a2e4bedfe17159f5b06acdca217d55e072bbf2ebcc5cc16fed7a1aab1c704",
          "blockNumber": "0x2036055",
          "transactionHash": "0xd9924e92b43fd178b11b11f195e184c946b9ac70af79afad09b910beb491fdd3",
          "transactionIndex": "0xb",
          "logIndex": "0x29",
          "removed": false
        },
        {
          "address": "0x48065fbbe25f71c9282ddf5e1cd6d6a887483d5e",
          "topics": [
            "0x8c5be1e5ebec7d5bd14f71427d1e84f3dd0314c0f7b2291e5b200ac8c7c3b925",
            "0x00000000000000000000000079242d2f9a923ab409413edced60f5155d5a8d1e",
            "0x0000000000000000000000003e59a31363e2ad014dcbc521c4a0d5757d9f3402"
          ],
          "data": "0x0000000000000000000000000000000000000000000000000000000000000000",
          "blockHash": "0x5b7a2e4bedfe17159f5b06acdca217d55e072bbf2ebcc5cc16fed7a1aab1c704",
          "blockNumber": "0x2036055",
          "transactionHash": "0xd9924e92b43fd178b11b11f195e184c946b9ac70af79afad09b910beb491fdd3",
          "transactionIndex": "0xb",
          "logIndex": "0x2a",
          "removed": false
        },
        {
          "address": "0xdee98402a302e4d707fb9bf2bac66faeec31e8df",
          "topics": [
            "0xddf252ad1be2c89b69c2b068fc378daa952ba7f163c4a11628f55a4df523b3ef",
            "0x0000000000000000000000000000000000000000000000000000000000000000",
            "0x00000000000000000000000079242d2f9a923ab409413edced60f5155d5a8d1e"
          ],
          "data": "0x000000000000000000000000000000000000000000000000000000000007a120",
          "blockHash": "0x5b7a2e4bedfe17159f5b06acdca217d55e072bbf2ebcc5cc16fed7a1aab1c704",
          "blockNumber": "0x2036055",
          "transactionHash": "0xd9924e92b43fd178b11b11f195e184c946b9ac70af79afad09b910beb491fdd3",
          "transactionIndex": "0xb",
          "logIndex": "0x2b",
          "removed": false
        },
        {
          "address": "0xdee98402a302e4d707fb9bf2bac66faeec31e8df",
          "topics": [
            "0x458f5fa412d0f69b08dd84872b0215675cc67bc1d5b6fd93300a1c3878b86196",
            "0x00000000000000000000000079242d2f9a923ab409413edced60f5155d5a8d1e",
            "0x00000000000000000000000079242d2f9a923ab409413edced60f5155d5a8d1e"
          ],
          "data": "0x000000000000000000000000000000000000000000000000000000000007a12000000000000000000000000000000000000000000000000000000000000000000000000000000000000000000000000000000000033b5f8e1f1a1333d064a9b6",
          "blockHash": "0x5b7a2e4bedfe17159f5b06acdca217d55e072bbf2ebcc5cc16fed7a1aab1c704",
          "blockNumber": "0x2036055",
          "transactionHash": "0xd9924e92b43fd178b11b11f195e184c946b9ac70af79afad09b910beb491fdd3",
          "transactionIndex": "0xb",
          "logIndex": "0x2c",
          "removed": false
        },
        {
          "address": "0x3e59a31363e2ad014dcbc521c4a0d5757d9f3402",
          "topics": [
            "0x00058a56ea94653cdf4f152d227ace22d4c00ad99e2a43f58cb7d9e3feb295f2",
            "0x00000000000000000000000048065fbbe25f71c9282ddf5e1cd6d6a887483d5e",
            "0x00000000000000000000000079242d2f9a923ab409413edced60f5155d5a8d1e"
          ],
          "data": "0x",
          "blockHash": "0x5b7a2e4bedfe17159f5b06acdca217d55e072bbf2ebcc5cc16fed7a1aab1c704",
          "blockNumber": "0x2036055",
          "transactionHash": "0xd9924e92b43fd178b11b11f195e184c946b9ac70af79afad09b910beb491fdd3",
          "transactionIndex": "0xb",
          "logIndex": "0x2d",
          "removed": false
        },
        {
          "address": "0x3e59a31363e2ad014dcbc521c4a0d5757d9f3402",
          "topics": [
            "0x2b627736bca15cd5381dcf80b0bf11fd197d01a037c52b927a881a10fb73ba61",
            "0x00000000000000000000000048065fbbe25f71c9282ddf5e1cd6d6a887483d5e",
            "0x00000000000000000000000079242d2f9a923ab409413edced60f5155d5a8d1e",
            "0x0000000000000000000000000000000000000000000000000000000000000000"
          ],
          "data": "0x00000000000000000000000079242d2f9a923ab409413edced60f5155d5a8d1e000000000000000000000000000000000000000000000000000000000007a120",
          "blockHash": "0x5b7a2e4bedfe17159f5b06acdca217d55e072bbf2ebcc5cc16fed7a1aab1c704",
          "blockNumber": "0x2036055",
          "transactionHash": "0xd9924e92b43fd178b11b11f195e184c946b9ac70af79afad09b910beb491fdd3",
          "transactionIndex": "0xb",
          "logIndex": "0x2e",
          "removed": false
        },
        {
          "address": "0xdbe517c0fa6467873b684eccbed77217e471e862",
          "topics": [
            "0xddf252ad1be2c89b69c2b068fc378daa952ba7f163c4a11628f55a4df523b3ef",
            "0x0000000000000000000000000000000000000000000000000000000000000000",
            "0x00000000000000000000000079242d2f9a923ab409413edced60f5155d5a8d1e"
          ],
          "data": "0x000000000000000000000000000000000000000000000000000000000003d090",
          "blockHash": "0x5b7a2e4bedfe17159f5b06acdca217d55e072bbf2ebcc5cc16fed7a1aab1c704",
          "blockNumber": "0x2036055",
          "transactionHash": "0xd9924e92b43fd178b11b11f195e184c946b9ac70af79afad09b910beb491fdd3",
          "transactionIndex": "0xb",
          "logIndex": "0x2f",
          "removed": false
        },
        {
          "address": "0xdbe517c0fa6467873b684eccbed77217e471e862",
          "topics": [
            "0x458f5fa412d0f69b08dd84872b0215675cc67bc1d5b6fd93300a1c3878b86196",
            "0x00000000000000000000000079242d2f9a923ab409413edced60f5155d5a8d1e",
            "0x00000000000000000000000079242d2f9a923ab409413edced60f5155d5a8d1e"
          ],
          "data": "0x000000000000000000000000000000000000000000000000000000000003d09000000000000000000000000000000000000000000000000000000000000000000000000000000000000000000000000000000000033c4ec698fe695d6ee3d725",
          "blockHash": "0x5b7a2e4bedfe17159f5b06acdca217d55e072bbf2ebcc5cc16fed7a1aab1c704",
          "blockNumber": "0x2036055",
          "transactionHash": "0xd9924e92b43fd178b11b11f195e184c946b9ac70af79afad09b910beb491fdd3",
          "transactionIndex": "0xb",
          "logIndex": "0x30",
          "removed": false
        },
        {
          "address": "0x3e59a31363e2ad014dcbc521c4a0d5757d9f3402",
          "topics": [
            "0x804c9b842b2748a22bb64b345453a3de7ca54a6ca45ce00d415894979e22897a",
            "0x000000000000000000000000ceba9300f2b948710d2653dd7b07f33a8b32118c"
          ],
          "data": "0x00000000000000000000000000000000000000000000d50b3a7b69031c149042000000000000000000000000000000000000000000000000000000000000000000000000000000000000000000000000000000000007b684b3feee9ac72223660000000000000000000000000000000000000000033b68b2f8e8dd3e2d5929320000000000000000000000000000000000000000033c4ec698fe695d6ee3d725",
          "blockHash": "0x5b7a2e4bedfe17159f5b06acdca217d55e072bbf2ebcc5cc16fed7a1aab1c704",
          "blockNumber": "0x2036055",
          "transactionHash": "0xd9924e92b43fd178b11b11f195e184c946b9ac70af79afad09b910beb491fdd3",
          "transactionIndex": "0xb",
          "logIndex": "0x31",
          "removed": false
        },
        {
          "address": "0xceba9300f2b948710d2653dd7b07f33a8b32118c",
          "topics": [
            "0xddf252ad1be2c89b69c2b068fc378daa952ba7f163c4a11628f55a4df523b3ef",
            "0x000000000000000000000000ff8309b9e99bfd2d4021bc71a362abd93dbd4785",
            "0x00000000000000000000000079242d2f9a923ab409413edced60f5155d5a8d1e"
          ],
          "data": "0x000000000000000000000000000000000000000000000000000000000003d090",
          "blockHash": "0x5b7a2e4bedfe17159f5b06acdca217d55e072bbf2ebcc5cc16fed7a1aab1c704",
          "blockNumber": "0x2036055",
          "transactionHash": "0xd9924e92b43fd178b11b11f195e184c946b9ac70af79afad09b910beb491fdd3",
          "transactionIndex": "0xb",
          "logIndex": "0x32",
          "removed": false
        },
        {
          "address": "0x3e59a31363e2ad014dcbc521c4a0d5757d9f3402",
          "topics": [
            "0xb3d084820fb1a9decffb176436bd02558d15fac9b0ddfed8c465bc7359d7dce0",
            "0x000000000000000000000000ceba9300f2b948710d2653dd7b07f33a8b32118c",
            "0x00000000000000000000000079242d2f9a923ab409413edced60f5155d5a8d1e",
            "0x0000000000000000000000000000000000000000000000000000000000000000"
          ],
          "data": "0x00000000000000000000000079242d2f9a923ab409413edced60f5155d5a8d1e000000000000000000000000000000000000000000000000000000000003d090000000000000000000000000000000000000000000000000000000000000000200000000000000000000000000000000000000000007b684b3feee9ac7222366",
          "blockHash": "0x5b7a2e4bedfe17159f5b06acdca217d55e072bbf2ebcc5cc16fed7a1aab1c704",
          "blockNumber": "0x2036055",
          "transactionHash": "0xd9924e92b43fd178b11b11f195e184c946b9ac70af79afad09b910beb491fdd3",
          "transactionIndex": "0xb",
          "logIndex": "0x33",
          "removed": false
        },
        {
          "address": "0xceba9300f2b948710d2653dd7b07f33a8b32118c",
          "topics": [
            "0xddf252ad1be2c89b69c2b068fc378daa952ba7f163c4a11628f55a4df523b3ef",
            "0x00000000000000000000000079242d2f9a923ab409413edced60f5155d5a8d1e",
            "0x0000000000000000000000003a4db9e7306af09012ceb0f222d581fd1f0c6d71"
          ],
          "data": "0x000000000000000000000000000000000000000000000000000000000003d090",
          "blockHash": "0x5b7a2e4bedfe17159f5b06acdca217d55e072bbf2ebcc5cc16fed7a1aab1c704",
          "blockNumber": "0x2036055",
          "transactionHash": "0xd9924e92b43fd178b11b11f195e184c946b9ac70af79afad09b910beb491fdd3",
          "transactionIndex": "0xb",
          "logIndex": "0x34",
          "removed": false
        },
        {
          "address": "0x79242d2f9a923ab409413edced60f5155d5a8d1e",
          "topics": [
            "0x9f9b498443531d2db9df8a00ec466efc74ba50ec1d82f7badd3424b87930e19a",
            "0x0000000000000000000000000000000000000000000000000000000000000004",
            "0x0000000000000000000000003a4db9e7306af09012ceb0f222d581fd1f0c6d71"
          ],
          "data": "0x00000000000000000000000048065fbbe25f71c9282ddf5e1cd6d6a887483d5e000000000000000000000000000000000000000000000000000000000007a120000000000000000000000000ceba9300f2b948710d2653dd7b07f33a8b32118c000000000000000000000000000000000000000000000000000000000003d0900000000000000000000000000000000000000000000000000000000000000002",
          "blockHash": "0x5b7a2e4bedfe17159f5b06acdca217d55e072bbf2ebcc5cc16fed7a1aab1c704",
          "blockNumber": "0x2036055",
          "transactionHash": "0xd9924e92b43fd178b11b11f195e184c946b9ac70af79afad09b910beb491fdd3",
          "transactionIndex": "0xb",
          "logIndex": "0x35",
          "removed": false
        }
      ],
      "logsBloom": "0x0000200000000801028012000040000000100000000000000000000008000000000000080000000000002800000440000010000080000000000000000020000000100000800000080000000800000000000000000000000000000004000000000800000002000000000000000000080000000002000000004000001000000000000001008000000000000000000040000000000000000000220000000000000002000110000100000000004000000000100000000000000040200001000001000200000200008120000002a040000040000000008000041000020000000120000010000000004010000800000011000040000000000000000000400000000000",
      "type": "0x0",
      "transactionHash": "0xd9924e92b43fd178b11b11f195e184c946b9ac70af79afad09b910beb491fdd3",
      "transactionIndex": "0xb",
      "blockHash": "0x5b7a2e4bedfe17159f5b06acdca217d55e072bbf2ebcc5cc16fed7a1aab1c704",
      "blockNumber": "0x2036055",
      "gasUsed": "0x9f057",
      "effectiveGasPrice": "0x5d22cfc40",
      "from": "0x3a4db9e7306af09012ceb0f222d581fd1f0c6d71",
      "to": "0x79242d2f9a923ab409413edced60f5155d5a8d1e",
      "contractAddress": null,
      "l1BaseFeeScalar": "0x0",
      "l1BlobBaseFee": "0x10ab88edf",
      "l1BlobBaseFeeScalar": "0x0",
      "l1Fee": "0x0",
      "l1GasPrice": "0x31593674",
      "l1GasUsed": "0x76d"
    },
    {
      "status": "0x1",
      "cumulativeGasUsed": "0xb155f",
      "logs": [
        {
          "address": "0x48065fbbe25f71c9282ddf5e1cd6d6a887483d5e",
          "topics": [
            "0x8c5be1e5ebec7d5bd14f71427d1e84f3dd0314c0f7b2291e5b200ac8c7c3b925",
            "0x0000000000000000000000003a4db9e7306af09012ceb0f222d581fd1f0c6d71",
            "0x00000000000000000000000079242d2f9a923ab409413edced60f5155d5a8d1e"
          ],
          "data": "0x000000000000000000000000000000000000000000000000000000000003d090",
          "blockHash": "0x98b195710fab240602b3ad7c87e4ea710efcb453ff91f31c827f62e49c3049d5",
          "blockNumber": "0x2036056",
          "transactionHash": "0xaa811ec402b399a6bbb3a5d78a3d974f27a1280aba6024d2096f3554bc5a3689",
          "transactionIndex": "0x6",
          "logIndex": "0x18",
          "removed": false
        }
      ],
      "logsBloom": "0x00002000000000000000000000000000000000000000000000000000080000000000000000000000000000000000000000000000000000000000000000200000001000000000000000000000000000000000000000000000000000000000000000000000000000000000000000000000000000000000000040000000000000000000010000000000000000000000400000000000000000000000000000000000020000000000000000000000000000000000000000000000000000000000000000000000000080000000008000000000000000000000001000000000000000000010000000000000000000000000000000000000000000000000000000000000",
      "type": "0x0",
      "transactionHash": "0xaa811ec402b399a6bbb3a5d78a3d974f27a1280aba6024d2096f3554bc5a3689",
      "transactionIndex": "0x6",
      "blockHash": "0x98b195710fab240602b3ad7c87e4ea710efcb453ff91f31c827f62e49c3049d5",
      "blockNumber": "0x2036056",
      "gasUsed": "0xd097",
      "effectiveGasPrice": "0x5d22cfc40",
      "from": "0x3a4db9e7306af09012ceb0f222d581fd1f0c6d71",
      "to": "0x48065fbbe25f71c9282ddf5e1cd6d6a887483d5e",
      "contractAddress": null,
      "l1BaseFeeScalar": "0x0",
      "l1BlobBaseFee": "0x10ab88edf",
      "l1BlobBaseFeeScalar": "0x0",
      "l1Fee": "0x0",
      "l1GasPrice": "0x31593674",
      "l1GasUsed": "0x640"
    },
    {
      "status": "0x1",
      "cumulativeGasUsed": "0x10c440",
      "logs": [
        {
          "address": "0x48065fbbe25f71c9282ddf5e1cd6d6a887483d5e",
          "topics": [
            "0xddf252ad1be2c89b69c2b068fc378daa952ba7f163c4a11628f55a4df523b3ef",
            "0x0000000000000000000000003a4db9e7306af09012ceb0f222d581fd1f0c6d71",
            "0x00000000000000000000000079242d2f9a923ab409413edced60f5155d5a8d1e"
          ],
          "data": "0x000000000000000000000000000000000000000000000000000000000003d090",
          "blockHash": "0x98b195710fab240602b3ad7c87e4ea710efcb453ff91f31c827f62e49c3049d5",
          "blockNumber": "0x2036056",
          "transactionHash": "0xa2948dafb6116bcb1dff58f0fccc43db167e88b563b09a3eeccfcdf003ed673c",
          "transactionIndex": "0x8",
          "logIndex": "0x1b",
          "removed": false
        },
        {
          "address": "0x48065fbbe25f71c9282ddf5e1cd6d6a887483d5e",
          "topics": [
            "0x8c5be1e5ebec7d5bd14f71427d1e84f3dd0314c0f7b2291e5b200ac8c7c3b925",
            "0x0000000000000000000000003a4db9e7306af09012ceb0f222d581fd1f0c6d71",
            "0x00000000000000000000000079242d2f9a923ab409413edced60f5155d5a8d1e"
          ],
          "data": "0x0000000000000000000000000000000000000000000000000000000000000000",
          "blockHash": "0x98b195710fab240602b3ad7c87e4ea710efcb453ff91f31c827f62e49c3049d5",
          "blockNumber": "0x2036056",
          "transactionHash": "0xa2948dafb6116bcb1dff58f0fccc43db167e88b563b09a3eeccfcdf003ed673c",
          "transactionIndex": "0x8",
          "logIndex": "0x1c",
          "removed": false
        },
        {
          "address": "0x48065fbbe25f71c9282ddf5e1cd6d6a887483d5e",
          "topics": [
            "0x8c5be1e5ebec7d5bd14f71427d1e84f3dd0314c0f7b2291e5b200ac8c7c3b925",
            "0x00000000000000000000000079242d2f9a923ab409413edced60f5155d5a8d1e",
            "0x0000000000000000000000003e59a31363e2ad014dcbc521c4a0d5757d9f3402"
          ],
          "data": "0x000000000000000000000000000000000000000000000000000000000003d090",
          "blockHash": "0x98b195710fab240602b3ad7c87e4ea710efcb453ff91f31c827f62e49c3049d5",
          "blockNumber": "0x2036056",
          "transactionHash": "0xa2948dafb6116bcb1dff58f0fccc43db167e88b563b09a3eeccfcdf003ed673c",
          "transactionIndex": "0x8",
          "logIndex": "0x1d",
          "removed": false
        },
        {
          "address": "0x3e59a31363e2ad014dcbc521c4a0d5757d9f3402",
          "topics": [
            "0x804c9b842b2748a22bb64b345453a3de7ca54a6ca45ce00d415894979e22897a",
            "0x00000000000000000000000048065fbbe25f71c9282ddf5e1cd6d6a887483d5e"
          ],
          "data": "0x00000000000000000000000000000000000000000000000b15ec868812f895510000000000000000000000000000000000000000000000000000000000000000000000000000000000000000000000000000000000001c268b4272e5c89c560a0000000000000000000000000000000000000000033b5f8e1f1a1919f27c3ca50000000000000000000000000000000000000000033bcc9e36fdbc15ebdf7f72",
          "blockHash": "0x98b195710fab240602b3ad7c87e4ea710efcb453ff91f31c827f62e49c3049d5",
          "blockNumber": "0x2036056",
          "transactionHash": "0xa2948dafb6116bcb1dff58f0fccc43db167e88b563b09a3eeccfcdf003ed673c",
          "transactionIndex": "0x8",
          "logIndex": "0x1e",
          "removed": false
        },
        {
          "address": "0x48065fbbe25f71c9282ddf5e1cd6d6a887483d5e",
          "topics": [
            "0xddf252ad1be2c89b69c2b068fc378daa952ba7f163c4a11628f55a4df523b3ef",
            "0x00000000000000000000000079242d2f9a923ab409413edced60f5155d5a8d1e",
            "0x000000000000000000000000dee98402a302e4d707fb9bf2bac66faeec31e8df"
          ],
          "data": "0x000000000000000000000000000000000000000000000000000000000003d090",
          "blockHash": "0x98b195710fab240602b3ad7c87e4ea710efcb453ff91f31c827f62e49c3049d5",
          "blockNumber": "0x2036056",
          "transactionHash": "0xa2948dafb6116bcb1dff58f0fccc43db167e88b563b09a3eeccfcdf003ed673c",
          "transactionIndex": "0x8",
          "logIndex": "0x1f",
          "removed": false
        },
        {
          "address": "0x48065fbbe25f71c9282ddf5e1cd6d6a887483d5e",
          "topics": [
            "0x8c5be1e5ebec7d5bd14f71427d1e84f3dd0314c0f7b2291e5b200ac8c7c3b925",
            "0x00000000000000000000000079242d2f9a923ab409413edced60f5155d5a8d1e",
            "0x0000000000000000000000003e59a31363e2ad014dcbc521c4a0d5757d9f3402"
          ],
          "data": "0x0000000000000000000000000000000000000000000000000000000000000000",
          "blockHash": "0x98b195710fab240602b3ad7c87e4ea710efcb453ff91f31c827f62e49c3049d5",
          "blockNumber": "0x2036056",
          "transactionHash": "0xa2948dafb6116bcb1dff58f0fccc43db167e88b563b09a3eeccfcdf003ed673c",
          "transactionIndex": "0x8",
          "logIndex": "0x20",
          "removed": false
        },
        {
          "address": "0xdee98402a302e4d707fb9bf2bac66faeec31e8df",
          "topics": [
            "0xddf252ad1be2c89b69c2b068fc378daa952ba7f163c4a11628f55a4df523b3ef",
            "0x0000000000000000000000000000000000000000000000000000000000000000",
            "0x00000000000000000000000079242d2f9a923ab409413edced60f5155d5a8d1e"
          ],
          "data": "0x000000000000000000000000000000000000000000000000000000000003d090",
          "blockHash": "0x98b195710fab240602b3ad7c87e4ea710efcb453ff91f31c827f62e49c3049d5",
          "blockNumber": "0x2036056",
          "transactionHash": "0xa2948dafb6116bcb1dff58f0fccc43db167e88b563b09a3eeccfcdf003ed673c",
          "transactionIndex": "0x8",
          "logIndex": "0x21",
          "removed": false
        },
        {
          "address": "0xdee98402a302e4d707fb9bf2bac66faeec31e8df",
          "topics": [
            "0x458f5fa412d0f69b08dd84872b0215675cc67bc1d5b6fd93300a1c3878b86196",
            "0x00000000000000000000000079242d2f9a923ab409413edced60f5155d5a8d1e",
            "0x00000000000000000000000079242d2f9a923ab409413edced60f5155d5a8d1e"
          ],
          "data": "0x000000000000000000000000000000000000000000000000000000000003d09000000000000000000000000000000000000000000000000000000000000000000000000000000000000000000000000000000000033b5f8e1f1a1919f27c3ca5",
          "blockHash": "0x98b195710fab240602b3ad7c87e4ea710efcb453ff91f31c827f62e49c3049d5",
          "blockNumber": "0x2036056",
          "transactionHash": "0xa2948dafb6116bcb1dff58f0fccc43db167e88b563b09a3eeccfcdf003ed673c",
          "transactionIndex": "0x8",
          "logIndex": "0x22",
          "removed": false
        },
        {
          "address": "0x3e59a31363e2ad014dcbc521c4a0d5757d9f3402",
          "topics": [
            "0x2b627736bca15cd5381dcf80b0bf11fd197d01a037c52b927a881a10fb73ba61",
            "0x00000000000000000000000048065fbbe25f71c9282ddf5e1cd6d6a887483d5e",
            "0x00000000000000000000000079242d2f9a923ab409413edced60f5155d5a8d1e",
            "0x0000000000000000000000000000000000000000000000000000000000000000"
          ],
          "data": "0x00000000000000000000000079242d2f9a923ab409413edced60f5155d5a8d1e000000000000000000000000000000000000000000000000000000000003d090",
          "blockHash": "0x98b195710fab240602b3ad7c87e4ea710efcb453ff91f31c827f62e49c3049d5",
          "blockNumber": "0x2036056",
          "transactionHash": "0xa2948dafb6116bcb1dff58f0fccc43db167e88b563b09a3eeccfcdf003ed673c",
          "transactionIndex": "0x8",
          "logIndex": "0x23",
          "removed": false
        },
        {
          "address": "0x79242d2f9a923ab409413edced60f5155d5a8d1e",
          "topics": [
            "0x244160b15e69cc411f041d94ae7fab6f6bba85dade8403216c05ff4b920d5449",
            "0x0000000000000000000000000000000000000000000000000000000000000004"
          ],
          "data": "0x000000000000000000000000000000000000000000000000000000000003d090",
          "blockHash": "0x98b195710fab240602b3ad7c87e4ea710efcb453ff91f31c827f62e49c3049d5",
          "blockNumber": "0x2036056",
          "transactionHash": "0xa2948dafb6116bcb1dff58f0fccc43db167e88b563b09a3eeccfcdf003ed673c",
          "transactionIndex": "0x8",
          "logIndex": "0x24",
          "removed": false
        }
      ],
      "logsBloom": "0x0000200000000001020002000000000000100000000000000000000008000000000000080000000000000800000400000000000080020000000000000020000000100000000000080000000800000000000000000000000000000004000000000800000002000000000000000000080000000000000000004000001000000000000001000000000000000000000040000000000000000000020000000000000002000010000100000000004000000000100000000000000040200001000001000200000200008000000000a040000050000000008000001000000000000120000010000000000080000000000010000040000000000000000000400000000000",
      "type": "0x0",
      "transactionHash": "0xa2948dafb6116bcb1dff58f0fccc43db167e88b563b09a3eeccfcdf003ed673c",
      "transactionIndex": "0x8",
      "blockHash": "0x98b195710fab240602b3ad7c87e4ea710efcb453ff91f31c827f62e49c3049d5",
      "blockNumber": "0x2036056",
      "gasUsed": "0x382c6",
      "effectiveGasPrice": "0x5d22cfc40",
      "from": "0x3a4db9e7306af09012ceb0f222d581fd1f0c6d71",
      "to": "0x79242d2f9a923ab409413edced60f5155d5a8d1e",
      "contractAddress": null,
      "l1BaseFeeScalar": "0x0",
      "l1BlobBaseFee": "0x10ab88edf",
      "l1BlobBaseFeeScalar": "0x0",
      "l1Fee": "0x0",
      "l1GasPrice": "0x31593674",
      "l1GasUsed": "0x640"
    },
    {
      "status": "0x1",
      "cumulativeGasUsed": "0x166087",
      "logs": [
        {
          "address": "0xdbe517c0fa6467873b684eccbed77217e471e862",
          "topics": [
            "0xddf252ad1be2c89b69c2b068fc378daa952ba7f163c4a11628f55a4df523b3ef",
            "0x0000000000000000000000000000000000000000000000000000000000000000",
            "0x00000000000000000000000079242d2f9a923ab409413edced60f5155d5a8d1e"
          ],
          "data": "0x000000000000000000000000000000000000000000000000000000000001e848",
          "blockHash": "0x98b195710fab240602b3ad7c87e4ea710efcb453ff91f31c827f62e49c3049d5",
          "blockNumber": "0x2036056",
          "transactionHash": "0xb25f0630ff334fb5d52a165b05f928baca16f24db83716e295209c8b88dd23ec",
          "transactionIndex": "0x9",
          "logIndex": "0x25",
          "removed": false
        },
        {
          "address": "0xdbe517c0fa6467873b684eccbed77217e471e862",
          "topics": [
            "0x458f5fa412d0f69b08dd84872b0215675cc67bc1d5b6fd93300a1c3878b86196",
            "0x00000000000000000000000079242d2f9a923ab409413edced60f5155d5a8d1e",
            "0x00000000000000000000000079242d2f9a923ab409413edced60f5155d5a8d1e"
          ],
          "data": "0x000000000000000000000000000000000000000000000000000000000001e84800000000000000000000000000000000000000000000000000000000000000000000000000000000000000000000000000000000033c4ec69d1a4a6a9668bf97",
          "blockHash": "0x98b195710fab240602b3ad7c87e4ea710efcb453ff91f31c827f62e49c3049d5",
          "blockNumber": "0x2036056",
          "transactionHash": "0xb25f0630ff334fb5d52a165b05f928baca16f24db83716e295209c8b88dd23ec",
          "transactionIndex": "0x9",
          "logIndex": "0x26",
          "removed": false
        },
        {
          "address": "0x3e59a31363e2ad014dcbc521c4a0d5757d9f3402",
          "topics": [
            "0x804c9b842b2748a22bb64b345453a3de7ca54a6ca45ce00d415894979e22897a",
            "0x000000000000000000000000ceba9300f2b948710d2653dd7b07f33a8b32118c"
          ],
          "data": "0x00000000000000000000000000000000000000000000d50b5d48db0fac47ce10000000000000000000000000000000000000000000000000000000000000000000000000000000000000000000000000000000000007b6855545dc06aa42daae0000000000000000000000000000000000000000033b68b2f95a3c3bcac8a89b0000000000000000000000000000000000000000033c4ec69d1a4a6a9668bf97",
          "blockHash": "0x98b195710fab240602b3ad7c87e4ea710efcb453ff91f31c827f62e49c3049d5",
          "blockNumber": "0x2036056",
          "transactionHash": "0xb25f0630ff334fb5d52a165b05f928baca16f24db83716e295209c8b88dd23ec",
          "transactionIndex": "0x9",
          "logIndex": "0x27",
          "removed": false
        },
        {
          "address": "0xceba9300f2b948710d2653dd7b07f33a8b32118c",
          "topics": [
            "0xddf252ad1be2c89b69c2b068fc378daa952ba7f163c4a11628f55a4df523b3ef",
            "0x000000000000000000000000ff8309b9e99bfd2d4021bc71a362abd93dbd4785",
            "0x00000000000000000000000079242d2f9a923ab409413edced60f5155d5a8d1e"
          ],
          "data": "0x000000000000000000000000000000000000000000000000000000000001e848",
          "blockHash": "0x98b195710fab240602b3ad7c87e4ea710efcb453ff91f31c827f62e49c3049d5",
          "blockNumber": "0x2036056",
          "transactionHash": "0xb25f0630ff334fb5d52a165b05f928baca16f24db83716e295209c8b88dd23ec",
          "transactionIndex": "0x9",
          "logIndex": "0x28",
          "removed": false
        },
        {
          "address": "0x3e59a31363e2ad014dcbc521c4a0d5757d9f3402",
          "topics": [
            "0xb3d084820fb1a9decffb176436bd02558d15fac9b0ddfed8c465bc7359d7dce0",
            "0x000000000000000000000000ceba9300f2b948710d2653dd7b07f33a8b32118c",
            "0x00000000000000000000000079242d2f9a923ab409413edced60f5155d5a8d1e",
            "0x0000000000000000000000000000000000000000000000000000000000000000"
          ],
          "data": "0x00000000000000000000000079242d2f9a923ab409413edced60f5155d5a8d1e000000000000000000000000000000000000000000000000000000000001e848000000000000000000000000000000000000000000000000000000000000000200000000000000000000000000000000000000000007b6855545dc06aa42daae",
          "blockHash": "0x98b195710fab240602b3ad7c87e4ea710efcb453ff91f31c827f62e49c3049d5",
          "blockNumber": "0x2036056",
          "transactionHash": "0xb25f0630ff334fb5d52a165b05f928baca16f24db83716e295209c8b88dd23ec",
          "transactionIndex": "0x9",
          "logIndex": "0x29",
          "removed": false
        },
        {
          "address": "0xceba9300f2b948710d2653dd7b07f33a8b32118c",
          "topics": [
            "0xddf252ad1be2c89b69c2b068fc378daa952ba7f163c4a11628f55a4df523b3ef",
            "0x00000000000000000000000079242d2f9a923ab409413edced60f5155d5a8d1e",
            "0x0000000000000000000000003a4db9e7306af09012ceb0f222d581fd1f0c6d71"
          ],
          "data": "0x000000000000000000000000000000000000000000000000000000000001e848",
          "blockHash": "0x98b195710fab240602b3ad7c87e4ea710efcb453ff91f31c827f62e49c3049d5",
          "blockNumber": "0x2036056",
          "transactionHash": "0xb25f0630ff334fb5d52a165b05f928baca16f24db83716e295209c8b88dd23ec",
          "transactionIndex": "0x9",
          "logIndex": "0x2a",
          "removed": false
        },
        {
          "address": "0x79242d2f9a923ab409413edced60f5155d5a8d1e",
          "topics": [
            "0xf3a2c404b3362c4238317c3dad1020c2e9e984ba8df38a4a1ff18d57e92a242a",
            "0x0000000000000000000000000000000000000000000000000000000000000004"
          ],
          "data": "0x000000000000000000000000000000000000000000000000000000000001e848",
          "blockHash": "0x98b195710fab240602b3ad7c87e4ea710efcb453ff91f31c827f62e49c3049d5",
          "blockNumber": "0x2036056",
          "transactionHash": "0xb25f0630ff334fb5d52a165b05f928baca16f24db83716e295209c8b88dd23ec",
          "transactionIndex": "0x9",
          "logIndex": "0x2b",
          "removed": false
        }
      ],
      "logsBloom": "0x00002000000000000000100000400000000000000000000000000000080000000000000000000000000008000004400000100000800000000000000000000000001000008000000000000008000000000000000000000000000000040000000008000000020000000000000000000800000000000000000000000010000000000000000000000010000000000000400000000000000000002200000000000000000001000000000000000000000000000000000000000000402000010000010002000002000081200000022000000000000000408000041000000000000020000000000000004010000800000011000000000000000000000800000000000000",
      "type": "0x0",
      "transactionHash": "0xb25f0630ff334fb5d52a165b05f928baca16f24db83716e295209c8b88dd23ec",
      "transactionIndex": "0x9",
      "blockHash": "0x98b195710fab240602b3ad7c87e4ea710efcb453ff91f31c827f62e49c3049d5",
      "blockNumber": "0x2036056",
      "gasUsed": "0x59c47",
      "effectiveGasPrice": "0x5d22cfc40",
      "from": "0x3a4db9e7306af09012ceb0f222d581fd1f0c6d71",
      "to": "0x79242d2f9a923ab409413edced60f5155d5a8d1e",
      "contractAddress": null,
      "l1BaseFeeScalar": "0x0",
      "l1BlobBaseFee": "0x10ab88edf",
      "l1BlobBaseFeeScalar": "0x0",
      "l1Fee": "0x0",
      "l1GasPrice": "0x31593674",
      "l1GasUsed": "0x640"
    },
    {
      "status": "0x1",
      "cumulativeGasUsed": "0xe094a",
      "logs": [
        {
          "address": "0xceba9300f2b948710d2653dd7b07f33a8b32118c",
          "topics": [
            "0x8c5be1e5ebec7d5bd14f71427d1e84f3dd0314c0f7b2291e5b200ac8c7c3b925",
            "0x0000000000000000000000003a4db9e7306af09012ceb0f222d581fd1f0c6d71",
            "0x00000000000000000000000079242d2f9a923ab409413edced60f5155d5a8d1e"
          ],
          "data": "0x000000000000000000000000000000000000000000000000000000000002dc6c",
          "blockHash": "0x60319e2c055042b706265de8d585e198765e8b120ad379dc471edb622c59edb2",
          "blockNumber": "0x2036057",
          "transactionHash": "0xe51c9ba248e0388b54aab1592ae520fd1df6b37c6be100313cf919638c2b468f",
          "transactionIndex": "0x7",
          "logIndex": "0x1c",
          "removed": false
        }
      ],
      "logsBloom": "0x00002000000000000000100000000000000000000000000000000000080000000000000000000000000000000000000000000000000000000000000000200000001000000000000000000000000000000000000000000000000000000000000000000000000000000000000000000000000000000000000000000000000000000000000000000000000000000000400000000000000000000000000000000000020000000000000000000000000000000000000000000000000000000000000000000000000080000000020000000000000000000000001000000000000000000010000000000000000800000000000000000000000000000000000000000000",
      "type": "0x0",
      "transactionHash": "0xe51c9ba248e0388b54aab1592ae520fd1df6b37c6be100313cf919638c2b468f",
      "transactionIndex": "0x7",
      "blockHash": "0x60319e2c055042b706265de8d585e198765e8b120ad379dc471edb622c59edb2",
      "blockNumber": "0x2036057",
      "gasUsed": "0xd88d",
      "effectiveGasPrice": "0x5d22cfc40",
      "from": "0x3a4db9e7306af09012ceb0f222d581fd1f0c6d71",
      "to": "0xceba9300f2b948710d2653dd7b07f33a8b32118c",
      "contractAddress": null,
      "l1BaseFeeScalar": "0x0",
      "l1BlobBaseFee": "0x10ab88edf",
      "l1BlobBaseFeeScalar": "0x0",
      "l1Fee": "0x0",
      "l1GasPrice": "0x31593674",
      "l1GasUsed": "0x640"
    },
    {
      "status": "0x1",
      "cumulativeGasUsed": "0x115cc8",
      "logs": [
        {
          "address": "0xceba9300f2b948710d2653dd7b07f33a8b32118c",
          "topics": [
            "0xddf252ad1be2c89b69c2b068fc378daa952ba7f163c4a11628f55a4df523b3ef",
            "0x0000000000000000000000003a4db9e7306af09012ceb0f222d581fd1f0c6d71",
            "0x00000000000000000000000079242d2f9a923ab409413edced60f5155d5a8d1e"
          ],
          "data": "0x000000000000000000000000000000000000000000000000000000000002dc6c",
          "blockHash": "0x60319e2c055042b706265de8d585e198765e8b120ad379dc471edb622c59edb2",
          "blockNumber": "0x2036057",
          "transactionHash": "0x9883d4d376dae8b1916c778b94612fd9859492cbbbe274c929eba8619ba07add",
          "transactionIndex": "0x8",
          "logIndex": "0x1d",
          "removed": false
        },
        {
          "address": "0xceba9300f2b948710d2653dd7b07f33a8b32118c",
          "topics": [
            "0x8c5be1e5ebec7d5bd14f71427d1e84f3dd0314c0f7b2291e5b200ac8c7c3b925",
            "0x00000000000000000000000079242d2f9a923ab409413edced60f5155d5a8d1e",
            "0x0000000000000000000000003e59a31363e2ad014dcbc521c4a0d5757d9f3402"
          ],
          "data": "0x000000000000000000000000000000000000000000000000000000000002dc6c",
          "blockHash": "0x60319e2c055042b706265de8d585e198765e8b120ad379dc471edb622c59edb2",
          "blockNumber": "0x2036057",
          "transactionHash": "0x9883d4d376dae8b1916c778b94612fd9859492cbbbe274c929eba8619ba07add",
          "transactionIndex": "0x8",
          "logIndex": "0x1e",
          "removed": false
        },
        {
          "address": "0xdbe517c0fa6467873b684eccbed77217e471e862",
          "topics": [
            "0xddf252ad1be2c89b69c2b068fc378daa952ba7f163c4a11628f55a4df523b3ef",
            "0x00000000000000000000000079242d2f9a923ab409413edced60f5155d5a8d1e",
            "0x0000000000000000000000000000000000000000000000000000000000000000"
          ],
          "data": "0x000000000000000000000000000000000000000000000000000000000002dc6c",
          "blockHash": "0x60319e2c055042b706265de8d585e198765e8b120ad379dc471edb622c59edb2",
          "blockNumber": "0x2036057",
          "transactionHash": "0x9883d4d376dae8b1916c778b94612fd9859492cbbbe274c929eba8619ba07add",
          "transactionIndex": "0x8",
          "logIndex": "0x1f",
          "removed": false
        },
        {
          "address": "0xdbe517c0fa6467873b684eccbed77217e471e862",
          "topics": [
            "0x4cf25bc1d991c17529c25213d3cc0cda295eeaad5f13f361969b12ea48015f90",
            "0x00000000000000000000000079242d2f9a923ab409413edced60f5155d5a8d1e",
            "0x0000000000000000000000000000000000000000000000000000000000000000"
          ],
          "data": "0x000000000000000000000000000000000000000000000000000000000002dc6c00000000000000000000000000000000000000000000000000000000000000000000000000000000000000000000000000000000033c4ec6a1362bcdadcde8a0",
          "blockHash": "0x60319e2c055042b706265de8d585e198765e8b120ad379dc471edb622c59edb2",
          "blockNumber": "0x2036057",
          "transactionHash": "0x9883d4d376dae8b1916c778b94612fd9859492cbbbe274c929eba8619ba07add",
          "transactionIndex": "0x8",
          "logIndex": "0x20",
          "removed": false
        },
        {
          "address": "0x3e59a31363e2ad014dcbc521c4a0d5757d9f3402",
          "topics": [
            "0x804c9b842b2748a22bb64b345453a3de7ca54a6ca45ce00d415894979e22897a",
            "0x000000000000000000000000ceba9300f2b948710d2653dd7b07f33a8b32118c"
          ],
          "data": "0x00000000000000000000000000000000000000000000d50b2919552bd7d35143000000000000000000000000000000000000000000000000000000000000000000000000000000000000000000000000000000000007b6846370f9b657035f450000000000000000000000000000000000000000033b68b2f9cb9b4bed6e84630000000000000000000000000000000000000000033c4ec6a1362bcdadcde8a0",
          "blockHash": "0x60319e2c055042b706265de8d585e198765e8b120ad379dc471edb622c59edb2",
          "blockNumber": "0x2036057",
          "transactionHash": "0x9883d4d376dae8b1916c778b94612fd9859492cbbbe274c929eba8619ba07add",
          "transactionIndex": "0x8",
          "logIndex": "0x21",
          "removed": false
        },
        {
          "address": "0xceba9300f2b948710d2653dd7b07f33a8b32118c",
          "topics": [
            "0xddf252ad1be2c89b69c2b068fc378daa952ba7f163c4a11628f55a4df523b3ef",
            "0x00000000000000000000000079242d2f9a923ab409413edced60f5155d5a8d1e",
            "0x000000000000000000000000ff8309b9e99bfd2d4021bc71a362abd93dbd4785"
          ],
          "data": "0x000000000000000000000000000000000000000000000000000000000002dc6c",
          "blockHash": "0x60319e2c055042b706265de8d585e198765e8b120ad379dc471edb622c59edb2",
          "blockNumber": "0x2036057",
          "transactionHash": "0x9883d4d376dae8b1916c778b94612fd9859492cbbbe274c929eba8619ba07add",
          "transactionIndex": "0x8",
          "logIndex": "0x22",
          "removed": false
        },
        {
          "address": "0x3e59a31363e2ad014dcbc521c4a0d5757d9f3402",
          "topics": [
            "0xa534c8dbe71f871f9f3530e97a74601fea17b426cae02e1c5aee42c96c784051",
            "0x000000000000000000000000ceba9300f2b948710d2653dd7b07f33a8b32118c",
            "0x00000000000000000000000079242d2f9a923ab409413edced60f5155d5a8d1e",
            "0x00000000000000000000000079242d2f9a923ab409413edced60f5155d5a8d1e"
          ],
          "data": "0x000000000000000000000000000000000000000000000000000000000002dc6c0000000000000000000000000000000000000000000000000000000000000000",
          "blockHash": "0x60319e2c055042b706265de8d585e198765e8b120ad379dc471edb622c59edb2",
          "blockNumber": "0x2036057",
          "transactionHash": "0x9883d4d376dae8b1916c778b94612fd9859492cbbbe274c929eba8619ba07add",
          "transactionIndex": "0x8",
          "logIndex": "0x23",
          "removed": false
        },
        {
          "address": "0x79242d2f9a923ab409413edced60f5155d5a8d1e",
          "topics": [
            "0x0d4979b0859a1951f8ed7cbe3b1994e740552588f27ba02ca0f8f1ddcad16e0c",
            "0x0000000000000000000000000000000000000000000000000000000000000004"
          ],
          "data": "0x000000000000000000000000000000000000000000000000000000000002dc6c",
          "blockHash": "0x60319e2c055042b706265de8d585e198765e8b120ad379dc471edb622c59edb2",
          "blockNumber": "0x2036057",
          "transactionHash": "0x9883d4d376dae8b1916c778b94612fd9859492cbbbe274c929eba8619ba07add",
          "transactionIndex": "0x8",
          "logIndex": "0x24",
          "removed": false
        }
      ],
      "logsBloom": "0x10002000000000010000120010400000000000000000000000000000080000000000000000000000000008000000400000110000c00000000000000000200000001000008000000000000008000000000000002000000000000000000000000088000000020000000000000000000800000000000000000000000010000000000000000000000000000000000000400000000000000000002200000000000000020001100000000000000000000000000000000000000000402000010000010000000002000080200000022000000000000000008000001000000000000020040010100000004010000800000010000000000000000000000000000000040000",
      "type": "0x0",
      "transactionHash": "0x9883d4d376dae8b1916c778b94612fd9859492cbbbe274c929eba8619ba07add",
      "transactionIndex": "0x8",
      "blockHash": "0x60319e2c055042b706265de8d585e198765e8b120ad379dc471edb622c59edb2",
      "blockNumber": "0x2036057",
      "gasUsed": "0x3537e",
      "effectiveGasPrice": "0x5d22cfc40",
      "from": "0x3a4db9e7306af09012ceb0f222d581fd1f0c6d71",
      "to": "0x79242d2f9a923ab409413edced60f5155d5a8d1e",
      "contractAddress": null,
      "l1BaseFeeScalar": "0x0",
      "l1BlobBaseFee": "0x10ab88edf",
      "l1BlobBaseFeeScalar": "0x0",
      "l1Fee": "0x0",
      "l1GasPrice": "0x31593674",
      "l1GasUsed": "0x640"
    },
    {
      "status": "0x1",
      "cumulativeGasUsed": "0x2801c1",
      "logs": [
        {
          "address": "0x3e59a31363e2ad014dcbc521c4a0d5757d9f3402",
          "topics": [
            "0x804c9b842b2748a22bb64b345453a3de7ca54a6ca45ce00d415894979e22897a",
            "0x00000000000000000000000048065fbbe25f71c9282ddf5e1cd6d6a887483d5e"
          ],
          "data": "0x00000000000000000000000000000000000000000000000b15ec99776509a3c70000000000000000000000000000000000000000000000000000000000000000000000000000000000000000000000000000000000001c268b5a7d78d5b7c7310000000000000000000000000000000000000000033b5f8e1f1a24e63689cc920000000000000000000000000000000000000000033bcc9e371bb59cd8b4abe9",
          "blockHash": "0xc340afaf812fa62207d26f9baf61d82d24034fc867403483d70ea10d9d6abd69",
          "blockNumber": "0x2036058",
          "transactionHash": "0x01f1dff7027f04482eed42a358cda1612237b909db5f5dff44980a0aeb5a01a1",
          "transactionIndex": "0xc",
          "logIndex": "0x1c",
          "removed": false
        },
        {
          "address": "0xdee98402a302e4d707fb9bf2bac66faeec31e8df",
          "topics": [
            "0xddf252ad1be2c89b69c2b068fc378daa952ba7f163c4a11628f55a4df523b3ef",
            "0x00000000000000000000000079242d2f9a923ab409413edced60f5155d5a8d1e",
            "0x0000000000000000000000000000000000000000000000000000000000000000"
          ],
          "data": "0x00000000000000000000000000000000000000000000000000000000000249f0",
          "blockHash": "0xc340afaf812fa62207d26f9baf61d82d24034fc867403483d70ea10d9d6abd69",
          "blockNumber": "0x2036058",
          "transactionHash": "0x01f1dff7027f04482eed42a358cda1612237b909db5f5dff44980a0aeb5a01a1",
          "transactionIndex": "0xc",
          "logIndex": "0x1d",
          "removed": false
        },
        {
          "address": "0xdee98402a302e4d707fb9bf2bac66faeec31e8df",
          "topics": [
            "0x4cf25bc1d991c17529c25213d3cc0cda295eeaad5f13f361969b12ea48015f90",
            "0x00000000000000000000000079242d2f9a923ab409413edced60f5155d5a8d1e",
            "0x0000000000000000000000003a4db9e7306af09012ceb0f222d581fd1f0c6d71"
          ],
          "data": "0x00000000000000000000000000000000000000000000000000000000000249f000000000000000000000000000000000000000000000000000000000000000000000000000000000000000000000000000000000033b5f8e1f1a24e63689cc92",
          "blockHash": "0xc340afaf812fa62207d26f9baf61d82d24034fc867403483d70ea10d9d6abd69",
          "blockNumber": "0x2036058",
          "transactionHash": "0x01f1dff7027f04482eed42a358cda1612237b909db5f5dff44980a0aeb5a01a1",
          "transactionIndex": "0xc",
          "logIndex": "0x1e",
          "removed": false
        },
        {
          "address": "0x48065fbbe25f71c9282ddf5e1cd6d6a887483d5e",
          "topics": [
            "0xddf252ad1be2c89b69c2b068fc378daa952ba7f163c4a11628f55a4df523b3ef",
            "0x000000000000000000000000dee98402a302e4d707fb9bf2bac66faeec31e8df",
            "0x0000000000000000000000003a4db9e7306af09012ceb0f222d581fd1f0c6d71"
          ],
          "data": "0x00000000000000000000000000000000000000000000000000000000000249f0",
          "blockHash": "0xc340afaf812fa62207d26f9baf61d82d24034fc867403483d70ea10d9d6abd69",
          "blockNumber": "0x2036058",
          "transactionHash": "0x01f1dff7027f04482eed42a358cda1612237b909db5f5dff44980a0aeb5a01a1",
          "transactionIndex": "0xc",
          "logIndex": "0x1f",
          "removed": false
        },
        {
          "address": "0x3e59a31363e2ad014dcbc521c4a0d5757d9f3402",
          "topics": [
            "0x3115d1449a7b732c986cba18244e897a450f61e1bb8d589cd2e69e6c8924f9f7",
            "0x00000000000000000000000048065fbbe25f71c9282ddf5e1cd6d6a887483d5e",
            "0x00000000000000000000000079242d2f9a923ab409413edced60f5155d5a8d1e",
            "0x0000000000000000000000003a4db9e7306af09012ceb0f222d581fd1f0c6d71"
          ],
          "data": "0x00000000000000000000000000000000000000000000000000000000000249f0",
          "blockHash": "0xc340afaf812fa62207d26f9baf61d82d24034fc867403483d70ea10d9d6abd69",
          "blockNumber": "0x2036058",
          "transactionHash": "0x01f1dff7027f04482eed42a358cda1612237b909db5f5dff44980a0aeb5a01a1",
          "transactionIndex": "0xc",
          "logIndex": "0x20",
          "removed": false
        },
        {
          "address": "0x79242d2f9a923ab409413edced60f5155d5a8d1e",
          "topics": [
            "0x2399e8aed1977410745a5211d8226a3a7d9278f50a8a197c5ec6e285bb437f0b",
            "0x0000000000000000000000000000000000000000000000000000000000000004"
          ],
          "data": "0x00000000000000000000000000000000000000000000000000000000000249f0",
          "blockHash": "0xc340afaf812fa62207d26f9baf61d82d24034fc867403483d70ea10d9d6abd69",
          "blockNumber": "0x2036058",
          "transactionHash": "0x01f1dff7027f04482eed42a358cda1612237b909db5f5dff44980a0aeb5a01a1",
          "transactionIndex": "0xc",
          "logIndex": "0x21",
          "removed": false
        }
      ],
      "logsBloom": "0x1000200000000000020000000000000000900000000000000000000008000000000000080000000000000800000000000001000080000000000000000000000000100000000000080000000800000000000000000000000000000000000000000800000002000000000000000000080000000000002002004000001000000000000001000000000000000000000040000000000000006000020000000000000000000000008100000000004000000000100000000000000040200001000001000000000200008000000000a000000040000000008000001000000000000120040000000000000000000000000010000000000000000000000000000000000000",
      "type": "0x0",
      "transactionHash": "0x01f1dff7027f04482eed42a358cda1612237b909db5f5dff44980a0aeb5a01a1",
      "transactionIndex": "0xc",
      "blockHash": "0xc340afaf812fa62207d26f9baf61d82d24034fc867403483d70ea10d9d6abd69",
      "blockNumber": "0x2036058",
      "gasUsed": "0x53617",
      "effectiveGasPrice": "0x5d22cfc40",
      "from": "0x3a4db9e7306af09012ceb0f222d581fd1f0c6d71",
      "to": "0x79242d2f9a923ab409413edced60f5155d5a8d1e",
      "contractAddress": null,
      "l1BaseFeeScalar": "0x0",
      "l1BlobBaseFee": "0x10ab88edf",
      "l1BlobBaseFeeScalar": "0x0",
      "l1Fee": "0x0",
      "l1GasPrice": "0x31593674",
      "l1GasUsed": "0x640"
    },
    {
      "status": "0x1",
      "cumulativeGasUsed": "0x28da4e",
      "logs": [
        {
          "address": "0xceba9300f2b948710d2653dd7b07f33a8b32118c",
          "topics": [
            "0x8c5be1e5ebec7d5bd14f71427d1e84f3dd0314c0f7b2291e5b200ac8c7c3b925",
            "0x0000000000000000000000003a4db9e7306af09012ceb0f222d581fd1f0c6d71",
            "0x00000000000000000000000079242d2f9a923ab409413edced60f5155d5a8d1e"
          ],
          "data": "0x000000000000000000000000000000000000000000000000000000000002dc6c",
          "blockHash": "0xc340afaf812fa62207d26f9baf61d82d24034fc867403483d70ea10d9d6abd69",
          "blockNumber": "0x2036058",
          "transactionHash": "0x14a3d34b56472471b8885f60157f726b49a8190e08ee11a71da7d02c759dfdc1",
          "transactionIndex": "0xd",
          "logIndex": "0x22",
          "removed": false
        }
      ],
      "logsBloom": "0x00002000000000000000100000000000000000000000000000000000080000000000000000000000000000000000000000000000000000000000000000200000001000000000000000000000000000000000000000000000000000000000000000000000000000000000000000000000000000000000000000000000000000000000000000000000000000000000400000000000000000000000000000000000020000000000000000000000000000000000000000000000000000000000000000000000000080000000020000000000000000000000001000000000000000000010000000000000000800000000000000000000000000000000000000000000",
      "type": "0x0",
      "transactionHash": "0x14a3d34b56472471b8885f60157f726b49a8190e08ee11a71da7d02c759dfdc1",
      "transactionIndex": "0xd",
      "blockHash": "0xc340afaf812fa62207d26f9baf61d82d24034fc867403483d70ea10d9d6abd69",
      "blockNumber": "0x2036058",
      "gasUsed": "0xd88d",
      "effectiveGasPrice": "0x5d22cfc40",
      "from": "0x3a4db9e7306af09012ceb0f222d581fd1f0c6d71",
      "to": "0xceba9300f2b948710d2653dd7b07f33a8b32118c",
      "contractAddress": null,
      "l1BaseFeeScalar": "0x0",
      "l1BlobBaseFee": "0x10ab88edf",
      "l1BlobBaseFeeScalar": "0x0",
      "l1Fee": "0x0",
      "l1GasPrice": "0x31593674",
      "l1GasUsed": "0x640"
    },
    {
      "status": "0x1",
      "cumulativeGasUsed": "0x248949",
      "logs": [
        {
          "address": "0xceba9300f2b948710d2653dd7b07f33a8b32118c",
          "topics": [
            "0xddf252ad1be2c89b69c2b068fc378daa952ba7f163c4a11628f55a4df523b3ef",
            "0x0000000000000000000000003a4db9e7306af09012ceb0f222d581fd1f0c6d71",
            "0x00000000000000000000000079242d2f9a923ab409413edced60f5155d5a8d1e"
          ],
          "data": "0x000000000000000000000000000000000000000000000000000000000002dc6c",
          "blockHash": "0x06e96a0339a7a45c08b8afb907855b28d58cac3c5c912c7c6ed3278ae68c54ce",
          "blockNumber": "0x2036059",
          "transactionHash": "0x2f5b312ee069854d9d58ac1ee5f1dc2f05072ce84ba0c0bb1ec0db05b303486f",
          "transactionIndex": "0x10",
          "logIndex": "0x3b",
          "removed": false
        },
        {
          "address": "0xceba9300f2b948710d2653dd7b07f33a8b32118c",
          "topics": [
            "0x8c5be1e5ebec7d5bd14f71427d1e84f3dd0314c0f7b2291e5b200ac8c7c3b925",
            "0x00000000000000000000000079242d2f9a923ab409413edced60f5155d5a8d1e",
            "0x0000000000000000000000003e59a31363e2ad014dcbc521c4a0d5757d9f3402"
          ],
          "data": "0x000000000000000000000000000000000000000000000000000000000002dc6c",
          "blockHash": "0x06e96a0339a7a45c08b8afb907855b28d58cac3c5c912c7c6ed3278ae68c54ce",
          "blockNumber": "0x2036059",
          "transactionHash": "0x2f5b312ee069854d9d58ac1ee5f1dc2f05072ce84ba0c0bb1ec0db05b303486f",
          "transactionIndex": "0x10",
          "logIndex": "0x3c",
          "removed": false
        },
        {
          "address": "0xdbe517c0fa6467873b684eccbed77217e471e862",
          "topics": [
            "0xddf252ad1be2c89b69c2b068fc378daa952ba7f163c4a11628f55a4df523b3ef",
            "0x00000000000000000000000079242d2f9a923ab409413edced60f5155d5a8d1e",
            "0x0000000000000000000000000000000000000000000000000000000000000000"
          ],
          "data": "0x000000000000000000000000000000000000000000000000000000000002dc6c",
          "blockHash": "0x06e96a0339a7a45c08b8afb907855b28d58cac3c5c912c7c6ed3278ae68c54ce",
          "blockNumber": "0x2036059",
          "transactionHash": "0x2f5b312ee069854d9d58ac1ee5f1dc2f05072ce84ba0c0bb1ec0db05b303486f",
          "transactionIndex": "0x10",
          "logIndex": "0x3d",
          "removed": false
        },
        {
          "address": "0xdbe517c0fa6467873b684eccbed77217e471e862",
          "topics": [
            "0x4cf25bc1d991c17529c25213d3cc0cda295eeaad5f13f361969b12ea48015f90",
            "0x00000000000000000000000079242d2f9a923ab409413edced60f5155d5a8d1e",
            "0x0000000000000000000000000000000000000000000000000000000000000000"
          ],
          "data": "0x000000000000000000000000000000000000000000000000000000000002dc6c00000000000000000000000000000000000000000000000000000000000000000000000000000000000000000000000000000000033c4ec6a96ded92433070ba",
          "blockHash": "0x06e96a0339a7a45c08b8afb907855b28d58cac3c5c912c7c6ed3278ae68c54ce",
          "blockNumber": "0x2036059",
          "transactionHash": "0x2f5b312ee069854d9d58ac1ee5f1dc2f05072ce84ba0c0bb1ec0db05b303486f",
          "transactionIndex": "0x10",
          "logIndex": "0x3e",
          "removed": false
        },
        {
          "address": "0x3e59a31363e2ad014dcbc521c4a0d5757d9f3402",
          "topics": [
            "0x804c9b842b2748a22bb64b345453a3de7ca54a6ca45ce00d415894979e22897a",
            "0x000000000000000000000000ceba9300f2b948710d2653dd7b07f33a8b32118c"
          ],
          "data": "0x00000000000000000000000000000000000000000000d50af4ebb757738d31c0000000000000000000000000000000000000000000000000000000000000000000000000000000000000000000000000000000000007b68371a4cf7d229fb4c50000000000000000000000000000000000000000033b68b2faae5934a85677a90000000000000000000000000000000000000000033c4ec6a96ded92433070ba",
          "blockHash": "0x06e96a0339a7a45c08b8afb907855b28d58cac3c5c912c7c6ed3278ae68c54ce",
          "blockNumber": "0x2036059",
          "transactionHash": "0x2f5b312ee069854d9d58ac1ee5f1dc2f05072ce84ba0c0bb1ec0db05b303486f",
          "transactionIndex": "0x10",
          "logIndex": "0x3f",
          "removed": false
        },
        {
          "address": "0xceba9300f2b948710d2653dd7b07f33a8b32118c",
          "topics": [
            "0xddf252ad1be2c89b69c2b068fc378daa952ba7f163c4a11628f55a4df523b3ef",
            "0x00000000000000000000000079242d2f9a923ab409413edced60f5155d5a8d1e",
            "0x000000000000000000000000ff8309b9e99bfd2d4021bc71a362abd93dbd4785"
          ],
          "data": "0x000000000000000000000000000000000000000000000000000000000002dc6c",
          "blockHash": "0x06e96a0339a7a45c08b8afb907855b28d58cac3c5c912c7c6ed3278ae68c54ce",
          "blockNumber": "0x2036059",
          "transactionHash": "0x2f5b312ee069854d9d58ac1ee5f1dc2f05072ce84ba0c0bb1ec0db05b303486f",
          "transactionIndex": "0x10",
          "logIndex": "0x40",
          "removed": false
        },
        {
          "address": "0x3e59a31363e2ad014dcbc521c4a0d5757d9f3402",
          "topics": [
            "0xa534c8dbe71f871f9f3530e97a74601fea17b426cae02e1c5aee42c96c784051",
            "0x000000000000000000000000ceba9300f2b948710d2653dd7b07f33a8b32118c",
            "0x00000000000000000000000079242d2f9a923ab409413edced60f5155d5a8d1e",
            "0x00000000000000000000000079242d2f9a923ab409413edced60f5155d5a8d1e"
          ],
          "data": "0x000000000000000000000000000000000000000000000000000000000002dc6c0000000000000000000000000000000000000000000000000000000000000000",
          "blockHash": "0x06e96a0339a7a45c08b8afb907855b28d58cac3c5c912c7c6ed3278ae68c54ce",
          "blockNumber": "0x2036059",
          "transactionHash": "0x2f5b312ee069854d9d58ac1ee5f1dc2f05072ce84ba0c0bb1ec0db05b303486f",
          "transactionIndex": "0x10",
          "logIndex": "0x41",
          "removed": false
        },
        {
          "address": "0x3e59a31363e2ad014dcbc521c4a0d5757d9f3402",
          "topics": [
            "0x804c9b842b2748a22bb64b345453a3de7ca54a6ca45ce00d415894979e22897a",
            "0x00000000000000000000000048065fbbe25f71c9282ddf5e1cd6d6a887483d5e"
          ],
          "data": "0x00000000000000000000000000000000000000000000000b15ece534b778d1c50000000000000000000000000000000000000000000000000000000000000000000000000000000000000000000000000000000000001c268bbaa7d125c2af3e0000000000000000000000000000000000000000033b5f8e1f1a2acc589aa7eb0000000000000000000000000000000000000000033bcc9e372ab2605bec5c43",
          "blockHash": "0x06e96a0339a7a45c08b8afb907855b28d58cac3c5c912c7c6ed3278ae68c54ce",
          "blockNumber": "0x2036059",
          "transactionHash": "0x2f5b312ee069854d9d58ac1ee5f1dc2f05072ce84ba0c0bb1ec0db05b303486f",
          "transactionIndex": "0x10",
          "logIndex": "0x42",
          "removed": false
        },
        {
          "address": "0x3e59a31363e2ad014dcbc521c4a0d5757d9f3402",
          "topics": [
            "0x44c58d81365b66dd4b1a7f36c25aa97b8c71c361ee4937adc1a00000227db5dd",
            "0x00000000000000000000000048065fbbe25f71c9282ddf5e1cd6d6a887483d5e",
            "0x00000000000000000000000079242d2f9a923ab409413edced60f5155d5a8d1e"
          ],
          "data": "0x",
          "blockHash": "0x06e96a0339a7a45c08b8afb907855b28d58cac3c5c912c7c6ed3278ae68c54ce",
          "blockNumber": "0x2036059",
          "transactionHash": "0x2f5b312ee069854d9d58ac1ee5f1dc2f05072ce84ba0c0bb1ec0db05b303486f",
          "transactionIndex": "0x10",
          "logIndex": "0x43",
          "removed": false
        },
        {
          "address": "0xdee98402a302e4d707fb9bf2bac66faeec31e8df",
          "topics": [
            "0xddf252ad1be2c89b69c2b068fc378daa952ba7f163c4a11628f55a4df523b3ef",
            "0x00000000000000000000000079242d2f9a923ab409413edced60f5155d5a8d1e",
            "0x0000000000000000000000000000000000000000000000000000000000000000"
          ],
          "data": "0x00000000000000000000000000000000000000000000000000000000000927c1",
          "blockHash": "0x06e96a0339a7a45c08b8afb907855b28d58cac3c5c912c7c6ed3278ae68c54ce",
          "blockNumber": "0x2036059",
          "transactionHash": "0x2f5b312ee069854d9d58ac1ee5f1dc2f05072ce84ba0c0bb1ec0db05b303486f",
          "transactionIndex": "0x10",
          "logIndex": "0x44",
          "removed": false
        },
        {
          "address": "0xdee98402a302e4d707fb9bf2bac66faeec31e8df",
          "topics": [
            "0x4cf25bc1d991c17529c25213d3cc0cda295eeaad5f13f361969b12ea48015f90",
            "0x00000000000000000000000079242d2f9a923ab409413edced60f5155d5a8d1e",
            "0x0000000000000000000000003a4db9e7306af09012ceb0f222d581fd1f0c6d71"
          ],
          "data": "0x00000000000000000000000000000000000000000000000000000000000927c100000000000000000000000000000000000000000000000000000000000000000000000000000000000000000000000000000000033b5f8e1f1a2acc589aa7eb",
          "blockHash": "0x06e96a0339a7a45c08b8afb907855b28d58cac3c5c912c7c6ed3278ae68c54ce",
          "blockNumber": "0x2036059",
          "transactionHash": "0x2f5b312ee069854d9d58ac1ee5f1dc2f05072ce84ba0c0bb1ec0db05b303486f",
          "transactionIndex": "0x10",
          "logIndex": "0x45",
          "removed": false
        },
        {
          "address": "0x48065fbbe25f71c9282ddf5e1cd6d6a887483d5e",
          "topics": [
            "0xddf252ad1be2c89b69c2b068fc378daa952ba7f163c4a11628f55a4df523b3ef",
            "0x000000000000000000000000dee98402a302e4d707fb9bf2bac66faeec31e8df",
            "0x0000000000000000000000003a4db9e7306af09012ceb0f222d581fd1f0c6d71"
          ],
          "data": "0x00000000000000000000000000000000000000000000000000000000000927c1",
          "blockHash": "0x06e96a0339a7a45c08b8afb907855b28d58cac3c5c912c7c6ed3278ae68c54ce",
          "blockNumber": "0x2036059",
          "transactionHash": "0x2f5b312ee069854d9d58ac1ee5f1dc2f05072ce84ba0c0bb1ec0db05b303486f",
          "transactionIndex": "0x10",
          "logIndex": "0x46",
          "removed": false
        },
        {
          "address": "0x3e59a31363e2ad014dcbc521c4a0d5757d9f3402",
          "topics": [
            "0x3115d1449a7b732c986cba18244e897a450f61e1bb8d589cd2e69e6c8924f9f7",
            "0x00000000000000000000000048065fbbe25f71c9282ddf5e1cd6d6a887483d5e",
            "0x00000000000000000000000079242d2f9a923ab409413edced60f5155d5a8d1e",
            "0x0000000000000000000000003a4db9e7306af09012ceb0f222d581fd1f0c6d71"
          ],
          "data": "0x00000000000000000000000000000000000000000000000000000000000927c1",
          "blockHash": "0x06e96a0339a7a45c08b8afb907855b28d58cac3c5c912c7c6ed3278ae68c54ce",
          "blockNumber": "0x2036059",
          "transactionHash": "0x2f5b312ee069854d9d58ac1ee5f1dc2f05072ce84ba0c0bb1ec0db05b303486f",
          "transactionIndex": "0x10",
          "logIndex": "0x47",
          "removed": false
        },
        {
          "address": "0x79242d2f9a923ab409413edced60f5155d5a8d1e",
          "topics": [
            "0xcefaf961c5013063cf501ffd9f9382e9b9c4b15741ad032fe93d7e9c7c733b22",
            "0x0000000000000000000000000000000000000000000000000000000000000004",
            "0x0000000000000000000000003a4db9e7306af09012ceb0f222d581fd1f0c6d71"
          ],
          "data": "0x",
          "blockHash": "0x06e96a0339a7a45c08b8afb907855b28d58cac3c5c912c7c6ed3278ae68c54ce",
          "blockNumber": "0x2036059",
          "transactionHash": "0x2f5b312ee069854d9d58ac1ee5f1dc2f05072ce84ba0c0bb1ec0db05b303486f",
          "transactionIndex": "0x10",
          "logIndex": "0x48",
          "removed": false
        }
      ],
      "logsBloom": "0x10002000000000010200120000400000009020000000000000000000080000000000000800000000000008000000400000110000c0000000000000000020000000100000800000088000000800020000000000000000000000000000000000000800000002000000000000000004080000000000000002004000001000000000000001000000000000000000000040000000000008000000220000000000000002000110008100000000004000000000100000000000000040200001000001000000000200008020000002a000000040000000008000001000000000000120040010100000004010000880000010000000000000000000000000000000040000",
      "type": "0x0",
      "transactionHash": "0x2f5b312ee069854d9d58ac1ee5f1dc2f05072ce84ba0c0bb1ec0db05b303486f",
      "transactionIndex": "0x10",
      "blockHash": "0x06e96a0339a7a45c08b8afb907855b28d58cac3c5c912c7c6ed3278ae68c54ce",
      "blockNumber": "0x2036059",
      "gasUsed": "0x67768",
      "effectiveGasPrice": "0x5d22cfc40",
      "from": "0x3a4db9e7306af09012ceb0f222d581fd1f0c6d71",
      "to": "0x79242d2f9a923ab409413edced60f5155d5a8d1e",
      "contractAddress": null,
      "l1BaseFeeScalar": "0x0",
      "l1BlobBaseFee": "0x10ab88edf",
      "l1BlobBaseFeeScalar": "0x0",
      "l1Fee": "0x0",
      "l1GasPrice": "0x31593674",
      "l1GasUsed": "0x640"
    }
  ],
  "libraries": [],
  "pending": [],
  "returns": {},
  "timestamp": 1745676464,
  "chain": 42220,
  "commit": "1cefd9d"
}