{
  "transactions": [
    {
      "hash": "0x15523bf11a705f17a7552165aed114d169ab5c5e0b210c41593871a90627be15",
      "transactionType": "CALL",
      "contractName": null,
      "contractAddress": "0x48065fbbe25f71c9282ddf5e1cd6d6a887483d5e",
      "function": "approve(address,uint256)",
      "arguments": [
        "0xc2a61494430F6a99d5f024Ab6E76b1633c7c13c0",
        "500000"
      ],
      "transaction": {
        "from": "0x3a4db9e7306af09012ceb0f222d581fd1f0c6d71",
        "to": "0x48065fbbe25f71c9282ddf5e1cd6d6a887483d5e",
        "gas": "0x1201c",
        "value": "0x0",
        "input": "0x095ea7b3000000000000000000000000c2a61494430f6a99d5f024ab6e76b1633c7c13c0000000000000000000000000000000000000000000000000000000000007a120",
        "nonce": "0x80",
        "chainId": "0xa4ec"
      },
      "additionalContracts": [],
      "isFixedGasLimit": false
    },
    {
      "hash": "0x124598b54c4bbecf4dedf77e785e99038b8d88730385532508347478938ac4c6",
      "transactionType": "CALL",
      "contractName": null,
      "contractAddress": "0xc2a61494430f6a99d5f024ab6e76b1633c7c13c0",
      "function": "createPosition(address,uint256,address,uint256,uint256)",
      "arguments": [
        "0x48065fbBE25f71C9282ddf5e1cD6D6A887483D5e",
        "500000",
        "0xcebA9300f2b948710d2653dD7B07f33A8B32118C",
        "250000",
        "2"
      ],
      "transaction": {
        "from": "0x3a4db9e7306af09012ceb0f222d581fd1f0c6d71",
        "to": "0xc2a61494430f6a99d5f024ab6e76b1633c7c13c0",
        "gas": "0xe4794",
        "value": "0x0",
        "input": "0xb0c3d5df00000000000000000000000048065fbbe25f71c9282ddf5e1cd6d6a887483d5e000000000000000000000000000000000000000000000000000000000007a120000000000000000000000000ceba9300f2b948710d2653dd7b07f33a8b32118c000000000000000000000000000000000000000000000000000000000003d0900000000000000000000000000000000000000000000000000000000000000002",
        "nonce": "0x81",
        "chainId": "0xa4ec"
      },
      "additionalContracts": [],
      "isFixedGasLimit": false
    },
    {
      "hash": "0x84c3f5019161ea6865f55931c4a263e89fe49ba0ab9d8cbc782ebe4791190a00",
      "transactionType": "CALL",
      "contractName": null,
      "contractAddress": "0xc2a61494430f6a99d5f024ab6e76b1633c7c13c0",
      "function": "increaseBorrow(uint256,uint256)",
      "arguments": [
        "5",
        "125000"
      ],
      "transaction": {
        "from": "0x3a4db9e7306af09012ceb0f222d581fd1f0c6d71",
        "to": "0xc2a61494430f6a99d5f024ab6e76b1633c7c13c0",
        "gas": "0x780a8",
        "value": "0x0",
        "input": "0x9e6824d90000000000000000000000000000000000000000000000000000000000000005000000000000000000000000000000000000000000000000000000000001e848",
        "nonce": "0x82",
        "chainId": "0xa4ec"
      },
      "additionalContracts": [],
      "isFixedGasLimit": false
    },
    {
      "hash": "0x129ddc15e736d7a7ab2e79ff3a68c604c36690b1f6d0ed05b2c1e70d0476b751",
      "transactionType": "CALL",
      "contractName": null,
      "contractAddress": "0xc2a61494430f6a99d5f024ab6e76b1633c7c13c0",
      "function": "repayDebtWithPermit(uint256,uint256,uint256,uint8,bytes32,bytes32)",
      "arguments": [
        "5",
        "187500",
        "1745689848",
        "27",
        "0xd98282788bcdab38ea5019be0064ba5b124f96f64a94d08b954897f7e4ed962c",
        "0x7fc21598b9d1595472b7a6419398d250760331466e28d0303d8052feb20f5f69"
      ],
      "transaction": {
        "from": "0x3a4db9e7306af09012ceb0f222d581fd1f0c6d71",
        "to": "0xc2a61494430f6a99d5f024ab6e76b1633c7c13c0",
        "gas": "0x4e648",
        "value": "0x0",
        "input": "0xc9a7906a0000000000000000000000000000000000000000000000000000000000000005000000000000000000000000000000000000000000000000000000000002dc6c00000000000000000000000000000000000000000000000000000000680d1cf8000000000000000000000000000000000000000000000000000000000000001bd98282788bcdab38ea5019be0064ba5b124f96f64a94d08b954897f7e4ed962c7fc21598b9d1595472b7a6419398d250760331466e28d0303d8052feb20f5f69",
        "nonce": "0x83",
        "chainId": "0xa4ec"
      },
      "additionalContracts": [],
      "isFixedGasLimit": false
    }
  ],
  "receipts": [
    {
      "status": "0x1",
      "cumulativeGasUsed": "0x1380b9",
      "logs": [
        {
          "address": "0x48065fbbe25f71c9282ddf5e1cd6d6a887483d5e",
          "topics": [
            "0x8c5be1e5ebec7d5bd14f71427d1e84f3dd0314c0f7b2291e5b200ac8c7c3b925",
            "0x0000000000000000000000003a4db9e7306af09012ceb0f222d581fd1f0c6d71",
            "0x000000000000000000000000c2a61494430f6a99d5f024ab6e76b1633c7c13c0"
          ],
          "data": "0x000000000000000000000000000000000000000000000000000000000007a120",
          "blockHash": "0x577ec3eb158e15214e9b5cbdf89403f6cf91a5e2ae8114ab29bccd75aa0c5f7e",
          "blockNumber": "0x20386c9",
          "transactionHash": "0x15523bf11a705f17a7552165aed114d169ab5c5e0b210c41593871a90627be15",
          "transactionIndex": "0x6",
          "logIndex": "0x1a",
          "removed": false
        }
      ],
      "logsBloom": "0x00000000000000000000000000000000000000000000000000000000000000000000000000000000000000000000000000000000000000000000000000200000000000000000000000000000000000000000000000000000000000000000000000000000000000000000000000000000000000000000000040000000000000000000010000000000000000000000400000000000000000000000000000000000020000000000000000000000000000000000000000000000000000000000000000000000000080000000008000000000020000000000001000000000000000000010000000000000001000000000000000000000000000000000000000800000",
      "type": "0x0",
      "transactionHash": "0x15523bf11a705f17a7552165aed114d169ab5c5e0b210c41593871a90627be15",
      "transactionIndex": "0x6",
      "blockHash": "0x577ec3eb158e15214e9b5cbdf89403f6cf91a5e2ae8114ab29bccd75aa0c5f7e",
      "blockNumber": "0x20386c9",
      "gasUsed": "0xd097",
      "effectiveGasPrice": "0x5d22cfc40",
      "from": "0x3a4db9e7306af09012ceb0f222d581fd1f0c6d71",
      "to": "0x48065fbbe25f71c9282ddf5e1cd6d6a887483d5e",
      "contractAddress": null,
      "l1BaseFeeScalar": "0x0",
      "l1BlobBaseFee": "0x167ba504",
      "l1BlobBaseFeeScalar": "0x0",
      "l1Fee": "0x0",
      "l1GasPrice": "0x295cd144",
      "l1GasUsed": "0x640"
    },
    {
      "status": "0x1",
      "cumulativeGasUsed": "0x1d4444",
      "logs": [
        {
          "address": "0x48065fbbe25f71c9282ddf5e1cd6d6a887483d5e",
          "topics": [
            "0xddf252ad1be2c89b69c2b068fc378daa952ba7f163c4a11628f55a4df523b3ef",
            "0x0000000000000000000000003a4db9e7306af09012ceb0f222d581fd1f0c6d71",
            "0x000000000000000000000000c2a61494430f6a99d5f024ab6e76b1633c7c13c0"
          ],
          "data": "0x000000000000000000000000000000000000000000000000000000000007a120",
          "blockHash": "0x577ec3eb158e15214e9b5cbdf89403f6cf91a5e2ae8114ab29bccd75aa0c5f7e",
          "blockNumber": "0x20386c9",
          "transactionHash": "0x124598b54c4bbecf4dedf77e785e99038b8d88730385532508347478938ac4c6",
          "transactionIndex": "0x7",
          "logIndex": "0x1b",
          "removed": false
        },
        {
          "address": "0x48065fbbe25f71c9282ddf5e1cd6d6a887483d5e",
          "topics": [
            "0x8c5be1e5ebec7d5bd14f71427d1e84f3dd0314c0f7b2291e5b200ac8c7c3b925",
            "0x0000000000000000000000003a4db9e7306af09012ceb0f222d581fd1f0c6d71",
            "0x000000000000000000000000c2a61494430f6a99d5f024ab6e76b1633c7c13c0"
          ],
          "data": "0x0000000000000000000000000000000000000000000000000000000000000000",
          "blockHash": "0x577ec3eb158e15214e9b5cbdf89403f6cf91a5e2ae8114ab29bccd75aa0c5f7e",
          "blockNumber": "0x20386c9",
          "transactionHash": "0x124598b54c4bbecf4dedf77e785e99038b8d88730385532508347478938ac4c6",
          "transactionIndex": "0x7",
          "logIndex": "0x1c",
          "removed": false
        },
        {
          "address": "0x48065fbbe25f71c9282ddf5e1cd6d6a887483d5e",
          "topics": [
            "0x8c5be1e5ebec7d5bd14f71427d1e84f3dd0314c0f7b2291e5b200ac8c7c3b925",
            "0x000000000000000000000000c2a61494430f6a99d5f024ab6e76b1633c7c13c0",
            "0x0000000000000000000000003e59a31363e2ad014dcbc521c4a0d5757d9f3402"
          ],
          "data": "0x000000000000000000000000000000000000000000000000000000000007a120",
          "blockHash": "0x577ec3eb158e15214e9b5cbdf89403f6cf91a5e2ae8114ab29bccd75aa0c5f7e",
          "blockNumber": "0x20386c9",
          "transactionHash": "0x124598b54c4bbecf4dedf77e785e99038b8d88730385532508347478938ac4c6",
          "transactionIndex": "0x7",
          "logIndex": "0x1d",
          "removed": false
        },
        {
          "address": "0x3e59a31363e2ad014dcbc521c4a0d5757d9f3402",
          "topics": [
            "0x804c9b842b2748a22bb64b345453a3de7ca54a6ca45ce00d415894979e22897a",
            "0x00000000000000000000000048065fbbe25f71c9282ddf5e1cd6d6a887483d5e"
          ],
          "data": "0x00000000000000000000000000000000000000000000000b15ebd897bf7351190000000000000000000000000000000000000000000000000000000000000000000000000000000000000000000000000000000000001c268a6599e57e62cbe40000000000000000000000000000000000000000033b5f8e1ffce88776a8d5ca0000000000000000000000000000000000000000033bcca0773e4b441e2d5d70",
          "blockHash": "0x577ec3eb158e15214e9b5cbdf89403f6cf91a5e2ae8114ab29bccd75aa0c5f7e",
          "blockNumber": "0x20386c9",
          "transactionHash": "0x124598b54c4bbecf4dedf77e785e99038b8d88730385532508347478938ac4c6",
          "transactionIndex": "0x7",
          "logIndex": "0x1e",
          "removed": false
        },
        {
          "address": "0x48065fbbe25f71c9282ddf5e1cd6d6a887483d5e",
          "topics": [
            "0xddf252ad1be2c89b69c2b068fc378daa952ba7f163c4a11628f55a4df523b3ef",
            "0x000000000000000000000000c2a61494430f6a99d5f024ab6e76b1633c7c13c0",
            "0x000000000000000000000000dee98402a302e4d707fb9bf2bac66faeec31e8df"
          ],
          "data": "0x000000000000000000000000000000000000000000000000000000000007a120",
          "blockHash": "0x577ec3eb158e15214e9b5cbdf89403f6cf91a5e2ae8114ab29bccd75aa0c5f7e",
          "blockNumber": "0x20386c9",
          "transactionHash": "0x124598b54c4bbecf4dedf77e785e99038b8d88730385532508347478938ac4c6",
          "transactionIndex": "0x7",
          "logIndex": "0x1f",
          "removed": false
        },
        {
          "address": "0x48065fbbe25f71c9282ddf5e1cd6d6a887483d5e",
          "topics": [
            "0x8c5be1e5ebec7d5bd14f71427d1e84f3dd0314c0f7b2291e5b200ac8c7c3b925",
            "0x000000000000000000000000c2a61494430f6a99d5f024ab6e76b1633c7c13c0",
            "0x0000000000000000000000003e59a31363e2ad014dcbc521c4a0d5757d9f3402"
          ],
          "data": "0x0000000000000000000000000000000000000000000000000000000000000000",
          "blockHash": "0x577ec3eb158e15214e9b5cbdf89403f6cf91a5e2ae8114ab29bccd75aa0c5f7e",
          "blockNumber": "0x20386c9",
          "transactionHash": "0x124598b54c4bbecf4dedf77e785e99038b8d88730385532508347478938ac4c6",
          "transactionIndex": "0x7",
          "logIndex": "0x20",
          "removed": false
        },
        {
          "address": "0xdee98402a302e4d707fb9bf2bac66faeec31e8df",
          "topics": [
            "0xddf252ad1be2c89b69c2b068fc378daa952ba7f163c4a11628f55a4df523b3ef",
            "0x0000000000000000000000000000000000000000000000000000000000000000",
            "0x000000000000000000000000c2a61494430f6a99d5f024ab6e76b1633c7c13c0"
          ],
          "data": "0x000000000000000000000000000000000000000000000000000000000007a120",
          "blockHash": "0x577ec3eb158e15214e9b5cbdf89403f6cf91a5e2ae8114ab29bccd75aa0c5f7e",
          "blockNumber": "0x20386c9",
          "transactionHash": "0x124598b54c4bbecf4dedf77e785e99038b8d88730385532508347478938ac4c6",
          "transactionIndex": "0x7",
          "logIndex": "0x21",
          "removed": false
        },
        {
          "address": "0xdee98402a302e4d707fb9bf2bac66faeec31e8df",
          "topics": [
            "0x458f5fa412d0f69b08dd84872b0215675cc67bc1d5b6fd93300a1c3878b86196",
            "0x000000000000000000000000c2a61494430f6a99d5f024ab6e76b1633c7c13c0",
            "0x000000000000000000000000c2a61494430f6a99d5f024ab6e76b1633c7c13c0"
          ],
          "data": "0x000000000000000000000000000000000000000000000000000000000007a12000000000000000000000000000000000000000000000000000000000000000000000000000000000000000000000000000000000033b5f8e1ffce88776a8d5ca",
          "blockHash": "0x577ec3eb158e15214e9b5cbdf89403f6cf91a5e2ae8114ab29bccd75aa0c5f7e",
          "blockNumber": "0x20386c9",
          "transactionHash": "0x124598b54c4bbecf4dedf77e785e99038b8d88730385532508347478938ac4c6",
          "transactionIndex": "0x7",
          "logIndex": "0x22",
          "removed": false
        },
        {
          "address": "0x3e59a31363e2ad014dcbc521c4a0d5757d9f3402",
          "topics": [
            "0x2b627736bca15cd5381dcf80b0bf11fd197d01a037c52b927a881a10fb73ba61",
            "0x00000000000000000000000048065fbbe25f71c9282ddf5e1cd6d6a887483d5e",
            "0x000000000000000000000000c2a61494430f6a99d5f024ab6e76b1633c7c13c0",
            "0x0000000000000000000000000000000000000000000000000000000000000000"
          ],
          "data": "0x000000000000000000000000c2a61494430f6a99d5f024ab6e76b1633c7c13c0000000000000000000000000000000000000000000000000000000000007a120",
          "blockHash": "0x577ec3eb158e15214e9b5cbdf89403f6cf91a5e2ae8114ab29bccd75aa0c5f7e",
          "blockNumber": "0x20386c9",
          "transactionHash": "0x124598b54c4bbecf4dedf77e785e99038b8d88730385532508347478938ac4c6",
          "transactionIndex": "0x7",
          "logIndex": "0x23",
          "removed": false
        },
        {
          "address": "0xdbe517c0fa6467873b684eccbed77217e471e862",
          "topics": [
            "0xddf252ad1be2c89b69c2b068fc378daa952ba7f163c4a11628f55a4df523b3ef",
            "0x0000000000000000000000000000000000000000000000000000000000000000",
            "0x000000000000000000000000c2a61494430f6a99d5f024ab6e76b1633c7c13c0"
          ],
          "data": "0x000000000000000000000000000000000000000000000000000000000003d090",
          "blockHash": "0x577ec3eb158e15214e9b5cbdf89403f6cf91a5e2ae8114ab29bccd75aa0c5f7e",
          "blockNumber": "0x20386c9",
          "transactionHash": "0x124598b54c4bbecf4dedf77e785e99038b8d88730385532508347478938ac4c6",
          "transactionIndex": "0x7",
          "logIndex": "0x24",
          "removed": false
        },
        {
          "address": "0xdbe517c0fa6467873b684eccbed77217e471e862",
          "topics": [
            "0x458f5fa412d0f69b08dd84872b0215675cc67bc1d5b6fd93300a1c3878b86196",
            "0x000000000000000000000000c2a61494430f6a99d5f024ab6e76b1633c7c13c0",
            "0x000000000000000000000000c2a61494430f6a99d5f024ab6e76b1633c7c13c0"
          ],
          "data": "0x000000000000000000000000000000000000000000000000000000000003d09000000000000000000000000000000000000000000000000000000000000000000000000000000000000000000000000000000000033c4f649930e54a9d6bc6d3",
          "blockHash": "0x577ec3eb158e15214e9b5cbdf89403f6cf91a5e2ae8114ab29bccd75aa0c5f7e",
          "blockNumber": "0x20386c9",
          "transactionHash": "0x124598b54c4bbecf4dedf77e785e99038b8d88730385532508347478938ac4c6",
          "transactionIndex": "0x7",
          "logIndex": "0x25",
          "removed": false
        },
        {
          "address": "0x3e59a31363e2ad014dcbc521c4a0d5757d9f3402",
          "topics": [
            "0x804c9b842b2748a22bb64b345453a3de7ca54a6ca45ce00d415894979e22897a",
            "0x000000000000000000000000ceba9300f2b948710d2653dd7b07f33a8b32118c"
          ],
          "data": "0x00000000000000000000000000000000000000000000d50c4163ba832b76061e000000000000000000000000000000000000000000000000000000000000000000000000000000000000000000000000000000000007b689765213aefd9834a30000000000000000000000000000000000000000033b68c400672e5d33d686af0000000000000000000000000000000000000000033c4f649930e54a9d6bc6d3",
          "blockHash": "0x577ec3eb158e15214e9b5cbdf89403f6cf91a5e2ae8114ab29bccd75aa0c5f7e",
          "blockNumber": "0x20386c9",
          "transactionHash": "0x124598b54c4bbecf4dedf77e785e99038b8d88730385532508347478938ac4c6",
          "transactionIndex": "0x7",
          "logIndex": "0x26",
          "removed": false
        },
        {
          "address": "0xceba9300f2b948710d2653dd7b07f33a8b32118c",
          "topics": [
            "0xddf252ad1be2c89b69c2b068fc378daa952ba7f163c4a11628f55a4df523b3ef",
            "0x000000000000000000000000ff8309b9e99bfd2d4021bc71a362abd93dbd4785",
            "0x000000000000000000000000c2a61494430f6a99d5f024ab6e76b1633c7c13c0"
          ],
          "data": "0x000000000000000000000000000000000000000000000000000000000003d090",
          "blockHash": "0x577ec3eb158e15214e9b5cbdf89403f6cf91a5e2ae8114ab29bccd75aa0c5f7e",
          "blockNumber": "0x20386c9",
          "transactionHash": "0x124598b54c4bbecf4dedf77e785e99038b8d88730385532508347478938ac4c6",
          "transactionIndex": "0x7",
          "logIndex": "0x27",
          "removed": false
        },
        {
          "address": "0x3e59a31363e2ad014dcbc521c4a0d5757d9f3402",
          "topics": [
            "0xb3d084820fb1a9decffb176436bd02558d15fac9b0ddfed8c465bc7359d7dce0",
            "0x000000000000000000000000ceba9300f2b948710d2653dd7b07f33a8b32118c",
            "0x000000000000000000000000c2a61494430f6a99d5f024ab6e76b1633c7c13c0",
            "0x0000000000000000000000000000000000000000000000000000000000000000"
          ],
          "data": "0x000000000000000000000000c2a61494430f6a99d5f024ab6e76b1633c7c13c0000000000000000000000000000000000000000000000000000000000003d090000000000000000000000000000000000000000000000000000000000000000200000000000000000000000000000000000000000007b689765213aefd9834a3",
          "blockHash": "0x577ec3eb158e15214e9b5cbdf89403f6cf91a5e2ae8114ab29bccd75aa0c5f7e",
          "blockNumber": "0x20386c9",
          "transactionHash": "0x124598b54c4bbecf4dedf77e785e99038b8d88730385532508347478938ac4c6",
          "transactionIndex": "0x7",
          "logIndex": "0x28",
          "removed": false
        },
        {
          "address": "0xceba9300f2b948710d2653dd7b07f33a8b32118c",
          "topics": [
            "0xddf252ad1be2c89b69c2b068fc378daa952ba7f163c4a11628f55a4df523b3ef",
            "0x000000000000000000000000c2a61494430f6a99d5f024ab6e76b1633c7c13c0",
            "0x0000000000000000000000003a4db9e7306af09012ceb0f222d581fd1f0c6d71"
          ],
          "data": "0x000000000000000000000000000000000000000000000000000000000003d090",
          "blockHash": "0x577ec3eb158e15214e9b5cbdf89403f6cf91a5e2ae8114ab29bccd75aa0c5f7e",
          "blockNumber": "0x20386c9",
          "transactionHash": "0x124598b54c4bbecf4dedf77e785e99038b8d88730385532508347478938ac4c6",
          "transactionIndex": "0x7",
          "logIndex": "0x29",
          "removed": false
        },
        {
          "address": "0xc2a61494430f6a99d5f024ab6e76b1633c7c13c0",
          "topics": [
            "0x9f9b498443531d2db9df8a00ec466efc74ba50ec1d82f7badd3424b87930e19a",
            "0x0000000000000000000000000000000000000000000000000000000000000005",
            "0x0000000000000000000000003a4db9e7306af09012ceb0f222d581fd1f0c6d71"
          ],
          "data": "0x00000000000000000000000048065fbbe25f71c9282ddf5e1cd6d6a887483d5e000000000000000000000000000000000000000000000000000000000007a120000000000000000000000000ceba9300f2b948710d2653dd7b07f33a8b32118c000000000000000000000000000000000000000000000000000000000003d0900000000000000000000000000000000000000000000000000000000000000002",
          "blockHash": "0x577ec3eb158e15214e9b5cbdf89403f6cf91a5e2ae8114ab29bccd75aa0c5f7e",
          "blockNumber": "0x20386c9",
          "transactionHash": "0x124598b54c4bbecf4dedf77e785e99038b8d88730385532508347478938ac4c6",
          "transactionIndex": "0x7",
          "logIndex": "0x2a",
          "removed": false
        }
      ],
      "logsBloom": "0x0000000000000001020012000040000000100000000000000000000000000000000000080000000000002000000440000010000080000000000000000020000000001000800000080000000840000000000000000004000000000004000000000000000002000000000000020000080000000002000000004000001000000000000001000000000000000000000040100000080000000000220000000000000002000110000100000000004000000000100000000000000040000000000001000200000200008120000002a040000040020000000000041000020000000120000010000000004010001800000001000040000000000000000000400000800000",
      "type": "0x0",
      "transactionHash": "0x124598b54c4bbecf4dedf77e785e99038b8d88730385532508347478938ac4c6",
      "transactionIndex": "0x7",
      "blockHash": "0x577ec3eb158e15214e9b5cbdf89403f6cf91a5e2ae8114ab29bccd75aa0c5f7e",
      "blockNumber": "0x20386c9",
      "gasUsed": "0x9c38b",
      "effectiveGasPrice": "0x5d22cfc40",
      "from": "0x3a4db9e7306af09012ceb0f222d581fd1f0c6d71",
      "to": "0xc2a61494430f6a99d5f024ab6e76b1633c7c13c0",
      "contractAddress": null,
      "l1BaseFeeScalar": "0x0",
      "l1BlobBaseFee": "0x167ba504",
      "l1BlobBaseFeeScalar": "0x0",
      "l1Fee": "0x0",
      "l1GasPrice": "0x295cd144",
      "l1GasUsed": "0x77b"
    },
    {
      "status": "0x1",
      "cumulativeGasUsed": "0x10b5e5",
      "logs": [
        {
          "address": "0xdbe517c0fa6467873b684eccbed77217e471e862",
          "topics": [
            "0xddf252ad1be2c89b69c2b068fc378daa952ba7f163c4a11628f55a4df523b3ef",
            "0x0000000000000000000000000000000000000000000000000000000000000000",
            "0x000000000000000000000000c2a61494430f6a99d5f024ab6e76b1633c7c13c0"
          ],
          "data": "0x000000000000000000000000000000000000000000000000000000000001e848",
          "blockHash": "0x7d3da474f92e868815012b408bc0e969f779b677ff128b457049e598d3070a5d",
          "blockNumber": "0x20386ca",
          "transactionHash": "0x84c3f5019161ea6865f55931c4a263e89fe49ba0ab9d8cbc782ebe4791190a00",
          "transactionIndex": "0x6",
          "logIndex": "0xb",
          "removed": false
        },
        {
          "address": "0xdbe517c0fa6467873b684eccbed77217e471e862",
          "topics": [
            "0x458f5fa412d0f69b08dd84872b0215675cc67bc1d5b6fd93300a1c3878b86196",
            "0x000000000000000000000000c2a61494430f6a99d5f024ab6e76b1633c7c13c0",
            "0x000000000000000000000000c2a61494430f6a99d5f024ab6e76b1633c7c13c0"
          ],
          "data": "0x000000000000000000000000000000000000000000000000000000000001e84800000000000000000000000000000000000000000000000000000000000000000000000000000000000000000000000000000000033c4f649d4cc9a973f1dcac",
          "blockHash": "0x7d3da474f92e868815012b408bc0e969f779b677ff128b457049e598d3070a5d",
          "blockNumber": "0x20386ca",
          "transactionHash": "0x84c3f5019161ea6865f55931c4a263e89fe49ba0ab9d8cbc782ebe4791190a00",
          "transactionIndex": "0x6",
          "logIndex": "0xc",
          "removed": false
        },
        {
          "address": "0x3e59a31363e2ad014dcbc521c4a0d5757d9f3402",
          "topics": [
            "0x804c9b842b2748a22bb64b345453a3de7ca54a6ca45ce00d415894979e22897a",
            "0x000000000000000000000000ceba9300f2b948710d2653dd7b07f33a8b32118c"
          ],
          "data": "0x00000000000000000000000000000000000000000000d50c6431413d285829c2000000000000000000000000000000000000000000000000000000000000000000000000000000000000000000000000000000000007b68a1798fd69f28f7a920000000000000000000000000000000000000000033b68c400d88de90e8a03e70000000000000000000000000000000000000000033c4f649d4cc9a973f1dcac",
          "blockHash": "0x7d3da474f92e868815012b408bc0e969f779b677ff128b457049e598d3070a5d",
          "blockNumber": "0x20386ca",
          "transactionHash": "0x84c3f5019161ea6865f55931c4a263e89fe49ba0ab9d8cbc782ebe4791190a00",
          "transactionIndex": "0x6",
          "logIndex": "0xd",
          "removed": false
        },
        {
          "address": "0xceba9300f2b948710d2653dd7b07f33a8b32118c",
          "topics": [
            "0xddf252ad1be2c89b69c2b068fc378daa952ba7f163c4a11628f55a4df523b3ef",
            "0x000000000000000000000000ff8309b9e99bfd2d4021bc71a362abd93dbd4785",
            "0x000000000000000000000000c2a61494430f6a99d5f024ab6e76b1633c7c13c0"
          ],
          "data": "0x000000000000000000000000000000000000000000000000000000000001e848",
          "blockHash": "0x7d3da474f92e868815012b408bc0e969f779b677ff128b457049e598d3070a5d",
          "blockNumber": "0x20386ca",
          "transactionHash": "0x84c3f5019161ea6865f55931c4a263e89fe49ba0ab9d8cbc782ebe4791190a00",
          "transactionIndex": "0x6",
          "logIndex": "0xe",
          "removed": false
        },
        {
          "address": "0x3e59a31363e2ad014dcbc521c4a0d5757d9f3402",
          "topics": [
            "0xb3d084820fb1a9decffb176436bd02558d15fac9b0ddfed8c465bc7359d7dce0",
            "0x000000000000000000000000ceba9300f2b948710d2653dd7b07f33a8b32118c",
            "0x000000000000000000000000c2a61494430f6a99d5f024ab6e76b1633c7c13c0",
            "0x0000000000000000000000000000000000000000000000000000000000000000"
          ],
          "data": "0x000000000000000000000000c2a61494430f6a99d5f024ab6e76b1633c7c13c0000000000000000000000000000000000000000000000000000000000001e848000000000000000000000000000000000000000000000000000000000000000200000000000000000000000000000000000000000007b68a1798fd69f28f7a92",
          "blockHash": "0x7d3da474f92e868815012b408bc0e969f779b677ff128b457049e598d3070a5d",
          "blockNumber": "0x20386ca",
          "transactionHash": "0x84c3f5019161ea6865f55931c4a263e89fe49ba0ab9d8cbc782ebe4791190a00",
          "transactionIndex": "0x6",
          "logIndex": "0xf",
          "removed": false
        },
        {
          "address": "0xceba9300f2b948710d2653dd7b07f33a8b32118c",
          "topics": [
            "0xddf252ad1be2c89b69c2b068fc378daa952ba7f163c4a11628f55a4df523b3ef",
            "0x000000000000000000000000c2a61494430f6a99d5f024ab6e76b1633c7c13c0",
            "0x0000000000000000000000003a4db9e7306af09012ceb0f222d581fd1f0c6d71"
          ],
          "data": "0x000000000000000000000000000000000000000000000000000000000001e848",
          "blockHash": "0x7d3da474f92e868815012b408bc0e969f779b677ff128b457049e598d3070a5d",
          "blockNumber": "0x20386ca",
          "transactionHash": "0x84c3f5019161ea6865f55931c4a263e89fe49ba0ab9d8cbc782ebe4791190a00",
          "transactionIndex": "0x6",
          "logIndex": "0x10",
          "removed": false
        },
        {
          "address": "0xc2a61494430f6a99d5f024ab6e76b1633c7c13c0",
          "topics": [
            "0xf3a2c404b3362c4238317c3dad1020c2e9e984ba8df38a4a1ff18d57e92a242a",
            "0x0000000000000000000000000000000000000000000000000000000000000005"
          ],
          "data": "0x000000000000000000000000000000000000000000000000000000000001e848",
          "blockHash": "0x7d3da474f92e868815012b408bc0e969f779b677ff128b457049e598d3070a5d",
          "blockNumber": "0x20386ca",
          "transactionHash": "0x84c3f5019161ea6865f55931c4a263e89fe49ba0ab9d8cbc782ebe4791190a00",
          "transactionIndex": "0x6",
          "logIndex": "0x11",
          "removed": false
        }
      ],
      "logsBloom": "0x00000000000000000000100000400000000000000000000000000000000000000000000000000000000000000004400000100000800000000000000000000000000010008000000000000008400000000000000000040000000000040000000000000000020000000000000200000800000000000000000000000010000000000000000000000010000000000000401000000800000000002200000000000000000001000000000000000000000000000000000000000000400000000000010002000002000081200000022000000000020000400000041000000000000020000000000000004010001800000001000000000000000000000800000000800000",
      "type": "0x0",
      "transactionHash": "0x84c3f5019161ea6865f55931c4a263e89fe49ba0ab9d8cbc782ebe4791190a00",
      "transactionIndex": "0x6",
      "blockHash": "0x7d3da474f92e868815012b408bc0e969f779b677ff128b457049e598d3070a5d",
      "blockNumber": "0x20386ca",
      "gasUsed": "0x5a1b1",
      "effectiveGasPrice": "0x5d22cfc40",
      "from": "0x3a4db9e7306af09012ceb0f222d581fd1f0c6d71",
      "to": "0xc2a61494430f6a99d5f024ab6e76b1633c7c13c0",
      "contractAddress": null,
      "l1BaseFeeScalar": "0x0",
      "l1BlobBaseFee": "0x167ba504",
      "l1BlobBaseFeeScalar": "0x0",
      "l1Fee": "0x0",
      "l1GasPrice": "0x295cd144",
      "l1GasUsed": "0x640"
    },
    {
      "status": "0x1",
      "cumulativeGasUsed": "0xac671",
      "logs": [
        {
          "address": "0xceba9300f2b948710d2653dd7b07f33a8b32118c",
          "topics": [
            "0x8c5be1e5ebec7d5bd14f71427d1e84f3dd0314c0f7b2291e5b200ac8c7c3b925",
            "0x0000000000000000000000003a4db9e7306af09012ceb0f222d581fd1f0c6d71",
            "0x000000000000000000000000c2a61494430f6a99d5f024ab6e76b1633c7c13c0"
          ],
          "data": "0x000000000000000000000000000000000000000000000000000000000002dc6c",
          "blockHash": "0x6ab4e56900e1e17c6c69516cbe783afbacf087a086e733473230f9802a2a1b97",
          "blockNumber": "0x20386cb",
          "transactionHash": "0x129ddc15e736d7a7ab2e79ff3a68c604c36690b1f6d0ed05b2c1e70d0476b751",
          "transactionIndex": "0x4",
          "logIndex": "0x7",
          "removed": false
        },
        {
          "address": "0xceba9300f2b948710d2653dd7b07f33a8b32118c",
          "topics": [
            "0xddf252ad1be2c89b69c2b068fc378daa952ba7f163c4a11628f55a4df523b3ef",
            "0x0000000000000000000000003a4db9e7306af09012ceb0f222d581fd1f0c6d71",
            "0x000000000000000000000000c2a61494430f6a99d5f024ab6e76b1633c7c13c0"
          ],
          "data": "0x000000000000000000000000000000000000000000000000000000000002dc6c",
          "blockHash": "0x6ab4e56900e1e17c6c69516cbe783afbacf087a086e733473230f9802a2a1b97",
          "blockNumber": "0x20386cb",
          "transactionHash": "0x129ddc15e736d7a7ab2e79ff3a68c604c36690b1f6d0ed05b2c1e70d0476b751",
          "transactionIndex": "0x4",
          "logIndex": "0x8",
          "removed": false
        },
        {
          "address": "0xceba9300f2b948710d2653dd7b07f33a8b32118c",
          "topics": [
            "0x8c5be1e5ebec7d5bd14f71427d1e84f3dd0314c0f7b2291e5b200ac8c7c3b925",
            "0x000000000000000000000000c2a61494430f6a99d5f024ab6e76b1633c7c13c0",
            "0x0000000000000000000000003e59a31363e2ad014dcbc521c4a0d5757d9f3402"
          ],
          "data": "0x000000000000000000000000000000000000000000000000000000000002dc6c",
          "blockHash": "0x6ab4e56900e1e17c6c69516cbe783afbacf087a086e733473230f9802a2a1b97",
          "blockNumber": "0x20386cb",
          "transactionHash": "0x129ddc15e736d7a7ab2e79ff3a68c604c36690b1f6d0ed05b2c1e70d0476b751",
          "transactionIndex": "0x4",
          "logIndex": "0x9",
          "removed": false
        },
        {
          "address": "0xdbe517c0fa6467873b684eccbed77217e471e862",
          "topics": [
            "0xddf252ad1be2c89b69c2b068fc378daa952ba7f163c4a11628f55a4df523b3ef",
            "0x000000000000000000000000c2a61494430f6a99d5f024ab6e76b1633c7c13c0",
            "0x0000000000000000000000000000000000000000000000000000000000000000"
          ],
          "data": "0x000000000000000000000000000000000000000000000000000000000002dc6c",
          "blockHash": "0x6ab4e56900e1e17c6c69516cbe783afbacf087a086e733473230f9802a2a1b97",
          "blockNumber": "0x20386cb",
          "transactionHash": "0x129ddc15e736d7a7ab2e79ff3a68c604c36690b1f6d0ed05b2c1e70d0476b751",
          "transactionIndex": "0x4",
          "logIndex": "0xa",
          "removed": false
        },
        {
          "address": "0xdbe517c0fa6467873b684eccbed77217e471e862",
          "topics": [
            "0x4cf25bc1d991c17529c25213d3cc0cda295eeaad5f13f361969b12ea48015f90",
            "0x000000000000000000000000c2a61494430f6a99d5f024ab6e76b1633c7c13c0",
            "0x0000000000000000000000000000000000000000000000000000000000000000"
          ],
          "data": "0x000000000000000000000000000000000000000000000000000000000002dc6c00000000000000000000000000000000000000000000000000000000000000000000000000000000000000000000000000000000033c4f64a168ae5e3a66a6a9",
          "blockHash": "0x6ab4e56900e1e17c6c69516cbe783afbacf087a086e733473230f9802a2a1b97",
          "blockNumber": "0x20386cb",
          "transactionHash": "0x129ddc15e736d7a7ab2e79ff3a68c604c36690b1f6d0ed05b2c1e70d0476b751",
          "transactionIndex": "0x4",
          "logIndex": "0xb",
          "removed": false
        },
        {
          "address": "0x3e59a31363e2ad014dcbc521c4a0d5757d9f3402",
          "topics": [
            "0x804c9b842b2748a22bb64b345453a3de7ca54a6ca45ce00d415894979e22897a",
            "0x000000000000000000000000ceba9300f2b948710d2653dd7b07f33a8b32118c"
          ],
          "data": "0x00000000000000000000000000000000000000000000d50c3001ac65d5d13278000000000000000000000000000000000000000000000000000000000000000000000000000000000000000000000000000000000007b68925c46b07d7fcf2380000000000000000000000000000000000000000033b68c40149ed876e7f401e0000000000000000000000000000000000000000033c4f64a168ae5e3a66a6a9",
          "blockHash": "0x6ab4e56900e1e17c6c69516cbe783afbacf087a086e733473230f9802a2a1b97",
          "blockNumber": "0x20386cb",
          "transactionHash": "0x129ddc15e736d7a7ab2e79ff3a68c604c36690b1f6d0ed05b2c1e70d0476b751",
          "transactionIndex": "0x4",
          "logIndex": "0xc",
          "removed": false
        },
        {
          "address": "0xceba9300f2b948710d2653dd7b07f33a8b32118c",
          "topics": [
            "0xddf252ad1be2c89b69c2b068fc378daa952ba7f163c4a11628f55a4df523b3ef",
            "0x000000000000000000000000c2a61494430f6a99d5f024ab6e76b1633c7c13c0",
            "0x000000000000000000000000ff8309b9e99bfd2d4021bc71a362abd93dbd4785"
          ],
          "data": "0x000000000000000000000000000000000000000000000000000000000002dc6c",
          "blockHash": "0x6ab4e56900e1e17c6c69516cbe783afbacf087a086e733473230f9802a2a1b97",
          "blockNumber": "0x20386cb",
          "transactionHash": "0x129ddc15e736d7a7ab2e79ff3a68c604c36690b1f6d0ed05b2c1e70d0476b751",
          "transactionIndex": "0x4",
          "logIndex": "0xd",
          "removed": false
        },
        {
          "address": "0x3e59a31363e2ad014dcbc521c4a0d5757d9f3402",
          "topics": [
            "0xa534c8dbe71f871f9f3530e97a74601fea17b426cae02e1c5aee42c96c784051",
            "0x000000000000000000000000ceba9300f2b948710d2653dd7b07f33a8b32118c",
            "0x000000000000000000000000c2a61494430f6a99d5f024ab6e76b1633c7c13c0",
            "0x000000000000000000000000c2a61494430f6a99d5f024ab6e76b1633c7c13c0"
          ],
          "data": "0x000000000000000000000000000000000000000000000000000000000002dc6c0000000000000000000000000000000000000000000000000000000000000000",
          "blockHash": "0x6ab4e56900e1e17c6c69516cbe783afbacf087a086e733473230f9802a2a1b97",
          "blockNumber": "0x20386cb",
          "transactionHash": "0x129ddc15e736d7a7ab2e79ff3a68c604c36690b1f6d0ed05b2c1e70d0476b751",
          "transactionIndex": "0x4",
          "logIndex": "0xe",
          "removed": false
        },
        {
          "address": "0xc2a61494430f6a99d5f024ab6e76b1633c7c13c0",
          "topics": [
            "0x0d4979b0859a1951f8ed7cbe3b1994e740552588f27ba02ca0f8f1ddcad16e0c",
            "0x0000000000000000000000000000000000000000000000000000000000000005"
          ],
          "data": "0x000000000000000000000000000000000000000000000000000000000002dc6c",
          "blockHash": "0x6ab4e56900e1e17c6c69516cbe783afbacf087a086e733473230f9802a2a1b97",
          "blockNumber": "0x20386cb",
          "transactionHash": "0x129ddc15e736d7a7ab2e79ff3a68c604c36690b1f6d0ed05b2c1e70d0476b751",
          "transactionIndex": "0x4",
          "logIndex": "0xf",
          "removed": false
        }
      ],
      "logsBloom": "0x10000000000000010000120010400000000000000000000000000000000000000000000000000000000000000000400000110000c00000000000000000200000000010008000000000000008400000000000002000040000000000000000000080000000020000000000000200000800000000000000000000000010000000000000000000000000000000000000401000000800000000002200000000000000020001100000000000000000000000000000000000000000400000000000010000000002000080200000022000000000020000000000001000000000000020040010100000004010001800000000000000000000000000000000000000840000",
      "type": "0x0",
      "transactionHash": "0x129ddc15e736d7a7ab2e79ff3a68c604c36690b1f6d0ed05b2c1e70d0476b751",
      "transactionIndex": "0x4",
      "blockHash": "0x6ab4e56900e1e17c6c69516cbe783afbacf087a086e733473230f9802a2a1b97",
      "blockNumber": "0x20386cb",
      "gasUsed": "0x3b3af",
      "effectiveGasPrice": "0x5d22cfc40",
      "from": "0x3a4db9e7306af09012ceb0f222d581fd1f0c6d71",
      "to": "0xc2a61494430f6a99d5f024ab6e76b1633c7c13c0",
      "contractAddress": null,
      "l1BaseFeeScalar": "0x0",
      "l1BlobBaseFee": "0x167ba504",
      "l1BlobBaseFeeScalar": "0x0",
      "l1Fee": "0x0",
      "l1GasPrice": "0x295cd144",
      "l1GasUsed": "0x85e"
    }
  ],
  "libraries": [],
  "pending": [],
  "returns": {},
  "timestamp": 1745686305,
  "chain": 42220,
  "commit": "1cefd9d"
}