{
  "transactions": [
    {
      "hash": "0xb86054c16b96c90322577fdb190c0255d3f037d9ad0f53b4c39493014f728719",
      "transactionType": "CALL",
      "contractName": null,
      "contractAddress": "0x48065fbbe25f71c9282ddf5e1cd6d6a887483d5e",
      "function": "approve(address,uint256)",
      "arguments": [
        "0xd2B508298fCC37261953684744ec4CCc734d5083",
        "500000"
      ],
      "transaction": {
        "from": "0x3a4db9e7306af09012ceb0f222d581fd1f0c6d71",
        "to": "0x48065fbbe25f71c9282ddf5e1cd6d6a887483d5e",
        "gas": "0x1201c",
        "value": "0x0",
        "input": "0x095ea7b3000000000000000000000000d2b508298fcc37261953684744ec4ccc734d5083000000000000000000000000000000000000000000000000000000000007a120",
        "nonce": "0xf3",
        "chainId": "0xa4ec"
      },
      "additionalContracts": [],
      "isFixedGasLimit": false
    },
    {
      "hash": "0xcb3c12ead735f021bb2c70e4c5f096116b3ba3d7d2c877b6795d5cbf79e31643",
      "transactionType": "CALL",
      "contractName": null,
      "contractAddress": "0xd2b508298fcc37261953684744ec4ccc734d5083",
      "function": "createPosition(address,uint256,address,uint256,uint256)",
      "arguments": [
        "0x48065fbBE25f71C9282ddf5e1cD6D6A887483D5e",
        "500000",
        "0xcebA9300f2b948710d2653dD7B07f33A8B32118C",
        "250000",
        "2"
      ],
      "transaction": {
        "from": "0x3a4db9e7306af09012ceb0f222d581fd1f0c6d71",
        "to": "0xd2b508298fcc37261953684744ec4ccc734d5083",
        "gas": "0xe8a41",
        "value": "0x0",
        "input": "0xb0c3d5df00000000000000000000000048065fbbe25f71c9282ddf5e1cd6d6a887483d5e000000000000000000000000000000000000000000000000000000000007a120000000000000000000000000ceba9300f2b948710d2653dd7b07f33a8b32118c000000000000000000000000000000000000000000000000000000000003d0900000000000000000000000000000000000000000000000000000000000000002",
        "nonce": "0xf4",
        "chainId": "0xa4ec"
      },
      "additionalContracts": [],
      "isFixedGasLimit": false
    },
    {
      "hash": "0x77c26811c49e679482d4742230bb779de64d2d19cb8518b91a435b23c8369c07",
      "transactionType": "CALL",
      "contractName": null,
      "contractAddress": "0x48065fbbe25f71c9282ddf5e1cd6d6a887483d5e",
      "function": "approve(address,uint256)",
      "arguments": [
        "0xd2B508298fCC37261953684744ec4CCc734d5083",
        "250000"
      ],
      "transaction": {
        "from": "0x3a4db9e7306af09012ceb0f222d581fd1f0c6d71",
        "to": "0x48065fbbe25f71c9282ddf5e1cd6d6a887483d5e",
        "gas": "0x1201c",
        "value": "0x0",
        "input": "0x095ea7b3000000000000000000000000d2b508298fcc37261953684744ec4ccc734d5083000000000000000000000000000000000000000000000000000000000003d090",
        "nonce": "0xf5",
        "chainId": "0xa4ec"
      },
      "additionalContracts": [],
      "isFixedGasLimit": false
    },
    {
      "hash": "0xe29bad2e5bb80d55beeeb78f9f643b17e24d7f93949038d10a823531e42c98c7",
      "transactionType": "CALL",
      "contractName": null,
      "contractAddress": "0xd2b508298fcc37261953684744ec4ccc734d5083",
      "function": "addCollateral(uint256,uint256)",
      "arguments": [
        "10",
        "250000"
      ],
      "transaction": {
        "from": "0x3a4db9e7306af09012ceb0f222d581fd1f0c6d71",
        "to": "0xd2b508298fcc37261953684744ec4ccc734d5083",
        "gas": "0x4b6d2",
        "value": "0x0",
        "input": "0xa8f35adf000000000000000000000000000000000000000000000000000000000000000a000000000000000000000000000000000000000000000000000000000003d090",
        "nonce": "0xf6",
        "chainId": "0xa4ec"
      },
      "additionalContracts": [],
      "isFixedGasLimit": false
    },
    {
      "hash": "0xe7dfb11862ac885e478dbf76bc374e31e1799162a67a0d000e02deeaf697b33f",
      "transactionType": "CALL",
      "contractName": null,
      "contractAddress": "0xd2b508298fcc37261953684744ec4ccc734d5083",
      "function": "increaseBorrow(uint256,uint256)",
      "arguments": [
        "10",
        "125000"
      ],
      "transaction": {
        "from": "0x3a4db9e7306af09012ceb0f222d581fd1f0c6d71",
        "to": "0xd2b508298fcc37261953684744ec4ccc734d5083",
        "gas": "0x815b7",
        "value": "0x0",
        "input": "0x9e6824d9000000000000000000000000000000000000000000000000000000000000000a000000000000000000000000000000000000000000000000000000000001e848",
        "nonce": "0xf7",
        "chainId": "0xa4ec"
      },
      "additionalContracts": [],
      "isFixedGasLimit": false
    },
    {
      "hash": "0x95d98be2b72a2e2e45108b0e18df45a15c54e0cea3095563a01ecee099876e91",
      "transactionType": "CALL",
      "contractName": null,
      "contractAddress": "0xceba9300f2b948710d2653dd7b07f33a8b32118c",
      "function": "approve(address,uint256)",
      "arguments": [
        "0xd2B508298fCC37261953684744ec4CCc734d5083",
        "187500"
      ],
      "transaction": {
        "from": "0x3a4db9e7306af09012ceb0f222d581fd1f0c6d71",
        "to": "0xceba9300f2b948710d2653dd7b07f33a8b32118c",
        "gas": "0xcb04",
        "value": "0x0",
        "input": "0x095ea7b3000000000000000000000000d2b508298fcc37261953684744ec4ccc734d5083000000000000000000000000000000000000000000000000000000000002dc6c",
        "nonce": "0xf8",
        "chainId": "0xa4ec"
      },
      "additionalContracts": [],
      "isFixedGasLimit": false
    },
    {
      "hash": "0x13c9eb1adf16c272ab39c35a56d8dd055b26be2dcaf87c19cfac9c22cee51777",
      "transactionType": "CALL",
      "contractName": null,
      "contractAddress": "0xd2b508298fcc37261953684744ec4ccc734d5083",
      "function": "repayDebt(uint256,uint256)",
      "arguments": [
        "10",
        "187500"
      ],
      "transaction": {
        "from": "0x3a4db9e7306af09012ceb0f222d581fd1f0c6d71",
        "to": "0xd2b508298fcc37261953684744ec4ccc734d5083",
        "gas": "0x4874c",
        "value": "0x0",
        "input": "0x015cb0a5000000000000000000000000000000000000000000000000000000000000000a000000000000000000000000000000000000000000000000000000000002dc6c",
        "nonce": "0xf9",
        "chainId": "0xa4ec"
      },
      "additionalContracts": [],
      "isFixedGasLimit": false
    },
    {
      "hash": "0x0e8787efe26eda86f4ad064a53043bc67d54669055cd615e0eb163b529193f34",
      "transactionType": "CALL",
      "contractName": null,
      "contractAddress": "0xd2b508298fcc37261953684744ec4ccc734d5083",
      "function": "withdrawCollateral(uint256,uint256)",
      "arguments": [
        "10",
        "150000"
      ],
      "transaction": {
        "from": "0x3a4db9e7306af09012ceb0f222d581fd1f0c6d71",
        "to": "0xd2b508298fcc37261953684744ec4ccc734d5083",
        "gas": "0x75c35",
        "value": "0x0",
        "input": "0x767a7b05000000000000000000000000000000000000000000000000000000000000000a00000000000000000000000000000000000000000000000000000000000249f0",
        "nonce": "0xfa",
        "chainId": "0xa4ec"
      },
      "additionalContracts": [],
      "isFixedGasLimit": false
    },
    {
      "hash": "0xbbce447cb0690dacd96747e45281a402575e40585bca706a426984e3b4fa52ea",
      "transactionType": "CALL",
      "contractName": null,
      "contractAddress": "0xceba9300f2b948710d2653dd7b07f33a8b32118c",
      "function": "approve(address,uint256)",
      "arguments": [
        "0xd2B508298fCC37261953684744ec4CCc734d5083",
        "375000"
      ],
      "transaction": {
        "from": "0x3a4db9e7306af09012ceb0f222d581fd1f0c6d71",
        "to": "0xceba9300f2b948710d2653dd7b07f33a8b32118c",
        "gas": "0x12b1b",
        "value": "0x0",
        "input": "0x095ea7b3000000000000000000000000d2b508298fcc37261953684744ec4ccc734d5083000000000000000000000000000000000000000000000000000000000005b8d8",
        "nonce": "0xfb",
        "chainId": "0xa4ec"
      },
      "additionalContracts": [],
      "isFixedGasLimit": false
    },
    {
      "hash": "0xf5a964f4e92efca15502fb41b8f8c2950d493c009d52ee8db08437bea2eaf2ab",
      "transactionType": "CALL",
      "contractName": null,
      "contractAddress": "0xd2b508298fcc37261953684744ec4ccc734d5083",
      "function": "repayDebt(uint256,uint256)",
      "arguments": [
        "10",
        "187500"
      ],
      "transaction": {
        "from": "0x3a4db9e7306af09012ceb0f222d581fd1f0c6d71",
        "to": "0xd2b508298fcc37261953684744ec4ccc734d5083",
        "gas": "0x485f1",
        "value": "0x0",
        "input": "0x015cb0a5000000000000000000000000000000000000000000000000000000000000000a000000000000000000000000000000000000000000000000000000000002dc6c",
        "nonce": "0xfc",
        "chainId": "0xa4ec"
      },
      "additionalContracts": [],
      "isFixedGasLimit": false
    },
    {
      "hash": "0x4b0ba0e2cd8babe72819f1432bfe34cbe0ae3ba0679fa5439a1662c3773295d9",
      "transactionType": "CALL",
      "contractName": null,
      "contractAddress": "0xd2b508298fcc37261953684744ec4ccc734d5083",
      "function": "withdrawCollateral(uint256,uint256)",
      "arguments": [
        "10",
        "600000"
      ],
      "transaction": {
        "from": "0x3a4db9e7306af09012ceb0f222d581fd1f0c6d71",
        "to": "0xd2b508298fcc37261953684744ec4ccc734d5083",
        "gas": "0x740c9",
        "value": "0x0",
        "input": "0x767a7b05000000000000000000000000000000000000000000000000000000000000000a00000000000000000000000000000000000000000000000000000000000927c0",
        "nonce": "0xfd",
        "chainId": "0xa4ec"
      },
      "additionalContracts": [],
      "isFixedGasLimit": false
    }
  ],
  "receipts": [
    {
      "status": "0x1",
      "cumulativeGasUsed": "0xfb065",
      "logs": [
        {
          "address": "0x48065fbbe25f71c9282ddf5e1cd6d6a887483d5e",
          "topics": [
            "0x8c5be1e5ebec7d5bd14f71427d1e84f3dd0314c0f7b2291e5b200ac8c7c3b925",
            "0x0000000000000000000000003a4db9e7306af09012ceb0f222d581fd1f0c6d71",
            "0x000000000000000000000000d2b508298fcc37261953684744ec4ccc734d5083"
          ],
          "data": "0x000000000000000000000000000000000000000000000000000000000007a120",
          "blockHash": "0xab3b5462a4ffa2430ada93a2c5a16340705557505ac2df9560813ebcdfb506c1",
          "blockNumber": "0x207c1ca",
          "transactionHash": "0xb86054c16b96c90322577fdb190c0255d3f037d9ad0f53b4c39493014f728719",
          "transactionIndex": "0x6",
          "logIndex": "0x15",
          "removed": false
        }
      ],
      "logsBloom": "0x00000000000000000000000000000000000000000000000000000000000000000000000000000000000000000000000000000000000000000000000000200000000000000000000000000000000000000000000000000000000000000000000000000000000000000000000000000000000000000000000040000000000000000000010000000000000000000000400000000000000000000000000000000000020000000000000000000000000000000000000000000000000000000000000000000000000080000000008000000000000000000000001000000000000000000110100000000000000000000000000000000000000010000000000000000000",
      "type": "0x0",
      "transactionHash": "0xb86054c16b96c90322577fdb190c0255d3f037d9ad0f53b4c39493014f728719",
      "transactionIndex": "0x6",
      "blockHash": "0xab3b5462a4ffa2430ada93a2c5a16340705557505ac2df9560813ebcdfb506c1",
      "blockNumber": "0x207c1ca",
      "gasUsed": "0xd097",
      "effectiveGasPrice": "0x5d22cfc40",
      "from": "0x3a4db9e7306af09012ceb0f222d581fd1f0c6d71",
      "to": "0x48065fbbe25f71c9282ddf5e1cd6d6a887483d5e",
      "contractAddress": null,
      "l1BaseFeeScalar": "0x0",
      "l1BlobBaseFee": "0x1d982c39",
      "l1BlobBaseFeeScalar": "0x0",
      "l1Fee": "0x0",
      "l1GasPrice": "0x442ada81",
      "l1GasUsed": "0x640"
    },
    {
      "status": "0x1",
      "cumulativeGasUsed": "0x19a187",
      "logs": [
        {
          "address": "0x48065fbbe25f71c9282ddf5e1cd6d6a887483d5e",
          "topics": [
            "0xddf252ad1be2c89b69c2b068fc378daa952ba7f163c4a11628f55a4df523b3ef",
            "0x0000000000000000000000003a4db9e7306af09012ceb0f222d581fd1f0c6d71",
            "0x000000000000000000000000d2b508298fcc37261953684744ec4ccc734d5083"
          ],
          "data": "0x000000000000000000000000000000000000000000000000000000000007a120",
          "blockHash": "0xab3b5462a4ffa2430ada93a2c5a16340705557505ac2df9560813ebcdfb506c1",
          "blockNumber": "0x207c1ca",
          "transactionHash": "0xcb3c12ead735f021bb2c70e4c5f096116b3ba3d7d2c877b6795d5cbf79e31643",
          "transactionIndex": "0x7",
          "logIndex": "0x16",
          "removed": false
        },
        {
          "address": "0x48065fbbe25f71c9282ddf5e1cd6d6a887483d5e",
          "topics": [
            "0x8c5be1e5ebec7d5bd14f71427d1e84f3dd0314c0f7b2291e5b200ac8c7c3b925",
            "0x0000000000000000000000003a4db9e7306af09012ceb0f222d581fd1f0c6d71",
            "0x000000000000000000000000d2b508298fcc37261953684744ec4ccc734d5083"
          ],
          "data": "0x0000000000000000000000000000000000000000000000000000000000000000",
          "blockHash": "0xab3b5462a4ffa2430ada93a2c5a16340705557505ac2df9560813ebcdfb506c1",
          "blockNumber": "0x207c1ca",
          "transactionHash": "0xcb3c12ead735f021bb2c70e4c5f096116b3ba3d7d2c877b6795d5cbf79e31643",
          "transactionIndex": "0x7",
          "logIndex": "0x17",
          "removed": false
        },
        {
          "address": "0x48065fbbe25f71c9282ddf5e1cd6d6a887483d5e",
          "topics": [
            "0x8c5be1e5ebec7d5bd14f71427d1e84f3dd0314c0f7b2291e5b200ac8c7c3b925",
            "0x000000000000000000000000d2b508298fcc37261953684744ec4ccc734d5083",
            "0x0000000000000000000000003e59a31363e2ad014dcbc521c4a0d5757d9f3402"
          ],
          "data": "0x000000000000000000000000000000000000000000000000000000000007a120",
          "blockHash": "0xab3b5462a4ffa2430ada93a2c5a16340705557505ac2df9560813ebcdfb506c1",
          "blockNumber": "0x207c1ca",
          "transactionHash": "0xcb3c12ead735f021bb2c70e4c5f096116b3ba3d7d2c877b6795d5cbf79e31643",
          "transactionIndex": "0x7",
          "logIndex": "0x18",
          "removed": false
        },
        {
          "address": "0x3e59a31363e2ad014dcbc521c4a0d5757d9f3402",
          "topics": [
            "0x804c9b842b2748a22bb64b345453a3de7ca54a6ca45ce00d415894979e22897a",
            "0x00000000000000000000000048065fbbe25f71c9282ddf5e1cd6d6a887483d5e"
          ],
          "data": "0x00000000000000000000000000000000000000000000000c95aca6745652b7440000000000000000000000000000000000000000000000000000000000000000000000000000000000000000000000000000000000001dfe57ba1df01710726f0000000000000000000000000000000000000000033b5f8e3b2aa061c6f6ae680000000000000000000000000000000000000000033bcce29ad3ad86a8b3f803",
          "blockHash": "0xab3b5462a4ffa2430ada93a2c5a16340705557505ac2df9560813ebcdfb506c1",
          "blockNumber": "0x207c1ca",
          "transactionHash": "0xcb3c12ead735f021bb2c70e4c5f096116b3ba3d7d2c877b6795d5cbf79e31643",
          "transactionIndex": "0x7",
          "logIndex": "0x19",
          "removed": false
        },
        {
          "address": "0x48065fbbe25f71c9282ddf5e1cd6d6a887483d5e",
          "topics": [
            "0xddf252ad1be2c89b69c2b068fc378daa952ba7f163c4a11628f55a4df523b3ef",
            "0x000000000000000000000000d2b508298fcc37261953684744ec4ccc734d5083",
            "0x000000000000000000000000dee98402a302e4d707fb9bf2bac66faeec31e8df"
          ],
          "data": "0x000000000000000000000000000000000000000000000000000000000007a120",
          "blockHash": "0xab3b5462a4ffa2430ada93a2c5a16340705557505ac2df9560813ebcdfb506c1",
          "blockNumber": "0x207c1ca",
          "transactionHash": "0xcb3c12ead735f021bb2c70e4c5f096116b3ba3d7d2c877b6795d5cbf79e31643",
          "transactionIndex": "0x7",
          "logIndex": "0x1a",
          "removed": false
        },
        {
          "address": "0x48065fbbe25f71c9282ddf5e1cd6d6a887483d5e",
          "topics": [
            "0x8c5be1e5ebec7d5bd14f71427d1e84f3dd0314c0f7b2291e5b200ac8c7c3b925",
            "0x000000000000000000000000d2b508298fcc37261953684744ec4ccc734d5083",
            "0x0000000000000000000000003e59a31363e2ad014dcbc521c4a0d5757d9f3402"
          ],
          "data": "0x0000000000000000000000000000000000000000000000000000000000000000",
          "blockHash": "0xab3b5462a4ffa2430ada93a2c5a16340705557505ac2df9560813ebcdfb506c1",
          "blockNumber": "0x207c1ca",
          "transactionHash": "0xcb3c12ead735f021bb2c70e4c5f096116b3ba3d7d2c877b6795d5cbf79e31643",
          "transactionIndex": "0x7",
          "logIndex": "0x1b",
          "removed": false
        },
        {
          "address": "0xdee98402a302e4d707fb9bf2bac66faeec31e8df",
          "topics": [
            "0xddf252ad1be2c89b69c2b068fc378daa952ba7f163c4a11628f55a4df523b3ef",
            "0x0000000000000000000000000000000000000000000000000000000000000000",
            "0x000000000000000000000000d2b508298fcc37261953684744ec4ccc734d5083"
          ],
          "data": "0x000000000000000000000000000000000000000000000000000000000007a120",
          "blockHash": "0xab3b5462a4ffa2430ada93a2c5a16340705557505ac2df9560813ebcdfb506c1",
          "blockNumber": "0x207c1ca",
          "transactionHash": "0xcb3c12ead735f021bb2c70e4c5f096116b3ba3d7d2c877b6795d5cbf79e31643",
          "transactionIndex": "0x7",
          "logIndex": "0x1c",
          "removed": false
        },
        {
          "address": "0xdee98402a302e4d707fb9bf2bac66faeec31e8df",
          "topics": [
            "0x458f5fa412d0f69b08dd84872b0215675cc67bc1d5b6fd93300a1c3878b86196",
            "0x000000000000000000000000d2b508298fcc37261953684744ec4ccc734d5083",
            "0x000000000000000000000000d2b508298fcc37261953684744ec4ccc734d5083"
          ],
          "data": "0x000000000000000000000000000000000000000000000000000000000007a12000000000000000000000000000000000000000000000000000000000000000000000000000000000000000000000000000000000033b5f8e3b2aa061c6f6ae68",
          "blockHash": "0xab3b5462a4ffa2430ada93a2c5a16340705557505ac2df9560813ebcdfb506c1",
          "blockNumber": "0x207c1ca",
          "transactionHash": "0xcb3c12ead735f021bb2c70e4c5f096116b3ba3d7d2c877b6795d5cbf79e31643",
          "transactionIndex": "0x7",
          "logIndex": "0x1d",
          "removed": false
        },
        {
          "address": "0x3e59a31363e2ad014dcbc521c4a0d5757d9f3402",
          "topics": [
            "0x2b627736bca15cd5381dcf80b0bf11fd197d01a037c52b927a881a10fb73ba61",
            "0x00000000000000000000000048065fbbe25f71c9282ddf5e1cd6d6a887483d5e",
            "0x000000000000000000000000d2b508298fcc37261953684744ec4ccc734d5083",
            "0x0000000000000000000000000000000000000000000000000000000000000000"
          ],
          "data": "0x000000000000000000000000d2b508298fcc37261953684744ec4ccc734d5083000000000000000000000000000000000000000000000000000000000007a120",
          "blockHash": "0xab3b5462a4ffa2430ada93a2c5a16340705557505ac2df9560813ebcdfb506c1",
          "blockNumber": "0x207c1ca",
          "transactionHash": "0xcb3c12ead735f021bb2c70e4c5f096116b3ba3d7d2c877b6795d5cbf79e31643",
          "transactionIndex": "0x7",
          "logIndex": "0x1e",
          "removed": false
        },
        {
          "address": "0xdbe517c0fa6467873b684eccbed77217e471e862",
          "topics": [
            "0xddf252ad1be2c89b69c2b068fc378daa952ba7f163c4a11628f55a4df523b3ef",
            "0x0000000000000000000000000000000000000000000000000000000000000000",
            "0x000000000000000000000000d2b508298fcc37261953684744ec4ccc734d5083"
          ],
          "data": "0x000000000000000000000000000000000000000000000000000000000003d091",
          "blockHash": "0xab3b5462a4ffa2430ada93a2c5a16340705557505ac2df9560813ebcdfb506c1",
          "blockNumber": "0x207c1ca",
          "transactionHash": "0xcb3c12ead735f021bb2c70e4c5f096116b3ba3d7d2c877b6795d5cbf79e31643",
          "transactionIndex": "0x7",
          "logIndex": "0x1f",
          "removed": false
        },
        {
          "address": "0xdbe517c0fa6467873b684eccbed77217e471e862",
          "topics": [
            "0x458f5fa412d0f69b08dd84872b0215675cc67bc1d5b6fd93300a1c3878b86196",
            "0x000000000000000000000000d2b508298fcc37261953684744ec4ccc734d5083",
            "0x000000000000000000000000d2b508298fcc37261953684744ec4ccc734d5083"
          ],
          "data": "0x000000000000000000000000000000000000000000000000000000000003d09100000000000000000000000000000000000000000000000000000000000000010000000000000000000000000000000000000000033c60cc7e213135b18c0478",
          "blockHash": "0xab3b5462a4ffa2430ada93a2c5a16340705557505ac2df9560813ebcdfb506c1",
          "blockNumber": "0x207c1ca",
          "transactionHash": "0xcb3c12ead735f021bb2c70e4c5f096116b3ba3d7d2c877b6795d5cbf79e31643",
          "transactionIndex": "0x7",
          "logIndex": "0x20",
          "removed": false
        },
        {
          "address": "0x3e59a31363e2ad014dcbc521c4a0d5757d9f3402",
          "topics": [
            "0x804c9b842b2748a22bb64b345453a3de7ca54a6ca45ce00d415894979e22897a",
            "0x000000000000000000000000ceba9300f2b948710d2653dd7b07f33a8b32118c"
          ],
          "data": "0x00000000000000000000000000000000000000000000d633382724245b5635b6000000000000000000000000000000000000000000000000000000000000000000000000000000000000000000000000000000000007bbde7d02bbf61071e7f10000000000000000000000000000000000000000033b6aa4dc6b169fa3b117340000000000000000000000000000000000000000033c60cc7e213135b18c0478",
          "blockHash": "0xab3b5462a4ffa2430ada93a2c5a16340705557505ac2df9560813ebcdfb506c1",
          "blockNumber": "0x207c1ca",
          "transactionHash": "0xcb3c12ead735f021bb2c70e4c5f096116b3ba3d7d2c877b6795d5cbf79e31643",
          "transactionIndex": "0x7",
          "logIndex": "0x21",
          "removed": false
        },
        {
          "address": "0xceba9300f2b948710d2653dd7b07f33a8b32118c",
          "topics": [
            "0xddf252ad1be2c89b69c2b068fc378daa952ba7f163c4a11628f55a4df523b3ef",
            "0x000000000000000000000000ff8309b9e99bfd2d4021bc71a362abd93dbd4785",
            "0x000000000000000000000000d2b508298fcc37261953684744ec4ccc734d5083"
          ],
          "data": "0x000000000000000000000000000000000000000000000000000000000003d090",
          "blockHash": "0xab3b5462a4ffa2430ada93a2c5a16340705557505ac2df9560813ebcdfb506c1",
          "blockNumber": "0x207c1ca",
          "transactionHash": "0xcb3c12ead735f021bb2c70e4c5f096116b3ba3d7d2c877b6795d5cbf79e31643",
          "transactionIndex": "0x7",
          "logIndex": "0x22",
          "removed": false
        },
        {
          "address": "0x3e59a31363e2ad014dcbc521c4a0d5757d9f3402",
          "topics": [
            "0xb3d084820fb1a9decffb176436bd02558d15fac9b0ddfed8c465bc7359d7dce0",
            "0x000000000000000000000000ceba9300f2b948710d2653dd7b07f33a8b32118c",
            "0x000000000000000000000000d2b508298fcc37261953684744ec4ccc734d5083",
            "0x0000000000000000000000000000000000000000000000000000000000000000"
          ],
          "data": "0x000000000000000000000000d2b508298fcc37261953684744ec4ccc734d5083000000000000000000000000000000000000000000000000000000000003d090000000000000000000000000000000000000000000000000000000000000000200000000000000000000000000000000000000000007bbde7d02bbf61071e7f1",
          "blockHash": "0xab3b5462a4ffa2430ada93a2c5a16340705557505ac2df9560813ebcdfb506c1",
          "blockNumber": "0x207c1ca",
          "transactionHash": "0xcb3c12ead735f021bb2c70e4c5f096116b3ba3d7d2c877b6795d5cbf79e31643",
          "transactionIndex": "0x7",
          "logIndex": "0x23",
          "removed": false
        },
        {
          "address": "0xceba9300f2b948710d2653dd7b07f33a8b32118c",
          "topics": [
            "0xddf252ad1be2c89b69c2b068fc378daa952ba7f163c4a11628f55a4df523b3ef",
            "0x000000000000000000000000d2b508298fcc37261953684744ec4ccc734d5083",
            "0x0000000000000000000000003a4db9e7306af09012ceb0f222d581fd1f0c6d71"
          ],
          "data": "0x000000000000000000000000000000000000000000000000000000000003d090",
          "blockHash": "0xab3b5462a4ffa2430ada93a2c5a16340705557505ac2df9560813ebcdfb506c1",
          "blockNumber": "0x207c1ca",
          "transactionHash": "0xcb3c12ead735f021bb2c70e4c5f096116b3ba3d7d2c877b6795d5cbf79e31643",
          "transactionIndex": "0x7",
          "logIndex": "0x24",
          "removed": false
        },
        {
          "address": "0xd2b508298fcc37261953684744ec4ccc734d5083",
          "topics": [
            "0x9f9b498443531d2db9df8a00ec466efc74ba50ec1d82f7badd3424b87930e19a",
            "0x000000000000000000000000000000000000000000000000000000000000000a",
            "0x0000000000000000000000003a4db9e7306af09012ceb0f222d581fd1f0c6d71"
          ],
          "data": "0x00000000000000000000000048065fbbe25f71c9282ddf5e1cd6d6a887483d5e000000000000000000000000000000000000000000000000000000000007a120000000000000000000000000ceba9300f2b948710d2653dd7b07f33a8b32118c000000000000000000000000000000000000000000000000000000000003d0900000000000000000000000000000000000000000000000000000000000000002",
          "blockHash": "0xab3b5462a4ffa2430ada93a2c5a16340705557505ac2df9560813ebcdfb506c1",
          "blockNumber": "0x207c1ca",
          "transactionHash": "0xcb3c12ead735f021bb2c70e4c5f096116b3ba3d7d2c877b6795d5cbf79e31643",
          "transactionIndex": "0x7",
          "logIndex": "0x25",
          "removed": false
        }
      ],
      "logsBloom": "0x0000000000000011020012000040000000100000000000000000000000000010000000080000000000002000000440000010000084000000002000000020000000000000800000080000000800000000000000000000000000000004000000000000000002000000000000000000080000000002000000004000001000000000000001000000000001000000000040000000000000000000220000000000000002000110000100000000004000000000100000000000000040000000000001000200000200008120000002a040000040000000000000041800020000000120000110100000004010000800000001000040000000000010000000400000000000",
      "type": "0x0",
      "transactionHash": "0xcb3c12ead735f021bb2c70e4c5f096116b3ba3d7d2c877b6795d5cbf79e31643",
      "transactionIndex": "0x7",
      "blockHash": "0xab3b5462a4ffa2430ada93a2c5a16340705557505ac2df9560813ebcdfb506c1",
      "blockNumber": "0x207c1ca",
      "gasUsed": "0x9f122",
      "effectiveGasPrice": "0x5d22cfc40",
      "from": "0x3a4db9e7306af09012ceb0f222d581fd1f0c6d71",
      "to": "0xd2b508298fcc37261953684744ec4ccc734d5083",
      "contractAddress": null,
      "l1BaseFeeScalar": "0x0",
      "l1BlobBaseFee": "0x1d982c39",
      "l1BlobBaseFeeScalar": "0x0",
      "l1Fee": "0x0",
      "l1GasPrice": "0x442ada81",
      "l1GasUsed": "0x77b"
    },
    {
      "status": "0x1",
      "cumulativeGasUsed": "0x73902",
      "logs": [
        {
          "address": "0x48065fbbe25f71c9282ddf5e1cd6d6a887483d5e",
          "topics": [
            "0x8c5be1e5ebec7d5bd14f71427d1e84f3dd0314c0f7b2291e5b200ac8c7c3b925",
            "0x0000000000000000000000003a4db9e7306af09012ceb0f222d581fd1f0c6d71",
            "0x000000000000000000000000d2b508298fcc37261953684744ec4ccc734d5083"
          ],
          "data": "0x000000000000000000000000000000000000000000000000000000000003d090",
          "blockHash": "0xcb503561eb414297fcea29338df42826624d7b809ed53d8440499de9c590c36f",
          "blockNumber": "0x207c1cb",
          "transactionHash": "0x77c26811c49e679482d4742230bb779de64d2d19cb8518b91a435b23c8369c07",
          "transactionIndex": "0x6",
          "logIndex": "0x7",
          "removed": false
        }
      ],
      "logsBloom": "0x00000000000000000000000000000000000000000000000000000000000000000000000000000000000000000000000000000000000000000000000000200000000000000000000000000000000000000000000000000000000000000000000000000000000000000000000000000000000000000000000040000000000000000000010000000000000000000000400000000000000000000000000000000000020000000000000000000000000000000000000000000000000000000000000000000000000080000000008000000000000000000000001000000000000000000110100000000000000000000000000000000000000010000000000000000000",
      "type": "0x0",
      "transactionHash": "0x77c26811c49e679482d4742230bb779de64d2d19cb8518b91a435b23c8369c07",
      "transactionIndex": "0x6",
      "blockHash": "0xcb503561eb414297fcea29338df42826624d7b809ed53d8440499de9c590c36f",
      "blockNumber": "0x207c1cb",
      "gasUsed": "0xd097",
      "effectiveGasPrice": "0x5d22cfc40",
      "from": "0x3a4db9e7306af09012ceb0f222d581fd1f0c6d71",
      "to": "0x48065fbbe25f71c9282ddf5e1cd6d6a887483d5e",
      "contractAddress": null,
      "l1BaseFeeScalar": "0x0",
      "l1BlobBaseFee": "0x1d982c39",
      "l1BlobBaseFeeScalar": "0x0",
      "l1Fee": "0x0",
      "l1GasPrice": "0x442ada81",
      "l1GasUsed": "0x640"
    },
    {
      "status": "0x1",
      "cumulativeGasUsed": "0xabc78",
      "logs": [
        {
          "address": "0x48065fbbe25f71c9282ddf5e1cd6d6a887483d5e",
          "topics": [
            "0xddf252ad1be2c89b69c2b068fc378daa952ba7f163c4a11628f55a4df523b3ef",
            "0x0000000000000000000000003a4db9e7306af09012ceb0f222d581fd1f0c6d71",
            "0x000000000000000000000000d2b508298fcc37261953684744ec4ccc734d5083"
          ],
          "data": "0x000000000000000000000000000000000000000000000000000000000003d090",
          "blockHash": "0xcb503561eb414297fcea29338df42826624d7b809ed53d8440499de9c590c36f",
          "blockNumber": "0x207c1cb",
          "transactionHash": "0xe29bad2e5bb80d55beeeb78f9f643b17e24d7f93949038d10a823531e42c98c7",
          "transactionIndex": "0x7",
          "logIndex": "0x8",
          "removed": false
        },
        {
          "address": "0x48065fbbe25f71c9282ddf5e1cd6d6a887483d5e",
          "topics": [
            "0x8c5be1e5ebec7d5bd14f71427d1e84f3dd0314c0f7b2291e5b200ac8c7c3b925",
            "0x0000000000000000000000003a4db9e7306af09012ceb0f222d581fd1f0c6d71",
            "0x000000000000000000000000d2b508298fcc37261953684744ec4ccc734d5083"
          ],
          "data": "0x0000000000000000000000000000000000000000000000000000000000000000",
          "blockHash": "0xcb503561eb414297fcea29338df42826624d7b809ed53d8440499de9c590c36f",
          "blockNumber": "0x207c1cb",
          "transactionHash": "0xe29bad2e5bb80d55beeeb78f9f643b17e24d7f93949038d10a823531e42c98c7",
          "transactionIndex": "0x7",
          "logIndex": "0x9",
          "removed": false
        },
        {
          "address": "0x48065fbbe25f71c9282ddf5e1cd6d6a887483d5e",
          "topics": [
            "0x8c5be1e5ebec7d5bd14f71427d1e84f3dd0314c0f7b2291e5b200ac8c7c3b925",
            "0x000000000000000000000000d2b508298fcc37261953684744ec4ccc734d5083",
            "0x0000000000000000000000003e59a31363e2ad014dcbc521c4a0d5757d9f3402"
          ],
          "data": "0x000000000000000000000000000000000000000000000000000000000003d090",
          "blockHash": "0xcb503561eb414297fcea29338df42826624d7b809ed53d8440499de9c590c36f",
          "blockNumber": "0x207c1cb",
          "transactionHash": "0xe29bad2e5bb80d55beeeb78f9f643b17e24d7f93949038d10a823531e42c98c7",
          "transactionIndex": "0x7",
          "logIndex": "0xa",
          "removed": false
        },
        {
          "address": "0x3e59a31363e2ad014dcbc521c4a0d5757d9f3402",
          "topics": [
            "0x804c9b842b2748a22bb64b345453a3de7ca54a6ca45ce00d415894979e22897a",
            "0x00000000000000000000000048065fbbe25f71c9282ddf5e1cd6d6a887483d5e"
          ],
          "data": "0x00000000000000000000000000000000000000000000000c95ac829c6fd71abc0000000000000000000000000000000000000000000000000000000000000000000000000000000000000000000000000000000000001dfe578f674bd7af7d7b0000000000000000000000000000000000000000033b5f8e3b2aa7141d1be25d0000000000000000000000000000000000000000033bcce29ae3a57af416d217",
          "blockHash": "0xcb503561eb414297fcea29338df42826624d7b809ed53d8440499de9c590c36f",
          "blockNumber": "0x207c1cb",
          "transactionHash": "0xe29bad2e5bb80d55beeeb78f9f643b17e24d7f93949038d10a823531e42c98c7",
          "transactionIndex": "0x7",
          "logIndex": "0xb",
          "removed": false
        },
        {
          "address": "0x48065fbbe25f71c9282ddf5e1cd6d6a887483d5e",
          "topics": [
            "0xddf252ad1be2c89b69c2b068fc378daa952ba7f163c4a11628f55a4df523b3ef",
            "0x000000000000000000000000d2b508298fcc37261953684744ec4ccc734d5083",
            "0x000000000000000000000000dee98402a302e4d707fb9bf2bac66faeec31e8df"
          ],
          "data": "0x000000000000000000000000000000000000000000000000000000000003d090",
          "blockHash": "0xcb503561eb414297fcea29338df42826624d7b809ed53d8440499de9c590c36f",
          "blockNumber": "0x207c1cb",
          "transactionHash": "0xe29bad2e5bb80d55beeeb78f9f643b17e24d7f93949038d10a823531e42c98c7",
          "transactionIndex": "0x7",
          "logIndex": "0xc",
          "removed": false
        },
        {
          "address": "0x48065fbbe25f71c9282ddf5e1cd6d6a887483d5e",
          "topics": [
            "0x8c5be1e5ebec7d5bd14f71427d1e84f3dd0314c0f7b2291e5b200ac8c7c3b925",
            "0x000000000000000000000000d2b508298fcc37261953684744ec4ccc734d5083",
            "0x0000000000000000000000003e59a31363e2ad014dcbc521c4a0d5757d9f3402"
          ],
          "data": "0x0000000000000000000000000000000000000000000000000000000000000000",
          "blockHash": "0xcb503561eb414297fcea29338df42826624d7b809ed53d8440499de9c590c36f",
          "blockNumber": "0x207c1cb",
          "transactionHash": "0xe29bad2e5bb80d55beeeb78f9f643b17e24d7f93949038d10a823531e42c98c7",
          "transactionIndex": "0x7",
          "logIndex": "0xd",
          "removed": false
        },
        {
          "address": "0xdee98402a302e4d707fb9bf2bac66faeec31e8df",
          "topics": [
            "0xddf252ad1be2c89b69c2b068fc378daa952ba7f163c4a11628f55a4df523b3ef",
            "0x0000000000000000000000000000000000000000000000000000000000000000",
            "0x000000000000000000000000d2b508298fcc37261953684744ec4ccc734d5083"
          ],
          "data": "0x000000000000000000000000000000000000000000000000000000000003d090",
          "blockHash": "0xcb503561eb414297fcea29338df42826624d7b809ed53d8440499de9c590c36f",
          "blockNumber": "0x207c1cb",
          "transactionHash": "0xe29bad2e5bb80d55beeeb78f9f643b17e24d7f93949038d10a823531e42c98c7",
          "transactionIndex": "0x7",
          "logIndex": "0xe",
          "removed": false
        },
        {
          "address": "0xdee98402a302e4d707fb9bf2bac66faeec31e8df",
          "topics": [
            "0x458f5fa412d0f69b08dd84872b0215675cc67bc1d5b6fd93300a1c3878b86196",
            "0x000000000000000000000000d2b508298fcc37261953684744ec4ccc734d5083",
            "0x000000000000000000000000d2b508298fcc37261953684744ec4ccc734d5083"
          ],
          "data": "0x000000000000000000000000000000000000000000000000000000000003d09000000000000000000000000000000000000000000000000000000000000000000000000000000000000000000000000000000000033b5f8e3b2aa7141d1be25d",
          "blockHash": "0xcb503561eb414297fcea29338df42826624d7b809ed53d8440499de9c590c36f",
          "blockNumber": "0x207c1cb",
          "transactionHash": "0xe29bad2e5bb80d55beeeb78f9f643b17e24d7f93949038d10a823531e42c98c7",
          "transactionIndex": "0x7",
          "logIndex": "0xf",
          "removed": false
        },
        {
          "address": "0x3e59a31363e2ad014dcbc521c4a0d5757d9f3402",
          "topics": [
            "0x2b627736bca15cd5381dcf80b0bf11fd197d01a037c52b927a881a10fb73ba61",
            "0x00000000000000000000000048065fbbe25f71c9282ddf5e1cd6d6a887483d5e",
            "0x000000000000000000000000d2b508298fcc37261953684744ec4ccc734d5083",
            "0x0000000000000000000000000000000000000000000000000000000000000000"
          ],
          "data": "0x000000000000000000000000d2b508298fcc37261953684744ec4ccc734d5083000000000000000000000000000000000000000000000000000000000003d090",
          "blockHash": "0xcb503561eb414297fcea29338df42826624d7b809ed53d8440499de9c590c36f",
          "blockNumber": "0x207c1cb",
          "transactionHash": "0xe29bad2e5bb80d55beeeb78f9f643b17e24d7f93949038d10a823531e42c98c7",
          "transactionIndex": "0x7",
          "logIndex": "0x10",
          "removed": false
        },
        {
          "address": "0xd2b508298fcc37261953684744ec4ccc734d5083",
          "topics": [
            "0x244160b15e69cc411f041d94ae7fab6f6bba85dade8403216c05ff4b920d5449",
            "0x000000000000000000000000000000000000000000000000000000000000000a"
          ],
          "data": "0x000000000000000000000000000000000000000000000000000000000003d090",
          "blockHash": "0xcb503561eb414297fcea29338df42826624d7b809ed53d8440499de9c590c36f",
          "blockNumber": "0x207c1cb",
          "transactionHash": "0xe29bad2e5bb80d55beeeb78f9f643b17e24d7f93949038d10a823531e42c98c7",
          "transactionIndex": "0x7",
          "logIndex": "0x11",
          "removed": false
        }
      ],
      "logsBloom": "0x0000000000000011020002000000000000100000000000000000000000000010000000080000000000000000000400000000000084020000002000000020000000000000000000080000000800000000000000000000000000000004000000000000000002000000000000000000080000000000000000004000001000000000000001000000000001000000000040000000000000000000020000000000000002000010000100000000004000000000100000000000000040000000000001000200000200008000000000a040000050000000000000001800000000000120000110100000000080000000000000000040000000000010000000400000000000",
      "type": "0x0",
      "transactionHash": "0xe29bad2e5bb80d55beeeb78f9f643b17e24d7f93949038d10a823531e42c98c7",
      "transactionIndex": "0x7",
      "blockHash": "0xcb503561eb414297fcea29338df42826624d7b809ed53d8440499de9c590c36f",
      "blockNumber": "0x207c1cb",
      "gasUsed": "0x38376",
      "effectiveGasPrice": "0x5d22cfc40",
      "from": "0x3a4db9e7306af09012ceb0f222d581fd1f0c6d71",
      "to": "0xd2b508298fcc37261953684744ec4ccc734d5083",
      "contractAddress": null,
      "l1BaseFeeScalar": "0x0",
      "l1BlobBaseFee": "0x1d982c39",
      "l1BlobBaseFeeScalar": "0x0",
      "l1Fee": "0x0",
      "l1GasPrice": "0x442ada81",
      "l1GasUsed": "0x640"
    },
    {
      "status": "0x1",
      "cumulativeGasUsed": "0x10716a",
      "logs": [
        {
          "address": "0xdbe517c0fa6467873b684eccbed77217e471e862",
          "topics": [
            "0xddf252ad1be2c89b69c2b068fc378daa952ba7f163c4a11628f55a4df523b3ef",
            "0x0000000000000000000000000000000000000000000000000000000000000000",
            "0x000000000000000000000000d2b508298fcc37261953684744ec4ccc734d5083"
          ],
          "data": "0x000000000000000000000000000000000000000000000000000000000001e848",
          "blockHash": "0xcb503561eb414297fcea29338df42826624d7b809ed53d8440499de9c590c36f",
          "blockNumber": "0x207c1cb",
          "transactionHash": "0xe7dfb11862ac885e478dbf76bc374e31e1799162a67a0d000e02deeaf697b33f",
          "transactionIndex": "0x8",
          "logIndex": "0x12",
          "removed": false
        },
        {
          "address": "0xdbe517c0fa6467873b684eccbed77217e471e862",
          "topics": [
            "0x458f5fa412d0f69b08dd84872b0215675cc67bc1d5b6fd93300a1c3878b86196",
            "0x000000000000000000000000d2b508298fcc37261953684744ec4ccc734d5083",
            "0x000000000000000000000000d2b508298fcc37261953684744ec4ccc734d5083"
          ],
          "data": "0x000000000000000000000000000000000000000000000000000000000001e84800000000000000000000000000000000000000000000000000000000000000000000000000000000000000000000000000000000033c60cc824002eeab5f15d5",
          "blockHash": "0xcb503561eb414297fcea29338df42826624d7b809ed53d8440499de9c590c36f",
          "blockNumber": "0x207c1cb",
          "transactionHash": "0xe7dfb11862ac885e478dbf76bc374e31e1799162a67a0d000e02deeaf697b33f",
          "transactionIndex": "0x8",
          "logIndex": "0x13",
          "removed": false
        },
        {
          "address": "0x3e59a31363e2ad014dcbc521c4a0d5757d9f3402",
          "topics": [
            "0x804c9b842b2748a22bb64b345453a3de7ca54a6ca45ce00d415894979e22897a",
            "0x000000000000000000000000ceba9300f2b948710d2653dd7b07f33a8b32118c"
          ],
          "data": "0x00000000000000000000000000000000000000000000d6335b23f6aed32b8712000000000000000000000000000000000000000000000000000000000000000000000000000000000000000000000000000000000007bbdf1eb5090cc70423b20000000000000000000000000000000000000000033b6aa4dcdd1364b89213590000000000000000000000000000000000000000033c60cc824002eeab5f15d5",
          "blockHash": "0xcb503561eb414297fcea29338df42826624d7b809ed53d8440499de9c590c36f",
          "blockNumber": "0x207c1cb",
          "transactionHash": "0xe7dfb11862ac885e478dbf76bc374e31e1799162a67a0d000e02deeaf697b33f",
          "transactionIndex": "0x8",
          "logIndex": "0x14",
          "removed": false
        },
        {
          "address": "0xceba9300f2b948710d2653dd7b07f33a8b32118c",
          "topics": [
            "0xddf252ad1be2c89b69c2b068fc378daa952ba7f163c4a11628f55a4df523b3ef",
            "0x000000000000000000000000ff8309b9e99bfd2d4021bc71a362abd93dbd4785",
            "0x000000000000000000000000d2b508298fcc37261953684744ec4ccc734d5083"
          ],
          "data": "0x000000000000000000000000000000000000000000000000000000000001e848",
          "blockHash": "0xcb503561eb414297fcea29338df42826624d7b809ed53d8440499de9c590c36f",
          "blockNumber": "0x207c1cb",
          "transactionHash": "0xe7dfb11862ac885e478dbf76bc374e31e1799162a67a0d000e02deeaf697b33f",
          "transactionIndex": "0x8",
          "logIndex": "0x15",
          "removed": false
        },
        {
          "address": "0x3e59a31363e2ad014dcbc521c4a0d5757d9f3402",
          "topics": [
            "0xb3d084820fb1a9decffb176436bd02558d15fac9b0ddfed8c465bc7359d7dce0",
            "0x000000000000000000000000ceba9300f2b948710d2653dd7b07f33a8b32118c",
            "0x000000000000000000000000d2b508298fcc37261953684744ec4ccc734d5083",
            "0x0000000000000000000000000000000000000000000000000000000000000000"
          ],
          "data": "0x000000000000000000000000d2b508298fcc37261953684744ec4ccc734d5083000000000000000000000000000000000000000000000000000000000001e848000000000000000000000000000000000000000000000000000000000000000200000000000000000000000000000000000000000007bbdf1eb5090cc70423b2",
          "blockHash": "0xcb503561eb414297fcea29338df42826624d7b809ed53d8440499de9c590c36f",
          "blockNumber": "0x207c1cb",
          "transactionHash": "0xe7dfb11862ac885e478dbf76bc374e31e1799162a67a0d000e02deeaf697b33f",
          "transactionIndex": "0x8",
          "logIndex": "0x16",
          "removed": false
        },
        {
          "address": "0xceba9300f2b948710d2653dd7b07f33a8b32118c",
          "topics": [
            "0xddf252ad1be2c89b69c2b068fc378daa952ba7f163c4a11628f55a4df523b3ef",
            "0x000000000000000000000000d2b508298fcc37261953684744ec4ccc734d5083",
            "0x0000000000000000000000003a4db9e7306af09012ceb0f222d581fd1f0c6d71"
          ],
          "data": "0x000000000000000000000000000000000000000000000000000000000001e848",
          "blockHash": "0xcb503561eb414297fcea29338df42826624d7b809ed53d8440499de9c590c36f",
          "blockNumber": "0x207c1cb",
          "transactionHash": "0xe7dfb11862ac885e478dbf76bc374e31e1799162a67a0d000e02deeaf697b33f",
          "transactionIndex": "0x8",
          "logIndex": "0x17",
          "removed": false
        },
        {
          "address": "0xd2b508298fcc37261953684744ec4ccc734d5083",
          "topics": [
            "0xf3a2c404b3362c4238317c3dad1020c2e9e984ba8df38a4a1ff18d57e92a242a",
            "0x000000000000000000000000000000000000000000000000000000000000000a"
          ],
          "data": "0x000000000000000000000000000000000000000000000000000000000001e848",
          "blockHash": "0xcb503561eb414297fcea29338df42826624d7b809ed53d8440499de9c590c36f",
          "blockNumber": "0x207c1cb",
          "transactionHash": "0xe7dfb11862ac885e478dbf76bc374e31e1799162a67a0d000e02deeaf697b33f",
          "transactionIndex": "0x8",
          "logIndex": "0x18",
          "removed": false
        }
      ],
      "logsBloom": "0x00000000000000100000100000400000000000000000000000000000000000100000000000000000000000000004400000100000840000000020000000000000000000008000000000000008000000000000000000000000000000040000000000000000020000000000000000000800000000000000000000000010000000000000000000000010010000000000400000000000000000002200000000000000000001000000000000000000000000000000000000000000400000000000010002000002000081200000022000000000000000400000041800000000000020000100100000004010000800000001000000000000000010000800000000000000",
      "type": "0x0",
      "transactionHash": "0xe7dfb11862ac885e478dbf76bc374e31e1799162a67a0d000e02deeaf697b33f",
      "transactionIndex": "0x8",
      "blockHash": "0xcb503561eb414297fcea29338df42826624d7b809ed53d8440499de9c590c36f",
      "blockNumber": "0x207c1cb",
      "gasUsed": "0x5b4f2",
      "effectiveGasPrice": "0x5d22cfc40",
      "from": "0x3a4db9e7306af09012ceb0f222d581fd1f0c6d71",
      "to": "0xd2b508298fcc37261953684744ec4ccc734d5083",
      "contractAddress": null,
      "l1BaseFeeScalar": "0x0",
      "l1BlobBaseFee": "0x1d982c39",
      "l1BlobBaseFeeScalar": "0x0",
      "l1Fee": "0x0",
      "l1GasPrice": "0x442ada81",
      "l1GasUsed": "0x640"
    },
    {
      "status": "0x1",
      "cumulativeGasUsed": "0x11a7c2",
      "logs": [
        {
          "address": "0xceba9300f2b948710d2653dd7b07f33a8b32118c",
          "topics": [
            "0x8c5be1e5ebec7d5bd14f71427d1e84f3dd0314c0f7b2291e5b200ac8c7c3b925",
            "0x0000000000000000000000003a4db9e7306af09012ceb0f222d581fd1f0c6d71",
            "0x000000000000000000000000d2b508298fcc37261953684744ec4ccc734d5083"
          ],
          "data": "0x000000000000000000000000000000000000000000000000000000000002dc6c",
          "blockHash": "0xcb503561eb414297fcea29338df42826624d7b809ed53d8440499de9c590c36f",
          "blockNumber": "0x207c1cb",
          "transactionHash": "0x95d98be2b72a2e2e45108b0e18df45a15c54e0cea3095563a01ecee099876e91",
          "transactionIndex": "0xa",
          "logIndex": "0x1a",
          "removed": false
        }
      ],
      "logsBloom": "0x00000000000000000000100000000000000000000000000000000000000000000000000000000000000000000000000000000000000000000000000000200000000000000000000000000000000000000000000000000000000000000000000000000000000000000000000000000000000000000000000000000000000000000000000000000000000000000000400000000000000000000000000000000000020000000000000000000000000000000000000000000000000000000000000000000000000080000000020000000000000000000000001000000000000000000110100000000000000800000000000000000000000010000000000000000000",
      "type": "0x0",
      "transactionHash": "0x95d98be2b72a2e2e45108b0e18df45a15c54e0cea3095563a01ecee099876e91",
      "transactionIndex": "0xa",
      "blockHash": "0xcb503561eb414297fcea29338df42826624d7b809ed53d8440499de9c590c36f",
      "blockNumber": "0x207c1cb",
      "gasUsed": "0x8ad1",
      "effectiveGasPrice": "0x5d22cfc40",
      "from": "0x3a4db9e7306af09012ceb0f222d581fd1f0c6d71",
      "to": "0xceba9300f2b948710d2653dd7b07f33a8b32118c",
      "contractAddress": null,
      "l1BaseFeeScalar": "0x0",
      "l1BlobBaseFee": "0x1d982c39",
      "l1BlobBaseFeeScalar": "0x0",
      "l1Fee": "0x0",
      "l1GasPrice": "0x442ada81",
      "l1GasUsed": "0x640"
    },
    {
      "status": "0x1",
      "cumulativeGasUsed": "0x24e17f",
      "logs": [
        {
          "address": "0xceba9300f2b948710d2653dd7b07f33a8b32118c",
          "topics": [
            "0xddf252ad1be2c89b69c2b068fc378daa952ba7f163c4a11628f55a4df523b3ef",
            "0x0000000000000000000000003a4db9e7306af09012ceb0f222d581fd1f0c6d71",
            "0x000000000000000000000000d2b508298fcc37261953684744ec4ccc734d5083"
          ],
          "data": "0x000000000000000000000000000000000000000000000000000000000002dc6c",
          "blockHash": "0xd25e02f1c6fa7daaebf39401f848dd4685167b852d62c2918e00aa2a5455d1cf",
          "blockNumber": "0x207c1cc",
          "transactionHash": "0x13c9eb1adf16c272ab39c35a56d8dd055b26be2dcaf87c19cfac9c22cee51777",
          "transactionIndex": "0xa",
          "logIndex": "0x33",
          "removed": false
        },
        {
          "address": "0xceba9300f2b948710d2653dd7b07f33a8b32118c",
          "topics": [
            "0x8c5be1e5ebec7d5bd14f71427d1e84f3dd0314c0f7b2291e5b200ac8c7c3b925",
            "0x000000000000000000000000d2b508298fcc37261953684744ec4ccc734d5083",
            "0x0000000000000000000000003e59a31363e2ad014dcbc521c4a0d5757d9f3402"
          ],
          "data": "0x000000000000000000000000000000000000000000000000000000000002dc6c",
          "blockHash": "0xd25e02f1c6fa7daaebf39401f848dd4685167b852d62c2918e00aa2a5455d1cf",
          "blockNumber": "0x207c1cc",
          "transactionHash": "0x13c9eb1adf16c272ab39c35a56d8dd055b26be2dcaf87c19cfac9c22cee51777",
          "transactionIndex": "0xa",
          "logIndex": "0x34",
          "removed": false
        },
        {
          "address": "0xdbe517c0fa6467873b684eccbed77217e471e862",
          "topics": [
            "0xddf252ad1be2c89b69c2b068fc378daa952ba7f163c4a11628f55a4df523b3ef",
            "0x000000000000000000000000d2b508298fcc37261953684744ec4ccc734d5083",
            "0x0000000000000000000000000000000000000000000000000000000000000000"
          ],
          "data": "0x000000000000000000000000000000000000000000000000000000000002dc6c",
          "blockHash": "0xd25e02f1c6fa7daaebf39401f848dd4685167b852d62c2918e00aa2a5455d1cf",
          "blockNumber": "0x207c1cc",
          "transactionHash": "0x13c9eb1adf16c272ab39c35a56d8dd055b26be2dcaf87c19cfac9c22cee51777",
          "transactionIndex": "0xa",
          "logIndex": "0x35",
          "removed": false
        },
        {
          "address": "0xdbe517c0fa6467873b684eccbed77217e471e862",
          "topics": [
            "0x4cf25bc1d991c17529c25213d3cc0cda295eeaad5f13f361969b12ea48015f90",
            "0x000000000000000000000000d2b508298fcc37261953684744ec4ccc734d5083",
            "0x0000000000000000000000000000000000000000000000000000000000000000"
          ],
          "data": "0x000000000000000000000000000000000000000000000000000000000002dc6c00000000000000000000000000000000000000000000000000000000000000000000000000000000000000000000000000000000033c60cc865ed4fdd02d034b",
          "blockHash": "0xd25e02f1c6fa7daaebf39401f848dd4685167b852d62c2918e00aa2a5455d1cf",
          "blockNumber": "0x207c1cc",
          "transactionHash": "0x13c9eb1adf16c272ab39c35a56d8dd055b26be2dcaf87c19cfac9c22cee51777",
          "transactionIndex": "0xa",
          "logIndex": "0x36",
          "removed": false
        },
        {
          "address": "0x3e59a31363e2ad014dcbc521c4a0d5757d9f3402",
          "topics": [
            "0x804c9b842b2748a22bb64b345453a3de7ca54a6ca45ce00d415894979e22897a",
            "0x000000000000000000000000ceba9300f2b948710d2653dd7b07f33a8b32118c"
          ],
          "data": "0x00000000000000000000000000000000000000000000d63326ad5de0f43f0fcc000000000000000000000000000000000000000000000000000000000000000000000000000000000000000000000000000000000007bbde2c3efe455c1793e20000000000000000000000000000000000000000033b6aa4dd4f103c6beaf5350000000000000000000000000000000000000000033c60cc865ed4fdd02d034b",
          "blockHash": "0xd25e02f1c6fa7daaebf39401f848dd4685167b852d62c2918e00aa2a5455d1cf",
          "blockNumber": "0x207c1cc",
          "transactionHash": "0x13c9eb1adf16c272ab39c35a56d8dd055b26be2dcaf87c19cfac9c22cee51777",
          "transactionIndex": "0xa",
          "logIndex": "0x37",
          "removed": false
        },
        {
          "address": "0xceba9300f2b948710d2653dd7b07f33a8b32118c",
          "topics": [
            "0xddf252ad1be2c89b69c2b068fc378daa952ba7f163c4a11628f55a4df523b3ef",
            "0x000000000000000000000000d2b508298fcc37261953684744ec4ccc734d5083",
            "0x000000000000000000000000ff8309b9e99bfd2d4021bc71a362abd93dbd4785"
          ],
          "data": "0x000000000000000000000000000000000000000000000000000000000002dc6c",
          "blockHash": "0xd25e02f1c6fa7daaebf39401f848dd4685167b852d62c2918e00aa2a5455d1cf",
          "blockNumber": "0x207c1cc",
          "transactionHash": "0x13c9eb1adf16c272ab39c35a56d8dd055b26be2dcaf87c19cfac9c22cee51777",
          "transactionIndex": "0xa",
          "logIndex": "0x38",
          "removed": false
        },
        {
          "address": "0x3e59a31363e2ad014dcbc521c4a0d5757d9f3402",
          "topics": [
            "0xa534c8dbe71f871f9f3530e97a74601fea17b426cae02e1c5aee42c96c784051",
            "0x000000000000000000000000ceba9300f2b948710d2653dd7b07f33a8b32118c",
            "0x000000000000000000000000d2b508298fcc37261953684744ec4ccc734d5083",
            "0x000000000000000000000000d2b508298fcc37261953684744ec4ccc734d5083"
          ],
          "data": "0x000000000000000000000000000000000000000000000000000000000002dc6c0000000000000000000000000000000000000000000000000000000000000000",
          "blockHash": "0xd25e02f1c6fa7daaebf39401f848dd4685167b852d62c2918e00aa2a5455d1cf",
          "blockNumber": "0x207c1cc",
          "transactionHash": "0x13c9eb1adf16c272ab39c35a56d8dd055b26be2dcaf87c19cfac9c22cee51777",
          "transactionIndex": "0xa",
          "logIndex": "0x39",
          "removed": false
        },
        {
          "address": "0xd2b508298fcc37261953684744ec4ccc734d5083",
          "topics": [
            "0x0d4979b0859a1951f8ed7cbe3b1994e740552588f27ba02ca0f8f1ddcad16e0c",
            "0x000000000000000000000000000000000000000000000000000000000000000a"
          ],
          "data": "0x000000000000000000000000000000000000000000000000000000000002dc6c",
          "blockHash": "0xd25e02f1c6fa7daaebf39401f848dd4685167b852d62c2918e00aa2a5455d1cf",
          "blockNumber": "0x207c1cc",
          "transactionHash": "0x13c9eb1adf16c272ab39c35a56d8dd055b26be2dcaf87c19cfac9c22cee51777",
          "transactionIndex": "0xa",
          "logIndex": "0x3a",
          "removed": false
        }
      ],
      "logsBloom": "0x10000000000000110000120010400000000000000000000000000000000000100000000000000000000000000000400000110000c40000000020000000200000000000008000000000000008000000000000002000000000000000000000000080000000020000000000000000000800000000000000000000000010000000000000000000000000010000000000400000000000000000002200000000000000020001100000000000000000000000000000000000000000400000000000010000000002000080200000022000000000000000000000001800000000000020040110100000004010000800000000000000000000000010000000000000040000",
      "type": "0x0",
      "transactionHash": "0x13c9eb1adf16c272ab39c35a56d8dd055b26be2dcaf87c19cfac9c22cee51777",
      "transactionIndex": "0xa",
      "blockHash": "0xd25e02f1c6fa7daaebf39401f848dd4685167b852d62c2918e00aa2a5455d1cf",
      "blockNumber": "0x207c1cc",
      "gasUsed": "0x36eeb",
      "effectiveGasPrice": "0x5d22cfc40",
      "from": "0x3a4db9e7306af09012ceb0f222d581fd1f0c6d71",
      "to": "0xd2b508298fcc37261953684744ec4ccc734d5083",
      "contractAddress": null,
      "l1BaseFeeScalar": "0x0",
      "l1BlobBaseFee": "0x1d982c39",
      "l1BlobBaseFeeScalar": "0x0",
      "l1Fee": "0x0",
      "l1GasPrice": "0x442ada81",
      "l1GasUsed": "0x640"
    },
    {
      "status": "0x1",
      "cumulativeGasUsed": "0x2a0564",
      "logs": [
        {
          "address": "0x3e59a31363e2ad014dcbc521c4a0d5757d9f3402",
          "topics": [
            "0x804c9b842b2748a22bb64b345453a3de7ca54a6ca45ce00d415894979e22897a",
            "0x00000000000000000000000048065fbbe25f71c9282ddf5e1cd6d6a887483d5e"
          ],
          "data": "0x00000000000000000000000000000000000000000000000c95ac981dfa0ee5390000000000000000000000000000000000000000000000000000000000000000000000000000000000000000000000000000000000001dfe57a90814bbea020c0000000000000000000000000000000000000000033b5f8e3b2aadc6732e03960000000000000000000000000000000000000000033bcce29af39d6f28bc5eeb",
          "blockHash": "0xd25e02f1c6fa7daaebf39401f848dd4685167b852d62c2918e00aa2a5455d1cf",
          "blockNumber": "0x207c1cc",
          "transactionHash": "0x0e8787efe26eda86f4ad064a53043bc67d54669055cd615e0eb163b529193f34",
          "transactionIndex": "0xb",
          "logIndex": "0x3b",
          "removed": false
        },
        {
          "address": "0xdee98402a302e4d707fb9bf2bac66faeec31e8df",
          "topics": [
            "0xddf252ad1be2c89b69c2b068fc378daa952ba7f163c4a11628f55a4df523b3ef",
            "0x000000000000000000000000d2b508298fcc37261953684744ec4ccc734d5083",
            "0x0000000000000000000000000000000000000000000000000000000000000000"
          ],
          "data": "0x00000000000000000000000000000000000000000000000000000000000249f0",
          "blockHash": "0xd25e02f1c6fa7daaebf39401f848dd4685167b852d62c2918e00aa2a5455d1cf",
          "blockNumber": "0x207c1cc",
          "transactionHash": "0x0e8787efe26eda86f4ad064a53043bc67d54669055cd615e0eb163b529193f34",
          "transactionIndex": "0xb",
          "logIndex": "0x3c",
          "removed": false
        },
        {
          "address": "0xdee98402a302e4d707fb9bf2bac66faeec31e8df",
          "topics": [
            "0x4cf25bc1d991c17529c25213d3cc0cda295eeaad5f13f361969b12ea48015f90",
            "0x000000000000000000000000d2b508298fcc37261953684744ec4ccc734d5083",
            "0x0000000000000000000000003a4db9e7306af09012ceb0f222d581fd1f0c6d71"
          ],
          "data": "0x00000000000000000000000000000000000000000000000000000000000249f000000000000000000000000000000000000000000000000000000000000000000000000000000000000000000000000000000000033b5f8e3b2aadc6732e0396",
          "blockHash": "0xd25e02f1c6fa7daaebf39401f848dd4685167b852d62c2918e00aa2a5455d1cf",
          "blockNumber": "0x207c1cc",
          "transactionHash": "0x0e8787efe26eda86f4ad064a53043bc67d54669055cd615e0eb163b529193f34",
          "transactionIndex": "0xb",
          "logIndex": "0x3d",
          "removed": false
        },
        {
          "address": "0x48065fbbe25f71c9282ddf5e1cd6d6a887483d5e",
          "topics": [
            "0xddf252ad1be2c89b69c2b068fc378daa952ba7f163c4a11628f55a4df523b3ef",
            "0x000000000000000000000000dee98402a302e4d707fb9bf2bac66faeec31e8df",
            "0x0000000000000000000000003a4db9e7306af09012ceb0f222d581fd1f0c6d71"
          ],
          "data": "0x00000000000000000000000000000000000000000000000000000000000249f0",
          "blockHash": "0xd25e02f1c6fa7daaebf39401f848dd4685167b852d62c2918e00aa2a5455d1cf",
          "blockNumber": "0x207c1cc",
          "transactionHash": "0x0e8787efe26eda86f4ad064a53043bc67d54669055cd615e0eb163b529193f34",
          "transactionIndex": "0xb",
          "logIndex": "0x3e",
          "removed": false
        },
        {
          "address": "0x3e59a31363e2ad014dcbc521c4a0d5757d9f3402",
          "topics": [
            "0x3115d1449a7b732c986cba18244e897a450f61e1bb8d589cd2e69e6c8924f9f7",
            "0x00000000000000000000000048065fbbe25f71c9282ddf5e1cd6d6a887483d5e",
            "0x000000000000000000000000d2b508298fcc37261953684744ec4ccc734d5083",
            "0x0000000000000000000000003a4db9e7306af09012ceb0f222d581fd1f0c6d71"
          ],
          "data": "0x00000000000000000000000000000000000000000000000000000000000249f0",
          "blockHash": "0xd25e02f1c6fa7daaebf39401f848dd4685167b852d62c2918e00aa2a5455d1cf",
          "blockNumber": "0x207c1cc",
          "transactionHash": "0x0e8787efe26eda86f4ad064a53043bc67d54669055cd615e0eb163b529193f34",
          "transactionIndex": "0xb",
          "logIndex": "0x3f",
          "removed": false
        },
        {
          "address": "0xd2b508298fcc37261953684744ec4ccc734d5083",
          "topics": [
            "0x2399e8aed1977410745a5211d8226a3a7d9278f50a8a197c5ec6e285bb437f0b",
            "0x000000000000000000000000000000000000000000000000000000000000000a"
          ],
          "data": "0x00000000000000000000000000000000000000000000000000000000000249f0",
          "blockHash": "0xd25e02f1c6fa7daaebf39401f848dd4685167b852d62c2918e00aa2a5455d1cf",
          "blockNumber": "0x207c1cc",
          "transactionHash": "0x0e8787efe26eda86f4ad064a53043bc67d54669055cd615e0eb163b529193f34",
          "transactionIndex": "0xb",
          "logIndex": "0x40",
          "removed": false
        }
      ],
      "logsBloom": "0x1000000000000010020000000000000000900000000000000000000000000010000000080000000000000000000000000001000084000000002000000000000000000000000000080000000800000000000000000000000000000000000000000000000002000000000000000000080000000000002002004000001000000000000001000000000001000000000040000000000000006000020000000000000000000000008100000000004000000000100000000000000040000000000001000000000200008000000000a000000040000000000000001800000000000120040100100000000000000000000000000000000000000010000000000000000000",
      "type": "0x0",
      "transactionHash": "0x0e8787efe26eda86f4ad064a53043bc67d54669055cd615e0eb163b529193f34",
      "transactionIndex": "0xb",
      "blockHash": "0xd25e02f1c6fa7daaebf39401f848dd4685167b852d62c2918e00aa2a5455d1cf",
      "blockNumber": "0x207c1cc",
      "gasUsed": "0x523e5",
      "effectiveGasPrice": "0x5d22cfc40",
      "from": "0x3a4db9e7306af09012ceb0f222d581fd1f0c6d71",
      "to": "0xd2b508298fcc37261953684744ec4ccc734d5083",
      "contractAddress": null,
      "l1BaseFeeScalar": "0x0",
      "l1BlobBaseFee": "0x1d982c39",
      "l1BlobBaseFeeScalar": "0x0",
      "l1Fee": "0x0",
      "l1GasPrice": "0x442ada81",
      "l1GasUsed": "0x640"
    },
    {
      "status": "0x1",
      "cumulativeGasUsed": "0x2addf1",
      "logs": [
        {
          "address": "0xceba9300f2b948710d2653dd7b07f33a8b32118c",
          "topics": [
            "0x8c5be1e5ebec7d5bd14f71427d1e84f3dd0314c0f7b2291e5b200ac8c7c3b925",
            "0x0000000000000000000000003a4db9e7306af09012ceb0f222d581fd1f0c6d71",
            "0x000000000000000000000000d2b508298fcc37261953684744ec4ccc734d5083"
          ],
          "data": "0x000000000000000000000000000000000000000000000000000000000005b8d8",
          "blockHash": "0xd25e02f1c6fa7daaebf39401f848dd4685167b852d62c2918e00aa2a5455d1cf",
          "blockNumber": "0x207c1cc",
          "transactionHash": "0xbbce447cb0690dacd96747e45281a402575e40585bca706a426984e3b4fa52ea",
          "transactionIndex": "0xc",
          "logIndex": "0x41",
          "removed": false
        }
      ],
      "logsBloom": "0x00000000000000000000100000000000000000000000000000000000000000000000000000000000000000000000000000000000000000000000000000200000000000000000000000000000000000000000000000000000000000000000000000000000000000000000000000000000000000000000000000000000000000000000000000000000000000000000400000000000000000000000000000000000020000000000000000000000000000000000000000000000000000000000000000000000000080000000020000000000000000000000001000000000000000000110100000000000000800000000000000000000000010000000000000000000",
      "type": "0x0",
      "transactionHash": "0xbbce447cb0690dacd96747e45281a402575e40585bca706a426984e3b4fa52ea",
      "transactionIndex": "0xc",
      "blockHash": "0xd25e02f1c6fa7daaebf39401f848dd4685167b852d62c2918e00aa2a5455d1cf",
      "blockNumber": "0x207c1cc",
      "gasUsed": "0xd88d",
      "effectiveGasPrice": "0x5d22cfc40",
      "from": "0x3a4db9e7306af09012ceb0f222d581fd1f0c6d71",
      "to": "0xceba9300f2b948710d2653dd7b07f33a8b32118c",
      "contractAddress": null,
      "l1BaseFeeScalar": "0x0",
      "l1BlobBaseFee": "0x1d982c39",
      "l1BlobBaseFeeScalar": "0x0",
      "l1Fee": "0x0",
      "l1GasPrice": "0x442ada81",
      "l1GasUsed": "0x640"
    },
    {
      "status": "0x1",
      "cumulativeGasUsed": "0x2e2446",
      "logs": [
        {
          "address": "0xceba9300f2b948710d2653dd7b07f33a8b32118c",
          "topics": [
            "0xddf252ad1be2c89b69c2b068fc378daa952ba7f163c4a11628f55a4df523b3ef",
            "0x0000000000000000000000003a4db9e7306af09012ceb0f222d581fd1f0c6d71",
            "0x000000000000000000000000d2b508298fcc37261953684744ec4ccc734d5083"
          ],
          "data": "0x000000000000000000000000000000000000000000000000000000000002dc6c",
          "blockHash": "0xd25e02f1c6fa7daaebf39401f848dd4685167b852d62c2918e00aa2a5455d1cf",
          "blockNumber": "0x207c1cc",
          "transactionHash": "0xf5a964f4e92efca15502fb41b8f8c2950d493c009d52ee8db08437bea2eaf2ab",
          "transactionIndex": "0xd",
          "logIndex": "0x42",
          "removed": false
        },
        {
          "address": "0xceba9300f2b948710d2653dd7b07f33a8b32118c",
          "topics": [
            "0x8c5be1e5ebec7d5bd14f71427d1e84f3dd0314c0f7b2291e5b200ac8c7c3b925",
            "0x000000000000000000000000d2b508298fcc37261953684744ec4ccc734d5083",
            "0x0000000000000000000000003e59a31363e2ad014dcbc521c4a0d5757d9f3402"
          ],
          "data": "0x000000000000000000000000000000000000000000000000000000000002dc6c",
          "blockHash": "0xd25e02f1c6fa7daaebf39401f848dd4685167b852d62c2918e00aa2a5455d1cf",
          "blockNumber": "0x207c1cc",
          "transactionHash": "0xf5a964f4e92efca15502fb41b8f8c2950d493c009d52ee8db08437bea2eaf2ab",
          "transactionIndex": "0xd",
          "logIndex": "0x43",
          "removed": false
        },
        {
          "address": "0xdbe517c0fa6467873b684eccbed77217e471e862",
          "topics": [
            "0xddf252ad1be2c89b69c2b068fc378daa952ba7f163c4a11628f55a4df523b3ef",
            "0x000000000000000000000000d2b508298fcc37261953684744ec4ccc734d5083",
            "0x0000000000000000000000000000000000000000000000000000000000000000"
          ],
          "data": "0x000000000000000000000000000000000000000000000000000000000002dc6c",
          "blockHash": "0xd25e02f1c6fa7daaebf39401f848dd4685167b852d62c2918e00aa2a5455d1cf",
          "blockNumber": "0x207c1cc",
          "transactionHash": "0xf5a964f4e92efca15502fb41b8f8c2950d493c009d52ee8db08437bea2eaf2ab",
          "transactionIndex": "0xd",
          "logIndex": "0x44",
          "removed": false
        },
        {
          "address": "0xdbe517c0fa6467873b684eccbed77217e471e862",
          "topics": [
            "0x4cf25bc1d991c17529c25213d3cc0cda295eeaad5f13f361969b12ea48015f90",
            "0x000000000000000000000000d2b508298fcc37261953684744ec4ccc734d5083",
            "0x0000000000000000000000000000000000000000000000000000000000000000"
          ],
          "data": "0x000000000000000000000000000000000000000000000000000000000002dc6c00000000000000000000000000000000000000000000000000000000000000000000000000000000000000000000000000000000033c60cc865ed4fdd02d034b",
          "blockHash": "0xd25e02f1c6fa7daaebf39401f848dd4685167b852d62c2918e00aa2a5455d1cf",
          "blockNumber": "0x207c1cc",
          "transactionHash": "0xf5a964f4e92efca15502fb41b8f8c2950d493c009d52ee8db08437bea2eaf2ab",
          "transactionIndex": "0xd",
          "logIndex": "0x45",
          "removed": false
        },
        {
          "address": "0x3e59a31363e2ad014dcbc521c4a0d5757d9f3402",
          "topics": [
            "0x804c9b842b2748a22bb64b345453a3de7ca54a6ca45ce00d415894979e22897a",
            "0x000000000000000000000000ceba9300f2b948710d2653dd7b07f33a8b32118c"
          ],
          "data": "0x00000000000000000000000000000000000000000000d632f234e771ec6b0dbf000000000000000000000000000000000000000000000000000000000000000000000000000000000000000000000000000000000007bbdd39c03668bb6ac0400000000000000000000000000000000000000000033b6aa4dd4f103c6beaf5350000000000000000000000000000000000000000033c60cc865ed4fdd02d034b",
          "blockHash": "0xd25e02f1c6fa7daaebf39401f848dd4685167b852d62c2918e00aa2a5455d1cf",
          "blockNumber": "0x207c1cc",
          "transactionHash": "0xf5a964f4e92efca15502fb41b8f8c2950d493c009d52ee8db08437bea2eaf2ab",
          "transactionIndex": "0xd",
          "logIndex": "0x46",
          "removed": false
        },
        {
          "address": "0xceba9300f2b948710d2653dd7b07f33a8b32118c",
          "topics": [
            "0xddf252ad1be2c89b69c2b068fc378daa952ba7f163c4a11628f55a4df523b3ef",
            "0x000000000000000000000000d2b508298fcc37261953684744ec4ccc734d5083",
            "0x000000000000000000000000ff8309b9e99bfd2d4021bc71a362abd93dbd4785"
          ],
          "data": "0x000000000000000000000000000000000000000000000000000000000002dc6c",
          "blockHash": "0xd25e02f1c6fa7daaebf39401f848dd4685167b852d62c2918e00aa2a5455d1cf",
          "blockNumber": "0x207c1cc",
          "transactionHash": "0xf5a964f4e92efca15502fb41b8f8c2950d493c009d52ee8db08437bea2eaf2ab",
          "transactionIndex": "0xd",
          "logIndex": "0x47",
          "removed": false
        },
        {
          "address": "0x3e59a31363e2ad014dcbc521c4a0d5757d9f3402",
          "topics": [
            "0xa534c8dbe71f871f9f3530e97a74601fea17b426cae02e1c5aee42c96c784051",
            "0x000000000000000000000000ceba9300f2b948710d2653dd7b07f33a8b32118c",
            "0x000000000000000000000000d2b508298fcc37261953684744ec4ccc734d5083",
            "0x000000000000000000000000d2b508298fcc37261953684744ec4ccc734d5083"
          ],
          "data": "0x000000000000000000000000000000000000000000000000000000000002dc6c0000000000000000000000000000000000000000000000000000000000000000",
          "blockHash": "0xd25e02f1c6fa7daaebf39401f848dd4685167b852d62c2918e00aa2a5455d1cf",
          "blockNumber": "0x207c1cc",
          "transactionHash": "0xf5a964f4e92efca15502fb41b8f8c2950d493c009d52ee8db08437bea2eaf2ab",
          "transactionIndex": "0xd",
          "logIndex": "0x48",
          "removed": false
        },
        {
          "address": "0xd2b508298fcc37261953684744ec4ccc734d5083",
          "topics": [
            "0x0d4979b0859a1951f8ed7cbe3b1994e740552588f27ba02ca0f8f1ddcad16e0c",
            "0x000000000000000000000000000000000000000000000000000000000000000a"
          ],
          "data": "0x000000000000000000000000000000000000000000000000000000000002dc6c",
          "blockHash": "0xd25e02f1c6fa7daaebf39401f848dd4685167b852d62c2918e00aa2a5455d1cf",
          "blockNumber": "0x207c1cc",
          "transactionHash": "0xf5a964f4e92efca15502fb41b8f8c2950d493c009d52ee8db08437bea2eaf2ab",
          "transactionIndex": "0xd",
          "logIndex": "0x49",
          "removed": false
        }
      ],
      "logsBloom": "0x10000000000000110000120010400000000000000000000000000000000000100000000000000000000000000000400000110000c40000000020000000200000000000008000000000000008000000000000002000000000000000000000000080000000020000000000000000000800000000000000000000000010000000000000000000000000010000000000400000000000000000002200000000000000020001100000000000000000000000000000000000000000400000000000010000000002000080200000022000000000000000000000001800000000000020040110100000004010000800000000000000000000000010000000000000040000",
      "type": "0x0",
      "transactionHash": "0xf5a964f4e92efca15502fb41b8f8c2950d493c009d52ee8db08437bea2eaf2ab",
      "transactionIndex": "0xd",
      "blockHash": "0xd25e02f1c6fa7daaebf39401f848dd4685167b852d62c2918e00aa2a5455d1cf",
      "blockNumber": "0x207c1cc",
      "gasUsed": "0x34655",
      "effectiveGasPrice": "0x5d22cfc40",
      "from": "0x3a4db9e7306af09012ceb0f222d581fd1f0c6d71",
      "to": "0xd2b508298fcc37261953684744ec4ccc734d5083",
      "contractAddress": null,
      "l1BaseFeeScalar": "0x0",
      "l1BlobBaseFee": "0x1d982c39",
      "l1BlobBaseFeeScalar": "0x0",
      "l1Fee": "0x0",
      "l1GasPrice": "0x442ada81",
      "l1GasUsed": "0x640"
    },
    {
      "status": "0x1",
      "cumulativeGasUsed": "0x3319df",
      "logs": [
        {
          "address": "0x3e59a31363e2ad014dcbc521c4a0d5757d9f3402",
          "topics": [
            "0x804c9b842b2748a22bb64b345453a3de7ca54a6ca45ce00d415894979e22897a",
            "0x00000000000000000000000048065fbbe25f71c9282ddf5e1cd6d6a887483d5e"
          ],
          "data": "0x00000000000000000000000000000000000000000000000c95acee24251556070000000000000000000000000000000000000000000000000000000000000000000000000000000000000000000000000000000000001dfe580f8b3a02c9c94a0000000000000000000000000000000000000000033b5f8e3b2aadc6732e03960000000000000000000000000000000000000000033bcce29af39d6f28bc5eeb",
          "blockHash": "0xd25e02f1c6fa7daaebf39401f848dd4685167b852d62c2918e00aa2a5455d1cf",
          "blockNumber": "0x207c1cc",
          "transactionHash": "0x4b0ba0e2cd8babe72819f1432bfe34cbe0ae3ba0679fa5439a1662c3773295d9",
          "transactionIndex": "0xe",
          "logIndex": "0x4a",
          "removed": false
        },
        {
          "address": "0xdee98402a302e4d707fb9bf2bac66faeec31e8df",
          "topics": [
            "0xddf252ad1be2c89b69c2b068fc378daa952ba7f163c4a11628f55a4df523b3ef",
            "0x000000000000000000000000d2b508298fcc37261953684744ec4ccc734d5083",
            "0x0000000000000000000000000000000000000000000000000000000000000000"
          ],
          "data": "0x00000000000000000000000000000000000000000000000000000000000927c0",
          "blockHash": "0xd25e02f1c6fa7daaebf39401f848dd4685167b852d62c2918e00aa2a5455d1cf",
          "blockNumber": "0x207c1cc",
          "transactionHash": "0x4b0ba0e2cd8babe72819f1432bfe34cbe0ae3ba0679fa5439a1662c3773295d9",
          "transactionIndex": "0xe",
          "logIndex": "0x4b",
          "removed": false
        },
        {
          "address": "0xdee98402a302e4d707fb9bf2bac66faeec31e8df",
          "topics": [
            "0x4cf25bc1d991c17529c25213d3cc0cda295eeaad5f13f361969b12ea48015f90",
            "0x000000000000000000000000d2b508298fcc37261953684744ec4ccc734d5083",
            "0x0000000000000000000000003a4db9e7306af09012ceb0f222d581fd1f0c6d71"
          ],
          "data": "0x00000000000000000000000000000000000000000000000000000000000927c000000000000000000000000000000000000000000000000000000000000000000000000000000000000000000000000000000000033b5f8e3b2aadc6732e0396",
          "blockHash": "0xd25e02f1c6fa7daaebf39401f848dd4685167b852d62c2918e00aa2a5455d1cf",
          "blockNumber": "0x207c1cc",
          "transactionHash": "0x4b0ba0e2cd8babe72819f1432bfe34cbe0ae3ba0679fa5439a1662c3773295d9",
          "transactionIndex": "0xe",
          "logIndex": "0x4c",
          "removed": false
        },
        {
          "address": "0x48065fbbe25f71c9282ddf5e1cd6d6a887483d5e",
          "topics": [
            "0xddf252ad1be2c89b69c2b068fc378daa952ba7f163c4a11628f55a4df523b3ef",
            "0x000000000000000000000000dee98402a302e4d707fb9bf2bac66faeec31e8df",
            "0x0000000000000000000000003a4db9e7306af09012ceb0f222d581fd1f0c6d71"
          ],
          "data": "0x00000000000000000000000000000000000000000000000000000000000927c0",
          "blockHash": "0xd25e02f1c6fa7daaebf39401f848dd4685167b852d62c2918e00aa2a5455d1cf",
          "blockNumber": "0x207c1cc",
          "transactionHash": "0x4b0ba0e2cd8babe72819f1432bfe34cbe0ae3ba0679fa5439a1662c3773295d9",
          "transactionIndex": "0xe",
          "logIndex": "0x4d",
          "removed": false
        },
        {
          "address": "0x3e59a31363e2ad014dcbc521c4a0d5757d9f3402",
          "topics": [
            "0x3115d1449a7b732c986cba18244e897a450f61e1bb8d589cd2e69e6c8924f9f7",
            "0x00000000000000000000000048065fbbe25f71c9282ddf5e1cd6d6a887483d5e",
            "0x000000000000000000000000d2b508298fcc37261953684744ec4ccc734d5083",
            "0x0000000000000000000000003a4db9e7306af09012ceb0f222d581fd1f0c6d71"
          ],
          "data": "0x00000000000000000000000000000000000000000000000000000000000927c0",
          "blockHash": "0xd25e02f1c6fa7daaebf39401f848dd4685167b852d62c2918e00aa2a5455d1cf",
          "blockNumber": "0x207c1cc",
          "transactionHash": "0x4b0ba0e2cd8babe72819f1432bfe34cbe0ae3ba0679fa5439a1662c3773295d9",
          "transactionIndex": "0xe",
          "logIndex": "0x4e",
          "removed": false
        },
        {
          "address": "0xd2b508298fcc37261953684744ec4ccc734d5083",
          "topics": [
            "0x2399e8aed1977410745a5211d8226a3a7d9278f50a8a197c5ec6e285bb437f0b",
            "0x000000000000000000000000000000000000000000000000000000000000000a"
          ],
          "data": "0x00000000000000000000000000000000000000000000000000000000000927c0",
          "blockHash": "0xd25e02f1c6fa7daaebf39401f848dd4685167b852d62c2918e00aa2a5455d1cf",
          "blockNumber": "0x207c1cc",
          "transactionHash": "0x4b0ba0e2cd8babe72819f1432bfe34cbe0ae3ba0679fa5439a1662c3773295d9",
          "transactionIndex": "0xe",
          "logIndex": "0x4f",
          "removed": false
        }
      ],
      "logsBloom": "0x1000000000000010020000000000000000900000000000000000000000000010000000080000000000000000000000000001000084000000002000000000000000000000000000080000000800000000000000000000000000000000000000000000000002000000000000000000080000000000002002004000001000000000000001000000000001000000000040000000000000006000020000000000000000000000008100000000004000000000100000000000000040000000000001000000000200008000000000a000000040000000000000001800000000000120040100100000000000000000000000000000000000000010000000000000000000",
      "type": "0x0",
      "transactionHash": "0x4b0ba0e2cd8babe72819f1432bfe34cbe0ae3ba0679fa5439a1662c3773295d9",
      "transactionIndex": "0xe",
      "blockHash": "0xd25e02f1c6fa7daaebf39401f848dd4685167b852d62c2918e00aa2a5455d1cf",
      "blockNumber": "0x207c1cc",
      "gasUsed": "0x4f599",
      "effectiveGasPrice": "0x5d22cfc40",
      "from": "0x3a4db9e7306af09012ceb0f222d581fd1f0c6d71",
      "to": "0xd2b508298fcc37261953684744ec4ccc734d5083",
      "contractAddress": null,
      "l1BaseFeeScalar": "0x0",
      "l1BlobBaseFee": "0x1d982c39",
      "l1BlobBaseFeeScalar": "0x0",
      "l1Fee": "0x0",
      "l1GasPrice": "0x442ada81",
      "l1GasUsed": "0x640"
    }
  ],
  "libraries": [],
  "pending": [],
  "returns": {},
  "timestamp": 1745963556,
  "chain": 42220,
  "commit": "1cefd9d"
}