{
  "transactions": [
    {
      "hash": "0xdd363cc391b7c358dbcf76f0a5f4799c30ec7398caca5b71fcd1be584387982b",
      "transactionType": "CALL",
      "contractName": null,
      "contractAddress": "0x79242d2f9a923ab409413edced60f5155d5a8d1e",
      "function": "addCollateralWithPermit(uint256,uint256,uint256,uint8,bytes32,bytes32)",
      "arguments": [
        "3",
        "250000",
        "1745679361",
        "28",
        "0x30b92ebbea763a9aa4aaad74f8a678dfb3be0b73e58f935001654c475893601a",
        "0x14745cec659f929ca79dcea6ebe37234e2d8e55ae84f240b05da4bd54059c293"
      ],
      "transaction": {
        "from": "0x3a4db9e7306af09012ceb0f222d581fd1f0c6d71",
        "to": "0x79242d2f9a923ab409413edced60f5155d5a8d1e",
        "gas": "0x5b5a5",
        "value": "0x0",
        "input": "0x558e45ba0000000000000000000000000000000000000000000000000000000000000003000000000000000000000000000000000000000000000000000000000003d09000000000000000000000000000000000000000000000000000000000680cf401000000000000000000000000000000000000000000000000000000000000001c30b92ebbea763a9aa4aaad74f8a678dfb3be0b73e58f935001654c475893601a14745cec659f929ca79dcea6ebe37234e2d8e55ae84f240b05da4bd54059c293",
        "nonce": "0x54",
        "chainId": "0xa4ec"
      },
      "additionalContracts": [],
      "isFixedGasLimit": false
    }
  ],
  "receipts": [
    {
      "status": "0x1",
      "cumulativeGasUsed": "0x1ce9a3",
      "logs": [
        {
          "address": "0x48065fbbe25f71c9282ddf5e1cd6d6a887483d5e",
          "topics": [
            "0x8c5be1e5ebec7d5bd14f71427d1e84f3dd0314c0f7b2291e5b200ac8c7c3b925",
            "0x0000000000000000000000003a4db9e7306af09012ceb0f222d581fd1f0c6d71",
            "0x00000000000000000000000079242d2f9a923ab409413edced60f5155d5a8d1e"
          ],
          "data": "0x000000000000000000000000000000000000000000000000000000000003d090",
          "blockHash": "0x6aeea5f98b7b5fd046dc01f15b906dd91b7b2115bdeffc85c73d9874f49b7558",
          "blockNumber": "0x2035db1",
          "transactionHash": "0xdd363cc391b7c358dbcf76f0a5f4799c30ec7398caca5b71fcd1be584387982b",
          "transactionIndex": "0xd",
          "logIndex": "0x2d",
          "removed": false
        },
        {
          "address": "0x48065fbbe25f71c9282ddf5e1cd6d6a887483d5e",
          "topics": [
            "0xddf252ad1be2c89b69c2b068fc378daa952ba7f163c4a11628f55a4df523b3ef",
            "0x0000000000000000000000003a4db9e7306af09012ceb0f222d581fd1f0c6d71",
            "0x00000000000000000000000079242d2f9a923ab409413edced60f5155d5a8d1e"
          ],
          "data": "0x000000000000000000000000000000000000000000000000000000000003d090",
          "blockHash": "0x6aeea5f98b7b5fd046dc01f15b906dd91b7b2115bdeffc85c73d9874f49b7558",
          "blockNumber": "0x2035db1",
          "transactionHash": "0xdd363cc391b7c358dbcf76f0a5f4799c30ec7398caca5b71fcd1be584387982b",
          "transactionIndex": "0xd",
          "logIndex": "0x2e",
          "removed": false
        },
        {
          "address": "0x48065fbbe25f71c9282ddf5e1cd6d6a887483d5e",
          "topics": [
            "0x8c5be1e5ebec7d5bd14f71427d1e84f3dd0314c0f7b2291e5b200ac8c7c3b925",
            "0x0000000000000000000000003a4db9e7306af09012ceb0f222d581fd1f0c6d71",
            "0x00000000000000000000000079242d2f9a923ab409413edced60f5155d5a8d1e"
          ],
          "data": "0x0000000000000000000000000000000000000000000000000000000000000000",
          "blockHash": "0x6aeea5f98b7b5fd046dc01f15b906dd91b7b2115bdeffc85c73d9874f49b7558",
          "blockNumber": "0x2035db1",
          "transactionHash": "0xdd363cc391b7c358dbcf76f0a5f4799c30ec7398caca5b71fcd1be584387982b",
          "transactionIndex": "0xd",
          "logIndex": "0x2f",
          "removed": false
        },
        {
          "address": "0x48065fbbe25f71c9282ddf5e1cd6d6a887483d5e",
          "topics": [
            "0x8c5be1e5ebec7d5bd14f71427d1e84f3dd0314c0f7b2291e5b200ac8c7c3b925",
            "0x00000000000000000000000079242d2f9a923ab409413edced60f5155d5a8d1e",
            "0x0000000000000000000000003e59a31363e2ad014dcbc521c4a0d5757d9f3402"
          ],
          "data": "0x000000000000000000000000000000000000000000000000000000000003d090",
          "blockHash": "0x6aeea5f98b7b5fd046dc01f15b906dd91b7b2115bdeffc85c73d9874f49b7558",
          "blockNumber": "0x2035db1",
          "transactionHash": "0xdd363cc391b7c358dbcf76f0a5f4799c30ec7398caca5b71fcd1be584387982b",
          "transactionIndex": "0xd",
          "logIndex": "0x30",
          "removed": false
        },
        {
          "address": "0x3e59a31363e2ad014dcbc521c4a0d5757d9f3402",
          "topics": [
            "0x804c9b842b2748a22bb64b345453a3de7ca54a6ca45ce00d415894979e22897a",
            "0x00000000000000000000000048065fbbe25f71c9282ddf5e1cd6d6a887483d5e"
          ],
          "data": "0x00000000000000000000000000000000000000000000000b15ec857fcc5c55730000000000000000000000000000000000000000000000000000000000000000000000000000000000000000000000000000000000001c268b412359adc638300000000000000000000000000000000000000000033b5f8e1f0a7f81940d31ca0000000000000000000000000000000000000000033bcc9e0f5b4ab19624bfde",
          "blockHash": "0x6aeea5f98b7b5fd046dc01f15b906dd91b7b2115bdeffc85c73d9874f49b7558",
          "blockNumber": "0x2035db1",
          "transactionHash": "0xdd363cc391b7c358dbcf76f0a5f4799c30ec7398caca5b71fcd1be584387982b",
          "transactionIndex": "0xd",
          "logIndex": "0x31",
          "removed": false
        },
        {
          "address": "0x48065fbbe25f71c9282ddf5e1cd6d6a887483d5e",
          "topics": [
            "0xddf252ad1be2c89b69c2b068fc378daa952ba7f163c4a11628f55a4df523b3ef",
            "0x00000000000000000000000079242d2f9a923ab409413edced60f5155d5a8d1e",
            "0x000000000000000000000000dee98402a302e4d707fb9bf2bac66faeec31e8df"
          ],
          "data": "0x000000000000000000000000000000000000000000000000000000000003d090",
          "blockHash": "0x6aeea5f98b7b5fd046dc01f15b906dd91b7b2115bdeffc85c73d9874f49b7558",
          "blockNumber": "0x2035db1",
          "transactionHash": "0xdd363cc391b7c358dbcf76f0a5f4799c30ec7398caca5b71fcd1be584387982b",
          "transactionIndex": "0xd",
          "logIndex": "0x32",
          "removed": false
        },
        {
          "address": "0x48065fbbe25f71c9282ddf5e1cd6d6a887483d5e",
          "topics": [
            "0x8c5be1e5ebec7d5bd14f71427d1e84f3dd0314c0f7b2291e5b200ac8c7c3b925",
            "0x00000000000000000000000079242d2f9a923ab409413edced60f5155d5a8d1e",
            "0x0000000000000000000000003e59a31363e2ad014dcbc521c4a0d5757d9f3402"
          ],
          "data": "0x0000000000000000000000000000000000000000000000000000000000000000",
          "blockHash": "0x6aeea5f98b7b5fd046dc01f15b906dd91b7b2115bdeffc85c73d9874f49b7558",
          "blockNumber": "0x2035db1",
          "transactionHash": "0xdd363cc391b7c358dbcf76f0a5f4799c30ec7398caca5b71fcd1be584387982b",
          "transactionIndex": "0xd",
          "logIndex": "0x33",
          "removed": false
        },
        {
          "address": "0xdee98402a302e4d707fb9bf2bac66faeec31e8df",
          "topics": [
            "0xddf252ad1be2c89b69c2b068fc378daa952ba7f163c4a11628f55a4df523b3ef",
            "0x0000000000000000000000000000000000000000000000000000000000000000",
            "0x00000000000000000000000079242d2f9a923ab409413edced60f5155d5a8d1e"
          ],
          "data": "0x000000000000000000000000000000000000000000000000000000000003d090",
          "blockHash": "0x6aeea5f98b7b5fd046dc01f15b906dd91b7b2115bdeffc85c73d9874f49b7558",
          "blockNumber": "0x2035db1",
          "transactionHash": "0xdd363cc391b7c358dbcf76f0a5f4799c30ec7398caca5b71fcd1be584387982b",
          "transactionIndex": "0xd",
          "logIndex": "0x34",
          "removed": false
        },
        {
          "address": "0xdee98402a302e4d707fb9bf2bac66faeec31e8df",
          "topics": [
            "0x458f5fa412d0f69b08dd84872b0215675cc67bc1d5b6fd93300a1c3878b86196",
            "0x00000000000000000000000079242d2f9a923ab409413edced60f5155d5a8d1e",
            "0x00000000000000000000000079242d2f9a923ab409413edced60f5155d5a8d1e"
          ],
          "data": "0x000000000000000000000000000000000000000000000000000000000003d09000000000000000000000000000000000000000000000000000000000000000000000000000000000000000000000000000000000033b5f8e1f0a7f81940d31ca",
          "blockHash": "0x6aeea5f98b7b5fd046dc01f15b906dd91b7b2115bdeffc85c73d9874f49b7558",
          "blockNumber": "0x2035db1",
          "transactionHash": "0xdd363cc391b7c358dbcf76f0a5f4799c30ec7398caca5b71fcd1be584387982b",
          "transactionIndex": "0xd",
          "logIndex": "0x35",
          "removed": false
        },
        {
          "address": "0x3e59a31363e2ad014dcbc521c4a0d5757d9f3402",
          "topics": [
            "0x2b627736bca15cd5381dcf80b0bf11fd197d01a037c52b927a881a10fb73ba61",
            "0x00000000000000000000000048065fbbe25f71c9282ddf5e1cd6d6a887483d5e",
            "0x00000000000000000000000079242d2f9a923ab409413edced60f5155d5a8d1e",
            "0x0000000000000000000000000000000000000000000000000000000000000000"
          ],
          "data": "0x00000000000000000000000079242d2f9a923ab409413edced60f5155d5a8d1e000000000000000000000000000000000000000000000000000000000003d090",
          "blockHash": "0x6aeea5f98b7b5fd046dc01f15b906dd91b7b2115bdeffc85c73d9874f49b7558",
          "blockNumber": "0x2035db1",
          "transactionHash": "0xdd363cc391b7c358dbcf76f0a5f4799c30ec7398caca5b71fcd1be584387982b",
          "transactionIndex": "0xd",
          "logIndex": "0x36",
          "removed": false
        },
        {
          "address": "0x79242d2f9a923ab409413edced60f5155d5a8d1e",
          "topics": [
            "0x244160b15e69cc411f041d94ae7fab6f6bba85dade8403216c05ff4b920d5449",
            "0x0000000000000000000000000000000000000000000000000000000000000003"
          ],
          "data": "0x000000000000000000000000000000000000000000000000000000000003d090",
          "blockHash": "0x6aeea5f98b7b5fd046dc01f15b906dd91b7b2115bdeffc85c73d9874f49b7558",
          "blockNumber": "0x2035db1",
          "transactionHash": "0xdd363cc391b7c358dbcf76f0a5f4799c30ec7398caca5b71fcd1be584387982b",
          "transactionIndex": "0xd",
          "logIndex": "0x37",
          "removed": false
        }
      ],
      "logsBloom": "0x0000200000000001020002000000000000100000000000000000000008000000000000080000000000000800000400000000000082020000000000000020000000100000000000080000000800000000000000000000000000000004000000000000000002000000000000000000080000000000000000004000001000000000000001000000000000000000000040000000000000000000020000000000000002000010000100000000004000000000100000000080000040000001000041000200000200008000000000a040000050000000000000001000000000000120000010000000000080000000000010000040000000000000000000400000000000",
      "type": "0x0",
      "transactionHash": "0xdd363cc391b7c358dbcf76f0a5f4799c30ec7398caca5b71fcd1be584387982b",
      "transactionIndex": "0xd",
      "blockHash": "0x6aeea5f98b7b5fd046dc01f15b906dd91b7b2115bdeffc85c73d9874f49b7558",
      "blockNumber": "0x2035db1",
      "gasUsed": "0x42235",
      "effectiveGasPrice": "0x5d22cfc40",
      "from": "0x3a4db9e7306af09012ceb0f222d581fd1f0c6d71",
      "to": "0x79242d2f9a923ab409413edced60f5155d5a8d1e",
      "contractAddress": null,
      "l1BaseFeeScalar": "0x0",
      "l1BlobBaseFee": "0x13813794d",
      "l1BlobBaseFeeScalar": "0x0",
      "l1Fee": "0x0",
      "l1GasPrice": "0x358636c9",
      "l1GasUsed": "0x851"
    }
  ],
  "libraries": [],
  "pending": [],
  "returns": {},
  "timestamp": 1745675785,
  "chain": 42220,
  "commit": "1cefd9d"
}