{
  "transactions": [
    {
      "hash": "0xfda19fb513f8d45fb51d11f4eb31fc3db0e080a052ba2e68cdec014a88de7a1a",
      "transactionType": "CALL",
      "contractName": null,
      "contractAddress": "0x48065fbbe25f71c9282ddf5e1cd6d6a887483d5e",
      "function": "approve(address,uint256)",
      "arguments": [
        "0xc2a61494430F6a99d5f024Ab6E76b1633c7c13c0",
        "500000"
      ],
      "transaction": {
        "from": "0x3a4db9e7306af09012ceb0f222d581fd1f0c6d71",
        "to": "0x48065fbbe25f71c9282ddf5e1cd6d6a887483d5e",
        "gas": "0x1201c",
        "value": "0x0",
        "input": "0x095ea7b3000000000000000000000000c2a61494430f6a99d5f024ab6e76b1633c7c13c0000000000000000000000000000000000000000000000000000000000007a120",
        "nonce": "0x72",
        "chainId": "0xa4ec"
      },
      "additionalContracts": [],
      "isFixedGasLimit": false
    },
    {
      "hash": "0xa777e82f6359ba6de740df46c058b50f5e489d3c852f1a5eecad0f48c8ec6861",
      "transactionType": "CALL",
      "contractName": null,
      "contractAddress": "0xc2a61494430f6a99d5f024ab6e76b1633c7c13c0",
      "function": "createPosition(address,uint256,address,uint256,uint256)",
      "arguments": [
        "0x48065fbBE25f71C9282ddf5e1cD6D6A887483D5e",
        "500000",
        "0xcebA9300f2b948710d2653dD7B07f33A8B32118C",
        "250000",
        "2"
      ],
      "transaction": {
        "from": "0x3a4db9e7306af09012ceb0f222d581fd1f0c6d71",
        "to": "0xc2a61494430f6a99d5f024ab6e76b1633c7c13c0",
        "gas": "0xe4794",
        "value": "0x0",
        "input": "0xb0c3d5df00000000000000000000000048065fbbe25f71c9282ddf5e1cd6d6a887483d5e000000000000000000000000000000000000000000000000000000000007a120000000000000000000000000ceba9300f2b948710d2653dd7b07f33a8b32118c000000000000000000000000000000000000000000000000000000000003d0900000000000000000000000000000000000000000000000000000000000000002",
        "nonce": "0x73",
        "chainId": "0xa4ec"
      },
      "additionalContracts": [],
      "isFixedGasLimit": false
    },
    {
      "hash": "0x90bee7a8bf71adddc59f225d1a5ac24b234bd90cc508e3a917c9ff0f0429de7b",
      "transactionType": "CALL",
      "contractName": null,
      "contractAddress": "0xc2a61494430f6a99d5f024ab6e76b1633c7c13c0",
      "function": "addCollateralWithPermit(uint256,uint256,uint256,uint8,bytes32,bytes32)",
      "arguments": [
        "3",
        "250000",
        "1745687833",
        "27",
        "0xb1264cbb1f3252b6ca5a5b1d68679f8249eed6a534857c7989c8a133ddb5a560",
        "0x568dd777632a803fbf02b8956b21505661be725695a67d227dc5d9164e28870f"
      ],
      "transaction": {
        "from": "0x3a4db9e7306af09012ceb0f222d581fd1f0c6d71",
        "to": "0xc2a61494430f6a99d5f024ab6e76b1633c7c13c0",
        "gas": "0x58432",
        "value": "0x0",
        "input": "0x558e45ba0000000000000000000000000000000000000000000000000000000000000003000000000000000000000000000000000000000000000000000000000003d09000000000000000000000000000000000000000000000000000000000680d1519000000000000000000000000000000000000000000000000000000000000001bb1264cbb1f3252b6ca5a5b1d68679f8249eed6a534857c7989c8a133ddb5a560568dd777632a803fbf02b8956b21505661be725695a67d227dc5d9164e28870f",
        "nonce": "0x74",
        "chainId": "0xa4ec"
      },
      "additionalContracts": [],
      "isFixedGasLimit": false
    },
    {
      "hash": "0xb94b5d208ce57a8f62d363dc3ffd892f4e2f38fa44b8ed5bc7aa91bb977ce135",
      "transactionType": "CALL",
      "contractName": null,
      "contractAddress": "0xc2a61494430f6a99d5f024ab6e76b1633c7c13c0",
      "function": "increaseBorrow(uint256,uint256)",
      "arguments": [
        "3",
        "125000"
      ],
      "transaction": {
        "from": "0x3a4db9e7306af09012ceb0f222d581fd1f0c6d71",
        "to": "0xc2a61494430f6a99d5f024ab6e76b1633c7c13c0",
        "gas": "0x780a8",
        "value": "0x0",
        "input": "0x9e6824d90000000000000000000000000000000000000000000000000000000000000003000000000000000000000000000000000000000000000000000000000001e848",
        "nonce": "0x75",
        "chainId": "0xa4ec"
      },
      "additionalContracts": [],
      "isFixedGasLimit": false
    },
    {
      "hash": "0xbe878e5476d2157196b310f4626a77ef1c0b591e1e77053ff77d4cc23d856f8a",
      "transactionType": "CALL",
      "contractName": null,
      "contractAddress": "0xc2a61494430f6a99d5f024ab6e76b1633c7c13c0",
      "function": "repayDebtWithPermit(uint256,uint256,uint256,uint8,bytes32,bytes32)",
      "arguments": [
        "3",
        "187500",
        "1745687833",
        "27",
        "0x935fa95cc212ee9424d5c95ff25f26f731d13e52e5c72a455da1196a8be9c1d3",
        "0x7e05887514bebedd86e4432c855660c8618d690c78c6c3848795556e62a725d9"
      ],
      "transaction": {
        "from": "0x3a4db9e7306af09012ceb0f222d581fd1f0c6d71",
        "to": "0xc2a61494430f6a99d5f024ab6e76b1633c7c13c0",
        "gas": "0x4e659",
        "value": "0x0",
        "input": "0xc9a7906a0000000000000000000000000000000000000000000000000000000000000003000000000000000000000000000000000000000000000000000000000002dc6c00000000000000000000000000000000000000000000000000000000680d1519000000000000000000000000000000000000000000000000000000000000001b935fa95cc212ee9424d5c95ff25f26f731d13e52e5c72a455da1196a8be9c1d37e05887514bebedd86e4432c855660c8618d690c78c6c3848795556e62a725d9",
        "nonce": "0x76",
        "chainId": "0xa4ec"
      },
      "additionalContracts": [],
      "isFixedGasLimit": false
    }
  ],
  "receipts": [
    {
      "status": "0x1",
      "cumulativeGasUsed": "0xcd4af",
      "logs": [
        {
          "address": "0x48065fbbe25f71c9282ddf5e1cd6d6a887483d5e",
          "topics": [
            "0x8c5be1e5ebec7d5bd14f71427d1e84f3dd0314c0f7b2291e5b200ac8c7c3b925",
            "0x0000000000000000000000003a4db9e7306af09012ceb0f222d581fd1f0c6d71",
            "0x000000000000000000000000c2a61494430f6a99d5f024ab6e76b1633c7c13c0"
          ],
          "data": "0x000000000000000000000000000000000000000000000000000000000007a120",
          "blockHash": "0x10ba9d77e2606136445e2430f5b294301fe33b40aec7a4c3fac13429090b176e",
          "blockNumber": "0x2037eea",
          "transactionHash": "0xfda19fb513f8d45fb51d11f4eb31fc3db0e080a052ba2e68cdec014a88de7a1a",
          "transactionIndex": "0x6",
          "logIndex": "0x10",
          "removed": false
        }
      ],
      "logsBloom": "0x00000000000000000000000000000000000000000000000000000000000000000000000000000000000000000000000000000000000000000000000000200000000000000000000000000000000000000000000000000000000000000000000000000000000000000000000000000000000000000000000040000000000000000000010000000000000000000000400000000000000000000000000000000000020000000000000000000000000000000000000000000000000000000000000000000000000080000000008000000000020000000000001000000000000000000010000000000000001000000000000000000000000000000000000000800000",
      "type": "0x0",
      "transactionHash": "0xfda19fb513f8d45fb51d11f4eb31fc3db0e080a052ba2e68cdec014a88de7a1a",
      "transactionIndex": "0x6",
      "blockHash": "0x10ba9d77e2606136445e2430f5b294301fe33b40aec7a4c3fac13429090b176e",
      "blockNumber": "0x2037eea",
      "gasUsed": "0xd097",
      "effectiveGasPrice": "0x5d22cfc40",
      "from": "0x3a4db9e7306af09012ceb0f222d581fd1f0c6d71",
      "to": "0x48065fbbe25f71c9282ddf5e1cd6d6a887483d5e",
      "contractAddress": null,
      "l1BaseFeeScalar": "0x0",
      "l1BlobBaseFee": "0x39afbecf",
      "l1BlobBaseFeeScalar": "0x0",
      "l1Fee": "0x0",
      "l1GasPrice": "0x2b86abd5",
      "l1GasUsed": "0x640"
    },
    {
      "status": "0x1",
      "cumulativeGasUsed": "0x1b7246",
      "logs": [
        {
          "address": "0x48065fbbe25f71c9282ddf5e1cd6d6a887483d5e",
          "topics": [
            "0xddf252ad1be2c89b69c2b068fc378daa952ba7f163c4a11628f55a4df523b3ef",
            "0x0000000000000000000000003a4db9e7306af09012ceb0f222d581fd1f0c6d71",
            "0x000000000000000000000000c2a61494430f6a99d5f024ab6e76b1633c7c13c0"
          ],
          "data": "0x000000000000000000000000000000000000000000000000000000000007a120",
          "blockHash": "0x10ba9d77e2606136445e2430f5b294301fe33b40aec7a4c3fac13429090b176e",
          "blockNumber": "0x2037eea",
          "transactionHash": "0xa777e82f6359ba6de740df46c058b50f5e489d3c852f1a5eecad0f48c8ec6861",
          "transactionIndex": "0x9",
          "logIndex": "0x14",
          "removed": false
        },
        {
          "address": "0x48065fbbe25f71c9282ddf5e1cd6d6a887483d5e",
          "topics": [
            "0x8c5be1e5ebec7d5bd14f71427d1e84f3dd0314c0f7b2291e5b200ac8c7c3b925",
            "0x0000000000000000000000003a4db9e7306af09012ceb0f222d581fd1f0c6d71",
            "0x000000000000000000000000c2a61494430f6a99d5f024ab6e76b1633c7c13c0"
          ],
          "data": "0x0000000000000000000000000000000000000000000000000000000000000000",
          "blockHash": "0x10ba9d77e2606136445e2430f5b294301fe33b40aec7a4c3fac13429090b176e",
          "blockNumber": "0x2037eea",
          "transactionHash": "0xa777e82f6359ba6de740df46c058b50f5e489d3c852f1a5eecad0f48c8ec6861",
          "transactionIndex": "0x9",
          "logIndex": "0x15",
          "removed": false
        },
        {
          "address": "0x48065fbbe25f71c9282ddf5e1cd6d6a887483d5e",
          "topics": [
            "0x8c5be1e5ebec7d5bd14f71427d1e84f3dd0314c0f7b2291e5b200ac8c7c3b925",
            "0x000000000000000000000000c2a61494430f6a99d5f024ab6e76b1633c7c13c0",
            "0x0000000000000000000000003e59a31363e2ad014dcbc521c4a0d5757d9f3402"
          ],
          "data": "0x000000000000000000000000000000000000000000000000000000000007a120",
          "blockHash": "0x10ba9d77e2606136445e2430f5b294301fe33b40aec7a4c3fac13429090b176e",
          "blockNumber": "0x2037eea",
          "transactionHash": "0xa777e82f6359ba6de740df46c058b50f5e489d3c852f1a5eecad0f48c8ec6861",
          "transactionIndex": "0x9",
          "logIndex": "0x16",
          "removed": false
        },
        {
          "address": "0x3e59a31363e2ad014dcbc521c4a0d5757d9f3402",
          "topics": [
            "0x804c9b842b2748a22bb64b345453a3de7ca54a6ca45ce00d415894979e22897a",
            "0x00000000000000000000000048065fbbe25f71c9282ddf5e1cd6d6a887483d5e"
          ],
          "data": "0x00000000000000000000000000000000000000000000000b15ec342b97ccbdf80000000000000000000000000000000000000000000000000000000000000000000000000000000000000000000000000000000000001c268ad9e039ebf579210000000000000000000000000000000000000000033b5f8e1fce7a237f070e260000000000000000000000000000000000000000033bcca00146c6d5c0c9286b",
          "blockHash": "0x10ba9d77e2606136445e2430f5b294301fe33b40aec7a4c3fac13429090b176e",
          "blockNumber": "0x2037eea",
          "transactionHash": "0xa777e82f6359ba6de740df46c058b50f5e489d3c852f1a5eecad0f48c8ec6861",
          "transactionIndex": "0x9",
          "logIndex": "0x17",
          "removed": false
        },
        {
          "address": "0x48065fbbe25f71c9282ddf5e1cd6d6a887483d5e",
          "topics": [
            "0xddf252ad1be2c89b69c2b068fc378daa952ba7f163c4a11628f55a4df523b3ef",
            "0x000000000000000000000000c2a61494430f6a99d5f024ab6e76b1633c7c13c0",
            "0x000000000000000000000000dee98402a302e4d707fb9bf2bac66faeec31e8df"
          ],
          "data": "0x000000000000000000000000000000000000000000000000000000000007a120",
          "blockHash": "0x10ba9d77e2606136445e2430f5b294301fe33b40aec7a4c3fac13429090b176e",
          "blockNumber": "0x2037eea",
          "transactionHash": "0xa777e82f6359ba6de740df46c058b50f5e489d3c852f1a5eecad0f48c8ec6861",
          "transactionIndex": "0x9",
          "logIndex": "0x18",
          "removed": false
        },
        {
          "address": "0x48065fbbe25f71c9282ddf5e1cd6d6a887483d5e",
          "topics": [
            "0x8c5be1e5ebec7d5bd14f71427d1e84f3dd0314c0f7b2291e5b200ac8c7c3b925",
            "0x000000000000000000000000c2a61494430f6a99d5f024ab6e76b1633c7c13c0",
            "0x0000000000000000000000003e59a31363e2ad014dcbc521c4a0d5757d9f3402"
          ],
          "data": "0x0000000000000000000000000000000000000000000000000000000000000000",
          "blockHash": "0x10ba9d77e2606136445e2430f5b294301fe33b40aec7a4c3fac13429090b176e",
          "blockNumber": "0x2037eea",
          "transactionHash": "0xa777e82f6359ba6de740df46c058b50f5e489d3c852f1a5eecad0f48c8ec6861",
          "transactionIndex": "0x9",
          "logIndex": "0x19",
          "removed": false
        },
        {
          "address": "0xdee98402a302e4d707fb9bf2bac66faeec31e8df",
          "topics": [
            "0xddf252ad1be2c89b69c2b068fc378daa952ba7f163c4a11628f55a4df523b3ef",
            "0x0000000000000000000000000000000000000000000000000000000000000000",
            "0x000000000000000000000000c2a61494430f6a99d5f024ab6e76b1633c7c13c0"
          ],
          "data": "0x000000000000000000000000000000000000000000000000000000000007a120",
          "blockHash": "0x10ba9d77e2606136445e2430f5b294301fe33b40aec7a4c3fac13429090b176e",
          "blockNumber": "0x2037eea",
          "transactionHash": "0xa777e82f6359ba6de740df46c058b50f5e489d3c852f1a5eecad0f48c8ec6861",
          "transactionIndex": "0x9",
          "logIndex": "0x1a",
          "removed": false
        },
        {
          "address": "0xdee98402a302e4d707fb9bf2bac66faeec31e8df",
          "topics": [
            "0x458f5fa412d0f69b08dd84872b0215675cc67bc1d5b6fd93300a1c3878b86196",
            "0x000000000000000000000000c2a61494430f6a99d5f024ab6e76b1633c7c13c0",
            "0x000000000000000000000000c2a61494430f6a99d5f024ab6e76b1633c7c13c0"
          ],
          "data": "0x000000000000000000000000000000000000000000000000000000000007a12000000000000000000000000000000000000000000000000000000000000000000000000000000000000000000000000000000000033b5f8e1fce7a237f070e26",
          "blockHash": "0x10ba9d77e2606136445e2430f5b294301fe33b40aec7a4c3fac13429090b176e",
          "blockNumber": "0x2037eea",
          "transactionHash": "0xa777e82f6359ba6de740df46c058b50f5e489d3c852f1a5eecad0f48c8ec6861",
          "transactionIndex": "0x9",
          "logIndex": "0x1b",
          "removed": false
        },
        {
          "address": "0x3e59a31363e2ad014dcbc521c4a0d5757d9f3402",
          "topics": [
            "0x2b627736bca15cd5381dcf80b0bf11fd197d01a037c52b927a881a10fb73ba61",
            "0x00000000000000000000000048065fbbe25f71c9282ddf5e1cd6d6a887483d5e",
            "0x000000000000000000000000c2a61494430f6a99d5f024ab6e76b1633c7c13c0",
            "0x0000000000000000000000000000000000000000000000000000000000000000"
          ],
          "data": "0x000000000000000000000000c2a61494430f6a99d5f024ab6e76b1633c7c13c0000000000000000000000000000000000000000000000000000000000007a120",
          "blockHash": "0x10ba9d77e2606136445e2430f5b294301fe33b40aec7a4c3fac13429090b176e",
          "blockNumber": "0x2037eea",
          "transactionHash": "0xa777e82f6359ba6de740df46c058b50f5e489d3c852f1a5eecad0f48c8ec6861",
          "transactionIndex": "0x9",
          "logIndex": "0x1c",
          "removed": false
        },
        {
          "address": "0xdbe517c0fa6467873b684eccbed77217e471e862",
          "topics": [
            "0xddf252ad1be2c89b69c2b068fc378daa952ba7f163c4a11628f55a4df523b3ef",
            "0x0000000000000000000000000000000000000000000000000000000000000000",
            "0x000000000000000000000000c2a61494430f6a99d5f024ab6e76b1633c7c13c0"
          ],
          "data": "0x000000000000000000000000000000000000000000000000000000000003d090",
          "blockHash": "0x10ba9d77e2606136445e2430f5b294301fe33b40aec7a4c3fac13429090b176e",
          "blockNumber": "0x2037eea",
          "transactionHash": "0xa777e82f6359ba6de740df46c058b50f5e489d3c852f1a5eecad0f48c8ec6861",
          "transactionIndex": "0x9",
          "logIndex": "0x1d",
          "removed": false
        },
        {
          "address": "0xdbe517c0fa6467873b684eccbed77217e471e862",
          "topics": [
            "0x458f5fa412d0f69b08dd84872b0215675cc67bc1d5b6fd93300a1c3878b86196",
            "0x000000000000000000000000c2a61494430f6a99d5f024ab6e76b1633c7c13c0",
            "0x000000000000000000000000c2a61494430f6a99d5f024ab6e76b1633c7c13c0"
          ],
          "data": "0x000000000000000000000000000000000000000000000000000000000003d09000000000000000000000000000000000000000000000000000000000000000000000000000000000000000000000000000000000033c4f4441ad3a49b269a3f7",
          "blockHash": "0x10ba9d77e2606136445e2430f5b294301fe33b40aec7a4c3fac13429090b176e",
          "blockNumber": "0x2037eea",
          "transactionHash": "0xa777e82f6359ba6de740df46c058b50f5e489d3c852f1a5eecad0f48c8ec6861",
          "transactionIndex": "0x9",
          "logIndex": "0x1e",
          "removed": false
        },
        {
          "address": "0x3e59a31363e2ad014dcbc521c4a0d5757d9f3402",
          "topics": [
            "0x804c9b842b2748a22bb64b345453a3de7ca54a6ca45ce00d415894979e22897a",
            "0x000000000000000000000000ceba9300f2b948710d2653dd7b07f33a8b32118c"
          ],
          "data": "0x00000000000000000000000000000000000000000000d50bfe8da41c70f93336000000000000000000000000000000000000000000000000000000000000000000000000000000000000000000000000000000000007b688409976c7c37fb6360000000000000000000000000000000000000000033b68c084097b5492de90550000000000000000000000000000000000000000033c4f4441ad3a49b269a3f7",
          "blockHash": "0x10ba9d77e2606136445e2430f5b294301fe33b40aec7a4c3fac13429090b176e",
          "blockNumber": "0x2037eea",
          "transactionHash": "0xa777e82f6359ba6de740df46c058b50f5e489d3c852f1a5eecad0f48c8ec6861",
          "transactionIndex": "0x9",
          "logIndex": "0x1f",
          "removed": false
        },
        {
          "address": "0xceba9300f2b948710d2653dd7b07f33a8b32118c",
          "topics": [
            "0xddf252ad1be2c89b69c2b068fc378daa952ba7f163c4a11628f55a4df523b3ef",
            "0x000000000000000000000000ff8309b9e99bfd2d4021bc71a362abd93dbd4785",
            "0x000000000000000000000000c2a61494430f6a99d5f024ab6e76b1633c7c13c0"
          ],
          "data": "0x000000000000000000000000000000000000000000000000000000000003d090",
          "blockHash": "0x10ba9d77e2606136445e2430f5b294301fe33b40aec7a4c3fac13429090b176e",
          "blockNumber": "0x2037eea",
          "transactionHash": "0xa777e82f6359ba6de740df46c058b50f5e489d3c852f1a5eecad0f48c8ec6861",
          "transactionIndex": "0x9",
          "logIndex": "0x20",
          "removed": false
        },
        {
          "address": "0x3e59a31363e2ad014dcbc521c4a0d5757d9f3402",
          "topics": [
            "0xb3d084820fb1a9decffb176436bd02558d15fac9b0ddfed8c465bc7359d7dce0",
            "0x000000000000000000000000ceba9300f2b948710d2653dd7b07f33a8b32118c",
            "0x000000000000000000000000c2a61494430f6a99d5f024ab6e76b1633c7c13c0",
            "0x0000000000000000000000000000000000000000000000000000000000000000"
          ],
          "data": "0x000000000000000000000000c2a61494430f6a99d5f024ab6e76b1633c7c13c0000000000000000000000000000000000000000000000000000000000003d090000000000000000000000000000000000000000000000000000000000000000200000000000000000000000000000000000000000007b688409976c7c37fb636",
          "blockHash": "0x10ba9d77e2606136445e2430f5b294301fe33b40aec7a4c3fac13429090b176e",
          "blockNumber": "0x2037eea",
          "transactionHash": "0xa777e82f6359ba6de740df46c058b50f5e489d3c852f1a5eecad0f48c8ec6861",
          "transactionIndex": "0x9",
          "logIndex": "0x21",
          "removed": false
        },
        {
          "address": "0xceba9300f2b948710d2653dd7b07f33a8b32118c",
          "topics": [
            "0xddf252ad1be2c89b69c2b068fc378daa952ba7f163c4a11628f55a4df523b3ef",
            "0x000000000000000000000000c2a61494430f6a99d5f024ab6e76b1633c7c13c0",
            "0x0000000000000000000000003a4db9e7306af09012ceb0f222d581fd1f0c6d71"
          ],
          "data": "0x000000000000000000000000000000000000000000000000000000000003d090",
          "blockHash": "0x10ba9d77e2606136445e2430f5b294301fe33b40aec7a4c3fac13429090b176e",
          "blockNumber": "0x2037eea",
          "transactionHash": "0xa777e82f6359ba6de740df46c058b50f5e489d3c852f1a5eecad0f48c8ec6861",
          "transactionIndex": "0x9",
          "logIndex": "0x22",
          "removed": false
        },
        {
          "address": "0xc2a61494430f6a99d5f024ab6e76b1633c7c13c0",
          "topics": [
            "0x9f9b498443531d2db9df8a00ec466efc74ba50ec1d82f7badd3424b87930e19a",
            "0x0000000000000000000000000000000000000000000000000000000000000003",
            "0x0000000000000000000000003a4db9e7306af09012ceb0f222d581fd1f0c6d71"
          ],
          "data": "0x00000000000000000000000048065fbbe25f71c9282ddf5e1cd6d6a887483d5e000000000000000000000000000000000000000000000000000000000007a120000000000000000000000000ceba9300f2b948710d2653dd7b07f33a8b32118c000000000000000000000000000000000000000000000000000000000003d0900000000000000000000000000000000000000000000000000000000000000002",
          "blockHash": "0x10ba9d77e2606136445e2430f5b294301fe33b40aec7a4c3fac13429090b176e",
          "blockNumber": "0x2037eea",
          "transactionHash": "0xa777e82f6359ba6de740df46c058b50f5e489d3c852f1a5eecad0f48c8ec6861",
          "transactionIndex": "0x9",
          "logIndex": "0x23",
          "removed": false
        }
      ],
      "logsBloom": "0x0000000000000001020012000040000000100000000000000000000000000000000000080000000000002000000440000010000082000000000000000020000000000000800000080000000840000000000000000004000000000004000000000000000002000000000000020000080000000002000000004000001000000000000001000000000000000000000040000000000000000000220000000000000002000110000100000000004000000000100000000080000040000000000041000200000200008120000002a040000040020000000000041000020000000120000010000000004010001800000001000040000000000000000000400000800000",
      "type": "0x0",
      "transactionHash": "0xa777e82f6359ba6de740df46c058b50f5e489d3c852f1a5eecad0f48c8ec6861",
      "transactionIndex": "0x9",
      "blockHash": "0x10ba9d77e2606136445e2430f5b294301fe33b40aec7a4c3fac13429090b176e",
      "blockNumber": "0x2037eea",
      "gasUsed": "0x9c38b",
      "effectiveGasPrice": "0x5d22cfc40",
      "from": "0x3a4db9e7306af09012ceb0f222d581fd1f0c6d71",
      "to": "0xc2a61494430f6a99d5f024ab6e76b1633c7c13c0",
      "contractAddress": null,
      "l1BaseFeeScalar": "0x0",
      "l1BlobBaseFee": "0x39afbecf",
      "l1BlobBaseFeeScalar": "0x0",
      "l1Fee": "0x0",
      "l1GasPrice": "0x2b86abd5",
      "l1GasUsed": "0x760"
    },
    {
      "status": "0x1",
      "cumulativeGasUsed": "0x1f37e1",
      "logs": [
        {
          "address": "0x48065fbbe25f71c9282ddf5e1cd6d6a887483d5e",
          "topics": [
            "0x8c5be1e5ebec7d5bd14f71427d1e84f3dd0314c0f7b2291e5b200ac8c7c3b925",
            "0x0000000000000000000000003a4db9e7306af09012ceb0f222d581fd1f0c6d71",
            "0x000000000000000000000000c2a61494430f6a99d5f024ab6e76b1633c7c13c0"
          ],
          "data": "0x000000000000000000000000000000000000000000000000000000000003d090",
          "blockHash": "0x10ba9d77e2606136445e2430f5b294301fe33b40aec7a4c3fac13429090b176e",
          "blockNumber": "0x2037eea",
          "transactionHash": "0x90bee7a8bf71adddc59f225d1a5ac24b234bd90cc508e3a917c9ff0f0429de7b",
          "transactionIndex": "0xa",
          "logIndex": "0x24",
          "removed": false
        },
        {
          "address": "0x48065fbbe25f71c9282ddf5e1cd6d6a887483d5e",
          "topics": [
            "0xddf252ad1be2c89b69c2b068fc378daa952ba7f163c4a11628f55a4df523b3ef",
            "0x0000000000000000000000003a4db9e7306af09012ceb0f222d581fd1f0c6d71",
            "0x000000000000000000000000c2a61494430f6a99d5f024ab6e76b1633c7c13c0"
          ],
          "data": "0x000000000000000000000000000000000000000000000000000000000003d090",
          "blockHash": "0x10ba9d77e2606136445e2430f5b294301fe33b40aec7a4c3fac13429090b176e",
          "blockNumber": "0x2037eea",
          "transactionHash": "0x90bee7a8bf71adddc59f225d1a5ac24b234bd90cc508e3a917c9ff0f0429de7b",
          "transactionIndex": "0xa",
          "logIndex": "0x25",
          "removed": false
        },
        {
          "address": "0x48065fbbe25f71c9282ddf5e1cd6d6a887483d5e",
          "topics": [
            "0x8c5be1e5ebec7d5bd14f71427d1e84f3dd0314c0f7b2291e5b200ac8c7c3b925",
            "0x0000000000000000000000003a4db9e7306af09012ceb0f222d581fd1f0c6d71",
            "0x000000000000000000000000c2a61494430f6a99d5f024ab6e76b1633c7c13c0"
          ],
          "data": "0x0000000000000000000000000000000000000000000000000000000000000000",
          "blockHash": "0x10ba9d77e2606136445e2430f5b294301fe33b40aec7a4c3fac13429090b176e",
          "blockNumber": "0x2037eea",
          "transactionHash": "0x90bee7a8bf71adddc59f225d1a5ac24b234bd90cc508e3a917c9ff0f0429de7b",
          "transactionIndex": "0xa",
          "logIndex": "0x26",
          "removed": false
        },
        {
          "address": "0x48065fbbe25f71c9282ddf5e1cd6d6a887483d5e",
          "topics": [
            "0x8c5be1e5ebec7d5bd14f71427d1e84f3dd0314c0f7b2291e5b200ac8c7c3b925",
            "0x000000000000000000000000c2a61494430f6a99d5f024ab6e76b1633c7c13c0",
            "0x0000000000000000000000003e59a31363e2ad014dcbc521c4a0d5757d9f3402"
          ],
          "data": "0x000000000000000000000000000000000000000000000000000000000003d090",
          "blockHash": "0x10ba9d77e2606136445e2430f5b294301fe33b40aec7a4c3fac13429090b176e",
          "blockNumber": "0x2037eea",
          "transactionHash": "0x90bee7a8bf71adddc59f225d1a5ac24b234bd90cc508e3a917c9ff0f0429de7b",
          "transactionIndex": "0xa",
          "logIndex": "0x27",
          "removed": false
        },
        {
          "address": "0x3e59a31363e2ad014dcbc521c4a0d5757d9f3402",
          "topics": [
            "0x804c9b842b2748a22bb64b345453a3de7ca54a6ca45ce00d415894979e22897a",
            "0x00000000000000000000000048065fbbe25f71c9282ddf5e1cd6d6a887483d5e"
          ],
          "data": "0x00000000000000000000000000000000000000000000000b15ec149cbb8d5e6d0000000000000000000000000000000000000000000000000000000000000000000000000000000000000000000000000000000000001c268ab1ce9bc6aed9910000000000000000000000000000000000000000033b5f8e1fce7a237f070e260000000000000000000000000000000000000000033bcca00146c6d5c0c9286b",
          "blockHash": "0x10ba9d77e2606136445e2430f5b294301fe33b40aec7a4c3fac13429090b176e",
          "blockNumber": "0x2037eea",
          "transactionHash": "0x90bee7a8bf71adddc59f225d1a5ac24b234bd90cc508e3a917c9ff0f0429de7b",
          "transactionIndex": "0xa",
          "logIndex": "0x28",
          "removed": false
        },
        {
          "address": "0x48065fbbe25f71c9282ddf5e1cd6d6a887483d5e",
          "topics": [
            "0xddf252ad1be2c89b69c2b068fc378daa952ba7f163c4a11628f55a4df523b3ef",
            "0x000000000000000000000000c2a61494430f6a99d5f024ab6e76b1633c7c13c0",
            "0x000000000000000000000000dee98402a302e4d707fb9bf2bac66faeec31e8df"
          ],
          "data": "0x000000000000000000000000000000000000000000000000000000000003d090",
          "blockHash": "0x10ba9d77e2606136445e2430f5b294301fe33b40aec7a4c3fac13429090b176e",
          "blockNumber": "0x2037eea",
          "transactionHash": "0x90bee7a8bf71adddc59f225d1a5ac24b234bd90cc508e3a917c9ff0f0429de7b",
          "transactionIndex": "0xa",
          "logIndex": "0x29",
          "removed": false
        },
        {
          "address": "0x48065fbbe25f71c9282ddf5e1cd6d6a887483d5e",
          "topics": [
            "0x8c5be1e5ebec7d5bd14f71427d1e84f3dd0314c0f7b2291e5b200ac8c7c3b925",
            "0x000000000000000000000000c2a61494430f6a99d5f024ab6e76b1633c7c13c0",
            "0x0000000000000000000000003e59a31363e2ad014dcbc521c4a0d5757d9f3402"
          ],
          "data": "0x0000000000000000000000000000000000000000000000000000000000000000",
          "blockHash": "0x10ba9d77e2606136445e2430f5b294301fe33b40aec7a4c3fac13429090b176e",
          "blockNumber": "0x2037eea",
          "transactionHash": "0x90bee7a8bf71adddc59f225d1a5ac24b234bd90cc508e3a917c9ff0f0429de7b",
          "transactionIndex": "0xa",
          "logIndex": "0x2a",
          "removed": false
        },
        {
          "address": "0xdee98402a302e4d707fb9bf2bac66faeec31e8df",
          "topics": [
            "0xddf252ad1be2c89b69c2b068fc378daa952ba7f163c4a11628f55a4df523b3ef",
            "0x0000000000000000000000000000000000000000000000000000000000000000",
            "0x000000000000000000000000c2a61494430f6a99d5f024ab6e76b1633c7c13c0"
          ],
          "data": "0x000000000000000000000000000000000000000000000000000000000003d090",
          "blockHash": "0x10ba9d77e2606136445e2430f5b294301fe33b40aec7a4c3fac13429090b176e",
          "blockNumber": "0x2037eea",
          "transactionHash": "0x90bee7a8bf71adddc59f225d1a5ac24b234bd90cc508e3a917c9ff0f0429de7b",
          "transactionIndex": "0xa",
          "logIndex": "0x2b",
          "removed": false
        },
        {
          "address": "0xdee98402a302e4d707fb9bf2bac66faeec31e8df",
          "topics": [
            "0x458f5fa412d0f69b08dd84872b0215675cc67bc1d5b6fd93300a1c3878b86196",
            "0x000000000000000000000000c2a61494430f6a99d5f024ab6e76b1633c7c13c0",
            "0x000000000000000000000000c2a61494430f6a99d5f024ab6e76b1633c7c13c0"
          ],
          "data": "0x000000000000000000000000000000000000000000000000000000000003d09000000000000000000000000000000000000000000000000000000000000000000000000000000000000000000000000000000000033b5f8e1fce7a237f070e26",
          "blockHash": "0x10ba9d77e2606136445e2430f5b294301fe33b40aec7a4c3fac13429090b176e",
          "blockNumber": "0x2037eea",
          "transactionHash": "0x90bee7a8bf71adddc59f225d1a5ac24b234bd90cc508e3a917c9ff0f0429de7b",
          "transactionIndex": "0xa",
          "logIndex": "0x2c",
          "removed": false
        },
        {
          "address": "0x3e59a31363e2ad014dcbc521c4a0d5757d9f3402",
          "topics": [
            "0x2b627736bca15cd5381dcf80b0bf11fd197d01a037c52b927a881a10fb73ba61",
            "0x00000000000000000000000048065fbbe25f71c9282ddf5e1cd6d6a887483d5e",
            "0x000000000000000000000000c2a61494430f6a99d5f024ab6e76b1633c7c13c0",
            "0x0000000000000000000000000000000000000000000000000000000000000000"
          ],
          "data": "0x000000000000000000000000c2a61494430f6a99d5f024ab6e76b1633c7c13c0000000000000000000000000000000000000000000000000000000000003d090",
          "blockHash": "0x10ba9d77e2606136445e2430f5b294301fe33b40aec7a4c3fac13429090b176e",
          "blockNumber": "0x2037eea",
          "transactionHash": "0x90bee7a8bf71adddc59f225d1a5ac24b234bd90cc508e3a917c9ff0f0429de7b",
          "transactionIndex": "0xa",
          "logIndex": "0x2d",
          "removed": false
        },
        {
          "address": "0xc2a61494430f6a99d5f024ab6e76b1633c7c13c0",
          "topics": [
            "0x244160b15e69cc411f041d94ae7fab6f6bba85dade8403216c05ff4b920d5449",
            "0x0000000000000000000000000000000000000000000000000000000000000003"
          ],
          "data": "0x000000000000000000000000000000000000000000000000000000000003d090",
          "blockHash": "0x10ba9d77e2606136445e2430f5b294301fe33b40aec7a4c3fac13429090b176e",
          "blockNumber": "0x2037eea",
          "transactionHash": "0x90bee7a8bf71adddc59f225d1a5ac24b234bd90cc508e3a917c9ff0f0429de7b",
          "transactionIndex": "0xa",
          "logIndex": "0x2e",
          "removed": false
        }
      ],
      "logsBloom": "0x0000000000000001020002000000000000100000000000000000000000000000000000080000000000000000000400000000000082020000000000000020000000000000000000080000000840000000000000000004000000000004000000000000000002000000000000020000080000000000000000004000001000000000000001000000000000000000000040000000000000000000020000000000000002000010000100000000004000000000100000000080000040000000000041000200000200008000000000a040000050020000000000001000000000000120000010000000000080001000000000000040000000000000000000400000800000",
      "type": "0x0",
      "transactionHash": "0x90bee7a8bf71adddc59f225d1a5ac24b234bd90cc508e3a917c9ff0f0429de7b",
      "transactionIndex": "0xa",
      "blockHash": "0x10ba9d77e2606136445e2430f5b294301fe33b40aec7a4c3fac13429090b176e",
      "blockNumber": "0x2037eea",
      "gasUsed": "0x3c59b",
      "effectiveGasPrice": "0x5d22cfc40",
      "from": "0x3a4db9e7306af09012ceb0f222d581fd1f0c6d71",
      "to": "0xc2a61494430f6a99d5f024ab6e76b1633c7c13c0",
      "contractAddress": null,
      "l1BaseFeeScalar": "0x0",
      "l1BlobBaseFee": "0x39afbecf",
      "l1BlobBaseFeeScalar": "0x0",
      "l1Fee": "0x0",
      "l1GasPrice": "0x2b86abd5",
      "l1GasUsed": "0x851"
    },
    {
      "status": "0x1",
      "cumulativeGasUsed": "0x13d775",
      "logs": [
        {
          "address": "0xdbe517c0fa6467873b684eccbed77217e471e862",
          "topics": [
            "0xddf252ad1be2c89b69c2b068fc378daa952ba7f163c4a11628f55a4df523b3ef",
            "0x0000000000000000000000000000000000000000000000000000000000000000",
            "0x000000000000000000000000c2a61494430f6a99d5f024ab6e76b1633c7c13c0"
          ],
          "data": "0x000000000000000000000000000000000000000000000000000000000001e848",
          "blockHash": "0x5663d7c52b9c7578a5d93f4d3128dccfe46034c10d78eb35c2f919bed6cef4c1",
          "blockNumber": "0x2037eeb",
          "transactionHash": "0xb94b5d208ce57a8f62d363dc3ffd892f4e2f38fa44b8ed5bc7aa91bb977ce135",
          "transactionIndex": "0x8",
          "logIndex": "0xf",
          "removed": false
        },
        {
          "address": "0xdbe517c0fa6467873b684eccbed77217e471e862",
          "topics": [
            "0x458f5fa412d0f69b08dd84872b0215675cc67bc1d5b6fd93300a1c3878b86196",
            "0x000000000000000000000000c2a61494430f6a99d5f024ab6e76b1633c7c13c0",
            "0x000000000000000000000000c2a61494430f6a99d5f024ab6e76b1633c7c13c0"
          ],
          "data": "0x000000000000000000000000000000000000000000000000000000000001e84800000000000000000000000000000000000000000000000000000000000000000000000000000000000000000000000000000000033c4f4445c91dda774b3cf9",
          "blockHash": "0x5663d7c52b9c7578a5d93f4d3128dccfe46034c10d78eb35c2f919bed6cef4c1",
          "blockNumber": "0x2037eeb",
          "transactionHash": "0xb94b5d208ce57a8f62d363dc3ffd892f4e2f38fa44b8ed5bc7aa91bb977ce135",
          "transactionIndex": "0x8",
          "logIndex": "0x10",
          "removed": false
        },
        {
          "address": "0x3e59a31363e2ad014dcbc521c4a0d5757d9f3402",
          "topics": [
            "0x804c9b842b2748a22bb64b345453a3de7ca54a6ca45ce00d415894979e22897a",
            "0x000000000000000000000000ceba9300f2b948710d2653dd7b07f33a8b32118c"
          ],
          "data": "0x00000000000000000000000000000000000000000000d50c215b258aa68837f2000000000000000000000000000000000000000000000000000000000000000000000000000000000000000000000000000000000007b688e1e061442df956fc0000000000000000000000000000000000000000033b68c0847adabc622e20c80000000000000000000000000000000000000000033c4f4445c91dda774b3cf9",
          "blockHash": "0x5663d7c52b9c7578a5d93f4d3128dccfe46034c10d78eb35c2f919bed6cef4c1",
          "blockNumber": "0x2037eeb",
          "transactionHash": "0xb94b5d208ce57a8f62d363dc3ffd892f4e2f38fa44b8ed5bc7aa91bb977ce135",
          "transactionIndex": "0x8",
          "logIndex": "0x11",
          "removed": false
        },
        {
          "address": "0xceba9300f2b948710d2653dd7b07f33a8b32118c",
          "topics": [
            "0xddf252ad1be2c89b69c2b068fc378daa952ba7f163c4a11628f55a4df523b3ef",
            "0x000000000000000000000000ff8309b9e99bfd2d4021bc71a362abd93dbd4785",
            "0x000000000000000000000000c2a61494430f6a99d5f024ab6e76b1633c7c13c0"
          ],
          "data": "0x000000000000000000000000000000000000000000000000000000000001e848",
          "blockHash": "0x5663d7c52b9c7578a5d93f4d3128dccfe46034c10d78eb35c2f919bed6cef4c1",
          "blockNumber": "0x2037eeb",
          "transactionHash": "0xb94b5d208ce57a8f62d363dc3ffd892f4e2f38fa44b8ed5bc7aa91bb977ce135",
          "transactionIndex": "0x8",
          "logIndex": "0x12",
          "removed": false
        },
        {
          "address": "0x3e59a31363e2ad014dcbc521c4a0d5757d9f3402",
          "topics": [
            "0xb3d084820fb1a9decffb176436bd02558d15fac9b0ddfed8c465bc7359d7dce0",
            "0x000000000000000000000000ceba9300f2b948710d2653dd7b07f33a8b32118c",
            "0x000000000000000000000000c2a61494430f6a99d5f024ab6e76b1633c7c13c0",
            "0x0000000000000000000000000000000000000000000000000000000000000000"
          ],
          "data": "0x000000000000000000000000c2a61494430f6a99d5f024ab6e76b1633c7c13c0000000000000000000000000000000000000000000000000000000000001e848000000000000000000000000000000000000000000000000000000000000000200000000000000000000000000000000000000000007b688e1e061442df956fc",
          "blockHash": "0x5663d7c52b9c7578a5d93f4d3128dccfe46034c10d78eb35c2f919bed6cef4c1",
          "blockNumber": "0x2037eeb",
          "transactionHash": "0xb94b5d208ce57a8f62d363dc3ffd892f4e2f38fa44b8ed5bc7aa91bb977ce135",
          "transactionIndex": "0x8",
          "logIndex": "0x13",
          "removed": false
        },
        {
          "address": "0xceba9300f2b948710d2653dd7b07f33a8b32118c",
          "topics": [
            "0xddf252ad1be2c89b69c2b068fc378daa952ba7f163c4a11628f55a4df523b3ef",
            "0x000000000000000000000000c2a61494430f6a99d5f024ab6e76b1633c7c13c0",
            "0x0000000000000000000000003a4db9e7306af09012ceb0f222d581fd1f0c6d71"
          ],
          "data": "0x000000000000000000000000000000000000000000000000000000000001e848",
          "blockHash": "0x5663d7c52b9c7578a5d93f4d3128dccfe46034c10d78eb35c2f919bed6cef4c1",
          "blockNumber": "0x2037eeb",
          "transactionHash": "0xb94b5d208ce57a8f62d363dc3ffd892f4e2f38fa44b8ed5bc7aa91bb977ce135",
          "transactionIndex": "0x8",
          "logIndex": "0x14",
          "removed": false
        },
        {
          "address": "0xc2a61494430f6a99d5f024ab6e76b1633c7c13c0",
          "topics": [
            "0xf3a2c404b3362c4238317c3dad1020c2e9e984ba8df38a4a1ff18d57e92a242a",
            "0x0000000000000000000000000000000000000000000000000000000000000003"
          ],
          "data": "0x000000000000000000000000000000000000000000000000000000000001e848",
          "blockHash": "0x5663d7c52b9c7578a5d93f4d3128dccfe46034c10d78eb35c2f919bed6cef4c1",
          "blockNumber": "0x2037eeb",
          "transactionHash": "0xb94b5d208ce57a8f62d363dc3ffd892f4e2f38fa44b8ed5bc7aa91bb977ce135",
          "transactionIndex": "0x8",
          "logIndex": "0x15",
          "removed": false
        }
      ],
      "logsBloom": "0x00000000000000000000100000400000000000000000000000000000000000000000000000000000000000000004400000100000820000000000000000000000000000008000000000000008400000000000000000040000000000040000000000000000020000000000000200000800000000000000000000000010000000000000000000000010000000000000400000000000000000002200000000000000000001000000000000000000000000000000000000800000400000000000410002000002000081200000022000000000020000400000041000000000000020000000000000004010001800000001000000000000000000000800000000800000",
      "type": "0x0",
      "transactionHash": "0xb94b5d208ce57a8f62d363dc3ffd892f4e2f38fa44b8ed5bc7aa91bb977ce135",
      "transactionIndex": "0x8",
      "blockHash": "0x5663d7c52b9c7578a5d93f4d3128dccfe46034c10d78eb35c2f919bed6cef4c1",
      "blockNumber": "0x2037eeb",
      "gasUsed": "0x5a1b1",
      "effectiveGasPrice": "0x5d22cfc40",
      "from": "0x3a4db9e7306af09012ceb0f222d581fd1f0c6d71",
      "to": "0xc2a61494430f6a99d5f024ab6e76b1633c7c13c0",
      "contractAddress": null,
      "l1BaseFeeScalar": "0x0",
      "l1BlobBaseFee": "0x39afbecf",
      "l1BlobBaseFeeScalar": "0x0",
      "l1Fee": "0x0",
      "l1GasPrice": "0x2b86abd5",
      "l1GasUsed": "0x640"
    },
    {
      "status": "0x1",
      "cumulativeGasUsed": "0x176395",
      "logs": [
        {
          "address": "0xceba9300f2b948710d2653dd7b07f33a8b32118c",
          "topics": [
            "0x8c5be1e5ebec7d5bd14f71427d1e84f3dd0314c0f7b2291e5b200ac8c7c3b925",
            "0x0000000000000000000000003a4db9e7306af09012ceb0f222d581fd1f0c6d71",
            "0x000000000000000000000000c2a61494430f6a99d5f024ab6e76b1633c7c13c0"
          ],
          "data": "0x000000000000000000000000000000000000000000000000000000000002dc6c",
          "blockHash": "0x5663d7c52b9c7578a5d93f4d3128dccfe46034c10d78eb35c2f919bed6cef4c1",
          "blockNumber": "0x2037eeb",
          "transactionHash": "0xbe878e5476d2157196b310f4626a77ef1c0b591e1e77053ff77d4cc23d856f8a",
          "transactionIndex": "0x9",
          "logIndex": "0x16",
          "removed": false
        },
        {
          "address": "0xceba9300f2b948710d2653dd7b07f33a8b32118c",
          "topics": [
            "0xddf252ad1be2c89b69c2b068fc378daa952ba7f163c4a11628f55a4df523b3ef",
            "0x0000000000000000000000003a4db9e7306af09012ceb0f222d581fd1f0c6d71",
            "0x000000000000000000000000c2a61494430f6a99d5f024ab6e76b1633c7c13c0"
          ],
          "data": "0x000000000000000000000000000000000000000000000000000000000002dc6c",
          "blockHash": "0x5663d7c52b9c7578a5d93f4d3128dccfe46034c10d78eb35c2f919bed6cef4c1",
          "blockNumber": "0x2037eeb",
          "transactionHash": "0xbe878e5476d2157196b310f4626a77ef1c0b591e1e77053ff77d4cc23d856f8a",
          "transactionIndex": "0x9",
          "logIndex": "0x17",
          "removed": false
        },
        {
          "address": "0xceba9300f2b948710d2653dd7b07f33a8b32118c",
          "topics": [
            "0x8c5be1e5ebec7d5bd14f71427d1e84f3dd0314c0f7b2291e5b200ac8c7c3b925",
            "0x000000000000000000000000c2a61494430f6a99d5f024ab6e76b1633c7c13c0",
            "0x0000000000000000000000003e59a31363e2ad014dcbc521c4a0d5757d9f3402"
          ],
          "data": "0x000000000000000000000000000000000000000000000000000000000002dc6c",
          "blockHash": "0x5663d7c52b9c7578a5d93f4d3128dccfe46034c10d78eb35c2f919bed6cef4c1",
          "blockNumber": "0x2037eeb",
          "transactionHash": "0xbe878e5476d2157196b310f4626a77ef1c0b591e1e77053ff77d4cc23d856f8a",
          "transactionIndex": "0x9",
          "logIndex": "0x18",
          "removed": false
        },
        {
          "address": "0xdbe517c0fa6467873b684eccbed77217e471e862",
          "topics": [
            "0xddf252ad1be2c89b69c2b068fc378daa952ba7f163c4a11628f55a4df523b3ef",
            "0x000000000000000000000000c2a61494430f6a99d5f024ab6e76b1633c7c13c0",
            "0x0000000000000000000000000000000000000000000000000000000000000000"
          ],
          "data": "0x000000000000000000000000000000000000000000000000000000000002dc6c",
          "blockHash": "0x5663d7c52b9c7578a5d93f4d3128dccfe46034c10d78eb35c2f919bed6cef4c1",
          "blockNumber": "0x2037eeb",
          "transactionHash": "0xbe878e5476d2157196b310f4626a77ef1c0b591e1e77053ff77d4cc23d856f8a",
          "transactionIndex": "0x9",
          "logIndex": "0x19",
          "removed": false
        },
        {
          "address": "0xdbe517c0fa6467873b684eccbed77217e471e862",
          "topics": [
            "0x4cf25bc1d991c17529c25213d3cc0cda295eeaad5f13f361969b12ea48015f90",
            "0x000000000000000000000000c2a61494430f6a99d5f024ab6e76b1633c7c13c0",
            "0x0000000000000000000000000000000000000000000000000000000000000000"
          ],
          "data": "0x000000000000000000000000000000000000000000000000000000000002dc6c00000000000000000000000000000000000000000000000000000000000000000000000000000000000000000000000000000000033c4f4445c91dda774b3cf9",
          "blockHash": "0x5663d7c52b9c7578a5d93f4d3128dccfe46034c10d78eb35c2f919bed6cef4c1",
          "blockNumber": "0x2037eeb",
          "transactionHash": "0xbe878e5476d2157196b310f4626a77ef1c0b591e1e77053ff77d4cc23d856f8a",
          "transactionIndex": "0x9",
          "logIndex": "0x1a",
          "removed": false
        },
        {
          "address": "0x3e59a31363e2ad014dcbc521c4a0d5757d9f3402",
          "topics": [
            "0x804c9b842b2748a22bb64b345453a3de7ca54a6ca45ce00d415894979e22897a",
            "0x000000000000000000000000ceba9300f2b948710d2653dd7b07f33a8b32118c"
          ],
          "data": "0x00000000000000000000000000000000000000000000d50bed29c706954340d0000000000000000000000000000000000000000000000000000000000000000000000000000000000000000000000000000000000007b687f00360119964f2830000000000000000000000000000000000000000033b68c0847adabc622e20c80000000000000000000000000000000000000000033c4f4445c91dda774b3cf9",
          "blockHash": "0x5663d7c52b9c7578a5d93f4d3128dccfe46034c10d78eb35c2f919bed6cef4c1",
          "blockNumber": "0x2037eeb",
          "transactionHash": "0xbe878e5476d2157196b310f4626a77ef1c0b591e1e77053ff77d4cc23d856f8a",
          "transactionIndex": "0x9",
          "logIndex": "0x1b",
          "removed": false
        },
        {
          "address": "0xceba9300f2b948710d2653dd7b07f33a8b32118c",
          "topics": [
            "0xddf252ad1be2c89b69c2b068fc378daa952ba7f163c4a11628f55a4df523b3ef",
            "0x000000000000000000000000c2a61494430f6a99d5f024ab6e76b1633c7c13c0",
            "0x000000000000000000000000ff8309b9e99bfd2d4021bc71a362abd93dbd4785"
          ],
          "data": "0x000000000000000000000000000000000000000000000000000000000002dc6c",
          "blockHash": "0x5663d7c52b9c7578a5d93f4d3128dccfe46034c10d78eb35c2f919bed6cef4c1",
          "blockNumber": "0x2037eeb",
          "transactionHash": "0xbe878e5476d2157196b310f4626a77ef1c0b591e1e77053ff77d4cc23d856f8a",
          "transactionIndex": "0x9",
          "logIndex": "0x1c",
          "removed": false
        },
        {
          "address": "0x3e59a31363e2ad014dcbc521c4a0d5757d9f3402",
          "topics": [
            "0xa534c8dbe71f871f9f3530e97a74601fea17b426cae02e1c5aee42c96c784051",
            "0x000000000000000000000000ceba9300f2b948710d2653dd7b07f33a8b32118c",
            "0x000000000000000000000000c2a61494430f6a99d5f024ab6e76b1633c7c13c0",
            "0x000000000000000000000000c2a61494430f6a99d5f024ab6e76b1633c7c13c0"
          ],
          "data": "0x000000000000000000000000000000000000000000000000000000000002dc6c0000000000000000000000000000000000000000000000000000000000000000",
          "blockHash": "0x5663d7c52b9c7578a5d93f4d3128dccfe46034c10d78eb35c2f919bed6cef4c1",
          "blockNumber": "0x2037eeb",
          "transactionHash": "0xbe878e5476d2157196b310f4626a77ef1c0b591e1e77053ff77d4cc23d856f8a",
          "transactionIndex": "0x9",
          "logIndex": "0x1d",
          "removed": false
        },
        {
          "address": "0xc2a61494430f6a99d5f024ab6e76b1633c7c13c0",
          "topics": [
            "0x0d4979b0859a1951f8ed7cbe3b1994e740552588f27ba02ca0f8f1ddcad16e0c",
            "0x0000000000000000000000000000000000000000000000000000000000000003"
          ],
          "data": "0x000000000000000000000000000000000000000000000000000000000002dc6c",
          "blockHash": "0x5663d7c52b9c7578a5d93f4d3128dccfe46034c10d78eb35c2f919bed6cef4c1",
          "blockNumber": "0x2037eeb",
          "transactionHash": "0xbe878e5476d2157196b310f4626a77ef1c0b591e1e77053ff77d4cc23d856f8a",
          "transactionIndex": "0x9",
          "logIndex": "0x1e",
          "removed": false
        }
      ],
      "logsBloom": "0x10000000000000010000120010400000000000000000000000000000000000000000000000000000000000000000400000110000c20000000000000000200000000000008000000000000008400000000000002000040000000000000000000080000000020000000000000200000800000000000000000000000010000000000000000000000000000000000000400000000000000000002200000000000000020001100000000000000000000000000000000000800000400000000000410000000002000080200000022000000000020000000000001000000000000020040010100000004010001800000000000000000000000000000000000000840000",
      "type": "0x0",
      "transactionHash": "0xbe878e5476d2157196b310f4626a77ef1c0b591e1e77053ff77d4cc23d856f8a",
      "transactionIndex": "0x9",
      "blockHash": "0x5663d7c52b9c7578a5d93f4d3128dccfe46034c10d78eb35c2f919bed6cef4c1",
      "blockNumber": "0x2037eeb",
      "gasUsed": "0x38c20",
      "effectiveGasPrice": "0x5d22cfc40",
      "from": "0x3a4db9e7306af09012ceb0f222d581fd1f0c6d71",
      "to": "0xc2a61494430f6a99d5f024ab6e76b1633c7c13c0",
      "contractAddress": null,
      "l1BaseFeeScalar": "0x0",
      "l1BlobBaseFee": "0x39afbecf",
      "l1BlobBaseFeeScalar": "0x0",
      "l1Fee": "0x0",
      "l1GasPrice": "0x2b86abd5",
      "l1GasUsed": "0x851"
    }
  ],
  "libraries": [],
  "pending": [],
  "returns": {},
  "timestamp": 1745684290,
  "chain": 42220,
  "commit": "1cefd9d"
}