{
  "transactions": [
    {
      "hash": "0x5700fc5dbb32bfda0b2e365152801a147afe3d707bf6e42422958d0b41687e42",
      "transactionType": "CALL",
      "contractName": null,
      "contractAddress": "0xd2b508298fcc37261953684744ec4ccc734d5083",
      "function": "addCollateralWithPermit(uint256,uint256,uint256,uint8,bytes32,bytes32)",
      "arguments": [
        "5",
        "300000",
        "1745966840",
        "28",
        "0x814a3155c5a093fcf1096cb4928a7f289f65b22fe91f6346ee0faa45bd4df2ca",
        "0x7d67d112f7779efa768cb16fe92a547901c2b8e0270c91d049080a6375d68093"
      ],
      "transaction": {
        "from": "0x3a4db9e7306af09012ceb0f222d581fd1f0c6d71",
        "to": "0xd2b508298fcc37261953684744ec4ccc734d5083",
        "gas": "0x5bebd",
        "value": "0x0",
        "input": "0x558e45ba000000000000000000000000000000000000000000000000000000000000000500000000000000000000000000000000000000000000000000000000000493e000000000000000000000000000000000000000000000000000000000681156f8000000000000000000000000000000000000000000000000000000000000001c814a3155c5a093fcf1096cb4928a7f289f65b22fe91f6346ee0faa45bd4df2ca7d67d112f7779efa768cb16fe92a547901c2b8e0270c91d049080a6375d68093",
        "nonce": "0xf2",
        "chainId": "0xa4ec"
      },
      "additionalContracts": [],
      "isFixedGasLimit": false
    }
  ],
  "receipts": [
    {
      "status": "0x1",
      "cumulativeGasUsed": "0x69fc9",
      "logs": [
        {
          "address": "0x48065fbbe25f71c9282ddf5e1cd6d6a887483d5e",
          "topics": [
            "0x8c5be1e5ebec7d5bd14f71427d1e84f3dd0314c0f7b2291e5b200ac8c7c3b925",
            "0x0000000000000000000000003a4db9e7306af09012ceb0f222d581fd1f0c6d71",
            "0x000000000000000000000000d2b508298fcc37261953684744ec4ccc734d5083"
          ],
          "data": "0x00000000000000000000000000000000000000000000000000000000000493e0",
          "blockHash": "0xe0e612acf325488d043bf7fd1160d932b4f45c2e0ea824df77c939c8f675f197",
          "blockNumber": "0x207c0a4",
          "transactionHash": "0x5700fc5dbb32bfda0b2e365152801a147afe3d707bf6e42422958d0b41687e42",
          "transactionIndex": "0x3",
          "logIndex": "0x6",
          "removed": false
        },
        {
          "address": "0x48065fbbe25f71c9282ddf5e1cd6d6a887483d5e",
          "topics": [
            "0xddf252ad1be2c89b69c2b068fc378daa952ba7f163c4a11628f55a4df523b3ef",
            "0x0000000000000000000000003a4db9e7306af09012ceb0f222d581fd1f0c6d71",
            "0x000000000000000000000000d2b508298fcc37261953684744ec4ccc734d5083"
          ],
          "data": "0x00000000000000000000000000000000000000000000000000000000000493e0",
          "blockHash": "0xe0e612acf325488d043bf7fd1160d932b4f45c2e0ea824df77c939c8f675f197",
          "blockNumber": "0x207c0a4",
          "transactionHash": "0x5700fc5dbb32bfda0b2e365152801a147afe3d707bf6e42422958d0b41687e42",
          "transactionIndex": "0x3",
          "logIndex": "0x7",
          "removed": false
        },
        {
          "address": "0x48065fbbe25f71c9282ddf5e1cd6d6a887483d5e",
          "topics": [
            "0x8c5be1e5ebec7d5bd14f71427d1e84f3dd0314c0f7b2291e5b200ac8c7c3b925",
            "0x0000000000000000000000003a4db9e7306af09012ceb0f222d581fd1f0c6d71",
            "0x000000000000000000000000d2b508298fcc37261953684744ec4ccc734d5083"
          ],
          "data": "0x0000000000000000000000000000000000000000000000000000000000000000",
          "blockHash": "0xe0e612acf325488d043bf7fd1160d932b4f45c2e0ea824df77c939c8f675f197",
          "blockNumber": "0x207c0a4",
          "transactionHash": "0x5700fc5dbb32bfda0b2e365152801a147afe3d707bf6e42422958d0b41687e42",
          "transactionIndex": "0x3",
          "logIndex": "0x8",
          "removed": false
        },
        {
          "address": "0x48065fbbe25f71c9282ddf5e1cd6d6a887483d5e",
          "topics": [
            "0x8c5be1e5ebec7d5bd14f71427d1e84f3dd0314c0f7b2291e5b200ac8c7c3b925",
            "0x000000000000000000000000d2b508298fcc37261953684744ec4ccc734d5083",
            "0x0000000000000000000000003e59a31363e2ad014dcbc521c4a0d5757d9f3402"
          ],
          "data": "0x00000000000000000000000000000000000000000000000000000000000493e0",
          "blockHash": "0xe0e612acf325488d043bf7fd1160d932b4f45c2e0ea824df77c939c8f675f197",
          "blockNumber": "0x207c0a4",
          "transactionHash": "0x5700fc5dbb32bfda0b2e365152801a147afe3d707bf6e42422958d0b41687e42",
          "transactionIndex": "0x3",
          "logIndex": "0x9",
          "removed": false
        },
        {
          "address": "0x3e59a31363e2ad014dcbc521c4a0d5757d9f3402",
          "topics": [
            "0x804c9b842b2748a22bb64b345453a3de7ca54a6ca45ce00d415894979e22897a",
            "0x00000000000000000000000048065fbbe25f71c9282ddf5e1cd6d6a887483d5e"
          ],
          "data": "0x00000000000000000000000000000000000000000000000c95aced97518ff2ac0000000000000000000000000000000000000000000000000000000000000000000000000000000000000000000000000000000000001dfe580ee3688490638c0000000000000000000000000000000000000000033b5f8e3b22ef92acc41ad70000000000000000000000000000000000000000033bcce2887ceac474748359",
          "blockHash": "0xe0e612acf325488d043bf7fd1160d932b4f45c2e0ea824df77c939c8f675f197",
          "blockNumber": "0x207c0a4",
          "transactionHash": "0x5700fc5dbb32bfda0b2e365152801a147afe3d707bf6e42422958d0b41687e42",
          "transactionIndex": "0x3",
          "logIndex": "0xa",
          "removed": false
        },
        {
          "address": "0x48065fbbe25f71c9282ddf5e1cd6d6a887483d5e",
          "topics": [
            "0xddf252ad1be2c89b69c2b068fc378daa952ba7f163c4a11628f55a4df523b3ef",
            "0x000000000000000000000000d2b508298fcc37261953684744ec4ccc734d5083",
            "0x000000000000000000000000dee98402a302e4d707fb9bf2bac66faeec31e8df"
          ],
          "data": "0x00000000000000000000000000000000000000000000000000000000000493e0",
          "blockHash": "0xe0e612acf325488d043bf7fd1160d932b4f45c2e0ea824df77c939c8f675f197",
          "blockNumber": "0x207c0a4",
          "transactionHash": "0x5700fc5dbb32bfda0b2e365152801a147afe3d707bf6e42422958d0b41687e42",
          "transactionIndex": "0x3",
          "logIndex": "0xb",
          "removed": false
        },
        {
          "address": "0x48065fbbe25f71c9282ddf5e1cd6d6a887483d5e",
          "topics": [
            "0x8c5be1e5ebec7d5bd14f71427d1e84f3dd0314c0f7b2291e5b200ac8c7c3b925",
            "0x000000000000000000000000d2b508298fcc37261953684744ec4ccc734d5083",
            "0x0000000000000000000000003e59a31363e2ad014dcbc521c4a0d5757d9f3402"
          ],
          "data": "0x0000000000000000000000000000000000000000000000000000000000000000",
          "blockHash": "0xe0e612acf325488d043bf7fd1160d932b4f45c2e0ea824df77c939c8f675f197",
          "blockNumber": "0x207c0a4",
          "transactionHash": "0x5700fc5dbb32bfda0b2e365152801a147afe3d707bf6e42422958d0b41687e42",
          "transactionIndex": "0x3",
          "logIndex": "0xc",
          "removed": false
        },
        {
          "address": "0xdee98402a302e4d707fb9bf2bac66faeec31e8df",
          "topics": [
            "0xddf252ad1be2c89b69c2b068fc378daa952ba7f163c4a11628f55a4df523b3ef",
            "0x0000000000000000000000000000000000000000000000000000000000000000",
            "0x000000000000000000000000d2b508298fcc37261953684744ec4ccc734d5083"
          ],
          "data": "0x00000000000000000000000000000000000000000000000000000000000493e0",
          "blockHash": "0xe0e612acf325488d043bf7fd1160d932b4f45c2e0ea824df77c939c8f675f197",
          "blockNumber": "0x207c0a4",
          "transactionHash": "0x5700fc5dbb32bfda0b2e365152801a147afe3d707bf6e42422958d0b41687e42",
          "transactionIndex": "0x3",
          "logIndex": "0xd",
          "removed": false
        },
        {
          "address": "0xdee98402a302e4d707fb9bf2bac66faeec31e8df",
          "topics": [
            "0x458f5fa412d0f69b08dd84872b0215675cc67bc1d5b6fd93300a1c3878b86196",
            "0x000000000000000000000000d2b508298fcc37261953684744ec4ccc734d5083",
            "0x000000000000000000000000d2b508298fcc37261953684744ec4ccc734d5083"
          ],
          "data": "0x00000000000000000000000000000000000000000000000000000000000493e000000000000000000000000000000000000000000000000000000000000000000000000000000000000000000000000000000000033b5f8e3b22ef92acc41ad7",
          "blockHash": "0xe0e612acf325488d043bf7fd1160d932b4f45c2e0ea824df77c939c8f675f197",
          "blockNumber": "0x207c0a4",
          "transactionHash": "0x5700fc5dbb32bfda0b2e365152801a147afe3d707bf6e42422958d0b41687e42",
          "transactionIndex": "0x3",
          "logIndex": "0xe",
          "removed": false
        },
        {
          "address": "0x3e59a31363e2ad014dcbc521c4a0d5757d9f3402",
          "topics": [
            "0x2b627736bca15cd5381dcf80b0bf11fd197d01a037c52b927a881a10fb73ba61",
            "0x00000000000000000000000048065fbbe25f71c9282ddf5e1cd6d6a887483d5e",
            "0x000000000000000000000000d2b508298fcc37261953684744ec4ccc734d5083",
            "0x0000000000000000000000000000000000000000000000000000000000000000"
          ],
          "data": "0x000000000000000000000000d2b508298fcc37261953684744ec4ccc734d508300000000000000000000000000000000000000000000000000000000000493e0",
          "blockHash": "0xe0e612acf325488d043bf7fd1160d932b4f45c2e0ea824df77c939c8f675f197",
          "blockNumber": "0x207c0a4",
          "transactionHash": "0x5700fc5dbb32bfda0b2e365152801a147afe3d707bf6e42422958d0b41687e42",
          "transactionIndex": "0x3",
          "logIndex": "0xf",
          "removed": false
        },
        {
          "address": "0xd2b508298fcc37261953684744ec4ccc734d5083",
          "topics": [
            "0x244160b15e69cc411f041d94ae7fab6f6bba85dade8403216c05ff4b920d5449",
            "0x0000000000000000000000000000000000000000000000000000000000000005"
          ],
          "data": "0x00000000000000000000000000000000000000000000000000000000000493e0",
          "blockHash": "0xe0e612acf325488d043bf7fd1160d932b4f45c2e0ea824df77c939c8f675f197",
          "blockNumber": "0x207c0a4",
          "transactionHash": "0x5700fc5dbb32bfda0b2e365152801a147afe3d707bf6e42422958d0b41687e42",
          "transactionIndex": "0x3",
          "logIndex": "0x10",
          "removed": false
        }
      ],
      "logsBloom": "0x0000000000000011020002000000000000100000000000000000000000000010000000080000000000000000000400000000000080020000000000000020000000001000000000080000000800000000000000000000000000000004000000000000000002000000000000000000080000000000000000004000001000000000000001000000000000000000000040100000080000000000020000000000000002000010000100000000004000000000100000000000000040000000000001000200000200008000000000a040000050000000000000001800000000000120000110100000000080000000000000000040000000000010000000400000000000",
      "type": "0x0",
      "transactionHash": "0x5700fc5dbb32bfda0b2e365152801a147afe3d707bf6e42422958d0b41687e42",
      "transactionIndex": "0x3",
      "blockHash": "0xe0e612acf325488d043bf7fd1160d932b4f45c2e0ea824df77c939c8f675f197",
      "blockNumber": "0x207c0a4",
      "gasUsed": "0x3eda3",
      "effectiveGasPrice": "0x5d22cfc40",
      "from": "0x3a4db9e7306af09012ceb0f222d581fd1f0c6d71",
      "to": "0xd2b508298fcc37261953684744ec4ccc734d5083",
      "contractAddress": null,
      "l1BaseFeeScalar": "0x0",
      "l1BlobBaseFee": "0x1d982c39",
      "l1BlobBaseFeeScalar": "0x0",
      "l1Fee": "0x0",
      "l1GasPrice": "0x4c157ba6",
      "l1GasUsed": "0x85e"
    }
  ],
  "libraries": [],
  "pending": [],
  "returns": {},
  "timestamp": 1745963258,
  "chain": 42220,
  "commit": "1cefd9d"
}