{
  "transactions": [
    {
      "hash": "0x7a93c8b8fdd6484454faa83ea2632a1cfdd7bed2ada52a3dd52010af27add107",
      "transactionType": "CALL",
      "contractName": null,
      "contractAddress": "0x48065fbbe25f71c9282ddf5e1cd6d6a887483d5e",
      "function": "approve(address,uint256)",
      "arguments": [
        "0xd2B508298fCC37261953684744ec4CCc734d5083",
        "500000"
      ],
      "transaction": {
        "from": "0x3a4db9e7306af09012ceb0f222d581fd1f0c6d71",
        "to": "0x48065fbbe25f71c9282ddf5e1cd6d6a887483d5e",
        "gas": "0x1201c",
        "value": "0x0",
        "input": "0x095ea7b3000000000000000000000000d2b508298fcc37261953684744ec4ccc734d5083000000000000000000000000000000000000000000000000000000000007a120",
        "nonce": "0xb0",
        "chainId": "0xa4ec"
      },
      "additionalContracts": [],
      "isFixedGasLimit": false
    },
    {
      "hash": "0x1c798e0568846eac0742089bab2c1ef15db63582348f4a21e828848e14b30488",
      "transactionType": "CALL",
      "contractName": null,
      "contractAddress": "0xd2b508298fcc37261953684744ec4ccc734d5083",
      "function": "createPosition(address,uint256,address,uint256,uint256)",
      "arguments": [
        "0x48065fbBE25f71C9282ddf5e1cD6D6A887483D5e",
        "500000",
        "0xcebA9300f2b948710d2653dD7B07f33A8B32118C",
        "250000",
        "2"
      ],
      "transaction": {
        "from": "0x3a4db9e7306af09012ceb0f222d581fd1f0c6d71",
        "to": "0xd2b508298fcc37261953684744ec4ccc734d5083",
        "gas": "0xdebbf",
        "value": "0x0",
        "input": "0xb0c3d5df00000000000000000000000048065fbbe25f71c9282ddf5e1cd6d6a887483d5e000000000000000000000000000000000000000000000000000000000007a120000000000000000000000000ceba9300f2b948710d2653dd7b07f33a8b32118c000000000000000000000000000000000000000000000000000000000003d0900000000000000000000000000000000000000000000000000000000000000002",
        "nonce": "0xb1",
        "chainId": "0xa4ec"
      },
      "additionalContracts": [],
      "isFixedGasLimit": false
    },
    {
      "hash": "0x37c892c48ca2fd24eb84367f9b8c4e3e11777cbaf8dc275badbb8f5c88cd78cc",
      "transactionType": "CALL",
      "contractName": null,
      "contractAddress": "0xd2b508298fcc37261953684744ec4ccc734d5083",
      "function": "addCollateralWithPermit(uint256,uint256,uint256,uint8,bytes32,bytes32)",
      "arguments": [
        "2",
        "250000",
        "1745750993",
        "27",
        "0xc72ef2395d54252a3a72e83ab816b2189a4b6259f28db2e1c4eb13b45d523ef9",
        "0x3917e7982fc52c881ca385fad85ef13de65cd304720f9e25c57e0b99b48abeff"
      ],
      "transaction": {
        "from": "0x3a4db9e7306af09012ceb0f222d581fd1f0c6d71",
        "to": "0xd2b508298fcc37261953684744ec4ccc734d5083",
        "gas": "0x584b2",
        "value": "0x0",
        "input": "0x558e45ba0000000000000000000000000000000000000000000000000000000000000002000000000000000000000000000000000000000000000000000000000003d09000000000000000000000000000000000000000000000000000000000680e0bd1000000000000000000000000000000000000000000000000000000000000001bc72ef2395d54252a3a72e83ab816b2189a4b6259f28db2e1c4eb13b45d523ef93917e7982fc52c881ca385fad85ef13de65cd304720f9e25c57e0b99b48abeff",
        "nonce": "0xb2",
        "chainId": "0xa4ec"
      },
      "additionalContracts": [],
      "isFixedGasLimit": false
    },
    {
      "hash": "0x837e4dc402b32221fa9a008f86150bd3c44149efa74d9f2952d2297775cd7e51",
      "transactionType": "CALL",
      "contractName": null,
      "contractAddress": "0xd2b508298fcc37261953684744ec4ccc734d5083",
      "function": "increaseBorrow(uint256,uint256)",
      "arguments": [
        "2",
        "125000"
      ],
      "transaction": {
        "from": "0x3a4db9e7306af09012ceb0f222d581fd1f0c6d71",
        "to": "0xd2b508298fcc37261953684744ec4ccc734d5083",
        "gas": "0x815b7",
        "value": "0x0",
        "input": "0x9e6824d90000000000000000000000000000000000000000000000000000000000000002000000000000000000000000000000000000000000000000000000000001e848",
        "nonce": "0xb3",
        "chainId": "0xa4ec"
      },
      "additionalContracts": [],
      "isFixedGasLimit": false
    },
    {
      "hash": "0xc9e0b22d13da1eb20578728909ac3e677f2b0e0711f0dac2a916ea2a4b7df6d7",
      "transactionType": "CALL",
      "contractName": null,
      "contractAddress": "0xd2b508298fcc37261953684744ec4ccc734d5083",
      "function": "repayDebtWithPermit(uint256,uint256,uint256,uint8,bytes32,bytes32)",
      "arguments": [
        "2",
        "187500",
        "1745750993",
        "27",
        "0x0d2376a5e811d461a22b8733eaeb64cffcba6287872d14e731c7f4cd4ebe76a1",
        "0x4f97f89ac7f9af977dcc2ccebb09069a42e0a19adb5b4f12c0b8c32851942634"
      ],
      "transaction": {
        "from": "0x3a4db9e7306af09012ceb0f222d581fd1f0c6d71",
        "to": "0xd2b508298fcc37261953684744ec4ccc734d5083",
        "gas": "0x50d2c",
        "value": "0x0",
        "input": "0xc9a7906a0000000000000000000000000000000000000000000000000000000000000002000000000000000000000000000000000000000000000000000000000002dc6c00000000000000000000000000000000000000000000000000000000680e0bd1000000000000000000000000000000000000000000000000000000000000001b0d2376a5e811d461a22b8733eaeb64cffcba6287872d14e731c7f4cd4ebe76a14f97f89ac7f9af977dcc2ccebb09069a42e0a19adb5b4f12c0b8c32851942634",
        "nonce": "0xb4",
        "chainId": "0xa4ec"
      },
      "additionalContracts": [],
      "isFixedGasLimit": false
    },
    {
      "hash": "0xf3c33952f9a2eb3aabc36e735b9c34eb209e30aa15c665f2885a2782f2b924f5",
      "transactionType": "CALL",
      "contractName": null,
      "contractAddress": "0xd2b508298fcc37261953684744ec4ccc734d5083",
      "function": "withdrawCollateral(uint256,uint256)",
      "arguments": [
        "2",
        "150000"
      ],
      "transaction": {
        "from": "0x3a4db9e7306af09012ceb0f222d581fd1f0c6d71",
        "to": "0xd2b508298fcc37261953684744ec4ccc734d5083",
        "gas": "0x75c35",
        "value": "0x0",
        "input": "0x767a7b05000000000000000000000000000000000000000000000000000000000000000200000000000000000000000000000000000000000000000000000000000249f0",
        "nonce": "0xb5",
        "chainId": "0xa4ec"
      },
      "additionalContracts": [],
      "isFixedGasLimit": false
    },
    {
      "hash": "0x59e260efc057cb55e48b1a5b786b59f26c608f6cba59d5844dfa89240aafb6e2",
      "transactionType": "CALL",
      "contractName": null,
      "contractAddress": "0xceba9300f2b948710d2653dd7b07f33a8b32118c",
      "function": "approve(address,uint256)",
      "arguments": [
        "0xd2B508298fCC37261953684744ec4CCc734d5083",
        "375000"
      ],
      "transaction": {
        "from": "0x3a4db9e7306af09012ceb0f222d581fd1f0c6d71",
        "to": "0xceba9300f2b948710d2653dd7b07f33a8b32118c",
        "gas": "0x12b1b",
        "value": "0x0",
        "input": "0x095ea7b3000000000000000000000000d2b508298fcc37261953684744ec4ccc734d5083000000000000000000000000000000000000000000000000000000000005b8d8",
        "nonce": "0xb6",
        "chainId": "0xa4ec"
      },
      "additionalContracts": [],
      "isFixedGasLimit": false
    },
    {
      "hash": "0x7f1b023ba71590b1640ed77fb40a3a7e9c2df8ee8fef21165ce0ec3ed63a0dd3",
      "transactionType": "CALL",
      "contractName": null,
      "contractAddress": "0xd2b508298fcc37261953684744ec4ccc734d5083",
      "function": "repayDebt(uint256,uint256)",
      "arguments": [
        "2",
        "187500"
      ],
      "transaction": {
        "from": "0x3a4db9e7306af09012ceb0f222d581fd1f0c6d71",
        "to": "0xd2b508298fcc37261953684744ec4ccc734d5083",
        "gas": "0x47dd5",
        "value": "0x0",
        "input": "0x015cb0a50000000000000000000000000000000000000000000000000000000000000002000000000000000000000000000000000000000000000000000000000002dc6c",
        "nonce": "0xb7",
        "chainId": "0xa4ec"
      },
      "additionalContracts": [],
      "isFixedGasLimit": false
    },
    {
      "hash": "0x3a62029c14de347c9f6bede80c37a3a80a44f996d58a60287f36c4ae6e0993f1",
      "transactionType": "CALL",
      "contractName": null,
      "contractAddress": "0xd2b508298fcc37261953684744ec4ccc734d5083",
      "function": "withdrawCollateral(uint256,uint256)",
      "arguments": [
        "2",
        "600000"
      ],
      "transaction": {
        "from": "0x3a4db9e7306af09012ceb0f222d581fd1f0c6d71",
        "to": "0xd2b508298fcc37261953684744ec4ccc734d5083",
        "gas": "0x57f65",
        "value": "0x0",
        "input": "0x767a7b05000000000000000000000000000000000000000000000000000000000000000200000000000000000000000000000000000000000000000000000000000927c0",
        "nonce": "0xb8",
        "chainId": "0xa4ec"
      },
      "additionalContracts": [],
      "isFixedGasLimit": false
    }
  ],
  "receipts": [
    {
      "status": "0x1",
      "cumulativeGasUsed": "0x15823b",
      "logs": [
        {
          "address": "0x48065fbbe25f71c9282ddf5e1cd6d6a887483d5e",
          "topics": [
            "0x8c5be1e5ebec7d5bd14f71427d1e84f3dd0314c0f7b2291e5b200ac8c7c3b925",
            "0x0000000000000000000000003a4db9e7306af09012ceb0f222d581fd1f0c6d71",
            "0x000000000000000000000000d2b508298fcc37261953684744ec4ccc734d5083"
          ],
          "data": "0x000000000000000000000000000000000000000000000000000000000007a120",
          "blockHash": "0x7be8009713d3f486970e0cf95cf61bc10aff3da938d636081f7f057724f58424",
          "blockNumber": "0x2047593",
          "transactionHash": "0x7a93c8b8fdd6484454faa83ea2632a1cfdd7bed2ada52a3dd52010af27add107",
          "transactionIndex": "0x13",
          "logIndex": "0x2a",
          "removed": false
        }
      ],
      "logsBloom": "0x00000000000000000000000000000000000000000000000000000000000000000000000000000000000000000000000000000000000000000000000000200000000000000000000000000000000000000000000000000000000000000000000000000000000000000000000000000000000000000000000040000000000000000000010000000000000000000000400000000000000000000000000000000000020000000000000000000000000000000000000000000000000000000000000000000000000080000000008000000000000000000000001000000000000000000110100000000000000000000000000000000000000010000000000000000000",
      "type": "0x0",
      "transactionHash": "0x7a93c8b8fdd6484454faa83ea2632a1cfdd7bed2ada52a3dd52010af27add107",
      "transactionIndex": "0x13",
      "blockHash": "0x7be8009713d3f486970e0cf95cf61bc10aff3da938d636081f7f057724f58424",
      "blockNumber": "0x2047593",
      "gasUsed": "0xd097",
      "effectiveGasPrice": "0x5d22cfc40",
      "from": "0x3a4db9e7306af09012ceb0f222d581fd1f0c6d71",
      "to": "0x48065fbbe25f71c9282ddf5e1cd6d6a887483d5e",
      "contractAddress": null,
      "l1BaseFeeScalar": "0x0",
      "l1BlobBaseFee": "0x5c6712e7",
      "l1BlobBaseFeeScalar": "0x0",
      "l1Fee": "0x0",
      "l1GasPrice": "0x18e1f48d",
      "l1GasUsed": "0x640"
    },
    {
      "status": "0x1",
      "cumulativeGasUsed": "0x1f9652",
      "logs": [
        {
          "address": "0x48065fbbe25f71c9282ddf5e1cd6d6a887483d5e",
          "topics": [
            "0xddf252ad1be2c89b69c2b068fc378daa952ba7f163c4a11628f55a4df523b3ef",
            "0x0000000000000000000000003a4db9e7306af09012ceb0f222d581fd1f0c6d71",
            "0x000000000000000000000000d2b508298fcc37261953684744ec4ccc734d5083"
          ],
          "data": "0x000000000000000000000000000000000000000000000000000000000007a120",
          "blockHash": "0x7be8009713d3f486970e0cf95cf61bc10aff3da938d636081f7f057724f58424",
          "blockNumber": "0x2047593",
          "transactionHash": "0x1c798e0568846eac0742089bab2c1ef15db63582348f4a21e828848e14b30488",
          "transactionIndex": "0x14",
          "logIndex": "0x2b",
          "removed": false
        },
        {
          "address": "0x48065fbbe25f71c9282ddf5e1cd6d6a887483d5e",
          "topics": [
            "0x8c5be1e5ebec7d5bd14f71427d1e84f3dd0314c0f7b2291e5b200ac8c7c3b925",
            "0x0000000000000000000000003a4db9e7306af09012ceb0f222d581fd1f0c6d71",
            "0x000000000000000000000000d2b508298fcc37261953684744ec4ccc734d5083"
          ],
          "data": "0x0000000000000000000000000000000000000000000000000000000000000000",
          "blockHash": "0x7be8009713d3f486970e0cf95cf61bc10aff3da938d636081f7f057724f58424",
          "blockNumber": "0x2047593",
          "transactionHash": "0x1c798e0568846eac0742089bab2c1ef15db63582348f4a21e828848e14b30488",
          "transactionIndex": "0x14",
          "logIndex": "0x2c",
          "removed": false
        },
        {
          "address": "0x48065fbbe25f71c9282ddf5e1cd6d6a887483d5e",
          "topics": [
            "0x8c5be1e5ebec7d5bd14f71427d1e84f3dd0314c0f7b2291e5b200ac8c7c3b925",
            "0x000000000000000000000000d2b508298fcc37261953684744ec4ccc734d5083",
            "0x0000000000000000000000003e59a31363e2ad014dcbc521c4a0d5757d9f3402"
          ],
          "data": "0x000000000000000000000000000000000000000000000000000000000007a120",
          "blockHash": "0x7be8009713d3f486970e0cf95cf61bc10aff3da938d636081f7f057724f58424",
          "blockNumber": "0x2047593",
          "transactionHash": "0x1c798e0568846eac0742089bab2c1ef15db63582348f4a21e828848e14b30488",
          "transactionIndex": "0x14",
          "logIndex": "0x2d",
          "removed": false
        },
        {
          "address": "0x3e59a31363e2ad014dcbc521c4a0d5757d9f3402",
          "topics": [
            "0x804c9b842b2748a22bb64b345453a3de7ca54a6ca45ce00d415894979e22897a",
            "0x00000000000000000000000048065fbbe25f71c9282ddf5e1cd6d6a887483d5e"
          ],
          "data": "0x00000000000000000000000000000000000000000000000b15eb9a809a72660c0000000000000000000000000000000000000000000000000000000000000000000000000000000000000000000000000000000000001c268a16c40b61a6158a0000000000000000000000000000000000000000033b5f8e257d8343ae103c4b0000000000000000000000000000000000000000033bccae720efed030a949dc",
          "blockHash": "0x7be8009713d3f486970e0cf95cf61bc10aff3da938d636081f7f057724f58424",
          "blockNumber": "0x2047593",
          "transactionHash": "0x1c798e0568846eac0742089bab2c1ef15db63582348f4a21e828848e14b30488",
          "transactionIndex": "0x14",
          "logIndex": "0x2e",
          "removed": false
        },
        {
          "address": "0x48065fbbe25f71c9282ddf5e1cd6d6a887483d5e",
          "topics": [
            "0xddf252ad1be2c89b69c2b068fc378daa952ba7f163c4a11628f55a4df523b3ef",
            "0x000000000000000000000000d2b508298fcc37261953684744ec4ccc734d5083",
            "0x000000000000000000000000dee98402a302e4d707fb9bf2bac66faeec31e8df"
          ],
          "data": "0x000000000000000000000000000000000000000000000000000000000007a120",
          "blockHash": "0x7be8009713d3f486970e0cf95cf61bc10aff3da938d636081f7f057724f58424",
          "blockNumber": "0x2047593",
          "transactionHash": "0x1c798e0568846eac0742089bab2c1ef15db63582348f4a21e828848e14b30488",
          "transactionIndex": "0x14",
          "logIndex": "0x2f",
          "removed": false
        },
        {
          "address": "0x48065fbbe25f71c9282ddf5e1cd6d6a887483d5e",
          "topics": [
            "0x8c5be1e5ebec7d5bd14f71427d1e84f3dd0314c0f7b2291e5b200ac8c7c3b925",
            "0x000000000000000000000000d2b508298fcc37261953684744ec4ccc734d5083",
            "0x0000000000000000000000003e59a31363e2ad014dcbc521c4a0d5757d9f3402"
          ],
          "data": "0x0000000000000000000000000000000000000000000000000000000000000000",
          "blockHash": "0x7be8009713d3f486970e0cf95cf61bc10aff3da938d636081f7f057724f58424",
          "blockNumber": "0x2047593",
          "transactionHash": "0x1c798e0568846eac0742089bab2c1ef15db63582348f4a21e828848e14b30488",
          "transactionIndex": "0x14",
          "logIndex": "0x30",
          "removed": false
        },
        {
          "address": "0xdee98402a302e4d707fb9bf2bac66faeec31e8df",
          "topics": [
            "0xddf252ad1be2c89b69c2b068fc378daa952ba7f163c4a11628f55a4df523b3ef",
            "0x0000000000000000000000000000000000000000000000000000000000000000",
            "0x000000000000000000000000d2b508298fcc37261953684744ec4ccc734d5083"
          ],
          "data": "0x000000000000000000000000000000000000000000000000000000000007a120",
          "blockHash": "0x7be8009713d3f486970e0cf95cf61bc10aff3da938d636081f7f057724f58424",
          "blockNumber": "0x2047593",
          "transactionHash": "0x1c798e0568846eac0742089bab2c1ef15db63582348f4a21e828848e14b30488",
          "transactionIndex": "0x14",
          "logIndex": "0x31",
          "removed": false
        },
        {
          "address": "0xdee98402a302e4d707fb9bf2bac66faeec31e8df",
          "topics": [
            "0x458f5fa412d0f69b08dd84872b0215675cc67bc1d5b6fd93300a1c3878b86196",
            "0x000000000000000000000000d2b508298fcc37261953684744ec4ccc734d5083",
            "0x000000000000000000000000d2b508298fcc37261953684744ec4ccc734d5083"
          ],
          "data": "0x000000000000000000000000000000000000000000000000000000000007a12000000000000000000000000000000000000000000000000000000000000000000000000000000000000000000000000000000000033b5f8e257d8343ae103c4b",
          "blockHash": "0x7be8009713d3f486970e0cf95cf61bc10aff3da938d636081f7f057724f58424",
          "blockNumber": "0x2047593",
          "transactionHash": "0x1c798e0568846eac0742089bab2c1ef15db63582348f4a21e828848e14b30488",
          "transactionIndex": "0x14",
          "logIndex": "0x32",
          "removed": false
        },
        {
          "address": "0x3e59a31363e2ad014dcbc521c4a0d5757d9f3402",
          "topics": [
            "0x2b627736bca15cd5381dcf80b0bf11fd197d01a037c52b927a881a10fb73ba61",
            "0x00000000000000000000000048065fbbe25f71c9282ddf5e1cd6d6a887483d5e",
            "0x000000000000000000000000d2b508298fcc37261953684744ec4ccc734d5083",
            "0x0000000000000000000000000000000000000000000000000000000000000000"
          ],
          "data": "0x000000000000000000000000d2b508298fcc37261953684744ec4ccc734d5083000000000000000000000000000000000000000000000000000000000007a120",
          "blockHash": "0x7be8009713d3f486970e0cf95cf61bc10aff3da938d636081f7f057724f58424",
          "blockNumber": "0x2047593",
          "transactionHash": "0x1c798e0568846eac0742089bab2c1ef15db63582348f4a21e828848e14b30488",
          "transactionIndex": "0x14",
          "logIndex": "0x33",
          "removed": false
        },
        {
          "address": "0xdbe517c0fa6467873b684eccbed77217e471e862",
          "topics": [
            "0xddf252ad1be2c89b69c2b068fc378daa952ba7f163c4a11628f55a4df523b3ef",
            "0x0000000000000000000000000000000000000000000000000000000000000000",
            "0x000000000000000000000000d2b508298fcc37261953684744ec4ccc734d5083"
          ],
          "data": "0x000000000000000000000000000000000000000000000000000000000003d090",
          "blockHash": "0x7be8009713d3f486970e0cf95cf61bc10aff3da938d636081f7f057724f58424",
          "blockNumber": "0x2047593",
          "transactionHash": "0x1c798e0568846eac0742089bab2c1ef15db63582348f4a21e828848e14b30488",
          "transactionIndex": "0x14",
          "logIndex": "0x34",
          "removed": false
        },
        {
          "address": "0xdbe517c0fa6467873b684eccbed77217e471e862",
          "topics": [
            "0x458f5fa412d0f69b08dd84872b0215675cc67bc1d5b6fd93300a1c3878b86196",
            "0x000000000000000000000000d2b508298fcc37261953684744ec4ccc734d5083",
            "0x000000000000000000000000d2b508298fcc37261953684744ec4ccc734d5083"
          ],
          "data": "0x000000000000000000000000000000000000000000000000000000000003d09000000000000000000000000000000000000000000000000000000000000000000000000000000000000000000000000000000000033c533a190a662358244bbe",
          "blockHash": "0x7be8009713d3f486970e0cf95cf61bc10aff3da938d636081f7f057724f58424",
          "blockNumber": "0x2047593",
          "transactionHash": "0x1c798e0568846eac0742089bab2c1ef15db63582348f4a21e828848e14b30488",
          "transactionIndex": "0x14",
          "logIndex": "0x35",
          "removed": false
        },
        {
          "address": "0x3e59a31363e2ad014dcbc521c4a0d5757d9f3402",
          "topics": [
            "0x804c9b842b2748a22bb64b345453a3de7ca54a6ca45ce00d415894979e22897a",
            "0x000000000000000000000000ceba9300f2b948710d2653dd7b07f33a8b32118c"
          ],
          "data": "0x00000000000000000000000000000000000000000000d614112883968fc505dc000000000000000000000000000000000000000000000000000000000000000000000000000000000000000000000000000000000007bb4e7f016a280a33e7c00000000000000000000000000000000000000000033b692dd23c9541442ee0020000000000000000000000000000000000000000033c533a190a662358244bbe",
          "blockHash": "0x7be8009713d3f486970e0cf95cf61bc10aff3da938d636081f7f057724f58424",
          "blockNumber": "0x2047593",
          "transactionHash": "0x1c798e0568846eac0742089bab2c1ef15db63582348f4a21e828848e14b30488",
          "transactionIndex": "0x14",
          "logIndex": "0x36",
          "removed": false
        },
        {
          "address": "0xceba9300f2b948710d2653dd7b07f33a8b32118c",
          "topics": [
            "0xddf252ad1be2c89b69c2b068fc378daa952ba7f163c4a11628f55a4df523b3ef",
            "0x000000000000000000000000ff8309b9e99bfd2d4021bc71a362abd93dbd4785",
            "0x000000000000000000000000d2b508298fcc37261953684744ec4ccc734d5083"
          ],
          "data": "0x000000000000000000000000000000000000000000000000000000000003d090",
          "blockHash": "0x7be8009713d3f486970e0cf95cf61bc10aff3da938d636081f7f057724f58424",
          "blockNumber": "0x2047593",
          "transactionHash": "0x1c798e0568846eac0742089bab2c1ef15db63582348f4a21e828848e14b30488",
          "transactionIndex": "0x14",
          "logIndex": "0x37",
          "removed": false
        },
        {
          "address": "0x3e59a31363e2ad014dcbc521c4a0d5757d9f3402",
          "topics": [
            "0xb3d084820fb1a9decffb176436bd02558d15fac9b0ddfed8c465bc7359d7dce0",
            "0x000000000000000000000000ceba9300f2b948710d2653dd7b07f33a8b32118c",
            "0x000000000000000000000000d2b508298fcc37261953684744ec4ccc734d5083",
            "0x0000000000000000000000000000000000000000000000000000000000000000"
          ],
          "data": "0x000000000000000000000000d2b508298fcc37261953684744ec4ccc734d5083000000000000000000000000000000000000000000000000000000000003d090000000000000000000000000000000000000000000000000000000000000000200000000000000000000000000000000000000000007bb4e7f016a280a33e7c0",
          "blockHash": "0x7be8009713d3f486970e0cf95cf61bc10aff3da938d636081f7f057724f58424",
          "blockNumber": "0x2047593",
          "transactionHash": "0x1c798e0568846eac0742089bab2c1ef15db63582348f4a21e828848e14b30488",
          "transactionIndex": "0x14",
          "logIndex": "0x38",
          "removed": false
        },
        {
          "address": "0xceba9300f2b948710d2653dd7b07f33a8b32118c",
          "topics": [
            "0xddf252ad1be2c89b69c2b068fc378daa952ba7f163c4a11628f55a4df523b3ef",
            "0x000000000000000000000000d2b508298fcc37261953684744ec4ccc734d5083",
            "0x0000000000000000000000003a4db9e7306af09012ceb0f222d581fd1f0c6d71"
          ],
          "data": "0x000000000000000000000000000000000000000000000000000000000003d090",
          "blockHash": "0x7be8009713d3f486970e0cf95cf61bc10aff3da938d636081f7f057724f58424",
          "blockNumber": "0x2047593",
          "transactionHash": "0x1c798e0568846eac0742089bab2c1ef15db63582348f4a21e828848e14b30488",
          "transactionIndex": "0x14",
          "logIndex": "0x39",
          "removed": false
        },
        {
          "address": "0xd2b508298fcc37261953684744ec4ccc734d5083",
          "topics": [
            "0x9f9b498443531d2db9df8a00ec466efc74ba50ec1d82f7badd3424b87930e19a",
            "0x0000000000000000000000000000000000000000000000000000000000000002",
            "0x0000000000000000000000003a4db9e7306af09012ceb0f222d581fd1f0c6d71"
          ],
          "data": "0x00000000000000000000000048065fbbe25f71c9282ddf5e1cd6d6a887483d5e000000000000000000000000000000000000000000000000000000000007a120000000000000000000000000ceba9300f2b948710d2653dd7b07f33a8b32118c000000000000000000000000000000000000000000000000000000000003d0900000000000000000000000000000000000000000000000000000000000000002",
          "blockHash": "0x7be8009713d3f486970e0cf95cf61bc10aff3da938d636081f7f057724f58424",
          "blockNumber": "0x2047593",
          "transactionHash": "0x1c798e0568846eac0742089bab2c1ef15db63582348f4a21e828848e14b30488",
          "transactionIndex": "0x14",
          "logIndex": "0x3a",
          "removed": false
        }
      ],
      "logsBloom": "0x0400000000000011020012000040000000100000000000000000000000000010000000080000000000002000000440000010000080000000000000000020000000000000800000080000000800000000000000000000000000000004000000000000000002000000000000000000080000000002000000004000001000000000000001000000000000000000000040000000000000000000220000000000000002000110000100000000014000000000100000000000000040000000000001000200000200008120000002a040000040000000000000041800020000000120000110100000004010000800000001000040000000008010000000400000000000",
      "type": "0x0",
      "transactionHash": "0x1c798e0568846eac0742089bab2c1ef15db63582348f4a21e828848e14b30488",
      "transactionIndex": "0x14",
      "blockHash": "0x7be8009713d3f486970e0cf95cf61bc10aff3da938d636081f7f057724f58424",
      "blockNumber": "0x2047593",
      "gasUsed": "0xa1417",
      "effectiveGasPrice": "0x5d22cfc40",
      "from": "0x3a4db9e7306af09012ceb0f222d581fd1f0c6d71",
      "to": "0xd2b508298fcc37261953684744ec4ccc734d5083",
      "contractAddress": null,
      "l1BaseFeeScalar": "0x0",
      "l1BlobBaseFee": "0x5c6712e7",
      "l1BlobBaseFeeScalar": "0x0",
      "l1Fee": "0x0",
      "l1GasPrice": "0x18e1f48d",
      "l1GasUsed": "0x77b"
    },
    {
      "status": "0x1",
      "cumulativeGasUsed": "0x235c45",
      "logs": [
        {
          "address": "0x48065fbbe25f71c9282ddf5e1cd6d6a887483d5e",
          "topics": [
            "0x8c5be1e5ebec7d5bd14f71427d1e84f3dd0314c0f7b2291e5b200ac8c7c3b925",
            "0x0000000000000000000000003a4db9e7306af09012ceb0f222d581fd1f0c6d71",
            "0x000000000000000000000000d2b508298fcc37261953684744ec4ccc734d5083"
          ],
          "data": "0x000000000000000000000000000000000000000000000000000000000003d090",
          "blockHash": "0x7be8009713d3f486970e0cf95cf61bc10aff3da938d636081f7f057724f58424",
          "blockNumber": "0x2047593",
          "transactionHash": "0x37c892c48ca2fd24eb84367f9b8c4e3e11777cbaf8dc275badbb8f5c88cd78cc",
          "transactionIndex": "0x15",
          "logIndex": "0x3b",
          "removed": false
        },
        {
          "address": "0x48065fbbe25f71c9282ddf5e1cd6d6a887483d5e",
          "topics": [
            "0xddf252ad1be2c89b69c2b068fc378daa952ba7f163c4a11628f55a4df523b3ef",
            "0x0000000000000000000000003a4db9e7306af09012ceb0f222d581fd1f0c6d71",
            "0x000000000000000000000000d2b508298fcc37261953684744ec4ccc734d5083"
          ],
          "data": "0x000000000000000000000000000000000000000000000000000000000003d090",
          "blockHash": "0x7be8009713d3f486970e0cf95cf61bc10aff3da938d636081f7f057724f58424",
          "blockNumber": "0x2047593",
          "transactionHash": "0x37c892c48ca2fd24eb84367f9b8c4e3e11777cbaf8dc275badbb8f5c88cd78cc",
          "transactionIndex": "0x15",
          "logIndex": "0x3c",
          "removed": false
        },
        {
          "address": "0x48065fbbe25f71c9282ddf5e1cd6d6a887483d5e",
          "topics": [
            "0x8c5be1e5ebec7d5bd14f71427d1e84f3dd0314c0f7b2291e5b200ac8c7c3b925",
            "0x0000000000000000000000003a4db9e7306af09012ceb0f222d581fd1f0c6d71",
            "0x000000000000000000000000d2b508298fcc37261953684744ec4ccc734d5083"
          ],
          "data": "0x0000000000000000000000000000000000000000000000000000000000000000",
          "blockHash": "0x7be8009713d3f486970e0cf95cf61bc10aff3da938d636081f7f057724f58424",
          "blockNumber": "0x2047593",
          "transactionHash": "0x37c892c48ca2fd24eb84367f9b8c4e3e11777cbaf8dc275badbb8f5c88cd78cc",
          "transactionIndex": "0x15",
          "logIndex": "0x3d",
          "removed": false
        },
        {
          "address": "0x48065fbbe25f71c9282ddf5e1cd6d6a887483d5e",
          "topics": [
            "0x8c5be1e5ebec7d5bd14f71427d1e84f3dd0314c0f7b2291e5b200ac8c7c3b925",
            "0x000000000000000000000000d2b508298fcc37261953684744ec4ccc734d5083",
            "0x0000000000000000000000003e59a31363e2ad014dcbc521c4a0d5757d9f3402"
          ],
          "data": "0x000000000000000000000000000000000000000000000000000000000003d090",
          "blockHash": "0x7be8009713d3f486970e0cf95cf61bc10aff3da938d636081f7f057724f58424",
          "blockNumber": "0x2047593",
          "transactionHash": "0x37c892c48ca2fd24eb84367f9b8c4e3e11777cbaf8dc275badbb8f5c88cd78cc",
          "transactionIndex": "0x15",
          "logIndex": "0x3e",
          "removed": false
        },
        {
          "address": "0x3e59a31363e2ad014dcbc521c4a0d5757d9f3402",
          "topics": [
            "0x804c9b842b2748a22bb64b345453a3de7ca54a6ca45ce00d415894979e22897a",
            "0x00000000000000000000000048065fbbe25f71c9282ddf5e1cd6d6a887483d5e"
          ],
          "data": "0x00000000000000000000000000000000000000000000000b15eb7af1c15012590000000000000000000000000000000000000000000000000000000000000000000000000000000000000000000000000000000000001c2689eeb2701aa82dbf0000000000000000000000000000000000000000033b5f8e257d8343ae103c4b0000000000000000000000000000000000000000033bccae720efed030a949dc",
          "blockHash": "0x7be8009713d3f486970e0cf95cf61bc10aff3da938d636081f7f057724f58424",
          "blockNumber": "0x2047593",
          "transactionHash": "0x37c892c48ca2fd24eb84367f9b8c4e3e11777cbaf8dc275badbb8f5c88cd78cc",
          "transactionIndex": "0x15",
          "logIndex": "0x3f",
          "removed": false
        },
        {
          "address": "0x48065fbbe25f71c9282ddf5e1cd6d6a887483d5e",
          "topics": [
            "0xddf252ad1be2c89b69c2b068fc378daa952ba7f163c4a11628f55a4df523b3ef",
            "0x000000000000000000000000d2b508298fcc37261953684744ec4ccc734d5083",
            "0x000000000000000000000000dee98402a302e4d707fb9bf2bac66faeec31e8df"
          ],
          "data": "0x000000000000000000000000000000000000000000000000000000000003d090",
          "blockHash": "0x7be8009713d3f486970e0cf95cf61bc10aff3da938d636081f7f057724f58424",
          "blockNumber": "0x2047593",
          "transactionHash": "0x37c892c48ca2fd24eb84367f9b8c4e3e11777cbaf8dc275badbb8f5c88cd78cc",
          "transactionIndex": "0x15",
          "logIndex": "0x40",
          "removed": false
        },
        {
          "address": "0x48065fbbe25f71c9282ddf5e1cd6d6a887483d5e",
          "topics": [
            "0x8c5be1e5ebec7d5bd14f71427d1e84f3dd0314c0f7b2291e5b200ac8c7c3b925",
            "0x000000000000000000000000d2b508298fcc37261953684744ec4ccc734d5083",
            "0x0000000000000000000000003e59a31363e2ad014dcbc521c4a0d5757d9f3402"
          ],
          "data": "0x0000000000000000000000000000000000000000000000000000000000000000",
          "blockHash": "0x7be8009713d3f486970e0cf95cf61bc10aff3da938d636081f7f057724f58424",
          "blockNumber": "0x2047593",
          "transactionHash": "0x37c892c48ca2fd24eb84367f9b8c4e3e11777cbaf8dc275badbb8f5c88cd78cc",
          "transactionIndex": "0x15",
          "logIndex": "0x41",
          "removed": false
        },
        {
          "address": "0xdee98402a302e4d707fb9bf2bac66faeec31e8df",
          "topics": [
            "0xddf252ad1be2c89b69c2b068fc378daa952ba7f163c4a11628f55a4df523b3ef",
            "0x0000000000000000000000000000000000000000000000000000000000000000",
            "0x000000000000000000000000d2b508298fcc37261953684744ec4ccc734d5083"
          ],
          "data": "0x000000000000000000000000000000000000000000000000000000000003d090",
          "blockHash": "0x7be8009713d3f486970e0cf95cf61bc10aff3da938d636081f7f057724f58424",
          "blockNumber": "0x2047593",
          "transactionHash": "0x37c892c48ca2fd24eb84367f9b8c4e3e11777cbaf8dc275badbb8f5c88cd78cc",
          "transactionIndex": "0x15",
          "logIndex": "0x42",
          "removed": false
        },
        {
          "address": "0xdee98402a302e4d707fb9bf2bac66faeec31e8df",
          "topics": [
            "0x458f5fa412d0f69b08dd84872b0215675cc67bc1d5b6fd93300a1c3878b86196",
            "0x000000000000000000000000d2b508298fcc37261953684744ec4ccc734d5083",
            "0x000000000000000000000000d2b508298fcc37261953684744ec4ccc734d5083"
          ],
          "data": "0x000000000000000000000000000000000000000000000000000000000003d09000000000000000000000000000000000000000000000000000000000000000000000000000000000000000000000000000000000033b5f8e257d8343ae103c4b",
          "blockHash": "0x7be8009713d3f486970e0cf95cf61bc10aff3da938d636081f7f057724f58424",
          "blockNumber": "0x2047593",
          "transactionHash": "0x37c892c48ca2fd24eb84367f9b8c4e3e11777cbaf8dc275badbb8f5c88cd78cc",
          "transactionIndex": "0x15",
          "logIndex": "0x43",
          "removed": false
        },
        {
          "address": "0x3e59a31363e2ad014dcbc521c4a0d5757d9f3402",
          "topics": [
            "0x2b627736bca15cd5381dcf80b0bf11fd197d01a037c52b927a881a10fb73ba61",
            "0x00000000000000000000000048065fbbe25f71c9282ddf5e1cd6d6a887483d5e",
            "0x000000000000000000000000d2b508298fcc37261953684744ec4ccc734d5083",
            "0x0000000000000000000000000000000000000000000000000000000000000000"
          ],
          "data": "0x000000000000000000000000d2b508298fcc37261953684744ec4ccc734d5083000000000000000000000000000000000000000000000000000000000003d090",
          "blockHash": "0x7be8009713d3f486970e0cf95cf61bc10aff3da938d636081f7f057724f58424",
          "blockNumber": "0x2047593",
          "transactionHash": "0x37c892c48ca2fd24eb84367f9b8c4e3e11777cbaf8dc275badbb8f5c88cd78cc",
          "transactionIndex": "0x15",
          "logIndex": "0x44",
          "removed": false
        },
        {
          "address": "0xd2b508298fcc37261953684744ec4ccc734d5083",
          "topics": [
            "0x244160b15e69cc411f041d94ae7fab6f6bba85dade8403216c05ff4b920d5449",
            "0x0000000000000000000000000000000000000000000000000000000000000002"
          ],
          "data": "0x000000000000000000000000000000000000000000000000000000000003d090",
          "blockHash": "0x7be8009713d3f486970e0cf95cf61bc10aff3da938d636081f7f057724f58424",
          "blockNumber": "0x2047593",
          "transactionHash": "0x37c892c48ca2fd24eb84367f9b8c4e3e11777cbaf8dc275badbb8f5c88cd78cc",
          "transactionIndex": "0x15",
          "logIndex": "0x45",
          "removed": false
        }
      ],
      "logsBloom": "0x0400000000000011020002000000000000100000000000000000000000000010000000080000000000000000000400000000000080020000000000000020000000000000000000080000000800000000000000000000000000000004000000000000000002000000000000000000080000000000000000004000001000000000000001000000000000000000000040000000000000000000020000000000000002000010000100000000014000000000100000000000000040000000000001000200000200008000000000a040000050000000000000001800000000000120000110100000000080000000000000000040000000008010000000400000000000",
      "type": "0x0",
      "transactionHash": "0x37c892c48ca2fd24eb84367f9b8c4e3e11777cbaf8dc275badbb8f5c88cd78cc",
      "transactionIndex": "0x15",
      "blockHash": "0x7be8009713d3f486970e0cf95cf61bc10aff3da938d636081f7f057724f58424",
      "blockNumber": "0x2047593",
      "gasUsed": "0x3c5f3",
      "effectiveGasPrice": "0x5d22cfc40",
      "from": "0x3a4db9e7306af09012ceb0f222d581fd1f0c6d71",
      "to": "0xd2b508298fcc37261953684744ec4ccc734d5083",
      "contractAddress": null,
      "l1BaseFeeScalar": "0x0",
      "l1BlobBaseFee": "0x5c6712e7",
      "l1BlobBaseFeeScalar": "0x0",
      "l1Fee": "0x0",
      "l1GasPrice": "0x18e1f48d",
      "l1GasUsed": "0x85e"
    },
    {
      "status": "0x1",
      "cumulativeGasUsed": "0x28e376",
      "logs": [
        {
          "address": "0xdbe517c0fa6467873b684eccbed77217e471e862",
          "topics": [
            "0xddf252ad1be2c89b69c2b068fc378daa952ba7f163c4a11628f55a4df523b3ef",
            "0x0000000000000000000000000000000000000000000000000000000000000000",
            "0x000000000000000000000000d2b508298fcc37261953684744ec4ccc734d5083"
          ],
          "data": "0x000000000000000000000000000000000000000000000000000000000001e848",
          "blockHash": "0x7be8009713d3f486970e0cf95cf61bc10aff3da938d636081f7f057724f58424",
          "blockNumber": "0x2047593",
          "transactionHash": "0x837e4dc402b32221fa9a008f86150bd3c44149efa74d9f2952d2297775cd7e51",
          "transactionIndex": "0x16",
          "logIndex": "0x46",
          "removed": false
        },
        {
          "address": "0xdbe517c0fa6467873b684eccbed77217e471e862",
          "topics": [
            "0x458f5fa412d0f69b08dd84872b0215675cc67bc1d5b6fd93300a1c3878b86196",
            "0x000000000000000000000000d2b508298fcc37261953684744ec4ccc734d5083",
            "0x000000000000000000000000d2b508298fcc37261953684744ec4ccc734d5083"
          ],
          "data": "0x000000000000000000000000000000000000000000000000000000000001e84800000000000000000000000000000000000000000000000000000000000000000000000000000000000000000000000000000000033c533a190a662358244bbe",
          "blockHash": "0x7be8009713d3f486970e0cf95cf61bc10aff3da938d636081f7f057724f58424",
          "blockNumber": "0x2047593",
          "transactionHash": "0x837e4dc402b32221fa9a008f86150bd3c44149efa74d9f2952d2297775cd7e51",
          "transactionIndex": "0x16",
          "logIndex": "0x47",
          "removed": false
        },
        {
          "address": "0x3e59a31363e2ad014dcbc521c4a0d5757d9f3402",
          "topics": [
            "0x804c9b842b2748a22bb64b345453a3de7ca54a6ca45ce00d415894979e22897a",
            "0x000000000000000000000000ceba9300f2b948710d2653dd7b07f33a8b32118c"
          ],
          "data": "0x00000000000000000000000000000000000000000000d614341f0cbfc819505b000000000000000000000000000000000000000000000000000000000000000000000000000000000000000000000000000000000007bb4f20a26ab51396b4f10000000000000000000000000000000000000000033b692dd23c9541442ee0020000000000000000000000000000000000000000033c533a190a662358244bbe",
          "blockHash": "0x7be8009713d3f486970e0cf95cf61bc10aff3da938d636081f7f057724f58424",
          "blockNumber": "0x2047593",
          "transactionHash": "0x837e4dc402b32221fa9a008f86150bd3c44149efa74d9f2952d2297775cd7e51",
          "transactionIndex": "0x16",
          "logIndex": "0x48",
          "removed": false
        },
        {
          "address": "0xceba9300f2b948710d2653dd7b07f33a8b32118c",
          "topics": [
            "0xddf252ad1be2c89b69c2b068fc378daa952ba7f163c4a11628f55a4df523b3ef",
            "0x000000000000000000000000ff8309b9e99bfd2d4021bc71a362abd93dbd4785",
            "0x000000000000000000000000d2b508298fcc37261953684744ec4ccc734d5083"
          ],
          "data": "0x000000000000000000000000000000000000000000000000000000000001e848",
          "blockHash": "0x7be8009713d3f486970e0cf95cf61bc10aff3da938d636081f7f057724f58424",
          "blockNumber": "0x2047593",
          "transactionHash": "0x837e4dc402b32221fa9a008f86150bd3c44149efa74d9f2952d2297775cd7e51",
          "transactionIndex": "0x16",
          "logIndex": "0x49",
          "removed": false
        },
        {
          "address": "0x3e59a31363e2ad014dcbc521c4a0d5757d9f3402",
          "topics": [
            "0xb3d084820fb1a9decffb176436bd02558d15fac9b0ddfed8c465bc7359d7dce0",
            "0x000000000000000000000000ceba9300f2b948710d2653dd7b07f33a8b32118c",
            "0x000000000000000000000000d2b508298fcc37261953684744ec4ccc734d5083",
            "0x0000000000000000000000000000000000000000000000000000000000000000"
          ],
          "data": "0x000000000000000000000000d2b508298fcc37261953684744ec4ccc734d5083000000000000000000000000000000000000000000000000000000000001e848000000000000000000000000000000000000000000000000000000000000000200000000000000000000000000000000000000000007bb4f20a26ab51396b4f1",
          "blockHash": "0x7be8009713d3f486970e0cf95cf61bc10aff3da938d636081f7f057724f58424",
          "blockNumber": "0x2047593",
          "transactionHash": "0x837e4dc402b32221fa9a008f86150bd3c44149efa74d9f2952d2297775cd7e51",
          "transactionIndex": "0x16",
          "logIndex": "0x4a",
          "removed": false
        },
        {
          "address": "0xceba9300f2b948710d2653dd7b07f33a8b32118c",
          "topics": [
            "0xddf252ad1be2c89b69c2b068fc378daa952ba7f163c4a11628f55a4df523b3ef",
            "0x000000000000000000000000d2b508298fcc37261953684744ec4ccc734d5083",
            "0x0000000000000000000000003a4db9e7306af09012ceb0f222d581fd1f0c6d71"
          ],
          "data": "0x000000000000000000000000000000000000000000000000000000000001e848",
          "blockHash": "0x7be8009713d3f486970e0cf95cf61bc10aff3da938d636081f7f057724f58424",
          "blockNumber": "0x2047593",
          "transactionHash": "0x837e4dc402b32221fa9a008f86150bd3c44149efa74d9f2952d2297775cd7e51",
          "transactionIndex": "0x16",
          "logIndex": "0x4b",
          "removed": false
        },
        {
          "address": "0xd2b508298fcc37261953684744ec4ccc734d5083",
          "topics": [
            "0xf3a2c404b3362c4238317c3dad1020c2e9e984ba8df38a4a1ff18d57e92a242a",
            "0x0000000000000000000000000000000000000000000000000000000000000002"
          ],
          "data": "0x000000000000000000000000000000000000000000000000000000000001e848",
          "blockHash": "0x7be8009713d3f486970e0cf95cf61bc10aff3da938d636081f7f057724f58424",
          "blockNumber": "0x2047593",
          "transactionHash": "0x837e4dc402b32221fa9a008f86150bd3c44149efa74d9f2952d2297775cd7e51",
          "transactionIndex": "0x16",
          "logIndex": "0x4c",
          "removed": false
        }
      ],
      "logsBloom": "0x04000000000000100000100000400000000000000000000000000000000000100000000000000000000000000004400000100000800000000000000000000000000000008000000000000008000000000000000000000000000000040000000000000000020000000000000000000800000000000000000000000010000000000000000000000010000000000000400000000000000000002200000000000000000001000000000000000100000000000000000000000000400000000000010002000002000081200000022000000000000000400000041800000000000020000100100000004010000800000001000000000000008010000800000000000000",
      "type": "0x0",
      "transactionHash": "0x837e4dc402b32221fa9a008f86150bd3c44149efa74d9f2952d2297775cd7e51",
      "transactionIndex": "0x16",
      "blockHash": "0x7be8009713d3f486970e0cf95cf61bc10aff3da938d636081f7f057724f58424",
      "blockNumber": "0x2047593",
      "gasUsed": "0x58731",
      "effectiveGasPrice": "0x5d22cfc40",
      "from": "0x3a4db9e7306af09012ceb0f222d581fd1f0c6d71",
      "to": "0xd2b508298fcc37261953684744ec4ccc734d5083",
      "contractAddress": null,
      "l1BaseFeeScalar": "0x0",
      "l1BlobBaseFee": "0x5c6712e7",
      "l1BlobBaseFeeScalar": "0x0",
      "l1Fee": "0x0",
      "l1GasPrice": "0x18e1f48d",
      "l1GasUsed": "0x640"
    },
    {
      "status": "0x1",
      "cumulativeGasUsed": "0x1e2190",
      "logs": [
        {
          "address": "0xceba9300f2b948710d2653dd7b07f33a8b32118c",
          "topics": [
            "0x8c5be1e5ebec7d5bd14f71427d1e84f3dd0314c0f7b2291e5b200ac8c7c3b925",
            "0x0000000000000000000000003a4db9e7306af09012ceb0f222d581fd1f0c6d71",
            "0x000000000000000000000000d2b508298fcc37261953684744ec4ccc734d5083"
          ],
          "data": "0x000000000000000000000000000000000000000000000000000000000002dc6c",
          "blockHash": "0x1b55ba3cf67e1321012f46d560cd1f032c06390847f46b88720f38086df298cb",
          "blockNumber": "0x2047594",
          "transactionHash": "0xc9e0b22d13da1eb20578728909ac3e677f2b0e0711f0dac2a916ea2a4b7df6d7",
          "transactionIndex": "0x16",
          "logIndex": "0x2b",
          "removed": false
        },
        {
          "address": "0xceba9300f2b948710d2653dd7b07f33a8b32118c",
          "topics": [
            "0xddf252ad1be2c89b69c2b068fc378daa952ba7f163c4a11628f55a4df523b3ef",
            "0x0000000000000000000000003a4db9e7306af09012ceb0f222d581fd1f0c6d71",
            "0x000000000000000000000000d2b508298fcc37261953684744ec4ccc734d5083"
          ],
          "data": "0x000000000000000000000000000000000000000000000000000000000002dc6c",
          "blockHash": "0x1b55ba3cf67e1321012f46d560cd1f032c06390847f46b88720f38086df298cb",
          "blockNumber": "0x2047594",
          "transactionHash": "0xc9e0b22d13da1eb20578728909ac3e677f2b0e0711f0dac2a916ea2a4b7df6d7",
          "transactionIndex": "0x16",
          "logIndex": "0x2c",
          "removed": false
        },
        {
          "address": "0xceba9300f2b948710d2653dd7b07f33a8b32118c",
          "topics": [
            "0x8c5be1e5ebec7d5bd14f71427d1e84f3dd0314c0f7b2291e5b200ac8c7c3b925",
            "0x000000000000000000000000d2b508298fcc37261953684744ec4ccc734d5083",
            "0x0000000000000000000000003e59a31363e2ad014dcbc521c4a0d5757d9f3402"
          ],
          "data": "0x000000000000000000000000000000000000000000000000000000000002dc6c",
          "blockHash": "0x1b55ba3cf67e1321012f46d560cd1f032c06390847f46b88720f38086df298cb",
          "blockNumber": "0x2047594",
          "transactionHash": "0xc9e0b22d13da1eb20578728909ac3e677f2b0e0711f0dac2a916ea2a4b7df6d7",
          "transactionIndex": "0x16",
          "logIndex": "0x2d",
          "removed": false
        },
        {
          "address": "0xdbe517c0fa6467873b684eccbed77217e471e862",
          "topics": [
            "0xddf252ad1be2c89b69c2b068fc378daa952ba7f163c4a11628f55a4df523b3ef",
            "0x000000000000000000000000d2b508298fcc37261953684744ec4ccc734d5083",
            "0x0000000000000000000000000000000000000000000000000000000000000000"
          ],
          "data": "0x000000000000000000000000000000000000000000000000000000000002dc6c",
          "blockHash": "0x1b55ba3cf67e1321012f46d560cd1f032c06390847f46b88720f38086df298cb",
          "blockNumber": "0x2047594",
          "transactionHash": "0xc9e0b22d13da1eb20578728909ac3e677f2b0e0711f0dac2a916ea2a4b7df6d7",
          "transactionIndex": "0x16",
          "logIndex": "0x2e",
          "removed": false
        },
        {
          "address": "0xdbe517c0fa6467873b684eccbed77217e471e862",
          "topics": [
            "0x4cf25bc1d991c17529c25213d3cc0cda295eeaad5f13f361969b12ea48015f90",
            "0x000000000000000000000000d2b508298fcc37261953684744ec4ccc734d5083",
            "0x0000000000000000000000000000000000000000000000000000000000000000"
          ],
          "data": "0x000000000000000000000000000000000000000000000000000000000002dc6c00000000000000000000000000000000000000000000000000000000000000000000000000000000000000000000000000000000033c533a1d28da347e68b20e",
          "blockHash": "0x1b55ba3cf67e1321012f46d560cd1f032c06390847f46b88720f38086df298cb",
          "blockNumber": "0x2047594",
          "transactionHash": "0xc9e0b22d13da1eb20578728909ac3e677f2b0e0711f0dac2a916ea2a4b7df6d7",
          "transactionIndex": "0x16",
          "logIndex": "0x2f",
          "removed": false
        },
        {
          "address": "0x3e59a31363e2ad014dcbc521c4a0d5757d9f3402",
          "topics": [
            "0x804c9b842b2748a22bb64b345453a3de7ca54a6ca45ce00d415894979e22897a",
            "0x000000000000000000000000ceba9300f2b948710d2653dd7b07f33a8b32118c"
          ],
          "data": "0x00000000000000000000000000000000000000000000d613ffaf13c89c683824000000000000000000000000000000000000000000000000000000000000000000000000000000000000000000000000000000000007bb4e2e395c042db4bf9e0000000000000000000000000000000000000000033b692dd2ae815164818cf20000000000000000000000000000000000000000033c533a1d28da347e68b20e",
          "blockHash": "0x1b55ba3cf67e1321012f46d560cd1f032c06390847f46b88720f38086df298cb",
          "blockNumber": "0x2047594",
          "transactionHash": "0xc9e0b22d13da1eb20578728909ac3e677f2b0e0711f0dac2a916ea2a4b7df6d7",
          "transactionIndex": "0x16",
          "logIndex": "0x30",
          "removed": false
        },
        {
          "address": "0xceba9300f2b948710d2653dd7b07f33a8b32118c",
          "topics": [
            "0xddf252ad1be2c89b69c2b068fc378daa952ba7f163c4a11628f55a4df523b3ef",
            "0x000000000000000000000000d2b508298fcc37261953684744ec4ccc734d5083",
            "0x000000000000000000000000ff8309b9e99bfd2d4021bc71a362abd93dbd4785"
          ],
          "data": "0x000000000000000000000000000000000000000000000000000000000002dc6c",
          "blockHash": "0x1b55ba3cf67e1321012f46d560cd1f032c06390847f46b88720f38086df298cb",
          "blockNumber": "0x2047594",
          "transactionHash": "0xc9e0b22d13da1eb20578728909ac3e677f2b0e0711f0dac2a916ea2a4b7df6d7",
          "transactionIndex": "0x16",
          "logIndex": "0x31",
          "removed": false
        },
        {
          "address": "0x3e59a31363e2ad014dcbc521c4a0d5757d9f3402",
          "topics": [
            "0xa534c8dbe71f871f9f3530e97a74601fea17b426cae02e1c5aee42c96c784051",
            "0x000000000000000000000000ceba9300f2b948710d2653dd7b07f33a8b32118c",
            "0x000000000000000000000000d2b508298fcc37261953684744ec4ccc734d5083",
            "0x000000000000000000000000d2b508298fcc37261953684744ec4ccc734d5083"
          ],
          "data": "0x000000000000000000000000000000000000000000000000000000000002dc6c0000000000000000000000000000000000000000000000000000000000000000",
          "blockHash": "0x1b55ba3cf67e1321012f46d560cd1f032c06390847f46b88720f38086df298cb",
          "blockNumber": "0x2047594",
          "transactionHash": "0xc9e0b22d13da1eb20578728909ac3e677f2b0e0711f0dac2a916ea2a4b7df6d7",
          "transactionIndex": "0x16",
          "logIndex": "0x32",
          "removed": false
        },
        {
          "address": "0xd2b508298fcc37261953684744ec4ccc734d5083",
          "topics": [
            "0x0d4979b0859a1951f8ed7cbe3b1994e740552588f27ba02ca0f8f1ddcad16e0c",
            "0x0000000000000000000000000000000000000000000000000000000000000002"
          ],
          "data": "0x000000000000000000000000000000000000000000000000000000000002dc6c",
          "blockHash": "0x1b55ba3cf67e1321012f46d560cd1f032c06390847f46b88720f38086df298cb",
          "blockNumber": "0x2047594",
          "transactionHash": "0xc9e0b22d13da1eb20578728909ac3e677f2b0e0711f0dac2a916ea2a4b7df6d7",
          "transactionIndex": "0x16",
          "logIndex": "0x33",
          "removed": false
        }
      ],
      "logsBloom": "0x14000000000000110000120010400000000000000000000000000000000000100000000000000000000000000000400000110000c00000000000000000200000000000008000000000000008000000000000002000000000000000000000000080000000020000000000000000000800000000000000000000000010000000000000000000000000000000000000400000000000000000002200000000000000020001100000000000000100000000000000000000000000400000000000010000000002000080200000022000000000000000000000001800000000000020040110100000004010000800000000000000000000008010000000000000040000",
      "type": "0x0",
      "transactionHash": "0xc9e0b22d13da1eb20578728909ac3e677f2b0e0711f0dac2a916ea2a4b7df6d7",
      "transactionIndex": "0x16",
      "blockHash": "0x1b55ba3cf67e1321012f46d560cd1f032c06390847f46b88720f38086df298cb",
      "blockNumber": "0x2047594",
      "gasUsed": "0x3cfd8",
      "effectiveGasPrice": "0x5d22cfc40",
      "from": "0x3a4db9e7306af09012ceb0f222d581fd1f0c6d71",
      "to": "0xd2b508298fcc37261953684744ec4ccc734d5083",
      "contractAddress": null,
      "l1BaseFeeScalar": "0x0",
      "l1BlobBaseFee": "0x5c6712e7",
      "l1BlobBaseFeeScalar": "0x0",
      "l1Fee": "0x0",
      "l1GasPrice": "0x18e1f48d",
      "l1GasUsed": "0x85e"
    },
    {
      "status": "0x1",
      "cumulativeGasUsed": "0x234575",
      "logs": [
        {
          "address": "0x3e59a31363e2ad014dcbc521c4a0d5757d9f3402",
          "topics": [
            "0x804c9b842b2748a22bb64b345453a3de7ca54a6ca45ce00d415894979e22897a",
            "0x00000000000000000000000048065fbbe25f71c9282ddf5e1cd6d6a887483d5e"
          ],
          "data": "0x00000000000000000000000000000000000000000000000b15eb8de110547f3f0000000000000000000000000000000000000000000000000000000000000000000000000000000000000000000000000000000000001c268a06bd006ac39f0f0000000000000000000000000000000000000000033b5f8e257d8929cf88ac0e0000000000000000000000000000000000000000033bccae721dfb933d6bc502",
          "blockHash": "0x1b55ba3cf67e1321012f46d560cd1f032c06390847f46b88720f38086df298cb",
          "blockNumber": "0x2047594",
          "transactionHash": "0xf3c33952f9a2eb3aabc36e735b9c34eb209e30aa15c665f2885a2782f2b924f5",
          "transactionIndex": "0x17",
          "logIndex": "0x34",
          "removed": false
        },
        {
          "address": "0xdee98402a302e4d707fb9bf2bac66faeec31e8df",
          "topics": [
            "0xddf252ad1be2c89b69c2b068fc378daa952ba7f163c4a11628f55a4df523b3ef",
            "0x000000000000000000000000d2b508298fcc37261953684744ec4ccc734d5083",
            "0x0000000000000000000000000000000000000000000000000000000000000000"
          ],
          "data": "0x00000000000000000000000000000000000000000000000000000000000249f0",
          "blockHash": "0x1b55ba3cf67e1321012f46d560cd1f032c06390847f46b88720f38086df298cb",
          "blockNumber": "0x2047594",
          "transactionHash": "0xf3c33952f9a2eb3aabc36e735b9c34eb209e30aa15c665f2885a2782f2b924f5",
          "transactionIndex": "0x17",
          "logIndex": "0x35",
          "removed": false
        },
        {
          "address": "0xdee98402a302e4d707fb9bf2bac66faeec31e8df",
          "topics": [
            "0x4cf25bc1d991c17529c25213d3cc0cda295eeaad5f13f361969b12ea48015f90",
            "0x000000000000000000000000d2b508298fcc37261953684744ec4ccc734d5083",
            "0x0000000000000000000000003a4db9e7306af09012ceb0f222d581fd1f0c6d71"
          ],
          "data": "0x00000000000000000000000000000000000000000000000000000000000249f000000000000000000000000000000000000000000000000000000000000000000000000000000000000000000000000000000000033b5f8e257d8929cf88ac0e",
          "blockHash": "0x1b55ba3cf67e1321012f46d560cd1f032c06390847f46b88720f38086df298cb",
          "blockNumber": "0x2047594",
          "transactionHash": "0xf3c33952f9a2eb3aabc36e735b9c34eb209e30aa15c665f2885a2782f2b924f5",
          "transactionIndex": "0x17",
          "logIndex": "0x36",
          "removed": false
        },
        {
          "address": "0x48065fbbe25f71c9282ddf5e1cd6d6a887483d5e",
          "topics": [
            "0xddf252ad1be2c89b69c2b068fc378daa952ba7f163c4a11628f55a4df523b3ef",
            "0x000000000000000000000000dee98402a302e4d707fb9bf2bac66faeec31e8df",
            "0x0000000000000000000000003a4db9e7306af09012ceb0f222d581fd1f0c6d71"
          ],
          "data": "0x00000000000000000000000000000000000000000000000000000000000249f0",
          "blockHash": "0x1b55ba3cf67e1321012f46d560cd1f032c06390847f46b88720f38086df298cb",
          "blockNumber": "0x2047594",
          "transactionHash": "0xf3c33952f9a2eb3aabc36e735b9c34eb209e30aa15c665f2885a2782f2b924f5",
          "transactionIndex": "0x17",
          "logIndex": "0x37",
          "removed": false
        },
        {
          "address": "0x3e59a31363e2ad014dcbc521c4a0d5757d9f3402",
          "topics": [
            "0x3115d1449a7b732c986cba18244e897a450f61e1bb8d589cd2e69e6c8924f9f7",
            "0x00000000000000000000000048065fbbe25f71c9282ddf5e1cd6d6a887483d5e",
            "0x000000000000000000000000d2b508298fcc37261953684744ec4ccc734d5083",
            "0x0000000000000000000000003a4db9e7306af09012ceb0f222d581fd1f0c6d71"
          ],
          "data": "0x00000000000000000000000000000000000000000000000000000000000249f0",
          "blockHash": "0x1b55ba3cf67e1321012f46d560cd1f032c06390847f46b88720f38086df298cb",
          "blockNumber": "0x2047594",
          "transactionHash": "0xf3c33952f9a2eb3aabc36e735b9c34eb209e30aa15c665f2885a2782f2b924f5",
          "transactionIndex": "0x17",
          "logIndex": "0x38",
          "removed": false
        },
        {
          "address": "0xd2b508298fcc37261953684744ec4ccc734d5083",
          "topics": [
            "0x2399e8aed1977410745a5211d8226a3a7d9278f50a8a197c5ec6e285bb437f0b",
            "0x0000000000000000000000000000000000000000000000000000000000000002"
          ],
          "data": "0x00000000000000000000000000000000000000000000000000000000000249f0",
          "blockHash": "0x1b55ba3cf67e1321012f46d560cd1f032c06390847f46b88720f38086df298cb",
          "blockNumber": "0x2047594",
          "transactionHash": "0xf3c33952f9a2eb3aabc36e735b9c34eb209e30aa15c665f2885a2782f2b924f5",
          "transactionIndex": "0x17",
          "logIndex": "0x39",
          "removed": false
        }
      ],
      "logsBloom": "0x1400000000000010020000000000000000900000000000000000000000000010000000080000000000000000000000000001000080000000000000000000000000000000000000080000000800000000000000000000000000000000000000000000000002000000000000000000080000000000002002004000001000000000000001000000000000000000000040000000000000006000020000000000000000000000008100000000014000000000100000000000000040000000000001000000000200008000000000a000000040000000000000001800000000000120040100100000000000000000000000000000000000008010000000000000000000",
      "type": "0x0",
      "transactionHash": "0xf3c33952f9a2eb3aabc36e735b9c34eb209e30aa15c665f2885a2782f2b924f5",
      "transactionIndex": "0x17",
      "blockHash": "0x1b55ba3cf67e1321012f46d560cd1f032c06390847f46b88720f38086df298cb",
      "blockNumber": "0x2047594",
      "gasUsed": "0x523e5",
      "effectiveGasPrice": "0x5d22cfc40",
      "from": "0x3a4db9e7306af09012ceb0f222d581fd1f0c6d71",
      "to": "0xd2b508298fcc37261953684744ec4ccc734d5083",
      "contractAddress": null,
      "l1BaseFeeScalar": "0x0",
      "l1BlobBaseFee": "0x5c6712e7",
      "l1BlobBaseFeeScalar": "0x0",
      "l1Fee": "0x0",
      "l1GasPrice": "0x18e1f48d",
      "l1GasUsed": "0x640"
    },
    {
      "status": "0x1",
      "cumulativeGasUsed": "0x2889dd",
      "logs": [
        {
          "address": "0xceba9300f2b948710d2653dd7b07f33a8b32118c",
          "topics": [
            "0x8c5be1e5ebec7d5bd14f71427d1e84f3dd0314c0f7b2291e5b200ac8c7c3b925",
            "0x0000000000000000000000003a4db9e7306af09012ceb0f222d581fd1f0c6d71",
            "0x000000000000000000000000d2b508298fcc37261953684744ec4ccc734d5083"
          ],
          "data": "0x000000000000000000000000000000000000000000000000000000000005b8d8",
          "blockHash": "0x510d6442be655ebcdf9906adb187d7d65b8fc22ef81c431acd8dce815dd96bb2",
          "blockNumber": "0x2047595",
          "transactionHash": "0x59e260efc057cb55e48b1a5b786b59f26c608f6cba59d5844dfa89240aafb6e2",
          "transactionIndex": "0x15",
          "logIndex": "0x43",
          "removed": false
        }
      ],
      "logsBloom": "0x00000000000000000000100000000000000000000000000000000000000000000000000000000000000000000000000000000000000000000000000000200000000000000000000000000000000000000000000000000000000000000000000000000000000000000000000000000000000000000000000000000000000000000000000000000000000000000000400000000000000000000000000000000000020000000000000000000000000000000000000000000000000000000000000000000000000080000000020000000000000000000000001000000000000000000110100000000000000800000000000000000000000010000000000000000000",
      "type": "0x0",
      "transactionHash": "0x59e260efc057cb55e48b1a5b786b59f26c608f6cba59d5844dfa89240aafb6e2",
      "transactionIndex": "0x15",
      "blockHash": "0x510d6442be655ebcdf9906adb187d7d65b8fc22ef81c431acd8dce815dd96bb2",
      "blockNumber": "0x2047595",
      "gasUsed": "0xd88d",
      "effectiveGasPrice": "0x5d22cfc40",
      "from": "0x3a4db9e7306af09012ceb0f222d581fd1f0c6d71",
      "to": "0xceba9300f2b948710d2653dd7b07f33a8b32118c",
      "contractAddress": null,
      "l1BaseFeeScalar": "0x0",
      "l1BlobBaseFee": "0x5c6712e7",
      "l1BlobBaseFeeScalar": "0x0",
      "l1Fee": "0x0",
      "l1GasPrice": "0x18e1f48d",
      "l1GasUsed": "0x640"
    },
    {
      "status": "0x1",
      "cumulativeGasUsed": "0x2ea03a",
      "logs": [
        {
          "address": "0xceba9300f2b948710d2653dd7b07f33a8b32118c",
          "topics": [
            "0xddf252ad1be2c89b69c2b068fc378daa952ba7f163c4a11628f55a4df523b3ef",
            "0x0000000000000000000000003a4db9e7306af09012ceb0f222d581fd1f0c6d71",
            "0x000000000000000000000000d2b508298fcc37261953684744ec4ccc734d5083"
          ],
          "data": "0x000000000000000000000000000000000000000000000000000000000002dc6c",
          "blockHash": "0x510d6442be655ebcdf9906adb187d7d65b8fc22ef81c431acd8dce815dd96bb2",
          "blockNumber": "0x2047595",
          "transactionHash": "0x7f1b023ba71590b1640ed77fb40a3a7e9c2df8ee8fef21165ce0ec3ed63a0dd3",
          "transactionIndex": "0x1a",
          "logIndex": "0x48",
          "removed": false
        },
        {
          "address": "0xceba9300f2b948710d2653dd7b07f33a8b32118c",
          "topics": [
            "0x8c5be1e5ebec7d5bd14f71427d1e84f3dd0314c0f7b2291e5b200ac8c7c3b925",
            "0x000000000000000000000000d2b508298fcc37261953684744ec4ccc734d5083",
            "0x0000000000000000000000003e59a31363e2ad014dcbc521c4a0d5757d9f3402"
          ],
          "data": "0x000000000000000000000000000000000000000000000000000000000002dc6c",
          "blockHash": "0x510d6442be655ebcdf9906adb187d7d65b8fc22ef81c431acd8dce815dd96bb2",
          "blockNumber": "0x2047595",
          "transactionHash": "0x7f1b023ba71590b1640ed77fb40a3a7e9c2df8ee8fef21165ce0ec3ed63a0dd3",
          "transactionIndex": "0x1a",
          "logIndex": "0x49",
          "removed": false
        },
        {
          "address": "0xdbe517c0fa6467873b684eccbed77217e471e862",
          "topics": [
            "0xddf252ad1be2c89b69c2b068fc378daa952ba7f163c4a11628f55a4df523b3ef",
            "0x000000000000000000000000d2b508298fcc37261953684744ec4ccc734d5083",
            "0x0000000000000000000000000000000000000000000000000000000000000000"
          ],
          "data": "0x000000000000000000000000000000000000000000000000000000000002dc6c",
          "blockHash": "0x510d6442be655ebcdf9906adb187d7d65b8fc22ef81c431acd8dce815dd96bb2",
          "blockNumber": "0x2047595",
          "transactionHash": "0x7f1b023ba71590b1640ed77fb40a3a7e9c2df8ee8fef21165ce0ec3ed63a0dd3",
          "transactionIndex": "0x1a",
          "logIndex": "0x4a",
          "removed": false
        },
        {
          "address": "0xdbe517c0fa6467873b684eccbed77217e471e862",
          "topics": [
            "0x4cf25bc1d991c17529c25213d3cc0cda295eeaad5f13f361969b12ea48015f90",
            "0x000000000000000000000000d2b508298fcc37261953684744ec4ccc734d5083",
            "0x0000000000000000000000000000000000000000000000000000000000000000"
          ],
          "data": "0x000000000000000000000000000000000000000000000000000000000002dc6c00000000000000000000000000000000000000000000000000000000000000000000000000000000000000000000000000000000033c533a21474dc485c29118",
          "blockHash": "0x510d6442be655ebcdf9906adb187d7d65b8fc22ef81c431acd8dce815dd96bb2",
          "blockNumber": "0x2047595",
          "transactionHash": "0x7f1b023ba71590b1640ed77fb40a3a7e9c2df8ee8fef21165ce0ec3ed63a0dd3",
          "transactionIndex": "0x1a",
          "logIndex": "0x4b",
          "removed": false
        },
        {
          "address": "0x3e59a31363e2ad014dcbc521c4a0d5757d9f3402",
          "topics": [
            "0x804c9b842b2748a22bb64b345453a3de7ca54a6ca45ce00d415894979e22897a",
            "0x000000000000000000000000ceba9300f2b948710d2653dd7b07f33a8b32118c"
          ],
          "data": "0x00000000000000000000000000000000000000000000d613cb3f315e44fbe0f1000000000000000000000000000000000000000000000000000000000000000000000000000000000000000000000000000000000007bb4d3bd097e20123e1470000000000000000000000000000000000000000033b692dd3206d459d5262cf0000000000000000000000000000000000000000033c533a21474dc485c29118",
          "blockHash": "0x510d6442be655ebcdf9906adb187d7d65b8fc22ef81c431acd8dce815dd96bb2",
          "blockNumber": "0x2047595",
          "transactionHash": "0x7f1b023ba71590b1640ed77fb40a3a7e9c2df8ee8fef21165ce0ec3ed63a0dd3",
          "transactionIndex": "0x1a",
          "logIndex": "0x4c",
          "removed": false
        },
        {
          "address": "0xceba9300f2b948710d2653dd7b07f33a8b32118c",
          "topics": [
            "0xddf252ad1be2c89b69c2b068fc378daa952ba7f163c4a11628f55a4df523b3ef",
            "0x000000000000000000000000d2b508298fcc37261953684744ec4ccc734d5083",
            "0x000000000000000000000000ff8309b9e99bfd2d4021bc71a362abd93dbd4785"
          ],
          "data": "0x000000000000000000000000000000000000000000000000000000000002dc6c",
          "blockHash": "0x510d6442be655ebcdf9906adb187d7d65b8fc22ef81c431acd8dce815dd96bb2",
          "blockNumber": "0x2047595",
          "transactionHash": "0x7f1b023ba71590b1640ed77fb40a3a7e9c2df8ee8fef21165ce0ec3ed63a0dd3",
          "transactionIndex": "0x1a",
          "logIndex": "0x4d",
          "removed": false
        },
        {
          "address": "0x3e59a31363e2ad014dcbc521c4a0d5757d9f3402",
          "topics": [
            "0xa534c8dbe71f871f9f3530e97a74601fea17b426cae02e1c5aee42c96c784051",
            "0x000000000000000000000000ceba9300f2b948710d2653dd7b07f33a8b32118c",
            "0x000000000000000000000000d2b508298fcc37261953684744ec4ccc734d5083",
            "0x000000000000000000000000d2b508298fcc37261953684744ec4ccc734d5083"
          ],
          "data": "0x000000000000000000000000000000000000000000000000000000000002dc6c0000000000000000000000000000000000000000000000000000000000000000",
          "blockHash": "0x510d6442be655ebcdf9906adb187d7d65b8fc22ef81c431acd8dce815dd96bb2",
          "blockNumber": "0x2047595",
          "transactionHash": "0x7f1b023ba71590b1640ed77fb40a3a7e9c2df8ee8fef21165ce0ec3ed63a0dd3",
          "transactionIndex": "0x1a",
          "logIndex": "0x4e",
          "removed": false
        },
        {
          "address": "0xd2b508298fcc37261953684744ec4ccc734d5083",
          "topics": [
            "0x0d4979b0859a1951f8ed7cbe3b1994e740552588f27ba02ca0f8f1ddcad16e0c",
            "0x0000000000000000000000000000000000000000000000000000000000000002"
          ],
          "data": "0x000000000000000000000000000000000000000000000000000000000002dc6c",
          "blockHash": "0x510d6442be655ebcdf9906adb187d7d65b8fc22ef81c431acd8dce815dd96bb2",
          "blockNumber": "0x2047595",
          "transactionHash": "0x7f1b023ba71590b1640ed77fb40a3a7e9c2df8ee8fef21165ce0ec3ed63a0dd3",
          "transactionIndex": "0x1a",
          "logIndex": "0x4f",
          "removed": false
        }
      ],
      "logsBloom": "0x14000000000000110000120010400000000000000000000000000000000000100000000000000000000000000000400000110000c00000000000000000200000000000008000000000000008000000000000002000000000000000000000000080000000020000000000000000000800000000000000000000000010000000000000000000000000000000000000400000000000000000002200000000000000020001100000000000000100000000000000000000000000400000000000010000000002000080200000022000000000000000000000001800000000000020040110100000004010000800000000000000000000008010000000000000040000",
      "type": "0x0",
      "transactionHash": "0x7f1b023ba71590b1640ed77fb40a3a7e9c2df8ee8fef21165ce0ec3ed63a0dd3",
      "transactionIndex": "0x1a",
      "blockHash": "0x510d6442be655ebcdf9906adb187d7d65b8fc22ef81c431acd8dce815dd96bb2",
      "blockNumber": "0x2047595",
      "gasUsed": "0x36811",
      "effectiveGasPrice": "0x5d22cfc40",
      "from": "0x3a4db9e7306af09012ceb0f222d581fd1f0c6d71",
      "to": "0xd2b508298fcc37261953684744ec4ccc734d5083",
      "contractAddress": null,
      "l1BaseFeeScalar": "0x0",
      "l1BlobBaseFee": "0x5c6712e7",
      "l1BlobBaseFeeScalar": "0x0",
      "l1Fee": "0x0",
      "l1GasPrice": "0x18e1f48d",
      "l1GasUsed": "0x640"
    },
    {
      "status": "0x1",
      "cumulativeGasUsed": "0x327e19",
      "logs": [
        {
          "address": "0x3e59a31363e2ad014dcbc521c4a0d5757d9f3402",
          "topics": [
            "0x804c9b842b2748a22bb64b345453a3de7ca54a6ca45ce00d415894979e22897a",
            "0x00000000000000000000000048065fbbe25f71c9282ddf5e1cd6d6a887483d5e"
          ],
          "data": "0x00000000000000000000000000000000000000000000000b15ebd99e4e4b52890000000000000000000000000000000000000000000000000000000000000000000000000000000000000000000000000000000000001c268a66e74345d46dd40000000000000000000000000000000000000000033b5f8e257d8f0ff10b2f320000000000000000000000000000000000000000033bccae722cf85656fb3655",
          "blockHash": "0x510d6442be655ebcdf9906adb187d7d65b8fc22ef81c431acd8dce815dd96bb2",
          "blockNumber": "0x2047595",
          "transactionHash": "0x3a62029c14de347c9f6bede80c37a3a80a44f996d58a60287f36c4ae6e0993f1",
          "transactionIndex": "0x1b",
          "logIndex": "0x50",
          "removed": false
        },
        {
          "address": "0xdee98402a302e4d707fb9bf2bac66faeec31e8df",
          "topics": [
            "0xddf252ad1be2c89b69c2b068fc378daa952ba7f163c4a11628f55a4df523b3ef",
            "0x000000000000000000000000d2b508298fcc37261953684744ec4ccc734d5083",
            "0x0000000000000000000000000000000000000000000000000000000000000000"
          ],
          "data": "0x00000000000000000000000000000000000000000000000000000000000927c0",
          "blockHash": "0x510d6442be655ebcdf9906adb187d7d65b8fc22ef81c431acd8dce815dd96bb2",
          "blockNumber": "0x2047595",
          "transactionHash": "0x3a62029c14de347c9f6bede80c37a3a80a44f996d58a60287f36c4ae6e0993f1",
          "transactionIndex": "0x1b",
          "logIndex": "0x51",
          "removed": false
        },
        {
          "address": "0xdee98402a302e4d707fb9bf2bac66faeec31e8df",
          "topics": [
            "0x4cf25bc1d991c17529c25213d3cc0cda295eeaad5f13f361969b12ea48015f90",
            "0x000000000000000000000000d2b508298fcc37261953684744ec4ccc734d5083",
            "0x0000000000000000000000003a4db9e7306af09012ceb0f222d581fd1f0c6d71"
          ],
          "data": "0x00000000000000000000000000000000000000000000000000000000000927c000000000000000000000000000000000000000000000000000000000000000000000000000000000000000000000000000000000033b5f8e257d8f0ff10b2f32",
          "blockHash": "0x510d6442be655ebcdf9906adb187d7d65b8fc22ef81c431acd8dce815dd96bb2",
          "blockNumber": "0x2047595",
          "transactionHash": "0x3a62029c14de347c9f6bede80c37a3a80a44f996d58a60287f36c4ae6e0993f1",
          "transactionIndex": "0x1b",
          "logIndex": "0x52",
          "removed": false
        },
        {
          "address": "0x48065fbbe25f71c9282ddf5e1cd6d6a887483d5e",
          "topics": [
            "0xddf252ad1be2c89b69c2b068fc378daa952ba7f163c4a11628f55a4df523b3ef",
            "0x000000000000000000000000dee98402a302e4d707fb9bf2bac66faeec31e8df",
            "0x0000000000000000000000003a4db9e7306af09012ceb0f222d581fd1f0c6d71"
          ],
          "data": "0x00000000000000000000000000000000000000000000000000000000000927c0",
          "blockHash": "0x510d6442be655ebcdf9906adb187d7d65b8fc22ef81c431acd8dce815dd96bb2",
          "blockNumber": "0x2047595",
          "transactionHash": "0x3a62029c14de347c9f6bede80c37a3a80a44f996d58a60287f36c4ae6e0993f1",
          "transactionIndex": "0x1b",
          "logIndex": "0x53",
          "removed": false
        },
        {
          "address": "0x3e59a31363e2ad014dcbc521c4a0d5757d9f3402",
          "topics": [
            "0x3115d1449a7b732c986cba18244e897a450f61e1bb8d589cd2e69e6c8924f9f7",
            "0x00000000000000000000000048065fbbe25f71c9282ddf5e1cd6d6a887483d5e",
            "0x000000000000000000000000d2b508298fcc37261953684744ec4ccc734d5083",
            "0x0000000000000000000000003a4db9e7306af09012ceb0f222d581fd1f0c6d71"
          ],
          "data": "0x00000000000000000000000000000000000000000000000000000000000927c0",
          "blockHash": "0x510d6442be655ebcdf9906adb187d7d65b8fc22ef81c431acd8dce815dd96bb2",
          "blockNumber": "0x2047595",
          "transactionHash": "0x3a62029c14de347c9f6bede80c37a3a80a44f996d58a60287f36c4ae6e0993f1",
          "transactionIndex": "0x1b",
          "logIndex": "0x54",
          "removed": false
        },
        {
          "address": "0xd2b508298fcc37261953684744ec4ccc734d5083",
          "topics": [
            "0x2399e8aed1977410745a5211d8226a3a7d9278f50a8a197c5ec6e285bb437f0b",
            "0x0000000000000000000000000000000000000000000000000000000000000002"
          ],
          "data": "0x00000000000000000000000000000000000000000000000000000000000927c0",
          "blockHash": "0x510d6442be655ebcdf9906adb187d7d65b8fc22ef81c431acd8dce815dd96bb2",
          "blockNumber": "0x2047595",
          "transactionHash": "0x3a62029c14de347c9f6bede80c37a3a80a44f996d58a60287f36c4ae6e0993f1",
          "transactionIndex": "0x1b",
          "logIndex": "0x55",
          "removed": false
        }
      ],
      "logsBloom": "0x1400000000000010020000000000000000900000000000000000000000000010000000080000000000000000000000000001000080000000000000000000000000000000000000080000000800000000000000000000000000000000000000000000000002000000000000000000080000000000002002004000001000000000000001000000000000000000000040000000000000006000020000000000000000000000008100000000014000000000100000000000000040000000000001000000000200008000000000a000000040000000000000001800000000000120040100100000000000000000000000000000000000008010000000000000000000",
      "type": "0x0",
      "transactionHash": "0x3a62029c14de347c9f6bede80c37a3a80a44f996d58a60287f36c4ae6e0993f1",
      "transactionIndex": "0x1b",
      "blockHash": "0x510d6442be655ebcdf9906adb187d7d65b8fc22ef81c431acd8dce815dd96bb2",
      "blockNumber": "0x2047595",
      "gasUsed": "0x3dddf",
      "effectiveGasPrice": "0x5d22cfc40",
      "from": "0x3a4db9e7306af09012ceb0f222d581fd1f0c6d71",
      "to": "0xd2b508298fcc37261953684744ec4ccc734d5083",
      "contractAddress": null,
      "l1BaseFeeScalar": "0x0",
      "l1BlobBaseFee": "0x5c6712e7",
      "l1BlobBaseFeeScalar": "0x0",
      "l1Fee": "0x0",
      "l1GasPrice": "0x18e1f48d",
      "l1GasUsed": "0x640"
    }
  ],
  "libraries": [],
  "pending": [],
  "returns": {},
  "timestamp": 1745747435,
  "chain": 42220,
  "commit": "1cefd9d"
}