{
  "transactions": [
    {
      "hash": "0x71809b2fddef17514df8b644ef70d0b7f2c13a890bcb7336250da7596a297df7",
      "transactionType": "CALL",
      "contractName": null,
      "contractAddress": "0x79242d2f9a923ab409413edced60f5155d5a8d1e",
      "function": "repayDebtWithPermit(uint256,uint256,uint256,uint8,bytes32,bytes32)",
      "arguments": [
        "3",
        "125000",
        "1745679434",
        "28",
        "0x57bd94dd910995acf2344ee478ce18cf8a834003ef364552f2d8f80d0a3914cf",
        "0x364722f646b89b3b65219a3779f3cb3b49dc3b35c808cf7439ed68e97c72ff35"
      ],
      "transaction": {
        "from": "0x3a4db9e7306af09012ceb0f222d581fd1f0c6d71",
        "to": "0x79242d2f9a923ab409413edced60f5155d5a8d1e",
        "gas": "0x5844e",
        "value": "0x0",
        "input": "0xc9a7906a0000000000000000000000000000000000000000000000000000000000000003000000000000000000000000000000000000000000000000000000000001e84800000000000000000000000000000000000000000000000000000000680cf44a000000000000000000000000000000000000000000000000000000000000001c57bd94dd910995acf2344ee478ce18cf8a834003ef364552f2d8f80d0a3914cf364722f646b89b3b65219a3779f3cb3b49dc3b35c808cf7439ed68e97c72ff35",
        "nonce": "0x55",
        "chainId": "0xa4ec"
      },
      "additionalContracts": [],
      "isFixedGasLimit": false
    }
  ],
  "receipts": [
    {
      "status": "0x1",
      "cumulativeGasUsed": "0x19f96a",
      "logs": [
        {
          "address": "0xceba9300f2b948710d2653dd7b07f33a8b32118c",
          "topics": [
            "0x8c5be1e5ebec7d5bd14f71427d1e84f3dd0314c0f7b2291e5b200ac8c7c3b925",
            "0x0000000000000000000000003a4db9e7306af09012ceb0f222d581fd1f0c6d71",
            "0x00000000000000000000000079242d2f9a923ab409413edced60f5155d5a8d1e"
          ],
          "data": "0x000000000000000000000000000000000000000000000000000000000001e848",
          "blockHash": "0xbffd004f6ba9ffe444b4424ba43dc408d039e896982954929bbe171b625c930a",
          "blockNumber": "0x2035dfa",
          "transactionHash": "0x71809b2fddef17514df8b644ef70d0b7f2c13a890bcb7336250da7596a297df7",
          "transactionIndex": "0xa",
          "logIndex": "0x2a",
          "removed": false
        },
        {
          "address": "0xceba9300f2b948710d2653dd7b07f33a8b32118c",
          "topics": [
            "0xddf252ad1be2c89b69c2b068fc378daa952ba7f163c4a11628f55a4df523b3ef",
            "0x0000000000000000000000003a4db9e7306af09012ceb0f222d581fd1f0c6d71",
            "0x00000000000000000000000079242d2f9a923ab409413edced60f5155d5a8d1e"
          ],
          "data": "0x000000000000000000000000000000000000000000000000000000000001e848",
          "blockHash": "0xbffd004f6ba9ffe444b4424ba43dc408d039e896982954929bbe171b625c930a",
          "blockNumber": "0x2035dfa",
          "transactionHash": "0x71809b2fddef17514df8b644ef70d0b7f2c13a890bcb7336250da7596a297df7",
          "transactionIndex": "0xa",
          "logIndex": "0x2b",
          "removed": false
        },
        {
          "address": "0xceba9300f2b948710d2653dd7b07f33a8b32118c",
          "topics": [
            "0x8c5be1e5ebec7d5bd14f71427d1e84f3dd0314c0f7b2291e5b200ac8c7c3b925",
            "0x00000000000000000000000079242d2f9a923ab409413edced60f5155d5a8d1e",
            "0x0000000000000000000000003e59a31363e2ad014dcbc521c4a0d5757d9f3402"
          ],
          "data": "0x000000000000000000000000000000000000000000000000000000000001e848",
          "blockHash": "0xbffd004f6ba9ffe444b4424ba43dc408d039e896982954929bbe171b625c930a",
          "blockNumber": "0x2035dfa",
          "transactionHash": "0x71809b2fddef17514df8b644ef70d0b7f2c13a890bcb7336250da7596a297df7",
          "transactionIndex": "0xa",
          "logIndex": "0x2c",
          "removed": false
        },
        {
          "address": "0xdbe517c0fa6467873b684eccbed77217e471e862",
          "topics": [
            "0xddf252ad1be2c89b69c2b068fc378daa952ba7f163c4a11628f55a4df523b3ef",
            "0x00000000000000000000000079242d2f9a923ab409413edced60f5155d5a8d1e",
            "0x0000000000000000000000000000000000000000000000000000000000000000"
          ],
          "data": "0x000000000000000000000000000000000000000000000000000000000001e848",
          "blockHash": "0xbffd004f6ba9ffe444b4424ba43dc408d039e896982954929bbe171b625c930a",
          "blockNumber": "0x2035dfa",
          "transactionHash": "0x71809b2fddef17514df8b644ef70d0b7f2c13a890bcb7336250da7596a297df7",
          "transactionIndex": "0xa",
          "logIndex": "0x2d",
          "removed": false
        },
        {
          "address": "0xdbe517c0fa6467873b684eccbed77217e471e862",
          "topics": [
            "0x4cf25bc1d991c17529c25213d3cc0cda295eeaad5f13f361969b12ea48015f90",
            "0x00000000000000000000000079242d2f9a923ab409413edced60f5155d5a8d1e",
            "0x0000000000000000000000000000000000000000000000000000000000000000"
          ],
          "data": "0x000000000000000000000000000000000000000000000000000000000001e84800000000000000000000000000000000000000000000000000000000000000000000000000000000000000000000000000000000033c4ebceb54e80912520cc3",
          "blockHash": "0xbffd004f6ba9ffe444b4424ba43dc408d039e896982954929bbe171b625c930a",
          "blockNumber": "0x2035dfa",
          "transactionHash": "0x71809b2fddef17514df8b644ef70d0b7f2c13a890bcb7336250da7596a297df7",
          "transactionIndex": "0xa",
          "logIndex": "0x2e",
          "removed": false
        },
        {
          "address": "0x3e59a31363e2ad014dcbc521c4a0d5757d9f3402",
          "topics": [
            "0x804c9b842b2748a22bb64b345453a3de7ca54a6ca45ce00d415894979e22897a",
            "0x000000000000000000000000ceba9300f2b948710d2653dd7b07f33a8b32118c"
          ],
          "data": "0x00000000000000000000000000000000000000000000d50b134e186172868219000000000000000000000000000000000000000000000000000000000000000000000000000000000000000000000000000000000007b683fe7265e0b294a3930000000000000000000000000000000000000000033b68b1edde731da17cf5750000000000000000000000000000000000000000033c4ebceb54e80912520cc3",
          "blockHash": "0xbffd004f6ba9ffe444b4424ba43dc408d039e896982954929bbe171b625c930a",
          "blockNumber": "0x2035dfa",
          "transactionHash": "0x71809b2fddef17514df8b644ef70d0b7f2c13a890bcb7336250da7596a297df7",
          "transactionIndex": "0xa",
          "logIndex": "0x2f",
          "removed": false
        },
        {
          "address": "0xceba9300f2b948710d2653dd7b07f33a8b32118c",
          "topics": [
            "0xddf252ad1be2c89b69c2b068fc378daa952ba7f163c4a11628f55a4df523b3ef",
            "0x00000000000000000000000079242d2f9a923ab409413edced60f5155d5a8d1e",
            "0x000000000000000000000000ff8309b9e99bfd2d4021bc71a362abd93dbd4785"
          ],
          "data": "0x000000000000000000000000000000000000000000000000000000000001e848",
          "blockHash": "0xbffd004f6ba9ffe444b4424ba43dc408d039e896982954929bbe171b625c930a",
          "blockNumber": "0x2035dfa",
          "transactionHash": "0x71809b2fddef17514df8b644ef70d0b7f2c13a890bcb7336250da7596a297df7",
          "transactionIndex": "0xa",
          "logIndex": "0x30",
          "removed": false
        },
        {
          "address": "0x3e59a31363e2ad014dcbc521c4a0d5757d9f3402",
          "topics": [
            "0xa534c8dbe71f871f9f3530e97a74601fea17b426cae02e1c5aee42c96c784051",
            "0x000000000000000000000000ceba9300f2b948710d2653dd7b07f33a8b32118c",
            "0x00000000000000000000000079242d2f9a923ab409413edced60f5155d5a8d1e",
            "0x00000000000000000000000079242d2f9a923ab409413edced60f5155d5a8d1e"
          ],
          "data": "0x000000000000000000000000000000000000000000000000000000000001e8480000000000000000000000000000000000000000000000000000000000000000",
          "blockHash": "0xbffd004f6ba9ffe444b4424ba43dc408d039e896982954929bbe171b625c930a",
          "blockNumber": "0x2035dfa",
          "transactionHash": "0x71809b2fddef17514df8b644ef70d0b7f2c13a890bcb7336250da7596a297df7",
          "transactionIndex": "0xa",
          "logIndex": "0x31",
          "removed": false
        },
        {
          "address": "0x79242d2f9a923ab409413edced60f5155d5a8d1e",
          "topics": [
            "0x0d4979b0859a1951f8ed7cbe3b1994e740552588f27ba02ca0f8f1ddcad16e0c",
            "0x0000000000000000000000000000000000000000000000000000000000000003"
          ],
          "data": "0x000000000000000000000000000000000000000000000000000000000001e848",
          "blockHash": "0xbffd004f6ba9ffe444b4424ba43dc408d039e896982954929bbe171b625c930a",
          "blockNumber": "0x2035dfa",
          "transactionHash": "0x71809b2fddef17514df8b644ef70d0b7f2c13a890bcb7336250da7596a297df7",
          "transactionIndex": "0xa",
          "logIndex": "0x32",
          "removed": false
        }
      ],
      "logsBloom": "0x10002000000000010000120010400000000000000000000000000000080000000000000000000000000008000000400000110000c20000000000000000200000001000008000000000000008000000000000002000000000000000000000000080000000020000000000000000000800000000000000000000000010000000000000000000000000000000000000400000000000000000002200000000000000020001100000000000000000000000000000000000800000400000010000410000000002000080200000022000000000000000000000001000000000000020040010100000004010000800000010000000000000000000000000000000040000",
      "type": "0x0",
      "transactionHash": "0x71809b2fddef17514df8b644ef70d0b7f2c13a890bcb7336250da7596a297df7",
      "transactionIndex": "0xa",
      "blockHash": "0xbffd004f6ba9ffe444b4424ba43dc408d039e896982954929bbe171b625c930a",
      "blockNumber": "0x2035dfa",
      "gasUsed": "0x3fe7d",
      "effectiveGasPrice": "0x5d22cfc40",
      "from": "0x3a4db9e7306af09012ceb0f222d581fd1f0c6d71",
      "to": "0x79242d2f9a923ab409413edced60f5155d5a8d1e",
      "contractAddress": null,
      "l1BaseFeeScalar": "0x0",
      "l1BlobBaseFee": "0x13813794d",
      "l1BlobBaseFeeScalar": "0x0",
      "l1Fee": "0x0",
      "l1GasPrice": "0x358636c9",
      "l1GasUsed": "0x851"
    }
  ],
  "libraries": [],
  "pending": [],
  "returns": {},
  "timestamp": 1745675857,
  "chain": 42220,
  "commit": "1cefd9d"
}