{
  "transactions": [
    {
      "hash": "0xfca0074f9b95085d05589e1f178803c7d60611eec5e7eee24cfb517228d54abd",
      "transactionType": "CALL",
      "contractName": null,
      "contractAddress": "0x1ab49e36a37ac3aaf4a74df72cc4bea885a10d27",
      "function": "mint(address,uint256)",
      "arguments": [
        "0x3A4dB9e7306aF09012ceb0f222d581FD1F0C6D71",
        "375000000"
      ],
      "transaction": {
        "from": "0x3a4db9e7306af09012ceb0f222d581fd1f0c6d71",
        "to": "0x1ab49e36a37ac3aaf4a74df72cc4bea885a10d27",
        "gas": "0xc9d0",
        "value": "0x0",
        "input": "0x40c10f190000000000000000000000003a4db9e7306af09012ceb0f222d581fd1f0c6d7100000000000000000000000000000000000000000000000000000000165a0bc0",
        "nonce": "0x111",
        "chainId": "0xaef3"
      },
      "additionalContracts": [],
      "isFixedGasLimit": false
    },
    {
      "hash": "0xf928b15859579b2d8279658312d2c2bb1126f811e17dfe1a78e8c18777f1c7b3",
      "transactionType": "CALL",
      "contractName": null,
      "contractAddress": "0x1ab49e36a37ac3aaf4a74df72cc4bea885a10d27",
      "function": "approve(address,uint256)",
      "arguments": [
        "0x48C365A5cFfAe7B39400e062dEA26669D6973007",
        "375000000"
      ],
      "transaction": {
        "from": "0x3a4db9e7306af09012ceb0f222d581fd1f0c6d71",
        "to": "0x1ab49e36a37ac3aaf4a74df72cc4bea885a10d27",
        "gas": "0x11534",
        "value": "0x0",
        "input": "0x095ea7b300000000000000000000000048c365a5cffae7b39400e062dea26669d697300700000000000000000000000000000000000000000000000000000000165a0bc0",
        "nonce": "0x112",
        "chainId": "0xaef3"
      },
      "additionalContracts": [],
      "isFixedGasLimit": false
    },
    {
      "hash": "0x717bf7ca0fc010ab3bd9d1b84f143de1e4267f024c211b0ddd6f6bd6dbd71aaf",
      "transactionType": "CALL",
      "contractName": null,
      "contractAddress": "0x48c365a5cffae7b39400e062dea26669d6973007",
      "function": "repayDebt(uint256,uint256)",
      "arguments": [
        "1",
        "375000000"
      ],
      "transaction": {
        "from": "0x3a4db9e7306af09012ceb0f222d581fd1f0c6d71",
        "to": "0x48c365a5cffae7b39400e062dea26669d6973007",
        "gas": "0x49131",
        "value": "0x0",
        "input": "0x015cb0a5000000000000000000000000000000000000000000000000000000000000000100000000000000000000000000000000000000000000000000000000165a0bc0",
        "nonce": "0x113",
        "chainId": "0xaef3"
      },
      "additionalContracts": [],
      "isFixedGasLimit": false
    }
  ],
  "receipts": [
    {
      "status": "0x1",
      "cumulativeGasUsed": "0x13d0b",
      "logs": [
        {
          "address": "0x1ab49e36a37ac3aaf4a74df72cc4bea885a10d27",
          "topics": [
            "0xddf252ad1be2c89b69c2b068fc378daa952ba7f163c4a11628f55a4df523b3ef",
            "0x0000000000000000000000000000000000000000000000000000000000000000",
            "0x0000000000000000000000003a4db9e7306af09012ceb0f222d581fd1f0c6d71"
          ],
          "data": "0x00000000000000000000000000000000000000000000000000000000165a0bc0",
          "blockHash": "0x1eeb7bf990888830ea1e41a342f73c0e2f19055ba4cbf0d34153d8c6c89fca2d",
          "blockNumber": "0x2aa3e8b",
          "transactionHash": "0xfca0074f9b95085d05589e1f178803c7d60611eec5e7eee24cfb517228d54abd",
          "transactionIndex": "0x1",
          "logIndex": "0x0",
          "removed": false
        }
      ],
      "logsBloom": "0x00000000000000000000000000000000000000000000000000000000000000000000800000000000000000000000000000000000000000000000000000000000000000000000000000000008000000000000000000000000000000000000000000000000020000000000000000008800000000000000000000000010000000000000000000000000000000000000400000000000000000000000000000000000000000000000000020000000000000000000000000000000000000000000000000000002000080000000000000000000000000000000001000000000000020000000000000000000000000000000000000000000000000000000000000000000",
      "type": "0x0",
      "transactionHash": "0xfca0074f9b95085d05589e1f178803c7d60611eec5e7eee24cfb517228d54abd",
      "transactionIndex": "0x1",
      "blockHash": "0x1eeb7bf990888830ea1e41a342f73c0e2f19055ba4cbf0d34153d8c6c89fca2d",
      "blockNumber": "0x2aa3e8b",
      "gasUsed": "0x921d",
      "effectiveGasPrice": "0x5d22cfc40",
      "from": "0x3a4db9e7306af09012ceb0f222d581fd1f0c6d71",
      "to": "0x1ab49e36a37ac3aaf4a74df72cc4bea885a10d27",
      "contractAddress": null,
      "l1BaseFeeScalar": "0x0",
      "l1BlobBaseFee": "0x1",
      "l1BlobBaseFeeScalar": "0x0",
      "l1Fee": "0x0",
      "l1GasPrice": "0x8",
      "l1GasUsed": "0x640"
    },
    {
      "status": "0x1",
      "cumulativeGasUsed": "0x16b8d",
      "logs": [
        {
          "address": "0x1ab49e36a37ac3aaf4a74df72cc4bea885a10d27",
          "topics": [
            "0x8c5be1e5ebec7d5bd14f71427d1e84f3dd0314c0f7b2291e5b200ac8c7c3b925",
            "0x0000000000000000000000003a4db9e7306af09012ceb0f222d581fd1f0c6d71",
            "0x00000000000000000000000048c365a5cffae7b39400e062dea26669d6973007"
          ],
          "data": "0x00000000000000000000000000000000000000000000000000000000165a0bc0",
          "blockHash": "0x1991c2d52b2d96617666c7ee692d12ffa2c2817412f3c6ffdb844fb92dba626d",
          "blockNumber": "0x2aa3e90",
          "transactionHash": "0xf928b15859579b2d8279658312d2c2bb1126f811e17dfe1a78e8c18777f1c7b3",
          "transactionIndex": "0x1",
          "logIndex": "0x0",
          "removed": false
        }
      ],
      "logsBloom": "0x00000000000000000008000000000000000000000000000000000000000000000000800000000000000000000000000000000000000000000000000000200000000000000000000000000000000000000000000000000000000000000000000000000000000000000000000000008000000000000000000000000000000000000000000000000000000000000000400000000000000000000000000000000000020000000000000020000000000002000000000000000000000000000000000000000000000080000000000000000000000000000000001000000000000000000010000000000000000000000000000000000000000000000000000000000020",
      "type": "0x0",
      "transactionHash": "0xf928b15859579b2d8279658312d2c2bb1126f811e17dfe1a78e8c18777f1c7b3",
      "transactionIndex": "0x1",
      "blockHash": "0x1991c2d52b2d96617666c7ee692d12ffa2c2817412f3c6ffdb844fb92dba626d",
      "blockNumber": "0x2aa3e90",
      "gasUsed": "0xbd8b",
      "effectiveGasPrice": "0x5d22cfc40",
      "from": "0x3a4db9e7306af09012ceb0f222d581fd1f0c6d71",
      "to": "0x1ab49e36a37ac3aaf4a74df72cc4bea885a10d27",
      "contractAddress": null,
      "l1BaseFeeScalar": "0x0",
      "l1BlobBaseFee": "0x1",
      "l1BlobBaseFeeScalar": "0x0",
      "l1Fee": "0x0",
      "l1GasPrice": "0x8",
      "l1GasUsed": "0x640"
    },
    {
      "status": "0x1",
      "cumulativeGasUsed": "0x3ca61",
      "logs": [
        {
          "address": "0x1ab49e36a37ac3aaf4a74df72cc4bea885a10d27",
          "topics": [
            "0xddf252ad1be2c89b69c2b068fc378daa952ba7f163c4a11628f55a4df523b3ef",
            "0x0000000000000000000000003a4db9e7306af09012ceb0f222d581fd1f0c6d71",
            "0x00000000000000000000000048c365a5cffae7b39400e062dea26669d6973007"
          ],
          "data": "0x00000000000000000000000000000000000000000000000000000000165a0bc0",
          "blockHash": "0xe23c5a91f8f39495ab9e2331bb9378c5880374be0f4d4a9e1507d36752b57341",
          "blockNumber": "0x2aa3e94",
          "transactionHash": "0x717bf7ca0fc010ab3bd9d1b84f143de1e4267f024c211b0ddd6f6bd6dbd71aaf",
          "transactionIndex": "0x1",
          "logIndex": "0x0",
          "removed": false
        },
        {
          "address": "0x1ab49e36a37ac3aaf4a74df72cc4bea885a10d27",
          "topics": [
            "0x8c5be1e5ebec7d5bd14f71427d1e84f3dd0314c0f7b2291e5b200ac8c7c3b925",
            "0x00000000000000000000000048c365a5cffae7b39400e062dea26669d6973007",
            "0x000000000000000000000000056a9aec78d851f8e977401d1ef182c57aa3e219"
          ],
          "data": "0x00000000000000000000000000000000000000000000000000000000165a0bc0",
          "blockHash": "0xe23c5a91f8f39495ab9e2331bb9378c5880374be0f4d4a9e1507d36752b57341",
          "blockNumber": "0x2aa3e94",
          "transactionHash": "0x717bf7ca0fc010ab3bd9d1b84f143de1e4267f024c211b0ddd6f6bd6dbd71aaf",
          "transactionIndex": "0x1",
          "logIndex": "0x1",
          "removed": false
        },
        {
          "address": "0x48c365a5cffae7b39400e062dea26669d6973007",
          "topics": [
            "0x0d4979b0859a1951f8ed7cbe3b1994e740552588f27ba02ca0f8f1ddcad16e0c",
            "0x0000000000000000000000000000000000000000000000000000000000000001"
          ],
          "data": "0x00000000000000000000000000000000000000000000000000000000165a0bc0",
          "blockHash": "0xe23c5a91f8f39495ab9e2331bb9378c5880374be0f4d4a9e1507d36752b57341",
          "blockNumber": "0x2aa3e94",
          "transactionHash": "0x717bf7ca0fc010ab3bd9d1b84f143de1e4267f024c211b0ddd6f6bd6dbd71aaf",
          "transactionIndex": "0x1",
          "logIndex": "0x2",
          "removed": false
        }
      ],
      "logsBloom": "0x00000000000000000008000010000000000000000000000000000000000000000000800010000000000000000080000000000000000000000000000000240000000000000000000000000008000000000000002000040000000000000000000080000000000000000000000000008000000000000000000000000010000000000000000000000000000000000000400000000000000000000000000000000000020000000000000020000000000002000000000000000000000800000000000000000002000082000000000000000000000000000000001000000000000040000010000000000000000000000000000000000000000400000000000000000220",
      "type": "0x0",
      "transactionHash": "0x717bf7ca0fc010ab3bd9d1b84f143de1e4267f024c211b0ddd6f6bd6dbd71aaf",
      "transactionIndex": "0x1",
      "blockHash": "0xe23c5a91f8f39495ab9e2331bb9378c5880374be0f4d4a9e1507d36752b57341",
      "blockNumber": "0x2aa3e94",
      "gasUsed": "0x31f73",
      "effectiveGasPrice": "0x5d22cfc40",
      "from": "0x3a4db9e7306af09012ceb0f222d581fd1f0c6d71",
      "to": "0x48c365a5cffae7b39400e062dea26669d6973007",
      "contractAddress": null,
      "l1BaseFeeScalar": "0x0",
      "l1BlobBaseFee": "0x1",
      "l1BlobBaseFeeScalar": "0x0",
      "l1Fee": "0x0",
      "l1GasPrice": "0x8",
      "l1GasUsed": "0x640"
    }
  ],
  "libraries": [],
  "pending": [],
  "returns": {},
  "timestamp": 1745666893,
  "chain": 44787,
  "commit": "1cefd9d"
}