{
  "transactions": [
    {
      "hash": "0xcae811cb2953227c4dbb7f6d0fb675523217102bb765ef983d26e41f9d646ff4",
      "transactionType": "CALL",
      "contractName": null,
      "contractAddress": "0x48c365a5cffae7b39400e062dea26669d6973007",
      "function": "increaseBorrow(uint256,uint256)",
      "arguments": [
        "1",
        "250000000"
      ],
      "transaction": {
        "from": "0x3a4db9e7306af09012ceb0f222d581fd1f0c6d71",
        "to": "0x48c365a5cffae7b39400e062dea26669d6973007",
        "gas": "0x23b7b",
        "value": "0x0",
        "input": "0x9e6824d90000000000000000000000000000000000000000000000000000000000000001000000000000000000000000000000000000000000000000000000000ee6b280",
        "nonce": "0x110",
        "chainId": "0xaef3"
      },
      "additionalContracts": [],
      "isFixedGasLimit": false
    }
  ],
  "receipts": [
    {
      "status": "0x1",
      "cumulativeGasUsed": "0x231a4",
      "logs": [
        {
          "address": "0x1ab49e36a37ac3aaf4a74df72cc4bea885a10d27",
          "topics": [
            "0xddf252ad1be2c89b69c2b068fc378daa952ba7f163c4a11628f55a4df523b3ef",
            "0x0000000000000000000000000000000000000000000000000000000000000000",
            "0x00000000000000000000000048c365a5cffae7b39400e062dea26669d6973007"
          ],
          "data": "0x000000000000000000000000000000000000000000000000000000000ee6b280",
          "blockHash": "0xece0fa5f0ab2d7dd7b7aab95bf2793c6a1c511e4f9661fd105e8cfdac0c8c5b9",
          "blockNumber": "0x2aa3e47",
          "transactionHash": "0xcae811cb2953227c4dbb7f6d0fb675523217102bb765ef983d26e41f9d646ff4",
          "transactionIndex": "0x1",
          "logIndex": "0x0",
          "removed": false
        },
        {
          "address": "0x1ab49e36a37ac3aaf4a74df72cc4bea885a10d27",
          "topics": [
            "0xddf252ad1be2c89b69c2b068fc378daa952ba7f163c4a11628f55a4df523b3ef",
            "0x00000000000000000000000048c365a5cffae7b39400e062dea26669d6973007",
            "0x0000000000000000000000003a4db9e7306af09012ceb0f222d581fd1f0c6d71"
          ],
          "data": "0x000000000000000000000000000000000000000000000000000000000ee6b280",
          "blockHash": "0xece0fa5f0ab2d7dd7b7aab95bf2793c6a1c511e4f9661fd105e8cfdac0c8c5b9",
          "blockNumber": "0x2aa3e47",
          "transactionHash": "0xcae811cb2953227c4dbb7f6d0fb675523217102bb765ef983d26e41f9d646ff4",
          "transactionIndex": "0x1",
          "logIndex": "0x1",
          "removed": false
        },
        {
          "address": "0x48c365a5cffae7b39400e062dea26669d6973007",
          "topics": [
            "0xf3a2c404b3362c4238317c3dad1020c2e9e984ba8df38a4a1ff18d57e92a242a",
            "0x0000000000000000000000000000000000000000000000000000000000000001"
          ],
          "data": "0x000000000000000000000000000000000000000000000000000000000ee6b280",
          "blockHash": "0xece0fa5f0ab2d7dd7b7aab95bf2793c6a1c511e4f9661fd105e8cfdac0c8c5b9",
          "blockNumber": "0x2aa3e47",
          "transactionHash": "0xcae811cb2953227c4dbb7f6d0fb675523217102bb765ef983d26e41f9d646ff4",
          "transactionIndex": "0x1",
          "logIndex": "0x2",
          "removed": false
        }
      ],
      "logsBloom": "0x00000000000000000008000000000000000000000000000000000000000000000000800000000000000000000080000000000000000000000000000000040000000000000000000000000008000000000000000000040000000000000000000000000000020000000000000000008800000000000000000000000010000000000000000000000010000000000000400000000000000000000000000000000000000000000000000020000000000002000000000000000000000800000000000000000002000082000000000000000000000000400000001000000000000060000000000000000000000000000000000000000000000000000800000000000020",
      "type": "0x0",
      "transactionHash": "0xcae811cb2953227c4dbb7f6d0fb675523217102bb765ef983d26e41f9d646ff4",
      "transactionIndex": "0x1",
      "blockHash": "0xece0fa5f0ab2d7dd7b7aab95bf2793c6a1c511e4f9661fd105e8cfdac0c8c5b9",
      "blockNumber": "0x2aa3e47",
      "gasUsed": "0x186c2",
      "effectiveGasPrice": "0x5d22cfc40",
      "from": "0x3a4db9e7306af09012ceb0f222d581fd1f0c6d71",
      "to": "0x48c365a5cffae7b39400e062dea26669d6973007",
      "contractAddress": null,
      "l1BaseFeeScalar": "0x0",
      "l1BlobBaseFee": "0x1",
      "l1BlobBaseFeeScalar": "0x0",
      "l1Fee": "0x0",
      "l1GasPrice": "0x9",
      "l1GasUsed": "0x640"
    }
  ],
  "libraries": [],
  "pending": [],
  "returns": {},
  "timestamp": 1745666815,
  "chain": 44787,
  "commit": "1cefd9d"
}