{
  "transactions": [
    {
      "hash": "0x475d6fc12a39bbf04af74d30b2af5cbc25d0cbee4d0b3d534488cd9bb4d56a59",
      "transactionType": "CALL",
      "contractName": null,
      "contractAddress": "0x48c365a5cffae7b39400e062dea26669d6973007",
      "function": "withdrawCollateral(uint256,uint256)",
      "arguments": [
        "2",
        "160000000000000000000"
      ],
      "transaction": {
        "from": "0x3a4db9e7306af09012ceb0f222d581fd1f0c6d71",
        "to": "0x48c365a5cffae7b39400e062dea26669d6973007",
        "gas": "0x1c7a9",
        "value": "0x0",
        "input": "0x767a7b050000000000000000000000000000000000000000000000000000000000000002000000000000000000000000000000000000000000000008ac7230489e800000",
        "nonce": "0x11c",
        "chainId": "0xaef3"
      },
      "additionalContracts": [],
      "isFixedGasLimit": false
    }
  ],
  "receipts": [
    {
      "status": "0x1",
      "cumulativeGasUsed": "0x27da6",
      "logs": [
        {
          "address": "0x0d8af705d767e7b63250a6ac90fe2968ae062c0d",
          "topics": [
            "0xddf252ad1be2c89b69c2b068fc378daa952ba7f163c4a11628f55a4df523b3ef",
            "0x000000000000000000000000056a9aec78d851f8e977401d1ef182c57aa3e219",
            "0x0000000000000000000000003a4db9e7306af09012ceb0f222d581fd1f0c6d71"
          ],
          "data": "0x000000000000000000000000000000000000000000000008ac7230489e800000",
          "blockHash": "0x6d822ca4513cce3acf49fd990578073fa2ae8699608ea06202ba36dda45073c2",
          "blockNumber": "0x2aa3f57",
          "transactionHash": "0x475d6fc12a39bbf04af74d30b2af5cbc25d0cbee4d0b3d534488cd9bb4d56a59",
          "transactionIndex": "0x2",
          "logIndex": "0x1",
          "removed": false
        },
        {
          "address": "0x48c365a5cffae7b39400e062dea26669d6973007",
          "topics": [
            "0x2399e8aed1977410745a5211d8226a3a7d9278f50a8a197c5ec6e285bb437f0b",
            "0x0000000000000000000000000000000000000000000000000000000000000002"
          ],
          "data": "0x000000000000000000000000000000000000000000000008ac7230489e800000",
          "blockHash": "0x6d822ca4513cce3acf49fd990578073fa2ae8699608ea06202ba36dda45073c2",
          "blockNumber": "0x2aa3f57",
          "transactionHash": "0x475d6fc12a39bbf04af74d30b2af5cbc25d0cbee4d0b3d534488cd9bb4d56a59",
          "transactionIndex": "0x2",
          "logIndex": "0x2",
          "removed": false
        }
      ],
      "logsBloom": "0x44000000000000000000000000000000000000000000000000000000000000000000000010000000000000000080000000000000000000000000000000000000000000000000000000000008000000000000000000000000000000000000000000000000000000000000000000000000000000000020000000000010000000000000000000000000000000000000400000000000000060000000000000000000000000000000000000000104000000000000000000000000000800000000000000000002000082000000040000000000000000000000001000000000000000000000000000000000000000000000000000000000008400000000000000000200",
      "type": "0x0",
      "transactionHash": "0x475d6fc12a39bbf04af74d30b2af5cbc25d0cbee4d0b3d534488cd9bb4d56a59",
      "transactionIndex": "0x2",
      "blockHash": "0x6d822ca4513cce3acf49fd990578073fa2ae8699608ea06202ba36dda45073c2",
      "blockNumber": "0x2aa3f57",
      "gasUsed": "0x149e4",
      "effectiveGasPrice": "0x5d22cfc40",
      "from": "0x3a4db9e7306af09012ceb0f222d581fd1f0c6d71",
      "to": "0x48c365a5cffae7b39400e062dea26669d6973007",
      "contractAddress": null,
      "l1BaseFeeScalar": "0x0",
      "l1BlobBaseFee": "0x1",
      "l1BlobBaseFeeScalar": "0x0",
      "l1Fee": "0x0",
      "l1GasPrice": "0x9",
      "l1GasUsed": "0x640"
    }
  ],
  "libraries": [],
  "pending": [],
  "returns": {},
  "timestamp": 1745667087,
  "chain": 44787,
  "commit": "1cefd9d"
}