{
  "transactions": [
    {
      "hash": "0x8a91dfbe35af2ccf75c9cfb213111346882c6cac25311200fb90decf23c5fab3",
      "transactionType": "CALL",
      "contractName": null,
      "contractAddress": "0x0d8af705d767e7b63250a6ac90fe2968ae062c0d",
      "function": "mint(address,uint256)",
      "arguments": [
        "0x3A4dB9e7306aF09012ceb0f222d581FD1F0C6D71",
        "1000000000000000000000"
      ],
      "transaction": {
        "from": "0x3a4db9e7306af09012ceb0f222d581fd1f0c6d71",
        "to": "0x0d8af705d767e7b63250a6ac90fe2968ae062c0d",
        "gas": "0xd5e5",
        "value": "0x0",
        "input": "0x40c10f190000000000000000000000003a4db9e7306af09012ceb0f222d581fd1f0c6d7100000000000000000000000000000000000000000000003635c9adc5dea00000",
        "nonce": "0x12f",
        "chainId": "0xaef3"
      },
      "additionalContracts": [],
      "isFixedGasLimit": false
    },
    {
      "hash": "0xc8754fc6bff13612353a3d8ef8975763441079d014eaa3f0f10341dfdc8180d4",
      "transactionType": "CALL",
      "contractName": null,
      "contractAddress": "0x1ab49e36a37ac3aaf4a74df72cc4bea885a10d27",
      "function": "mint(address,uint256)",
      "arguments": [
        "0x3A4dB9e7306aF09012ceb0f222d581FD1F0C6D71",
        "1000000000"
      ],
      "transaction": {
        "from": "0x3a4db9e7306af09012ceb0f222d581fd1f0c6d71",
        "to": "0x1ab49e36a37ac3aaf4a74df72cc4bea885a10d27",
        "gas": "0xd59f",
        "value": "0x0",
        "input": "0x40c10f190000000000000000000000003a4db9e7306af09012ceb0f222d581fd1f0c6d71000000000000000000000000000000000000000000000000000000003b9aca00",
        "nonce": "0x130",
        "chainId": "0xaef3"
      },
      "additionalContracts": [],
      "isFixedGasLimit": false
    },
    {
      "hash": "0x2ed000d573bf1a83121b283724092bab4ceff796c66af1830821b066e7d3a820",
      "transactionType": "CALL",
      "contractName": null,
      "contractAddress": "0x0d8af705d767e7b63250a6ac90fe2968ae062c0d",
      "function": "approve(address,uint256)",
      "arguments": [
        "0x48C365A5cFfAe7B39400e062dEA26669D6973007",
        "1000000000000000000000"
      ],
      "transaction": {
        "from": "0x3a4db9e7306af09012ceb0f222d581fd1f0c6d71",
        "to": "0x0d8af705d767e7b63250a6ac90fe2968ae062c0d",
        "gas": "0x105fe",
        "value": "0x0",
        "input": "0x095ea7b300000000000000000000000048c365a5cffae7b39400e062dea26669d697300700000000000000000000000000000000000000000000003635c9adc5dea00000",
        "nonce": "0x131",
        "chainId": "0xaef3"
      },
      "additionalContracts": [],
      "isFixedGasLimit": false
    },
    {
      "hash": "0x8788f9a96094e2ecf162b906f56a67b5a864cbd2ae392ac7224eed577f62f5a4",
      "transactionType": "CALL",
      "contractName": null,
      "contractAddress": "0x48c365a5cffae7b39400e062dea26669d6973007",
      "function": "createPosition(address,uint256,address,uint256,uint256)",
      "arguments": [
        "0x0D8Af705d767e7b63250A6ac90Fe2968AE062c0D",
        "1000000000000000000000",
        "0x1ab49E36A37Ac3aAf4a74dF72cC4Bea885a10D27",
        "500000000",
        "2"
      ],
      "transaction": {
        "from": "0x3a4db9e7306af09012ceb0f222d581fd1f0c6d71",
        "to": "0x48c365a5cffae7b39400e062dea26669d6973007",
        "gas": "0x7050f",
        "value": "0x0",
        "input": "0xb0c3d5df0000000000000000000000000d8af705d767e7b63250a6ac90fe2968ae062c0d00000000000000000000000000000000000000000000003635c9adc5dea000000000000000000000000000001ab49e36a37ac3aaf4a74df72cc4bea885a10d27000000000000000000000000000000000000000000000000000000001dcd65000000000000000000000000000000000000000000000000000000000000000002",
        "nonce": "0x132",
        "chainId": "0xaef3"
      },
      "additionalContracts": [],
      "isFixedGasLimit": false
    }
  ],
  "receipts": [
    {
      "status": "0x1",
      "cumulativeGasUsed": "0x17ffb",
      "logs": [
        {
          "address": "0x0d8af705d767e7b63250a6ac90fe2968ae062c0d",
          "topics": [
            "0xddf252ad1be2c89b69c2b068fc378daa952ba7f163c4a11628f55a4df523b3ef",
            "0x0000000000000000000000000000000000000000000000000000000000000000",
            "0x0000000000000000000000003a4db9e7306af09012ceb0f222d581fd1f0c6d71"
          ],
          "data": "0x00000000000000000000000000000000000000000000003635c9adc5dea00000",
          "blockHash": "0xf2bc0429b199e4108e5f12c24b1e1963a5795732c1f0eed362561087c7075e52",
          "blockNumber": "0x2aa4a29",
          "transactionHash": "0x8a91dfbe35af2ccf75c9cfb213111346882c6cac25311200fb90decf23c5fab3",
          "transactionIndex": "0x1",
          "logIndex": "0x0",
          "removed": false
        }
      ],
      "logsBloom": "0x40000000000000000000000000000000000000000000000000000000000000000000000000000000000000000000000000000000000000000000000000000000000000000000000000000008000000000000000000000000000000000000000000000000020000000000000000000800000000000000000000000010000000000000000000000000000000000000400000000000000000000000000000000000000000000000000000000004000000000000000000000000000000000000000000000002000080000000040000000000000000000000001000000000000020000000000000000000000000000000000000000000000000000000000000000000",
      "type": "0x0",
      "transactionHash": "0x8a91dfbe35af2ccf75c9cfb213111346882c6cac25311200fb90decf23c5fab3",
      "transactionIndex": "0x1",
      "blockHash": "0xf2bc0429b199e4108e5f12c24b1e1963a5795732c1f0eed362561087c7075e52",
      "blockNumber": "0x2aa4a29",
      "gasUsed": "0x9241",
      "effectiveGasPrice": "0x5d22cfc40",
      "from": "0x3a4db9e7306af09012ceb0f222d581fd1f0c6d71",
      "to": "0x0d8af705d767e7b63250a6ac90fe2968ae062c0d",
      "contractAddress": null,
      "l1BaseFeeScalar": "0x0",
      "l1BlobBaseFee": "0x1",
      "l1BlobBaseFeeScalar": "0x0",
      "l1Fee": "0x0",
      "l1GasPrice": "0xe",
      "l1GasUsed": "0x640"
    },
    {
      "status": "0x1",
      "cumulativeGasUsed": "0x2120c",
      "logs": [
        {
          "address": "0x1ab49e36a37ac3aaf4a74df72cc4bea885a10d27",
          "topics": [
            "0xddf252ad1be2c89b69c2b068fc378daa952ba7f163c4a11628f55a4df523b3ef",
            "0x0000000000000000000000000000000000000000000000000000000000000000",
            "0x0000000000000000000000003a4db9e7306af09012ceb0f222d581fd1f0c6d71"
          ],
          "data": "0x000000000000000000000000000000000000000000000000000000003b9aca00",
          "blockHash": "0xf2bc0429b199e4108e5f12c24b1e1963a5795732c1f0eed362561087c7075e52",
          "blockNumber": "0x2aa4a29",
          "transactionHash": "0xc8754fc6bff13612353a3d8ef8975763441079d014eaa3f0f10341dfdc8180d4",
          "transactionIndex": "0x2",
          "logIndex": "0x1",
          "removed": false
        }
      ],
      "logsBloom": "0x00000000000000000000000000000000000000000000000000000000000000000000800000000000000000000000000000000000000000000000000000000000000000000000000000000008000000000000000000000000000000000000000000000000020000000000000000008800000000000000000000000010000000000000000000000000000000000000400000000000000000000000000000000000000000000000000020000000000000000000000000000000000000000000000000000002000080000000000000000000000000000000001000000000000020000000000000000000000000000000000000000000000000000000000000000000",
      "type": "0x0",
      "transactionHash": "0xc8754fc6bff13612353a3d8ef8975763441079d014eaa3f0f10341dfdc8180d4",
      "transactionIndex": "0x2",
      "blockHash": "0xf2bc0429b199e4108e5f12c24b1e1963a5795732c1f0eed362561087c7075e52",
      "blockNumber": "0x2aa4a29",
      "gasUsed": "0x9211",
      "effectiveGasPrice": "0x5d22cfc40",
      "from": "0x3a4db9e7306af09012ceb0f222d581fd1f0c6d71",
      "to": "0x1ab49e36a37ac3aaf4a74df72cc4bea885a10d27",
      "contractAddress": null,
      "l1BaseFeeScalar": "0x0",
      "l1BlobBaseFee": "0x1",
      "l1BlobBaseFeeScalar": "0x0",
      "l1Fee": "0x0",
      "l1GasPrice": "0xe",
      "l1GasUsed": "0x640"
    },
    {
      "status": "0x1",
      "cumulativeGasUsed": "0x2cfbb",
      "logs": [
        {
          "address": "0x0d8af705d767e7b63250a6ac90fe2968ae062c0d",
          "topics": [
            "0x8c5be1e5ebec7d5bd14f71427d1e84f3dd0314c0f7b2291e5b200ac8c7c3b925",
            "0x0000000000000000000000003a4db9e7306af09012ceb0f222d581fd1f0c6d71",
            "0x00000000000000000000000048c365a5cffae7b39400e062dea26669d6973007"
          ],
          "data": "0x00000000000000000000000000000000000000000000003635c9adc5dea00000",
          "blockHash": "0xf2bc0429b199e4108e5f12c24b1e1963a5795732c1f0eed362561087c7075e52",
          "blockNumber": "0x2aa4a29",
          "transactionHash": "0x2ed000d573bf1a83121b283724092bab4ceff796c66af1830821b066e7d3a820",
          "transactionIndex": "0x3",
          "logIndex": "0x2",
          "removed": false
        }
      ],
      "logsBloom": "0x40000000000000000008000000000000000000000000000000000000000000000000000000000000000000000000000000000000000000000000000000200000000000000000000000000000000000000000000000000000000000000000000000000000000000000000000000000000000000000000000000000000000000000000000000000000000000000000400000000000000000000000000000000000020000000000000000000004000002000000000000000000000000000000000000000000000080000000040000000000000000000000001000000000000000000010000000000000000000000000000000000000000000000000000000000020",
      "type": "0x0",
      "transactionHash": "0x2ed000d573bf1a83121b283724092bab4ceff796c66af1830821b066e7d3a820",
      "transactionIndex": "0x3",
      "blockHash": "0xf2bc0429b199e4108e5f12c24b1e1963a5795732c1f0eed362561087c7075e52",
      "blockNumber": "0x2aa4a29",
      "gasUsed": "0xbdaf",
      "effectiveGasPrice": "0x5d22cfc40",
      "from": "0x3a4db9e7306af09012ceb0f222d581fd1f0c6d71",
      "to": "0x0d8af705d767e7b63250a6ac90fe2968ae062c0d",
      "contractAddress": null,
      "l1BaseFeeScalar": "0x0",
      "l1BlobBaseFee": "0x1",
      "l1BlobBaseFeeScalar": "0x0",
      "l1Fee": "0x0",
      "l1GasPrice": "0xe",
      "l1GasUsed": "0x640"
    },
    {
      "status": "0x1",
      "cumulativeGasUsed": "0x79c7e",
      "logs": [
        {
          "address": "0x0d8af705d767e7b63250a6ac90fe2968ae062c0d",
          "topics": [
            "0xddf252ad1be2c89b69c2b068fc378daa952ba7f163c4a11628f55a4df523b3ef",
            "0x0000000000000000000000003a4db9e7306af09012ceb0f222d581fd1f0c6d71",
            "0x00000000000000000000000048c365a5cffae7b39400e062dea26669d6973007"
          ],
          "data": "0x00000000000000000000000000000000000000000000003635c9adc5dea00000",
          "blockHash": "0xf2bc0429b199e4108e5f12c24b1e1963a5795732c1f0eed362561087c7075e52",
          "blockNumber": "0x2aa4a29",
          "transactionHash": "0x8788f9a96094e2ecf162b906f56a67b5a864cbd2ae392ac7224eed577f62f5a4",
          "transactionIndex": "0x4",
          "logIndex": "0x3",
          "removed": false
        },
        {
          "address": "0x0d8af705d767e7b63250a6ac90fe2968ae062c0d",
          "topics": [
            "0x8c5be1e5ebec7d5bd14f71427d1e84f3dd0314c0f7b2291e5b200ac8c7c3b925",
            "0x00000000000000000000000048c365a5cffae7b39400e062dea26669d6973007",
            "0x000000000000000000000000056a9aec78d851f8e977401d1ef182c57aa3e219"
          ],
          "data": "0x00000000000000000000000000000000000000000000003635c9adc5dea00000",
          "blockHash": "0xf2bc0429b199e4108e5f12c24b1e1963a5795732c1f0eed362561087c7075e52",
          "blockNumber": "0x2aa4a29",
          "transactionHash": "0x8788f9a96094e2ecf162b906f56a67b5a864cbd2ae392ac7224eed577f62f5a4",
          "transactionIndex": "0x4",
          "logIndex": "0x4",
          "removed": false
        },
        {
          "address": "0x1ab49e36a37ac3aaf4a74df72cc4bea885a10d27",
          "topics": [
            "0xddf252ad1be2c89b69c2b068fc378daa952ba7f163c4a11628f55a4df523b3ef",
            "0x0000000000000000000000000000000000000000000000000000000000000000",
            "0x00000000000000000000000048c365a5cffae7b39400e062dea26669d6973007"
          ],
          "data": "0x000000000000000000000000000000000000000000000000000000001dcd6500",
          "blockHash": "0xf2bc0429b199e4108e5f12c24b1e1963a5795732c1f0eed362561087c7075e52",
          "blockNumber": "0x2aa4a29",
          "transactionHash": "0x8788f9a96094e2ecf162b906f56a67b5a864cbd2ae392ac7224eed577f62f5a4",
          "transactionIndex": "0x4",
          "logIndex": "0x5",
          "removed": false
        },
        {
          "address": "0x1ab49e36a37ac3aaf4a74df72cc4bea885a10d27",
          "topics": [
            "0xddf252ad1be2c89b69c2b068fc378daa952ba7f163c4a11628f55a4df523b3ef",
            "0x00000000000000000000000048c365a5cffae7b39400e062dea26669d6973007",
            "0x0000000000000000000000003a4db9e7306af09012ceb0f222d581fd1f0c6d71"
          ],
          "data": "0x000000000000000000000000000000000000000000000000000000001dcd6500",
          "blockHash": "0xf2bc0429b199e4108e5f12c24b1e1963a5795732c1f0eed362561087c7075e52",
          "blockNumber": "0x2aa4a29",
          "transactionHash": "0x8788f9a96094e2ecf162b906f56a67b5a864cbd2ae392ac7224eed577f62f5a4",
          "transactionIndex": "0x4",
          "logIndex": "0x6",
          "removed": false
        },
        {
          "address": "0x48c365a5cffae7b39400e062dea26669d6973007",
          "topics": [
            "0x9f9b498443531d2db9df8a00ec466efc74ba50ec1d82f7badd3424b87930e19a",
            "0x0000000000000000000000000000000000000000000000000000000000000005",
            "0x0000000000000000000000003a4db9e7306af09012ceb0f222d581fd1f0c6d71"
          ],
          "data": "0x0000000000000000000000000d8af705d767e7b63250a6ac90fe2968ae062c0d00000000000000000000000000000000000000000000003635c9adc5dea000000000000000000000000000001ab49e36a37ac3aaf4a74df72cc4bea885a10d27000000000000000000000000000000000000000000000000000000001dcd65000000000000000000000000000000000000000000000000000000000000000002",
          "blockHash": "0xf2bc0429b199e4108e5f12c24b1e1963a5795732c1f0eed362561087c7075e52",
          "blockNumber": "0x2aa4a29",
          "transactionHash": "0x8788f9a96094e2ecf162b906f56a67b5a864cbd2ae392ac7224eed577f62f5a4",
          "transactionIndex": "0x4",
          "logIndex": "0x7",
          "removed": false
        }
      ],
      "logsBloom": "0x40000000000000000008000000000000000000000000000000000000000000000000800010000000000020000080000000000000000000000000000000200000000010000000000000000008000000000000000000000000000000000000000000000000020000000000000000008800000000020000000000000010000000000000000000000000000000000000401000000800000000000000000000000000020000000000000020000004000002000000000000000000000800000000000000000002000082000000040000000000000000000000001000020000000020000010000000000000000000000000000000000000000400000000000000000220",
      "type": "0x0",
      "transactionHash": "0x8788f9a96094e2ecf162b906f56a67b5a864cbd2ae392ac7224eed577f62f5a4",
      "transactionIndex": "0x4",
      "blockHash": "0xf2bc0429b199e4108e5f12c24b1e1963a5795732c1f0eed362561087c7075e52",
      "blockNumber": "0x2aa4a29",
      "gasUsed": "0x4ccc3",
      "effectiveGasPrice": "0x5d22cfc40",
      "from": "0x3a4db9e7306af09012ceb0f222d581fd1f0c6d71",
      "to": "0x48c365a5cffae7b39400e062dea26669d6973007",
      "contractAddress": null,
      "l1BaseFeeScalar": "0x0",
      "l1BlobBaseFee": "0x1",
      "l1BlobBaseFeeScalar": "0x0",
      "l1Fee": "0x0",
      "l1GasPrice": "0xe",
      "l1GasUsed": "0x7be"
    }
  ],
  "libraries": [],
  "pending": [],
  "returns": {},
  "timestamp": 1745669858,
  "chain": 44787,
  "commit": "1cefd9d"
}