{
  "transactions": [
    {
      "hash": "0x2894285d5f48e6152d86edbf4e53171438cf2ac7807bb2b9ab5ed371aab20b55",
      "transactionType": "CALL",
      "contractName": null,
      "contractAddress": "0x48c365a5cffae7b39400e062dea26669d6973007",
      "function": "increaseBorrow(uint256,uint256)",
      "arguments": [
        "2",
        "337500000"
      ],
      "transaction": {
        "from": "0x3a4db9e7306af09012ceb0f222d581fd1f0c6d71",
        "to": "0x48c365a5cffae7b39400e062dea26669d6973007",
        "gas": "0x23b7b",
        "value": "0x0",
        "input": "0x9e6824d9000000000000000000000000000000000000000000000000000000000000000200000000000000000000000000000000000000000000000000000000141dd760",
        "nonce": "0x11d",
        "chainId": "0xaef3"
      },
      "additionalContracts": [],
      "isFixedGasLimit": false
    }
  ],
  "receipts": [
    {
      "status": "0x1",
      "cumulativeGasUsed": "0x231b0",
      "logs": [
        {
          "address": "0x1ab49e36a37ac3aaf4a74df72cc4bea885a10d27",
          "topics": [
            "0xddf252ad1be2c89b69c2b068fc378daa952ba7f163c4a11628f55a4df523b3ef",
            "0x0000000000000000000000000000000000000000000000000000000000000000",
            "0x00000000000000000000000048c365a5cffae7b39400e062dea26669d6973007"
          ],
          "data": "0x00000000000000000000000000000000000000000000000000000000141dd760",
          "blockHash": "0x1ac40dff7cb28577d31882ce12d1090a8a795890e1cefa2f60fa0aa19d1476bf",
          "blockNumber": "0x2aa3f7b",
          "transactionHash": "0x2894285d5f48e6152d86edbf4e53171438cf2ac7807bb2b9ab5ed371aab20b55",
          "transactionIndex": "0x1",
          "logIndex": "0x0",
          "removed": false
        },
        {
          "address": "0x1ab49e36a37ac3aaf4a74df72cc4bea885a10d27",
          "topics": [
            "0xddf252ad1be2c89b69c2b068fc378daa952ba7f163c4a11628f55a4df523b3ef",
            "0x00000000000000000000000048c365a5cffae7b39400e062dea26669d6973007",
            "0x0000000000000000000000003a4db9e7306af09012ceb0f222d581fd1f0c6d71"
          ],
          "data": "0x00000000000000000000000000000000000000000000000000000000141dd760",
          "blockHash": "0x1ac40dff7cb28577d31882ce12d1090a8a795890e1cefa2f60fa0aa19d1476bf",
          "blockNumber": "0x2aa3f7b",
          "transactionHash": "0x2894285d5f48e6152d86edbf4e53171438cf2ac7807bb2b9ab5ed371aab20b55",
          "transactionIndex": "0x1",
          "logIndex": "0x1",
          "removed": false
        },
        {
          "address": "0x48c365a5cffae7b39400e062dea26669d6973007",
          "topics": [
            "0xf3a2c404b3362c4238317c3dad1020c2e9e984ba8df38a4a1ff18d57e92a242a",
            "0x0000000000000000000000000000000000000000000000000000000000000002"
          ],
          "data": "0x00000000000000000000000000000000000000000000000000000000141dd760",
          "blockHash": "0x1ac40dff7cb28577d31882ce12d1090a8a795890e1cefa2f60fa0aa19d1476bf",
          "blockNumber": "0x2aa3f7b",
          "transactionHash": "0x2894285d5f48e6152d86edbf4e53171438cf2ac7807bb2b9ab5ed371aab20b55",
          "transactionIndex": "0x1",
          "logIndex": "0x2",
          "removed": false
        }
      ],
      "logsBloom": "0x04000000000000000008000000000000000000000000000000000000000000000000800000000000000000000080000000000000000000000000000000000000000000000000000000000008000000000000000000000000000000000000000000000000020000000000000000008800000000000000000000000010000000000000000000000010000000000000400000000000000000000000000000000000000000000000000020000100000002000000000000000000000800000000000000000002000082000000000000000000000000400000001000000000000020000000000000000000000000000000000000000000008000000800000000000020",
      "type": "0x0",
      "transactionHash": "0x2894285d5f48e6152d86edbf4e53171438cf2ac7807bb2b9ab5ed371aab20b55",
      "transactionIndex": "0x1",
      "blockHash": "0x1ac40dff7cb28577d31882ce12d1090a8a795890e1cefa2f60fa0aa19d1476bf",
      "blockNumber": "0x2aa3f7b",
      "gasUsed": "0x186c2",
      "effectiveGasPrice": "0x5d22cfc40",
      "from": "0x3a4db9e7306af09012ceb0f222d581fd1f0c6d71",
      "to": "0x48c365a5cffae7b39400e062dea26669d6973007",
      "contractAddress": null,
      "l1BaseFeeScalar": "0x0",
      "l1BlobBaseFee": "0x1",
      "l1BlobBaseFeeScalar": "0x0",
      "l1Fee": "0x0",
      "l1GasPrice": "0x9",
      "l1GasUsed": "0x640"
    }
  ],
  "libraries": [],
  "pending": [],
  "returns": {},
  "timestamp": 1745667123,
  "chain": 44787,
  "commit": "1cefd9d"
}