{
  "transactions": [
    {
      "hash": "0xe226fb7d0ec41fb0aa216f7ebc9b574ea60be495275b59840eadf917eeb8f967",
      "transactionType": "CALL",
      "contractName": null,
      "contractAddress": "0x1ab49e36a37ac3aaf4a74df72cc4bea885a10d27",
      "function": "mint(address,uint256)",
      "arguments": [
        "0x3A4dB9e7306aF09012ceb0f222d581FD1F0C6D71",
        "675000000"
      ],
      "transaction": {
        "from": "0x3a4db9e7306af09012ceb0f222d581fd1f0c6d71",
        "to": "0x1ab49e36a37ac3aaf4a74df72cc4bea885a10d27",
        "gas": "0xc9d0",
        "value": "0x0",
        "input": "0x40c10f190000000000000000000000003a4db9e7306af09012ceb0f222d581fd1f0c6d7100000000000000000000000000000000000000000000000000000000283baec0",
        "nonce": "0x119",
        "chainId": "0xaef3"
      },
      "additionalContracts": [],
      "isFixedGasLimit": false
    },
    {
      "hash": "0x32b0e3ca9f702ab199dbde4fb2bc19cdf4f1be260aac5e32e853b190dc38ca3b",
      "transactionType": "CALL",
      "contractName": null,
      "contractAddress": "0x1ab49e36a37ac3aaf4a74df72cc4bea885a10d27",
      "function": "approve(address,uint256)",
      "arguments": [
        "0x48C365A5cFfAe7B39400e062dEA26669D6973007",
        "675000000"
      ],
      "transaction": {
        "from": "0x3a4db9e7306af09012ceb0f222d581fd1f0c6d71",
        "to": "0x1ab49e36a37ac3aaf4a74df72cc4bea885a10d27",
        "gas": "0x11534",
        "value": "0x0",
        "input": "0x095ea7b300000000000000000000000048c365a5cffae7b39400e062dea26669d697300700000000000000000000000000000000000000000000000000000000283baec0",
        "nonce": "0x11a",
        "chainId": "0xaef3"
      },
      "additionalContracts": [],
      "isFixedGasLimit": false
    },
    {
      "hash": "0xcab02283e7e1d33e5c93026175d4220aa1ecfbef4d2e3510627c5e6df0ec31e6",
      "transactionType": "CALL",
      "contractName": null,
      "contractAddress": "0x48c365a5cffae7b39400e062dea26669d6973007",
      "function": "repayDebt(uint256,uint256)",
      "arguments": [
        "2",
        "675000000"
      ],
      "transaction": {
        "from": "0x3a4db9e7306af09012ceb0f222d581fd1f0c6d71",
        "to": "0x48c365a5cffae7b39400e062dea26669d6973007",
        "gas": "0x2170f",
        "value": "0x0",
        "input": "0x015cb0a5000000000000000000000000000000000000000000000000000000000000000200000000000000000000000000000000000000000000000000000000283baec0",
        "nonce": "0x11b",
        "chainId": "0xaef3"
      },
      "additionalContracts": [],
      "isFixedGasLimit": false
    }
  ],
  "receipts": [
    {
      "status": "0x1",
      "cumulativeGasUsed": "0x14b0f",
      "logs": [
        {
          "address": "0x1ab49e36a37ac3aaf4a74df72cc4bea885a10d27",
          "topics": [
            "0xddf252ad1be2c89b69c2b068fc378daa952ba7f163c4a11628f55a4df523b3ef",
            "0x0000000000000000000000000000000000000000000000000000000000000000",
            "0x0000000000000000000000003a4db9e7306af09012ceb0f222d581fd1f0c6d71"
          ],
          "data": "0x00000000000000000000000000000000000000000000000000000000283baec0",
          "blockHash": "0x174db47a8dc8a72faebcb01d47bd052b381abbbc6eedbc299116e7051a9c359a",
          "blockNumber": "0x2aa3f2d",
          "transactionHash": "0xe226fb7d0ec41fb0aa216f7ebc9b574ea60be495275b59840eadf917eeb8f967",
          "transactionIndex": "0x1",
          "logIndex": "0x0",
          "removed": false
        }
      ],
      "logsBloom": "0x00000000000000000000000000000000000000000000000000000000000000000000800000000000000000000000000000000000000000000000000000000000000000000000000000000008000000000000000000000000000000000000000000000000020000000000000000008800000000000000000000000010000000000000000000000000000000000000400000000000000000000000000000000000000000000000000020000000000000000000000000000000000000000000000000000002000080000000000000000000000000000000001000000000000020000000000000000000000000000000000000000000000000000000000000000000",
      "type": "0x0",
      "transactionHash": "0xe226fb7d0ec41fb0aa216f7ebc9b574ea60be495275b59840eadf917eeb8f967",
      "transactionIndex": "0x1",
      "blockHash": "0x174db47a8dc8a72faebcb01d47bd052b381abbbc6eedbc299116e7051a9c359a",
      "blockNumber": "0x2aa3f2d",
      "gasUsed": "0x921d",
      "effectiveGasPrice": "0x5d22cfc40",
      "from": "0x3a4db9e7306af09012ceb0f222d581fd1f0c6d71",
      "to": "0x1ab49e36a37ac3aaf4a74df72cc4bea885a10d27",
      "contractAddress": null,
      "l1BaseFeeScalar": "0x0",
      "l1BlobBaseFee": "0x1",
      "l1BlobBaseFeeScalar": "0x0",
      "l1Fee": "0x0",
      "l1GasPrice": "0x9",
      "l1GasUsed": "0x640"
    },
    {
      "status": "0x1",
      "cumulativeGasUsed": "0x23419",
      "logs": [
        {
          "address": "0x1ab49e36a37ac3aaf4a74df72cc4bea885a10d27",
          "topics": [
            "0x8c5be1e5ebec7d5bd14f71427d1e84f3dd0314c0f7b2291e5b200ac8c7c3b925",
            "0x0000000000000000000000003a4db9e7306af09012ceb0f222d581fd1f0c6d71",
            "0x00000000000000000000000048c365a5cffae7b39400e062dea26669d6973007"
          ],
          "data": "0x00000000000000000000000000000000000000000000000000000000283baec0",
          "blockHash": "0xc564405f6d257f7dfd27c112c00f9c8a2c9cb53731daae3e0d97c6b8353445d9",
          "blockNumber": "0x2aa3f31",
          "transactionHash": "0x32b0e3ca9f702ab199dbde4fb2bc19cdf4f1be260aac5e32e853b190dc38ca3b",
          "transactionIndex": "0x2",
          "logIndex": "0x1",
          "removed": false
        }
      ],
      "logsBloom": "0x00000000000000000008000000000000000000000000000000000000000000000000800000000000000000000000000000000000000000000000000000200000000000000000000000000000000000000000000000000000000000000000000000000000000000000000000000008000000000000000000000000000000000000000000000000000000000000000400000000000000000000000000000000000020000000000000020000000000002000000000000000000000000000000000000000000000080000000000000000000000000000000001000000000000000000010000000000000000000000000000000000000000000000000000000000020",
      "type": "0x0",
      "transactionHash": "0x32b0e3ca9f702ab199dbde4fb2bc19cdf4f1be260aac5e32e853b190dc38ca3b",
      "transactionIndex": "0x2",
      "blockHash": "0xc564405f6d257f7dfd27c112c00f9c8a2c9cb53731daae3e0d97c6b8353445d9",
      "blockNumber": "0x2aa3f31",
      "gasUsed": "0xbd8b",
      "effectiveGasPrice": "0x5d22cfc40",
      "from": "0x3a4db9e7306af09012ceb0f222d581fd1f0c6d71",
      "to": "0x1ab49e36a37ac3aaf4a74df72cc4bea885a10d27",
      "contractAddress": null,
      "l1BaseFeeScalar": "0x0",
      "l1BlobBaseFee": "0x1",
      "l1BlobBaseFeeScalar": "0x0",
      "l1Fee": "0x0",
      "l1GasPrice": "0x9",
      "l1GasUsed": "0x640"
    },
    {
      "status": "0x1",
      "cumulativeGasUsed": "0x218c9",
      "logs": [
        {
          "address": "0x1ab49e36a37ac3aaf4a74df72cc4bea885a10d27",
          "topics": [
            "0xddf252ad1be2c89b69c2b068fc378daa952ba7f163c4a11628f55a4df523b3ef",
            "0x0000000000000000000000003a4db9e7306af09012ceb0f222d581fd1f0c6d71",
            "0x00000000000000000000000048c365a5cffae7b39400e062dea26669d6973007"
          ],
          "data": "0x00000000000000000000000000000000000000000000000000000000283baec0",
          "blockHash": "0x6e88d351bffbafa6ff41f05a42e0eee08c53da0e42de0df6a0af56cf4aaab961",
          "blockNumber": "0x2aa3f34",
          "transactionHash": "0xcab02283e7e1d33e5c93026175d4220aa1ecfbef4d2e3510627c5e6df0ec31e6",
          "transactionIndex": "0x1",
          "logIndex": "0x0",
          "removed": false
        },
        {
          "address": "0x1ab49e36a37ac3aaf4a74df72cc4bea885a10d27",
          "topics": [
            "0x8c5be1e5ebec7d5bd14f71427d1e84f3dd0314c0f7b2291e5b200ac8c7c3b925",
            "0x00000000000000000000000048c365a5cffae7b39400e062dea26669d6973007",
            "0x000000000000000000000000056a9aec78d851f8e977401d1ef182c57aa3e219"
          ],
          "data": "0x00000000000000000000000000000000000000000000000000000000283baec0",
          "blockHash": "0x6e88d351bffbafa6ff41f05a42e0eee08c53da0e42de0df6a0af56cf4aaab961",
          "blockNumber": "0x2aa3f34",
          "transactionHash": "0xcab02283e7e1d33e5c93026175d4220aa1ecfbef4d2e3510627c5e6df0ec31e6",
          "transactionIndex": "0x1",
          "logIndex": "0x1",
          "removed": false
        },
        {
          "address": "0x48c365a5cffae7b39400e062dea26669d6973007",
          "topics": [
            "0x0d4979b0859a1951f8ed7cbe3b1994e740552588f27ba02ca0f8f1ddcad16e0c",
            "0x0000000000000000000000000000000000000000000000000000000000000002"
          ],
          "data": "0x00000000000000000000000000000000000000000000000000000000283baec0",
          "blockHash": "0x6e88d351bffbafa6ff41f05a42e0eee08c53da0e42de0df6a0af56cf4aaab961",
          "blockNumber": "0x2aa3f34",
          "transactionHash": "0xcab02283e7e1d33e5c93026175d4220aa1ecfbef4d2e3510627c5e6df0ec31e6",
          "transactionIndex": "0x1",
          "logIndex": "0x2",
          "removed": false
        }
      ],
      "logsBloom": "0x04000000000000000008000010000000000000000000000000000000000000000000800010000000000000000080000000000000000000000000000000200000000000000000000000000008000000000000002000000000000000000000000080000000000000000000000000008000000000000000000000000010000000000000000000000000000000000000400000000000000000000000000000000000020000000000000020000100000002000000000000000000000800000000000000000002000082000000000000000000000000000000001000000000000000000010000000000000000000000000000000000000008400000000000000000220",
      "type": "0x0",
      "transactionHash": "0xcab02283e7e1d33e5c93026175d4220aa1ecfbef4d2e3510627c5e6df0ec31e6",
      "transactionIndex": "0x1",
      "blockHash": "0x6e88d351bffbafa6ff41f05a42e0eee08c53da0e42de0df6a0af56cf4aaab961",
      "blockNumber": "0x2aa3f34",
      "gasUsed": "0x16ddb",
      "effectiveGasPrice": "0x5d22cfc40",
      "from": "0x3a4db9e7306af09012ceb0f222d581fd1f0c6d71",
      "to": "0x48c365a5cffae7b39400e062dea26669d6973007",
      "contractAddress": null,
      "l1BaseFeeScalar": "0x0",
      "l1BlobBaseFee": "0x1",
      "l1BlobBaseFeeScalar": "0x0",
      "l1Fee": "0x0",
      "l1GasPrice": "0x9",
      "l1GasUsed": "0x640"
    }
  ],
  "libraries": [],
  "pending": [],
  "returns": {},
  "timestamp": 1745667052,
  "chain": 44787,
  "commit": "1cefd9d"
}