{
  "transactions": [
    {
      "hash": "0x800d5531598524a4659f3b53fc076bef64b909380f18244b75038abc2ff646c3",
      "transactionType": "CALL",
      "contractName": null,
      "contractAddress": "0x0d8af705d767e7b63250a6ac90fe2968ae062c0d",
      "function": "mint(address,uint256)",
      "arguments": [
        "0x3A4dB9e7306aF09012ceb0f222d581FD1F0C6D71",
        "500000000000000000000"
      ],
      "transaction": {
        "from": "0x3a4db9e7306af09012ceb0f222d581fd1f0c6d71",
        "to": "0x0d8af705d767e7b63250a6ac90fe2968ae062c0d",
        "gas": "0xd5e5",
        "value": "0x0",
        "input": "0x40c10f190000000000000000000000003a4db9e7306af09012ceb0f222d581fd1f0c6d7100000000000000000000000000000000000000000000001b1ae4d6e2ef500000",
        "nonce": "0x151",
        "chainId": "0xaef3"
      },
      "additionalContracts": [],
      "isFixedGasLimit": false
    },
    {
      "hash": "0x218493648a8c6862f1b06f0d7309a1ef22fad7415264735b451b0dc4c34bc01f",
      "transactionType": "CALL",
      "contractName": null,
      "contractAddress": "0x0d8af705d767e7b63250a6ac90fe2968ae062c0d",
      "function": "approve(address,uint256)",
      "arguments": [
        "0x48C365A5cFfAe7B39400e062dEA26669D6973007",
        "500000000000000000000"
      ],
      "transaction": {
        "from": "0x3a4db9e7306af09012ceb0f222d581fd1f0c6d71",
        "to": "0x0d8af705d767e7b63250a6ac90fe2968ae062c0d",
        "gas": "0x105fe",
        "value": "0x0",
        "input": "0x095ea7b300000000000000000000000048c365a5cffae7b39400e062dea26669d697300700000000000000000000000000000000000000000000001b1ae4d6e2ef500000",
        "nonce": "0x152",
        "chainId": "0xaef3"
      },
      "additionalContracts": [],
      "isFixedGasLimit": false
    },
    {
      "hash": "0x19eadd980c02b6f11cdadb7e3ce130526a79ecd6a7bf435d7085774c31e57860",
      "transactionType": "CALL",
      "contractName": null,
      "contractAddress": "0x48c365a5cffae7b39400e062dea26669d6973007",
      "function": "createPosition(address,uint256,address,uint256,uint256)",
      "arguments": [
        "0x0D8Af705d767e7b63250A6ac90Fe2968AE062c0D",
        "500000000000000000000",
        "0x1ab49E36A37Ac3aAf4a74dF72cC4Bea885a10D27",
        "200000000",
        "2"
      ],
      "transaction": {
        "from": "0x3a4db9e7306af09012ceb0f222d581fd1f0c6d71",
        "to": "0x48c365a5cffae7b39400e062dea26669d6973007",
        "gas": "0x7050f",
        "value": "0x0",
        "input": "0xb0c3d5df0000000000000000000000000d8af705d767e7b63250a6ac90fe2968ae062c0d00000000000000000000000000000000000000000000001b1ae4d6e2ef5000000000000000000000000000001ab49e36a37ac3aaf4a74df72cc4bea885a10d27000000000000000000000000000000000000000000000000000000000bebc2000000000000000000000000000000000000000000000000000000000000000002",
        "nonce": "0x153",
        "chainId": "0xaef3"
      },
      "additionalContracts": [],
      "isFixedGasLimit": false
    },
    {
      "hash": "0xd4cd88c99bc7c78b3cabd3c75f1a4a496697c80bb041db2caae4b1f224991b30",
      "transactionType": "CALL",
      "contractName": null,
      "contractAddress": "0x1ab49e36a37ac3aaf4a74df72cc4bea885a10d27",
      "function": "approve(address,uint256)",
      "arguments": [
        "0x48C365A5cFfAe7B39400e062dEA26669D6973007",
        "200000000"
      ],
      "transaction": {
        "from": "0x3a4db9e7306af09012ceb0f222d581fd1f0c6d71",
        "to": "0x1ab49e36a37ac3aaf4a74df72cc4bea885a10d27",
        "gas": "0x105bc",
        "value": "0x0",
        "input": "0x095ea7b300000000000000000000000048c365a5cffae7b39400e062dea26669d6973007000000000000000000000000000000000000000000000000000000000bebc200",
        "nonce": "0x154",
        "chainId": "0xaef3"
      },
      "additionalContracts": [],
      "isFixedGasLimit": false
    },
    {
      "hash": "0xe92b927fab947e28e32b42bb393e168a897e8f2592301463c26b9875623a61cf",
      "transactionType": "CALL",
      "contractName": null,
      "contractAddress": "0x48c365a5cffae7b39400e062dea26669d6973007",
      "function": "closePosition(uint256)",
      "arguments": [
        "10"
      ],
      "transaction": {
        "from": "0x3a4db9e7306af09012ceb0f222d581fd1f0c6d71",
        "to": "0x48c365a5cffae7b39400e062dea26669d6973007",
        "gas": "0x2b14e",
        "value": "0x0",
        "input": "0xa126d601000000000000000000000000000000000000000000000000000000000000000a",
        "nonce": "0x155",
        "chainId": "0xaef3"
      },
      "additionalContracts": [],
      "isFixedGasLimit": false
    }
  ],
  "receipts": [
    {
      "status": "0x1",
      "cumulativeGasUsed": "0x13d2f",
      "logs": [
        {
          "address": "0x0d8af705d767e7b63250a6ac90fe2968ae062c0d",
          "topics": [
            "0xddf252ad1be2c89b69c2b068fc378daa952ba7f163c4a11628f55a4df523b3ef",
            "0x0000000000000000000000000000000000000000000000000000000000000000",
            "0x0000000000000000000000003a4db9e7306af09012ceb0f222d581fd1f0c6d71"
          ],
          "data": "0x00000000000000000000000000000000000000000000001b1ae4d6e2ef500000",
          "blockHash": "0xebb964e31bc2e3d7aebc721f0760e92c6501c47a983ad714e9c59a442526c360",
          "blockNumber": "0x2aa83c1",
          "transactionHash": "0x800d5531598524a4659f3b53fc076bef64b909380f18244b75038abc2ff646c3",
          "transactionIndex": "0x1",
          "logIndex": "0x0",
          "removed": false
        }
      ],
      "logsBloom": "0x40000000000000000000000000000000000000000000000000000000000000000000000000000000000000000000000000000000000000000000000000000000000000000000000000000008000000000000000000000000000000000000000000000000020000000000000000000800000000000000000000000010000000000000000000000000000000000000400000000000000000000000000000000000000000000000000000000004000000000000000000000000000000000000000000000002000080000000040000000000000000000000001000000000000020000000000000000000000000000000000000000000000000000000000000000000",
      "type": "0x0",
      "transactionHash": "0x800d5531598524a4659f3b53fc076bef64b909380f18244b75038abc2ff646c3",
      "transactionIndex": "0x1",
      "blockHash": "0xebb964e31bc2e3d7aebc721f0760e92c6501c47a983ad714e9c59a442526c360",
      "blockNumber": "0x2aa83c1",
      "gasUsed": "0x9241",
      "effectiveGasPrice": "0x5d22cfc40",
      "from": "0x3a4db9e7306af09012ceb0f222d581fd1f0c6d71",
      "to": "0x0d8af705d767e7b63250a6ac90fe2968ae062c0d",
      "contractAddress": null,
      "l1BaseFeeScalar": "0x0",
      "l1BlobBaseFee": "0x1",
      "l1BlobBaseFeeScalar": "0x0",
      "l1Fee": "0x0",
      "l1GasPrice": "0x10",
      "l1GasUsed": "0x640"
    },
    {
      "status": "0x1",
      "cumulativeGasUsed": "0x1fade",
      "logs": [
        {
          "address": "0x0d8af705d767e7b63250a6ac90fe2968ae062c0d",
          "topics": [
            "0x8c5be1e5ebec7d5bd14f71427d1e84f3dd0314c0f7b2291e5b200ac8c7c3b925",
            "0x0000000000000000000000003a4db9e7306af09012ceb0f222d581fd1f0c6d71",
            "0x00000000000000000000000048c365a5cffae7b39400e062dea26669d6973007"
          ],
          "data": "0x00000000000000000000000000000000000000000000001b1ae4d6e2ef500000",
          "blockHash": "0xebb964e31bc2e3d7aebc721f0760e92c6501c47a983ad714e9c59a442526c360",
          "blockNumber": "0x2aa83c1",
          "transactionHash": "0x218493648a8c6862f1b06f0d7309a1ef22fad7415264735b451b0dc4c34bc01f",
          "transactionIndex": "0x2",
          "logIndex": "0x1",
          "removed": false
        }
      ],
      "logsBloom": "0x40000000000000000008000000000000000000000000000000000000000000000000000000000000000000000000000000000000000000000000000000200000000000000000000000000000000000000000000000000000000000000000000000000000000000000000000000000000000000000000000000000000000000000000000000000000000000000000400000000000000000000000000000000000020000000000000000000004000002000000000000000000000000000000000000000000000080000000040000000000000000000000001000000000000000000010000000000000000000000000000000000000000000000000000000000020",
      "type": "0x0",
      "transactionHash": "0x218493648a8c6862f1b06f0d7309a1ef22fad7415264735b451b0dc4c34bc01f",
      "transactionIndex": "0x2",
      "blockHash": "0xebb964e31bc2e3d7aebc721f0760e92c6501c47a983ad714e9c59a442526c360",
      "blockNumber": "0x2aa83c1",
      "gasUsed": "0xbdaf",
      "effectiveGasPrice": "0x5d22cfc40",
      "from": "0x3a4db9e7306af09012ceb0f222d581fd1f0c6d71",
      "to": "0x0d8af705d767e7b63250a6ac90fe2968ae062c0d",
      "contractAddress": null,
      "l1BaseFeeScalar": "0x0",
      "l1BlobBaseFee": "0x1",
      "l1BlobBaseFeeScalar": "0x0",
      "l1Fee": "0x0",
      "l1GasPrice": "0x10",
      "l1GasUsed": "0x640"
    },
    {
      "status": "0x1",
      "cumulativeGasUsed": "0x6c7a1",
      "logs": [
        {
          "address": "0x0d8af705d767e7b63250a6ac90fe2968ae062c0d",
          "topics": [
            "0xddf252ad1be2c89b69c2b068fc378daa952ba7f163c4a11628f55a4df523b3ef",
            "0x0000000000000000000000003a4db9e7306af09012ceb0f222d581fd1f0c6d71",
            "0x00000000000000000000000048c365a5cffae7b39400e062dea26669d6973007"
          ],
          "data": "0x00000000000000000000000000000000000000000000001b1ae4d6e2ef500000",
          "blockHash": "0xebb964e31bc2e3d7aebc721f0760e92c6501c47a983ad714e9c59a442526c360",
          "blockNumber": "0x2aa83c1",
          "transactionHash": "0x19eadd980c02b6f11cdadb7e3ce130526a79ecd6a7bf435d7085774c31e57860",
          "transactionIndex": "0x3",
          "logIndex": "0x2",
          "removed": false
        },
        {
          "address": "0x0d8af705d767e7b63250a6ac90fe2968ae062c0d",
          "topics": [
            "0x8c5be1e5ebec7d5bd14f71427d1e84f3dd0314c0f7b2291e5b200ac8c7c3b925",
            "0x00000000000000000000000048c365a5cffae7b39400e062dea26669d6973007",
            "0x000000000000000000000000056a9aec78d851f8e977401d1ef182c57aa3e219"
          ],
          "data": "0x00000000000000000000000000000000000000000000001b1ae4d6e2ef500000",
          "blockHash": "0xebb964e31bc2e3d7aebc721f0760e92c6501c47a983ad714e9c59a442526c360",
          "blockNumber": "0x2aa83c1",
          "transactionHash": "0x19eadd980c02b6f11cdadb7e3ce130526a79ecd6a7bf435d7085774c31e57860",
          "transactionIndex": "0x3",
          "logIndex": "0x3",
          "removed": false
        },
        {
          "address": "0x1ab49e36a37ac3aaf4a74df72cc4bea885a10d27",
          "topics": [
            "0xddf252ad1be2c89b69c2b068fc378daa952ba7f163c4a11628f55a4df523b3ef",
            "0x0000000000000000000000000000000000000000000000000000000000000000",
            "0x00000000000000000000000048c365a5cffae7b39400e062dea26669d6973007"
          ],
          "data": "0x000000000000000000000000000000000000000000000000000000000bebc200",
          "blockHash": "0xebb964e31bc2e3d7aebc721f0760e92c6501c47a983ad714e9c59a442526c360",
          "blockNumber": "0x2aa83c1",
          "transactionHash": "0x19eadd980c02b6f11cdadb7e3ce130526a79ecd6a7bf435d7085774c31e57860",
          "transactionIndex": "0x3",
          "logIndex": "0x4",
          "removed": false
        },
        {
          "address": "0x1ab49e36a37ac3aaf4a74df72cc4bea885a10d27",
          "topics": [
            "0xddf252ad1be2c89b69c2b068fc378daa952ba7f163c4a11628f55a4df523b3ef",
            "0x00000000000000000000000048c365a5cffae7b39400e062dea26669d6973007",
            "0x0000000000000000000000003a4db9e7306af09012ceb0f222d581fd1f0c6d71"
          ],
          "data": "0x000000000000000000000000000000000000000000000000000000000bebc200",
          "blockHash": "0xebb964e31bc2e3d7aebc721f0760e92c6501c47a983ad714e9c59a442526c360",
          "blockNumber": "0x2aa83c1",
          "transactionHash": "0x19eadd980c02b6f11cdadb7e3ce130526a79ecd6a7bf435d7085774c31e57860",
          "transactionIndex": "0x3",
          "logIndex": "0x5",
          "removed": false
        },
        {
          "address": "0x48c365a5cffae7b39400e062dea26669d6973007",
          "topics": [
            "0x9f9b498443531d2db9df8a00ec466efc74ba50ec1d82f7badd3424b87930e19a",
            "0x000000000000000000000000000000000000000000000000000000000000000a",
            "0x0000000000000000000000003a4db9e7306af09012ceb0f222d581fd1f0c6d71"
          ],
          "data": "0x0000000000000000000000000d8af705d767e7b63250a6ac90fe2968ae062c0d00000000000000000000000000000000000000000000001b1ae4d6e2ef5000000000000000000000000000001ab49e36a37ac3aaf4a74df72cc4bea885a10d27000000000000000000000000000000000000000000000000000000000bebc2000000000000000000000000000000000000000000000000000000000000000002",
          "blockHash": "0xebb964e31bc2e3d7aebc721f0760e92c6501c47a983ad714e9c59a442526c360",
          "blockNumber": "0x2aa83c1",
          "transactionHash": "0x19eadd980c02b6f11cdadb7e3ce130526a79ecd6a7bf435d7085774c31e57860",
          "transactionIndex": "0x3",
          "logIndex": "0x6",
          "removed": false
        }
      ],
      "logsBloom": "0x40000000000000000008000000000000000000000000000000000000000000000000800010000000000020000080000000000000040000000020000000200000000000000000000000000008000000000000000000000000000000000000000000000000020000000000000000008800000000020000000000000010000000000000000000000000010000000000400000000000000000000000000000000000020000000000000020000004000002000000000000000000000800000000000000000002000082000000040000000000000000000000001000020000000020000010000000000000000000000000000000000000000400000000000000000220",
      "type": "0x0",
      "transactionHash": "0x19eadd980c02b6f11cdadb7e3ce130526a79ecd6a7bf435d7085774c31e57860",
      "transactionIndex": "0x3",
      "blockHash": "0xebb964e31bc2e3d7aebc721f0760e92c6501c47a983ad714e9c59a442526c360",
      "blockNumber": "0x2aa83c1",
      "gasUsed": "0x4ccc3",
      "effectiveGasPrice": "0x5d22cfc40",
      "from": "0x3a4db9e7306af09012ceb0f222d581fd1f0c6d71",
      "to": "0x48c365a5cffae7b39400e062dea26669d6973007",
      "contractAddress": null,
      "l1BaseFeeScalar": "0x0",
      "l1BlobBaseFee": "0x1",
      "l1BlobBaseFeeScalar": "0x0",
      "l1Fee": "0x0",
      "l1GasPrice": "0x10",
      "l1GasUsed": "0x7be"
    },
    {
      "status": "0x1",
      "cumulativeGasUsed": "0x78520",
      "logs": [
        {
          "address": "0x1ab49e36a37ac3aaf4a74df72cc4bea885a10d27",
          "topics": [
            "0x8c5be1e5ebec7d5bd14f71427d1e84f3dd0314c0f7b2291e5b200ac8c7c3b925",
            "0x0000000000000000000000003a4db9e7306af09012ceb0f222d581fd1f0c6d71",
            "0x00000000000000000000000048c365a5cffae7b39400e062dea26669d6973007"
          ],
          "data": "0x000000000000000000000000000000000000000000000000000000000bebc200",
          "blockHash": "0xebb964e31bc2e3d7aebc721f0760e92c6501c47a983ad714e9c59a442526c360",
          "blockNumber": "0x2aa83c1",
          "transactionHash": "0xd4cd88c99bc7c78b3cabd3c75f1a4a496697c80bb041db2caae4b1f224991b30",
          "transactionIndex": "0x4",
          "logIndex": "0x7",
          "removed": false
        }
      ],
      "logsBloom": "0x00000000000000000008000000000000000000000000000000000000000000000000800000000000000000000000000000000000000000000000000000200000000000000000000000000000000000000000000000000000000000000000000000000000000000000000000000008000000000000000000000000000000000000000000000000000000000000000400000000000000000000000000000000000020000000000000020000000000002000000000000000000000000000000000000000000000080000000000000000000000000000000001000000000000000000010000000000000000000000000000000000000000000000000000000000020",
      "type": "0x0",
      "transactionHash": "0xd4cd88c99bc7c78b3cabd3c75f1a4a496697c80bb041db2caae4b1f224991b30",
      "transactionIndex": "0x4",
      "blockHash": "0xebb964e31bc2e3d7aebc721f0760e92c6501c47a983ad714e9c59a442526c360",
      "blockNumber": "0x2aa83c1",
      "gasUsed": "0xbd7f",
      "effectiveGasPrice": "0x5d22cfc40",
      "from": "0x3a4db9e7306af09012ceb0f222d581fd1f0c6d71",
      "to": "0x1ab49e36a37ac3aaf4a74df72cc4bea885a10d27",
      "contractAddress": null,
      "l1BaseFeeScalar": "0x0",
      "l1BlobBaseFee": "0x1",
      "l1BlobBaseFeeScalar": "0x0",
      "l1Fee": "0x0",
      "l1GasPrice": "0x10",
      "l1GasUsed": "0x640"
    },
    {
      "status": "0x1",
      "cumulativeGasUsed": "0x95c72",
      "logs": [
        {
          "address": "0x1ab49e36a37ac3aaf4a74df72cc4bea885a10d27",
          "topics": [
            "0xddf252ad1be2c89b69c2b068fc378daa952ba7f163c4a11628f55a4df523b3ef",
            "0x0000000000000000000000003a4db9e7306af09012ceb0f222d581fd1f0c6d71",
            "0x00000000000000000000000048c365a5cffae7b39400e062dea26669d6973007"
          ],
          "data": "0x000000000000000000000000000000000000000000000000000000000bebc200",
          "blockHash": "0xebb964e31bc2e3d7aebc721f0760e92c6501c47a983ad714e9c59a442526c360",
          "blockNumber": "0x2aa83c1",
          "transactionHash": "0xe92b927fab947e28e32b42bb393e168a897e8f2592301463c26b9875623a61cf",
          "transactionIndex": "0x5",
          "logIndex": "0x8",
          "removed": false
        },
        {
          "address": "0x1ab49e36a37ac3aaf4a74df72cc4bea885a10d27",
          "topics": [
            "0x8c5be1e5ebec7d5bd14f71427d1e84f3dd0314c0f7b2291e5b200ac8c7c3b925",
            "0x00000000000000000000000048c365a5cffae7b39400e062dea26669d6973007",
            "0x000000000000000000000000056a9aec78d851f8e977401d1ef182c57aa3e219"
          ],
          "data": "0x000000000000000000000000000000000000000000000000000000000bebc200",
          "blockHash": "0xebb964e31bc2e3d7aebc721f0760e92c6501c47a983ad714e9c59a442526c360",
          "blockNumber": "0x2aa83c1",
          "transactionHash": "0xe92b927fab947e28e32b42bb393e168a897e8f2592301463c26b9875623a61cf",
          "transactionIndex": "0x5",
          "logIndex": "0x9",
          "removed": false
        },
        {
          "address": "0x0d8af705d767e7b63250a6ac90fe2968ae062c0d",
          "topics": [
            "0xddf252ad1be2c89b69c2b068fc378daa952ba7f163c4a11628f55a4df523b3ef",
            "0x0000000000000000000000000000000000000000000000000000000000000000",
            "0x0000000000000000000000003a4db9e7306af09012ceb0f222d581fd1f0c6d71"
          ],
          "data": "0x00000000000000000000000000000000000000000000003635c9adc5dea00000",
          "blockHash": "0xebb964e31bc2e3d7aebc721f0760e92c6501c47a983ad714e9c59a442526c360",
          "blockNumber": "0x2aa83c1",
          "transactionHash": "0xe92b927fab947e28e32b42bb393e168a897e8f2592301463c26b9875623a61cf",
          "transactionIndex": "0x5",
          "logIndex": "0xa",
          "removed": false
        },
        {
          "address": "0x48c365a5cffae7b39400e062dea26669d6973007",
          "topics": [
            "0xcefaf961c5013063cf501ffd9f9382e9b9c4b15741ad032fe93d7e9c7c733b22",
            "0x000000000000000000000000000000000000000000000000000000000000000a",
            "0x0000000000000000000000003a4db9e7306af09012ceb0f222d581fd1f0c6d71"
          ],
          "data": "0x",
          "blockHash": "0xebb964e31bc2e3d7aebc721f0760e92c6501c47a983ad714e9c59a442526c360",
          "blockNumber": "0x2aa83c1",
          "transactionHash": "0xe92b927fab947e28e32b42bb393e168a897e8f2592301463c26b9875623a61cf",
          "transactionIndex": "0x5",
          "logIndex": "0xb",
          "removed": false
        }
      ],
      "logsBloom": "0x40000000000000000008000000000000000020000000000000000000000000000000800010000000000000000080000000000000040000000020000000200000000000000000000000000008000200000000000000000000000000000000000000000000020000000000000000048800000000000000000000000010000000000000000000000000010000000000400000000000000000000000000000000000020000000000000020000004000002000000000000000000000800000000000000000002000082000000040000000000000000000000001000000000000020000010000000000000000000000000000000000000000400000000000000000220",
      "type": "0x0",
      "transactionHash": "0xe92b927fab947e28e32b42bb393e168a897e8f2592301463c26b9875623a61cf",
      "transactionIndex": "0x5",
      "blockHash": "0xebb964e31bc2e3d7aebc721f0760e92c6501c47a983ad714e9c59a442526c360",
      "blockNumber": "0x2aa83c1",
      "gasUsed": "0x1d752",
      "effectiveGasPrice": "0x5d22cfc40",
      "from": "0x3a4db9e7306af09012ceb0f222d581fd1f0c6d71",
      "to": "0x48c365a5cffae7b39400e062dea26669d6973007",
      "contractAddress": null,
      "l1BaseFeeScalar": "0x0",
      "l1BlobBaseFee": "0x1",
      "l1BlobBaseFeeScalar": "0x0",
      "l1Fee": "0x0",
      "l1GasPrice": "0x10",
      "l1GasUsed": "0x640"
    }
  ],
  "libraries": [],
  "pending": [],
  "returns": {},
  "timestamp": 1745684601,
  "chain": 44787,
  "commit": "1cefd9d"
}