{
  "transactions": [
    {
      "hash": "0x6303bf2e9bd0f74780fc1bcc7b97fe65bf96af688e95cf2b15f2246e4627d17e",
      "transactionType": "CALL",
      "contractName": null,
      "contractAddress": "0x48c365a5cffae7b39400e062dea26669d6973007",
      "function": "withdrawCollateral(uint256,uint256)",
      "arguments": [
        "1",
        "300000000000000000000"
      ],
      "transaction": {
        "from": "0x3a4db9e7306af09012ceb0f222d581fd1f0c6d71",
        "to": "0x48c365a5cffae7b39400e062dea26669d6973007",
        "gas": "0x2faa9",
        "value": "0x0",
        "input": "0x767a7b05000000000000000000000000000000000000000000000000000000000000000100000000000000000000000000000000000000000000001043561a8829300000",
        "nonce": "0x10f",
        "chainId": "0xaef3"
      },
      "additionalContracts": [],
      "isFixedGasLimit": false
    }
  ],
  "receipts": [
    {
      "status": "0x1",
      "cumulativeGasUsed": "0x2d30a",
      "logs": [
        {
          "address": "0x0d8af705d767e7b63250a6ac90fe2968ae062c0d",
          "topics": [
            "0xddf252ad1be2c89b69c2b068fc378daa952ba7f163c4a11628f55a4df523b3ef",
            "0x000000000000000000000000056a9aec78d851f8e977401d1ef182c57aa3e219",
            "0x0000000000000000000000003a4db9e7306af09012ceb0f222d581fd1f0c6d71"
          ],
          "data": "0x00000000000000000000000000000000000000000000001043561a8829300000",
          "blockHash": "0xb82fd27d33753090cc9bb488b9cf7230b483ea71a76cdb05d5eb7f133461dec9",
          "blockNumber": "0x2aa3dfc",
          "transactionHash": "0x6303bf2e9bd0f74780fc1bcc7b97fe65bf96af688e95cf2b15f2246e4627d17e",
          "transactionIndex": "0x1",
          "logIndex": "0x0",
          "removed": false
        },
        {
          "address": "0x48c365a5cffae7b39400e062dea26669d6973007",
          "topics": [
            "0x2399e8aed1977410745a5211d8226a3a7d9278f50a8a197c5ec6e285bb437f0b",
            "0x0000000000000000000000000000000000000000000000000000000000000001"
          ],
          "data": "0x00000000000000000000000000000000000000000000001043561a8829300000",
          "blockHash": "0xb82fd27d33753090cc9bb488b9cf7230b483ea71a76cdb05d5eb7f133461dec9",
          "blockNumber": "0x2aa3dfc",
          "transactionHash": "0x6303bf2e9bd0f74780fc1bcc7b97fe65bf96af688e95cf2b15f2246e4627d17e",
          "transactionIndex": "0x1",
          "logIndex": "0x1",
          "removed": false
        }
      ],
      "logsBloom": "0x40000000000000000000000000000000000000000000000000000000000000000000000010000000000000000080000000000000000000000000000000040000000000000000000000000008000000000000000000040000000000000000000000000000000000000000000000000000000000000020000000000010000000000000000000000000000000000000400000000000000060000000000000000000000000000000000000000004000000000000000000000000000800000000000000000002000082000000040000000000000000000000001000000000000040000000000000000000000000000000000000000000000400000000000000000200",
      "type": "0x0",
      "transactionHash": "0x6303bf2e9bd0f74780fc1bcc7b97fe65bf96af688e95cf2b15f2246e4627d17e",
      "transactionIndex": "0x1",
      "blockHash": "0xb82fd27d33753090cc9bb488b9cf7230b483ea71a76cdb05d5eb7f133461dec9",
      "blockNumber": "0x2aa3dfc",
      "gasUsed": "0x22828",
      "effectiveGasPrice": "0x5d22cfc40",
      "from": "0x3a4db9e7306af09012ceb0f222d581fd1f0c6d71",
      "to": "0x48c365a5cffae7b39400e062dea26669d6973007",
      "contractAddress": null,
      "l1BaseFeeScalar": "0x0",
      "l1BlobBaseFee": "0x1",
      "l1BlobBaseFeeScalar": "0x0",
      "l1Fee": "0x0",
      "l1GasPrice": "0x9",
      "l1GasUsed": "0x640"
    }
  ],
  "libraries": [],
  "pending": [],
  "returns": {},
  "timestamp": 1745666740,
  "chain": 44787,
  "commit": "1cefd9d"
}