{
  "transactions": [
    {
      "hash": "0xedfb3b30a2114362389a85537b906f7541189838795ad7a258e5121f2ef3d037",
      "transactionType": "CALL",
      "contractName": null,
      "contractAddress": "0x0d8af705d767e7b63250a6ac90fe2968ae062c0d",
      "function": "mint(address,uint256)",
      "arguments": [
        "0x3A4dB9e7306aF09012ceb0f222d581FD1F0C6D71",
        "1000000000000000000000"
      ],
      "transaction": {
        "from": "0x3a4db9e7306af09012ceb0f222d581fd1f0c6d71",
        "to": "0x0d8af705d767e7b63250a6ac90fe2968ae062c0d",
        "gas": "0xd5e5",
        "value": "0x0",
        "input": "0x40c10f190000000000000000000000003a4db9e7306af09012ceb0f222d581fd1f0c6d7100000000000000000000000000000000000000000000003635c9adc5dea00000",
        "nonce": "0x133",
        "chainId": "0xaef3"
      },
      "additionalContracts": [],
      "isFixedGasLimit": false
    },
    {
      "hash": "0x04fe4e45c8a4030fba289c8b5ffc87d552fef9d4dc9bf69fd24d21448088c739",
      "transactionType": "CALL",
      "contractName": null,
      "contractAddress": "0x1ab49e36a37ac3aaf4a74df72cc4bea885a10d27",
      "function": "mint(address,uint256)",
      "arguments": [
        "0x3A4dB9e7306aF09012ceb0f222d581FD1F0C6D71",
        "1000000000"
      ],
      "transaction": {
        "from": "0x3a4db9e7306af09012ceb0f222d581fd1f0c6d71",
        "to": "0x1ab49e36a37ac3aaf4a74df72cc4bea885a10d27",
        "gas": "0xd59f",
        "value": "0x0",
        "input": "0x40c10f190000000000000000000000003a4db9e7306af09012ceb0f222d581fd1f0c6d71000000000000000000000000000000000000000000000000000000003b9aca00",
        "nonce": "0x134",
        "chainId": "0xaef3"
      },
      "additionalContracts": [],
      "isFixedGasLimit": false
    },
    {
      "hash": "0x63084ebec98259e2bc09cfa62c23a053b5e2b718150585dcafee8c80ab0adbee",
      "transactionType": "CALL",
      "contractName": null,
      "contractAddress": "0x0d8af705d767e7b63250a6ac90fe2968ae062c0d",
      "function": "approve(address,uint256)",
      "arguments": [
        "0x48C365A5cFfAe7B39400e062dEA26669D6973007",
        "1000000000000000000000"
      ],
      "transaction": {
        "from": "0x3a4db9e7306af09012ceb0f222d581fd1f0c6d71",
        "to": "0x0d8af705d767e7b63250a6ac90fe2968ae062c0d",
        "gas": "0x105fe",
        "value": "0x0",
        "input": "0x095ea7b300000000000000000000000048c365a5cffae7b39400e062dea26669d697300700000000000000000000000000000000000000000000003635c9adc5dea00000",
        "nonce": "0x135",
        "chainId": "0xaef3"
      },
      "additionalContracts": [],
      "isFixedGasLimit": false
    },
    {
      "hash": "0x7478385da5e0d5f63cfb6790ac34ab26a528b27b9d59887516c2d0c51ece9440",
      "transactionType": "CALL",
      "contractName": null,
      "contractAddress": "0x48c365a5cffae7b39400e062dea26669d6973007",
      "function": "createPosition(address,uint256,address,uint256,uint256)",
      "arguments": [
        "0x0D8Af705d767e7b63250A6ac90Fe2968AE062c0D",
        "1000000000000000000000",
        "0x1ab49E36A37Ac3aAf4a74dF72cC4Bea885a10D27",
        "500000000",
        "2"
      ],
      "transaction": {
        "from": "0x3a4db9e7306af09012ceb0f222d581fd1f0c6d71",
        "to": "0x48c365a5cffae7b39400e062dea26669d6973007",
        "gas": "0x7050f",
        "value": "0x0",
        "input": "0xb0c3d5df0000000000000000000000000d8af705d767e7b63250a6ac90fe2968ae062c0d00000000000000000000000000000000000000000000003635c9adc5dea000000000000000000000000000001ab49e36a37ac3aaf4a74df72cc4bea885a10d27000000000000000000000000000000000000000000000000000000001dcd65000000000000000000000000000000000000000000000000000000000000000002",
        "nonce": "0x136",
        "chainId": "0xaef3"
      },
      "additionalContracts": [],
      "isFixedGasLimit": false
    },
    {
      "hash": "0xa17990a33cbef65109ba739ed904b8645a5da4512d544a562878a81c987e8577",
      "transactionType": "CALL",
      "contractName": null,
      "contractAddress": "0x0d8af705d767e7b63250a6ac90fe2968ae062c0d",
      "function": "approve(address,uint256)",
      "arguments": [
        "0x48C365A5cFfAe7B39400e062dEA26669D6973007",
        "500000000000000000000"
      ],
      "transaction": {
        "from": "0x3a4db9e7306af09012ceb0f222d581fd1f0c6d71",
        "to": "0x0d8af705d767e7b63250a6ac90fe2968ae062c0d",
        "gas": "0x105fe",
        "value": "0x0",
        "input": "0x095ea7b300000000000000000000000048c365a5cffae7b39400e062dea26669d697300700000000000000000000000000000000000000000000001b1ae4d6e2ef500000",
        "nonce": "0x137",
        "chainId": "0xaef3"
      },
      "additionalContracts": [],
      "isFixedGasLimit": false
    },
    {
      "hash": "0xb2222a74bf137d9fe0ba7f2a6b721fdd587497e414c198f0e0ad7d5e72bea667",
      "transactionType": "CALL",
      "contractName": null,
      "contractAddress": "0x48c365a5cffae7b39400e062dea26669d6973007",
      "function": "addCollateral(uint256,uint256)",
      "arguments": [
        "6",
        "500000000000000000000"
      ],
      "transaction": {
        "from": "0x3a4db9e7306af09012ceb0f222d581fd1f0c6d71",
        "to": "0x48c365a5cffae7b39400e062dea26669d6973007",
        "gas": "0x21c14",
        "value": "0x0",
        "input": "0xa8f35adf000000000000000000000000000000000000000000000000000000000000000600000000000000000000000000000000000000000000001b1ae4d6e2ef500000",
        "nonce": "0x138",
        "chainId": "0xaef3"
      },
      "additionalContracts": [],
      "isFixedGasLimit": false
    },
    {
      "hash": "0x33878c11ebe3f73e8b527c2abdbcaab6e38c727c80f5eb8d797a01fc4bfad488",
      "transactionType": "CALL",
      "contractName": null,
      "contractAddress": "0x48c365a5cffae7b39400e062dea26669d6973007",
      "function": "increaseBorrow(uint256,uint256)",
      "arguments": [
        "6",
        "250000000"
      ],
      "transaction": {
        "from": "0x3a4db9e7306af09012ceb0f222d581fd1f0c6d71",
        "to": "0x48c365a5cffae7b39400e062dea26669d6973007",
        "gas": "0x23b7b",
        "value": "0x0",
        "input": "0x9e6824d90000000000000000000000000000000000000000000000000000000000000006000000000000000000000000000000000000000000000000000000000ee6b280",
        "nonce": "0x139",
        "chainId": "0xaef3"
      },
      "additionalContracts": [],
      "isFixedGasLimit": false
    },
    {
      "hash": "0x33033d7ee3951d9267d7c353fdbe9d5d4a379d2bf9667a87789cc1cb9b05a0c0",
      "transactionType": "CALL",
      "contractName": null,
      "contractAddress": "0x1ab49e36a37ac3aaf4a74df72cc4bea885a10d27",
      "function": "approve(address,uint256)",
      "arguments": [
        "0x48C365A5cFfAe7B39400e062dEA26669D6973007",
        "375000000"
      ],
      "transaction": {
        "from": "0x3a4db9e7306af09012ceb0f222d581fd1f0c6d71",
        "to": "0x1ab49e36a37ac3aaf4a74df72cc4bea885a10d27",
        "gas": "0x11534",
        "value": "0x0",
        "input": "0x095ea7b300000000000000000000000048c365a5cffae7b39400e062dea26669d697300700000000000000000000000000000000000000000000000000000000165a0bc0",
        "nonce": "0x13a",
        "chainId": "0xaef3"
      },
      "additionalContracts": [],
      "isFixedGasLimit": false
    },
    {
      "hash": "0x7e0163fb7e866d2023a5bdb6bd0e47acf894f333b810b035f506a9d26d63e7be",
      "transactionType": "CALL",
      "contractName": null,
      "contractAddress": "0x48c365a5cffae7b39400e062dea26669d6973007",
      "function": "repayDebt(uint256,uint256)",
      "arguments": [
        "6",
        "375000000"
      ],
      "transaction": {
        "from": "0x3a4db9e7306af09012ceb0f222d581fd1f0c6d71",
        "to": "0x48c365a5cffae7b39400e062dea26669d6973007",
        "gas": "0x2170f",
        "value": "0x0",
        "input": "0x015cb0a5000000000000000000000000000000000000000000000000000000000000000600000000000000000000000000000000000000000000000000000000165a0bc0",
        "nonce": "0x13b",
        "chainId": "0xaef3"
      },
      "additionalContracts": [],
      "isFixedGasLimit": false
    },
    {
      "hash": "0xe16e94a8a25b9b6a8deac8e4ed9099e14b8161804d13ab9d99752efee60a9fd5",
      "transactionType": "CALL",
      "contractName": null,
      "contractAddress": "0x48c365a5cffae7b39400e062dea26669d6973007",
      "function": "withdrawCollateral(uint256,uint256)",
      "arguments": [
        "6",
        "300000000000000000000"
      ],
      "transaction": {
        "from": "0x3a4db9e7306af09012ceb0f222d581fd1f0c6d71",
        "to": "0x48c365a5cffae7b39400e062dea26669d6973007",
        "gas": "0x1c7a9",
        "value": "0x0",
        "input": "0x767a7b05000000000000000000000000000000000000000000000000000000000000000600000000000000000000000000000000000000000000001043561a8829300000",
        "nonce": "0x13c",
        "chainId": "0xaef3"
      },
      "additionalContracts": [],
      "isFixedGasLimit": false
    },
    {
      "hash": "0x633b2a4ecff1ce20db71d68a91db10d5271bda72859bf833db1e05bd4353b5c3",
      "transactionType": "CALL",
      "contractName": null,
      "contractAddress": "0x0d8af705d767e7b63250a6ac90fe2968ae062c0d",
      "function": "mint(address,uint256)",
      "arguments": [
        "0x3A4dB9e7306aF09012ceb0f222d581FD1F0C6D71",
        "500000000000000000000"
      ],
      "transaction": {
        "from": "0x3a4db9e7306af09012ceb0f222d581fd1f0c6d71",
        "to": "0x0d8af705d767e7b63250a6ac90fe2968ae062c0d",
        "gas": "0xd5e5",
        "value": "0x0",
        "input": "0x40c10f190000000000000000000000003a4db9e7306af09012ceb0f222d581fd1f0c6d7100000000000000000000000000000000000000000000001b1ae4d6e2ef500000",
        "nonce": "0x13d",
        "chainId": "0xaef3"
      },
      "additionalContracts": [],
      "isFixedGasLimit": false
    },
    {
      "hash": "0x4ed1d8f631d6d74837e0dbfd994958289a30447f00129b843873d17ff39de2a9",
      "transactionType": "CALL",
      "contractName": null,
      "contractAddress": "0x0d8af705d767e7b63250a6ac90fe2968ae062c0d",
      "function": "approve(address,uint256)",
      "arguments": [
        "0x48C365A5cFfAe7B39400e062dEA26669D6973007",
        "500000000000000000000"
      ],
      "transaction": {
        "from": "0x3a4db9e7306af09012ceb0f222d581fd1f0c6d71",
        "to": "0x0d8af705d767e7b63250a6ac90fe2968ae062c0d",
        "gas": "0x105fe",
        "value": "0x0",
        "input": "0x095ea7b300000000000000000000000048c365a5cffae7b39400e062dea26669d697300700000000000000000000000000000000000000000000001b1ae4d6e2ef500000",
        "nonce": "0x13e",
        "chainId": "0xaef3"
      },
      "additionalContracts": [],
      "isFixedGasLimit": false
    },
    {
      "hash": "0xda4e7b021557153b47dea975d1ef4b94fa8c33d84d2153175861ae06d54b2957",
      "transactionType": "CALL",
      "contractName": null,
      "contractAddress": "0x48c365a5cffae7b39400e062dea26669d6973007",
      "function": "createPosition(address,uint256,address,uint256,uint256)",
      "arguments": [
        "0x0D8Af705d767e7b63250A6ac90Fe2968AE062c0D",
        "500000000000000000000",
        "0x1ab49E36A37Ac3aAf4a74dF72cC4Bea885a10D27",
        "200000000",
        "2"
      ],
      "transaction": {
        "from": "0x3a4db9e7306af09012ceb0f222d581fd1f0c6d71",
        "to": "0x48c365a5cffae7b39400e062dea26669d6973007",
        "gas": "0x7150e",
        "value": "0x0",
        "input": "0xb0c3d5df0000000000000000000000000d8af705d767e7b63250a6ac90fe2968ae062c0d00000000000000000000000000000000000000000000001b1ae4d6e2ef5000000000000000000000000000001ab49e36a37ac3aaf4a74df72cc4bea885a10d27000000000000000000000000000000000000000000000000000000000bebc2000000000000000000000000000000000000000000000000000000000000000002",
        "nonce": "0x13f",
        "chainId": "0xaef3"
      },
      "additionalContracts": [],
      "isFixedGasLimit": false
    },
    {
      "hash": "0xab64049788265971f79cbd39405a53db56674bf1f5a9e5baa47a0200c89e2b53",
      "transactionType": "CALL",
      "contractName": null,
      "contractAddress": "0x1ab49e36a37ac3aaf4a74df72cc4bea885a10d27",
      "function": "approve(address,uint256)",
      "arguments": [
        "0x48C365A5cFfAe7B39400e062dEA26669D6973007",
        "200000000"
      ],
      "transaction": {
        "from": "0x3a4db9e7306af09012ceb0f222d581fd1f0c6d71",
        "to": "0x1ab49e36a37ac3aaf4a74df72cc4bea885a10d27",
        "gas": "0x105bc",
        "value": "0x0",
        "input": "0x095ea7b300000000000000000000000048c365a5cffae7b39400e062dea26669d6973007000000000000000000000000000000000000000000000000000000000bebc200",
        "nonce": "0x140",
        "chainId": "0xaef3"
      },
      "additionalContracts": [],
      "isFixedGasLimit": false
    },
    {
      "hash": "0xb35f1eab45fe08f22017af9d7d7d19c3e76dba66adc211913bf3a1391cd81a0a",
      "transactionType": "CALL",
      "contractName": null,
      "contractAddress": "0x48c365a5cffae7b39400e062dea26669d6973007",
      "function": "closePosition(uint256)",
      "arguments": [
        "7"
      ],
      "transaction": {
        "from": "0x3a4db9e7306af09012ceb0f222d581fd1f0c6d71",
        "to": "0x48c365a5cffae7b39400e062dea26669d6973007",
        "gas": "0x2e14b",
        "value": "0x0",
        "input": "0xa126d6010000000000000000000000000000000000000000000000000000000000000007",
        "nonce": "0x141",
        "chainId": "0xaef3"
      },
      "additionalContracts": [],
      "isFixedGasLimit": false
    }
  ],
  "receipts": [
    {
      "status": "0x1",
      "cumulativeGasUsed": "0x13d2f",
      "logs": [
        {
          "address": "0x0d8af705d767e7b63250a6ac90fe2968ae062c0d",
          "topics": [
            "0xddf252ad1be2c89b69c2b068fc378daa952ba7f163c4a11628f55a4df523b3ef",
            "0x0000000000000000000000000000000000000000000000000000000000000000",
            "0x0000000000000000000000003a4db9e7306af09012ceb0f222d581fd1f0c6d71"
          ],
          "data": "0x00000000000000000000000000000000000000000000003635c9adc5dea00000",
          "blockHash": "0x097ae06c731e4709b48db48d63dbbd1224dd3bb6213d737b7703b8951bc5aaa0",
          "blockNumber": "0x2aa4a81",
          "transactionHash": "0xedfb3b30a2114362389a85537b906f7541189838795ad7a258e5121f2ef3d037",
          "transactionIndex": "0x1",
          "logIndex": "0x0",
          "removed": false
        }
      ],
      "logsBloom": "0x40000000000000000000000000000000000000000000000000000000000000000000000000000000000000000000000000000000000000000000000000000000000000000000000000000008000000000000000000000000000000000000000000000000020000000000000000000800000000000000000000000010000000000000000000000000000000000000400000000000000000000000000000000000000000000000000000000004000000000000000000000000000000000000000000000002000080000000040000000000000000000000001000000000000020000000000000000000000000000000000000000000000000000000000000000000",
      "type": "0x0",
      "transactionHash": "0xedfb3b30a2114362389a85537b906f7541189838795ad7a258e5121f2ef3d037",
      "transactionIndex": "0x1",
      "blockHash": "0x097ae06c731e4709b48db48d63dbbd1224dd3bb6213d737b7703b8951bc5aaa0",
      "blockNumber": "0x2aa4a81",
      "gasUsed": "0x9241",
      "effectiveGasPrice": "0x5d22cfc40",
      "from": "0x3a4db9e7306af09012ceb0f222d581fd1f0c6d71",
      "to": "0x0d8af705d767e7b63250a6ac90fe2968ae062c0d",
      "contractAddress": null,
      "l1BaseFeeScalar": "0x0",
      "l1BlobBaseFee": "0x1",
      "l1BlobBaseFeeScalar": "0x0",
      "l1Fee": "0x0",
      "l1GasPrice": "0xe",
      "l1GasUsed": "0x640"
    },
    {
      "status": "0x1",
      "cumulativeGasUsed": "0x78afa",
      "logs": [
        {
          "address": "0x1ab49e36a37ac3aaf4a74df72cc4bea885a10d27",
          "topics": [
            "0xddf252ad1be2c89b69c2b068fc378daa952ba7f163c4a11628f55a4df523b3ef",
            "0x0000000000000000000000000000000000000000000000000000000000000000",
            "0x0000000000000000000000003a4db9e7306af09012ceb0f222d581fd1f0c6d71"
          ],
          "data": "0x000000000000000000000000000000000000000000000000000000003b9aca00",
          "blockHash": "0x097ae06c731e4709b48db48d63dbbd1224dd3bb6213d737b7703b8951bc5aaa0",
          "blockNumber": "0x2aa4a81",
          "transactionHash": "0x04fe4e45c8a4030fba289c8b5ffc87d552fef9d4dc9bf69fd24d21448088c739",
          "transactionIndex": "0x4",
          "logIndex": "0x3",
          "removed": false
        }
      ],
      "logsBloom": "0x00000000000000000000000000000000000000000000000000000000000000000000800000000000000000000000000000000000000000000000000000000000000000000000000000000008000000000000000000000000000000000000000000000000020000000000000000008800000000000000000000000010000000000000000000000000000000000000400000000000000000000000000000000000000000000000000020000000000000000000000000000000000000000000000000000002000080000000000000000000000000000000001000000000000020000000000000000000000000000000000000000000000000000000000000000000",
      "type": "0x0",
      "transactionHash": "0x04fe4e45c8a4030fba289c8b5ffc87d552fef9d4dc9bf69fd24d21448088c739",
      "transactionIndex": "0x4",
      "blockHash": "0x097ae06c731e4709b48db48d63dbbd1224dd3bb6213d737b7703b8951bc5aaa0",
      "blockNumber": "0x2aa4a81",
      "gasUsed": "0x9211",
      "effectiveGasPrice": "0x5d22cfc40",
      "from": "0x3a4db9e7306af09012ceb0f222d581fd1f0c6d71",
      "to": "0x1ab49e36a37ac3aaf4a74df72cc4bea885a10d27",
      "contractAddress": null,
      "l1BaseFeeScalar": "0x0",
      "l1BlobBaseFee": "0x1",
      "l1BlobBaseFeeScalar": "0x0",
      "l1Fee": "0x0",
      "l1GasPrice": "0xe",
      "l1GasUsed": "0x640"
    },
    {
      "status": "0x1",
      "cumulativeGasUsed": "0xb101d",
      "logs": [
        {
          "address": "0x0d8af705d767e7b63250a6ac90fe2968ae062c0d",
          "topics": [
            "0x8c5be1e5ebec7d5bd14f71427d1e84f3dd0314c0f7b2291e5b200ac8c7c3b925",
            "0x0000000000000000000000003a4db9e7306af09012ceb0f222d581fd1f0c6d71",
            "0x00000000000000000000000048c365a5cffae7b39400e062dea26669d6973007"
          ],
          "data": "0x00000000000000000000000000000000000000000000003635c9adc5dea00000",
          "blockHash": "0x097ae06c731e4709b48db48d63dbbd1224dd3bb6213d737b7703b8951bc5aaa0",
          "blockNumber": "0x2aa4a81",
          "transactionHash": "0x63084ebec98259e2bc09cfa62c23a053b5e2b718150585dcafee8c80ab0adbee",
          "transactionIndex": "0x6",
          "logIndex": "0x5",
          "removed": false
        }
      ],
      "logsBloom": "0x40000000000000000008000000000000000000000000000000000000000000000000000000000000000000000000000000000000000000000000000000200000000000000000000000000000000000000000000000000000000000000000000000000000000000000000000000000000000000000000000000000000000000000000000000000000000000000000400000000000000000000000000000000000020000000000000000000004000002000000000000000000000000000000000000000000000080000000040000000000000000000000001000000000000000000010000000000000000000000000000000000000000000000000000000000020",
      "type": "0x0",
      "transactionHash": "0x63084ebec98259e2bc09cfa62c23a053b5e2b718150585dcafee8c80ab0adbee",
      "transactionIndex": "0x6",
      "blockHash": "0x097ae06c731e4709b48db48d63dbbd1224dd3bb6213d737b7703b8951bc5aaa0",
      "blockNumber": "0x2aa4a81",
      "gasUsed": "0xbdaf",
      "effectiveGasPrice": "0x5d22cfc40",
      "from": "0x3a4db9e7306af09012ceb0f222d581fd1f0c6d71",
      "to": "0x0d8af705d767e7b63250a6ac90fe2968ae062c0d",
      "contractAddress": null,
      "l1BaseFeeScalar": "0x0",
      "l1BlobBaseFee": "0x1",
      "l1BlobBaseFeeScalar": "0x0",
      "l1Fee": "0x0",
      "l1GasPrice": "0xe",
      "l1GasUsed": "0x640"
    },
    {
      "status": "0x1",
      "cumulativeGasUsed": "0xfdce0",
      "logs": [
        {
          "address": "0x0d8af705d767e7b63250a6ac90fe2968ae062c0d",
          "topics": [
            "0xddf252ad1be2c89b69c2b068fc378daa952ba7f163c4a11628f55a4df523b3ef",
            "0x0000000000000000000000003a4db9e7306af09012ceb0f222d581fd1f0c6d71",
            "0x00000000000000000000000048c365a5cffae7b39400e062dea26669d6973007"
          ],
          "data": "0x00000000000000000000000000000000000000000000003635c9adc5dea00000",
          "blockHash": "0x097ae06c731e4709b48db48d63dbbd1224dd3bb6213d737b7703b8951bc5aaa0",
          "blockNumber": "0x2aa4a81",
          "transactionHash": "0x7478385da5e0d5f63cfb6790ac34ab26a528b27b9d59887516c2d0c51ece9440",
          "transactionIndex": "0x7",
          "logIndex": "0x6",
          "removed": false
        },
        {
          "address": "0x0d8af705d767e7b63250a6ac90fe2968ae062c0d",
          "topics": [
            "0x8c5be1e5ebec7d5bd14f71427d1e84f3dd0314c0f7b2291e5b200ac8c7c3b925",
            "0x00000000000000000000000048c365a5cffae7b39400e062dea26669d6973007",
            "0x000000000000000000000000056a9aec78d851f8e977401d1ef182c57aa3e219"
          ],
          "data": "0x00000000000000000000000000000000000000000000003635c9adc5dea00000",
          "blockHash": "0x097ae06c731e4709b48db48d63dbbd1224dd3bb6213d737b7703b8951bc5aaa0",
          "blockNumber": "0x2aa4a81",
          "transactionHash": "0x7478385da5e0d5f63cfb6790ac34ab26a528b27b9d59887516c2d0c51ece9440",
          "transactionIndex": "0x7",
          "logIndex": "0x7",
          "removed": false
        },
        {
          "address": "0x1ab49e36a37ac3aaf4a74df72cc4bea885a10d27",
          "topics": [
            "0xddf252ad1be2c89b69c2b068fc378daa952ba7f163c4a11628f55a4df523b3ef",
            "0x0000000000000000000000000000000000000000000000000000000000000000",
            "0x00000000000000000000000048c365a5cffae7b39400e062dea26669d6973007"
          ],
          "data": "0x000000000000000000000000000000000000000000000000000000001dcd6500",
          "blockHash": "0x097ae06c731e4709b48db48d63dbbd1224dd3bb6213d737b7703b8951bc5aaa0",
          "blockNumber": "0x2aa4a81",
          "transactionHash": "0x7478385da5e0d5f63cfb6790ac34ab26a528b27b9d59887516c2d0c51ece9440",
          "transactionIndex": "0x7",
          "logIndex": "0x8",
          "removed": false
        },
        {
          "address": "0x1ab49e36a37ac3aaf4a74df72cc4bea885a10d27",
          "topics": [
            "0xddf252ad1be2c89b69c2b068fc378daa952ba7f163c4a11628f55a4df523b3ef",
            "0x00000000000000000000000048c365a5cffae7b39400e062dea26669d6973007",
            "0x0000000000000000000000003a4db9e7306af09012ceb0f222d581fd1f0c6d71"
          ],
          "data": "0x000000000000000000000000000000000000000000000000000000001dcd6500",
          "blockHash": "0x097ae06c731e4709b48db48d63dbbd1224dd3bb6213d737b7703b8951bc5aaa0",
          "blockNumber": "0x2aa4a81",
          "transactionHash": "0x7478385da5e0d5f63cfb6790ac34ab26a528b27b9d59887516c2d0c51ece9440",
          "transactionIndex": "0x7",
          "logIndex": "0x9",
          "removed": false
        },
        {
          "address": "0x48c365a5cffae7b39400e062dea26669d6973007",
          "topics": [
            "0x9f9b498443531d2db9df8a00ec466efc74ba50ec1d82f7badd3424b87930e19a",
            "0x0000000000000000000000000000000000000000000000000000000000000006",
            "0x0000000000000000000000003a4db9e7306af09012ceb0f222d581fd1f0c6d71"
          ],
          "data": "0x0000000000000000000000000d8af705d767e7b63250a6ac90fe2968ae062c0d00000000000000000000000000000000000000000000003635c9adc5dea000000000000000000000000000001ab49e36a37ac3aaf4a74df72cc4bea885a10d27000000000000000000000000000000000000000000000000000000001dcd65000000000000000000000000000000000000000000000000000000000000000002",
          "blockHash": "0x097ae06c731e4709b48db48d63dbbd1224dd3bb6213d737b7703b8951bc5aaa0",
          "blockNumber": "0x2aa4a81",
          "transactionHash": "0x7478385da5e0d5f63cfb6790ac34ab26a528b27b9d59887516c2d0c51ece9440",
          "transactionIndex": "0x7",
          "logIndex": "0xa",
          "removed": false
        }
      ],
      "logsBloom": "0x40000000000000000008000000000000000000000000000000000000000000000000800010000000000020000080000000000000000400000000000000200000000000000000000000000008000000000000000000000000000000000000000000000000020000000000000000008800000000020000000000000010000000000000000400000000000000000000400000000000000000000000000000000000020000000000000020000004000002000000000000000000000800080000000000000002000082000000040000000000000000000000001000020000000020000010000000000000000000000000000000000000000400000000000000000220",
      "type": "0x0",
      "transactionHash": "0x7478385da5e0d5f63cfb6790ac34ab26a528b27b9d59887516c2d0c51ece9440",
      "transactionIndex": "0x7",
      "blockHash": "0x097ae06c731e4709b48db48d63dbbd1224dd3bb6213d737b7703b8951bc5aaa0",
      "blockNumber": "0x2aa4a81",
      "gasUsed": "0x4ccc3",
      "effectiveGasPrice": "0x5d22cfc40",
      "from": "0x3a4db9e7306af09012ceb0f222d581fd1f0c6d71",
      "to": "0x48c365a5cffae7b39400e062dea26669d6973007",
      "contractAddress": null,
      "l1BaseFeeScalar": "0x0",
      "l1BlobBaseFee": "0x1",
      "l1BlobBaseFeeScalar": "0x0",
      "l1Fee": "0x0",
      "l1GasPrice": "0xe",
      "l1GasUsed": "0x7be"
    },
    {
      "status": "0x1",
      "cumulativeGasUsed": "0x109a8f",
      "logs": [
        {
          "address": "0x0d8af705d767e7b63250a6ac90fe2968ae062c0d",
          "topics": [
            "0x8c5be1e5ebec7d5bd14f71427d1e84f3dd0314c0f7b2291e5b200ac8c7c3b925",
            "0x0000000000000000000000003a4db9e7306af09012ceb0f222d581fd1f0c6d71",
            "0x00000000000000000000000048c365a5cffae7b39400e062dea26669d6973007"
          ],
          "data": "0x00000000000000000000000000000000000000000000001b1ae4d6e2ef500000",
          "blockHash": "0x097ae06c731e4709b48db48d63dbbd1224dd3bb6213d737b7703b8951bc5aaa0",
          "blockNumber": "0x2aa4a81",
          "transactionHash": "0xa17990a33cbef65109ba739ed904b8645a5da4512d544a562878a81c987e8577",
          "transactionIndex": "0x8",
          "logIndex": "0xb",
          "removed": false
        }
      ],
      "logsBloom": "0x40000000000000000008000000000000000000000000000000000000000000000000000000000000000000000000000000000000000000000000000000200000000000000000000000000000000000000000000000000000000000000000000000000000000000000000000000000000000000000000000000000000000000000000000000000000000000000000400000000000000000000000000000000000020000000000000000000004000002000000000000000000000000000000000000000000000080000000040000000000000000000000001000000000000000000010000000000000000000000000000000000000000000000000000000000020",
      "type": "0x0",
      "transactionHash": "0xa17990a33cbef65109ba739ed904b8645a5da4512d544a562878a81c987e8577",
      "transactionIndex": "0x8",
      "blockHash": "0x097ae06c731e4709b48db48d63dbbd1224dd3bb6213d737b7703b8951bc5aaa0",
      "blockNumber": "0x2aa4a81",
      "gasUsed": "0xbdaf",
      "effectiveGasPrice": "0x5d22cfc40",
      "from": "0x3a4db9e7306af09012ceb0f222d581fd1f0c6d71",
      "to": "0x0d8af705d767e7b63250a6ac90fe2968ae062c0d",
      "contractAddress": null,
      "l1BaseFeeScalar": "0x0",
      "l1BlobBaseFee": "0x1",
      "l1BlobBaseFeeScalar": "0x0",
      "l1Fee": "0x0",
      "l1GasPrice": "0xe",
      "l1GasUsed": "0x640"
    },
    {
      "status": "0x1",
      "cumulativeGasUsed": "0x120bd8",
      "logs": [
        {
          "address": "0x0d8af705d767e7b63250a6ac90fe2968ae062c0d",
          "topics": [
            "0xddf252ad1be2c89b69c2b068fc378daa952ba7f163c4a11628f55a4df523b3ef",
            "0x0000000000000000000000003a4db9e7306af09012ceb0f222d581fd1f0c6d71",
            "0x00000000000000000000000048c365a5cffae7b39400e062dea26669d6973007"
          ],
          "data": "0x00000000000000000000000000000000000000000000001b1ae4d6e2ef500000",
          "blockHash": "0x097ae06c731e4709b48db48d63dbbd1224dd3bb6213d737b7703b8951bc5aaa0",
          "blockNumber": "0x2aa4a81",
          "transactionHash": "0xb2222a74bf137d9fe0ba7f2a6b721fdd587497e414c198f0e0ad7d5e72bea667",
          "transactionIndex": "0x9",
          "logIndex": "0xc",
          "removed": false
        },
        {
          "address": "0x0d8af705d767e7b63250a6ac90fe2968ae062c0d",
          "topics": [
            "0x8c5be1e5ebec7d5bd14f71427d1e84f3dd0314c0f7b2291e5b200ac8c7c3b925",
            "0x00000000000000000000000048c365a5cffae7b39400e062dea26669d6973007",
            "0x000000000000000000000000056a9aec78d851f8e977401d1ef182c57aa3e219"
          ],
          "data": "0x00000000000000000000000000000000000000000000001b1ae4d6e2ef500000",
          "blockHash": "0x097ae06c731e4709b48db48d63dbbd1224dd3bb6213d737b7703b8951bc5aaa0",
          "blockNumber": "0x2aa4a81",
          "transactionHash": "0xb2222a74bf137d9fe0ba7f2a6b721fdd587497e414c198f0e0ad7d5e72bea667",
          "transactionIndex": "0x9",
          "logIndex": "0xd",
          "removed": false
        },
        {
          "address": "0x48c365a5cffae7b39400e062dea26669d6973007",
          "topics": [
            "0x244160b15e69cc411f041d94ae7fab6f6bba85dade8403216c05ff4b920d5449",
            "0x0000000000000000000000000000000000000000000000000000000000000006"
          ],
          "data": "0x00000000000000000000000000000000000000000000001b1ae4d6e2ef500000",
          "blockHash": "0x097ae06c731e4709b48db48d63dbbd1224dd3bb6213d737b7703b8951bc5aaa0",
          "blockNumber": "0x2aa4a81",
          "transactionHash": "0xb2222a74bf137d9fe0ba7f2a6b721fdd587497e414c198f0e0ad7d5e72bea667",
          "transactionIndex": "0x9",
          "logIndex": "0xe",
          "removed": false
        }
      ],
      "logsBloom": "0x40000000000000000008000000000000000000000000000000000000000000000000000010000000000000000080000000000000000600000000000000200000000000000000000000000008000000000000000000000000000000000000000000000000000000000000000000000000000000000000000000000010000000000000000400000000000000000000400000000000000000000000000000000000020000000000000000000004000002000000000000000000000800080000000000000002000082000000040000000010000000000000001000000000000000000010000000000080000000000000000000000000000400000000000000000220",
      "type": "0x0",
      "transactionHash": "0xb2222a74bf137d9fe0ba7f2a6b721fdd587497e414c198f0e0ad7d5e72bea667",
      "transactionIndex": "0x9",
      "blockHash": "0x097ae06c731e4709b48db48d63dbbd1224dd3bb6213d737b7703b8951bc5aaa0",
      "blockNumber": "0x2aa4a81",
      "gasUsed": "0x17149",
      "effectiveGasPrice": "0x5d22cfc40",
      "from": "0x3a4db9e7306af09012ceb0f222d581fd1f0c6d71",
      "to": "0x48c365a5cffae7b39400e062dea26669d6973007",
      "contractAddress": null,
      "l1BaseFeeScalar": "0x0",
      "l1BlobBaseFee": "0x1",
      "l1BlobBaseFeeScalar": "0x0",
      "l1Fee": "0x0",
      "l1GasPrice": "0xe",
      "l1GasUsed": "0x640"
    },
    {
      "status": "0x1",
      "cumulativeGasUsed": "0x13929a",
      "logs": [
        {
          "address": "0x1ab49e36a37ac3aaf4a74df72cc4bea885a10d27",
          "topics": [
            "0xddf252ad1be2c89b69c2b068fc378daa952ba7f163c4a11628f55a4df523b3ef",
            "0x0000000000000000000000000000000000000000000000000000000000000000",
            "0x00000000000000000000000048c365a5cffae7b39400e062dea26669d6973007"
          ],
          "data": "0x000000000000000000000000000000000000000000000000000000000ee6b280",
          "blockHash": "0x097ae06c731e4709b48db48d63dbbd1224dd3bb6213d737b7703b8951bc5aaa0",
          "blockNumber": "0x2aa4a81",
          "transactionHash": "0x33878c11ebe3f73e8b527c2abdbcaab6e38c727c80f5eb8d797a01fc4bfad488",
          "transactionIndex": "0xa",
          "logIndex": "0xf",
          "removed": false
        },
        {
          "address": "0x1ab49e36a37ac3aaf4a74df72cc4bea885a10d27",
          "topics": [
            "0xddf252ad1be2c89b69c2b068fc378daa952ba7f163c4a11628f55a4df523b3ef",
            "0x00000000000000000000000048c365a5cffae7b39400e062dea26669d6973007",
            "0x0000000000000000000000003a4db9e7306af09012ceb0f222d581fd1f0c6d71"
          ],
          "data": "0x000000000000000000000000000000000000000000000000000000000ee6b280",
          "blockHash": "0x097ae06c731e4709b48db48d63dbbd1224dd3bb6213d737b7703b8951bc5aaa0",
          "blockNumber": "0x2aa4a81",
          "transactionHash": "0x33878c11ebe3f73e8b527c2abdbcaab6e38c727c80f5eb8d797a01fc4bfad488",
          "transactionIndex": "0xa",
          "logIndex": "0x10",
          "removed": false
        },
        {
          "address": "0x48c365a5cffae7b39400e062dea26669d6973007",
          "topics": [
            "0xf3a2c404b3362c4238317c3dad1020c2e9e984ba8df38a4a1ff18d57e92a242a",
            "0x0000000000000000000000000000000000000000000000000000000000000006"
          ],
          "data": "0x000000000000000000000000000000000000000000000000000000000ee6b280",
          "blockHash": "0x097ae06c731e4709b48db48d63dbbd1224dd3bb6213d737b7703b8951bc5aaa0",
          "blockNumber": "0x2aa4a81",
          "transactionHash": "0x33878c11ebe3f73e8b527c2abdbcaab6e38c727c80f5eb8d797a01fc4bfad488",
          "transactionIndex": "0xa",
          "logIndex": "0x11",
          "removed": false
        }
      ],
      "logsBloom": "0x00000000000000000008000000000000000000000000000000000000000000000000800000000000000000000080000000000000000400000000000000000000000000000000000000000008000000000000000000000000000000000000000000000000020000000000000000008800000000000000000000000010000000000000000400000010000000000000400000000000000000000000000000000000000000000000000020000000000002000000000000000000000800080000000000000002000082000000000000000000000000400000001000000000000020000000000000000000000000000000000000000000000000000800000000000020",
      "type": "0x0",
      "transactionHash": "0x33878c11ebe3f73e8b527c2abdbcaab6e38c727c80f5eb8d797a01fc4bfad488",
      "transactionIndex": "0xa",
      "blockHash": "0x097ae06c731e4709b48db48d63dbbd1224dd3bb6213d737b7703b8951bc5aaa0",
      "blockNumber": "0x2aa4a81",
      "gasUsed": "0x186c2",
      "effectiveGasPrice": "0x5d22cfc40",
      "from": "0x3a4db9e7306af09012ceb0f222d581fd1f0c6d71",
      "to": "0x48c365a5cffae7b39400e062dea26669d6973007",
      "contractAddress": null,
      "l1BaseFeeScalar": "0x0",
      "l1BlobBaseFee": "0x1",
      "l1BlobBaseFeeScalar": "0x0",
      "l1Fee": "0x0",
      "l1GasPrice": "0xe",
      "l1GasUsed": "0x640"
    },
    {
      "status": "0x1",
      "cumulativeGasUsed": "0x145025",
      "logs": [
        {
          "address": "0x1ab49e36a37ac3aaf4a74df72cc4bea885a10d27",
          "topics": [
            "0x8c5be1e5ebec7d5bd14f71427d1e84f3dd0314c0f7b2291e5b200ac8c7c3b925",
            "0x0000000000000000000000003a4db9e7306af09012ceb0f222d581fd1f0c6d71",
            "0x00000000000000000000000048c365a5cffae7b39400e062dea26669d6973007"
          ],
          "data": "0x00000000000000000000000000000000000000000000000000000000165a0bc0",
          "blockHash": "0x097ae06c731e4709b48db48d63dbbd1224dd3bb6213d737b7703b8951bc5aaa0",
          "blockNumber": "0x2aa4a81",
          "transactionHash": "0x33033d7ee3951d9267d7c353fdbe9d5d4a379d2bf9667a87789cc1cb9b05a0c0",
          "transactionIndex": "0xb",
          "logIndex": "0x12",
          "removed": false
        }
      ],
      "logsBloom": "0x00000000000000000008000000000000000000000000000000000000000000000000800000000000000000000000000000000000000000000000000000200000000000000000000000000000000000000000000000000000000000000000000000000000000000000000000000008000000000000000000000000000000000000000000000000000000000000000400000000000000000000000000000000000020000000000000020000000000002000000000000000000000000000000000000000000000080000000000000000000000000000000001000000000000000000010000000000000000000000000000000000000000000000000000000000020",
      "type": "0x0",
      "transactionHash": "0x33033d7ee3951d9267d7c353fdbe9d5d4a379d2bf9667a87789cc1cb9b05a0c0",
      "transactionIndex": "0xb",
      "blockHash": "0x097ae06c731e4709b48db48d63dbbd1224dd3bb6213d737b7703b8951bc5aaa0",
      "blockNumber": "0x2aa4a81",
      "gasUsed": "0xbd8b",
      "effectiveGasPrice": "0x5d22cfc40",
      "from": "0x3a4db9e7306af09012ceb0f222d581fd1f0c6d71",
      "to": "0x1ab49e36a37ac3aaf4a74df72cc4bea885a10d27",
      "contractAddress": null,
      "l1BaseFeeScalar": "0x0",
      "l1BlobBaseFee": "0x1",
      "l1BlobBaseFeeScalar": "0x0",
      "l1Fee": "0x0",
      "l1GasPrice": "0xe",
      "l1GasUsed": "0x640"
    },
    {
      "status": "0x1",
      "cumulativeGasUsed": "0x15be00",
      "logs": [
        {
          "address": "0x1ab49e36a37ac3aaf4a74df72cc4bea885a10d27",
          "topics": [
            "0xddf252ad1be2c89b69c2b068fc378daa952ba7f163c4a11628f55a4df523b3ef",
            "0x0000000000000000000000003a4db9e7306af09012ceb0f222d581fd1f0c6d71",
            "0x00000000000000000000000048c365a5cffae7b39400e062dea26669d6973007"
          ],
          "data": "0x00000000000000000000000000000000000000000000000000000000165a0bc0",
          "blockHash": "0x097ae06c731e4709b48db48d63dbbd1224dd3bb6213d737b7703b8951bc5aaa0",
          "blockNumber": "0x2aa4a81",
          "transactionHash": "0x7e0163fb7e866d2023a5bdb6bd0e47acf894f333b810b035f506a9d26d63e7be",
          "transactionIndex": "0xc",
          "logIndex": "0x13",
          "removed": false
        },
        {
          "address": "0x1ab49e36a37ac3aaf4a74df72cc4bea885a10d27",
          "topics": [
            "0x8c5be1e5ebec7d5bd14f71427d1e84f3dd0314c0f7b2291e5b200ac8c7c3b925",
            "0x00000000000000000000000048c365a5cffae7b39400e062dea26669d6973007",
            "0x000000000000000000000000056a9aec78d851f8e977401d1ef182c57aa3e219"
          ],
          "data": "0x00000000000000000000000000000000000000000000000000000000165a0bc0",
          "blockHash": "0x097ae06c731e4709b48db48d63dbbd1224dd3bb6213d737b7703b8951bc5aaa0",
          "blockNumber": "0x2aa4a81",
          "transactionHash": "0x7e0163fb7e866d2023a5bdb6bd0e47acf894f333b810b035f506a9d26d63e7be",
          "transactionIndex": "0xc",
          "logIndex": "0x14",
          "removed": false
        },
        {
          "address": "0x48c365a5cffae7b39400e062dea26669d6973007",
          "topics": [
            "0x0d4979b0859a1951f8ed7cbe3b1994e740552588f27ba02ca0f8f1ddcad16e0c",
            "0x0000000000000000000000000000000000000000000000000000000000000006"
          ],
          "data": "0x00000000000000000000000000000000000000000000000000000000165a0bc0",
          "blockHash": "0x097ae06c731e4709b48db48d63dbbd1224dd3bb6213d737b7703b8951bc5aaa0",
          "blockNumber": "0x2aa4a81",
          "transactionHash": "0x7e0163fb7e866d2023a5bdb6bd0e47acf894f333b810b035f506a9d26d63e7be",
          "transactionIndex": "0xc",
          "logIndex": "0x15",
          "removed": false
        }
      ],
      "logsBloom": "0x00000000000000000008000010000000000000000000000000000000000000000000800010000000000000000080000000000000000400000000000000200000000000000000000000000008000000000000002000000000000000000000000080000000000000000000000000008000000000000000000000000010000000000000000400000000000000000000400000000000000000000000000000000000020000000000000020000000000002000000000000000000000800080000000000000002000082000000000000000000000000000000001000000000000000000010000000000000000000000000000000000000000400000000000000000220",
      "type": "0x0",
      "transactionHash": "0x7e0163fb7e866d2023a5bdb6bd0e47acf894f333b810b035f506a9d26d63e7be",
      "transactionIndex": "0xc",
      "blockHash": "0x097ae06c731e4709b48db48d63dbbd1224dd3bb6213d737b7703b8951bc5aaa0",
      "blockNumber": "0x2aa4a81",
      "gasUsed": "0x16ddb",
      "effectiveGasPrice": "0x5d22cfc40",
      "from": "0x3a4db9e7306af09012ceb0f222d581fd1f0c6d71",
      "to": "0x48c365a5cffae7b39400e062dea26669d6973007",
      "contractAddress": null,
      "l1BaseFeeScalar": "0x0",
      "l1BlobBaseFee": "0x1",
      "l1BlobBaseFeeScalar": "0x0",
      "l1Fee": "0x0",
      "l1GasPrice": "0xe",
      "l1GasUsed": "0x640"
    },
    {
      "status": "0x1",
      "cumulativeGasUsed": "0x1f4d2",
      "logs": [
        {
          "address": "0x0d8af705d767e7b63250a6ac90fe2968ae062c0d",
          "topics": [
            "0xddf252ad1be2c89b69c2b068fc378daa952ba7f163c4a11628f55a4df523b3ef",
            "0x000000000000000000000000056a9aec78d851f8e977401d1ef182c57aa3e219",
            "0x0000000000000000000000003a4db9e7306af09012ceb0f222d581fd1f0c6d71"
          ],
          "data": "0x00000000000000000000000000000000000000000000001043561a8829300000",
          "blockHash": "0x04864c2d492f89357c7296be37b1ef4fd68f29d1b05fe5c4497364759446b3d3",
          "blockNumber": "0x2aa4a82",
          "transactionHash": "0xe16e94a8a25b9b6a8deac8e4ed9099e14b8161804d13ab9d99752efee60a9fd5",
          "transactionIndex": "0x1",
          "logIndex": "0x0",
          "removed": false
        },
        {
          "address": "0x48c365a5cffae7b39400e062dea26669d6973007",
          "topics": [
            "0x2399e8aed1977410745a5211d8226a3a7d9278f50a8a197c5ec6e285bb437f0b",
            "0x0000000000000000000000000000000000000000000000000000000000000006"
          ],
          "data": "0x00000000000000000000000000000000000000000000001043561a8829300000",
          "blockHash": "0x04864c2d492f89357c7296be37b1ef4fd68f29d1b05fe5c4497364759446b3d3",
          "blockNumber": "0x2aa4a82",
          "transactionHash": "0xe16e94a8a25b9b6a8deac8e4ed9099e14b8161804d13ab9d99752efee60a9fd5",
          "transactionIndex": "0x1",
          "logIndex": "0x1",
          "removed": false
        }
      ],
      "logsBloom": "0x40000000000000000000000000000000000000000000000000000000000000000000000010000000000000000080000000000000000400000000000000000000000000000000000000000008000000000000000000000000000000000000000000000000000000000000000000000000000000000020000000000010000000000000000400000000000000000000400000000000000060000000000000000000000000000000000000000004000000000000000000000000000800080000000000000002000082000000040000000000000000000000001000000000000000000000000000000000000000000000000000000000000400000000000000000200",
      "type": "0x0",
      "transactionHash": "0xe16e94a8a25b9b6a8deac8e4ed9099e14b8161804d13ab9d99752efee60a9fd5",
      "transactionIndex": "0x1",
      "blockHash": "0x04864c2d492f89357c7296be37b1ef4fd68f29d1b05fe5c4497364759446b3d3",
      "blockNumber": "0x2aa4a82",
      "gasUsed": "0x149e4",
      "effectiveGasPrice": "0x5d22cfc40",
      "from": "0x3a4db9e7306af09012ceb0f222d581fd1f0c6d71",
      "to": "0x48c365a5cffae7b39400e062dea26669d6973007",
      "contractAddress": null,
      "l1BaseFeeScalar": "0x0",
      "l1BlobBaseFee": "0x1",
      "l1BlobBaseFeeScalar": "0x0",
      "l1Fee": "0x0",
      "l1GasPrice": "0xe",
      "l1GasUsed": "0x640"
    },
    {
      "status": "0x1",
      "cumulativeGasUsed": "0x28713",
      "logs": [
        {
          "address": "0x0d8af705d767e7b63250a6ac90fe2968ae062c0d",
          "topics": [
            "0xddf252ad1be2c89b69c2b068fc378daa952ba7f163c4a11628f55a4df523b3ef",
            "0x0000000000000000000000000000000000000000000000000000000000000000",
            "0x0000000000000000000000003a4db9e7306af09012ceb0f222d581fd1f0c6d71"
          ],
          "data": "0x00000000000000000000000000000000000000000000001b1ae4d6e2ef500000",
          "blockHash": "0x04864c2d492f89357c7296be37b1ef4fd68f29d1b05fe5c4497364759446b3d3",
          "blockNumber": "0x2aa4a82",
          "transactionHash": "0x633b2a4ecff1ce20db71d68a91db10d5271bda72859bf833db1e05bd4353b5c3",
          "transactionIndex": "0x2",
          "logIndex": "0x2",
          "removed": false
        }
      ],
      "logsBloom": "0x40000000000000000000000000000000000000000000000000000000000000000000000000000000000000000000000000000000000000000000000000000000000000000000000000000008000000000000000000000000000000000000000000000000020000000000000000000800000000000000000000000010000000000000000000000000000000000000400000000000000000000000000000000000000000000000000000000004000000000000000000000000000000000000000000000002000080000000040000000000000000000000001000000000000020000000000000000000000000000000000000000000000000000000000000000000",
      "type": "0x0",
      "transactionHash": "0x633b2a4ecff1ce20db71d68a91db10d5271bda72859bf833db1e05bd4353b5c3",
      "transactionIndex": "0x2",
      "blockHash": "0x04864c2d492f89357c7296be37b1ef4fd68f29d1b05fe5c4497364759446b3d3",
      "blockNumber": "0x2aa4a82",
      "gasUsed": "0x9241",
      "effectiveGasPrice": "0x5d22cfc40",
      "from": "0x3a4db9e7306af09012ceb0f222d581fd1f0c6d71",
      "to": "0x0d8af705d767e7b63250a6ac90fe2968ae062c0d",
      "contractAddress": null,
      "l1BaseFeeScalar": "0x0",
      "l1BlobBaseFee": "0x1",
      "l1BlobBaseFeeScalar": "0x0",
      "l1Fee": "0x0",
      "l1GasPrice": "0xe",
      "l1GasUsed": "0x640"
    },
    {
      "status": "0x1",
      "cumulativeGasUsed": "0x344c2",
      "logs": [
        {
          "address": "0x0d8af705d767e7b63250a6ac90fe2968ae062c0d",
          "topics": [
            "0x8c5be1e5ebec7d5bd14f71427d1e84f3dd0314c0f7b2291e5b200ac8c7c3b925",
            "0x0000000000000000000000003a4db9e7306af09012ceb0f222d581fd1f0c6d71",
            "0x00000000000000000000000048c365a5cffae7b39400e062dea26669d6973007"
          ],
          "data": "0x00000000000000000000000000000000000000000000001b1ae4d6e2ef500000",
          "blockHash": "0x04864c2d492f89357c7296be37b1ef4fd68f29d1b05fe5c4497364759446b3d3",
          "blockNumber": "0x2aa4a82",
          "transactionHash": "0x4ed1d8f631d6d74837e0dbfd994958289a30447f00129b843873d17ff39de2a9",
          "transactionIndex": "0x3",
          "logIndex": "0x3",
          "removed": false
        }
      ],
      "logsBloom": "0x40000000000000000008000000000000000000000000000000000000000000000000000000000000000000000000000000000000000000000000000000200000000000000000000000000000000000000000000000000000000000000000000000000000000000000000000000000000000000000000000000000000000000000000000000000000000000000000400000000000000000000000000000000000020000000000000000000004000002000000000000000000000000000000000000000000000080000000040000000000000000000000001000000000000000000010000000000000000000000000000000000000000000000000000000000020",
      "type": "0x0",
      "transactionHash": "0x4ed1d8f631d6d74837e0dbfd994958289a30447f00129b843873d17ff39de2a9",
      "transactionIndex": "0x3",
      "blockHash": "0x04864c2d492f89357c7296be37b1ef4fd68f29d1b05fe5c4497364759446b3d3",
      "blockNumber": "0x2aa4a82",
      "gasUsed": "0xbdaf",
      "effectiveGasPrice": "0x5d22cfc40",
      "from": "0x3a4db9e7306af09012ceb0f222d581fd1f0c6d71",
      "to": "0x0d8af705d767e7b63250a6ac90fe2968ae062c0d",
      "contractAddress": null,
      "l1BaseFeeScalar": "0x0",
      "l1BlobBaseFee": "0x1",
      "l1BlobBaseFeeScalar": "0x0",
      "l1Fee": "0x0",
      "l1GasPrice": "0xe",
      "l1GasUsed": "0x640"
    },
    {
      "status": "0x1",
      "cumulativeGasUsed": "0x81c75",
      "logs": [
        {
          "address": "0x0d8af705d767e7b63250a6ac90fe2968ae062c0d",
          "topics": [
            "0xddf252ad1be2c89b69c2b068fc378daa952ba7f163c4a11628f55a4df523b3ef",
            "0x0000000000000000000000003a4db9e7306af09012ceb0f222d581fd1f0c6d71",
            "0x00000000000000000000000048c365a5cffae7b39400e062dea26669d6973007"
          ],
          "data": "0x00000000000000000000000000000000000000000000001b1ae4d6e2ef500000",
          "blockHash": "0x04864c2d492f89357c7296be37b1ef4fd68f29d1b05fe5c4497364759446b3d3",
          "blockNumber": "0x2aa4a82",
          "transactionHash": "0xda4e7b021557153b47dea975d1ef4b94fa8c33d84d2153175861ae06d54b2957",
          "transactionIndex": "0x4",
          "logIndex": "0x4",
          "removed": false
        },
        {
          "address": "0x0d8af705d767e7b63250a6ac90fe2968ae062c0d",
          "topics": [
            "0x8c5be1e5ebec7d5bd14f71427d1e84f3dd0314c0f7b2291e5b200ac8c7c3b925",
            "0x00000000000000000000000048c365a5cffae7b39400e062dea26669d6973007",
            "0x000000000000000000000000056a9aec78d851f8e977401d1ef182c57aa3e219"
          ],
          "data": "0x00000000000000000000000000000000000000000000001b1ae4d6e2ef500000",
          "blockHash": "0x04864c2d492f89357c7296be37b1ef4fd68f29d1b05fe5c4497364759446b3d3",
          "blockNumber": "0x2aa4a82",
          "transactionHash": "0xda4e7b021557153b47dea975d1ef4b94fa8c33d84d2153175861ae06d54b2957",
          "transactionIndex": "0x4",
          "logIndex": "0x5",
          "removed": false
        },
        {
          "address": "0x1ab49e36a37ac3aaf4a74df72cc4bea885a10d27",
          "topics": [
            "0xddf252ad1be2c89b69c2b068fc378daa952ba7f163c4a11628f55a4df523b3ef",
            "0x0000000000000000000000000000000000000000000000000000000000000000",
            "0x00000000000000000000000048c365a5cffae7b39400e062dea26669d6973007"
          ],
          "data": "0x000000000000000000000000000000000000000000000000000000000bebc200",
          "blockHash": "0x04864c2d492f89357c7296be37b1ef4fd68f29d1b05fe5c4497364759446b3d3",
          "blockNumber": "0x2aa4a82",
          "transactionHash": "0xda4e7b021557153b47dea975d1ef4b94fa8c33d84d2153175861ae06d54b2957",
          "transactionIndex": "0x4",
          "logIndex": "0x6",
          "removed": false
        },
        {
          "address": "0x1ab49e36a37ac3aaf4a74df72cc4bea885a10d27",
          "topics": [
            "0xddf252ad1be2c89b69c2b068fc378daa952ba7f163c4a11628f55a4df523b3ef",
            "0x00000000000000000000000048c365a5cffae7b39400e062dea26669d6973007",
            "0x0000000000000000000000003a4db9e7306af09012ceb0f222d581fd1f0c6d71"
          ],
          "data": "0x000000000000000000000000000000000000000000000000000000000bebc200",
          "blockHash": "0x04864c2d492f89357c7296be37b1ef4fd68f29d1b05fe5c4497364759446b3d3",
          "blockNumber": "0x2aa4a82",
          "transactionHash": "0xda4e7b021557153b47dea975d1ef4b94fa8c33d84d2153175861ae06d54b2957",
          "transactionIndex": "0x4",
          "logIndex": "0x7",
          "removed": false
        },
        {
          "address": "0x48c365a5cffae7b39400e062dea26669d6973007",
          "topics": [
            "0x9f9b498443531d2db9df8a00ec466efc74ba50ec1d82f7badd3424b87930e19a",
            "0x0000000000000000000000000000000000000000000000000000000000000007",
            "0x0000000000000000000000003a4db9e7306af09012ceb0f222d581fd1f0c6d71"
          ],
          "data": "0x0000000000000000000000000d8af705d767e7b63250a6ac90fe2968ae062c0d00000000000000000000000000000000000000000000001b1ae4d6e2ef5000000000000000000000000000001ab49e36a37ac3aaf4a74df72cc4bea885a10d27000000000000000000000000000000000000000000000000000000000bebc2000000000000000000000000000000000000000000000000000000000000000002",
          "blockHash": "0x04864c2d492f89357c7296be37b1ef4fd68f29d1b05fe5c4497364759446b3d3",
          "blockNumber": "0x2aa4a82",
          "transactionHash": "0xda4e7b021557153b47dea975d1ef4b94fa8c33d84d2153175861ae06d54b2957",
          "transactionIndex": "0x4",
          "logIndex": "0x8",
          "removed": false
        }
      ],
      "logsBloom": "0x40000000000000000008000000000000000000000000000000000000000000000000800010000000000020000080000000001000000000000000000000200000000020000000000000000008000000000000000000000000000000000000000000000000020000000000000000008800000000020000000000000010000000000000000000000000000000000000400000000000000000000000000000000000020000000000000020000004000002000000000000000000000800000000000000000002000082000000040000000000000000000000001000020100000020000010000000000000000000000000000000000000000400000000000000000220",
      "type": "0x0",
      "transactionHash": "0xda4e7b021557153b47dea975d1ef4b94fa8c33d84d2153175861ae06d54b2957",
      "transactionIndex": "0x4",
      "blockHash": "0x04864c2d492f89357c7296be37b1ef4fd68f29d1b05fe5c4497364759446b3d3",
      "blockNumber": "0x2aa4a82",
      "gasUsed": "0x4d7b3",
      "effectiveGasPrice": "0x5d22cfc40",
      "from": "0x3a4db9e7306af09012ceb0f222d581fd1f0c6d71",
      "to": "0x48c365a5cffae7b39400e062dea26669d6973007",
      "contractAddress": null,
      "l1BaseFeeScalar": "0x0",
      "l1BlobBaseFee": "0x1",
      "l1BlobBaseFeeScalar": "0x0",
      "l1Fee": "0x0",
      "l1GasPrice": "0xe",
      "l1GasUsed": "0x7be"
    },
    {
      "status": "0x1",
      "cumulativeGasUsed": "0x8d9f4",
      "logs": [
        {
          "address": "0x1ab49e36a37ac3aaf4a74df72cc4bea885a10d27",
          "topics": [
            "0x8c5be1e5ebec7d5bd14f71427d1e84f3dd0314c0f7b2291e5b200ac8c7c3b925",
            "0x0000000000000000000000003a4db9e7306af09012ceb0f222d581fd1f0c6d71",
            "0x00000000000000000000000048c365a5cffae7b39400e062dea26669d6973007"
          ],
          "data": "0x000000000000000000000000000000000000000000000000000000000bebc200",
          "blockHash": "0x04864c2d492f89357c7296be37b1ef4fd68f29d1b05fe5c4497364759446b3d3",
          "blockNumber": "0x2aa4a82",
          "transactionHash": "0xab64049788265971f79cbd39405a53db56674bf1f5a9e5baa47a0200c89e2b53",
          "transactionIndex": "0x5",
          "logIndex": "0x9",
          "removed": false
        }
      ],
      "logsBloom": "0x00000000000000000008000000000000000000000000000000000000000000000000800000000000000000000000000000000000000000000000000000200000000000000000000000000000000000000000000000000000000000000000000000000000000000000000000000008000000000000000000000000000000000000000000000000000000000000000400000000000000000000000000000000000020000000000000020000000000002000000000000000000000000000000000000000000000080000000000000000000000000000000001000000000000000000010000000000000000000000000000000000000000000000000000000000020",
      "type": "0x0",
      "transactionHash": "0xab64049788265971f79cbd39405a53db56674bf1f5a9e5baa47a0200c89e2b53",
      "transactionIndex": "0x5",
      "blockHash": "0x04864c2d492f89357c7296be37b1ef4fd68f29d1b05fe5c4497364759446b3d3",
      "blockNumber": "0x2aa4a82",
      "gasUsed": "0xbd7f",
      "effectiveGasPrice": "0x5d22cfc40",
      "from": "0x3a4db9e7306af09012ceb0f222d581fd1f0c6d71",
      "to": "0x1ab49e36a37ac3aaf4a74df72cc4bea885a10d27",
      "contractAddress": null,
      "l1BaseFeeScalar": "0x0",
      "l1BlobBaseFee": "0x1",
      "l1BlobBaseFeeScalar": "0x0",
      "l1Fee": "0x0",
      "l1GasPrice": "0xe",
      "l1GasUsed": "0x640"
    },
    {
      "status": "0x1",
      "cumulativeGasUsed": "0xad216",
      "logs": [
        {
          "address": "0x1ab49e36a37ac3aaf4a74df72cc4bea885a10d27",
          "topics": [
            "0xddf252ad1be2c89b69c2b068fc378daa952ba7f163c4a11628f55a4df523b3ef",
            "0x0000000000000000000000003a4db9e7306af09012ceb0f222d581fd1f0c6d71",
            "0x00000000000000000000000048c365a5cffae7b39400e062dea26669d6973007"
          ],
          "data": "0x000000000000000000000000000000000000000000000000000000000bebc200",
          "blockHash": "0x04864c2d492f89357c7296be37b1ef4fd68f29d1b05fe5c4497364759446b3d3",
          "blockNumber": "0x2aa4a82",
          "transactionHash": "0xb35f1eab45fe08f22017af9d7d7d19c3e76dba66adc211913bf3a1391cd81a0a",
          "transactionIndex": "0x6",
          "logIndex": "0xa",
          "removed": false
        },
        {
          "address": "0x1ab49e36a37ac3aaf4a74df72cc4bea885a10d27",
          "topics": [
            "0x8c5be1e5ebec7d5bd14f71427d1e84f3dd0314c0f7b2291e5b200ac8c7c3b925",
            "0x00000000000000000000000048c365a5cffae7b39400e062dea26669d6973007",
            "0x000000000000000000000000056a9aec78d851f8e977401d1ef182c57aa3e219"
          ],
          "data": "0x000000000000000000000000000000000000000000000000000000000bebc200",
          "blockHash": "0x04864c2d492f89357c7296be37b1ef4fd68f29d1b05fe5c4497364759446b3d3",
          "blockNumber": "0x2aa4a82",
          "transactionHash": "0xb35f1eab45fe08f22017af9d7d7d19c3e76dba66adc211913bf3a1391cd81a0a",
          "transactionIndex": "0x6",
          "logIndex": "0xb",
          "removed": false
        },
        {
          "address": "0x0d8af705d767e7b63250a6ac90fe2968ae062c0d",
          "topics": [
            "0xddf252ad1be2c89b69c2b068fc378daa952ba7f163c4a11628f55a4df523b3ef",
            "0x0000000000000000000000000000000000000000000000000000000000000000",
            "0x0000000000000000000000003a4db9e7306af09012ceb0f222d581fd1f0c6d71"
          ],
          "data": "0x00000000000000000000000000000000000000000000003635c9adc5dea00000",
          "blockHash": "0x04864c2d492f89357c7296be37b1ef4fd68f29d1b05fe5c4497364759446b3d3",
          "blockNumber": "0x2aa4a82",
          "transactionHash": "0xb35f1eab45fe08f22017af9d7d7d19c3e76dba66adc211913bf3a1391cd81a0a",
          "transactionIndex": "0x6",
          "logIndex": "0xc",
          "removed": false
        },
        {
          "address": "0x48c365a5cffae7b39400e062dea26669d6973007",
          "topics": [
            "0xcefaf961c5013063cf501ffd9f9382e9b9c4b15741ad032fe93d7e9c7c733b22",
            "0x0000000000000000000000000000000000000000000000000000000000000007",
            "0x0000000000000000000000003a4db9e7306af09012ceb0f222d581fd1f0c6d71"
          ],
          "data": "0x",
          "blockHash": "0x04864c2d492f89357c7296be37b1ef4fd68f29d1b05fe5c4497364759446b3d3",
          "blockNumber": "0x2aa4a82",
          "transactionHash": "0xb35f1eab45fe08f22017af9d7d7d19c3e76dba66adc211913bf3a1391cd81a0a",
          "transactionIndex": "0x6",
          "logIndex": "0xd",
          "removed": false
        }
      ],
      "logsBloom": "0x40000000000000000008000000000000000020000000000000000000000000000000800010000000000000000080000000001000000000000000000000200000000020000000000000000008000200000000000000000000000000000000000000000000020000000000000000048800000000000000000000000010000000000000000000000000000000000000400000000000000000000000000000000000020000000000000020000004000002000000000000000000000800000000000000000002000082000000040000000000000000000000001000000100000020000010000000000000000000000000000000000000000400000000000000000220",
      "type": "0x0",
      "transactionHash": "0xb35f1eab45fe08f22017af9d7d7d19c3e76dba66adc211913bf3a1391cd81a0a",
      "transactionIndex": "0x6",
      "blockHash": "0x04864c2d492f89357c7296be37b1ef4fd68f29d1b05fe5c4497364759446b3d3",
      "blockNumber": "0x2aa4a82",
      "gasUsed": "0x1f822",
      "effectiveGasPrice": "0x5d22cfc40",
      "from": "0x3a4db9e7306af09012ceb0f222d581fd1f0c6d71",
      "to": "0x48c365a5cffae7b39400e062dea26669d6973007",
      "contractAddress": null,
      "l1BaseFeeScalar": "0x0",
      "l1BlobBaseFee": "0x1",
      "l1BlobBaseFeeScalar": "0x0",
      "l1Fee": "0x0",
      "l1GasPrice": "0xe",
      "l1GasUsed": "0x640"
    }
  ],
  "libraries": [],
  "pending": [],
  "returns": {},
  "timestamp": 1745669947,
  "chain": 44787,
  "commit": "1cefd9d"
}