{
  "transactions": [
    {
      "hash": "0x5ea4854a5020f03c115fdc1d461c303c5c385b942860b07a03a3e83119dd4354",
      "transactionType": "CALL",
      "contractName": null,
      "contractAddress": "0x1ab49e36a37ac3aaf4a74df72cc4bea885a10d27",
      "function": "mint(address,uint256)",
      "arguments": [
        "0x3A4dB9e7306aF09012ceb0f222d581FD1F0C6D71",
        "506250000"
      ],
      "transaction": {
        "from": "0x3a4db9e7306af09012ceb0f222d581fd1f0c6d71",
        "to": "0x1ab49e36a37ac3aaf4a74df72cc4bea885a10d27",
        "gas": "0xc9d0",
        "value": "0x0",
        "input": "0x40c10f190000000000000000000000003a4db9e7306af09012ceb0f222d581fd1f0c6d71000000000000000000000000000000000000000000000000000000001e2cc310",
        "nonce": "0x11e",
        "chainId": "0xaef3"
      },
      "additionalContracts": [],
      "isFixedGasLimit": false
    },
    {
      "hash": "0x708b08f425e34acd2746c716584e3b1c310eb726f2b617e71031029e0d5d8370",
      "transactionType": "CALL",
      "contractName": null,
      "contractAddress": "0x1ab49e36a37ac3aaf4a74df72cc4bea885a10d27",
      "function": "approve(address,uint256)",
      "arguments": [
        "0x48C365A5cFfAe7B39400e062dEA26669D6973007",
        "506250000"
      ],
      "transaction": {
        "from": "0x3a4db9e7306af09012ceb0f222d581fd1f0c6d71",
        "to": "0x1ab49e36a37ac3aaf4a74df72cc4bea885a10d27",
        "gas": "0x11534",
        "value": "0x0",
        "input": "0x095ea7b300000000000000000000000048c365a5cffae7b39400e062dea26669d6973007000000000000000000000000000000000000000000000000000000001e2cc310",
        "nonce": "0x11f",
        "chainId": "0xaef3"
      },
      "additionalContracts": [],
      "isFixedGasLimit": false
    },
    {
      "hash": "0xe26af59bff047681c68f1075862d28ce03f3355d2c9cde15f25085018407e711",
      "transactionType": "CALL",
      "contractName": null,
      "contractAddress": "0x48c365a5cffae7b39400e062dea26669d6973007",
      "function": "repayDebt(uint256,uint256)",
      "arguments": [
        "2",
        "506250000"
      ],
      "transaction": {
        "from": "0x3a4db9e7306af09012ceb0f222d581fd1f0c6d71",
        "to": "0x48c365a5cffae7b39400e062dea26669d6973007",
        "gas": "0x2170f",
        "value": "0x0",
        "input": "0x015cb0a50000000000000000000000000000000000000000000000000000000000000002000000000000000000000000000000000000000000000000000000001e2cc310",
        "nonce": "0x120",
        "chainId": "0xaef3"
      },
      "additionalContracts": [],
      "isFixedGasLimit": false
    }
  ],
  "receipts": [
    {
      "status": "0x1",
      "cumulativeGasUsed": "0x13cff",
      "logs": [
        {
          "address": "0x1ab49e36a37ac3aaf4a74df72cc4bea885a10d27",
          "topics": [
            "0xddf252ad1be2c89b69c2b068fc378daa952ba7f163c4a11628f55a4df523b3ef",
            "0x0000000000000000000000000000000000000000000000000000000000000000",
            "0x0000000000000000000000003a4db9e7306af09012ceb0f222d581fd1f0c6d71"
          ],
          "data": "0x000000000000000000000000000000000000000000000000000000001e2cc310",
          "blockHash": "0xd55658b50813b71588b09f01b3bd63b175aba5d2446dcdcb961f5c11ae4a3933",
          "blockNumber": "0x2aa3fa3",
          "transactionHash": "0x5ea4854a5020f03c115fdc1d461c303c5c385b942860b07a03a3e83119dd4354",
          "transactionIndex": "0x1",
          "logIndex": "0x0",
          "removed": false
        }
      ],
      "logsBloom": "0x00000000000000000000000000000000000000000000000000000000000000000000800000000000000000000000000000000000000000000000000000000000000000000000000000000008000000000000000000000000000000000000000000000000020000000000000000008800000000000000000000000010000000000000000000000000000000000000400000000000000000000000000000000000000000000000000020000000000000000000000000000000000000000000000000000002000080000000000000000000000000000000001000000000000020000000000000000000000000000000000000000000000000000000000000000000",
      "type": "0x0",
      "transactionHash": "0x5ea4854a5020f03c115fdc1d461c303c5c385b942860b07a03a3e83119dd4354",
      "transactionIndex": "0x1",
      "blockHash": "0xd55658b50813b71588b09f01b3bd63b175aba5d2446dcdcb961f5c11ae4a3933",
      "blockNumber": "0x2aa3fa3",
      "gasUsed": "0x921d",
      "effectiveGasPrice": "0x5d22cfc40",
      "from": "0x3a4db9e7306af09012ceb0f222d581fd1f0c6d71",
      "to": "0x1ab49e36a37ac3aaf4a74df72cc4bea885a10d27",
      "contractAddress": null,
      "l1BaseFeeScalar": "0x0",
      "l1BlobBaseFee": "0x1",
      "l1BlobBaseFeeScalar": "0x0",
      "l1Fee": "0x0",
      "l1GasPrice": "0xa",
      "l1GasUsed": "0x640"
    },
    {
      "status": "0x1",
      "cumulativeGasUsed": "0x16879",
      "logs": [
        {
          "address": "0x1ab49e36a37ac3aaf4a74df72cc4bea885a10d27",
          "topics": [
            "0x8c5be1e5ebec7d5bd14f71427d1e84f3dd0314c0f7b2291e5b200ac8c7c3b925",
            "0x0000000000000000000000003a4db9e7306af09012ceb0f222d581fd1f0c6d71",
            "0x00000000000000000000000048c365a5cffae7b39400e062dea26669d6973007"
          ],
          "data": "0x000000000000000000000000000000000000000000000000000000001e2cc310",
          "blockHash": "0xca05ed690e0b1d8e147ac3699ee8194ed7739c687a815faceeeb7679b276cd7e",
          "blockNumber": "0x2aa3fa8",
          "transactionHash": "0x708b08f425e34acd2746c716584e3b1c310eb726f2b617e71031029e0d5d8370",
          "transactionIndex": "0x1",
          "logIndex": "0x0",
          "removed": false
        }
      ],
      "logsBloom": "0x00000000000000000008000000000000000000000000000000000000000000000000800000000000000000000000000000000000000000000000000000200000000000000000000000000000000000000000000000000000000000000000000000000000000000000000000000008000000000000000000000000000000000000000000000000000000000000000400000000000000000000000000000000000020000000000000020000000000002000000000000000000000000000000000000000000000080000000000000000000000000000000001000000000000000000010000000000000000000000000000000000000000000000000000000000020",
      "type": "0x0",
      "transactionHash": "0x708b08f425e34acd2746c716584e3b1c310eb726f2b617e71031029e0d5d8370",
      "transactionIndex": "0x1",
      "blockHash": "0xca05ed690e0b1d8e147ac3699ee8194ed7739c687a815faceeeb7679b276cd7e",
      "blockNumber": "0x2aa3fa8",
      "gasUsed": "0xbd8b",
      "effectiveGasPrice": "0x5d22cfc40",
      "from": "0x3a4db9e7306af09012ceb0f222d581fd1f0c6d71",
      "to": "0x1ab49e36a37ac3aaf4a74df72cc4bea885a10d27",
      "contractAddress": null,
      "l1BaseFeeScalar": "0x0",
      "l1BlobBaseFee": "0x1",
      "l1BlobBaseFeeScalar": "0x0",
      "l1Fee": "0x0",
      "l1GasPrice": "0x9",
      "l1GasUsed": "0x640"
    },
    {
      "status": "0x1",
      "cumulativeGasUsed": "0x218c9",
      "logs": [
        {
          "address": "0x1ab49e36a37ac3aaf4a74df72cc4bea885a10d27",
          "topics": [
            "0xddf252ad1be2c89b69c2b068fc378daa952ba7f163c4a11628f55a4df523b3ef",
            "0x0000000000000000000000003a4db9e7306af09012ceb0f222d581fd1f0c6d71",
            "0x00000000000000000000000048c365a5cffae7b39400e062dea26669d6973007"
          ],
          "data": "0x000000000000000000000000000000000000000000000000000000001e2cc310",
          "blockHash": "0xb735f77d0621d57e6ad939d369cdf17c3a0059c2371348c00822ba4f74c0b36a",
          "blockNumber": "0x2aa3fac",
          "transactionHash": "0xe26af59bff047681c68f1075862d28ce03f3355d2c9cde15f25085018407e711",
          "transactionIndex": "0x1",
          "logIndex": "0x0",
          "removed": false
        },
        {
          "address": "0x1ab49e36a37ac3aaf4a74df72cc4bea885a10d27",
          "topics": [
            "0x8c5be1e5ebec7d5bd14f71427d1e84f3dd0314c0f7b2291e5b200ac8c7c3b925",
            "0x00000000000000000000000048c365a5cffae7b39400e062dea26669d6973007",
            "0x000000000000000000000000056a9aec78d851f8e977401d1ef182c57aa3e219"
          ],
          "data": "0x000000000000000000000000000000000000000000000000000000001e2cc310",
          "blockHash": "0xb735f77d0621d57e6ad939d369cdf17c3a0059c2371348c00822ba4f74c0b36a",
          "blockNumber": "0x2aa3fac",
          "transactionHash": "0xe26af59bff047681c68f1075862d28ce03f3355d2c9cde15f25085018407e711",
          "transactionIndex": "0x1",
          "logIndex": "0x1",
          "removed": false
        },
        {
          "address": "0x48c365a5cffae7b39400e062dea26669d6973007",
          "topics": [
            "0x0d4979b0859a1951f8ed7cbe3b1994e740552588f27ba02ca0f8f1ddcad16e0c",
            "0x0000000000000000000000000000000000000000000000000000000000000002"
          ],
          "data": "0x000000000000000000000000000000000000000000000000000000001e2cc310",
          "blockHash": "0xb735f77d0621d57e6ad939d369cdf17c3a0059c2371348c00822ba4f74c0b36a",
          "blockNumber": "0x2aa3fac",
          "transactionHash": "0xe26af59bff047681c68f1075862d28ce03f3355d2c9cde15f25085018407e711",
          "transactionIndex": "0x1",
          "logIndex": "0x2",
          "removed": false
        }
      ],
      "logsBloom": "0x04000000000000000008000010000000000000000000000000000000000000000000800010000000000000000080000000000000000000000000000000200000000000000000000000000008000000000000002000000000000000000000000080000000000000000000000000008000000000000000000000000010000000000000000000000000000000000000400000000000000000000000000000000000020000000000000020000100000002000000000000000000000800000000000000000002000082000000000000000000000000000000001000000000000000000010000000000000000000000000000000000000008400000000000000000220",
      "type": "0x0",
      "transactionHash": "0xe26af59bff047681c68f1075862d28ce03f3355d2c9cde15f25085018407e711",
      "transactionIndex": "0x1",
      "blockHash": "0xb735f77d0621d57e6ad939d369cdf17c3a0059c2371348c00822ba4f74c0b36a",
      "blockNumber": "0x2aa3fac",
      "gasUsed": "0x16ddb",
      "effectiveGasPrice": "0x5d22cfc40",
      "from": "0x3a4db9e7306af09012ceb0f222d581fd1f0c6d71",
      "to": "0x48c365a5cffae7b39400e062dea26669d6973007",
      "contractAddress": null,
      "l1BaseFeeScalar": "0x0",
      "l1BlobBaseFee": "0x1",
      "l1BlobBaseFeeScalar": "0x0",
      "l1Fee": "0x0",
      "l1GasPrice": "0x9",
      "l1GasUsed": "0x640"
    }
  ],
  "libraries": [],
  "pending": [],
  "returns": {},
  "timestamp": 1745667173,
  "chain": 44787,
  "commit": "1cefd9d"
}