{
  "transactions": [
    {
      "hash": "0xdc68c754cf7022990ea31795d073e51004efea71ef374f9b54d742b8068bddab",
      "transactionType": "CALL",
      "contractName": null,
      "contractAddress": "0x1ab49e36a37ac3aaf4a74df72cc4bea885a10d27",
      "function": "approve(address,uint256)",
      "arguments": [
        "0x48C365A5cFfAe7B39400e062dEA26669D6973007",
        "253125000"
      ],
      "transaction": {
        "from": "0x3a4db9e7306af09012ceb0f222d581fd1f0c6d71",
        "to": "0x1ab49e36a37ac3aaf4a74df72cc4bea885a10d27",
        "gas": "0x11534",
        "value": "0x0",
        "input": "0x095ea7b300000000000000000000000048c365a5cffae7b39400e062dea26669d6973007000000000000000000000000000000000000000000000000000000000f166188",
        "nonce": "0x124",
        "chainId": "0xaef3"
      },
      "additionalContracts": [],
      "isFixedGasLimit": false
    },
    {
      "hash": "0x885ee76fd0d507e7c8827cbbf82420e17a1d4dd5ba36eb13810e1288890b1762",
      "transactionType": "CALL",
      "contractName": null,
      "contractAddress": "0x48c365a5cffae7b39400e062dea26669d6973007",
      "function": "repayDebt(uint256,uint256)",
      "arguments": [
        "2",
        "253125000"
      ],
      "transaction": {
        "from": "0x3a4db9e7306af09012ceb0f222d581fd1f0c6d71",
        "to": "0x48c365a5cffae7b39400e062dea26669d6973007",
        "gas": "0x2170f",
        "value": "0x0",
        "input": "0x015cb0a50000000000000000000000000000000000000000000000000000000000000002000000000000000000000000000000000000000000000000000000000f166188",
        "nonce": "0x125",
        "chainId": "0xaef3"
      },
      "additionalContracts": [],
      "isFixedGasLimit": false
    }
  ],
  "receipts": [
    {
      "status": "0x1",
      "cumulativeGasUsed": "0x105a86",
      "logs": [
        {
          "address": "0x1ab49e36a37ac3aaf4a74df72cc4bea885a10d27",
          "topics": [
            "0x8c5be1e5ebec7d5bd14f71427d1e84f3dd0314c0f7b2291e5b200ac8c7c3b925",
            "0x0000000000000000000000003a4db9e7306af09012ceb0f222d581fd1f0c6d71",
            "0x00000000000000000000000048c365a5cffae7b39400e062dea26669d6973007"
          ],
          "data": "0x000000000000000000000000000000000000000000000000000000000f166188",
          "blockHash": "0xa28c7a0694a8086a2b1e3a5dfdbe15780490e6ef132a11eea9851db170425b35",
          "blockNumber": "0x2aa47b3",
          "transactionHash": "0xdc68c754cf7022990ea31795d073e51004efea71ef374f9b54d742b8068bddab",
          "transactionIndex": "0x6",
          "logIndex": "0x7",
          "removed": false
        }
      ],
      "logsBloom": "0x00000000000000000008000000000000000000000000000000000000000000000000800000000000000000000000000000000000000000000000000000200000000000000000000000000000000000000000000000000000000000000000000000000000000000000000000000008000000000000000000000000000000000000000000000000000000000000000400000000000000000000000000000000000020000000000000020000000000002000000000000000000000000000000000000000000000080000000000000000000000000000000001000000000000000000010000000000000000000000000000000000000000000000000000000000020",
      "type": "0x0",
      "transactionHash": "0xdc68c754cf7022990ea31795d073e51004efea71ef374f9b54d742b8068bddab",
      "transactionIndex": "0x6",
      "blockHash": "0xa28c7a0694a8086a2b1e3a5dfdbe15780490e6ef132a11eea9851db170425b35",
      "blockNumber": "0x2aa47b3",
      "gasUsed": "0xbd8b",
      "effectiveGasPrice": "0x5d22cfc40",
      "from": "0x3a4db9e7306af09012ceb0f222d581fd1f0c6d71",
      "to": "0x1ab49e36a37ac3aaf4a74df72cc4bea885a10d27",
      "contractAddress": null,
      "l1BaseFeeScalar": "0x0",
      "l1BlobBaseFee": "0x1",
      "l1BlobBaseFeeScalar": "0x0",
      "l1Fee": "0x0",
      "l1GasPrice": "0xc",
      "l1GasUsed": "0x640"
    },
    {
      "status": "0x1",
      "cumulativeGasUsed": "0x11c861",
      "logs": [
        {
          "address": "0x1ab49e36a37ac3aaf4a74df72cc4bea885a10d27",
          "topics": [
            "0xddf252ad1be2c89b69c2b068fc378daa952ba7f163c4a11628f55a4df523b3ef",
            "0x0000000000000000000000003a4db9e7306af09012ceb0f222d581fd1f0c6d71",
            "0x00000000000000000000000048c365a5cffae7b39400e062dea26669d6973007"
          ],
          "data": "0x000000000000000000000000000000000000000000000000000000000f166188",
          "blockHash": "0xa28c7a0694a8086a2b1e3a5dfdbe15780490e6ef132a11eea9851db170425b35",
          "blockNumber": "0x2aa47b3",
          "transactionHash": "0x885ee76fd0d507e7c8827cbbf82420e17a1d4dd5ba36eb13810e1288890b1762",
          "transactionIndex": "0x7",
          "logIndex": "0x8",
          "removed": false
        },
        {
          "address": "0x1ab49e36a37ac3aaf4a74df72cc4bea885a10d27",
          "topics": [
            "0x8c5be1e5ebec7d5bd14f71427d1e84f3dd0314c0f7b2291e5b200ac8c7c3b925",
            "0x00000000000000000000000048c365a5cffae7b39400e062dea26669d6973007",
            "0x000000000000000000000000056a9aec78d851f8e977401d1ef182c57aa3e219"
          ],
          "data": "0x000000000000000000000000000000000000000000000000000000000f166188",
          "blockHash": "0xa28c7a0694a8086a2b1e3a5dfdbe15780490e6ef132a11eea9851db170425b35",
          "blockNumber": "0x2aa47b3",
          "transactionHash": "0x885ee76fd0d507e7c8827cbbf82420e17a1d4dd5ba36eb13810e1288890b1762",
          "transactionIndex": "0x7",
          "logIndex": "0x9",
          "removed": false
        },
        {
          "address": "0x48c365a5cffae7b39400e062dea26669d6973007",
          "topics": [
            "0x0d4979b0859a1951f8ed7cbe3b1994e740552588f27ba02ca0f8f1ddcad16e0c",
            "0x0000000000000000000000000000000000000000000000000000000000000002"
          ],
          "data": "0x000000000000000000000000000000000000000000000000000000000f166188",
          "blockHash": "0xa28c7a0694a8086a2b1e3a5dfdbe15780490e6ef132a11eea9851db170425b35",
          "blockNumber": "0x2aa47b3",
          "transactionHash": "0x885ee76fd0d507e7c8827cbbf82420e17a1d4dd5ba36eb13810e1288890b1762",
          "transactionIndex": "0x7",
          "logIndex": "0xa",
          "removed": false
        }
      ],
      "logsBloom": "0x04000000000000000008000010000000000000000000000000000000000000000000800010000000000000000080000000000000000000000000000000200000000000000000000000000008000000000000002000000000000000000000000080000000000000000000000000008000000000000000000000000010000000000000000000000000000000000000400000000000000000000000000000000000020000000000000020000100000002000000000000000000000800000000000000000002000082000000000000000000000000000000001000000000000000000010000000000000000000000000000000000000008400000000000000000220",
      "type": "0x0",
      "transactionHash": "0x885ee76fd0d507e7c8827cbbf82420e17a1d4dd5ba36eb13810e1288890b1762",
      "transactionIndex": "0x7",
      "blockHash": "0xa28c7a0694a8086a2b1e3a5dfdbe15780490e6ef132a11eea9851db170425b35",
      "blockNumber": "0x2aa47b3",
      "gasUsed": "0x16ddb",
      "effectiveGasPrice": "0x5d22cfc40",
      "from": "0x3a4db9e7306af09012ceb0f222d581fd1f0c6d71",
      "to": "0x48c365a5cffae7b39400e062dea26669d6973007",
      "contractAddress": null,
      "l1BaseFeeScalar": "0x0",
      "l1BlobBaseFee": "0x1",
      "l1BlobBaseFeeScalar": "0x0",
      "l1Fee": "0x0",
      "l1GasPrice": "0xc",
      "l1GasUsed": "0x640"
    }
  ],
  "libraries": [],
  "pending": [],
  "returns": {},
  "timestamp": 1745669227,
  "chain": 44787,
  "commit": "1cefd9d"
}