{
  "transactions": [
    {
      "hash": "0x0726bd0ac08097c1c2948ce986a307a297b33c076616bb3ada4b990f687b0e05",
      "transactionType": "CALL",
      "contractName": null,
      "contractAddress": "0x48c365a5cffae7b39400e062dea26669d6973007",
      "function": "withdrawCollateral(uint256,uint256)",
      "arguments": [
        "2",
        "200000000000000000000"
      ],
      "transaction": {
        "from": "0x3a4db9e7306af09012ceb0f222d581fd1f0c6d71",
        "to": "0x48c365a5cffae7b39400e062dea26669d6973007",
        "gas": "0x1c7a9",
        "value": "0x0",
        "input": "0x767a7b05000000000000000000000000000000000000000000000000000000000000000200000000000000000000000000000000000000000000000ad78ebc5ac6200000",
        "nonce": "0x117",
        "chainId": "0xaef3"
      },
      "additionalContracts": [],
      "isFixedGasLimit": false
    }
  ],
  "receipts": [
    {
      "status": "0x1",
      "cumulativeGasUsed": "0x1f4d2",
      "logs": [
        {
          "address": "0x0d8af705d767e7b63250a6ac90fe2968ae062c0d",
          "topics": [
            "0xddf252ad1be2c89b69c2b068fc378daa952ba7f163c4a11628f55a4df523b3ef",
            "0x000000000000000000000000056a9aec78d851f8e977401d1ef182c57aa3e219",
            "0x0000000000000000000000003a4db9e7306af09012ceb0f222d581fd1f0c6d71"
          ],
          "data": "0x00000000000000000000000000000000000000000000000ad78ebc5ac6200000",
          "blockHash": "0x7d8d634fb01998d8ccb7b4c836844920b3af8ec4818ec78c51cc4a2bc8dece40",
          "blockNumber": "0x2aa3ee7",
          "transactionHash": "0x0726bd0ac08097c1c2948ce986a307a297b33c076616bb3ada4b990f687b0e05",
          "transactionIndex": "0x1",
          "logIndex": "0x0",
          "removed": false
        },
        {
          "address": "0x48c365a5cffae7b39400e062dea26669d6973007",
          "topics": [
            "0x2399e8aed1977410745a5211d8226a3a7d9278f50a8a197c5ec6e285bb437f0b",
            "0x0000000000000000000000000000000000000000000000000000000000000002"
          ],
          "data": "0x00000000000000000000000000000000000000000000000ad78ebc5ac6200000",
          "blockHash": "0x7d8d634fb01998d8ccb7b4c836844920b3af8ec4818ec78c51cc4a2bc8dece40",
          "blockNumber": "0x2aa3ee7",
          "transactionHash": "0x0726bd0ac08097c1c2948ce986a307a297b33c076616bb3ada4b990f687b0e05",
          "transactionIndex": "0x1",
          "logIndex": "0x1",
          "removed": false
        }
      ],
      "logsBloom": "0x44000000000000000000000000000000000000000000000000000000000000000000000010000000000000000080000000000000000000000000000000000000000000000000000000000008000000000000000000000000000000000000000000000000000000000000000000000000000000000020000000000010000000000000000000000000000000000000400000000000000060000000000000000000000000000000000000000104000000000000000000000000000800000000000000000002000082000000040000000000000000000000001000000000000000000000000000000000000000000000000000000000008400000000000000000200",
      "type": "0x0",
      "transactionHash": "0x0726bd0ac08097c1c2948ce986a307a297b33c076616bb3ada4b990f687b0e05",
      "transactionIndex": "0x1",
      "blockHash": "0x7d8d634fb01998d8ccb7b4c836844920b3af8ec4818ec78c51cc4a2bc8dece40",
      "blockNumber": "0x2aa3ee7",
      "gasUsed": "0x149e4",
      "effectiveGasPrice": "0x5d22cfc40",
      "from": "0x3a4db9e7306af09012ceb0f222d581fd1f0c6d71",
      "to": "0x48c365a5cffae7b39400e062dea26669d6973007",
      "contractAddress": null,
      "l1BaseFeeScalar": "0x0",
      "l1BlobBaseFee": "0x1",
      "l1BlobBaseFeeScalar": "0x0",
      "l1Fee": "0x0",
      "l1GasPrice": "0xa",
      "l1GasUsed": "0x640"
    }
  ],
  "libraries": [],
  "pending": [],
  "returns": {},
  "timestamp": 1745666977,
  "chain": 44787,
  "commit": "1cefd9d"
}