{
  "transactions": [
    {
      "hash": "0x709b633a27e93aaf81dc2bd474b4d4ce111644231ba1b308289612464c367df3",
      "transactionType": "CALL",
      "contractName": null,
      "contractAddress": "0x0d8af705d767e7b63250a6ac90fe2968ae062c0d",
      "function": "mint(address,uint256)",
      "arguments": [
        "0x3A4dB9e7306aF09012ceb0f222d581FD1F0C6D71",
        "500000000000000000000"
      ],
      "transaction": {
        "from": "0x3a4db9e7306af09012ceb0f222d581fd1f0c6d71",
        "to": "0x0d8af705d767e7b63250a6ac90fe2968ae062c0d",
        "gas": "0xd5e5",
        "value": "0x0",
        "input": "0x40c10f190000000000000000000000003a4db9e7306af09012ceb0f222d581fd1f0c6d7100000000000000000000000000000000000000000000001b1ae4d6e2ef500000",
        "nonce": "0x10c",
        "chainId": "0xaef3"
      },
      "additionalContracts": [],
      "isFixedGasLimit": false
    },
    {
      "hash": "0xb2c206564cedf6c987ed47ebe47c8017dbbdf5475ea0afee8cb306981e8a0a1a",
      "transactionType": "CALL",
      "contractName": null,
      "contractAddress": "0x0d8af705d767e7b63250a6ac90fe2968ae062c0d",
      "function": "approve(address,uint256)",
      "arguments": [
        "0x48C365A5cFfAe7B39400e062dEA26669D6973007",
        "500000000000000000000"
      ],
      "transaction": {
        "from": "0x3a4db9e7306af09012ceb0f222d581fd1f0c6d71",
        "to": "0x0d8af705d767e7b63250a6ac90fe2968ae062c0d",
        "gas": "0x105fe",
        "value": "0x0",
        "input": "0x095ea7b300000000000000000000000048c365a5cffae7b39400e062dea26669d697300700000000000000000000000000000000000000000000001b1ae4d6e2ef500000",
        "nonce": "0x10d",
        "chainId": "0xaef3"
      },
      "additionalContracts": [],
      "isFixedGasLimit": false
    },
    {
      "hash": "0xb4bf12419e3ffcc09d1f1f15c9a645dfb7cee4fb193b95b941b16f2d57ea0ed9",
      "transactionType": "CALL",
      "contractName": null,
      "contractAddress": "0x48c365a5cffae7b39400e062dea26669d6973007",
      "function": "addCollateral(uint256,uint256)",
      "arguments": [
        "1",
        "500000000000000000000"
      ],
      "transaction": {
        "from": "0x3a4db9e7306af09012ceb0f222d581fd1f0c6d71",
        "to": "0x48c365a5cffae7b39400e062dea26669d6973007",
        "gas": "0x21c14",
        "value": "0x0",
        "input": "0xa8f35adf000000000000000000000000000000000000000000000000000000000000000100000000000000000000000000000000000000000000001b1ae4d6e2ef500000",
        "nonce": "0x10e",
        "chainId": "0xaef3"
      },
      "additionalContracts": [],
      "isFixedGasLimit": false
    }
  ],
  "receipts": [
    {
      "status": "0x1",
      "cumulativeGasUsed": "0x1e3b1d",
      "logs": [
        {
          "address": "0x0d8af705d767e7b63250a6ac90fe2968ae062c0d",
          "topics": [
            "0xddf252ad1be2c89b69c2b068fc378daa952ba7f163c4a11628f55a4df523b3ef",
            "0x0000000000000000000000000000000000000000000000000000000000000000",
            "0x0000000000000000000000003a4db9e7306af09012ceb0f222d581fd1f0c6d71"
          ],
          "data": "0x00000000000000000000000000000000000000000000001b1ae4d6e2ef500000",
          "blockHash": "0x4ec412e471739805c5bd33db803373ec132b7f33c8ceafd22d71144456325961",
          "blockNumber": "0x2aa3da1",
          "transactionHash": "0x709b633a27e93aaf81dc2bd474b4d4ce111644231ba1b308289612464c367df3",
          "transactionIndex": "0xb",
          "logIndex": "0x10",
          "removed": false
        }
      ],
      "logsBloom": "0x40000000000000000000000000000000000000000000000000000000000000000000000000000000000000000000000000000000000000000000000000000000000000000000000000000008000000000000000000000000000000000000000000000000020000000000000000000800000000000000000000000010000000000000000000000000000000000000400000000000000000000000000000000000000000000000000000000004000000000000000000000000000000000000000000000002000080000000040000000000000000000000001000000000000020000000000000000000000000000000000000000000000000000000000000000000",
      "type": "0x0",
      "transactionHash": "0x709b633a27e93aaf81dc2bd474b4d4ce111644231ba1b308289612464c367df3",
      "transactionIndex": "0xb",
      "blockHash": "0x4ec412e471739805c5bd33db803373ec132b7f33c8ceafd22d71144456325961",
      "blockNumber": "0x2aa3da1",
      "gasUsed": "0x9241",
      "effectiveGasPrice": "0x5d22cfc40",
      "from": "0x3a4db9e7306af09012ceb0f222d581fd1f0c6d71",
      "to": "0x0d8af705d767e7b63250a6ac90fe2968ae062c0d",
      "contractAddress": null,
      "l1BaseFeeScalar": "0x0",
      "l1BlobBaseFee": "0x1",
      "l1BlobBaseFeeScalar": "0x0",
      "l1Fee": "0x0",
      "l1GasPrice": "0x8",
      "l1GasUsed": "0x640"
    },
    {
      "status": "0x1",
      "cumulativeGasUsed": "0x1689d",
      "logs": [
        {
          "address": "0x0d8af705d767e7b63250a6ac90fe2968ae062c0d",
          "topics": [
            "0x8c5be1e5ebec7d5bd14f71427d1e84f3dd0314c0f7b2291e5b200ac8c7c3b925",
            "0x0000000000000000000000003a4db9e7306af09012ceb0f222d581fd1f0c6d71",
            "0x00000000000000000000000048c365a5cffae7b39400e062dea26669d6973007"
          ],
          "data": "0x00000000000000000000000000000000000000000000001b1ae4d6e2ef500000",
          "blockHash": "0x738683b7bdb6ad49f2f9fcd79419c85f01b6dbb803a25c9897859c2482a3cab2",
          "blockNumber": "0x2aa3da5",
          "transactionHash": "0xb2c206564cedf6c987ed47ebe47c8017dbbdf5475ea0afee8cb306981e8a0a1a",
          "transactionIndex": "0x1",
          "logIndex": "0x0",
          "removed": false
        }
      ],
      "logsBloom": "0x40000000000000000008000000000000000000000000000000000000000000000000000000000000000000000000000000000000000000000000000000200000000000000000000000000000000000000000000000000000000000000000000000000000000000000000000000000000000000000000000000000000000000000000000000000000000000000000400000000000000000000000000000000000020000000000000000000004000002000000000000000000000000000000000000000000000080000000040000000000000000000000001000000000000000000010000000000000000000000000000000000000000000000000000000000020",
      "type": "0x0",
      "transactionHash": "0xb2c206564cedf6c987ed47ebe47c8017dbbdf5475ea0afee8cb306981e8a0a1a",
      "transactionIndex": "0x1",
      "blockHash": "0x738683b7bdb6ad49f2f9fcd79419c85f01b6dbb803a25c9897859c2482a3cab2",
      "blockNumber": "0x2aa3da5",
      "gasUsed": "0xbdaf",
      "effectiveGasPrice": "0x5d22cfc40",
      "from": "0x3a4db9e7306af09012ceb0f222d581fd1f0c6d71",
      "to": "0x0d8af705d767e7b63250a6ac90fe2968ae062c0d",
      "contractAddress": null,
      "l1BaseFeeScalar": "0x0",
      "l1BlobBaseFee": "0x1",
      "l1BlobBaseFeeScalar": "0x0",
      "l1Fee": "0x0",
      "l1GasPrice": "0x8",
      "l1GasUsed": "0x640"
    },
    {
      "status": "0x1",
      "cumulativeGasUsed": "0x21c37",
      "logs": [
        {
          "address": "0x0d8af705d767e7b63250a6ac90fe2968ae062c0d",
          "topics": [
            "0xddf252ad1be2c89b69c2b068fc378daa952ba7f163c4a11628f55a4df523b3ef",
            "0x0000000000000000000000003a4db9e7306af09012ceb0f222d581fd1f0c6d71",
            "0x00000000000000000000000048c365a5cffae7b39400e062dea26669d6973007"
          ],
          "data": "0x00000000000000000000000000000000000000000000001b1ae4d6e2ef500000",
          "blockHash": "0xc5e1c68ba287fbefa64a926e95a9a0233c8b5f463ad648fa09ea13b410d03a19",
          "blockNumber": "0x2aa3da9",
          "transactionHash": "0xb4bf12419e3ffcc09d1f1f15c9a645dfb7cee4fb193b95b941b16f2d57ea0ed9",
          "transactionIndex": "0x1",
          "logIndex": "0x0",
          "removed": false
        },
        {
          "address": "0x0d8af705d767e7b63250a6ac90fe2968ae062c0d",
          "topics": [
            "0x8c5be1e5ebec7d5bd14f71427d1e84f3dd0314c0f7b2291e5b200ac8c7c3b925",
            "0x00000000000000000000000048c365a5cffae7b39400e062dea26669d6973007",
            "0x000000000000000000000000056a9aec78d851f8e977401d1ef182c57aa3e219"
          ],
          "data": "0x00000000000000000000000000000000000000000000001b1ae4d6e2ef500000",
          "blockHash": "0xc5e1c68ba287fbefa64a926e95a9a0233c8b5f463ad648fa09ea13b410d03a19",
          "blockNumber": "0x2aa3da9",
          "transactionHash": "0xb4bf12419e3ffcc09d1f1f15c9a645dfb7cee4fb193b95b941b16f2d57ea0ed9",
          "transactionIndex": "0x1",
          "logIndex": "0x1",
          "removed": false
        },
        {
          "address": "0x48c365a5cffae7b39400e062dea26669d6973007",
          "topics": [
            "0x244160b15e69cc411f041d94ae7fab6f6bba85dade8403216c05ff4b920d5449",
            "0x0000000000000000000000000000000000000000000000000000000000000001"
          ],
          "data": "0x00000000000000000000000000000000000000000000001b1ae4d6e2ef500000",
          "blockHash": "0xc5e1c68ba287fbefa64a926e95a9a0233c8b5f463ad648fa09ea13b410d03a19",
          "blockNumber": "0x2aa3da9",
          "transactionHash": "0xb4bf12419e3ffcc09d1f1f15c9a645dfb7cee4fb193b95b941b16f2d57ea0ed9",
          "transactionIndex": "0x1",
          "logIndex": "0x2",
          "removed": false
        }
      ],
      "logsBloom": "0x40000000000000000008000000000000000000000000000000000000000000000000000010000000000000000080000000000000000200000000000000240000000000000000000000000008000000000000000000040000000000000000000000000000000000000000000000000000000000000000000000000010000000000000000000000000000000000000400000000000000000000000000000000000020000000000000000000004000002000000000000000000000800000000000000000002000082000000040000000010000000000000001000000000000040000010000000000080000000000000000000000000000400000000000000000220",
      "type": "0x0",
      "transactionHash": "0xb4bf12419e3ffcc09d1f1f15c9a645dfb7cee4fb193b95b941b16f2d57ea0ed9",
      "transactionIndex": "0x1",
      "blockHash": "0xc5e1c68ba287fbefa64a926e95a9a0233c8b5f463ad648fa09ea13b410d03a19",
      "blockNumber": "0x2aa3da9",
      "gasUsed": "0x17149",
      "effectiveGasPrice": "0x5d22cfc40",
      "from": "0x3a4db9e7306af09012ceb0f222d581fd1f0c6d71",
      "to": "0x48c365a5cffae7b39400e062dea26669d6973007",
      "contractAddress": null,
      "l1BaseFeeScalar": "0x0",
      "l1BlobBaseFee": "0x1",
      "l1BlobBaseFeeScalar": "0x0",
      "l1Fee": "0x0",
      "l1GasPrice": "0x8",
      "l1GasUsed": "0x640"
    }
  ],
  "libraries": [],
  "pending": [],
  "returns": {},
  "timestamp": 1745666658,
  "chain": 44787,
  "commit": "1cefd9d"
}