{
  "transactions": [
    {
      "hash": "0x2fac9b0593ed55c1ab0e14c8a50b4c2d686d12873c28ecbd6bce940b33097139",
      "transactionType": "CALL",
      "contractName": null,
      "contractAddress": "0x0d8af705d767e7b63250a6ac90fe2968ae062c0d",
      "function": "mint(address,uint256)",
      "arguments": [
        "0x3A4dB9e7306aF09012ceb0f222d581FD1F0C6D71",
        "1000000000000000000000"
      ],
      "transaction": {
        "from": "0x3a4db9e7306af09012ceb0f222d581fd1f0c6d71",
        "to": "0x0d8af705d767e7b63250a6ac90fe2968ae062c0d",
        "gas": "0xd5e5",
        "value": "0x0",
        "input": "0x40c10f190000000000000000000000003a4db9e7306af09012ceb0f222d581fd1f0c6d7100000000000000000000000000000000000000000000003635c9adc5dea00000",
        "nonce": "0x142",
        "chainId": "0xaef3"
      },
      "additionalContracts": [],
      "isFixedGasLimit": false
    },
    {
      "hash": "0x48473203c7cc3ffb0546d71447a52757aee2a92077dc99c5cf768c8297158b11",
      "transactionType": "CALL",
      "contractName": null,
      "contractAddress": "0x1ab49e36a37ac3aaf4a74df72cc4bea885a10d27",
      "function": "mint(address,uint256)",
      "arguments": [
        "0x3A4dB9e7306aF09012ceb0f222d581FD1F0C6D71",
        "1000000000"
      ],
      "transaction": {
        "from": "0x3a4db9e7306af09012ceb0f222d581fd1f0c6d71",
        "to": "0x1ab49e36a37ac3aaf4a74df72cc4bea885a10d27",
        "gas": "0xd59f",
        "value": "0x0",
        "input": "0x40c10f190000000000000000000000003a4db9e7306af09012ceb0f222d581fd1f0c6d71000000000000000000000000000000000000000000000000000000003b9aca00",
        "nonce": "0x143",
        "chainId": "0xaef3"
      },
      "additionalContracts": [],
      "isFixedGasLimit": false
    },
    {
      "hash": "0xf91b8e579477a87dc7847468ed3403bae73c3a23421be682de63cbbd6dcd9f1d",
      "transactionType": "CALL",
      "contractName": null,
      "contractAddress": "0x0d8af705d767e7b63250a6ac90fe2968ae062c0d",
      "function": "approve(address,uint256)",
      "arguments": [
        "0x48C365A5cFfAe7B39400e062dEA26669D6973007",
        "1000000000000000000000"
      ],
      "transaction": {
        "from": "0x3a4db9e7306af09012ceb0f222d581fd1f0c6d71",
        "to": "0x0d8af705d767e7b63250a6ac90fe2968ae062c0d",
        "gas": "0x105fe",
        "value": "0x0",
        "input": "0x095ea7b300000000000000000000000048c365a5cffae7b39400e062dea26669d697300700000000000000000000000000000000000000000000003635c9adc5dea00000",
        "nonce": "0x144",
        "chainId": "0xaef3"
      },
      "additionalContracts": [],
      "isFixedGasLimit": false
    },
    {
      "hash": "0x10beca45b63a69ac13c9d1ce928eaf202569d9a0ccef05311e98d1636030dcbb",
      "transactionType": "CALL",
      "contractName": null,
      "contractAddress": "0x48c365a5cffae7b39400e062dea26669d6973007",
      "function": "createPosition(address,uint256,address,uint256,uint256)",
      "arguments": [
        "0x0D8Af705d767e7b63250A6ac90Fe2968AE062c0D",
        "1000000000000000000000",
        "0x1ab49E36A37Ac3aAf4a74dF72cC4Bea885a10D27",
        "500000000",
        "2"
      ],
      "transaction": {
        "from": "0x3a4db9e7306af09012ceb0f222d581fd1f0c6d71",
        "to": "0x48c365a5cffae7b39400e062dea26669d6973007",
        "gas": "0x7350c",
        "value": "0x0",
        "input": "0xb0c3d5df0000000000000000000000000d8af705d767e7b63250a6ac90fe2968ae062c0d00000000000000000000000000000000000000000000003635c9adc5dea000000000000000000000000000001ab49e36a37ac3aaf4a74df72cc4bea885a10d27000000000000000000000000000000000000000000000000000000001dcd65000000000000000000000000000000000000000000000000000000000000000002",
        "nonce": "0x145",
        "chainId": "0xaef3"
      },
      "additionalContracts": [],
      "isFixedGasLimit": false
    },
    {
      "hash": "0xcf613fb1e91cdec6ef0709f7734cfdfab48583da578d5f48a6d748b844695297",
      "transactionType": "CALL",
      "contractName": null,
      "contractAddress": "0x0d8af705d767e7b63250a6ac90fe2968ae062c0d",
      "function": "approve(address,uint256)",
      "arguments": [
        "0x48C365A5cFfAe7B39400e062dEA26669D6973007",
        "500000000000000000000"
      ],
      "transaction": {
        "from": "0x3a4db9e7306af09012ceb0f222d581fd1f0c6d71",
        "to": "0x0d8af705d767e7b63250a6ac90fe2968ae062c0d",
        "gas": "0x105fe",
        "value": "0x0",
        "input": "0x095ea7b300000000000000000000000048c365a5cffae7b39400e062dea26669d697300700000000000000000000000000000000000000000000001b1ae4d6e2ef500000",
        "nonce": "0x146",
        "chainId": "0xaef3"
      },
      "additionalContracts": [],
      "isFixedGasLimit": false
    },
    {
      "hash": "0x1ddf01dcf3d5ab877389260b9dcf0492bc7352e44bfe8d2ef56413c8c97db5ba",
      "transactionType": "CALL",
      "contractName": null,
      "contractAddress": "0x48c365a5cffae7b39400e062dea26669d6973007",
      "function": "addCollateral(uint256,uint256)",
      "arguments": [
        "8",
        "500000000000000000000"
      ],
      "transaction": {
        "from": "0x3a4db9e7306af09012ceb0f222d581fd1f0c6d71",
        "to": "0x48c365a5cffae7b39400e062dea26669d6973007",
        "gas": "0x21c14",
        "value": "0x0",
        "input": "0xa8f35adf000000000000000000000000000000000000000000000000000000000000000800000000000000000000000000000000000000000000001b1ae4d6e2ef500000",
        "nonce": "0x147",
        "chainId": "0xaef3"
      },
      "additionalContracts": [],
      "isFixedGasLimit": false
    },
    {
      "hash": "0xdddfa07e87d694a8d00ada9710fd31a05e04487b111c0fee7dc4207e7ed6d73e",
      "transactionType": "CALL",
      "contractName": null,
      "contractAddress": "0x48c365a5cffae7b39400e062dea26669d6973007",
      "function": "increaseBorrow(uint256,uint256)",
      "arguments": [
        "8",
        "250000000"
      ],
      "transaction": {
        "from": "0x3a4db9e7306af09012ceb0f222d581fd1f0c6d71",
        "to": "0x48c365a5cffae7b39400e062dea26669d6973007",
        "gas": "0x23b7b",
        "value": "0x0",
        "input": "0x9e6824d90000000000000000000000000000000000000000000000000000000000000008000000000000000000000000000000000000000000000000000000000ee6b280",
        "nonce": "0x148",
        "chainId": "0xaef3"
      },
      "additionalContracts": [],
      "isFixedGasLimit": false
    },
    {
      "hash": "0xa5375fa5b058916e4e58115672747f7ce30dc595592f9845e418476fbad6eb23",
      "transactionType": "CALL",
      "contractName": null,
      "contractAddress": "0x1ab49e36a37ac3aaf4a74df72cc4bea885a10d27",
      "function": "approve(address,uint256)",
      "arguments": [
        "0x48C365A5cFfAe7B39400e062dEA26669D6973007",
        "375000000"
      ],
      "transaction": {
        "from": "0x3a4db9e7306af09012ceb0f222d581fd1f0c6d71",
        "to": "0x1ab49e36a37ac3aaf4a74df72cc4bea885a10d27",
        "gas": "0x11534",
        "value": "0x0",
        "input": "0x095ea7b300000000000000000000000048c365a5cffae7b39400e062dea26669d697300700000000000000000000000000000000000000000000000000000000165a0bc0",
        "nonce": "0x149",
        "chainId": "0xaef3"
      },
      "additionalContracts": [],
      "isFixedGasLimit": false
    },
    {
      "hash": "0x475fbc08bfeccafdadbf61fee8805c0f5c06fa8516d94a98bf001f384332fd40",
      "transactionType": "CALL",
      "contractName": null,
      "contractAddress": "0x48c365a5cffae7b39400e062dea26669d6973007",
      "function": "repayDebt(uint256,uint256)",
      "arguments": [
        "8",
        "375000000"
      ],
      "transaction": {
        "from": "0x3a4db9e7306af09012ceb0f222d581fd1f0c6d71",
        "to": "0x48c365a5cffae7b39400e062dea26669d6973007",
        "gas": "0x2170f",
        "value": "0x0",
        "input": "0x015cb0a5000000000000000000000000000000000000000000000000000000000000000800000000000000000000000000000000000000000000000000000000165a0bc0",
        "nonce": "0x14a",
        "chainId": "0xaef3"
      },
      "additionalContracts": [],
      "isFixedGasLimit": false
    },
    {
      "hash": "0x2ae80cf6a2847426790137c28ccf74d98e49a4ee7b34f0ee57c4e94f62e4d992",
      "transactionType": "CALL",
      "contractName": null,
      "contractAddress": "0x48c365a5cffae7b39400e062dea26669d6973007",
      "function": "withdrawCollateral(uint256,uint256)",
      "arguments": [
        "8",
        "300000000000000000000"
      ],
      "transaction": {
        "from": "0x3a4db9e7306af09012ceb0f222d581fd1f0c6d71",
        "to": "0x48c365a5cffae7b39400e062dea26669d6973007",
        "gas": "0x1c7a9",
        "value": "0x0",
        "input": "0x767a7b05000000000000000000000000000000000000000000000000000000000000000800000000000000000000000000000000000000000000001043561a8829300000",
        "nonce": "0x14b",
        "chainId": "0xaef3"
      },
      "additionalContracts": [],
      "isFixedGasLimit": false
    },
    {
      "hash": "0xd00cf82313d6b78f82deb9fa814cbe24d3b09e9f8a3da7102b267aae934d1d5b",
      "transactionType": "CALL",
      "contractName": null,
      "contractAddress": "0x0d8af705d767e7b63250a6ac90fe2968ae062c0d",
      "function": "mint(address,uint256)",
      "arguments": [
        "0x3A4dB9e7306aF09012ceb0f222d581FD1F0C6D71",
        "500000000000000000000"
      ],
      "transaction": {
        "from": "0x3a4db9e7306af09012ceb0f222d581fd1f0c6d71",
        "to": "0x0d8af705d767e7b63250a6ac90fe2968ae062c0d",
        "gas": "0xd5e5",
        "value": "0x0",
        "input": "0x40c10f190000000000000000000000003a4db9e7306af09012ceb0f222d581fd1f0c6d7100000000000000000000000000000000000000000000001b1ae4d6e2ef500000",
        "nonce": "0x14c",
        "chainId": "0xaef3"
      },
      "additionalContracts": [],
      "isFixedGasLimit": false
    },
    {
      "hash": "0x7b705fd846f03e465458e7e5290948fb5ee5540841bbb1a48d90ac86bf24abba",
      "transactionType": "CALL",
      "contractName": null,
      "contractAddress": "0x0d8af705d767e7b63250a6ac90fe2968ae062c0d",
      "function": "approve(address,uint256)",
      "arguments": [
        "0x48C365A5cFfAe7B39400e062dEA26669D6973007",
        "500000000000000000000"
      ],
      "transaction": {
        "from": "0x3a4db9e7306af09012ceb0f222d581fd1f0c6d71",
        "to": "0x0d8af705d767e7b63250a6ac90fe2968ae062c0d",
        "gas": "0x105fe",
        "value": "0x0",
        "input": "0x095ea7b300000000000000000000000048c365a5cffae7b39400e062dea26669d697300700000000000000000000000000000000000000000000001b1ae4d6e2ef500000",
        "nonce": "0x14d",
        "chainId": "0xaef3"
      },
      "additionalContracts": [],
      "isFixedGasLimit": false
    },
    {
      "hash": "0x22c020787f52038c981aeb29a9d263e19419f4b67fd94f4ed740d95de407b107",
      "transactionType": "CALL",
      "contractName": null,
      "contractAddress": "0x48c365a5cffae7b39400e062dea26669d6973007",
      "function": "createPosition(address,uint256,address,uint256,uint256)",
      "arguments": [
        "0x0D8Af705d767e7b63250A6ac90Fe2968AE062c0D",
        "500000000000000000000",
        "0x1ab49E36A37Ac3aAf4a74dF72cC4Bea885a10D27",
        "200000000",
        "2"
      ],
      "transaction": {
        "from": "0x3a4db9e7306af09012ceb0f222d581fd1f0c6d71",
        "to": "0x48c365a5cffae7b39400e062dea26669d6973007",
        "gas": "0x7150e",
        "value": "0x0",
        "input": "0xb0c3d5df0000000000000000000000000d8af705d767e7b63250a6ac90fe2968ae062c0d00000000000000000000000000000000000000000000001b1ae4d6e2ef5000000000000000000000000000001ab49e36a37ac3aaf4a74df72cc4bea885a10d27000000000000000000000000000000000000000000000000000000000bebc2000000000000000000000000000000000000000000000000000000000000000002",
        "nonce": "0x14e",
        "chainId": "0xaef3"
      },
      "additionalContracts": [],
      "isFixedGasLimit": false
    },
    {
      "hash": "0xf791eea7521dc6b744174af91811077e4ac96f07e6fa9e6f5989b0c460dc83b1",
      "transactionType": "CALL",
      "contractName": null,
      "contractAddress": "0x1ab49e36a37ac3aaf4a74df72cc4bea885a10d27",
      "function": "approve(address,uint256)",
      "arguments": [
        "0x48C365A5cFfAe7B39400e062dEA26669D6973007",
        "200000000"
      ],
      "transaction": {
        "from": "0x3a4db9e7306af09012ceb0f222d581fd1f0c6d71",
        "to": "0x1ab49e36a37ac3aaf4a74df72cc4bea885a10d27",
        "gas": "0x105bc",
        "value": "0x0",
        "input": "0x095ea7b300000000000000000000000048c365a5cffae7b39400e062dea26669d6973007000000000000000000000000000000000000000000000000000000000bebc200",
        "nonce": "0x14f",
        "chainId": "0xaef3"
      },
      "additionalContracts": [],
      "isFixedGasLimit": false
    },
    {
      "hash": "0x32d53bafcb184b5f05914062cafcbb6405b9a6733388749725f990e467bac349",
      "transactionType": "CALL",
      "contractName": null,
      "contractAddress": "0x48c365a5cffae7b39400e062dea26669d6973007",
      "function": "closePosition(uint256)",
      "arguments": [
        "9"
      ],
      "transaction": {
        "from": "0x3a4db9e7306af09012ceb0f222d581fd1f0c6d71",
        "to": "0x48c365a5cffae7b39400e062dea26669d6973007",
        "gas": "0x2e14b",
        "value": "0x0",
        "input": "0xa126d6010000000000000000000000000000000000000000000000000000000000000009",
        "nonce": "0x150",
        "chainId": "0xaef3"
      },
      "additionalContracts": [],
      "isFixedGasLimit": false
    }
  ],
  "receipts": [
    {
      "status": "0x1",
      "cumulativeGasUsed": "0x42483",
      "logs": [
        {
          "address": "0x0d8af705d767e7b63250a6ac90fe2968ae062c0d",
          "topics": [
            "0xddf252ad1be2c89b69c2b068fc378daa952ba7f163c4a11628f55a4df523b3ef",
            "0x0000000000000000000000000000000000000000000000000000000000000000",
            "0x0000000000000000000000003a4db9e7306af09012ceb0f222d581fd1f0c6d71"
          ],
          "data": "0x00000000000000000000000000000000000000000000003635c9adc5dea00000",
          "blockHash": "0x7e5d8220e42ab29251e04163711d8d42d6d9b627e2b7a4557ef1423a4c8899c1",
          "blockNumber": "0x2aa4aca",
          "transactionHash": "0x2fac9b0593ed55c1ab0e14c8a50b4c2d686d12873c28ecbd6bce940b33097139",
          "transactionIndex": "0x2",
          "logIndex": "0x1",
          "removed": false
        }
      ],
      "logsBloom": "0x40000000000000000000000000000000000000000000000000000000000000000000000000000000000000000000000000000000000000000000000000000000000000000000000000000008000000000000000000000000000000000000000000000000020000000000000000000800000000000000000000000010000000000000000000000000000000000000400000000000000000000000000000000000000000000000000000000004000000000000000000000000000000000000000000000002000080000000040000000000000000000000001000000000000020000000000000000000000000000000000000000000000000000000000000000000",
      "type": "0x0",
      "transactionHash": "0x2fac9b0593ed55c1ab0e14c8a50b4c2d686d12873c28ecbd6bce940b33097139",
      "transactionIndex": "0x2",
      "blockHash": "0x7e5d8220e42ab29251e04163711d8d42d6d9b627e2b7a4557ef1423a4c8899c1",
      "blockNumber": "0x2aa4aca",
      "gasUsed": "0x9241",
      "effectiveGasPrice": "0x5d22cfc40",
      "from": "0x3a4db9e7306af09012ceb0f222d581fd1f0c6d71",
      "to": "0x0d8af705d767e7b63250a6ac90fe2968ae062c0d",
      "contractAddress": null,
      "l1BaseFeeScalar": "0x0",
      "l1BlobBaseFee": "0x1",
      "l1BlobBaseFeeScalar": "0x0",
      "l1Fee": "0x0",
      "l1GasPrice": "0xf",
      "l1GasUsed": "0x640"
    },
    {
      "status": "0x1",
      "cumulativeGasUsed": "0x13cff",
      "logs": [
        {
          "address": "0x1ab49e36a37ac3aaf4a74df72cc4bea885a10d27",
          "topics": [
            "0xddf252ad1be2c89b69c2b068fc378daa952ba7f163c4a11628f55a4df523b3ef",
            "0x0000000000000000000000000000000000000000000000000000000000000000",
            "0x0000000000000000000000003a4db9e7306af09012ceb0f222d581fd1f0c6d71"
          ],
          "data": "0x000000000000000000000000000000000000000000000000000000003b9aca00",
          "blockHash": "0xca4d6b5382b6c845b215a8efd4b0e4c76e016bad4664fd91818aa31ddec441fa",
          "blockNumber": "0x2aa4acb",
          "transactionHash": "0x48473203c7cc3ffb0546d71447a52757aee2a92077dc99c5cf768c8297158b11",
          "transactionIndex": "0x1",
          "logIndex": "0x0",
          "removed": false
        }
      ],
      "logsBloom": "0x00000000000000000000000000000000000000000000000000000000000000000000800000000000000000000000000000000000000000000000000000000000000000000000000000000008000000000000000000000000000000000000000000000000020000000000000000008800000000000000000000000010000000000000000000000000000000000000400000000000000000000000000000000000000000000000000020000000000000000000000000000000000000000000000000000002000080000000000000000000000000000000001000000000000020000000000000000000000000000000000000000000000000000000000000000000",
      "type": "0x0",
      "transactionHash": "0x48473203c7cc3ffb0546d71447a52757aee2a92077dc99c5cf768c8297158b11",
      "transactionIndex": "0x1",
      "blockHash": "0xca4d6b5382b6c845b215a8efd4b0e4c76e016bad4664fd91818aa31ddec441fa",
      "blockNumber": "0x2aa4acb",
      "gasUsed": "0x9211",
      "effectiveGasPrice": "0x5d22cfc40",
      "from": "0x3a4db9e7306af09012ceb0f222d581fd1f0c6d71",
      "to": "0x1ab49e36a37ac3aaf4a74df72cc4bea885a10d27",
      "contractAddress": null,
      "l1BaseFeeScalar": "0x0",
      "l1BlobBaseFee": "0x1",
      "l1BlobBaseFeeScalar": "0x0",
      "l1Fee": "0x0",
      "l1GasPrice": "0xf",
      "l1GasUsed": "0x640"
    },
    {
      "status": "0x1",
      "cumulativeGasUsed": "0x1faae",
      "logs": [
        {
          "address": "0x0d8af705d767e7b63250a6ac90fe2968ae062c0d",
          "topics": [
            "0x8c5be1e5ebec7d5bd14f71427d1e84f3dd0314c0f7b2291e5b200ac8c7c3b925",
            "0x0000000000000000000000003a4db9e7306af09012ceb0f222d581fd1f0c6d71",
            "0x00000000000000000000000048c365a5cffae7b39400e062dea26669d6973007"
          ],
          "data": "0x00000000000000000000000000000000000000000000003635c9adc5dea00000",
          "blockHash": "0xca4d6b5382b6c845b215a8efd4b0e4c76e016bad4664fd91818aa31ddec441fa",
          "blockNumber": "0x2aa4acb",
          "transactionHash": "0xf91b8e579477a87dc7847468ed3403bae73c3a23421be682de63cbbd6dcd9f1d",
          "transactionIndex": "0x2",
          "logIndex": "0x1",
          "removed": false
        }
      ],
      "logsBloom": "0x40000000000000000008000000000000000000000000000000000000000000000000000000000000000000000000000000000000000000000000000000200000000000000000000000000000000000000000000000000000000000000000000000000000000000000000000000000000000000000000000000000000000000000000000000000000000000000000400000000000000000000000000000000000020000000000000000000004000002000000000000000000000000000000000000000000000080000000040000000000000000000000001000000000000000000010000000000000000000000000000000000000000000000000000000000020",
      "type": "0x0",
      "transactionHash": "0xf91b8e579477a87dc7847468ed3403bae73c3a23421be682de63cbbd6dcd9f1d",
      "transactionIndex": "0x2",
      "blockHash": "0xca4d6b5382b6c845b215a8efd4b0e4c76e016bad4664fd91818aa31ddec441fa",
      "blockNumber": "0x2aa4acb",
      "gasUsed": "0xbdaf",
      "effectiveGasPrice": "0x5d22cfc40",
      "from": "0x3a4db9e7306af09012ceb0f222d581fd1f0c6d71",
      "to": "0x0d8af705d767e7b63250a6ac90fe2968ae062c0d",
      "contractAddress": null,
      "l1BaseFeeScalar": "0x0",
      "l1BlobBaseFee": "0x1",
      "l1BlobBaseFeeScalar": "0x0",
      "l1Fee": "0x0",
      "l1GasPrice": "0xf",
      "l1GasUsed": "0x640"
    },
    {
      "status": "0x1",
      "cumulativeGasUsed": "0x6e841",
      "logs": [
        {
          "address": "0x0d8af705d767e7b63250a6ac90fe2968ae062c0d",
          "topics": [
            "0xddf252ad1be2c89b69c2b068fc378daa952ba7f163c4a11628f55a4df523b3ef",
            "0x0000000000000000000000003a4db9e7306af09012ceb0f222d581fd1f0c6d71",
            "0x00000000000000000000000048c365a5cffae7b39400e062dea26669d6973007"
          ],
          "data": "0x00000000000000000000000000000000000000000000003635c9adc5dea00000",
          "blockHash": "0xca4d6b5382b6c845b215a8efd4b0e4c76e016bad4664fd91818aa31ddec441fa",
          "blockNumber": "0x2aa4acb",
          "transactionHash": "0x10beca45b63a69ac13c9d1ce928eaf202569d9a0ccef05311e98d1636030dcbb",
          "transactionIndex": "0x3",
          "logIndex": "0x2",
          "removed": false
        },
        {
          "address": "0x0d8af705d767e7b63250a6ac90fe2968ae062c0d",
          "topics": [
            "0x8c5be1e5ebec7d5bd14f71427d1e84f3dd0314c0f7b2291e5b200ac8c7c3b925",
            "0x00000000000000000000000048c365a5cffae7b39400e062dea26669d6973007",
            "0x000000000000000000000000056a9aec78d851f8e977401d1ef182c57aa3e219"
          ],
          "data": "0x00000000000000000000000000000000000000000000003635c9adc5dea00000",
          "blockHash": "0xca4d6b5382b6c845b215a8efd4b0e4c76e016bad4664fd91818aa31ddec441fa",
          "blockNumber": "0x2aa4acb",
          "transactionHash": "0x10beca45b63a69ac13c9d1ce928eaf202569d9a0ccef05311e98d1636030dcbb",
          "transactionIndex": "0x3",
          "logIndex": "0x3",
          "removed": false
        },
        {
          "address": "0x1ab49e36a37ac3aaf4a74df72cc4bea885a10d27",
          "topics": [
            "0xddf252ad1be2c89b69c2b068fc378daa952ba7f163c4a11628f55a4df523b3ef",
            "0x0000000000000000000000000000000000000000000000000000000000000000",
            "0x00000000000000000000000048c365a5cffae7b39400e062dea26669d6973007"
          ],
          "data": "0x000000000000000000000000000000000000000000000000000000001dcd6500",
          "blockHash": "0xca4d6b5382b6c845b215a8efd4b0e4c76e016bad4664fd91818aa31ddec441fa",
          "blockNumber": "0x2aa4acb",
          "transactionHash": "0x10beca45b63a69ac13c9d1ce928eaf202569d9a0ccef05311e98d1636030dcbb",
          "transactionIndex": "0x3",
          "logIndex": "0x4",
          "removed": false
        },
        {
          "address": "0x1ab49e36a37ac3aaf4a74df72cc4bea885a10d27",
          "topics": [
            "0xddf252ad1be2c89b69c2b068fc378daa952ba7f163c4a11628f55a4df523b3ef",
            "0x00000000000000000000000048c365a5cffae7b39400e062dea26669d6973007",
            "0x0000000000000000000000003a4db9e7306af09012ceb0f222d581fd1f0c6d71"
          ],
          "data": "0x000000000000000000000000000000000000000000000000000000001dcd6500",
          "blockHash": "0xca4d6b5382b6c845b215a8efd4b0e4c76e016bad4664fd91818aa31ddec441fa",
          "blockNumber": "0x2aa4acb",
          "transactionHash": "0x10beca45b63a69ac13c9d1ce928eaf202569d9a0ccef05311e98d1636030dcbb",
          "transactionIndex": "0x3",
          "logIndex": "0x5",
          "removed": false
        },
        {
          "address": "0x48c365a5cffae7b39400e062dea26669d6973007",
          "topics": [
            "0x9f9b498443531d2db9df8a00ec466efc74ba50ec1d82f7badd3424b87930e19a",
            "0x0000000000000000000000000000000000000000000000000000000000000008",
            "0x0000000000000000000000003a4db9e7306af09012ceb0f222d581fd1f0c6d71"
          ],
          "data": "0x0000000000000000000000000d8af705d767e7b63250a6ac90fe2968ae062c0d00000000000000000000000000000000000000000000003635c9adc5dea000000000000000000000000000001ab49e36a37ac3aaf4a74df72cc4bea885a10d27000000000000000000000000000000000000000000000000000000001dcd65000000000000000000000000000000000000000000000000000000000000000002",
          "blockHash": "0xca4d6b5382b6c845b215a8efd4b0e4c76e016bad4664fd91818aa31ddec441fa",
          "blockNumber": "0x2aa4acb",
          "transactionHash": "0x10beca45b63a69ac13c9d1ce928eaf202569d9a0ccef05311e98d1636030dcbb",
          "transactionIndex": "0x3",
          "logIndex": "0x6",
          "removed": false
        }
      ],
      "logsBloom": "0x40000000000000000008000000000000000000000000000000000000000000000000800010000000000020000080000000000000000080000000000000200000000000000000000000000008000000000000000000000000000000000000000000000000020000000000000000008800000000020000000000000010000000000080000000000000000000000000400000000000000000000000000000000000020000000000000020000004000002000000000000000000000800000000000040000002000082000000040000000000000000000000001000020000000020000010000000000000000000000000000000000000000400000000000000000220",
      "type": "0x0",
      "transactionHash": "0x10beca45b63a69ac13c9d1ce928eaf202569d9a0ccef05311e98d1636030dcbb",
      "transactionIndex": "0x3",
      "blockHash": "0xca4d6b5382b6c845b215a8efd4b0e4c76e016bad4664fd91818aa31ddec441fa",
      "blockNumber": "0x2aa4acb",
      "gasUsed": "0x4ed93",
      "effectiveGasPrice": "0x5d22cfc40",
      "from": "0x3a4db9e7306af09012ceb0f222d581fd1f0c6d71",
      "to": "0x48c365a5cffae7b39400e062dea26669d6973007",
      "contractAddress": null,
      "l1BaseFeeScalar": "0x0",
      "l1BlobBaseFee": "0x1",
      "l1BlobBaseFeeScalar": "0x0",
      "l1Fee": "0x0",
      "l1GasPrice": "0xf",
      "l1GasUsed": "0x7be"
    },
    {
      "status": "0x1",
      "cumulativeGasUsed": "0x7a5f0",
      "logs": [
        {
          "address": "0x0d8af705d767e7b63250a6ac90fe2968ae062c0d",
          "topics": [
            "0x8c5be1e5ebec7d5bd14f71427d1e84f3dd0314c0f7b2291e5b200ac8c7c3b925",
            "0x0000000000000000000000003a4db9e7306af09012ceb0f222d581fd1f0c6d71",
            "0x00000000000000000000000048c365a5cffae7b39400e062dea26669d6973007"
          ],
          "data": "0x00000000000000000000000000000000000000000000001b1ae4d6e2ef500000",
          "blockHash": "0xca4d6b5382b6c845b215a8efd4b0e4c76e016bad4664fd91818aa31ddec441fa",
          "blockNumber": "0x2aa4acb",
          "transactionHash": "0xcf613fb1e91cdec6ef0709f7734cfdfab48583da578d5f48a6d748b844695297",
          "transactionIndex": "0x4",
          "logIndex": "0x7",
          "removed": false
        }
      ],
      "logsBloom": "0x40000000000000000008000000000000000000000000000000000000000000000000000000000000000000000000000000000000000000000000000000200000000000000000000000000000000000000000000000000000000000000000000000000000000000000000000000000000000000000000000000000000000000000000000000000000000000000000400000000000000000000000000000000000020000000000000000000004000002000000000000000000000000000000000000000000000080000000040000000000000000000000001000000000000000000010000000000000000000000000000000000000000000000000000000000020",
      "type": "0x0",
      "transactionHash": "0xcf613fb1e91cdec6ef0709f7734cfdfab48583da578d5f48a6d748b844695297",
      "transactionIndex": "0x4",
      "blockHash": "0xca4d6b5382b6c845b215a8efd4b0e4c76e016bad4664fd91818aa31ddec441fa",
      "blockNumber": "0x2aa4acb",
      "gasUsed": "0xbdaf",
      "effectiveGasPrice": "0x5d22cfc40",
      "from": "0x3a4db9e7306af09012ceb0f222d581fd1f0c6d71",
      "to": "0x0d8af705d767e7b63250a6ac90fe2968ae062c0d",
      "contractAddress": null,
      "l1BaseFeeScalar": "0x0",
      "l1BlobBaseFee": "0x1",
      "l1BlobBaseFeeScalar": "0x0",
      "l1Fee": "0x0",
      "l1GasPrice": "0xf",
      "l1GasUsed": "0x640"
    },
    {
      "status": "0x1",
      "cumulativeGasUsed": "0x91739",
      "logs": [
        {
          "address": "0x0d8af705d767e7b63250a6ac90fe2968ae062c0d",
          "topics": [
            "0xddf252ad1be2c89b69c2b068fc378daa952ba7f163c4a11628f55a4df523b3ef",
            "0x0000000000000000000000003a4db9e7306af09012ceb0f222d581fd1f0c6d71",
            "0x00000000000000000000000048c365a5cffae7b39400e062dea26669d6973007"
          ],
          "data": "0x00000000000000000000000000000000000000000000001b1ae4d6e2ef500000",
          "blockHash": "0xca4d6b5382b6c845b215a8efd4b0e4c76e016bad4664fd91818aa31ddec441fa",
          "blockNumber": "0x2aa4acb",
          "transactionHash": "0x1ddf01dcf3d5ab877389260b9dcf0492bc7352e44bfe8d2ef56413c8c97db5ba",
          "transactionIndex": "0x5",
          "logIndex": "0x8",
          "removed": false
        },
        {
          "address": "0x0d8af705d767e7b63250a6ac90fe2968ae062c0d",
          "topics": [
            "0x8c5be1e5ebec7d5bd14f71427d1e84f3dd0314c0f7b2291e5b200ac8c7c3b925",
            "0x00000000000000000000000048c365a5cffae7b39400e062dea26669d6973007",
            "0x000000000000000000000000056a9aec78d851f8e977401d1ef182c57aa3e219"
          ],
          "data": "0x00000000000000000000000000000000000000000000001b1ae4d6e2ef500000",
          "blockHash": "0xca4d6b5382b6c845b215a8efd4b0e4c76e016bad4664fd91818aa31ddec441fa",
          "blockNumber": "0x2aa4acb",
          "transactionHash": "0x1ddf01dcf3d5ab877389260b9dcf0492bc7352e44bfe8d2ef56413c8c97db5ba",
          "transactionIndex": "0x5",
          "logIndex": "0x9",
          "removed": false
        },
        {
          "address": "0x48c365a5cffae7b39400e062dea26669d6973007",
          "topics": [
            "0x244160b15e69cc411f041d94ae7fab6f6bba85dade8403216c05ff4b920d5449",
            "0x0000000000000000000000000000000000000000000000000000000000000008"
          ],
          "data": "0x00000000000000000000000000000000000000000000001b1ae4d6e2ef500000",
          "blockHash": "0xca4d6b5382b6c845b215a8efd4b0e4c76e016bad4664fd91818aa31ddec441fa",
          "blockNumber": "0x2aa4acb",
          "transactionHash": "0x1ddf01dcf3d5ab877389260b9dcf0492bc7352e44bfe8d2ef56413c8c97db5ba",
          "transactionIndex": "0x5",
          "logIndex": "0xa",
          "removed": false
        }
      ],
      "logsBloom": "0x40000000000000000008000000000000000000000000000000000000000000000000000010000000000000000080000000000000000280000000000000200000000000000000000000000008000000000000000000000000000000000000000000000000000000000000000000000000000000000000000000000010000000000080000000000000000000000000400000000000000000000000000000000000020000000000000000000004000002000000000000000000000800000000000040000002000082000000040000000010000000000000001000000000000000000010000000000080000000000000000000000000000400000000000000000220",
      "type": "0x0",
      "transactionHash": "0x1ddf01dcf3d5ab877389260b9dcf0492bc7352e44bfe8d2ef56413c8c97db5ba",
      "transactionIndex": "0x5",
      "blockHash": "0xca4d6b5382b6c845b215a8efd4b0e4c76e016bad4664fd91818aa31ddec441fa",
      "blockNumber": "0x2aa4acb",
      "gasUsed": "0x17149",
      "effectiveGasPrice": "0x5d22cfc40",
      "from": "0x3a4db9e7306af09012ceb0f222d581fd1f0c6d71",
      "to": "0x48c365a5cffae7b39400e062dea26669d6973007",
      "contractAddress": null,
      "l1BaseFeeScalar": "0x0",
      "l1BlobBaseFee": "0x1",
      "l1BlobBaseFeeScalar": "0x0",
      "l1Fee": "0x0",
      "l1GasPrice": "0xf",
      "l1GasUsed": "0x640"
    },
    {
      "status": "0x1",
      "cumulativeGasUsed": "0xa9dfb",
      "logs": [
        {
          "address": "0x1ab49e36a37ac3aaf4a74df72cc4bea885a10d27",
          "topics": [
            "0xddf252ad1be2c89b69c2b068fc378daa952ba7f163c4a11628f55a4df523b3ef",
            "0x0000000000000000000000000000000000000000000000000000000000000000",
            "0x00000000000000000000000048c365a5cffae7b39400e062dea26669d6973007"
          ],
          "data": "0x000000000000000000000000000000000000000000000000000000000ee6b280",
          "blockHash": "0xca4d6b5382b6c845b215a8efd4b0e4c76e016bad4664fd91818aa31ddec441fa",
          "blockNumber": "0x2aa4acb",
          "transactionHash": "0xdddfa07e87d694a8d00ada9710fd31a05e04487b111c0fee7dc4207e7ed6d73e",
          "transactionIndex": "0x6",
          "logIndex": "0xb",
          "removed": false
        },
        {
          "address": "0x1ab49e36a37ac3aaf4a74df72cc4bea885a10d27",
          "topics": [
            "0xddf252ad1be2c89b69c2b068fc378daa952ba7f163c4a11628f55a4df523b3ef",
            "0x00000000000000000000000048c365a5cffae7b39400e062dea26669d6973007",
            "0x0000000000000000000000003a4db9e7306af09012ceb0f222d581fd1f0c6d71"
          ],
          "data": "0x000000000000000000000000000000000000000000000000000000000ee6b280",
          "blockHash": "0xca4d6b5382b6c845b215a8efd4b0e4c76e016bad4664fd91818aa31ddec441fa",
          "blockNumber": "0x2aa4acb",
          "transactionHash": "0xdddfa07e87d694a8d00ada9710fd31a05e04487b111c0fee7dc4207e7ed6d73e",
          "transactionIndex": "0x6",
          "logIndex": "0xc",
          "removed": false
        },
        {
          "address": "0x48c365a5cffae7b39400e062dea26669d6973007",
          "topics": [
            "0xf3a2c404b3362c4238317c3dad1020c2e9e984ba8df38a4a1ff18d57e92a242a",
            "0x0000000000000000000000000000000000000000000000000000000000000008"
          ],
          "data": "0x000000000000000000000000000000000000000000000000000000000ee6b280",
          "blockHash": "0xca4d6b5382b6c845b215a8efd4b0e4c76e016bad4664fd91818aa31ddec441fa",
          "blockNumber": "0x2aa4acb",
          "transactionHash": "0xdddfa07e87d694a8d00ada9710fd31a05e04487b111c0fee7dc4207e7ed6d73e",
          "transactionIndex": "0x6",
          "logIndex": "0xd",
          "removed": false
        }
      ],
      "logsBloom": "0x00000000000000000008000000000000000000000000000000000000000000000000800000000000000000000080000000000000000080000000000000000000000000000000000000000008000000000000000000000000000000000000000000000000020000000000000000008800000000000000000000000010000000000080000000000010000000000000400000000000000000000000000000000000000000000000000020000000000002000000000000000000000800000000000040000002000082000000000000000000000000400000001000000000000020000000000000000000000000000000000000000000000000000800000000000020",
      "type": "0x0",
      "transactionHash": "0xdddfa07e87d694a8d00ada9710fd31a05e04487b111c0fee7dc4207e7ed6d73e",
      "transactionIndex": "0x6",
      "blockHash": "0xca4d6b5382b6c845b215a8efd4b0e4c76e016bad4664fd91818aa31ddec441fa",
      "blockNumber": "0x2aa4acb",
      "gasUsed": "0x186c2",
      "effectiveGasPrice": "0x5d22cfc40",
      "from": "0x3a4db9e7306af09012ceb0f222d581fd1f0c6d71",
      "to": "0x48c365a5cffae7b39400e062dea26669d6973007",
      "contractAddress": null,
      "l1BaseFeeScalar": "0x0",
      "l1BlobBaseFee": "0x1",
      "l1BlobBaseFeeScalar": "0x0",
      "l1Fee": "0x0",
      "l1GasPrice": "0xf",
      "l1GasUsed": "0x640"
    },
    {
      "status": "0x1",
      "cumulativeGasUsed": "0xb5b86",
      "logs": [
        {
          "address": "0x1ab49e36a37ac3aaf4a74df72cc4bea885a10d27",
          "topics": [
            "0x8c5be1e5ebec7d5bd14f71427d1e84f3dd0314c0f7b2291e5b200ac8c7c3b925",
            "0x0000000000000000000000003a4db9e7306af09012ceb0f222d581fd1f0c6d71",
            "0x00000000000000000000000048c365a5cffae7b39400e062dea26669d6973007"
          ],
          "data": "0x00000000000000000000000000000000000000000000000000000000165a0bc0",
          "blockHash": "0xca4d6b5382b6c845b215a8efd4b0e4c76e016bad4664fd91818aa31ddec441fa",
          "blockNumber": "0x2aa4acb",
          "transactionHash": "0xa5375fa5b058916e4e58115672747f7ce30dc595592f9845e418476fbad6eb23",
          "transactionIndex": "0x7",
          "logIndex": "0xe",
          "removed": false
        }
      ],
      "logsBloom": "0x00000000000000000008000000000000000000000000000000000000000000000000800000000000000000000000000000000000000000000000000000200000000000000000000000000000000000000000000000000000000000000000000000000000000000000000000000008000000000000000000000000000000000000000000000000000000000000000400000000000000000000000000000000000020000000000000020000000000002000000000000000000000000000000000000000000000080000000000000000000000000000000001000000000000000000010000000000000000000000000000000000000000000000000000000000020",
      "type": "0x0",
      "transactionHash": "0xa5375fa5b058916e4e58115672747f7ce30dc595592f9845e418476fbad6eb23",
      "transactionIndex": "0x7",
      "blockHash": "0xca4d6b5382b6c845b215a8efd4b0e4c76e016bad4664fd91818aa31ddec441fa",
      "blockNumber": "0x2aa4acb",
      "gasUsed": "0xbd8b",
      "effectiveGasPrice": "0x5d22cfc40",
      "from": "0x3a4db9e7306af09012ceb0f222d581fd1f0c6d71",
      "to": "0x1ab49e36a37ac3aaf4a74df72cc4bea885a10d27",
      "contractAddress": null,
      "l1BaseFeeScalar": "0x0",
      "l1BlobBaseFee": "0x1",
      "l1BlobBaseFeeScalar": "0x0",
      "l1Fee": "0x0",
      "l1GasPrice": "0xf",
      "l1GasUsed": "0x640"
    },
    {
      "status": "0x1",
      "cumulativeGasUsed": "0xcc961",
      "logs": [
        {
          "address": "0x1ab49e36a37ac3aaf4a74df72cc4bea885a10d27",
          "topics": [
            "0xddf252ad1be2c89b69c2b068fc378daa952ba7f163c4a11628f55a4df523b3ef",
            "0x0000000000000000000000003a4db9e7306af09012ceb0f222d581fd1f0c6d71",
            "0x00000000000000000000000048c365a5cffae7b39400e062dea26669d6973007"
          ],
          "data": "0x00000000000000000000000000000000000000000000000000000000165a0bc0",
          "blockHash": "0xca4d6b5382b6c845b215a8efd4b0e4c76e016bad4664fd91818aa31ddec441fa",
          "blockNumber": "0x2aa4acb",
          "transactionHash": "0x475fbc08bfeccafdadbf61fee8805c0f5c06fa8516d94a98bf001f384332fd40",
          "transactionIndex": "0x8",
          "logIndex": "0xf",
          "removed": false
        },
        {
          "address": "0x1ab49e36a37ac3aaf4a74df72cc4bea885a10d27",
          "topics": [
            "0x8c5be1e5ebec7d5bd14f71427d1e84f3dd0314c0f7b2291e5b200ac8c7c3b925",
            "0x00000000000000000000000048c365a5cffae7b39400e062dea26669d6973007",
            "0x000000000000000000000000056a9aec78d851f8e977401d1ef182c57aa3e219"
          ],
          "data": "0x00000000000000000000000000000000000000000000000000000000165a0bc0",
          "blockHash": "0xca4d6b5382b6c845b215a8efd4b0e4c76e016bad4664fd91818aa31ddec441fa",
          "blockNumber": "0x2aa4acb",
          "transactionHash": "0x475fbc08bfeccafdadbf61fee8805c0f5c06fa8516d94a98bf001f384332fd40",
          "transactionIndex": "0x8",
          "logIndex": "0x10",
          "removed": false
        },
        {
          "address": "0x48c365a5cffae7b39400e062dea26669d6973007",
          "topics": [
            "0x0d4979b0859a1951f8ed7cbe3b1994e740552588f27ba02ca0f8f1ddcad16e0c",
            "0x0000000000000000000000000000000000000000000000000000000000000008"
          ],
          "data": "0x00000000000000000000000000000000000000000000000000000000165a0bc0",
          "blockHash": "0xca4d6b5382b6c845b215a8efd4b0e4c76e016bad4664fd91818aa31ddec441fa",
          "blockNumber": "0x2aa4acb",
          "transactionHash": "0x475fbc08bfeccafdadbf61fee8805c0f5c06fa8516d94a98bf001f384332fd40",
          "transactionIndex": "0x8",
          "logIndex": "0x11",
          "removed": false
        }
      ],
      "logsBloom": "0x00000000000000000008000010000000000000000000000000000000000000000000800010000000000000000080000000000000000080000000000000200000000000000000000000000008000000000000002000000000000000000000000080000000000000000000000000008000000000000000000000000010000000000080000000000000000000000000400000000000000000000000000000000000020000000000000020000000000002000000000000000000000800000000000040000002000082000000000000000000000000000000001000000000000000000010000000000000000000000000000000000000000400000000000000000220",
      "type": "0x0",
      "transactionHash": "0x475fbc08bfeccafdadbf61fee8805c0f5c06fa8516d94a98bf001f384332fd40",
      "transactionIndex": "0x8",
      "blockHash": "0xca4d6b5382b6c845b215a8efd4b0e4c76e016bad4664fd91818aa31ddec441fa",
      "blockNumber": "0x2aa4acb",
      "gasUsed": "0x16ddb",
      "effectiveGasPrice": "0x5d22cfc40",
      "from": "0x3a4db9e7306af09012ceb0f222d581fd1f0c6d71",
      "to": "0x48c365a5cffae7b39400e062dea26669d6973007",
      "contractAddress": null,
      "l1BaseFeeScalar": "0x0",
      "l1BlobBaseFee": "0x1",
      "l1BlobBaseFeeScalar": "0x0",
      "l1Fee": "0x0",
      "l1GasPrice": "0xf",
      "l1GasUsed": "0x640"
    },
    {
      "status": "0x1",
      "cumulativeGasUsed": "0xe1345",
      "logs": [
        {
          "address": "0x0d8af705d767e7b63250a6ac90fe2968ae062c0d",
          "topics": [
            "0xddf252ad1be2c89b69c2b068fc378daa952ba7f163c4a11628f55a4df523b3ef",
            "0x000000000000000000000000056a9aec78d851f8e977401d1ef182c57aa3e219",
            "0x0000000000000000000000003a4db9e7306af09012ceb0f222d581fd1f0c6d71"
          ],
          "data": "0x00000000000000000000000000000000000000000000001043561a8829300000",
          "blockHash": "0xca4d6b5382b6c845b215a8efd4b0e4c76e016bad4664fd91818aa31ddec441fa",
          "blockNumber": "0x2aa4acb",
          "transactionHash": "0x2ae80cf6a2847426790137c28ccf74d98e49a4ee7b34f0ee57c4e94f62e4d992",
          "transactionIndex": "0x9",
          "logIndex": "0x12",
          "removed": false
        },
        {
          "address": "0x48c365a5cffae7b39400e062dea26669d6973007",
          "topics": [
            "0x2399e8aed1977410745a5211d8226a3a7d9278f50a8a197c5ec6e285bb437f0b",
            "0x0000000000000000000000000000000000000000000000000000000000000008"
          ],
          "data": "0x00000000000000000000000000000000000000000000001043561a8829300000",
          "blockHash": "0xca4d6b5382b6c845b215a8efd4b0e4c76e016bad4664fd91818aa31ddec441fa",
          "blockNumber": "0x2aa4acb",
          "transactionHash": "0x2ae80cf6a2847426790137c28ccf74d98e49a4ee7b34f0ee57c4e94f62e4d992",
          "transactionIndex": "0x9",
          "logIndex": "0x13",
          "removed": false
        }
      ],
      "logsBloom": "0x40000000000000000000000000000000000000000000000000000000000000000000000010000000000000000080000000000000000080000000000000000000000000000000000000000008000000000000000000000000000000000000000000000000000000000000000000000000000000000020000000000010000000000080000000000000000000000000400000000000000060000000000000000000000000000000000000000004000000000000000000000000000800000000000040000002000082000000040000000000000000000000001000000000000000000000000000000000000000000000000000000000000400000000000000000200",
      "type": "0x0",
      "transactionHash": "0x2ae80cf6a2847426790137c28ccf74d98e49a4ee7b34f0ee57c4e94f62e4d992",
      "transactionIndex": "0x9",
      "blockHash": "0xca4d6b5382b6c845b215a8efd4b0e4c76e016bad4664fd91818aa31ddec441fa",
      "blockNumber": "0x2aa4acb",
      "gasUsed": "0x149e4",
      "effectiveGasPrice": "0x5d22cfc40",
      "from": "0x3a4db9e7306af09012ceb0f222d581fd1f0c6d71",
      "to": "0x48c365a5cffae7b39400e062dea26669d6973007",
      "contractAddress": null,
      "l1BaseFeeScalar": "0x0",
      "l1BlobBaseFee": "0x1",
      "l1BlobBaseFeeScalar": "0x0",
      "l1Fee": "0x0",
      "l1GasPrice": "0xf",
      "l1GasUsed": "0x640"
    },
    {
      "status": "0x1",
      "cumulativeGasUsed": "0xea586",
      "logs": [
        {
          "address": "0x0d8af705d767e7b63250a6ac90fe2968ae062c0d",
          "topics": [
            "0xddf252ad1be2c89b69c2b068fc378daa952ba7f163c4a11628f55a4df523b3ef",
            "0x0000000000000000000000000000000000000000000000000000000000000000",
            "0x0000000000000000000000003a4db9e7306af09012ceb0f222d581fd1f0c6d71"
          ],
          "data": "0x00000000000000000000000000000000000000000000001b1ae4d6e2ef500000",
          "blockHash": "0xca4d6b5382b6c845b215a8efd4b0e4c76e016bad4664fd91818aa31ddec441fa",
          "blockNumber": "0x2aa4acb",
          "transactionHash": "0xd00cf82313d6b78f82deb9fa814cbe24d3b09e9f8a3da7102b267aae934d1d5b",
          "transactionIndex": "0xa",
          "logIndex": "0x14",
          "removed": false
        }
      ],
      "logsBloom": "0x40000000000000000000000000000000000000000000000000000000000000000000000000000000000000000000000000000000000000000000000000000000000000000000000000000008000000000000000000000000000000000000000000000000020000000000000000000800000000000000000000000010000000000000000000000000000000000000400000000000000000000000000000000000000000000000000000000004000000000000000000000000000000000000000000000002000080000000040000000000000000000000001000000000000020000000000000000000000000000000000000000000000000000000000000000000",
      "type": "0x0",
      "transactionHash": "0xd00cf82313d6b78f82deb9fa814cbe24d3b09e9f8a3da7102b267aae934d1d5b",
      "transactionIndex": "0xa",
      "blockHash": "0xca4d6b5382b6c845b215a8efd4b0e4c76e016bad4664fd91818aa31ddec441fa",
      "blockNumber": "0x2aa4acb",
      "gasUsed": "0x9241",
      "effectiveGasPrice": "0x5d22cfc40",
      "from": "0x3a4db9e7306af09012ceb0f222d581fd1f0c6d71",
      "to": "0x0d8af705d767e7b63250a6ac90fe2968ae062c0d",
      "contractAddress": null,
      "l1BaseFeeScalar": "0x0",
      "l1BlobBaseFee": "0x1",
      "l1BlobBaseFeeScalar": "0x0",
      "l1Fee": "0x0",
      "l1GasPrice": "0xf",
      "l1GasUsed": "0x640"
    },
    {
      "status": "0x1",
      "cumulativeGasUsed": "0xf6335",
      "logs": [
        {
          "address": "0x0d8af705d767e7b63250a6ac90fe2968ae062c0d",
          "topics": [
            "0x8c5be1e5ebec7d5bd14f71427d1e84f3dd0314c0f7b2291e5b200ac8c7c3b925",
            "0x0000000000000000000000003a4db9e7306af09012ceb0f222d581fd1f0c6d71",
            "0x00000000000000000000000048c365a5cffae7b39400e062dea26669d6973007"
          ],
          "data": "0x00000000000000000000000000000000000000000000001b1ae4d6e2ef500000",
          "blockHash": "0xca4d6b5382b6c845b215a8efd4b0e4c76e016bad4664fd91818aa31ddec441fa",
          "blockNumber": "0x2aa4acb",
          "transactionHash": "0x7b705fd846f03e465458e7e5290948fb5ee5540841bbb1a48d90ac86bf24abba",
          "transactionIndex": "0xb",
          "logIndex": "0x15",
          "removed": false
        }
      ],
      "logsBloom": "0x40000000000000000008000000000000000000000000000000000000000000000000000000000000000000000000000000000000000000000000000000200000000000000000000000000000000000000000000000000000000000000000000000000000000000000000000000000000000000000000000000000000000000000000000000000000000000000000400000000000000000000000000000000000020000000000000000000004000002000000000000000000000000000000000000000000000080000000040000000000000000000000001000000000000000000010000000000000000000000000000000000000000000000000000000000020",
      "type": "0x0",
      "transactionHash": "0x7b705fd846f03e465458e7e5290948fb5ee5540841bbb1a48d90ac86bf24abba",
      "transactionIndex": "0xb",
      "blockHash": "0xca4d6b5382b6c845b215a8efd4b0e4c76e016bad4664fd91818aa31ddec441fa",
      "blockNumber": "0x2aa4acb",
      "gasUsed": "0xbdaf",
      "effectiveGasPrice": "0x5d22cfc40",
      "from": "0x3a4db9e7306af09012ceb0f222d581fd1f0c6d71",
      "to": "0x0d8af705d767e7b63250a6ac90fe2968ae062c0d",
      "contractAddress": null,
      "l1BaseFeeScalar": "0x0",
      "l1BlobBaseFee": "0x1",
      "l1BlobBaseFeeScalar": "0x0",
      "l1Fee": "0x0",
      "l1GasPrice": "0xf",
      "l1GasUsed": "0x640"
    },
    {
      "status": "0x1",
      "cumulativeGasUsed": "0x143ae8",
      "logs": [
        {
          "address": "0x0d8af705d767e7b63250a6ac90fe2968ae062c0d",
          "topics": [
            "0xddf252ad1be2c89b69c2b068fc378daa952ba7f163c4a11628f55a4df523b3ef",
            "0x0000000000000000000000003a4db9e7306af09012ceb0f222d581fd1f0c6d71",
            "0x00000000000000000000000048c365a5cffae7b39400e062dea26669d6973007"
          ],
          "data": "0x00000000000000000000000000000000000000000000001b1ae4d6e2ef500000",
          "blockHash": "0xca4d6b5382b6c845b215a8efd4b0e4c76e016bad4664fd91818aa31ddec441fa",
          "blockNumber": "0x2aa4acb",
          "transactionHash": "0x22c020787f52038c981aeb29a9d263e19419f4b67fd94f4ed740d95de407b107",
          "transactionIndex": "0xc",
          "logIndex": "0x16",
          "removed": false
        },
        {
          "address": "0x0d8af705d767e7b63250a6ac90fe2968ae062c0d",
          "topics": [
            "0x8c5be1e5ebec7d5bd14f71427d1e84f3dd0314c0f7b2291e5b200ac8c7c3b925",
            "0x00000000000000000000000048c365a5cffae7b39400e062dea26669d6973007",
            "0x000000000000000000000000056a9aec78d851f8e977401d1ef182c57aa3e219"
          ],
          "data": "0x00000000000000000000000000000000000000000000001b1ae4d6e2ef500000",
          "blockHash": "0xca4d6b5382b6c845b215a8efd4b0e4c76e016bad4664fd91818aa31ddec441fa",
          "blockNumber": "0x2aa4acb",
          "transactionHash": "0x22c020787f52038c981aeb29a9d263e19419f4b67fd94f4ed740d95de407b107",
          "transactionIndex": "0xc",
          "logIndex": "0x17",
          "removed": false
        },
        {
          "address": "0x1ab49e36a37ac3aaf4a74df72cc4bea885a10d27",
          "topics": [
            "0xddf252ad1be2c89b69c2b068fc378daa952ba7f163c4a11628f55a4df523b3ef",
            "0x0000000000000000000000000000000000000000000000000000000000000000",
            "0x00000000000000000000000048c365a5cffae7b39400e062dea26669d6973007"
          ],
          "data": "0x000000000000000000000000000000000000000000000000000000000bebc200",
          "blockHash": "0xca4d6b5382b6c845b215a8efd4b0e4c76e016bad4664fd91818aa31ddec441fa",
          "blockNumber": "0x2aa4acb",
          "transactionHash": "0x22c020787f52038c981aeb29a9d263e19419f4b67fd94f4ed740d95de407b107",
          "transactionIndex": "0xc",
          "logIndex": "0x18",
          "removed": false
        },
        {
          "address": "0x1ab49e36a37ac3aaf4a74df72cc4bea885a10d27",
          "topics": [
            "0xddf252ad1be2c89b69c2b068fc378daa952ba7f163c4a11628f55a4df523b3ef",
            "0x00000000000000000000000048c365a5cffae7b39400e062dea26669d6973007",
            "0x0000000000000000000000003a4db9e7306af09012ceb0f222d581fd1f0c6d71"
          ],
          "data": "0x000000000000000000000000000000000000000000000000000000000bebc200",
          "blockHash": "0xca4d6b5382b6c845b215a8efd4b0e4c76e016bad4664fd91818aa31ddec441fa",
          "blockNumber": "0x2aa4acb",
          "transactionHash": "0x22c020787f52038c981aeb29a9d263e19419f4b67fd94f4ed740d95de407b107",
          "transactionIndex": "0xc",
          "logIndex": "0x19",
          "removed": false
        },
        {
          "address": "0x48c365a5cffae7b39400e062dea26669d6973007",
          "topics": [
            "0x9f9b498443531d2db9df8a00ec466efc74ba50ec1d82f7badd3424b87930e19a",
            "0x0000000000000000000000000000000000000000000000000000000000000009",
            "0x0000000000000000000000003a4db9e7306af09012ceb0f222d581fd1f0c6d71"
          ],
          "data": "0x0000000000000000000000000d8af705d767e7b63250a6ac90fe2968ae062c0d00000000000000000000000000000000000000000000001b1ae4d6e2ef5000000000000000000000000000001ab49e36a37ac3aaf4a74df72cc4bea885a10d27000000000000000000000000000000000000000000000000000000000bebc2000000000000000000000000000000000000000000000000000000000000000002",
          "blockHash": "0xca4d6b5382b6c845b215a8efd4b0e4c76e016bad4664fd91818aa31ddec441fa",
          "blockNumber": "0x2aa4acb",
          "transactionHash": "0x22c020787f52038c981aeb29a9d263e19419f4b67fd94f4ed740d95de407b107",
          "transactionIndex": "0xc",
          "logIndex": "0x1a",
          "removed": false
        }
      ],
      "logsBloom": "0x40000000000000000008000000000000000000000000000000000000000000000000800010000000000020000080000000000000000000000000000000200000000000000000000000000008000000000000000000000000000000000000000000000000020000000000000000008800000000020000000000000010000000000000000000000000000000000000400000001000000000000000000000000000020000000000000020000004000002000000000000000000000800000000000000000002000082000000040000000000000000000000001000020000000020000010000000000000000000000000000000000000000400000000000000800220",
      "type": "0x0",
      "transactionHash": "0x22c020787f52038c981aeb29a9d263e19419f4b67fd94f4ed740d95de407b107",
      "transactionIndex": "0xc",
      "blockHash": "0xca4d6b5382b6c845b215a8efd4b0e4c76e016bad4664fd91818aa31ddec441fa",
      "blockNumber": "0x2aa4acb",
      "gasUsed": "0x4d7b3",
      "effectiveGasPrice": "0x5d22cfc40",
      "from": "0x3a4db9e7306af09012ceb0f222d581fd1f0c6d71",
      "to": "0x48c365a5cffae7b39400e062dea26669d6973007",
      "contractAddress": null,
      "l1BaseFeeScalar": "0x0",
      "l1BlobBaseFee": "0x1",
      "l1BlobBaseFeeScalar": "0x0",
      "l1Fee": "0x0",
      "l1GasPrice": "0xf",
      "l1GasUsed": "0x7be"
    },
    {
      "status": "0x1",
      "cumulativeGasUsed": "0x14f867",
      "logs": [
        {
          "address": "0x1ab49e36a37ac3aaf4a74df72cc4bea885a10d27",
          "topics": [
            "0x8c5be1e5ebec7d5bd14f71427d1e84f3dd0314c0f7b2291e5b200ac8c7c3b925",
            "0x0000000000000000000000003a4db9e7306af09012ceb0f222d581fd1f0c6d71",
            "0x00000000000000000000000048c365a5cffae7b39400e062dea26669d6973007"
          ],
          "data": "0x000000000000000000000000000000000000000000000000000000000bebc200",
          "blockHash": "0xca4d6b5382b6c845b215a8efd4b0e4c76e016bad4664fd91818aa31ddec441fa",
          "blockNumber": "0x2aa4acb",
          "transactionHash": "0xf791eea7521dc6b744174af91811077e4ac96f07e6fa9e6f5989b0c460dc83b1",
          "transactionIndex": "0xd",
          "logIndex": "0x1b",
          "removed": false
        }
      ],
      "logsBloom": "0x00000000000000000008000000000000000000000000000000000000000000000000800000000000000000000000000000000000000000000000000000200000000000000000000000000000000000000000000000000000000000000000000000000000000000000000000000008000000000000000000000000000000000000000000000000000000000000000400000000000000000000000000000000000020000000000000020000000000002000000000000000000000000000000000000000000000080000000000000000000000000000000001000000000000000000010000000000000000000000000000000000000000000000000000000000020",
      "type": "0x0",
      "transactionHash": "0xf791eea7521dc6b744174af91811077e4ac96f07e6fa9e6f5989b0c460dc83b1",
      "transactionIndex": "0xd",
      "blockHash": "0xca4d6b5382b6c845b215a8efd4b0e4c76e016bad4664fd91818aa31ddec441fa",
      "blockNumber": "0x2aa4acb",
      "gasUsed": "0xbd7f",
      "effectiveGasPrice": "0x5d22cfc40",
      "from": "0x3a4db9e7306af09012ceb0f222d581fd1f0c6d71",
      "to": "0x1ab49e36a37ac3aaf4a74df72cc4bea885a10d27",
      "contractAddress": null,
      "l1BaseFeeScalar": "0x0",
      "l1BlobBaseFee": "0x1",
      "l1BlobBaseFeeScalar": "0x0",
      "l1Fee": "0x0",
      "l1GasPrice": "0xf",
      "l1GasUsed": "0x640"
    },
    {
      "status": "0x1",
      "cumulativeGasUsed": "0x16f089",
      "logs": [
        {
          "address": "0x1ab49e36a37ac3aaf4a74df72cc4bea885a10d27",
          "topics": [
            "0xddf252ad1be2c89b69c2b068fc378daa952ba7f163c4a11628f55a4df523b3ef",
            "0x0000000000000000000000003a4db9e7306af09012ceb0f222d581fd1f0c6d71",
            "0x00000000000000000000000048c365a5cffae7b39400e062dea26669d6973007"
          ],
          "data": "0x000000000000000000000000000000000000000000000000000000000bebc200",
          "blockHash": "0xca4d6b5382b6c845b215a8efd4b0e4c76e016bad4664fd91818aa31ddec441fa",
          "blockNumber": "0x2aa4acb",
          "transactionHash": "0x32d53bafcb184b5f05914062cafcbb6405b9a6733388749725f990e467bac349",
          "transactionIndex": "0xe",
          "logIndex": "0x1c",
          "removed": false
        },
        {
          "address": "0x1ab49e36a37ac3aaf4a74df72cc4bea885a10d27",
          "topics": [
            "0x8c5be1e5ebec7d5bd14f71427d1e84f3dd0314c0f7b2291e5b200ac8c7c3b925",
            "0x00000000000000000000000048c365a5cffae7b39400e062dea26669d6973007",
            "0x000000000000000000000000056a9aec78d851f8e977401d1ef182c57aa3e219"
          ],
          "data": "0x000000000000000000000000000000000000000000000000000000000bebc200",
          "blockHash": "0xca4d6b5382b6c845b215a8efd4b0e4c76e016bad4664fd91818aa31ddec441fa",
          "blockNumber": "0x2aa4acb",
          "transactionHash": "0x32d53bafcb184b5f05914062cafcbb6405b9a6733388749725f990e467bac349",
          "transactionIndex": "0xe",
          "logIndex": "0x1d",
          "removed": false
        },
        {
          "address": "0x0d8af705d767e7b63250a6ac90fe2968ae062c0d",
          "topics": [
            "0xddf252ad1be2c89b69c2b068fc378daa952ba7f163c4a11628f55a4df523b3ef",
            "0x0000000000000000000000000000000000000000000000000000000000000000",
            "0x0000000000000000000000003a4db9e7306af09012ceb0f222d581fd1f0c6d71"
          ],
          "data": "0x00000000000000000000000000000000000000000000003635c9adc5dea00000",
          "blockHash": "0xca4d6b5382b6c845b215a8efd4b0e4c76e016bad4664fd91818aa31ddec441fa",
          "blockNumber": "0x2aa4acb",
          "transactionHash": "0x32d53bafcb184b5f05914062cafcbb6405b9a6733388749725f990e467bac349",
          "transactionIndex": "0xe",
          "logIndex": "0x1e",
          "removed": false
        },
        {
          "address": "0x48c365a5cffae7b39400e062dea26669d6973007",
          "topics": [
            "0xcefaf961c5013063cf501ffd9f9382e9b9c4b15741ad032fe93d7e9c7c733b22",
            "0x0000000000000000000000000000000000000000000000000000000000000009",
            "0x0000000000000000000000003a4db9e7306af09012ceb0f222d581fd1f0c6d71"
          ],
          "data": "0x",
          "blockHash": "0xca4d6b5382b6c845b215a8efd4b0e4c76e016bad4664fd91818aa31ddec441fa",
          "blockNumber": "0x2aa4acb",
          "transactionHash": "0x32d53bafcb184b5f05914062cafcbb6405b9a6733388749725f990e467bac349",
          "transactionIndex": "0xe",
          "logIndex": "0x1f",
          "removed": false
        }
      ],
      "logsBloom": "0x40000000000000000008000000000000000020000000000000000000000000000000800010000000000000000080000000000000000000000000000000200000000000000000000000000008000200000000000000000000000000000000000000000000020000000000000000048800000000000000000000000010000000000000000000000000000000000000400000001000000000000000000000000000020000000000000020000004000002000000000000000000000800000000000000000002000082000000040000000000000000000000001000000000000020000010000000000000000000000000000000000000000400000000000000800220",
      "type": "0x0",
      "transactionHash": "0x32d53bafcb184b5f05914062cafcbb6405b9a6733388749725f990e467bac349",
      "transactionIndex": "0xe",
      "blockHash": "0xca4d6b5382b6c845b215a8efd4b0e4c76e016bad4664fd91818aa31ddec441fa",
      "blockNumber": "0x2aa4acb",
      "gasUsed": "0x1f822",
      "effectiveGasPrice": "0x5d22cfc40",
      "from": "0x3a4db9e7306af09012ceb0f222d581fd1f0c6d71",
      "to": "0x48c365a5cffae7b39400e062dea26669d6973007",
      "contractAddress": null,
      "l1BaseFeeScalar": "0x0",
      "l1BlobBaseFee": "0x1",
      "l1BlobBaseFeeScalar": "0x0",
      "l1Fee": "0x0",
      "l1GasPrice": "0xf",
      "l1GasUsed": "0x640"
    }
  ],
  "libraries": [],
  "pending": [],
  "returns": {},
  "timestamp": 1745670020,
  "chain": 44787,
  "commit": "1cefd9d"
}