{
  "transactions": [
    {
      "hash": "0xbab12a5dfcbfaf72cd3f883a0bc5284e5917756af4188ba04f16ec71c37b5d21",
      "transactionType": "CALL",
      "contractName": null,
      "contractAddress": "0x48065fbbe25f71c9282ddf5e1cd6d6a887483d5e",
      "function": "approve(address,uint256)",
      "arguments": [
        "0x3E59A31363E2ad014dcbc521c4a0d5757d9f3402",
        "100000"
      ],
      "transaction": {
        "from": "0x3a4db9e7306af09012ceb0f222d581fd1f0c6d71",
        "to": "0x48065fbbe25f71c9282ddf5e1cd6d6a887483d5e",
        "gas": "0x1201c",
        "value": "0x0",
        "input": "0x095ea7b30000000000000000000000003e59a31363e2ad014dcbc521c4a0d5757d9f340200000000000000000000000000000000000000000000000000000000000186a0",
        "nonce": "0x16",
        "chainId": "0xa4ec"
      },
      "additionalContracts": [],
      "isFixedGasLimit": false
    },
    {
      "hash": "0x2c4cc561025c02dc08ab7a9532648f81ec4b698742a9ddb3cd750a3f53e71e03",
      "transactionType": "CALL",
      "contractName": null,
      "contractAddress": "0x3e59a31363e2ad014dcbc521c4a0d5757d9f3402",
      "function": "supply(address,uint256,address,uint16)",
      "arguments": [
        "0x48065fbBE25f71C9282ddf5e1cD6D6A887483D5e",
        "100000",
        "0x3A4dB9e7306aF09012ceb0f222d581FD1F0C6D71",
        "0"
      ],
      "transaction": {
        "from": "0x3a4db9e7306af09012ceb0f222d581fd1f0c6d71",
        "to": "0x3e59a31363e2ad014dcbc521c4a0d5757d9f3402",
        "gas": "0x44fb3",
        "value": "0x0",
        "input": "0x617ba03700000000000000000000000048065fbbe25f71c9282ddf5e1cd6d6a887483d5e00000000000000000000000000000000000000000000000000000000000186a00000000000000000000000003a4db9e7306af09012ceb0f222d581fd1f0c6d710000000000000000000000000000000000000000000000000000000000000000",
        "nonce": "0x17",
        "chainId": "0xa4ec"
      },
      "additionalContracts": [],
      "isFixedGasLimit": false
    },
    {
      "hash": "0x54555fc627d02d0f40b412ef527a270bf9f897e6487180118f2b2137fa29ff6f",
      "transactionType": "CALL",
      "contractName": null,
      "contractAddress": "0x3e59a31363e2ad014dcbc521c4a0d5757d9f3402",
      "function": "setUserUseReserveAsCollateral(address,bool)",
      "arguments": [
        "0x48065fbBE25f71C9282ddf5e1cD6D6A887483D5e",
        "true"
      ],
      "transaction": {
        "from": "0x3a4db9e7306af09012ceb0f222d581fd1f0c6d71",
        "to": "0x3e59a31363e2ad014dcbc521c4a0d5757d9f3402",
        "gas": "0x1bf38",
        "value": "0x0",
        "input": "0x5a3b74b900000000000000000000000048065fbbe25f71c9282ddf5e1cd6d6a887483d5e0000000000000000000000000000000000000000000000000000000000000001",
        "nonce": "0x18",
        "chainId": "0xa4ec"
      },
      "additionalContracts": [],
      "isFixedGasLimit": false
    },
    {
      "hash": "0x6a07dd283e1c857c699ab954e6871bbf42289a7000941b31feecc49fdc874a41",
      "transactionType": "CALL",
      "contractName": null,
      "contractAddress": "0x3e59a31363e2ad014dcbc521c4a0d5757d9f3402",
      "function": "borrow(address,uint256,uint256,uint16,address)",
      "arguments": [
        "0xcebA9300f2b948710d2653dD7B07f33A8B32118C",
        "10000",
        "2",
        "0",
        "0x3A4dB9e7306aF09012ceb0f222d581FD1F0C6D71"
      ],
      "transaction": {
        "from": "0x3a4db9e7306af09012ceb0f222d581fd1f0c6d71",
        "to": "0x3e59a31363e2ad014dcbc521c4a0d5757d9f3402",
        "gas": "0x5bca3",
        "value": "0x0",
        "input": "0xa415bcad000000000000000000000000ceba9300f2b948710d2653dd7b07f33a8b32118c0000000000000000000000000000000000000000000000000000000000002710000000000000000000000000000000000000000000000000000000000000000200000000000000000000000000000000000000000000000000000000000000000000000000000000000000003a4db9e7306af09012ceb0f222d581fd1f0c6d71",
        "nonce": "0x19",
        "chainId": "0xa4ec"
      },
      "additionalContracts": [],
      "isFixedGasLimit": false
    },
    {
      "hash": "0xaf5b37dbbcce75e82ff514c07928c7bb27f0fd4ef493ae073c9ad255fa4282db",
      "transactionType": "CALL",
      "contractName": null,
      "contractAddress": "0xceba9300f2b948710d2653dd7b07f33a8b32118c",
      "function": "approve(address,uint256)",
      "arguments": [
        "0x3E59A31363E2ad014dcbc521c4a0d5757d9f3402",
        "10000"
      ],
      "transaction": {
        "from": "0x3a4db9e7306af09012ceb0f222d581fd1f0c6d71",
        "to": "0xceba9300f2b948710d2653dd7b07f33a8b32118c",
        "gas": "0xcec8",
        "value": "0x0",
        "input": "0x095ea7b30000000000000000000000003e59a31363e2ad014dcbc521c4a0d5757d9f34020000000000000000000000000000000000000000000000000000000000002710",
        "nonce": "0x1a",
        "chainId": "0xa4ec"
      },
      "additionalContracts": [],
      "isFixedGasLimit": false
    },
    {
      "hash": "0xbb2d6ab05a92875f0957fe17407fa91755124c89d54343c601eaadec5003803f",
      "transactionType": "CALL",
      "contractName": null,
      "contractAddress": "0x3e59a31363e2ad014dcbc521c4a0d5757d9f3402",
      "function": "repay(address,uint256,uint256,address)",
      "arguments": [
        "0xcebA9300f2b948710d2653dD7B07f33A8B32118C",
        "10000",
        "2",
        "0x3A4dB9e7306aF09012ceb0f222d581FD1F0C6D71"
      ],
      "transaction": {
        "from": "0x3a4db9e7306af09012ceb0f222d581fd1f0c6d71",
        "to": "0x3e59a31363e2ad014dcbc521c4a0d5757d9f3402",
        "gas": "0x3a089",
        "value": "0x0",
        "input": "0x573ade81000000000000000000000000ceba9300f2b948710d2653dd7b07f33a8b32118c000000000000000000000000000000000000000000000000000000000000271000000000000000000000000000000000000000000000000000000000000000020000000000000000000000003a4db9e7306af09012ceb0f222d581fd1f0c6d71",
        "nonce": "0x1b",
        "chainId": "0xa4ec"
      },
      "additionalContracts": [],
      "isFixedGasLimit": false
    },
    {
      "hash": "0xec959b99f8bfb8a1dd2c711198bfa149d13fa86c99d2f954f0618804a7568a33",
      "transactionType": "CALL",
      "contractName": null,
      "contractAddress": "0x3e59a31363e2ad014dcbc521c4a0d5757d9f3402",
      "function": "withdraw(address,uint256,address)",
      "arguments": [
        "0x48065fbBE25f71C9282ddf5e1cD6D6A887483D5e",
        "100000",
        "0x3A4dB9e7306aF09012ceb0f222d581FD1F0C6D71"
      ],
      "transaction": {
        "from": "0x3a4db9e7306af09012ceb0f222d581fd1f0c6d71",
        "to": "0x3e59a31363e2ad014dcbc521c4a0d5757d9f3402",
        "gas": "0x388b4",
        "value": "0x0",
        "input": "0x69328dec00000000000000000000000048065fbbe25f71c9282ddf5e1cd6d6a887483d5e00000000000000000000000000000000000000000000000000000000000186a00000000000000000000000003a4db9e7306af09012ceb0f222d581fd1f0c6d71",
        "nonce": "0x1c",
        "chainId": "0xa4ec"
      },
      "additionalContracts": [],
      "isFixedGasLimit": false
    }
  ],
  "receipts": [
    {
      "status": "0x1",
      "cumulativeGasUsed": "0x18ee94",
      "logs": [
        {
          "address": "0x48065fbbe25f71c9282ddf5e1cd6d6a887483d5e",
          "topics": [
            "0x8c5be1e5ebec7d5bd14f71427d1e84f3dd0314c0f7b2291e5b200ac8c7c3b925",
            "0x0000000000000000000000003a4db9e7306af09012ceb0f222d581fd1f0c6d71",
            "0x0000000000000000000000003e59a31363e2ad014dcbc521c4a0d5757d9f3402"
          ],
          "data": "0x00000000000000000000000000000000000000000000000000000000000186a0",
          "blockHash": "0x4dcb9a17931a93e3cd4b6c710a8808f0f68d80330f7cb144f7f44a3492340687",
          "blockNumber": "0x2025163",
          "transactionHash": "0xbab12a5dfcbfaf72cd3f883a0bc5284e5917756af4188ba04f16ec71c37b5d21",
          "transactionIndex": "0xe",
          "logIndex": "0x23",
          "removed": false
        }
      ],
      "logsBloom": "0x00000000000000010000020000000000000000000000000000000000000000000000000000000000000000000000000000000000000000000000000000200000000000000000000000000000000000000000000000000000000000000000000000000000000000000000000000000000000000000000000040000000000000000000010000000000000000000000400000000000000000000000000000000000020000100000000000000000000000000000000000000000000000000000000000000000000080000000008000000000000000000000001000000000000000000010000000000000000000000000000000000000000000000000000000000000",
      "type": "0x0",
      "transactionHash": "0xbab12a5dfcbfaf72cd3f883a0bc5284e5917756af4188ba04f16ec71c37b5d21",
      "transactionIndex": "0xe",
      "blockHash": "0x4dcb9a17931a93e3cd4b6c710a8808f0f68d80330f7cb144f7f44a3492340687",
      "blockNumber": "0x2025163",
      "gasUsed": "0xd097",
      "effectiveGasPrice": "0x5d22cfc40",
      "from": "0x3a4db9e7306af09012ceb0f222d581fd1f0c6d71",
      "to": "0x48065fbbe25f71c9282ddf5e1cd6d6a887483d5e",
      "contractAddress": null,
      "l1BaseFeeScalar": "0x0",
      "l1BlobBaseFee": "0x340c84b2c",
      "l1BlobBaseFeeScalar": "0x0",
      "l1Fee": "0x0",
      "l1GasPrice": "0x2d4d13c9",
      "l1GasUsed": "0x640"
    },
    {
      "status": "0x1",
      "cumulativeGasUsed": "0x1c8cd2",
      "logs": [
        {
          "address": "0x3e59a31363e2ad014dcbc521c4a0d5757d9f3402",
          "topics": [
            "0x804c9b842b2748a22bb64b345453a3de7ca54a6ca45ce00d415894979e22897a",
            "0x00000000000000000000000048065fbbe25f71c9282ddf5e1cd6d6a887483d5e"
          ],
          "data": "0x000000000000000000000000000000000000000000000009650dad71bd68406700000000000000000000000000000000000000000000000000000000000000000000000000000000000000000000000000000000000019ea350ab4e6f7f1e02f0000000000000000000000000000000000000000033b5f8e192866791d6b8d120000000000000000000000000000000000000000033bcc8ebf7de0babc8e4eb5",
          "blockHash": "0x4dcb9a17931a93e3cd4b6c710a8808f0f68d80330f7cb144f7f44a3492340687",
          "blockNumber": "0x2025163",
          "transactionHash": "0x2c4cc561025c02dc08ab7a9532648f81ec4b698742a9ddb3cd750a3f53e71e03",
          "transactionIndex": "0x10",
          "logIndex": "0x25",
          "removed": false
        },
        {
          "address": "0x48065fbbe25f71c9282ddf5e1cd6d6a887483d5e",
          "topics": [
            "0xddf252ad1be2c89b69c2b068fc378daa952ba7f163c4a11628f55a4df523b3ef",
            "0x0000000000000000000000003a4db9e7306af09012ceb0f222d581fd1f0c6d71",
            "0x000000000000000000000000dee98402a302e4d707fb9bf2bac66faeec31e8df"
          ],
          "data": "0x00000000000000000000000000000000000000000000000000000000000186a0",
          "blockHash": "0x4dcb9a17931a93e3cd4b6c710a8808f0f68d80330f7cb144f7f44a3492340687",
          "blockNumber": "0x2025163",
          "transactionHash": "0x2c4cc561025c02dc08ab7a9532648f81ec4b698742a9ddb3cd750a3f53e71e03",
          "transactionIndex": "0x10",
          "logIndex": "0x26",
          "removed": false
        },
        {
          "address": "0x48065fbbe25f71c9282ddf5e1cd6d6a887483d5e",
          "topics": [
            "0x8c5be1e5ebec7d5bd14f71427d1e84f3dd0314c0f7b2291e5b200ac8c7c3b925",
            "0x0000000000000000000000003a4db9e7306af09012ceb0f222d581fd1f0c6d71",
            "0x0000000000000000000000003e59a31363e2ad014dcbc521c4a0d5757d9f3402"
          ],
          "data": "0x0000000000000000000000000000000000000000000000000000000000000000",
          "blockHash": "0x4dcb9a17931a93e3cd4b6c710a8808f0f68d80330f7cb144f7f44a3492340687",
          "blockNumber": "0x2025163",
          "transactionHash": "0x2c4cc561025c02dc08ab7a9532648f81ec4b698742a9ddb3cd750a3f53e71e03",
          "transactionIndex": "0x10",
          "logIndex": "0x27",
          "removed": false
        },
        {
          "address": "0xdee98402a302e4d707fb9bf2bac66faeec31e8df",
          "topics": [
            "0xddf252ad1be2c89b69c2b068fc378daa952ba7f163c4a11628f55a4df523b3ef",
            "0x0000000000000000000000000000000000000000000000000000000000000000",
            "0x0000000000000000000000003a4db9e7306af09012ceb0f222d581fd1f0c6d71"
          ],
          "data": "0x00000000000000000000000000000000000000000000000000000000000186a0",
          "blockHash": "0x4dcb9a17931a93e3cd4b6c710a8808f0f68d80330f7cb144f7f44a3492340687",
          "blockNumber": "0x2025163",
          "transactionHash": "0x2c4cc561025c02dc08ab7a9532648f81ec4b698742a9ddb3cd750a3f53e71e03",
          "transactionIndex": "0x10",
          "logIndex": "0x28",
          "removed": false
        },
        {
          "address": "0xdee98402a302e4d707fb9bf2bac66faeec31e8df",
          "topics": [
            "0x458f5fa412d0f69b08dd84872b0215675cc67bc1d5b6fd93300a1c3878b86196",
            "0x0000000000000000000000003a4db9e7306af09012ceb0f222d581fd1f0c6d71",
            "0x0000000000000000000000003a4db9e7306af09012ceb0f222d581fd1f0c6d71"
          ],
          "data": "0x00000000000000000000000000000000000000000000000000000000000186a000000000000000000000000000000000000000000000000000000000000000000000000000000000000000000000000000000000033b5f8e192866791d6b8d12",
          "blockHash": "0x4dcb9a17931a93e3cd4b6c710a8808f0f68d80330f7cb144f7f44a3492340687",
          "blockNumber": "0x2025163",
          "transactionHash": "0x2c4cc561025c02dc08ab7a9532648f81ec4b698742a9ddb3cd750a3f53e71e03",
          "transactionIndex": "0x10",
          "logIndex": "0x29",
          "removed": false
        },
        {
          "address": "0x3e59a31363e2ad014dcbc521c4a0d5757d9f3402",
          "topics": [
            "0x00058a56ea94653cdf4f152d227ace22d4c00ad99e2a43f58cb7d9e3feb295f2",
            "0x00000000000000000000000048065fbbe25f71c9282ddf5e1cd6d6a887483d5e",
            "0x0000000000000000000000003a4db9e7306af09012ceb0f222d581fd1f0c6d71"
          ],
          "data": "0x",
          "blockHash": "0x4dcb9a17931a93e3cd4b6c710a8808f0f68d80330f7cb144f7f44a3492340687",
          "blockNumber": "0x2025163",
          "transactionHash": "0x2c4cc561025c02dc08ab7a9532648f81ec4b698742a9ddb3cd750a3f53e71e03",
          "transactionIndex": "0x10",
          "logIndex": "0x2a",
          "removed": false
        },
        {
          "address": "0x3e59a31363e2ad014dcbc521c4a0d5757d9f3402",
          "topics": [
            "0x2b627736bca15cd5381dcf80b0bf11fd197d01a037c52b927a881a10fb73ba61",
            "0x00000000000000000000000048065fbbe25f71c9282ddf5e1cd6d6a887483d5e",
            "0x0000000000000000000000003a4db9e7306af09012ceb0f222d581fd1f0c6d71",
            "0x0000000000000000000000000000000000000000000000000000000000000000"
          ],
          "data": "0x0000000000000000000000003a4db9e7306af09012ceb0f222d581fd1f0c6d7100000000000000000000000000000000000000000000000000000000000186a0",
          "blockHash": "0x4dcb9a17931a93e3cd4b6c710a8808f0f68d80330f7cb144f7f44a3492340687",
          "blockNumber": "0x2025163",
          "transactionHash": "0x2c4cc561025c02dc08ab7a9532648f81ec4b698742a9ddb3cd750a3f53e71e03",
          "transactionIndex": "0x10",
          "logIndex": "0x2b",
          "removed": false
        }
      ],
      "logsBloom": "0x0000000000000801028002000000000000100000000000000000000000000000000000080000000000000000000400000000000080000000000000000020000000000000000000080000000800000000000000000000000000000004000000000000000002000000000000000000080000000000000000004000001000000000000001008000000000000000000040000000000000000000020000000000000002000010000100000000004000000000100000000000000040000000000001000200000200008000000000a040000040000000000000001000000000000120000010000000000000000000000000000040000000000000000000400000000000",
      "type": "0x0",
      "transactionHash": "0x2c4cc561025c02dc08ab7a9532648f81ec4b698742a9ddb3cd750a3f53e71e03",
      "transactionIndex": "0x10",
      "blockHash": "0x4dcb9a17931a93e3cd4b6c710a8808f0f68d80330f7cb144f7f44a3492340687",
      "blockNumber": "0x2025163",
      "gasUsed": "0x2f2ab",
      "effectiveGasPrice": "0x5d22cfc40",
      "from": "0x3a4db9e7306af09012ceb0f222d581fd1f0c6d71",
      "to": "0x3e59a31363e2ad014dcbc521c4a0d5757d9f3402",
      "contractAddress": null,
      "l1BaseFeeScalar": "0x0",
      "l1BlobBaseFee": "0x340c84b2c",
      "l1BlobBaseFeeScalar": "0x0",
      "l1Fee": "0x0",
      "l1GasPrice": "0x2d4d13c9",
      "l1GasUsed": "0x6cd"
    },
    {
      "status": "0x1",
      "cumulativeGasUsed": "0x1dd09a",
      "logs": [],
      "logsBloom": "0x00000000000000000000000000000000000000000000000000000000000000000000000000000000000000000000000000000000000000000000000000000000000000000000000000000000000000000000000000000000000000000000000000000000000000000000000000000000000000000000000000000000000000000000000000000000000000000000000000000000000000000000000000000000000000000000000000000000000000000000000000000000000000000000000000000000000000000000000000000000000000000000000000000000000000000000000000000000000000000000000000000000000000000000000000000000",
      "type": "0x0",
      "transactionHash": "0x54555fc627d02d0f40b412ef527a270bf9f897e6487180118f2b2137fa29ff6f",
      "transactionIndex": "0x11",
      "blockHash": "0x4dcb9a17931a93e3cd4b6c710a8808f0f68d80330f7cb144f7f44a3492340687",
      "blockNumber": "0x2025163",
      "gasUsed": "0x143c8",
      "effectiveGasPrice": "0x5d22cfc40",
      "from": "0x3a4db9e7306af09012ceb0f222d581fd1f0c6d71",
      "to": "0x3e59a31363e2ad014dcbc521c4a0d5757d9f3402",
      "contractAddress": null,
      "l1BaseFeeScalar": "0x0",
      "l1BlobBaseFee": "0x340c84b2c",
      "l1BlobBaseFeeScalar": "0x0",
      "l1Fee": "0x0",
      "l1GasPrice": "0x2d4d13c9",
      "l1GasUsed": "0x640"
    },
    {
      "status": "0x1",
      "cumulativeGasUsed": "0x20c789",
      "logs": [
        {
          "address": "0xdbe517c0fa6467873b684eccbed77217e471e862",
          "topics": [
            "0xddf252ad1be2c89b69c2b068fc378daa952ba7f163c4a11628f55a4df523b3ef",
            "0x0000000000000000000000000000000000000000000000000000000000000000",
            "0x0000000000000000000000003a4db9e7306af09012ceb0f222d581fd1f0c6d71"
          ],
          "data": "0x0000000000000000000000000000000000000000000000000000000000002710",
          "blockHash": "0xf932040347b12a9a78bb5957f9a71125815f82e75d39f230d7cc4bea78f11718",
          "blockNumber": "0x2025164",
          "transactionHash": "0x6a07dd283e1c857c699ab954e6871bbf42289a7000941b31feecc49fdc874a41",
          "transactionIndex": "0xc",
          "logIndex": "0x30",
          "removed": false
        },
        {
          "address": "0xdbe517c0fa6467873b684eccbed77217e471e862",
          "topics": [
            "0x458f5fa412d0f69b08dd84872b0215675cc67bc1d5b6fd93300a1c3878b86196",
            "0x0000000000000000000000003a4db9e7306af09012ceb0f222d581fd1f0c6d71",
            "0x0000000000000000000000003a4db9e7306af09012ceb0f222d581fd1f0c6d71"
          ],
          "data": "0x000000000000000000000000000000000000000000000000000000000000271000000000000000000000000000000000000000000000000000000000000000000000000000000000000000000000000000000000033c4a6d5ec77ef047031e6d",
          "blockHash": "0xf932040347b12a9a78bb5957f9a71125815f82e75d39f230d7cc4bea78f11718",
          "blockNumber": "0x2025164",
          "transactionHash": "0x6a07dd283e1c857c699ab954e6871bbf42289a7000941b31feecc49fdc874a41",
          "transactionIndex": "0xc",
          "logIndex": "0x31",
          "removed": false
        },
        {
          "address": "0x3e59a31363e2ad014dcbc521c4a0d5757d9f3402",
          "topics": [
            "0x804c9b842b2748a22bb64b345453a3de7ca54a6ca45ce00d415894979e22897a",
            "0x000000000000000000000000ceba9300f2b948710d2653dd7b07f33a8b32118c"
          ],
          "data": "0x00000000000000000000000000000000000000000000d505a995aa2ae4087e9e000000000000000000000000000000000000000000000000000000000000000000000000000000000000000000000000000000000007b66ae8c26891a041d4a80000000000000000000000000000000000000000033b683afdde34c919fab50f0000000000000000000000000000000000000000033c4a6d5ec77ef047031e6d",
          "blockHash": "0xf932040347b12a9a78bb5957f9a71125815f82e75d39f230d7cc4bea78f11718",
          "blockNumber": "0x2025164",
          "transactionHash": "0x6a07dd283e1c857c699ab954e6871bbf42289a7000941b31feecc49fdc874a41",
          "transactionIndex": "0xc",
          "logIndex": "0x32",
          "removed": false
        },
        {
          "address": "0xceba9300f2b948710d2653dd7b07f33a8b32118c",
          "topics": [
            "0xddf252ad1be2c89b69c2b068fc378daa952ba7f163c4a11628f55a4df523b3ef",
            "0x000000000000000000000000ff8309b9e99bfd2d4021bc71a362abd93dbd4785",
            "0x0000000000000000000000003a4db9e7306af09012ceb0f222d581fd1f0c6d71"
          ],
          "data": "0x0000000000000000000000000000000000000000000000000000000000002710",
          "blockHash": "0xf932040347b12a9a78bb5957f9a71125815f82e75d39f230d7cc4bea78f11718",
          "blockNumber": "0x2025164",
          "transactionHash": "0x6a07dd283e1c857c699ab954e6871bbf42289a7000941b31feecc49fdc874a41",
          "transactionIndex": "0xc",
          "logIndex": "0x33",
          "removed": false
        },
        {
          "address": "0x3e59a31363e2ad014dcbc521c4a0d5757d9f3402",
          "topics": [
            "0xb3d084820fb1a9decffb176436bd02558d15fac9b0ddfed8c465bc7359d7dce0",
            "0x000000000000000000000000ceba9300f2b948710d2653dd7b07f33a8b32118c",
            "0x0000000000000000000000003a4db9e7306af09012ceb0f222d581fd1f0c6d71",
            "0x0000000000000000000000000000000000000000000000000000000000000000"
          ],
          "data": "0x0000000000000000000000003a4db9e7306af09012ceb0f222d581fd1f0c6d710000000000000000000000000000000000000000000000000000000000002710000000000000000000000000000000000000000000000000000000000000000200000000000000000000000000000000000000000007b66ae8c26891a041d4a8",
          "blockHash": "0xf932040347b12a9a78bb5957f9a71125815f82e75d39f230d7cc4bea78f11718",
          "blockNumber": "0x2025164",
          "transactionHash": "0x6a07dd283e1c857c699ab954e6871bbf42289a7000941b31feecc49fdc874a41",
          "transactionIndex": "0xc",
          "logIndex": "0x34",
          "removed": false
        }
      ],
      "logsBloom": "0x00000000000000000000100000400000000000000000000000000000000000000000000000000000000000000004400000100000800000000000000000000000000000008000000000000008000000000000000000000000000000040000000000000000020000000000000000000800000000000000000000000010000000000000000000000000000000000000400000000000000000002200000000000000000001000000000000000000000000000000000000000000400000000000010002000002000081200000022000000000000000000000041000000000000020000000000000004010000800000001000000000000000000000000000000000000",
      "type": "0x0",
      "transactionHash": "0x6a07dd283e1c857c699ab954e6871bbf42289a7000941b31feecc49fdc874a41",
      "transactionIndex": "0xc",
      "blockHash": "0xf932040347b12a9a78bb5957f9a71125815f82e75d39f230d7cc4bea78f11718",
      "blockNumber": "0x2025164",
      "gasUsed": "0x42913",
      "effectiveGasPrice": "0x5d22cfc40",
      "from": "0x3a4db9e7306af09012ceb0f222d581fd1f0c6d71",
      "to": "0x3e59a31363e2ad014dcbc521c4a0d5757d9f3402",
      "contractAddress": null,
      "l1BaseFeeScalar": "0x0",
      "l1BlobBaseFee": "0x340c84b2c",
      "l1BlobBaseFeeScalar": "0x0",
      "l1Fee": "0x0",
      "l1GasPrice": "0x2d4d13c9",
      "l1GasUsed": "0x702"
    },
    {
      "status": "0x1",
      "cumulativeGasUsed": "0x11b445",
      "logs": [
        {
          "address": "0xceba9300f2b948710d2653dd7b07f33a8b32118c",
          "topics": [
            "0x8c5be1e5ebec7d5bd14f71427d1e84f3dd0314c0f7b2291e5b200ac8c7c3b925",
            "0x0000000000000000000000003a4db9e7306af09012ceb0f222d581fd1f0c6d71",
            "0x0000000000000000000000003e59a31363e2ad014dcbc521c4a0d5757d9f3402"
          ],
          "data": "0x0000000000000000000000000000000000000000000000000000000000002710",
          "blockHash": "0x755990d2a2e56484df43751a4d0d3d154109a43c8fcc90a2ce4360cb87c831a3",
          "blockNumber": "0x2025165",
          "transactionHash": "0xaf5b37dbbcce75e82ff514c07928c7bb27f0fd4ef493ae073c9ad255fa4282db",
          "transactionIndex": "0x7",
          "logIndex": "0x19",
          "removed": false
        }
      ],
      "logsBloom": "0x00000000000000010000120000000000000000000000000000000000000000000000000000000000000000000000000000000000000000000000000000200000000000000000000000000000000000000000000000000000000000000000000000000000000000000000000000000000000000000000000000000000000000000000000000000000000000000000400000000000000000000000000000000000020000100000000000000000000000000000000000000000000000000000000000000000000080000000020000000000000000000000001000000000000000000010000000000000000800000000000000000000000000000000000000000000",
      "type": "0x0",
      "transactionHash": "0xaf5b37dbbcce75e82ff514c07928c7bb27f0fd4ef493ae073c9ad255fa4282db",
      "transactionIndex": "0x7",
      "blockHash": "0x755990d2a2e56484df43751a4d0d3d154109a43c8fcc90a2ce4360cb87c831a3",
      "blockNumber": "0x2025165",
      "gasUsed": "0x95b5",
      "effectiveGasPrice": "0x5d22cfc40",
      "from": "0x3a4db9e7306af09012ceb0f222d581fd1f0c6d71",
      "to": "0xceba9300f2b948710d2653dd7b07f33a8b32118c",
      "contractAddress": null,
      "l1BaseFeeScalar": "0x0",
      "l1BlobBaseFee": "0x340c84b2c",
      "l1BlobBaseFeeScalar": "0x0",
      "l1Fee": "0x0",
      "l1GasPrice": "0x2d4d13c9",
      "l1GasUsed": "0x640"
    },
    {
      "status": "0x1",
      "cumulativeGasUsed": "0x192e9a",
      "logs": [
        {
          "address": "0xdbe517c0fa6467873b684eccbed77217e471e862",
          "topics": [
            "0xddf252ad1be2c89b69c2b068fc378daa952ba7f163c4a11628f55a4df523b3ef",
            "0x0000000000000000000000003a4db9e7306af09012ceb0f222d581fd1f0c6d71",
            "0x0000000000000000000000000000000000000000000000000000000000000000"
          ],
          "data": "0x0000000000000000000000000000000000000000000000000000000000002710",
          "blockHash": "0x755990d2a2e56484df43751a4d0d3d154109a43c8fcc90a2ce4360cb87c831a3",
          "blockNumber": "0x2025165",
          "transactionHash": "0xbb2d6ab05a92875f0957fe17407fa91755124c89d54343c601eaadec5003803f",
          "transactionIndex": "0x9",
          "logIndex": "0x1d",
          "removed": false
        },
        {
          "address": "0xdbe517c0fa6467873b684eccbed77217e471e862",
          "topics": [
            "0x4cf25bc1d991c17529c25213d3cc0cda295eeaad5f13f361969b12ea48015f90",
            "0x0000000000000000000000003a4db9e7306af09012ceb0f222d581fd1f0c6d71",
            "0x0000000000000000000000000000000000000000000000000000000000000000"
          ],
          "data": "0x000000000000000000000000000000000000000000000000000000000000271000000000000000000000000000000000000000000000000000000000000000000000000000000000000000000000000000000000033c4a6d62e34cba146100b4",
          "blockHash": "0x755990d2a2e56484df43751a4d0d3d154109a43c8fcc90a2ce4360cb87c831a3",
          "blockNumber": "0x2025165",
          "transactionHash": "0xbb2d6ab05a92875f0957fe17407fa91755124c89d54343c601eaadec5003803f",
          "transactionIndex": "0x9",
          "logIndex": "0x1e",
          "removed": false
        },
        {
          "address": "0x3e59a31363e2ad014dcbc521c4a0d5757d9f3402",
          "topics": [
            "0x804c9b842b2748a22bb64b345453a3de7ca54a6ca45ce00d415894979e22897a",
            "0x000000000000000000000000ceba9300f2b948710d2653dd7b07f33a8b32118c"
          ],
          "data": "0x00000000000000000000000000000000000000000000d505a6cee90d607532fc000000000000000000000000000000000000000000000000000000000000000000000000000000000000000000000000000000000007b66adbe48edca3c025400000000000000000000000000000000000000000033b683afe4f90c00556eddb0000000000000000000000000000000000000000033c4a6d62e34cba146100b4",
          "blockHash": "0x755990d2a2e56484df43751a4d0d3d154109a43c8fcc90a2ce4360cb87c831a3",
          "blockNumber": "0x2025165",
          "transactionHash": "0xbb2d6ab05a92875f0957fe17407fa91755124c89d54343c601eaadec5003803f",
          "transactionIndex": "0x9",
          "logIndex": "0x1f",
          "removed": false
        },
        {
          "address": "0xceba9300f2b948710d2653dd7b07f33a8b32118c",
          "topics": [
            "0xddf252ad1be2c89b69c2b068fc378daa952ba7f163c4a11628f55a4df523b3ef",
            "0x0000000000000000000000003a4db9e7306af09012ceb0f222d581fd1f0c6d71",
            "0x000000000000000000000000ff8309b9e99bfd2d4021bc71a362abd93dbd4785"
          ],
          "data": "0x0000000000000000000000000000000000000000000000000000000000002710",
          "blockHash": "0x755990d2a2e56484df43751a4d0d3d154109a43c8fcc90a2ce4360cb87c831a3",
          "blockNumber": "0x2025165",
          "transactionHash": "0xbb2d6ab05a92875f0957fe17407fa91755124c89d54343c601eaadec5003803f",
          "transactionIndex": "0x9",
          "logIndex": "0x20",
          "removed": false
        },
        {
          "address": "0x3e59a31363e2ad014dcbc521c4a0d5757d9f3402",
          "topics": [
            "0xa534c8dbe71f871f9f3530e97a74601fea17b426cae02e1c5aee42c96c784051",
            "0x000000000000000000000000ceba9300f2b948710d2653dd7b07f33a8b32118c",
            "0x0000000000000000000000003a4db9e7306af09012ceb0f222d581fd1f0c6d71",
            "0x0000000000000000000000003a4db9e7306af09012ceb0f222d581fd1f0c6d71"
          ],
          "data": "0x00000000000000000000000000000000000000000000000000000000000027100000000000000000000000000000000000000000000000000000000000000000",
          "blockHash": "0x755990d2a2e56484df43751a4d0d3d154109a43c8fcc90a2ce4360cb87c831a3",
          "blockNumber": "0x2025165",
          "transactionHash": "0xbb2d6ab05a92875f0957fe17407fa91755124c89d54343c601eaadec5003803f",
          "transactionIndex": "0x9",
          "logIndex": "0x21",
          "removed": false
        }
      ],
      "logsBloom": "0x10000000000000000000100000400000000000000000000000000000000000000000000000000000000000000000400000110000c00000000000000000000000000000008000000000000008000000000000000000000000000000000000000000000000020000000000000000000800000000000000000000000010000000000000000000000000000000000000400000000000000000002200000000000000000001000000000000000000000000000000000000000000400000000000010000000002000080200000022000000000000000000000001000000000000020040000100000004010000800000000000000000000000000000000000000040000",
      "type": "0x0",
      "transactionHash": "0xbb2d6ab05a92875f0957fe17407fa91755124c89d54343c601eaadec5003803f",
      "transactionIndex": "0x9",
      "blockHash": "0x755990d2a2e56484df43751a4d0d3d154109a43c8fcc90a2ce4360cb87c831a3",
      "blockNumber": "0x2025165",
      "gasUsed": "0x2c7da",
      "effectiveGasPrice": "0x5d22cfc40",
      "from": "0x3a4db9e7306af09012ceb0f222d581fd1f0c6d71",
      "to": "0x3e59a31363e2ad014dcbc521c4a0d5757d9f3402",
      "contractAddress": null,
      "l1BaseFeeScalar": "0x0",
      "l1BlobBaseFee": "0x340c84b2c",
      "l1BlobBaseFeeScalar": "0x0",
      "l1Fee": "0x0",
      "l1GasPrice": "0x2d4d13c9",
      "l1GasUsed": "0x6cd"
    },
    {
      "status": "0x1",
      "cumulativeGasUsed": "0x1a9570",
      "logs": [
        {
          "address": "0x3e59a31363e2ad014dcbc521c4a0d5757d9f3402",
          "topics": [
            "0x804c9b842b2748a22bb64b345453a3de7ca54a6ca45ce00d415894979e22897a",
            "0x00000000000000000000000048065fbbe25f71c9282ddf5e1cd6d6a887483d5e"
          ],
          "data": "0x000000000000000000000000000000000000000000000009650db8246135410100000000000000000000000000000000000000000000000000000000000000000000000000000000000000000000000000000000000019ea351976187a974d7a0000000000000000000000000000000000000000033b5f8e192875787d22e0fa0000000000000000000000000000000000000000033bcc8ebfa744e17bc23e31",
          "blockHash": "0xcd7cf413bd2dc4ca1c7a9f857d3f5dac913230a54f64e8fc9bf5a992ced271fc",
          "blockNumber": "0x2025166",
          "transactionHash": "0xec959b99f8bfb8a1dd2c711198bfa149d13fa86c99d2f954f0618804a7568a33",
          "transactionIndex": "0xc",
          "logIndex": "0x23",
          "removed": false
        },
        {
          "address": "0x3e59a31363e2ad014dcbc521c4a0d5757d9f3402",
          "topics": [
            "0x44c58d81365b66dd4b1a7f36c25aa97b8c71c361ee4937adc1a00000227db5dd",
            "0x00000000000000000000000048065fbbe25f71c9282ddf5e1cd6d6a887483d5e",
            "0x0000000000000000000000003a4db9e7306af09012ceb0f222d581fd1f0c6d71"
          ],
          "data": "0x",
          "blockHash": "0xcd7cf413bd2dc4ca1c7a9f857d3f5dac913230a54f64e8fc9bf5a992ced271fc",
          "blockNumber": "0x2025166",
          "transactionHash": "0xec959b99f8bfb8a1dd2c711198bfa149d13fa86c99d2f954f0618804a7568a33",
          "transactionIndex": "0xc",
          "logIndex": "0x24",
          "removed": false
        },
        {
          "address": "0xdee98402a302e4d707fb9bf2bac66faeec31e8df",
          "topics": [
            "0xddf252ad1be2c89b69c2b068fc378daa952ba7f163c4a11628f55a4df523b3ef",
            "0x0000000000000000000000003a4db9e7306af09012ceb0f222d581fd1f0c6d71",
            "0x0000000000000000000000000000000000000000000000000000000000000000"
          ],
          "data": "0x00000000000000000000000000000000000000000000000000000000000186a0",
          "blockHash": "0xcd7cf413bd2dc4ca1c7a9f857d3f5dac913230a54f64e8fc9bf5a992ced271fc",
          "blockNumber": "0x2025166",
          "transactionHash": "0xec959b99f8bfb8a1dd2c711198bfa149d13fa86c99d2f954f0618804a7568a33",
          "transactionIndex": "0xc",
          "logIndex": "0x25",
          "removed": false
        },
        {
          "address": "0xdee98402a302e4d707fb9bf2bac66faeec31e8df",
          "topics": [
            "0x4cf25bc1d991c17529c25213d3cc0cda295eeaad5f13f361969b12ea48015f90",
            "0x0000000000000000000000003a4db9e7306af09012ceb0f222d581fd1f0c6d71",
            "0x0000000000000000000000003a4db9e7306af09012ceb0f222d581fd1f0c6d71"
          ],
          "data": "0x00000000000000000000000000000000000000000000000000000000000186a000000000000000000000000000000000000000000000000000000000000000000000000000000000000000000000000000000000033b5f8e192875787d22e0fa",
          "blockHash": "0xcd7cf413bd2dc4ca1c7a9f857d3f5dac913230a54f64e8fc9bf5a992ced271fc",
          "blockNumber": "0x2025166",
          "transactionHash": "0xec959b99f8bfb8a1dd2c711198bfa149d13fa86c99d2f954f0618804a7568a33",
          "transactionIndex": "0xc",
          "logIndex": "0x26",
          "removed": false
        },
        {
          "address": "0x48065fbbe25f71c9282ddf5e1cd6d6a887483d5e",
          "topics": [
            "0xddf252ad1be2c89b69c2b068fc378daa952ba7f163c4a11628f55a4df523b3ef",
            "0x000000000000000000000000dee98402a302e4d707fb9bf2bac66faeec31e8df",
            "0x0000000000000000000000003a4db9e7306af09012ceb0f222d581fd1f0c6d71"
          ],
          "data": "0x00000000000000000000000000000000000000000000000000000000000186a0",
          "blockHash": "0xcd7cf413bd2dc4ca1c7a9f857d3f5dac913230a54f64e8fc9bf5a992ced271fc",
          "blockNumber": "0x2025166",
          "transactionHash": "0xec959b99f8bfb8a1dd2c711198bfa149d13fa86c99d2f954f0618804a7568a33",
          "transactionIndex": "0xc",
          "logIndex": "0x27",
          "removed": false
        },
        {
          "address": "0x3e59a31363e2ad014dcbc521c4a0d5757d9f3402",
          "topics": [
            "0x3115d1449a7b732c986cba18244e897a450f61e1bb8d589cd2e69e6c8924f9f7",
            "0x00000000000000000000000048065fbbe25f71c9282ddf5e1cd6d6a887483d5e",
            "0x0000000000000000000000003a4db9e7306af09012ceb0f222d581fd1f0c6d71",
            "0x0000000000000000000000003a4db9e7306af09012ceb0f222d581fd1f0c6d71"
          ],
          "data": "0x00000000000000000000000000000000000000000000000000000000000186a0",
          "blockHash": "0xcd7cf413bd2dc4ca1c7a9f857d3f5dac913230a54f64e8fc9bf5a992ced271fc",
          "blockNumber": "0x2025166",
          "transactionHash": "0xec959b99f8bfb8a1dd2c711198bfa149d13fa86c99d2f954f0618804a7568a33",
          "transactionIndex": "0xc",
          "logIndex": "0x28",
          "removed": false
        }
      ],
      "logsBloom": "0x1000000000000000020000000000000000900000000000000000000000000000000000080000000000000000000000000001000080000000000000000000000000000000000000088000000800000000000000000000000000000000000000000000000002000000000000000000080000000000000002004000001000000000000001000000000000000000000040000000000008000000020000000000000000000000008100000000004000000000100000000000000040000000000001000000000200008000000000a000000040000000000000001000000000000120040000000000000000000080000000000000000000000000000000000000000000",
      "type": "0x0",
      "transactionHash": "0xec959b99f8bfb8a1dd2c711198bfa149d13fa86c99d2f954f0618804a7568a33",
      "transactionIndex": "0xc",
      "blockHash": "0xcd7cf413bd2dc4ca1c7a9f857d3f5dac913230a54f64e8fc9bf5a992ced271fc",
      "blockNumber": "0x2025166",
      "gasUsed": "0x2a8b8",
      "effectiveGasPrice": "0x5d22cfc40",
      "from": "0x3a4db9e7306af09012ceb0f222d581fd1f0c6d71",
      "to": "0x3e59a31363e2ad014dcbc521c4a0d5757d9f3402",
      "contractAddress": null,
      "l1BaseFeeScalar": "0x0",
      "l1BlobBaseFee": "0x340c84b2c",
      "l1BlobBaseFeeScalar": "0x0",
      "l1Fee": "0x0",
      "l1GasPrice": "0x2d4d13c9",
      "l1GasUsed": "0x66f"
    }
  ],
  "libraries": [],
  "pending": [],
  "returns": {},
  "timestamp": 1745607100,
  "chain": 42220,
  "commit": "1cefd9d"
}