{
  "transactions": [
    {
      "hash": "0x4f2ad690053760381c81f4f79903485f12af22a0df631c1c01fa2433293502ec",
      "transactionType": "CALL",
      "contractName": null,
      "contractAddress": "0x3e59a31363e2ad014dcbc521c4a0d5757d9f3402",
      "function": "borrow(address,uint256,uint256,uint16,address)",
      "arguments": [
        "0xcebA9300f2b948710d2653dD7B07f33A8B32118C",
        "10000",
        "2",
        "0",
        "0x3A4dB9e7306aF09012ceb0f222d581FD1F0C6D71"
      ],
      "transaction": {
        "from": "0x3a4db9e7306af09012ceb0f222d581fd1f0c6d71",
        "to": "0x3e59a31363e2ad014dcbc521c4a0d5757d9f3402",
        "gas": "0x6443c",
        "value": "0x0",
        "input": "0xa415bcad000000000000000000000000ceba9300f2b948710d2653dd7b07f33a8b32118c0000000000000000000000000000000000000000000000000000000000002710000000000000000000000000000000000000000000000000000000000000000200000000000000000000000000000000000000000000000000000000000000000000000000000000000000003a4db9e7306af09012ceb0f222d581fd1f0c6d71",
        "nonce": "0x12",
        "chainId": "0xa4ec"
      },
      "additionalContracts": [],
      "isFixedGasLimit": false
    }
  ],
  "receipts": [
    {
      "status": "0x1",
      "cumulativeGasUsed": "0x17d0f2",
      "logs": [
        {
          "address": "0xdbe517c0fa6467873b684eccbed77217e471e862",
          "topics": [
            "0xddf252ad1be2c89b69c2b068fc378daa952ba7f163c4a11628f55a4df523b3ef",
            "0x0000000000000000000000000000000000000000000000000000000000000000",
            "0x0000000000000000000000003a4db9e7306af09012ceb0f222d581fd1f0c6d71"
          ],
          "data": "0x0000000000000000000000000000000000000000000000000000000000002710",
          "blockHash": "0xeaaf48c30c796b22d80d3aafefa06615720d431500a9a323c1660f1e087ecf47",
          "blockNumber": "0x2022772",
          "transactionHash": "0x4f2ad690053760381c81f4f79903485f12af22a0df631c1c01fa2433293502ec",
          "transactionIndex": "0xa",
          "logIndex": "0x26",
          "removed": false
        },
        {
          "address": "0xdbe517c0fa6467873b684eccbed77217e471e862",
          "topics": [
            "0x458f5fa412d0f69b08dd84872b0215675cc67bc1d5b6fd93300a1c3878b86196",
            "0x0000000000000000000000003a4db9e7306af09012ceb0f222d581fd1f0c6d71",
            "0x0000000000000000000000003a4db9e7306af09012ceb0f222d581fd1f0c6d71"
          ],
          "data": "0x000000000000000000000000000000000000000000000000000000000000271000000000000000000000000000000000000000000000000000000000000000000000000000000000000000000000000000000000033c49c10914fae3ca3fd102",
          "blockHash": "0xeaaf48c30c796b22d80d3aafefa06615720d431500a9a323c1660f1e087ecf47",
          "blockNumber": "0x2022772",
          "transactionHash": "0x4f2ad690053760381c81f4f79903485f12af22a0df631c1c01fa2433293502ec",
          "transactionIndex": "0xa",
          "logIndex": "0x27",
          "removed": false
        },
        {
          "address": "0x3e59a31363e2ad014dcbc521c4a0d5757d9f3402",
          "topics": [
            "0x804c9b842b2748a22bb64b345453a3de7ca54a6ca45ce00d415894979e22897a",
            "0x000000000000000000000000ceba9300f2b948710d2653dd7b07f33a8b32118c"
          ],
          "data": "0x00000000000000000000000000000000000000000000d5042e2a1eeacbc10137000000000000000000000000000000000000000000000000000000000000000000000000000000000000000000000000000000000007b6640a6673ed6fcfea640000000000000000000000000000000000000000033b68286b1536bc2c11e7150000000000000000000000000000000000000000033c49c10914fae3ca3fd102",
          "blockHash": "0xeaaf48c30c796b22d80d3aafefa06615720d431500a9a323c1660f1e087ecf47",
          "blockNumber": "0x2022772",
          "transactionHash": "0x4f2ad690053760381c81f4f79903485f12af22a0df631c1c01fa2433293502ec",
          "transactionIndex": "0xa",
          "logIndex": "0x28",
          "removed": false
        },
        {
          "address": "0xceba9300f2b948710d2653dd7b07f33a8b32118c",
          "topics": [
            "0xddf252ad1be2c89b69c2b068fc378daa952ba7f163c4a11628f55a4df523b3ef",
            "0x000000000000000000000000ff8309b9e99bfd2d4021bc71a362abd93dbd4785",
            "0x0000000000000000000000003a4db9e7306af09012ceb0f222d581fd1f0c6d71"
          ],
          "data": "0x0000000000000000000000000000000000000000000000000000000000002710",
          "blockHash": "0xeaaf48c30c796b22d80d3aafefa06615720d431500a9a323c1660f1e087ecf47",
          "blockNumber": "0x2022772",
          "transactionHash": "0x4f2ad690053760381c81f4f79903485f12af22a0df631c1c01fa2433293502ec",
          "transactionIndex": "0xa",
          "logIndex": "0x29",
          "removed": false
        },
        {
          "address": "0x3e59a31363e2ad014dcbc521c4a0d5757d9f3402",
          "topics": [
            "0xb3d084820fb1a9decffb176436bd02558d15fac9b0ddfed8c465bc7359d7dce0",
            "0x000000000000000000000000ceba9300f2b948710d2653dd7b07f33a8b32118c",
            "0x0000000000000000000000003a4db9e7306af09012ceb0f222d581fd1f0c6d71",
            "0x0000000000000000000000000000000000000000000000000000000000000000"
          ],
          "data": "0x0000000000000000000000003a4db9e7306af09012ceb0f222d581fd1f0c6d710000000000000000000000000000000000000000000000000000000000002710000000000000000000000000000000000000000000000000000000000000000200000000000000000000000000000000000000000007b6640a6673ed6fcfea64",
          "blockHash": "0xeaaf48c30c796b22d80d3aafefa06615720d431500a9a323c1660f1e087ecf47",
          "blockNumber": "0x2022772",
          "transactionHash": "0x4f2ad690053760381c81f4f79903485f12af22a0df631c1c01fa2433293502ec",
          "transactionIndex": "0xa",
          "logIndex": "0x2a",
          "removed": false
        }
      ],
      "logsBloom": "0x00000000000000000000100000400000000000000000000000000000000000000000000000000000000000000004400000100000800000000000000000000000000000008000000000000008000000000000000000000000000000040000000000000000020000000000000000000800000000000000000000000010000000000000000000000000000000000000400000000000000000002200000000000000000001000000000000000000000000000000000000000000400000000000010002000002000081200000022000000000000000000000041000000000000020000000000000004010000800000001000000000000000000000000000000000000",
      "type": "0x0",
      "transactionHash": "0x4f2ad690053760381c81f4f79903485f12af22a0df631c1c01fa2433293502ec",
      "transactionIndex": "0xa",
      "blockHash": "0xeaaf48c30c796b22d80d3aafefa06615720d431500a9a323c1660f1e087ecf47",
      "blockNumber": "0x2022772",
      "gasUsed": "0x448ea",
      "effectiveGasPrice": "0x5d22cfc40",
      "from": "0x3a4db9e7306af09012ceb0f222d581fd1f0c6d71",
      "to": "0x3e59a31363e2ad014dcbc521c4a0d5757d9f3402",
      "contractAddress": null,
      "l1BaseFeeScalar": "0x0",
      "l1BlobBaseFee": "0x1817b7d5fd",
      "l1BlobBaseFeeScalar": "0x0",
      "l1Fee": "0x0",
      "l1GasPrice": "0x138c5d5e0",
      "l1GasUsed": "0x702"
    }
  ],
  "libraries": [],
  "pending": [],
  "returns": {},
  "timestamp": 1745596360,
  "chain": 42220,
  "commit": "1cefd9d"
}