{
  "transactions": [
    {
      "hash": "0x17d95c575a07d31f48173fa3d7f186f7dfbac2765d5499b0561b0636420c0d53",
      "transactionType": "CALL",
      "contractName": null,
      "contractAddress": "0x48065fbbe25f71c9282ddf5e1cd6d6a887483d5e",
      "function": "approve(address,uint256)",
      "arguments": [
        "0x3E59A31363E2ad014dcbc521c4a0d5757d9f3402",
        "100000"
      ],
      "transaction": {
        "from": "0x3a4db9e7306af09012ceb0f222d581fd1f0c6d71",
        "to": "0x48065fbbe25f71c9282ddf5e1cd6d6a887483d5e",
        "gas": "0x1201c",
        "value": "0x0",
        "input": "0x095ea7b30000000000000000000000003e59a31363e2ad014dcbc521c4a0d5757d9f340200000000000000000000000000000000000000000000000000000000000186a0",
        "nonce": "0xc",
        "chainId": "0xa4ec"
      },
      "additionalContracts": [],
      "isFixedGasLimit": false
    },
    {
      "hash": "0x1a9b8845717e53c2c356805c0a0e783741eefc32b6116da09d76f60c259b95d7",
      "transactionType": "CALL",
      "contractName": null,
      "contractAddress": "0x3e59a31363e2ad014dcbc521c4a0d5757d9f3402",
      "function": "supply(address,uint256,address,uint16)",
      "arguments": [
        "0x48065fbBE25f71C9282ddf5e1cD6D6A887483D5e",
        "100000",
        "0x3A4dB9e7306aF09012ceb0f222d581FD1F0C6D71",
        "0"
      ],
      "transaction": {
        "from": "0x3a4db9e7306af09012ceb0f222d581fd1f0c6d71",
        "to": "0x3e59a31363e2ad014dcbc521c4a0d5757d9f3402",
        "gas": "0x46ea5",
        "value": "0x0",
        "input": "0x617ba03700000000000000000000000048065fbbe25f71c9282ddf5e1cd6d6a887483d5e00000000000000000000000000000000000000000000000000000000000186a00000000000000000000000003a4db9e7306af09012ceb0f222d581fd1f0c6d710000000000000000000000000000000000000000000000000000000000000000",
        "nonce": "0xd",
        "chainId": "0xa4ec"
      },
      "additionalContracts": [],
      "isFixedGasLimit": false
    },
    {
      "hash": "0x6f6ff371ecabbbb4e8993802f3cf67d66c445f39299ca4c72d376a1121bf0188",
      "transactionType": "CALL",
      "contractName": null,
      "contractAddress": "0x3e59a31363e2ad014dcbc521c4a0d5757d9f3402",
      "function": "setUserUseReserveAsCollateral(address,bool)",
      "arguments": [
        "0x48065fbBE25f71C9282ddf5e1cD6D6A887483D5e",
        "true"
      ],
      "transaction": {
        "from": "0x3a4db9e7306af09012ceb0f222d581fd1f0c6d71",
        "to": "0x3e59a31363e2ad014dcbc521c4a0d5757d9f3402",
        "gas": "0x1bf38",
        "value": "0x0",
        "input": "0x5a3b74b900000000000000000000000048065fbbe25f71c9282ddf5e1cd6d6a887483d5e0000000000000000000000000000000000000000000000000000000000000001",
        "nonce": "0xe",
        "chainId": "0xa4ec"
      },
      "additionalContracts": [],
      "isFixedGasLimit": false
    },
    {
      "hash": "0x1375f15862617d03d6bc613bf28839707c0298bc360b944b762cc980c7ea5bf2",
      "transactionType": "CALL",
      "contractName": null,
      "contractAddress": "0x3e59a31363e2ad014dcbc521c4a0d5757d9f3402",
      "function": "borrow(address,uint256,uint256,uint16,address)",
      "arguments": [
        "0xcebA9300f2b948710d2653dD7B07f33A8B32118C",
        "10000",
        "2",
        "0",
        "0x3A4dB9e7306aF09012ceb0f222d581FD1F0C6D71"
      ],
      "transaction": {
        "from": "0x3a4db9e7306af09012ceb0f222d581fd1f0c6d71",
        "to": "0x3e59a31363e2ad014dcbc521c4a0d5757d9f3402",
        "gas": "0x674b8",
        "value": "0x0",
        "input": "0xa415bcad000000000000000000000000ceba9300f2b948710d2653dd7b07f33a8b32118c0000000000000000000000000000000000000000000000000000000000002710000000000000000000000000000000000000000000000000000000000000000200000000000000000000000000000000000000000000000000000000000000000000000000000000000000003a4db9e7306af09012ceb0f222d581fd1f0c6d71",
        "nonce": "0xf",
        "chainId": "0xa4ec"
      },
      "additionalContracts": [],
      "isFixedGasLimit": false
    }
  ],
  "receipts": [
    {
      "status": "0x1",
      "cumulativeGasUsed": "0x10c1b2",
      "logs": [
        {
          "address": "0x48065fbbe25f71c9282ddf5e1cd6d6a887483d5e",
          "topics": [
            "0x8c5be1e5ebec7d5bd14f71427d1e84f3dd0314c0f7b2291e5b200ac8c7c3b925",
            "0x0000000000000000000000003a4db9e7306af09012ceb0f222d581fd1f0c6d71",
            "0x0000000000000000000000003e59a31363e2ad014dcbc521c4a0d5757d9f3402"
          ],
          "data": "0x00000000000000000000000000000000000000000000000000000000000186a0",
          "blockHash": "0x9a421b20eaef980dc19d615b93be106a05e8cb294f9747a9b3fae87f7bd4d281",
          "blockNumber": "0x202271b",
          "transactionHash": "0x17d95c575a07d31f48173fa3d7f186f7dfbac2765d5499b0561b0636420c0d53",
          "transactionIndex": "0x8",
          "logIndex": "0x25",
          "removed": false
        }
      ],
      "logsBloom": "0x00000000000000010000020000000000000000000000000000000000000000000000000000000000000000000000000000000000000000000000000000200000000000000000000000000000000000000000000000000000000000000000000000000000000000000000000000000000000000000000000040000000000000000000010000000000000000000000400000000000000000000000000000000000020000100000000000000000000000000000000000000000000000000000000000000000000080000000008000000000000000000000001000000000000000000010000000000000000000000000000000000000000000000000000000000000",
      "type": "0x0",
      "transactionHash": "0x17d95c575a07d31f48173fa3d7f186f7dfbac2765d5499b0561b0636420c0d53",
      "transactionIndex": "0x8",
      "blockHash": "0x9a421b20eaef980dc19d615b93be106a05e8cb294f9747a9b3fae87f7bd4d281",
      "blockNumber": "0x202271b",
      "gasUsed": "0xd097",
      "effectiveGasPrice": "0x5d22cfc40",
      "from": "0x3a4db9e7306af09012ceb0f222d581fd1f0c6d71",
      "to": "0x48065fbbe25f71c9282ddf5e1cd6d6a887483d5e",
      "contractAddress": null,
      "l1BaseFeeScalar": "0x0",
      "l1BlobBaseFee": "0x1817b7d5fd",
      "l1BlobBaseFeeScalar": "0x0",
      "l1Fee": "0x0",
      "l1GasPrice": "0x138c5d5e0",
      "l1GasUsed": "0x640"
    },
    {
      "status": "0x1",
      "cumulativeGasUsed": "0x13f729",
      "logs": [
        {
          "address": "0x3e59a31363e2ad014dcbc521c4a0d5757d9f3402",
          "topics": [
            "0x804c9b842b2748a22bb64b345453a3de7ca54a6ca45ce00d415894979e22897a",
            "0x00000000000000000000000048065fbbe25f71c9282ddf5e1cd6d6a887483d5e"
          ],
          "data": "0x0000000000000000000000000000000000000000000000012ba1667361d2310f0000000000000000000000000000000000000000000000000000000000000000000000000000000000000000000000000000000000000925a32f87d273c3b9b80000000000000000000000000000000000000000033b5f8e18a420c0178949610000000000000000000000000000000000000000033bcc8d197c863796e7cc59",
          "blockHash": "0x9a421b20eaef980dc19d615b93be106a05e8cb294f9747a9b3fae87f7bd4d281",
          "blockNumber": "0x202271b",
          "transactionHash": "0x1a9b8845717e53c2c356805c0a0e783741eefc32b6116da09d76f60c259b95d7",
          "transactionIndex": "0x9",
          "logIndex": "0x26",
          "removed": false
        },
        {
          "address": "0x48065fbbe25f71c9282ddf5e1cd6d6a887483d5e",
          "topics": [
            "0xddf252ad1be2c89b69c2b068fc378daa952ba7f163c4a11628f55a4df523b3ef",
            "0x0000000000000000000000003a4db9e7306af09012ceb0f222d581fd1f0c6d71",
            "0x000000000000000000000000dee98402a302e4d707fb9bf2bac66faeec31e8df"
          ],
          "data": "0x00000000000000000000000000000000000000000000000000000000000186a0",
          "blockHash": "0x9a421b20eaef980dc19d615b93be106a05e8cb294f9747a9b3fae87f7bd4d281",
          "blockNumber": "0x202271b",
          "transactionHash": "0x1a9b8845717e53c2c356805c0a0e783741eefc32b6116da09d76f60c259b95d7",
          "transactionIndex": "0x9",
          "logIndex": "0x27",
          "removed": false
        },
        {
          "address": "0x48065fbbe25f71c9282ddf5e1cd6d6a887483d5e",
          "topics": [
            "0x8c5be1e5ebec7d5bd14f71427d1e84f3dd0314c0f7b2291e5b200ac8c7c3b925",
            "0x0000000000000000000000003a4db9e7306af09012ceb0f222d581fd1f0c6d71",
            "0x0000000000000000000000003e59a31363e2ad014dcbc521c4a0d5757d9f3402"
          ],
          "data": "0x0000000000000000000000000000000000000000000000000000000000000000",
          "blockHash": "0x9a421b20eaef980dc19d615b93be106a05e8cb294f9747a9b3fae87f7bd4d281",
          "blockNumber": "0x202271b",
          "transactionHash": "0x1a9b8845717e53c2c356805c0a0e783741eefc32b6116da09d76f60c259b95d7",
          "transactionIndex": "0x9",
          "logIndex": "0x28",
          "removed": false
        },
        {
          "address": "0xdee98402a302e4d707fb9bf2bac66faeec31e8df",
          "topics": [
            "0xddf252ad1be2c89b69c2b068fc378daa952ba7f163c4a11628f55a4df523b3ef",
            "0x0000000000000000000000000000000000000000000000000000000000000000",
            "0x0000000000000000000000003a4db9e7306af09012ceb0f222d581fd1f0c6d71"
          ],
          "data": "0x00000000000000000000000000000000000000000000000000000000000186a0",
          "blockHash": "0x9a421b20eaef980dc19d615b93be106a05e8cb294f9747a9b3fae87f7bd4d281",
          "blockNumber": "0x202271b",
          "transactionHash": "0x1a9b8845717e53c2c356805c0a0e783741eefc32b6116da09d76f60c259b95d7",
          "transactionIndex": "0x9",
          "logIndex": "0x29",
          "removed": false
        },
        {
          "address": "0xdee98402a302e4d707fb9bf2bac66faeec31e8df",
          "topics": [
            "0x458f5fa412d0f69b08dd84872b0215675cc67bc1d5b6fd93300a1c3878b86196",
            "0x0000000000000000000000003a4db9e7306af09012ceb0f222d581fd1f0c6d71",
            "0x0000000000000000000000003a4db9e7306af09012ceb0f222d581fd1f0c6d71"
          ],
          "data": "0x00000000000000000000000000000000000000000000000000000000000186a000000000000000000000000000000000000000000000000000000000000000000000000000000000000000000000000000000000033b5f8e18a420c017894961",
          "blockHash": "0x9a421b20eaef980dc19d615b93be106a05e8cb294f9747a9b3fae87f7bd4d281",
          "blockNumber": "0x202271b",
          "transactionHash": "0x1a9b8845717e53c2c356805c0a0e783741eefc32b6116da09d76f60c259b95d7",
          "transactionIndex": "0x9",
          "logIndex": "0x2a",
          "removed": false
        },
        {
          "address": "0x3e59a31363e2ad014dcbc521c4a0d5757d9f3402",
          "topics": [
            "0x00058a56ea94653cdf4f152d227ace22d4c00ad99e2a43f58cb7d9e3feb295f2",
            "0x00000000000000000000000048065fbbe25f71c9282ddf5e1cd6d6a887483d5e",
            "0x0000000000000000000000003a4db9e7306af09012ceb0f222d581fd1f0c6d71"
          ],
          "data": "0x",
          "blockHash": "0x9a421b20eaef980dc19d615b93be106a05e8cb294f9747a9b3fae87f7bd4d281",
          "blockNumber": "0x202271b",
          "transactionHash": "0x1a9b8845717e53c2c356805c0a0e783741eefc32b6116da09d76f60c259b95d7",
          "transactionIndex": "0x9",
          "logIndex": "0x2b",
          "removed": false
        },
        {
          "address": "0x3e59a31363e2ad014dcbc521c4a0d5757d9f3402",
          "topics": [
            "0x2b627736bca15cd5381dcf80b0bf11fd197d01a037c52b927a881a10fb73ba61",
            "0x00000000000000000000000048065fbbe25f71c9282ddf5e1cd6d6a887483d5e",
            "0x0000000000000000000000003a4db9e7306af09012ceb0f222d581fd1f0c6d71",
            "0x0000000000000000000000000000000000000000000000000000000000000000"
          ],
          "data": "0x0000000000000000000000003a4db9e7306af09012ceb0f222d581fd1f0c6d7100000000000000000000000000000000000000000000000000000000000186a0",
          "blockHash": "0x9a421b20eaef980dc19d615b93be106a05e8cb294f9747a9b3fae87f7bd4d281",
          "blockNumber": "0x202271b",
          "transactionHash": "0x1a9b8845717e53c2c356805c0a0e783741eefc32b6116da09d76f60c259b95d7",
          "transactionIndex": "0x9",
          "logIndex": "0x2c",
          "removed": false
        }
      ],
      "logsBloom": "0x0000000000000801028002000000000000100000000000000000000000000000000000080000000000000000000400000000000080000000000000000020000000000000000000080000000800000000000000000000000000000004000000000000000002000000000000000000080000000000000000004000001000000000000001008000000000000000000040000000000000000000020000000000000002000010000100000000004000000000100000000000000040000000000001000200000200008000000000a040000040000000000000001000000000000120000010000000000000000000000000000040000000000000000000400000000000",
      "type": "0x0",
      "transactionHash": "0x1a9b8845717e53c2c356805c0a0e783741eefc32b6116da09d76f60c259b95d7",
      "transactionIndex": "0x9",
      "blockHash": "0x9a421b20eaef980dc19d615b93be106a05e8cb294f9747a9b3fae87f7bd4d281",
      "blockNumber": "0x202271b",
      "gasUsed": "0x33577",
      "effectiveGasPrice": "0x5d22cfc40",
      "from": "0x3a4db9e7306af09012ceb0f222d581fd1f0c6d71",
      "to": "0x3e59a31363e2ad014dcbc521c4a0d5757d9f3402",
      "contractAddress": null,
      "l1BaseFeeScalar": "0x0",
      "l1BlobBaseFee": "0x1817b7d5fd",
      "l1BlobBaseFeeScalar": "0x0",
      "l1Fee": "0x0",
      "l1GasPrice": "0x138c5d5e0",
      "l1GasUsed": "0x6cd"
    },
    {
      "status": "0x1",
      "cumulativeGasUsed": "0x121c0d",
      "logs": [],
      "logsBloom": "0x00000000000000000000000000000000000000000000000000000000000000000000000000000000000000000000000000000000000000000000000000000000000000000000000000000000000000000000000000000000000000000000000000000000000000000000000000000000000000000000000000000000000000000000000000000000000000000000000000000000000000000000000000000000000000000000000000000000000000000000000000000000000000000000000000000000000000000000000000000000000000000000000000000000000000000000000000000000000000000000000000000000000000000000000000000000",
      "type": "0x0",
      "transactionHash": "0x6f6ff371ecabbbb4e8993802f3cf67d66c445f39299ca4c72d376a1121bf0188",
      "transactionIndex": "0x7",
      "blockHash": "0x67eb1129ecab5d5e571ae56793f253cb34eacd17f56e7814fad53d25adc98b91",
      "blockNumber": "0x202271c",
      "gasUsed": "0x14596",
      "effectiveGasPrice": "0x5d22cfc40",
      "from": "0x3a4db9e7306af09012ceb0f222d581fd1f0c6d71",
      "to": "0x3e59a31363e2ad014dcbc521c4a0d5757d9f3402",
      "contractAddress": null,
      "l1BaseFeeScalar": "0x0",
      "l1BlobBaseFee": "0x1817b7d5fd",
      "l1BlobBaseFeeScalar": "0x0",
      "l1Fee": "0x0",
      "l1GasPrice": "0x138c5d5e0",
      "l1GasUsed": "0x640"
    },
    {
      "status": "0x1",
      "cumulativeGasUsed": "0xd1604",
      "logs": [
        {
          "address": "0xdbe517c0fa6467873b684eccbed77217e471e862",
          "topics": [
            "0xddf252ad1be2c89b69c2b068fc378daa952ba7f163c4a11628f55a4df523b3ef",
            "0x0000000000000000000000000000000000000000000000000000000000000000",
            "0x0000000000000000000000003a4db9e7306af09012ceb0f222d581fd1f0c6d71"
          ],
          "data": "0x0000000000000000000000000000000000000000000000000000000000002710",
          "blockHash": "0xf869b91a6e51590b6906c927cf3de63134608f961c3a5f797c8dd92dce5f39a3",
          "blockNumber": "0x202271d",
          "transactionHash": "0x1375f15862617d03d6bc613bf28839707c0298bc360b944b762cc980c7ea5bf2",
          "transactionIndex": "0x5",
          "logIndex": "0x11",
          "removed": false
        },
        {
          "address": "0xdbe517c0fa6467873b684eccbed77217e471e862",
          "topics": [
            "0x458f5fa412d0f69b08dd84872b0215675cc67bc1d5b6fd93300a1c3878b86196",
            "0x0000000000000000000000003a4db9e7306af09012ceb0f222d581fd1f0c6d71",
            "0x0000000000000000000000003a4db9e7306af09012ceb0f222d581fd1f0c6d71"
          ],
          "data": "0x000000000000000000000000000000000000000000000000000000000000271000000000000000000000000000000000000000000000000000000000000000000000000000000000000000000000000000000000033c49bfabdb29a3df7c3ab3",
          "blockHash": "0xf869b91a6e51590b6906c927cf3de63134608f961c3a5f797c8dd92dce5f39a3",
          "blockNumber": "0x202271d",
          "transactionHash": "0x1375f15862617d03d6bc613bf28839707c0298bc360b944b762cc980c7ea5bf2",
          "transactionIndex": "0x5",
          "logIndex": "0x12",
          "removed": false
        },
        {
          "address": "0x3e59a31363e2ad014dcbc521c4a0d5757d9f3402",
          "topics": [
            "0x804c9b842b2748a22bb64b345453a3de7ca54a6ca45ce00d415894979e22897a",
            "0x000000000000000000000000ceba9300f2b948710d2653dd7b07f33a8b32118c"
          ],
          "data": "0x00000000000000000000000000000000000000000000d5042ac374342087ee33000000000000000000000000000000000000000000000000000000000000000000000000000000000000000000000000000000000007b663faa376f94f5952e90000000000000000000000000000000000000000033b68284571f23e017239db0000000000000000000000000000000000000000033c49bfabdb29a3df7c3ab3",
          "blockHash": "0xf869b91a6e51590b6906c927cf3de63134608f961c3a5f797c8dd92dce5f39a3",
          "blockNumber": "0x202271d",
          "transactionHash": "0x1375f15862617d03d6bc613bf28839707c0298bc360b944b762cc980c7ea5bf2",
          "transactionIndex": "0x5",
          "logIndex": "0x13",
          "removed": false
        },
        {
          "address": "0xceba9300f2b948710d2653dd7b07f33a8b32118c",
          "topics": [
            "0xddf252ad1be2c89b69c2b068fc378daa952ba7f163c4a11628f55a4df523b3ef",
            "0x000000000000000000000000ff8309b9e99bfd2d4021bc71a362abd93dbd4785",
            "0x0000000000000000000000003a4db9e7306af09012ceb0f222d581fd1f0c6d71"
          ],
          "data": "0x0000000000000000000000000000000000000000000000000000000000002710",
          "blockHash": "0xf869b91a6e51590b6906c927cf3de63134608f961c3a5f797c8dd92dce5f39a3",
          "blockNumber": "0x202271d",
          "transactionHash": "0x1375f15862617d03d6bc613bf28839707c0298bc360b944b762cc980c7ea5bf2",
          "transactionIndex": "0x5",
          "logIndex": "0x14",
          "removed": false
        },
        {
          "address": "0x3e59a31363e2ad014dcbc521c4a0d5757d9f3402",
          "topics": [
            "0xb3d084820fb1a9decffb176436bd02558d15fac9b0ddfed8c465bc7359d7dce0",
            "0x000000000000000000000000ceba9300f2b948710d2653dd7b07f33a8b32118c",
            "0x0000000000000000000000003a4db9e7306af09012ceb0f222d581fd1f0c6d71",
            "0x0000000000000000000000000000000000000000000000000000000000000000"
          ],
          "data": "0x0000000000000000000000003a4db9e7306af09012ceb0f222d581fd1f0c6d710000000000000000000000000000000000000000000000000000000000002710000000000000000000000000000000000000000000000000000000000000000200000000000000000000000000000000000000000007b663faa376f94f5952e9",
          "blockHash": "0xf869b91a6e51590b6906c927cf3de63134608f961c3a5f797c8dd92dce5f39a3",
          "blockNumber": "0x202271d",
          "transactionHash": "0x1375f15862617d03d6bc613bf28839707c0298bc360b944b762cc980c7ea5bf2",
          "transactionIndex": "0x5",
          "logIndex": "0x15",
          "removed": false
        }
      ],
      "logsBloom": "0x00000000000000000000100000400000000000000000000000000000000000000000000000000000000000000004400000100000800000000000000000000000000000008000000000000008000000000000000000000000000000040000000000000000020000000000000000000800000000000000000000000010000000000000000000000000000000000000400000000000000000002200000000000000000001000000000000000000000000000000000000000000400000000000010002000002000081200000022000000000000000000000041000000000000020000000000000004010000800000001000000000000000000000000000000000000",
      "type": "0x0",
      "transactionHash": "0x1375f15862617d03d6bc613bf28839707c0298bc360b944b762cc980c7ea5bf2",
      "transactionIndex": "0x5",
      "blockHash": "0xf869b91a6e51590b6906c927cf3de63134608f961c3a5f797c8dd92dce5f39a3",
      "blockNumber": "0x202271d",
      "gasUsed": "0x46bdf",
      "effectiveGasPrice": "0x5d22cfc40",
      "from": "0x3a4db9e7306af09012ceb0f222d581fd1f0c6d71",
      "to": "0x3e59a31363e2ad014dcbc521c4a0d5757d9f3402",
      "contractAddress": null,
      "l1BaseFeeScalar": "0x0",
      "l1BlobBaseFee": "0x1817b7d5fd",
      "l1BlobBaseFeeScalar": "0x0",
      "l1Fee": "0x0",
      "l1GasPrice": "0x138c5d5e0",
      "l1GasUsed": "0x702"
    }
  ],
  "libraries": [],
  "pending": [],
  "returns": {},
  "timestamp": 1745596276,
  "chain": 42220,
  "commit": "1cefd9d"
}